{
	"contracts/ChainlinkRandoms.sol": {
		"ChainlinkRandoms": {
			"abi": [
				{
					"inputs": [
						{
							"internalType": "address",
							"name": "_vrfCoordinator",
							"type": "address"
						},
						{
							"internalType": "address",
							"name": "_link",
							"type": "address"
						},
						{
							"internalType": "bytes32",
							"name": "_keyHash",
							"type": "bytes32"
						},
						{
							"internalType": "uint256",
							"name": "_fee",
							"type": "uint256"
						}
					],
					"stateMutability": "nonpayable",
					"type": "constructor"
				},
				{
					"anonymous": false,
					"inputs": [
						{
							"indexed": false,
							"internalType": "address",
							"name": "account",
							"type": "address"
						}
					],
					"name": "Paused",
					"type": "event"
				},
				{
					"anonymous": false,
					"inputs": [
						{
							"indexed": true,
							"internalType": "bytes32",
							"name": "role",
							"type": "bytes32"
						},
						{
							"indexed": true,
							"internalType": "bytes32",
							"name": "previousAdminRole",
							"type": "bytes32"
						},
						{
							"indexed": true,
							"internalType": "bytes32",
							"name": "newAdminRole",
							"type": "bytes32"
						}
					],
					"name": "RoleAdminChanged",
					"type": "event"
				},
				{
					"anonymous": false,
					"inputs": [
						{
							"indexed": true,
							"internalType": "bytes32",
							"name": "role",
							"type": "bytes32"
						},
						{
							"indexed": true,
							"internalType": "address",
							"name": "account",
							"type": "address"
						},
						{
							"indexed": true,
							"internalType": "address",
							"name": "sender",
							"type": "address"
						}
					],
					"name": "RoleGranted",
					"type": "event"
				},
				{
					"anonymous": false,
					"inputs": [
						{
							"indexed": true,
							"internalType": "bytes32",
							"name": "role",
							"type": "bytes32"
						},
						{
							"indexed": true,
							"internalType": "address",
							"name": "account",
							"type": "address"
						},
						{
							"indexed": true,
							"internalType": "address",
							"name": "sender",
							"type": "address"
						}
					],
					"name": "RoleRevoked",
					"type": "event"
				},
				{
					"anonymous": false,
					"inputs": [
						{
							"indexed": false,
							"internalType": "address",
							"name": "account",
							"type": "address"
						}
					],
					"name": "Unpaused",
					"type": "event"
				},
				{
					"inputs": [],
					"name": "DEFAULT_ADMIN_ROLE",
					"outputs": [
						{
							"internalType": "bytes32",
							"name": "",
							"type": "bytes32"
						}
					],
					"stateMutability": "view",
					"type": "function"
				},
				{
					"inputs": [],
					"name": "RANDOMNESS_REQUESTER",
					"outputs": [
						{
							"internalType": "bytes32",
							"name": "",
							"type": "bytes32"
						}
					],
					"stateMutability": "view",
					"type": "function"
				},
				{
					"inputs": [
						{
							"internalType": "address",
							"name": "user",
							"type": "address"
						}
					],
					"name": "getRandomSeed",
					"outputs": [
						{
							"internalType": "uint256",
							"name": "",
							"type": "uint256"
						}
					],
					"stateMutability": "view",
					"type": "function"
				},
				{
					"inputs": [
						{
							"internalType": "bytes32",
							"name": "role",
							"type": "bytes32"
						}
					],
					"name": "getRoleAdmin",
					"outputs": [
						{
							"internalType": "bytes32",
							"name": "",
							"type": "bytes32"
						}
					],
					"stateMutability": "view",
					"type": "function"
				},
				{
					"inputs": [
						{
							"internalType": "bytes32",
							"name": "role",
							"type": "bytes32"
						},
						{
							"internalType": "uint256",
							"name": "index",
							"type": "uint256"
						}
					],
					"name": "getRoleMember",
					"outputs": [
						{
							"internalType": "address",
							"name": "",
							"type": "address"
						}
					],
					"stateMutability": "view",
					"type": "function"
				},
				{
					"inputs": [
						{
							"internalType": "bytes32",
							"name": "role",
							"type": "bytes32"
						}
					],
					"name": "getRoleMemberCount",
					"outputs": [
						{
							"internalType": "uint256",
							"name": "",
							"type": "uint256"
						}
					],
					"stateMutability": "view",
					"type": "function"
				},
				{
					"inputs": [
						{
							"internalType": "bytes32",
							"name": "role",
							"type": "bytes32"
						},
						{
							"internalType": "address",
							"name": "account",
							"type": "address"
						}
					],
					"name": "grantRole",
					"outputs": [],
					"stateMutability": "nonpayable",
					"type": "function"
				},
				{
					"inputs": [
						{
							"internalType": "bytes32",
							"name": "role",
							"type": "bytes32"
						},
						{
							"internalType": "address",
							"name": "account",
							"type": "address"
						}
					],
					"name": "hasRole",
					"outputs": [
						{
							"internalType": "bool",
							"name": "",
							"type": "bool"
						}
					],
					"stateMutability": "view",
					"type": "function"
				},
				{
					"inputs": [],
					"name": "pause",
					"outputs": [],
					"stateMutability": "nonpayable",
					"type": "function"
				},
				{
					"inputs": [],
					"name": "paused",
					"outputs": [
						{
							"internalType": "bool",
							"name": "",
							"type": "bool"
						}
					],
					"stateMutability": "view",
					"type": "function"
				},
				{
					"inputs": [
						{
							"internalType": "bytes32",
							"name": "requestId",
							"type": "bytes32"
						},
						{
							"internalType": "uint256",
							"name": "randomness",
							"type": "uint256"
						}
					],
					"name": "rawFulfillRandomness",
					"outputs": [],
					"stateMutability": "nonpayable",
					"type": "function"
				},
				{
					"inputs": [
						{
							"internalType": "bytes32",
							"name": "role",
							"type": "bytes32"
						},
						{
							"internalType": "address",
							"name": "account",
							"type": "address"
						}
					],
					"name": "renounceRole",
					"outputs": [],
					"stateMutability": "nonpayable",
					"type": "function"
				},
				{
					"inputs": [],
					"name": "requestRandomNumber",
					"outputs": [],
					"stateMutability": "nonpayable",
					"type": "function"
				},
				{
					"inputs": [
						{
							"internalType": "bytes32",
							"name": "role",
							"type": "bytes32"
						},
						{
							"internalType": "address",
							"name": "account",
							"type": "address"
						}
					],
					"name": "revokeRole",
					"outputs": [],
					"stateMutability": "nonpayable",
					"type": "function"
				},
				{
					"inputs": [],
					"name": "unpause",
					"outputs": [],
					"stateMutability": "nonpayable",
					"type": "function"
				},
				{
					"inputs": [
						{
							"internalType": "uint256",
							"name": "tokenAmount",
							"type": "uint256"
						}
					],
					"name": "withdrawLink",
					"outputs": [],
					"stateMutability": "nonpayable",
					"type": "function"
				}
			],
			"devdoc": {
				"kind": "dev",
				"methods": {
					"getRoleAdmin(bytes32)": {
						"details": "Returns the admin role that controls `role`. See {grantRole} and {revokeRole}. To change a role's admin, use {_setRoleAdmin}."
					},
					"getRoleMember(bytes32,uint256)": {
						"details": "Returns one of the accounts that have `role`. `index` must be a value between 0 and {getRoleMemberCount}, non-inclusive. Role bearers are not sorted in any particular way, and their ordering may change at any point. WARNING: When using {getRoleMember} and {getRoleMemberCount}, make sure you perform all queries on the same block. See the following https://forum.openzeppelin.com/t/iterating-over-elements-on-enumerableset-in-openzeppelin-contracts/2296[forum post] for more information."
					},
					"getRoleMemberCount(bytes32)": {
						"details": "Returns the number of accounts that have `role`. Can be used together with {getRoleMember} to enumerate all bearers of a role."
					},
					"grantRole(bytes32,address)": {
						"details": "Grants `role` to `account`. If `account` had not been already granted `role`, emits a {RoleGranted} event. Requirements: - the caller must have ``role``'s admin role."
					},
					"hasRole(bytes32,address)": {
						"details": "Returns `true` if `account` has been granted `role`."
					},
					"paused()": {
						"details": "Returns true if the contract is paused, and false otherwise."
					},
					"renounceRole(bytes32,address)": {
						"details": "Revokes `role` from the calling account. Roles are often managed via {grantRole} and {revokeRole}: this function's purpose is to provide a mechanism for accounts to lose their privileges if they are compromised (such as when a trusted device is misplaced). If the calling account had been granted `role`, emits a {RoleRevoked} event. Requirements: - the caller must be `account`."
					},
					"revokeRole(bytes32,address)": {
						"details": "Revokes `role` from `account`. If `account` had been granted `role`, emits a {RoleRevoked} event. Requirements: - the caller must have ``role``'s admin role."
					}
				},
				"version": 1
			},
			"evm": {
				"assembly": "    /* \"contracts/ChainlinkRandoms.sol\":516:2864  contract ChainlinkRandoms is IRandoms, Pausable, AccessControl, VRFConsumerBase {... */\n  mstore(0x40, 0xc0)\n    /* \"contracts/ChainlinkRandoms.sol\":1154:1473  constructor(address _vrfCoordinator, address _link, bytes32 _keyHash, uint256 _fee)... */\n  callvalue\n  dup1\n  iszero\n  tag_1\n  jumpi\n  0x00\n  dup1\n  revert\ntag_1:\n  pop\n  mload(0x40)\n  sub(codesize, bytecodeSize)\n  dup1\n  bytecodeSize\n  dup4\n  codecopy\n  dup2\n  dup2\n  add\n  0x40\n  mstore\n  0x80\n  dup2\n  lt\n  iszero\n  tag_2\n  jumpi\n  0x00\n  dup1\n  revert\ntag_2:\n  dup2\n  add\n  swap1\n  dup1\n  dup1\n  mload\n  swap1\n  0x20\n  add\n  swap1\n  swap3\n  swap2\n  swap1\n  dup1\n  mload\n  swap1\n  0x20\n  add\n  swap1\n  swap3\n  swap2\n  swap1\n  dup1\n  mload\n  swap1\n  0x20\n  add\n  swap1\n  swap3\n  swap2\n  swap1\n  dup1\n  mload\n  swap1\n  0x20\n  add\n  swap1\n  swap3\n  swap2\n  swap1\n  pop\n  pop\n  pop\n    /* \"contracts/ChainlinkRandoms.sol\":1275:1290  _vrfCoordinator */\n  dup4\n    /* \"contracts/ChainlinkRandoms.sol\":1323:1328  _link */\n  dup4\n    /* \"node_modules/@openzeppelin/contracts/utils/Pausable.sol\":945:950  false */\n  0x00\n    /* \"node_modules/@openzeppelin/contracts/utils/Pausable.sol\":935:942  _paused */\n  dup1\n  0x00\n    /* \"node_modules/@openzeppelin/contracts/utils/Pausable.sol\":935:950  _paused = false */\n  0x0100\n  exp\n  dup2\n  sload\n  dup2\n  0xff\n  mul\n  not\n  and\n  swap1\n  dup4\n  iszero\n  iszero\n  mul\n  or\n  swap1\n  sstore\n  pop\n    /* \"node_modules/@chainlink/contracts/src/v0.6/VRFConsumerBase.sol\":9422:9437  _vrfCoordinator */\n  dup2\n    /* \"node_modules/@chainlink/contracts/src/v0.6/VRFConsumerBase.sol\":9405:9437  vrfCoordinator = _vrfCoordinator */\n  0xffffffffffffffffffffffffffffffffffffffff\n  and\n  0xa0\n  dup2\n  0xffffffffffffffffffffffffffffffffffffffff\n  and\n  0x60\n  shl\n  dup2\n  mstore\n  pop\n  pop\n    /* \"node_modules/@chainlink/contracts/src/v0.6/VRFConsumerBase.sol\":9469:9474  _link */\n  dup1\n    /* \"node_modules/@chainlink/contracts/src/v0.6/VRFConsumerBase.sol\":9443:9475  LINK = LinkTokenInterface(_link) */\n  0xffffffffffffffffffffffffffffffffffffffff\n  and\n  0x80\n  dup2\n  0xffffffffffffffffffffffffffffffffffffffff\n  and\n  0x60\n  shl\n  dup2\n  mstore\n  pop\n  pop\n    /* \"node_modules/@chainlink/contracts/src/v0.6/VRFConsumerBase.sol\":9340:9480  constructor(address _vrfCoordinator, address _link) public {... */\n  pop\n  pop\n    /* \"contracts/ChainlinkRandoms.sol\":1385:1393  _keyHash */\n  dup2\n    /* \"contracts/ChainlinkRandoms.sol\":1375:1382  keyHash */\n  0x03\n    /* \"contracts/ChainlinkRandoms.sol\":1375:1393  keyHash = _keyHash */\n  dup2\n  swap1\n  sstore\n  pop\n    /* \"contracts/ChainlinkRandoms.sol\":1409:1413  _fee */\n  dup1\n    /* \"contracts/ChainlinkRandoms.sol\":1403:1406  fee */\n  0x04\n    /* \"contracts/ChainlinkRandoms.sol\":1403:1413  fee = _fee */\n  dup2\n  swap1\n  sstore\n  pop\n    /* \"contracts/ChainlinkRandoms.sol\":1424:1466  _setupRole(DEFAULT_ADMIN_ROLE, msg.sender) */\n  tag_9\n    /* \"node_modules/@openzeppelin/contracts/access/AccessControl.sol\":1772:1776  0x00 */\n  0x00\n    /* \"contracts/ChainlinkRandoms.sol\":1435:1453  DEFAULT_ADMIN_ROLE */\n  dup1\n  shl\n    /* \"contracts/ChainlinkRandoms.sol\":1455:1465  msg.sender */\n  caller\n    /* \"contracts/ChainlinkRandoms.sol\":1424:1434  _setupRole */\n  shl(0x20, tag_10)\n    /* \"contracts/ChainlinkRandoms.sol\":1424:1466  _setupRole(DEFAULT_ADMIN_ROLE, msg.sender) */\n  0x20\n  shr\n  jump\t// in\ntag_9:\n    /* \"contracts/ChainlinkRandoms.sol\":1154:1473  constructor(address _vrfCoordinator, address _link, bytes32 _keyHash, uint256 _fee)... */\n  pop\n  pop\n  pop\n  pop\n    /* \"contracts/ChainlinkRandoms.sol\":516:2864  contract ChainlinkRandoms is IRandoms, Pausable, AccessControl, VRFConsumerBase {... */\n  jump(tag_11)\n    /* \"node_modules/@openzeppelin/contracts/access/AccessControl.sol\":6588:6698  function _setupRole(bytes32 role, address account) internal virtual {... */\ntag_10:\n    /* \"node_modules/@openzeppelin/contracts/access/AccessControl.sol\":6666:6691  _grantRole(role, account) */\n  tag_13\n    /* \"node_modules/@openzeppelin/contracts/access/AccessControl.sol\":6677:6681  role */\n  dup3\n    /* \"node_modules/@openzeppelin/contracts/access/AccessControl.sol\":6683:6690  account */\n  dup3\n    /* \"node_modules/@openzeppelin/contracts/access/AccessControl.sol\":6666:6676  _grantRole */\n  shl(0x20, tag_14)\n    /* \"node_modules/@openzeppelin/contracts/access/AccessControl.sol\":6666:6691  _grantRole(role, account) */\n  0x20\n  shr\n  jump\t// in\ntag_13:\n    /* \"node_modules/@openzeppelin/contracts/access/AccessControl.sol\":6588:6698  function _setupRole(bytes32 role, address account) internal virtual {... */\n  pop\n  pop\n  jump\t// out\n    /* \"node_modules/@openzeppelin/contracts/access/AccessControl.sol\":7025:7209  function _grantRole(bytes32 role, address account) private {... */\ntag_14:\n    /* \"node_modules/@openzeppelin/contracts/access/AccessControl.sol\":7098:7131  _roles[role].members.add(account) */\n  tag_16\n    /* \"node_modules/@openzeppelin/contracts/access/AccessControl.sol\":7123:7130  account */\n  dup2\n    /* \"node_modules/@openzeppelin/contracts/access/AccessControl.sol\":7098:7104  _roles */\n  0x01\n    /* \"node_modules/@openzeppelin/contracts/access/AccessControl.sol\":7098:7110  _roles[role] */\n  0x00\n    /* \"node_modules/@openzeppelin/contracts/access/AccessControl.sol\":7105:7109  role */\n  dup6\n    /* \"node_modules/@openzeppelin/contracts/access/AccessControl.sol\":7098:7110  _roles[role] */\n  dup2\n  mstore\n  0x20\n  add\n  swap1\n  dup2\n  mstore\n  0x20\n  add\n  0x00\n  keccak256\n    /* \"node_modules/@openzeppelin/contracts/access/AccessControl.sol\":7098:7118  _roles[role].members */\n  0x00\n  add\n    /* \"node_modules/@openzeppelin/contracts/access/AccessControl.sol\":7098:7122  _roles[role].members.add */\n  or(tag_0_64, shl(0x20, tag_17))\n  swap1\n    /* \"node_modules/@openzeppelin/contracts/access/AccessControl.sol\":7098:7131  _roles[role].members.add(account) */\n  swap2\n  swap1\n  0x20\n  shr\n  jump\t// in\ntag_16:\n    /* \"node_modules/@openzeppelin/contracts/access/AccessControl.sol\":7094:7203  if (_roles[role].members.add(account)) {... */\n  iszero\n  tag_18\n  jumpi\n    /* \"node_modules/@openzeppelin/contracts/access/AccessControl.sol\":7179:7191  _msgSender() */\n  tag_19\n    /* \"node_modules/@openzeppelin/contracts/access/AccessControl.sol\":7179:7189  _msgSender */\n  shl(0x20, tag_20)\n    /* \"node_modules/@openzeppelin/contracts/access/AccessControl.sol\":7179:7191  _msgSender() */\n  0x20\n  shr\n  jump\t// in\ntag_19:\n    /* \"node_modules/@openzeppelin/contracts/access/AccessControl.sol\":7152:7192  RoleGranted(role, account, _msgSender()) */\n  0xffffffffffffffffffffffffffffffffffffffff\n  and\n    /* \"node_modules/@openzeppelin/contracts/access/AccessControl.sol\":7170:7177  account */\n  dup2\n    /* \"node_modules/@openzeppelin/contracts/access/AccessControl.sol\":7152:7192  RoleGranted(role, account, _msgSender()) */\n  0xffffffffffffffffffffffffffffffffffffffff\n  and\n    /* \"node_modules/@openzeppelin/contracts/access/AccessControl.sol\":7164:7168  role */\n  dup4\n    /* \"node_modules/@openzeppelin/contracts/access/AccessControl.sol\":7152:7192  RoleGranted(role, account, _msgSender()) */\n  0x2f8788117e7eff1d82e926ec794901d17c78024a50270940304540a733656f0d\n  mload(0x40)\n  mload(0x40)\n  dup1\n  swap2\n  sub\n  swap1\n  log4\n    /* \"node_modules/@openzeppelin/contracts/access/AccessControl.sol\":7094:7203  if (_roles[role].members.add(account)) {... */\ntag_18:\n    /* \"node_modules/@openzeppelin/contracts/access/AccessControl.sol\":7025:7209  function _grantRole(bytes32 role, address account) private {... */\n  pop\n  pop\n  jump\t// out\n    /* \"node_modules/@openzeppelin/contracts/utils/EnumerableSet.sol\":6429:6579  function add(AddressSet storage set, address value) internal returns (bool) {... */\ntag_17:\n    /* \"node_modules/@openzeppelin/contracts/utils/EnumerableSet.sol\":6499:6503  bool */\n  0x00\n    /* \"node_modules/@openzeppelin/contracts/utils/EnumerableSet.sol\":6522:6572  _add(set._inner, bytes32(uint256(uint160(value)))) */\n  tag_22\n    /* \"node_modules/@openzeppelin/contracts/utils/EnumerableSet.sol\":6527:6530  set */\n  dup4\n    /* \"node_modules/@openzeppelin/contracts/utils/EnumerableSet.sol\":6527:6537  set._inner */\n  0x00\n  add\n    /* \"node_modules/@openzeppelin/contracts/utils/EnumerableSet.sol\":6563:6568  value */\n  dup4\n    /* \"node_modules/@openzeppelin/contracts/utils/EnumerableSet.sol\":6547:6570  uint256(uint160(value)) */\n  0xffffffffffffffffffffffffffffffffffffffff\n  and\n    /* \"node_modules/@openzeppelin/contracts/utils/EnumerableSet.sol\":6539:6571  bytes32(uint256(uint160(value))) */\n  0x00\n  shl\n    /* \"node_modules/@openzeppelin/contracts/utils/EnumerableSet.sol\":6522:6526  _add */\n  shl(0x20, tag_23)\n    /* \"node_modules/@openzeppelin/contracts/utils/EnumerableSet.sol\":6522:6572  _add(set._inner, bytes32(uint256(uint160(value)))) */\n  0x20\n  shr\n  jump\t// in\ntag_22:\n    /* \"node_modules/@openzeppelin/contracts/utils/EnumerableSet.sol\":6515:6572  return _add(set._inner, bytes32(uint256(uint160(value)))) */\n  swap1\n  pop\n    /* \"node_modules/@openzeppelin/contracts/utils/EnumerableSet.sol\":6429:6579  function add(AddressSet storage set, address value) internal returns (bool) {... */\n  swap3\n  swap2\n  pop\n  pop\n  jump\t// out\n    /* \"node_modules/@openzeppelin/contracts/utils/Context.sol\":598:702  function _msgSender() internal view virtual returns (address payable) {... */\ntag_20:\n    /* \"node_modules/@openzeppelin/contracts/utils/Context.sol\":651:666  address payable */\n  0x00\n    /* \"node_modules/@openzeppelin/contracts/utils/Context.sol\":685:695  msg.sender */\n  caller\n    /* \"node_modules/@openzeppelin/contracts/utils/Context.sol\":678:695  return msg.sender */\n  swap1\n  pop\n    /* \"node_modules/@openzeppelin/contracts/utils/Context.sol\":598:702  function _msgSender() internal view virtual returns (address payable) {... */\n  swap1\n  jump\t// out\n    /* \"node_modules/@openzeppelin/contracts/utils/EnumerableSet.sol\":1640:2044  function _add(Set storage set, bytes32 value) private returns (bool) {... */\ntag_23:\n    /* \"node_modules/@openzeppelin/contracts/utils/EnumerableSet.sol\":1703:1707  bool */\n  0x00\n    /* \"node_modules/@openzeppelin/contracts/utils/EnumerableSet.sol\":1724:1745  _contains(set, value) */\n  tag_26\n    /* \"node_modules/@openzeppelin/contracts/utils/EnumerableSet.sol\":1734:1737  set */\n  dup4\n    /* \"node_modules/@openzeppelin/contracts/utils/EnumerableSet.sol\":1739:1744  value */\n  dup4\n    /* \"node_modules/@openzeppelin/contracts/utils/EnumerableSet.sol\":1724:1733  _contains */\n  shl(0x20, tag_27)\n    /* \"node_modules/@openzeppelin/contracts/utils/EnumerableSet.sol\":1724:1745  _contains(set, value) */\n  0x20\n  shr\n  jump\t// in\ntag_26:\n    /* \"node_modules/@openzeppelin/contracts/utils/EnumerableSet.sol\":1719:2038  if (!_contains(set, value)) {... */\n  tag_28\n  jumpi\n    /* \"node_modules/@openzeppelin/contracts/utils/EnumerableSet.sol\":1761:1764  set */\n  dup3\n    /* \"node_modules/@openzeppelin/contracts/utils/EnumerableSet.sol\":1761:1772  set._values */\n  0x00\n  add\n    /* \"node_modules/@openzeppelin/contracts/utils/EnumerableSet.sol\":1778:1783  value */\n  dup3\n    /* \"node_modules/@openzeppelin/contracts/utils/EnumerableSet.sol\":1761:1784  set._values.push(value) */\n  swap1\n  dup1\n  0x01\n  dup2\n  sload\n  add\n  dup1\n  dup3\n  sstore\n  dup1\n  swap2\n  pop\n  pop\n  0x01\n  swap1\n  sub\n  swap1\n  0x00\n  mstore\n  keccak256(0x00, 0x20)\n  add\n  0x00\n  swap1\n  swap2\n  swap1\n  swap2\n  swap1\n  swap2\n  pop\n  sstore\n    /* \"node_modules/@openzeppelin/contracts/utils/EnumerableSet.sol\":1941:1944  set */\n  dup3\n    /* \"node_modules/@openzeppelin/contracts/utils/EnumerableSet.sol\":1941:1952  set._values */\n  0x00\n  add\n    /* \"node_modules/@openzeppelin/contracts/utils/EnumerableSet.sol\":1941:1959  set._values.length */\n  dup1\n  sload\n  swap1\n  pop\n    /* \"node_modules/@openzeppelin/contracts/utils/EnumerableSet.sol\":1919:1922  set */\n  dup4\n    /* \"node_modules/@openzeppelin/contracts/utils/EnumerableSet.sol\":1919:1931  set._indexes */\n  0x01\n  add\n    /* \"node_modules/@openzeppelin/contracts/utils/EnumerableSet.sol\":1919:1938  set._indexes[value] */\n  0x00\n    /* \"node_modules/@openzeppelin/contracts/utils/EnumerableSet.sol\":1932:1937  value */\n  dup5\n    /* \"node_modules/@openzeppelin/contracts/utils/EnumerableSet.sol\":1919:1938  set._indexes[value] */\n  dup2\n  mstore\n  0x20\n  add\n  swap1\n  dup2\n  mstore\n  0x20\n  add\n  0x00\n  keccak256\n    /* \"node_modules/@openzeppelin/contracts/utils/EnumerableSet.sol\":1919:1959  set._indexes[value] = set._values.length */\n  dup2\n  swap1\n  sstore\n  pop\n    /* \"node_modules/@openzeppelin/contracts/utils/EnumerableSet.sol\":1980:1984  true */\n  0x01\n    /* \"node_modules/@openzeppelin/contracts/utils/EnumerableSet.sol\":1973:1984  return true */\n  swap1\n  pop\n  jump(tag_25)\n    /* \"node_modules/@openzeppelin/contracts/utils/EnumerableSet.sol\":1719:2038  if (!_contains(set, value)) {... */\ntag_28:\n    /* \"node_modules/@openzeppelin/contracts/utils/EnumerableSet.sol\":2022:2027  false */\n  0x00\n    /* \"node_modules/@openzeppelin/contracts/utils/EnumerableSet.sol\":2015:2027  return false */\n  swap1\n  pop\n    /* \"node_modules/@openzeppelin/contracts/utils/EnumerableSet.sol\":1640:2044  function _add(Set storage set, bytes32 value) private returns (bool) {... */\ntag_25:\n  swap3\n  swap2\n  pop\n  pop\n  jump\t// out\n    /* \"node_modules/@openzeppelin/contracts/utils/EnumerableSet.sol\":3805:3932  function _contains(Set storage set, bytes32 value) private view returns (bool) {... */\ntag_27:\n    /* \"node_modules/@openzeppelin/contracts/utils/EnumerableSet.sol\":3878:3882  bool */\n  0x00\n    /* \"node_modules/@openzeppelin/contracts/utils/EnumerableSet.sol\":3924:3925  0 */\n  dup1\n    /* \"node_modules/@openzeppelin/contracts/utils/EnumerableSet.sol\":3901:3904  set */\n  dup4\n    /* \"node_modules/@openzeppelin/contracts/utils/EnumerableSet.sol\":3901:3913  set._indexes */\n  0x01\n  add\n    /* \"node_modules/@openzeppelin/contracts/utils/EnumerableSet.sol\":3901:3920  set._indexes[value] */\n  0x00\n    /* \"node_modules/@openzeppelin/contracts/utils/EnumerableSet.sol\":3914:3919  value */\n  dup5\n    /* \"node_modules/@openzeppelin/contracts/utils/EnumerableSet.sol\":3901:3920  set._indexes[value] */\n  dup2\n  mstore\n  0x20\n  add\n  swap1\n  dup2\n  mstore\n  0x20\n  add\n  0x00\n  keccak256\n  sload\n    /* \"node_modules/@openzeppelin/contracts/utils/EnumerableSet.sol\":3901:3925  set._indexes[value] != 0 */\n  eq\n  iszero\n    /* \"node_modules/@openzeppelin/contracts/utils/EnumerableSet.sol\":3894:3925  return set._indexes[value] != 0 */\n  swap1\n  pop\n    /* \"node_modules/@openzeppelin/contracts/utils/EnumerableSet.sol\":3805:3932  function _contains(Set storage set, bytes32 value) private view returns (bool) {... */\n  swap3\n  swap2\n  pop\n  pop\n  jump\t// out\n    /* \"contracts/ChainlinkRandoms.sol\":516:2864  contract ChainlinkRandoms is IRandoms, Pausable, AccessControl, VRFConsumerBase {... */\ntag_11:\n  shr(0x60, mload(0x80))\n  shr(0x60, mload(0xa0))\n  codecopy(0x00, dataOffset(sub_0), dataSize(sub_0))\n  assignImmutable(\"0x3ac7ca38fd21a491cc5fb19169926fdbe6b54822181a3fae6f9aebec8e42713d\")\n  assignImmutable(\"0x74b0a73c8e019485c6bf7a8191beea41ecaf2ae440157a94156a991a62e7d3a5\")\n  return(0x00, dataSize(sub_0))\nstop\n\nsub_0: assembly {\n        /* \"contracts/ChainlinkRandoms.sol\":516:2864  contract ChainlinkRandoms is IRandoms, Pausable, AccessControl, VRFConsumerBase {... */\n      mstore(0x40, 0x80)\n      callvalue\n      dup1\n      iszero\n      tag_1\n      jumpi\n      0x00\n      dup1\n      revert\n    tag_1:\n      pop\n      jumpi(tag_2, lt(calldatasize, 0x04))\n      shr(0xe0, calldataload(0x00))\n      dup1\n      0x8456cb59\n      gt\n      tag_19\n      jumpi\n      dup1\n      0x94985ddd\n      gt\n      tag_20\n      jumpi\n      dup1\n      0x94985ddd\n      eq\n      tag_15\n      jumpi\n      dup1\n      0xa217fddf\n      eq\n      tag_16\n      jumpi\n      dup1\n      0xca15c873\n      eq\n      tag_17\n      jumpi\n      dup1\n      0xd547741f\n      eq\n      tag_18\n      jumpi\n      jump(tag_2)\n    tag_20:\n      dup1\n      0x8456cb59\n      eq\n      tag_11\n      jumpi\n      dup1\n      0x8678a7b2\n      eq\n      tag_12\n      jumpi\n      dup1\n      0x9010d07c\n      eq\n      tag_13\n      jumpi\n      dup1\n      0x91d14854\n      eq\n      tag_14\n      jumpi\n      jump(tag_2)\n    tag_19:\n      dup1\n      0x3f4ba83a\n      gt\n      tag_21\n      jumpi\n      dup1\n      0x3f4ba83a\n      eq\n      tag_7\n      jumpi\n      dup1\n      0x5c975abb\n      eq\n      tag_8\n      jumpi\n      dup1\n      0x790273dd\n      eq\n      tag_9\n      jumpi\n      dup1\n      0x7a8042bd\n      eq\n      tag_10\n      jumpi\n      jump(tag_2)\n    tag_21:\n      dup1\n      0x248a9ca3\n      eq\n      tag_3\n      jumpi\n      dup1\n      0x2f2ff15d\n      eq\n      tag_4\n      jumpi\n      dup1\n      0x36568abe\n      eq\n      tag_5\n      jumpi\n      dup1\n      0x3883d854\n      eq\n      tag_6\n      jumpi\n    tag_2:\n      0x00\n      dup1\n      revert\n        /* \"node_modules/@openzeppelin/contracts/access/AccessControl.sol\":4282:4394  function getRoleAdmin(bytes32 role) public view returns (bytes32) {... */\n    tag_3:\n      tag_22\n      0x04\n      dup1\n      calldatasize\n      sub\n      0x20\n      dup2\n      lt\n      iszero\n      tag_23\n      jumpi\n      0x00\n      dup1\n      revert\n    tag_23:\n      dup2\n      add\n      swap1\n      dup1\n      dup1\n      calldataload\n      swap1\n      0x20\n      add\n      swap1\n      swap3\n      swap2\n      swap1\n      pop\n      pop\n      pop\n      tag_24\n      jump\t// in\n    tag_22:\n      mload(0x40)\n      dup1\n      dup3\n      dup2\n      mstore\n      0x20\n      add\n      swap2\n      pop\n      pop\n      mload(0x40)\n      dup1\n      swap2\n      sub\n      swap1\n      return\n        /* \"node_modules/@openzeppelin/contracts/access/AccessControl.sol\":4644:4867  function grantRole(bytes32 role, address account) public virtual {... */\n    tag_4:\n      tag_25\n      0x04\n      dup1\n      calldatasize\n      sub\n      0x40\n      dup2\n      lt\n      iszero\n      tag_26\n      jumpi\n      0x00\n      dup1\n      revert\n    tag_26:\n      dup2\n      add\n      swap1\n      dup1\n      dup1\n      calldataload\n      swap1\n      0x20\n      add\n      swap1\n      swap3\n      swap2\n      swap1\n      dup1\n      calldataload\n      0xffffffffffffffffffffffffffffffffffffffff\n      and\n      swap1\n      0x20\n      add\n      swap1\n      swap3\n      swap2\n      swap1\n      pop\n      pop\n      pop\n      tag_27\n      jump\t// in\n    tag_25:\n      stop\n        /* \"node_modules/@openzeppelin/contracts/access/AccessControl.sol\":5818:6023  function renounceRole(bytes32 role, address account) public virtual {... */\n    tag_5:\n      tag_28\n      0x04\n      dup1\n      calldatasize\n      sub\n      0x40\n      dup2\n      lt\n      iszero\n      tag_29\n      jumpi\n      0x00\n      dup1\n      revert\n    tag_29:\n      dup2\n      add\n      swap1\n      dup1\n      dup1\n      calldataload\n      swap1\n      0x20\n      add\n      swap1\n      swap3\n      swap2\n      swap1\n      dup1\n      calldataload\n      0xffffffffffffffffffffffffffffffffffffffff\n      and\n      swap1\n      0x20\n      add\n      swap1\n      swap3\n      swap2\n      swap1\n      pop\n      pop\n      pop\n      tag_30\n      jump\t// in\n    tag_28:\n      stop\n        /* \"contracts/ChainlinkRandoms.sol\":1492:1671  function getRandomSeed(address user) external override view returns (uint256) {... */\n    tag_6:\n      tag_31\n      0x04\n      dup1\n      calldatasize\n      sub\n      0x20\n      dup2\n      lt\n      iszero\n      tag_32\n      jumpi\n      0x00\n      dup1\n      revert\n    tag_32:\n      dup2\n      add\n      swap1\n      dup1\n      dup1\n      calldataload\n      0xffffffffffffffffffffffffffffffffffffffff\n      and\n      swap1\n      0x20\n      add\n      swap1\n      swap3\n      swap2\n      swap1\n      pop\n      pop\n      pop\n      tag_33\n      jump\t// in\n    tag_31:\n      mload(0x40)\n      dup1\n      dup3\n      dup2\n      mstore\n      0x20\n      add\n      swap2\n      pop\n      pop\n      mload(0x40)\n      dup1\n      swap2\n      sub\n      swap1\n      return\n        /* \"contracts/ChainlinkRandoms.sol\":2234:2299  function unpause() external onlyOwner {... */\n    tag_7:\n      tag_34\n      tag_35\n      jump\t// in\n    tag_34:\n      stop\n        /* \"node_modules/@openzeppelin/contracts/utils/Pausable.sol\":1052:1136  function paused() public view virtual returns (bool) {... */\n    tag_8:\n      tag_36\n      tag_37\n      jump\t// in\n    tag_36:\n      mload(0x40)\n      dup1\n      dup3\n      iszero\n      iszero\n      dup2\n      mstore\n      0x20\n      add\n      swap2\n      pop\n      pop\n      mload(0x40)\n      dup1\n      swap2\n      sub\n      swap1\n      return\n        /* \"contracts/ChainlinkRandoms.sol\":704:784  bytes32 public constant RANDOMNESS_REQUESTER = keccak256(\"RANDOMNESS_REQUESTER\") */\n    tag_9:\n      tag_38\n      tag_39\n      jump\t// in\n    tag_38:\n      mload(0x40)\n      dup1\n      dup3\n      dup2\n      mstore\n      0x20\n      add\n      swap2\n      pop\n      pop\n      mload(0x40)\n      dup1\n      swap2\n      sub\n      swap1\n      return\n        /* \"contracts/ChainlinkRandoms.sol\":2500:2729  function withdrawLink(uint256 tokenAmount) external onlyOwner {... */\n    tag_10:\n      tag_40\n      0x04\n      dup1\n      calldatasize\n      sub\n      0x20\n      dup2\n      lt\n      iszero\n      tag_41\n      jumpi\n      0x00\n      dup1\n      revert\n    tag_41:\n      dup2\n      add\n      swap1\n      dup1\n      dup1\n      calldataload\n      swap1\n      0x20\n      add\n      swap1\n      swap3\n      swap2\n      swap1\n      pop\n      pop\n      pop\n      tag_42\n      jump\t// in\n    tag_40:\n      stop\n        /* \"contracts/ChainlinkRandoms.sol\":2167:2228  function pause() external onlyOwner {... */\n    tag_11:\n      tag_43\n      tag_44\n      jump\t// in\n    tag_43:\n      stop\n        /* \"contracts/ChainlinkRandoms.sol\":1763:2161  function requestRandomNumber() external whenNotPaused {... */\n    tag_12:\n      tag_45\n      tag_46\n      jump\t// in\n    tag_45:\n      stop\n        /* \"node_modules/@openzeppelin/contracts/access/AccessControl.sol\":3965:4101  function getRoleMember(bytes32 role, uint256 index) public view returns (address) {... */\n    tag_13:\n      tag_47\n      0x04\n      dup1\n      calldatasize\n      sub\n      0x40\n      dup2\n      lt\n      iszero\n      tag_48\n      jumpi\n      0x00\n      dup1\n      revert\n    tag_48:\n      dup2\n      add\n      swap1\n      dup1\n      dup1\n      calldataload\n      swap1\n      0x20\n      add\n      swap1\n      swap3\n      swap2\n      swap1\n      dup1\n      calldataload\n      swap1\n      0x20\n      add\n      swap1\n      swap3\n      swap2\n      swap1\n      pop\n      pop\n      pop\n      tag_49\n      jump\t// in\n    tag_47:\n      mload(0x40)\n      dup1\n      dup3\n      0xffffffffffffffffffffffffffffffffffffffff\n      and\n      dup2\n      mstore\n      0x20\n      add\n      swap2\n      pop\n      pop\n      mload(0x40)\n      dup1\n      swap2\n      sub\n      swap1\n      return\n        /* \"node_modules/@openzeppelin/contracts/access/AccessControl.sol\":2950:3087  function hasRole(bytes32 role, address account) public view returns (bool) {... */\n    tag_14:\n      tag_50\n      0x04\n      dup1\n      calldatasize\n      sub\n      0x40\n      dup2\n      lt\n      iszero\n      tag_51\n      jumpi\n      0x00\n      dup1\n      revert\n    tag_51:\n      dup2\n      add\n      swap1\n      dup1\n      dup1\n      calldataload\n      swap1\n      0x20\n      add\n      swap1\n      swap3\n      swap2\n      swap1\n      dup1\n      calldataload\n      0xffffffffffffffffffffffffffffffffffffffff\n      and\n      swap1\n      0x20\n      add\n      swap1\n      swap3\n      swap2\n      swap1\n      pop\n      pop\n      pop\n      tag_52\n      jump\t// in\n    tag_50:\n      mload(0x40)\n      dup1\n      dup3\n      iszero\n      iszero\n      dup2\n      mstore\n      0x20\n      add\n      swap2\n      pop\n      pop\n      mload(0x40)\n      dup1\n      swap2\n      sub\n      swap1\n      return\n        /* \"node_modules/@chainlink/contracts/src/v0.6/VRFConsumerBase.sol\":9675:9882  function rawFulfillRandomness(bytes32 requestId, uint256 randomness) external {... */\n    tag_15:\n      tag_53\n      0x04\n      dup1\n      calldatasize\n      sub\n      0x40\n      dup2\n      lt\n      iszero\n      tag_54\n      jumpi\n      0x00\n      dup1\n      revert\n    tag_54:\n      dup2\n      add\n      swap1\n      dup1\n      dup1\n      calldataload\n      swap1\n      0x20\n      add\n      swap1\n      swap3\n      swap2\n      swap1\n      dup1\n      calldataload\n      swap1\n      0x20\n      add\n      swap1\n      swap3\n      swap2\n      swap1\n      pop\n      pop\n      pop\n      tag_55\n      jump\t// in\n    tag_53:\n      stop\n        /* \"node_modules/@openzeppelin/contracts/access/AccessControl.sol\":1727:1776  bytes32 public constant DEFAULT_ADMIN_ROLE = 0x00 */\n    tag_16:\n      tag_56\n      tag_57\n      jump\t// in\n    tag_56:\n      mload(0x40)\n      dup1\n      dup3\n      dup2\n      mstore\n      0x20\n      add\n      swap2\n      pop\n      pop\n      mload(0x40)\n      dup1\n      swap2\n      sub\n      swap1\n      return\n        /* \"node_modules/@openzeppelin/contracts/access/AccessControl.sol\":3255:3380  function getRoleMemberCount(bytes32 role) public view returns (uint256) {... */\n    tag_17:\n      tag_58\n      0x04\n      dup1\n      calldatasize\n      sub\n      0x20\n      dup2\n      lt\n      iszero\n      tag_59\n      jumpi\n      0x00\n      dup1\n      revert\n    tag_59:\n      dup2\n      add\n      swap1\n      dup1\n      dup1\n      calldataload\n      swap1\n      0x20\n      add\n      swap1\n      swap3\n      swap2\n      swap1\n      pop\n      pop\n      pop\n      tag_60\n      jump\t// in\n    tag_58:\n      mload(0x40)\n      dup1\n      dup3\n      dup2\n      mstore\n      0x20\n      add\n      swap2\n      pop\n      pop\n      mload(0x40)\n      dup1\n      swap2\n      sub\n      swap1\n      return\n        /* \"node_modules/@openzeppelin/contracts/access/AccessControl.sol\":5101:5327  function revokeRole(bytes32 role, address account) public virtual {... */\n    tag_18:\n      tag_61\n      0x04\n      dup1\n      calldatasize\n      sub\n      0x40\n      dup2\n      lt\n      iszero\n      tag_62\n      jumpi\n      0x00\n      dup1\n      revert\n    tag_62:\n      dup2\n      add\n      swap1\n      dup1\n      dup1\n      calldataload\n      swap1\n      0x20\n      add\n      swap1\n      swap3\n      swap2\n      swap1\n      dup1\n      calldataload\n      0xffffffffffffffffffffffffffffffffffffffff\n      and\n      swap1\n      0x20\n      add\n      swap1\n      swap3\n      swap2\n      swap1\n      pop\n      pop\n      pop\n      tag_63\n      jump\t// in\n    tag_61:\n      stop\n        /* \"node_modules/@openzeppelin/contracts/access/AccessControl.sol\":4282:4394  function getRoleAdmin(bytes32 role) public view returns (bytes32) {... */\n    tag_24:\n        /* \"node_modules/@openzeppelin/contracts/access/AccessControl.sol\":4339:4346  bytes32 */\n      0x00\n        /* \"node_modules/@openzeppelin/contracts/access/AccessControl.sol\":4365:4371  _roles */\n      0x01\n        /* \"node_modules/@openzeppelin/contracts/access/AccessControl.sol\":4365:4377  _roles[role] */\n      0x00\n        /* \"node_modules/@openzeppelin/contracts/access/AccessControl.sol\":4372:4376  role */\n      dup4\n        /* \"node_modules/@openzeppelin/contracts/access/AccessControl.sol\":4365:4377  _roles[role] */\n      dup2\n      mstore\n      0x20\n      add\n      swap1\n      dup2\n      mstore\n      0x20\n      add\n      0x00\n      keccak256\n        /* \"node_modules/@openzeppelin/contracts/access/AccessControl.sol\":4365:4387  _roles[role].adminRole */\n      0x02\n      add\n      sload\n        /* \"node_modules/@openzeppelin/contracts/access/AccessControl.sol\":4358:4387  return _roles[role].adminRole */\n      swap1\n      pop\n        /* \"node_modules/@openzeppelin/contracts/access/AccessControl.sol\":4282:4394  function getRoleAdmin(bytes32 role) public view returns (bytes32) {... */\n      swap2\n      swap1\n      pop\n      jump\t// out\n        /* \"node_modules/@openzeppelin/contracts/access/AccessControl.sol\":4644:4867  function grantRole(bytes32 role, address account) public virtual {... */\n    tag_27:\n        /* \"node_modules/@openzeppelin/contracts/access/AccessControl.sol\":4727:4772  hasRole(_roles[role].adminRole, _msgSender()) */\n      tag_67\n        /* \"node_modules/@openzeppelin/contracts/access/AccessControl.sol\":4735:4741  _roles */\n      0x01\n        /* \"node_modules/@openzeppelin/contracts/access/AccessControl.sol\":4735:4747  _roles[role] */\n      0x00\n        /* \"node_modules/@openzeppelin/contracts/access/AccessControl.sol\":4742:4746  role */\n      dup5\n        /* \"node_modules/@openzeppelin/contracts/access/AccessControl.sol\":4735:4747  _roles[role] */\n      dup2\n      mstore\n      0x20\n      add\n      swap1\n      dup2\n      mstore\n      0x20\n      add\n      0x00\n      keccak256\n        /* \"node_modules/@openzeppelin/contracts/access/AccessControl.sol\":4735:4757  _roles[role].adminRole */\n      0x02\n      add\n      sload\n        /* \"node_modules/@openzeppelin/contracts/access/AccessControl.sol\":4759:4771  _msgSender() */\n      tag_68\n        /* \"node_modules/@openzeppelin/contracts/access/AccessControl.sol\":4759:4769  _msgSender */\n      tag_69\n        /* \"node_modules/@openzeppelin/contracts/access/AccessControl.sol\":4759:4771  _msgSender() */\n      jump\t// in\n    tag_68:\n        /* \"node_modules/@openzeppelin/contracts/access/AccessControl.sol\":4727:4734  hasRole */\n      tag_52\n        /* \"node_modules/@openzeppelin/contracts/access/AccessControl.sol\":4727:4772  hasRole(_roles[role].adminRole, _msgSender()) */\n      jump\t// in\n    tag_67:\n        /* \"node_modules/@openzeppelin/contracts/access/AccessControl.sol\":4719:4824  require(hasRole(_roles[role].adminRole, _msgSender()), \"AccessControl: sender must be an admin to grant\") */\n      tag_70\n      jumpi\n      mload(0x40)\n      0x08c379a000000000000000000000000000000000000000000000000000000000\n      dup2\n      mstore\n      0x04\n      add\n      dup1\n      dup1\n      0x20\n      add\n      dup3\n      dup2\n      sub\n      dup3\n      mstore\n      0x2f\n      dup2\n      mstore\n      0x20\n      add\n      dup1\n      data_0ba7116025f1ef6b158a2bd2238e617f30e17c9e456917d901086ca4f8ad2811\n      0x2f\n      swap2\n      codecopy\n      0x40\n      add\n      swap2\n      pop\n      pop\n      mload(0x40)\n      dup1\n      swap2\n      sub\n      swap1\n      revert\n    tag_70:\n        /* \"node_modules/@openzeppelin/contracts/access/AccessControl.sol\":4835:4860  _grantRole(role, account) */\n      tag_71\n        /* \"node_modules/@openzeppelin/contracts/access/AccessControl.sol\":4846:4850  role */\n      dup3\n        /* \"node_modules/@openzeppelin/contracts/access/AccessControl.sol\":4852:4859  account */\n      dup3\n        /* \"node_modules/@openzeppelin/contracts/access/AccessControl.sol\":4835:4845  _grantRole */\n      tag_72\n        /* \"node_modules/@openzeppelin/contracts/access/AccessControl.sol\":4835:4860  _grantRole(role, account) */\n      jump\t// in\n    tag_71:\n        /* \"node_modules/@openzeppelin/contracts/access/AccessControl.sol\":4644:4867  function grantRole(bytes32 role, address account) public virtual {... */\n      pop\n      pop\n      jump\t// out\n        /* \"node_modules/@openzeppelin/contracts/access/AccessControl.sol\":5818:6023  function renounceRole(bytes32 role, address account) public virtual {... */\n    tag_30:\n        /* \"node_modules/@openzeppelin/contracts/access/AccessControl.sol\":5915:5927  _msgSender() */\n      tag_74\n        /* \"node_modules/@openzeppelin/contracts/access/AccessControl.sol\":5915:5925  _msgSender */\n      tag_69\n        /* \"node_modules/@openzeppelin/contracts/access/AccessControl.sol\":5915:5927  _msgSender() */\n      jump\t// in\n    tag_74:\n        /* \"node_modules/@openzeppelin/contracts/access/AccessControl.sol\":5904:5927  account == _msgSender() */\n      0xffffffffffffffffffffffffffffffffffffffff\n      and\n        /* \"node_modules/@openzeppelin/contracts/access/AccessControl.sol\":5904:5911  account */\n      dup2\n        /* \"node_modules/@openzeppelin/contracts/access/AccessControl.sol\":5904:5927  account == _msgSender() */\n      0xffffffffffffffffffffffffffffffffffffffff\n      and\n      eq\n        /* \"node_modules/@openzeppelin/contracts/access/AccessControl.sol\":5896:5979  require(account == _msgSender(), \"AccessControl: can only renounce roles for self\") */\n      tag_75\n      jumpi\n      mload(0x40)\n      0x08c379a000000000000000000000000000000000000000000000000000000000\n      dup2\n      mstore\n      0x04\n      add\n      dup1\n      dup1\n      0x20\n      add\n      dup3\n      dup2\n      sub\n      dup3\n      mstore\n      0x2f\n      dup2\n      mstore\n      0x20\n      add\n      dup1\n      data_fb06fa8ff2141e8ed74502f6792273793f25f0e9d3cf15344f3f5a0d4948fd4b\n      0x2f\n      swap2\n      codecopy\n      0x40\n      add\n      swap2\n      pop\n      pop\n      mload(0x40)\n      dup1\n      swap2\n      sub\n      swap1\n      revert\n    tag_75:\n        /* \"node_modules/@openzeppelin/contracts/access/AccessControl.sol\":5990:6016  _revokeRole(role, account) */\n      tag_76\n        /* \"node_modules/@openzeppelin/contracts/access/AccessControl.sol\":6002:6006  role */\n      dup3\n        /* \"node_modules/@openzeppelin/contracts/access/AccessControl.sol\":6008:6015  account */\n      dup3\n        /* \"node_modules/@openzeppelin/contracts/access/AccessControl.sol\":5990:6001  _revokeRole */\n      tag_77\n        /* \"node_modules/@openzeppelin/contracts/access/AccessControl.sol\":5990:6016  _revokeRole(role, account) */\n      jump\t// in\n    tag_76:\n        /* \"node_modules/@openzeppelin/contracts/access/AccessControl.sol\":5818:6023  function renounceRole(bytes32 role, address account) public virtual {... */\n      pop\n      pop\n      jump\t// out\n        /* \"contracts/ChainlinkRandoms.sol\":1492:1671  function getRandomSeed(address user) external override view returns (uint256) {... */\n    tag_33:\n        /* \"contracts/ChainlinkRandoms.sol\":1561:1568  uint256 */\n      0x00\n        /* \"contracts/ChainlinkRandoms.sol\":1622:1626  user */\n      dup2\n        /* \"contracts/ChainlinkRandoms.sol\":1628:1632  seed */\n      sload(0x05)\n        /* \"contracts/ChainlinkRandoms.sol\":1659:1660  1 */\n      0x01\n        /* \"contracts/ChainlinkRandoms.sol\":1644:1656  block.number */\n      number\n        /* \"contracts/ChainlinkRandoms.sol\":1644:1660  block.number - 1 */\n      sub\n        /* \"contracts/ChainlinkRandoms.sol\":1634:1661  blockhash(block.number - 1) */\n      blockhash\n        /* \"contracts/ChainlinkRandoms.sol\":1605:1662  abi.encodePacked(user, seed, blockhash(block.number - 1)) */\n      add(0x20, mload(0x40))\n      dup1\n      dup5\n      0xffffffffffffffffffffffffffffffffffffffff\n      and\n      0x60\n      shl\n      dup2\n      mstore\n      0x14\n      add\n      dup4\n      dup2\n      mstore\n      0x20\n      add\n      dup3\n      dup2\n      mstore\n      0x20\n      add\n      swap4\n      pop\n      pop\n      pop\n      pop\n      mload(0x40)\n      0x20\n      dup2\n      dup4\n      sub\n      sub\n      dup2\n      mstore\n      swap1\n      0x40\n      mstore\n        /* \"contracts/ChainlinkRandoms.sol\":1595:1663  keccak256(abi.encodePacked(user, seed, blockhash(block.number - 1))) */\n      dup1\n      mload\n      swap1\n      0x20\n      add\n      keccak256\n        /* \"contracts/ChainlinkRandoms.sol\":1587:1664  uint256(keccak256(abi.encodePacked(user, seed, blockhash(block.number - 1)))) */\n      0x00\n      shr\n        /* \"contracts/ChainlinkRandoms.sol\":1580:1664  return uint256(keccak256(abi.encodePacked(user, seed, blockhash(block.number - 1)))) */\n      swap1\n      pop\n        /* \"contracts/ChainlinkRandoms.sol\":1492:1671  function getRandomSeed(address user) external override view returns (uint256) {... */\n      swap2\n      swap1\n      pop\n      jump\t// out\n        /* \"contracts/ChainlinkRandoms.sol\":2234:2299  function unpause() external onlyOwner {... */\n    tag_35:\n        /* \"contracts/ChainlinkRandoms.sol\":2791:2830  hasRole(DEFAULT_ADMIN_ROLE, msg.sender) */\n      tag_80\n        /* \"node_modules/@openzeppelin/contracts/access/AccessControl.sol\":1772:1776  0x00 */\n      0x00\n        /* \"contracts/ChainlinkRandoms.sol\":2799:2817  DEFAULT_ADMIN_ROLE */\n      dup1\n      shl\n        /* \"contracts/ChainlinkRandoms.sol\":2819:2829  msg.sender */\n      caller\n        /* \"contracts/ChainlinkRandoms.sol\":2791:2798  hasRole */\n      tag_52\n        /* \"contracts/ChainlinkRandoms.sol\":2791:2830  hasRole(DEFAULT_ADMIN_ROLE, msg.sender) */\n      jump\t// in\n    tag_80:\n        /* \"contracts/ChainlinkRandoms.sol\":2783:2844  require(hasRole(DEFAULT_ADMIN_ROLE, msg.sender), \"Not admin\") */\n      tag_81\n      jumpi\n      mload(0x40)\n      0x08c379a000000000000000000000000000000000000000000000000000000000\n      dup2\n      mstore\n      0x04\n      add\n      dup1\n      dup1\n      0x20\n      add\n      dup3\n      dup2\n      sub\n      dup3\n      mstore\n      0x09\n      dup2\n      mstore\n      0x20\n      add\n      dup1\n      0x4e6f742061646d696e0000000000000000000000000000000000000000000000\n      dup2\n      mstore\n      pop\n      0x20\n      add\n      swap2\n      pop\n      pop\n      mload(0x40)\n      dup1\n      swap2\n      sub\n      swap1\n      revert\n    tag_81:\n        /* \"contracts/ChainlinkRandoms.sol\":2282:2292  _unpause() */\n      tag_83\n        /* \"contracts/ChainlinkRandoms.sol\":2282:2290  _unpause */\n      tag_84\n        /* \"contracts/ChainlinkRandoms.sol\":2282:2292  _unpause() */\n      jump\t// in\n    tag_83:\n        /* \"contracts/ChainlinkRandoms.sol\":2234:2299  function unpause() external onlyOwner {... */\n      jump\t// out\n        /* \"node_modules/@openzeppelin/contracts/utils/Pausable.sol\":1052:1136  function paused() public view virtual returns (bool) {... */\n    tag_37:\n        /* \"node_modules/@openzeppelin/contracts/utils/Pausable.sol\":1099:1103  bool */\n      0x00\n        /* \"node_modules/@openzeppelin/contracts/utils/Pausable.sol\":1122:1129  _paused */\n      dup1\n      0x00\n      swap1\n      sload\n      swap1\n      0x0100\n      exp\n      swap1\n      div\n      0xff\n      and\n        /* \"node_modules/@openzeppelin/contracts/utils/Pausable.sol\":1115:1129  return _paused */\n      swap1\n      pop\n        /* \"node_modules/@openzeppelin/contracts/utils/Pausable.sol\":1052:1136  function paused() public view virtual returns (bool) {... */\n      swap1\n      jump\t// out\n        /* \"contracts/ChainlinkRandoms.sol\":704:784  bytes32 public constant RANDOMNESS_REQUESTER = keccak256(\"RANDOMNESS_REQUESTER\") */\n    tag_39:\n        /* \"contracts/ChainlinkRandoms.sol\":751:784  keccak256(\"RANDOMNESS_REQUESTER\") */\n      0xb833753adf767f5ea59ffa8fe88b66c1fdff464a3d915ca68d34535a159ecfa0\n        /* \"contracts/ChainlinkRandoms.sol\":704:784  bytes32 public constant RANDOMNESS_REQUESTER = keccak256(\"RANDOMNESS_REQUESTER\") */\n      dup2\n      jump\t// out\n        /* \"contracts/ChainlinkRandoms.sol\":2500:2729  function withdrawLink(uint256 tokenAmount) external onlyOwner {... */\n    tag_42:\n        /* \"contracts/ChainlinkRandoms.sol\":2791:2830  hasRole(DEFAULT_ADMIN_ROLE, msg.sender) */\n      tag_87\n        /* \"node_modules/@openzeppelin/contracts/access/AccessControl.sol\":1772:1776  0x00 */\n      0x00\n        /* \"contracts/ChainlinkRandoms.sol\":2799:2817  DEFAULT_ADMIN_ROLE */\n      dup1\n      shl\n        /* \"contracts/ChainlinkRandoms.sol\":2819:2829  msg.sender */\n      caller\n        /* \"contracts/ChainlinkRandoms.sol\":2791:2798  hasRole */\n      tag_52\n        /* \"contracts/ChainlinkRandoms.sol\":2791:2830  hasRole(DEFAULT_ADMIN_ROLE, msg.sender) */\n      jump\t// in\n    tag_87:\n        /* \"contracts/ChainlinkRandoms.sol\":2783:2844  require(hasRole(DEFAULT_ADMIN_ROLE, msg.sender), \"Not admin\") */\n      tag_88\n      jumpi\n      mload(0x40)\n      0x08c379a000000000000000000000000000000000000000000000000000000000\n      dup2\n      mstore\n      0x04\n      add\n      dup1\n      dup1\n      0x20\n      add\n      dup3\n      dup2\n      sub\n      dup3\n      mstore\n      0x09\n      dup2\n      mstore\n      0x20\n      add\n      dup1\n      0x4e6f742061646d696e0000000000000000000000000000000000000000000000\n      dup2\n      mstore\n      pop\n      0x20\n      add\n      swap2\n      pop\n      pop\n      mload(0x40)\n      dup1\n      swap2\n      sub\n      swap1\n      revert\n    tag_88:\n        /* \"contracts/ChainlinkRandoms.sol\":2663:2722  IERC20(address(LINK)).safeTransfer(msg.sender, tokenAmount) */\n      tag_90\n        /* \"contracts/ChainlinkRandoms.sol\":2698:2708  msg.sender */\n      caller\n        /* \"contracts/ChainlinkRandoms.sol\":2710:2721  tokenAmount */\n      dup3\n        /* \"contracts/ChainlinkRandoms.sol\":2678:2682  LINK */\n      immutable(\"0x74b0a73c8e019485c6bf7a8191beea41ecaf2ae440157a94156a991a62e7d3a5\")\n        /* \"contracts/ChainlinkRandoms.sol\":2663:2697  IERC20(address(LINK)).safeTransfer */\n      0xffffffffffffffffffffffffffffffffffffffff\n      and\n      tag_91\n      swap1\n        /* \"contracts/ChainlinkRandoms.sol\":2663:2722  IERC20(address(LINK)).safeTransfer(msg.sender, tokenAmount) */\n      swap3\n      swap2\n      swap1\n      0xffffffff\n      and\n      jump\t// in\n    tag_90:\n        /* \"contracts/ChainlinkRandoms.sol\":2500:2729  function withdrawLink(uint256 tokenAmount) external onlyOwner {... */\n      pop\n      jump\t// out\n        /* \"contracts/ChainlinkRandoms.sol\":2167:2228  function pause() external onlyOwner {... */\n    tag_44:\n        /* \"contracts/ChainlinkRandoms.sol\":2791:2830  hasRole(DEFAULT_ADMIN_ROLE, msg.sender) */\n      tag_93\n        /* \"node_modules/@openzeppelin/contracts/access/AccessControl.sol\":1772:1776  0x00 */\n      0x00\n        /* \"contracts/ChainlinkRandoms.sol\":2799:2817  DEFAULT_ADMIN_ROLE */\n      dup1\n      shl\n        /* \"contracts/ChainlinkRandoms.sol\":2819:2829  msg.sender */\n      caller\n        /* \"contracts/ChainlinkRandoms.sol\":2791:2798  hasRole */\n      tag_52\n        /* \"contracts/ChainlinkRandoms.sol\":2791:2830  hasRole(DEFAULT_ADMIN_ROLE, msg.sender) */\n      jump\t// in\n    tag_93:\n        /* \"contracts/ChainlinkRandoms.sol\":2783:2844  require(hasRole(DEFAULT_ADMIN_ROLE, msg.sender), \"Not admin\") */\n      tag_94\n      jumpi\n      mload(0x40)\n      0x08c379a000000000000000000000000000000000000000000000000000000000\n      dup2\n      mstore\n      0x04\n      add\n      dup1\n      dup1\n      0x20\n      add\n      dup3\n      dup2\n      sub\n      dup3\n      mstore\n      0x09\n      dup2\n      mstore\n      0x20\n      add\n      dup1\n      0x4e6f742061646d696e0000000000000000000000000000000000000000000000\n      dup2\n      mstore\n      pop\n      0x20\n      add\n      swap2\n      pop\n      pop\n      mload(0x40)\n      dup1\n      swap2\n      sub\n      swap1\n      revert\n    tag_94:\n        /* \"contracts/ChainlinkRandoms.sol\":2213:2221  _pause() */\n      tag_96\n        /* \"contracts/ChainlinkRandoms.sol\":2213:2219  _pause */\n      tag_97\n        /* \"contracts/ChainlinkRandoms.sol\":2213:2221  _pause() */\n      jump\t// in\n    tag_96:\n        /* \"contracts/ChainlinkRandoms.sol\":2167:2228  function pause() external onlyOwner {... */\n      jump\t// out\n        /* \"contracts/ChainlinkRandoms.sol\":1763:2161  function requestRandomNumber() external whenNotPaused {... */\n    tag_46:\n        /* \"node_modules/@openzeppelin/contracts/utils/Pausable.sol\":1366:1374  paused() */\n      tag_99\n        /* \"node_modules/@openzeppelin/contracts/utils/Pausable.sol\":1366:1372  paused */\n      tag_37\n        /* \"node_modules/@openzeppelin/contracts/utils/Pausable.sol\":1366:1374  paused() */\n      jump\t// in\n    tag_99:\n        /* \"node_modules/@openzeppelin/contracts/utils/Pausable.sol\":1365:1374  !paused() */\n      iszero\n        /* \"node_modules/@openzeppelin/contracts/utils/Pausable.sol\":1357:1395  require(!paused(), \"Pausable: paused\") */\n      tag_100\n      jumpi\n      mload(0x40)\n      0x08c379a000000000000000000000000000000000000000000000000000000000\n      dup2\n      mstore\n      0x04\n      add\n      dup1\n      dup1\n      0x20\n      add\n      dup3\n      dup2\n      sub\n      dup3\n      mstore\n      0x10\n      dup2\n      mstore\n      0x20\n      add\n      dup1\n      0x5061757361626c653a2070617573656400000000000000000000000000000000\n      dup2\n      mstore\n      pop\n      0x20\n      add\n      swap2\n      pop\n      pop\n      mload(0x40)\n      dup1\n      swap2\n      sub\n      swap1\n      revert\n    tag_100:\n        /* \"contracts/ChainlinkRandoms.sol\":1835:1876  hasRole(RANDOMNESS_REQUESTER, msg.sender) */\n      tag_102\n        /* \"contracts/ChainlinkRandoms.sol\":751:784  keccak256(\"RANDOMNESS_REQUESTER\") */\n      0xb833753adf767f5ea59ffa8fe88b66c1fdff464a3d915ca68d34535a159ecfa0\n        /* \"contracts/ChainlinkRandoms.sol\":1865:1875  msg.sender */\n      caller\n        /* \"contracts/ChainlinkRandoms.sol\":1835:1842  hasRole */\n      tag_52\n        /* \"contracts/ChainlinkRandoms.sol\":1835:1876  hasRole(RANDOMNESS_REQUESTER, msg.sender) */\n      jump\t// in\n    tag_102:\n        /* \"contracts/ChainlinkRandoms.sol\":1827:1907  require(hasRole(RANDOMNESS_REQUESTER, msg.sender), \"Sender cannot request seed\") */\n      tag_103\n      jumpi\n      mload(0x40)\n      0x08c379a000000000000000000000000000000000000000000000000000000000\n      dup2\n      mstore\n      0x04\n      add\n      dup1\n      dup1\n      0x20\n      add\n      dup3\n      dup2\n      sub\n      dup3\n      mstore\n      0x1a\n      dup2\n      mstore\n      0x20\n      add\n      dup1\n      0x53656e6465722063616e6e6f7420726571756573742073656564000000000000\n      dup2\n      mstore\n      pop\n      0x20\n      add\n      swap2\n      pop\n      pop\n      mload(0x40)\n      dup1\n      swap2\n      sub\n      swap1\n      revert\n    tag_103:\n        /* \"contracts/ChainlinkRandoms.sol\":1958:1961  fee */\n      sload(0x04)\n        /* \"contracts/ChainlinkRandoms.sol\":1925:1929  LINK */\n      immutable(\"0x74b0a73c8e019485c6bf7a8191beea41ecaf2ae440157a94156a991a62e7d3a5\")\n        /* \"contracts/ChainlinkRandoms.sol\":1925:1939  LINK.balanceOf */\n      0xffffffffffffffffffffffffffffffffffffffff\n      and\n      0x70a08231\n        /* \"contracts/ChainlinkRandoms.sol\":1948:1952  this */\n      address\n        /* \"contracts/ChainlinkRandoms.sol\":1925:1954  LINK.balanceOf(address(this)) */\n      mload(0x40)\n      dup3\n      0xffffffff\n      and\n      0xe0\n      shl\n      dup2\n      mstore\n      0x04\n      add\n      dup1\n      dup3\n      0xffffffffffffffffffffffffffffffffffffffff\n      and\n      dup2\n      mstore\n      0x20\n      add\n      swap2\n      pop\n      pop\n      0x20\n      mload(0x40)\n      dup1\n      dup4\n      sub\n      dup2\n      dup7\n      dup1\n      extcodesize\n      iszero\n      dup1\n      iszero\n      tag_104\n      jumpi\n      0x00\n      dup1\n      revert\n    tag_104:\n      pop\n      gas\n      staticcall\n      iszero\n      dup1\n      iszero\n      tag_106\n      jumpi\n      returndatasize\n      0x00\n      dup1\n      returndatacopy\n      revert(0x00, returndatasize)\n    tag_106:\n      pop\n      pop\n      pop\n      pop\n      mload(0x40)\n      returndatasize\n      0x20\n      dup2\n      lt\n      iszero\n      tag_107\n      jumpi\n      0x00\n      dup1\n      revert\n    tag_107:\n      dup2\n      add\n      swap1\n      dup1\n      dup1\n      mload\n      swap1\n      0x20\n      add\n      swap1\n      swap3\n      swap2\n      swap1\n      pop\n      pop\n      pop\n        /* \"contracts/ChainlinkRandoms.sol\":1925:1961  LINK.balanceOf(address(this)) >= fee */\n      lt\n      iszero\n        /* \"contracts/ChainlinkRandoms.sol\":1917:1981  require(LINK.balanceOf(address(this)) >= fee, \"Not enough LINK\") */\n      tag_108\n      jumpi\n      mload(0x40)\n      0x08c379a000000000000000000000000000000000000000000000000000000000\n      dup2\n      mstore\n      0x04\n      add\n      dup1\n      dup1\n      0x20\n      add\n      dup3\n      dup2\n      sub\n      dup3\n      mstore\n      0x0f\n      dup2\n      mstore\n      0x20\n      add\n      dup1\n      0x4e6f7420656e6f756768204c494e4b0000000000000000000000000000000000\n      dup2\n      mstore\n      pop\n      0x20\n      add\n      swap2\n      pop\n      pop\n      mload(0x40)\n      dup1\n      swap2\n      sub\n      swap1\n      revert\n    tag_108:\n        /* \"contracts/ChainlinkRandoms.sol\":2112:2154  requestRandomness(keyHash, VRF_MAGIC_SEED) */\n      tag_109\n        /* \"contracts/ChainlinkRandoms.sol\":2130:2137  keyHash */\n      sload(0x03)\n        /* \"contracts/ChainlinkRandoms.sol\":677:696  keccak256(\"WTHell\") */\n      0xcfb082b8962ec709cffb27055d8a31d70d842951be20f80c34853c0659eddd91\n        /* \"contracts/ChainlinkRandoms.sol\":669:697  uint256(keccak256(\"WTHell\")) */\n      0x00\n      shr\n        /* \"contracts/ChainlinkRandoms.sol\":2112:2129  requestRandomness */\n      tag_110\n        /* \"contracts/ChainlinkRandoms.sol\":2112:2154  requestRandomness(keyHash, VRF_MAGIC_SEED) */\n      jump\t// in\n    tag_109:\n      pop\n        /* \"contracts/ChainlinkRandoms.sol\":1763:2161  function requestRandomNumber() external whenNotPaused {... */\n      jump\t// out\n        /* \"node_modules/@openzeppelin/contracts/access/AccessControl.sol\":3965:4101  function getRoleMember(bytes32 role, uint256 index) public view returns (address) {... */\n    tag_49:\n        /* \"node_modules/@openzeppelin/contracts/access/AccessControl.sol\":4038:4045  address */\n      0x00\n        /* \"node_modules/@openzeppelin/contracts/access/AccessControl.sol\":4064:4094  _roles[role].members.at(index) */\n      tag_112\n        /* \"node_modules/@openzeppelin/contracts/access/AccessControl.sol\":4088:4093  index */\n      dup3\n        /* \"node_modules/@openzeppelin/contracts/access/AccessControl.sol\":4064:4070  _roles */\n      0x01\n        /* \"node_modules/@openzeppelin/contracts/access/AccessControl.sol\":4064:4076  _roles[role] */\n      0x00\n        /* \"node_modules/@openzeppelin/contracts/access/AccessControl.sol\":4071:4075  role */\n      dup7\n        /* \"node_modules/@openzeppelin/contracts/access/AccessControl.sol\":4064:4076  _roles[role] */\n      dup2\n      mstore\n      0x20\n      add\n      swap1\n      dup2\n      mstore\n      0x20\n      add\n      0x00\n      keccak256\n        /* \"node_modules/@openzeppelin/contracts/access/AccessControl.sol\":4064:4084  _roles[role].members */\n      0x00\n      add\n        /* \"node_modules/@openzeppelin/contracts/access/AccessControl.sol\":4064:4087  _roles[role].members.at */\n      tag_113\n      swap1\n        /* \"node_modules/@openzeppelin/contracts/access/AccessControl.sol\":4064:4094  _roles[role].members.at(index) */\n      swap2\n      swap1\n      0xffffffff\n      and\n      jump\t// in\n    tag_112:\n        /* \"node_modules/@openzeppelin/contracts/access/AccessControl.sol\":4057:4094  return _roles[role].members.at(index) */\n      swap1\n      pop\n        /* \"node_modules/@openzeppelin/contracts/access/AccessControl.sol\":3965:4101  function getRoleMember(bytes32 role, uint256 index) public view returns (address) {... */\n      swap3\n      swap2\n      pop\n      pop\n      jump\t// out\n        /* \"node_modules/@openzeppelin/contracts/access/AccessControl.sol\":2950:3087  function hasRole(bytes32 role, address account) public view returns (bool) {... */\n    tag_52:\n        /* \"node_modules/@openzeppelin/contracts/access/AccessControl.sol\":3019:3023  bool */\n      0x00\n        /* \"node_modules/@openzeppelin/contracts/access/AccessControl.sol\":3042:3080  _roles[role].members.contains(account) */\n      tag_115\n        /* \"node_modules/@openzeppelin/contracts/access/AccessControl.sol\":3072:3079  account */\n      dup3\n        /* \"node_modules/@openzeppelin/contracts/access/AccessControl.sol\":3042:3048  _roles */\n      0x01\n        /* \"node_modules/@openzeppelin/contracts/access/AccessControl.sol\":3042:3054  _roles[role] */\n      0x00\n        /* \"node_modules/@openzeppelin/contracts/access/AccessControl.sol\":3049:3053  role */\n      dup7\n        /* \"node_modules/@openzeppelin/contracts/access/AccessControl.sol\":3042:3054  _roles[role] */\n      dup2\n      mstore\n      0x20\n      add\n      swap1\n      dup2\n      mstore\n      0x20\n      add\n      0x00\n      keccak256\n        /* \"node_modules/@openzeppelin/contracts/access/AccessControl.sol\":3042:3062  _roles[role].members */\n      0x00\n      add\n        /* \"node_modules/@openzeppelin/contracts/access/AccessControl.sol\":3042:3071  _roles[role].members.contains */\n      tag_116\n      swap1\n        /* \"node_modules/@openzeppelin/contracts/access/AccessControl.sol\":3042:3080  _roles[role].members.contains(account) */\n      swap2\n      swap1\n      0xffffffff\n      and\n      jump\t// in\n    tag_115:\n        /* \"node_modules/@openzeppelin/contracts/access/AccessControl.sol\":3035:3080  return _roles[role].members.contains(account) */\n      swap1\n      pop\n        /* \"node_modules/@openzeppelin/contracts/access/AccessControl.sol\":2950:3087  function hasRole(bytes32 role, address account) public view returns (bool) {... */\n      swap3\n      swap2\n      pop\n      pop\n      jump\t// out\n        /* \"node_modules/@chainlink/contracts/src/v0.6/VRFConsumerBase.sol\":9675:9882  function rawFulfillRandomness(bytes32 requestId, uint256 randomness) external {... */\n    tag_55:\n        /* \"node_modules/@chainlink/contracts/src/v0.6/VRFConsumerBase.sol\":9781:9795  vrfCoordinator */\n      immutable(\"0x3ac7ca38fd21a491cc5fb19169926fdbe6b54822181a3fae6f9aebec8e42713d\")\n        /* \"node_modules/@chainlink/contracts/src/v0.6/VRFConsumerBase.sol\":9767:9795  msg.sender == vrfCoordinator */\n      0xffffffffffffffffffffffffffffffffffffffff\n      and\n        /* \"node_modules/@chainlink/contracts/src/v0.6/VRFConsumerBase.sol\":9767:9777  msg.sender */\n      caller\n        /* \"node_modules/@chainlink/contracts/src/v0.6/VRFConsumerBase.sol\":9767:9795  msg.sender == vrfCoordinator */\n      0xffffffffffffffffffffffffffffffffffffffff\n      and\n      eq\n        /* \"node_modules/@chainlink/contracts/src/v0.6/VRFConsumerBase.sol\":9759:9831  require(msg.sender == vrfCoordinator, \"Only VRFCoordinator can fulfill\") */\n      tag_118\n      jumpi\n      mload(0x40)\n      0x08c379a000000000000000000000000000000000000000000000000000000000\n      dup2\n      mstore\n      0x04\n      add\n      dup1\n      dup1\n      0x20\n      add\n      dup3\n      dup2\n      sub\n      dup3\n      mstore\n      0x1f\n      dup2\n      mstore\n      0x20\n      add\n      dup1\n      0x4f6e6c7920565246436f6f7264696e61746f722063616e2066756c66696c6c00\n      dup2\n      mstore\n      pop\n      0x20\n      add\n      swap2\n      pop\n      pop\n      mload(0x40)\n      dup1\n      swap2\n      sub\n      swap1\n      revert\n    tag_118:\n        /* \"node_modules/@chainlink/contracts/src/v0.6/VRFConsumerBase.sol\":9837:9877  fulfillRandomness(requestId, randomness) */\n      tag_119\n        /* \"node_modules/@chainlink/contracts/src/v0.6/VRFConsumerBase.sol\":9855:9864  requestId */\n      dup3\n        /* \"node_modules/@chainlink/contracts/src/v0.6/VRFConsumerBase.sol\":9866:9876  randomness */\n      dup3\n        /* \"node_modules/@chainlink/contracts/src/v0.6/VRFConsumerBase.sol\":9837:9854  fulfillRandomness */\n      tag_120\n        /* \"node_modules/@chainlink/contracts/src/v0.6/VRFConsumerBase.sol\":9837:9877  fulfillRandomness(requestId, randomness) */\n      jump\t// in\n    tag_119:\n        /* \"node_modules/@chainlink/contracts/src/v0.6/VRFConsumerBase.sol\":9675:9882  function rawFulfillRandomness(bytes32 requestId, uint256 randomness) external {... */\n      pop\n      pop\n      jump\t// out\n        /* \"node_modules/@openzeppelin/contracts/access/AccessControl.sol\":1727:1776  bytes32 public constant DEFAULT_ADMIN_ROLE = 0x00 */\n    tag_57:\n        /* \"node_modules/@openzeppelin/contracts/access/AccessControl.sol\":1772:1776  0x00 */\n      0x00\n        /* \"node_modules/@openzeppelin/contracts/access/AccessControl.sol\":1727:1776  bytes32 public constant DEFAULT_ADMIN_ROLE = 0x00 */\n      dup1\n      shl\n      dup2\n      jump\t// out\n        /* \"node_modules/@openzeppelin/contracts/access/AccessControl.sol\":3255:3380  function getRoleMemberCount(bytes32 role) public view returns (uint256) {... */\n    tag_60:\n        /* \"node_modules/@openzeppelin/contracts/access/AccessControl.sol\":3318:3325  uint256 */\n      0x00\n        /* \"node_modules/@openzeppelin/contracts/access/AccessControl.sol\":3344:3373  _roles[role].members.length() */\n      tag_122\n        /* \"node_modules/@openzeppelin/contracts/access/AccessControl.sol\":3344:3350  _roles */\n      0x01\n        /* \"node_modules/@openzeppelin/contracts/access/AccessControl.sol\":3344:3356  _roles[role] */\n      0x00\n        /* \"node_modules/@openzeppelin/contracts/access/AccessControl.sol\":3351:3355  role */\n      dup5\n        /* \"node_modules/@openzeppelin/contracts/access/AccessControl.sol\":3344:3356  _roles[role] */\n      dup2\n      mstore\n      0x20\n      add\n      swap1\n      dup2\n      mstore\n      0x20\n      add\n      0x00\n      keccak256\n        /* \"node_modules/@openzeppelin/contracts/access/AccessControl.sol\":3344:3364  _roles[role].members */\n      0x00\n      add\n        /* \"node_modules/@openzeppelin/contracts/access/AccessControl.sol\":3344:3371  _roles[role].members.length */\n      tag_123\n        /* \"node_modules/@openzeppelin/contracts/access/AccessControl.sol\":3344:3373  _roles[role].members.length() */\n      jump\t// in\n    tag_122:\n        /* \"node_modules/@openzeppelin/contracts/access/AccessControl.sol\":3337:3373  return _roles[role].members.length() */\n      swap1\n      pop\n        /* \"node_modules/@openzeppelin/contracts/access/AccessControl.sol\":3255:3380  function getRoleMemberCount(bytes32 role) public view returns (uint256) {... */\n      swap2\n      swap1\n      pop\n      jump\t// out\n        /* \"node_modules/@openzeppelin/contracts/access/AccessControl.sol\":5101:5327  function revokeRole(bytes32 role, address account) public virtual {... */\n    tag_63:\n        /* \"node_modules/@openzeppelin/contracts/access/AccessControl.sol\":5185:5230  hasRole(_roles[role].adminRole, _msgSender()) */\n      tag_125\n        /* \"node_modules/@openzeppelin/contracts/access/AccessControl.sol\":5193:5199  _roles */\n      0x01\n        /* \"node_modules/@openzeppelin/contracts/access/AccessControl.sol\":5193:5205  _roles[role] */\n      0x00\n        /* \"node_modules/@openzeppelin/contracts/access/AccessControl.sol\":5200:5204  role */\n      dup5\n        /* \"node_modules/@openzeppelin/contracts/access/AccessControl.sol\":5193:5205  _roles[role] */\n      dup2\n      mstore\n      0x20\n      add\n      swap1\n      dup2\n      mstore\n      0x20\n      add\n      0x00\n      keccak256\n        /* \"node_modules/@openzeppelin/contracts/access/AccessControl.sol\":5193:5215  _roles[role].adminRole */\n      0x02\n      add\n      sload\n        /* \"node_modules/@openzeppelin/contracts/access/AccessControl.sol\":5217:5229  _msgSender() */\n      tag_126\n        /* \"node_modules/@openzeppelin/contracts/access/AccessControl.sol\":5217:5227  _msgSender */\n      tag_69\n        /* \"node_modules/@openzeppelin/contracts/access/AccessControl.sol\":5217:5229  _msgSender() */\n      jump\t// in\n    tag_126:\n        /* \"node_modules/@openzeppelin/contracts/access/AccessControl.sol\":5185:5192  hasRole */\n      tag_52\n        /* \"node_modules/@openzeppelin/contracts/access/AccessControl.sol\":5185:5230  hasRole(_roles[role].adminRole, _msgSender()) */\n      jump\t// in\n    tag_125:\n        /* \"node_modules/@openzeppelin/contracts/access/AccessControl.sol\":5177:5283  require(hasRole(_roles[role].adminRole, _msgSender()), \"AccessControl: sender must be an admin to revoke\") */\n      tag_127\n      jumpi\n      mload(0x40)\n      0x08c379a000000000000000000000000000000000000000000000000000000000\n      dup2\n      mstore\n      0x04\n      add\n      dup1\n      dup1\n      0x20\n      add\n      dup3\n      dup2\n      sub\n      dup3\n      mstore\n      0x30\n      dup2\n      mstore\n      0x20\n      add\n      dup1\n      data_64344570eab7406ca49d34d38bf2b2496dfda914405390c5057c8b0aabf798a3\n      0x30\n      swap2\n      codecopy\n      0x40\n      add\n      swap2\n      pop\n      pop\n      mload(0x40)\n      dup1\n      swap2\n      sub\n      swap1\n      revert\n    tag_127:\n        /* \"node_modules/@openzeppelin/contracts/access/AccessControl.sol\":5294:5320  _revokeRole(role, account) */\n      tag_128\n        /* \"node_modules/@openzeppelin/contracts/access/AccessControl.sol\":5306:5310  role */\n      dup3\n        /* \"node_modules/@openzeppelin/contracts/access/AccessControl.sol\":5312:5319  account */\n      dup3\n        /* \"node_modules/@openzeppelin/contracts/access/AccessControl.sol\":5294:5305  _revokeRole */\n      tag_77\n        /* \"node_modules/@openzeppelin/contracts/access/AccessControl.sol\":5294:5320  _revokeRole(role, account) */\n      jump\t// in\n    tag_128:\n        /* \"node_modules/@openzeppelin/contracts/access/AccessControl.sol\":5101:5327  function revokeRole(bytes32 role, address account) public virtual {... */\n      pop\n      pop\n      jump\t// out\n        /* \"node_modules/@openzeppelin/contracts/utils/EnumerableSet.sol\":6429:6579  function add(AddressSet storage set, address value) internal returns (bool) {... */\n    tag_64:\n        /* \"node_modules/@openzeppelin/contracts/utils/EnumerableSet.sol\":6499:6503  bool */\n      0x00\n        /* \"node_modules/@openzeppelin/contracts/utils/EnumerableSet.sol\":6522:6572  _add(set._inner, bytes32(uint256(uint160(value)))) */\n      tag_130\n        /* \"node_modules/@openzeppelin/contracts/utils/EnumerableSet.sol\":6527:6530  set */\n      dup4\n        /* \"node_modules/@openzeppelin/contracts/utils/EnumerableSet.sol\":6527:6537  set._inner */\n      0x00\n      add\n        /* \"node_modules/@openzeppelin/contracts/utils/EnumerableSet.sol\":6563:6568  value */\n      dup4\n        /* \"node_modules/@openzeppelin/contracts/utils/EnumerableSet.sol\":6547:6570  uint256(uint160(value)) */\n      0xffffffffffffffffffffffffffffffffffffffff\n      and\n        /* \"node_modules/@openzeppelin/contracts/utils/EnumerableSet.sol\":6539:6571  bytes32(uint256(uint160(value))) */\n      0x00\n      shl\n        /* \"node_modules/@openzeppelin/contracts/utils/EnumerableSet.sol\":6522:6526  _add */\n      tag_131\n        /* \"node_modules/@openzeppelin/contracts/utils/EnumerableSet.sol\":6522:6572  _add(set._inner, bytes32(uint256(uint160(value)))) */\n      jump\t// in\n    tag_130:\n        /* \"node_modules/@openzeppelin/contracts/utils/EnumerableSet.sol\":6515:6572  return _add(set._inner, bytes32(uint256(uint160(value)))) */\n      swap1\n      pop\n        /* \"node_modules/@openzeppelin/contracts/utils/EnumerableSet.sol\":6429:6579  function add(AddressSet storage set, address value) internal returns (bool) {... */\n      swap3\n      swap2\n      pop\n      pop\n      jump\t// out\n        /* \"node_modules/@openzeppelin/contracts/utils/Context.sol\":598:702  function _msgSender() internal view virtual returns (address payable) {... */\n    tag_69:\n        /* \"node_modules/@openzeppelin/contracts/utils/Context.sol\":651:666  address payable */\n      0x00\n        /* \"node_modules/@openzeppelin/contracts/utils/Context.sol\":685:695  msg.sender */\n      caller\n        /* \"node_modules/@openzeppelin/contracts/utils/Context.sol\":678:695  return msg.sender */\n      swap1\n      pop\n        /* \"node_modules/@openzeppelin/contracts/utils/Context.sol\":598:702  function _msgSender() internal view virtual returns (address payable) {... */\n      swap1\n      jump\t// out\n        /* \"node_modules/@openzeppelin/contracts/access/AccessControl.sol\":7025:7209  function _grantRole(bytes32 role, address account) private {... */\n    tag_72:\n        /* \"node_modules/@openzeppelin/contracts/access/AccessControl.sol\":7098:7131  _roles[role].members.add(account) */\n      tag_134\n        /* \"node_modules/@openzeppelin/contracts/access/AccessControl.sol\":7123:7130  account */\n      dup2\n        /* \"node_modules/@openzeppelin/contracts/access/AccessControl.sol\":7098:7104  _roles */\n      0x01\n        /* \"node_modules/@openzeppelin/contracts/access/AccessControl.sol\":7098:7110  _roles[role] */\n      0x00\n        /* \"node_modules/@openzeppelin/contracts/access/AccessControl.sol\":7105:7109  role */\n      dup6\n        /* \"node_modules/@openzeppelin/contracts/access/AccessControl.sol\":7098:7110  _roles[role] */\n      dup2\n      mstore\n      0x20\n      add\n      swap1\n      dup2\n      mstore\n      0x20\n      add\n      0x00\n      keccak256\n        /* \"node_modules/@openzeppelin/contracts/access/AccessControl.sol\":7098:7118  _roles[role].members */\n      0x00\n      add\n        /* \"node_modules/@openzeppelin/contracts/access/AccessControl.sol\":7098:7122  _roles[role].members.add */\n      tag_64\n      swap1\n        /* \"node_modules/@openzeppelin/contracts/access/AccessControl.sol\":7098:7131  _roles[role].members.add(account) */\n      swap2\n      swap1\n      0xffffffff\n      and\n      jump\t// in\n    tag_134:\n        /* \"node_modules/@openzeppelin/contracts/access/AccessControl.sol\":7094:7203  if (_roles[role].members.add(account)) {... */\n      iszero\n      tag_135\n      jumpi\n        /* \"node_modules/@openzeppelin/contracts/access/AccessControl.sol\":7179:7191  _msgSender() */\n      tag_136\n        /* \"node_modules/@openzeppelin/contracts/access/AccessControl.sol\":7179:7189  _msgSender */\n      tag_69\n        /* \"node_modules/@openzeppelin/contracts/access/AccessControl.sol\":7179:7191  _msgSender() */\n      jump\t// in\n    tag_136:\n        /* \"node_modules/@openzeppelin/contracts/access/AccessControl.sol\":7152:7192  RoleGranted(role, account, _msgSender()) */\n      0xffffffffffffffffffffffffffffffffffffffff\n      and\n        /* \"node_modules/@openzeppelin/contracts/access/AccessControl.sol\":7170:7177  account */\n      dup2\n        /* \"node_modules/@openzeppelin/contracts/access/AccessControl.sol\":7152:7192  RoleGranted(role, account, _msgSender()) */\n      0xffffffffffffffffffffffffffffffffffffffff\n      and\n        /* \"node_modules/@openzeppelin/contracts/access/AccessControl.sol\":7164:7168  role */\n      dup4\n        /* \"node_modules/@openzeppelin/contracts/access/AccessControl.sol\":7152:7192  RoleGranted(role, account, _msgSender()) */\n      0x2f8788117e7eff1d82e926ec794901d17c78024a50270940304540a733656f0d\n      mload(0x40)\n      mload(0x40)\n      dup1\n      swap2\n      sub\n      swap1\n      log4\n        /* \"node_modules/@openzeppelin/contracts/access/AccessControl.sol\":7094:7203  if (_roles[role].members.add(account)) {... */\n    tag_135:\n        /* \"node_modules/@openzeppelin/contracts/access/AccessControl.sol\":7025:7209  function _grantRole(bytes32 role, address account) private {... */\n      pop\n      pop\n      jump\t// out\n        /* \"node_modules/@openzeppelin/contracts/access/AccessControl.sol\":7215:7403  function _revokeRole(bytes32 role, address account) private {... */\n    tag_77:\n        /* \"node_modules/@openzeppelin/contracts/access/AccessControl.sol\":7289:7325  _roles[role].members.remove(account) */\n      tag_138\n        /* \"node_modules/@openzeppelin/contracts/access/AccessControl.sol\":7317:7324  account */\n      dup2\n        /* \"node_modules/@openzeppelin/contracts/access/AccessControl.sol\":7289:7295  _roles */\n      0x01\n        /* \"node_modules/@openzeppelin/contracts/access/AccessControl.sol\":7289:7301  _roles[role] */\n      0x00\n        /* \"node_modules/@openzeppelin/contracts/access/AccessControl.sol\":7296:7300  role */\n      dup6\n        /* \"node_modules/@openzeppelin/contracts/access/AccessControl.sol\":7289:7301  _roles[role] */\n      dup2\n      mstore\n      0x20\n      add\n      swap1\n      dup2\n      mstore\n      0x20\n      add\n      0x00\n      keccak256\n        /* \"node_modules/@openzeppelin/contracts/access/AccessControl.sol\":7289:7309  _roles[role].members */\n      0x00\n      add\n        /* \"node_modules/@openzeppelin/contracts/access/AccessControl.sol\":7289:7316  _roles[role].members.remove */\n      tag_139\n      swap1\n        /* \"node_modules/@openzeppelin/contracts/access/AccessControl.sol\":7289:7325  _roles[role].members.remove(account) */\n      swap2\n      swap1\n      0xffffffff\n      and\n      jump\t// in\n    tag_138:\n        /* \"node_modules/@openzeppelin/contracts/access/AccessControl.sol\":7285:7397  if (_roles[role].members.remove(account)) {... */\n      iszero\n      tag_140\n      jumpi\n        /* \"node_modules/@openzeppelin/contracts/access/AccessControl.sol\":7373:7385  _msgSender() */\n      tag_141\n        /* \"node_modules/@openzeppelin/contracts/access/AccessControl.sol\":7373:7383  _msgSender */\n      tag_69\n        /* \"node_modules/@openzeppelin/contracts/access/AccessControl.sol\":7373:7385  _msgSender() */\n      jump\t// in\n    tag_141:\n        /* \"node_modules/@openzeppelin/contracts/access/AccessControl.sol\":7346:7386  RoleRevoked(role, account, _msgSender()) */\n      0xffffffffffffffffffffffffffffffffffffffff\n      and\n        /* \"node_modules/@openzeppelin/contracts/access/AccessControl.sol\":7364:7371  account */\n      dup2\n        /* \"node_modules/@openzeppelin/contracts/access/AccessControl.sol\":7346:7386  RoleRevoked(role, account, _msgSender()) */\n      0xffffffffffffffffffffffffffffffffffffffff\n      and\n        /* \"node_modules/@openzeppelin/contracts/access/AccessControl.sol\":7358:7362  role */\n      dup4\n        /* \"node_modules/@openzeppelin/contracts/access/AccessControl.sol\":7346:7386  RoleRevoked(role, account, _msgSender()) */\n      0xf6391f5c32d9c69d2a47ea670b442974b53935d1edc7fd64eb21e047a839171b\n      mload(0x40)\n      mload(0x40)\n      dup1\n      swap2\n      sub\n      swap1\n      log4\n        /* \"node_modules/@openzeppelin/contracts/access/AccessControl.sol\":7285:7397  if (_roles[role].members.remove(account)) {... */\n    tag_140:\n        /* \"node_modules/@openzeppelin/contracts/access/AccessControl.sol\":7215:7403  function _revokeRole(bytes32 role, address account) private {... */\n      pop\n      pop\n      jump\t// out\n        /* \"node_modules/@openzeppelin/contracts/utils/Pausable.sol\":2064:2181  function _unpause() internal virtual whenPaused {... */\n    tag_84:\n        /* \"node_modules/@openzeppelin/contracts/utils/Pausable.sol\":1631:1639  paused() */\n      tag_143\n        /* \"node_modules/@openzeppelin/contracts/utils/Pausable.sol\":1631:1637  paused */\n      tag_37\n        /* \"node_modules/@openzeppelin/contracts/utils/Pausable.sol\":1631:1639  paused() */\n      jump\t// in\n    tag_143:\n        /* \"node_modules/@openzeppelin/contracts/utils/Pausable.sol\":1623:1664  require(paused(), \"Pausable: not paused\") */\n      tag_144\n      jumpi\n      mload(0x40)\n      0x08c379a000000000000000000000000000000000000000000000000000000000\n      dup2\n      mstore\n      0x04\n      add\n      dup1\n      dup1\n      0x20\n      add\n      dup3\n      dup2\n      sub\n      dup3\n      mstore\n      0x14\n      dup2\n      mstore\n      0x20\n      add\n      dup1\n      0x5061757361626c653a206e6f7420706175736564000000000000000000000000\n      dup2\n      mstore\n      pop\n      0x20\n      add\n      swap2\n      pop\n      pop\n      mload(0x40)\n      dup1\n      swap2\n      sub\n      swap1\n      revert\n    tag_144:\n        /* \"node_modules/@openzeppelin/contracts/utils/Pausable.sol\":2132:2137  false */\n      0x00\n        /* \"node_modules/@openzeppelin/contracts/utils/Pausable.sol\":2122:2129  _paused */\n      dup1\n      0x00\n        /* \"node_modules/@openzeppelin/contracts/utils/Pausable.sol\":2122:2137  _paused = false */\n      0x0100\n      exp\n      dup2\n      sload\n      dup2\n      0xff\n      mul\n      not\n      and\n      swap1\n      dup4\n      iszero\n      iszero\n      mul\n      or\n      swap1\n      sstore\n      pop\n        /* \"node_modules/@openzeppelin/contracts/utils/Pausable.sol\":2152:2174  Unpaused(_msgSender()) */\n      0x5db9ee0a495bf2e6ff9c91a7834c1ba4fdd244a5e8aa4e537bd38aeae4b073aa\n        /* \"node_modules/@openzeppelin/contracts/utils/Pausable.sol\":2161:2173  _msgSender() */\n      tag_146\n        /* \"node_modules/@openzeppelin/contracts/utils/Pausable.sol\":2161:2171  _msgSender */\n      tag_69\n        /* \"node_modules/@openzeppelin/contracts/utils/Pausable.sol\":2161:2173  _msgSender() */\n      jump\t// in\n    tag_146:\n        /* \"node_modules/@openzeppelin/contracts/utils/Pausable.sol\":2152:2174  Unpaused(_msgSender()) */\n      mload(0x40)\n      dup1\n      dup3\n      0xffffffffffffffffffffffffffffffffffffffff\n      and\n      dup2\n      mstore\n      0x20\n      add\n      swap2\n      pop\n      pop\n      mload(0x40)\n      dup1\n      swap2\n      sub\n      swap1\n      log1\n        /* \"node_modules/@openzeppelin/contracts/utils/Pausable.sol\":2064:2181  function _unpause() internal virtual whenPaused {... */\n      jump\t// out\n        /* \"node_modules/@openzeppelin/contracts/token/ERC20/SafeERC20.sol\":704:879  function safeTransfer(IERC20 token, address to, uint256 value) internal {... */\n    tag_91:\n        /* \"node_modules/@openzeppelin/contracts/token/ERC20/SafeERC20.sol\":786:872  _callOptionalReturn(token, abi.encodeWithSelector(token.transfer.selector, to, value)) */\n      tag_148\n        /* \"node_modules/@openzeppelin/contracts/token/ERC20/SafeERC20.sol\":806:811  token */\n      dup4\n        /* \"node_modules/@openzeppelin/contracts/token/ERC20/SafeERC20.sol\":836:859  token.transfer.selector */\n      shl(0xe0, 0xa9059cbb)\n        /* \"node_modules/@openzeppelin/contracts/token/ERC20/SafeERC20.sol\":861:863  to */\n      dup5\n        /* \"node_modules/@openzeppelin/contracts/token/ERC20/SafeERC20.sol\":865:870  value */\n      dup5\n        /* \"node_modules/@openzeppelin/contracts/token/ERC20/SafeERC20.sol\":813:871  abi.encodeWithSelector(token.transfer.selector, to, value) */\n      add(0x24, mload(0x40))\n      dup1\n      dup4\n      0xffffffffffffffffffffffffffffffffffffffff\n      and\n      dup2\n      mstore\n      0x20\n      add\n      dup3\n      dup2\n      mstore\n      0x20\n      add\n      swap3\n      pop\n      pop\n      pop\n      mload(0x40)\n      0x20\n      dup2\n      dup4\n      sub\n      sub\n      dup2\n      mstore\n      swap1\n      0x40\n      mstore\n      swap1\n      not(0xffffffffffffffffffffffffffffffffffffffffffffffffffffffff)\n      and\n      0x20\n      dup3\n      add\n      dup1\n      mload\n      0xffffffffffffffffffffffffffffffffffffffffffffffffffffffff\n      dup4\n      dup2\n      dup4\n      and\n      or\n      dup4\n      mstore\n      pop\n      pop\n      pop\n      pop\n        /* \"node_modules/@openzeppelin/contracts/token/ERC20/SafeERC20.sol\":786:805  _callOptionalReturn */\n      tag_149\n        /* \"node_modules/@openzeppelin/contracts/token/ERC20/SafeERC20.sol\":786:872  _callOptionalReturn(token, abi.encodeWithSelector(token.transfer.selector, to, value)) */\n      jump\t// in\n    tag_148:\n        /* \"node_modules/@openzeppelin/contracts/token/ERC20/SafeERC20.sol\":704:879  function safeTransfer(IERC20 token, address to, uint256 value) internal {... */\n      pop\n      pop\n      pop\n      jump\t// out\n        /* \"node_modules/@openzeppelin/contracts/utils/Pausable.sol\":1817:1932  function _pause() internal virtual whenNotPaused {... */\n    tag_97:\n        /* \"node_modules/@openzeppelin/contracts/utils/Pausable.sol\":1366:1374  paused() */\n      tag_151\n        /* \"node_modules/@openzeppelin/contracts/utils/Pausable.sol\":1366:1372  paused */\n      tag_37\n        /* \"node_modules/@openzeppelin/contracts/utils/Pausable.sol\":1366:1374  paused() */\n      jump\t// in\n    tag_151:\n        /* \"node_modules/@openzeppelin/contracts/utils/Pausable.sol\":1365:1374  !paused() */\n      iszero\n        /* \"node_modules/@openzeppelin/contracts/utils/Pausable.sol\":1357:1395  require(!paused(), \"Pausable: paused\") */\n      tag_152\n      jumpi\n      mload(0x40)\n      0x08c379a000000000000000000000000000000000000000000000000000000000\n      dup2\n      mstore\n      0x04\n      add\n      dup1\n      dup1\n      0x20\n      add\n      dup3\n      dup2\n      sub\n      dup3\n      mstore\n      0x10\n      dup2\n      mstore\n      0x20\n      add\n      dup1\n      0x5061757361626c653a2070617573656400000000000000000000000000000000\n      dup2\n      mstore\n      pop\n      0x20\n      add\n      swap2\n      pop\n      pop\n      mload(0x40)\n      dup1\n      swap2\n      sub\n      swap1\n      revert\n    tag_152:\n        /* \"node_modules/@openzeppelin/contracts/utils/Pausable.sol\":1886:1890  true */\n      0x01\n        /* \"node_modules/@openzeppelin/contracts/utils/Pausable.sol\":1876:1883  _paused */\n      0x00\n      dup1\n        /* \"node_modules/@openzeppelin/contracts/utils/Pausable.sol\":1876:1890  _paused = true */\n      0x0100\n      exp\n      dup2\n      sload\n      dup2\n      0xff\n      mul\n      not\n      and\n      swap1\n      dup4\n      iszero\n      iszero\n      mul\n      or\n      swap1\n      sstore\n      pop\n        /* \"node_modules/@openzeppelin/contracts/utils/Pausable.sol\":1905:1925  Paused(_msgSender()) */\n      0x62e78cea01bee320cd4e420270b5ea74000d11b0c9f74754ebdbfc544b05a258\n        /* \"node_modules/@openzeppelin/contracts/utils/Pausable.sol\":1912:1924  _msgSender() */\n      tag_154\n        /* \"node_modules/@openzeppelin/contracts/utils/Pausable.sol\":1912:1922  _msgSender */\n      tag_69\n        /* \"node_modules/@openzeppelin/contracts/utils/Pausable.sol\":1912:1924  _msgSender() */\n      jump\t// in\n    tag_154:\n        /* \"node_modules/@openzeppelin/contracts/utils/Pausable.sol\":1905:1925  Paused(_msgSender()) */\n      mload(0x40)\n      dup1\n      dup3\n      0xffffffffffffffffffffffffffffffffffffffff\n      and\n      dup2\n      mstore\n      0x20\n      add\n      swap2\n      pop\n      pop\n      mload(0x40)\n      dup1\n      swap2\n      sub\n      swap1\n      log1\n        /* \"node_modules/@openzeppelin/contracts/utils/Pausable.sol\":1817:1932  function _pause() internal virtual whenNotPaused {... */\n      jump\t// out\n        /* \"node_modules/@chainlink/contracts/src/v0.6/VRFConsumerBase.sol\":7818:8848  function requestRandomness(bytes32 _keyHash, uint256 _fee)... */\n    tag_110:\n        /* \"node_modules/@chainlink/contracts/src/v0.6/VRFConsumerBase.sol\":7899:7916  bytes32 requestId */\n      0x00\n        /* \"node_modules/@chainlink/contracts/src/v0.6/VRFConsumerBase.sol\":7926:7930  LINK */\n      immutable(\"0x74b0a73c8e019485c6bf7a8191beea41ecaf2ae440157a94156a991a62e7d3a5\")\n        /* \"node_modules/@chainlink/contracts/src/v0.6/VRFConsumerBase.sol\":7926:7946  LINK.transferAndCall */\n      0xffffffffffffffffffffffffffffffffffffffff\n      and\n      0x4000aea0\n        /* \"node_modules/@chainlink/contracts/src/v0.6/VRFConsumerBase.sol\":7947:7961  vrfCoordinator */\n      immutable(\"0x3ac7ca38fd21a491cc5fb19169926fdbe6b54822181a3fae6f9aebec8e42713d\")\n        /* \"node_modules/@chainlink/contracts/src/v0.6/VRFConsumerBase.sol\":7963:7967  _fee */\n      dup5\n        /* \"node_modules/@chainlink/contracts/src/v0.6/VRFConsumerBase.sol\":7980:7988  _keyHash */\n      dup7\n        /* \"node_modules/@chainlink/contracts/src/v0.6/VRFConsumerBase.sol\":6675:6676  0 */\n      0x00\n        /* \"node_modules/@chainlink/contracts/src/v0.6/VRFConsumerBase.sol\":7969:8012  abi.encode(_keyHash, USER_SEED_PLACEHOLDER) */\n      add(0x20, mload(0x40))\n      dup1\n      dup4\n      dup2\n      mstore\n      0x20\n      add\n      dup3\n      dup2\n      mstore\n      0x20\n      add\n      swap3\n      pop\n      pop\n      pop\n      mload(0x40)\n      0x20\n      dup2\n      dup4\n      sub\n      sub\n      dup2\n      mstore\n      swap1\n      0x40\n      mstore\n        /* \"node_modules/@chainlink/contracts/src/v0.6/VRFConsumerBase.sol\":7926:8013  LINK.transferAndCall(vrfCoordinator, _fee, abi.encode(_keyHash, USER_SEED_PLACEHOLDER)) */\n      mload(0x40)\n      dup5\n      0xffffffff\n      and\n      0xe0\n      shl\n      dup2\n      mstore\n      0x04\n      add\n      dup1\n      dup5\n      0xffffffffffffffffffffffffffffffffffffffff\n      and\n      dup2\n      mstore\n      0x20\n      add\n      dup4\n      dup2\n      mstore\n      0x20\n      add\n      dup1\n      0x20\n      add\n      dup3\n      dup2\n      sub\n      dup3\n      mstore\n      dup4\n      dup2\n      dup2\n      mload\n      dup2\n      mstore\n      0x20\n      add\n      swap2\n      pop\n      dup1\n      mload\n      swap1\n      0x20\n      add\n      swap1\n      dup1\n      dup4\n      dup4\n      0x00\n    tag_156:\n      dup4\n      dup2\n      lt\n      iszero\n      tag_158\n      jumpi\n      dup1\n      dup3\n      add\n      mload\n      dup2\n      dup5\n      add\n      mstore\n      0x20\n      dup2\n      add\n      swap1\n      pop\n      jump(tag_156)\n    tag_158:\n      pop\n      pop\n      pop\n      pop\n      swap1\n      pop\n      swap1\n      dup2\n      add\n      swap1\n      0x1f\n      and\n      dup1\n      iszero\n      tag_159\n      jumpi\n      dup1\n      dup3\n      sub\n      dup1\n      mload\n      0x01\n      dup4\n      0x20\n      sub\n      0x0100\n      exp\n      sub\n      not\n      and\n      dup2\n      mstore\n      0x20\n      add\n      swap2\n      pop\n    tag_159:\n      pop\n      swap5\n      pop\n      pop\n      pop\n      pop\n      pop\n      0x20\n      mload(0x40)\n      dup1\n      dup4\n      sub\n      dup2\n      0x00\n      dup8\n      dup1\n      extcodesize\n      iszero\n      dup1\n      iszero\n      tag_160\n      jumpi\n      0x00\n      dup1\n      revert\n    tag_160:\n      pop\n      gas\n      call\n      iszero\n      dup1\n      iszero\n      tag_162\n      jumpi\n      returndatasize\n      0x00\n      dup1\n      returndatacopy\n      revert(0x00, returndatasize)\n    tag_162:\n      pop\n      pop\n      pop\n      pop\n      mload(0x40)\n      returndatasize\n      0x20\n      dup2\n      lt\n      iszero\n      tag_163\n      jumpi\n      0x00\n      dup1\n      revert\n    tag_163:\n      dup2\n      add\n      swap1\n      dup1\n      dup1\n      mload\n      swap1\n      0x20\n      add\n      swap1\n      swap3\n      swap2\n      swap1\n      pop\n      pop\n      pop\n      pop\n        /* \"node_modules/@chainlink/contracts/src/v0.6/VRFConsumerBase.sol\":8244:8259  uint256 vRFSeed */\n      0x00\n        /* \"node_modules/@chainlink/contracts/src/v0.6/VRFConsumerBase.sol\":8263:8345  makeVRFInputSeed(_keyHash, USER_SEED_PLACEHOLDER, address(this), nonces[_keyHash]) */\n      tag_164\n        /* \"node_modules/@chainlink/contracts/src/v0.6/VRFConsumerBase.sol\":8280:8288  _keyHash */\n      dup5\n        /* \"node_modules/@chainlink/contracts/src/v0.6/VRFConsumerBase.sol\":6675:6676  0 */\n      0x00\n        /* \"node_modules/@chainlink/contracts/src/v0.6/VRFConsumerBase.sol\":8321:8325  this */\n      address\n        /* \"node_modules/@chainlink/contracts/src/v0.6/VRFConsumerBase.sol\":8328:8334  nonces */\n      0x02\n        /* \"node_modules/@chainlink/contracts/src/v0.6/VRFConsumerBase.sol\":8328:8344  nonces[_keyHash] */\n      0x00\n        /* \"node_modules/@chainlink/contracts/src/v0.6/VRFConsumerBase.sol\":8335:8343  _keyHash */\n      dup10\n        /* \"node_modules/@chainlink/contracts/src/v0.6/VRFConsumerBase.sol\":8328:8344  nonces[_keyHash] */\n      dup2\n      mstore\n      0x20\n      add\n      swap1\n      dup2\n      mstore\n      0x20\n      add\n      0x00\n      keccak256\n      sload\n        /* \"node_modules/@chainlink/contracts/src/v0.6/VRFConsumerBase.sol\":8263:8279  makeVRFInputSeed */\n      tag_165\n        /* \"node_modules/@chainlink/contracts/src/v0.6/VRFConsumerBase.sol\":8263:8345  makeVRFInputSeed(_keyHash, USER_SEED_PLACEHOLDER, address(this), nonces[_keyHash]) */\n      jump\t// in\n    tag_164:\n        /* \"node_modules/@chainlink/contracts/src/v0.6/VRFConsumerBase.sol\":8244:8345  uint256 vRFSeed  = makeVRFInputSeed(_keyHash, USER_SEED_PLACEHOLDER, address(this), nonces[_keyHash]) */\n      swap1\n      pop\n        /* \"node_modules/@chainlink/contracts/src/v0.6/VRFConsumerBase.sol\":8775:8798  nonces[_keyHash].add(1) */\n      tag_166\n        /* \"node_modules/@chainlink/contracts/src/v0.6/VRFConsumerBase.sol\":8796:8797  1 */\n      0x01\n        /* \"node_modules/@chainlink/contracts/src/v0.6/VRFConsumerBase.sol\":8775:8781  nonces */\n      0x02\n        /* \"node_modules/@chainlink/contracts/src/v0.6/VRFConsumerBase.sol\":8775:8791  nonces[_keyHash] */\n      0x00\n        /* \"node_modules/@chainlink/contracts/src/v0.6/VRFConsumerBase.sol\":8782:8790  _keyHash */\n      dup8\n        /* \"node_modules/@chainlink/contracts/src/v0.6/VRFConsumerBase.sol\":8775:8791  nonces[_keyHash] */\n      dup2\n      mstore\n      0x20\n      add\n      swap1\n      dup2\n      mstore\n      0x20\n      add\n      0x00\n      keccak256\n      sload\n        /* \"node_modules/@chainlink/contracts/src/v0.6/VRFConsumerBase.sol\":8775:8795  nonces[_keyHash].add */\n      tag_167\n      swap1\n        /* \"node_modules/@chainlink/contracts/src/v0.6/VRFConsumerBase.sol\":8775:8798  nonces[_keyHash].add(1) */\n      swap2\n      swap1\n      0xffffffff\n      and\n      jump\t// in\n    tag_166:\n        /* \"node_modules/@chainlink/contracts/src/v0.6/VRFConsumerBase.sol\":8756:8762  nonces */\n      0x02\n        /* \"node_modules/@chainlink/contracts/src/v0.6/VRFConsumerBase.sol\":8756:8772  nonces[_keyHash] */\n      0x00\n        /* \"node_modules/@chainlink/contracts/src/v0.6/VRFConsumerBase.sol\":8763:8771  _keyHash */\n      dup7\n        /* \"node_modules/@chainlink/contracts/src/v0.6/VRFConsumerBase.sol\":8756:8772  nonces[_keyHash] */\n      dup2\n      mstore\n      0x20\n      add\n      swap1\n      dup2\n      mstore\n      0x20\n      add\n      0x00\n      keccak256\n        /* \"node_modules/@chainlink/contracts/src/v0.6/VRFConsumerBase.sol\":8756:8798  nonces[_keyHash] = nonces[_keyHash].add(1) */\n      dup2\n      swap1\n      sstore\n      pop\n        /* \"node_modules/@chainlink/contracts/src/v0.6/VRFConsumerBase.sol\":8811:8843  makeRequestId(_keyHash, vRFSeed) */\n      tag_168\n        /* \"node_modules/@chainlink/contracts/src/v0.6/VRFConsumerBase.sol\":8825:8833  _keyHash */\n      dup5\n        /* \"node_modules/@chainlink/contracts/src/v0.6/VRFConsumerBase.sol\":8835:8842  vRFSeed */\n      dup3\n        /* \"node_modules/@chainlink/contracts/src/v0.6/VRFConsumerBase.sol\":8811:8824  makeRequestId */\n      tag_169\n        /* \"node_modules/@chainlink/contracts/src/v0.6/VRFConsumerBase.sol\":8811:8843  makeRequestId(_keyHash, vRFSeed) */\n      jump\t// in\n    tag_168:\n        /* \"node_modules/@chainlink/contracts/src/v0.6/VRFConsumerBase.sol\":8804:8843  return makeRequestId(_keyHash, vRFSeed) */\n      swap2\n      pop\n      pop\n        /* \"node_modules/@chainlink/contracts/src/v0.6/VRFConsumerBase.sol\":7818:8848  function requestRandomness(bytes32 _keyHash, uint256 _fee)... */\n      swap3\n      swap2\n      pop\n      pop\n      jump\t// out\n        /* \"node_modules/@openzeppelin/contracts/utils/EnumerableSet.sol\":7677:7833  function at(AddressSet storage set, uint256 index) internal view returns (address) {... */\n    tag_113:\n        /* \"node_modules/@openzeppelin/contracts/utils/EnumerableSet.sol\":7751:7758  address */\n      0x00\n        /* \"node_modules/@openzeppelin/contracts/utils/EnumerableSet.sol\":7801:7823  _at(set._inner, index) */\n      tag_171\n        /* \"node_modules/@openzeppelin/contracts/utils/EnumerableSet.sol\":7805:7808  set */\n      dup4\n        /* \"node_modules/@openzeppelin/contracts/utils/EnumerableSet.sol\":7805:7815  set._inner */\n      0x00\n      add\n        /* \"node_modules/@openzeppelin/contracts/utils/EnumerableSet.sol\":7817:7822  index */\n      dup4\n        /* \"node_modules/@openzeppelin/contracts/utils/EnumerableSet.sol\":7801:7804  _at */\n      tag_172\n        /* \"node_modules/@openzeppelin/contracts/utils/EnumerableSet.sol\":7801:7823  _at(set._inner, index) */\n      jump\t// in\n    tag_171:\n        /* \"node_modules/@openzeppelin/contracts/utils/EnumerableSet.sol\":7793:7824  uint256(_at(set._inner, index)) */\n      0x00\n      shr\n        /* \"node_modules/@openzeppelin/contracts/utils/EnumerableSet.sol\":7770:7826  return address(uint160(uint256(_at(set._inner, index)))) */\n      swap1\n      pop\n        /* \"node_modules/@openzeppelin/contracts/utils/EnumerableSet.sol\":7677:7833  function at(AddressSet storage set, uint256 index) internal view returns (address) {... */\n      swap3\n      swap2\n      pop\n      pop\n      jump\t// out\n        /* \"node_modules/@openzeppelin/contracts/utils/EnumerableSet.sol\":6984:7149  function contains(AddressSet storage set, address value) internal view returns (bool) {... */\n    tag_116:\n        /* \"node_modules/@openzeppelin/contracts/utils/EnumerableSet.sol\":7064:7068  bool */\n      0x00\n        /* \"node_modules/@openzeppelin/contracts/utils/EnumerableSet.sol\":7087:7142  _contains(set._inner, bytes32(uint256(uint160(value)))) */\n      tag_174\n        /* \"node_modules/@openzeppelin/contracts/utils/EnumerableSet.sol\":7097:7100  set */\n      dup4\n        /* \"node_modules/@openzeppelin/contracts/utils/EnumerableSet.sol\":7097:7107  set._inner */\n      0x00\n      add\n        /* \"node_modules/@openzeppelin/contracts/utils/EnumerableSet.sol\":7133:7138  value */\n      dup4\n        /* \"node_modules/@openzeppelin/contracts/utils/EnumerableSet.sol\":7117:7140  uint256(uint160(value)) */\n      0xffffffffffffffffffffffffffffffffffffffff\n      and\n        /* \"node_modules/@openzeppelin/contracts/utils/EnumerableSet.sol\":7109:7141  bytes32(uint256(uint160(value))) */\n      0x00\n      shl\n        /* \"node_modules/@openzeppelin/contracts/utils/EnumerableSet.sol\":7087:7096  _contains */\n      tag_175\n        /* \"node_modules/@openzeppelin/contracts/utils/EnumerableSet.sol\":7087:7142  _contains(set._inner, bytes32(uint256(uint160(value)))) */\n      jump\t// in\n    tag_174:\n        /* \"node_modules/@openzeppelin/contracts/utils/EnumerableSet.sol\":7080:7142  return _contains(set._inner, bytes32(uint256(uint160(value)))) */\n      swap1\n      pop\n        /* \"node_modules/@openzeppelin/contracts/utils/EnumerableSet.sol\":6984:7149  function contains(AddressSet storage set, address value) internal view returns (bool) {... */\n      swap3\n      swap2\n      pop\n      pop\n      jump\t// out\n        /* \"contracts/ChainlinkRandoms.sol\":2370:2494  function fulfillRandomness(bytes32 /* requestId */, uint256 randomness) internal override {... */\n    tag_120:\n        /* \"contracts/ChainlinkRandoms.sol\":2477:2487  randomness */\n      dup1\n        /* \"contracts/ChainlinkRandoms.sol\":2470:2474  seed */\n      0x05\n        /* \"contracts/ChainlinkRandoms.sol\":2470:2487  seed = randomness */\n      dup2\n      swap1\n      sstore\n      pop\n        /* \"contracts/ChainlinkRandoms.sol\":2370:2494  function fulfillRandomness(bytes32 /* requestId */, uint256 randomness) internal override {... */\n      pop\n      pop\n      jump\t// out\n        /* \"node_modules/@openzeppelin/contracts/utils/EnumerableSet.sol\":7230:7345  function length(AddressSet storage set) internal view returns (uint256) {... */\n    tag_123:\n        /* \"node_modules/@openzeppelin/contracts/utils/EnumerableSet.sol\":7293:7300  uint256 */\n      0x00\n        /* \"node_modules/@openzeppelin/contracts/utils/EnumerableSet.sol\":7319:7338  _length(set._inner) */\n      tag_178\n        /* \"node_modules/@openzeppelin/contracts/utils/EnumerableSet.sol\":7327:7330  set */\n      dup3\n        /* \"node_modules/@openzeppelin/contracts/utils/EnumerableSet.sol\":7327:7337  set._inner */\n      0x00\n      add\n        /* \"node_modules/@openzeppelin/contracts/utils/EnumerableSet.sol\":7319:7326  _length */\n      tag_179\n        /* \"node_modules/@openzeppelin/contracts/utils/EnumerableSet.sol\":7319:7338  _length(set._inner) */\n      jump\t// in\n    tag_178:\n        /* \"node_modules/@openzeppelin/contracts/utils/EnumerableSet.sol\":7312:7338  return _length(set._inner) */\n      swap1\n      pop\n        /* \"node_modules/@openzeppelin/contracts/utils/EnumerableSet.sol\":7230:7345  function length(AddressSet storage set) internal view returns (uint256) {... */\n      swap2\n      swap1\n      pop\n      jump\t// out\n        /* \"node_modules/@openzeppelin/contracts/utils/EnumerableSet.sol\":1640:2044  function _add(Set storage set, bytes32 value) private returns (bool) {... */\n    tag_131:\n        /* \"node_modules/@openzeppelin/contracts/utils/EnumerableSet.sol\":1703:1707  bool */\n      0x00\n        /* \"node_modules/@openzeppelin/contracts/utils/EnumerableSet.sol\":1724:1745  _contains(set, value) */\n      tag_181\n        /* \"node_modules/@openzeppelin/contracts/utils/EnumerableSet.sol\":1734:1737  set */\n      dup4\n        /* \"node_modules/@openzeppelin/contracts/utils/EnumerableSet.sol\":1739:1744  value */\n      dup4\n        /* \"node_modules/@openzeppelin/contracts/utils/EnumerableSet.sol\":1724:1733  _contains */\n      tag_175\n        /* \"node_modules/@openzeppelin/contracts/utils/EnumerableSet.sol\":1724:1745  _contains(set, value) */\n      jump\t// in\n    tag_181:\n        /* \"node_modules/@openzeppelin/contracts/utils/EnumerableSet.sol\":1719:2038  if (!_contains(set, value)) {... */\n      tag_182\n      jumpi\n        /* \"node_modules/@openzeppelin/contracts/utils/EnumerableSet.sol\":1761:1764  set */\n      dup3\n        /* \"node_modules/@openzeppelin/contracts/utils/EnumerableSet.sol\":1761:1772  set._values */\n      0x00\n      add\n        /* \"node_modules/@openzeppelin/contracts/utils/EnumerableSet.sol\":1778:1783  value */\n      dup3\n        /* \"node_modules/@openzeppelin/contracts/utils/EnumerableSet.sol\":1761:1784  set._values.push(value) */\n      swap1\n      dup1\n      0x01\n      dup2\n      sload\n      add\n      dup1\n      dup3\n      sstore\n      dup1\n      swap2\n      pop\n      pop\n      0x01\n      swap1\n      sub\n      swap1\n      0x00\n      mstore\n      keccak256(0x00, 0x20)\n      add\n      0x00\n      swap1\n      swap2\n      swap1\n      swap2\n      swap1\n      swap2\n      pop\n      sstore\n        /* \"node_modules/@openzeppelin/contracts/utils/EnumerableSet.sol\":1941:1944  set */\n      dup3\n        /* \"node_modules/@openzeppelin/contracts/utils/EnumerableSet.sol\":1941:1952  set._values */\n      0x00\n      add\n        /* \"node_modules/@openzeppelin/contracts/utils/EnumerableSet.sol\":1941:1959  set._values.length */\n      dup1\n      sload\n      swap1\n      pop\n        /* \"node_modules/@openzeppelin/contracts/utils/EnumerableSet.sol\":1919:1922  set */\n      dup4\n        /* \"node_modules/@openzeppelin/contracts/utils/EnumerableSet.sol\":1919:1931  set._indexes */\n      0x01\n      add\n        /* \"node_modules/@openzeppelin/contracts/utils/EnumerableSet.sol\":1919:1938  set._indexes[value] */\n      0x00\n        /* \"node_modules/@openzeppelin/contracts/utils/EnumerableSet.sol\":1932:1937  value */\n      dup5\n        /* \"node_modules/@openzeppelin/contracts/utils/EnumerableSet.sol\":1919:1938  set._indexes[value] */\n      dup2\n      mstore\n      0x20\n      add\n      swap1\n      dup2\n      mstore\n      0x20\n      add\n      0x00\n      keccak256\n        /* \"node_modules/@openzeppelin/contracts/utils/EnumerableSet.sol\":1919:1959  set._indexes[value] = set._values.length */\n      dup2\n      swap1\n      sstore\n      pop\n        /* \"node_modules/@openzeppelin/contracts/utils/EnumerableSet.sol\":1980:1984  true */\n      0x01\n        /* \"node_modules/@openzeppelin/contracts/utils/EnumerableSet.sol\":1973:1984  return true */\n      swap1\n      pop\n      jump(tag_180)\n        /* \"node_modules/@openzeppelin/contracts/utils/EnumerableSet.sol\":1719:2038  if (!_contains(set, value)) {... */\n    tag_182:\n        /* \"node_modules/@openzeppelin/contracts/utils/EnumerableSet.sol\":2022:2027  false */\n      0x00\n        /* \"node_modules/@openzeppelin/contracts/utils/EnumerableSet.sol\":2015:2027  return false */\n      swap1\n      pop\n        /* \"node_modules/@openzeppelin/contracts/utils/EnumerableSet.sol\":1640:2044  function _add(Set storage set, bytes32 value) private returns (bool) {... */\n    tag_180:\n      swap3\n      swap2\n      pop\n      pop\n      jump\t// out\n        /* \"node_modules/@openzeppelin/contracts/utils/EnumerableSet.sol\":6747:6903  function remove(AddressSet storage set, address value) internal returns (bool) {... */\n    tag_139:\n        /* \"node_modules/@openzeppelin/contracts/utils/EnumerableSet.sol\":6820:6824  bool */\n      0x00\n        /* \"node_modules/@openzeppelin/contracts/utils/EnumerableSet.sol\":6843:6896  _remove(set._inner, bytes32(uint256(uint160(value)))) */\n      tag_186\n        /* \"node_modules/@openzeppelin/contracts/utils/EnumerableSet.sol\":6851:6854  set */\n      dup4\n        /* \"node_modules/@openzeppelin/contracts/utils/EnumerableSet.sol\":6851:6861  set._inner */\n      0x00\n      add\n        /* \"node_modules/@openzeppelin/contracts/utils/EnumerableSet.sol\":6887:6892  value */\n      dup4\n        /* \"node_modules/@openzeppelin/contracts/utils/EnumerableSet.sol\":6871:6894  uint256(uint160(value)) */\n      0xffffffffffffffffffffffffffffffffffffffff\n      and\n        /* \"node_modules/@openzeppelin/contracts/utils/EnumerableSet.sol\":6863:6895  bytes32(uint256(uint160(value))) */\n      0x00\n      shl\n        /* \"node_modules/@openzeppelin/contracts/utils/EnumerableSet.sol\":6843:6850  _remove */\n      tag_187\n        /* \"node_modules/@openzeppelin/contracts/utils/EnumerableSet.sol\":6843:6896  _remove(set._inner, bytes32(uint256(uint160(value)))) */\n      jump\t// in\n    tag_186:\n        /* \"node_modules/@openzeppelin/contracts/utils/EnumerableSet.sol\":6836:6896  return _remove(set._inner, bytes32(uint256(uint160(value)))) */\n      swap1\n      pop\n        /* \"node_modules/@openzeppelin/contracts/utils/EnumerableSet.sol\":6747:6903  function remove(AddressSet storage set, address value) internal returns (bool) {... */\n      swap3\n      swap2\n      pop\n      pop\n      jump\t// out\n        /* \"node_modules/@openzeppelin/contracts/token/ERC20/SafeERC20.sol\":2967:3718  function _callOptionalReturn(IERC20 token, bytes memory data) private {... */\n    tag_149:\n        /* \"node_modules/@openzeppelin/contracts/token/ERC20/SafeERC20.sol\":3386:3409  bytes memory returndata */\n      0x60\n        /* \"node_modules/@openzeppelin/contracts/token/ERC20/SafeERC20.sol\":3412:3481  address(token).functionCall(data, \"SafeERC20: low-level call failed\") */\n      tag_189\n        /* \"node_modules/@openzeppelin/contracts/token/ERC20/SafeERC20.sol\":3440:3444  data */\n      dup3\n        /* \"node_modules/@openzeppelin/contracts/token/ERC20/SafeERC20.sol\":3412:3481  address(token).functionCall(data, \"SafeERC20: low-level call failed\") */\n      mload(0x40)\n      dup1\n      0x40\n      add\n      0x40\n      mstore\n      dup1\n      0x20\n      dup2\n      mstore\n      0x20\n      add\n      0x5361666545524332303a206c6f772d6c6576656c2063616c6c206661696c6564\n      dup2\n      mstore\n      pop\n        /* \"node_modules/@openzeppelin/contracts/token/ERC20/SafeERC20.sol\":3420:3425  token */\n      dup6\n        /* \"node_modules/@openzeppelin/contracts/token/ERC20/SafeERC20.sol\":3412:3439  address(token).functionCall */\n      0xffffffffffffffffffffffffffffffffffffffff\n      and\n      tag_190\n      swap1\n        /* \"node_modules/@openzeppelin/contracts/token/ERC20/SafeERC20.sol\":3412:3481  address(token).functionCall(data, \"SafeERC20: low-level call failed\") */\n      swap3\n      swap2\n      swap1\n      0xffffffff\n      and\n      jump\t// in\n    tag_189:\n        /* \"node_modules/@openzeppelin/contracts/token/ERC20/SafeERC20.sol\":3386:3481  bytes memory returndata = address(token).functionCall(data, \"SafeERC20: low-level call failed\") */\n      swap1\n      pop\n        /* \"node_modules/@openzeppelin/contracts/token/ERC20/SafeERC20.sol\":3515:3516  0 */\n      0x00\n        /* \"node_modules/@openzeppelin/contracts/token/ERC20/SafeERC20.sol\":3495:3505  returndata */\n      dup2\n        /* \"node_modules/@openzeppelin/contracts/token/ERC20/SafeERC20.sol\":3495:3512  returndata.length */\n      mload\n        /* \"node_modules/@openzeppelin/contracts/token/ERC20/SafeERC20.sol\":3495:3516  returndata.length > 0 */\n      gt\n        /* \"node_modules/@openzeppelin/contracts/token/ERC20/SafeERC20.sol\":3491:3712  if (returndata.length > 0) { // Return data is optional... */\n      iszero\n      tag_191\n      jumpi\n        /* \"node_modules/@openzeppelin/contracts/token/ERC20/SafeERC20.sol\":3635:3645  returndata */\n      dup1\n        /* \"node_modules/@openzeppelin/contracts/token/ERC20/SafeERC20.sol\":3624:3654  abi.decode(returndata, (bool)) */\n      dup1\n      0x20\n      add\n      swap1\n      mload\n      0x20\n      dup2\n      lt\n      iszero\n      tag_192\n      jumpi\n      0x00\n      dup1\n      revert\n    tag_192:\n      dup2\n      add\n      swap1\n      dup1\n      dup1\n      mload\n      swap1\n      0x20\n      add\n      swap1\n      swap3\n      swap2\n      swap1\n      pop\n      pop\n      pop\n        /* \"node_modules/@openzeppelin/contracts/token/ERC20/SafeERC20.sol\":3616:3701  require(abi.decode(returndata, (bool)), \"SafeERC20: ERC20 operation did not succeed\") */\n      tag_193\n      jumpi\n      mload(0x40)\n      0x08c379a000000000000000000000000000000000000000000000000000000000\n      dup2\n      mstore\n      0x04\n      add\n      dup1\n      dup1\n      0x20\n      add\n      dup3\n      dup2\n      sub\n      dup3\n      mstore\n      0x2a\n      dup2\n      mstore\n      0x20\n      add\n      dup1\n      data_e11ad79d1e4a7f2e5f376964cb99e8e8f7904e3fc16a109f7a7ecb9aa7956dcd\n      0x2a\n      swap2\n      codecopy\n      0x40\n      add\n      swap2\n      pop\n      pop\n      mload(0x40)\n      dup1\n      swap2\n      sub\n      swap1\n      revert\n    tag_193:\n        /* \"node_modules/@openzeppelin/contracts/token/ERC20/SafeERC20.sol\":3491:3712  if (returndata.length > 0) { // Return data is optional... */\n    tag_191:\n        /* \"node_modules/@openzeppelin/contracts/token/ERC20/SafeERC20.sol\":2967:3718  function _callOptionalReturn(IERC20 token, bytes memory data) private {... */\n      pop\n      pop\n      pop\n      jump\t// out\n        /* \"node_modules/@chainlink/contracts/src/v0.6/VRFRequestIDBase.sol\":797:1028  function makeVRFInputSeed(bytes32 _keyHash, uint256 _userSeed,... */\n    tag_165:\n        /* \"node_modules/@chainlink/contracts/src/v0.6/VRFRequestIDBase.sol\":927:934  uint256 */\n      0x00\n        /* \"node_modules/@chainlink/contracts/src/v0.6/VRFRequestIDBase.sol\":981:989  _keyHash */\n      dup5\n        /* \"node_modules/@chainlink/contracts/src/v0.6/VRFRequestIDBase.sol\":991:1000  _userSeed */\n      dup5\n        /* \"node_modules/@chainlink/contracts/src/v0.6/VRFRequestIDBase.sol\":1002:1012  _requester */\n      dup5\n        /* \"node_modules/@chainlink/contracts/src/v0.6/VRFRequestIDBase.sol\":1014:1020  _nonce */\n      dup5\n        /* \"node_modules/@chainlink/contracts/src/v0.6/VRFRequestIDBase.sol\":970:1021  abi.encode(_keyHash, _userSeed, _requester, _nonce) */\n      add(0x20, mload(0x40))\n      dup1\n      dup6\n      dup2\n      mstore\n      0x20\n      add\n      dup5\n      dup2\n      mstore\n      0x20\n      add\n      dup4\n      0xffffffffffffffffffffffffffffffffffffffff\n      and\n      dup2\n      mstore\n      0x20\n      add\n      dup3\n      dup2\n      mstore\n      0x20\n      add\n      swap5\n      pop\n      pop\n      pop\n      pop\n      pop\n      mload(0x40)\n      0x20\n      dup2\n      dup4\n      sub\n      sub\n      dup2\n      mstore\n      swap1\n      0x40\n      mstore\n        /* \"node_modules/@chainlink/contracts/src/v0.6/VRFRequestIDBase.sol\":960:1022  keccak256(abi.encode(_keyHash, _userSeed, _requester, _nonce)) */\n      dup1\n      mload\n      swap1\n      0x20\n      add\n      keccak256\n        /* \"node_modules/@chainlink/contracts/src/v0.6/VRFRequestIDBase.sol\":952:1023  uint256(keccak256(abi.encode(_keyHash, _userSeed, _requester, _nonce))) */\n      0x00\n      shr\n        /* \"node_modules/@chainlink/contracts/src/v0.6/VRFRequestIDBase.sol\":944:1023  return  uint256(keccak256(abi.encode(_keyHash, _userSeed, _requester, _nonce))) */\n      swap1\n      pop\n        /* \"node_modules/@chainlink/contracts/src/v0.6/VRFRequestIDBase.sol\":797:1028  function makeVRFInputSeed(bytes32 _keyHash, uint256 _userSeed,... */\n      swap5\n      swap4\n      pop\n      pop\n      pop\n      pop\n      jump\t// out\n        /* \"node_modules/@chainlink/contracts/src/v0.6/vendor/SafeMathChainlink.sol\":863:1025  function add(uint256 a, uint256 b) internal pure returns (uint256) {... */\n    tag_167:\n        /* \"node_modules/@chainlink/contracts/src/v0.6/vendor/SafeMathChainlink.sol\":921:928  uint256 */\n      0x00\n        /* \"node_modules/@chainlink/contracts/src/v0.6/vendor/SafeMathChainlink.sol\":936:945  uint256 c */\n      dup1\n        /* \"node_modules/@chainlink/contracts/src/v0.6/vendor/SafeMathChainlink.sol\":952:953  b */\n      dup3\n        /* \"node_modules/@chainlink/contracts/src/v0.6/vendor/SafeMathChainlink.sol\":948:949  a */\n      dup5\n        /* \"node_modules/@chainlink/contracts/src/v0.6/vendor/SafeMathChainlink.sol\":948:953  a + b */\n      add\n        /* \"node_modules/@chainlink/contracts/src/v0.6/vendor/SafeMathChainlink.sol\":936:953  uint256 c = a + b */\n      swap1\n      pop\n        /* \"node_modules/@chainlink/contracts/src/v0.6/vendor/SafeMathChainlink.sol\":972:973  a */\n      dup4\n        /* \"node_modules/@chainlink/contracts/src/v0.6/vendor/SafeMathChainlink.sol\":967:968  c */\n      dup2\n        /* \"node_modules/@chainlink/contracts/src/v0.6/vendor/SafeMathChainlink.sol\":967:973  c >= a */\n      lt\n      iszero\n        /* \"node_modules/@chainlink/contracts/src/v0.6/vendor/SafeMathChainlink.sol\":959:1005  require(c >= a, \"SafeMath: addition overflow\") */\n      tag_196\n      jumpi\n      mload(0x40)\n      0x08c379a000000000000000000000000000000000000000000000000000000000\n      dup2\n      mstore\n      0x04\n      add\n      dup1\n      dup1\n      0x20\n      add\n      dup3\n      dup2\n      sub\n      dup3\n      mstore\n      0x1b\n      dup2\n      mstore\n      0x20\n      add\n      dup1\n      0x536166654d6174683a206164646974696f6e206f766572666c6f770000000000\n      dup2\n      mstore\n      pop\n      0x20\n      add\n      swap2\n      pop\n      pop\n      mload(0x40)\n      dup1\n      swap2\n      sub\n      swap1\n      revert\n    tag_196:\n        /* \"node_modules/@chainlink/contracts/src/v0.6/vendor/SafeMathChainlink.sol\":1019:1020  c */\n      dup1\n        /* \"node_modules/@chainlink/contracts/src/v0.6/vendor/SafeMathChainlink.sol\":1012:1020  return c */\n      swap2\n      pop\n      pop\n        /* \"node_modules/@chainlink/contracts/src/v0.6/vendor/SafeMathChainlink.sol\":863:1025  function add(uint256 a, uint256 b) internal pure returns (uint256) {... */\n      swap3\n      swap2\n      pop\n      pop\n      jump\t// out\n        /* \"node_modules/@chainlink/contracts/src/v0.6/VRFRequestIDBase.sol\":1408:1579  function makeRequestId(... */\n    tag_169:\n        /* \"node_modules/@chainlink/contracts/src/v0.6/VRFRequestIDBase.sol\":1500:1507  bytes32 */\n      0x00\n        /* \"node_modules/@chainlink/contracts/src/v0.6/VRFRequestIDBase.sol\":1549:1557  _keyHash */\n      dup3\n        /* \"node_modules/@chainlink/contracts/src/v0.6/VRFRequestIDBase.sol\":1559:1572  _vRFInputSeed */\n      dup3\n        /* \"node_modules/@chainlink/contracts/src/v0.6/VRFRequestIDBase.sol\":1532:1573  abi.encodePacked(_keyHash, _vRFInputSeed) */\n      add(0x20, mload(0x40))\n      dup1\n      dup4\n      dup2\n      mstore\n      0x20\n      add\n      dup3\n      dup2\n      mstore\n      0x20\n      add\n      swap3\n      pop\n      pop\n      pop\n      mload(0x40)\n      0x20\n      dup2\n      dup4\n      sub\n      sub\n      dup2\n      mstore\n      swap1\n      0x40\n      mstore\n        /* \"node_modules/@chainlink/contracts/src/v0.6/VRFRequestIDBase.sol\":1522:1574  keccak256(abi.encodePacked(_keyHash, _vRFInputSeed)) */\n      dup1\n      mload\n      swap1\n      0x20\n      add\n      keccak256\n        /* \"node_modules/@chainlink/contracts/src/v0.6/VRFRequestIDBase.sol\":1515:1574  return keccak256(abi.encodePacked(_keyHash, _vRFInputSeed)) */\n      swap1\n      pop\n        /* \"node_modules/@chainlink/contracts/src/v0.6/VRFRequestIDBase.sol\":1408:1579  function makeRequestId(... */\n      swap3\n      swap2\n      pop\n      pop\n      jump\t// out\n        /* \"node_modules/@openzeppelin/contracts/utils/EnumerableSet.sol\":4452:4653  function _at(Set storage set, uint256 index) private view returns (bytes32) {... */\n    tag_172:\n        /* \"node_modules/@openzeppelin/contracts/utils/EnumerableSet.sol\":4519:4526  bytes32 */\n      0x00\n        /* \"node_modules/@openzeppelin/contracts/utils/EnumerableSet.sol\":4567:4572  index */\n      dup2\n        /* \"node_modules/@openzeppelin/contracts/utils/EnumerableSet.sol\":4546:4549  set */\n      dup4\n        /* \"node_modules/@openzeppelin/contracts/utils/EnumerableSet.sol\":4546:4557  set._values */\n      0x00\n      add\n        /* \"node_modules/@openzeppelin/contracts/utils/EnumerableSet.sol\":4546:4564  set._values.length */\n      dup1\n      sload\n      swap1\n      pop\n        /* \"node_modules/@openzeppelin/contracts/utils/EnumerableSet.sol\":4546:4572  set._values.length > index */\n      gt\n        /* \"node_modules/@openzeppelin/contracts/utils/EnumerableSet.sol\":4538:4611  require(set._values.length > index, \"EnumerableSet: index out of bounds\") */\n      tag_199\n      jumpi\n      mload(0x40)\n      0x08c379a000000000000000000000000000000000000000000000000000000000\n      dup2\n      mstore\n      0x04\n      add\n      dup1\n      dup1\n      0x20\n      add\n      dup3\n      dup2\n      sub\n      dup3\n      mstore\n      0x22\n      dup2\n      mstore\n      0x20\n      add\n      dup1\n      data_045d6834e6193a687012a3ad777f612279e549b6945364d9d2324f48610d3cbb\n      0x22\n      swap2\n      codecopy\n      0x40\n      add\n      swap2\n      pop\n      pop\n      mload(0x40)\n      dup1\n      swap2\n      sub\n      swap1\n      revert\n    tag_199:\n        /* \"node_modules/@openzeppelin/contracts/utils/EnumerableSet.sol\":4628:4631  set */\n      dup3\n        /* \"node_modules/@openzeppelin/contracts/utils/EnumerableSet.sol\":4628:4639  set._values */\n      0x00\n      add\n        /* \"node_modules/@openzeppelin/contracts/utils/EnumerableSet.sol\":4640:4645  index */\n      dup3\n        /* \"node_modules/@openzeppelin/contracts/utils/EnumerableSet.sol\":4628:4646  set._values[index] */\n      dup2\n      sload\n      dup2\n      lt\n      tag_200\n      jumpi\n      invalid\n    tag_200:\n      swap1\n      0x00\n      mstore\n      keccak256(0x00, 0x20)\n      add\n      sload\n        /* \"node_modules/@openzeppelin/contracts/utils/EnumerableSet.sol\":4621:4646  return set._values[index] */\n      swap1\n      pop\n        /* \"node_modules/@openzeppelin/contracts/utils/EnumerableSet.sol\":4452:4653  function _at(Set storage set, uint256 index) private view returns (bytes32) {... */\n      swap3\n      swap2\n      pop\n      pop\n      jump\t// out\n        /* \"node_modules/@openzeppelin/contracts/utils/EnumerableSet.sol\":3805:3932  function _contains(Set storage set, bytes32 value) private view returns (bool) {... */\n    tag_175:\n        /* \"node_modules/@openzeppelin/contracts/utils/EnumerableSet.sol\":3878:3882  bool */\n      0x00\n        /* \"node_modules/@openzeppelin/contracts/utils/EnumerableSet.sol\":3924:3925  0 */\n      dup1\n        /* \"node_modules/@openzeppelin/contracts/utils/EnumerableSet.sol\":3901:3904  set */\n      dup4\n        /* \"node_modules/@openzeppelin/contracts/utils/EnumerableSet.sol\":3901:3913  set._indexes */\n      0x01\n      add\n        /* \"node_modules/@openzeppelin/contracts/utils/EnumerableSet.sol\":3901:3920  set._indexes[value] */\n      0x00\n        /* \"node_modules/@openzeppelin/contracts/utils/EnumerableSet.sol\":3914:3919  value */\n      dup5\n        /* \"node_modules/@openzeppelin/contracts/utils/EnumerableSet.sol\":3901:3920  set._indexes[value] */\n      dup2\n      mstore\n      0x20\n      add\n      swap1\n      dup2\n      mstore\n      0x20\n      add\n      0x00\n      keccak256\n      sload\n        /* \"node_modules/@openzeppelin/contracts/utils/EnumerableSet.sol\":3901:3925  set._indexes[value] != 0 */\n      eq\n      iszero\n        /* \"node_modules/@openzeppelin/contracts/utils/EnumerableSet.sol\":3894:3925  return set._indexes[value] != 0 */\n      swap1\n      pop\n        /* \"node_modules/@openzeppelin/contracts/utils/EnumerableSet.sol\":3805:3932  function _contains(Set storage set, bytes32 value) private view returns (bool) {... */\n      swap3\n      swap2\n      pop\n      pop\n      jump\t// out\n        /* \"node_modules/@openzeppelin/contracts/utils/EnumerableSet.sol\":4013:4120  function _length(Set storage set) private view returns (uint256) {... */\n    tag_179:\n        /* \"node_modules/@openzeppelin/contracts/utils/EnumerableSet.sol\":4069:4076  uint256 */\n      0x00\n        /* \"node_modules/@openzeppelin/contracts/utils/EnumerableSet.sol\":4095:4098  set */\n      dup2\n        /* \"node_modules/@openzeppelin/contracts/utils/EnumerableSet.sol\":4095:4106  set._values */\n      0x00\n      add\n        /* \"node_modules/@openzeppelin/contracts/utils/EnumerableSet.sol\":4095:4113  set._values.length */\n      dup1\n      sload\n      swap1\n      pop\n        /* \"node_modules/@openzeppelin/contracts/utils/EnumerableSet.sol\":4088:4113  return set._values.length */\n      swap1\n      pop\n        /* \"node_modules/@openzeppelin/contracts/utils/EnumerableSet.sol\":4013:4120  function _length(Set storage set) private view returns (uint256) {... */\n      swap2\n      swap1\n      pop\n      jump\t// out\n        /* \"node_modules/@openzeppelin/contracts/utils/EnumerableSet.sol\":2212:3724  function _remove(Set storage set, bytes32 value) private returns (bool) {... */\n    tag_187:\n        /* \"node_modules/@openzeppelin/contracts/utils/EnumerableSet.sol\":2278:2282  bool */\n      0x00\n        /* \"node_modules/@openzeppelin/contracts/utils/EnumerableSet.sol\":2394:2412  uint256 valueIndex */\n      dup1\n        /* \"node_modules/@openzeppelin/contracts/utils/EnumerableSet.sol\":2415:2418  set */\n      dup4\n        /* \"node_modules/@openzeppelin/contracts/utils/EnumerableSet.sol\":2415:2427  set._indexes */\n      0x01\n      add\n        /* \"node_modules/@openzeppelin/contracts/utils/EnumerableSet.sol\":2415:2434  set._indexes[value] */\n      0x00\n        /* \"node_modules/@openzeppelin/contracts/utils/EnumerableSet.sol\":2428:2433  value */\n      dup5\n        /* \"node_modules/@openzeppelin/contracts/utils/EnumerableSet.sol\":2415:2434  set._indexes[value] */\n      dup2\n      mstore\n      0x20\n      add\n      swap1\n      dup2\n      mstore\n      0x20\n      add\n      0x00\n      keccak256\n      sload\n        /* \"node_modules/@openzeppelin/contracts/utils/EnumerableSet.sol\":2394:2434  uint256 valueIndex = set._indexes[value] */\n      swap1\n      pop\n        /* \"node_modules/@openzeppelin/contracts/utils/EnumerableSet.sol\":2463:2464  0 */\n      0x00\n        /* \"node_modules/@openzeppelin/contracts/utils/EnumerableSet.sol\":2449:2459  valueIndex */\n      dup2\n        /* \"node_modules/@openzeppelin/contracts/utils/EnumerableSet.sol\":2449:2464  valueIndex != 0 */\n      eq\n        /* \"node_modules/@openzeppelin/contracts/utils/EnumerableSet.sol\":2445:3718  if (valueIndex != 0) { // Equivalent to contains(set, value)... */\n      tag_205\n      jumpi\n        /* \"node_modules/@openzeppelin/contracts/utils/EnumerableSet.sol\":2806:2827  uint256 toDeleteIndex */\n      0x00\n        /* \"node_modules/@openzeppelin/contracts/utils/EnumerableSet.sol\":2843:2844  1 */\n      0x01\n        /* \"node_modules/@openzeppelin/contracts/utils/EnumerableSet.sol\":2830:2840  valueIndex */\n      dup3\n        /* \"node_modules/@openzeppelin/contracts/utils/EnumerableSet.sol\":2830:2844  valueIndex - 1 */\n      sub\n        /* \"node_modules/@openzeppelin/contracts/utils/EnumerableSet.sol\":2806:2844  uint256 toDeleteIndex = valueIndex - 1 */\n      swap1\n      pop\n        /* \"node_modules/@openzeppelin/contracts/utils/EnumerableSet.sol\":2858:2875  uint256 lastIndex */\n      0x00\n        /* \"node_modules/@openzeppelin/contracts/utils/EnumerableSet.sol\":2899:2900  1 */\n      0x01\n        /* \"node_modules/@openzeppelin/contracts/utils/EnumerableSet.sol\":2878:2881  set */\n      dup7\n        /* \"node_modules/@openzeppelin/contracts/utils/EnumerableSet.sol\":2878:2889  set._values */\n      0x00\n      add\n        /* \"node_modules/@openzeppelin/contracts/utils/EnumerableSet.sol\":2878:2896  set._values.length */\n      dup1\n      sload\n      swap1\n      pop\n        /* \"node_modules/@openzeppelin/contracts/utils/EnumerableSet.sol\":2878:2900  set._values.length - 1 */\n      sub\n        /* \"node_modules/@openzeppelin/contracts/utils/EnumerableSet.sol\":2858:2900  uint256 lastIndex = set._values.length - 1 */\n      swap1\n      pop\n        /* \"node_modules/@openzeppelin/contracts/utils/EnumerableSet.sol\":3140:3157  bytes32 lastvalue */\n      0x00\n        /* \"node_modules/@openzeppelin/contracts/utils/EnumerableSet.sol\":3160:3163  set */\n      dup7\n        /* \"node_modules/@openzeppelin/contracts/utils/EnumerableSet.sol\":3160:3171  set._values */\n      0x00\n      add\n        /* \"node_modules/@openzeppelin/contracts/utils/EnumerableSet.sol\":3172:3181  lastIndex */\n      dup3\n        /* \"node_modules/@openzeppelin/contracts/utils/EnumerableSet.sol\":3160:3182  set._values[lastIndex] */\n      dup2\n      sload\n      dup2\n      lt\n      tag_206\n      jumpi\n      invalid\n    tag_206:\n      swap1\n      0x00\n      mstore\n      keccak256(0x00, 0x20)\n      add\n      sload\n        /* \"node_modules/@openzeppelin/contracts/utils/EnumerableSet.sol\":3140:3182  bytes32 lastvalue = set._values[lastIndex] */\n      swap1\n      pop\n        /* \"node_modules/@openzeppelin/contracts/utils/EnumerableSet.sol\":3303:3312  lastvalue */\n      dup1\n        /* \"node_modules/@openzeppelin/contracts/utils/EnumerableSet.sol\":3274:3277  set */\n      dup8\n        /* \"node_modules/@openzeppelin/contracts/utils/EnumerableSet.sol\":3274:3285  set._values */\n      0x00\n      add\n        /* \"node_modules/@openzeppelin/contracts/utils/EnumerableSet.sol\":3286:3299  toDeleteIndex */\n      dup5\n        /* \"node_modules/@openzeppelin/contracts/utils/EnumerableSet.sol\":3274:3300  set._values[toDeleteIndex] */\n      dup2\n      sload\n      dup2\n      lt\n      tag_208\n      jumpi\n      invalid\n    tag_208:\n      swap1\n      0x00\n      mstore\n      keccak256(0x00, 0x20)\n      add\n        /* \"node_modules/@openzeppelin/contracts/utils/EnumerableSet.sol\":3274:3312  set._values[toDeleteIndex] = lastvalue */\n      dup2\n      swap1\n      sstore\n      pop\n        /* \"node_modules/@openzeppelin/contracts/utils/EnumerableSet.sol\":3420:3421  1 */\n      0x01\n        /* \"node_modules/@openzeppelin/contracts/utils/EnumerableSet.sol\":3404:3417  toDeleteIndex */\n      dup4\n        /* \"node_modules/@openzeppelin/contracts/utils/EnumerableSet.sol\":3404:3421  toDeleteIndex + 1 */\n      add\n        /* \"node_modules/@openzeppelin/contracts/utils/EnumerableSet.sol\":3378:3381  set */\n      dup8\n        /* \"node_modules/@openzeppelin/contracts/utils/EnumerableSet.sol\":3378:3390  set._indexes */\n      0x01\n      add\n        /* \"node_modules/@openzeppelin/contracts/utils/EnumerableSet.sol\":3378:3401  set._indexes[lastvalue] */\n      0x00\n        /* \"node_modules/@openzeppelin/contracts/utils/EnumerableSet.sol\":3391:3400  lastvalue */\n      dup4\n        /* \"node_modules/@openzeppelin/contracts/utils/EnumerableSet.sol\":3378:3401  set._indexes[lastvalue] */\n      dup2\n      mstore\n      0x20\n      add\n      swap1\n      dup2\n      mstore\n      0x20\n      add\n      0x00\n      keccak256\n        /* \"node_modules/@openzeppelin/contracts/utils/EnumerableSet.sol\":3378:3421  set._indexes[lastvalue] = toDeleteIndex + 1 */\n      dup2\n      swap1\n      sstore\n      pop\n        /* \"node_modules/@openzeppelin/contracts/utils/EnumerableSet.sol\":3527:3530  set */\n      dup7\n        /* \"node_modules/@openzeppelin/contracts/utils/EnumerableSet.sol\":3527:3538  set._values */\n      0x00\n      add\n        /* \"node_modules/@openzeppelin/contracts/utils/EnumerableSet.sol\":3527:3544  set._values.pop() */\n      dup1\n      sload\n      dup1\n      tag_210\n      jumpi\n      invalid\n    tag_210:\n      0x01\n      swap1\n      sub\n      dup2\n      dup2\n      swap1\n      0x00\n      mstore\n      keccak256(0x00, 0x20)\n      add\n      0x00\n      swap1\n      sstore\n      swap1\n      sstore\n        /* \"node_modules/@openzeppelin/contracts/utils/EnumerableSet.sol\":3619:3622  set */\n      dup7\n        /* \"node_modules/@openzeppelin/contracts/utils/EnumerableSet.sol\":3619:3631  set._indexes */\n      0x01\n      add\n        /* \"node_modules/@openzeppelin/contracts/utils/EnumerableSet.sol\":3619:3638  set._indexes[value] */\n      0x00\n        /* \"node_modules/@openzeppelin/contracts/utils/EnumerableSet.sol\":3632:3637  value */\n      dup8\n        /* \"node_modules/@openzeppelin/contracts/utils/EnumerableSet.sol\":3619:3638  set._indexes[value] */\n      dup2\n      mstore\n      0x20\n      add\n      swap1\n      dup2\n      mstore\n      0x20\n      add\n      0x00\n      keccak256\n        /* \"node_modules/@openzeppelin/contracts/utils/EnumerableSet.sol\":3612:3638  delete set._indexes[value] */\n      0x00\n      swap1\n      sstore\n        /* \"node_modules/@openzeppelin/contracts/utils/EnumerableSet.sol\":3660:3664  true */\n      0x01\n        /* \"node_modules/@openzeppelin/contracts/utils/EnumerableSet.sol\":3653:3664  return true */\n      swap5\n      pop\n      pop\n      pop\n      pop\n      pop\n      jump(tag_204)\n        /* \"node_modules/@openzeppelin/contracts/utils/EnumerableSet.sol\":2445:3718  if (valueIndex != 0) { // Equivalent to contains(set, value)... */\n    tag_205:\n        /* \"node_modules/@openzeppelin/contracts/utils/EnumerableSet.sol\":3702:3707  false */\n      0x00\n        /* \"node_modules/@openzeppelin/contracts/utils/EnumerableSet.sol\":3695:3707  return false */\n      swap2\n      pop\n      pop\n        /* \"node_modules/@openzeppelin/contracts/utils/EnumerableSet.sol\":2212:3724  function _remove(Set storage set, bytes32 value) private returns (bool) {... */\n    tag_204:\n      swap3\n      swap2\n      pop\n      pop\n      jump\t// out\n        /* \"node_modules/@openzeppelin/contracts/utils/Address.sol\":3581:3774  function functionCall(address target, bytes memory data, string memory errorMessage) internal returns (bytes memory) {... */\n    tag_190:\n        /* \"node_modules/@openzeppelin/contracts/utils/Address.sol\":3684:3696  bytes memory */\n      0x60\n        /* \"node_modules/@openzeppelin/contracts/utils/Address.sol\":3715:3767  functionCallWithValue(target, data, 0, errorMessage) */\n      tag_214\n        /* \"node_modules/@openzeppelin/contracts/utils/Address.sol\":3737:3743  target */\n      dup5\n        /* \"node_modules/@openzeppelin/contracts/utils/Address.sol\":3745:3749  data */\n      dup5\n        /* \"node_modules/@openzeppelin/contracts/utils/Address.sol\":3751:3752  0 */\n      0x00\n        /* \"node_modules/@openzeppelin/contracts/utils/Address.sol\":3754:3766  errorMessage */\n      dup6\n        /* \"node_modules/@openzeppelin/contracts/utils/Address.sol\":3715:3736  functionCallWithValue */\n      tag_215\n        /* \"node_modules/@openzeppelin/contracts/utils/Address.sol\":3715:3767  functionCallWithValue(target, data, 0, errorMessage) */\n      jump\t// in\n    tag_214:\n        /* \"node_modules/@openzeppelin/contracts/utils/Address.sol\":3708:3767  return functionCallWithValue(target, data, 0, errorMessage) */\n      swap1\n      pop\n        /* \"node_modules/@openzeppelin/contracts/utils/Address.sol\":3581:3774  function functionCall(address target, bytes memory data, string memory errorMessage) internal returns (bytes memory) {... */\n      swap4\n      swap3\n      pop\n      pop\n      pop\n      jump\t// out\n        /* \"node_modules/@openzeppelin/contracts/utils/Address.sol\":4608:5131  function functionCallWithValue(address target, bytes memory data, uint256 value, string memory errorMessage) internal returns (bytes memory) {... */\n    tag_215:\n        /* \"node_modules/@openzeppelin/contracts/utils/Address.sol\":4735:4747  bytes memory */\n      0x60\n        /* \"node_modules/@openzeppelin/contracts/utils/Address.sol\":4792:4797  value */\n      dup3\n        /* \"node_modules/@openzeppelin/contracts/utils/Address.sol\":4767:4788  address(this).balance */\n      selfbalance\n        /* \"node_modules/@openzeppelin/contracts/utils/Address.sol\":4767:4797  address(this).balance >= value */\n      lt\n      iszero\n        /* \"node_modules/@openzeppelin/contracts/utils/Address.sol\":4759:4840  require(address(this).balance >= value, \"Address: insufficient balance for call\") */\n      tag_217\n      jumpi\n      mload(0x40)\n      0x08c379a000000000000000000000000000000000000000000000000000000000\n      dup2\n      mstore\n      0x04\n      add\n      dup1\n      dup1\n      0x20\n      add\n      dup3\n      dup2\n      sub\n      dup3\n      mstore\n      0x26\n      dup2\n      mstore\n      0x20\n      add\n      dup1\n      data_565f1a77334fc4792800921178c71e4521acffab18ff9e7885b49377ee80ab4c\n      0x26\n      swap2\n      codecopy\n      0x40\n      add\n      swap2\n      pop\n      pop\n      mload(0x40)\n      dup1\n      swap2\n      sub\n      swap1\n      revert\n    tag_217:\n        /* \"node_modules/@openzeppelin/contracts/utils/Address.sol\":4858:4876  isContract(target) */\n      tag_218\n        /* \"node_modules/@openzeppelin/contracts/utils/Address.sol\":4869:4875  target */\n      dup6\n        /* \"node_modules/@openzeppelin/contracts/utils/Address.sol\":4858:4868  isContract */\n      tag_219\n        /* \"node_modules/@openzeppelin/contracts/utils/Address.sol\":4858:4876  isContract(target) */\n      jump\t// in\n    tag_218:\n        /* \"node_modules/@openzeppelin/contracts/utils/Address.sol\":4850:4910  require(isContract(target), \"Address: call to non-contract\") */\n      tag_220\n      jumpi\n      mload(0x40)\n      0x08c379a000000000000000000000000000000000000000000000000000000000\n      dup2\n      mstore\n      0x04\n      add\n      dup1\n      dup1\n      0x20\n      add\n      dup3\n      dup2\n      sub\n      dup3\n      mstore\n      0x1d\n      dup2\n      mstore\n      0x20\n      add\n      dup1\n      0x416464726573733a2063616c6c20746f206e6f6e2d636f6e7472616374000000\n      dup2\n      mstore\n      pop\n      0x20\n      add\n      swap2\n      pop\n      pop\n      mload(0x40)\n      dup1\n      swap2\n      sub\n      swap1\n      revert\n    tag_220:\n        /* \"node_modules/@openzeppelin/contracts/utils/Address.sol\":4981:4993  bool success */\n      0x00\n        /* \"node_modules/@openzeppelin/contracts/utils/Address.sol\":4995:5018  bytes memory returndata */\n      0x60\n        /* \"node_modules/@openzeppelin/contracts/utils/Address.sol\":5022:5028  target */\n      dup7\n        /* \"node_modules/@openzeppelin/contracts/utils/Address.sol\":5022:5033  target.call */\n      0xffffffffffffffffffffffffffffffffffffffff\n      and\n        /* \"node_modules/@openzeppelin/contracts/utils/Address.sol\":5042:5047  value */\n      dup6\n        /* \"node_modules/@openzeppelin/contracts/utils/Address.sol\":5050:5054  data */\n      dup8\n        /* \"node_modules/@openzeppelin/contracts/utils/Address.sol\":5022:5055  target.call{ value: value }(data) */\n      mload(0x40)\n      dup1\n      dup3\n      dup1\n      mload\n      swap1\n      0x20\n      add\n      swap1\n      dup1\n      dup4\n      dup4\n    tag_221:\n      0x20\n      dup4\n      lt\n      tag_223\n      jumpi\n      dup1\n      mload\n      dup3\n      mstore\n      0x20\n      dup3\n      add\n      swap2\n      pop\n      0x20\n      dup2\n      add\n      swap1\n      pop\n      0x20\n      dup4\n      sub\n      swap3\n      pop\n      jump(tag_221)\n    tag_223:\n      0x01\n      dup4\n      0x20\n      sub\n      0x0100\n      exp\n      sub\n      dup1\n      not\n      dup3\n      mload\n      and\n      dup2\n      dup5\n      mload\n      and\n      dup1\n      dup3\n      or\n      dup6\n      mstore\n      pop\n      pop\n      pop\n      pop\n      pop\n      pop\n      swap1\n      pop\n      add\n      swap2\n      pop\n      pop\n      0x00\n      mload(0x40)\n      dup1\n      dup4\n      sub\n      dup2\n      dup6\n      dup8\n      gas\n      call\n      swap3\n      pop\n      pop\n      pop\n      returndatasize\n      dup1\n      0x00\n      dup2\n      eq\n      tag_226\n      jumpi\n      mload(0x40)\n      swap2\n      pop\n      and(add(returndatasize, 0x3f), not(0x1f))\n      dup3\n      add\n      0x40\n      mstore\n      returndatasize\n      dup3\n      mstore\n      returndatasize\n      0x00\n      0x20\n      dup5\n      add\n      returndatacopy\n      jump(tag_225)\n    tag_226:\n      0x60\n      swap2\n      pop\n    tag_225:\n      pop\n        /* \"node_modules/@openzeppelin/contracts/utils/Address.sol\":4980:5055  (bool success, bytes memory returndata) = target.call{ value: value }(data) */\n      swap2\n      pop\n      swap2\n      pop\n        /* \"node_modules/@openzeppelin/contracts/utils/Address.sol\":5072:5124  _verifyCallResult(success, returndata, errorMessage) */\n      tag_227\n        /* \"node_modules/@openzeppelin/contracts/utils/Address.sol\":5090:5097  success */\n      dup3\n        /* \"node_modules/@openzeppelin/contracts/utils/Address.sol\":5099:5109  returndata */\n      dup3\n        /* \"node_modules/@openzeppelin/contracts/utils/Address.sol\":5111:5123  errorMessage */\n      dup7\n        /* \"node_modules/@openzeppelin/contracts/utils/Address.sol\":5072:5089  _verifyCallResult */\n      tag_228\n        /* \"node_modules/@openzeppelin/contracts/utils/Address.sol\":5072:5124  _verifyCallResult(success, returndata, errorMessage) */\n      jump\t// in\n    tag_227:\n        /* \"node_modules/@openzeppelin/contracts/utils/Address.sol\":5065:5124  return _verifyCallResult(success, returndata, errorMessage) */\n      swap3\n      pop\n      pop\n      pop\n        /* \"node_modules/@openzeppelin/contracts/utils/Address.sol\":4608:5131  function functionCallWithValue(address target, bytes memory data, uint256 value, string memory errorMessage) internal returns (bytes memory) {... */\n      swap5\n      swap4\n      pop\n      pop\n      pop\n      pop\n      jump\t// out\n        /* \"node_modules/@openzeppelin/contracts/utils/Address.sol\":726:1139  function isContract(address account) internal view returns (bool) {... */\n    tag_219:\n        /* \"node_modules/@openzeppelin/contracts/utils/Address.sol\":786:790  bool */\n      0x00\n        /* \"node_modules/@openzeppelin/contracts/utils/Address.sol\":989:1001  uint256 size */\n      dup1\n        /* \"node_modules/@openzeppelin/contracts/utils/Address.sol\":1098:1105  account */\n      dup3\n        /* \"node_modules/@openzeppelin/contracts/utils/Address.sol\":1086:1106  extcodesize(account) */\n      extcodesize\n        /* \"node_modules/@openzeppelin/contracts/utils/Address.sol\":1078:1106  size := extcodesize(account) */\n      swap1\n      pop\n        /* \"node_modules/@openzeppelin/contracts/utils/Address.sol\":1131:1132  0 */\n      0x00\n        /* \"node_modules/@openzeppelin/contracts/utils/Address.sol\":1124:1128  size */\n      dup2\n        /* \"node_modules/@openzeppelin/contracts/utils/Address.sol\":1124:1132  size > 0 */\n      gt\n        /* \"node_modules/@openzeppelin/contracts/utils/Address.sol\":1117:1132  return size > 0 */\n      swap2\n      pop\n      pop\n        /* \"node_modules/@openzeppelin/contracts/utils/Address.sol\":726:1139  function isContract(address account) internal view returns (bool) {... */\n      swap2\n      swap1\n      pop\n      jump\t// out\n        /* \"node_modules/@openzeppelin/contracts/utils/Address.sol\":7091:7816  function _verifyCallResult(bool success, bytes memory returndata, string memory errorMessage) private pure returns(bytes memory) {... */\n    tag_228:\n        /* \"node_modules/@openzeppelin/contracts/utils/Address.sol\":7206:7218  bytes memory */\n      0x60\n        /* \"node_modules/@openzeppelin/contracts/utils/Address.sol\":7234:7241  success */\n      dup4\n        /* \"node_modules/@openzeppelin/contracts/utils/Address.sol\":7230:7810  if (success) {... */\n      iszero\n      tag_231\n      jumpi\n        /* \"node_modules/@openzeppelin/contracts/utils/Address.sol\":7264:7274  returndata */\n      dup3\n        /* \"node_modules/@openzeppelin/contracts/utils/Address.sol\":7257:7274  return returndata */\n      swap1\n      pop\n      jump(tag_230)\n        /* \"node_modules/@openzeppelin/contracts/utils/Address.sol\":7230:7810  if (success) {... */\n    tag_231:\n        /* \"node_modules/@openzeppelin/contracts/utils/Address.sol\":7395:7396  0 */\n      0x00\n        /* \"node_modules/@openzeppelin/contracts/utils/Address.sol\":7375:7385  returndata */\n      dup4\n        /* \"node_modules/@openzeppelin/contracts/utils/Address.sol\":7375:7392  returndata.length */\n      mload\n        /* \"node_modules/@openzeppelin/contracts/utils/Address.sol\":7375:7396  returndata.length > 0 */\n      gt\n        /* \"node_modules/@openzeppelin/contracts/utils/Address.sol\":7371:7800  if (returndata.length > 0) {... */\n      iszero\n      tag_233\n      jumpi\n        /* \"node_modules/@openzeppelin/contracts/utils/Address.sol\":7633:7643  returndata */\n      dup3\n        /* \"node_modules/@openzeppelin/contracts/utils/Address.sol\":7627:7644  mload(returndata) */\n      mload\n        /* \"node_modules/@openzeppelin/contracts/utils/Address.sol\":7693:7708  returndata_size */\n      dup1\n        /* \"node_modules/@openzeppelin/contracts/utils/Address.sol\":7680:7690  returndata */\n      dup5\n        /* \"node_modules/@openzeppelin/contracts/utils/Address.sol\":7676:7678  32 */\n      0x20\n        /* \"node_modules/@openzeppelin/contracts/utils/Address.sol\":7672:7691  add(32, returndata) */\n      add\n        /* \"node_modules/@openzeppelin/contracts/utils/Address.sol\":7665:7709  revert(add(32, returndata), returndata_size) */\n      revert\n        /* \"node_modules/@openzeppelin/contracts/utils/Address.sol\":7582:7727  {... */\n    tag_233:\n        /* \"node_modules/@openzeppelin/contracts/utils/Address.sol\":7772:7784  errorMessage */\n      dup2\n        /* \"node_modules/@openzeppelin/contracts/utils/Address.sol\":7765:7785  revert(errorMessage) */\n      mload(0x40)\n      0x08c379a000000000000000000000000000000000000000000000000000000000\n      dup2\n      mstore\n      0x04\n      add\n      dup1\n      dup1\n      0x20\n      add\n      dup3\n      dup2\n      sub\n      dup3\n      mstore\n      dup4\n      dup2\n      dup2\n      mload\n      dup2\n      mstore\n      0x20\n      add\n      swap2\n      pop\n      dup1\n      mload\n      swap1\n      0x20\n      add\n      swap1\n      dup1\n      dup4\n      dup4\n      0x00\n    tag_235:\n      dup4\n      dup2\n      lt\n      iszero\n      tag_237\n      jumpi\n      dup1\n      dup3\n      add\n      mload\n      dup2\n      dup5\n      add\n      mstore\n      0x20\n      dup2\n      add\n      swap1\n      pop\n      jump(tag_235)\n    tag_237:\n      pop\n      pop\n      pop\n      pop\n      swap1\n      pop\n      swap1\n      dup2\n      add\n      swap1\n      0x1f\n      and\n      dup1\n      iszero\n      tag_238\n      jumpi\n      dup1\n      dup3\n      sub\n      dup1\n      mload\n      0x01\n      dup4\n      0x20\n      sub\n      0x0100\n      exp\n      sub\n      not\n      and\n      dup2\n      mstore\n      0x20\n      add\n      swap2\n      pop\n    tag_238:\n      pop\n      swap3\n      pop\n      pop\n      pop\n      mload(0x40)\n      dup1\n      swap2\n      sub\n      swap1\n      revert\n        /* \"node_modules/@openzeppelin/contracts/utils/Address.sol\":7091:7816  function _verifyCallResult(bool success, bytes memory returndata, string memory errorMessage) private pure returns(bytes memory) {... */\n    tag_230:\n      swap4\n      swap3\n      pop\n      pop\n      pop\n      jump\t// out\n    stop\n    data_045d6834e6193a687012a3ad777f612279e549b6945364d9d2324f48610d3cbb 456e756d657261626c655365743a20696e646578206f7574206f6620626f756e6473\n    data_0ba7116025f1ef6b158a2bd2238e617f30e17c9e456917d901086ca4f8ad2811 416363657373436f6e74726f6c3a2073656e646572206d75737420626520616e2061646d696e20746f206772616e74\n    data_565f1a77334fc4792800921178c71e4521acffab18ff9e7885b49377ee80ab4c 416464726573733a20696e73756666696369656e742062616c616e636520666f722063616c6c\n    data_64344570eab7406ca49d34d38bf2b2496dfda914405390c5057c8b0aabf798a3 416363657373436f6e74726f6c3a2073656e646572206d75737420626520616e2061646d696e20746f207265766f6b65\n    data_e11ad79d1e4a7f2e5f376964cb99e8e8f7904e3fc16a109f7a7ecb9aa7956dcd 5361666545524332303a204552433230206f7065726174696f6e20646964206e6f742073756363656564\n    data_fb06fa8ff2141e8ed74502f6792273793f25f0e9d3cf15344f3f5a0d4948fd4b 416363657373436f6e74726f6c3a2063616e206f6e6c792072656e6f756e636520726f6c657320666f722073656c66\n\n    auxdata: 0xa26469706673582212206405fe33dece58dd6681585d6cf22aff25c90da69bf184dc24424ebd1eebf64b64736f6c634300060c0033\n}\n",
				"bytecode": {
					"linkReferences": {},
					"object": "60c06040523480156200001157600080fd5b5060405162001dee38038062001dee833981810160405260808110156200003757600080fd5b8101908080519060200190929190805190602001909291908051906020019092919080519060200190929190505050838360008060006101000a81548160ff0219169083151502179055508173ffffffffffffffffffffffffffffffffffffffff1660a08173ffffffffffffffffffffffffffffffffffffffff1660601b815250508073ffffffffffffffffffffffffffffffffffffffff1660808173ffffffffffffffffffffffffffffffffffffffff1660601b8152505050508160038190555080600481905550620001156000801b336200011f60201b60201c565b50505050620002b6565b6200013182826200013560201b60201c565b5050565b620001648160016000858152602001908152602001600020600001620001d960201b62000c9c1790919060201c565b15620001d5576200017a6200021160201b60201c565b73ffffffffffffffffffffffffffffffffffffffff168173ffffffffffffffffffffffffffffffffffffffff16837f2f8788117e7eff1d82e926ec794901d17c78024a50270940304540a733656f0d60405160405180910390a45b5050565b600062000209836000018373ffffffffffffffffffffffffffffffffffffffff1660001b6200021960201b60201c565b905092915050565b600033905090565b60006200022d83836200029360201b60201c565b620002885782600001829080600181540180825580915050600190039060005260206000200160009091909190915055826000018054905083600101600084815260200190815260200160002081905550600190506200028d565b600090505b92915050565b600080836001016000848152602001908152602001600020541415905092915050565b60805160601c60a05160601c611aff620002ef60003980610b1752806110b352508061075f528061094b52806110775250611aff6000f3fe608060405234801561001057600080fd5b50600436106101005760003560e01c80638456cb591161009757806394985ddd1161006657806394985ddd1461038b578063a217fddf146103c3578063ca15c873146103e1578063d547741f1461042357610100565b80638456cb59146102b15780638678a7b2146102bb5780639010d07c146102c557806391d148541461032757610100565b80633f4ba83a116100d35780633f4ba83a1461023b5780635c975abb14610245578063790273dd146102655780637a8042bd1461028357610100565b8063248a9ca3146101055780632f2ff15d1461014757806336568abe146101955780633883d854146101e3575b600080fd5b6101316004803603602081101561011b57600080fd5b8101908080359060200190929190505050610471565b6040518082815260200191505060405180910390f35b6101936004803603604081101561015d57600080fd5b8101908080359060200190929190803573ffffffffffffffffffffffffffffffffffffffff169060200190929190505050610491565b005b6101e1600480360360408110156101ab57600080fd5b8101908080359060200190929190803573ffffffffffffffffffffffffffffffffffffffff16906020019092919050505061051b565b005b610225600480360360208110156101f957600080fd5b81019080803573ffffffffffffffffffffffffffffffffffffffff1690602001909291905050506105b4565b6040518082815260200191505060405180910390f35b610243610616565b005b61024d61069f565b60405180821515815260200191505060405180910390f35b61026d6106b5565b6040518082815260200191505060405180910390f35b6102af6004803603602081101561029957600080fd5b81019080803590602001909291905050506106d9565b005b6102b96107a6565b005b6102c361082f565b005b6102fb600480360360408110156102db57600080fd5b810190808035906020019092919080359060200190929190505050610ab1565b604051808273ffffffffffffffffffffffffffffffffffffffff16815260200191505060405180910390f35b6103736004803603604081101561033d57600080fd5b8101908080359060200190929190803573ffffffffffffffffffffffffffffffffffffffff169060200190929190505050610ae3565b60405180821515815260200191505060405180910390f35b6103c1600480360360408110156103a157600080fd5b810190808035906020019092919080359060200190929190505050610b15565b005b6103cb610be4565b6040518082815260200191505060405180910390f35b61040d600480360360208110156103f757600080fd5b8101908080359060200190929190505050610beb565b6040518082815260200191505060405180910390f35b61046f6004803603604081101561043957600080fd5b8101908080359060200190929190803573ffffffffffffffffffffffffffffffffffffffff169060200190929190505050610c12565b005b600060016000838152602001908152602001600020600201549050919050565b6104b860016000848152602001908152602001600020600201546104b3610ccc565b610ae3565b61050d576040517f08c379a000000000000000000000000000000000000000000000000000000000815260040180806020018281038252602f8152602001806119ec602f913960400191505060405180910390fd5b6105178282610cd4565b5050565b610523610ccc565b73ffffffffffffffffffffffffffffffffffffffff168173ffffffffffffffffffffffffffffffffffffffff16146105a6576040517f08c379a000000000000000000000000000000000000000000000000000000000815260040180806020018281038252602f815260200180611a9b602f913960400191505060405180910390fd5b6105b08282610d68565b5050565b6000816005546001430340604051602001808473ffffffffffffffffffffffffffffffffffffffff1660601b815260140183815260200182815260200193505050506040516020818303038152906040528051906020012060001c9050919050565b6106236000801b33610ae3565b610695576040517f08c379a00000000000000000000000000000000000000000000000000000000081526004018080602001828103825260098152602001807f4e6f742061646d696e000000000000000000000000000000000000000000000081525060200191505060405180910390fd5b61069d610dfc565b565b60008060009054906101000a900460ff16905090565b7fb833753adf767f5ea59ffa8fe88b66c1fdff464a3d915ca68d34535a159ecfa081565b6106e66000801b33610ae3565b610758576040517f08c379a00000000000000000000000000000000000000000000000000000000081526004018080602001828103825260098152602001807f4e6f742061646d696e000000000000000000000000000000000000000000000081525060200191505060405180910390fd5b6107a333827f000000000000000000000000000000000000000000000000000000000000000073ffffffffffffffffffffffffffffffffffffffff16610ee69092919063ffffffff16565b50565b6107b36000801b33610ae3565b610825576040517f08c379a00000000000000000000000000000000000000000000000000000000081526004018080602001828103825260098152602001807f4e6f742061646d696e000000000000000000000000000000000000000000000081525060200191505060405180910390fd5b61082d610f88565b565b61083761069f565b156108aa576040517f08c379a00000000000000000000000000000000000000000000000000000000081526004018080602001828103825260108152602001807f5061757361626c653a207061757365640000000000000000000000000000000081525060200191505060405180910390fd5b6108d47fb833753adf767f5ea59ffa8fe88b66c1fdff464a3d915ca68d34535a159ecfa033610ae3565b610946576040517f08c379a000000000000000000000000000000000000000000000000000000000815260040180806020018281038252601a8152602001807f53656e6465722063616e6e6f742072657175657374207365656400000000000081525060200191505060405180910390fd5b6004547f000000000000000000000000000000000000000000000000000000000000000073ffffffffffffffffffffffffffffffffffffffff166370a08231306040518263ffffffff1660e01b8152600401808273ffffffffffffffffffffffffffffffffffffffff16815260200191505060206040518083038186803b1580156109d057600080fd5b505afa1580156109e4573d6000803e3d6000fd5b505050506040513d60208110156109fa57600080fd5b81019080805190602001909291905050501015610a7f576040517f08c379a000000000000000000000000000000000000000000000000000000000815260040180806020018281038252600f8152602001807f4e6f7420656e6f756768204c494e4b000000000000000000000000000000000081525060200191505060405180910390fd5b610aae6003547fcfb082b8962ec709cffb27055d8a31d70d842951be20f80c34853c0659eddd9160001c611073565b50565b6000610adb826001600086815260200190815260200160002060000161126c90919063ffffffff16565b905092915050565b6000610b0d826001600086815260200190815260200160002060000161128690919063ffffffff16565b905092915050565b7f000000000000000000000000000000000000000000000000000000000000000073ffffffffffffffffffffffffffffffffffffffff163373ffffffffffffffffffffffffffffffffffffffff1614610bd6576040517f08c379a000000000000000000000000000000000000000000000000000000000815260040180806020018281038252601f8152602001807f4f6e6c7920565246436f6f7264696e61746f722063616e2066756c66696c6c0081525060200191505060405180910390fd5b610be082826112b6565b5050565b6000801b81565b6000610c0b600160008481526020019081526020016000206000016112c1565b9050919050565b610c396001600084815260200190815260200160002060020154610c34610ccc565b610ae3565b610c8e576040517f08c379a0000000000000000000000000000000000000000000000000000000008152600401808060200182810382526030815260200180611a416030913960400191505060405180910390fd5b610c988282610d68565b5050565b6000610cc4836000018373ffffffffffffffffffffffffffffffffffffffff1660001b6112d6565b905092915050565b600033905090565b610cfc8160016000858152602001908152602001600020600001610c9c90919063ffffffff16565b15610d6457610d09610ccc565b73ffffffffffffffffffffffffffffffffffffffff168173ffffffffffffffffffffffffffffffffffffffff16837f2f8788117e7eff1d82e926ec794901d17c78024a50270940304540a733656f0d60405160405180910390a45b5050565b610d90816001600085815260200190815260200160002060000161134690919063ffffffff16565b15610df857610d9d610ccc565b73ffffffffffffffffffffffffffffffffffffffff168173ffffffffffffffffffffffffffffffffffffffff16837ff6391f5c32d9c69d2a47ea670b442974b53935d1edc7fd64eb21e047a839171b60405160405180910390a45b5050565b610e0461069f565b610e76576040517f08c379a00000000000000000000000000000000000000000000000000000000081526004018080602001828103825260148152602001807f5061757361626c653a206e6f742070617573656400000000000000000000000081525060200191505060405180910390fd5b60008060006101000a81548160ff0219169083151502179055507f5db9ee0a495bf2e6ff9c91a7834c1ba4fdd244a5e8aa4e537bd38aeae4b073aa610eb9610ccc565b604051808273ffffffffffffffffffffffffffffffffffffffff16815260200191505060405180910390a1565b610f838363a9059cbb60e01b8484604051602401808373ffffffffffffffffffffffffffffffffffffffff16815260200182815260200192505050604051602081830303815290604052907bffffffffffffffffffffffffffffffffffffffffffffffffffffffff19166020820180517bffffffffffffffffffffffffffffffffffffffffffffffffffffffff8381831617835250505050611376565b505050565b610f9061069f565b15611003576040517f08c379a00000000000000000000000000000000000000000000000000000000081526004018080602001828103825260108152602001807f5061757361626c653a207061757365640000000000000000000000000000000081525060200191505060405180910390fd5b60016000806101000a81548160ff0219169083151502179055507f62e78cea01bee320cd4e420270b5ea74000d11b0c9f74754ebdbfc544b05a258611046610ccc565b604051808273ffffffffffffffffffffffffffffffffffffffff16815260200191505060405180910390a1565b60007f000000000000000000000000000000000000000000000000000000000000000073ffffffffffffffffffffffffffffffffffffffff16634000aea07f00000000000000000000000000000000000000000000000000000000000000008486600060405160200180838152602001828152602001925050506040516020818303038152906040526040518463ffffffff1660e01b8152600401808473ffffffffffffffffffffffffffffffffffffffff16815260200183815260200180602001828103825283818151815260200191508051906020019080838360005b8381101561116d578082015181840152602081019050611152565b50505050905090810190601f16801561119a5780820380516001836020036101000a031916815260200191505b50945050505050602060405180830381600087803b1580156111bb57600080fd5b505af11580156111cf573d6000803e3d6000fd5b505050506040513d60208110156111e557600080fd5b8101908080519060200190929190505050506000611219846000306002600089815260200190815260200160002054611465565b9050611242600160026000878152602001908152602001600020546114c990919063ffffffff16565b60026000868152602001908152602001600020819055506112638482611551565b91505092915050565b600061127b836000018361158a565b60001c905092915050565b60006112ae836000018373ffffffffffffffffffffffffffffffffffffffff1660001b61160d565b905092915050565b806005819055505050565b60006112cf82600001611630565b9050919050565b60006112e2838361160d565b61133b578260000182908060018154018082558091505060019003906000526020600020016000909190919091505582600001805490508360010160008481526020019081526020016000208190555060019050611340565b600090505b92915050565b600061136e836000018373ffffffffffffffffffffffffffffffffffffffff1660001b611641565b905092915050565b60606113d8826040518060400160405280602081526020017f5361666545524332303a206c6f772d6c6576656c2063616c6c206661696c65648152508573ffffffffffffffffffffffffffffffffffffffff166117299092919063ffffffff16565b9050600081511115611460578080602001905160208110156113f957600080fd5b810190808051906020019092919050505061145f576040517f08c379a000000000000000000000000000000000000000000000000000000000815260040180806020018281038252602a815260200180611a71602a913960400191505060405180910390fd5b5b505050565b600084848484604051602001808581526020018481526020018373ffffffffffffffffffffffffffffffffffffffff1681526020018281526020019450505050506040516020818303038152906040528051906020012060001c9050949350505050565b600080828401905083811015611547576040517f08c379a000000000000000000000000000000000000000000000000000000000815260040180806020018281038252601b8152602001807f536166654d6174683a206164646974696f6e206f766572666c6f77000000000081525060200191505060405180910390fd5b8091505092915050565b60008282604051602001808381526020018281526020019250505060405160208183030381529060405280519060200120905092915050565b6000818360000180549050116115eb576040517f08c379a00000000000000000000000000000000000000000000000000000000081526004018080602001828103825260228152602001806119ca6022913960400191505060405180910390fd5b8260000182815481106115fa57fe5b9060005260206000200154905092915050565b600080836001016000848152602001908152602001600020541415905092915050565b600081600001805490509050919050565b6000808360010160008481526020019081526020016000205490506000811461171d576000600182039050600060018660000180549050039050600086600001828154811061168c57fe5b90600052602060002001549050808760000184815481106116a957fe5b90600052602060002001819055506001830187600101600083815260200190815260200160002081905550866000018054806116e157fe5b60019003818190600052602060002001600090559055866001016000878152602001908152602001600020600090556001945050505050611723565b60009150505b92915050565b60606117388484600085611741565b90509392505050565b60608247101561179c576040517f08c379a0000000000000000000000000000000000000000000000000000000008152600401808060200182810382526026815260200180611a1b6026913960400191505060405180910390fd5b6117a5856118ea565b611817576040517f08c379a000000000000000000000000000000000000000000000000000000000815260040180806020018281038252601d8152602001807f416464726573733a2063616c6c20746f206e6f6e2d636f6e747261637400000081525060200191505060405180910390fd5b600060608673ffffffffffffffffffffffffffffffffffffffff1685876040518082805190602001908083835b602083106118675780518252602082019150602081019050602083039250611844565b6001836020036101000a03801982511681845116808217855250505050505090500191505060006040518083038185875af1925050503d80600081146118c9576040519150601f19603f3d011682016040523d82523d6000602084013e6118ce565b606091505b50915091506118de8282866118fd565b92505050949350505050565b600080823b905060008111915050919050565b6060831561190d578290506119c2565b6000835111156119205782518084602001fd5b816040517f08c379a00000000000000000000000000000000000000000000000000000000081526004018080602001828103825283818151815260200191508051906020019080838360005b8381101561198757808201518184015260208101905061196c565b50505050905090810190601f1680156119b45780820380516001836020036101000a031916815260200191505b509250505060405180910390fd5b939250505056fe456e756d657261626c655365743a20696e646578206f7574206f6620626f756e6473416363657373436f6e74726f6c3a2073656e646572206d75737420626520616e2061646d696e20746f206772616e74416464726573733a20696e73756666696369656e742062616c616e636520666f722063616c6c416363657373436f6e74726f6c3a2073656e646572206d75737420626520616e2061646d696e20746f207265766f6b655361666545524332303a204552433230206f7065726174696f6e20646964206e6f742073756363656564416363657373436f6e74726f6c3a2063616e206f6e6c792072656e6f756e636520726f6c657320666f722073656c66a26469706673582212206405fe33dece58dd6681585d6cf22aff25c90da69bf184dc24424ebd1eebf64b64736f6c634300060c0033",
					"opcodes": "PUSH1 0xC0 PUSH1 0x40 MSTORE CALLVALUE DUP1 ISZERO PUSH3 0x11 JUMPI PUSH1 0x0 DUP1 REVERT JUMPDEST POP PUSH1 0x40 MLOAD PUSH3 0x1DEE CODESIZE SUB DUP1 PUSH3 0x1DEE DUP4 CODECOPY DUP2 DUP2 ADD PUSH1 0x40 MSTORE PUSH1 0x80 DUP2 LT ISZERO PUSH3 0x37 JUMPI PUSH1 0x0 DUP1 REVERT JUMPDEST DUP2 ADD SWAP1 DUP1 DUP1 MLOAD SWAP1 PUSH1 0x20 ADD SWAP1 SWAP3 SWAP2 SWAP1 DUP1 MLOAD SWAP1 PUSH1 0x20 ADD SWAP1 SWAP3 SWAP2 SWAP1 DUP1 MLOAD SWAP1 PUSH1 0x20 ADD SWAP1 SWAP3 SWAP2 SWAP1 DUP1 MLOAD SWAP1 PUSH1 0x20 ADD SWAP1 SWAP3 SWAP2 SWAP1 POP POP POP DUP4 DUP4 PUSH1 0x0 DUP1 PUSH1 0x0 PUSH2 0x100 EXP DUP2 SLOAD DUP2 PUSH1 0xFF MUL NOT AND SWAP1 DUP4 ISZERO ISZERO MUL OR SWAP1 SSTORE POP DUP2 PUSH20 0xFFFFFFFFFFFFFFFFFFFFFFFFFFFFFFFFFFFFFFFF AND PUSH1 0xA0 DUP2 PUSH20 0xFFFFFFFFFFFFFFFFFFFFFFFFFFFFFFFFFFFFFFFF AND PUSH1 0x60 SHL DUP2 MSTORE POP POP DUP1 PUSH20 0xFFFFFFFFFFFFFFFFFFFFFFFFFFFFFFFFFFFFFFFF AND PUSH1 0x80 DUP2 PUSH20 0xFFFFFFFFFFFFFFFFFFFFFFFFFFFFFFFFFFFFFFFF AND PUSH1 0x60 SHL DUP2 MSTORE POP POP POP POP DUP2 PUSH1 0x3 DUP2 SWAP1 SSTORE POP DUP1 PUSH1 0x4 DUP2 SWAP1 SSTORE POP PUSH3 0x115 PUSH1 0x0 DUP1 SHL CALLER PUSH3 0x11F PUSH1 0x20 SHL PUSH1 0x20 SHR JUMP JUMPDEST POP POP POP POP PUSH3 0x2B6 JUMP JUMPDEST PUSH3 0x131 DUP3 DUP3 PUSH3 0x135 PUSH1 0x20 SHL PUSH1 0x20 SHR JUMP JUMPDEST POP POP JUMP JUMPDEST PUSH3 0x164 DUP2 PUSH1 0x1 PUSH1 0x0 DUP6 DUP2 MSTORE PUSH1 0x20 ADD SWAP1 DUP2 MSTORE PUSH1 0x20 ADD PUSH1 0x0 KECCAK256 PUSH1 0x0 ADD PUSH3 0x1D9 PUSH1 0x20 SHL PUSH3 0xC9C OR SWAP1 SWAP2 SWAP1 PUSH1 0x20 SHR JUMP JUMPDEST ISZERO PUSH3 0x1D5 JUMPI PUSH3 0x17A PUSH3 0x211 PUSH1 0x20 SHL PUSH1 0x20 SHR JUMP JUMPDEST PUSH20 0xFFFFFFFFFFFFFFFFFFFFFFFFFFFFFFFFFFFFFFFF AND DUP2 PUSH20 0xFFFFFFFFFFFFFFFFFFFFFFFFFFFFFFFFFFFFFFFF AND DUP4 PUSH32 0x2F8788117E7EFF1D82E926EC794901D17C78024A50270940304540A733656F0D PUSH1 0x40 MLOAD PUSH1 0x40 MLOAD DUP1 SWAP2 SUB SWAP1 LOG4 JUMPDEST POP POP JUMP JUMPDEST PUSH1 0x0 PUSH3 0x209 DUP4 PUSH1 0x0 ADD DUP4 PUSH20 0xFFFFFFFFFFFFFFFFFFFFFFFFFFFFFFFFFFFFFFFF AND PUSH1 0x0 SHL PUSH3 0x219 PUSH1 0x20 SHL PUSH1 0x20 SHR JUMP JUMPDEST SWAP1 POP SWAP3 SWAP2 POP POP JUMP JUMPDEST PUSH1 0x0 CALLER SWAP1 POP SWAP1 JUMP JUMPDEST PUSH1 0x0 PUSH3 0x22D DUP4 DUP4 PUSH3 0x293 PUSH1 0x20 SHL PUSH1 0x20 SHR JUMP JUMPDEST PUSH3 0x288 JUMPI DUP3 PUSH1 0x0 ADD DUP3 SWAP1 DUP1 PUSH1 0x1 DUP2 SLOAD ADD DUP1 DUP3 SSTORE DUP1 SWAP2 POP POP PUSH1 0x1 SWAP1 SUB SWAP1 PUSH1 0x0 MSTORE PUSH1 0x20 PUSH1 0x0 KECCAK256 ADD PUSH1 0x0 SWAP1 SWAP2 SWAP1 SWAP2 SWAP1 SWAP2 POP SSTORE DUP3 PUSH1 0x0 ADD DUP1 SLOAD SWAP1 POP DUP4 PUSH1 0x1 ADD PUSH1 0x0 DUP5 DUP2 MSTORE PUSH1 0x20 ADD SWAP1 DUP2 MSTORE PUSH1 0x20 ADD PUSH1 0x0 KECCAK256 DUP2 SWAP1 SSTORE POP PUSH1 0x1 SWAP1 POP PUSH3 0x28D JUMP JUMPDEST PUSH1 0x0 SWAP1 POP JUMPDEST SWAP3 SWAP2 POP POP JUMP JUMPDEST PUSH1 0x0 DUP1 DUP4 PUSH1 0x1 ADD PUSH1 0x0 DUP5 DUP2 MSTORE PUSH1 0x20 ADD SWAP1 DUP2 MSTORE PUSH1 0x20 ADD PUSH1 0x0 KECCAK256 SLOAD EQ ISZERO SWAP1 POP SWAP3 SWAP2 POP POP JUMP JUMPDEST PUSH1 0x80 MLOAD PUSH1 0x60 SHR PUSH1 0xA0 MLOAD PUSH1 0x60 SHR PUSH2 0x1AFF PUSH3 0x2EF PUSH1 0x0 CODECOPY DUP1 PUSH2 0xB17 MSTORE DUP1 PUSH2 0x10B3 MSTORE POP DUP1 PUSH2 0x75F MSTORE DUP1 PUSH2 0x94B MSTORE DUP1 PUSH2 0x1077 MSTORE POP PUSH2 0x1AFF PUSH1 0x0 RETURN INVALID PUSH1 0x80 PUSH1 0x40 MSTORE CALLVALUE DUP1 ISZERO PUSH2 0x10 JUMPI PUSH1 0x0 DUP1 REVERT JUMPDEST POP PUSH1 0x4 CALLDATASIZE LT PUSH2 0x100 JUMPI PUSH1 0x0 CALLDATALOAD PUSH1 0xE0 SHR DUP1 PUSH4 0x8456CB59 GT PUSH2 0x97 JUMPI DUP1 PUSH4 0x94985DDD GT PUSH2 0x66 JUMPI DUP1 PUSH4 0x94985DDD EQ PUSH2 0x38B JUMPI DUP1 PUSH4 0xA217FDDF EQ PUSH2 0x3C3 JUMPI DUP1 PUSH4 0xCA15C873 EQ PUSH2 0x3E1 JUMPI DUP1 PUSH4 0xD547741F EQ PUSH2 0x423 JUMPI PUSH2 0x100 JUMP JUMPDEST DUP1 PUSH4 0x8456CB59 EQ PUSH2 0x2B1 JUMPI DUP1 PUSH4 0x8678A7B2 EQ PUSH2 0x2BB JUMPI DUP1 PUSH4 0x9010D07C EQ PUSH2 0x2C5 JUMPI DUP1 PUSH4 0x91D14854 EQ PUSH2 0x327 JUMPI PUSH2 0x100 JUMP JUMPDEST DUP1 PUSH4 0x3F4BA83A GT PUSH2 0xD3 JUMPI DUP1 PUSH4 0x3F4BA83A EQ PUSH2 0x23B JUMPI DUP1 PUSH4 0x5C975ABB EQ PUSH2 0x245 JUMPI DUP1 PUSH4 0x790273DD EQ PUSH2 0x265 JUMPI DUP1 PUSH4 0x7A8042BD EQ PUSH2 0x283 JUMPI PUSH2 0x100 JUMP JUMPDEST DUP1 PUSH4 0x248A9CA3 EQ PUSH2 0x105 JUMPI DUP1 PUSH4 0x2F2FF15D EQ PUSH2 0x147 JUMPI DUP1 PUSH4 0x36568ABE EQ PUSH2 0x195 JUMPI DUP1 PUSH4 0x3883D854 EQ PUSH2 0x1E3 JUMPI JUMPDEST PUSH1 0x0 DUP1 REVERT JUMPDEST PUSH2 0x131 PUSH1 0x4 DUP1 CALLDATASIZE SUB PUSH1 0x20 DUP2 LT ISZERO PUSH2 0x11B JUMPI PUSH1 0x0 DUP1 REVERT JUMPDEST DUP2 ADD SWAP1 DUP1 DUP1 CALLDATALOAD SWAP1 PUSH1 0x20 ADD SWAP1 SWAP3 SWAP2 SWAP1 POP POP POP PUSH2 0x471 JUMP JUMPDEST PUSH1 0x40 MLOAD DUP1 DUP3 DUP2 MSTORE PUSH1 0x20 ADD SWAP2 POP POP PUSH1 0x40 MLOAD DUP1 SWAP2 SUB SWAP1 RETURN JUMPDEST PUSH2 0x193 PUSH1 0x4 DUP1 CALLDATASIZE SUB PUSH1 0x40 DUP2 LT ISZERO PUSH2 0x15D JUMPI PUSH1 0x0 DUP1 REVERT JUMPDEST DUP2 ADD SWAP1 DUP1 DUP1 CALLDATALOAD SWAP1 PUSH1 0x20 ADD SWAP1 SWAP3 SWAP2 SWAP1 DUP1 CALLDATALOAD PUSH20 0xFFFFFFFFFFFFFFFFFFFFFFFFFFFFFFFFFFFFFFFF AND SWAP1 PUSH1 0x20 ADD SWAP1 SWAP3 SWAP2 SWAP1 POP POP POP PUSH2 0x491 JUMP JUMPDEST STOP JUMPDEST PUSH2 0x1E1 PUSH1 0x4 DUP1 CALLDATASIZE SUB PUSH1 0x40 DUP2 LT ISZERO PUSH2 0x1AB JUMPI PUSH1 0x0 DUP1 REVERT JUMPDEST DUP2 ADD SWAP1 DUP1 DUP1 CALLDATALOAD SWAP1 PUSH1 0x20 ADD SWAP1 SWAP3 SWAP2 SWAP1 DUP1 CALLDATALOAD PUSH20 0xFFFFFFFFFFFFFFFFFFFFFFFFFFFFFFFFFFFFFFFF AND SWAP1 PUSH1 0x20 ADD SWAP1 SWAP3 SWAP2 SWAP1 POP POP POP PUSH2 0x51B JUMP JUMPDEST STOP JUMPDEST PUSH2 0x225 PUSH1 0x4 DUP1 CALLDATASIZE SUB PUSH1 0x20 DUP2 LT ISZERO PUSH2 0x1F9 JUMPI PUSH1 0x0 DUP1 REVERT JUMPDEST DUP2 ADD SWAP1 DUP1 DUP1 CALLDATALOAD PUSH20 0xFFFFFFFFFFFFFFFFFFFFFFFFFFFFFFFFFFFFFFFF AND SWAP1 PUSH1 0x20 ADD SWAP1 SWAP3 SWAP2 SWAP1 POP POP POP PUSH2 0x5B4 JUMP JUMPDEST PUSH1 0x40 MLOAD DUP1 DUP3 DUP2 MSTORE PUSH1 0x20 ADD SWAP2 POP POP PUSH1 0x40 MLOAD DUP1 SWAP2 SUB SWAP1 RETURN JUMPDEST PUSH2 0x243 PUSH2 0x616 JUMP JUMPDEST STOP JUMPDEST PUSH2 0x24D PUSH2 0x69F JUMP JUMPDEST PUSH1 0x40 MLOAD DUP1 DUP3 ISZERO ISZERO DUP2 MSTORE PUSH1 0x20 ADD SWAP2 POP POP PUSH1 0x40 MLOAD DUP1 SWAP2 SUB SWAP1 RETURN JUMPDEST PUSH2 0x26D PUSH2 0x6B5 JUMP JUMPDEST PUSH1 0x40 MLOAD DUP1 DUP3 DUP2 MSTORE PUSH1 0x20 ADD SWAP2 POP POP PUSH1 0x40 MLOAD DUP1 SWAP2 SUB SWAP1 RETURN JUMPDEST PUSH2 0x2AF PUSH1 0x4 DUP1 CALLDATASIZE SUB PUSH1 0x20 DUP2 LT ISZERO PUSH2 0x299 JUMPI PUSH1 0x0 DUP1 REVERT JUMPDEST DUP2 ADD SWAP1 DUP1 DUP1 CALLDATALOAD SWAP1 PUSH1 0x20 ADD SWAP1 SWAP3 SWAP2 SWAP1 POP POP POP PUSH2 0x6D9 JUMP JUMPDEST STOP JUMPDEST PUSH2 0x2B9 PUSH2 0x7A6 JUMP JUMPDEST STOP JUMPDEST PUSH2 0x2C3 PUSH2 0x82F JUMP JUMPDEST STOP JUMPDEST PUSH2 0x2FB PUSH1 0x4 DUP1 CALLDATASIZE SUB PUSH1 0x40 DUP2 LT ISZERO PUSH2 0x2DB JUMPI PUSH1 0x0 DUP1 REVERT JUMPDEST DUP2 ADD SWAP1 DUP1 DUP1 CALLDATALOAD SWAP1 PUSH1 0x20 ADD SWAP1 SWAP3 SWAP2 SWAP1 DUP1 CALLDATALOAD SWAP1 PUSH1 0x20 ADD SWAP1 SWAP3 SWAP2 SWAP1 POP POP POP PUSH2 0xAB1 JUMP JUMPDEST PUSH1 0x40 MLOAD DUP1 DUP3 PUSH20 0xFFFFFFFFFFFFFFFFFFFFFFFFFFFFFFFFFFFFFFFF AND DUP2 MSTORE PUSH1 0x20 ADD SWAP2 POP POP PUSH1 0x40 MLOAD DUP1 SWAP2 SUB SWAP1 RETURN JUMPDEST PUSH2 0x373 PUSH1 0x4 DUP1 CALLDATASIZE SUB PUSH1 0x40 DUP2 LT ISZERO PUSH2 0x33D JUMPI PUSH1 0x0 DUP1 REVERT JUMPDEST DUP2 ADD SWAP1 DUP1 DUP1 CALLDATALOAD SWAP1 PUSH1 0x20 ADD SWAP1 SWAP3 SWAP2 SWAP1 DUP1 CALLDATALOAD PUSH20 0xFFFFFFFFFFFFFFFFFFFFFFFFFFFFFFFFFFFFFFFF AND SWAP1 PUSH1 0x20 ADD SWAP1 SWAP3 SWAP2 SWAP1 POP POP POP PUSH2 0xAE3 JUMP JUMPDEST PUSH1 0x40 MLOAD DUP1 DUP3 ISZERO ISZERO DUP2 MSTORE PUSH1 0x20 ADD SWAP2 POP POP PUSH1 0x40 MLOAD DUP1 SWAP2 SUB SWAP1 RETURN JUMPDEST PUSH2 0x3C1 PUSH1 0x4 DUP1 CALLDATASIZE SUB PUSH1 0x40 DUP2 LT ISZERO PUSH2 0x3A1 JUMPI PUSH1 0x0 DUP1 REVERT JUMPDEST DUP2 ADD SWAP1 DUP1 DUP1 CALLDATALOAD SWAP1 PUSH1 0x20 ADD SWAP1 SWAP3 SWAP2 SWAP1 DUP1 CALLDATALOAD SWAP1 PUSH1 0x20 ADD SWAP1 SWAP3 SWAP2 SWAP1 POP POP POP PUSH2 0xB15 JUMP JUMPDEST STOP JUMPDEST PUSH2 0x3CB PUSH2 0xBE4 JUMP JUMPDEST PUSH1 0x40 MLOAD DUP1 DUP3 DUP2 MSTORE PUSH1 0x20 ADD SWAP2 POP POP PUSH1 0x40 MLOAD DUP1 SWAP2 SUB SWAP1 RETURN JUMPDEST PUSH2 0x40D PUSH1 0x4 DUP1 CALLDATASIZE SUB PUSH1 0x20 DUP2 LT ISZERO PUSH2 0x3F7 JUMPI PUSH1 0x0 DUP1 REVERT JUMPDEST DUP2 ADD SWAP1 DUP1 DUP1 CALLDATALOAD SWAP1 PUSH1 0x20 ADD SWAP1 SWAP3 SWAP2 SWAP1 POP POP POP PUSH2 0xBEB JUMP JUMPDEST PUSH1 0x40 MLOAD DUP1 DUP3 DUP2 MSTORE PUSH1 0x20 ADD SWAP2 POP POP PUSH1 0x40 MLOAD DUP1 SWAP2 SUB SWAP1 RETURN JUMPDEST PUSH2 0x46F PUSH1 0x4 DUP1 CALLDATASIZE SUB PUSH1 0x40 DUP2 LT ISZERO PUSH2 0x439 JUMPI PUSH1 0x0 DUP1 REVERT JUMPDEST DUP2 ADD SWAP1 DUP1 DUP1 CALLDATALOAD SWAP1 PUSH1 0x20 ADD SWAP1 SWAP3 SWAP2 SWAP1 DUP1 CALLDATALOAD PUSH20 0xFFFFFFFFFFFFFFFFFFFFFFFFFFFFFFFFFFFFFFFF AND SWAP1 PUSH1 0x20 ADD SWAP1 SWAP3 SWAP2 SWAP1 POP POP POP PUSH2 0xC12 JUMP JUMPDEST STOP JUMPDEST PUSH1 0x0 PUSH1 0x1 PUSH1 0x0 DUP4 DUP2 MSTORE PUSH1 0x20 ADD SWAP1 DUP2 MSTORE PUSH1 0x20 ADD PUSH1 0x0 KECCAK256 PUSH1 0x2 ADD SLOAD SWAP1 POP SWAP2 SWAP1 POP JUMP JUMPDEST PUSH2 0x4B8 PUSH1 0x1 PUSH1 0x0 DUP5 DUP2 MSTORE PUSH1 0x20 ADD SWAP1 DUP2 MSTORE PUSH1 0x20 ADD PUSH1 0x0 KECCAK256 PUSH1 0x2 ADD SLOAD PUSH2 0x4B3 PUSH2 0xCCC JUMP JUMPDEST PUSH2 0xAE3 JUMP JUMPDEST PUSH2 0x50D JUMPI PUSH1 0x40 MLOAD PUSH32 0x8C379A000000000000000000000000000000000000000000000000000000000 DUP2 MSTORE PUSH1 0x4 ADD DUP1 DUP1 PUSH1 0x20 ADD DUP3 DUP2 SUB DUP3 MSTORE PUSH1 0x2F DUP2 MSTORE PUSH1 0x20 ADD DUP1 PUSH2 0x19EC PUSH1 0x2F SWAP2 CODECOPY PUSH1 0x40 ADD SWAP2 POP POP PUSH1 0x40 MLOAD DUP1 SWAP2 SUB SWAP1 REVERT JUMPDEST PUSH2 0x517 DUP3 DUP3 PUSH2 0xCD4 JUMP JUMPDEST POP POP JUMP JUMPDEST PUSH2 0x523 PUSH2 0xCCC JUMP JUMPDEST PUSH20 0xFFFFFFFFFFFFFFFFFFFFFFFFFFFFFFFFFFFFFFFF AND DUP2 PUSH20 0xFFFFFFFFFFFFFFFFFFFFFFFFFFFFFFFFFFFFFFFF AND EQ PUSH2 0x5A6 JUMPI PUSH1 0x40 MLOAD PUSH32 0x8C379A000000000000000000000000000000000000000000000000000000000 DUP2 MSTORE PUSH1 0x4 ADD DUP1 DUP1 PUSH1 0x20 ADD DUP3 DUP2 SUB DUP3 MSTORE PUSH1 0x2F DUP2 MSTORE PUSH1 0x20 ADD DUP1 PUSH2 0x1A9B PUSH1 0x2F SWAP2 CODECOPY PUSH1 0x40 ADD SWAP2 POP POP PUSH1 0x40 MLOAD DUP1 SWAP2 SUB SWAP1 REVERT JUMPDEST PUSH2 0x5B0 DUP3 DUP3 PUSH2 0xD68 JUMP JUMPDEST POP POP JUMP JUMPDEST PUSH1 0x0 DUP2 PUSH1 0x5 SLOAD PUSH1 0x1 NUMBER SUB BLOCKHASH PUSH1 0x40 MLOAD PUSH1 0x20 ADD DUP1 DUP5 PUSH20 0xFFFFFFFFFFFFFFFFFFFFFFFFFFFFFFFFFFFFFFFF AND PUSH1 0x60 SHL DUP2 MSTORE PUSH1 0x14 ADD DUP4 DUP2 MSTORE PUSH1 0x20 ADD DUP3 DUP2 MSTORE PUSH1 0x20 ADD SWAP4 POP POP POP POP PUSH1 0x40 MLOAD PUSH1 0x20 DUP2 DUP4 SUB SUB DUP2 MSTORE SWAP1 PUSH1 0x40 MSTORE DUP1 MLOAD SWAP1 PUSH1 0x20 ADD KECCAK256 PUSH1 0x0 SHR SWAP1 POP SWAP2 SWAP1 POP JUMP JUMPDEST PUSH2 0x623 PUSH1 0x0 DUP1 SHL CALLER PUSH2 0xAE3 JUMP JUMPDEST PUSH2 0x695 JUMPI PUSH1 0x40 MLOAD PUSH32 0x8C379A000000000000000000000000000000000000000000000000000000000 DUP2 MSTORE PUSH1 0x4 ADD DUP1 DUP1 PUSH1 0x20 ADD DUP3 DUP2 SUB DUP3 MSTORE PUSH1 0x9 DUP2 MSTORE PUSH1 0x20 ADD DUP1 PUSH32 0x4E6F742061646D696E0000000000000000000000000000000000000000000000 DUP2 MSTORE POP PUSH1 0x20 ADD SWAP2 POP POP PUSH1 0x40 MLOAD DUP1 SWAP2 SUB SWAP1 REVERT JUMPDEST PUSH2 0x69D PUSH2 0xDFC JUMP JUMPDEST JUMP JUMPDEST PUSH1 0x0 DUP1 PUSH1 0x0 SWAP1 SLOAD SWAP1 PUSH2 0x100 EXP SWAP1 DIV PUSH1 0xFF AND SWAP1 POP SWAP1 JUMP JUMPDEST PUSH32 0xB833753ADF767F5EA59FFA8FE88B66C1FDFF464A3D915CA68D34535A159ECFA0 DUP2 JUMP JUMPDEST PUSH2 0x6E6 PUSH1 0x0 DUP1 SHL CALLER PUSH2 0xAE3 JUMP JUMPDEST PUSH2 0x758 JUMPI PUSH1 0x40 MLOAD PUSH32 0x8C379A000000000000000000000000000000000000000000000000000000000 DUP2 MSTORE PUSH1 0x4 ADD DUP1 DUP1 PUSH1 0x20 ADD DUP3 DUP2 SUB DUP3 MSTORE PUSH1 0x9 DUP2 MSTORE PUSH1 0x20 ADD DUP1 PUSH32 0x4E6F742061646D696E0000000000000000000000000000000000000000000000 DUP2 MSTORE POP PUSH1 0x20 ADD SWAP2 POP POP PUSH1 0x40 MLOAD DUP1 SWAP2 SUB SWAP1 REVERT JUMPDEST PUSH2 0x7A3 CALLER DUP3 PUSH32 0x0 PUSH20 0xFFFFFFFFFFFFFFFFFFFFFFFFFFFFFFFFFFFFFFFF AND PUSH2 0xEE6 SWAP1 SWAP3 SWAP2 SWAP1 PUSH4 0xFFFFFFFF AND JUMP JUMPDEST POP JUMP JUMPDEST PUSH2 0x7B3 PUSH1 0x0 DUP1 SHL CALLER PUSH2 0xAE3 JUMP JUMPDEST PUSH2 0x825 JUMPI PUSH1 0x40 MLOAD PUSH32 0x8C379A000000000000000000000000000000000000000000000000000000000 DUP2 MSTORE PUSH1 0x4 ADD DUP1 DUP1 PUSH1 0x20 ADD DUP3 DUP2 SUB DUP3 MSTORE PUSH1 0x9 DUP2 MSTORE PUSH1 0x20 ADD DUP1 PUSH32 0x4E6F742061646D696E0000000000000000000000000000000000000000000000 DUP2 MSTORE POP PUSH1 0x20 ADD SWAP2 POP POP PUSH1 0x40 MLOAD DUP1 SWAP2 SUB SWAP1 REVERT JUMPDEST PUSH2 0x82D PUSH2 0xF88 JUMP JUMPDEST JUMP JUMPDEST PUSH2 0x837 PUSH2 0x69F JUMP JUMPDEST ISZERO PUSH2 0x8AA JUMPI PUSH1 0x40 MLOAD PUSH32 0x8C379A000000000000000000000000000000000000000000000000000000000 DUP2 MSTORE PUSH1 0x4 ADD DUP1 DUP1 PUSH1 0x20 ADD DUP3 DUP2 SUB DUP3 MSTORE PUSH1 0x10 DUP2 MSTORE PUSH1 0x20 ADD DUP1 PUSH32 0x5061757361626C653A2070617573656400000000000000000000000000000000 DUP2 MSTORE POP PUSH1 0x20 ADD SWAP2 POP POP PUSH1 0x40 MLOAD DUP1 SWAP2 SUB SWAP1 REVERT JUMPDEST PUSH2 0x8D4 PUSH32 0xB833753ADF767F5EA59FFA8FE88B66C1FDFF464A3D915CA68D34535A159ECFA0 CALLER PUSH2 0xAE3 JUMP JUMPDEST PUSH2 0x946 JUMPI PUSH1 0x40 MLOAD PUSH32 0x8C379A000000000000000000000000000000000000000000000000000000000 DUP2 MSTORE PUSH1 0x4 ADD DUP1 DUP1 PUSH1 0x20 ADD DUP3 DUP2 SUB DUP3 MSTORE PUSH1 0x1A DUP2 MSTORE PUSH1 0x20 ADD DUP1 PUSH32 0x53656E6465722063616E6E6F7420726571756573742073656564000000000000 DUP2 MSTORE POP PUSH1 0x20 ADD SWAP2 POP POP PUSH1 0x40 MLOAD DUP1 SWAP2 SUB SWAP1 REVERT JUMPDEST PUSH1 0x4 SLOAD PUSH32 0x0 PUSH20 0xFFFFFFFFFFFFFFFFFFFFFFFFFFFFFFFFFFFFFFFF AND PUSH4 0x70A08231 ADDRESS PUSH1 0x40 MLOAD DUP3 PUSH4 0xFFFFFFFF AND PUSH1 0xE0 SHL DUP2 MSTORE PUSH1 0x4 ADD DUP1 DUP3 PUSH20 0xFFFFFFFFFFFFFFFFFFFFFFFFFFFFFFFFFFFFFFFF AND DUP2 MSTORE PUSH1 0x20 ADD SWAP2 POP POP PUSH1 0x20 PUSH1 0x40 MLOAD DUP1 DUP4 SUB DUP2 DUP7 DUP1 EXTCODESIZE ISZERO DUP1 ISZERO PUSH2 0x9D0 JUMPI PUSH1 0x0 DUP1 REVERT JUMPDEST POP GAS STATICCALL ISZERO DUP1 ISZERO PUSH2 0x9E4 JUMPI RETURNDATASIZE PUSH1 0x0 DUP1 RETURNDATACOPY RETURNDATASIZE PUSH1 0x0 REVERT JUMPDEST POP POP POP POP PUSH1 0x40 MLOAD RETURNDATASIZE PUSH1 0x20 DUP2 LT ISZERO PUSH2 0x9FA JUMPI PUSH1 0x0 DUP1 REVERT JUMPDEST DUP2 ADD SWAP1 DUP1 DUP1 MLOAD SWAP1 PUSH1 0x20 ADD SWAP1 SWAP3 SWAP2 SWAP1 POP POP POP LT ISZERO PUSH2 0xA7F JUMPI PUSH1 0x40 MLOAD PUSH32 0x8C379A000000000000000000000000000000000000000000000000000000000 DUP2 MSTORE PUSH1 0x4 ADD DUP1 DUP1 PUSH1 0x20 ADD DUP3 DUP2 SUB DUP3 MSTORE PUSH1 0xF DUP2 MSTORE PUSH1 0x20 ADD DUP1 PUSH32 0x4E6F7420656E6F756768204C494E4B0000000000000000000000000000000000 DUP2 MSTORE POP PUSH1 0x20 ADD SWAP2 POP POP PUSH1 0x40 MLOAD DUP1 SWAP2 SUB SWAP1 REVERT JUMPDEST PUSH2 0xAAE PUSH1 0x3 SLOAD PUSH32 0xCFB082B8962EC709CFFB27055D8A31D70D842951BE20F80C34853C0659EDDD91 PUSH1 0x0 SHR PUSH2 0x1073 JUMP JUMPDEST POP JUMP JUMPDEST PUSH1 0x0 PUSH2 0xADB DUP3 PUSH1 0x1 PUSH1 0x0 DUP7 DUP2 MSTORE PUSH1 0x20 ADD SWAP1 DUP2 MSTORE PUSH1 0x20 ADD PUSH1 0x0 KECCAK256 PUSH1 0x0 ADD PUSH2 0x126C SWAP1 SWAP2 SWAP1 PUSH4 0xFFFFFFFF AND JUMP JUMPDEST SWAP1 POP SWAP3 SWAP2 POP POP JUMP JUMPDEST PUSH1 0x0 PUSH2 0xB0D DUP3 PUSH1 0x1 PUSH1 0x0 DUP7 DUP2 MSTORE PUSH1 0x20 ADD SWAP1 DUP2 MSTORE PUSH1 0x20 ADD PUSH1 0x0 KECCAK256 PUSH1 0x0 ADD PUSH2 0x1286 SWAP1 SWAP2 SWAP1 PUSH4 0xFFFFFFFF AND JUMP JUMPDEST SWAP1 POP SWAP3 SWAP2 POP POP JUMP JUMPDEST PUSH32 0x0 PUSH20 0xFFFFFFFFFFFFFFFFFFFFFFFFFFFFFFFFFFFFFFFF AND CALLER PUSH20 0xFFFFFFFFFFFFFFFFFFFFFFFFFFFFFFFFFFFFFFFF AND EQ PUSH2 0xBD6 JUMPI PUSH1 0x40 MLOAD PUSH32 0x8C379A000000000000000000000000000000000000000000000000000000000 DUP2 MSTORE PUSH1 0x4 ADD DUP1 DUP1 PUSH1 0x20 ADD DUP3 DUP2 SUB DUP3 MSTORE PUSH1 0x1F DUP2 MSTORE PUSH1 0x20 ADD DUP1 PUSH32 0x4F6E6C7920565246436F6F7264696E61746F722063616E2066756C66696C6C00 DUP2 MSTORE POP PUSH1 0x20 ADD SWAP2 POP POP PUSH1 0x40 MLOAD DUP1 SWAP2 SUB SWAP1 REVERT JUMPDEST PUSH2 0xBE0 DUP3 DUP3 PUSH2 0x12B6 JUMP JUMPDEST POP POP JUMP JUMPDEST PUSH1 0x0 DUP1 SHL DUP2 JUMP JUMPDEST PUSH1 0x0 PUSH2 0xC0B PUSH1 0x1 PUSH1 0x0 DUP5 DUP2 MSTORE PUSH1 0x20 ADD SWAP1 DUP2 MSTORE PUSH1 0x20 ADD PUSH1 0x0 KECCAK256 PUSH1 0x0 ADD PUSH2 0x12C1 JUMP JUMPDEST SWAP1 POP SWAP2 SWAP1 POP JUMP JUMPDEST PUSH2 0xC39 PUSH1 0x1 PUSH1 0x0 DUP5 DUP2 MSTORE PUSH1 0x20 ADD SWAP1 DUP2 MSTORE PUSH1 0x20 ADD PUSH1 0x0 KECCAK256 PUSH1 0x2 ADD SLOAD PUSH2 0xC34 PUSH2 0xCCC JUMP JUMPDEST PUSH2 0xAE3 JUMP JUMPDEST PUSH2 0xC8E JUMPI PUSH1 0x40 MLOAD PUSH32 0x8C379A000000000000000000000000000000000000000000000000000000000 DUP2 MSTORE PUSH1 0x4 ADD DUP1 DUP1 PUSH1 0x20 ADD DUP3 DUP2 SUB DUP3 MSTORE PUSH1 0x30 DUP2 MSTORE PUSH1 0x20 ADD DUP1 PUSH2 0x1A41 PUSH1 0x30 SWAP2 CODECOPY PUSH1 0x40 ADD SWAP2 POP POP PUSH1 0x40 MLOAD DUP1 SWAP2 SUB SWAP1 REVERT JUMPDEST PUSH2 0xC98 DUP3 DUP3 PUSH2 0xD68 JUMP JUMPDEST POP POP JUMP JUMPDEST PUSH1 0x0 PUSH2 0xCC4 DUP4 PUSH1 0x0 ADD DUP4 PUSH20 0xFFFFFFFFFFFFFFFFFFFFFFFFFFFFFFFFFFFFFFFF AND PUSH1 0x0 SHL PUSH2 0x12D6 JUMP JUMPDEST SWAP1 POP SWAP3 SWAP2 POP POP JUMP JUMPDEST PUSH1 0x0 CALLER SWAP1 POP SWAP1 JUMP JUMPDEST PUSH2 0xCFC DUP2 PUSH1 0x1 PUSH1 0x0 DUP6 DUP2 MSTORE PUSH1 0x20 ADD SWAP1 DUP2 MSTORE PUSH1 0x20 ADD PUSH1 0x0 KECCAK256 PUSH1 0x0 ADD PUSH2 0xC9C SWAP1 SWAP2 SWAP1 PUSH4 0xFFFFFFFF AND JUMP JUMPDEST ISZERO PUSH2 0xD64 JUMPI PUSH2 0xD09 PUSH2 0xCCC JUMP JUMPDEST PUSH20 0xFFFFFFFFFFFFFFFFFFFFFFFFFFFFFFFFFFFFFFFF AND DUP2 PUSH20 0xFFFFFFFFFFFFFFFFFFFFFFFFFFFFFFFFFFFFFFFF AND DUP4 PUSH32 0x2F8788117E7EFF1D82E926EC794901D17C78024A50270940304540A733656F0D PUSH1 0x40 MLOAD PUSH1 0x40 MLOAD DUP1 SWAP2 SUB SWAP1 LOG4 JUMPDEST POP POP JUMP JUMPDEST PUSH2 0xD90 DUP2 PUSH1 0x1 PUSH1 0x0 DUP6 DUP2 MSTORE PUSH1 0x20 ADD SWAP1 DUP2 MSTORE PUSH1 0x20 ADD PUSH1 0x0 KECCAK256 PUSH1 0x0 ADD PUSH2 0x1346 SWAP1 SWAP2 SWAP1 PUSH4 0xFFFFFFFF AND JUMP JUMPDEST ISZERO PUSH2 0xDF8 JUMPI PUSH2 0xD9D PUSH2 0xCCC JUMP JUMPDEST PUSH20 0xFFFFFFFFFFFFFFFFFFFFFFFFFFFFFFFFFFFFFFFF AND DUP2 PUSH20 0xFFFFFFFFFFFFFFFFFFFFFFFFFFFFFFFFFFFFFFFF AND DUP4 PUSH32 0xF6391F5C32D9C69D2A47EA670B442974B53935D1EDC7FD64EB21E047A839171B PUSH1 0x40 MLOAD PUSH1 0x40 MLOAD DUP1 SWAP2 SUB SWAP1 LOG4 JUMPDEST POP POP JUMP JUMPDEST PUSH2 0xE04 PUSH2 0x69F JUMP JUMPDEST PUSH2 0xE76 JUMPI PUSH1 0x40 MLOAD PUSH32 0x8C379A000000000000000000000000000000000000000000000000000000000 DUP2 MSTORE PUSH1 0x4 ADD DUP1 DUP1 PUSH1 0x20 ADD DUP3 DUP2 SUB DUP3 MSTORE PUSH1 0x14 DUP2 MSTORE PUSH1 0x20 ADD DUP1 PUSH32 0x5061757361626C653A206E6F7420706175736564000000000000000000000000 DUP2 MSTORE POP PUSH1 0x20 ADD SWAP2 POP POP PUSH1 0x40 MLOAD DUP1 SWAP2 SUB SWAP1 REVERT JUMPDEST PUSH1 0x0 DUP1 PUSH1 0x0 PUSH2 0x100 EXP DUP2 SLOAD DUP2 PUSH1 0xFF MUL NOT AND SWAP1 DUP4 ISZERO ISZERO MUL OR SWAP1 SSTORE POP PUSH32 0x5DB9EE0A495BF2E6FF9C91A7834C1BA4FDD244A5E8AA4E537BD38AEAE4B073AA PUSH2 0xEB9 PUSH2 0xCCC JUMP JUMPDEST PUSH1 0x40 MLOAD DUP1 DUP3 PUSH20 0xFFFFFFFFFFFFFFFFFFFFFFFFFFFFFFFFFFFFFFFF AND DUP2 MSTORE PUSH1 0x20 ADD SWAP2 POP POP PUSH1 0x40 MLOAD DUP1 SWAP2 SUB SWAP1 LOG1 JUMP JUMPDEST PUSH2 0xF83 DUP4 PUSH4 0xA9059CBB PUSH1 0xE0 SHL DUP5 DUP5 PUSH1 0x40 MLOAD PUSH1 0x24 ADD DUP1 DUP4 PUSH20 0xFFFFFFFFFFFFFFFFFFFFFFFFFFFFFFFFFFFFFFFF AND DUP2 MSTORE PUSH1 0x20 ADD DUP3 DUP2 MSTORE PUSH1 0x20 ADD SWAP3 POP POP POP PUSH1 0x40 MLOAD PUSH1 0x20 DUP2 DUP4 SUB SUB DUP2 MSTORE SWAP1 PUSH1 0x40 MSTORE SWAP1 PUSH28 0xFFFFFFFFFFFFFFFFFFFFFFFFFFFFFFFFFFFFFFFFFFFFFFFFFFFFFFFF NOT AND PUSH1 0x20 DUP3 ADD DUP1 MLOAD PUSH28 0xFFFFFFFFFFFFFFFFFFFFFFFFFFFFFFFFFFFFFFFFFFFFFFFFFFFFFFFF DUP4 DUP2 DUP4 AND OR DUP4 MSTORE POP POP POP POP PUSH2 0x1376 JUMP JUMPDEST POP POP POP JUMP JUMPDEST PUSH2 0xF90 PUSH2 0x69F JUMP JUMPDEST ISZERO PUSH2 0x1003 JUMPI PUSH1 0x40 MLOAD PUSH32 0x8C379A000000000000000000000000000000000000000000000000000000000 DUP2 MSTORE PUSH1 0x4 ADD DUP1 DUP1 PUSH1 0x20 ADD DUP3 DUP2 SUB DUP3 MSTORE PUSH1 0x10 DUP2 MSTORE PUSH1 0x20 ADD DUP1 PUSH32 0x5061757361626C653A2070617573656400000000000000000000000000000000 DUP2 MSTORE POP PUSH1 0x20 ADD SWAP2 POP POP PUSH1 0x40 MLOAD DUP1 SWAP2 SUB SWAP1 REVERT JUMPDEST PUSH1 0x1 PUSH1 0x0 DUP1 PUSH2 0x100 EXP DUP2 SLOAD DUP2 PUSH1 0xFF MUL NOT AND SWAP1 DUP4 ISZERO ISZERO MUL OR SWAP1 SSTORE POP PUSH32 0x62E78CEA01BEE320CD4E420270B5EA74000D11B0C9F74754EBDBFC544B05A258 PUSH2 0x1046 PUSH2 0xCCC JUMP JUMPDEST PUSH1 0x40 MLOAD DUP1 DUP3 PUSH20 0xFFFFFFFFFFFFFFFFFFFFFFFFFFFFFFFFFFFFFFFF AND DUP2 MSTORE PUSH1 0x20 ADD SWAP2 POP POP PUSH1 0x40 MLOAD DUP1 SWAP2 SUB SWAP1 LOG1 JUMP JUMPDEST PUSH1 0x0 PUSH32 0x0 PUSH20 0xFFFFFFFFFFFFFFFFFFFFFFFFFFFFFFFFFFFFFFFF AND PUSH4 0x4000AEA0 PUSH32 0x0 DUP5 DUP7 PUSH1 0x0 PUSH1 0x40 MLOAD PUSH1 0x20 ADD DUP1 DUP4 DUP2 MSTORE PUSH1 0x20 ADD DUP3 DUP2 MSTORE PUSH1 0x20 ADD SWAP3 POP POP POP PUSH1 0x40 MLOAD PUSH1 0x20 DUP2 DUP4 SUB SUB DUP2 MSTORE SWAP1 PUSH1 0x40 MSTORE PUSH1 0x40 MLOAD DUP5 PUSH4 0xFFFFFFFF AND PUSH1 0xE0 SHL DUP2 MSTORE PUSH1 0x4 ADD DUP1 DUP5 PUSH20 0xFFFFFFFFFFFFFFFFFFFFFFFFFFFFFFFFFFFFFFFF AND DUP2 MSTORE PUSH1 0x20 ADD DUP4 DUP2 MSTORE PUSH1 0x20 ADD DUP1 PUSH1 0x20 ADD DUP3 DUP2 SUB DUP3 MSTORE DUP4 DUP2 DUP2 MLOAD DUP2 MSTORE PUSH1 0x20 ADD SWAP2 POP DUP1 MLOAD SWAP1 PUSH1 0x20 ADD SWAP1 DUP1 DUP4 DUP4 PUSH1 0x0 JUMPDEST DUP4 DUP2 LT ISZERO PUSH2 0x116D JUMPI DUP1 DUP3 ADD MLOAD DUP2 DUP5 ADD MSTORE PUSH1 0x20 DUP2 ADD SWAP1 POP PUSH2 0x1152 JUMP JUMPDEST POP POP POP POP SWAP1 POP SWAP1 DUP2 ADD SWAP1 PUSH1 0x1F AND DUP1 ISZERO PUSH2 0x119A JUMPI DUP1 DUP3 SUB DUP1 MLOAD PUSH1 0x1 DUP4 PUSH1 0x20 SUB PUSH2 0x100 EXP SUB NOT AND DUP2 MSTORE PUSH1 0x20 ADD SWAP2 POP JUMPDEST POP SWAP5 POP POP POP POP POP PUSH1 0x20 PUSH1 0x40 MLOAD DUP1 DUP4 SUB DUP2 PUSH1 0x0 DUP8 DUP1 EXTCODESIZE ISZERO DUP1 ISZERO PUSH2 0x11BB JUMPI PUSH1 0x0 DUP1 REVERT JUMPDEST POP GAS CALL ISZERO DUP1 ISZERO PUSH2 0x11CF JUMPI RETURNDATASIZE PUSH1 0x0 DUP1 RETURNDATACOPY RETURNDATASIZE PUSH1 0x0 REVERT JUMPDEST POP POP POP POP PUSH1 0x40 MLOAD RETURNDATASIZE PUSH1 0x20 DUP2 LT ISZERO PUSH2 0x11E5 JUMPI PUSH1 0x0 DUP1 REVERT JUMPDEST DUP2 ADD SWAP1 DUP1 DUP1 MLOAD SWAP1 PUSH1 0x20 ADD SWAP1 SWAP3 SWAP2 SWAP1 POP POP POP POP PUSH1 0x0 PUSH2 0x1219 DUP5 PUSH1 0x0 ADDRESS PUSH1 0x2 PUSH1 0x0 DUP10 DUP2 MSTORE PUSH1 0x20 ADD SWAP1 DUP2 MSTORE PUSH1 0x20 ADD PUSH1 0x0 KECCAK256 SLOAD PUSH2 0x1465 JUMP JUMPDEST SWAP1 POP PUSH2 0x1242 PUSH1 0x1 PUSH1 0x2 PUSH1 0x0 DUP8 DUP2 MSTORE PUSH1 0x20 ADD SWAP1 DUP2 MSTORE PUSH1 0x20 ADD PUSH1 0x0 KECCAK256 SLOAD PUSH2 0x14C9 SWAP1 SWAP2 SWAP1 PUSH4 0xFFFFFFFF AND JUMP JUMPDEST PUSH1 0x2 PUSH1 0x0 DUP7 DUP2 MSTORE PUSH1 0x20 ADD SWAP1 DUP2 MSTORE PUSH1 0x20 ADD PUSH1 0x0 KECCAK256 DUP2 SWAP1 SSTORE POP PUSH2 0x1263 DUP5 DUP3 PUSH2 0x1551 JUMP JUMPDEST SWAP2 POP POP SWAP3 SWAP2 POP POP JUMP JUMPDEST PUSH1 0x0 PUSH2 0x127B DUP4 PUSH1 0x0 ADD DUP4 PUSH2 0x158A JUMP JUMPDEST PUSH1 0x0 SHR SWAP1 POP SWAP3 SWAP2 POP POP JUMP JUMPDEST PUSH1 0x0 PUSH2 0x12AE DUP4 PUSH1 0x0 ADD DUP4 PUSH20 0xFFFFFFFFFFFFFFFFFFFFFFFFFFFFFFFFFFFFFFFF AND PUSH1 0x0 SHL PUSH2 0x160D JUMP JUMPDEST SWAP1 POP SWAP3 SWAP2 POP POP JUMP JUMPDEST DUP1 PUSH1 0x5 DUP2 SWAP1 SSTORE POP POP POP JUMP JUMPDEST PUSH1 0x0 PUSH2 0x12CF DUP3 PUSH1 0x0 ADD PUSH2 0x1630 JUMP JUMPDEST SWAP1 POP SWAP2 SWAP1 POP JUMP JUMPDEST PUSH1 0x0 PUSH2 0x12E2 DUP4 DUP4 PUSH2 0x160D JUMP JUMPDEST PUSH2 0x133B JUMPI DUP3 PUSH1 0x0 ADD DUP3 SWAP1 DUP1 PUSH1 0x1 DUP2 SLOAD ADD DUP1 DUP3 SSTORE DUP1 SWAP2 POP POP PUSH1 0x1 SWAP1 SUB SWAP1 PUSH1 0x0 MSTORE PUSH1 0x20 PUSH1 0x0 KECCAK256 ADD PUSH1 0x0 SWAP1 SWAP2 SWAP1 SWAP2 SWAP1 SWAP2 POP SSTORE DUP3 PUSH1 0x0 ADD DUP1 SLOAD SWAP1 POP DUP4 PUSH1 0x1 ADD PUSH1 0x0 DUP5 DUP2 MSTORE PUSH1 0x20 ADD SWAP1 DUP2 MSTORE PUSH1 0x20 ADD PUSH1 0x0 KECCAK256 DUP2 SWAP1 SSTORE POP PUSH1 0x1 SWAP1 POP PUSH2 0x1340 JUMP JUMPDEST PUSH1 0x0 SWAP1 POP JUMPDEST SWAP3 SWAP2 POP POP JUMP JUMPDEST PUSH1 0x0 PUSH2 0x136E DUP4 PUSH1 0x0 ADD DUP4 PUSH20 0xFFFFFFFFFFFFFFFFFFFFFFFFFFFFFFFFFFFFFFFF AND PUSH1 0x0 SHL PUSH2 0x1641 JUMP JUMPDEST SWAP1 POP SWAP3 SWAP2 POP POP JUMP JUMPDEST PUSH1 0x60 PUSH2 0x13D8 DUP3 PUSH1 0x40 MLOAD DUP1 PUSH1 0x40 ADD PUSH1 0x40 MSTORE DUP1 PUSH1 0x20 DUP2 MSTORE PUSH1 0x20 ADD PUSH32 0x5361666545524332303A206C6F772D6C6576656C2063616C6C206661696C6564 DUP2 MSTORE POP DUP6 PUSH20 0xFFFFFFFFFFFFFFFFFFFFFFFFFFFFFFFFFFFFFFFF AND PUSH2 0x1729 SWAP1 SWAP3 SWAP2 SWAP1 PUSH4 0xFFFFFFFF AND JUMP JUMPDEST SWAP1 POP PUSH1 0x0 DUP2 MLOAD GT ISZERO PUSH2 0x1460 JUMPI DUP1 DUP1 PUSH1 0x20 ADD SWAP1 MLOAD PUSH1 0x20 DUP2 LT ISZERO PUSH2 0x13F9 JUMPI PUSH1 0x0 DUP1 REVERT JUMPDEST DUP2 ADD SWAP1 DUP1 DUP1 MLOAD SWAP1 PUSH1 0x20 ADD SWAP1 SWAP3 SWAP2 SWAP1 POP POP POP PUSH2 0x145F JUMPI PUSH1 0x40 MLOAD PUSH32 0x8C379A000000000000000000000000000000000000000000000000000000000 DUP2 MSTORE PUSH1 0x4 ADD DUP1 DUP1 PUSH1 0x20 ADD DUP3 DUP2 SUB DUP3 MSTORE PUSH1 0x2A DUP2 MSTORE PUSH1 0x20 ADD DUP1 PUSH2 0x1A71 PUSH1 0x2A SWAP2 CODECOPY PUSH1 0x40 ADD SWAP2 POP POP PUSH1 0x40 MLOAD DUP1 SWAP2 SUB SWAP1 REVERT JUMPDEST JUMPDEST POP POP POP JUMP JUMPDEST PUSH1 0x0 DUP5 DUP5 DUP5 DUP5 PUSH1 0x40 MLOAD PUSH1 0x20 ADD DUP1 DUP6 DUP2 MSTORE PUSH1 0x20 ADD DUP5 DUP2 MSTORE PUSH1 0x20 ADD DUP4 PUSH20 0xFFFFFFFFFFFFFFFFFFFFFFFFFFFFFFFFFFFFFFFF AND DUP2 MSTORE PUSH1 0x20 ADD DUP3 DUP2 MSTORE PUSH1 0x20 ADD SWAP5 POP POP POP POP POP PUSH1 0x40 MLOAD PUSH1 0x20 DUP2 DUP4 SUB SUB DUP2 MSTORE SWAP1 PUSH1 0x40 MSTORE DUP1 MLOAD SWAP1 PUSH1 0x20 ADD KECCAK256 PUSH1 0x0 SHR SWAP1 POP SWAP5 SWAP4 POP POP POP POP JUMP JUMPDEST PUSH1 0x0 DUP1 DUP3 DUP5 ADD SWAP1 POP DUP4 DUP2 LT ISZERO PUSH2 0x1547 JUMPI PUSH1 0x40 MLOAD PUSH32 0x8C379A000000000000000000000000000000000000000000000000000000000 DUP2 MSTORE PUSH1 0x4 ADD DUP1 DUP1 PUSH1 0x20 ADD DUP3 DUP2 SUB DUP3 MSTORE PUSH1 0x1B DUP2 MSTORE PUSH1 0x20 ADD DUP1 PUSH32 0x536166654D6174683A206164646974696F6E206F766572666C6F770000000000 DUP2 MSTORE POP PUSH1 0x20 ADD SWAP2 POP POP PUSH1 0x40 MLOAD DUP1 SWAP2 SUB SWAP1 REVERT JUMPDEST DUP1 SWAP2 POP POP SWAP3 SWAP2 POP POP JUMP JUMPDEST PUSH1 0x0 DUP3 DUP3 PUSH1 0x40 MLOAD PUSH1 0x20 ADD DUP1 DUP4 DUP2 MSTORE PUSH1 0x20 ADD DUP3 DUP2 MSTORE PUSH1 0x20 ADD SWAP3 POP POP POP PUSH1 0x40 MLOAD PUSH1 0x20 DUP2 DUP4 SUB SUB DUP2 MSTORE SWAP1 PUSH1 0x40 MSTORE DUP1 MLOAD SWAP1 PUSH1 0x20 ADD KECCAK256 SWAP1 POP SWAP3 SWAP2 POP POP JUMP JUMPDEST PUSH1 0x0 DUP2 DUP4 PUSH1 0x0 ADD DUP1 SLOAD SWAP1 POP GT PUSH2 0x15EB JUMPI PUSH1 0x40 MLOAD PUSH32 0x8C379A000000000000000000000000000000000000000000000000000000000 DUP2 MSTORE PUSH1 0x4 ADD DUP1 DUP1 PUSH1 0x20 ADD DUP3 DUP2 SUB DUP3 MSTORE PUSH1 0x22 DUP2 MSTORE PUSH1 0x20 ADD DUP1 PUSH2 0x19CA PUSH1 0x22 SWAP2 CODECOPY PUSH1 0x40 ADD SWAP2 POP POP PUSH1 0x40 MLOAD DUP1 SWAP2 SUB SWAP1 REVERT JUMPDEST DUP3 PUSH1 0x0 ADD DUP3 DUP2 SLOAD DUP2 LT PUSH2 0x15FA JUMPI INVALID JUMPDEST SWAP1 PUSH1 0x0 MSTORE PUSH1 0x20 PUSH1 0x0 KECCAK256 ADD SLOAD SWAP1 POP SWAP3 SWAP2 POP POP JUMP JUMPDEST PUSH1 0x0 DUP1 DUP4 PUSH1 0x1 ADD PUSH1 0x0 DUP5 DUP2 MSTORE PUSH1 0x20 ADD SWAP1 DUP2 MSTORE PUSH1 0x20 ADD PUSH1 0x0 KECCAK256 SLOAD EQ ISZERO SWAP1 POP SWAP3 SWAP2 POP POP JUMP JUMPDEST PUSH1 0x0 DUP2 PUSH1 0x0 ADD DUP1 SLOAD SWAP1 POP SWAP1 POP SWAP2 SWAP1 POP JUMP JUMPDEST PUSH1 0x0 DUP1 DUP4 PUSH1 0x1 ADD PUSH1 0x0 DUP5 DUP2 MSTORE PUSH1 0x20 ADD SWAP1 DUP2 MSTORE PUSH1 0x20 ADD PUSH1 0x0 KECCAK256 SLOAD SWAP1 POP PUSH1 0x0 DUP2 EQ PUSH2 0x171D JUMPI PUSH1 0x0 PUSH1 0x1 DUP3 SUB SWAP1 POP PUSH1 0x0 PUSH1 0x1 DUP7 PUSH1 0x0 ADD DUP1 SLOAD SWAP1 POP SUB SWAP1 POP PUSH1 0x0 DUP7 PUSH1 0x0 ADD DUP3 DUP2 SLOAD DUP2 LT PUSH2 0x168C JUMPI INVALID JUMPDEST SWAP1 PUSH1 0x0 MSTORE PUSH1 0x20 PUSH1 0x0 KECCAK256 ADD SLOAD SWAP1 POP DUP1 DUP8 PUSH1 0x0 ADD DUP5 DUP2 SLOAD DUP2 LT PUSH2 0x16A9 JUMPI INVALID JUMPDEST SWAP1 PUSH1 0x0 MSTORE PUSH1 0x20 PUSH1 0x0 KECCAK256 ADD DUP2 SWAP1 SSTORE POP PUSH1 0x1 DUP4 ADD DUP8 PUSH1 0x1 ADD PUSH1 0x0 DUP4 DUP2 MSTORE PUSH1 0x20 ADD SWAP1 DUP2 MSTORE PUSH1 0x20 ADD PUSH1 0x0 KECCAK256 DUP2 SWAP1 SSTORE POP DUP7 PUSH1 0x0 ADD DUP1 SLOAD DUP1 PUSH2 0x16E1 JUMPI INVALID JUMPDEST PUSH1 0x1 SWAP1 SUB DUP2 DUP2 SWAP1 PUSH1 0x0 MSTORE PUSH1 0x20 PUSH1 0x0 KECCAK256 ADD PUSH1 0x0 SWAP1 SSTORE SWAP1 SSTORE DUP7 PUSH1 0x1 ADD PUSH1 0x0 DUP8 DUP2 MSTORE PUSH1 0x20 ADD SWAP1 DUP2 MSTORE PUSH1 0x20 ADD PUSH1 0x0 KECCAK256 PUSH1 0x0 SWAP1 SSTORE PUSH1 0x1 SWAP5 POP POP POP POP POP PUSH2 0x1723 JUMP JUMPDEST PUSH1 0x0 SWAP2 POP POP JUMPDEST SWAP3 SWAP2 POP POP JUMP JUMPDEST PUSH1 0x60 PUSH2 0x1738 DUP5 DUP5 PUSH1 0x0 DUP6 PUSH2 0x1741 JUMP JUMPDEST SWAP1 POP SWAP4 SWAP3 POP POP POP JUMP JUMPDEST PUSH1 0x60 DUP3 SELFBALANCE LT ISZERO PUSH2 0x179C JUMPI PUSH1 0x40 MLOAD PUSH32 0x8C379A000000000000000000000000000000000000000000000000000000000 DUP2 MSTORE PUSH1 0x4 ADD DUP1 DUP1 PUSH1 0x20 ADD DUP3 DUP2 SUB DUP3 MSTORE PUSH1 0x26 DUP2 MSTORE PUSH1 0x20 ADD DUP1 PUSH2 0x1A1B PUSH1 0x26 SWAP2 CODECOPY PUSH1 0x40 ADD SWAP2 POP POP PUSH1 0x40 MLOAD DUP1 SWAP2 SUB SWAP1 REVERT JUMPDEST PUSH2 0x17A5 DUP6 PUSH2 0x18EA JUMP JUMPDEST PUSH2 0x1817 JUMPI PUSH1 0x40 MLOAD PUSH32 0x8C379A000000000000000000000000000000000000000000000000000000000 DUP2 MSTORE PUSH1 0x4 ADD DUP1 DUP1 PUSH1 0x20 ADD DUP3 DUP2 SUB DUP3 MSTORE PUSH1 0x1D DUP2 MSTORE PUSH1 0x20 ADD DUP1 PUSH32 0x416464726573733A2063616C6C20746F206E6F6E2D636F6E7472616374000000 DUP2 MSTORE POP PUSH1 0x20 ADD SWAP2 POP POP PUSH1 0x40 MLOAD DUP1 SWAP2 SUB SWAP1 REVERT JUMPDEST PUSH1 0x0 PUSH1 0x60 DUP7 PUSH20 0xFFFFFFFFFFFFFFFFFFFFFFFFFFFFFFFFFFFFFFFF AND DUP6 DUP8 PUSH1 0x40 MLOAD DUP1 DUP3 DUP1 MLOAD SWAP1 PUSH1 0x20 ADD SWAP1 DUP1 DUP4 DUP4 JUMPDEST PUSH1 0x20 DUP4 LT PUSH2 0x1867 JUMPI DUP1 MLOAD DUP3 MSTORE PUSH1 0x20 DUP3 ADD SWAP2 POP PUSH1 0x20 DUP2 ADD SWAP1 POP PUSH1 0x20 DUP4 SUB SWAP3 POP PUSH2 0x1844 JUMP JUMPDEST PUSH1 0x1 DUP4 PUSH1 0x20 SUB PUSH2 0x100 EXP SUB DUP1 NOT DUP3 MLOAD AND DUP2 DUP5 MLOAD AND DUP1 DUP3 OR DUP6 MSTORE POP POP POP POP POP POP SWAP1 POP ADD SWAP2 POP POP PUSH1 0x0 PUSH1 0x40 MLOAD DUP1 DUP4 SUB DUP2 DUP6 DUP8 GAS CALL SWAP3 POP POP POP RETURNDATASIZE DUP1 PUSH1 0x0 DUP2 EQ PUSH2 0x18C9 JUMPI PUSH1 0x40 MLOAD SWAP2 POP PUSH1 0x1F NOT PUSH1 0x3F RETURNDATASIZE ADD AND DUP3 ADD PUSH1 0x40 MSTORE RETURNDATASIZE DUP3 MSTORE RETURNDATASIZE PUSH1 0x0 PUSH1 0x20 DUP5 ADD RETURNDATACOPY PUSH2 0x18CE JUMP JUMPDEST PUSH1 0x60 SWAP2 POP JUMPDEST POP SWAP2 POP SWAP2 POP PUSH2 0x18DE DUP3 DUP3 DUP7 PUSH2 0x18FD JUMP JUMPDEST SWAP3 POP POP POP SWAP5 SWAP4 POP POP POP POP JUMP JUMPDEST PUSH1 0x0 DUP1 DUP3 EXTCODESIZE SWAP1 POP PUSH1 0x0 DUP2 GT SWAP2 POP POP SWAP2 SWAP1 POP JUMP JUMPDEST PUSH1 0x60 DUP4 ISZERO PUSH2 0x190D JUMPI DUP3 SWAP1 POP PUSH2 0x19C2 JUMP JUMPDEST PUSH1 0x0 DUP4 MLOAD GT ISZERO PUSH2 0x1920 JUMPI DUP3 MLOAD DUP1 DUP5 PUSH1 0x20 ADD REVERT JUMPDEST DUP2 PUSH1 0x40 MLOAD PUSH32 0x8C379A000000000000000000000000000000000000000000000000000000000 DUP2 MSTORE PUSH1 0x4 ADD DUP1 DUP1 PUSH1 0x20 ADD DUP3 DUP2 SUB DUP3 MSTORE DUP4 DUP2 DUP2 MLOAD DUP2 MSTORE PUSH1 0x20 ADD SWAP2 POP DUP1 MLOAD SWAP1 PUSH1 0x20 ADD SWAP1 DUP1 DUP4 DUP4 PUSH1 0x0 JUMPDEST DUP4 DUP2 LT ISZERO PUSH2 0x1987 JUMPI DUP1 DUP3 ADD MLOAD DUP2 DUP5 ADD MSTORE PUSH1 0x20 DUP2 ADD SWAP1 POP PUSH2 0x196C JUMP JUMPDEST POP POP POP POP SWAP1 POP SWAP1 DUP2 ADD SWAP1 PUSH1 0x1F AND DUP1 ISZERO PUSH2 0x19B4 JUMPI DUP1 DUP3 SUB DUP1 MLOAD PUSH1 0x1 DUP4 PUSH1 0x20 SUB PUSH2 0x100 EXP SUB NOT AND DUP2 MSTORE PUSH1 0x20 ADD SWAP2 POP JUMPDEST POP SWAP3 POP POP POP PUSH1 0x40 MLOAD DUP1 SWAP2 SUB SWAP1 REVERT JUMPDEST SWAP4 SWAP3 POP POP POP JUMP INVALID GASLIMIT PUSH15 0x756D657261626C655365743A20696E PUSH5 0x6578206F75 PUSH21 0x206F6620626F756E6473416363657373436F6E7472 PUSH16 0x6C3A2073656E646572206D7573742062 PUSH6 0x20616E206164 PUSH14 0x696E20746F206772616E74416464 PUSH19 0x6573733A20696E73756666696369656E742062 PUSH2 0x6C61 PUSH15 0x636520666F722063616C6C41636365 PUSH20 0x73436F6E74726F6C3A2073656E646572206D7573 PUSH21 0x20626520616E2061646D696E20746F207265766F6B PUSH6 0x536166654552 NUMBER ORIGIN ADDRESS GASPRICE KECCAK256 GASLIMIT MSTORE NUMBER ORIGIN ADDRESS KECCAK256 PUSH16 0x7065726174696F6E20646964206E6F74 KECCAK256 PUSH20 0x756363656564416363657373436F6E74726F6C3A KECCAK256 PUSH4 0x616E206F PUSH15 0x6C792072656E6F756E636520726F6C PUSH6 0x7320666F7220 PUSH20 0x656C66A26469706673582212206405FE33DECE58 0xDD PUSH7 0x81585D6CF22AFF 0x25 0xC9 0xD 0xA6 SWAP12 CALL DUP5 0xDC 0x24 TIMESTAMP 0x4E 0xBD 0x1E 0xEB 0xF6 0x4B PUSH5 0x736F6C6343 STOP MOD 0xC STOP CALLER "
				},
				"gasEstimates": {
					"creation": {
						"codeDepositCost": "1382200",
						"executionCost": "infinite",
						"totalCost": "infinite"
					},
					"external": {
						"DEFAULT_ADMIN_ROLE()": "255",
						"RANDOMNESS_REQUESTER()": "272",
						"getRandomSeed(address)": "1427",
						"getRoleAdmin(bytes32)": "1208",
						"getRoleMember(bytes32,uint256)": "infinite",
						"getRoleMemberCount(bytes32)": "1356",
						"grantRole(bytes32,address)": "infinite",
						"hasRole(bytes32,address)": "infinite",
						"pause()": "infinite",
						"paused()": "1100",
						"rawFulfillRandomness(bytes32,uint256)": "infinite",
						"renounceRole(bytes32,address)": "infinite",
						"requestRandomNumber()": "infinite",
						"revokeRole(bytes32,address)": "infinite",
						"unpause()": "infinite",
						"withdrawLink(uint256)": "infinite"
					},
					"internal": {
						"fulfillRandomness(bytes32,uint256)": "20027"
					}
				},
				"methodIdentifiers": {
					"DEFAULT_ADMIN_ROLE()": "a217fddf",
					"RANDOMNESS_REQUESTER()": "790273dd",
					"getRandomSeed(address)": "3883d854",
					"getRoleAdmin(bytes32)": "248a9ca3",
					"getRoleMember(bytes32,uint256)": "9010d07c",
					"getRoleMemberCount(bytes32)": "ca15c873",
					"grantRole(bytes32,address)": "2f2ff15d",
					"hasRole(bytes32,address)": "91d14854",
					"pause()": "8456cb59",
					"paused()": "5c975abb",
					"rawFulfillRandomness(bytes32,uint256)": "94985ddd",
					"renounceRole(bytes32,address)": "36568abe",
					"requestRandomNumber()": "8678a7b2",
					"revokeRole(bytes32,address)": "d547741f",
					"unpause()": "3f4ba83a",
					"withdrawLink(uint256)": "7a8042bd"
				}
			},
			"storageLayout": {
				"storage": [
					{
						"astId": 2377,
						"contract": "contracts/ChainlinkRandoms.sol:ChainlinkRandoms",
						"label": "_paused",
						"offset": 0,
						"slot": "0",
						"type": "t_bool"
					},
					{
						"astId": 642,
						"contract": "contracts/ChainlinkRandoms.sol:ChainlinkRandoms",
						"label": "_roles",
						"offset": 0,
						"slot": "1",
						"type": "t_mapping(t_bytes32,t_struct(RoleData)638_storage)"
					},
					{
						"astId": 294,
						"contract": "contracts/ChainlinkRandoms.sol:ChainlinkRandoms",
						"label": "nonces",
						"offset": 0,
						"slot": "2",
						"type": "t_mapping(t_bytes32,t_uint256)"
					},
					{
						"astId": 40,
						"contract": "contracts/ChainlinkRandoms.sol:ChainlinkRandoms",
						"label": "keyHash",
						"offset": 0,
						"slot": "3",
						"type": "t_bytes32"
					},
					{
						"astId": 42,
						"contract": "contracts/ChainlinkRandoms.sol:ChainlinkRandoms",
						"label": "fee",
						"offset": 0,
						"slot": "4",
						"type": "t_uint256"
					},
					{
						"astId": 44,
						"contract": "contracts/ChainlinkRandoms.sol:ChainlinkRandoms",
						"label": "seed",
						"offset": 0,
						"slot": "5",
						"type": "t_uint256"
					}
				],
				"types": {
					"t_array(t_bytes32)dyn_storage": {
						"base": "t_bytes32",
						"encoding": "dynamic_array",
						"label": "bytes32[]",
						"numberOfBytes": "32"
					},
					"t_bool": {
						"encoding": "inplace",
						"label": "bool",
						"numberOfBytes": "1"
					},
					"t_bytes32": {
						"encoding": "inplace",
						"label": "bytes32",
						"numberOfBytes": "32"
					},
					"t_mapping(t_bytes32,t_struct(RoleData)638_storage)": {
						"encoding": "mapping",
						"key": "t_bytes32",
						"label": "mapping(bytes32 => struct AccessControl.RoleData)",
						"numberOfBytes": "32",
						"value": "t_struct(RoleData)638_storage"
					},
					"t_mapping(t_bytes32,t_uint256)": {
						"encoding": "mapping",
						"key": "t_bytes32",
						"label": "mapping(bytes32 => uint256)",
						"numberOfBytes": "32",
						"value": "t_uint256"
					},
					"t_struct(AddressSet)2143_storage": {
						"encoding": "inplace",
						"label": "struct EnumerableSet.AddressSet",
						"members": [
							{
								"astId": 2142,
								"contract": "contracts/ChainlinkRandoms.sol:ChainlinkRandoms",
								"label": "_inner",
								"offset": 0,
								"slot": "0",
								"type": "t_struct(Set)1878_storage"
							}
						],
						"numberOfBytes": "64"
					},
					"t_struct(RoleData)638_storage": {
						"encoding": "inplace",
						"label": "struct AccessControl.RoleData",
						"members": [
							{
								"astId": 635,
								"contract": "contracts/ChainlinkRandoms.sol:ChainlinkRandoms",
								"label": "members",
								"offset": 0,
								"slot": "0",
								"type": "t_struct(AddressSet)2143_storage"
							},
							{
								"astId": 637,
								"contract": "contracts/ChainlinkRandoms.sol:ChainlinkRandoms",
								"label": "adminRole",
								"offset": 0,
								"slot": "2",
								"type": "t_bytes32"
							}
						],
						"numberOfBytes": "96"
					},
					"t_struct(Set)1878_storage": {
						"encoding": "inplace",
						"label": "struct EnumerableSet.Set",
						"members": [
							{
								"astId": 1873,
								"contract": "contracts/ChainlinkRandoms.sol:ChainlinkRandoms",
								"label": "_values",
								"offset": 0,
								"slot": "0",
								"type": "t_array(t_bytes32)dyn_storage"
							},
							{
								"astId": 1877,
								"contract": "contracts/ChainlinkRandoms.sol:ChainlinkRandoms",
								"label": "_indexes",
								"offset": 0,
								"slot": "1",
								"type": "t_mapping(t_bytes32,t_uint256)"
							}
						],
						"numberOfBytes": "64"
					},
					"t_uint256": {
						"encoding": "inplace",
						"label": "uint256",
						"numberOfBytes": "32"
					}
				}
			},
			"userdoc": {
				"kind": "user",
				"methods": {
					"requestRandomNumber()": {
						"notice": "Requests randomness from a user-provided seed"
					}
				},
				"version": 1
			}
		}
	}
}