{
	"contracts/staking/StakingRewards.sol": {
		"StakingRewards": {
			"abi": [
				{
					"inputs": [
						{
							"internalType": "address",
							"name": "_owner",
							"type": "address"
						},
						{
							"internalType": "address",
							"name": "_rewardsDistribution",
							"type": "address"
						},
						{
							"internalType": "address",
							"name": "_rewardsToken",
							"type": "address"
						},
						{
							"internalType": "address",
							"name": "_stakingToken",
							"type": "address"
						},
						{
							"internalType": "uint256",
							"name": "_minimumStakeTime",
							"type": "uint256"
						}
					],
					"stateMutability": "nonpayable",
					"type": "constructor"
				},
				{
					"anonymous": false,
					"inputs": [],
					"name": "FailsafeModeEnabled",
					"type": "event"
				},
				{
					"anonymous": false,
					"inputs": [
						{
							"indexed": false,
							"internalType": "uint256",
							"name": "newMinimumStakeTime",
							"type": "uint256"
						}
					],
					"name": "MinimumStakeTimeUpdated",
					"type": "event"
				},
				{
					"anonymous": false,
					"inputs": [
						{
							"indexed": false,
							"internalType": "address",
							"name": "oldOwner",
							"type": "address"
						},
						{
							"indexed": false,
							"internalType": "address",
							"name": "newOwner",
							"type": "address"
						}
					],
					"name": "OwnerChanged",
					"type": "event"
				},
				{
					"anonymous": false,
					"inputs": [
						{
							"indexed": false,
							"internalType": "address",
							"name": "newOwner",
							"type": "address"
						}
					],
					"name": "OwnerNominated",
					"type": "event"
				},
				{
					"anonymous": false,
					"inputs": [
						{
							"indexed": false,
							"internalType": "bool",
							"name": "isPaused",
							"type": "bool"
						}
					],
					"name": "PauseChanged",
					"type": "event"
				},
				{
					"anonymous": false,
					"inputs": [
						{
							"indexed": false,
							"internalType": "address",
							"name": "token",
							"type": "address"
						},
						{
							"indexed": false,
							"internalType": "uint256",
							"name": "amount",
							"type": "uint256"
						}
					],
					"name": "Recovered",
					"type": "event"
				},
				{
					"anonymous": false,
					"inputs": [
						{
							"indexed": false,
							"internalType": "uint256",
							"name": "reward",
							"type": "uint256"
						}
					],
					"name": "RewardAdded",
					"type": "event"
				},
				{
					"anonymous": false,
					"inputs": [
						{
							"indexed": true,
							"internalType": "address",
							"name": "user",
							"type": "address"
						},
						{
							"indexed": false,
							"internalType": "uint256",
							"name": "reward",
							"type": "uint256"
						}
					],
					"name": "RewardPaid",
					"type": "event"
				},
				{
					"anonymous": false,
					"inputs": [
						{
							"indexed": false,
							"internalType": "uint256",
							"name": "newDuration",
							"type": "uint256"
						}
					],
					"name": "RewardsDurationUpdated",
					"type": "event"
				},
				{
					"anonymous": false,
					"inputs": [
						{
							"indexed": true,
							"internalType": "address",
							"name": "user",
							"type": "address"
						},
						{
							"indexed": false,
							"internalType": "uint256",
							"name": "amount",
							"type": "uint256"
						}
					],
					"name": "Staked",
					"type": "event"
				},
				{
					"anonymous": false,
					"inputs": [
						{
							"indexed": true,
							"internalType": "address",
							"name": "user",
							"type": "address"
						},
						{
							"indexed": false,
							"internalType": "uint256",
							"name": "amount",
							"type": "uint256"
						}
					],
					"name": "Withdrawn",
					"type": "event"
				},
				{
					"inputs": [],
					"name": "acceptOwnership",
					"outputs": [],
					"stateMutability": "nonpayable",
					"type": "function"
				},
				{
					"inputs": [
						{
							"internalType": "address",
							"name": "account",
							"type": "address"
						}
					],
					"name": "balanceOf",
					"outputs": [
						{
							"internalType": "uint256",
							"name": "",
							"type": "uint256"
						}
					],
					"stateMutability": "view",
					"type": "function"
				},
				{
					"inputs": [
						{
							"internalType": "address",
							"name": "account",
							"type": "address"
						}
					],
					"name": "earned",
					"outputs": [
						{
							"internalType": "uint256",
							"name": "",
							"type": "uint256"
						}
					],
					"stateMutability": "view",
					"type": "function"
				},
				{
					"inputs": [],
					"name": "enableFailsafeMode",
					"outputs": [],
					"stateMutability": "nonpayable",
					"type": "function"
				},
				{
					"inputs": [],
					"name": "exit",
					"outputs": [],
					"stateMutability": "nonpayable",
					"type": "function"
				},
				{
					"inputs": [],
					"name": "failsafeModeActive",
					"outputs": [
						{
							"internalType": "bool",
							"name": "",
							"type": "bool"
						}
					],
					"stateMutability": "view",
					"type": "function"
				},
				{
					"inputs": [],
					"name": "getReward",
					"outputs": [],
					"stateMutability": "nonpayable",
					"type": "function"
				},
				{
					"inputs": [],
					"name": "getRewardForDuration",
					"outputs": [
						{
							"internalType": "uint256",
							"name": "",
							"type": "uint256"
						}
					],
					"stateMutability": "view",
					"type": "function"
				},
				{
					"inputs": [],
					"name": "getStakeRewardDistributionTimeLeft",
					"outputs": [
						{
							"internalType": "uint256",
							"name": "",
							"type": "uint256"
						}
					],
					"stateMutability": "view",
					"type": "function"
				},
				{
					"inputs": [],
					"name": "getStakeUnlockTimeLeft",
					"outputs": [
						{
							"internalType": "uint256",
							"name": "",
							"type": "uint256"
						}
					],
					"stateMutability": "view",
					"type": "function"
				},
				{
					"inputs": [],
					"name": "lastPauseTime",
					"outputs": [
						{
							"internalType": "uint256",
							"name": "",
							"type": "uint256"
						}
					],
					"stateMutability": "view",
					"type": "function"
				},
				{
					"inputs": [],
					"name": "lastTimeRewardApplicable",
					"outputs": [
						{
							"internalType": "uint256",
							"name": "",
							"type": "uint256"
						}
					],
					"stateMutability": "view",
					"type": "function"
				},
				{
					"inputs": [],
					"name": "lastUpdateTime",
					"outputs": [
						{
							"internalType": "uint256",
							"name": "",
							"type": "uint256"
						}
					],
					"stateMutability": "view",
					"type": "function"
				},
				{
					"inputs": [],
					"name": "minimumStakeTime",
					"outputs": [
						{
							"internalType": "uint256",
							"name": "",
							"type": "uint256"
						}
					],
					"stateMutability": "view",
					"type": "function"
				},
				{
					"inputs": [
						{
							"internalType": "address",
							"name": "_owner",
							"type": "address"
						}
					],
					"name": "nominateNewOwner",
					"outputs": [],
					"stateMutability": "nonpayable",
					"type": "function"
				},
				{
					"inputs": [],
					"name": "nominatedOwner",
					"outputs": [
						{
							"internalType": "address",
							"name": "",
							"type": "address"
						}
					],
					"stateMutability": "view",
					"type": "function"
				},
				{
					"inputs": [
						{
							"internalType": "uint256",
							"name": "reward",
							"type": "uint256"
						}
					],
					"name": "notifyRewardAmount",
					"outputs": [],
					"stateMutability": "nonpayable",
					"type": "function"
				},
				{
					"inputs": [],
					"name": "owner",
					"outputs": [
						{
							"internalType": "address",
							"name": "",
							"type": "address"
						}
					],
					"stateMutability": "view",
					"type": "function"
				},
				{
					"inputs": [],
					"name": "paused",
					"outputs": [
						{
							"internalType": "bool",
							"name": "",
							"type": "bool"
						}
					],
					"stateMutability": "view",
					"type": "function"
				},
				{
					"inputs": [],
					"name": "periodFinish",
					"outputs": [
						{
							"internalType": "uint256",
							"name": "",
							"type": "uint256"
						}
					],
					"stateMutability": "view",
					"type": "function"
				},
				{
					"inputs": [
						{
							"internalType": "address",
							"name": "tokenAddress",
							"type": "address"
						},
						{
							"internalType": "uint256",
							"name": "tokenAmount",
							"type": "uint256"
						}
					],
					"name": "recoverERC20",
					"outputs": [],
					"stateMutability": "nonpayable",
					"type": "function"
				},
				{
					"inputs": [],
					"name": "recoverExtraStakingTokensToOwner",
					"outputs": [],
					"stateMutability": "nonpayable",
					"type": "function"
				},
				{
					"inputs": [],
					"name": "recoverOwnStake",
					"outputs": [],
					"stateMutability": "nonpayable",
					"type": "function"
				},
				{
					"inputs": [],
					"name": "rewardPerToken",
					"outputs": [
						{
							"internalType": "uint256",
							"name": "",
							"type": "uint256"
						}
					],
					"stateMutability": "view",
					"type": "function"
				},
				{
					"inputs": [],
					"name": "rewardPerTokenStored",
					"outputs": [
						{
							"internalType": "uint256",
							"name": "",
							"type": "uint256"
						}
					],
					"stateMutability": "view",
					"type": "function"
				},
				{
					"inputs": [],
					"name": "rewardRate",
					"outputs": [
						{
							"internalType": "uint256",
							"name": "",
							"type": "uint256"
						}
					],
					"stateMutability": "view",
					"type": "function"
				},
				{
					"inputs": [
						{
							"internalType": "address",
							"name": "",
							"type": "address"
						}
					],
					"name": "rewards",
					"outputs": [
						{
							"internalType": "uint256",
							"name": "",
							"type": "uint256"
						}
					],
					"stateMutability": "view",
					"type": "function"
				},
				{
					"inputs": [],
					"name": "rewardsDistribution",
					"outputs": [
						{
							"internalType": "address",
							"name": "",
							"type": "address"
						}
					],
					"stateMutability": "view",
					"type": "function"
				},
				{
					"inputs": [],
					"name": "rewardsDuration",
					"outputs": [
						{
							"internalType": "uint256",
							"name": "",
							"type": "uint256"
						}
					],
					"stateMutability": "view",
					"type": "function"
				},
				{
					"inputs": [],
					"name": "rewardsToken",
					"outputs": [
						{
							"internalType": "contract IERC20",
							"name": "",
							"type": "address"
						}
					],
					"stateMutability": "view",
					"type": "function"
				},
				{
					"inputs": [
						{
							"internalType": "uint256",
							"name": "_minimumStakeTime",
							"type": "uint256"
						}
					],
					"name": "setMinimumStakeTime",
					"outputs": [],
					"stateMutability": "nonpayable",
					"type": "function"
				},
				{
					"inputs": [
						{
							"internalType": "bool",
							"name": "_paused",
							"type": "bool"
						}
					],
					"name": "setPaused",
					"outputs": [],
					"stateMutability": "nonpayable",
					"type": "function"
				},
				{
					"inputs": [
						{
							"internalType": "address",
							"name": "_rewardsDistribution",
							"type": "address"
						}
					],
					"name": "setRewardsDistribution",
					"outputs": [],
					"stateMutability": "nonpayable",
					"type": "function"
				},
				{
					"inputs": [
						{
							"internalType": "uint256",
							"name": "_rewardsDuration",
							"type": "uint256"
						}
					],
					"name": "setRewardsDuration",
					"outputs": [],
					"stateMutability": "nonpayable",
					"type": "function"
				},
				{
					"inputs": [
						{
							"internalType": "uint256",
							"name": "amount",
							"type": "uint256"
						}
					],
					"name": "stake",
					"outputs": [],
					"stateMutability": "nonpayable",
					"type": "function"
				},
				{
					"inputs": [],
					"name": "stakingToken",
					"outputs": [
						{
							"internalType": "contract IERC20",
							"name": "",
							"type": "address"
						}
					],
					"stateMutability": "view",
					"type": "function"
				},
				{
					"inputs": [],
					"name": "totalSupply",
					"outputs": [
						{
							"internalType": "uint256",
							"name": "",
							"type": "uint256"
						}
					],
					"stateMutability": "view",
					"type": "function"
				},
				{
					"inputs": [
						{
							"internalType": "uint256",
							"name": "timestamp",
							"type": "uint256"
						}
					],
					"name": "updatePeriodFinish",
					"outputs": [],
					"stateMutability": "nonpayable",
					"type": "function"
				},
				{
					"inputs": [
						{
							"internalType": "address",
							"name": "",
							"type": "address"
						}
					],
					"name": "userRewardPerTokenPaid",
					"outputs": [
						{
							"internalType": "uint256",
							"name": "",
							"type": "uint256"
						}
					],
					"stateMutability": "view",
					"type": "function"
				},
				{
					"inputs": [
						{
							"internalType": "uint256",
							"name": "amount",
							"type": "uint256"
						}
					],
					"name": "withdraw",
					"outputs": [],
					"stateMutability": "nonpayable",
					"type": "function"
				}
			],
			"devdoc": {
				"kind": "dev",
				"methods": {
					"setPaused(bool)": {
						"details": "Only the contract owner may call this."
					}
				},
				"version": 1
			},
			"evm": {
				"assembly": "    /* \"contracts/staking/StakingRewards.sol\":556:10330  contract StakingRewards is... */\n  mstore(0x40, 0x80)\n    /* \"contracts/staking/Failsafe.sol\":123:128  false */\n  0x00\n    /* \"contracts/staking/Failsafe.sol\":90:128  bool public failsafeModeActive = false */\n  0x04\n  exp(0x0100, 0x00)\n  dup2\n  sload\n  dup2\n  0xff\n  mul\n  not\n  and\n  swap1\n  dup4\n  iszero\n  iszero\n  mul\n  or\n  swap1\n  sstore\n  pop\n    /* \"contracts/staking/StakingRewards.sol\":909:910  0 */\n  0x00\n    /* \"contracts/staking/StakingRewards.sol\":879:910  uint256 public periodFinish = 0 */\n  0x08\n  sstore\n    /* \"contracts/staking/StakingRewards.sol\":953:954  0 */\n  0x00\n    /* \"contracts/staking/StakingRewards.sol\":916:954  uint256 public override rewardRate = 0 */\n  0x09\n  sstore\n    /* \"contracts/staking/StakingRewards.sol\":1002:1010  180 days */\n  0xed4e00\n    /* \"contracts/staking/StakingRewards.sol\":960:1010  uint256 public override rewardsDuration = 180 days */\n  0x0a\n  sstore\n    /* \"contracts/staking/StakingRewards.sol\":1439:1834  constructor(... */\n  callvalue\n  dup1\n  iszero\n  tag_1\n  jumpi\n  0x00\n  dup1\n  revert\ntag_1:\n  pop\n  mload(0x40)\n  sub(codesize, bytecodeSize)\n  dup1\n  bytecodeSize\n  dup4\n  codecopy\n  dup2\n  dup2\n  add\n  0x40\n  mstore\n  0xa0\n  dup2\n  lt\n  iszero\n  tag_2\n  jumpi\n  0x00\n  dup1\n  revert\ntag_2:\n  dup2\n  add\n  swap1\n  dup1\n  dup1\n  mload\n  swap1\n  0x20\n  add\n  swap1\n  swap3\n  swap2\n  swap1\n  dup1\n  mload\n  swap1\n  0x20\n  add\n  swap1\n  swap3\n  swap2\n  swap1\n  dup1\n  mload\n  swap1\n  0x20\n  add\n  swap1\n  swap3\n  swap2\n  swap1\n  dup1\n  mload\n  swap1\n  0x20\n  add\n  swap1\n  swap3\n  swap2\n  swap1\n  dup1\n  mload\n  swap1\n  0x20\n  add\n  swap1\n  swap3\n  swap2\n  swap1\n  pop\n  pop\n  pop\n    /* \"contracts/staking/StakingRewards.sol\":1629:1635  _owner */\n  dup5\n    /* \"contracts/staking/Owned.sol\":241:242  0 */\n  0x00\n    /* \"contracts/staking/Owned.sol\":223:243  _owner != address(0) */\n  0xffffffffffffffffffffffffffffffffffffffff\n  and\n    /* \"contracts/staking/Owned.sol\":223:229  _owner */\n  dup2\n    /* \"contracts/staking/Owned.sol\":223:243  _owner != address(0) */\n  0xffffffffffffffffffffffffffffffffffffffff\n  and\n  eq\n  iszero\n    /* \"contracts/staking/Owned.sol\":215:273  require(_owner != address(0), \"Owner address cannot be 0\") */\n  tag_9\n  jumpi\n  mload(0x40)\n  0x08c379a000000000000000000000000000000000000000000000000000000000\n  dup2\n  mstore\n  0x04\n  add\n  dup1\n  dup1\n  0x20\n  add\n  dup3\n  dup2\n  sub\n  dup3\n  mstore\n  0x19\n  dup2\n  mstore\n  0x20\n  add\n  dup1\n  0x4f776e657220616464726573732063616e6e6f74206265203000000000000000\n  dup2\n  mstore\n  pop\n  0x20\n  add\n  swap2\n  pop\n  pop\n  mload(0x40)\n  dup1\n  swap2\n  sub\n  swap1\n  revert\ntag_9:\n    /* \"contracts/staking/Owned.sol\":291:297  _owner */\n  dup1\n    /* \"contracts/staking/Owned.sol\":283:288  owner */\n  0x00\n  dup1\n    /* \"contracts/staking/Owned.sol\":283:297  owner = _owner */\n  0x0100\n  exp\n  dup2\n  sload\n  dup2\n  0xffffffffffffffffffffffffffffffffffffffff\n  mul\n  not\n  and\n  swap1\n  dup4\n  0xffffffffffffffffffffffffffffffffffffffff\n  and\n  mul\n  or\n  swap1\n  sstore\n  pop\n    /* \"contracts/staking/Owned.sol\":312:344  OwnerChanged(address(0), _owner) */\n  0xb532073b38c83145e3e5135377a08bf9aab55bc0fd7c1179cd4fb995d2a5159c\n    /* \"contracts/staking/Owned.sol\":333:334  0 */\n  0x00\n    /* \"contracts/staking/Owned.sol\":337:343  _owner */\n  dup3\n    /* \"contracts/staking/Owned.sol\":312:344  OwnerChanged(address(0), _owner) */\n  mload(0x40)\n  dup1\n  dup4\n  0xffffffffffffffffffffffffffffffffffffffff\n  and\n  dup2\n  mstore\n  0x20\n  add\n  dup3\n  0xffffffffffffffffffffffffffffffffffffffff\n  and\n  dup2\n  mstore\n  0x20\n  add\n  swap3\n  pop\n  pop\n  pop\n  mload(0x40)\n  dup1\n  swap2\n  sub\n  swap1\n  log1\n    /* \"contracts/staking/Owned.sol\":170:351  constructor(address _owner) public {... */\n  pop\n    /* \"node_modules/@openzeppelin/contracts/utils/ReentrancyGuard.sol\":1645:1646  1 */\n  0x01\n    /* \"node_modules/@openzeppelin/contracts/utils/ReentrancyGuard.sol\":1760:1767  _status */\n  0x03\n    /* \"node_modules/@openzeppelin/contracts/utils/ReentrancyGuard.sol\":1760:1782  _status = _NOT_ENTERED */\n  dup2\n  swap1\n  sstore\n  pop\n    /* \"contracts/staking/Failsafe.sol\":193:194  0 */\n  0x00\n    /* \"contracts/staking/Failsafe.sol\":176:195  owner != address(0) */\n  0xffffffffffffffffffffffffffffffffffffffff\n  and\n    /* \"contracts/staking/Failsafe.sol\":176:181  owner */\n  0x00\n  dup1\n  sload\n  swap1\n  0x0100\n  exp\n  swap1\n  div\n  0xffffffffffffffffffffffffffffffffffffffff\n  and\n    /* \"contracts/staking/Failsafe.sol\":176:195  owner != address(0) */\n  0xffffffffffffffffffffffffffffffffffffffff\n  and\n  eq\n  iszero\n    /* \"contracts/staking/Failsafe.sol\":168:217  require(owner != address(0), \"Owner must be set\") */\n  tag_12\n  jumpi\n  mload(0x40)\n  0x08c379a000000000000000000000000000000000000000000000000000000000\n  dup2\n  mstore\n  0x04\n  add\n  dup1\n  dup1\n  0x20\n  add\n  dup3\n  dup2\n  sub\n  dup3\n  mstore\n  0x11\n  dup2\n  mstore\n  0x20\n  add\n  dup1\n  0x4f776e6572206d75737420626520736574000000000000000000000000000000\n  dup2\n  mstore\n  pop\n  0x20\n  add\n  swap2\n  pop\n  pop\n  mload(0x40)\n  dup1\n  swap2\n  sub\n  swap1\n  revert\ntag_12:\n    /* \"contracts/staking/SynthetixPausable.sol\":375:376  0 */\n  0x00\n    /* \"contracts/staking/SynthetixPausable.sol\":358:377  owner != address(0) */\n  0xffffffffffffffffffffffffffffffffffffffff\n  and\n    /* \"contracts/staking/SynthetixPausable.sol\":358:363  owner */\n  0x00\n  dup1\n  sload\n  swap1\n  0x0100\n  exp\n  swap1\n  div\n  0xffffffffffffffffffffffffffffffffffffffff\n  and\n    /* \"contracts/staking/SynthetixPausable.sol\":358:377  owner != address(0) */\n  0xffffffffffffffffffffffffffffffffffffffff\n  and\n  eq\n  iszero\n    /* \"contracts/staking/SynthetixPausable.sol\":350:399  require(owner != address(0), \"Owner must be set\") */\n  tag_14\n  jumpi\n  mload(0x40)\n  0x08c379a000000000000000000000000000000000000000000000000000000000\n  dup2\n  mstore\n  0x04\n  add\n  dup1\n  dup1\n  0x20\n  add\n  dup3\n  dup2\n  sub\n  dup3\n  mstore\n  0x11\n  dup2\n  mstore\n  0x20\n  add\n  dup1\n  0x4f776e6572206d75737420626520736574000000000000000000000000000000\n  dup2\n  mstore\n  pop\n  0x20\n  add\n  swap2\n  pop\n  pop\n  mload(0x40)\n  dup1\n  swap2\n  sub\n  swap1\n  revert\ntag_14:\n    /* \"contracts/staking/StakingRewards.sol\":1669:1682  _rewardsToken */\n  dup3\n    /* \"contracts/staking/StakingRewards.sol\":1647:1659  rewardsToken */\n  0x06\n  0x01\n    /* \"contracts/staking/StakingRewards.sol\":1647:1683  rewardsToken = IERC20(_rewardsToken) */\n  0x0100\n  exp\n  dup2\n  sload\n  dup2\n  0xffffffffffffffffffffffffffffffffffffffff\n  mul\n  not\n  and\n  swap1\n  dup4\n  0xffffffffffffffffffffffffffffffffffffffff\n  and\n  mul\n  or\n  swap1\n  sstore\n  pop\n    /* \"contracts/staking/StakingRewards.sol\":1715:1728  _stakingToken */\n  dup2\n    /* \"contracts/staking/StakingRewards.sol\":1693:1705  stakingToken */\n  0x07\n  0x00\n    /* \"contracts/staking/StakingRewards.sol\":1693:1729  stakingToken = IERC20(_stakingToken) */\n  0x0100\n  exp\n  dup2\n  sload\n  dup2\n  0xffffffffffffffffffffffffffffffffffffffff\n  mul\n  not\n  and\n  swap1\n  dup4\n  0xffffffffffffffffffffffffffffffffffffffff\n  and\n  mul\n  or\n  swap1\n  sstore\n  pop\n    /* \"contracts/staking/StakingRewards.sol\":1761:1781  _rewardsDistribution */\n  dup4\n    /* \"contracts/staking/StakingRewards.sol\":1739:1758  rewardsDistribution */\n  0x02\n  0x00\n    /* \"contracts/staking/StakingRewards.sol\":1739:1781  rewardsDistribution = _rewardsDistribution */\n  0x0100\n  exp\n  dup2\n  sload\n  dup2\n  0xffffffffffffffffffffffffffffffffffffffff\n  mul\n  not\n  and\n  swap1\n  dup4\n  0xffffffffffffffffffffffffffffffffffffffff\n  and\n  mul\n  or\n  swap1\n  sstore\n  pop\n    /* \"contracts/staking/StakingRewards.sol\":1810:1827  _minimumStakeTime */\n  dup1\n    /* \"contracts/staking/StakingRewards.sol\":1791:1807  minimumStakeTime */\n  0x0b\n    /* \"contracts/staking/StakingRewards.sol\":1791:1827  minimumStakeTime = _minimumStakeTime */\n  dup2\n  swap1\n  sstore\n  pop\n    /* \"contracts/staking/StakingRewards.sol\":1439:1834  constructor(... */\n  pop\n  pop\n  pop\n  pop\n  pop\n    /* \"contracts/staking/StakingRewards.sol\":556:10330  contract StakingRewards is... */\n  dataSize(sub_0)\n  dup1\n  dataOffset(sub_0)\n  0x00\n  codecopy\n  0x00\n  return\nstop\n\nsub_0: assembly {\n        /* \"contracts/staking/StakingRewards.sol\":556:10330  contract StakingRewards is... */\n      mstore(0x40, 0x80)\n      callvalue\n      dup1\n      iszero\n      tag_1\n      jumpi\n      0x00\n      dup1\n      revert\n    tag_1:\n      pop\n      jumpi(tag_2, lt(calldatasize, 0x04))\n      shr(0xe0, calldataload(0x00))\n      dup1\n      0x70a08231\n      gt\n      tag_43\n      jumpi\n      dup1\n      0xc8f33c91\n      gt\n      tag_44\n      jumpi\n      dup1\n      0xe2adc237\n      gt\n      tag_45\n      jumpi\n      dup1\n      0xe2adc237\n      eq\n      tag_38\n      jumpi\n      dup1\n      0xe9422046\n      eq\n      tag_39\n      jumpi\n      dup1\n      0xe9fad8ee\n      eq\n      tag_40\n      jumpi\n      dup1\n      0xebe2b12b\n      eq\n      tag_41\n      jumpi\n      dup1\n      0xf603944c\n      eq\n      tag_42\n      jumpi\n      jump(tag_2)\n    tag_45:\n      dup1\n      0xc8f33c91\n      eq\n      tag_33\n      jumpi\n      dup1\n      0xcc1a378f\n      eq\n      tag_34\n      jumpi\n      dup1\n      0xcd3daf9d\n      eq\n      tag_35\n      jumpi\n      dup1\n      0xd1af0c7d\n      eq\n      tag_36\n      jumpi\n      dup1\n      0xdf136d65\n      eq\n      tag_37\n      jumpi\n      jump(tag_2)\n    tag_44:\n      dup1\n      0x8980f11f\n      gt\n      tag_46\n      jumpi\n      dup1\n      0x8980f11f\n      eq\n      tag_28\n      jumpi\n      dup1\n      0x8b876347\n      eq\n      tag_29\n      jumpi\n      dup1\n      0x8da5cb5b\n      eq\n      tag_30\n      jumpi\n      dup1\n      0x91b4ded9\n      eq\n      tag_31\n      jumpi\n      dup1\n      0xa694fc3a\n      eq\n      tag_32\n      jumpi\n      jump(tag_2)\n    tag_46:\n      dup1\n      0x70a08231\n      eq\n      tag_23\n      jumpi\n      dup1\n      0x72f702f3\n      eq\n      tag_24\n      jumpi\n      dup1\n      0x79ba5097\n      eq\n      tag_25\n      jumpi\n      dup1\n      0x7b0a47ee\n      eq\n      tag_26\n      jumpi\n      dup1\n      0x80faa57d\n      eq\n      tag_27\n      jumpi\n      jump(tag_2)\n    tag_43:\n      dup1\n      0x2e1a7d4d\n      gt\n      tag_47\n      jumpi\n      dup1\n      0x3fc6df6e\n      gt\n      tag_48\n      jumpi\n      dup1\n      0x3fc6df6e\n      eq\n      tag_18\n      jumpi\n      dup1\n      0x44142db5\n      eq\n      tag_19\n      jumpi\n      dup1\n      0x53a47bb7\n      eq\n      tag_20\n      jumpi\n      dup1\n      0x556f6e6b\n      eq\n      tag_21\n      jumpi\n      dup1\n      0x5c975abb\n      eq\n      tag_22\n      jumpi\n      jump(tag_2)\n    tag_48:\n      dup1\n      0x2e1a7d4d\n      eq\n      tag_13\n      jumpi\n      dup1\n      0x2f3d3b14\n      eq\n      tag_14\n      jumpi\n      dup1\n      0x386a9525\n      eq\n      tag_15\n      jumpi\n      dup1\n      0x3c6b16ab\n      eq\n      tag_16\n      jumpi\n      dup1\n      0x3d18b912\n      eq\n      tag_17\n      jumpi\n      jump(tag_2)\n    tag_47:\n      dup1\n      0x18160ddd\n      gt\n      tag_49\n      jumpi\n      dup1\n      0x18160ddd\n      eq\n      tag_8\n      jumpi\n      dup1\n      0x19762143\n      eq\n      tag_9\n      jumpi\n      dup1\n      0x1c1f78eb\n      eq\n      tag_10\n      jumpi\n      dup1\n      0x242df9e1\n      eq\n      tag_11\n      jumpi\n      dup1\n      0x27ab1969\n      eq\n      tag_12\n      jumpi\n      jump(tag_2)\n    tag_49:\n      dup1\n      0x8cc262\n      eq\n      tag_3\n      jumpi\n      dup1\n      0x0700037d\n      eq\n      tag_4\n      jumpi\n      dup1\n      0x1265cc97\n      eq\n      tag_5\n      jumpi\n      dup1\n      0x1627540c\n      eq\n      tag_6\n      jumpi\n      dup1\n      0x16c38b3c\n      eq\n      tag_7\n      jumpi\n    tag_2:\n      0x00\n      dup1\n      revert\n        /* \"contracts/staking/StakingRewards.sol\":2711:2979  function earned(address account) public view override returns (uint256) {... */\n    tag_3:\n      tag_50\n      0x04\n      dup1\n      calldatasize\n      sub\n      0x20\n      dup2\n      lt\n      iszero\n      tag_51\n      jumpi\n      0x00\n      dup1\n      revert\n    tag_51:\n      dup2\n      add\n      swap1\n      dup1\n      dup1\n      calldataload\n      0xffffffffffffffffffffffffffffffffffffffff\n      and\n      swap1\n      0x20\n      add\n      swap1\n      swap3\n      swap2\n      swap1\n      pop\n      pop\n      pop\n      tag_52\n      jump\t// in\n    tag_50:\n      mload(0x40)\n      dup1\n      dup3\n      dup2\n      mstore\n      0x20\n      add\n      swap2\n      pop\n      pop\n      mload(0x40)\n      dup1\n      swap2\n      sub\n      swap1\n      return\n        /* \"contracts/staking/StakingRewards.sol\":1202:1244  mapping(address => uint256) public rewards */\n    tag_4:\n      tag_53\n      0x04\n      dup1\n      calldatasize\n      sub\n      0x20\n      dup2\n      lt\n      iszero\n      tag_54\n      jumpi\n      0x00\n      dup1\n      revert\n    tag_54:\n      dup2\n      add\n      swap1\n      dup1\n      dup1\n      calldataload\n      0xffffffffffffffffffffffffffffffffffffffff\n      and\n      swap1\n      0x20\n      add\n      swap1\n      swap3\n      swap2\n      swap1\n      pop\n      pop\n      pop\n      tag_55\n      jump\t// in\n    tag_53:\n      mload(0x40)\n      dup1\n      dup3\n      dup2\n      mstore\n      0x20\n      add\n      swap2\n      pop\n      pop\n      mload(0x40)\n      dup1\n      swap2\n      sub\n      swap1\n      return\n        /* \"contracts/staking/Failsafe.sol\":90:128  bool public failsafeModeActive = false */\n    tag_5:\n      tag_56\n      tag_57\n      jump\t// in\n    tag_56:\n      mload(0x40)\n      dup1\n      dup3\n      iszero\n      iszero\n      dup2\n      mstore\n      0x20\n      add\n      swap2\n      pop\n      pop\n      mload(0x40)\n      dup1\n      swap2\n      sub\n      swap1\n      return\n        /* \"contracts/staking/Owned.sol\":357:495  function nominateNewOwner(address _owner) external onlyOwner {... */\n    tag_6:\n      tag_58\n      0x04\n      dup1\n      calldatasize\n      sub\n      0x20\n      dup2\n      lt\n      iszero\n      tag_59\n      jumpi\n      0x00\n      dup1\n      revert\n    tag_59:\n      dup2\n      add\n      swap1\n      dup1\n      dup1\n      calldataload\n      0xffffffffffffffffffffffffffffffffffffffff\n      and\n      swap1\n      0x20\n      add\n      swap1\n      swap3\n      swap2\n      swap1\n      pop\n      pop\n      pop\n      tag_60\n      jump\t// in\n    tag_58:\n      stop\n        /* \"contracts/staking/SynthetixPausable.sol\":615:1087  function setPaused(bool _paused) external onlyOwner {... */\n    tag_7:\n      tag_61\n      0x04\n      dup1\n      calldatasize\n      sub\n      0x20\n      dup2\n      lt\n      iszero\n      tag_62\n      jumpi\n      0x00\n      dup1\n      revert\n    tag_62:\n      dup2\n      add\n      swap1\n      dup1\n      dup1\n      calldataload\n      iszero\n      iszero\n      swap1\n      0x20\n      add\n      swap1\n      swap3\n      swap2\n      swap1\n      pop\n      pop\n      pop\n      tag_63\n      jump\t// in\n    tag_61:\n      stop\n        /* \"contracts/staking/StakingRewards.sol\":1879:1979  function totalSupply() external view override returns (uint256) {... */\n    tag_8:\n      tag_64\n      tag_65\n      jump\t// in\n    tag_64:\n      mload(0x40)\n      dup1\n      dup3\n      dup2\n      mstore\n      0x20\n      add\n      swap2\n      pop\n      pop\n      mload(0x40)\n      dup1\n      swap2\n      sub\n      swap1\n      return\n        /* \"contracts/staking/RewardsDistributionRecipient.sol\":509:669  function setRewardsDistribution(address _rewardsDistribution)... */\n    tag_9:\n      tag_66\n      0x04\n      dup1\n      calldatasize\n      sub\n      0x20\n      dup2\n      lt\n      iszero\n      tag_67\n      jumpi\n      0x00\n      dup1\n      revert\n    tag_67:\n      dup2\n      add\n      swap1\n      dup1\n      dup1\n      calldataload\n      0xffffffffffffffffffffffffffffffffffffffff\n      and\n      swap1\n      0x20\n      add\n      swap1\n      swap3\n      swap2\n      swap1\n      pop\n      pop\n      pop\n      tag_68\n      jump\t// in\n    tag_66:\n      stop\n        /* \"contracts/staking/StakingRewards.sol\":2985:3113  function getRewardForDuration() external view override returns (uint256) {... */\n    tag_10:\n      tag_69\n      tag_70\n      jump\t// in\n    tag_69:\n      mload(0x40)\n      dup1\n      dup3\n      dup2\n      mstore\n      0x20\n      add\n      swap2\n      pop\n      pop\n      mload(0x40)\n      dup1\n      swap2\n      sub\n      swap1\n      return\n        /* \"contracts/staking/StakingRewards.sol\":1016:1056  uint256 public override minimumStakeTime */\n    tag_11:\n      tag_71\n      tag_72\n      jump\t// in\n    tag_71:\n      mload(0x40)\n      dup1\n      dup3\n      dup2\n      mstore\n      0x20\n      add\n      swap2\n      pop\n      pop\n      mload(0x40)\n      dup1\n      swap2\n      sub\n      swap1\n      return\n        /* \"contracts/staking/StakingRewards.sol\":3119:3361  function getStakeRewardDistributionTimeLeft()... */\n    tag_12:\n      tag_73\n      tag_74\n      jump\t// in\n    tag_73:\n      mload(0x40)\n      dup1\n      dup3\n      dup2\n      mstore\n      0x20\n      add\n      swap2\n      pop\n      pop\n      mload(0x40)\n      dup1\n      swap2\n      sub\n      swap1\n      return\n        /* \"contracts/staking/StakingRewards.sol\":4266:5013  function withdraw(uint256 amount)... */\n    tag_13:\n      tag_75\n      0x04\n      dup1\n      calldatasize\n      sub\n      0x20\n      dup2\n      lt\n      iszero\n      tag_76\n      jumpi\n      0x00\n      dup1\n      revert\n    tag_76:\n      dup2\n      add\n      swap1\n      dup1\n      dup1\n      calldataload\n      swap1\n      0x20\n      add\n      swap1\n      swap3\n      swap2\n      swap1\n      pop\n      pop\n      pop\n      tag_77\n      jump\t// in\n    tag_75:\n      stop\n        /* \"contracts/staking/StakingRewards.sol\":5746:6069  function recoverOwnStake() external failsafeMode {... */\n    tag_14:\n      tag_78\n      tag_79\n      jump\t// in\n    tag_78:\n      stop\n        /* \"contracts/staking/StakingRewards.sol\":960:1010  uint256 public override rewardsDuration = 180 days */\n    tag_15:\n      tag_80\n      tag_81\n      jump\t// in\n    tag_80:\n      mload(0x40)\n      dup1\n      dup3\n      dup2\n      mstore\n      0x20\n      add\n      swap2\n      pop\n      pop\n      mload(0x40)\n      dup1\n      swap2\n      sub\n      swap1\n      return\n        /* \"contracts/staking/StakingRewards.sol\":6129:7294  function notifyRewardAmount(uint256 reward)... */\n    tag_16:\n      tag_82\n      0x04\n      dup1\n      calldatasize\n      sub\n      0x20\n      dup2\n      lt\n      iszero\n      tag_83\n      jumpi\n      0x00\n      dup1\n      revert\n    tag_83:\n      dup2\n      add\n      swap1\n      dup1\n      dup1\n      calldataload\n      swap1\n      0x20\n      add\n      swap1\n      swap3\n      swap2\n      swap1\n      pop\n      pop\n      pop\n      tag_84\n      jump\t// in\n    tag_82:\n      stop\n        /* \"contracts/staking/StakingRewards.sol\":5019:5620  function getReward()... */\n    tag_17:\n      tag_85\n      tag_86\n      jump\t// in\n    tag_85:\n      stop\n        /* \"contracts/staking/RewardsDistributionRecipient.sol\":210:244  address public rewardsDistribution */\n    tag_18:\n      tag_87\n      tag_88\n      jump\t// in\n    tag_87:\n      mload(0x40)\n      dup1\n      dup3\n      0xffffffffffffffffffffffffffffffffffffffff\n      and\n      dup2\n      mstore\n      0x20\n      add\n      swap2\n      pop\n      pop\n      mload(0x40)\n      dup1\n      swap2\n      sub\n      swap1\n      return\n        /* \"contracts/staking/StakingRewards.sol\":8965:9462  function recoverExtraStakingTokensToOwner() external onlyOwner {... */\n    tag_19:\n      tag_89\n      tag_90\n      jump\t// in\n    tag_89:\n      stop\n        /* \"contracts/staking/Owned.sol\":134:163  address public nominatedOwner */\n    tag_20:\n      tag_91\n      tag_92\n      jump\t// in\n    tag_91:\n      mload(0x40)\n      dup1\n      dup3\n      0xffffffffffffffffffffffffffffffffffffffff\n      and\n      dup2\n      mstore\n      0x20\n      add\n      swap2\n      pop\n      pop\n      mload(0x40)\n      dup1\n      swap2\n      sub\n      swap1\n      return\n        /* \"contracts/staking/StakingRewards.sol\":7336:7636  function updatePeriodFinish(uint256 timestamp)... */\n    tag_21:\n      tag_93\n      0x04\n      dup1\n      calldatasize\n      sub\n      0x20\n      dup2\n      lt\n      iszero\n      tag_94\n      jumpi\n      0x00\n      dup1\n      revert\n    tag_94:\n      dup2\n      add\n      swap1\n      dup1\n      dup1\n      calldataload\n      swap1\n      0x20\n      add\n      swap1\n      swap3\n      swap2\n      swap1\n      pop\n      pop\n      pop\n      tag_95\n      jump\t// in\n    tag_93:\n      stop\n        /* \"contracts/staking/SynthetixPausable.sol\":213:231  bool public paused */\n    tag_22:\n      tag_96\n      tag_97\n      jump\t// in\n    tag_96:\n      mload(0x40)\n      dup1\n      dup3\n      iszero\n      iszero\n      dup2\n      mstore\n      0x20\n      add\n      swap2\n      pop\n      pop\n      mload(0x40)\n      dup1\n      swap2\n      sub\n      swap1\n      return\n        /* \"contracts/staking/StakingRewards.sol\":1985:2140  function balanceOf(address account)... */\n    tag_23:\n      tag_98\n      0x04\n      dup1\n      calldatasize\n      sub\n      0x20\n      dup2\n      lt\n      iszero\n      tag_99\n      jumpi\n      0x00\n      dup1\n      revert\n    tag_99:\n      dup2\n      add\n      swap1\n      dup1\n      dup1\n      calldataload\n      0xffffffffffffffffffffffffffffffffffffffff\n      and\n      swap1\n      0x20\n      add\n      swap1\n      swap3\n      swap2\n      swap1\n      pop\n      pop\n      pop\n      tag_100\n      jump\t// in\n    tag_98:\n      mload(0x40)\n      dup1\n      dup3\n      dup2\n      mstore\n      0x20\n      add\n      swap2\n      pop\n      pop\n      mload(0x40)\n      dup1\n      swap2\n      sub\n      swap1\n      return\n        /* \"contracts/staking/StakingRewards.sol\":847:873  IERC20 public stakingToken */\n    tag_24:\n      tag_101\n      tag_102\n      jump\t// in\n    tag_101:\n      mload(0x40)\n      dup1\n      dup3\n      0xffffffffffffffffffffffffffffffffffffffff\n      and\n      dup2\n      mstore\n      0x20\n      add\n      swap2\n      pop\n      pop\n      mload(0x40)\n      dup1\n      swap2\n      sub\n      swap1\n      return\n        /* \"contracts/staking/Owned.sol\":501:801  function acceptOwnership() external {... */\n    tag_25:\n      tag_103\n      tag_104\n      jump\t// in\n    tag_103:\n      stop\n        /* \"contracts/staking/StakingRewards.sol\":916:954  uint256 public override rewardRate = 0 */\n    tag_26:\n      tag_105\n      tag_106\n      jump\t// in\n    tag_105:\n      mload(0x40)\n      dup1\n      dup3\n      dup2\n      mstore\n      0x20\n      add\n      swap2\n      pop\n      pop\n      mload(0x40)\n      dup1\n      swap2\n      sub\n      swap1\n      return\n        /* \"contracts/staking/StakingRewards.sol\":2146:2284  function lastTimeRewardApplicable() public view override returns (uint256) {... */\n    tag_27:\n      tag_107\n      tag_108\n      jump\t// in\n    tag_107:\n      mload(0x40)\n      dup1\n      dup3\n      dup2\n      mstore\n      0x20\n      add\n      swap2\n      pop\n      pop\n      mload(0x40)\n      dup1\n      swap2\n      sub\n      swap1\n      return\n        /* \"contracts/staking/StakingRewards.sol\":7748:8100  function recoverERC20(address tokenAddress, uint256 tokenAmount)... */\n    tag_28:\n      tag_109\n      0x04\n      dup1\n      calldatasize\n      sub\n      0x40\n      dup2\n      lt\n      iszero\n      tag_110\n      jumpi\n      0x00\n      dup1\n      revert\n    tag_110:\n      dup2\n      add\n      swap1\n      dup1\n      dup1\n      calldataload\n      0xffffffffffffffffffffffffffffffffffffffff\n      and\n      swap1\n      0x20\n      add\n      swap1\n      swap3\n      swap2\n      swap1\n      dup1\n      calldataload\n      swap1\n      0x20\n      add\n      swap1\n      swap3\n      swap2\n      swap1\n      pop\n      pop\n      pop\n      tag_111\n      jump\t// in\n    tag_109:\n      stop\n        /* \"contracts/staking/StakingRewards.sol\":1139:1196  mapping(address => uint256) public userRewardPerTokenPaid */\n    tag_29:\n      tag_112\n      0x04\n      dup1\n      calldatasize\n      sub\n      0x20\n      dup2\n      lt\n      iszero\n      tag_113\n      jumpi\n      0x00\n      dup1\n      revert\n    tag_113:\n      dup2\n      add\n      swap1\n      dup1\n      dup1\n      calldataload\n      0xffffffffffffffffffffffffffffffffffffffff\n      and\n      swap1\n      0x20\n      add\n      swap1\n      swap3\n      swap2\n      swap1\n      pop\n      pop\n      pop\n      tag_114\n      jump\t// in\n    tag_112:\n      mload(0x40)\n      dup1\n      dup3\n      dup2\n      mstore\n      0x20\n      add\n      swap2\n      pop\n      pop\n      mload(0x40)\n      dup1\n      swap2\n      sub\n      swap1\n      return\n        /* \"contracts/staking/Owned.sol\":108:128  address public owner */\n    tag_30:\n      tag_115\n      tag_116\n      jump\t// in\n    tag_115:\n      mload(0x40)\n      dup1\n      dup3\n      0xffffffffffffffffffffffffffffffffffffffff\n      and\n      dup2\n      mstore\n      0x20\n      add\n      swap2\n      pop\n      pop\n      mload(0x40)\n      dup1\n      swap2\n      sub\n      swap1\n      return\n        /* \"contracts/staking/SynthetixPausable.sol\":179:207  uint256 public lastPauseTime */\n    tag_31:\n      tag_117\n      tag_118\n      jump\t// in\n    tag_117:\n      mload(0x40)\n      dup1\n      dup3\n      dup2\n      mstore\n      0x20\n      add\n      swap2\n      pop\n      pop\n      mload(0x40)\n      dup1\n      swap2\n      sub\n      swap1\n      return\n        /* \"contracts/staking/StakingRewards.sol\":3698:4260  function stake(uint256 amount)... */\n    tag_32:\n      tag_119\n      0x04\n      dup1\n      calldatasize\n      sub\n      0x20\n      dup2\n      lt\n      iszero\n      tag_120\n      jumpi\n      0x00\n      dup1\n      revert\n    tag_120:\n      dup2\n      add\n      swap1\n      dup1\n      dup1\n      calldataload\n      swap1\n      0x20\n      add\n      swap1\n      swap3\n      swap2\n      swap1\n      pop\n      pop\n      pop\n      tag_121\n      jump\t// in\n    tag_119:\n      stop\n        /* \"contracts/staking/StakingRewards.sol\":1062:1091  uint256 public lastUpdateTime */\n    tag_33:\n      tag_122\n      tag_123\n      jump\t// in\n    tag_122:\n      mload(0x40)\n      dup1\n      dup3\n      dup2\n      mstore\n      0x20\n      add\n      swap2\n      pop\n      pop\n      mload(0x40)\n      dup1\n      swap2\n      sub\n      swap1\n      return\n        /* \"contracts/staking/StakingRewards.sol\":8106:8498  function setRewardsDuration(uint256 _rewardsDuration)... */\n    tag_34:\n      tag_124\n      0x04\n      dup1\n      calldatasize\n      sub\n      0x20\n      dup2\n      lt\n      iszero\n      tag_125\n      jumpi\n      0x00\n      dup1\n      revert\n    tag_125:\n      dup2\n      add\n      swap1\n      dup1\n      dup1\n      calldataload\n      swap1\n      0x20\n      add\n      swap1\n      swap3\n      swap2\n      swap1\n      pop\n      pop\n      pop\n      tag_126\n      jump\t// in\n    tag_124:\n      stop\n        /* \"contracts/staking/StakingRewards.sol\":2290:2705  function rewardPerToken() public view override returns (uint256) {... */\n    tag_35:\n      tag_127\n      tag_128\n      jump\t// in\n    tag_127:\n      mload(0x40)\n      dup1\n      dup3\n      dup2\n      mstore\n      0x20\n      add\n      swap2\n      pop\n      pop\n      mload(0x40)\n      dup1\n      swap2\n      sub\n      swap1\n      return\n        /* \"contracts/staking/StakingRewards.sol\":815:841  IERC20 public rewardsToken */\n    tag_36:\n      tag_129\n      tag_130\n      jump\t// in\n    tag_129:\n      mload(0x40)\n      dup1\n      dup3\n      0xffffffffffffffffffffffffffffffffffffffff\n      and\n      dup2\n      mstore\n      0x20\n      add\n      swap2\n      pop\n      pop\n      mload(0x40)\n      dup1\n      swap2\n      sub\n      swap1\n      return\n        /* \"contracts/staking/StakingRewards.sol\":1097:1132  uint256 public rewardPerTokenStored */\n    tag_37:\n      tag_131\n      tag_132\n      jump\t// in\n    tag_131:\n      mload(0x40)\n      dup1\n      dup3\n      dup2\n      mstore\n      0x20\n      add\n      swap2\n      pop\n      pop\n      mload(0x40)\n      dup1\n      swap2\n      sub\n      swap1\n      return\n        /* \"contracts/staking/StakingRewards.sol\":8734:8959  function enableFailsafeMode() public override normalMode onlyOwner {... */\n    tag_38:\n      tag_133\n      tag_134\n      jump\t// in\n    tag_133:\n      stop\n        /* \"contracts/staking/StakingRewards.sol\":8504:8728  function setMinimumStakeTime(uint256 _minimumStakeTime)... */\n    tag_39:\n      tag_135\n      0x04\n      dup1\n      calldatasize\n      sub\n      0x20\n      dup2\n      lt\n      iszero\n      tag_136\n      jumpi\n      0x00\n      dup1\n      revert\n    tag_136:\n      dup2\n      add\n      swap1\n      dup1\n      dup1\n      calldataload\n      swap1\n      0x20\n      add\n      swap1\n      swap3\n      swap2\n      swap1\n      pop\n      pop\n      pop\n      tag_137\n      jump\t// in\n    tag_135:\n      stop\n        /* \"contracts/staking/StakingRewards.sol\":5626:5740  function exit() external override normalMode {... */\n    tag_40:\n      tag_138\n      tag_139\n      jump\t// in\n    tag_138:\n      stop\n        /* \"contracts/staking/StakingRewards.sol\":879:910  uint256 public periodFinish = 0 */\n    tag_41:\n      tag_140\n      tag_141\n      jump\t// in\n    tag_140:\n      mload(0x40)\n      dup1\n      dup3\n      dup2\n      mstore\n      0x20\n      add\n      swap2\n      pop\n      pop\n      mload(0x40)\n      dup1\n      swap2\n      sub\n      swap1\n      return\n        /* \"contracts/staking/StakingRewards.sol\":3367:3640  function getStakeUnlockTimeLeft() external override view returns (uint256) {... */\n    tag_42:\n      tag_142\n      tag_143\n      jump\t// in\n    tag_142:\n      mload(0x40)\n      dup1\n      dup3\n      dup2\n      mstore\n      0x20\n      add\n      swap2\n      pop\n      pop\n      mload(0x40)\n      dup1\n      swap2\n      sub\n      swap1\n      return\n        /* \"contracts/staking/StakingRewards.sol\":2711:2979  function earned(address account) public view override returns (uint256) {... */\n    tag_52:\n        /* \"contracts/staking/StakingRewards.sol\":2774:2781  uint256 */\n      0x00\n        /* \"contracts/staking/StakingRewards.sol\":2812:2972  _balances[account]... */\n      tag_145\n        /* \"contracts/staking/StakingRewards.sol\":2955:2962  rewards */\n      0x0f\n        /* \"contracts/staking/StakingRewards.sol\":2955:2971  rewards[account] */\n      0x00\n        /* \"contracts/staking/StakingRewards.sol\":2963:2970  account */\n      dup5\n        /* \"contracts/staking/StakingRewards.sol\":2955:2971  rewards[account] */\n      0xffffffffffffffffffffffffffffffffffffffff\n      and\n      0xffffffffffffffffffffffffffffffffffffffff\n      and\n      dup2\n      mstore\n      0x20\n      add\n      swap1\n      dup2\n      mstore\n      0x20\n      add\n      0x00\n      keccak256\n      sload\n        /* \"contracts/staking/StakingRewards.sol\":2812:2933  _balances[account]... */\n      tag_146\n        /* \"contracts/staking/StakingRewards.sol\":2928:2932  1e18 */\n      0x0de0b6b3a7640000\n        /* \"contracts/staking/StakingRewards.sol\":2812:2906  _balances[account]... */\n      tag_147\n        /* \"contracts/staking/StakingRewards.sol\":2852:2905  rewardPerToken().sub(userRewardPerTokenPaid[account]) */\n      tag_148\n        /* \"contracts/staking/StakingRewards.sol\":2873:2895  userRewardPerTokenPaid */\n      0x0e\n        /* \"contracts/staking/StakingRewards.sol\":2873:2904  userRewardPerTokenPaid[account] */\n      0x00\n        /* \"contracts/staking/StakingRewards.sol\":2896:2903  account */\n      dup10\n        /* \"contracts/staking/StakingRewards.sol\":2873:2904  userRewardPerTokenPaid[account] */\n      0xffffffffffffffffffffffffffffffffffffffff\n      and\n      0xffffffffffffffffffffffffffffffffffffffff\n      and\n      dup2\n      mstore\n      0x20\n      add\n      swap1\n      dup2\n      mstore\n      0x20\n      add\n      0x00\n      keccak256\n      sload\n        /* \"contracts/staking/StakingRewards.sol\":2852:2868  rewardPerToken() */\n      tag_149\n        /* \"contracts/staking/StakingRewards.sol\":2852:2866  rewardPerToken */\n      tag_128\n        /* \"contracts/staking/StakingRewards.sol\":2852:2868  rewardPerToken() */\n      jump\t// in\n    tag_149:\n        /* \"contracts/staking/StakingRewards.sol\":2852:2872  rewardPerToken().sub */\n      tag_150\n      swap1\n        /* \"contracts/staking/StakingRewards.sol\":2852:2905  rewardPerToken().sub(userRewardPerTokenPaid[account]) */\n      swap2\n      swap1\n      0xffffffff\n      and\n      jump\t// in\n    tag_148:\n        /* \"contracts/staking/StakingRewards.sol\":2812:2821  _balances */\n      0x11\n        /* \"contracts/staking/StakingRewards.sol\":2812:2830  _balances[account] */\n      0x00\n        /* \"contracts/staking/StakingRewards.sol\":2822:2829  account */\n      dup10\n        /* \"contracts/staking/StakingRewards.sol\":2812:2830  _balances[account] */\n      0xffffffffffffffffffffffffffffffffffffffff\n      and\n      0xffffffffffffffffffffffffffffffffffffffff\n      and\n      dup2\n      mstore\n      0x20\n      add\n      swap1\n      dup2\n      mstore\n      0x20\n      add\n      0x00\n      keccak256\n      sload\n        /* \"contracts/staking/StakingRewards.sol\":2812:2851  _balances[account]... */\n      tag_151\n      swap1\n        /* \"contracts/staking/StakingRewards.sol\":2812:2906  _balances[account]... */\n      swap2\n      swap1\n      0xffffffff\n      and\n      jump\t// in\n    tag_147:\n        /* \"contracts/staking/StakingRewards.sol\":2812:2927  _balances[account]... */\n      tag_152\n      swap1\n        /* \"contracts/staking/StakingRewards.sol\":2812:2933  _balances[account]... */\n      swap2\n      swap1\n      0xffffffff\n      and\n      jump\t// in\n    tag_146:\n        /* \"contracts/staking/StakingRewards.sol\":2812:2954  _balances[account]... */\n      tag_153\n      swap1\n        /* \"contracts/staking/StakingRewards.sol\":2812:2972  _balances[account]... */\n      swap2\n      swap1\n      0xffffffff\n      and\n      jump\t// in\n    tag_145:\n        /* \"contracts/staking/StakingRewards.sol\":2793:2972  return... */\n      swap1\n      pop\n        /* \"contracts/staking/StakingRewards.sol\":2711:2979  function earned(address account) public view override returns (uint256) {... */\n      swap2\n      swap1\n      pop\n      jump\t// out\n        /* \"contracts/staking/StakingRewards.sol\":1202:1244  mapping(address => uint256) public rewards */\n    tag_55:\n      mstore(0x20, 0x0f)\n      dup1\n      0x00\n      mstore\n      keccak256(0x00, 0x40)\n      0x00\n      swap2\n      pop\n      swap1\n      pop\n      sload\n      dup2\n      jump\t// out\n        /* \"contracts/staking/Failsafe.sol\":90:128  bool public failsafeModeActive = false */\n    tag_57:\n      0x04\n      0x00\n      swap1\n      sload\n      swap1\n      0x0100\n      exp\n      swap1\n      div\n      0xff\n      and\n      dup2\n      jump\t// out\n        /* \"contracts/staking/Owned.sol\":357:495  function nominateNewOwner(address _owner) external onlyOwner {... */\n    tag_60:\n        /* \"contracts/staking/Owned.sol\":836:848  _onlyOwner() */\n      tag_155\n        /* \"contracts/staking/Owned.sol\":836:846  _onlyOwner */\n      tag_156\n        /* \"contracts/staking/Owned.sol\":836:848  _onlyOwner() */\n      jump\t// in\n    tag_155:\n        /* \"contracts/staking/Owned.sol\":445:451  _owner */\n      dup1\n        /* \"contracts/staking/Owned.sol\":428:442  nominatedOwner */\n      0x01\n      0x00\n        /* \"contracts/staking/Owned.sol\":428:451  nominatedOwner = _owner */\n      0x0100\n      exp\n      dup2\n      sload\n      dup2\n      0xffffffffffffffffffffffffffffffffffffffff\n      mul\n      not\n      and\n      swap1\n      dup4\n      0xffffffffffffffffffffffffffffffffffffffff\n      and\n      mul\n      or\n      swap1\n      sstore\n      pop\n        /* \"contracts/staking/Owned.sol\":466:488  OwnerNominated(_owner) */\n      0x906a1c6bd7e3091ea86693dd029a831c19049ce77f1dce2ce0bab1cacbabce22\n        /* \"contracts/staking/Owned.sol\":481:487  _owner */\n      dup2\n        /* \"contracts/staking/Owned.sol\":466:488  OwnerNominated(_owner) */\n      mload(0x40)\n      dup1\n      dup3\n      0xffffffffffffffffffffffffffffffffffffffff\n      and\n      dup2\n      mstore\n      0x20\n      add\n      swap2\n      pop\n      pop\n      mload(0x40)\n      dup1\n      swap2\n      sub\n      swap1\n      log1\n        /* \"contracts/staking/Owned.sol\":357:495  function nominateNewOwner(address _owner) external onlyOwner {... */\n      pop\n      jump\t// out\n        /* \"contracts/staking/SynthetixPausable.sol\":615:1087  function setPaused(bool _paused) external onlyOwner {... */\n    tag_63:\n        /* \"contracts/staking/Owned.sol\":836:848  _onlyOwner() */\n      tag_159\n        /* \"contracts/staking/Owned.sol\":836:846  _onlyOwner */\n      tag_156\n        /* \"contracts/staking/Owned.sol\":836:848  _onlyOwner() */\n      jump\t// in\n    tag_159:\n        /* \"contracts/staking/SynthetixPausable.sol\":766:772  paused */\n      0x06\n      0x00\n      swap1\n      sload\n      swap1\n      0x0100\n      exp\n      swap1\n      div\n      0xff\n      and\n        /* \"contracts/staking/SynthetixPausable.sol\":755:772  _paused == paused */\n      iszero\n      iszero\n        /* \"contracts/staking/SynthetixPausable.sol\":755:762  _paused */\n      dup2\n        /* \"contracts/staking/SynthetixPausable.sol\":755:772  _paused == paused */\n      iszero\n      iszero\n      eq\n        /* \"contracts/staking/SynthetixPausable.sol\":751:805  if (_paused == paused) {... */\n      iszero\n      tag_161\n      jumpi\n        /* \"contracts/staking/SynthetixPausable.sol\":788:795  return; */\n      jump(tag_160)\n        /* \"contracts/staking/SynthetixPausable.sol\":751:805  if (_paused == paused) {... */\n    tag_161:\n        /* \"contracts/staking/SynthetixPausable.sol\":857:864  _paused */\n      dup1\n        /* \"contracts/staking/SynthetixPausable.sol\":848:854  paused */\n      0x06\n      0x00\n        /* \"contracts/staking/SynthetixPausable.sol\":848:864  paused = _paused */\n      0x0100\n      exp\n      dup2\n      sload\n      dup2\n      0xff\n      mul\n      not\n      and\n      swap1\n      dup4\n      iszero\n      iszero\n      mul\n      or\n      swap1\n      sstore\n      pop\n        /* \"contracts/staking/SynthetixPausable.sol\":930:936  paused */\n      0x06\n      0x00\n      swap1\n      sload\n      swap1\n      0x0100\n      exp\n      swap1\n      div\n      0xff\n      and\n        /* \"contracts/staking/SynthetixPausable.sol\":926:982  if (paused) {... */\n      iszero\n      tag_162\n      jumpi\n        /* \"contracts/staking/SynthetixPausable.sol\":968:971  now */\n      timestamp\n        /* \"contracts/staking/SynthetixPausable.sol\":952:965  lastPauseTime */\n      0x05\n        /* \"contracts/staking/SynthetixPausable.sol\":952:971  lastPauseTime = now */\n      dup2\n      swap1\n      sstore\n      pop\n        /* \"contracts/staking/SynthetixPausable.sol\":926:982  if (paused) {... */\n    tag_162:\n        /* \"contracts/staking/SynthetixPausable.sol\":1060:1080  PauseChanged(paused) */\n      0x8fb6c181ee25a520cf3dd6565006ef91229fcfe5a989566c2a3b8c115570cec5\n        /* \"contracts/staking/SynthetixPausable.sol\":1073:1079  paused */\n      0x06\n      0x00\n      swap1\n      sload\n      swap1\n      0x0100\n      exp\n      swap1\n      div\n      0xff\n      and\n        /* \"contracts/staking/SynthetixPausable.sol\":1060:1080  PauseChanged(paused) */\n      mload(0x40)\n      dup1\n      dup3\n      iszero\n      iszero\n      dup2\n      mstore\n      0x20\n      add\n      swap2\n      pop\n      pop\n      mload(0x40)\n      dup1\n      swap2\n      sub\n      swap1\n      log1\n        /* \"contracts/staking/Owned.sol\":858:859  _ */\n    tag_160:\n        /* \"contracts/staking/SynthetixPausable.sol\":615:1087  function setPaused(bool _paused) external onlyOwner {... */\n      pop\n      jump\t// out\n        /* \"contracts/staking/StakingRewards.sol\":1879:1979  function totalSupply() external view override returns (uint256) {... */\n    tag_65:\n        /* \"contracts/staking/StakingRewards.sol\":1934:1941  uint256 */\n      0x00\n        /* \"contracts/staking/StakingRewards.sol\":1960:1972  _totalSupply */\n      sload(0x10)\n        /* \"contracts/staking/StakingRewards.sol\":1953:1972  return _totalSupply */\n      swap1\n      pop\n        /* \"contracts/staking/StakingRewards.sol\":1879:1979  function totalSupply() external view override returns (uint256) {... */\n      swap1\n      jump\t// out\n        /* \"contracts/staking/RewardsDistributionRecipient.sol\":509:669  function setRewardsDistribution(address _rewardsDistribution)... */\n    tag_68:\n        /* \"contracts/staking/Owned.sol\":836:848  _onlyOwner() */\n      tag_165\n        /* \"contracts/staking/Owned.sol\":836:846  _onlyOwner */\n      tag_156\n        /* \"contracts/staking/Owned.sol\":836:848  _onlyOwner() */\n      jump\t// in\n    tag_165:\n        /* \"contracts/staking/RewardsDistributionRecipient.sol\":642:662  _rewardsDistribution */\n      dup1\n        /* \"contracts/staking/RewardsDistributionRecipient.sol\":620:639  rewardsDistribution */\n      0x02\n      0x00\n        /* \"contracts/staking/RewardsDistributionRecipient.sol\":620:662  rewardsDistribution = _rewardsDistribution */\n      0x0100\n      exp\n      dup2\n      sload\n      dup2\n      0xffffffffffffffffffffffffffffffffffffffff\n      mul\n      not\n      and\n      swap1\n      dup4\n      0xffffffffffffffffffffffffffffffffffffffff\n      and\n      mul\n      or\n      swap1\n      sstore\n      pop\n        /* \"contracts/staking/RewardsDistributionRecipient.sol\":509:669  function setRewardsDistribution(address _rewardsDistribution)... */\n      pop\n      jump\t// out\n        /* \"contracts/staking/StakingRewards.sol\":2985:3113  function getRewardForDuration() external view override returns (uint256) {... */\n    tag_70:\n        /* \"contracts/staking/StakingRewards.sol\":3049:3056  uint256 */\n      0x00\n        /* \"contracts/staking/StakingRewards.sol\":3075:3106  rewardRate.mul(rewardsDuration) */\n      tag_168\n        /* \"contracts/staking/StakingRewards.sol\":3090:3105  rewardsDuration */\n      sload(0x0a)\n        /* \"contracts/staking/StakingRewards.sol\":3075:3085  rewardRate */\n      sload(0x09)\n        /* \"contracts/staking/StakingRewards.sol\":3075:3089  rewardRate.mul */\n      tag_151\n      swap1\n        /* \"contracts/staking/StakingRewards.sol\":3075:3106  rewardRate.mul(rewardsDuration) */\n      swap2\n      swap1\n      0xffffffff\n      and\n      jump\t// in\n    tag_168:\n        /* \"contracts/staking/StakingRewards.sol\":3068:3106  return rewardRate.mul(rewardsDuration) */\n      swap1\n      pop\n        /* \"contracts/staking/StakingRewards.sol\":2985:3113  function getRewardForDuration() external view override returns (uint256) {... */\n      swap1\n      jump\t// out\n        /* \"contracts/staking/StakingRewards.sol\":1016:1056  uint256 public override minimumStakeTime */\n    tag_72:\n      sload(0x0b)\n      dup2\n      jump\t// out\n        /* \"contracts/staking/StakingRewards.sol\":3119:3361  function getStakeRewardDistributionTimeLeft()... */\n    tag_74:\n        /* \"contracts/staking/StakingRewards.sol\":3229:3236  uint256 */\n      0x00\n        /* \"contracts/staking/StakingRewards.sol\":3253:3265  bool success */\n      dup1\n        /* \"contracts/staking/StakingRewards.sol\":3267:3279  uint256 diff */\n      0x00\n        /* \"contracts/staking/StakingRewards.sol\":3283:3319  periodFinish.trySub(block.timestamp) */\n      tag_170\n        /* \"contracts/staking/StakingRewards.sol\":3303:3318  block.timestamp */\n      timestamp\n        /* \"contracts/staking/StakingRewards.sol\":3283:3295  periodFinish */\n      sload(0x08)\n        /* \"contracts/staking/StakingRewards.sol\":3283:3302  periodFinish.trySub */\n      tag_171\n      swap1\n        /* \"contracts/staking/StakingRewards.sol\":3283:3319  periodFinish.trySub(block.timestamp) */\n      swap2\n      swap1\n      0xffffffff\n      and\n      jump\t// in\n    tag_170:\n        /* \"contracts/staking/StakingRewards.sol\":3252:3319  (bool success, uint256 diff) = periodFinish.trySub(block.timestamp) */\n      swap2\n      pop\n      swap2\n      pop\n        /* \"contracts/staking/StakingRewards.sol\":3336:3343  success */\n      dup2\n        /* \"contracts/staking/StakingRewards.sol\":3336:3354  success ? diff : 0 */\n      tag_172\n      jumpi\n        /* \"contracts/staking/StakingRewards.sol\":3353:3354  0 */\n      0x00\n        /* \"contracts/staking/StakingRewards.sol\":3336:3354  success ? diff : 0 */\n      jump(tag_173)\n    tag_172:\n        /* \"contracts/staking/StakingRewards.sol\":3346:3350  diff */\n      dup1\n        /* \"contracts/staking/StakingRewards.sol\":3336:3354  success ? diff : 0 */\n    tag_173:\n        /* \"contracts/staking/StakingRewards.sol\":3329:3354  return success ? diff : 0 */\n      swap3\n      pop\n      pop\n      pop\n        /* \"contracts/staking/StakingRewards.sol\":3119:3361  function getStakeRewardDistributionTimeLeft()... */\n      swap1\n      jump\t// out\n        /* \"contracts/staking/StakingRewards.sol\":4266:5013  function withdraw(uint256 amount)... */\n    tag_77:\n        /* \"contracts/staking/Failsafe.sol\":455:473  failsafeModeActive */\n      0x04\n      0x00\n      swap1\n      sload\n      swap1\n      0x0100\n      exp\n      swap1\n      div\n      0xff\n      and\n        /* \"contracts/staking/Failsafe.sol\":454:473  !failsafeModeActive */\n      iszero\n        /* \"contracts/staking/Failsafe.sol\":433:569  require(... */\n      tag_175\n      jumpi\n      mload(0x40)\n      0x08c379a000000000000000000000000000000000000000000000000000000000\n      dup2\n      mstore\n      0x04\n      add\n      dup1\n      dup1\n      0x20\n      add\n      dup3\n      dup2\n      sub\n      dup3\n      mstore\n      0x46\n      dup2\n      mstore\n      0x20\n      add\n      dup1\n      data_2033a41bcffa5b8f92dc907d4af8bed97aa83db30ad47a9df6bd54b87ba115ba\n      0x46\n      swap2\n      codecopy\n      0x60\n      add\n      swap2\n      pop\n      pop\n      mload(0x40)\n      dup1\n      swap2\n      sub\n      swap1\n      revert\n    tag_175:\n        /* \"node_modules/@openzeppelin/contracts/utils/ReentrancyGuard.sol\":1688:1689  2 */\n      0x02\n        /* \"node_modules/@openzeppelin/contracts/utils/ReentrancyGuard.sol\":2277:2284  _status */\n      sload(0x03)\n        /* \"node_modules/@openzeppelin/contracts/utils/ReentrancyGuard.sol\":2277:2296  _status != _ENTERED */\n      eq\n      iszero\n        /* \"node_modules/@openzeppelin/contracts/utils/ReentrancyGuard.sol\":2269:2332  require(_status != _ENTERED, \"ReentrancyGuard: reentrant call\") */\n      tag_177\n      jumpi\n      mload(0x40)\n      0x08c379a000000000000000000000000000000000000000000000000000000000\n      dup2\n      mstore\n      0x04\n      add\n      dup1\n      dup1\n      0x20\n      add\n      dup3\n      dup2\n      sub\n      dup3\n      mstore\n      0x1f\n      dup2\n      mstore\n      0x20\n      add\n      dup1\n      0x5265656e7472616e637947756172643a207265656e7472616e742063616c6c00\n      dup2\n      mstore\n      pop\n      0x20\n      add\n      swap2\n      pop\n      pop\n      mload(0x40)\n      dup1\n      swap2\n      sub\n      swap1\n      revert\n    tag_177:\n        /* \"node_modules/@openzeppelin/contracts/utils/ReentrancyGuard.sol\":1688:1689  2 */\n      0x02\n        /* \"node_modules/@openzeppelin/contracts/utils/ReentrancyGuard.sol\":2407:2414  _status */\n      0x03\n        /* \"node_modules/@openzeppelin/contracts/utils/ReentrancyGuard.sol\":2407:2425  _status = _ENTERED */\n      dup2\n      swap1\n      sstore\n      pop\n        /* \"contracts/staking/StakingRewards.sol\":4393:4403  msg.sender */\n      caller\n        /* \"contracts/staking/StakingRewards.sol\":9565:9583  failsafeModeActive */\n      0x04\n      0x00\n      swap1\n      sload\n      swap1\n      0x0100\n      exp\n      swap1\n      div\n      0xff\n      and\n        /* \"contracts/staking/StakingRewards.sol\":9560:9885  if (!failsafeModeActive) {... */\n      tag_179\n      jumpi\n        /* \"contracts/staking/StakingRewards.sol\":9622:9638  rewardPerToken() */\n      tag_180\n        /* \"contracts/staking/StakingRewards.sol\":9622:9636  rewardPerToken */\n      tag_128\n        /* \"contracts/staking/StakingRewards.sol\":9622:9638  rewardPerToken() */\n      jump\t// in\n    tag_180:\n        /* \"contracts/staking/StakingRewards.sol\":9599:9619  rewardPerTokenStored */\n      0x0d\n        /* \"contracts/staking/StakingRewards.sol\":9599:9638  rewardPerTokenStored = rewardPerToken() */\n      dup2\n      swap1\n      sstore\n      pop\n        /* \"contracts/staking/StakingRewards.sol\":9669:9695  lastTimeRewardApplicable() */\n      tag_181\n        /* \"contracts/staking/StakingRewards.sol\":9669:9693  lastTimeRewardApplicable */\n      tag_108\n        /* \"contracts/staking/StakingRewards.sol\":9669:9695  lastTimeRewardApplicable() */\n      jump\t// in\n    tag_181:\n        /* \"contracts/staking/StakingRewards.sol\":9652:9666  lastUpdateTime */\n      0x0c\n        /* \"contracts/staking/StakingRewards.sol\":9652:9695  lastUpdateTime = lastTimeRewardApplicable() */\n      dup2\n      swap1\n      sstore\n      pop\n        /* \"contracts/staking/StakingRewards.sol\":9732:9733  0 */\n      0x00\n        /* \"contracts/staking/StakingRewards.sol\":9713:9734  account != address(0) */\n      0xffffffffffffffffffffffffffffffffffffffff\n      and\n        /* \"contracts/staking/StakingRewards.sol\":9713:9720  account */\n      dup2\n        /* \"contracts/staking/StakingRewards.sol\":9713:9734  account != address(0) */\n      0xffffffffffffffffffffffffffffffffffffffff\n      and\n      eq\n        /* \"contracts/staking/StakingRewards.sol\":9709:9875  if (account != address(0)) {... */\n      tag_182\n      jumpi\n        /* \"contracts/staking/StakingRewards.sol\":9773:9788  earned(account) */\n      tag_183\n        /* \"contracts/staking/StakingRewards.sol\":9780:9787  account */\n      dup2\n        /* \"contracts/staking/StakingRewards.sol\":9773:9779  earned */\n      tag_52\n        /* \"contracts/staking/StakingRewards.sol\":9773:9788  earned(account) */\n      jump\t// in\n    tag_183:\n        /* \"contracts/staking/StakingRewards.sol\":9754:9761  rewards */\n      0x0f\n        /* \"contracts/staking/StakingRewards.sol\":9754:9770  rewards[account] */\n      0x00\n        /* \"contracts/staking/StakingRewards.sol\":9762:9769  account */\n      dup4\n        /* \"contracts/staking/StakingRewards.sol\":9754:9770  rewards[account] */\n      0xffffffffffffffffffffffffffffffffffffffff\n      and\n      0xffffffffffffffffffffffffffffffffffffffff\n      and\n      dup2\n      mstore\n      0x20\n      add\n      swap1\n      dup2\n      mstore\n      0x20\n      add\n      0x00\n      keccak256\n        /* \"contracts/staking/StakingRewards.sol\":9754:9788  rewards[account] = earned(account) */\n      dup2\n      swap1\n      sstore\n      pop\n        /* \"contracts/staking/StakingRewards.sol\":9840:9860  rewardPerTokenStored */\n      sload(0x0d)\n        /* \"contracts/staking/StakingRewards.sol\":9806:9828  userRewardPerTokenPaid */\n      0x0e\n        /* \"contracts/staking/StakingRewards.sol\":9806:9837  userRewardPerTokenPaid[account] */\n      0x00\n        /* \"contracts/staking/StakingRewards.sol\":9829:9836  account */\n      dup4\n        /* \"contracts/staking/StakingRewards.sol\":9806:9837  userRewardPerTokenPaid[account] */\n      0xffffffffffffffffffffffffffffffffffffffff\n      and\n      0xffffffffffffffffffffffffffffffffffffffff\n      and\n      dup2\n      mstore\n      0x20\n      add\n      swap1\n      dup2\n      mstore\n      0x20\n      add\n      0x00\n      keccak256\n        /* \"contracts/staking/StakingRewards.sol\":9806:9860  userRewardPerTokenPaid[account] = rewardPerTokenStored */\n      dup2\n      swap1\n      sstore\n      pop\n        /* \"contracts/staking/StakingRewards.sol\":9709:9875  if (account != address(0)) {... */\n    tag_182:\n        /* \"contracts/staking/StakingRewards.sol\":9560:9885  if (!failsafeModeActive) {... */\n    tag_179:\n        /* \"contracts/staking/StakingRewards.sol\":4436:4437  0 */\n      0x00\n        /* \"contracts/staking/StakingRewards.sol\":4427:4433  amount */\n      dup3\n        /* \"contracts/staking/StakingRewards.sol\":4427:4437  amount > 0 */\n      gt\n        /* \"contracts/staking/StakingRewards.sol\":4419:4459  require(amount > 0, \"Cannot withdraw 0\") */\n      tag_185\n      jumpi\n      mload(0x40)\n      0x08c379a000000000000000000000000000000000000000000000000000000000\n      dup2\n      mstore\n      0x04\n      add\n      dup1\n      dup1\n      0x20\n      add\n      dup3\n      dup2\n      sub\n      dup3\n      mstore\n      0x11\n      dup2\n      mstore\n      0x20\n      add\n      dup1\n      0x43616e6e6f742077697468647261772030000000000000000000000000000000\n      dup2\n      mstore\n      pop\n      0x20\n      add\n      swap2\n      pop\n      pop\n      mload(0x40)\n      dup1\n      swap2\n      sub\n      swap1\n      revert\n    tag_185:\n        /* \"contracts/staking/StakingRewards.sol\":4510:4511  0 */\n      0x00\n        /* \"contracts/staking/StakingRewards.sol\":4490:4506  minimumStakeTime */\n      sload(0x0b)\n        /* \"contracts/staking/StakingRewards.sol\":4490:4511  minimumStakeTime == 0 */\n      eq\n        /* \"contracts/staking/StakingRewards.sol\":4490:4615  minimumStakeTime == 0 ||... */\n      dup1\n      tag_186\n      jumpi\n      pop\n        /* \"contracts/staking/StakingRewards.sol\":4599:4615  minimumStakeTime */\n      sload(0x0b)\n        /* \"contracts/staking/StakingRewards.sol\":4531:4579  block.timestamp.sub(_stakeTimestamp[msg.sender]) */\n      tag_187\n        /* \"contracts/staking/StakingRewards.sol\":4551:4566  _stakeTimestamp */\n      0x12\n        /* \"contracts/staking/StakingRewards.sol\":4551:4578  _stakeTimestamp[msg.sender] */\n      0x00\n        /* \"contracts/staking/StakingRewards.sol\":4567:4577  msg.sender */\n      caller\n        /* \"contracts/staking/StakingRewards.sol\":4551:4578  _stakeTimestamp[msg.sender] */\n      0xffffffffffffffffffffffffffffffffffffffff\n      and\n      0xffffffffffffffffffffffffffffffffffffffff\n      and\n      dup2\n      mstore\n      0x20\n      add\n      swap1\n      dup2\n      mstore\n      0x20\n      add\n      0x00\n      keccak256\n      sload\n        /* \"contracts/staking/StakingRewards.sol\":4531:4546  block.timestamp */\n      timestamp\n        /* \"contracts/staking/StakingRewards.sol\":4531:4550  block.timestamp.sub */\n      tag_150\n      swap1\n        /* \"contracts/staking/StakingRewards.sol\":4531:4579  block.timestamp.sub(_stakeTimestamp[msg.sender]) */\n      swap2\n      swap1\n      0xffffffff\n      and\n      jump\t// in\n    tag_187:\n        /* \"contracts/staking/StakingRewards.sol\":4531:4615  block.timestamp.sub(_stakeTimestamp[msg.sender]) >=... */\n      lt\n      iszero\n        /* \"contracts/staking/StakingRewards.sol\":4490:4615  minimumStakeTime == 0 ||... */\n    tag_186:\n        /* \"contracts/staking/StakingRewards.sol\":4469:4694  require(... */\n      tag_188\n      jumpi\n      mload(0x40)\n      0x08c379a000000000000000000000000000000000000000000000000000000000\n      dup2\n      mstore\n      0x04\n      add\n      dup1\n      dup1\n      0x20\n      add\n      dup3\n      dup2\n      sub\n      dup3\n      mstore\n      0x35\n      dup2\n      mstore\n      0x20\n      add\n      dup1\n      data_9ff4e18b87ef9882b8d15612007c8f8b8cf50b946e5a83fada595b3011a77783\n      0x35\n      swap2\n      codecopy\n      0x40\n      add\n      swap2\n      pop\n      pop\n      mload(0x40)\n      dup1\n      swap2\n      sub\n      swap1\n      revert\n    tag_188:\n        /* \"contracts/staking/StakingRewards.sol\":4719:4743  _totalSupply.sub(amount) */\n      tag_189\n        /* \"contracts/staking/StakingRewards.sol\":4736:4742  amount */\n      dup3\n        /* \"contracts/staking/StakingRewards.sol\":4719:4731  _totalSupply */\n      sload(0x10)\n        /* \"contracts/staking/StakingRewards.sol\":4719:4735  _totalSupply.sub */\n      tag_150\n      swap1\n        /* \"contracts/staking/StakingRewards.sol\":4719:4743  _totalSupply.sub(amount) */\n      swap2\n      swap1\n      0xffffffff\n      and\n      jump\t// in\n    tag_189:\n        /* \"contracts/staking/StakingRewards.sol\":4704:4716  _totalSupply */\n      0x10\n        /* \"contracts/staking/StakingRewards.sol\":4704:4743  _totalSupply = _totalSupply.sub(amount) */\n      dup2\n      swap1\n      sstore\n      pop\n        /* \"contracts/staking/StakingRewards.sol\":4777:4810  _balances[msg.sender].sub(amount) */\n      tag_190\n        /* \"contracts/staking/StakingRewards.sol\":4803:4809  amount */\n      dup3\n        /* \"contracts/staking/StakingRewards.sol\":4777:4786  _balances */\n      0x11\n        /* \"contracts/staking/StakingRewards.sol\":4777:4798  _balances[msg.sender] */\n      0x00\n        /* \"contracts/staking/StakingRewards.sol\":4787:4797  msg.sender */\n      caller\n        /* \"contracts/staking/StakingRewards.sol\":4777:4798  _balances[msg.sender] */\n      0xffffffffffffffffffffffffffffffffffffffff\n      and\n      0xffffffffffffffffffffffffffffffffffffffff\n      and\n      dup2\n      mstore\n      0x20\n      add\n      swap1\n      dup2\n      mstore\n      0x20\n      add\n      0x00\n      keccak256\n      sload\n        /* \"contracts/staking/StakingRewards.sol\":4777:4802  _balances[msg.sender].sub */\n      tag_150\n      swap1\n        /* \"contracts/staking/StakingRewards.sol\":4777:4810  _balances[msg.sender].sub(amount) */\n      swap2\n      swap1\n      0xffffffff\n      and\n      jump\t// in\n    tag_190:\n        /* \"contracts/staking/StakingRewards.sol\":4753:4762  _balances */\n      0x11\n        /* \"contracts/staking/StakingRewards.sol\":4753:4774  _balances[msg.sender] */\n      0x00\n        /* \"contracts/staking/StakingRewards.sol\":4763:4773  msg.sender */\n      caller\n        /* \"contracts/staking/StakingRewards.sol\":4753:4774  _balances[msg.sender] */\n      0xffffffffffffffffffffffffffffffffffffffff\n      and\n      0xffffffffffffffffffffffffffffffffffffffff\n      and\n      dup2\n      mstore\n      0x20\n      add\n      swap1\n      dup2\n      mstore\n      0x20\n      add\n      0x00\n      keccak256\n        /* \"contracts/staking/StakingRewards.sol\":4753:4810  _balances[msg.sender] = _balances[msg.sender].sub(amount) */\n      dup2\n      swap1\n      sstore\n      pop\n        /* \"contracts/staking/StakingRewards.sol\":4849:4850  0 */\n      0x00\n        /* \"contracts/staking/StakingRewards.sol\":4824:4833  _balances */\n      0x11\n        /* \"contracts/staking/StakingRewards.sol\":4824:4845  _balances[msg.sender] */\n      0x00\n        /* \"contracts/staking/StakingRewards.sol\":4834:4844  msg.sender */\n      caller\n        /* \"contracts/staking/StakingRewards.sol\":4824:4845  _balances[msg.sender] */\n      0xffffffffffffffffffffffffffffffffffffffff\n      and\n      0xffffffffffffffffffffffffffffffffffffffff\n      and\n      dup2\n      mstore\n      0x20\n      add\n      swap1\n      dup2\n      mstore\n      0x20\n      add\n      0x00\n      keccak256\n      sload\n        /* \"contracts/staking/StakingRewards.sol\":4824:4850  _balances[msg.sender] == 0 */\n      eq\n        /* \"contracts/staking/StakingRewards.sol\":4820:4908  if (_balances[msg.sender] == 0) {... */\n      iszero\n      tag_191\n      jumpi\n        /* \"contracts/staking/StakingRewards.sol\":4896:4897  0 */\n      0x00\n        /* \"contracts/staking/StakingRewards.sol\":4866:4881  _stakeTimestamp */\n      0x12\n        /* \"contracts/staking/StakingRewards.sol\":4866:4893  _stakeTimestamp[msg.sender] */\n      0x00\n        /* \"contracts/staking/StakingRewards.sol\":4882:4892  msg.sender */\n      caller\n        /* \"contracts/staking/StakingRewards.sol\":4866:4893  _stakeTimestamp[msg.sender] */\n      0xffffffffffffffffffffffffffffffffffffffff\n      and\n      0xffffffffffffffffffffffffffffffffffffffff\n      and\n      dup2\n      mstore\n      0x20\n      add\n      swap1\n      dup2\n      mstore\n      0x20\n      add\n      0x00\n      keccak256\n        /* \"contracts/staking/StakingRewards.sol\":4866:4897  _stakeTimestamp[msg.sender] = 0 */\n      dup2\n      swap1\n      sstore\n      pop\n        /* \"contracts/staking/StakingRewards.sol\":4820:4908  if (_balances[msg.sender] == 0) {... */\n    tag_191:\n        /* \"contracts/staking/StakingRewards.sol\":4917:4962  stakingToken.safeTransfer(msg.sender, amount) */\n      tag_192\n        /* \"contracts/staking/StakingRewards.sol\":4943:4953  msg.sender */\n      caller\n        /* \"contracts/staking/StakingRewards.sol\":4955:4961  amount */\n      dup4\n        /* \"contracts/staking/StakingRewards.sol\":4917:4929  stakingToken */\n      0x07\n      0x00\n      swap1\n      sload\n      swap1\n      0x0100\n      exp\n      swap1\n      div\n      0xffffffffffffffffffffffffffffffffffffffff\n      and\n        /* \"contracts/staking/StakingRewards.sol\":4917:4942  stakingToken.safeTransfer */\n      0xffffffffffffffffffffffffffffffffffffffff\n      and\n      tag_193\n      swap1\n        /* \"contracts/staking/StakingRewards.sol\":4917:4962  stakingToken.safeTransfer(msg.sender, amount) */\n      swap3\n      swap2\n      swap1\n      0xffffffff\n      and\n      jump\t// in\n    tag_192:\n        /* \"contracts/staking/StakingRewards.sol\":4987:4997  msg.sender */\n      caller\n        /* \"contracts/staking/StakingRewards.sol\":4977:5006  Withdrawn(msg.sender, amount) */\n      0xffffffffffffffffffffffffffffffffffffffff\n      and\n      0x7084f5476618d8e60b11ef0d7d3f06914655adb8793e28ff7f018d4c76d505d5\n        /* \"contracts/staking/StakingRewards.sol\":4999:5005  amount */\n      dup4\n        /* \"contracts/staking/StakingRewards.sol\":4977:5006  Withdrawn(msg.sender, amount) */\n      mload(0x40)\n      dup1\n      dup3\n      dup2\n      mstore\n      0x20\n      add\n      swap2\n      pop\n      pop\n      mload(0x40)\n      dup1\n      swap2\n      sub\n      swap1\n      log2\n        /* \"node_modules/@openzeppelin/contracts/utils/ReentrancyGuard.sol\":2436:2437  _ */\n      pop\n        /* \"node_modules/@openzeppelin/contracts/utils/ReentrancyGuard.sol\":1645:1646  1 */\n      0x01\n        /* \"node_modules/@openzeppelin/contracts/utils/ReentrancyGuard.sol\":2580:2587  _status */\n      0x03\n        /* \"node_modules/@openzeppelin/contracts/utils/ReentrancyGuard.sol\":2580:2602  _status = _NOT_ENTERED */\n      dup2\n      swap1\n      sstore\n      pop\n        /* \"contracts/staking/StakingRewards.sol\":4266:5013  function withdraw(uint256 amount)... */\n      pop\n      jump\t// out\n        /* \"contracts/staking/StakingRewards.sol\":5746:6069  function recoverOwnStake() external failsafeMode {... */\n    tag_79:\n        /* \"contracts/staking/Failsafe.sol\":646:664  failsafeModeActive */\n      0x04\n      0x00\n      swap1\n      sload\n      swap1\n      0x0100\n      exp\n      swap1\n      div\n      0xff\n      and\n        /* \"contracts/staking/Failsafe.sol\":625:762  require(... */\n      tag_195\n      jumpi\n      mload(0x40)\n      0x08c379a000000000000000000000000000000000000000000000000000000000\n      dup2\n      mstore\n      0x04\n      add\n      dup1\n      dup1\n      0x20\n      add\n      dup3\n      dup2\n      sub\n      dup3\n      mstore\n      0x48\n      dup2\n      mstore\n      0x20\n      add\n      dup1\n      data_234b4e3fb74b9596146eb86fb0ad9d7ebcb0382e8d6bce71f4dd166b01c5b9eb\n      0x48\n      swap2\n      codecopy\n      0x60\n      add\n      swap2\n      pop\n      pop\n      mload(0x40)\n      dup1\n      swap2\n      sub\n      swap1\n      revert\n    tag_195:\n        /* \"contracts/staking/StakingRewards.sol\":5805:5819  uint256 amount */\n      0x00\n        /* \"contracts/staking/StakingRewards.sol\":5822:5831  _balances */\n      0x11\n        /* \"contracts/staking/StakingRewards.sol\":5822:5843  _balances[msg.sender] */\n      0x00\n        /* \"contracts/staking/StakingRewards.sol\":5832:5842  msg.sender */\n      caller\n        /* \"contracts/staking/StakingRewards.sol\":5822:5843  _balances[msg.sender] */\n      0xffffffffffffffffffffffffffffffffffffffff\n      and\n      0xffffffffffffffffffffffffffffffffffffffff\n      and\n      dup2\n      mstore\n      0x20\n      add\n      swap1\n      dup2\n      mstore\n      0x20\n      add\n      0x00\n      keccak256\n      sload\n        /* \"contracts/staking/StakingRewards.sol\":5805:5843  uint256 amount = _balances[msg.sender] */\n      swap1\n      pop\n        /* \"contracts/staking/StakingRewards.sol\":5866:5867  0 */\n      0x00\n        /* \"contracts/staking/StakingRewards.sol\":5857:5863  amount */\n      dup2\n        /* \"contracts/staking/StakingRewards.sol\":5857:5867  amount > 0 */\n      gt\n        /* \"contracts/staking/StakingRewards.sol\":5853:6063  if (amount > 0) {... */\n      iszero\n      tag_197\n      jumpi\n        /* \"contracts/staking/StakingRewards.sol\":5898:5922  _totalSupply.sub(amount) */\n      tag_198\n        /* \"contracts/staking/StakingRewards.sol\":5915:5921  amount */\n      dup2\n        /* \"contracts/staking/StakingRewards.sol\":5898:5910  _totalSupply */\n      sload(0x10)\n        /* \"contracts/staking/StakingRewards.sol\":5898:5914  _totalSupply.sub */\n      tag_150\n      swap1\n        /* \"contracts/staking/StakingRewards.sol\":5898:5922  _totalSupply.sub(amount) */\n      swap2\n      swap1\n      0xffffffff\n      and\n      jump\t// in\n    tag_198:\n        /* \"contracts/staking/StakingRewards.sol\":5883:5895  _totalSupply */\n      0x10\n        /* \"contracts/staking/StakingRewards.sol\":5883:5922  _totalSupply = _totalSupply.sub(amount) */\n      dup2\n      swap1\n      sstore\n      pop\n        /* \"contracts/staking/StakingRewards.sol\":5960:5993  _balances[msg.sender].sub(amount) */\n      tag_199\n        /* \"contracts/staking/StakingRewards.sol\":5986:5992  amount */\n      dup2\n        /* \"contracts/staking/StakingRewards.sol\":5960:5969  _balances */\n      0x11\n        /* \"contracts/staking/StakingRewards.sol\":5960:5981  _balances[msg.sender] */\n      0x00\n        /* \"contracts/staking/StakingRewards.sol\":5970:5980  msg.sender */\n      caller\n        /* \"contracts/staking/StakingRewards.sol\":5960:5981  _balances[msg.sender] */\n      0xffffffffffffffffffffffffffffffffffffffff\n      and\n      0xffffffffffffffffffffffffffffffffffffffff\n      and\n      dup2\n      mstore\n      0x20\n      add\n      swap1\n      dup2\n      mstore\n      0x20\n      add\n      0x00\n      keccak256\n      sload\n        /* \"contracts/staking/StakingRewards.sol\":5960:5985  _balances[msg.sender].sub */\n      tag_150\n      swap1\n        /* \"contracts/staking/StakingRewards.sol\":5960:5993  _balances[msg.sender].sub(amount) */\n      swap2\n      swap1\n      0xffffffff\n      and\n      jump\t// in\n    tag_199:\n        /* \"contracts/staking/StakingRewards.sol\":5936:5945  _balances */\n      0x11\n        /* \"contracts/staking/StakingRewards.sol\":5936:5957  _balances[msg.sender] */\n      0x00\n        /* \"contracts/staking/StakingRewards.sol\":5946:5956  msg.sender */\n      caller\n        /* \"contracts/staking/StakingRewards.sol\":5936:5957  _balances[msg.sender] */\n      0xffffffffffffffffffffffffffffffffffffffff\n      and\n      0xffffffffffffffffffffffffffffffffffffffff\n      and\n      dup2\n      mstore\n      0x20\n      add\n      swap1\n      dup2\n      mstore\n      0x20\n      add\n      0x00\n      keccak256\n        /* \"contracts/staking/StakingRewards.sol\":5936:5993  _balances[msg.sender] = _balances[msg.sender].sub(amount) */\n      dup2\n      swap1\n      sstore\n      pop\n        /* \"contracts/staking/StakingRewards.sol\":6007:6052  stakingToken.safeTransfer(msg.sender, amount) */\n      tag_200\n        /* \"contracts/staking/StakingRewards.sol\":6033:6043  msg.sender */\n      caller\n        /* \"contracts/staking/StakingRewards.sol\":6045:6051  amount */\n      dup3\n        /* \"contracts/staking/StakingRewards.sol\":6007:6019  stakingToken */\n      0x07\n      0x00\n      swap1\n      sload\n      swap1\n      0x0100\n      exp\n      swap1\n      div\n      0xffffffffffffffffffffffffffffffffffffffff\n      and\n        /* \"contracts/staking/StakingRewards.sol\":6007:6032  stakingToken.safeTransfer */\n      0xffffffffffffffffffffffffffffffffffffffff\n      and\n      tag_193\n      swap1\n        /* \"contracts/staking/StakingRewards.sol\":6007:6052  stakingToken.safeTransfer(msg.sender, amount) */\n      swap3\n      swap2\n      swap1\n      0xffffffff\n      and\n      jump\t// in\n    tag_200:\n        /* \"contracts/staking/StakingRewards.sol\":5853:6063  if (amount > 0) {... */\n    tag_197:\n        /* \"contracts/staking/Failsafe.sol\":772:773  _ */\n      pop\n        /* \"contracts/staking/StakingRewards.sol\":5746:6069  function recoverOwnStake() external failsafeMode {... */\n      jump\t// out\n        /* \"contracts/staking/StakingRewards.sol\":960:1010  uint256 public override rewardsDuration = 180 days */\n    tag_81:\n      sload(0x0a)\n      dup2\n      jump\t// out\n        /* \"contracts/staking/StakingRewards.sol\":6129:7294  function notifyRewardAmount(uint256 reward)... */\n    tag_84:\n        /* \"contracts/staking/Failsafe.sol\":455:473  failsafeModeActive */\n      0x04\n      0x00\n      swap1\n      sload\n      swap1\n      0x0100\n      exp\n      swap1\n      div\n      0xff\n      and\n        /* \"contracts/staking/Failsafe.sol\":454:473  !failsafeModeActive */\n      iszero\n        /* \"contracts/staking/Failsafe.sol\":433:569  require(... */\n      tag_202\n      jumpi\n      mload(0x40)\n      0x08c379a000000000000000000000000000000000000000000000000000000000\n      dup2\n      mstore\n      0x04\n      add\n      dup1\n      dup1\n      0x20\n      add\n      dup3\n      dup2\n      sub\n      dup3\n      mstore\n      0x46\n      dup2\n      mstore\n      0x20\n      add\n      dup1\n      data_2033a41bcffa5b8f92dc907d4af8bed97aa83db30ad47a9df6bd54b87ba115ba\n      0x46\n      swap2\n      codecopy\n      0x60\n      add\n      swap2\n      pop\n      pop\n      mload(0x40)\n      dup1\n      swap2\n      sub\n      swap1\n      revert\n    tag_202:\n        /* \"contracts/staking/RewardsDistributionRecipient.sol\":398:417  rewardsDistribution */\n      0x02\n      0x00\n      swap1\n      sload\n      swap1\n      0x0100\n      exp\n      swap1\n      div\n      0xffffffffffffffffffffffffffffffffffffffff\n      and\n        /* \"contracts/staking/RewardsDistributionRecipient.sol\":384:417  msg.sender == rewardsDistribution */\n      0xffffffffffffffffffffffffffffffffffffffff\n      and\n        /* \"contracts/staking/RewardsDistributionRecipient.sol\":384:394  msg.sender */\n      caller\n        /* \"contracts/staking/RewardsDistributionRecipient.sol\":384:417  msg.sender == rewardsDistribution */\n      0xffffffffffffffffffffffffffffffffffffffff\n      and\n      eq\n        /* \"contracts/staking/RewardsDistributionRecipient.sol\":363:485  require(... */\n      tag_204\n      jumpi\n      mload(0x40)\n      0x08c379a000000000000000000000000000000000000000000000000000000000\n      dup2\n      mstore\n      0x04\n      add\n      dup1\n      dup1\n      0x20\n      add\n      dup3\n      dup2\n      sub\n      dup3\n      mstore\n      0x2a\n      dup2\n      mstore\n      0x20\n      add\n      dup1\n      data_d50b095422f4cbfcb4c90fbd4d55aaf0967bf1d90e94bb6a1ae9fc4ee7e733de\n      0x2a\n      swap2\n      codecopy\n      0x40\n      add\n      swap2\n      pop\n      pop\n      mload(0x40)\n      dup1\n      swap2\n      sub\n      swap1\n      revert\n    tag_204:\n        /* \"contracts/staking/StakingRewards.sol\":6287:6288  0 */\n      0x00\n        /* \"contracts/staking/StakingRewards.sol\":9565:9583  failsafeModeActive */\n      0x04\n      0x00\n      swap1\n      sload\n      swap1\n      0x0100\n      exp\n      swap1\n      div\n      0xff\n      and\n        /* \"contracts/staking/StakingRewards.sol\":9560:9885  if (!failsafeModeActive) {... */\n      tag_206\n      jumpi\n        /* \"contracts/staking/StakingRewards.sol\":9622:9638  rewardPerToken() */\n      tag_207\n        /* \"contracts/staking/StakingRewards.sol\":9622:9636  rewardPerToken */\n      tag_128\n        /* \"contracts/staking/StakingRewards.sol\":9622:9638  rewardPerToken() */\n      jump\t// in\n    tag_207:\n        /* \"contracts/staking/StakingRewards.sol\":9599:9619  rewardPerTokenStored */\n      0x0d\n        /* \"contracts/staking/StakingRewards.sol\":9599:9638  rewardPerTokenStored = rewardPerToken() */\n      dup2\n      swap1\n      sstore\n      pop\n        /* \"contracts/staking/StakingRewards.sol\":9669:9695  lastTimeRewardApplicable() */\n      tag_208\n        /* \"contracts/staking/StakingRewards.sol\":9669:9693  lastTimeRewardApplicable */\n      tag_108\n        /* \"contracts/staking/StakingRewards.sol\":9669:9695  lastTimeRewardApplicable() */\n      jump\t// in\n    tag_208:\n        /* \"contracts/staking/StakingRewards.sol\":9652:9666  lastUpdateTime */\n      0x0c\n        /* \"contracts/staking/StakingRewards.sol\":9652:9695  lastUpdateTime = lastTimeRewardApplicable() */\n      dup2\n      swap1\n      sstore\n      pop\n        /* \"contracts/staking/StakingRewards.sol\":9732:9733  0 */\n      0x00\n        /* \"contracts/staking/StakingRewards.sol\":9713:9734  account != address(0) */\n      0xffffffffffffffffffffffffffffffffffffffff\n      and\n        /* \"contracts/staking/StakingRewards.sol\":9713:9720  account */\n      dup2\n        /* \"contracts/staking/StakingRewards.sol\":9713:9734  account != address(0) */\n      0xffffffffffffffffffffffffffffffffffffffff\n      and\n      eq\n        /* \"contracts/staking/StakingRewards.sol\":9709:9875  if (account != address(0)) {... */\n      tag_209\n      jumpi\n        /* \"contracts/staking/StakingRewards.sol\":9773:9788  earned(account) */\n      tag_210\n        /* \"contracts/staking/StakingRewards.sol\":9780:9787  account */\n      dup2\n        /* \"contracts/staking/StakingRewards.sol\":9773:9779  earned */\n      tag_52\n        /* \"contracts/staking/StakingRewards.sol\":9773:9788  earned(account) */\n      jump\t// in\n    tag_210:\n        /* \"contracts/staking/StakingRewards.sol\":9754:9761  rewards */\n      0x0f\n        /* \"contracts/staking/StakingRewards.sol\":9754:9770  rewards[account] */\n      0x00\n        /* \"contracts/staking/StakingRewards.sol\":9762:9769  account */\n      dup4\n        /* \"contracts/staking/StakingRewards.sol\":9754:9770  rewards[account] */\n      0xffffffffffffffffffffffffffffffffffffffff\n      and\n      0xffffffffffffffffffffffffffffffffffffffff\n      and\n      dup2\n      mstore\n      0x20\n      add\n      swap1\n      dup2\n      mstore\n      0x20\n      add\n      0x00\n      keccak256\n        /* \"contracts/staking/StakingRewards.sol\":9754:9788  rewards[account] = earned(account) */\n      dup2\n      swap1\n      sstore\n      pop\n        /* \"contracts/staking/StakingRewards.sol\":9840:9860  rewardPerTokenStored */\n      sload(0x0d)\n        /* \"contracts/staking/StakingRewards.sol\":9806:9828  userRewardPerTokenPaid */\n      0x0e\n        /* \"contracts/staking/StakingRewards.sol\":9806:9837  userRewardPerTokenPaid[account] */\n      0x00\n        /* \"contracts/staking/StakingRewards.sol\":9829:9836  account */\n      dup4\n        /* \"contracts/staking/StakingRewards.sol\":9806:9837  userRewardPerTokenPaid[account] */\n      0xffffffffffffffffffffffffffffffffffffffff\n      and\n      0xffffffffffffffffffffffffffffffffffffffff\n      and\n      dup2\n      mstore\n      0x20\n      add\n      swap1\n      dup2\n      mstore\n      0x20\n      add\n      0x00\n      keccak256\n        /* \"contracts/staking/StakingRewards.sol\":9806:9860  userRewardPerTokenPaid[account] = rewardPerTokenStored */\n      dup2\n      swap1\n      sstore\n      pop\n        /* \"contracts/staking/StakingRewards.sol\":9709:9875  if (account != address(0)) {... */\n    tag_209:\n        /* \"contracts/staking/StakingRewards.sol\":9560:9885  if (!failsafeModeActive) {... */\n    tag_206:\n        /* \"contracts/staking/StakingRewards.sol\":6328:6340  periodFinish */\n      sload(0x08)\n        /* \"contracts/staking/StakingRewards.sol\":6309:6324  block.timestamp */\n      timestamp\n        /* \"contracts/staking/StakingRewards.sol\":6309:6340  block.timestamp >= periodFinish */\n      lt\n        /* \"contracts/staking/StakingRewards.sol\":6305:6617  if (block.timestamp >= periodFinish) {... */\n      tag_212\n      jumpi\n        /* \"contracts/staking/StakingRewards.sol\":6369:6396  reward.div(rewardsDuration) */\n      tag_213\n        /* \"contracts/staking/StakingRewards.sol\":6380:6395  rewardsDuration */\n      sload(0x0a)\n        /* \"contracts/staking/StakingRewards.sol\":6369:6375  reward */\n      dup4\n        /* \"contracts/staking/StakingRewards.sol\":6369:6379  reward.div */\n      tag_152\n      swap1\n        /* \"contracts/staking/StakingRewards.sol\":6369:6396  reward.div(rewardsDuration) */\n      swap2\n      swap1\n      0xffffffff\n      and\n      jump\t// in\n    tag_213:\n        /* \"contracts/staking/StakingRewards.sol\":6356:6366  rewardRate */\n      0x09\n        /* \"contracts/staking/StakingRewards.sol\":6356:6396  rewardRate = reward.div(rewardsDuration) */\n      dup2\n      swap1\n      sstore\n      pop\n        /* \"contracts/staking/StakingRewards.sol\":6305:6617  if (block.timestamp >= periodFinish) {... */\n      jump(tag_214)\n    tag_212:\n        /* \"contracts/staking/StakingRewards.sol\":6427:6444  uint256 remaining */\n      0x00\n        /* \"contracts/staking/StakingRewards.sol\":6447:6480  periodFinish.sub(block.timestamp) */\n      tag_215\n        /* \"contracts/staking/StakingRewards.sol\":6464:6479  block.timestamp */\n      timestamp\n        /* \"contracts/staking/StakingRewards.sol\":6447:6459  periodFinish */\n      sload(0x08)\n        /* \"contracts/staking/StakingRewards.sol\":6447:6463  periodFinish.sub */\n      tag_150\n      swap1\n        /* \"contracts/staking/StakingRewards.sol\":6447:6480  periodFinish.sub(block.timestamp) */\n      swap2\n      swap1\n      0xffffffff\n      and\n      jump\t// in\n    tag_215:\n        /* \"contracts/staking/StakingRewards.sol\":6427:6480  uint256 remaining = periodFinish.sub(block.timestamp) */\n      swap1\n      pop\n        /* \"contracts/staking/StakingRewards.sol\":6494:6510  uint256 leftover */\n      0x00\n        /* \"contracts/staking/StakingRewards.sol\":6513:6538  remaining.mul(rewardRate) */\n      tag_216\n        /* \"contracts/staking/StakingRewards.sol\":6527:6537  rewardRate */\n      sload(0x09)\n        /* \"contracts/staking/StakingRewards.sol\":6513:6522  remaining */\n      dup4\n        /* \"contracts/staking/StakingRewards.sol\":6513:6526  remaining.mul */\n      tag_151\n      swap1\n        /* \"contracts/staking/StakingRewards.sol\":6513:6538  remaining.mul(rewardRate) */\n      swap2\n      swap1\n      0xffffffff\n      and\n      jump\t// in\n    tag_216:\n        /* \"contracts/staking/StakingRewards.sol\":6494:6538  uint256 leftover = remaining.mul(rewardRate) */\n      swap1\n      pop\n        /* \"contracts/staking/StakingRewards.sol\":6565:6606  reward.add(leftover).div(rewardsDuration) */\n      tag_217\n        /* \"contracts/staking/StakingRewards.sol\":6590:6605  rewardsDuration */\n      sload(0x0a)\n        /* \"contracts/staking/StakingRewards.sol\":6565:6585  reward.add(leftover) */\n      tag_218\n        /* \"contracts/staking/StakingRewards.sol\":6576:6584  leftover */\n      dup4\n        /* \"contracts/staking/StakingRewards.sol\":6565:6571  reward */\n      dup8\n        /* \"contracts/staking/StakingRewards.sol\":6565:6575  reward.add */\n      tag_153\n      swap1\n        /* \"contracts/staking/StakingRewards.sol\":6565:6585  reward.add(leftover) */\n      swap2\n      swap1\n      0xffffffff\n      and\n      jump\t// in\n    tag_218:\n        /* \"contracts/staking/StakingRewards.sol\":6565:6589  reward.add(leftover).div */\n      tag_152\n      swap1\n        /* \"contracts/staking/StakingRewards.sol\":6565:6606  reward.add(leftover).div(rewardsDuration) */\n      swap2\n      swap1\n      0xffffffff\n      and\n      jump\t// in\n    tag_217:\n        /* \"contracts/staking/StakingRewards.sol\":6552:6562  rewardRate */\n      0x09\n        /* \"contracts/staking/StakingRewards.sol\":6552:6606  rewardRate = reward.add(leftover).div(rewardsDuration) */\n      dup2\n      swap1\n      sstore\n      pop\n        /* \"contracts/staking/StakingRewards.sol\":6305:6617  if (block.timestamp >= periodFinish) {... */\n      pop\n      pop\n    tag_214:\n        /* \"contracts/staking/StakingRewards.sol\":6971:6986  uint256 balance */\n      0x00\n        /* \"contracts/staking/StakingRewards.sol\":6989:7001  rewardsToken */\n      0x06\n      0x01\n      swap1\n      sload\n      swap1\n      0x0100\n      exp\n      swap1\n      div\n      0xffffffffffffffffffffffffffffffffffffffff\n      and\n        /* \"contracts/staking/StakingRewards.sol\":6989:7011  rewardsToken.balanceOf */\n      0xffffffffffffffffffffffffffffffffffffffff\n      and\n      0x70a08231\n        /* \"contracts/staking/StakingRewards.sol\":7020:7024  this */\n      address\n        /* \"contracts/staking/StakingRewards.sol\":6989:7026  rewardsToken.balanceOf(address(this)) */\n      mload(0x40)\n      dup3\n      0xffffffff\n      and\n      0xe0\n      shl\n      dup2\n      mstore\n      0x04\n      add\n      dup1\n      dup3\n      0xffffffffffffffffffffffffffffffffffffffff\n      and\n      dup2\n      mstore\n      0x20\n      add\n      swap2\n      pop\n      pop\n      0x20\n      mload(0x40)\n      dup1\n      dup4\n      sub\n      dup2\n      dup7\n      dup1\n      extcodesize\n      iszero\n      dup1\n      iszero\n      tag_219\n      jumpi\n      0x00\n      dup1\n      revert\n    tag_219:\n      pop\n      gas\n      staticcall\n      iszero\n      dup1\n      iszero\n      tag_221\n      jumpi\n      returndatasize\n      0x00\n      dup1\n      returndatacopy\n      revert(0x00, returndatasize)\n    tag_221:\n      pop\n      pop\n      pop\n      pop\n      mload(0x40)\n      returndatasize\n      0x20\n      dup2\n      lt\n      iszero\n      tag_222\n      jumpi\n      0x00\n      dup1\n      revert\n    tag_222:\n      dup2\n      add\n      swap1\n      dup1\n      dup1\n      mload\n      swap1\n      0x20\n      add\n      swap1\n      swap3\n      swap2\n      swap1\n      pop\n      pop\n      pop\n        /* \"contracts/staking/StakingRewards.sol\":6971:7026  uint256 balance = rewardsToken.balanceOf(address(this)) */\n      swap1\n      pop\n        /* \"contracts/staking/StakingRewards.sol\":7071:7099  balance.div(rewardsDuration) */\n      tag_223\n        /* \"contracts/staking/StakingRewards.sol\":7083:7098  rewardsDuration */\n      sload(0x0a)\n        /* \"contracts/staking/StakingRewards.sol\":7071:7078  balance */\n      dup3\n        /* \"contracts/staking/StakingRewards.sol\":7071:7082  balance.div */\n      tag_152\n      swap1\n        /* \"contracts/staking/StakingRewards.sol\":7071:7099  balance.div(rewardsDuration) */\n      swap2\n      swap1\n      0xffffffff\n      and\n      jump\t// in\n    tag_223:\n        /* \"contracts/staking/StakingRewards.sol\":7057:7067  rewardRate */\n      sload(0x09)\n        /* \"contracts/staking/StakingRewards.sol\":7057:7099  rewardRate <= balance.div(rewardsDuration) */\n      gt\n      iszero\n        /* \"contracts/staking/StakingRewards.sol\":7036:7149  require(... */\n      tag_224\n      jumpi\n      mload(0x40)\n      0x08c379a000000000000000000000000000000000000000000000000000000000\n      dup2\n      mstore\n      0x04\n      add\n      dup1\n      dup1\n      0x20\n      add\n      dup3\n      dup2\n      sub\n      dup3\n      mstore\n      0x18\n      dup2\n      mstore\n      0x20\n      add\n      dup1\n      0x50726f76696465642072657761726420746f6f20686967680000000000000000\n      dup2\n      mstore\n      pop\n      0x20\n      add\n      swap2\n      pop\n      pop\n      mload(0x40)\n      dup1\n      swap2\n      sub\n      swap1\n      revert\n    tag_224:\n        /* \"contracts/staking/StakingRewards.sol\":7177:7192  block.timestamp */\n      timestamp\n        /* \"contracts/staking/StakingRewards.sol\":7160:7174  lastUpdateTime */\n      0x0c\n        /* \"contracts/staking/StakingRewards.sol\":7160:7192  lastUpdateTime = block.timestamp */\n      dup2\n      swap1\n      sstore\n      pop\n        /* \"contracts/staking/StakingRewards.sol\":7217:7253  block.timestamp.add(rewardsDuration) */\n      tag_225\n        /* \"contracts/staking/StakingRewards.sol\":7237:7252  rewardsDuration */\n      sload(0x0a)\n        /* \"contracts/staking/StakingRewards.sol\":7217:7232  block.timestamp */\n      timestamp\n        /* \"contracts/staking/StakingRewards.sol\":7217:7236  block.timestamp.add */\n      tag_153\n      swap1\n        /* \"contracts/staking/StakingRewards.sol\":7217:7253  block.timestamp.add(rewardsDuration) */\n      swap2\n      swap1\n      0xffffffff\n      and\n      jump\t// in\n    tag_225:\n        /* \"contracts/staking/StakingRewards.sol\":7202:7214  periodFinish */\n      0x08\n        /* \"contracts/staking/StakingRewards.sol\":7202:7253  periodFinish = block.timestamp.add(rewardsDuration) */\n      dup2\n      swap1\n      sstore\n      pop\n        /* \"contracts/staking/StakingRewards.sol\":7268:7287  RewardAdded(reward) */\n      0xde88a922e0d3b88b24e9623efeb464919c6bf9f66857a65e2bfcf2ce87a9433d\n        /* \"contracts/staking/StakingRewards.sol\":7280:7286  reward */\n      dup4\n        /* \"contracts/staking/StakingRewards.sol\":7268:7287  RewardAdded(reward) */\n      mload(0x40)\n      dup1\n      dup3\n      dup2\n      mstore\n      0x20\n      add\n      swap2\n      pop\n      pop\n      mload(0x40)\n      dup1\n      swap2\n      sub\n      swap1\n      log1\n        /* \"contracts/staking/StakingRewards.sol\":9894:9895  _ */\n      pop\n        /* \"contracts/staking/RewardsDistributionRecipient.sol\":495:496  _ */\n      pop\n        /* \"contracts/staking/StakingRewards.sol\":6129:7294  function notifyRewardAmount(uint256 reward)... */\n      pop\n      jump\t// out\n        /* \"contracts/staking/StakingRewards.sol\":5019:5620  function getReward()... */\n    tag_86:\n        /* \"contracts/staking/Failsafe.sol\":455:473  failsafeModeActive */\n      0x04\n      0x00\n      swap1\n      sload\n      swap1\n      0x0100\n      exp\n      swap1\n      div\n      0xff\n      and\n        /* \"contracts/staking/Failsafe.sol\":454:473  !failsafeModeActive */\n      iszero\n        /* \"contracts/staking/Failsafe.sol\":433:569  require(... */\n      tag_227\n      jumpi\n      mload(0x40)\n      0x08c379a000000000000000000000000000000000000000000000000000000000\n      dup2\n      mstore\n      0x04\n      add\n      dup1\n      dup1\n      0x20\n      add\n      dup3\n      dup2\n      sub\n      dup3\n      mstore\n      0x46\n      dup2\n      mstore\n      0x20\n      add\n      dup1\n      data_2033a41bcffa5b8f92dc907d4af8bed97aa83db30ad47a9df6bd54b87ba115ba\n      0x46\n      swap2\n      codecopy\n      0x60\n      add\n      swap2\n      pop\n      pop\n      mload(0x40)\n      dup1\n      swap2\n      sub\n      swap1\n      revert\n    tag_227:\n        /* \"node_modules/@openzeppelin/contracts/utils/ReentrancyGuard.sol\":1688:1689  2 */\n      0x02\n        /* \"node_modules/@openzeppelin/contracts/utils/ReentrancyGuard.sol\":2277:2284  _status */\n      sload(0x03)\n        /* \"node_modules/@openzeppelin/contracts/utils/ReentrancyGuard.sol\":2277:2296  _status != _ENTERED */\n      eq\n      iszero\n        /* \"node_modules/@openzeppelin/contracts/utils/ReentrancyGuard.sol\":2269:2332  require(_status != _ENTERED, \"ReentrancyGuard: reentrant call\") */\n      tag_229\n      jumpi\n      mload(0x40)\n      0x08c379a000000000000000000000000000000000000000000000000000000000\n      dup2\n      mstore\n      0x04\n      add\n      dup1\n      dup1\n      0x20\n      add\n      dup3\n      dup2\n      sub\n      dup3\n      mstore\n      0x1f\n      dup2\n      mstore\n      0x20\n      add\n      dup1\n      0x5265656e7472616e637947756172643a207265656e7472616e742063616c6c00\n      dup2\n      mstore\n      pop\n      0x20\n      add\n      swap2\n      pop\n      pop\n      mload(0x40)\n      dup1\n      swap2\n      sub\n      swap1\n      revert\n    tag_229:\n        /* \"node_modules/@openzeppelin/contracts/utils/ReentrancyGuard.sol\":1688:1689  2 */\n      0x02\n        /* \"node_modules/@openzeppelin/contracts/utils/ReentrancyGuard.sol\":2407:2414  _status */\n      0x03\n        /* \"node_modules/@openzeppelin/contracts/utils/ReentrancyGuard.sol\":2407:2425  _status = _ENTERED */\n      dup2\n      swap1\n      sstore\n      pop\n        /* \"contracts/staking/StakingRewards.sol\":5133:5143  msg.sender */\n      caller\n        /* \"contracts/staking/StakingRewards.sol\":9565:9583  failsafeModeActive */\n      0x04\n      0x00\n      swap1\n      sload\n      swap1\n      0x0100\n      exp\n      swap1\n      div\n      0xff\n      and\n        /* \"contracts/staking/StakingRewards.sol\":9560:9885  if (!failsafeModeActive) {... */\n      tag_231\n      jumpi\n        /* \"contracts/staking/StakingRewards.sol\":9622:9638  rewardPerToken() */\n      tag_232\n        /* \"contracts/staking/StakingRewards.sol\":9622:9636  rewardPerToken */\n      tag_128\n        /* \"contracts/staking/StakingRewards.sol\":9622:9638  rewardPerToken() */\n      jump\t// in\n    tag_232:\n        /* \"contracts/staking/StakingRewards.sol\":9599:9619  rewardPerTokenStored */\n      0x0d\n        /* \"contracts/staking/StakingRewards.sol\":9599:9638  rewardPerTokenStored = rewardPerToken() */\n      dup2\n      swap1\n      sstore\n      pop\n        /* \"contracts/staking/StakingRewards.sol\":9669:9695  lastTimeRewardApplicable() */\n      tag_233\n        /* \"contracts/staking/StakingRewards.sol\":9669:9693  lastTimeRewardApplicable */\n      tag_108\n        /* \"contracts/staking/StakingRewards.sol\":9669:9695  lastTimeRewardApplicable() */\n      jump\t// in\n    tag_233:\n        /* \"contracts/staking/StakingRewards.sol\":9652:9666  lastUpdateTime */\n      0x0c\n        /* \"contracts/staking/StakingRewards.sol\":9652:9695  lastUpdateTime = lastTimeRewardApplicable() */\n      dup2\n      swap1\n      sstore\n      pop\n        /* \"contracts/staking/StakingRewards.sol\":9732:9733  0 */\n      0x00\n        /* \"contracts/staking/StakingRewards.sol\":9713:9734  account != address(0) */\n      0xffffffffffffffffffffffffffffffffffffffff\n      and\n        /* \"contracts/staking/StakingRewards.sol\":9713:9720  account */\n      dup2\n        /* \"contracts/staking/StakingRewards.sol\":9713:9734  account != address(0) */\n      0xffffffffffffffffffffffffffffffffffffffff\n      and\n      eq\n        /* \"contracts/staking/StakingRewards.sol\":9709:9875  if (account != address(0)) {... */\n      tag_234\n      jumpi\n        /* \"contracts/staking/StakingRewards.sol\":9773:9788  earned(account) */\n      tag_235\n        /* \"contracts/staking/StakingRewards.sol\":9780:9787  account */\n      dup2\n        /* \"contracts/staking/StakingRewards.sol\":9773:9779  earned */\n      tag_52\n        /* \"contracts/staking/StakingRewards.sol\":9773:9788  earned(account) */\n      jump\t// in\n    tag_235:\n        /* \"contracts/staking/StakingRewards.sol\":9754:9761  rewards */\n      0x0f\n        /* \"contracts/staking/StakingRewards.sol\":9754:9770  rewards[account] */\n      0x00\n        /* \"contracts/staking/StakingRewards.sol\":9762:9769  account */\n      dup4\n        /* \"contracts/staking/StakingRewards.sol\":9754:9770  rewards[account] */\n      0xffffffffffffffffffffffffffffffffffffffff\n      and\n      0xffffffffffffffffffffffffffffffffffffffff\n      and\n      dup2\n      mstore\n      0x20\n      add\n      swap1\n      dup2\n      mstore\n      0x20\n      add\n      0x00\n      keccak256\n        /* \"contracts/staking/StakingRewards.sol\":9754:9788  rewards[account] = earned(account) */\n      dup2\n      swap1\n      sstore\n      pop\n        /* \"contracts/staking/StakingRewards.sol\":9840:9860  rewardPerTokenStored */\n      sload(0x0d)\n        /* \"contracts/staking/StakingRewards.sol\":9806:9828  userRewardPerTokenPaid */\n      0x0e\n        /* \"contracts/staking/StakingRewards.sol\":9806:9837  userRewardPerTokenPaid[account] */\n      0x00\n        /* \"contracts/staking/StakingRewards.sol\":9829:9836  account */\n      dup4\n        /* \"contracts/staking/StakingRewards.sol\":9806:9837  userRewardPerTokenPaid[account] */\n      0xffffffffffffffffffffffffffffffffffffffff\n      and\n      0xffffffffffffffffffffffffffffffffffffffff\n      and\n      dup2\n      mstore\n      0x20\n      add\n      swap1\n      dup2\n      mstore\n      0x20\n      add\n      0x00\n      keccak256\n        /* \"contracts/staking/StakingRewards.sol\":9806:9860  userRewardPerTokenPaid[account] = rewardPerTokenStored */\n      dup2\n      swap1\n      sstore\n      pop\n        /* \"contracts/staking/StakingRewards.sol\":9709:9875  if (account != address(0)) {... */\n    tag_234:\n        /* \"contracts/staking/StakingRewards.sol\":9560:9885  if (!failsafeModeActive) {... */\n    tag_231:\n        /* \"contracts/staking/StakingRewards.sol\":5200:5201  0 */\n      0x00\n        /* \"contracts/staking/StakingRewards.sol\":5180:5196  minimumStakeTime */\n      sload(0x0b)\n        /* \"contracts/staking/StakingRewards.sol\":5180:5201  minimumStakeTime == 0 */\n      eq\n        /* \"contracts/staking/StakingRewards.sol\":5180:5305  minimumStakeTime == 0 ||... */\n      dup1\n      tag_237\n      jumpi\n      pop\n        /* \"contracts/staking/StakingRewards.sol\":5289:5305  minimumStakeTime */\n      sload(0x0b)\n        /* \"contracts/staking/StakingRewards.sol\":5221:5269  block.timestamp.sub(_stakeTimestamp[msg.sender]) */\n      tag_238\n        /* \"contracts/staking/StakingRewards.sol\":5241:5256  _stakeTimestamp */\n      0x12\n        /* \"contracts/staking/StakingRewards.sol\":5241:5268  _stakeTimestamp[msg.sender] */\n      0x00\n        /* \"contracts/staking/StakingRewards.sol\":5257:5267  msg.sender */\n      caller\n        /* \"contracts/staking/StakingRewards.sol\":5241:5268  _stakeTimestamp[msg.sender] */\n      0xffffffffffffffffffffffffffffffffffffffff\n      and\n      0xffffffffffffffffffffffffffffffffffffffff\n      and\n      dup2\n      mstore\n      0x20\n      add\n      swap1\n      dup2\n      mstore\n      0x20\n      add\n      0x00\n      keccak256\n      sload\n        /* \"contracts/staking/StakingRewards.sol\":5221:5236  block.timestamp */\n      timestamp\n        /* \"contracts/staking/StakingRewards.sol\":5221:5240  block.timestamp.sub */\n      tag_150\n      swap1\n        /* \"contracts/staking/StakingRewards.sol\":5221:5269  block.timestamp.sub(_stakeTimestamp[msg.sender]) */\n      swap2\n      swap1\n      0xffffffff\n      and\n      jump\t// in\n    tag_238:\n        /* \"contracts/staking/StakingRewards.sol\":5221:5305  block.timestamp.sub(_stakeTimestamp[msg.sender]) >=... */\n      lt\n      iszero\n        /* \"contracts/staking/StakingRewards.sol\":5180:5305  minimumStakeTime == 0 ||... */\n    tag_237:\n        /* \"contracts/staking/StakingRewards.sol\":5159:5386  require(... */\n      tag_239\n      jumpi\n      mload(0x40)\n      0x08c379a000000000000000000000000000000000000000000000000000000000\n      dup2\n      mstore\n      0x04\n      add\n      dup1\n      dup1\n      0x20\n      add\n      dup3\n      dup2\n      sub\n      dup3\n      mstore\n      0x37\n      dup2\n      mstore\n      0x20\n      add\n      dup1\n      data_e902b2ba80afc8e77e2a3045d496de84de9fbef8d0042ce1b6c8496beba60751\n      0x37\n      swap2\n      codecopy\n      0x40\n      add\n      swap2\n      pop\n      pop\n      mload(0x40)\n      dup1\n      swap2\n      sub\n      swap1\n      revert\n    tag_239:\n        /* \"contracts/staking/StakingRewards.sol\":5396:5410  uint256 reward */\n      0x00\n        /* \"contracts/staking/StakingRewards.sol\":5413:5420  rewards */\n      0x0f\n        /* \"contracts/staking/StakingRewards.sol\":5413:5432  rewards[msg.sender] */\n      0x00\n        /* \"contracts/staking/StakingRewards.sol\":5421:5431  msg.sender */\n      caller\n        /* \"contracts/staking/StakingRewards.sol\":5413:5432  rewards[msg.sender] */\n      0xffffffffffffffffffffffffffffffffffffffff\n      and\n      0xffffffffffffffffffffffffffffffffffffffff\n      and\n      dup2\n      mstore\n      0x20\n      add\n      swap1\n      dup2\n      mstore\n      0x20\n      add\n      0x00\n      keccak256\n      sload\n        /* \"contracts/staking/StakingRewards.sol\":5396:5432  uint256 reward = rewards[msg.sender] */\n      swap1\n      pop\n        /* \"contracts/staking/StakingRewards.sol\":5455:5456  0 */\n      0x00\n        /* \"contracts/staking/StakingRewards.sol\":5446:5452  reward */\n      dup2\n        /* \"contracts/staking/StakingRewards.sol\":5446:5456  reward > 0 */\n      gt\n        /* \"contracts/staking/StakingRewards.sol\":5442:5614  if (reward > 0) {... */\n      iszero\n      tag_240\n      jumpi\n        /* \"contracts/staking/StakingRewards.sol\":5494:5495  0 */\n      0x00\n        /* \"contracts/staking/StakingRewards.sol\":5472:5479  rewards */\n      0x0f\n        /* \"contracts/staking/StakingRewards.sol\":5472:5491  rewards[msg.sender] */\n      0x00\n        /* \"contracts/staking/StakingRewards.sol\":5480:5490  msg.sender */\n      caller\n        /* \"contracts/staking/StakingRewards.sol\":5472:5491  rewards[msg.sender] */\n      0xffffffffffffffffffffffffffffffffffffffff\n      and\n      0xffffffffffffffffffffffffffffffffffffffff\n      and\n      dup2\n      mstore\n      0x20\n      add\n      swap1\n      dup2\n      mstore\n      0x20\n      add\n      0x00\n      keccak256\n        /* \"contracts/staking/StakingRewards.sol\":5472:5495  rewards[msg.sender] = 0 */\n      dup2\n      swap1\n      sstore\n      pop\n        /* \"contracts/staking/StakingRewards.sol\":5509:5554  rewardsToken.safeTransfer(msg.sender, reward) */\n      tag_241\n        /* \"contracts/staking/StakingRewards.sol\":5535:5545  msg.sender */\n      caller\n        /* \"contracts/staking/StakingRewards.sol\":5547:5553  reward */\n      dup3\n        /* \"contracts/staking/StakingRewards.sol\":5509:5521  rewardsToken */\n      0x06\n      0x01\n      swap1\n      sload\n      swap1\n      0x0100\n      exp\n      swap1\n      div\n      0xffffffffffffffffffffffffffffffffffffffff\n      and\n        /* \"contracts/staking/StakingRewards.sol\":5509:5534  rewardsToken.safeTransfer */\n      0xffffffffffffffffffffffffffffffffffffffff\n      and\n      tag_193\n      swap1\n        /* \"contracts/staking/StakingRewards.sol\":5509:5554  rewardsToken.safeTransfer(msg.sender, reward) */\n      swap3\n      swap2\n      swap1\n      0xffffffff\n      and\n      jump\t// in\n    tag_241:\n        /* \"contracts/staking/StakingRewards.sol\":5584:5594  msg.sender */\n      caller\n        /* \"contracts/staking/StakingRewards.sol\":5573:5603  RewardPaid(msg.sender, reward) */\n      0xffffffffffffffffffffffffffffffffffffffff\n      and\n      0xe2403640ba68fed3a2f88b7557551d1993f84b99bb10ff833f0cf8db0c5e0486\n        /* \"contracts/staking/StakingRewards.sol\":5596:5602  reward */\n      dup3\n        /* \"contracts/staking/StakingRewards.sol\":5573:5603  RewardPaid(msg.sender, reward) */\n      mload(0x40)\n      dup1\n      dup3\n      dup2\n      mstore\n      0x20\n      add\n      swap2\n      pop\n      pop\n      mload(0x40)\n      dup1\n      swap2\n      sub\n      swap1\n      log2\n        /* \"contracts/staking/StakingRewards.sol\":5442:5614  if (reward > 0) {... */\n    tag_240:\n        /* \"contracts/staking/StakingRewards.sol\":9894:9895  _ */\n      pop\n        /* \"node_modules/@openzeppelin/contracts/utils/ReentrancyGuard.sol\":2436:2437  _ */\n      pop\n        /* \"node_modules/@openzeppelin/contracts/utils/ReentrancyGuard.sol\":1645:1646  1 */\n      0x01\n        /* \"node_modules/@openzeppelin/contracts/utils/ReentrancyGuard.sol\":2580:2587  _status */\n      0x03\n        /* \"node_modules/@openzeppelin/contracts/utils/ReentrancyGuard.sol\":2580:2602  _status = _NOT_ENTERED */\n      dup2\n      swap1\n      sstore\n      pop\n        /* \"contracts/staking/StakingRewards.sol\":5019:5620  function getReward()... */\n      jump\t// out\n        /* \"contracts/staking/RewardsDistributionRecipient.sol\":210:244  address public rewardsDistribution */\n    tag_88:\n      0x02\n      0x00\n      swap1\n      sload\n      swap1\n      0x0100\n      exp\n      swap1\n      div\n      0xffffffffffffffffffffffffffffffffffffffff\n      and\n      dup2\n      jump\t// out\n        /* \"contracts/staking/StakingRewards.sol\":8965:9462  function recoverExtraStakingTokensToOwner() external onlyOwner {... */\n    tag_90:\n        /* \"contracts/staking/Owned.sol\":836:848  _onlyOwner() */\n      tag_243\n        /* \"contracts/staking/Owned.sol\":836:846  _onlyOwner */\n      tag_156\n        /* \"contracts/staking/Owned.sol\":836:848  _onlyOwner() */\n      jump\t// in\n    tag_243:\n        /* \"contracts/staking/StakingRewards.sol\":9150:9192  uint256 stakingTokenAmountBelongingToOwner */\n      0x00\n        /* \"contracts/staking/StakingRewards.sol\":9207:9262  stakingToken.balanceOf(address(this)).sub(_totalSupply) */\n      tag_245\n        /* \"contracts/staking/StakingRewards.sol\":9249:9261  _totalSupply */\n      sload(0x10)\n        /* \"contracts/staking/StakingRewards.sol\":9207:9219  stakingToken */\n      0x07\n      0x00\n      swap1\n      sload\n      swap1\n      0x0100\n      exp\n      swap1\n      div\n      0xffffffffffffffffffffffffffffffffffffffff\n      and\n        /* \"contracts/staking/StakingRewards.sol\":9207:9229  stakingToken.balanceOf */\n      0xffffffffffffffffffffffffffffffffffffffff\n      and\n      0x70a08231\n        /* \"contracts/staking/StakingRewards.sol\":9238:9242  this */\n      address\n        /* \"contracts/staking/StakingRewards.sol\":9207:9244  stakingToken.balanceOf(address(this)) */\n      mload(0x40)\n      dup3\n      0xffffffff\n      and\n      0xe0\n      shl\n      dup2\n      mstore\n      0x04\n      add\n      dup1\n      dup3\n      0xffffffffffffffffffffffffffffffffffffffff\n      and\n      dup2\n      mstore\n      0x20\n      add\n      swap2\n      pop\n      pop\n      0x20\n      mload(0x40)\n      dup1\n      dup4\n      sub\n      dup2\n      dup7\n      dup1\n      extcodesize\n      iszero\n      dup1\n      iszero\n      tag_246\n      jumpi\n      0x00\n      dup1\n      revert\n    tag_246:\n      pop\n      gas\n      staticcall\n      iszero\n      dup1\n      iszero\n      tag_248\n      jumpi\n      returndatasize\n      0x00\n      dup1\n      returndatacopy\n      revert(0x00, returndatasize)\n    tag_248:\n      pop\n      pop\n      pop\n      pop\n      mload(0x40)\n      returndatasize\n      0x20\n      dup2\n      lt\n      iszero\n      tag_249\n      jumpi\n      0x00\n      dup1\n      revert\n    tag_249:\n      dup2\n      add\n      swap1\n      dup1\n      dup1\n      mload\n      swap1\n      0x20\n      add\n      swap1\n      swap3\n      swap2\n      swap1\n      pop\n      pop\n      pop\n        /* \"contracts/staking/StakingRewards.sol\":9207:9248  stakingToken.balanceOf(address(this)).sub */\n      tag_150\n      swap1\n        /* \"contracts/staking/StakingRewards.sol\":9207:9262  stakingToken.balanceOf(address(this)).sub(_totalSupply) */\n      swap2\n      swap1\n      0xffffffff\n      and\n      jump\t// in\n    tag_245:\n        /* \"contracts/staking/StakingRewards.sol\":9150:9262  uint256 stakingTokenAmountBelongingToOwner =... */\n      swap1\n      pop\n        /* \"contracts/staking/StakingRewards.sol\":9314:9315  0 */\n      0x00\n        /* \"contracts/staking/StakingRewards.sol\":9277:9311  stakingTokenAmountBelongingToOwner */\n      dup2\n        /* \"contracts/staking/StakingRewards.sol\":9277:9315  stakingTokenAmountBelongingToOwner > 0 */\n      gt\n        /* \"contracts/staking/StakingRewards.sol\":9273:9456  if (stakingTokenAmountBelongingToOwner > 0) {... */\n      iszero\n      tag_250\n      jumpi\n        /* \"contracts/staking/StakingRewards.sol\":9331:9445  stakingToken.safeTransfer(... */\n      tag_251\n        /* \"contracts/staking/StakingRewards.sol\":9374:9379  owner */\n      0x00\n      dup1\n      sload\n      swap1\n      0x0100\n      exp\n      swap1\n      div\n      0xffffffffffffffffffffffffffffffffffffffff\n      and\n        /* \"contracts/staking/StakingRewards.sol\":9397:9431  stakingTokenAmountBelongingToOwner */\n      dup3\n        /* \"contracts/staking/StakingRewards.sol\":9331:9343  stakingToken */\n      0x07\n      0x00\n      swap1\n      sload\n      swap1\n      0x0100\n      exp\n      swap1\n      div\n      0xffffffffffffffffffffffffffffffffffffffff\n      and\n        /* \"contracts/staking/StakingRewards.sol\":9331:9356  stakingToken.safeTransfer */\n      0xffffffffffffffffffffffffffffffffffffffff\n      and\n      tag_193\n      swap1\n        /* \"contracts/staking/StakingRewards.sol\":9331:9445  stakingToken.safeTransfer(... */\n      swap3\n      swap2\n      swap1\n      0xffffffff\n      and\n      jump\t// in\n    tag_251:\n        /* \"contracts/staking/StakingRewards.sol\":9273:9456  if (stakingTokenAmountBelongingToOwner > 0) {... */\n    tag_250:\n        /* \"contracts/staking/Owned.sol\":858:859  _ */\n      pop\n        /* \"contracts/staking/StakingRewards.sol\":8965:9462  function recoverExtraStakingTokensToOwner() external onlyOwner {... */\n      jump\t// out\n        /* \"contracts/staking/Owned.sol\":134:163  address public nominatedOwner */\n    tag_92:\n      0x01\n      0x00\n      swap1\n      sload\n      swap1\n      0x0100\n      exp\n      swap1\n      div\n      0xffffffffffffffffffffffffffffffffffffffff\n      and\n      dup2\n      jump\t// out\n        /* \"contracts/staking/StakingRewards.sol\":7336:7636  function updatePeriodFinish(uint256 timestamp)... */\n    tag_95:\n        /* \"contracts/staking/Failsafe.sol\":455:473  failsafeModeActive */\n      0x04\n      0x00\n      swap1\n      sload\n      swap1\n      0x0100\n      exp\n      swap1\n      div\n      0xff\n      and\n        /* \"contracts/staking/Failsafe.sol\":454:473  !failsafeModeActive */\n      iszero\n        /* \"contracts/staking/Failsafe.sol\":433:569  require(... */\n      tag_253\n      jumpi\n      mload(0x40)\n      0x08c379a000000000000000000000000000000000000000000000000000000000\n      dup2\n      mstore\n      0x04\n      add\n      dup1\n      dup1\n      0x20\n      add\n      dup3\n      dup2\n      sub\n      dup3\n      mstore\n      0x46\n      dup2\n      mstore\n      0x20\n      add\n      dup1\n      data_2033a41bcffa5b8f92dc907d4af8bed97aa83db30ad47a9df6bd54b87ba115ba\n      0x46\n      swap2\n      codecopy\n      0x60\n      add\n      swap2\n      pop\n      pop\n      mload(0x40)\n      dup1\n      swap2\n      sub\n      swap1\n      revert\n    tag_253:\n        /* \"contracts/staking/Owned.sol\":836:848  _onlyOwner() */\n      tag_255\n        /* \"contracts/staking/Owned.sol\":836:846  _onlyOwner */\n      tag_156\n        /* \"contracts/staking/Owned.sol\":836:848  _onlyOwner() */\n      jump\t// in\n    tag_255:\n        /* \"contracts/staking/StakingRewards.sol\":7466:7467  0 */\n      0x00\n        /* \"contracts/staking/StakingRewards.sol\":9565:9583  failsafeModeActive */\n      0x04\n      0x00\n      swap1\n      sload\n      swap1\n      0x0100\n      exp\n      swap1\n      div\n      0xff\n      and\n        /* \"contracts/staking/StakingRewards.sol\":9560:9885  if (!failsafeModeActive) {... */\n      tag_257\n      jumpi\n        /* \"contracts/staking/StakingRewards.sol\":9622:9638  rewardPerToken() */\n      tag_258\n        /* \"contracts/staking/StakingRewards.sol\":9622:9636  rewardPerToken */\n      tag_128\n        /* \"contracts/staking/StakingRewards.sol\":9622:9638  rewardPerToken() */\n      jump\t// in\n    tag_258:\n        /* \"contracts/staking/StakingRewards.sol\":9599:9619  rewardPerTokenStored */\n      0x0d\n        /* \"contracts/staking/StakingRewards.sol\":9599:9638  rewardPerTokenStored = rewardPerToken() */\n      dup2\n      swap1\n      sstore\n      pop\n        /* \"contracts/staking/StakingRewards.sol\":9669:9695  lastTimeRewardApplicable() */\n      tag_259\n        /* \"contracts/staking/StakingRewards.sol\":9669:9693  lastTimeRewardApplicable */\n      tag_108\n        /* \"contracts/staking/StakingRewards.sol\":9669:9695  lastTimeRewardApplicable() */\n      jump\t// in\n    tag_259:\n        /* \"contracts/staking/StakingRewards.sol\":9652:9666  lastUpdateTime */\n      0x0c\n        /* \"contracts/staking/StakingRewards.sol\":9652:9695  lastUpdateTime = lastTimeRewardApplicable() */\n      dup2\n      swap1\n      sstore\n      pop\n        /* \"contracts/staking/StakingRewards.sol\":9732:9733  0 */\n      0x00\n        /* \"contracts/staking/StakingRewards.sol\":9713:9734  account != address(0) */\n      0xffffffffffffffffffffffffffffffffffffffff\n      and\n        /* \"contracts/staking/StakingRewards.sol\":9713:9720  account */\n      dup2\n        /* \"contracts/staking/StakingRewards.sol\":9713:9734  account != address(0) */\n      0xffffffffffffffffffffffffffffffffffffffff\n      and\n      eq\n        /* \"contracts/staking/StakingRewards.sol\":9709:9875  if (account != address(0)) {... */\n      tag_260\n      jumpi\n        /* \"contracts/staking/StakingRewards.sol\":9773:9788  earned(account) */\n      tag_261\n        /* \"contracts/staking/StakingRewards.sol\":9780:9787  account */\n      dup2\n        /* \"contracts/staking/StakingRewards.sol\":9773:9779  earned */\n      tag_52\n        /* \"contracts/staking/StakingRewards.sol\":9773:9788  earned(account) */\n      jump\t// in\n    tag_261:\n        /* \"contracts/staking/StakingRewards.sol\":9754:9761  rewards */\n      0x0f\n        /* \"contracts/staking/StakingRewards.sol\":9754:9770  rewards[account] */\n      0x00\n        /* \"contracts/staking/StakingRewards.sol\":9762:9769  account */\n      dup4\n        /* \"contracts/staking/StakingRewards.sol\":9754:9770  rewards[account] */\n      0xffffffffffffffffffffffffffffffffffffffff\n      and\n      0xffffffffffffffffffffffffffffffffffffffff\n      and\n      dup2\n      mstore\n      0x20\n      add\n      swap1\n      dup2\n      mstore\n      0x20\n      add\n      0x00\n      keccak256\n        /* \"contracts/staking/StakingRewards.sol\":9754:9788  rewards[account] = earned(account) */\n      dup2\n      swap1\n      sstore\n      pop\n        /* \"contracts/staking/StakingRewards.sol\":9840:9860  rewardPerTokenStored */\n      sload(0x0d)\n        /* \"contracts/staking/StakingRewards.sol\":9806:9828  userRewardPerTokenPaid */\n      0x0e\n        /* \"contracts/staking/StakingRewards.sol\":9806:9837  userRewardPerTokenPaid[account] */\n      0x00\n        /* \"contracts/staking/StakingRewards.sol\":9829:9836  account */\n      dup4\n        /* \"contracts/staking/StakingRewards.sol\":9806:9837  userRewardPerTokenPaid[account] */\n      0xffffffffffffffffffffffffffffffffffffffff\n      and\n      0xffffffffffffffffffffffffffffffffffffffff\n      and\n      dup2\n      mstore\n      0x20\n      add\n      swap1\n      dup2\n      mstore\n      0x20\n      add\n      0x00\n      keccak256\n        /* \"contracts/staking/StakingRewards.sol\":9806:9860  userRewardPerTokenPaid[account] = rewardPerTokenStored */\n      dup2\n      swap1\n      sstore\n      pop\n        /* \"contracts/staking/StakingRewards.sol\":9709:9875  if (account != address(0)) {... */\n    tag_260:\n        /* \"contracts/staking/StakingRewards.sol\":9560:9885  if (!failsafeModeActive) {... */\n    tag_257:\n        /* \"contracts/staking/StakingRewards.sol\":7517:7531  lastUpdateTime */\n      sload(0x0c)\n        /* \"contracts/staking/StakingRewards.sol\":7505:7514  timestamp */\n      dup3\n        /* \"contracts/staking/StakingRewards.sol\":7505:7531  timestamp > lastUpdateTime */\n      gt\n        /* \"contracts/staking/StakingRewards.sol\":7484:7595  require(... */\n      tag_263\n      jumpi\n      mload(0x40)\n      0x08c379a000000000000000000000000000000000000000000000000000000000\n      dup2\n      mstore\n      0x04\n      add\n      dup1\n      dup1\n      0x20\n      add\n      dup3\n      dup2\n      sub\n      dup3\n      mstore\n      0x26\n      dup2\n      mstore\n      0x20\n      add\n      dup1\n      data_ab045341077a9f59f5c2fe6d6f452617ad6dd5f22a52656ff2bcfdd382aa96d7\n      0x26\n      swap2\n      codecopy\n      0x40\n      add\n      swap2\n      pop\n      pop\n      mload(0x40)\n      dup1\n      swap2\n      sub\n      swap1\n      revert\n    tag_263:\n        /* \"contracts/staking/StakingRewards.sol\":7620:7629  timestamp */\n      dup2\n        /* \"contracts/staking/StakingRewards.sol\":7605:7617  periodFinish */\n      0x08\n        /* \"contracts/staking/StakingRewards.sol\":7605:7629  periodFinish = timestamp */\n      dup2\n      swap1\n      sstore\n      pop\n        /* \"contracts/staking/Owned.sol\":858:859  _ */\n      pop\n        /* \"contracts/staking/StakingRewards.sol\":7336:7636  function updatePeriodFinish(uint256 timestamp)... */\n      pop\n      jump\t// out\n        /* \"contracts/staking/SynthetixPausable.sol\":213:231  bool public paused */\n    tag_97:\n      0x06\n      0x00\n      swap1\n      sload\n      swap1\n      0x0100\n      exp\n      swap1\n      div\n      0xff\n      and\n      dup2\n      jump\t// out\n        /* \"contracts/staking/StakingRewards.sol\":1985:2140  function balanceOf(address account)... */\n    tag_100:\n        /* \"contracts/staking/StakingRewards.sol\":2085:2092  uint256 */\n      0x00\n        /* \"contracts/staking/StakingRewards.sol\":2115:2124  _balances */\n      0x11\n        /* \"contracts/staking/StakingRewards.sol\":2115:2133  _balances[account] */\n      0x00\n        /* \"contracts/staking/StakingRewards.sol\":2125:2132  account */\n      dup4\n        /* \"contracts/staking/StakingRewards.sol\":2115:2133  _balances[account] */\n      0xffffffffffffffffffffffffffffffffffffffff\n      and\n      0xffffffffffffffffffffffffffffffffffffffff\n      and\n      dup2\n      mstore\n      0x20\n      add\n      swap1\n      dup2\n      mstore\n      0x20\n      add\n      0x00\n      keccak256\n      sload\n        /* \"contracts/staking/StakingRewards.sol\":2108:2133  return _balances[account] */\n      swap1\n      pop\n        /* \"contracts/staking/StakingRewards.sol\":1985:2140  function balanceOf(address account)... */\n      swap2\n      swap1\n      pop\n      jump\t// out\n        /* \"contracts/staking/StakingRewards.sol\":847:873  IERC20 public stakingToken */\n    tag_102:\n      0x07\n      0x00\n      swap1\n      sload\n      swap1\n      0x0100\n      exp\n      swap1\n      div\n      0xffffffffffffffffffffffffffffffffffffffff\n      and\n      dup2\n      jump\t// out\n        /* \"contracts/staking/Owned.sol\":501:801  function acceptOwnership() external {... */\n    tag_104:\n        /* \"contracts/staking/Owned.sol\":582:596  nominatedOwner */\n      0x01\n      0x00\n      swap1\n      sload\n      swap1\n      0x0100\n      exp\n      swap1\n      div\n      0xffffffffffffffffffffffffffffffffffffffff\n      and\n        /* \"contracts/staking/Owned.sol\":568:596  msg.sender == nominatedOwner */\n      0xffffffffffffffffffffffffffffffffffffffff\n      and\n        /* \"contracts/staking/Owned.sol\":568:578  msg.sender */\n      caller\n        /* \"contracts/staking/Owned.sol\":568:596  msg.sender == nominatedOwner */\n      0xffffffffffffffffffffffffffffffffffffffff\n      and\n      eq\n        /* \"contracts/staking/Owned.sol\":547:675  require(... */\n      tag_266\n      jumpi\n      mload(0x40)\n      0x08c379a000000000000000000000000000000000000000000000000000000000\n      dup2\n      mstore\n      0x04\n      add\n      dup1\n      dup1\n      0x20\n      add\n      dup3\n      dup2\n      sub\n      dup3\n      mstore\n      0x35\n      dup2\n      mstore\n      0x20\n      add\n      dup1\n      data_1149e36cd24095bebc9341ef03810e0e2a00039190624df6f2d7934141e2233b\n      0x35\n      swap2\n      codecopy\n      0x40\n      add\n      swap2\n      pop\n      pop\n      mload(0x40)\n      dup1\n      swap2\n      sub\n      swap1\n      revert\n    tag_266:\n        /* \"contracts/staking/Owned.sol\":690:725  OwnerChanged(owner, nominatedOwner) */\n      0xb532073b38c83145e3e5135377a08bf9aab55bc0fd7c1179cd4fb995d2a5159c\n        /* \"contracts/staking/Owned.sol\":703:708  owner */\n      0x00\n      dup1\n      sload\n      swap1\n      0x0100\n      exp\n      swap1\n      div\n      0xffffffffffffffffffffffffffffffffffffffff\n      and\n        /* \"contracts/staking/Owned.sol\":710:724  nominatedOwner */\n      0x01\n      0x00\n      swap1\n      sload\n      swap1\n      0x0100\n      exp\n      swap1\n      div\n      0xffffffffffffffffffffffffffffffffffffffff\n      and\n        /* \"contracts/staking/Owned.sol\":690:725  OwnerChanged(owner, nominatedOwner) */\n      mload(0x40)\n      dup1\n      dup4\n      0xffffffffffffffffffffffffffffffffffffffff\n      and\n      dup2\n      mstore\n      0x20\n      add\n      dup3\n      0xffffffffffffffffffffffffffffffffffffffff\n      and\n      dup2\n      mstore\n      0x20\n      add\n      swap3\n      pop\n      pop\n      pop\n      mload(0x40)\n      dup1\n      swap2\n      sub\n      swap1\n      log1\n        /* \"contracts/staking/Owned.sol\":743:757  nominatedOwner */\n      0x01\n      0x00\n      swap1\n      sload\n      swap1\n      0x0100\n      exp\n      swap1\n      div\n      0xffffffffffffffffffffffffffffffffffffffff\n      and\n        /* \"contracts/staking/Owned.sol\":735:740  owner */\n      0x00\n      dup1\n        /* \"contracts/staking/Owned.sol\":735:757  owner = nominatedOwner */\n      0x0100\n      exp\n      dup2\n      sload\n      dup2\n      0xffffffffffffffffffffffffffffffffffffffff\n      mul\n      not\n      and\n      swap1\n      dup4\n      0xffffffffffffffffffffffffffffffffffffffff\n      and\n      mul\n      or\n      swap1\n      sstore\n      pop\n        /* \"contracts/staking/Owned.sol\":792:793  0 */\n      0x00\n        /* \"contracts/staking/Owned.sol\":767:781  nominatedOwner */\n      0x01\n      0x00\n        /* \"contracts/staking/Owned.sol\":767:794  nominatedOwner = address(0) */\n      0x0100\n      exp\n      dup2\n      sload\n      dup2\n      0xffffffffffffffffffffffffffffffffffffffff\n      mul\n      not\n      and\n      swap1\n      dup4\n      0xffffffffffffffffffffffffffffffffffffffff\n      and\n      mul\n      or\n      swap1\n      sstore\n      pop\n        /* \"contracts/staking/Owned.sol\":501:801  function acceptOwnership() external {... */\n      jump\t// out\n        /* \"contracts/staking/StakingRewards.sol\":916:954  uint256 public override rewardRate = 0 */\n    tag_106:\n      sload(0x09)\n      dup2\n      jump\t// out\n        /* \"contracts/staking/StakingRewards.sol\":2146:2284  function lastTimeRewardApplicable() public view override returns (uint256) {... */\n    tag_108:\n        /* \"contracts/staking/StakingRewards.sol\":2212:2219  uint256 */\n      0x00\n        /* \"contracts/staking/StakingRewards.sol\":2238:2277  Math.min(block.timestamp, periodFinish) */\n      tag_268\n        /* \"contracts/staking/StakingRewards.sol\":2247:2262  block.timestamp */\n      timestamp\n        /* \"contracts/staking/StakingRewards.sol\":2264:2276  periodFinish */\n      sload(0x08)\n        /* \"contracts/staking/StakingRewards.sol\":2238:2246  Math.min */\n      tag_269\n        /* \"contracts/staking/StakingRewards.sol\":2238:2277  Math.min(block.timestamp, periodFinish) */\n      jump\t// in\n    tag_268:\n        /* \"contracts/staking/StakingRewards.sol\":2231:2277  return Math.min(block.timestamp, periodFinish) */\n      swap1\n      pop\n        /* \"contracts/staking/StakingRewards.sol\":2146:2284  function lastTimeRewardApplicable() public view override returns (uint256) {... */\n      swap1\n      jump\t// out\n        /* \"contracts/staking/StakingRewards.sol\":7748:8100  function recoverERC20(address tokenAddress, uint256 tokenAmount)... */\n    tag_111:\n        /* \"contracts/staking/Owned.sol\":836:848  _onlyOwner() */\n      tag_271\n        /* \"contracts/staking/Owned.sol\":836:846  _onlyOwner */\n      tag_156\n        /* \"contracts/staking/Owned.sol\":836:848  _onlyOwner() */\n      jump\t// in\n    tag_271:\n        /* \"contracts/staking/StakingRewards.sol\":7907:7919  stakingToken */\n      0x07\n      0x00\n      swap1\n      sload\n      swap1\n      0x0100\n      exp\n      swap1\n      div\n      0xffffffffffffffffffffffffffffffffffffffff\n      and\n        /* \"contracts/staking/StakingRewards.sol\":7883:7920  tokenAddress != address(stakingToken) */\n      0xffffffffffffffffffffffffffffffffffffffff\n      and\n        /* \"contracts/staking/StakingRewards.sol\":7883:7895  tokenAddress */\n      dup3\n        /* \"contracts/staking/StakingRewards.sol\":7883:7920  tokenAddress != address(stakingToken) */\n      0xffffffffffffffffffffffffffffffffffffffff\n      and\n      eq\n      iszero\n        /* \"contracts/staking/StakingRewards.sol\":7862:7979  require(... */\n      tag_273\n      jumpi\n      mload(0x40)\n      0x08c379a000000000000000000000000000000000000000000000000000000000\n      dup2\n      mstore\n      0x04\n      add\n      dup1\n      dup1\n      0x20\n      add\n      dup3\n      dup2\n      sub\n      dup3\n      mstore\n      0x21\n      dup2\n      mstore\n      0x20\n      add\n      dup1\n      data_f43de9f2a3539b2ac9cf1844588e9cc0acd1b2bdb1ec43734f76440993ede0a9\n      0x21\n      swap2\n      codecopy\n      0x40\n      add\n      swap2\n      pop\n      pop\n      mload(0x40)\n      dup1\n      swap2\n      sub\n      swap1\n      revert\n    tag_273:\n        /* \"contracts/staking/StakingRewards.sol\":7989:8042  IERC20(tokenAddress).safeTransfer(owner, tokenAmount) */\n      tag_274\n        /* \"contracts/staking/StakingRewards.sol\":8023:8028  owner */\n      0x00\n      dup1\n      sload\n      swap1\n      0x0100\n      exp\n      swap1\n      div\n      0xffffffffffffffffffffffffffffffffffffffff\n      and\n        /* \"contracts/staking/StakingRewards.sol\":8030:8041  tokenAmount */\n      dup3\n        /* \"contracts/staking/StakingRewards.sol\":7996:8008  tokenAddress */\n      dup5\n        /* \"contracts/staking/StakingRewards.sol\":7989:8022  IERC20(tokenAddress).safeTransfer */\n      0xffffffffffffffffffffffffffffffffffffffff\n      and\n      tag_193\n      swap1\n        /* \"contracts/staking/StakingRewards.sol\":7989:8042  IERC20(tokenAddress).safeTransfer(owner, tokenAmount) */\n      swap3\n      swap2\n      swap1\n      0xffffffff\n      and\n      jump\t// in\n    tag_274:\n        /* \"contracts/staking/StakingRewards.sol\":8057:8093  Recovered(tokenAddress, tokenAmount) */\n      0x8c1256b8896378cd5044f80c202f9772b9d77dc85c8a6eb51967210b09bfaa28\n        /* \"contracts/staking/StakingRewards.sol\":8067:8079  tokenAddress */\n      dup3\n        /* \"contracts/staking/StakingRewards.sol\":8081:8092  tokenAmount */\n      dup3\n        /* \"contracts/staking/StakingRewards.sol\":8057:8093  Recovered(tokenAddress, tokenAmount) */\n      mload(0x40)\n      dup1\n      dup4\n      0xffffffffffffffffffffffffffffffffffffffff\n      and\n      dup2\n      mstore\n      0x20\n      add\n      dup3\n      dup2\n      mstore\n      0x20\n      add\n      swap3\n      pop\n      pop\n      pop\n      mload(0x40)\n      dup1\n      swap2\n      sub\n      swap1\n      log1\n        /* \"contracts/staking/StakingRewards.sol\":7748:8100  function recoverERC20(address tokenAddress, uint256 tokenAmount)... */\n      pop\n      pop\n      jump\t// out\n        /* \"contracts/staking/StakingRewards.sol\":1139:1196  mapping(address => uint256) public userRewardPerTokenPaid */\n    tag_114:\n      mstore(0x20, 0x0e)\n      dup1\n      0x00\n      mstore\n      keccak256(0x00, 0x40)\n      0x00\n      swap2\n      pop\n      swap1\n      pop\n      sload\n      dup2\n      jump\t// out\n        /* \"contracts/staking/Owned.sol\":108:128  address public owner */\n    tag_116:\n      0x00\n      dup1\n      sload\n      swap1\n      0x0100\n      exp\n      swap1\n      div\n      0xffffffffffffffffffffffffffffffffffffffff\n      and\n      dup2\n      jump\t// out\n        /* \"contracts/staking/SynthetixPausable.sol\":179:207  uint256 public lastPauseTime */\n    tag_118:\n      sload(0x05)\n      dup2\n      jump\t// out\n        /* \"contracts/staking/StakingRewards.sol\":3698:4260  function stake(uint256 amount)... */\n    tag_121:\n        /* \"contracts/staking/Failsafe.sol\":455:473  failsafeModeActive */\n      0x04\n      0x00\n      swap1\n      sload\n      swap1\n      0x0100\n      exp\n      swap1\n      div\n      0xff\n      and\n        /* \"contracts/staking/Failsafe.sol\":454:473  !failsafeModeActive */\n      iszero\n        /* \"contracts/staking/Failsafe.sol\":433:569  require(... */\n      tag_276\n      jumpi\n      mload(0x40)\n      0x08c379a000000000000000000000000000000000000000000000000000000000\n      dup2\n      mstore\n      0x04\n      add\n      dup1\n      dup1\n      0x20\n      add\n      dup3\n      dup2\n      sub\n      dup3\n      mstore\n      0x46\n      dup2\n      mstore\n      0x20\n      add\n      dup1\n      data_2033a41bcffa5b8f92dc907d4af8bed97aa83db30ad47a9df6bd54b87ba115ba\n      0x46\n      swap2\n      codecopy\n      0x60\n      add\n      swap2\n      pop\n      pop\n      mload(0x40)\n      dup1\n      swap2\n      sub\n      swap1\n      revert\n    tag_276:\n        /* \"node_modules/@openzeppelin/contracts/utils/ReentrancyGuard.sol\":1688:1689  2 */\n      0x02\n        /* \"node_modules/@openzeppelin/contracts/utils/ReentrancyGuard.sol\":2277:2284  _status */\n      sload(0x03)\n        /* \"node_modules/@openzeppelin/contracts/utils/ReentrancyGuard.sol\":2277:2296  _status != _ENTERED */\n      eq\n      iszero\n        /* \"node_modules/@openzeppelin/contracts/utils/ReentrancyGuard.sol\":2269:2332  require(_status != _ENTERED, \"ReentrancyGuard: reentrant call\") */\n      tag_278\n      jumpi\n      mload(0x40)\n      0x08c379a000000000000000000000000000000000000000000000000000000000\n      dup2\n      mstore\n      0x04\n      add\n      dup1\n      dup1\n      0x20\n      add\n      dup3\n      dup2\n      sub\n      dup3\n      mstore\n      0x1f\n      dup2\n      mstore\n      0x20\n      add\n      dup1\n      0x5265656e7472616e637947756172643a207265656e7472616e742063616c6c00\n      dup2\n      mstore\n      pop\n      0x20\n      add\n      swap2\n      pop\n      pop\n      mload(0x40)\n      dup1\n      swap2\n      sub\n      swap1\n      revert\n    tag_278:\n        /* \"node_modules/@openzeppelin/contracts/utils/ReentrancyGuard.sol\":1688:1689  2 */\n      0x02\n        /* \"node_modules/@openzeppelin/contracts/utils/ReentrancyGuard.sol\":2407:2414  _status */\n      0x03\n        /* \"node_modules/@openzeppelin/contracts/utils/ReentrancyGuard.sol\":2407:2425  _status = _ENTERED */\n      dup2\n      swap1\n      sstore\n      pop\n        /* \"contracts/staking/SynthetixPausable.sol\":1184:1190  paused */\n      0x06\n      0x00\n      swap1\n      sload\n      swap1\n      0x0100\n      exp\n      swap1\n      div\n      0xff\n      and\n        /* \"contracts/staking/SynthetixPausable.sol\":1183:1190  !paused */\n      iszero\n        /* \"contracts/staking/SynthetixPausable.sol\":1162:1276  require(... */\n      tag_280\n      jumpi\n      mload(0x40)\n      0x08c379a000000000000000000000000000000000000000000000000000000000\n      dup2\n      mstore\n      0x04\n      add\n      dup1\n      dup1\n      0x20\n      add\n      dup3\n      dup2\n      sub\n      dup3\n      mstore\n      0x3c\n      dup2\n      mstore\n      0x20\n      add\n      dup1\n      data_b214273cdb244871f55e1966d43ad7febce81860c609dda0e226c7c1b7959d6f\n      0x3c\n      swap2\n      codecopy\n      0x40\n      add\n      swap2\n      pop\n      pop\n      mload(0x40)\n      dup1\n      swap2\n      sub\n      swap1\n      revert\n    tag_280:\n        /* \"contracts/staking/StakingRewards.sol\":3842:3852  msg.sender */\n      caller\n        /* \"contracts/staking/StakingRewards.sol\":9565:9583  failsafeModeActive */\n      0x04\n      0x00\n      swap1\n      sload\n      swap1\n      0x0100\n      exp\n      swap1\n      div\n      0xff\n      and\n        /* \"contracts/staking/StakingRewards.sol\":9560:9885  if (!failsafeModeActive) {... */\n      tag_282\n      jumpi\n        /* \"contracts/staking/StakingRewards.sol\":9622:9638  rewardPerToken() */\n      tag_283\n        /* \"contracts/staking/StakingRewards.sol\":9622:9636  rewardPerToken */\n      tag_128\n        /* \"contracts/staking/StakingRewards.sol\":9622:9638  rewardPerToken() */\n      jump\t// in\n    tag_283:\n        /* \"contracts/staking/StakingRewards.sol\":9599:9619  rewardPerTokenStored */\n      0x0d\n        /* \"contracts/staking/StakingRewards.sol\":9599:9638  rewardPerTokenStored = rewardPerToken() */\n      dup2\n      swap1\n      sstore\n      pop\n        /* \"contracts/staking/StakingRewards.sol\":9669:9695  lastTimeRewardApplicable() */\n      tag_284\n        /* \"contracts/staking/StakingRewards.sol\":9669:9693  lastTimeRewardApplicable */\n      tag_108\n        /* \"contracts/staking/StakingRewards.sol\":9669:9695  lastTimeRewardApplicable() */\n      jump\t// in\n    tag_284:\n        /* \"contracts/staking/StakingRewards.sol\":9652:9666  lastUpdateTime */\n      0x0c\n        /* \"contracts/staking/StakingRewards.sol\":9652:9695  lastUpdateTime = lastTimeRewardApplicable() */\n      dup2\n      swap1\n      sstore\n      pop\n        /* \"contracts/staking/StakingRewards.sol\":9732:9733  0 */\n      0x00\n        /* \"contracts/staking/StakingRewards.sol\":9713:9734  account != address(0) */\n      0xffffffffffffffffffffffffffffffffffffffff\n      and\n        /* \"contracts/staking/StakingRewards.sol\":9713:9720  account */\n      dup2\n        /* \"contracts/staking/StakingRewards.sol\":9713:9734  account != address(0) */\n      0xffffffffffffffffffffffffffffffffffffffff\n      and\n      eq\n        /* \"contracts/staking/StakingRewards.sol\":9709:9875  if (account != address(0)) {... */\n      tag_285\n      jumpi\n        /* \"contracts/staking/StakingRewards.sol\":9773:9788  earned(account) */\n      tag_286\n        /* \"contracts/staking/StakingRewards.sol\":9780:9787  account */\n      dup2\n        /* \"contracts/staking/StakingRewards.sol\":9773:9779  earned */\n      tag_52\n        /* \"contracts/staking/StakingRewards.sol\":9773:9788  earned(account) */\n      jump\t// in\n    tag_286:\n        /* \"contracts/staking/StakingRewards.sol\":9754:9761  rewards */\n      0x0f\n        /* \"contracts/staking/StakingRewards.sol\":9754:9770  rewards[account] */\n      0x00\n        /* \"contracts/staking/StakingRewards.sol\":9762:9769  account */\n      dup4\n        /* \"contracts/staking/StakingRewards.sol\":9754:9770  rewards[account] */\n      0xffffffffffffffffffffffffffffffffffffffff\n      and\n      0xffffffffffffffffffffffffffffffffffffffff\n      and\n      dup2\n      mstore\n      0x20\n      add\n      swap1\n      dup2\n      mstore\n      0x20\n      add\n      0x00\n      keccak256\n        /* \"contracts/staking/StakingRewards.sol\":9754:9788  rewards[account] = earned(account) */\n      dup2\n      swap1\n      sstore\n      pop\n        /* \"contracts/staking/StakingRewards.sol\":9840:9860  rewardPerTokenStored */\n      sload(0x0d)\n        /* \"contracts/staking/StakingRewards.sol\":9806:9828  userRewardPerTokenPaid */\n      0x0e\n        /* \"contracts/staking/StakingRewards.sol\":9806:9837  userRewardPerTokenPaid[account] */\n      0x00\n        /* \"contracts/staking/StakingRewards.sol\":9829:9836  account */\n      dup4\n        /* \"contracts/staking/StakingRewards.sol\":9806:9837  userRewardPerTokenPaid[account] */\n      0xffffffffffffffffffffffffffffffffffffffff\n      and\n      0xffffffffffffffffffffffffffffffffffffffff\n      and\n      dup2\n      mstore\n      0x20\n      add\n      swap1\n      dup2\n      mstore\n      0x20\n      add\n      0x00\n      keccak256\n        /* \"contracts/staking/StakingRewards.sol\":9806:9860  userRewardPerTokenPaid[account] = rewardPerTokenStored */\n      dup2\n      swap1\n      sstore\n      pop\n        /* \"contracts/staking/StakingRewards.sol\":9709:9875  if (account != address(0)) {... */\n    tag_285:\n        /* \"contracts/staking/StakingRewards.sol\":9560:9885  if (!failsafeModeActive) {... */\n    tag_282:\n        /* \"contracts/staking/StakingRewards.sol\":3885:3886  0 */\n      0x00\n        /* \"contracts/staking/StakingRewards.sol\":3876:3882  amount */\n      dup3\n        /* \"contracts/staking/StakingRewards.sol\":3876:3886  amount > 0 */\n      gt\n        /* \"contracts/staking/StakingRewards.sol\":3868:3905  require(amount > 0, \"Cannot stake 0\") */\n      tag_288\n      jumpi\n      mload(0x40)\n      0x08c379a000000000000000000000000000000000000000000000000000000000\n      dup2\n      mstore\n      0x04\n      add\n      dup1\n      dup1\n      0x20\n      add\n      dup3\n      dup2\n      sub\n      dup3\n      mstore\n      0x0e\n      dup2\n      mstore\n      0x20\n      add\n      dup1\n      0x43616e6e6f74207374616b652030000000000000000000000000000000000000\n      dup2\n      mstore\n      pop\n      0x20\n      add\n      swap2\n      pop\n      pop\n      mload(0x40)\n      dup1\n      swap2\n      sub\n      swap1\n      revert\n    tag_288:\n        /* \"contracts/staking/StakingRewards.sol\":3930:3954  _totalSupply.add(amount) */\n      tag_289\n        /* \"contracts/staking/StakingRewards.sol\":3947:3953  amount */\n      dup3\n        /* \"contracts/staking/StakingRewards.sol\":3930:3942  _totalSupply */\n      sload(0x10)\n        /* \"contracts/staking/StakingRewards.sol\":3930:3946  _totalSupply.add */\n      tag_153\n      swap1\n        /* \"contracts/staking/StakingRewards.sol\":3930:3954  _totalSupply.add(amount) */\n      swap2\n      swap1\n      0xffffffff\n      and\n      jump\t// in\n    tag_289:\n        /* \"contracts/staking/StakingRewards.sol\":3915:3927  _totalSupply */\n      0x10\n        /* \"contracts/staking/StakingRewards.sol\":3915:3954  _totalSupply = _totalSupply.add(amount) */\n      dup2\n      swap1\n      sstore\n      pop\n        /* \"contracts/staking/StakingRewards.sol\":3988:4021  _balances[msg.sender].add(amount) */\n      tag_290\n        /* \"contracts/staking/StakingRewards.sol\":4014:4020  amount */\n      dup3\n        /* \"contracts/staking/StakingRewards.sol\":3988:3997  _balances */\n      0x11\n        /* \"contracts/staking/StakingRewards.sol\":3988:4009  _balances[msg.sender] */\n      0x00\n        /* \"contracts/staking/StakingRewards.sol\":3998:4008  msg.sender */\n      caller\n        /* \"contracts/staking/StakingRewards.sol\":3988:4009  _balances[msg.sender] */\n      0xffffffffffffffffffffffffffffffffffffffff\n      and\n      0xffffffffffffffffffffffffffffffffffffffff\n      and\n      dup2\n      mstore\n      0x20\n      add\n      swap1\n      dup2\n      mstore\n      0x20\n      add\n      0x00\n      keccak256\n      sload\n        /* \"contracts/staking/StakingRewards.sol\":3988:4013  _balances[msg.sender].add */\n      tag_153\n      swap1\n        /* \"contracts/staking/StakingRewards.sol\":3988:4021  _balances[msg.sender].add(amount) */\n      swap2\n      swap1\n      0xffffffff\n      and\n      jump\t// in\n    tag_290:\n        /* \"contracts/staking/StakingRewards.sol\":3964:3973  _balances */\n      0x11\n        /* \"contracts/staking/StakingRewards.sol\":3964:3985  _balances[msg.sender] */\n      0x00\n        /* \"contracts/staking/StakingRewards.sol\":3974:3984  msg.sender */\n      caller\n        /* \"contracts/staking/StakingRewards.sol\":3964:3985  _balances[msg.sender] */\n      0xffffffffffffffffffffffffffffffffffffffff\n      and\n      0xffffffffffffffffffffffffffffffffffffffff\n      and\n      dup2\n      mstore\n      0x20\n      add\n      swap1\n      dup2\n      mstore\n      0x20\n      add\n      0x00\n      keccak256\n        /* \"contracts/staking/StakingRewards.sol\":3964:4021  _balances[msg.sender] = _balances[msg.sender].add(amount) */\n      dup2\n      swap1\n      sstore\n      pop\n        /* \"contracts/staking/StakingRewards.sol\":4066:4067  0 */\n      0x00\n        /* \"contracts/staking/StakingRewards.sol\":4035:4050  _stakeTimestamp */\n      0x12\n        /* \"contracts/staking/StakingRewards.sol\":4035:4062  _stakeTimestamp[msg.sender] */\n      0x00\n        /* \"contracts/staking/StakingRewards.sol\":4051:4061  msg.sender */\n      caller\n        /* \"contracts/staking/StakingRewards.sol\":4035:4062  _stakeTimestamp[msg.sender] */\n      0xffffffffffffffffffffffffffffffffffffffff\n      and\n      0xffffffffffffffffffffffffffffffffffffffff\n      and\n      dup2\n      mstore\n      0x20\n      add\n      swap1\n      dup2\n      mstore\n      0x20\n      add\n      0x00\n      keccak256\n      sload\n        /* \"contracts/staking/StakingRewards.sol\":4035:4067  _stakeTimestamp[msg.sender] == 0 */\n      eq\n        /* \"contracts/staking/StakingRewards.sol\":4031:4139  if (_stakeTimestamp[msg.sender] == 0) {... */\n      iszero\n      tag_291\n      jumpi\n        /* \"contracts/staking/StakingRewards.sol\":4113:4128  block.timestamp */\n      timestamp\n        /* \"contracts/staking/StakingRewards.sol\":4083:4098  _stakeTimestamp */\n      0x12\n        /* \"contracts/staking/StakingRewards.sol\":4083:4110  _stakeTimestamp[msg.sender] */\n      0x00\n        /* \"contracts/staking/StakingRewards.sol\":4099:4109  msg.sender */\n      caller\n        /* \"contracts/staking/StakingRewards.sol\":4083:4110  _stakeTimestamp[msg.sender] */\n      0xffffffffffffffffffffffffffffffffffffffff\n      and\n      0xffffffffffffffffffffffffffffffffffffffff\n      and\n      dup2\n      mstore\n      0x20\n      add\n      swap1\n      dup2\n      mstore\n      0x20\n      add\n      0x00\n      keccak256\n        /* \"contracts/staking/StakingRewards.sol\":4083:4128  _stakeTimestamp[msg.sender] = block.timestamp */\n      dup2\n      swap1\n      sstore\n      pop\n        /* \"contracts/staking/StakingRewards.sol\":4031:4139  if (_stakeTimestamp[msg.sender] == 0) {... */\n    tag_291:\n        /* \"contracts/staking/StakingRewards.sol\":4148:4212  stakingToken.safeTransferFrom(msg.sender, address(this), amount) */\n      tag_292\n        /* \"contracts/staking/StakingRewards.sol\":4178:4188  msg.sender */\n      caller\n        /* \"contracts/staking/StakingRewards.sol\":4198:4202  this */\n      address\n        /* \"contracts/staking/StakingRewards.sol\":4205:4211  amount */\n      dup5\n        /* \"contracts/staking/StakingRewards.sol\":4148:4160  stakingToken */\n      0x07\n      0x00\n      swap1\n      sload\n      swap1\n      0x0100\n      exp\n      swap1\n      div\n      0xffffffffffffffffffffffffffffffffffffffff\n      and\n        /* \"contracts/staking/StakingRewards.sol\":4148:4177  stakingToken.safeTransferFrom */\n      0xffffffffffffffffffffffffffffffffffffffff\n      and\n      tag_293\n      swap1\n        /* \"contracts/staking/StakingRewards.sol\":4148:4212  stakingToken.safeTransferFrom(msg.sender, address(this), amount) */\n      swap4\n      swap3\n      swap2\n      swap1\n      0xffffffff\n      and\n      jump\t// in\n    tag_292:\n        /* \"contracts/staking/StakingRewards.sol\":4234:4244  msg.sender */\n      caller\n        /* \"contracts/staking/StakingRewards.sol\":4227:4253  Staked(msg.sender, amount) */\n      0xffffffffffffffffffffffffffffffffffffffff\n      and\n      0x9e71bc8eea02a63969f509818f2dafb9254532904319f9dbda79b67bd34a5f3d\n        /* \"contracts/staking/StakingRewards.sol\":4246:4252  amount */\n      dup4\n        /* \"contracts/staking/StakingRewards.sol\":4227:4253  Staked(msg.sender, amount) */\n      mload(0x40)\n      dup1\n      dup3\n      dup2\n      mstore\n      0x20\n      add\n      swap2\n      pop\n      pop\n      mload(0x40)\n      dup1\n      swap2\n      sub\n      swap1\n      log2\n        /* \"contracts/staking/SynthetixPausable.sol\":1286:1287  _ */\n      pop\n        /* \"node_modules/@openzeppelin/contracts/utils/ReentrancyGuard.sol\":1645:1646  1 */\n      0x01\n        /* \"node_modules/@openzeppelin/contracts/utils/ReentrancyGuard.sol\":2580:2587  _status */\n      0x03\n        /* \"node_modules/@openzeppelin/contracts/utils/ReentrancyGuard.sol\":2580:2602  _status = _NOT_ENTERED */\n      dup2\n      swap1\n      sstore\n      pop\n        /* \"contracts/staking/StakingRewards.sol\":3698:4260  function stake(uint256 amount)... */\n      pop\n      jump\t// out\n        /* \"contracts/staking/StakingRewards.sol\":1062:1091  uint256 public lastUpdateTime */\n    tag_123:\n      sload(0x0c)\n      dup2\n      jump\t// out\n        /* \"contracts/staking/StakingRewards.sol\":8106:8498  function setRewardsDuration(uint256 _rewardsDuration)... */\n    tag_126:\n        /* \"contracts/staking/Failsafe.sol\":455:473  failsafeModeActive */\n      0x04\n      0x00\n      swap1\n      sload\n      swap1\n      0x0100\n      exp\n      swap1\n      div\n      0xff\n      and\n        /* \"contracts/staking/Failsafe.sol\":454:473  !failsafeModeActive */\n      iszero\n        /* \"contracts/staking/Failsafe.sol\":433:569  require(... */\n      tag_295\n      jumpi\n      mload(0x40)\n      0x08c379a000000000000000000000000000000000000000000000000000000000\n      dup2\n      mstore\n      0x04\n      add\n      dup1\n      dup1\n      0x20\n      add\n      dup3\n      dup2\n      sub\n      dup3\n      mstore\n      0x46\n      dup2\n      mstore\n      0x20\n      add\n      dup1\n      data_2033a41bcffa5b8f92dc907d4af8bed97aa83db30ad47a9df6bd54b87ba115ba\n      0x46\n      swap2\n      codecopy\n      0x60\n      add\n      swap2\n      pop\n      pop\n      mload(0x40)\n      dup1\n      swap2\n      sub\n      swap1\n      revert\n    tag_295:\n        /* \"contracts/staking/Owned.sol\":836:848  _onlyOwner() */\n      tag_297\n        /* \"contracts/staking/Owned.sol\":836:846  _onlyOwner */\n      tag_156\n        /* \"contracts/staking/Owned.sol\":836:848  _onlyOwner() */\n      jump\t// in\n    tag_297:\n        /* \"contracts/staking/StakingRewards.sol\":8267:8279  periodFinish */\n      sload(0x08)\n        /* \"contracts/staking/StakingRewards.sol\":8249:8264  block.timestamp */\n      timestamp\n        /* \"contracts/staking/StakingRewards.sol\":8249:8279  block.timestamp > periodFinish */\n      gt\n        /* \"contracts/staking/StakingRewards.sol\":8228:8393  require(... */\n      tag_299\n      jumpi\n      mload(0x40)\n      0x08c379a000000000000000000000000000000000000000000000000000000000\n      dup2\n      mstore\n      0x04\n      add\n      dup1\n      dup1\n      0x20\n      add\n      dup3\n      dup2\n      sub\n      dup3\n      mstore\n      0x58\n      dup2\n      mstore\n      0x20\n      add\n      dup1\n      data_07f2725172f5941b576a01ec7036d341e0c837e280f27b110cb3e6fd2f2c4a56\n      0x58\n      swap2\n      codecopy\n      0x60\n      add\n      swap2\n      pop\n      pop\n      mload(0x40)\n      dup1\n      swap2\n      sub\n      swap1\n      revert\n    tag_299:\n        /* \"contracts/staking/StakingRewards.sol\":8421:8437  _rewardsDuration */\n      dup1\n        /* \"contracts/staking/StakingRewards.sol\":8403:8418  rewardsDuration */\n      0x0a\n        /* \"contracts/staking/StakingRewards.sol\":8403:8437  rewardsDuration = _rewardsDuration */\n      dup2\n      swap1\n      sstore\n      pop\n        /* \"contracts/staking/StakingRewards.sol\":8452:8491  RewardsDurationUpdated(rewardsDuration) */\n      0xfb46ca5a5e06d4540d6387b930a7c978bce0db5f449ec6b3f5d07c6e1d44f2d3\n        /* \"contracts/staking/StakingRewards.sol\":8475:8490  rewardsDuration */\n      sload(0x0a)\n        /* \"contracts/staking/StakingRewards.sol\":8452:8491  RewardsDurationUpdated(rewardsDuration) */\n      mload(0x40)\n      dup1\n      dup3\n      dup2\n      mstore\n      0x20\n      add\n      swap2\n      pop\n      pop\n      mload(0x40)\n      dup1\n      swap2\n      sub\n      swap1\n      log1\n        /* \"contracts/staking/StakingRewards.sol\":8106:8498  function setRewardsDuration(uint256 _rewardsDuration)... */\n      pop\n      jump\t// out\n        /* \"contracts/staking/StakingRewards.sol\":2290:2705  function rewardPerToken() public view override returns (uint256) {... */\n    tag_128:\n        /* \"contracts/staking/StakingRewards.sol\":2346:2353  uint256 */\n      0x00\n        /* \"contracts/staking/StakingRewards.sol\":2385:2386  0 */\n      dup1\n        /* \"contracts/staking/StakingRewards.sol\":2369:2381  _totalSupply */\n      sload(0x10)\n        /* \"contracts/staking/StakingRewards.sol\":2369:2386  _totalSupply == 0 */\n      eq\n        /* \"contracts/staking/StakingRewards.sol\":2365:2440  if (_totalSupply == 0) {... */\n      iszero\n      tag_301\n      jumpi\n        /* \"contracts/staking/StakingRewards.sol\":2409:2429  rewardPerTokenStored */\n      sload(0x0d)\n        /* \"contracts/staking/StakingRewards.sol\":2402:2429  return rewardPerTokenStored */\n      swap1\n      pop\n      jump(tag_300)\n        /* \"contracts/staking/StakingRewards.sol\":2365:2440  if (_totalSupply == 0) {... */\n    tag_301:\n        /* \"contracts/staking/StakingRewards.sol\":2468:2698  rewardPerTokenStored.add(... */\n      tag_302\n        /* \"contracts/staking/StakingRewards.sol\":2510:2684  lastTimeRewardApplicable()... */\n      tag_303\n        /* \"contracts/staking/StakingRewards.sol\":2671:2683  _totalSupply */\n      sload(0x10)\n        /* \"contracts/staking/StakingRewards.sol\":2510:2645  lastTimeRewardApplicable()... */\n      tag_304\n        /* \"contracts/staking/StakingRewards.sol\":2640:2644  1e18 */\n      0x0de0b6b3a7640000\n        /* \"contracts/staking/StakingRewards.sol\":2510:2614  lastTimeRewardApplicable()... */\n      tag_305\n        /* \"contracts/staking/StakingRewards.sol\":2603:2613  rewardRate */\n      sload(0x09)\n        /* \"contracts/staking/StakingRewards.sol\":2510:2577  lastTimeRewardApplicable()... */\n      tag_306\n        /* \"contracts/staking/StakingRewards.sol\":2562:2576  lastUpdateTime */\n      sload(0x0c)\n        /* \"contracts/staking/StakingRewards.sol\":2510:2536  lastTimeRewardApplicable() */\n      tag_307\n        /* \"contracts/staking/StakingRewards.sol\":2510:2534  lastTimeRewardApplicable */\n      tag_108\n        /* \"contracts/staking/StakingRewards.sol\":2510:2536  lastTimeRewardApplicable() */\n      jump\t// in\n    tag_307:\n        /* \"contracts/staking/StakingRewards.sol\":2510:2561  lastTimeRewardApplicable()... */\n      tag_150\n      swap1\n        /* \"contracts/staking/StakingRewards.sol\":2510:2577  lastTimeRewardApplicable()... */\n      swap2\n      swap1\n      0xffffffff\n      and\n      jump\t// in\n    tag_306:\n        /* \"contracts/staking/StakingRewards.sol\":2510:2602  lastTimeRewardApplicable()... */\n      tag_151\n      swap1\n        /* \"contracts/staking/StakingRewards.sol\":2510:2614  lastTimeRewardApplicable()... */\n      swap2\n      swap1\n      0xffffffff\n      and\n      jump\t// in\n    tag_305:\n        /* \"contracts/staking/StakingRewards.sol\":2510:2639  lastTimeRewardApplicable()... */\n      tag_151\n      swap1\n        /* \"contracts/staking/StakingRewards.sol\":2510:2645  lastTimeRewardApplicable()... */\n      swap2\n      swap1\n      0xffffffff\n      and\n      jump\t// in\n    tag_304:\n        /* \"contracts/staking/StakingRewards.sol\":2510:2670  lastTimeRewardApplicable()... */\n      tag_152\n      swap1\n        /* \"contracts/staking/StakingRewards.sol\":2510:2684  lastTimeRewardApplicable()... */\n      swap2\n      swap1\n      0xffffffff\n      and\n      jump\t// in\n    tag_303:\n        /* \"contracts/staking/StakingRewards.sol\":2468:2488  rewardPerTokenStored */\n      sload(0x0d)\n        /* \"contracts/staking/StakingRewards.sol\":2468:2492  rewardPerTokenStored.add */\n      tag_153\n      swap1\n        /* \"contracts/staking/StakingRewards.sol\":2468:2698  rewardPerTokenStored.add(... */\n      swap2\n      swap1\n      0xffffffff\n      and\n      jump\t// in\n    tag_302:\n        /* \"contracts/staking/StakingRewards.sol\":2449:2698  return... */\n      swap1\n      pop\n        /* \"contracts/staking/StakingRewards.sol\":2290:2705  function rewardPerToken() public view override returns (uint256) {... */\n    tag_300:\n      swap1\n      jump\t// out\n        /* \"contracts/staking/StakingRewards.sol\":815:841  IERC20 public rewardsToken */\n    tag_130:\n      0x06\n      0x01\n      swap1\n      sload\n      swap1\n      0x0100\n      exp\n      swap1\n      div\n      0xffffffffffffffffffffffffffffffffffffffff\n      and\n      dup2\n      jump\t// out\n        /* \"contracts/staking/StakingRewards.sol\":1097:1132  uint256 public rewardPerTokenStored */\n    tag_132:\n      sload(0x0d)\n      dup2\n      jump\t// out\n        /* \"contracts/staking/StakingRewards.sol\":8734:8959  function enableFailsafeMode() public override normalMode onlyOwner {... */\n    tag_134:\n        /* \"contracts/staking/Failsafe.sol\":455:473  failsafeModeActive */\n      0x04\n      0x00\n      swap1\n      sload\n      swap1\n      0x0100\n      exp\n      swap1\n      div\n      0xff\n      and\n        /* \"contracts/staking/Failsafe.sol\":454:473  !failsafeModeActive */\n      iszero\n        /* \"contracts/staking/Failsafe.sol\":433:569  require(... */\n      tag_309\n      jumpi\n      mload(0x40)\n      0x08c379a000000000000000000000000000000000000000000000000000000000\n      dup2\n      mstore\n      0x04\n      add\n      dup1\n      dup1\n      0x20\n      add\n      dup3\n      dup2\n      sub\n      dup3\n      mstore\n      0x46\n      dup2\n      mstore\n      0x20\n      add\n      dup1\n      data_2033a41bcffa5b8f92dc907d4af8bed97aa83db30ad47a9df6bd54b87ba115ba\n      0x46\n      swap2\n      codecopy\n      0x60\n      add\n      swap2\n      pop\n      pop\n      mload(0x40)\n      dup1\n      swap2\n      sub\n      swap1\n      revert\n    tag_309:\n        /* \"contracts/staking/Owned.sol\":836:848  _onlyOwner() */\n      tag_311\n        /* \"contracts/staking/Owned.sol\":836:846  _onlyOwner */\n      tag_156\n        /* \"contracts/staking/Owned.sol\":836:848  _onlyOwner() */\n      jump\t// in\n    tag_311:\n        /* \"contracts/staking/StakingRewards.sol\":8830:8831  0 */\n      0x00\n        /* \"contracts/staking/StakingRewards.sol\":8811:8827  minimumStakeTime */\n      0x0b\n        /* \"contracts/staking/StakingRewards.sol\":8811:8831  minimumStakeTime = 0 */\n      dup2\n      swap1\n      sstore\n      pop\n        /* \"contracts/staking/StakingRewards.sol\":8856:8857  0 */\n      0x00\n        /* \"contracts/staking/StakingRewards.sol\":8841:8853  periodFinish */\n      0x08\n        /* \"contracts/staking/StakingRewards.sol\":8841:8857  periodFinish = 0 */\n      dup2\n      swap1\n      sstore\n      pop\n        /* \"contracts/staking/StakingRewards.sol\":8880:8881  0 */\n      0x00\n        /* \"contracts/staking/StakingRewards.sol\":8867:8877  rewardRate */\n      0x09\n        /* \"contracts/staking/StakingRewards.sol\":8867:8881  rewardRate = 0 */\n      dup2\n      swap1\n      sstore\n      pop\n        /* \"contracts/staking/StakingRewards.sol\":8914:8915  0 */\n      0x00\n        /* \"contracts/staking/StakingRewards.sol\":8891:8911  rewardPerTokenStored */\n      0x0d\n        /* \"contracts/staking/StakingRewards.sol\":8891:8915  rewardPerTokenStored = 0 */\n      dup2\n      swap1\n      sstore\n      pop\n        /* \"contracts/staking/StakingRewards.sol\":8926:8952  super.enableFailsafeMode() */\n      tag_313\n        /* \"contracts/staking/StakingRewards.sol\":8926:8950  super.enableFailsafeMode */\n      tag_314\n        /* \"contracts/staking/StakingRewards.sol\":8926:8952  super.enableFailsafeMode() */\n      jump\t// in\n    tag_313:\n        /* \"contracts/staking/StakingRewards.sol\":8734:8959  function enableFailsafeMode() public override normalMode onlyOwner {... */\n      jump\t// out\n        /* \"contracts/staking/StakingRewards.sol\":8504:8728  function setMinimumStakeTime(uint256 _minimumStakeTime)... */\n    tag_137:\n        /* \"contracts/staking/Failsafe.sol\":455:473  failsafeModeActive */\n      0x04\n      0x00\n      swap1\n      sload\n      swap1\n      0x0100\n      exp\n      swap1\n      div\n      0xff\n      and\n        /* \"contracts/staking/Failsafe.sol\":454:473  !failsafeModeActive */\n      iszero\n        /* \"contracts/staking/Failsafe.sol\":433:569  require(... */\n      tag_316\n      jumpi\n      mload(0x40)\n      0x08c379a000000000000000000000000000000000000000000000000000000000\n      dup2\n      mstore\n      0x04\n      add\n      dup1\n      dup1\n      0x20\n      add\n      dup3\n      dup2\n      sub\n      dup3\n      mstore\n      0x46\n      dup2\n      mstore\n      0x20\n      add\n      dup1\n      data_2033a41bcffa5b8f92dc907d4af8bed97aa83db30ad47a9df6bd54b87ba115ba\n      0x46\n      swap2\n      codecopy\n      0x60\n      add\n      swap2\n      pop\n      pop\n      mload(0x40)\n      dup1\n      swap2\n      sub\n      swap1\n      revert\n    tag_316:\n        /* \"contracts/staking/Owned.sol\":836:848  _onlyOwner() */\n      tag_318\n        /* \"contracts/staking/Owned.sol\":836:846  _onlyOwner */\n      tag_156\n        /* \"contracts/staking/Owned.sol\":836:848  _onlyOwner() */\n      jump\t// in\n    tag_318:\n        /* \"contracts/staking/StakingRewards.sol\":8647:8664  _minimumStakeTime */\n      dup1\n        /* \"contracts/staking/StakingRewards.sol\":8628:8644  minimumStakeTime */\n      0x0b\n        /* \"contracts/staking/StakingRewards.sol\":8628:8664  minimumStakeTime = _minimumStakeTime */\n      dup2\n      swap1\n      sstore\n      pop\n        /* \"contracts/staking/StakingRewards.sol\":8679:8721  MinimumStakeTimeUpdated(_minimumStakeTime) */\n      0x2b0fa66d155c9598699cb6569577f27b95729bbf580268eed39db6bc4e814477\n        /* \"contracts/staking/StakingRewards.sol\":8703:8720  _minimumStakeTime */\n      dup2\n        /* \"contracts/staking/StakingRewards.sol\":8679:8721  MinimumStakeTimeUpdated(_minimumStakeTime) */\n      mload(0x40)\n      dup1\n      dup3\n      dup2\n      mstore\n      0x20\n      add\n      swap2\n      pop\n      pop\n      mload(0x40)\n      dup1\n      swap2\n      sub\n      swap1\n      log1\n        /* \"contracts/staking/StakingRewards.sol\":8504:8728  function setMinimumStakeTime(uint256 _minimumStakeTime)... */\n      pop\n      jump\t// out\n        /* \"contracts/staking/StakingRewards.sol\":5626:5740  function exit() external override normalMode {... */\n    tag_139:\n        /* \"contracts/staking/Failsafe.sol\":455:473  failsafeModeActive */\n      0x04\n      0x00\n      swap1\n      sload\n      swap1\n      0x0100\n      exp\n      swap1\n      div\n      0xff\n      and\n        /* \"contracts/staking/Failsafe.sol\":454:473  !failsafeModeActive */\n      iszero\n        /* \"contracts/staking/Failsafe.sol\":433:569  require(... */\n      tag_321\n      jumpi\n      mload(0x40)\n      0x08c379a000000000000000000000000000000000000000000000000000000000\n      dup2\n      mstore\n      0x04\n      add\n      dup1\n      dup1\n      0x20\n      add\n      dup3\n      dup2\n      sub\n      dup3\n      mstore\n      0x46\n      dup2\n      mstore\n      0x20\n      add\n      dup1\n      data_2033a41bcffa5b8f92dc907d4af8bed97aa83db30ad47a9df6bd54b87ba115ba\n      0x46\n      swap2\n      codecopy\n      0x60\n      add\n      swap2\n      pop\n      pop\n      mload(0x40)\n      dup1\n      swap2\n      sub\n      swap1\n      revert\n    tag_321:\n        /* \"contracts/staking/StakingRewards.sol\":5681:5712  withdraw(_balances[msg.sender]) */\n      tag_323\n        /* \"contracts/staking/StakingRewards.sol\":5690:5699  _balances */\n      0x11\n        /* \"contracts/staking/StakingRewards.sol\":5690:5711  _balances[msg.sender] */\n      0x00\n        /* \"contracts/staking/StakingRewards.sol\":5700:5710  msg.sender */\n      caller\n        /* \"contracts/staking/StakingRewards.sol\":5690:5711  _balances[msg.sender] */\n      0xffffffffffffffffffffffffffffffffffffffff\n      and\n      0xffffffffffffffffffffffffffffffffffffffff\n      and\n      dup2\n      mstore\n      0x20\n      add\n      swap1\n      dup2\n      mstore\n      0x20\n      add\n      0x00\n      keccak256\n      sload\n        /* \"contracts/staking/StakingRewards.sol\":5681:5689  withdraw */\n      tag_77\n        /* \"contracts/staking/StakingRewards.sol\":5681:5712  withdraw(_balances[msg.sender]) */\n      jump\t// in\n    tag_323:\n        /* \"contracts/staking/StakingRewards.sol\":5722:5733  getReward() */\n      tag_324\n        /* \"contracts/staking/StakingRewards.sol\":5722:5731  getReward */\n      tag_86\n        /* \"contracts/staking/StakingRewards.sol\":5722:5733  getReward() */\n      jump\t// in\n    tag_324:\n        /* \"contracts/staking/StakingRewards.sol\":5626:5740  function exit() external override normalMode {... */\n      jump\t// out\n        /* \"contracts/staking/StakingRewards.sol\":879:910  uint256 public periodFinish = 0 */\n    tag_141:\n      sload(0x08)\n      dup2\n      jump\t// out\n        /* \"contracts/staking/StakingRewards.sol\":3367:3640  function getStakeUnlockTimeLeft() external override view returns (uint256) {... */\n    tag_143:\n        /* \"contracts/staking/StakingRewards.sol\":3433:3440  uint256 */\n      0x00\n        /* \"contracts/staking/StakingRewards.sol\":3453:3465  bool success */\n      dup1\n        /* \"contracts/staking/StakingRewards.sol\":3467:3479  uint256 diff */\n      0x00\n        /* \"contracts/staking/StakingRewards.sol\":3495:3598  _stakeTimestamp[msg.sender].add(minimumStakeTime).trySub(... */\n      tag_326\n        /* \"contracts/staking/StakingRewards.sol\":3569:3584  block.timestamp */\n      timestamp\n        /* \"contracts/staking/StakingRewards.sol\":3495:3544  _stakeTimestamp[msg.sender].add(minimumStakeTime) */\n      tag_327\n        /* \"contracts/staking/StakingRewards.sol\":3527:3543  minimumStakeTime */\n      sload(0x0b)\n        /* \"contracts/staking/StakingRewards.sol\":3495:3510  _stakeTimestamp */\n      0x12\n        /* \"contracts/staking/StakingRewards.sol\":3495:3522  _stakeTimestamp[msg.sender] */\n      0x00\n        /* \"contracts/staking/StakingRewards.sol\":3511:3521  msg.sender */\n      caller\n        /* \"contracts/staking/StakingRewards.sol\":3495:3522  _stakeTimestamp[msg.sender] */\n      0xffffffffffffffffffffffffffffffffffffffff\n      and\n      0xffffffffffffffffffffffffffffffffffffffff\n      and\n      dup2\n      mstore\n      0x20\n      add\n      swap1\n      dup2\n      mstore\n      0x20\n      add\n      0x00\n      keccak256\n      sload\n        /* \"contracts/staking/StakingRewards.sol\":3495:3526  _stakeTimestamp[msg.sender].add */\n      tag_153\n      swap1\n        /* \"contracts/staking/StakingRewards.sol\":3495:3544  _stakeTimestamp[msg.sender].add(minimumStakeTime) */\n      swap2\n      swap1\n      0xffffffff\n      and\n      jump\t// in\n    tag_327:\n        /* \"contracts/staking/StakingRewards.sol\":3495:3551  _stakeTimestamp[msg.sender].add(minimumStakeTime).trySub */\n      tag_171\n      swap1\n        /* \"contracts/staking/StakingRewards.sol\":3495:3598  _stakeTimestamp[msg.sender].add(minimumStakeTime).trySub(... */\n      swap2\n      swap1\n      0xffffffff\n      and\n      jump\t// in\n    tag_326:\n        /* \"contracts/staking/StakingRewards.sol\":3452:3598  (bool success, uint256 diff) =... */\n      swap2\n      pop\n      swap2\n      pop\n        /* \"contracts/staking/StakingRewards.sol\":3615:3622  success */\n      dup2\n        /* \"contracts/staking/StakingRewards.sol\":3615:3633  success ? diff : 0 */\n      tag_328\n      jumpi\n        /* \"contracts/staking/StakingRewards.sol\":3632:3633  0 */\n      0x00\n        /* \"contracts/staking/StakingRewards.sol\":3615:3633  success ? diff : 0 */\n      jump(tag_329)\n    tag_328:\n        /* \"contracts/staking/StakingRewards.sol\":3625:3629  diff */\n      dup1\n        /* \"contracts/staking/StakingRewards.sol\":3615:3633  success ? diff : 0 */\n    tag_329:\n        /* \"contracts/staking/StakingRewards.sol\":3608:3633  return success ? diff : 0 */\n      swap3\n      pop\n      pop\n      pop\n        /* \"contracts/staking/StakingRewards.sol\":3367:3640  function getStakeUnlockTimeLeft() external override view returns (uint256) {... */\n      swap1\n      jump\t// out\n        /* \"node_modules/@openzeppelin/contracts/math/SafeMath.sol\":3136:3291  function sub(uint256 a, uint256 b) internal pure returns (uint256) {... */\n    tag_150:\n        /* \"node_modules/@openzeppelin/contracts/math/SafeMath.sol\":3194:3201  uint256 */\n      0x00\n        /* \"node_modules/@openzeppelin/contracts/math/SafeMath.sol\":3226:3227  a */\n      dup3\n        /* \"node_modules/@openzeppelin/contracts/math/SafeMath.sol\":3221:3222  b */\n      dup3\n        /* \"node_modules/@openzeppelin/contracts/math/SafeMath.sol\":3221:3227  b <= a */\n      gt\n      iszero\n        /* \"node_modules/@openzeppelin/contracts/math/SafeMath.sol\":3213:3262  require(b <= a, \"SafeMath: subtraction overflow\") */\n      tag_331\n      jumpi\n      mload(0x40)\n      0x08c379a000000000000000000000000000000000000000000000000000000000\n      dup2\n      mstore\n      0x04\n      add\n      dup1\n      dup1\n      0x20\n      add\n      dup3\n      dup2\n      sub\n      dup3\n      mstore\n      0x1e\n      dup2\n      mstore\n      0x20\n      add\n      dup1\n      0x536166654d6174683a207375627472616374696f6e206f766572666c6f770000\n      dup2\n      mstore\n      pop\n      0x20\n      add\n      swap2\n      pop\n      pop\n      mload(0x40)\n      dup1\n      swap2\n      sub\n      swap1\n      revert\n    tag_331:\n        /* \"node_modules/@openzeppelin/contracts/math/SafeMath.sol\":3283:3284  b */\n      dup2\n        /* \"node_modules/@openzeppelin/contracts/math/SafeMath.sol\":3279:3280  a */\n      dup4\n        /* \"node_modules/@openzeppelin/contracts/math/SafeMath.sol\":3279:3284  a - b */\n      sub\n        /* \"node_modules/@openzeppelin/contracts/math/SafeMath.sol\":3272:3284  return a - b */\n      swap1\n      pop\n        /* \"node_modules/@openzeppelin/contracts/math/SafeMath.sol\":3136:3291  function sub(uint256 a, uint256 b) internal pure returns (uint256) {... */\n      swap3\n      swap2\n      pop\n      pop\n      jump\t// out\n        /* \"node_modules/@openzeppelin/contracts/math/SafeMath.sol\":3538:3753  function mul(uint256 a, uint256 b) internal pure returns (uint256) {... */\n    tag_151:\n        /* \"node_modules/@openzeppelin/contracts/math/SafeMath.sol\":3596:3603  uint256 */\n      0x00\n        /* \"node_modules/@openzeppelin/contracts/math/SafeMath.sol\":3624:3625  0 */\n      dup1\n        /* \"node_modules/@openzeppelin/contracts/math/SafeMath.sol\":3619:3620  a */\n      dup4\n        /* \"node_modules/@openzeppelin/contracts/math/SafeMath.sol\":3619:3625  a == 0 */\n      eq\n        /* \"node_modules/@openzeppelin/contracts/math/SafeMath.sol\":3615:3635  if (a == 0) return 0 */\n      iszero\n      tag_333\n      jumpi\n        /* \"node_modules/@openzeppelin/contracts/math/SafeMath.sol\":3634:3635  0 */\n      0x00\n        /* \"node_modules/@openzeppelin/contracts/math/SafeMath.sol\":3627:3635  return 0 */\n      swap1\n      pop\n      jump(tag_332)\n        /* \"node_modules/@openzeppelin/contracts/math/SafeMath.sol\":3615:3635  if (a == 0) return 0 */\n    tag_333:\n        /* \"node_modules/@openzeppelin/contracts/math/SafeMath.sol\":3645:3654  uint256 c */\n      0x00\n        /* \"node_modules/@openzeppelin/contracts/math/SafeMath.sol\":3661:3662  b */\n      dup3\n        /* \"node_modules/@openzeppelin/contracts/math/SafeMath.sol\":3657:3658  a */\n      dup5\n        /* \"node_modules/@openzeppelin/contracts/math/SafeMath.sol\":3657:3662  a * b */\n      mul\n        /* \"node_modules/@openzeppelin/contracts/math/SafeMath.sol\":3645:3662  uint256 c = a * b */\n      swap1\n      pop\n        /* \"node_modules/@openzeppelin/contracts/math/SafeMath.sol\":3689:3690  b */\n      dup3\n        /* \"node_modules/@openzeppelin/contracts/math/SafeMath.sol\":3684:3685  a */\n      dup5\n        /* \"node_modules/@openzeppelin/contracts/math/SafeMath.sol\":3680:3681  c */\n      dup3\n        /* \"node_modules/@openzeppelin/contracts/math/SafeMath.sol\":3680:3685  c / a */\n      dup2\n      tag_334\n      jumpi\n      invalid\n    tag_334:\n      div\n        /* \"node_modules/@openzeppelin/contracts/math/SafeMath.sol\":3680:3690  c / a == b */\n      eq\n        /* \"node_modules/@openzeppelin/contracts/math/SafeMath.sol\":3672:3728  require(c / a == b, \"SafeMath: multiplication overflow\") */\n      tag_335\n      jumpi\n      mload(0x40)\n      0x08c379a000000000000000000000000000000000000000000000000000000000\n      dup2\n      mstore\n      0x04\n      add\n      dup1\n      dup1\n      0x20\n      add\n      dup3\n      dup2\n      sub\n      dup3\n      mstore\n      0x21\n      dup2\n      mstore\n      0x20\n      add\n      dup1\n      data_9113bb53c2876a3805b2c9242029423fc540a728243ce887ab24c82cf119fba3\n      0x21\n      swap2\n      codecopy\n      0x40\n      add\n      swap2\n      pop\n      pop\n      mload(0x40)\n      dup1\n      swap2\n      sub\n      swap1\n      revert\n    tag_335:\n        /* \"node_modules/@openzeppelin/contracts/math/SafeMath.sol\":3745:3746  c */\n      dup1\n        /* \"node_modules/@openzeppelin/contracts/math/SafeMath.sol\":3738:3746  return c */\n      swap2\n      pop\n      pop\n        /* \"node_modules/@openzeppelin/contracts/math/SafeMath.sol\":3538:3753  function mul(uint256 a, uint256 b) internal pure returns (uint256) {... */\n    tag_332:\n      swap3\n      swap2\n      pop\n      pop\n      jump\t// out\n        /* \"node_modules/@openzeppelin/contracts/math/SafeMath.sol\":4217:4367  function div(uint256 a, uint256 b) internal pure returns (uint256) {... */\n    tag_152:\n        /* \"node_modules/@openzeppelin/contracts/math/SafeMath.sol\":4275:4282  uint256 */\n      0x00\n        /* \"node_modules/@openzeppelin/contracts/math/SafeMath.sol\":4306:4307  0 */\n      dup1\n        /* \"node_modules/@openzeppelin/contracts/math/SafeMath.sol\":4302:4303  b */\n      dup3\n        /* \"node_modules/@openzeppelin/contracts/math/SafeMath.sol\":4302:4307  b > 0 */\n      gt\n        /* \"node_modules/@openzeppelin/contracts/math/SafeMath.sol\":4294:4338  require(b > 0, \"SafeMath: division by zero\") */\n      tag_337\n      jumpi\n      mload(0x40)\n      0x08c379a000000000000000000000000000000000000000000000000000000000\n      dup2\n      mstore\n      0x04\n      add\n      dup1\n      dup1\n      0x20\n      add\n      dup3\n      dup2\n      sub\n      dup3\n      mstore\n      0x1a\n      dup2\n      mstore\n      0x20\n      add\n      dup1\n      0x536166654d6174683a206469766973696f6e206279207a65726f000000000000\n      dup2\n      mstore\n      pop\n      0x20\n      add\n      swap2\n      pop\n      pop\n      mload(0x40)\n      dup1\n      swap2\n      sub\n      swap1\n      revert\n    tag_337:\n        /* \"node_modules/@openzeppelin/contracts/math/SafeMath.sol\":4359:4360  b */\n      dup2\n        /* \"node_modules/@openzeppelin/contracts/math/SafeMath.sol\":4355:4356  a */\n      dup4\n        /* \"node_modules/@openzeppelin/contracts/math/SafeMath.sol\":4355:4360  a / b */\n      dup2\n      tag_338\n      jumpi\n      invalid\n    tag_338:\n      div\n        /* \"node_modules/@openzeppelin/contracts/math/SafeMath.sol\":4348:4360  return a / b */\n      swap1\n      pop\n        /* \"node_modules/@openzeppelin/contracts/math/SafeMath.sol\":4217:4367  function div(uint256 a, uint256 b) internal pure returns (uint256) {... */\n      swap3\n      swap2\n      pop\n      pop\n      jump\t// out\n        /* \"node_modules/@openzeppelin/contracts/math/SafeMath.sol\":2690:2865  function add(uint256 a, uint256 b) internal pure returns (uint256) {... */\n    tag_153:\n        /* \"node_modules/@openzeppelin/contracts/math/SafeMath.sol\":2748:2755  uint256 */\n      0x00\n        /* \"node_modules/@openzeppelin/contracts/math/SafeMath.sol\":2767:2776  uint256 c */\n      dup1\n        /* \"node_modules/@openzeppelin/contracts/math/SafeMath.sol\":2783:2784  b */\n      dup3\n        /* \"node_modules/@openzeppelin/contracts/math/SafeMath.sol\":2779:2780  a */\n      dup5\n        /* \"node_modules/@openzeppelin/contracts/math/SafeMath.sol\":2779:2784  a + b */\n      add\n        /* \"node_modules/@openzeppelin/contracts/math/SafeMath.sol\":2767:2784  uint256 c = a + b */\n      swap1\n      pop\n        /* \"node_modules/@openzeppelin/contracts/math/SafeMath.sol\":2807:2808  a */\n      dup4\n        /* \"node_modules/@openzeppelin/contracts/math/SafeMath.sol\":2802:2803  c */\n      dup2\n        /* \"node_modules/@openzeppelin/contracts/math/SafeMath.sol\":2802:2808  c >= a */\n      lt\n      iszero\n        /* \"node_modules/@openzeppelin/contracts/math/SafeMath.sol\":2794:2840  require(c >= a, \"SafeMath: addition overflow\") */\n      tag_340\n      jumpi\n      mload(0x40)\n      0x08c379a000000000000000000000000000000000000000000000000000000000\n      dup2\n      mstore\n      0x04\n      add\n      dup1\n      dup1\n      0x20\n      add\n      dup3\n      dup2\n      sub\n      dup3\n      mstore\n      0x1b\n      dup2\n      mstore\n      0x20\n      add\n      dup1\n      0x536166654d6174683a206164646974696f6e206f766572666c6f770000000000\n      dup2\n      mstore\n      pop\n      0x20\n      add\n      swap2\n      pop\n      pop\n      mload(0x40)\n      dup1\n      swap2\n      sub\n      swap1\n      revert\n    tag_340:\n        /* \"node_modules/@openzeppelin/contracts/math/SafeMath.sol\":2857:2858  c */\n      dup1\n        /* \"node_modules/@openzeppelin/contracts/math/SafeMath.sol\":2850:2858  return c */\n      swap2\n      pop\n      pop\n        /* \"node_modules/@openzeppelin/contracts/math/SafeMath.sol\":2690:2865  function add(uint256 a, uint256 b) internal pure returns (uint256) {... */\n      swap3\n      swap2\n      pop\n      pop\n      jump\t// out\n        /* \"contracts/staking/Owned.sol\":872:1037  function _onlyOwner() private view {... */\n    tag_156:\n        /* \"contracts/staking/Owned.sol\":952:957  owner */\n      0x00\n      dup1\n      sload\n      swap1\n      0x0100\n      exp\n      swap1\n      div\n      0xffffffffffffffffffffffffffffffffffffffff\n      and\n        /* \"contracts/staking/Owned.sol\":938:957  msg.sender == owner */\n      0xffffffffffffffffffffffffffffffffffffffff\n      and\n        /* \"contracts/staking/Owned.sol\":938:948  msg.sender */\n      caller\n        /* \"contracts/staking/Owned.sol\":938:957  msg.sender == owner */\n      0xffffffffffffffffffffffffffffffffffffffff\n      and\n      eq\n        /* \"contracts/staking/Owned.sol\":917:1030  require(... */\n      tag_342\n      jumpi\n      mload(0x40)\n      0x08c379a000000000000000000000000000000000000000000000000000000000\n      dup2\n      mstore\n      0x04\n      add\n      dup1\n      dup1\n      0x20\n      add\n      dup3\n      dup2\n      sub\n      dup3\n      mstore\n      0x2f\n      dup2\n      mstore\n      0x20\n      add\n      dup1\n      data_873d2051b76e0142b287297afdfc273bf1ab5c24ee229ed4ef117f1ff0679a4a\n      0x2f\n      swap2\n      codecopy\n      0x40\n      add\n      swap2\n      pop\n      pop\n      mload(0x40)\n      dup1\n      swap2\n      sub\n      swap1\n      revert\n    tag_342:\n        /* \"contracts/staking/Owned.sol\":872:1037  function _onlyOwner() private view {... */\n      jump\t// out\n        /* \"node_modules/@openzeppelin/contracts/math/SafeMath.sol\":1109:1260  function trySub(uint256 a, uint256 b) internal pure returns (bool, uint256) {... */\n    tag_171:\n        /* \"node_modules/@openzeppelin/contracts/math/SafeMath.sol\":1170:1174  bool */\n      0x00\n        /* \"node_modules/@openzeppelin/contracts/math/SafeMath.sol\":1176:1183  uint256 */\n      dup1\n        /* \"node_modules/@openzeppelin/contracts/math/SafeMath.sol\":1203:1204  a */\n      dup4\n        /* \"node_modules/@openzeppelin/contracts/math/SafeMath.sol\":1199:1200  b */\n      dup4\n        /* \"node_modules/@openzeppelin/contracts/math/SafeMath.sol\":1199:1204  b > a */\n      gt\n        /* \"node_modules/@openzeppelin/contracts/math/SafeMath.sol\":1195:1223  if (b > a) return (false, 0) */\n      iszero\n      tag_344\n      jumpi\n        /* \"node_modules/@openzeppelin/contracts/math/SafeMath.sol\":1214:1219  false */\n      0x00\n        /* \"node_modules/@openzeppelin/contracts/math/SafeMath.sol\":1221:1222  0 */\n      dup1\n        /* \"node_modules/@openzeppelin/contracts/math/SafeMath.sol\":1206:1223  return (false, 0) */\n      swap2\n      pop\n      swap2\n      pop\n      jump(tag_343)\n        /* \"node_modules/@openzeppelin/contracts/math/SafeMath.sol\":1195:1223  if (b > a) return (false, 0) */\n    tag_344:\n        /* \"node_modules/@openzeppelin/contracts/math/SafeMath.sol\":1241:1245  true */\n      0x01\n        /* \"node_modules/@openzeppelin/contracts/math/SafeMath.sol\":1251:1252  b */\n      dup4\n        /* \"node_modules/@openzeppelin/contracts/math/SafeMath.sol\":1247:1248  a */\n      dup6\n        /* \"node_modules/@openzeppelin/contracts/math/SafeMath.sol\":1247:1252  a - b */\n      sub\n        /* \"node_modules/@openzeppelin/contracts/math/SafeMath.sol\":1233:1253  return (true, a - b) */\n      swap2\n      pop\n      swap2\n      pop\n        /* \"node_modules/@openzeppelin/contracts/math/SafeMath.sol\":1109:1260  function trySub(uint256 a, uint256 b) internal pure returns (bool, uint256) {... */\n    tag_343:\n      swap3\n      pop\n      swap3\n      swap1\n      pop\n      jump\t// out\n        /* \"node_modules/@openzeppelin/contracts/token/ERC20/SafeERC20.sol\":704:879  function safeTransfer(IERC20 token, address to, uint256 value) internal {... */\n    tag_193:\n        /* \"node_modules/@openzeppelin/contracts/token/ERC20/SafeERC20.sol\":786:872  _callOptionalReturn(token, abi.encodeWithSelector(token.transfer.selector, to, value)) */\n      tag_346\n        /* \"node_modules/@openzeppelin/contracts/token/ERC20/SafeERC20.sol\":806:811  token */\n      dup4\n        /* \"node_modules/@openzeppelin/contracts/token/ERC20/SafeERC20.sol\":836:859  token.transfer.selector */\n      shl(0xe0, 0xa9059cbb)\n        /* \"node_modules/@openzeppelin/contracts/token/ERC20/SafeERC20.sol\":861:863  to */\n      dup5\n        /* \"node_modules/@openzeppelin/contracts/token/ERC20/SafeERC20.sol\":865:870  value */\n      dup5\n        /* \"node_modules/@openzeppelin/contracts/token/ERC20/SafeERC20.sol\":813:871  abi.encodeWithSelector(token.transfer.selector, to, value) */\n      add(0x24, mload(0x40))\n      dup1\n      dup4\n      0xffffffffffffffffffffffffffffffffffffffff\n      and\n      dup2\n      mstore\n      0x20\n      add\n      dup3\n      dup2\n      mstore\n      0x20\n      add\n      swap3\n      pop\n      pop\n      pop\n      mload(0x40)\n      0x20\n      dup2\n      dup4\n      sub\n      sub\n      dup2\n      mstore\n      swap1\n      0x40\n      mstore\n      swap1\n      not(0xffffffffffffffffffffffffffffffffffffffffffffffffffffffff)\n      and\n      0x20\n      dup3\n      add\n      dup1\n      mload\n      0xffffffffffffffffffffffffffffffffffffffffffffffffffffffff\n      dup4\n      dup2\n      dup4\n      and\n      or\n      dup4\n      mstore\n      pop\n      pop\n      pop\n      pop\n        /* \"node_modules/@openzeppelin/contracts/token/ERC20/SafeERC20.sol\":786:805  _callOptionalReturn */\n      tag_347\n        /* \"node_modules/@openzeppelin/contracts/token/ERC20/SafeERC20.sol\":786:872  _callOptionalReturn(token, abi.encodeWithSelector(token.transfer.selector, to, value)) */\n      jump\t// in\n    tag_346:\n        /* \"node_modules/@openzeppelin/contracts/token/ERC20/SafeERC20.sol\":704:879  function safeTransfer(IERC20 token, address to, uint256 value) internal {... */\n      pop\n      pop\n      pop\n      jump\t// out\n        /* \"node_modules/@openzeppelin/contracts/math/Math.sol\":399:503  function min(uint256 a, uint256 b) internal pure returns (uint256) {... */\n    tag_269:\n        /* \"node_modules/@openzeppelin/contracts/math/Math.sol\":457:464  uint256 */\n      0x00\n        /* \"node_modules/@openzeppelin/contracts/math/Math.sol\":487:488  b */\n      dup2\n        /* \"node_modules/@openzeppelin/contracts/math/Math.sol\":483:484  a */\n      dup4\n        /* \"node_modules/@openzeppelin/contracts/math/Math.sol\":483:488  a < b */\n      lt\n        /* \"node_modules/@openzeppelin/contracts/math/Math.sol\":483:496  a < b ? a : b */\n      tag_349\n      jumpi\n        /* \"node_modules/@openzeppelin/contracts/math/Math.sol\":495:496  b */\n      dup2\n        /* \"node_modules/@openzeppelin/contracts/math/Math.sol\":483:496  a < b ? a : b */\n      jump(tag_350)\n    tag_349:\n        /* \"node_modules/@openzeppelin/contracts/math/Math.sol\":491:492  a */\n      dup3\n        /* \"node_modules/@openzeppelin/contracts/math/Math.sol\":483:496  a < b ? a : b */\n    tag_350:\n        /* \"node_modules/@openzeppelin/contracts/math/Math.sol\":476:496  return a < b ? a : b */\n      swap1\n      pop\n        /* \"node_modules/@openzeppelin/contracts/math/Math.sol\":399:503  function min(uint256 a, uint256 b) internal pure returns (uint256) {... */\n      swap3\n      swap2\n      pop\n      pop\n      jump\t// out\n        /* \"node_modules/@openzeppelin/contracts/token/ERC20/SafeERC20.sol\":885:1088  function safeTransferFrom(IERC20 token, address from, address to, uint256 value) internal {... */\n    tag_293:\n        /* \"node_modules/@openzeppelin/contracts/token/ERC20/SafeERC20.sol\":985:1081  _callOptionalReturn(token, abi.encodeWithSelector(token.transferFrom.selector, from, to, value)) */\n      tag_352\n        /* \"node_modules/@openzeppelin/contracts/token/ERC20/SafeERC20.sol\":1005:1010  token */\n      dup5\n        /* \"node_modules/@openzeppelin/contracts/token/ERC20/SafeERC20.sol\":1035:1062  token.transferFrom.selector */\n      shl(0xe0, 0x23b872dd)\n        /* \"node_modules/@openzeppelin/contracts/token/ERC20/SafeERC20.sol\":1064:1068  from */\n      dup6\n        /* \"node_modules/@openzeppelin/contracts/token/ERC20/SafeERC20.sol\":1070:1072  to */\n      dup6\n        /* \"node_modules/@openzeppelin/contracts/token/ERC20/SafeERC20.sol\":1074:1079  value */\n      dup6\n        /* \"node_modules/@openzeppelin/contracts/token/ERC20/SafeERC20.sol\":1012:1080  abi.encodeWithSelector(token.transferFrom.selector, from, to, value) */\n      add(0x24, mload(0x40))\n      dup1\n      dup5\n      0xffffffffffffffffffffffffffffffffffffffff\n      and\n      dup2\n      mstore\n      0x20\n      add\n      dup4\n      0xffffffffffffffffffffffffffffffffffffffff\n      and\n      dup2\n      mstore\n      0x20\n      add\n      dup3\n      dup2\n      mstore\n      0x20\n      add\n      swap4\n      pop\n      pop\n      pop\n      pop\n      mload(0x40)\n      0x20\n      dup2\n      dup4\n      sub\n      sub\n      dup2\n      mstore\n      swap1\n      0x40\n      mstore\n      swap1\n      not(0xffffffffffffffffffffffffffffffffffffffffffffffffffffffff)\n      and\n      0x20\n      dup3\n      add\n      dup1\n      mload\n      0xffffffffffffffffffffffffffffffffffffffffffffffffffffffff\n      dup4\n      dup2\n      dup4\n      and\n      or\n      dup4\n      mstore\n      pop\n      pop\n      pop\n      pop\n        /* \"node_modules/@openzeppelin/contracts/token/ERC20/SafeERC20.sol\":985:1004  _callOptionalReturn */\n      tag_347\n        /* \"node_modules/@openzeppelin/contracts/token/ERC20/SafeERC20.sol\":985:1081  _callOptionalReturn(token, abi.encodeWithSelector(token.transferFrom.selector, from, to, value)) */\n      jump\t// in\n    tag_352:\n        /* \"node_modules/@openzeppelin/contracts/token/ERC20/SafeERC20.sol\":885:1088  function safeTransferFrom(IERC20 token, address from, address to, uint256 value) internal {... */\n      pop\n      pop\n      pop\n      pop\n      jump\t// out\n        /* \"contracts/staking/Failsafe.sol\":230:363  function enableFailsafeMode() public virtual onlyOwner {... */\n    tag_314:\n        /* \"contracts/staking/Owned.sol\":836:848  _onlyOwner() */\n      tag_354\n        /* \"contracts/staking/Owned.sol\":836:846  _onlyOwner */\n      tag_156\n        /* \"contracts/staking/Owned.sol\":836:848  _onlyOwner() */\n      jump\t// in\n    tag_354:\n        /* \"contracts/staking/Failsafe.sol\":316:320  true */\n      0x01\n        /* \"contracts/staking/Failsafe.sol\":295:313  failsafeModeActive */\n      0x04\n      0x00\n        /* \"contracts/staking/Failsafe.sol\":295:320  failsafeModeActive = true */\n      0x0100\n      exp\n      dup2\n      sload\n      dup2\n      0xff\n      mul\n      not\n      and\n      swap1\n      dup4\n      iszero\n      iszero\n      mul\n      or\n      swap1\n      sstore\n      pop\n        /* \"contracts/staking/Failsafe.sol\":335:356  FailsafeModeEnabled() */\n      0xe68101b30364d616deefc8cd307b7e27ccbd9c73f138bd478179497563d97a11\n      mload(0x40)\n      mload(0x40)\n      dup1\n      swap2\n      sub\n      swap1\n      log1\n        /* \"contracts/staking/Failsafe.sol\":230:363  function enableFailsafeMode() public virtual onlyOwner {... */\n      jump\t// out\n        /* \"node_modules/@openzeppelin/contracts/token/ERC20/SafeERC20.sol\":2967:3718  function _callOptionalReturn(IERC20 token, bytes memory data) private {... */\n    tag_347:\n        /* \"node_modules/@openzeppelin/contracts/token/ERC20/SafeERC20.sol\":3386:3409  bytes memory returndata */\n      0x60\n        /* \"node_modules/@openzeppelin/contracts/token/ERC20/SafeERC20.sol\":3412:3481  address(token).functionCall(data, \"SafeERC20: low-level call failed\") */\n      tag_357\n        /* \"node_modules/@openzeppelin/contracts/token/ERC20/SafeERC20.sol\":3440:3444  data */\n      dup3\n        /* \"node_modules/@openzeppelin/contracts/token/ERC20/SafeERC20.sol\":3412:3481  address(token).functionCall(data, \"SafeERC20: low-level call failed\") */\n      mload(0x40)\n      dup1\n      0x40\n      add\n      0x40\n      mstore\n      dup1\n      0x20\n      dup2\n      mstore\n      0x20\n      add\n      0x5361666545524332303a206c6f772d6c6576656c2063616c6c206661696c6564\n      dup2\n      mstore\n      pop\n        /* \"node_modules/@openzeppelin/contracts/token/ERC20/SafeERC20.sol\":3420:3425  token */\n      dup6\n        /* \"node_modules/@openzeppelin/contracts/token/ERC20/SafeERC20.sol\":3412:3439  address(token).functionCall */\n      0xffffffffffffffffffffffffffffffffffffffff\n      and\n      tag_358\n      swap1\n        /* \"node_modules/@openzeppelin/contracts/token/ERC20/SafeERC20.sol\":3412:3481  address(token).functionCall(data, \"SafeERC20: low-level call failed\") */\n      swap3\n      swap2\n      swap1\n      0xffffffff\n      and\n      jump\t// in\n    tag_357:\n        /* \"node_modules/@openzeppelin/contracts/token/ERC20/SafeERC20.sol\":3386:3481  bytes memory returndata = address(token).functionCall(data, \"SafeERC20: low-level call failed\") */\n      swap1\n      pop\n        /* \"node_modules/@openzeppelin/contracts/token/ERC20/SafeERC20.sol\":3515:3516  0 */\n      0x00\n        /* \"node_modules/@openzeppelin/contracts/token/ERC20/SafeERC20.sol\":3495:3505  returndata */\n      dup2\n        /* \"node_modules/@openzeppelin/contracts/token/ERC20/SafeERC20.sol\":3495:3512  returndata.length */\n      mload\n        /* \"node_modules/@openzeppelin/contracts/token/ERC20/SafeERC20.sol\":3495:3516  returndata.length > 0 */\n      gt\n        /* \"node_modules/@openzeppelin/contracts/token/ERC20/SafeERC20.sol\":3491:3712  if (returndata.length > 0) { // Return data is optional... */\n      iszero\n      tag_359\n      jumpi\n        /* \"node_modules/@openzeppelin/contracts/token/ERC20/SafeERC20.sol\":3635:3645  returndata */\n      dup1\n        /* \"node_modules/@openzeppelin/contracts/token/ERC20/SafeERC20.sol\":3624:3654  abi.decode(returndata, (bool)) */\n      dup1\n      0x20\n      add\n      swap1\n      mload\n      0x20\n      dup2\n      lt\n      iszero\n      tag_360\n      jumpi\n      0x00\n      dup1\n      revert\n    tag_360:\n      dup2\n      add\n      swap1\n      dup1\n      dup1\n      mload\n      swap1\n      0x20\n      add\n      swap1\n      swap3\n      swap2\n      swap1\n      pop\n      pop\n      pop\n        /* \"node_modules/@openzeppelin/contracts/token/ERC20/SafeERC20.sol\":3616:3701  require(abi.decode(returndata, (bool)), \"SafeERC20: ERC20 operation did not succeed\") */\n      tag_361\n      jumpi\n      mload(0x40)\n      0x08c379a000000000000000000000000000000000000000000000000000000000\n      dup2\n      mstore\n      0x04\n      add\n      dup1\n      dup1\n      0x20\n      add\n      dup3\n      dup2\n      sub\n      dup3\n      mstore\n      0x2a\n      dup2\n      mstore\n      0x20\n      add\n      dup1\n      data_e11ad79d1e4a7f2e5f376964cb99e8e8f7904e3fc16a109f7a7ecb9aa7956dcd\n      0x2a\n      swap2\n      codecopy\n      0x40\n      add\n      swap2\n      pop\n      pop\n      mload(0x40)\n      dup1\n      swap2\n      sub\n      swap1\n      revert\n    tag_361:\n        /* \"node_modules/@openzeppelin/contracts/token/ERC20/SafeERC20.sol\":3491:3712  if (returndata.length > 0) { // Return data is optional... */\n    tag_359:\n        /* \"node_modules/@openzeppelin/contracts/token/ERC20/SafeERC20.sol\":2967:3718  function _callOptionalReturn(IERC20 token, bytes memory data) private {... */\n      pop\n      pop\n      pop\n      jump\t// out\n        /* \"node_modules/@openzeppelin/contracts/utils/Address.sol\":3581:3774  function functionCall(address target, bytes memory data, string memory errorMessage) internal returns (bytes memory) {... */\n    tag_358:\n        /* \"node_modules/@openzeppelin/contracts/utils/Address.sol\":3684:3696  bytes memory */\n      0x60\n        /* \"node_modules/@openzeppelin/contracts/utils/Address.sol\":3715:3767  functionCallWithValue(target, data, 0, errorMessage) */\n      tag_363\n        /* \"node_modules/@openzeppelin/contracts/utils/Address.sol\":3737:3743  target */\n      dup5\n        /* \"node_modules/@openzeppelin/contracts/utils/Address.sol\":3745:3749  data */\n      dup5\n        /* \"node_modules/@openzeppelin/contracts/utils/Address.sol\":3751:3752  0 */\n      0x00\n        /* \"node_modules/@openzeppelin/contracts/utils/Address.sol\":3754:3766  errorMessage */\n      dup6\n        /* \"node_modules/@openzeppelin/contracts/utils/Address.sol\":3715:3736  functionCallWithValue */\n      tag_364\n        /* \"node_modules/@openzeppelin/contracts/utils/Address.sol\":3715:3767  functionCallWithValue(target, data, 0, errorMessage) */\n      jump\t// in\n    tag_363:\n        /* \"node_modules/@openzeppelin/contracts/utils/Address.sol\":3708:3767  return functionCallWithValue(target, data, 0, errorMessage) */\n      swap1\n      pop\n        /* \"node_modules/@openzeppelin/contracts/utils/Address.sol\":3581:3774  function functionCall(address target, bytes memory data, string memory errorMessage) internal returns (bytes memory) {... */\n      swap4\n      swap3\n      pop\n      pop\n      pop\n      jump\t// out\n        /* \"node_modules/@openzeppelin/contracts/utils/Address.sol\":4608:5131  function functionCallWithValue(address target, bytes memory data, uint256 value, string memory errorMessage) internal returns (bytes memory) {... */\n    tag_364:\n        /* \"node_modules/@openzeppelin/contracts/utils/Address.sol\":4735:4747  bytes memory */\n      0x60\n        /* \"node_modules/@openzeppelin/contracts/utils/Address.sol\":4792:4797  value */\n      dup3\n        /* \"node_modules/@openzeppelin/contracts/utils/Address.sol\":4767:4788  address(this).balance */\n      selfbalance\n        /* \"node_modules/@openzeppelin/contracts/utils/Address.sol\":4767:4797  address(this).balance >= value */\n      lt\n      iszero\n        /* \"node_modules/@openzeppelin/contracts/utils/Address.sol\":4759:4840  require(address(this).balance >= value, \"Address: insufficient balance for call\") */\n      tag_366\n      jumpi\n      mload(0x40)\n      0x08c379a000000000000000000000000000000000000000000000000000000000\n      dup2\n      mstore\n      0x04\n      add\n      dup1\n      dup1\n      0x20\n      add\n      dup3\n      dup2\n      sub\n      dup3\n      mstore\n      0x26\n      dup2\n      mstore\n      0x20\n      add\n      dup1\n      data_565f1a77334fc4792800921178c71e4521acffab18ff9e7885b49377ee80ab4c\n      0x26\n      swap2\n      codecopy\n      0x40\n      add\n      swap2\n      pop\n      pop\n      mload(0x40)\n      dup1\n      swap2\n      sub\n      swap1\n      revert\n    tag_366:\n        /* \"node_modules/@openzeppelin/contracts/utils/Address.sol\":4858:4876  isContract(target) */\n      tag_367\n        /* \"node_modules/@openzeppelin/contracts/utils/Address.sol\":4869:4875  target */\n      dup6\n        /* \"node_modules/@openzeppelin/contracts/utils/Address.sol\":4858:4868  isContract */\n      tag_368\n        /* \"node_modules/@openzeppelin/contracts/utils/Address.sol\":4858:4876  isContract(target) */\n      jump\t// in\n    tag_367:\n        /* \"node_modules/@openzeppelin/contracts/utils/Address.sol\":4850:4910  require(isContract(target), \"Address: call to non-contract\") */\n      tag_369\n      jumpi\n      mload(0x40)\n      0x08c379a000000000000000000000000000000000000000000000000000000000\n      dup2\n      mstore\n      0x04\n      add\n      dup1\n      dup1\n      0x20\n      add\n      dup3\n      dup2\n      sub\n      dup3\n      mstore\n      0x1d\n      dup2\n      mstore\n      0x20\n      add\n      dup1\n      0x416464726573733a2063616c6c20746f206e6f6e2d636f6e7472616374000000\n      dup2\n      mstore\n      pop\n      0x20\n      add\n      swap2\n      pop\n      pop\n      mload(0x40)\n      dup1\n      swap2\n      sub\n      swap1\n      revert\n    tag_369:\n        /* \"node_modules/@openzeppelin/contracts/utils/Address.sol\":4981:4993  bool success */\n      0x00\n        /* \"node_modules/@openzeppelin/contracts/utils/Address.sol\":4995:5018  bytes memory returndata */\n      0x60\n        /* \"node_modules/@openzeppelin/contracts/utils/Address.sol\":5022:5028  target */\n      dup7\n        /* \"node_modules/@openzeppelin/contracts/utils/Address.sol\":5022:5033  target.call */\n      0xffffffffffffffffffffffffffffffffffffffff\n      and\n        /* \"node_modules/@openzeppelin/contracts/utils/Address.sol\":5042:5047  value */\n      dup6\n        /* \"node_modules/@openzeppelin/contracts/utils/Address.sol\":5050:5054  data */\n      dup8\n        /* \"node_modules/@openzeppelin/contracts/utils/Address.sol\":5022:5055  target.call{ value: value }(data) */\n      mload(0x40)\n      dup1\n      dup3\n      dup1\n      mload\n      swap1\n      0x20\n      add\n      swap1\n      dup1\n      dup4\n      dup4\n    tag_370:\n      0x20\n      dup4\n      lt\n      tag_372\n      jumpi\n      dup1\n      mload\n      dup3\n      mstore\n      0x20\n      dup3\n      add\n      swap2\n      pop\n      0x20\n      dup2\n      add\n      swap1\n      pop\n      0x20\n      dup4\n      sub\n      swap3\n      pop\n      jump(tag_370)\n    tag_372:\n      0x01\n      dup4\n      0x20\n      sub\n      0x0100\n      exp\n      sub\n      dup1\n      not\n      dup3\n      mload\n      and\n      dup2\n      dup5\n      mload\n      and\n      dup1\n      dup3\n      or\n      dup6\n      mstore\n      pop\n      pop\n      pop\n      pop\n      pop\n      pop\n      swap1\n      pop\n      add\n      swap2\n      pop\n      pop\n      0x00\n      mload(0x40)\n      dup1\n      dup4\n      sub\n      dup2\n      dup6\n      dup8\n      gas\n      call\n      swap3\n      pop\n      pop\n      pop\n      returndatasize\n      dup1\n      0x00\n      dup2\n      eq\n      tag_375\n      jumpi\n      mload(0x40)\n      swap2\n      pop\n      and(add(returndatasize, 0x3f), not(0x1f))\n      dup3\n      add\n      0x40\n      mstore\n      returndatasize\n      dup3\n      mstore\n      returndatasize\n      0x00\n      0x20\n      dup5\n      add\n      returndatacopy\n      jump(tag_374)\n    tag_375:\n      0x60\n      swap2\n      pop\n    tag_374:\n      pop\n        /* \"node_modules/@openzeppelin/contracts/utils/Address.sol\":4980:5055  (bool success, bytes memory returndata) = target.call{ value: value }(data) */\n      swap2\n      pop\n      swap2\n      pop\n        /* \"node_modules/@openzeppelin/contracts/utils/Address.sol\":5072:5124  _verifyCallResult(success, returndata, errorMessage) */\n      tag_376\n        /* \"node_modules/@openzeppelin/contracts/utils/Address.sol\":5090:5097  success */\n      dup3\n        /* \"node_modules/@openzeppelin/contracts/utils/Address.sol\":5099:5109  returndata */\n      dup3\n        /* \"node_modules/@openzeppelin/contracts/utils/Address.sol\":5111:5123  errorMessage */\n      dup7\n        /* \"node_modules/@openzeppelin/contracts/utils/Address.sol\":5072:5089  _verifyCallResult */\n      tag_377\n        /* \"node_modules/@openzeppelin/contracts/utils/Address.sol\":5072:5124  _verifyCallResult(success, returndata, errorMessage) */\n      jump\t// in\n    tag_376:\n        /* \"node_modules/@openzeppelin/contracts/utils/Address.sol\":5065:5124  return _verifyCallResult(success, returndata, errorMessage) */\n      swap3\n      pop\n      pop\n      pop\n        /* \"node_modules/@openzeppelin/contracts/utils/Address.sol\":4608:5131  function functionCallWithValue(address target, bytes memory data, uint256 value, string memory errorMessage) internal returns (bytes memory) {... */\n      swap5\n      swap4\n      pop\n      pop\n      pop\n      pop\n      jump\t// out\n        /* \"node_modules/@openzeppelin/contracts/utils/Address.sol\":726:1139  function isContract(address account) internal view returns (bool) {... */\n    tag_368:\n        /* \"node_modules/@openzeppelin/contracts/utils/Address.sol\":786:790  bool */\n      0x00\n        /* \"node_modules/@openzeppelin/contracts/utils/Address.sol\":989:1001  uint256 size */\n      dup1\n        /* \"node_modules/@openzeppelin/contracts/utils/Address.sol\":1098:1105  account */\n      dup3\n        /* \"node_modules/@openzeppelin/contracts/utils/Address.sol\":1086:1106  extcodesize(account) */\n      extcodesize\n        /* \"node_modules/@openzeppelin/contracts/utils/Address.sol\":1078:1106  size := extcodesize(account) */\n      swap1\n      pop\n        /* \"node_modules/@openzeppelin/contracts/utils/Address.sol\":1131:1132  0 */\n      0x00\n        /* \"node_modules/@openzeppelin/contracts/utils/Address.sol\":1124:1128  size */\n      dup2\n        /* \"node_modules/@openzeppelin/contracts/utils/Address.sol\":1124:1132  size > 0 */\n      gt\n        /* \"node_modules/@openzeppelin/contracts/utils/Address.sol\":1117:1132  return size > 0 */\n      swap2\n      pop\n      pop\n        /* \"node_modules/@openzeppelin/contracts/utils/Address.sol\":726:1139  function isContract(address account) internal view returns (bool) {... */\n      swap2\n      swap1\n      pop\n      jump\t// out\n        /* \"node_modules/@openzeppelin/contracts/utils/Address.sol\":7091:7816  function _verifyCallResult(bool success, bytes memory returndata, string memory errorMessage) private pure returns(bytes memory) {... */\n    tag_377:\n        /* \"node_modules/@openzeppelin/contracts/utils/Address.sol\":7206:7218  bytes memory */\n      0x60\n        /* \"node_modules/@openzeppelin/contracts/utils/Address.sol\":7234:7241  success */\n      dup4\n        /* \"node_modules/@openzeppelin/contracts/utils/Address.sol\":7230:7810  if (success) {... */\n      iszero\n      tag_380\n      jumpi\n        /* \"node_modules/@openzeppelin/contracts/utils/Address.sol\":7264:7274  returndata */\n      dup3\n        /* \"node_modules/@openzeppelin/contracts/utils/Address.sol\":7257:7274  return returndata */\n      swap1\n      pop\n      jump(tag_379)\n        /* \"node_modules/@openzeppelin/contracts/utils/Address.sol\":7230:7810  if (success) {... */\n    tag_380:\n        /* \"node_modules/@openzeppelin/contracts/utils/Address.sol\":7395:7396  0 */\n      0x00\n        /* \"node_modules/@openzeppelin/contracts/utils/Address.sol\":7375:7385  returndata */\n      dup4\n        /* \"node_modules/@openzeppelin/contracts/utils/Address.sol\":7375:7392  returndata.length */\n      mload\n        /* \"node_modules/@openzeppelin/contracts/utils/Address.sol\":7375:7396  returndata.length > 0 */\n      gt\n        /* \"node_modules/@openzeppelin/contracts/utils/Address.sol\":7371:7800  if (returndata.length > 0) {... */\n      iszero\n      tag_382\n      jumpi\n        /* \"node_modules/@openzeppelin/contracts/utils/Address.sol\":7633:7643  returndata */\n      dup3\n        /* \"node_modules/@openzeppelin/contracts/utils/Address.sol\":7627:7644  mload(returndata) */\n      mload\n        /* \"node_modules/@openzeppelin/contracts/utils/Address.sol\":7693:7708  returndata_size */\n      dup1\n        /* \"node_modules/@openzeppelin/contracts/utils/Address.sol\":7680:7690  returndata */\n      dup5\n        /* \"node_modules/@openzeppelin/contracts/utils/Address.sol\":7676:7678  32 */\n      0x20\n        /* \"node_modules/@openzeppelin/contracts/utils/Address.sol\":7672:7691  add(32, returndata) */\n      add\n        /* \"node_modules/@openzeppelin/contracts/utils/Address.sol\":7665:7709  revert(add(32, returndata), returndata_size) */\n      revert\n        /* \"node_modules/@openzeppelin/contracts/utils/Address.sol\":7582:7727  {... */\n    tag_382:\n        /* \"node_modules/@openzeppelin/contracts/utils/Address.sol\":7772:7784  errorMessage */\n      dup2\n        /* \"node_modules/@openzeppelin/contracts/utils/Address.sol\":7765:7785  revert(errorMessage) */\n      mload(0x40)\n      0x08c379a000000000000000000000000000000000000000000000000000000000\n      dup2\n      mstore\n      0x04\n      add\n      dup1\n      dup1\n      0x20\n      add\n      dup3\n      dup2\n      sub\n      dup3\n      mstore\n      dup4\n      dup2\n      dup2\n      mload\n      dup2\n      mstore\n      0x20\n      add\n      swap2\n      pop\n      dup1\n      mload\n      swap1\n      0x20\n      add\n      swap1\n      dup1\n      dup4\n      dup4\n      0x00\n    tag_384:\n      dup4\n      dup2\n      lt\n      iszero\n      tag_386\n      jumpi\n      dup1\n      dup3\n      add\n      mload\n      dup2\n      dup5\n      add\n      mstore\n      0x20\n      dup2\n      add\n      swap1\n      pop\n      jump(tag_384)\n    tag_386:\n      pop\n      pop\n      pop\n      pop\n      swap1\n      pop\n      swap1\n      dup2\n      add\n      swap1\n      0x1f\n      and\n      dup1\n      iszero\n      tag_387\n      jumpi\n      dup1\n      dup3\n      sub\n      dup1\n      mload\n      0x01\n      dup4\n      0x20\n      sub\n      0x0100\n      exp\n      sub\n      not\n      and\n      dup2\n      mstore\n      0x20\n      add\n      swap2\n      pop\n    tag_387:\n      pop\n      swap3\n      pop\n      pop\n      pop\n      mload(0x40)\n      dup1\n      swap2\n      sub\n      swap1\n      revert\n        /* \"node_modules/@openzeppelin/contracts/utils/Address.sol\":7091:7816  function _verifyCallResult(bool success, bytes memory returndata, string memory errorMessage) private pure returns(bytes memory) {... */\n    tag_379:\n      swap4\n      swap3\n      pop\n      pop\n      pop\n      jump\t// out\n    stop\n    data_07f2725172f5941b576a01ec7036d341e0c837e280f27b110cb3e6fd2f2c4a56 50726576696f7573207265776172647320706572696f64206d75737420626520636f6d706c657465206265666f7265206368616e67696e6720746865206475726174696f6e20666f7220746865206e657720706572696f64\n    data_1149e36cd24095bebc9341ef03810e0e2a00039190624df6f2d7934141e2233b 596f75206d757374206265206e6f6d696e61746564206265666f726520796f752063616e20616363657074206f776e657273686970\n    data_2033a41bcffa5b8f92dc907d4af8bed97aa83db30ad47a9df6bd54b87ba115ba 5468697320616374696f6e2063616e6e6f7420626520706572666f726d6564207768696c652074686520636f6e747261637420697320696e204661696c73616665204d6f6465\n    data_234b4e3fb74b9596146eb86fb0ad9d7ebcb0382e8d6bce71f4dd166b01c5b9eb 5468697320616374696f6e2063616e206f6e6c7920626520706572666f726d6564207768696c652074686520636f6e747261637420697320696e204661696c73616665204d6f6465\n    data_565f1a77334fc4792800921178c71e4521acffab18ff9e7885b49377ee80ab4c 416464726573733a20696e73756666696369656e742062616c616e636520666f722063616c6c\n    data_873d2051b76e0142b287297afdfc273bf1ab5c24ee229ed4ef117f1ff0679a4a 4f6e6c792074686520636f6e7472616374206f776e6572206d617920706572666f726d207468697320616374696f6e\n    data_9113bb53c2876a3805b2c9242029423fc540a728243ce887ab24c82cf119fba3 536166654d6174683a206d756c7469706c69636174696f6e206f766572666c6f77\n    data_9ff4e18b87ef9882b8d15612007c8f8b8cf50b946e5a83fada595b3011a77783 43616e6e6f7420776974686472617720756e74696c206d696e696d756d207374616b696e672074696d652068617320706173736564\n    data_ab045341077a9f59f5c2fe6d6f452617ad6dd5f22a52656ff2bcfdd382aa96d7 54696d657374616d70206d757374206265206166746572206c61737455706461746554696d65\n    data_b214273cdb244871f55e1966d43ad7febce81860c609dda0e226c7c1b7959d6f 5468697320616374696f6e2063616e6e6f7420626520706572666f726d6564207768696c652074686520636f6e747261637420697320706175736564\n    data_d50b095422f4cbfcb4c90fbd4d55aaf0967bf1d90e94bb6a1ae9fc4ee7e733de 43616c6c6572206973206e6f742052657761726473446973747269627574696f6e20636f6e7472616374\n    data_e11ad79d1e4a7f2e5f376964cb99e8e8f7904e3fc16a109f7a7ecb9aa7956dcd 5361666545524332303a204552433230206f7065726174696f6e20646964206e6f742073756363656564\n    data_e902b2ba80afc8e77e2a3045d496de84de9fbef8d0042ce1b6c8496beba60751 43616e6e6f74206765742072657761726420756e74696c206d696e696d756d207374616b696e672074696d652068617320706173736564\n    data_f43de9f2a3539b2ac9cf1844588e9cc0acd1b2bdb1ec43734f76440993ede0a9 43616e6e6f7420776974686472617720746865207374616b696e6720746f6b656e\n\n    auxdata: 0xa2646970667358221220abc0926044bbd6fcee993af43b34e4d11df01b028bb70062a969b0c26f8a396564736f6c634300060c0033\n}\n",
				"bytecode": {
					"linkReferences": {},
					"object": "60806040526000600460006101000a81548160ff0219169083151502179055506000600855600060095562ed4e00600a553480156200003d57600080fd5b5060405162003b0a38038062003b0a833981810160405260a08110156200006357600080fd5b81019080805190602001909291908051906020019092919080519060200190929190805190602001909291908051906020019092919050505084600073ffffffffffffffffffffffffffffffffffffffff168173ffffffffffffffffffffffffffffffffffffffff16141562000141576040517f08c379a00000000000000000000000000000000000000000000000000000000081526004018080602001828103825260198152602001807f4f776e657220616464726573732063616e6e6f7420626520300000000000000081525060200191505060405180910390fd5b806000806101000a81548173ffffffffffffffffffffffffffffffffffffffff021916908373ffffffffffffffffffffffffffffffffffffffff1602179055507fb532073b38c83145e3e5135377a08bf9aab55bc0fd7c1179cd4fb995d2a5159c600082604051808373ffffffffffffffffffffffffffffffffffffffff1681526020018273ffffffffffffffffffffffffffffffffffffffff1681526020019250505060405180910390a1506001600381905550600073ffffffffffffffffffffffffffffffffffffffff1660008054906101000a900473ffffffffffffffffffffffffffffffffffffffff1673ffffffffffffffffffffffffffffffffffffffff161415620002ba576040517f08c379a00000000000000000000000000000000000000000000000000000000081526004018080602001828103825260118152602001807f4f776e6572206d7573742062652073657400000000000000000000000000000081525060200191505060405180910390fd5b600073ffffffffffffffffffffffffffffffffffffffff1660008054906101000a900473ffffffffffffffffffffffffffffffffffffffff1673ffffffffffffffffffffffffffffffffffffffff1614156200037e576040517f08c379a00000000000000000000000000000000000000000000000000000000081526004018080602001828103825260118152602001807f4f776e6572206d7573742062652073657400000000000000000000000000000081525060200191505060405180910390fd5b82600660016101000a81548173ffffffffffffffffffffffffffffffffffffffff021916908373ffffffffffffffffffffffffffffffffffffffff16021790555081600760006101000a81548173ffffffffffffffffffffffffffffffffffffffff021916908373ffffffffffffffffffffffffffffffffffffffff16021790555083600260006101000a81548173ffffffffffffffffffffffffffffffffffffffff021916908373ffffffffffffffffffffffffffffffffffffffff16021790555080600b8190555050505050506136ad806200045d6000396000f3fe608060405234801561001057600080fd5b50600436106102475760003560e01c806370a082311161013b578063c8f33c91116100b8578063e2adc2371161007c578063e2adc2371461084e578063e942204614610858578063e9fad8ee14610886578063ebe2b12b14610890578063f603944c146108ae57610247565b8063c8f33c9114610792578063cc1a378f146107b0578063cd3daf9d146107de578063d1af0c7d146107fc578063df136d651461083057610247565b80638980f11f116100ff5780638980f11f1461066c5780638b876347146106ba5780638da5cb5b1461071257806391b4ded914610746578063a694fc3a1461076457610247565b806370a082311461059a57806372f702f3146105f257806379ba5097146106265780637b0a47ee1461063057806380faa57d1461064e57610247565b80632e1a7d4d116101c95780633fc6df6e1161018d5780633fc6df6e146104da57806344142db51461050e57806353a47bb714610518578063556f6e6b1461054c5780635c975abb1461057a57610247565b80632e1a7d4d1461044c5780632f3d3b141461047a578063386a9525146104845780633c6b16ab146104a25780633d18b912146104d057610247565b806318160ddd1161021057806318160ddd1461039057806319762143146103ae5780631c1f78eb146103f2578063242df9e11461041057806327ab19691461042e57610247565b80628cc2621461024c5780630700037d146102a45780631265cc97146102fc5780631627540c1461031c57806316c38b3c14610360575b600080fd5b61028e6004803603602081101561026257600080fd5b81019080803573ffffffffffffffffffffffffffffffffffffffff1690602001909291905050506108cc565b6040518082815260200191505060405180910390f35b6102e6600480360360208110156102ba57600080fd5b81019080803573ffffffffffffffffffffffffffffffffffffffff1690602001909291905050506109ea565b6040518082815260200191505060405180910390f35b610304610a02565b60405180821515815260200191505060405180910390f35b61035e6004803603602081101561033257600080fd5b81019080803573ffffffffffffffffffffffffffffffffffffffff169060200190929190505050610a15565b005b61038e6004803603602081101561037657600080fd5b81019080803515159060200190929190505050610aae565b005b610398610b59565b6040518082815260200191505060405180910390f35b6103f0600480360360208110156103c457600080fd5b81019080803573ffffffffffffffffffffffffffffffffffffffff169060200190929190505050610b63565b005b6103fa610baf565b6040518082815260200191505060405180910390f35b610418610bcd565b6040518082815260200191505060405180910390f35b610436610bd3565b6040518082815260200191505060405180910390f35b6104786004803603602081101561046257600080fd5b8101908080359060200190929190505050610c06565b005b6104826110fa565b005b61048c6112ad565b6040518082815260200191505060405180910390f35b6104ce600480360360208110156104b857600080fd5b81019080803590602001909291905050506112b3565b005b6104d86116f6565b005b6104e2611ac9565b604051808273ffffffffffffffffffffffffffffffffffffffff16815260200191505060405180910390f35b610516611aef565b005b610520611c4d565b604051808273ffffffffffffffffffffffffffffffffffffffff16815260200191505060405180910390f35b6105786004803603602081101561056257600080fd5b8101908080359060200190929190505050611c73565b005b610582611e40565b60405180821515815260200191505060405180910390f35b6105dc600480360360208110156105b057600080fd5b81019080803573ffffffffffffffffffffffffffffffffffffffff169060200190929190505050611e53565b6040518082815260200191505060405180910390f35b6105fa611e9c565b604051808273ffffffffffffffffffffffffffffffffffffffff16815260200191505060405180910390f35b61062e611ec2565b005b6106386120bb565b6040518082815260200191505060405180910390f35b6106566120c1565b6040518082815260200191505060405180910390f35b6106b86004803603604081101561068257600080fd5b81019080803573ffffffffffffffffffffffffffffffffffffffff169060200190929190803590602001909291905050506120d4565b005b6106fc600480360360208110156106d057600080fd5b81019080803573ffffffffffffffffffffffffffffffffffffffff169060200190929190505050612227565b6040518082815260200191505060405180910390f35b61071a61223f565b604051808273ffffffffffffffffffffffffffffffffffffffff16815260200191505060405180910390f35b61074e612263565b6040518082815260200191505060405180910390f35b6107906004803603602081101561077a57600080fd5b8101908080359060200190929190505050612269565b005b61079a61270b565b6040518082815260200191505060405180910390f35b6107dc600480360360208110156107c657600080fd5b8101908080359060200190929190505050612711565b005b6107e661281c565b6040518082815260200191505060405180910390f35b6108046128aa565b604051808273ffffffffffffffffffffffffffffffffffffffff16815260200191505060405180910390f35b6108386128d0565b6040518082815260200191505060405180910390f35b6108566128d6565b005b6108846004803603602081101561086e57600080fd5b810190808035906020019092919050505061296e565b005b61088e612a1d565b005b610898612ad5565b6040518082815260200191505060405180910390f35b6108b6612adb565b6040518082815260200191505060405180910390f35b60006109e3600f60008473ffffffffffffffffffffffffffffffffffffffff1673ffffffffffffffffffffffffffffffffffffffff168152602001908152602001600020546109d5670de0b6b3a76400006109c7610979600e60008973ffffffffffffffffffffffffffffffffffffffff1673ffffffffffffffffffffffffffffffffffffffff1681526020019081526020016000205461096b61281c565b612b5f90919063ffffffff16565b601160008973ffffffffffffffffffffffffffffffffffffffff1673ffffffffffffffffffffffffffffffffffffffff16815260200190815260200160002054612be290919063ffffffff16565b612c6890919063ffffffff16565b612cf190919063ffffffff16565b9050919050565b600f6020528060005260406000206000915090505481565b600460009054906101000a900460ff1681565b610a1d612d79565b80600160006101000a81548173ffffffffffffffffffffffffffffffffffffffff021916908373ffffffffffffffffffffffffffffffffffffffff1602179055507f906a1c6bd7e3091ea86693dd029a831c19049ce77f1dce2ce0bab1cacbabce2281604051808273ffffffffffffffffffffffffffffffffffffffff16815260200191505060405180910390a150565b610ab6612d79565b600660009054906101000a900460ff1615158115151415610ad657610b56565b80600660006101000a81548160ff021916908315150217905550600660009054906101000a900460ff1615610b0d57426005819055505b7f8fb6c181ee25a520cf3dd6565006ef91229fcfe5a989566c2a3b8c115570cec5600660009054906101000a900460ff1660405180821515815260200191505060405180910390a15b50565b6000601054905090565b610b6b612d79565b80600260006101000a81548173ffffffffffffffffffffffffffffffffffffffff021916908373ffffffffffffffffffffffffffffffffffffffff16021790555050565b6000610bc8600a54600954612be290919063ffffffff16565b905090565b600b5481565b6000806000610bed42600854612e1f90919063ffffffff16565b9150915081610bfd576000610bff565b805b9250505090565b600460009054906101000a900460ff1615610c6c576040517f08c379a00000000000000000000000000000000000000000000000000000000081526004018080602001828103825260468152602001806134316046913960600191505060405180910390fd5b60026003541415610ce5576040517f08c379a000000000000000000000000000000000000000000000000000000000815260040180806020018281038252601f8152602001807f5265656e7472616e637947756172643a207265656e7472616e742063616c6c0081525060200191505060405180910390fd5b600260038190555033600460009054906101000a900460ff16610de657610d0a61281c565b600d81905550610d186120c1565b600c81905550600073ffffffffffffffffffffffffffffffffffffffff168173ffffffffffffffffffffffffffffffffffffffff1614610de557610d5b816108cc565b600f60008373ffffffffffffffffffffffffffffffffffffffff1673ffffffffffffffffffffffffffffffffffffffff16815260200190815260200160002081905550600d54600e60008373ffffffffffffffffffffffffffffffffffffffff1673ffffffffffffffffffffffffffffffffffffffff168152602001908152602001600020819055505b5b60008211610e5c576040517f08c379a00000000000000000000000000000000000000000000000000000000081526004018080602001828103825260118152602001807f43616e6e6f74207769746864726177203000000000000000000000000000000081525060200191505060405180910390fd5b6000600b541480610ec05750600b54610ebd601260003373ffffffffffffffffffffffffffffffffffffffff1673ffffffffffffffffffffffffffffffffffffffff1681526020019081526020016000205442612b5f90919063ffffffff16565b10155b610f15576040517f08c379a00000000000000000000000000000000000000000000000000000000081526004018080602001828103825260358152602001806135356035913960400191505060405180910390fd5b610f2a82601054612b5f90919063ffffffff16565b601081905550610f8282601160003373ffffffffffffffffffffffffffffffffffffffff1673ffffffffffffffffffffffffffffffffffffffff16815260200190815260200160002054612b5f90919063ffffffff16565b601160003373ffffffffffffffffffffffffffffffffffffffff1673ffffffffffffffffffffffffffffffffffffffff168152602001908152602001600020819055506000601160003373ffffffffffffffffffffffffffffffffffffffff1673ffffffffffffffffffffffffffffffffffffffff168152602001908152602001600020541415611053576000601260003373ffffffffffffffffffffffffffffffffffffffff1673ffffffffffffffffffffffffffffffffffffffff168152602001908152602001600020819055505b6110a03383600760009054906101000a900473ffffffffffffffffffffffffffffffffffffffff1673ffffffffffffffffffffffffffffffffffffffff16612e479092919063ffffffff16565b3373ffffffffffffffffffffffffffffffffffffffff167f7084f5476618d8e60b11ef0d7d3f06914655adb8793e28ff7f018d4c76d505d5836040518082815260200191505060405180910390a250600160038190555050565b600460009054906101000a900460ff1661115f576040517f08c379a00000000000000000000000000000000000000000000000000000000081526004018080602001828103825260488152602001806134776048913960600191505060405180910390fd5b6000601160003373ffffffffffffffffffffffffffffffffffffffff1673ffffffffffffffffffffffffffffffffffffffff16815260200190815260200160002054905060008111156112aa576111c181601054612b5f90919063ffffffff16565b60108190555061121981601160003373ffffffffffffffffffffffffffffffffffffffff1673ffffffffffffffffffffffffffffffffffffffff16815260200190815260200160002054612b5f90919063ffffffff16565b601160003373ffffffffffffffffffffffffffffffffffffffff1673ffffffffffffffffffffffffffffffffffffffff168152602001908152602001600020819055506112a93382600760009054906101000a900473ffffffffffffffffffffffffffffffffffffffff1673ffffffffffffffffffffffffffffffffffffffff16612e479092919063ffffffff16565b5b50565b600a5481565b600460009054906101000a900460ff1615611319576040517f08c379a00000000000000000000000000000000000000000000000000000000081526004018080602001828103825260468152602001806134316046913960600191505060405180910390fd5b600260009054906101000a900473ffffffffffffffffffffffffffffffffffffffff1673ffffffffffffffffffffffffffffffffffffffff163373ffffffffffffffffffffffffffffffffffffffff16146113bf576040517f08c379a000000000000000000000000000000000000000000000000000000000815260040180806020018281038252602a8152602001806135cc602a913960400191505060405180910390fd5b6000600460009054906101000a900460ff166114b9576113dd61281c565b600d819055506113eb6120c1565b600c81905550600073ffffffffffffffffffffffffffffffffffffffff168173ffffffffffffffffffffffffffffffffffffffff16146114b85761142e816108cc565b600f60008373ffffffffffffffffffffffffffffffffffffffff1673ffffffffffffffffffffffffffffffffffffffff16815260200190815260200160002081905550600d54600e60008373ffffffffffffffffffffffffffffffffffffffff1673ffffffffffffffffffffffffffffffffffffffff168152602001908152602001600020819055505b5b60085442106114e2576114d7600a5483612c6890919063ffffffff16565b600981905550611544565b60006114f942600854612b5f90919063ffffffff16565b9050600061151260095483612be290919063ffffffff16565b905061153b600a5461152d8387612cf190919063ffffffff16565b612c6890919063ffffffff16565b60098190555050505b6000600660019054906101000a900473ffffffffffffffffffffffffffffffffffffffff1673ffffffffffffffffffffffffffffffffffffffff166370a08231306040518263ffffffff1660e01b8152600401808273ffffffffffffffffffffffffffffffffffffffff16815260200191505060206040518083038186803b1580156115cf57600080fd5b505afa1580156115e3573d6000803e3d6000fd5b505050506040513d60208110156115f957600080fd5b81019080805190602001909291905050509050611621600a5482612c6890919063ffffffff16565b6009541115611698576040517f08c379a00000000000000000000000000000000000000000000000000000000081526004018080602001828103825260188152602001807f50726f76696465642072657761726420746f6f2068696768000000000000000081525060200191505060405180910390fd5b42600c819055506116b4600a5442612cf190919063ffffffff16565b6008819055507fde88a922e0d3b88b24e9623efeb464919c6bf9f66857a65e2bfcf2ce87a9433d836040518082815260200191505060405180910390a1505050565b600460009054906101000a900460ff161561175c576040517f08c379a00000000000000000000000000000000000000000000000000000000081526004018080602001828103825260468152602001806134316046913960600191505060405180910390fd5b600260035414156117d5576040517f08c379a000000000000000000000000000000000000000000000000000000000815260040180806020018281038252601f8152602001807f5265656e7472616e637947756172643a207265656e7472616e742063616c6c0081525060200191505060405180910390fd5b600260038190555033600460009054906101000a900460ff166118d6576117fa61281c565b600d819055506118086120c1565b600c81905550600073ffffffffffffffffffffffffffffffffffffffff168173ffffffffffffffffffffffffffffffffffffffff16146118d55761184b816108cc565b600f60008373ffffffffffffffffffffffffffffffffffffffff1673ffffffffffffffffffffffffffffffffffffffff16815260200190815260200160002081905550600d54600e60008373ffffffffffffffffffffffffffffffffffffffff1673ffffffffffffffffffffffffffffffffffffffff168152602001908152602001600020819055505b5b6000600b54148061193a5750600b54611937601260003373ffffffffffffffffffffffffffffffffffffffff1673ffffffffffffffffffffffffffffffffffffffff1681526020019081526020016000205442612b5f90919063ffffffff16565b10155b61198f576040517f08c379a00000000000000000000000000000000000000000000000000000000081526004018080602001828103825260378152602001806136206037913960400191505060405180910390fd5b6000600f60003373ffffffffffffffffffffffffffffffffffffffff1673ffffffffffffffffffffffffffffffffffffffff1681526020019081526020016000205490506000811115611abd576000600f60003373ffffffffffffffffffffffffffffffffffffffff1673ffffffffffffffffffffffffffffffffffffffff16815260200190815260200160002081905550611a6e3382600660019054906101000a900473ffffffffffffffffffffffffffffffffffffffff1673ffffffffffffffffffffffffffffffffffffffff16612e479092919063ffffffff16565b3373ffffffffffffffffffffffffffffffffffffffff167fe2403640ba68fed3a2f88b7557551d1993f84b99bb10ff833f0cf8db0c5e0486826040518082815260200191505060405180910390a25b50506001600381905550565b600260009054906101000a900473ffffffffffffffffffffffffffffffffffffffff1681565b611af7612d79565b6000611bd1601054600760009054906101000a900473ffffffffffffffffffffffffffffffffffffffff1673ffffffffffffffffffffffffffffffffffffffff166370a08231306040518263ffffffff1660e01b8152600401808273ffffffffffffffffffffffffffffffffffffffff16815260200191505060206040518083038186803b158015611b8857600080fd5b505afa158015611b9c573d6000803e3d6000fd5b505050506040513d6020811015611bb257600080fd5b8101908080519060200190929190505050612b5f90919063ffffffff16565b90506000811115611c4a57611c4960008054906101000a900473ffffffffffffffffffffffffffffffffffffffff1682600760009054906101000a900473ffffffffffffffffffffffffffffffffffffffff1673ffffffffffffffffffffffffffffffffffffffff16612e479092919063ffffffff16565b5b50565b600160009054906101000a900473ffffffffffffffffffffffffffffffffffffffff1681565b600460009054906101000a900460ff1615611cd9576040517f08c379a00000000000000000000000000000000000000000000000000000000081526004018080602001828103825260468152602001806134316046913960600191505060405180910390fd5b611ce1612d79565b6000600460009054906101000a900460ff16611ddb57611cff61281c565b600d81905550611d0d6120c1565b600c81905550600073ffffffffffffffffffffffffffffffffffffffff168173ffffffffffffffffffffffffffffffffffffffff1614611dda57611d50816108cc565b600f60008373ffffffffffffffffffffffffffffffffffffffff1673ffffffffffffffffffffffffffffffffffffffff16815260200190815260200160002081905550600d54600e60008373ffffffffffffffffffffffffffffffffffffffff1673ffffffffffffffffffffffffffffffffffffffff168152602001908152602001600020819055505b5b600c548211611e35576040517f08c379a000000000000000000000000000000000000000000000000000000000815260040180806020018281038252602681526020018061356a6026913960400191505060405180910390fd5b816008819055505050565b600660009054906101000a900460ff1681565b6000601160008373ffffffffffffffffffffffffffffffffffffffff1673ffffffffffffffffffffffffffffffffffffffff168152602001908152602001600020549050919050565b600760009054906101000a900473ffffffffffffffffffffffffffffffffffffffff1681565b600160009054906101000a900473ffffffffffffffffffffffffffffffffffffffff1673ffffffffffffffffffffffffffffffffffffffff163373ffffffffffffffffffffffffffffffffffffffff1614611f68576040517f08c379a00000000000000000000000000000000000000000000000000000000081526004018080602001828103825260358152602001806133fc6035913960400191505060405180910390fd5b7fb532073b38c83145e3e5135377a08bf9aab55bc0fd7c1179cd4fb995d2a5159c60008054906101000a900473ffffffffffffffffffffffffffffffffffffffff16600160009054906101000a900473ffffffffffffffffffffffffffffffffffffffff16604051808373ffffffffffffffffffffffffffffffffffffffff1681526020018273ffffffffffffffffffffffffffffffffffffffff1681526020019250505060405180910390a1600160009054906101000a900473ffffffffffffffffffffffffffffffffffffffff166000806101000a81548173ffffffffffffffffffffffffffffffffffffffff021916908373ffffffffffffffffffffffffffffffffffffffff1602179055506000600160006101000a81548173ffffffffffffffffffffffffffffffffffffffff021916908373ffffffffffffffffffffffffffffffffffffffff160217905550565b60095481565b60006120cf42600854612ee9565b905090565b6120dc612d79565b600760009054906101000a900473ffffffffffffffffffffffffffffffffffffffff1673ffffffffffffffffffffffffffffffffffffffff168273ffffffffffffffffffffffffffffffffffffffff161415612183576040517f08c379a00000000000000000000000000000000000000000000000000000000081526004018080602001828103825260218152602001806136576021913960400191505060405180910390fd5b6121ce60008054906101000a900473ffffffffffffffffffffffffffffffffffffffff16828473ffffffffffffffffffffffffffffffffffffffff16612e479092919063ffffffff16565b7f8c1256b8896378cd5044f80c202f9772b9d77dc85c8a6eb51967210b09bfaa288282604051808373ffffffffffffffffffffffffffffffffffffffff1681526020018281526020019250505060405180910390a15050565b600e6020528060005260406000206000915090505481565b60008054906101000a900473ffffffffffffffffffffffffffffffffffffffff1681565b60055481565b600460009054906101000a900460ff16156122cf576040517f08c379a00000000000000000000000000000000000000000000000000000000081526004018080602001828103825260468152602001806134316046913960600191505060405180910390fd5b60026003541415612348576040517f08c379a000000000000000000000000000000000000000000000000000000000815260040180806020018281038252601f8152602001807f5265656e7472616e637947756172643a207265656e7472616e742063616c6c0081525060200191505060405180910390fd5b6002600381905550600660009054906101000a900460ff16156123b6576040517f08c379a000000000000000000000000000000000000000000000000000000000815260040180806020018281038252603c815260200180613590603c913960400191505060405180910390fd5b33600460009054906101000a900460ff166124af576123d361281c565b600d819055506123e16120c1565b600c81905550600073ffffffffffffffffffffffffffffffffffffffff168173ffffffffffffffffffffffffffffffffffffffff16146124ae57612424816108cc565b600f60008373ffffffffffffffffffffffffffffffffffffffff1673ffffffffffffffffffffffffffffffffffffffff16815260200190815260200160002081905550600d54600e60008373ffffffffffffffffffffffffffffffffffffffff1673ffffffffffffffffffffffffffffffffffffffff168152602001908152602001600020819055505b5b60008211612525576040517f08c379a000000000000000000000000000000000000000000000000000000000815260040180806020018281038252600e8152602001807f43616e6e6f74207374616b65203000000000000000000000000000000000000081525060200191505060405180910390fd5b61253a82601054612cf190919063ffffffff16565b60108190555061259282601160003373ffffffffffffffffffffffffffffffffffffffff1673ffffffffffffffffffffffffffffffffffffffff16815260200190815260200160002054612cf190919063ffffffff16565b601160003373ffffffffffffffffffffffffffffffffffffffff1673ffffffffffffffffffffffffffffffffffffffff168152602001908152602001600020819055506000601260003373ffffffffffffffffffffffffffffffffffffffff1673ffffffffffffffffffffffffffffffffffffffff1681526020019081526020016000205414156126625742601260003373ffffffffffffffffffffffffffffffffffffffff1673ffffffffffffffffffffffffffffffffffffffff168152602001908152602001600020819055505b6126b1333084600760009054906101000a900473ffffffffffffffffffffffffffffffffffffffff1673ffffffffffffffffffffffffffffffffffffffff16612f02909392919063ffffffff16565b3373ffffffffffffffffffffffffffffffffffffffff167f9e71bc8eea02a63969f509818f2dafb9254532904319f9dbda79b67bd34a5f3d836040518082815260200191505060405180910390a250600160038190555050565b600c5481565b600460009054906101000a900460ff1615612777576040517f08c379a00000000000000000000000000000000000000000000000000000000081526004018080602001828103825260468152602001806134316046913960600191505060405180910390fd5b61277f612d79565b60085442116127d9576040517f08c379a00000000000000000000000000000000000000000000000000000000081526004018080602001828103825260588152602001806133a46058913960600191505060405180910390fd5b80600a819055507ffb46ca5a5e06d4540d6387b930a7c978bce0db5f449ec6b3f5d07c6e1d44f2d3600a546040518082815260200191505060405180910390a150565b600080601054141561283257600d5490506128a7565b6128a4612893601054612885670de0b6b3a7640000612877600954612869600c5461285b6120c1565b612b5f90919063ffffffff16565b612be290919063ffffffff16565b612be290919063ffffffff16565b612c6890919063ffffffff16565b600d54612cf190919063ffffffff16565b90505b90565b600660019054906101000a900473ffffffffffffffffffffffffffffffffffffffff1681565b600d5481565b600460009054906101000a900460ff161561293c576040517f08c379a00000000000000000000000000000000000000000000000000000000081526004018080602001828103825260468152602001806134316046913960600191505060405180910390fd5b612944612d79565b6000600b81905550600060088190555060006009819055506000600d8190555061296c612fc3565b565b600460009054906101000a900460ff16156129d4576040517f08c379a00000000000000000000000000000000000000000000000000000000081526004018080602001828103825260468152602001806134316046913960600191505060405180910390fd5b6129dc612d79565b80600b819055507f2b0fa66d155c9598699cb6569577f27b95729bbf580268eed39db6bc4e814477816040518082815260200191505060405180910390a150565b600460009054906101000a900460ff1615612a83576040517f08c379a00000000000000000000000000000000000000000000000000000000081526004018080602001828103825260468152602001806134316046913960600191505060405180910390fd5b612acb601160003373ffffffffffffffffffffffffffffffffffffffff1673ffffffffffffffffffffffffffffffffffffffff16815260200190815260200160002054610c06565b612ad36116f6565b565b60085481565b6000806000612b4642612b38600b54601260003373ffffffffffffffffffffffffffffffffffffffff1673ffffffffffffffffffffffffffffffffffffffff16815260200190815260200160002054612cf190919063ffffffff16565b612e1f90919063ffffffff16565b9150915081612b56576000612b58565b805b9250505090565b600082821115612bd7576040517f08c379a000000000000000000000000000000000000000000000000000000000815260040180806020018281038252601e8152602001807f536166654d6174683a207375627472616374696f6e206f766572666c6f77000081525060200191505060405180910390fd5b818303905092915050565b600080831415612bf55760009050612c62565b6000828402905082848281612c0657fe5b0414612c5d576040517f08c379a00000000000000000000000000000000000000000000000000000000081526004018080602001828103825260218152602001806135146021913960400191505060405180910390fd5b809150505b92915050565b6000808211612cdf576040517f08c379a000000000000000000000000000000000000000000000000000000000815260040180806020018281038252601a8152602001807f536166654d6174683a206469766973696f6e206279207a65726f00000000000081525060200191505060405180910390fd5b818381612ce857fe5b04905092915050565b600080828401905083811015612d6f576040517f08c379a000000000000000000000000000000000000000000000000000000000815260040180806020018281038252601b8152602001807f536166654d6174683a206164646974696f6e206f766572666c6f77000000000081525060200191505060405180910390fd5b8091505092915050565b60008054906101000a900473ffffffffffffffffffffffffffffffffffffffff1673ffffffffffffffffffffffffffffffffffffffff163373ffffffffffffffffffffffffffffffffffffffff1614612e1d576040517f08c379a000000000000000000000000000000000000000000000000000000000815260040180806020018281038252602f8152602001806134e5602f913960400191505060405180910390fd5b565b60008083831115612e365760008091509150612e40565b6001838503915091505b9250929050565b612ee48363a9059cbb60e01b8484604051602401808373ffffffffffffffffffffffffffffffffffffffff16815260200182815260200192505050604051602081830303815290604052907bffffffffffffffffffffffffffffffffffffffffffffffffffffffff19166020820180517bffffffffffffffffffffffffffffffffffffffffffffffffffffffff8381831617835250505050613014565b505050565b6000818310612ef85781612efa565b825b905092915050565b612fbd846323b872dd60e01b858585604051602401808473ffffffffffffffffffffffffffffffffffffffff1681526020018373ffffffffffffffffffffffffffffffffffffffff1681526020018281526020019350505050604051602081830303815290604052907bffffffffffffffffffffffffffffffffffffffffffffffffffffffff19166020820180517bffffffffffffffffffffffffffffffffffffffffffffffffffffffff8381831617835250505050613014565b50505050565b612fcb612d79565b6001600460006101000a81548160ff0219169083151502179055507fe68101b30364d616deefc8cd307b7e27ccbd9c73f138bd478179497563d97a1160405160405180910390a1565b6060613076826040518060400160405280602081526020017f5361666545524332303a206c6f772d6c6576656c2063616c6c206661696c65648152508573ffffffffffffffffffffffffffffffffffffffff166131039092919063ffffffff16565b90506000815111156130fe5780806020019051602081101561309757600080fd5b81019080805190602001909291905050506130fd576040517f08c379a000000000000000000000000000000000000000000000000000000000815260040180806020018281038252602a8152602001806135f6602a913960400191505060405180910390fd5b5b505050565b6060613112848460008561311b565b90509392505050565b606082471015613176576040517f08c379a00000000000000000000000000000000000000000000000000000000081526004018080602001828103825260268152602001806134bf6026913960400191505060405180910390fd5b61317f856132c4565b6131f1576040517f08c379a000000000000000000000000000000000000000000000000000000000815260040180806020018281038252601d8152602001807f416464726573733a2063616c6c20746f206e6f6e2d636f6e747261637400000081525060200191505060405180910390fd5b600060608673ffffffffffffffffffffffffffffffffffffffff1685876040518082805190602001908083835b60208310613241578051825260208201915060208101905060208303925061321e565b6001836020036101000a03801982511681845116808217855250505050505090500191505060006040518083038185875af1925050503d80600081146132a3576040519150601f19603f3d011682016040523d82523d6000602084013e6132a8565b606091505b50915091506132b88282866132d7565b92505050949350505050565b600080823b905060008111915050919050565b606083156132e75782905061339c565b6000835111156132fa5782518084602001fd5b816040517f08c379a00000000000000000000000000000000000000000000000000000000081526004018080602001828103825283818151815260200191508051906020019080838360005b83811015613361578082015181840152602081019050613346565b50505050905090810190601f16801561338e5780820380516001836020036101000a031916815260200191505b509250505060405180910390fd5b939250505056fe50726576696f7573207265776172647320706572696f64206d75737420626520636f6d706c657465206265666f7265206368616e67696e6720746865206475726174696f6e20666f7220746865206e657720706572696f64596f75206d757374206265206e6f6d696e61746564206265666f726520796f752063616e20616363657074206f776e6572736869705468697320616374696f6e2063616e6e6f7420626520706572666f726d6564207768696c652074686520636f6e747261637420697320696e204661696c73616665204d6f64655468697320616374696f6e2063616e206f6e6c7920626520706572666f726d6564207768696c652074686520636f6e747261637420697320696e204661696c73616665204d6f6465416464726573733a20696e73756666696369656e742062616c616e636520666f722063616c6c4f6e6c792074686520636f6e7472616374206f776e6572206d617920706572666f726d207468697320616374696f6e536166654d6174683a206d756c7469706c69636174696f6e206f766572666c6f7743616e6e6f7420776974686472617720756e74696c206d696e696d756d207374616b696e672074696d65206861732070617373656454696d657374616d70206d757374206265206166746572206c61737455706461746554696d655468697320616374696f6e2063616e6e6f7420626520706572666f726d6564207768696c652074686520636f6e74726163742069732070617573656443616c6c6572206973206e6f742052657761726473446973747269627574696f6e20636f6e74726163745361666545524332303a204552433230206f7065726174696f6e20646964206e6f74207375636365656443616e6e6f74206765742072657761726420756e74696c206d696e696d756d207374616b696e672074696d65206861732070617373656443616e6e6f7420776974686472617720746865207374616b696e6720746f6b656ea2646970667358221220abc0926044bbd6fcee993af43b34e4d11df01b028bb70062a969b0c26f8a396564736f6c634300060c0033",
					"opcodes": "PUSH1 0x80 PUSH1 0x40 MSTORE PUSH1 0x0 PUSH1 0x4 PUSH1 0x0 PUSH2 0x100 EXP DUP2 SLOAD DUP2 PUSH1 0xFF MUL NOT AND SWAP1 DUP4 ISZERO ISZERO MUL OR SWAP1 SSTORE POP PUSH1 0x0 PUSH1 0x8 SSTORE PUSH1 0x0 PUSH1 0x9 SSTORE PUSH3 0xED4E00 PUSH1 0xA SSTORE CALLVALUE DUP1 ISZERO PUSH3 0x3D JUMPI PUSH1 0x0 DUP1 REVERT JUMPDEST POP PUSH1 0x40 MLOAD PUSH3 0x3B0A CODESIZE SUB DUP1 PUSH3 0x3B0A DUP4 CODECOPY DUP2 DUP2 ADD PUSH1 0x40 MSTORE PUSH1 0xA0 DUP2 LT ISZERO PUSH3 0x63 JUMPI PUSH1 0x0 DUP1 REVERT JUMPDEST DUP2 ADD SWAP1 DUP1 DUP1 MLOAD SWAP1 PUSH1 0x20 ADD SWAP1 SWAP3 SWAP2 SWAP1 DUP1 MLOAD SWAP1 PUSH1 0x20 ADD SWAP1 SWAP3 SWAP2 SWAP1 DUP1 MLOAD SWAP1 PUSH1 0x20 ADD SWAP1 SWAP3 SWAP2 SWAP1 DUP1 MLOAD SWAP1 PUSH1 0x20 ADD SWAP1 SWAP3 SWAP2 SWAP1 DUP1 MLOAD SWAP1 PUSH1 0x20 ADD SWAP1 SWAP3 SWAP2 SWAP1 POP POP POP DUP5 PUSH1 0x0 PUSH20 0xFFFFFFFFFFFFFFFFFFFFFFFFFFFFFFFFFFFFFFFF AND DUP2 PUSH20 0xFFFFFFFFFFFFFFFFFFFFFFFFFFFFFFFFFFFFFFFF AND EQ ISZERO PUSH3 0x141 JUMPI PUSH1 0x40 MLOAD PUSH32 0x8C379A000000000000000000000000000000000000000000000000000000000 DUP2 MSTORE PUSH1 0x4 ADD DUP1 DUP1 PUSH1 0x20 ADD DUP3 DUP2 SUB DUP3 MSTORE PUSH1 0x19 DUP2 MSTORE PUSH1 0x20 ADD DUP1 PUSH32 0x4F776E657220616464726573732063616E6E6F74206265203000000000000000 DUP2 MSTORE POP PUSH1 0x20 ADD SWAP2 POP POP PUSH1 0x40 MLOAD DUP1 SWAP2 SUB SWAP1 REVERT JUMPDEST DUP1 PUSH1 0x0 DUP1 PUSH2 0x100 EXP DUP2 SLOAD DUP2 PUSH20 0xFFFFFFFFFFFFFFFFFFFFFFFFFFFFFFFFFFFFFFFF MUL NOT AND SWAP1 DUP4 PUSH20 0xFFFFFFFFFFFFFFFFFFFFFFFFFFFFFFFFFFFFFFFF AND MUL OR SWAP1 SSTORE POP PUSH32 0xB532073B38C83145E3E5135377A08BF9AAB55BC0FD7C1179CD4FB995D2A5159C PUSH1 0x0 DUP3 PUSH1 0x40 MLOAD DUP1 DUP4 PUSH20 0xFFFFFFFFFFFFFFFFFFFFFFFFFFFFFFFFFFFFFFFF AND DUP2 MSTORE PUSH1 0x20 ADD DUP3 PUSH20 0xFFFFFFFFFFFFFFFFFFFFFFFFFFFFFFFFFFFFFFFF AND DUP2 MSTORE PUSH1 0x20 ADD SWAP3 POP POP POP PUSH1 0x40 MLOAD DUP1 SWAP2 SUB SWAP1 LOG1 POP PUSH1 0x1 PUSH1 0x3 DUP2 SWAP1 SSTORE POP PUSH1 0x0 PUSH20 0xFFFFFFFFFFFFFFFFFFFFFFFFFFFFFFFFFFFFFFFF AND PUSH1 0x0 DUP1 SLOAD SWAP1 PUSH2 0x100 EXP SWAP1 DIV PUSH20 0xFFFFFFFFFFFFFFFFFFFFFFFFFFFFFFFFFFFFFFFF AND PUSH20 0xFFFFFFFFFFFFFFFFFFFFFFFFFFFFFFFFFFFFFFFF AND EQ ISZERO PUSH3 0x2BA JUMPI PUSH1 0x40 MLOAD PUSH32 0x8C379A000000000000000000000000000000000000000000000000000000000 DUP2 MSTORE PUSH1 0x4 ADD DUP1 DUP1 PUSH1 0x20 ADD DUP3 DUP2 SUB DUP3 MSTORE PUSH1 0x11 DUP2 MSTORE PUSH1 0x20 ADD DUP1 PUSH32 0x4F776E6572206D75737420626520736574000000000000000000000000000000 DUP2 MSTORE POP PUSH1 0x20 ADD SWAP2 POP POP PUSH1 0x40 MLOAD DUP1 SWAP2 SUB SWAP1 REVERT JUMPDEST PUSH1 0x0 PUSH20 0xFFFFFFFFFFFFFFFFFFFFFFFFFFFFFFFFFFFFFFFF AND PUSH1 0x0 DUP1 SLOAD SWAP1 PUSH2 0x100 EXP SWAP1 DIV PUSH20 0xFFFFFFFFFFFFFFFFFFFFFFFFFFFFFFFFFFFFFFFF AND PUSH20 0xFFFFFFFFFFFFFFFFFFFFFFFFFFFFFFFFFFFFFFFF AND EQ ISZERO PUSH3 0x37E JUMPI PUSH1 0x40 MLOAD PUSH32 0x8C379A000000000000000000000000000000000000000000000000000000000 DUP2 MSTORE PUSH1 0x4 ADD DUP1 DUP1 PUSH1 0x20 ADD DUP3 DUP2 SUB DUP3 MSTORE PUSH1 0x11 DUP2 MSTORE PUSH1 0x20 ADD DUP1 PUSH32 0x4F776E6572206D75737420626520736574000000000000000000000000000000 DUP2 MSTORE POP PUSH1 0x20 ADD SWAP2 POP POP PUSH1 0x40 MLOAD DUP1 SWAP2 SUB SWAP1 REVERT JUMPDEST DUP3 PUSH1 0x6 PUSH1 0x1 PUSH2 0x100 EXP DUP2 SLOAD DUP2 PUSH20 0xFFFFFFFFFFFFFFFFFFFFFFFFFFFFFFFFFFFFFFFF MUL NOT AND SWAP1 DUP4 PUSH20 0xFFFFFFFFFFFFFFFFFFFFFFFFFFFFFFFFFFFFFFFF AND MUL OR SWAP1 SSTORE POP DUP2 PUSH1 0x7 PUSH1 0x0 PUSH2 0x100 EXP DUP2 SLOAD DUP2 PUSH20 0xFFFFFFFFFFFFFFFFFFFFFFFFFFFFFFFFFFFFFFFF MUL NOT AND SWAP1 DUP4 PUSH20 0xFFFFFFFFFFFFFFFFFFFFFFFFFFFFFFFFFFFFFFFF AND MUL OR SWAP1 SSTORE POP DUP4 PUSH1 0x2 PUSH1 0x0 PUSH2 0x100 EXP DUP2 SLOAD DUP2 PUSH20 0xFFFFFFFFFFFFFFFFFFFFFFFFFFFFFFFFFFFFFFFF MUL NOT AND SWAP1 DUP4 PUSH20 0xFFFFFFFFFFFFFFFFFFFFFFFFFFFFFFFFFFFFFFFF AND MUL OR SWAP1 SSTORE POP DUP1 PUSH1 0xB DUP2 SWAP1 SSTORE POP POP POP POP POP POP PUSH2 0x36AD DUP1 PUSH3 0x45D PUSH1 0x0 CODECOPY PUSH1 0x0 RETURN INVALID PUSH1 0x80 PUSH1 0x40 MSTORE CALLVALUE DUP1 ISZERO PUSH2 0x10 JUMPI PUSH1 0x0 DUP1 REVERT JUMPDEST POP PUSH1 0x4 CALLDATASIZE LT PUSH2 0x247 JUMPI PUSH1 0x0 CALLDATALOAD PUSH1 0xE0 SHR DUP1 PUSH4 0x70A08231 GT PUSH2 0x13B JUMPI DUP1 PUSH4 0xC8F33C91 GT PUSH2 0xB8 JUMPI DUP1 PUSH4 0xE2ADC237 GT PUSH2 0x7C JUMPI DUP1 PUSH4 0xE2ADC237 EQ PUSH2 0x84E JUMPI DUP1 PUSH4 0xE9422046 EQ PUSH2 0x858 JUMPI DUP1 PUSH4 0xE9FAD8EE EQ PUSH2 0x886 JUMPI DUP1 PUSH4 0xEBE2B12B EQ PUSH2 0x890 JUMPI DUP1 PUSH4 0xF603944C EQ PUSH2 0x8AE JUMPI PUSH2 0x247 JUMP JUMPDEST DUP1 PUSH4 0xC8F33C91 EQ PUSH2 0x792 JUMPI DUP1 PUSH4 0xCC1A378F EQ PUSH2 0x7B0 JUMPI DUP1 PUSH4 0xCD3DAF9D EQ PUSH2 0x7DE JUMPI DUP1 PUSH4 0xD1AF0C7D EQ PUSH2 0x7FC JUMPI DUP1 PUSH4 0xDF136D65 EQ PUSH2 0x830 JUMPI PUSH2 0x247 JUMP JUMPDEST DUP1 PUSH4 0x8980F11F GT PUSH2 0xFF JUMPI DUP1 PUSH4 0x8980F11F EQ PUSH2 0x66C JUMPI DUP1 PUSH4 0x8B876347 EQ PUSH2 0x6BA JUMPI DUP1 PUSH4 0x8DA5CB5B EQ PUSH2 0x712 JUMPI DUP1 PUSH4 0x91B4DED9 EQ PUSH2 0x746 JUMPI DUP1 PUSH4 0xA694FC3A EQ PUSH2 0x764 JUMPI PUSH2 0x247 JUMP JUMPDEST DUP1 PUSH4 0x70A08231 EQ PUSH2 0x59A JUMPI DUP1 PUSH4 0x72F702F3 EQ PUSH2 0x5F2 JUMPI DUP1 PUSH4 0x79BA5097 EQ PUSH2 0x626 JUMPI DUP1 PUSH4 0x7B0A47EE EQ PUSH2 0x630 JUMPI DUP1 PUSH4 0x80FAA57D EQ PUSH2 0x64E JUMPI PUSH2 0x247 JUMP JUMPDEST DUP1 PUSH4 0x2E1A7D4D GT PUSH2 0x1C9 JUMPI DUP1 PUSH4 0x3FC6DF6E GT PUSH2 0x18D JUMPI DUP1 PUSH4 0x3FC6DF6E EQ PUSH2 0x4DA JUMPI DUP1 PUSH4 0x44142DB5 EQ PUSH2 0x50E JUMPI DUP1 PUSH4 0x53A47BB7 EQ PUSH2 0x518 JUMPI DUP1 PUSH4 0x556F6E6B EQ PUSH2 0x54C JUMPI DUP1 PUSH4 0x5C975ABB EQ PUSH2 0x57A JUMPI PUSH2 0x247 JUMP JUMPDEST DUP1 PUSH4 0x2E1A7D4D EQ PUSH2 0x44C JUMPI DUP1 PUSH4 0x2F3D3B14 EQ PUSH2 0x47A JUMPI DUP1 PUSH4 0x386A9525 EQ PUSH2 0x484 JUMPI DUP1 PUSH4 0x3C6B16AB EQ PUSH2 0x4A2 JUMPI DUP1 PUSH4 0x3D18B912 EQ PUSH2 0x4D0 JUMPI PUSH2 0x247 JUMP JUMPDEST DUP1 PUSH4 0x18160DDD GT PUSH2 0x210 JUMPI DUP1 PUSH4 0x18160DDD EQ PUSH2 0x390 JUMPI DUP1 PUSH4 0x19762143 EQ PUSH2 0x3AE JUMPI DUP1 PUSH4 0x1C1F78EB EQ PUSH2 0x3F2 JUMPI DUP1 PUSH4 0x242DF9E1 EQ PUSH2 0x410 JUMPI DUP1 PUSH4 0x27AB1969 EQ PUSH2 0x42E JUMPI PUSH2 0x247 JUMP JUMPDEST DUP1 PUSH3 0x8CC262 EQ PUSH2 0x24C JUMPI DUP1 PUSH4 0x700037D EQ PUSH2 0x2A4 JUMPI DUP1 PUSH4 0x1265CC97 EQ PUSH2 0x2FC JUMPI DUP1 PUSH4 0x1627540C EQ PUSH2 0x31C JUMPI DUP1 PUSH4 0x16C38B3C EQ PUSH2 0x360 JUMPI JUMPDEST PUSH1 0x0 DUP1 REVERT JUMPDEST PUSH2 0x28E PUSH1 0x4 DUP1 CALLDATASIZE SUB PUSH1 0x20 DUP2 LT ISZERO PUSH2 0x262 JUMPI PUSH1 0x0 DUP1 REVERT JUMPDEST DUP2 ADD SWAP1 DUP1 DUP1 CALLDATALOAD PUSH20 0xFFFFFFFFFFFFFFFFFFFFFFFFFFFFFFFFFFFFFFFF AND SWAP1 PUSH1 0x20 ADD SWAP1 SWAP3 SWAP2 SWAP1 POP POP POP PUSH2 0x8CC JUMP JUMPDEST PUSH1 0x40 MLOAD DUP1 DUP3 DUP2 MSTORE PUSH1 0x20 ADD SWAP2 POP POP PUSH1 0x40 MLOAD DUP1 SWAP2 SUB SWAP1 RETURN JUMPDEST PUSH2 0x2E6 PUSH1 0x4 DUP1 CALLDATASIZE SUB PUSH1 0x20 DUP2 LT ISZERO PUSH2 0x2BA JUMPI PUSH1 0x0 DUP1 REVERT JUMPDEST DUP2 ADD SWAP1 DUP1 DUP1 CALLDATALOAD PUSH20 0xFFFFFFFFFFFFFFFFFFFFFFFFFFFFFFFFFFFFFFFF AND SWAP1 PUSH1 0x20 ADD SWAP1 SWAP3 SWAP2 SWAP1 POP POP POP PUSH2 0x9EA JUMP JUMPDEST PUSH1 0x40 MLOAD DUP1 DUP3 DUP2 MSTORE PUSH1 0x20 ADD SWAP2 POP POP PUSH1 0x40 MLOAD DUP1 SWAP2 SUB SWAP1 RETURN JUMPDEST PUSH2 0x304 PUSH2 0xA02 JUMP JUMPDEST PUSH1 0x40 MLOAD DUP1 DUP3 ISZERO ISZERO DUP2 MSTORE PUSH1 0x20 ADD SWAP2 POP POP PUSH1 0x40 MLOAD DUP1 SWAP2 SUB SWAP1 RETURN JUMPDEST PUSH2 0x35E PUSH1 0x4 DUP1 CALLDATASIZE SUB PUSH1 0x20 DUP2 LT ISZERO PUSH2 0x332 JUMPI PUSH1 0x0 DUP1 REVERT JUMPDEST DUP2 ADD SWAP1 DUP1 DUP1 CALLDATALOAD PUSH20 0xFFFFFFFFFFFFFFFFFFFFFFFFFFFFFFFFFFFFFFFF AND SWAP1 PUSH1 0x20 ADD SWAP1 SWAP3 SWAP2 SWAP1 POP POP POP PUSH2 0xA15 JUMP JUMPDEST STOP JUMPDEST PUSH2 0x38E PUSH1 0x4 DUP1 CALLDATASIZE SUB PUSH1 0x20 DUP2 LT ISZERO PUSH2 0x376 JUMPI PUSH1 0x0 DUP1 REVERT JUMPDEST DUP2 ADD SWAP1 DUP1 DUP1 CALLDATALOAD ISZERO ISZERO SWAP1 PUSH1 0x20 ADD SWAP1 SWAP3 SWAP2 SWAP1 POP POP POP PUSH2 0xAAE JUMP JUMPDEST STOP JUMPDEST PUSH2 0x398 PUSH2 0xB59 JUMP JUMPDEST PUSH1 0x40 MLOAD DUP1 DUP3 DUP2 MSTORE PUSH1 0x20 ADD SWAP2 POP POP PUSH1 0x40 MLOAD DUP1 SWAP2 SUB SWAP1 RETURN JUMPDEST PUSH2 0x3F0 PUSH1 0x4 DUP1 CALLDATASIZE SUB PUSH1 0x20 DUP2 LT ISZERO PUSH2 0x3C4 JUMPI PUSH1 0x0 DUP1 REVERT JUMPDEST DUP2 ADD SWAP1 DUP1 DUP1 CALLDATALOAD PUSH20 0xFFFFFFFFFFFFFFFFFFFFFFFFFFFFFFFFFFFFFFFF AND SWAP1 PUSH1 0x20 ADD SWAP1 SWAP3 SWAP2 SWAP1 POP POP POP PUSH2 0xB63 JUMP JUMPDEST STOP JUMPDEST PUSH2 0x3FA PUSH2 0xBAF JUMP JUMPDEST PUSH1 0x40 MLOAD DUP1 DUP3 DUP2 MSTORE PUSH1 0x20 ADD SWAP2 POP POP PUSH1 0x40 MLOAD DUP1 SWAP2 SUB SWAP1 RETURN JUMPDEST PUSH2 0x418 PUSH2 0xBCD JUMP JUMPDEST PUSH1 0x40 MLOAD DUP1 DUP3 DUP2 MSTORE PUSH1 0x20 ADD SWAP2 POP POP PUSH1 0x40 MLOAD DUP1 SWAP2 SUB SWAP1 RETURN JUMPDEST PUSH2 0x436 PUSH2 0xBD3 JUMP JUMPDEST PUSH1 0x40 MLOAD DUP1 DUP3 DUP2 MSTORE PUSH1 0x20 ADD SWAP2 POP POP PUSH1 0x40 MLOAD DUP1 SWAP2 SUB SWAP1 RETURN JUMPDEST PUSH2 0x478 PUSH1 0x4 DUP1 CALLDATASIZE SUB PUSH1 0x20 DUP2 LT ISZERO PUSH2 0x462 JUMPI PUSH1 0x0 DUP1 REVERT JUMPDEST DUP2 ADD SWAP1 DUP1 DUP1 CALLDATALOAD SWAP1 PUSH1 0x20 ADD SWAP1 SWAP3 SWAP2 SWAP1 POP POP POP PUSH2 0xC06 JUMP JUMPDEST STOP JUMPDEST PUSH2 0x482 PUSH2 0x10FA JUMP JUMPDEST STOP JUMPDEST PUSH2 0x48C PUSH2 0x12AD JUMP JUMPDEST PUSH1 0x40 MLOAD DUP1 DUP3 DUP2 MSTORE PUSH1 0x20 ADD SWAP2 POP POP PUSH1 0x40 MLOAD DUP1 SWAP2 SUB SWAP1 RETURN JUMPDEST PUSH2 0x4CE PUSH1 0x4 DUP1 CALLDATASIZE SUB PUSH1 0x20 DUP2 LT ISZERO PUSH2 0x4B8 JUMPI PUSH1 0x0 DUP1 REVERT JUMPDEST DUP2 ADD SWAP1 DUP1 DUP1 CALLDATALOAD SWAP1 PUSH1 0x20 ADD SWAP1 SWAP3 SWAP2 SWAP1 POP POP POP PUSH2 0x12B3 JUMP JUMPDEST STOP JUMPDEST PUSH2 0x4D8 PUSH2 0x16F6 JUMP JUMPDEST STOP JUMPDEST PUSH2 0x4E2 PUSH2 0x1AC9 JUMP JUMPDEST PUSH1 0x40 MLOAD DUP1 DUP3 PUSH20 0xFFFFFFFFFFFFFFFFFFFFFFFFFFFFFFFFFFFFFFFF AND DUP2 MSTORE PUSH1 0x20 ADD SWAP2 POP POP PUSH1 0x40 MLOAD DUP1 SWAP2 SUB SWAP1 RETURN JUMPDEST PUSH2 0x516 PUSH2 0x1AEF JUMP JUMPDEST STOP JUMPDEST PUSH2 0x520 PUSH2 0x1C4D JUMP JUMPDEST PUSH1 0x40 MLOAD DUP1 DUP3 PUSH20 0xFFFFFFFFFFFFFFFFFFFFFFFFFFFFFFFFFFFFFFFF AND DUP2 MSTORE PUSH1 0x20 ADD SWAP2 POP POP PUSH1 0x40 MLOAD DUP1 SWAP2 SUB SWAP1 RETURN JUMPDEST PUSH2 0x578 PUSH1 0x4 DUP1 CALLDATASIZE SUB PUSH1 0x20 DUP2 LT ISZERO PUSH2 0x562 JUMPI PUSH1 0x0 DUP1 REVERT JUMPDEST DUP2 ADD SWAP1 DUP1 DUP1 CALLDATALOAD SWAP1 PUSH1 0x20 ADD SWAP1 SWAP3 SWAP2 SWAP1 POP POP POP PUSH2 0x1C73 JUMP JUMPDEST STOP JUMPDEST PUSH2 0x582 PUSH2 0x1E40 JUMP JUMPDEST PUSH1 0x40 MLOAD DUP1 DUP3 ISZERO ISZERO DUP2 MSTORE PUSH1 0x20 ADD SWAP2 POP POP PUSH1 0x40 MLOAD DUP1 SWAP2 SUB SWAP1 RETURN JUMPDEST PUSH2 0x5DC PUSH1 0x4 DUP1 CALLDATASIZE SUB PUSH1 0x20 DUP2 LT ISZERO PUSH2 0x5B0 JUMPI PUSH1 0x0 DUP1 REVERT JUMPDEST DUP2 ADD SWAP1 DUP1 DUP1 CALLDATALOAD PUSH20 0xFFFFFFFFFFFFFFFFFFFFFFFFFFFFFFFFFFFFFFFF AND SWAP1 PUSH1 0x20 ADD SWAP1 SWAP3 SWAP2 SWAP1 POP POP POP PUSH2 0x1E53 JUMP JUMPDEST PUSH1 0x40 MLOAD DUP1 DUP3 DUP2 MSTORE PUSH1 0x20 ADD SWAP2 POP POP PUSH1 0x40 MLOAD DUP1 SWAP2 SUB SWAP1 RETURN JUMPDEST PUSH2 0x5FA PUSH2 0x1E9C JUMP JUMPDEST PUSH1 0x40 MLOAD DUP1 DUP3 PUSH20 0xFFFFFFFFFFFFFFFFFFFFFFFFFFFFFFFFFFFFFFFF AND DUP2 MSTORE PUSH1 0x20 ADD SWAP2 POP POP PUSH1 0x40 MLOAD DUP1 SWAP2 SUB SWAP1 RETURN JUMPDEST PUSH2 0x62E PUSH2 0x1EC2 JUMP JUMPDEST STOP JUMPDEST PUSH2 0x638 PUSH2 0x20BB JUMP JUMPDEST PUSH1 0x40 MLOAD DUP1 DUP3 DUP2 MSTORE PUSH1 0x20 ADD SWAP2 POP POP PUSH1 0x40 MLOAD DUP1 SWAP2 SUB SWAP1 RETURN JUMPDEST PUSH2 0x656 PUSH2 0x20C1 JUMP JUMPDEST PUSH1 0x40 MLOAD DUP1 DUP3 DUP2 MSTORE PUSH1 0x20 ADD SWAP2 POP POP PUSH1 0x40 MLOAD DUP1 SWAP2 SUB SWAP1 RETURN JUMPDEST PUSH2 0x6B8 PUSH1 0x4 DUP1 CALLDATASIZE SUB PUSH1 0x40 DUP2 LT ISZERO PUSH2 0x682 JUMPI PUSH1 0x0 DUP1 REVERT JUMPDEST DUP2 ADD SWAP1 DUP1 DUP1 CALLDATALOAD PUSH20 0xFFFFFFFFFFFFFFFFFFFFFFFFFFFFFFFFFFFFFFFF AND SWAP1 PUSH1 0x20 ADD SWAP1 SWAP3 SWAP2 SWAP1 DUP1 CALLDATALOAD SWAP1 PUSH1 0x20 ADD SWAP1 SWAP3 SWAP2 SWAP1 POP POP POP PUSH2 0x20D4 JUMP JUMPDEST STOP JUMPDEST PUSH2 0x6FC PUSH1 0x4 DUP1 CALLDATASIZE SUB PUSH1 0x20 DUP2 LT ISZERO PUSH2 0x6D0 JUMPI PUSH1 0x0 DUP1 REVERT JUMPDEST DUP2 ADD SWAP1 DUP1 DUP1 CALLDATALOAD PUSH20 0xFFFFFFFFFFFFFFFFFFFFFFFFFFFFFFFFFFFFFFFF AND SWAP1 PUSH1 0x20 ADD SWAP1 SWAP3 SWAP2 SWAP1 POP POP POP PUSH2 0x2227 JUMP JUMPDEST PUSH1 0x40 MLOAD DUP1 DUP3 DUP2 MSTORE PUSH1 0x20 ADD SWAP2 POP POP PUSH1 0x40 MLOAD DUP1 SWAP2 SUB SWAP1 RETURN JUMPDEST PUSH2 0x71A PUSH2 0x223F JUMP JUMPDEST PUSH1 0x40 MLOAD DUP1 DUP3 PUSH20 0xFFFFFFFFFFFFFFFFFFFFFFFFFFFFFFFFFFFFFFFF AND DUP2 MSTORE PUSH1 0x20 ADD SWAP2 POP POP PUSH1 0x40 MLOAD DUP1 SWAP2 SUB SWAP1 RETURN JUMPDEST PUSH2 0x74E PUSH2 0x2263 JUMP JUMPDEST PUSH1 0x40 MLOAD DUP1 DUP3 DUP2 MSTORE PUSH1 0x20 ADD SWAP2 POP POP PUSH1 0x40 MLOAD DUP1 SWAP2 SUB SWAP1 RETURN JUMPDEST PUSH2 0x790 PUSH1 0x4 DUP1 CALLDATASIZE SUB PUSH1 0x20 DUP2 LT ISZERO PUSH2 0x77A JUMPI PUSH1 0x0 DUP1 REVERT JUMPDEST DUP2 ADD SWAP1 DUP1 DUP1 CALLDATALOAD SWAP1 PUSH1 0x20 ADD SWAP1 SWAP3 SWAP2 SWAP1 POP POP POP PUSH2 0x2269 JUMP JUMPDEST STOP JUMPDEST PUSH2 0x79A PUSH2 0x270B JUMP JUMPDEST PUSH1 0x40 MLOAD DUP1 DUP3 DUP2 MSTORE PUSH1 0x20 ADD SWAP2 POP POP PUSH1 0x40 MLOAD DUP1 SWAP2 SUB SWAP1 RETURN JUMPDEST PUSH2 0x7DC PUSH1 0x4 DUP1 CALLDATASIZE SUB PUSH1 0x20 DUP2 LT ISZERO PUSH2 0x7C6 JUMPI PUSH1 0x0 DUP1 REVERT JUMPDEST DUP2 ADD SWAP1 DUP1 DUP1 CALLDATALOAD SWAP1 PUSH1 0x20 ADD SWAP1 SWAP3 SWAP2 SWAP1 POP POP POP PUSH2 0x2711 JUMP JUMPDEST STOP JUMPDEST PUSH2 0x7E6 PUSH2 0x281C JUMP JUMPDEST PUSH1 0x40 MLOAD DUP1 DUP3 DUP2 MSTORE PUSH1 0x20 ADD SWAP2 POP POP PUSH1 0x40 MLOAD DUP1 SWAP2 SUB SWAP1 RETURN JUMPDEST PUSH2 0x804 PUSH2 0x28AA JUMP JUMPDEST PUSH1 0x40 MLOAD DUP1 DUP3 PUSH20 0xFFFFFFFFFFFFFFFFFFFFFFFFFFFFFFFFFFFFFFFF AND DUP2 MSTORE PUSH1 0x20 ADD SWAP2 POP POP PUSH1 0x40 MLOAD DUP1 SWAP2 SUB SWAP1 RETURN JUMPDEST PUSH2 0x838 PUSH2 0x28D0 JUMP JUMPDEST PUSH1 0x40 MLOAD DUP1 DUP3 DUP2 MSTORE PUSH1 0x20 ADD SWAP2 POP POP PUSH1 0x40 MLOAD DUP1 SWAP2 SUB SWAP1 RETURN JUMPDEST PUSH2 0x856 PUSH2 0x28D6 JUMP JUMPDEST STOP JUMPDEST PUSH2 0x884 PUSH1 0x4 DUP1 CALLDATASIZE SUB PUSH1 0x20 DUP2 LT ISZERO PUSH2 0x86E JUMPI PUSH1 0x0 DUP1 REVERT JUMPDEST DUP2 ADD SWAP1 DUP1 DUP1 CALLDATALOAD SWAP1 PUSH1 0x20 ADD SWAP1 SWAP3 SWAP2 SWAP1 POP POP POP PUSH2 0x296E JUMP JUMPDEST STOP JUMPDEST PUSH2 0x88E PUSH2 0x2A1D JUMP JUMPDEST STOP JUMPDEST PUSH2 0x898 PUSH2 0x2AD5 JUMP JUMPDEST PUSH1 0x40 MLOAD DUP1 DUP3 DUP2 MSTORE PUSH1 0x20 ADD SWAP2 POP POP PUSH1 0x40 MLOAD DUP1 SWAP2 SUB SWAP1 RETURN JUMPDEST PUSH2 0x8B6 PUSH2 0x2ADB JUMP JUMPDEST PUSH1 0x40 MLOAD DUP1 DUP3 DUP2 MSTORE PUSH1 0x20 ADD SWAP2 POP POP PUSH1 0x40 MLOAD DUP1 SWAP2 SUB SWAP1 RETURN JUMPDEST PUSH1 0x0 PUSH2 0x9E3 PUSH1 0xF PUSH1 0x0 DUP5 PUSH20 0xFFFFFFFFFFFFFFFFFFFFFFFFFFFFFFFFFFFFFFFF AND PUSH20 0xFFFFFFFFFFFFFFFFFFFFFFFFFFFFFFFFFFFFFFFF AND DUP2 MSTORE PUSH1 0x20 ADD SWAP1 DUP2 MSTORE PUSH1 0x20 ADD PUSH1 0x0 KECCAK256 SLOAD PUSH2 0x9D5 PUSH8 0xDE0B6B3A7640000 PUSH2 0x9C7 PUSH2 0x979 PUSH1 0xE PUSH1 0x0 DUP10 PUSH20 0xFFFFFFFFFFFFFFFFFFFFFFFFFFFFFFFFFFFFFFFF AND PUSH20 0xFFFFFFFFFFFFFFFFFFFFFFFFFFFFFFFFFFFFFFFF AND DUP2 MSTORE PUSH1 0x20 ADD SWAP1 DUP2 MSTORE PUSH1 0x20 ADD PUSH1 0x0 KECCAK256 SLOAD PUSH2 0x96B PUSH2 0x281C JUMP JUMPDEST PUSH2 0x2B5F SWAP1 SWAP2 SWAP1 PUSH4 0xFFFFFFFF AND JUMP JUMPDEST PUSH1 0x11 PUSH1 0x0 DUP10 PUSH20 0xFFFFFFFFFFFFFFFFFFFFFFFFFFFFFFFFFFFFFFFF AND PUSH20 0xFFFFFFFFFFFFFFFFFFFFFFFFFFFFFFFFFFFFFFFF AND DUP2 MSTORE PUSH1 0x20 ADD SWAP1 DUP2 MSTORE PUSH1 0x20 ADD PUSH1 0x0 KECCAK256 SLOAD PUSH2 0x2BE2 SWAP1 SWAP2 SWAP1 PUSH4 0xFFFFFFFF AND JUMP JUMPDEST PUSH2 0x2C68 SWAP1 SWAP2 SWAP1 PUSH4 0xFFFFFFFF AND JUMP JUMPDEST PUSH2 0x2CF1 SWAP1 SWAP2 SWAP1 PUSH4 0xFFFFFFFF AND JUMP JUMPDEST SWAP1 POP SWAP2 SWAP1 POP JUMP JUMPDEST PUSH1 0xF PUSH1 0x20 MSTORE DUP1 PUSH1 0x0 MSTORE PUSH1 0x40 PUSH1 0x0 KECCAK256 PUSH1 0x0 SWAP2 POP SWAP1 POP SLOAD DUP2 JUMP JUMPDEST PUSH1 0x4 PUSH1 0x0 SWAP1 SLOAD SWAP1 PUSH2 0x100 EXP SWAP1 DIV PUSH1 0xFF AND DUP2 JUMP JUMPDEST PUSH2 0xA1D PUSH2 0x2D79 JUMP JUMPDEST DUP1 PUSH1 0x1 PUSH1 0x0 PUSH2 0x100 EXP DUP2 SLOAD DUP2 PUSH20 0xFFFFFFFFFFFFFFFFFFFFFFFFFFFFFFFFFFFFFFFF MUL NOT AND SWAP1 DUP4 PUSH20 0xFFFFFFFFFFFFFFFFFFFFFFFFFFFFFFFFFFFFFFFF AND MUL OR SWAP1 SSTORE POP PUSH32 0x906A1C6BD7E3091EA86693DD029A831C19049CE77F1DCE2CE0BAB1CACBABCE22 DUP2 PUSH1 0x40 MLOAD DUP1 DUP3 PUSH20 0xFFFFFFFFFFFFFFFFFFFFFFFFFFFFFFFFFFFFFFFF AND DUP2 MSTORE PUSH1 0x20 ADD SWAP2 POP POP PUSH1 0x40 MLOAD DUP1 SWAP2 SUB SWAP1 LOG1 POP JUMP JUMPDEST PUSH2 0xAB6 PUSH2 0x2D79 JUMP JUMPDEST PUSH1 0x6 PUSH1 0x0 SWAP1 SLOAD SWAP1 PUSH2 0x100 EXP SWAP1 DIV PUSH1 0xFF AND ISZERO ISZERO DUP2 ISZERO ISZERO EQ ISZERO PUSH2 0xAD6 JUMPI PUSH2 0xB56 JUMP JUMPDEST DUP1 PUSH1 0x6 PUSH1 0x0 PUSH2 0x100 EXP DUP2 SLOAD DUP2 PUSH1 0xFF MUL NOT AND SWAP1 DUP4 ISZERO ISZERO MUL OR SWAP1 SSTORE POP PUSH1 0x6 PUSH1 0x0 SWAP1 SLOAD SWAP1 PUSH2 0x100 EXP SWAP1 DIV PUSH1 0xFF AND ISZERO PUSH2 0xB0D JUMPI TIMESTAMP PUSH1 0x5 DUP2 SWAP1 SSTORE POP JUMPDEST PUSH32 0x8FB6C181EE25A520CF3DD6565006EF91229FCFE5A989566C2A3B8C115570CEC5 PUSH1 0x6 PUSH1 0x0 SWAP1 SLOAD SWAP1 PUSH2 0x100 EXP SWAP1 DIV PUSH1 0xFF AND PUSH1 0x40 MLOAD DUP1 DUP3 ISZERO ISZERO DUP2 MSTORE PUSH1 0x20 ADD SWAP2 POP POP PUSH1 0x40 MLOAD DUP1 SWAP2 SUB SWAP1 LOG1 JUMPDEST POP JUMP JUMPDEST PUSH1 0x0 PUSH1 0x10 SLOAD SWAP1 POP SWAP1 JUMP JUMPDEST PUSH2 0xB6B PUSH2 0x2D79 JUMP JUMPDEST DUP1 PUSH1 0x2 PUSH1 0x0 PUSH2 0x100 EXP DUP2 SLOAD DUP2 PUSH20 0xFFFFFFFFFFFFFFFFFFFFFFFFFFFFFFFFFFFFFFFF MUL NOT AND SWAP1 DUP4 PUSH20 0xFFFFFFFFFFFFFFFFFFFFFFFFFFFFFFFFFFFFFFFF AND MUL OR SWAP1 SSTORE POP POP JUMP JUMPDEST PUSH1 0x0 PUSH2 0xBC8 PUSH1 0xA SLOAD PUSH1 0x9 SLOAD PUSH2 0x2BE2 SWAP1 SWAP2 SWAP1 PUSH4 0xFFFFFFFF AND JUMP JUMPDEST SWAP1 POP SWAP1 JUMP JUMPDEST PUSH1 0xB SLOAD DUP2 JUMP JUMPDEST PUSH1 0x0 DUP1 PUSH1 0x0 PUSH2 0xBED TIMESTAMP PUSH1 0x8 SLOAD PUSH2 0x2E1F SWAP1 SWAP2 SWAP1 PUSH4 0xFFFFFFFF AND JUMP JUMPDEST SWAP2 POP SWAP2 POP DUP2 PUSH2 0xBFD JUMPI PUSH1 0x0 PUSH2 0xBFF JUMP JUMPDEST DUP1 JUMPDEST SWAP3 POP POP POP SWAP1 JUMP JUMPDEST PUSH1 0x4 PUSH1 0x0 SWAP1 SLOAD SWAP1 PUSH2 0x100 EXP SWAP1 DIV PUSH1 0xFF AND ISZERO PUSH2 0xC6C JUMPI PUSH1 0x40 MLOAD PUSH32 0x8C379A000000000000000000000000000000000000000000000000000000000 DUP2 MSTORE PUSH1 0x4 ADD DUP1 DUP1 PUSH1 0x20 ADD DUP3 DUP2 SUB DUP3 MSTORE PUSH1 0x46 DUP2 MSTORE PUSH1 0x20 ADD DUP1 PUSH2 0x3431 PUSH1 0x46 SWAP2 CODECOPY PUSH1 0x60 ADD SWAP2 POP POP PUSH1 0x40 MLOAD DUP1 SWAP2 SUB SWAP1 REVERT JUMPDEST PUSH1 0x2 PUSH1 0x3 SLOAD EQ ISZERO PUSH2 0xCE5 JUMPI PUSH1 0x40 MLOAD PUSH32 0x8C379A000000000000000000000000000000000000000000000000000000000 DUP2 MSTORE PUSH1 0x4 ADD DUP1 DUP1 PUSH1 0x20 ADD DUP3 DUP2 SUB DUP3 MSTORE PUSH1 0x1F DUP2 MSTORE PUSH1 0x20 ADD DUP1 PUSH32 0x5265656E7472616E637947756172643A207265656E7472616E742063616C6C00 DUP2 MSTORE POP PUSH1 0x20 ADD SWAP2 POP POP PUSH1 0x40 MLOAD DUP1 SWAP2 SUB SWAP1 REVERT JUMPDEST PUSH1 0x2 PUSH1 0x3 DUP2 SWAP1 SSTORE POP CALLER PUSH1 0x4 PUSH1 0x0 SWAP1 SLOAD SWAP1 PUSH2 0x100 EXP SWAP1 DIV PUSH1 0xFF AND PUSH2 0xDE6 JUMPI PUSH2 0xD0A PUSH2 0x281C JUMP JUMPDEST PUSH1 0xD DUP2 SWAP1 SSTORE POP PUSH2 0xD18 PUSH2 0x20C1 JUMP JUMPDEST PUSH1 0xC DUP2 SWAP1 SSTORE POP PUSH1 0x0 PUSH20 0xFFFFFFFFFFFFFFFFFFFFFFFFFFFFFFFFFFFFFFFF AND DUP2 PUSH20 0xFFFFFFFFFFFFFFFFFFFFFFFFFFFFFFFFFFFFFFFF AND EQ PUSH2 0xDE5 JUMPI PUSH2 0xD5B DUP2 PUSH2 0x8CC JUMP JUMPDEST PUSH1 0xF PUSH1 0x0 DUP4 PUSH20 0xFFFFFFFFFFFFFFFFFFFFFFFFFFFFFFFFFFFFFFFF AND PUSH20 0xFFFFFFFFFFFFFFFFFFFFFFFFFFFFFFFFFFFFFFFF AND DUP2 MSTORE PUSH1 0x20 ADD SWAP1 DUP2 MSTORE PUSH1 0x20 ADD PUSH1 0x0 KECCAK256 DUP2 SWAP1 SSTORE POP PUSH1 0xD SLOAD PUSH1 0xE PUSH1 0x0 DUP4 PUSH20 0xFFFFFFFFFFFFFFFFFFFFFFFFFFFFFFFFFFFFFFFF AND PUSH20 0xFFFFFFFFFFFFFFFFFFFFFFFFFFFFFFFFFFFFFFFF AND DUP2 MSTORE PUSH1 0x20 ADD SWAP1 DUP2 MSTORE PUSH1 0x20 ADD PUSH1 0x0 KECCAK256 DUP2 SWAP1 SSTORE POP JUMPDEST JUMPDEST PUSH1 0x0 DUP3 GT PUSH2 0xE5C JUMPI PUSH1 0x40 MLOAD PUSH32 0x8C379A000000000000000000000000000000000000000000000000000000000 DUP2 MSTORE PUSH1 0x4 ADD DUP1 DUP1 PUSH1 0x20 ADD DUP3 DUP2 SUB DUP3 MSTORE PUSH1 0x11 DUP2 MSTORE PUSH1 0x20 ADD DUP1 PUSH32 0x43616E6E6F742077697468647261772030000000000000000000000000000000 DUP2 MSTORE POP PUSH1 0x20 ADD SWAP2 POP POP PUSH1 0x40 MLOAD DUP1 SWAP2 SUB SWAP1 REVERT JUMPDEST PUSH1 0x0 PUSH1 0xB SLOAD EQ DUP1 PUSH2 0xEC0 JUMPI POP PUSH1 0xB SLOAD PUSH2 0xEBD PUSH1 0x12 PUSH1 0x0 CALLER PUSH20 0xFFFFFFFFFFFFFFFFFFFFFFFFFFFFFFFFFFFFFFFF AND PUSH20 0xFFFFFFFFFFFFFFFFFFFFFFFFFFFFFFFFFFFFFFFF AND DUP2 MSTORE PUSH1 0x20 ADD SWAP1 DUP2 MSTORE PUSH1 0x20 ADD PUSH1 0x0 KECCAK256 SLOAD TIMESTAMP PUSH2 0x2B5F SWAP1 SWAP2 SWAP1 PUSH4 0xFFFFFFFF AND JUMP JUMPDEST LT ISZERO JUMPDEST PUSH2 0xF15 JUMPI PUSH1 0x40 MLOAD PUSH32 0x8C379A000000000000000000000000000000000000000000000000000000000 DUP2 MSTORE PUSH1 0x4 ADD DUP1 DUP1 PUSH1 0x20 ADD DUP3 DUP2 SUB DUP3 MSTORE PUSH1 0x35 DUP2 MSTORE PUSH1 0x20 ADD DUP1 PUSH2 0x3535 PUSH1 0x35 SWAP2 CODECOPY PUSH1 0x40 ADD SWAP2 POP POP PUSH1 0x40 MLOAD DUP1 SWAP2 SUB SWAP1 REVERT JUMPDEST PUSH2 0xF2A DUP3 PUSH1 0x10 SLOAD PUSH2 0x2B5F SWAP1 SWAP2 SWAP1 PUSH4 0xFFFFFFFF AND JUMP JUMPDEST PUSH1 0x10 DUP2 SWAP1 SSTORE POP PUSH2 0xF82 DUP3 PUSH1 0x11 PUSH1 0x0 CALLER PUSH20 0xFFFFFFFFFFFFFFFFFFFFFFFFFFFFFFFFFFFFFFFF AND PUSH20 0xFFFFFFFFFFFFFFFFFFFFFFFFFFFFFFFFFFFFFFFF AND DUP2 MSTORE PUSH1 0x20 ADD SWAP1 DUP2 MSTORE PUSH1 0x20 ADD PUSH1 0x0 KECCAK256 SLOAD PUSH2 0x2B5F SWAP1 SWAP2 SWAP1 PUSH4 0xFFFFFFFF AND JUMP JUMPDEST PUSH1 0x11 PUSH1 0x0 CALLER PUSH20 0xFFFFFFFFFFFFFFFFFFFFFFFFFFFFFFFFFFFFFFFF AND PUSH20 0xFFFFFFFFFFFFFFFFFFFFFFFFFFFFFFFFFFFFFFFF AND DUP2 MSTORE PUSH1 0x20 ADD SWAP1 DUP2 MSTORE PUSH1 0x20 ADD PUSH1 0x0 KECCAK256 DUP2 SWAP1 SSTORE POP PUSH1 0x0 PUSH1 0x11 PUSH1 0x0 CALLER PUSH20 0xFFFFFFFFFFFFFFFFFFFFFFFFFFFFFFFFFFFFFFFF AND PUSH20 0xFFFFFFFFFFFFFFFFFFFFFFFFFFFFFFFFFFFFFFFF AND DUP2 MSTORE PUSH1 0x20 ADD SWAP1 DUP2 MSTORE PUSH1 0x20 ADD PUSH1 0x0 KECCAK256 SLOAD EQ ISZERO PUSH2 0x1053 JUMPI PUSH1 0x0 PUSH1 0x12 PUSH1 0x0 CALLER PUSH20 0xFFFFFFFFFFFFFFFFFFFFFFFFFFFFFFFFFFFFFFFF AND PUSH20 0xFFFFFFFFFFFFFFFFFFFFFFFFFFFFFFFFFFFFFFFF AND DUP2 MSTORE PUSH1 0x20 ADD SWAP1 DUP2 MSTORE PUSH1 0x20 ADD PUSH1 0x0 KECCAK256 DUP2 SWAP1 SSTORE POP JUMPDEST PUSH2 0x10A0 CALLER DUP4 PUSH1 0x7 PUSH1 0x0 SWAP1 SLOAD SWAP1 PUSH2 0x100 EXP SWAP1 DIV PUSH20 0xFFFFFFFFFFFFFFFFFFFFFFFFFFFFFFFFFFFFFFFF AND PUSH20 0xFFFFFFFFFFFFFFFFFFFFFFFFFFFFFFFFFFFFFFFF AND PUSH2 0x2E47 SWAP1 SWAP3 SWAP2 SWAP1 PUSH4 0xFFFFFFFF AND JUMP JUMPDEST CALLER PUSH20 0xFFFFFFFFFFFFFFFFFFFFFFFFFFFFFFFFFFFFFFFF AND PUSH32 0x7084F5476618D8E60B11EF0D7D3F06914655ADB8793E28FF7F018D4C76D505D5 DUP4 PUSH1 0x40 MLOAD DUP1 DUP3 DUP2 MSTORE PUSH1 0x20 ADD SWAP2 POP POP PUSH1 0x40 MLOAD DUP1 SWAP2 SUB SWAP1 LOG2 POP PUSH1 0x1 PUSH1 0x3 DUP2 SWAP1 SSTORE POP POP JUMP JUMPDEST PUSH1 0x4 PUSH1 0x0 SWAP1 SLOAD SWAP1 PUSH2 0x100 EXP SWAP1 DIV PUSH1 0xFF AND PUSH2 0x115F JUMPI PUSH1 0x40 MLOAD PUSH32 0x8C379A000000000000000000000000000000000000000000000000000000000 DUP2 MSTORE PUSH1 0x4 ADD DUP1 DUP1 PUSH1 0x20 ADD DUP3 DUP2 SUB DUP3 MSTORE PUSH1 0x48 DUP2 MSTORE PUSH1 0x20 ADD DUP1 PUSH2 0x3477 PUSH1 0x48 SWAP2 CODECOPY PUSH1 0x60 ADD SWAP2 POP POP PUSH1 0x40 MLOAD DUP1 SWAP2 SUB SWAP1 REVERT JUMPDEST PUSH1 0x0 PUSH1 0x11 PUSH1 0x0 CALLER PUSH20 0xFFFFFFFFFFFFFFFFFFFFFFFFFFFFFFFFFFFFFFFF AND PUSH20 0xFFFFFFFFFFFFFFFFFFFFFFFFFFFFFFFFFFFFFFFF AND DUP2 MSTORE PUSH1 0x20 ADD SWAP1 DUP2 MSTORE PUSH1 0x20 ADD PUSH1 0x0 KECCAK256 SLOAD SWAP1 POP PUSH1 0x0 DUP2 GT ISZERO PUSH2 0x12AA JUMPI PUSH2 0x11C1 DUP2 PUSH1 0x10 SLOAD PUSH2 0x2B5F SWAP1 SWAP2 SWAP1 PUSH4 0xFFFFFFFF AND JUMP JUMPDEST PUSH1 0x10 DUP2 SWAP1 SSTORE POP PUSH2 0x1219 DUP2 PUSH1 0x11 PUSH1 0x0 CALLER PUSH20 0xFFFFFFFFFFFFFFFFFFFFFFFFFFFFFFFFFFFFFFFF AND PUSH20 0xFFFFFFFFFFFFFFFFFFFFFFFFFFFFFFFFFFFFFFFF AND DUP2 MSTORE PUSH1 0x20 ADD SWAP1 DUP2 MSTORE PUSH1 0x20 ADD PUSH1 0x0 KECCAK256 SLOAD PUSH2 0x2B5F SWAP1 SWAP2 SWAP1 PUSH4 0xFFFFFFFF AND JUMP JUMPDEST PUSH1 0x11 PUSH1 0x0 CALLER PUSH20 0xFFFFFFFFFFFFFFFFFFFFFFFFFFFFFFFFFFFFFFFF AND PUSH20 0xFFFFFFFFFFFFFFFFFFFFFFFFFFFFFFFFFFFFFFFF AND DUP2 MSTORE PUSH1 0x20 ADD SWAP1 DUP2 MSTORE PUSH1 0x20 ADD PUSH1 0x0 KECCAK256 DUP2 SWAP1 SSTORE POP PUSH2 0x12A9 CALLER DUP3 PUSH1 0x7 PUSH1 0x0 SWAP1 SLOAD SWAP1 PUSH2 0x100 EXP SWAP1 DIV PUSH20 0xFFFFFFFFFFFFFFFFFFFFFFFFFFFFFFFFFFFFFFFF AND PUSH20 0xFFFFFFFFFFFFFFFFFFFFFFFFFFFFFFFFFFFFFFFF AND PUSH2 0x2E47 SWAP1 SWAP3 SWAP2 SWAP1 PUSH4 0xFFFFFFFF AND JUMP JUMPDEST JUMPDEST POP JUMP JUMPDEST PUSH1 0xA SLOAD DUP2 JUMP JUMPDEST PUSH1 0x4 PUSH1 0x0 SWAP1 SLOAD SWAP1 PUSH2 0x100 EXP SWAP1 DIV PUSH1 0xFF AND ISZERO PUSH2 0x1319 JUMPI PUSH1 0x40 MLOAD PUSH32 0x8C379A000000000000000000000000000000000000000000000000000000000 DUP2 MSTORE PUSH1 0x4 ADD DUP1 DUP1 PUSH1 0x20 ADD DUP3 DUP2 SUB DUP3 MSTORE PUSH1 0x46 DUP2 MSTORE PUSH1 0x20 ADD DUP1 PUSH2 0x3431 PUSH1 0x46 SWAP2 CODECOPY PUSH1 0x60 ADD SWAP2 POP POP PUSH1 0x40 MLOAD DUP1 SWAP2 SUB SWAP1 REVERT JUMPDEST PUSH1 0x2 PUSH1 0x0 SWAP1 SLOAD SWAP1 PUSH2 0x100 EXP SWAP1 DIV PUSH20 0xFFFFFFFFFFFFFFFFFFFFFFFFFFFFFFFFFFFFFFFF AND PUSH20 0xFFFFFFFFFFFFFFFFFFFFFFFFFFFFFFFFFFFFFFFF AND CALLER PUSH20 0xFFFFFFFFFFFFFFFFFFFFFFFFFFFFFFFFFFFFFFFF AND EQ PUSH2 0x13BF JUMPI PUSH1 0x40 MLOAD PUSH32 0x8C379A000000000000000000000000000000000000000000000000000000000 DUP2 MSTORE PUSH1 0x4 ADD DUP1 DUP1 PUSH1 0x20 ADD DUP3 DUP2 SUB DUP3 MSTORE PUSH1 0x2A DUP2 MSTORE PUSH1 0x20 ADD DUP1 PUSH2 0x35CC PUSH1 0x2A SWAP2 CODECOPY PUSH1 0x40 ADD SWAP2 POP POP PUSH1 0x40 MLOAD DUP1 SWAP2 SUB SWAP1 REVERT JUMPDEST PUSH1 0x0 PUSH1 0x4 PUSH1 0x0 SWAP1 SLOAD SWAP1 PUSH2 0x100 EXP SWAP1 DIV PUSH1 0xFF AND PUSH2 0x14B9 JUMPI PUSH2 0x13DD PUSH2 0x281C JUMP JUMPDEST PUSH1 0xD DUP2 SWAP1 SSTORE POP PUSH2 0x13EB PUSH2 0x20C1 JUMP JUMPDEST PUSH1 0xC DUP2 SWAP1 SSTORE POP PUSH1 0x0 PUSH20 0xFFFFFFFFFFFFFFFFFFFFFFFFFFFFFFFFFFFFFFFF AND DUP2 PUSH20 0xFFFFFFFFFFFFFFFFFFFFFFFFFFFFFFFFFFFFFFFF AND EQ PUSH2 0x14B8 JUMPI PUSH2 0x142E DUP2 PUSH2 0x8CC JUMP JUMPDEST PUSH1 0xF PUSH1 0x0 DUP4 PUSH20 0xFFFFFFFFFFFFFFFFFFFFFFFFFFFFFFFFFFFFFFFF AND PUSH20 0xFFFFFFFFFFFFFFFFFFFFFFFFFFFFFFFFFFFFFFFF AND DUP2 MSTORE PUSH1 0x20 ADD SWAP1 DUP2 MSTORE PUSH1 0x20 ADD PUSH1 0x0 KECCAK256 DUP2 SWAP1 SSTORE POP PUSH1 0xD SLOAD PUSH1 0xE PUSH1 0x0 DUP4 PUSH20 0xFFFFFFFFFFFFFFFFFFFFFFFFFFFFFFFFFFFFFFFF AND PUSH20 0xFFFFFFFFFFFFFFFFFFFFFFFFFFFFFFFFFFFFFFFF AND DUP2 MSTORE PUSH1 0x20 ADD SWAP1 DUP2 MSTORE PUSH1 0x20 ADD PUSH1 0x0 KECCAK256 DUP2 SWAP1 SSTORE POP JUMPDEST JUMPDEST PUSH1 0x8 SLOAD TIMESTAMP LT PUSH2 0x14E2 JUMPI PUSH2 0x14D7 PUSH1 0xA SLOAD DUP4 PUSH2 0x2C68 SWAP1 SWAP2 SWAP1 PUSH4 0xFFFFFFFF AND JUMP JUMPDEST PUSH1 0x9 DUP2 SWAP1 SSTORE POP PUSH2 0x1544 JUMP JUMPDEST PUSH1 0x0 PUSH2 0x14F9 TIMESTAMP PUSH1 0x8 SLOAD PUSH2 0x2B5F SWAP1 SWAP2 SWAP1 PUSH4 0xFFFFFFFF AND JUMP JUMPDEST SWAP1 POP PUSH1 0x0 PUSH2 0x1512 PUSH1 0x9 SLOAD DUP4 PUSH2 0x2BE2 SWAP1 SWAP2 SWAP1 PUSH4 0xFFFFFFFF AND JUMP JUMPDEST SWAP1 POP PUSH2 0x153B PUSH1 0xA SLOAD PUSH2 0x152D DUP4 DUP8 PUSH2 0x2CF1 SWAP1 SWAP2 SWAP1 PUSH4 0xFFFFFFFF AND JUMP JUMPDEST PUSH2 0x2C68 SWAP1 SWAP2 SWAP1 PUSH4 0xFFFFFFFF AND JUMP JUMPDEST PUSH1 0x9 DUP2 SWAP1 SSTORE POP POP POP JUMPDEST PUSH1 0x0 PUSH1 0x6 PUSH1 0x1 SWAP1 SLOAD SWAP1 PUSH2 0x100 EXP SWAP1 DIV PUSH20 0xFFFFFFFFFFFFFFFFFFFFFFFFFFFFFFFFFFFFFFFF AND PUSH20 0xFFFFFFFFFFFFFFFFFFFFFFFFFFFFFFFFFFFFFFFF AND PUSH4 0x70A08231 ADDRESS PUSH1 0x40 MLOAD DUP3 PUSH4 0xFFFFFFFF AND PUSH1 0xE0 SHL DUP2 MSTORE PUSH1 0x4 ADD DUP1 DUP3 PUSH20 0xFFFFFFFFFFFFFFFFFFFFFFFFFFFFFFFFFFFFFFFF AND DUP2 MSTORE PUSH1 0x20 ADD SWAP2 POP POP PUSH1 0x20 PUSH1 0x40 MLOAD DUP1 DUP4 SUB DUP2 DUP7 DUP1 EXTCODESIZE ISZERO DUP1 ISZERO PUSH2 0x15CF JUMPI PUSH1 0x0 DUP1 REVERT JUMPDEST POP GAS STATICCALL ISZERO DUP1 ISZERO PUSH2 0x15E3 JUMPI RETURNDATASIZE PUSH1 0x0 DUP1 RETURNDATACOPY RETURNDATASIZE PUSH1 0x0 REVERT JUMPDEST POP POP POP POP PUSH1 0x40 MLOAD RETURNDATASIZE PUSH1 0x20 DUP2 LT ISZERO PUSH2 0x15F9 JUMPI PUSH1 0x0 DUP1 REVERT JUMPDEST DUP2 ADD SWAP1 DUP1 DUP1 MLOAD SWAP1 PUSH1 0x20 ADD SWAP1 SWAP3 SWAP2 SWAP1 POP POP POP SWAP1 POP PUSH2 0x1621 PUSH1 0xA SLOAD DUP3 PUSH2 0x2C68 SWAP1 SWAP2 SWAP1 PUSH4 0xFFFFFFFF AND JUMP JUMPDEST PUSH1 0x9 SLOAD GT ISZERO PUSH2 0x1698 JUMPI PUSH1 0x40 MLOAD PUSH32 0x8C379A000000000000000000000000000000000000000000000000000000000 DUP2 MSTORE PUSH1 0x4 ADD DUP1 DUP1 PUSH1 0x20 ADD DUP3 DUP2 SUB DUP3 MSTORE PUSH1 0x18 DUP2 MSTORE PUSH1 0x20 ADD DUP1 PUSH32 0x50726F76696465642072657761726420746F6F20686967680000000000000000 DUP2 MSTORE POP PUSH1 0x20 ADD SWAP2 POP POP PUSH1 0x40 MLOAD DUP1 SWAP2 SUB SWAP1 REVERT JUMPDEST TIMESTAMP PUSH1 0xC DUP2 SWAP1 SSTORE POP PUSH2 0x16B4 PUSH1 0xA SLOAD TIMESTAMP PUSH2 0x2CF1 SWAP1 SWAP2 SWAP1 PUSH4 0xFFFFFFFF AND JUMP JUMPDEST PUSH1 0x8 DUP2 SWAP1 SSTORE POP PUSH32 0xDE88A922E0D3B88B24E9623EFEB464919C6BF9F66857A65E2BFCF2CE87A9433D DUP4 PUSH1 0x40 MLOAD DUP1 DUP3 DUP2 MSTORE PUSH1 0x20 ADD SWAP2 POP POP PUSH1 0x40 MLOAD DUP1 SWAP2 SUB SWAP1 LOG1 POP POP POP JUMP JUMPDEST PUSH1 0x4 PUSH1 0x0 SWAP1 SLOAD SWAP1 PUSH2 0x100 EXP SWAP1 DIV PUSH1 0xFF AND ISZERO PUSH2 0x175C JUMPI PUSH1 0x40 MLOAD PUSH32 0x8C379A000000000000000000000000000000000000000000000000000000000 DUP2 MSTORE PUSH1 0x4 ADD DUP1 DUP1 PUSH1 0x20 ADD DUP3 DUP2 SUB DUP3 MSTORE PUSH1 0x46 DUP2 MSTORE PUSH1 0x20 ADD DUP1 PUSH2 0x3431 PUSH1 0x46 SWAP2 CODECOPY PUSH1 0x60 ADD SWAP2 POP POP PUSH1 0x40 MLOAD DUP1 SWAP2 SUB SWAP1 REVERT JUMPDEST PUSH1 0x2 PUSH1 0x3 SLOAD EQ ISZERO PUSH2 0x17D5 JUMPI PUSH1 0x40 MLOAD PUSH32 0x8C379A000000000000000000000000000000000000000000000000000000000 DUP2 MSTORE PUSH1 0x4 ADD DUP1 DUP1 PUSH1 0x20 ADD DUP3 DUP2 SUB DUP3 MSTORE PUSH1 0x1F DUP2 MSTORE PUSH1 0x20 ADD DUP1 PUSH32 0x5265656E7472616E637947756172643A207265656E7472616E742063616C6C00 DUP2 MSTORE POP PUSH1 0x20 ADD SWAP2 POP POP PUSH1 0x40 MLOAD DUP1 SWAP2 SUB SWAP1 REVERT JUMPDEST PUSH1 0x2 PUSH1 0x3 DUP2 SWAP1 SSTORE POP CALLER PUSH1 0x4 PUSH1 0x0 SWAP1 SLOAD SWAP1 PUSH2 0x100 EXP SWAP1 DIV PUSH1 0xFF AND PUSH2 0x18D6 JUMPI PUSH2 0x17FA PUSH2 0x281C JUMP JUMPDEST PUSH1 0xD DUP2 SWAP1 SSTORE POP PUSH2 0x1808 PUSH2 0x20C1 JUMP JUMPDEST PUSH1 0xC DUP2 SWAP1 SSTORE POP PUSH1 0x0 PUSH20 0xFFFFFFFFFFFFFFFFFFFFFFFFFFFFFFFFFFFFFFFF AND DUP2 PUSH20 0xFFFFFFFFFFFFFFFFFFFFFFFFFFFFFFFFFFFFFFFF AND EQ PUSH2 0x18D5 JUMPI PUSH2 0x184B DUP2 PUSH2 0x8CC JUMP JUMPDEST PUSH1 0xF PUSH1 0x0 DUP4 PUSH20 0xFFFFFFFFFFFFFFFFFFFFFFFFFFFFFFFFFFFFFFFF AND PUSH20 0xFFFFFFFFFFFFFFFFFFFFFFFFFFFFFFFFFFFFFFFF AND DUP2 MSTORE PUSH1 0x20 ADD SWAP1 DUP2 MSTORE PUSH1 0x20 ADD PUSH1 0x0 KECCAK256 DUP2 SWAP1 SSTORE POP PUSH1 0xD SLOAD PUSH1 0xE PUSH1 0x0 DUP4 PUSH20 0xFFFFFFFFFFFFFFFFFFFFFFFFFFFFFFFFFFFFFFFF AND PUSH20 0xFFFFFFFFFFFFFFFFFFFFFFFFFFFFFFFFFFFFFFFF AND DUP2 MSTORE PUSH1 0x20 ADD SWAP1 DUP2 MSTORE PUSH1 0x20 ADD PUSH1 0x0 KECCAK256 DUP2 SWAP1 SSTORE POP JUMPDEST JUMPDEST PUSH1 0x0 PUSH1 0xB SLOAD EQ DUP1 PUSH2 0x193A JUMPI POP PUSH1 0xB SLOAD PUSH2 0x1937 PUSH1 0x12 PUSH1 0x0 CALLER PUSH20 0xFFFFFFFFFFFFFFFFFFFFFFFFFFFFFFFFFFFFFFFF AND PUSH20 0xFFFFFFFFFFFFFFFFFFFFFFFFFFFFFFFFFFFFFFFF AND DUP2 MSTORE PUSH1 0x20 ADD SWAP1 DUP2 MSTORE PUSH1 0x20 ADD PUSH1 0x0 KECCAK256 SLOAD TIMESTAMP PUSH2 0x2B5F SWAP1 SWAP2 SWAP1 PUSH4 0xFFFFFFFF AND JUMP JUMPDEST LT ISZERO JUMPDEST PUSH2 0x198F JUMPI PUSH1 0x40 MLOAD PUSH32 0x8C379A000000000000000000000000000000000000000000000000000000000 DUP2 MSTORE PUSH1 0x4 ADD DUP1 DUP1 PUSH1 0x20 ADD DUP3 DUP2 SUB DUP3 MSTORE PUSH1 0x37 DUP2 MSTORE PUSH1 0x20 ADD DUP1 PUSH2 0x3620 PUSH1 0x37 SWAP2 CODECOPY PUSH1 0x40 ADD SWAP2 POP POP PUSH1 0x40 MLOAD DUP1 SWAP2 SUB SWAP1 REVERT JUMPDEST PUSH1 0x0 PUSH1 0xF PUSH1 0x0 CALLER PUSH20 0xFFFFFFFFFFFFFFFFFFFFFFFFFFFFFFFFFFFFFFFF AND PUSH20 0xFFFFFFFFFFFFFFFFFFFFFFFFFFFFFFFFFFFFFFFF AND DUP2 MSTORE PUSH1 0x20 ADD SWAP1 DUP2 MSTORE PUSH1 0x20 ADD PUSH1 0x0 KECCAK256 SLOAD SWAP1 POP PUSH1 0x0 DUP2 GT ISZERO PUSH2 0x1ABD JUMPI PUSH1 0x0 PUSH1 0xF PUSH1 0x0 CALLER PUSH20 0xFFFFFFFFFFFFFFFFFFFFFFFFFFFFFFFFFFFFFFFF AND PUSH20 0xFFFFFFFFFFFFFFFFFFFFFFFFFFFFFFFFFFFFFFFF AND DUP2 MSTORE PUSH1 0x20 ADD SWAP1 DUP2 MSTORE PUSH1 0x20 ADD PUSH1 0x0 KECCAK256 DUP2 SWAP1 SSTORE POP PUSH2 0x1A6E CALLER DUP3 PUSH1 0x6 PUSH1 0x1 SWAP1 SLOAD SWAP1 PUSH2 0x100 EXP SWAP1 DIV PUSH20 0xFFFFFFFFFFFFFFFFFFFFFFFFFFFFFFFFFFFFFFFF AND PUSH20 0xFFFFFFFFFFFFFFFFFFFFFFFFFFFFFFFFFFFFFFFF AND PUSH2 0x2E47 SWAP1 SWAP3 SWAP2 SWAP1 PUSH4 0xFFFFFFFF AND JUMP JUMPDEST CALLER PUSH20 0xFFFFFFFFFFFFFFFFFFFFFFFFFFFFFFFFFFFFFFFF AND PUSH32 0xE2403640BA68FED3A2F88B7557551D1993F84B99BB10FF833F0CF8DB0C5E0486 DUP3 PUSH1 0x40 MLOAD DUP1 DUP3 DUP2 MSTORE PUSH1 0x20 ADD SWAP2 POP POP PUSH1 0x40 MLOAD DUP1 SWAP2 SUB SWAP1 LOG2 JUMPDEST POP POP PUSH1 0x1 PUSH1 0x3 DUP2 SWAP1 SSTORE POP JUMP JUMPDEST PUSH1 0x2 PUSH1 0x0 SWAP1 SLOAD SWAP1 PUSH2 0x100 EXP SWAP1 DIV PUSH20 0xFFFFFFFFFFFFFFFFFFFFFFFFFFFFFFFFFFFFFFFF AND DUP2 JUMP JUMPDEST PUSH2 0x1AF7 PUSH2 0x2D79 JUMP JUMPDEST PUSH1 0x0 PUSH2 0x1BD1 PUSH1 0x10 SLOAD PUSH1 0x7 PUSH1 0x0 SWAP1 SLOAD SWAP1 PUSH2 0x100 EXP SWAP1 DIV PUSH20 0xFFFFFFFFFFFFFFFFFFFFFFFFFFFFFFFFFFFFFFFF AND PUSH20 0xFFFFFFFFFFFFFFFFFFFFFFFFFFFFFFFFFFFFFFFF AND PUSH4 0x70A08231 ADDRESS PUSH1 0x40 MLOAD DUP3 PUSH4 0xFFFFFFFF AND PUSH1 0xE0 SHL DUP2 MSTORE PUSH1 0x4 ADD DUP1 DUP3 PUSH20 0xFFFFFFFFFFFFFFFFFFFFFFFFFFFFFFFFFFFFFFFF AND DUP2 MSTORE PUSH1 0x20 ADD SWAP2 POP POP PUSH1 0x20 PUSH1 0x40 MLOAD DUP1 DUP4 SUB DUP2 DUP7 DUP1 EXTCODESIZE ISZERO DUP1 ISZERO PUSH2 0x1B88 JUMPI PUSH1 0x0 DUP1 REVERT JUMPDEST POP GAS STATICCALL ISZERO DUP1 ISZERO PUSH2 0x1B9C JUMPI RETURNDATASIZE PUSH1 0x0 DUP1 RETURNDATACOPY RETURNDATASIZE PUSH1 0x0 REVERT JUMPDEST POP POP POP POP PUSH1 0x40 MLOAD RETURNDATASIZE PUSH1 0x20 DUP2 LT ISZERO PUSH2 0x1BB2 JUMPI PUSH1 0x0 DUP1 REVERT JUMPDEST DUP2 ADD SWAP1 DUP1 DUP1 MLOAD SWAP1 PUSH1 0x20 ADD SWAP1 SWAP3 SWAP2 SWAP1 POP POP POP PUSH2 0x2B5F SWAP1 SWAP2 SWAP1 PUSH4 0xFFFFFFFF AND JUMP JUMPDEST SWAP1 POP PUSH1 0x0 DUP2 GT ISZERO PUSH2 0x1C4A JUMPI PUSH2 0x1C49 PUSH1 0x0 DUP1 SLOAD SWAP1 PUSH2 0x100 EXP SWAP1 DIV PUSH20 0xFFFFFFFFFFFFFFFFFFFFFFFFFFFFFFFFFFFFFFFF AND DUP3 PUSH1 0x7 PUSH1 0x0 SWAP1 SLOAD SWAP1 PUSH2 0x100 EXP SWAP1 DIV PUSH20 0xFFFFFFFFFFFFFFFFFFFFFFFFFFFFFFFFFFFFFFFF AND PUSH20 0xFFFFFFFFFFFFFFFFFFFFFFFFFFFFFFFFFFFFFFFF AND PUSH2 0x2E47 SWAP1 SWAP3 SWAP2 SWAP1 PUSH4 0xFFFFFFFF AND JUMP JUMPDEST JUMPDEST POP JUMP JUMPDEST PUSH1 0x1 PUSH1 0x0 SWAP1 SLOAD SWAP1 PUSH2 0x100 EXP SWAP1 DIV PUSH20 0xFFFFFFFFFFFFFFFFFFFFFFFFFFFFFFFFFFFFFFFF AND DUP2 JUMP JUMPDEST PUSH1 0x4 PUSH1 0x0 SWAP1 SLOAD SWAP1 PUSH2 0x100 EXP SWAP1 DIV PUSH1 0xFF AND ISZERO PUSH2 0x1CD9 JUMPI PUSH1 0x40 MLOAD PUSH32 0x8C379A000000000000000000000000000000000000000000000000000000000 DUP2 MSTORE PUSH1 0x4 ADD DUP1 DUP1 PUSH1 0x20 ADD DUP3 DUP2 SUB DUP3 MSTORE PUSH1 0x46 DUP2 MSTORE PUSH1 0x20 ADD DUP1 PUSH2 0x3431 PUSH1 0x46 SWAP2 CODECOPY PUSH1 0x60 ADD SWAP2 POP POP PUSH1 0x40 MLOAD DUP1 SWAP2 SUB SWAP1 REVERT JUMPDEST PUSH2 0x1CE1 PUSH2 0x2D79 JUMP JUMPDEST PUSH1 0x0 PUSH1 0x4 PUSH1 0x0 SWAP1 SLOAD SWAP1 PUSH2 0x100 EXP SWAP1 DIV PUSH1 0xFF AND PUSH2 0x1DDB JUMPI PUSH2 0x1CFF PUSH2 0x281C JUMP JUMPDEST PUSH1 0xD DUP2 SWAP1 SSTORE POP PUSH2 0x1D0D PUSH2 0x20C1 JUMP JUMPDEST PUSH1 0xC DUP2 SWAP1 SSTORE POP PUSH1 0x0 PUSH20 0xFFFFFFFFFFFFFFFFFFFFFFFFFFFFFFFFFFFFFFFF AND DUP2 PUSH20 0xFFFFFFFFFFFFFFFFFFFFFFFFFFFFFFFFFFFFFFFF AND EQ PUSH2 0x1DDA JUMPI PUSH2 0x1D50 DUP2 PUSH2 0x8CC JUMP JUMPDEST PUSH1 0xF PUSH1 0x0 DUP4 PUSH20 0xFFFFFFFFFFFFFFFFFFFFFFFFFFFFFFFFFFFFFFFF AND PUSH20 0xFFFFFFFFFFFFFFFFFFFFFFFFFFFFFFFFFFFFFFFF AND DUP2 MSTORE PUSH1 0x20 ADD SWAP1 DUP2 MSTORE PUSH1 0x20 ADD PUSH1 0x0 KECCAK256 DUP2 SWAP1 SSTORE POP PUSH1 0xD SLOAD PUSH1 0xE PUSH1 0x0 DUP4 PUSH20 0xFFFFFFFFFFFFFFFFFFFFFFFFFFFFFFFFFFFFFFFF AND PUSH20 0xFFFFFFFFFFFFFFFFFFFFFFFFFFFFFFFFFFFFFFFF AND DUP2 MSTORE PUSH1 0x20 ADD SWAP1 DUP2 MSTORE PUSH1 0x20 ADD PUSH1 0x0 KECCAK256 DUP2 SWAP1 SSTORE POP JUMPDEST JUMPDEST PUSH1 0xC SLOAD DUP3 GT PUSH2 0x1E35 JUMPI PUSH1 0x40 MLOAD PUSH32 0x8C379A000000000000000000000000000000000000000000000000000000000 DUP2 MSTORE PUSH1 0x4 ADD DUP1 DUP1 PUSH1 0x20 ADD DUP3 DUP2 SUB DUP3 MSTORE PUSH1 0x26 DUP2 MSTORE PUSH1 0x20 ADD DUP1 PUSH2 0x356A PUSH1 0x26 SWAP2 CODECOPY PUSH1 0x40 ADD SWAP2 POP POP PUSH1 0x40 MLOAD DUP1 SWAP2 SUB SWAP1 REVERT JUMPDEST DUP2 PUSH1 0x8 DUP2 SWAP1 SSTORE POP POP POP JUMP JUMPDEST PUSH1 0x6 PUSH1 0x0 SWAP1 SLOAD SWAP1 PUSH2 0x100 EXP SWAP1 DIV PUSH1 0xFF AND DUP2 JUMP JUMPDEST PUSH1 0x0 PUSH1 0x11 PUSH1 0x0 DUP4 PUSH20 0xFFFFFFFFFFFFFFFFFFFFFFFFFFFFFFFFFFFFFFFF AND PUSH20 0xFFFFFFFFFFFFFFFFFFFFFFFFFFFFFFFFFFFFFFFF AND DUP2 MSTORE PUSH1 0x20 ADD SWAP1 DUP2 MSTORE PUSH1 0x20 ADD PUSH1 0x0 KECCAK256 SLOAD SWAP1 POP SWAP2 SWAP1 POP JUMP JUMPDEST PUSH1 0x7 PUSH1 0x0 SWAP1 SLOAD SWAP1 PUSH2 0x100 EXP SWAP1 DIV PUSH20 0xFFFFFFFFFFFFFFFFFFFFFFFFFFFFFFFFFFFFFFFF AND DUP2 JUMP JUMPDEST PUSH1 0x1 PUSH1 0x0 SWAP1 SLOAD SWAP1 PUSH2 0x100 EXP SWAP1 DIV PUSH20 0xFFFFFFFFFFFFFFFFFFFFFFFFFFFFFFFFFFFFFFFF AND PUSH20 0xFFFFFFFFFFFFFFFFFFFFFFFFFFFFFFFFFFFFFFFF AND CALLER PUSH20 0xFFFFFFFFFFFFFFFFFFFFFFFFFFFFFFFFFFFFFFFF AND EQ PUSH2 0x1F68 JUMPI PUSH1 0x40 MLOAD PUSH32 0x8C379A000000000000000000000000000000000000000000000000000000000 DUP2 MSTORE PUSH1 0x4 ADD DUP1 DUP1 PUSH1 0x20 ADD DUP3 DUP2 SUB DUP3 MSTORE PUSH1 0x35 DUP2 MSTORE PUSH1 0x20 ADD DUP1 PUSH2 0x33FC PUSH1 0x35 SWAP2 CODECOPY PUSH1 0x40 ADD SWAP2 POP POP PUSH1 0x40 MLOAD DUP1 SWAP2 SUB SWAP1 REVERT JUMPDEST PUSH32 0xB532073B38C83145E3E5135377A08BF9AAB55BC0FD7C1179CD4FB995D2A5159C PUSH1 0x0 DUP1 SLOAD SWAP1 PUSH2 0x100 EXP SWAP1 DIV PUSH20 0xFFFFFFFFFFFFFFFFFFFFFFFFFFFFFFFFFFFFFFFF AND PUSH1 0x1 PUSH1 0x0 SWAP1 SLOAD SWAP1 PUSH2 0x100 EXP SWAP1 DIV PUSH20 0xFFFFFFFFFFFFFFFFFFFFFFFFFFFFFFFFFFFFFFFF AND PUSH1 0x40 MLOAD DUP1 DUP4 PUSH20 0xFFFFFFFFFFFFFFFFFFFFFFFFFFFFFFFFFFFFFFFF AND DUP2 MSTORE PUSH1 0x20 ADD DUP3 PUSH20 0xFFFFFFFFFFFFFFFFFFFFFFFFFFFFFFFFFFFFFFFF AND DUP2 MSTORE PUSH1 0x20 ADD SWAP3 POP POP POP PUSH1 0x40 MLOAD DUP1 SWAP2 SUB SWAP1 LOG1 PUSH1 0x1 PUSH1 0x0 SWAP1 SLOAD SWAP1 PUSH2 0x100 EXP SWAP1 DIV PUSH20 0xFFFFFFFFFFFFFFFFFFFFFFFFFFFFFFFFFFFFFFFF AND PUSH1 0x0 DUP1 PUSH2 0x100 EXP DUP2 SLOAD DUP2 PUSH20 0xFFFFFFFFFFFFFFFFFFFFFFFFFFFFFFFFFFFFFFFF MUL NOT AND SWAP1 DUP4 PUSH20 0xFFFFFFFFFFFFFFFFFFFFFFFFFFFFFFFFFFFFFFFF AND MUL OR SWAP1 SSTORE POP PUSH1 0x0 PUSH1 0x1 PUSH1 0x0 PUSH2 0x100 EXP DUP2 SLOAD DUP2 PUSH20 0xFFFFFFFFFFFFFFFFFFFFFFFFFFFFFFFFFFFFFFFF MUL NOT AND SWAP1 DUP4 PUSH20 0xFFFFFFFFFFFFFFFFFFFFFFFFFFFFFFFFFFFFFFFF AND MUL OR SWAP1 SSTORE POP JUMP JUMPDEST PUSH1 0x9 SLOAD DUP2 JUMP JUMPDEST PUSH1 0x0 PUSH2 0x20CF TIMESTAMP PUSH1 0x8 SLOAD PUSH2 0x2EE9 JUMP JUMPDEST SWAP1 POP SWAP1 JUMP JUMPDEST PUSH2 0x20DC PUSH2 0x2D79 JUMP JUMPDEST PUSH1 0x7 PUSH1 0x0 SWAP1 SLOAD SWAP1 PUSH2 0x100 EXP SWAP1 DIV PUSH20 0xFFFFFFFFFFFFFFFFFFFFFFFFFFFFFFFFFFFFFFFF AND PUSH20 0xFFFFFFFFFFFFFFFFFFFFFFFFFFFFFFFFFFFFFFFF AND DUP3 PUSH20 0xFFFFFFFFFFFFFFFFFFFFFFFFFFFFFFFFFFFFFFFF AND EQ ISZERO PUSH2 0x2183 JUMPI PUSH1 0x40 MLOAD PUSH32 0x8C379A000000000000000000000000000000000000000000000000000000000 DUP2 MSTORE PUSH1 0x4 ADD DUP1 DUP1 PUSH1 0x20 ADD DUP3 DUP2 SUB DUP3 MSTORE PUSH1 0x21 DUP2 MSTORE PUSH1 0x20 ADD DUP1 PUSH2 0x3657 PUSH1 0x21 SWAP2 CODECOPY PUSH1 0x40 ADD SWAP2 POP POP PUSH1 0x40 MLOAD DUP1 SWAP2 SUB SWAP1 REVERT JUMPDEST PUSH2 0x21CE PUSH1 0x0 DUP1 SLOAD SWAP1 PUSH2 0x100 EXP SWAP1 DIV PUSH20 0xFFFFFFFFFFFFFFFFFFFFFFFFFFFFFFFFFFFFFFFF AND DUP3 DUP5 PUSH20 0xFFFFFFFFFFFFFFFFFFFFFFFFFFFFFFFFFFFFFFFF AND PUSH2 0x2E47 SWAP1 SWAP3 SWAP2 SWAP1 PUSH4 0xFFFFFFFF AND JUMP JUMPDEST PUSH32 0x8C1256B8896378CD5044F80C202F9772B9D77DC85C8A6EB51967210B09BFAA28 DUP3 DUP3 PUSH1 0x40 MLOAD DUP1 DUP4 PUSH20 0xFFFFFFFFFFFFFFFFFFFFFFFFFFFFFFFFFFFFFFFF AND DUP2 MSTORE PUSH1 0x20 ADD DUP3 DUP2 MSTORE PUSH1 0x20 ADD SWAP3 POP POP POP PUSH1 0x40 MLOAD DUP1 SWAP2 SUB SWAP1 LOG1 POP POP JUMP JUMPDEST PUSH1 0xE PUSH1 0x20 MSTORE DUP1 PUSH1 0x0 MSTORE PUSH1 0x40 PUSH1 0x0 KECCAK256 PUSH1 0x0 SWAP2 POP SWAP1 POP SLOAD DUP2 JUMP JUMPDEST PUSH1 0x0 DUP1 SLOAD SWAP1 PUSH2 0x100 EXP SWAP1 DIV PUSH20 0xFFFFFFFFFFFFFFFFFFFFFFFFFFFFFFFFFFFFFFFF AND DUP2 JUMP JUMPDEST PUSH1 0x5 SLOAD DUP2 JUMP JUMPDEST PUSH1 0x4 PUSH1 0x0 SWAP1 SLOAD SWAP1 PUSH2 0x100 EXP SWAP1 DIV PUSH1 0xFF AND ISZERO PUSH2 0x22CF JUMPI PUSH1 0x40 MLOAD PUSH32 0x8C379A000000000000000000000000000000000000000000000000000000000 DUP2 MSTORE PUSH1 0x4 ADD DUP1 DUP1 PUSH1 0x20 ADD DUP3 DUP2 SUB DUP3 MSTORE PUSH1 0x46 DUP2 MSTORE PUSH1 0x20 ADD DUP1 PUSH2 0x3431 PUSH1 0x46 SWAP2 CODECOPY PUSH1 0x60 ADD SWAP2 POP POP PUSH1 0x40 MLOAD DUP1 SWAP2 SUB SWAP1 REVERT JUMPDEST PUSH1 0x2 PUSH1 0x3 SLOAD EQ ISZERO PUSH2 0x2348 JUMPI PUSH1 0x40 MLOAD PUSH32 0x8C379A000000000000000000000000000000000000000000000000000000000 DUP2 MSTORE PUSH1 0x4 ADD DUP1 DUP1 PUSH1 0x20 ADD DUP3 DUP2 SUB DUP3 MSTORE PUSH1 0x1F DUP2 MSTORE PUSH1 0x20 ADD DUP1 PUSH32 0x5265656E7472616E637947756172643A207265656E7472616E742063616C6C00 DUP2 MSTORE POP PUSH1 0x20 ADD SWAP2 POP POP PUSH1 0x40 MLOAD DUP1 SWAP2 SUB SWAP1 REVERT JUMPDEST PUSH1 0x2 PUSH1 0x3 DUP2 SWAP1 SSTORE POP PUSH1 0x6 PUSH1 0x0 SWAP1 SLOAD SWAP1 PUSH2 0x100 EXP SWAP1 DIV PUSH1 0xFF AND ISZERO PUSH2 0x23B6 JUMPI PUSH1 0x40 MLOAD PUSH32 0x8C379A000000000000000000000000000000000000000000000000000000000 DUP2 MSTORE PUSH1 0x4 ADD DUP1 DUP1 PUSH1 0x20 ADD DUP3 DUP2 SUB DUP3 MSTORE PUSH1 0x3C DUP2 MSTORE PUSH1 0x20 ADD DUP1 PUSH2 0x3590 PUSH1 0x3C SWAP2 CODECOPY PUSH1 0x40 ADD SWAP2 POP POP PUSH1 0x40 MLOAD DUP1 SWAP2 SUB SWAP1 REVERT JUMPDEST CALLER PUSH1 0x4 PUSH1 0x0 SWAP1 SLOAD SWAP1 PUSH2 0x100 EXP SWAP1 DIV PUSH1 0xFF AND PUSH2 0x24AF JUMPI PUSH2 0x23D3 PUSH2 0x281C JUMP JUMPDEST PUSH1 0xD DUP2 SWAP1 SSTORE POP PUSH2 0x23E1 PUSH2 0x20C1 JUMP JUMPDEST PUSH1 0xC DUP2 SWAP1 SSTORE POP PUSH1 0x0 PUSH20 0xFFFFFFFFFFFFFFFFFFFFFFFFFFFFFFFFFFFFFFFF AND DUP2 PUSH20 0xFFFFFFFFFFFFFFFFFFFFFFFFFFFFFFFFFFFFFFFF AND EQ PUSH2 0x24AE JUMPI PUSH2 0x2424 DUP2 PUSH2 0x8CC JUMP JUMPDEST PUSH1 0xF PUSH1 0x0 DUP4 PUSH20 0xFFFFFFFFFFFFFFFFFFFFFFFFFFFFFFFFFFFFFFFF AND PUSH20 0xFFFFFFFFFFFFFFFFFFFFFFFFFFFFFFFFFFFFFFFF AND DUP2 MSTORE PUSH1 0x20 ADD SWAP1 DUP2 MSTORE PUSH1 0x20 ADD PUSH1 0x0 KECCAK256 DUP2 SWAP1 SSTORE POP PUSH1 0xD SLOAD PUSH1 0xE PUSH1 0x0 DUP4 PUSH20 0xFFFFFFFFFFFFFFFFFFFFFFFFFFFFFFFFFFFFFFFF AND PUSH20 0xFFFFFFFFFFFFFFFFFFFFFFFFFFFFFFFFFFFFFFFF AND DUP2 MSTORE PUSH1 0x20 ADD SWAP1 DUP2 MSTORE PUSH1 0x20 ADD PUSH1 0x0 KECCAK256 DUP2 SWAP1 SSTORE POP JUMPDEST JUMPDEST PUSH1 0x0 DUP3 GT PUSH2 0x2525 JUMPI PUSH1 0x40 MLOAD PUSH32 0x8C379A000000000000000000000000000000000000000000000000000000000 DUP2 MSTORE PUSH1 0x4 ADD DUP1 DUP1 PUSH1 0x20 ADD DUP3 DUP2 SUB DUP3 MSTORE PUSH1 0xE DUP2 MSTORE PUSH1 0x20 ADD DUP1 PUSH32 0x43616E6E6F74207374616B652030000000000000000000000000000000000000 DUP2 MSTORE POP PUSH1 0x20 ADD SWAP2 POP POP PUSH1 0x40 MLOAD DUP1 SWAP2 SUB SWAP1 REVERT JUMPDEST PUSH2 0x253A DUP3 PUSH1 0x10 SLOAD PUSH2 0x2CF1 SWAP1 SWAP2 SWAP1 PUSH4 0xFFFFFFFF AND JUMP JUMPDEST PUSH1 0x10 DUP2 SWAP1 SSTORE POP PUSH2 0x2592 DUP3 PUSH1 0x11 PUSH1 0x0 CALLER PUSH20 0xFFFFFFFFFFFFFFFFFFFFFFFFFFFFFFFFFFFFFFFF AND PUSH20 0xFFFFFFFFFFFFFFFFFFFFFFFFFFFFFFFFFFFFFFFF AND DUP2 MSTORE PUSH1 0x20 ADD SWAP1 DUP2 MSTORE PUSH1 0x20 ADD PUSH1 0x0 KECCAK256 SLOAD PUSH2 0x2CF1 SWAP1 SWAP2 SWAP1 PUSH4 0xFFFFFFFF AND JUMP JUMPDEST PUSH1 0x11 PUSH1 0x0 CALLER PUSH20 0xFFFFFFFFFFFFFFFFFFFFFFFFFFFFFFFFFFFFFFFF AND PUSH20 0xFFFFFFFFFFFFFFFFFFFFFFFFFFFFFFFFFFFFFFFF AND DUP2 MSTORE PUSH1 0x20 ADD SWAP1 DUP2 MSTORE PUSH1 0x20 ADD PUSH1 0x0 KECCAK256 DUP2 SWAP1 SSTORE POP PUSH1 0x0 PUSH1 0x12 PUSH1 0x0 CALLER PUSH20 0xFFFFFFFFFFFFFFFFFFFFFFFFFFFFFFFFFFFFFFFF AND PUSH20 0xFFFFFFFFFFFFFFFFFFFFFFFFFFFFFFFFFFFFFFFF AND DUP2 MSTORE PUSH1 0x20 ADD SWAP1 DUP2 MSTORE PUSH1 0x20 ADD PUSH1 0x0 KECCAK256 SLOAD EQ ISZERO PUSH2 0x2662 JUMPI TIMESTAMP PUSH1 0x12 PUSH1 0x0 CALLER PUSH20 0xFFFFFFFFFFFFFFFFFFFFFFFFFFFFFFFFFFFFFFFF AND PUSH20 0xFFFFFFFFFFFFFFFFFFFFFFFFFFFFFFFFFFFFFFFF AND DUP2 MSTORE PUSH1 0x20 ADD SWAP1 DUP2 MSTORE PUSH1 0x20 ADD PUSH1 0x0 KECCAK256 DUP2 SWAP1 SSTORE POP JUMPDEST PUSH2 0x26B1 CALLER ADDRESS DUP5 PUSH1 0x7 PUSH1 0x0 SWAP1 SLOAD SWAP1 PUSH2 0x100 EXP SWAP1 DIV PUSH20 0xFFFFFFFFFFFFFFFFFFFFFFFFFFFFFFFFFFFFFFFF AND PUSH20 0xFFFFFFFFFFFFFFFFFFFFFFFFFFFFFFFFFFFFFFFF AND PUSH2 0x2F02 SWAP1 SWAP4 SWAP3 SWAP2 SWAP1 PUSH4 0xFFFFFFFF AND JUMP JUMPDEST CALLER PUSH20 0xFFFFFFFFFFFFFFFFFFFFFFFFFFFFFFFFFFFFFFFF AND PUSH32 0x9E71BC8EEA02A63969F509818F2DAFB9254532904319F9DBDA79B67BD34A5F3D DUP4 PUSH1 0x40 MLOAD DUP1 DUP3 DUP2 MSTORE PUSH1 0x20 ADD SWAP2 POP POP PUSH1 0x40 MLOAD DUP1 SWAP2 SUB SWAP1 LOG2 POP PUSH1 0x1 PUSH1 0x3 DUP2 SWAP1 SSTORE POP POP JUMP JUMPDEST PUSH1 0xC SLOAD DUP2 JUMP JUMPDEST PUSH1 0x4 PUSH1 0x0 SWAP1 SLOAD SWAP1 PUSH2 0x100 EXP SWAP1 DIV PUSH1 0xFF AND ISZERO PUSH2 0x2777 JUMPI PUSH1 0x40 MLOAD PUSH32 0x8C379A000000000000000000000000000000000000000000000000000000000 DUP2 MSTORE PUSH1 0x4 ADD DUP1 DUP1 PUSH1 0x20 ADD DUP3 DUP2 SUB DUP3 MSTORE PUSH1 0x46 DUP2 MSTORE PUSH1 0x20 ADD DUP1 PUSH2 0x3431 PUSH1 0x46 SWAP2 CODECOPY PUSH1 0x60 ADD SWAP2 POP POP PUSH1 0x40 MLOAD DUP1 SWAP2 SUB SWAP1 REVERT JUMPDEST PUSH2 0x277F PUSH2 0x2D79 JUMP JUMPDEST PUSH1 0x8 SLOAD TIMESTAMP GT PUSH2 0x27D9 JUMPI PUSH1 0x40 MLOAD PUSH32 0x8C379A000000000000000000000000000000000000000000000000000000000 DUP2 MSTORE PUSH1 0x4 ADD DUP1 DUP1 PUSH1 0x20 ADD DUP3 DUP2 SUB DUP3 MSTORE PUSH1 0x58 DUP2 MSTORE PUSH1 0x20 ADD DUP1 PUSH2 0x33A4 PUSH1 0x58 SWAP2 CODECOPY PUSH1 0x60 ADD SWAP2 POP POP PUSH1 0x40 MLOAD DUP1 SWAP2 SUB SWAP1 REVERT JUMPDEST DUP1 PUSH1 0xA DUP2 SWAP1 SSTORE POP PUSH32 0xFB46CA5A5E06D4540D6387B930A7C978BCE0DB5F449EC6B3F5D07C6E1D44F2D3 PUSH1 0xA SLOAD PUSH1 0x40 MLOAD DUP1 DUP3 DUP2 MSTORE PUSH1 0x20 ADD SWAP2 POP POP PUSH1 0x40 MLOAD DUP1 SWAP2 SUB SWAP1 LOG1 POP JUMP JUMPDEST PUSH1 0x0 DUP1 PUSH1 0x10 SLOAD EQ ISZERO PUSH2 0x2832 JUMPI PUSH1 0xD SLOAD SWAP1 POP PUSH2 0x28A7 JUMP JUMPDEST PUSH2 0x28A4 PUSH2 0x2893 PUSH1 0x10 SLOAD PUSH2 0x2885 PUSH8 0xDE0B6B3A7640000 PUSH2 0x2877 PUSH1 0x9 SLOAD PUSH2 0x2869 PUSH1 0xC SLOAD PUSH2 0x285B PUSH2 0x20C1 JUMP JUMPDEST PUSH2 0x2B5F SWAP1 SWAP2 SWAP1 PUSH4 0xFFFFFFFF AND JUMP JUMPDEST PUSH2 0x2BE2 SWAP1 SWAP2 SWAP1 PUSH4 0xFFFFFFFF AND JUMP JUMPDEST PUSH2 0x2BE2 SWAP1 SWAP2 SWAP1 PUSH4 0xFFFFFFFF AND JUMP JUMPDEST PUSH2 0x2C68 SWAP1 SWAP2 SWAP1 PUSH4 0xFFFFFFFF AND JUMP JUMPDEST PUSH1 0xD SLOAD PUSH2 0x2CF1 SWAP1 SWAP2 SWAP1 PUSH4 0xFFFFFFFF AND JUMP JUMPDEST SWAP1 POP JUMPDEST SWAP1 JUMP JUMPDEST PUSH1 0x6 PUSH1 0x1 SWAP1 SLOAD SWAP1 PUSH2 0x100 EXP SWAP1 DIV PUSH20 0xFFFFFFFFFFFFFFFFFFFFFFFFFFFFFFFFFFFFFFFF AND DUP2 JUMP JUMPDEST PUSH1 0xD SLOAD DUP2 JUMP JUMPDEST PUSH1 0x4 PUSH1 0x0 SWAP1 SLOAD SWAP1 PUSH2 0x100 EXP SWAP1 DIV PUSH1 0xFF AND ISZERO PUSH2 0x293C JUMPI PUSH1 0x40 MLOAD PUSH32 0x8C379A000000000000000000000000000000000000000000000000000000000 DUP2 MSTORE PUSH1 0x4 ADD DUP1 DUP1 PUSH1 0x20 ADD DUP3 DUP2 SUB DUP3 MSTORE PUSH1 0x46 DUP2 MSTORE PUSH1 0x20 ADD DUP1 PUSH2 0x3431 PUSH1 0x46 SWAP2 CODECOPY PUSH1 0x60 ADD SWAP2 POP POP PUSH1 0x40 MLOAD DUP1 SWAP2 SUB SWAP1 REVERT JUMPDEST PUSH2 0x2944 PUSH2 0x2D79 JUMP JUMPDEST PUSH1 0x0 PUSH1 0xB DUP2 SWAP1 SSTORE POP PUSH1 0x0 PUSH1 0x8 DUP2 SWAP1 SSTORE POP PUSH1 0x0 PUSH1 0x9 DUP2 SWAP1 SSTORE POP PUSH1 0x0 PUSH1 0xD DUP2 SWAP1 SSTORE POP PUSH2 0x296C PUSH2 0x2FC3 JUMP JUMPDEST JUMP JUMPDEST PUSH1 0x4 PUSH1 0x0 SWAP1 SLOAD SWAP1 PUSH2 0x100 EXP SWAP1 DIV PUSH1 0xFF AND ISZERO PUSH2 0x29D4 JUMPI PUSH1 0x40 MLOAD PUSH32 0x8C379A000000000000000000000000000000000000000000000000000000000 DUP2 MSTORE PUSH1 0x4 ADD DUP1 DUP1 PUSH1 0x20 ADD DUP3 DUP2 SUB DUP3 MSTORE PUSH1 0x46 DUP2 MSTORE PUSH1 0x20 ADD DUP1 PUSH2 0x3431 PUSH1 0x46 SWAP2 CODECOPY PUSH1 0x60 ADD SWAP2 POP POP PUSH1 0x40 MLOAD DUP1 SWAP2 SUB SWAP1 REVERT JUMPDEST PUSH2 0x29DC PUSH2 0x2D79 JUMP JUMPDEST DUP1 PUSH1 0xB DUP2 SWAP1 SSTORE POP PUSH32 0x2B0FA66D155C9598699CB6569577F27B95729BBF580268EED39DB6BC4E814477 DUP2 PUSH1 0x40 MLOAD DUP1 DUP3 DUP2 MSTORE PUSH1 0x20 ADD SWAP2 POP POP PUSH1 0x40 MLOAD DUP1 SWAP2 SUB SWAP1 LOG1 POP JUMP JUMPDEST PUSH1 0x4 PUSH1 0x0 SWAP1 SLOAD SWAP1 PUSH2 0x100 EXP SWAP1 DIV PUSH1 0xFF AND ISZERO PUSH2 0x2A83 JUMPI PUSH1 0x40 MLOAD PUSH32 0x8C379A000000000000000000000000000000000000000000000000000000000 DUP2 MSTORE PUSH1 0x4 ADD DUP1 DUP1 PUSH1 0x20 ADD DUP3 DUP2 SUB DUP3 MSTORE PUSH1 0x46 DUP2 MSTORE PUSH1 0x20 ADD DUP1 PUSH2 0x3431 PUSH1 0x46 SWAP2 CODECOPY PUSH1 0x60 ADD SWAP2 POP POP PUSH1 0x40 MLOAD DUP1 SWAP2 SUB SWAP1 REVERT JUMPDEST PUSH2 0x2ACB PUSH1 0x11 PUSH1 0x0 CALLER PUSH20 0xFFFFFFFFFFFFFFFFFFFFFFFFFFFFFFFFFFFFFFFF AND PUSH20 0xFFFFFFFFFFFFFFFFFFFFFFFFFFFFFFFFFFFFFFFF AND DUP2 MSTORE PUSH1 0x20 ADD SWAP1 DUP2 MSTORE PUSH1 0x20 ADD PUSH1 0x0 KECCAK256 SLOAD PUSH2 0xC06 JUMP JUMPDEST PUSH2 0x2AD3 PUSH2 0x16F6 JUMP JUMPDEST JUMP JUMPDEST PUSH1 0x8 SLOAD DUP2 JUMP JUMPDEST PUSH1 0x0 DUP1 PUSH1 0x0 PUSH2 0x2B46 TIMESTAMP PUSH2 0x2B38 PUSH1 0xB SLOAD PUSH1 0x12 PUSH1 0x0 CALLER PUSH20 0xFFFFFFFFFFFFFFFFFFFFFFFFFFFFFFFFFFFFFFFF AND PUSH20 0xFFFFFFFFFFFFFFFFFFFFFFFFFFFFFFFFFFFFFFFF AND DUP2 MSTORE PUSH1 0x20 ADD SWAP1 DUP2 MSTORE PUSH1 0x20 ADD PUSH1 0x0 KECCAK256 SLOAD PUSH2 0x2CF1 SWAP1 SWAP2 SWAP1 PUSH4 0xFFFFFFFF AND JUMP JUMPDEST PUSH2 0x2E1F SWAP1 SWAP2 SWAP1 PUSH4 0xFFFFFFFF AND JUMP JUMPDEST SWAP2 POP SWAP2 POP DUP2 PUSH2 0x2B56 JUMPI PUSH1 0x0 PUSH2 0x2B58 JUMP JUMPDEST DUP1 JUMPDEST SWAP3 POP POP POP SWAP1 JUMP JUMPDEST PUSH1 0x0 DUP3 DUP3 GT ISZERO PUSH2 0x2BD7 JUMPI PUSH1 0x40 MLOAD PUSH32 0x8C379A000000000000000000000000000000000000000000000000000000000 DUP2 MSTORE PUSH1 0x4 ADD DUP1 DUP1 PUSH1 0x20 ADD DUP3 DUP2 SUB DUP3 MSTORE PUSH1 0x1E DUP2 MSTORE PUSH1 0x20 ADD DUP1 PUSH32 0x536166654D6174683A207375627472616374696F6E206F766572666C6F770000 DUP2 MSTORE POP PUSH1 0x20 ADD SWAP2 POP POP PUSH1 0x40 MLOAD DUP1 SWAP2 SUB SWAP1 REVERT JUMPDEST DUP2 DUP4 SUB SWAP1 POP SWAP3 SWAP2 POP POP JUMP JUMPDEST PUSH1 0x0 DUP1 DUP4 EQ ISZERO PUSH2 0x2BF5 JUMPI PUSH1 0x0 SWAP1 POP PUSH2 0x2C62 JUMP JUMPDEST PUSH1 0x0 DUP3 DUP5 MUL SWAP1 POP DUP3 DUP5 DUP3 DUP2 PUSH2 0x2C06 JUMPI INVALID JUMPDEST DIV EQ PUSH2 0x2C5D JUMPI PUSH1 0x40 MLOAD PUSH32 0x8C379A000000000000000000000000000000000000000000000000000000000 DUP2 MSTORE PUSH1 0x4 ADD DUP1 DUP1 PUSH1 0x20 ADD DUP3 DUP2 SUB DUP3 MSTORE PUSH1 0x21 DUP2 MSTORE PUSH1 0x20 ADD DUP1 PUSH2 0x3514 PUSH1 0x21 SWAP2 CODECOPY PUSH1 0x40 ADD SWAP2 POP POP PUSH1 0x40 MLOAD DUP1 SWAP2 SUB SWAP1 REVERT JUMPDEST DUP1 SWAP2 POP POP JUMPDEST SWAP3 SWAP2 POP POP JUMP JUMPDEST PUSH1 0x0 DUP1 DUP3 GT PUSH2 0x2CDF JUMPI PUSH1 0x40 MLOAD PUSH32 0x8C379A000000000000000000000000000000000000000000000000000000000 DUP2 MSTORE PUSH1 0x4 ADD DUP1 DUP1 PUSH1 0x20 ADD DUP3 DUP2 SUB DUP3 MSTORE PUSH1 0x1A DUP2 MSTORE PUSH1 0x20 ADD DUP1 PUSH32 0x536166654D6174683A206469766973696F6E206279207A65726F000000000000 DUP2 MSTORE POP PUSH1 0x20 ADD SWAP2 POP POP PUSH1 0x40 MLOAD DUP1 SWAP2 SUB SWAP1 REVERT JUMPDEST DUP2 DUP4 DUP2 PUSH2 0x2CE8 JUMPI INVALID JUMPDEST DIV SWAP1 POP SWAP3 SWAP2 POP POP JUMP JUMPDEST PUSH1 0x0 DUP1 DUP3 DUP5 ADD SWAP1 POP DUP4 DUP2 LT ISZERO PUSH2 0x2D6F JUMPI PUSH1 0x40 MLOAD PUSH32 0x8C379A000000000000000000000000000000000000000000000000000000000 DUP2 MSTORE PUSH1 0x4 ADD DUP1 DUP1 PUSH1 0x20 ADD DUP3 DUP2 SUB DUP3 MSTORE PUSH1 0x1B DUP2 MSTORE PUSH1 0x20 ADD DUP1 PUSH32 0x536166654D6174683A206164646974696F6E206F766572666C6F770000000000 DUP2 MSTORE POP PUSH1 0x20 ADD SWAP2 POP POP PUSH1 0x40 MLOAD DUP1 SWAP2 SUB SWAP1 REVERT JUMPDEST DUP1 SWAP2 POP POP SWAP3 SWAP2 POP POP JUMP JUMPDEST PUSH1 0x0 DUP1 SLOAD SWAP1 PUSH2 0x100 EXP SWAP1 DIV PUSH20 0xFFFFFFFFFFFFFFFFFFFFFFFFFFFFFFFFFFFFFFFF AND PUSH20 0xFFFFFFFFFFFFFFFFFFFFFFFFFFFFFFFFFFFFFFFF AND CALLER PUSH20 0xFFFFFFFFFFFFFFFFFFFFFFFFFFFFFFFFFFFFFFFF AND EQ PUSH2 0x2E1D JUMPI PUSH1 0x40 MLOAD PUSH32 0x8C379A000000000000000000000000000000000000000000000000000000000 DUP2 MSTORE PUSH1 0x4 ADD DUP1 DUP1 PUSH1 0x20 ADD DUP3 DUP2 SUB DUP3 MSTORE PUSH1 0x2F DUP2 MSTORE PUSH1 0x20 ADD DUP1 PUSH2 0x34E5 PUSH1 0x2F SWAP2 CODECOPY PUSH1 0x40 ADD SWAP2 POP POP PUSH1 0x40 MLOAD DUP1 SWAP2 SUB SWAP1 REVERT JUMPDEST JUMP JUMPDEST PUSH1 0x0 DUP1 DUP4 DUP4 GT ISZERO PUSH2 0x2E36 JUMPI PUSH1 0x0 DUP1 SWAP2 POP SWAP2 POP PUSH2 0x2E40 JUMP JUMPDEST PUSH1 0x1 DUP4 DUP6 SUB SWAP2 POP SWAP2 POP JUMPDEST SWAP3 POP SWAP3 SWAP1 POP JUMP JUMPDEST PUSH2 0x2EE4 DUP4 PUSH4 0xA9059CBB PUSH1 0xE0 SHL DUP5 DUP5 PUSH1 0x40 MLOAD PUSH1 0x24 ADD DUP1 DUP4 PUSH20 0xFFFFFFFFFFFFFFFFFFFFFFFFFFFFFFFFFFFFFFFF AND DUP2 MSTORE PUSH1 0x20 ADD DUP3 DUP2 MSTORE PUSH1 0x20 ADD SWAP3 POP POP POP PUSH1 0x40 MLOAD PUSH1 0x20 DUP2 DUP4 SUB SUB DUP2 MSTORE SWAP1 PUSH1 0x40 MSTORE SWAP1 PUSH28 0xFFFFFFFFFFFFFFFFFFFFFFFFFFFFFFFFFFFFFFFFFFFFFFFFFFFFFFFF NOT AND PUSH1 0x20 DUP3 ADD DUP1 MLOAD PUSH28 0xFFFFFFFFFFFFFFFFFFFFFFFFFFFFFFFFFFFFFFFFFFFFFFFFFFFFFFFF DUP4 DUP2 DUP4 AND OR DUP4 MSTORE POP POP POP POP PUSH2 0x3014 JUMP JUMPDEST POP POP POP JUMP JUMPDEST PUSH1 0x0 DUP2 DUP4 LT PUSH2 0x2EF8 JUMPI DUP2 PUSH2 0x2EFA JUMP JUMPDEST DUP3 JUMPDEST SWAP1 POP SWAP3 SWAP2 POP POP JUMP JUMPDEST PUSH2 0x2FBD DUP5 PUSH4 0x23B872DD PUSH1 0xE0 SHL DUP6 DUP6 DUP6 PUSH1 0x40 MLOAD PUSH1 0x24 ADD DUP1 DUP5 PUSH20 0xFFFFFFFFFFFFFFFFFFFFFFFFFFFFFFFFFFFFFFFF AND DUP2 MSTORE PUSH1 0x20 ADD DUP4 PUSH20 0xFFFFFFFFFFFFFFFFFFFFFFFFFFFFFFFFFFFFFFFF AND DUP2 MSTORE PUSH1 0x20 ADD DUP3 DUP2 MSTORE PUSH1 0x20 ADD SWAP4 POP POP POP POP PUSH1 0x40 MLOAD PUSH1 0x20 DUP2 DUP4 SUB SUB DUP2 MSTORE SWAP1 PUSH1 0x40 MSTORE SWAP1 PUSH28 0xFFFFFFFFFFFFFFFFFFFFFFFFFFFFFFFFFFFFFFFFFFFFFFFFFFFFFFFF NOT AND PUSH1 0x20 DUP3 ADD DUP1 MLOAD PUSH28 0xFFFFFFFFFFFFFFFFFFFFFFFFFFFFFFFFFFFFFFFFFFFFFFFFFFFFFFFF DUP4 DUP2 DUP4 AND OR DUP4 MSTORE POP POP POP POP PUSH2 0x3014 JUMP JUMPDEST POP POP POP POP JUMP JUMPDEST PUSH2 0x2FCB PUSH2 0x2D79 JUMP JUMPDEST PUSH1 0x1 PUSH1 0x4 PUSH1 0x0 PUSH2 0x100 EXP DUP2 SLOAD DUP2 PUSH1 0xFF MUL NOT AND SWAP1 DUP4 ISZERO ISZERO MUL OR SWAP1 SSTORE POP PUSH32 0xE68101B30364D616DEEFC8CD307B7E27CCBD9C73F138BD478179497563D97A11 PUSH1 0x40 MLOAD PUSH1 0x40 MLOAD DUP1 SWAP2 SUB SWAP1 LOG1 JUMP JUMPDEST PUSH1 0x60 PUSH2 0x3076 DUP3 PUSH1 0x40 MLOAD DUP1 PUSH1 0x40 ADD PUSH1 0x40 MSTORE DUP1 PUSH1 0x20 DUP2 MSTORE PUSH1 0x20 ADD PUSH32 0x5361666545524332303A206C6F772D6C6576656C2063616C6C206661696C6564 DUP2 MSTORE POP DUP6 PUSH20 0xFFFFFFFFFFFFFFFFFFFFFFFFFFFFFFFFFFFFFFFF AND PUSH2 0x3103 SWAP1 SWAP3 SWAP2 SWAP1 PUSH4 0xFFFFFFFF AND JUMP JUMPDEST SWAP1 POP PUSH1 0x0 DUP2 MLOAD GT ISZERO PUSH2 0x30FE JUMPI DUP1 DUP1 PUSH1 0x20 ADD SWAP1 MLOAD PUSH1 0x20 DUP2 LT ISZERO PUSH2 0x3097 JUMPI PUSH1 0x0 DUP1 REVERT JUMPDEST DUP2 ADD SWAP1 DUP1 DUP1 MLOAD SWAP1 PUSH1 0x20 ADD SWAP1 SWAP3 SWAP2 SWAP1 POP POP POP PUSH2 0x30FD JUMPI PUSH1 0x40 MLOAD PUSH32 0x8C379A000000000000000000000000000000000000000000000000000000000 DUP2 MSTORE PUSH1 0x4 ADD DUP1 DUP1 PUSH1 0x20 ADD DUP3 DUP2 SUB DUP3 MSTORE PUSH1 0x2A DUP2 MSTORE PUSH1 0x20 ADD DUP1 PUSH2 0x35F6 PUSH1 0x2A SWAP2 CODECOPY PUSH1 0x40 ADD SWAP2 POP POP PUSH1 0x40 MLOAD DUP1 SWAP2 SUB SWAP1 REVERT JUMPDEST JUMPDEST POP POP POP JUMP JUMPDEST PUSH1 0x60 PUSH2 0x3112 DUP5 DUP5 PUSH1 0x0 DUP6 PUSH2 0x311B JUMP JUMPDEST SWAP1 POP SWAP4 SWAP3 POP POP POP JUMP JUMPDEST PUSH1 0x60 DUP3 SELFBALANCE LT ISZERO PUSH2 0x3176 JUMPI PUSH1 0x40 MLOAD PUSH32 0x8C379A000000000000000000000000000000000000000000000000000000000 DUP2 MSTORE PUSH1 0x4 ADD DUP1 DUP1 PUSH1 0x20 ADD DUP3 DUP2 SUB DUP3 MSTORE PUSH1 0x26 DUP2 MSTORE PUSH1 0x20 ADD DUP1 PUSH2 0x34BF PUSH1 0x26 SWAP2 CODECOPY PUSH1 0x40 ADD SWAP2 POP POP PUSH1 0x40 MLOAD DUP1 SWAP2 SUB SWAP1 REVERT JUMPDEST PUSH2 0x317F DUP6 PUSH2 0x32C4 JUMP JUMPDEST PUSH2 0x31F1 JUMPI PUSH1 0x40 MLOAD PUSH32 0x8C379A000000000000000000000000000000000000000000000000000000000 DUP2 MSTORE PUSH1 0x4 ADD DUP1 DUP1 PUSH1 0x20 ADD DUP3 DUP2 SUB DUP3 MSTORE PUSH1 0x1D DUP2 MSTORE PUSH1 0x20 ADD DUP1 PUSH32 0x416464726573733A2063616C6C20746F206E6F6E2D636F6E7472616374000000 DUP2 MSTORE POP PUSH1 0x20 ADD SWAP2 POP POP PUSH1 0x40 MLOAD DUP1 SWAP2 SUB SWAP1 REVERT JUMPDEST PUSH1 0x0 PUSH1 0x60 DUP7 PUSH20 0xFFFFFFFFFFFFFFFFFFFFFFFFFFFFFFFFFFFFFFFF AND DUP6 DUP8 PUSH1 0x40 MLOAD DUP1 DUP3 DUP1 MLOAD SWAP1 PUSH1 0x20 ADD SWAP1 DUP1 DUP4 DUP4 JUMPDEST PUSH1 0x20 DUP4 LT PUSH2 0x3241 JUMPI DUP1 MLOAD DUP3 MSTORE PUSH1 0x20 DUP3 ADD SWAP2 POP PUSH1 0x20 DUP2 ADD SWAP1 POP PUSH1 0x20 DUP4 SUB SWAP3 POP PUSH2 0x321E JUMP JUMPDEST PUSH1 0x1 DUP4 PUSH1 0x20 SUB PUSH2 0x100 EXP SUB DUP1 NOT DUP3 MLOAD AND DUP2 DUP5 MLOAD AND DUP1 DUP3 OR DUP6 MSTORE POP POP POP POP POP POP SWAP1 POP ADD SWAP2 POP POP PUSH1 0x0 PUSH1 0x40 MLOAD DUP1 DUP4 SUB DUP2 DUP6 DUP8 GAS CALL SWAP3 POP POP POP RETURNDATASIZE DUP1 PUSH1 0x0 DUP2 EQ PUSH2 0x32A3 JUMPI PUSH1 0x40 MLOAD SWAP2 POP PUSH1 0x1F NOT PUSH1 0x3F RETURNDATASIZE ADD AND DUP3 ADD PUSH1 0x40 MSTORE RETURNDATASIZE DUP3 MSTORE RETURNDATASIZE PUSH1 0x0 PUSH1 0x20 DUP5 ADD RETURNDATACOPY PUSH2 0x32A8 JUMP JUMPDEST PUSH1 0x60 SWAP2 POP JUMPDEST POP SWAP2 POP SWAP2 POP PUSH2 0x32B8 DUP3 DUP3 DUP7 PUSH2 0x32D7 JUMP JUMPDEST SWAP3 POP POP POP SWAP5 SWAP4 POP POP POP POP JUMP JUMPDEST PUSH1 0x0 DUP1 DUP3 EXTCODESIZE SWAP1 POP PUSH1 0x0 DUP2 GT SWAP2 POP POP SWAP2 SWAP1 POP JUMP JUMPDEST PUSH1 0x60 DUP4 ISZERO PUSH2 0x32E7 JUMPI DUP3 SWAP1 POP PUSH2 0x339C JUMP JUMPDEST PUSH1 0x0 DUP4 MLOAD GT ISZERO PUSH2 0x32FA JUMPI DUP3 MLOAD DUP1 DUP5 PUSH1 0x20 ADD REVERT JUMPDEST DUP2 PUSH1 0x40 MLOAD PUSH32 0x8C379A000000000000000000000000000000000000000000000000000000000 DUP2 MSTORE PUSH1 0x4 ADD DUP1 DUP1 PUSH1 0x20 ADD DUP3 DUP2 SUB DUP3 MSTORE DUP4 DUP2 DUP2 MLOAD DUP2 MSTORE PUSH1 0x20 ADD SWAP2 POP DUP1 MLOAD SWAP1 PUSH1 0x20 ADD SWAP1 DUP1 DUP4 DUP4 PUSH1 0x0 JUMPDEST DUP4 DUP2 LT ISZERO PUSH2 0x3361 JUMPI DUP1 DUP3 ADD MLOAD DUP2 DUP5 ADD MSTORE PUSH1 0x20 DUP2 ADD SWAP1 POP PUSH2 0x3346 JUMP JUMPDEST POP POP POP POP SWAP1 POP SWAP1 DUP2 ADD SWAP1 PUSH1 0x1F AND DUP1 ISZERO PUSH2 0x338E JUMPI DUP1 DUP3 SUB DUP1 MLOAD PUSH1 0x1 DUP4 PUSH1 0x20 SUB PUSH2 0x100 EXP SUB NOT AND DUP2 MSTORE PUSH1 0x20 ADD SWAP2 POP JUMPDEST POP SWAP3 POP POP POP PUSH1 0x40 MLOAD DUP1 SWAP2 SUB SWAP1 REVERT JUMPDEST SWAP4 SWAP3 POP POP POP JUMP INVALID POP PUSH19 0x6576696F757320726577617264732070657269 PUSH16 0x64206D75737420626520636F6D706C65 PUSH21 0x65206265666F7265206368616E67696E6720746865 KECCAK256 PUSH5 0x7572617469 PUSH16 0x6E20666F7220746865206E6577207065 PUSH19 0x696F64596F75206D757374206265206E6F6D69 PUSH15 0x61746564206265666F726520796F75 KECCAK256 PUSH4 0x616E2061 PUSH4 0x63657074 KECCAK256 PUSH16 0x776E6572736869705468697320616374 PUSH10 0x6F6E2063616E6E6F7420 PUSH3 0x652070 PUSH6 0x72666F726D65 PUSH5 0x207768696C PUSH6 0x207468652063 PUSH16 0x6E747261637420697320696E20466169 PUSH13 0x73616665204D6F646554686973 KECCAK256 PUSH2 0x6374 PUSH10 0x6F6E2063616E206F6E6C PUSH26 0x20626520706572666F726D6564207768696C652074686520636F PUSH15 0x747261637420697320696E20466169 PUSH13 0x73616665204D6F646541646472 PUSH6 0x73733A20696E PUSH20 0x756666696369656E742062616C616E636520666F PUSH19 0x2063616C6C4F6E6C792074686520636F6E7472 PUSH2 0x6374 KECCAK256 PUSH16 0x776E6572206D617920706572666F726D KECCAK256 PUSH21 0x68697320616374696F6E536166654D6174683A206D PUSH22 0x6C7469706C69636174696F6E206F766572666C6F7743 PUSH2 0x6E6E PUSH16 0x7420776974686472617720756E74696C KECCAK256 PUSH14 0x696E696D756D207374616B696E67 KECCAK256 PUSH21 0x696D65206861732070617373656454696D65737461 PUSH14 0x70206D7573742062652061667465 PUSH19 0x206C61737455706461746554696D6554686973 KECCAK256 PUSH2 0x6374 PUSH10 0x6F6E2063616E6E6F7420 PUSH3 0x652070 PUSH6 0x72666F726D65 PUSH5 0x207768696C PUSH6 0x207468652063 PUSH16 0x6E747261637420697320706175736564 NUMBER PUSH2 0x6C6C PUSH6 0x72206973206E PUSH16 0x74205265776172647344697374726962 PUSH22 0x74696F6E20636F6E7472616374536166654552433230 GASPRICE KECCAK256 GASLIMIT MSTORE NUMBER ORIGIN ADDRESS KECCAK256 PUSH16 0x7065726174696F6E20646964206E6F74 KECCAK256 PUSH20 0x75636365656443616E6E6F742067657420726577 PUSH2 0x7264 KECCAK256 PUSH22 0x6E74696C206D696E696D756D207374616B696E672074 PUSH10 0x6D652068617320706173 PUSH20 0x656443616E6E6F74207769746864726177207468 PUSH6 0x207374616B69 PUSH15 0x6720746F6B656EA264697066735822 SLT KECCAK256 0xAB 0xC0 SWAP3 PUSH1 0x44 0xBB 0xD6 0xFC 0xEE SWAP10 GASPRICE DELEGATECALL EXTCODESIZE CALLVALUE 0xE4 0xD1 SAR CREATE SHL MUL DUP12 0xB7 STOP PUSH3 0xA969B0 0xC2 PUSH16 0x8A396564736F6C634300060C00330000 "
				},
				"gasEstimates": {
					"creation": {
						"codeDepositCost": "2799400",
						"executionCost": "infinite",
						"totalCost": "infinite"
					},
					"external": {
						"acceptOwnership()": "infinite",
						"balanceOf(address)": "1242",
						"earned(address)": "infinite",
						"enableFailsafeMode()": "infinite",
						"exit()": "infinite",
						"failsafeModeActive()": "1138",
						"getReward()": "infinite",
						"getRewardForDuration()": "infinite",
						"getStakeRewardDistributionTimeLeft()": "infinite",
						"getStakeUnlockTimeLeft()": "infinite",
						"lastPauseTime()": "1116",
						"lastTimeRewardApplicable()": "1228",
						"lastUpdateTime()": "1050",
						"minimumStakeTime()": "1117",
						"nominateNewOwner(address)": "infinite",
						"nominatedOwner()": "1136",
						"notifyRewardAmount(uint256)": "infinite",
						"owner()": "1133",
						"paused()": "1180",
						"periodFinish()": "1115",
						"recoverERC20(address,uint256)": "infinite",
						"recoverExtraStakingTokensToOwner()": "infinite",
						"recoverOwnStake()": "infinite",
						"rewardPerToken()": "infinite",
						"rewardPerTokenStored()": "1138",
						"rewardRate()": "1117",
						"rewards(address)": "1238",
						"rewardsDistribution()": "1092",
						"rewardsDuration()": "1095",
						"rewardsToken()": "1208",
						"setMinimumStakeTime(uint256)": "infinite",
						"setPaused(bool)": "infinite",
						"setRewardsDistribution(address)": "infinite",
						"setRewardsDuration(uint256)": "infinite",
						"stake(uint256)": "infinite",
						"stakingToken()": "1115",
						"totalSupply()": "1059",
						"updatePeriodFinish(uint256)": "infinite",
						"userRewardPerTokenPaid(address)": "1236",
						"withdraw(uint256)": "infinite"
					}
				},
				"methodIdentifiers": {
					"acceptOwnership()": "79ba5097",
					"balanceOf(address)": "70a08231",
					"earned(address)": "008cc262",
					"enableFailsafeMode()": "e2adc237",
					"exit()": "e9fad8ee",
					"failsafeModeActive()": "1265cc97",
					"getReward()": "3d18b912",
					"getRewardForDuration()": "1c1f78eb",
					"getStakeRewardDistributionTimeLeft()": "27ab1969",
					"getStakeUnlockTimeLeft()": "f603944c",
					"lastPauseTime()": "91b4ded9",
					"lastTimeRewardApplicable()": "80faa57d",
					"lastUpdateTime()": "c8f33c91",
					"minimumStakeTime()": "242df9e1",
					"nominateNewOwner(address)": "1627540c",
					"nominatedOwner()": "53a47bb7",
					"notifyRewardAmount(uint256)": "3c6b16ab",
					"owner()": "8da5cb5b",
					"paused()": "5c975abb",
					"periodFinish()": "ebe2b12b",
					"recoverERC20(address,uint256)": "8980f11f",
					"recoverExtraStakingTokensToOwner()": "44142db5",
					"recoverOwnStake()": "2f3d3b14",
					"rewardPerToken()": "cd3daf9d",
					"rewardPerTokenStored()": "df136d65",
					"rewardRate()": "7b0a47ee",
					"rewards(address)": "0700037d",
					"rewardsDistribution()": "3fc6df6e",
					"rewardsDuration()": "386a9525",
					"rewardsToken()": "d1af0c7d",
					"setMinimumStakeTime(uint256)": "e9422046",
					"setPaused(bool)": "16c38b3c",
					"setRewardsDistribution(address)": "19762143",
					"setRewardsDuration(uint256)": "cc1a378f",
					"stake(uint256)": "a694fc3a",
					"stakingToken()": "72f702f3",
					"totalSupply()": "18160ddd",
					"updatePeriodFinish(uint256)": "556f6e6b",
					"userRewardPerTokenPaid(address)": "8b876347",
					"withdraw(uint256)": "2e1a7d4d"
				}
			},
			"storageLayout": {
				"storage": [
					{
						"astId": 87,
						"contract": "contracts/staking/StakingRewards.sol:StakingRewards",
						"label": "owner",
						"offset": 0,
						"slot": "0",
						"type": "t_address"
					},
					{
						"astId": 89,
						"contract": "contracts/staking/StakingRewards.sol:StakingRewards",
						"label": "nominatedOwner",
						"offset": 0,
						"slot": "1",
						"type": "t_address"
					},
					{
						"astId": 198,
						"contract": "contracts/staking/StakingRewards.sol:StakingRewards",
						"label": "rewardsDistribution",
						"offset": 0,
						"slot": "2",
						"type": "t_address"
					},
					{
						"astId": 2324,
						"contract": "contracts/staking/StakingRewards.sol:StakingRewards",
						"label": "_status",
						"offset": 0,
						"slot": "3",
						"type": "t_uint256"
					},
					{
						"astId": 34,
						"contract": "contracts/staking/StakingRewards.sol:StakingRewards",
						"label": "failsafeModeActive",
						"offset": 0,
						"slot": "4",
						"type": "t_bool"
					},
					{
						"astId": 1129,
						"contract": "contracts/staking/StakingRewards.sol:StakingRewards",
						"label": "lastPauseTime",
						"offset": 0,
						"slot": "5",
						"type": "t_uint256"
					},
					{
						"astId": 1131,
						"contract": "contracts/staking/StakingRewards.sol:StakingRewards",
						"label": "paused",
						"offset": 0,
						"slot": "6",
						"type": "t_bool"
					},
					{
						"astId": 256,
						"contract": "contracts/staking/StakingRewards.sol:StakingRewards",
						"label": "rewardsToken",
						"offset": 1,
						"slot": "6",
						"type": "t_contract(IERC20)1804"
					},
					{
						"astId": 258,
						"contract": "contracts/staking/StakingRewards.sol:StakingRewards",
						"label": "stakingToken",
						"offset": 0,
						"slot": "7",
						"type": "t_contract(IERC20)1804"
					},
					{
						"astId": 261,
						"contract": "contracts/staking/StakingRewards.sol:StakingRewards",
						"label": "periodFinish",
						"offset": 0,
						"slot": "8",
						"type": "t_uint256"
					},
					{
						"astId": 265,
						"contract": "contracts/staking/StakingRewards.sol:StakingRewards",
						"label": "rewardRate",
						"offset": 0,
						"slot": "9",
						"type": "t_uint256"
					},
					{
						"astId": 269,
						"contract": "contracts/staking/StakingRewards.sol:StakingRewards",
						"label": "rewardsDuration",
						"offset": 0,
						"slot": "10",
						"type": "t_uint256"
					},
					{
						"astId": 272,
						"contract": "contracts/staking/StakingRewards.sol:StakingRewards",
						"label": "minimumStakeTime",
						"offset": 0,
						"slot": "11",
						"type": "t_uint256"
					},
					{
						"astId": 274,
						"contract": "contracts/staking/StakingRewards.sol:StakingRewards",
						"label": "lastUpdateTime",
						"offset": 0,
						"slot": "12",
						"type": "t_uint256"
					},
					{
						"astId": 276,
						"contract": "contracts/staking/StakingRewards.sol:StakingRewards",
						"label": "rewardPerTokenStored",
						"offset": 0,
						"slot": "13",
						"type": "t_uint256"
					},
					{
						"astId": 280,
						"contract": "contracts/staking/StakingRewards.sol:StakingRewards",
						"label": "userRewardPerTokenPaid",
						"offset": 0,
						"slot": "14",
						"type": "t_mapping(t_address,t_uint256)"
					},
					{
						"astId": 284,
						"contract": "contracts/staking/StakingRewards.sol:StakingRewards",
						"label": "rewards",
						"offset": 0,
						"slot": "15",
						"type": "t_mapping(t_address,t_uint256)"
					},
					{
						"astId": 286,
						"contract": "contracts/staking/StakingRewards.sol:StakingRewards",
						"label": "_totalSupply",
						"offset": 0,
						"slot": "16",
						"type": "t_uint256"
					},
					{
						"astId": 290,
						"contract": "contracts/staking/StakingRewards.sol:StakingRewards",
						"label": "_balances",
						"offset": 0,
						"slot": "17",
						"type": "t_mapping(t_address,t_uint256)"
					},
					{
						"astId": 294,
						"contract": "contracts/staking/StakingRewards.sol:StakingRewards",
						"label": "_stakeTimestamp",
						"offset": 0,
						"slot": "18",
						"type": "t_mapping(t_address,t_uint256)"
					}
				],
				"types": {
					"t_address": {
						"encoding": "inplace",
						"label": "address",
						"numberOfBytes": "20"
					},
					"t_bool": {
						"encoding": "inplace",
						"label": "bool",
						"numberOfBytes": "1"
					},
					"t_contract(IERC20)1804": {
						"encoding": "inplace",
						"label": "contract IERC20",
						"numberOfBytes": "20"
					},
					"t_mapping(t_address,t_uint256)": {
						"encoding": "mapping",
						"key": "t_address",
						"label": "mapping(address => uint256)",
						"numberOfBytes": "32",
						"value": "t_uint256"
					},
					"t_uint256": {
						"encoding": "inplace",
						"label": "uint256",
						"numberOfBytes": "32"
					}
				}
			},
			"userdoc": {
				"kind": "user",
				"methods": {
					"setPaused(bool)": {
						"notice": "Change the paused state of the contract"
					}
				},
				"version": 1
			}
		}
	}
}