{
	"contracts/WaxBridge.sol": {
		"WaxBridge": {
			"abi": [
				{
					"anonymous": false,
					"inputs": [
						{
							"indexed": true,
							"internalType": "bytes32",
							"name": "role",
							"type": "bytes32"
						},
						{
							"indexed": true,
							"internalType": "bytes32",
							"name": "previousAdminRole",
							"type": "bytes32"
						},
						{
							"indexed": true,
							"internalType": "bytes32",
							"name": "newAdminRole",
							"type": "bytes32"
						}
					],
					"name": "RoleAdminChanged",
					"type": "event"
				},
				{
					"anonymous": false,
					"inputs": [
						{
							"indexed": true,
							"internalType": "bytes32",
							"name": "role",
							"type": "bytes32"
						},
						{
							"indexed": true,
							"internalType": "address",
							"name": "account",
							"type": "address"
						},
						{
							"indexed": true,
							"internalType": "address",
							"name": "sender",
							"type": "address"
						}
					],
					"name": "RoleGranted",
					"type": "event"
				},
				{
					"anonymous": false,
					"inputs": [
						{
							"indexed": true,
							"internalType": "bytes32",
							"name": "role",
							"type": "bytes32"
						},
						{
							"indexed": true,
							"internalType": "address",
							"name": "account",
							"type": "address"
						},
						{
							"indexed": true,
							"internalType": "address",
							"name": "sender",
							"type": "address"
						}
					],
					"name": "RoleRevoked",
					"type": "event"
				},
				{
					"inputs": [],
					"name": "DEFAULT_ADMIN_ROLE",
					"outputs": [
						{
							"internalType": "bytes32",
							"name": "",
							"type": "bytes32"
						}
					],
					"stateMutability": "view",
					"type": "function"
				},
				{
					"inputs": [],
					"name": "LIMIT_PERIOD",
					"outputs": [
						{
							"internalType": "uint256",
							"name": "",
							"type": "uint256"
						}
					],
					"stateMutability": "view",
					"type": "function"
				},
				{
					"inputs": [],
					"name": "WAX_BRIDGE",
					"outputs": [
						{
							"internalType": "bytes32",
							"name": "",
							"type": "bytes32"
						}
					],
					"stateMutability": "view",
					"type": "function"
				},
				{
					"inputs": [],
					"name": "bnbLimitPerPeriod",
					"outputs": [
						{
							"internalType": "uint256",
							"name": "",
							"type": "uint256"
						}
					],
					"stateMutability": "view",
					"type": "function"
				},
				{
					"inputs": [
						{
							"internalType": "address",
							"name": "",
							"type": "address"
						}
					],
					"name": "bnbLimitTimestamp",
					"outputs": [
						{
							"internalType": "uint256",
							"name": "",
							"type": "uint256"
						}
					],
					"stateMutability": "view",
					"type": "function"
				},
				{
					"inputs": [],
					"name": "getRemainingWithdrawableBnbDuringPeriod",
					"outputs": [
						{
							"internalType": "uint256",
							"name": "",
							"type": "uint256"
						}
					],
					"stateMutability": "view",
					"type": "function"
				},
				{
					"inputs": [
						{
							"internalType": "bytes32",
							"name": "role",
							"type": "bytes32"
						}
					],
					"name": "getRoleAdmin",
					"outputs": [
						{
							"internalType": "bytes32",
							"name": "",
							"type": "bytes32"
						}
					],
					"stateMutability": "view",
					"type": "function"
				},
				{
					"inputs": [
						{
							"internalType": "bytes32",
							"name": "role",
							"type": "bytes32"
						},
						{
							"internalType": "uint256",
							"name": "index",
							"type": "uint256"
						}
					],
					"name": "getRoleMember",
					"outputs": [
						{
							"internalType": "address",
							"name": "",
							"type": "address"
						}
					],
					"stateMutability": "view",
					"type": "function"
				},
				{
					"inputs": [
						{
							"internalType": "bytes32",
							"name": "role",
							"type": "bytes32"
						}
					],
					"name": "getRoleMemberCount",
					"outputs": [
						{
							"internalType": "uint256",
							"name": "",
							"type": "uint256"
						}
					],
					"stateMutability": "view",
					"type": "function"
				},
				{
					"inputs": [],
					"name": "getTimeUntilLimitExpires",
					"outputs": [
						{
							"internalType": "uint256",
							"name": "",
							"type": "uint256"
						}
					],
					"stateMutability": "view",
					"type": "function"
				},
				{
					"inputs": [],
					"name": "getWithdrawnBnbDuringPeriod",
					"outputs": [
						{
							"internalType": "uint256",
							"name": "",
							"type": "uint256"
						}
					],
					"stateMutability": "view",
					"type": "function"
				},
				{
					"inputs": [
						{
							"internalType": "bytes32",
							"name": "role",
							"type": "bytes32"
						},
						{
							"internalType": "address",
							"name": "account",
							"type": "address"
						}
					],
					"name": "grantRole",
					"outputs": [],
					"stateMutability": "nonpayable",
					"type": "function"
				},
				{
					"inputs": [
						{
							"internalType": "bytes32",
							"name": "role",
							"type": "bytes32"
						},
						{
							"internalType": "address",
							"name": "account",
							"type": "address"
						}
					],
					"name": "hasRole",
					"outputs": [
						{
							"internalType": "bool",
							"name": "",
							"type": "bool"
						}
					],
					"stateMutability": "view",
					"type": "function"
				},
				{
					"inputs": [],
					"name": "initialize",
					"outputs": [],
					"stateMutability": "nonpayable",
					"type": "function"
				},
				{
					"inputs": [],
					"name": "latestWaxChainBlockNumberProcessed",
					"outputs": [
						{
							"internalType": "uint256",
							"name": "",
							"type": "uint256"
						}
					],
					"stateMutability": "view",
					"type": "function"
				},
				{
					"inputs": [
						{
							"internalType": "uint256",
							"name": "_latestWaxChainBlockNumberProcessed",
							"type": "uint256"
						},
						{
							"internalType": "address[]",
							"name": "_to",
							"type": "address[]"
						},
						{
							"internalType": "uint256[]",
							"name": "_value",
							"type": "uint256[]"
						}
					],
					"name": "processWaxConversions",
					"outputs": [],
					"stateMutability": "payable",
					"type": "function"
				},
				{
					"inputs": [
						{
							"internalType": "bytes32",
							"name": "role",
							"type": "bytes32"
						},
						{
							"internalType": "address",
							"name": "account",
							"type": "address"
						}
					],
					"name": "renounceRole",
					"outputs": [],
					"stateMutability": "nonpayable",
					"type": "function"
				},
				{
					"inputs": [
						{
							"internalType": "bytes32",
							"name": "role",
							"type": "bytes32"
						},
						{
							"internalType": "address",
							"name": "account",
							"type": "address"
						}
					],
					"name": "revokeRole",
					"outputs": [],
					"stateMutability": "nonpayable",
					"type": "function"
				},
				{
					"inputs": [
						{
							"internalType": "uint256",
							"name": "_dailyBnbWeiLimit",
							"type": "uint256"
						}
					],
					"name": "setDailyBnbWeiLimit",
					"outputs": [],
					"stateMutability": "nonpayable",
					"type": "function"
				},
				{
					"inputs": [],
					"name": "totalOwedBnb",
					"outputs": [
						{
							"internalType": "uint256",
							"name": "",
							"type": "uint256"
						}
					],
					"stateMutability": "view",
					"type": "function"
				},
				{
					"inputs": [
						{
							"internalType": "uint256",
							"name": "_maxAmount",
							"type": "uint256"
						}
					],
					"name": "withdraw",
					"outputs": [
						{
							"internalType": "uint256",
							"name": "",
							"type": "uint256"
						}
					],
					"stateMutability": "nonpayable",
					"type": "function"
				},
				{
					"inputs": [
						{
							"internalType": "address",
							"name": "",
							"type": "address"
						}
					],
					"name": "withdrawableBnb",
					"outputs": [
						{
							"internalType": "uint256",
							"name": "",
							"type": "uint256"
						}
					],
					"stateMutability": "view",
					"type": "function"
				},
				{
					"stateMutability": "payable",
					"type": "receive"
				}
			],
			"devdoc": {
				"kind": "dev",
				"methods": {
					"getRoleAdmin(bytes32)": {
						"details": "Returns the admin role that controls `role`. See {grantRole} and {revokeRole}. To change a role's admin, use {_setRoleAdmin}."
					},
					"getRoleMember(bytes32,uint256)": {
						"details": "Returns one of the accounts that have `role`. `index` must be a value between 0 and {getRoleMemberCount}, non-inclusive. Role bearers are not sorted in any particular way, and their ordering may change at any point. WARNING: When using {getRoleMember} and {getRoleMemberCount}, make sure you perform all queries on the same block. See the following https://forum.openzeppelin.com/t/iterating-over-elements-on-enumerableset-in-openzeppelin-contracts/2296[forum post] for more information."
					},
					"getRoleMemberCount(bytes32)": {
						"details": "Returns the number of accounts that have `role`. Can be used together with {getRoleMember} to enumerate all bearers of a role."
					},
					"grantRole(bytes32,address)": {
						"details": "Grants `role` to `account`. If `account` had not been already granted `role`, emits a {RoleGranted} event. Requirements: - the caller must have ``role``'s admin role."
					},
					"hasRole(bytes32,address)": {
						"details": "Returns `true` if `account` has been granted `role`."
					},
					"renounceRole(bytes32,address)": {
						"details": "Revokes `role` from the calling account. Roles are often managed via {grantRole} and {revokeRole}: this function's purpose is to provide a mechanism for accounts to lose their privileges if they are compromised (such as when a trusted device is misplaced). If the calling account had been granted `role`, emits a {RoleRevoked} event. Requirements: - the caller must be `account`."
					},
					"revokeRole(bytes32,address)": {
						"details": "Revokes `role` from `account`. If `account` had been granted `role`, emits a {RoleRevoked} event. Requirements: - the caller must have ``role``'s admin role."
					}
				},
				"version": 1
			},
			"evm": {
				"assembly": "    /* \"contracts/WaxBridge.sol\":314:4282  contract WaxBridge is Initializable, AccessControlUpgradeable {... */\n  mstore(0x40, 0x80)\n  callvalue\n  dup1\n  iszero\n  tag_1\n  jumpi\n  0x00\n  dup1\n  revert\ntag_1:\n  pop\n  dataSize(sub_0)\n  dup1\n  dataOffset(sub_0)\n  0x00\n  codecopy\n  0x00\n  return\nstop\n\nsub_0: assembly {\n        /* \"contracts/WaxBridge.sol\":314:4282  contract WaxBridge is Initializable, AccessControlUpgradeable {... */\n      mstore(0x40, 0x80)\n      jumpi(tag_1, lt(calldatasize, 0x04))\n      shr(0xe0, calldataload(0x00))\n      dup1\n      0x6749cb14\n      gt\n      tag_25\n      jumpi\n      dup1\n      0xa20f3514\n      gt\n      tag_26\n      jumpi\n      dup1\n      0xa20f3514\n      eq\n      tag_19\n      jumpi\n      dup1\n      0xa217fddf\n      eq\n      tag_20\n      jumpi\n      dup1\n      0xa3b34bed\n      eq\n      tag_21\n      jumpi\n      dup1\n      0xca15c873\n      eq\n      tag_22\n      jumpi\n      dup1\n      0xd547741f\n      eq\n      tag_23\n      jumpi\n      dup1\n      0xedd99131\n      eq\n      tag_24\n      jumpi\n      jump(tag_2)\n    tag_26:\n      dup1\n      0x6749cb14\n      eq\n      tag_14\n      jumpi\n      dup1\n      0x8129fc1c\n      eq\n      tag_15\n      jumpi\n      dup1\n      0x9010d07c\n      eq\n      tag_16\n      jumpi\n      dup1\n      0x91d14854\n      eq\n      tag_17\n      jumpi\n      dup1\n      0x98f42a0b\n      eq\n      tag_18\n      jumpi\n      jump(tag_2)\n    tag_25:\n      dup1\n      0x36568abe\n      gt\n      tag_27\n      jumpi\n      dup1\n      0x36568abe\n      eq\n      tag_8\n      jumpi\n      dup1\n      0x36ff0abc\n      eq\n      tag_9\n      jumpi\n      dup1\n      0x3b8706b7\n      eq\n      tag_10\n      jumpi\n      dup1\n      0x45bb31ea\n      eq\n      tag_11\n      jumpi\n      dup1\n      0x50d895b5\n      eq\n      tag_12\n      jumpi\n      dup1\n      0x55b2eb7c\n      eq\n      tag_13\n      jumpi\n      jump(tag_2)\n    tag_27:\n      dup1\n      0x04d72af5\n      eq\n      tag_3\n      jumpi\n      dup1\n      0x248a9ca3\n      eq\n      tag_4\n      jumpi\n      dup1\n      0x2e1a7d4d\n      eq\n      tag_5\n      jumpi\n      dup1\n      0x2f2ff15d\n      eq\n      tag_6\n      jumpi\n      dup1\n      0x33289d10\n      eq\n      tag_7\n      jumpi\n      jump(tag_2)\n    tag_1:\n      jumpi(tag_2, calldatasize)\n        /* \"contracts/WaxBridge.sol\":4186:4225  hasRole(DEFAULT_ADMIN_ROLE, msg.sender) */\n      tag_30\n        /* \"@openzeppelin/contracts-upgradeable/access/AccessControlUpgradeable.sol\":2142:2146  0x00 */\n      0x00\n        /* \"contracts/WaxBridge.sol\":4194:4212  DEFAULT_ADMIN_ROLE */\n      dup1\n      shl\n        /* \"contracts/WaxBridge.sol\":4214:4224  msg.sender */\n      caller\n        /* \"contracts/WaxBridge.sol\":4186:4193  hasRole */\n      tag_31\n        /* \"contracts/WaxBridge.sol\":4186:4225  hasRole(DEFAULT_ADMIN_ROLE, msg.sender) */\n      jump\t// in\n    tag_30:\n        /* \"contracts/WaxBridge.sol\":4178:4261  require(hasRole(DEFAULT_ADMIN_ROLE, msg.sender), \"Missing DEFAULT_ADMIN_ROLE role\") */\n      tag_32\n      jumpi\n      mload(0x40)\n      0x08c379a000000000000000000000000000000000000000000000000000000000\n      dup2\n      mstore\n      0x04\n      add\n      dup1\n      dup1\n      0x20\n      add\n      dup3\n      dup2\n      sub\n      dup3\n      mstore\n      0x1f\n      dup2\n      mstore\n      0x20\n      add\n      dup1\n      0x4d697373696e672044454641554c545f41444d494e5f524f4c4520726f6c6500\n      dup2\n      mstore\n      pop\n      0x20\n      add\n      swap2\n      pop\n      pop\n      mload(0x40)\n      dup1\n      swap2\n      sub\n      swap1\n      revert\n    tag_32:\n        /* \"contracts/WaxBridge.sol\":314:4282  contract WaxBridge is Initializable, AccessControlUpgradeable {... */\n      stop\n    tag_2:\n      0x00\n      dup1\n      revert\n        /* \"contracts/WaxBridge.sol\":1162:1401  function getWithdrawnBnbDuringPeriod() public view returns (uint256) {... */\n    tag_3:\n      callvalue\n      dup1\n      iszero\n      tag_34\n      jumpi\n      0x00\n      dup1\n      revert\n    tag_34:\n      pop\n      tag_35\n      tag_36\n      jump\t// in\n    tag_35:\n      mload(0x40)\n      dup1\n      dup3\n      dup2\n      mstore\n      0x20\n      add\n      swap2\n      pop\n      pop\n      mload(0x40)\n      dup1\n      swap2\n      sub\n      swap1\n      return\n        /* \"@openzeppelin/contracts-upgradeable/access/AccessControlUpgradeable.sol\":4652:4764  function getRoleAdmin(bytes32 role) public view returns (bytes32) {... */\n    tag_4:\n      callvalue\n      dup1\n      iszero\n      tag_37\n      jumpi\n      0x00\n      dup1\n      revert\n    tag_37:\n      pop\n      tag_38\n      0x04\n      dup1\n      calldatasize\n      sub\n      0x20\n      dup2\n      lt\n      iszero\n      tag_39\n      jumpi\n      0x00\n      dup1\n      revert\n    tag_39:\n      dup2\n      add\n      swap1\n      dup1\n      dup1\n      calldataload\n      swap1\n      0x20\n      add\n      swap1\n      swap3\n      swap2\n      swap1\n      pop\n      pop\n      pop\n      tag_40\n      jump\t// in\n    tag_38:\n      mload(0x40)\n      dup1\n      dup3\n      dup2\n      mstore\n      0x20\n      add\n      swap2\n      pop\n      pop\n      mload(0x40)\n      dup1\n      swap2\n      sub\n      swap1\n      return\n        /* \"contracts/WaxBridge.sol\":2970:4140  function withdraw(uint256 _maxAmount) external returns (uint256) {... */\n    tag_5:\n      callvalue\n      dup1\n      iszero\n      tag_41\n      jumpi\n      0x00\n      dup1\n      revert\n    tag_41:\n      pop\n      tag_42\n      0x04\n      dup1\n      calldatasize\n      sub\n      0x20\n      dup2\n      lt\n      iszero\n      tag_43\n      jumpi\n      0x00\n      dup1\n      revert\n    tag_43:\n      dup2\n      add\n      swap1\n      dup1\n      dup1\n      calldataload\n      swap1\n      0x20\n      add\n      swap1\n      swap3\n      swap2\n      swap1\n      pop\n      pop\n      pop\n      tag_44\n      jump\t// in\n    tag_42:\n      mload(0x40)\n      dup1\n      dup3\n      dup2\n      mstore\n      0x20\n      add\n      swap2\n      pop\n      pop\n      mload(0x40)\n      dup1\n      swap2\n      sub\n      swap1\n      return\n        /* \"@openzeppelin/contracts-upgradeable/access/AccessControlUpgradeable.sol\":5014:5237  function grantRole(bytes32 role, address account) public virtual {... */\n    tag_6:\n      callvalue\n      dup1\n      iszero\n      tag_45\n      jumpi\n      0x00\n      dup1\n      revert\n    tag_45:\n      pop\n      tag_46\n      0x04\n      dup1\n      calldatasize\n      sub\n      0x40\n      dup2\n      lt\n      iszero\n      tag_47\n      jumpi\n      0x00\n      dup1\n      revert\n    tag_47:\n      dup2\n      add\n      swap1\n      dup1\n      dup1\n      calldataload\n      swap1\n      0x20\n      add\n      swap1\n      swap3\n      swap2\n      swap1\n      dup1\n      calldataload\n      0xffffffffffffffffffffffffffffffffffffffff\n      and\n      swap1\n      0x20\n      add\n      swap1\n      swap3\n      swap2\n      swap1\n      pop\n      pop\n      pop\n      tag_48\n      jump\t// in\n    tag_46:\n      stop\n        /* \"contracts/WaxBridge.sol\":1407:1565  function getRemainingWithdrawableBnbDuringPeriod() external view returns(uint256) {... */\n    tag_7:\n      callvalue\n      dup1\n      iszero\n      tag_49\n      jumpi\n      0x00\n      dup1\n      revert\n    tag_49:\n      pop\n      tag_50\n      tag_51\n      jump\t// in\n    tag_50:\n      mload(0x40)\n      dup1\n      dup3\n      dup2\n      mstore\n      0x20\n      add\n      swap2\n      pop\n      pop\n      mload(0x40)\n      dup1\n      swap2\n      sub\n      swap1\n      return\n        /* \"@openzeppelin/contracts-upgradeable/access/AccessControlUpgradeable.sol\":6188:6393  function renounceRole(bytes32 role, address account) public virtual {... */\n    tag_8:\n      callvalue\n      dup1\n      iszero\n      tag_52\n      jumpi\n      0x00\n      dup1\n      revert\n    tag_52:\n      pop\n      tag_53\n      0x04\n      dup1\n      calldatasize\n      sub\n      0x40\n      dup2\n      lt\n      iszero\n      tag_54\n      jumpi\n      0x00\n      dup1\n      revert\n    tag_54:\n      dup2\n      add\n      swap1\n      dup1\n      dup1\n      calldataload\n      swap1\n      0x20\n      add\n      swap1\n      swap3\n      swap2\n      swap1\n      dup1\n      calldataload\n      0xffffffffffffffffffffffffffffffffffffffff\n      and\n      swap1\n      0x20\n      add\n      swap1\n      swap3\n      swap2\n      swap1\n      pop\n      pop\n      pop\n      tag_55\n      jump\t// in\n    tag_53:\n      stop\n        /* \"contracts/WaxBridge.sol\":2019:2964  function processWaxConversions(uint256 _latestWaxChainBlockNumberProcessed, address[] calldata _to, uint256[] calldata _value) external payable {... */\n    tag_9:\n      tag_56\n      0x04\n      dup1\n      calldatasize\n      sub\n      0x60\n      dup2\n      lt\n      iszero\n      tag_57\n      jumpi\n      0x00\n      dup1\n      revert\n    tag_57:\n      dup2\n      add\n      swap1\n      dup1\n      dup1\n      calldataload\n      swap1\n      0x20\n      add\n      swap1\n      swap3\n      swap2\n      swap1\n      dup1\n      calldataload\n      swap1\n      0x20\n      add\n      swap1\n      0x0100000000\n      dup2\n      gt\n      iszero\n      tag_58\n      jumpi\n      0x00\n      dup1\n      revert\n    tag_58:\n      dup3\n      add\n      dup4\n      0x20\n      dup3\n      add\n      gt\n      iszero\n      tag_59\n      jumpi\n      0x00\n      dup1\n      revert\n    tag_59:\n      dup1\n      calldataload\n      swap1\n      0x20\n      add\n      swap2\n      dup5\n      0x20\n      dup4\n      mul\n      dup5\n      add\n      gt\n      0x0100000000\n      dup4\n      gt\n      or\n      iszero\n      tag_60\n      jumpi\n      0x00\n      dup1\n      revert\n    tag_60:\n      swap1\n      swap2\n      swap3\n      swap4\n      swap2\n      swap3\n      swap4\n      swap1\n      dup1\n      calldataload\n      swap1\n      0x20\n      add\n      swap1\n      0x0100000000\n      dup2\n      gt\n      iszero\n      tag_61\n      jumpi\n      0x00\n      dup1\n      revert\n    tag_61:\n      dup3\n      add\n      dup4\n      0x20\n      dup3\n      add\n      gt\n      iszero\n      tag_62\n      jumpi\n      0x00\n      dup1\n      revert\n    tag_62:\n      dup1\n      calldataload\n      swap1\n      0x20\n      add\n      swap2\n      dup5\n      0x20\n      dup4\n      mul\n      dup5\n      add\n      gt\n      0x0100000000\n      dup4\n      gt\n      or\n      iszero\n      tag_63\n      jumpi\n      0x00\n      dup1\n      revert\n    tag_63:\n      swap1\n      swap2\n      swap3\n      swap4\n      swap2\n      swap3\n      swap4\n      swap1\n      pop\n      pop\n      pop\n      tag_64\n      jump\t// in\n    tag_56:\n      stop\n        /* \"contracts/WaxBridge.sol\":1832:1962  function setDailyBnbWeiLimit(uint256 _dailyBnbWeiLimit) external restricted {... */\n    tag_10:\n      callvalue\n      dup1\n      iszero\n      tag_65\n      jumpi\n      0x00\n      dup1\n      revert\n    tag_65:\n      pop\n      tag_66\n      0x04\n      dup1\n      calldatasize\n      sub\n      0x20\n      dup2\n      lt\n      iszero\n      tag_67\n      jumpi\n      0x00\n      dup1\n      revert\n    tag_67:\n      dup2\n      add\n      swap1\n      dup1\n      dup1\n      calldataload\n      swap1\n      0x20\n      add\n      swap1\n      swap3\n      swap2\n      swap1\n      pop\n      pop\n      pop\n      tag_68\n      jump\t// in\n    tag_66:\n      stop\n        /* \"contracts/WaxBridge.sol\":1039:1089  mapping(address => uint256) public withdrawableBnb */\n    tag_11:\n      callvalue\n      dup1\n      iszero\n      tag_69\n      jumpi\n      0x00\n      dup1\n      revert\n    tag_69:\n      pop\n      tag_70\n      0x04\n      dup1\n      calldatasize\n      sub\n      0x20\n      dup2\n      lt\n      iszero\n      tag_71\n      jumpi\n      0x00\n      dup1\n      revert\n    tag_71:\n      dup2\n      add\n      swap1\n      dup1\n      dup1\n      calldataload\n      0xffffffffffffffffffffffffffffffffffffffff\n      and\n      swap1\n      0x20\n      add\n      swap1\n      swap3\n      swap2\n      swap1\n      pop\n      pop\n      pop\n      tag_72\n      jump\t// in\n    tag_70:\n      mload(0x40)\n      dup1\n      dup3\n      dup2\n      mstore\n      0x20\n      add\n      swap2\n      pop\n      pop\n      mload(0x40)\n      dup1\n      swap2\n      sub\n      swap1\n      return\n        /* \"contracts/WaxBridge.sol\":519:564  uint256 public constant LIMIT_PERIOD = 1 days */\n    tag_12:\n      callvalue\n      dup1\n      iszero\n      tag_73\n      jumpi\n      0x00\n      dup1\n      revert\n    tag_73:\n      pop\n      tag_74\n      tag_75\n      jump\t// in\n    tag_74:\n      mload(0x40)\n      dup1\n      dup3\n      dup2\n      mstore\n      0x20\n      add\n      swap2\n      pop\n      pop\n      mload(0x40)\n      dup1\n      swap2\n      sub\n      swap1\n      return\n        /* \"contracts/WaxBridge.sol\":452:512  bytes32 public constant WAX_BRIDGE = keccak256(\"WAX_BRIDGE\") */\n    tag_13:\n      callvalue\n      dup1\n      iszero\n      tag_76\n      jumpi\n      0x00\n      dup1\n      revert\n    tag_76:\n      pop\n      tag_77\n      tag_78\n      jump\t// in\n    tag_77:\n      mload(0x40)\n      dup1\n      dup3\n      dup2\n      mstore\n      0x20\n      add\n      swap2\n      pop\n      pop\n      mload(0x40)\n      dup1\n      swap2\n      sub\n      swap1\n      return\n        /* \"contracts/WaxBridge.sol\":1571:1826  function getTimeUntilLimitExpires() external view returns(uint256) {... */\n    tag_14:\n      callvalue\n      dup1\n      iszero\n      tag_79\n      jumpi\n      0x00\n      dup1\n      revert\n    tag_79:\n      pop\n      tag_80\n      tag_81\n      jump\t// in\n    tag_80:\n      mload(0x40)\n      dup1\n      dup3\n      dup2\n      mstore\n      0x20\n      add\n      swap2\n      pop\n      pop\n      mload(0x40)\n      dup1\n      swap2\n      sub\n      swap1\n      return\n        /* \"contracts/WaxBridge.sol\":571:849  function initialize() public initializer {... */\n    tag_15:\n      callvalue\n      dup1\n      iszero\n      tag_82\n      jumpi\n      0x00\n      dup1\n      revert\n    tag_82:\n      pop\n      tag_83\n      tag_84\n      jump\t// in\n    tag_83:\n      stop\n        /* \"@openzeppelin/contracts-upgradeable/access/AccessControlUpgradeable.sol\":4335:4471  function getRoleMember(bytes32 role, uint256 index) public view returns (address) {... */\n    tag_16:\n      callvalue\n      dup1\n      iszero\n      tag_85\n      jumpi\n      0x00\n      dup1\n      revert\n    tag_85:\n      pop\n      tag_86\n      0x04\n      dup1\n      calldatasize\n      sub\n      0x40\n      dup2\n      lt\n      iszero\n      tag_87\n      jumpi\n      0x00\n      dup1\n      revert\n    tag_87:\n      dup2\n      add\n      swap1\n      dup1\n      dup1\n      calldataload\n      swap1\n      0x20\n      add\n      swap1\n      swap3\n      swap2\n      swap1\n      dup1\n      calldataload\n      swap1\n      0x20\n      add\n      swap1\n      swap3\n      swap2\n      swap1\n      pop\n      pop\n      pop\n      tag_88\n      jump\t// in\n    tag_86:\n      mload(0x40)\n      dup1\n      dup3\n      0xffffffffffffffffffffffffffffffffffffffff\n      and\n      dup2\n      mstore\n      0x20\n      add\n      swap2\n      pop\n      pop\n      mload(0x40)\n      dup1\n      swap2\n      sub\n      swap1\n      return\n        /* \"@openzeppelin/contracts-upgradeable/access/AccessControlUpgradeable.sol\":3320:3457  function hasRole(bytes32 role, address account) public view returns (bool) {... */\n    tag_17:\n      callvalue\n      dup1\n      iszero\n      tag_89\n      jumpi\n      0x00\n      dup1\n      revert\n    tag_89:\n      pop\n      tag_90\n      0x04\n      dup1\n      calldatasize\n      sub\n      0x40\n      dup2\n      lt\n      iszero\n      tag_91\n      jumpi\n      0x00\n      dup1\n      revert\n    tag_91:\n      dup2\n      add\n      swap1\n      dup1\n      dup1\n      calldataload\n      swap1\n      0x20\n      add\n      swap1\n      swap3\n      swap2\n      swap1\n      dup1\n      calldataload\n      0xffffffffffffffffffffffffffffffffffffffff\n      and\n      swap1\n      0x20\n      add\n      swap1\n      swap3\n      swap2\n      swap1\n      pop\n      pop\n      pop\n      tag_31\n      jump\t// in\n    tag_90:\n      mload(0x40)\n      dup1\n      dup3\n      iszero\n      iszero\n      dup2\n      mstore\n      0x20\n      add\n      swap2\n      pop\n      pop\n      mload(0x40)\n      dup1\n      swap2\n      sub\n      swap1\n      return\n        /* \"contracts/WaxBridge.sol\":855:904  uint256 public latestWaxChainBlockNumberProcessed */\n    tag_18:\n      callvalue\n      dup1\n      iszero\n      tag_92\n      jumpi\n      0x00\n      dup1\n      revert\n    tag_92:\n      pop\n      tag_93\n      tag_94\n      jump\t// in\n    tag_93:\n      mload(0x40)\n      dup1\n      dup3\n      dup2\n      mstore\n      0x20\n      add\n      swap2\n      pop\n      pop\n      mload(0x40)\n      dup1\n      swap2\n      sub\n      swap1\n      return\n        /* \"contracts/WaxBridge.sol\":910:937  uint256 public totalOwedBnb */\n    tag_19:\n      callvalue\n      dup1\n      iszero\n      tag_95\n      jumpi\n      0x00\n      dup1\n      revert\n    tag_95:\n      pop\n      tag_96\n      tag_97\n      jump\t// in\n    tag_96:\n      mload(0x40)\n      dup1\n      dup3\n      dup2\n      mstore\n      0x20\n      add\n      swap2\n      pop\n      pop\n      mload(0x40)\n      dup1\n      swap2\n      sub\n      swap1\n      return\n        /* \"@openzeppelin/contracts-upgradeable/access/AccessControlUpgradeable.sol\":2097:2146  bytes32 public constant DEFAULT_ADMIN_ROLE = 0x00 */\n    tag_20:\n      callvalue\n      dup1\n      iszero\n      tag_98\n      jumpi\n      0x00\n      dup1\n      revert\n    tag_98:\n      pop\n      tag_99\n      tag_100\n      jump\t// in\n    tag_99:\n      mload(0x40)\n      dup1\n      dup3\n      dup2\n      mstore\n      0x20\n      add\n      swap2\n      pop\n      pop\n      mload(0x40)\n      dup1\n      swap2\n      sub\n      swap1\n      return\n        /* \"contracts/WaxBridge.sol\":981:1033  mapping(address => uint256) public bnbLimitTimestamp */\n    tag_21:\n      callvalue\n      dup1\n      iszero\n      tag_101\n      jumpi\n      0x00\n      dup1\n      revert\n    tag_101:\n      pop\n      tag_102\n      0x04\n      dup1\n      calldatasize\n      sub\n      0x20\n      dup2\n      lt\n      iszero\n      tag_103\n      jumpi\n      0x00\n      dup1\n      revert\n    tag_103:\n      dup2\n      add\n      swap1\n      dup1\n      dup1\n      calldataload\n      0xffffffffffffffffffffffffffffffffffffffff\n      and\n      swap1\n      0x20\n      add\n      swap1\n      swap3\n      swap2\n      swap1\n      pop\n      pop\n      pop\n      tag_104\n      jump\t// in\n    tag_102:\n      mload(0x40)\n      dup1\n      dup3\n      dup2\n      mstore\n      0x20\n      add\n      swap2\n      pop\n      pop\n      mload(0x40)\n      dup1\n      swap2\n      sub\n      swap1\n      return\n        /* \"@openzeppelin/contracts-upgradeable/access/AccessControlUpgradeable.sol\":3625:3750  function getRoleMemberCount(bytes32 role) public view returns (uint256) {... */\n    tag_22:\n      callvalue\n      dup1\n      iszero\n      tag_105\n      jumpi\n      0x00\n      dup1\n      revert\n    tag_105:\n      pop\n      tag_106\n      0x04\n      dup1\n      calldatasize\n      sub\n      0x20\n      dup2\n      lt\n      iszero\n      tag_107\n      jumpi\n      0x00\n      dup1\n      revert\n    tag_107:\n      dup2\n      add\n      swap1\n      dup1\n      dup1\n      calldataload\n      swap1\n      0x20\n      add\n      swap1\n      swap3\n      swap2\n      swap1\n      pop\n      pop\n      pop\n      tag_108\n      jump\t// in\n    tag_106:\n      mload(0x40)\n      dup1\n      dup3\n      dup2\n      mstore\n      0x20\n      add\n      swap2\n      pop\n      pop\n      mload(0x40)\n      dup1\n      swap2\n      sub\n      swap1\n      return\n        /* \"@openzeppelin/contracts-upgradeable/access/AccessControlUpgradeable.sol\":5471:5697  function revokeRole(bytes32 role, address account) public virtual {... */\n    tag_23:\n      callvalue\n      dup1\n      iszero\n      tag_109\n      jumpi\n      0x00\n      dup1\n      revert\n    tag_109:\n      pop\n      tag_110\n      0x04\n      dup1\n      calldatasize\n      sub\n      0x40\n      dup2\n      lt\n      iszero\n      tag_111\n      jumpi\n      0x00\n      dup1\n      revert\n    tag_111:\n      dup2\n      add\n      swap1\n      dup1\n      dup1\n      calldataload\n      swap1\n      0x20\n      add\n      swap1\n      swap3\n      swap2\n      swap1\n      dup1\n      calldataload\n      0xffffffffffffffffffffffffffffffffffffffff\n      and\n      swap1\n      0x20\n      add\n      swap1\n      swap3\n      swap2\n      swap1\n      pop\n      pop\n      pop\n      tag_112\n      jump\t// in\n    tag_110:\n      stop\n        /* \"contracts/WaxBridge.sol\":943:975  uint256 public bnbLimitPerPeriod */\n    tag_24:\n      callvalue\n      dup1\n      iszero\n      tag_113\n      jumpi\n      0x00\n      dup1\n      revert\n    tag_113:\n      pop\n      tag_114\n      tag_115\n      jump\t// in\n    tag_114:\n      mload(0x40)\n      dup1\n      dup3\n      dup2\n      mstore\n      0x20\n      add\n      swap2\n      pop\n      pop\n      mload(0x40)\n      dup1\n      swap2\n      sub\n      swap1\n      return\n        /* \"@openzeppelin/contracts-upgradeable/access/AccessControlUpgradeable.sol\":3320:3457  function hasRole(bytes32 role, address account) public view returns (bool) {... */\n    tag_31:\n        /* \"@openzeppelin/contracts-upgradeable/access/AccessControlUpgradeable.sol\":3389:3393  bool */\n      0x00\n        /* \"@openzeppelin/contracts-upgradeable/access/AccessControlUpgradeable.sol\":3412:3450  _roles[role].members.contains(account) */\n      tag_117\n        /* \"@openzeppelin/contracts-upgradeable/access/AccessControlUpgradeable.sol\":3442:3449  account */\n      dup3\n        /* \"@openzeppelin/contracts-upgradeable/access/AccessControlUpgradeable.sol\":3412:3418  _roles */\n      0x33\n        /* \"@openzeppelin/contracts-upgradeable/access/AccessControlUpgradeable.sol\":3412:3424  _roles[role] */\n      0x00\n        /* \"@openzeppelin/contracts-upgradeable/access/AccessControlUpgradeable.sol\":3419:3423  role */\n      dup7\n        /* \"@openzeppelin/contracts-upgradeable/access/AccessControlUpgradeable.sol\":3412:3424  _roles[role] */\n      dup2\n      mstore\n      0x20\n      add\n      swap1\n      dup2\n      mstore\n      0x20\n      add\n      0x00\n      keccak256\n        /* \"@openzeppelin/contracts-upgradeable/access/AccessControlUpgradeable.sol\":3412:3432  _roles[role].members */\n      0x00\n      add\n        /* \"@openzeppelin/contracts-upgradeable/access/AccessControlUpgradeable.sol\":3412:3441  _roles[role].members.contains */\n      tag_118\n      swap1\n        /* \"@openzeppelin/contracts-upgradeable/access/AccessControlUpgradeable.sol\":3412:3450  _roles[role].members.contains(account) */\n      swap2\n      swap1\n      0xffffffff\n      and\n      jump\t// in\n    tag_117:\n        /* \"@openzeppelin/contracts-upgradeable/access/AccessControlUpgradeable.sol\":3405:3450  return _roles[role].members.contains(account) */\n      swap1\n      pop\n        /* \"@openzeppelin/contracts-upgradeable/access/AccessControlUpgradeable.sol\":3320:3457  function hasRole(bytes32 role, address account) public view returns (bool) {... */\n      swap3\n      swap2\n      pop\n      pop\n      jump\t// out\n        /* \"contracts/WaxBridge.sol\":1162:1401  function getWithdrawnBnbDuringPeriod() public view returns (uint256) {... */\n    tag_36:\n        /* \"contracts/WaxBridge.sol\":1222:1229  uint256 */\n      0x00\n        /* \"contracts/WaxBridge.sol\":1291:1306  block.timestamp */\n      timestamp\n        /* \"contracts/WaxBridge.sol\":558:564  1 days */\n      0x015180\n        /* \"contracts/WaxBridge.sol\":1244:1261  bnbLimitTimestamp */\n      0x68\n        /* \"contracts/WaxBridge.sol\":1244:1273  bnbLimitTimestamp[msg.sender] */\n      0x00\n        /* \"contracts/WaxBridge.sol\":1262:1272  msg.sender */\n      caller\n        /* \"contracts/WaxBridge.sol\":1244:1273  bnbLimitTimestamp[msg.sender] */\n      0xffffffffffffffffffffffffffffffffffffffff\n      and\n      0xffffffffffffffffffffffffffffffffffffffff\n      and\n      dup2\n      mstore\n      0x20\n      add\n      swap1\n      dup2\n      mstore\n      0x20\n      add\n      0x00\n      keccak256\n      sload\n        /* \"contracts/WaxBridge.sol\":1244:1288  bnbLimitTimestamp[msg.sender] + LIMIT_PERIOD */\n      add\n        /* \"contracts/WaxBridge.sol\":1244:1306  bnbLimitTimestamp[msg.sender] + LIMIT_PERIOD < block.timestamp */\n      lt\n        /* \"contracts/WaxBridge.sol\":1241:1341  if(bnbLimitTimestamp[msg.sender] + LIMIT_PERIOD < block.timestamp) {... */\n      iszero\n      tag_120\n      jumpi\n        /* \"contracts/WaxBridge.sol\":1329:1330  0 */\n      0x00\n        /* \"contracts/WaxBridge.sol\":1322:1330  return 0 */\n      swap1\n      pop\n      jump(tag_119)\n        /* \"contracts/WaxBridge.sol\":1241:1341  if(bnbLimitTimestamp[msg.sender] + LIMIT_PERIOD < block.timestamp) {... */\n    tag_120:\n        /* \"contracts/WaxBridge.sol\":1358:1382  withdrawnBnbDuringPeriod */\n      0x6a\n        /* \"contracts/WaxBridge.sol\":1358:1394  withdrawnBnbDuringPeriod[msg.sender] */\n      0x00\n        /* \"contracts/WaxBridge.sol\":1383:1393  msg.sender */\n      caller\n        /* \"contracts/WaxBridge.sol\":1358:1394  withdrawnBnbDuringPeriod[msg.sender] */\n      0xffffffffffffffffffffffffffffffffffffffff\n      and\n      0xffffffffffffffffffffffffffffffffffffffff\n      and\n      dup2\n      mstore\n      0x20\n      add\n      swap1\n      dup2\n      mstore\n      0x20\n      add\n      0x00\n      keccak256\n      sload\n        /* \"contracts/WaxBridge.sol\":1351:1394  return withdrawnBnbDuringPeriod[msg.sender] */\n      swap1\n      pop\n        /* \"contracts/WaxBridge.sol\":1162:1401  function getWithdrawnBnbDuringPeriod() public view returns (uint256) {... */\n    tag_119:\n      swap1\n      jump\t// out\n        /* \"@openzeppelin/contracts-upgradeable/access/AccessControlUpgradeable.sol\":4652:4764  function getRoleAdmin(bytes32 role) public view returns (bytes32) {... */\n    tag_40:\n        /* \"@openzeppelin/contracts-upgradeable/access/AccessControlUpgradeable.sol\":4709:4716  bytes32 */\n      0x00\n        /* \"@openzeppelin/contracts-upgradeable/access/AccessControlUpgradeable.sol\":4735:4741  _roles */\n      0x33\n        /* \"@openzeppelin/contracts-upgradeable/access/AccessControlUpgradeable.sol\":4735:4747  _roles[role] */\n      0x00\n        /* \"@openzeppelin/contracts-upgradeable/access/AccessControlUpgradeable.sol\":4742:4746  role */\n      dup4\n        /* \"@openzeppelin/contracts-upgradeable/access/AccessControlUpgradeable.sol\":4735:4747  _roles[role] */\n      dup2\n      mstore\n      0x20\n      add\n      swap1\n      dup2\n      mstore\n      0x20\n      add\n      0x00\n      keccak256\n        /* \"@openzeppelin/contracts-upgradeable/access/AccessControlUpgradeable.sol\":4735:4757  _roles[role].adminRole */\n      0x02\n      add\n      sload\n        /* \"@openzeppelin/contracts-upgradeable/access/AccessControlUpgradeable.sol\":4728:4757  return _roles[role].adminRole */\n      swap1\n      pop\n        /* \"@openzeppelin/contracts-upgradeable/access/AccessControlUpgradeable.sol\":4652:4764  function getRoleAdmin(bytes32 role) public view returns (bytes32) {... */\n      swap2\n      swap1\n      pop\n      jump\t// out\n        /* \"contracts/WaxBridge.sol\":2970:4140  function withdraw(uint256 _maxAmount) external returns (uint256) {... */\n    tag_44:\n        /* \"contracts/WaxBridge.sol\":3026:3033  uint256 */\n      0x00\n        /* \"contracts/WaxBridge.sol\":3095:3110  block.timestamp */\n      timestamp\n        /* \"contracts/WaxBridge.sol\":558:564  1 days */\n      0x015180\n        /* \"contracts/WaxBridge.sol\":3048:3065  bnbLimitTimestamp */\n      0x68\n        /* \"contracts/WaxBridge.sol\":3048:3077  bnbLimitTimestamp[msg.sender] */\n      0x00\n        /* \"contracts/WaxBridge.sol\":3066:3076  msg.sender */\n      caller\n        /* \"contracts/WaxBridge.sol\":3048:3077  bnbLimitTimestamp[msg.sender] */\n      0xffffffffffffffffffffffffffffffffffffffff\n      and\n      0xffffffffffffffffffffffffffffffffffffffff\n      and\n      dup2\n      mstore\n      0x20\n      add\n      swap1\n      dup2\n      mstore\n      0x20\n      add\n      0x00\n      keccak256\n      sload\n        /* \"contracts/WaxBridge.sol\":3048:3092  bnbLimitTimestamp[msg.sender] + LIMIT_PERIOD */\n      add\n        /* \"contracts/WaxBridge.sol\":3048:3110  bnbLimitTimestamp[msg.sender] + LIMIT_PERIOD < block.timestamp */\n      lt\n        /* \"contracts/WaxBridge.sol\":3045:3238  if(bnbLimitTimestamp[msg.sender] + LIMIT_PERIOD < block.timestamp) {... */\n      iszero\n      tag_123\n      jumpi\n        /* \"contracts/WaxBridge.sol\":3158:3173  block.timestamp */\n      timestamp\n        /* \"contracts/WaxBridge.sol\":3126:3143  bnbLimitTimestamp */\n      0x68\n        /* \"contracts/WaxBridge.sol\":3126:3155  bnbLimitTimestamp[msg.sender] */\n      0x00\n        /* \"contracts/WaxBridge.sol\":3144:3154  msg.sender */\n      caller\n        /* \"contracts/WaxBridge.sol\":3126:3155  bnbLimitTimestamp[msg.sender] */\n      0xffffffffffffffffffffffffffffffffffffffff\n      and\n      0xffffffffffffffffffffffffffffffffffffffff\n      and\n      dup2\n      mstore\n      0x20\n      add\n      swap1\n      dup2\n      mstore\n      0x20\n      add\n      0x00\n      keccak256\n        /* \"contracts/WaxBridge.sol\":3126:3173  bnbLimitTimestamp[msg.sender] = block.timestamp */\n      dup2\n      swap1\n      sstore\n      pop\n        /* \"contracts/WaxBridge.sol\":3226:3227  0 */\n      0x00\n        /* \"contracts/WaxBridge.sol\":3187:3211  withdrawnBnbDuringPeriod */\n      0x6a\n        /* \"contracts/WaxBridge.sol\":3187:3223  withdrawnBnbDuringPeriod[msg.sender] */\n      0x00\n        /* \"contracts/WaxBridge.sol\":3212:3222  msg.sender */\n      caller\n        /* \"contracts/WaxBridge.sol\":3187:3223  withdrawnBnbDuringPeriod[msg.sender] */\n      0xffffffffffffffffffffffffffffffffffffffff\n      and\n      0xffffffffffffffffffffffffffffffffffffffff\n      and\n      dup2\n      mstore\n      0x20\n      add\n      swap1\n      dup2\n      mstore\n      0x20\n      add\n      0x00\n      keccak256\n        /* \"contracts/WaxBridge.sol\":3187:3227  withdrawnBnbDuringPeriod[msg.sender] = 0 */\n      dup2\n      swap1\n      sstore\n      pop\n        /* \"contracts/WaxBridge.sol\":3045:3238  if(bnbLimitTimestamp[msg.sender] + LIMIT_PERIOD < block.timestamp) {... */\n    tag_123:\n        /* \"contracts/WaxBridge.sol\":3248:3283  uint256 withdrawableBnbDuringPeriod */\n      0x00\n        /* \"contracts/WaxBridge.sol\":3286:3345  bnbLimitPerPeriod.sub(withdrawnBnbDuringPeriod[msg.sender]) */\n      tag_124\n        /* \"contracts/WaxBridge.sol\":3308:3332  withdrawnBnbDuringPeriod */\n      0x6a\n        /* \"contracts/WaxBridge.sol\":3308:3344  withdrawnBnbDuringPeriod[msg.sender] */\n      0x00\n        /* \"contracts/WaxBridge.sol\":3333:3343  msg.sender */\n      caller\n        /* \"contracts/WaxBridge.sol\":3308:3344  withdrawnBnbDuringPeriod[msg.sender] */\n      0xffffffffffffffffffffffffffffffffffffffff\n      and\n      0xffffffffffffffffffffffffffffffffffffffff\n      and\n      dup2\n      mstore\n      0x20\n      add\n      swap1\n      dup2\n      mstore\n      0x20\n      add\n      0x00\n      keccak256\n      sload\n        /* \"contracts/WaxBridge.sol\":3286:3303  bnbLimitPerPeriod */\n      sload(0x67)\n        /* \"contracts/WaxBridge.sol\":3286:3307  bnbLimitPerPeriod.sub */\n      tag_125\n      swap1\n        /* \"contracts/WaxBridge.sol\":3286:3345  bnbLimitPerPeriod.sub(withdrawnBnbDuringPeriod[msg.sender]) */\n      swap2\n      swap1\n      0xffffffff\n      and\n      jump\t// in\n    tag_124:\n        /* \"contracts/WaxBridge.sol\":3248:3345  uint256 withdrawableBnbDuringPeriod = bnbLimitPerPeriod.sub(withdrawnBnbDuringPeriod[msg.sender]) */\n      swap1\n      pop\n        /* \"contracts/WaxBridge.sol\":3356:3373  uint256 bnbToSend */\n      0x00\n        /* \"contracts/WaxBridge.sol\":3376:3386  _maxAmount */\n      dup4\n        /* \"contracts/WaxBridge.sol\":3356:3386  uint256 bnbToSend = _maxAmount */\n      swap1\n      pop\n        /* \"contracts/WaxBridge.sol\":3411:3426  withdrawableBnb */\n      0x69\n        /* \"contracts/WaxBridge.sol\":3411:3438  withdrawableBnb[msg.sender] */\n      0x00\n        /* \"contracts/WaxBridge.sol\":3427:3437  msg.sender */\n      caller\n        /* \"contracts/WaxBridge.sol\":3411:3438  withdrawableBnb[msg.sender] */\n      0xffffffffffffffffffffffffffffffffffffffff\n      and\n      0xffffffffffffffffffffffffffffffffffffffff\n      and\n      dup2\n      mstore\n      0x20\n      add\n      swap1\n      dup2\n      mstore\n      0x20\n      add\n      0x00\n      keccak256\n      sload\n        /* \"contracts/WaxBridge.sol\":3399:3408  bnbToSend */\n      dup2\n        /* \"contracts/WaxBridge.sol\":3399:3438  bnbToSend > withdrawableBnb[msg.sender] */\n      gt\n        /* \"contracts/WaxBridge.sol\":3396:3504  if(bnbToSend > withdrawableBnb[msg.sender]) {... */\n      iszero\n      tag_126\n      jumpi\n        /* \"contracts/WaxBridge.sol\":3466:3481  withdrawableBnb */\n      0x69\n        /* \"contracts/WaxBridge.sol\":3466:3493  withdrawableBnb[msg.sender] */\n      0x00\n        /* \"contracts/WaxBridge.sol\":3482:3492  msg.sender */\n      caller\n        /* \"contracts/WaxBridge.sol\":3466:3493  withdrawableBnb[msg.sender] */\n      0xffffffffffffffffffffffffffffffffffffffff\n      and\n      0xffffffffffffffffffffffffffffffffffffffff\n      and\n      dup2\n      mstore\n      0x20\n      add\n      swap1\n      dup2\n      mstore\n      0x20\n      add\n      0x00\n      keccak256\n      sload\n        /* \"contracts/WaxBridge.sol\":3454:3493  bnbToSend = withdrawableBnb[msg.sender] */\n      swap1\n      pop\n        /* \"contracts/WaxBridge.sol\":3396:3504  if(bnbToSend > withdrawableBnb[msg.sender]) {... */\n    tag_126:\n        /* \"contracts/WaxBridge.sol\":3528:3555  withdrawableBnbDuringPeriod */\n      dup2\n        /* \"contracts/WaxBridge.sol\":3516:3525  bnbToSend */\n      dup2\n        /* \"contracts/WaxBridge.sol\":3516:3555  bnbToSend > withdrawableBnbDuringPeriod */\n      gt\n        /* \"contracts/WaxBridge.sol\":3513:3621  if(bnbToSend > withdrawableBnbDuringPeriod) {... */\n      iszero\n      tag_127\n      jumpi\n        /* \"contracts/WaxBridge.sol\":3583:3610  withdrawableBnbDuringPeriod */\n      dup2\n        /* \"contracts/WaxBridge.sol\":3571:3610  bnbToSend = withdrawableBnbDuringPeriod */\n      swap1\n      pop\n        /* \"contracts/WaxBridge.sol\":3513:3621  if(bnbToSend > withdrawableBnbDuringPeriod) {... */\n    tag_127:\n        /* \"contracts/WaxBridge.sol\":3796:3805  bnbToSend */\n      dup1\n        /* \"contracts/WaxBridge.sol\":3765:3780  withdrawableBnb */\n      0x69\n        /* \"contracts/WaxBridge.sol\":3765:3792  withdrawableBnb[msg.sender] */\n      0x00\n        /* \"contracts/WaxBridge.sol\":3781:3791  msg.sender */\n      caller\n        /* \"contracts/WaxBridge.sol\":3765:3792  withdrawableBnb[msg.sender] */\n      0xffffffffffffffffffffffffffffffffffffffff\n      and\n      0xffffffffffffffffffffffffffffffffffffffff\n      and\n      dup2\n      mstore\n      0x20\n      add\n      swap1\n      dup2\n      mstore\n      0x20\n      add\n      0x00\n      keccak256\n      0x00\n        /* \"contracts/WaxBridge.sol\":3765:3805  withdrawableBnb[msg.sender] -= bnbToSend */\n      dup3\n      dup3\n      sload\n      sub\n      swap3\n      pop\n      pop\n      dup2\n      swap1\n      sstore\n      pop\n        /* \"contracts/WaxBridge.sol\":3831:3840  bnbToSend */\n      dup1\n        /* \"contracts/WaxBridge.sol\":3815:3827  totalOwedBnb */\n      0x66\n      0x00\n        /* \"contracts/WaxBridge.sol\":3815:3840  totalOwedBnb -= bnbToSend */\n      dup3\n      dup3\n      sload\n      sub\n      swap3\n      pop\n      pop\n      dup2\n      swap1\n      sstore\n      pop\n        /* \"contracts/WaxBridge.sol\":3889:3940  withdrawnBnbDuringPeriod[msg.sender].add(bnbToSend) */\n      tag_128\n        /* \"contracts/WaxBridge.sol\":3930:3939  bnbToSend */\n      dup2\n        /* \"contracts/WaxBridge.sol\":3889:3913  withdrawnBnbDuringPeriod */\n      0x6a\n        /* \"contracts/WaxBridge.sol\":3889:3925  withdrawnBnbDuringPeriod[msg.sender] */\n      0x00\n        /* \"contracts/WaxBridge.sol\":3914:3924  msg.sender */\n      caller\n        /* \"contracts/WaxBridge.sol\":3889:3925  withdrawnBnbDuringPeriod[msg.sender] */\n      0xffffffffffffffffffffffffffffffffffffffff\n      and\n      0xffffffffffffffffffffffffffffffffffffffff\n      and\n      dup2\n      mstore\n      0x20\n      add\n      swap1\n      dup2\n      mstore\n      0x20\n      add\n      0x00\n      keccak256\n      sload\n        /* \"contracts/WaxBridge.sol\":3889:3929  withdrawnBnbDuringPeriod[msg.sender].add */\n      tag_129\n      swap1\n        /* \"contracts/WaxBridge.sol\":3889:3940  withdrawnBnbDuringPeriod[msg.sender].add(bnbToSend) */\n      swap2\n      swap1\n      0xffffffff\n      and\n      jump\t// in\n    tag_128:\n        /* \"contracts/WaxBridge.sol\":3850:3874  withdrawnBnbDuringPeriod */\n      0x6a\n        /* \"contracts/WaxBridge.sol\":3850:3886  withdrawnBnbDuringPeriod[msg.sender] */\n      0x00\n        /* \"contracts/WaxBridge.sol\":3875:3885  msg.sender */\n      caller\n        /* \"contracts/WaxBridge.sol\":3850:3886  withdrawnBnbDuringPeriod[msg.sender] */\n      0xffffffffffffffffffffffffffffffffffffffff\n      and\n      0xffffffffffffffffffffffffffffffffffffffff\n      and\n      dup2\n      mstore\n      0x20\n      add\n      swap1\n      dup2\n      mstore\n      0x20\n      add\n      0x00\n      keccak256\n        /* \"contracts/WaxBridge.sol\":3850:3940  withdrawnBnbDuringPeriod[msg.sender] = withdrawnBnbDuringPeriod[msg.sender].add(bnbToSend) */\n      dup2\n      swap1\n      sstore\n      pop\n        /* \"contracts/WaxBridge.sol\":4037:4046  bool sent */\n      0x00\n        /* \"contracts/WaxBridge.sol\":4051:4061  msg.sender */\n      caller\n        /* \"contracts/WaxBridge.sol\":4051:4066  msg.sender.call */\n      0xffffffffffffffffffffffffffffffffffffffff\n      and\n        /* \"contracts/WaxBridge.sol\":4074:4083  bnbToSend */\n      dup3\n        /* \"contracts/WaxBridge.sol\":4051:4088  msg.sender.call{value: bnbToSend}(\"\") */\n      mload(0x40)\n      dup1\n      0x00\n      add\n      swap1\n      pop\n      0x00\n      mload(0x40)\n      dup1\n      dup4\n      sub\n      dup2\n      dup6\n      dup8\n      gas\n      call\n      swap3\n      pop\n      pop\n      pop\n      returndatasize\n      dup1\n      0x00\n      dup2\n      eq\n      tag_132\n      jumpi\n      mload(0x40)\n      swap2\n      pop\n      and(add(returndatasize, 0x3f), not(0x1f))\n      dup3\n      add\n      0x40\n      mstore\n      returndatasize\n      dup3\n      mstore\n      returndatasize\n      0x00\n      0x20\n      dup5\n      add\n      returndatacopy\n      jump(tag_131)\n    tag_132:\n      0x60\n      swap2\n      pop\n    tag_131:\n      pop\n        /* \"contracts/WaxBridge.sol\":4036:4088  (bool sent,) = msg.sender.call{value: bnbToSend}(\"\") */\n      pop\n      swap1\n      pop\n        /* \"contracts/WaxBridge.sol\":4106:4110  sent */\n      dup1\n        /* \"contracts/WaxBridge.sol\":4098:4133  require(sent, \"Failed to send MTR\") */\n      tag_133\n      jumpi\n      mload(0x40)\n      0x08c379a000000000000000000000000000000000000000000000000000000000\n      dup2\n      mstore\n      0x04\n      add\n      dup1\n      dup1\n      0x20\n      add\n      dup3\n      dup2\n      sub\n      dup3\n      mstore\n      0x12\n      dup2\n      mstore\n      0x20\n      add\n      dup1\n      0x4661696c656420746f2073656e64204d54520000000000000000000000000000\n      dup2\n      mstore\n      pop\n      0x20\n      add\n      swap2\n      pop\n      pop\n      mload(0x40)\n      dup1\n      swap2\n      sub\n      swap1\n      revert\n    tag_133:\n        /* \"contracts/WaxBridge.sol\":2970:4140  function withdraw(uint256 _maxAmount) external returns (uint256) {... */\n      pop\n      pop\n      pop\n      swap2\n      swap1\n      pop\n      jump\t// out\n        /* \"@openzeppelin/contracts-upgradeable/access/AccessControlUpgradeable.sol\":5014:5237  function grantRole(bytes32 role, address account) public virtual {... */\n    tag_48:\n        /* \"@openzeppelin/contracts-upgradeable/access/AccessControlUpgradeable.sol\":5097:5142  hasRole(_roles[role].adminRole, _msgSender()) */\n      tag_135\n        /* \"@openzeppelin/contracts-upgradeable/access/AccessControlUpgradeable.sol\":5105:5111  _roles */\n      0x33\n        /* \"@openzeppelin/contracts-upgradeable/access/AccessControlUpgradeable.sol\":5105:5117  _roles[role] */\n      0x00\n        /* \"@openzeppelin/contracts-upgradeable/access/AccessControlUpgradeable.sol\":5112:5116  role */\n      dup5\n        /* \"@openzeppelin/contracts-upgradeable/access/AccessControlUpgradeable.sol\":5105:5117  _roles[role] */\n      dup2\n      mstore\n      0x20\n      add\n      swap1\n      dup2\n      mstore\n      0x20\n      add\n      0x00\n      keccak256\n        /* \"@openzeppelin/contracts-upgradeable/access/AccessControlUpgradeable.sol\":5105:5127  _roles[role].adminRole */\n      0x02\n      add\n      sload\n        /* \"@openzeppelin/contracts-upgradeable/access/AccessControlUpgradeable.sol\":5129:5141  _msgSender() */\n      tag_136\n        /* \"@openzeppelin/contracts-upgradeable/access/AccessControlUpgradeable.sol\":5129:5139  _msgSender */\n      tag_137\n        /* \"@openzeppelin/contracts-upgradeable/access/AccessControlUpgradeable.sol\":5129:5141  _msgSender() */\n      jump\t// in\n    tag_136:\n        /* \"@openzeppelin/contracts-upgradeable/access/AccessControlUpgradeable.sol\":5097:5104  hasRole */\n      tag_31\n        /* \"@openzeppelin/contracts-upgradeable/access/AccessControlUpgradeable.sol\":5097:5142  hasRole(_roles[role].adminRole, _msgSender()) */\n      jump\t// in\n    tag_135:\n        /* \"@openzeppelin/contracts-upgradeable/access/AccessControlUpgradeable.sol\":5089:5194  require(hasRole(_roles[role].adminRole, _msgSender()), \"AccessControl: sender must be an admin to grant\") */\n      tag_138\n      jumpi\n      mload(0x40)\n      0x08c379a000000000000000000000000000000000000000000000000000000000\n      dup2\n      mstore\n      0x04\n      add\n      dup1\n      dup1\n      0x20\n      add\n      dup3\n      dup2\n      sub\n      dup3\n      mstore\n      0x2f\n      dup2\n      mstore\n      0x20\n      add\n      dup1\n      data_0ba7116025f1ef6b158a2bd2238e617f30e17c9e456917d901086ca4f8ad2811\n      0x2f\n      swap2\n      codecopy\n      0x40\n      add\n      swap2\n      pop\n      pop\n      mload(0x40)\n      dup1\n      swap2\n      sub\n      swap1\n      revert\n    tag_138:\n        /* \"@openzeppelin/contracts-upgradeable/access/AccessControlUpgradeable.sol\":5205:5230  _grantRole(role, account) */\n      tag_139\n        /* \"@openzeppelin/contracts-upgradeable/access/AccessControlUpgradeable.sol\":5216:5220  role */\n      dup3\n        /* \"@openzeppelin/contracts-upgradeable/access/AccessControlUpgradeable.sol\":5222:5229  account */\n      dup3\n        /* \"@openzeppelin/contracts-upgradeable/access/AccessControlUpgradeable.sol\":5205:5215  _grantRole */\n      tag_140\n        /* \"@openzeppelin/contracts-upgradeable/access/AccessControlUpgradeable.sol\":5205:5230  _grantRole(role, account) */\n      jump\t// in\n    tag_139:\n        /* \"@openzeppelin/contracts-upgradeable/access/AccessControlUpgradeable.sol\":5014:5237  function grantRole(bytes32 role, address account) public virtual {... */\n      pop\n      pop\n      jump\t// out\n        /* \"contracts/WaxBridge.sol\":1407:1565  function getRemainingWithdrawableBnbDuringPeriod() external view returns(uint256) {... */\n    tag_51:\n        /* \"contracts/WaxBridge.sol\":1480:1487  uint256 */\n      0x00\n        /* \"contracts/WaxBridge.sol\":1506:1558  bnbLimitPerPeriod.sub(getWithdrawnBnbDuringPeriod()) */\n      tag_142\n        /* \"contracts/WaxBridge.sol\":1528:1557  getWithdrawnBnbDuringPeriod() */\n      tag_143\n        /* \"contracts/WaxBridge.sol\":1528:1555  getWithdrawnBnbDuringPeriod */\n      tag_36\n        /* \"contracts/WaxBridge.sol\":1528:1557  getWithdrawnBnbDuringPeriod() */\n      jump\t// in\n    tag_143:\n        /* \"contracts/WaxBridge.sol\":1506:1523  bnbLimitPerPeriod */\n      sload(0x67)\n        /* \"contracts/WaxBridge.sol\":1506:1527  bnbLimitPerPeriod.sub */\n      tag_125\n      swap1\n        /* \"contracts/WaxBridge.sol\":1506:1558  bnbLimitPerPeriod.sub(getWithdrawnBnbDuringPeriod()) */\n      swap2\n      swap1\n      0xffffffff\n      and\n      jump\t// in\n    tag_142:\n        /* \"contracts/WaxBridge.sol\":1499:1558  return bnbLimitPerPeriod.sub(getWithdrawnBnbDuringPeriod()) */\n      swap1\n      pop\n        /* \"contracts/WaxBridge.sol\":1407:1565  function getRemainingWithdrawableBnbDuringPeriod() external view returns(uint256) {... */\n      swap1\n      jump\t// out\n        /* \"@openzeppelin/contracts-upgradeable/access/AccessControlUpgradeable.sol\":6188:6393  function renounceRole(bytes32 role, address account) public virtual {... */\n    tag_55:\n        /* \"@openzeppelin/contracts-upgradeable/access/AccessControlUpgradeable.sol\":6285:6297  _msgSender() */\n      tag_145\n        /* \"@openzeppelin/contracts-upgradeable/access/AccessControlUpgradeable.sol\":6285:6295  _msgSender */\n      tag_137\n        /* \"@openzeppelin/contracts-upgradeable/access/AccessControlUpgradeable.sol\":6285:6297  _msgSender() */\n      jump\t// in\n    tag_145:\n        /* \"@openzeppelin/contracts-upgradeable/access/AccessControlUpgradeable.sol\":6274:6297  account == _msgSender() */\n      0xffffffffffffffffffffffffffffffffffffffff\n      and\n        /* \"@openzeppelin/contracts-upgradeable/access/AccessControlUpgradeable.sol\":6274:6281  account */\n      dup2\n        /* \"@openzeppelin/contracts-upgradeable/access/AccessControlUpgradeable.sol\":6274:6297  account == _msgSender() */\n      0xffffffffffffffffffffffffffffffffffffffff\n      and\n      eq\n        /* \"@openzeppelin/contracts-upgradeable/access/AccessControlUpgradeable.sol\":6266:6349  require(account == _msgSender(), \"AccessControl: can only renounce roles for self\") */\n      tag_146\n      jumpi\n      mload(0x40)\n      0x08c379a000000000000000000000000000000000000000000000000000000000\n      dup2\n      mstore\n      0x04\n      add\n      dup1\n      dup1\n      0x20\n      add\n      dup3\n      dup2\n      sub\n      dup3\n      mstore\n      0x2f\n      dup2\n      mstore\n      0x20\n      add\n      dup1\n      data_fb06fa8ff2141e8ed74502f6792273793f25f0e9d3cf15344f3f5a0d4948fd4b\n      0x2f\n      swap2\n      codecopy\n      0x40\n      add\n      swap2\n      pop\n      pop\n      mload(0x40)\n      dup1\n      swap2\n      sub\n      swap1\n      revert\n    tag_146:\n        /* \"@openzeppelin/contracts-upgradeable/access/AccessControlUpgradeable.sol\":6360:6386  _revokeRole(role, account) */\n      tag_147\n        /* \"@openzeppelin/contracts-upgradeable/access/AccessControlUpgradeable.sol\":6372:6376  role */\n      dup3\n        /* \"@openzeppelin/contracts-upgradeable/access/AccessControlUpgradeable.sol\":6378:6385  account */\n      dup3\n        /* \"@openzeppelin/contracts-upgradeable/access/AccessControlUpgradeable.sol\":6360:6371  _revokeRole */\n      tag_148\n        /* \"@openzeppelin/contracts-upgradeable/access/AccessControlUpgradeable.sol\":6360:6386  _revokeRole(role, account) */\n      jump\t// in\n    tag_147:\n        /* \"@openzeppelin/contracts-upgradeable/access/AccessControlUpgradeable.sol\":6188:6393  function renounceRole(bytes32 role, address account) public virtual {... */\n      pop\n      pop\n      jump\t// out\n        /* \"contracts/WaxBridge.sol\":2019:2964  function processWaxConversions(uint256 _latestWaxChainBlockNumberProcessed, address[] calldata _to, uint256[] calldata _value) external payable {... */\n    tag_64:\n        /* \"contracts/WaxBridge.sol\":2181:2212  hasRole(WAX_BRIDGE, msg.sender) */\n      tag_150\n        /* \"contracts/WaxBridge.sol\":489:512  keccak256(\"WAX_BRIDGE\") */\n      0xfe72e65b38cd2c74f2a337c2f2d56874d5aa101f1d0af36b5452f862ce5a7969\n        /* \"contracts/WaxBridge.sol\":2201:2211  msg.sender */\n      caller\n        /* \"contracts/WaxBridge.sol\":2181:2188  hasRole */\n      tag_31\n        /* \"contracts/WaxBridge.sol\":2181:2212  hasRole(WAX_BRIDGE, msg.sender) */\n      jump\t// in\n    tag_150:\n        /* \"contracts/WaxBridge.sol\":2173:2240  require(hasRole(WAX_BRIDGE, msg.sender), \"Missing WAX_BRIDGE role\") */\n      tag_151\n      jumpi\n      mload(0x40)\n      0x08c379a000000000000000000000000000000000000000000000000000000000\n      dup2\n      mstore\n      0x04\n      add\n      dup1\n      dup1\n      0x20\n      add\n      dup3\n      dup2\n      sub\n      dup3\n      mstore\n      0x17\n      dup2\n      mstore\n      0x20\n      add\n      dup1\n      0x4d697373696e67205741585f42524944474520726f6c65000000000000000000\n      dup2\n      mstore\n      pop\n      0x20\n      add\n      swap2\n      pop\n      pop\n      mload(0x40)\n      dup1\n      swap2\n      sub\n      swap1\n      revert\n    tag_151:\n        /* \"contracts/WaxBridge.sol\":2296:2330  latestWaxChainBlockNumberProcessed */\n      sload(0x65)\n        /* \"contracts/WaxBridge.sol\":2258:2293  _latestWaxChainBlockNumberProcessed */\n      dup6\n        /* \"contracts/WaxBridge.sol\":2258:2330  _latestWaxChainBlockNumberProcessed > latestWaxChainBlockNumberProcessed */\n      gt\n        /* \"contracts/WaxBridge.sol\":2250:2365  require(_latestWaxChainBlockNumberProcessed > latestWaxChainBlockNumberProcessed, \"WAX chain block num must be gt\") */\n      tag_152\n      jumpi\n      mload(0x40)\n      0x08c379a000000000000000000000000000000000000000000000000000000000\n      dup2\n      mstore\n      0x04\n      add\n      dup1\n      dup1\n      0x20\n      add\n      dup3\n      dup2\n      sub\n      dup3\n      mstore\n      0x1e\n      dup2\n      mstore\n      0x20\n      add\n      dup1\n      0x57415820636861696e20626c6f636b206e756d206d7573742062652067740000\n      dup2\n      mstore\n      pop\n      0x20\n      add\n      swap2\n      pop\n      pop\n      mload(0x40)\n      dup1\n      swap2\n      sub\n      swap1\n      revert\n    tag_152:\n        /* \"contracts/WaxBridge.sol\":2397:2403  _value */\n      dup2\n      dup2\n        /* \"contracts/WaxBridge.sol\":2397:2410  _value.length */\n      swap1\n      pop\n        /* \"contracts/WaxBridge.sol\":2383:2386  _to */\n      dup5\n      dup5\n        /* \"contracts/WaxBridge.sol\":2383:2393  _to.length */\n      swap1\n      pop\n        /* \"contracts/WaxBridge.sol\":2383:2410  _to.length == _value.length */\n      eq\n        /* \"contracts/WaxBridge.sol\":2375:2439  require(_to.length == _value.length, \"Mismatched array lengths\") */\n      tag_153\n      jumpi\n      mload(0x40)\n      0x08c379a000000000000000000000000000000000000000000000000000000000\n      dup2\n      mstore\n      0x04\n      add\n      dup1\n      dup1\n      0x20\n      add\n      dup3\n      dup2\n      sub\n      dup3\n      mstore\n      0x18\n      dup2\n      mstore\n      0x20\n      add\n      dup1\n      0x4d69736d617463686564206172726179206c656e677468730000000000000000\n      dup2\n      mstore\n      pop\n      0x20\n      add\n      swap2\n      pop\n      pop\n      mload(0x40)\n      dup1\n      swap2\n      sub\n      swap1\n      revert\n    tag_153:\n        /* \"contracts/WaxBridge.sol\":2470:2474  3000 */\n      0x0bb8\n        /* \"contracts/WaxBridge.sol\":2457:2460  _to */\n      dup5\n      dup5\n        /* \"contracts/WaxBridge.sol\":2457:2467  _to.length */\n      swap1\n      pop\n        /* \"contracts/WaxBridge.sol\":2457:2474  _to.length < 3000 */\n      lt\n        /* \"contracts/WaxBridge.sol\":2449:2498  require(_to.length < 3000, \"Too many recipients\") */\n      tag_154\n      jumpi\n      mload(0x40)\n      0x08c379a000000000000000000000000000000000000000000000000000000000\n      dup2\n      mstore\n      0x04\n      add\n      dup1\n      dup1\n      0x20\n      add\n      dup3\n      dup2\n      sub\n      dup3\n      mstore\n      0x13\n      dup2\n      mstore\n      0x20\n      add\n      dup1\n      0x546f6f206d616e7920726563697069656e747300000000000000000000000000\n      dup2\n      mstore\n      pop\n      0x20\n      add\n      swap2\n      pop\n      pop\n      mload(0x40)\n      dup1\n      swap2\n      sub\n      swap1\n      revert\n    tag_154:\n        /* \"contracts/WaxBridge.sol\":2632:2667  _latestWaxChainBlockNumberProcessed */\n      dup5\n        /* \"contracts/WaxBridge.sol\":2595:2629  latestWaxChainBlockNumberProcessed */\n      0x65\n        /* \"contracts/WaxBridge.sol\":2595:2667  latestWaxChainBlockNumberProcessed = _latestWaxChainBlockNumberProcessed */\n      dup2\n      swap1\n      sstore\n      pop\n        /* \"contracts/WaxBridge.sol\":2678:2699  uint256 _totalOwedBnb */\n      0x00\n        /* \"contracts/WaxBridge.sol\":2718:2727  uint256 i */\n      dup1\n        /* \"contracts/WaxBridge.sol\":2713:2901  for (uint256 i = 0; i < _to.length; i++) {... */\n    tag_155:\n        /* \"contracts/WaxBridge.sol\":2737:2740  _to */\n      dup6\n      dup6\n        /* \"contracts/WaxBridge.sol\":2737:2747  _to.length */\n      swap1\n      pop\n        /* \"contracts/WaxBridge.sol\":2733:2734  i */\n      dup2\n        /* \"contracts/WaxBridge.sol\":2733:2747  i < _to.length */\n      lt\n        /* \"contracts/WaxBridge.sol\":2713:2901  for (uint256 i = 0; i < _to.length; i++) {... */\n      iszero\n      tag_156\n      jumpi\n        /* \"contracts/WaxBridge.sol\":2784:2812  _totalOwedBnb.add(_value[i]) */\n      tag_158\n        /* \"contracts/WaxBridge.sol\":2802:2808  _value */\n      dup5\n      dup5\n        /* \"contracts/WaxBridge.sol\":2809:2810  i */\n      dup4\n        /* \"contracts/WaxBridge.sol\":2802:2811  _value[i] */\n      dup2\n      dup2\n      lt\n      tag_159\n      jumpi\n      invalid\n    tag_159:\n      swap1\n      pop\n      0x20\n      mul\n      add\n      calldataload\n        /* \"contracts/WaxBridge.sol\":2784:2797  _totalOwedBnb */\n      dup4\n        /* \"contracts/WaxBridge.sol\":2784:2801  _totalOwedBnb.add */\n      tag_129\n      swap1\n        /* \"contracts/WaxBridge.sol\":2784:2812  _totalOwedBnb.add(_value[i]) */\n      swap2\n      swap1\n      0xffffffff\n      and\n      jump\t// in\n    tag_158:\n        /* \"contracts/WaxBridge.sol\":2768:2812  _totalOwedBnb = _totalOwedBnb.add(_value[i]) */\n      swap2\n      pop\n        /* \"contracts/WaxBridge.sol\":2852:2890  withdrawableBnb[_to[i]].add(_value[i]) */\n      tag_160\n        /* \"contracts/WaxBridge.sol\":2880:2886  _value */\n      dup5\n      dup5\n        /* \"contracts/WaxBridge.sol\":2887:2888  i */\n      dup4\n        /* \"contracts/WaxBridge.sol\":2880:2889  _value[i] */\n      dup2\n      dup2\n      lt\n      tag_161\n      jumpi\n      invalid\n    tag_161:\n      swap1\n      pop\n      0x20\n      mul\n      add\n      calldataload\n        /* \"contracts/WaxBridge.sol\":2852:2867  withdrawableBnb */\n      0x69\n        /* \"contracts/WaxBridge.sol\":2852:2875  withdrawableBnb[_to[i]] */\n      0x00\n        /* \"contracts/WaxBridge.sol\":2868:2871  _to */\n      dup10\n      dup10\n        /* \"contracts/WaxBridge.sol\":2872:2873  i */\n      dup7\n        /* \"contracts/WaxBridge.sol\":2868:2874  _to[i] */\n      dup2\n      dup2\n      lt\n      tag_162\n      jumpi\n      invalid\n    tag_162:\n      swap1\n      pop\n      0x20\n      mul\n      add\n      calldataload\n      0xffffffffffffffffffffffffffffffffffffffff\n      and\n        /* \"contracts/WaxBridge.sol\":2852:2875  withdrawableBnb[_to[i]] */\n      0xffffffffffffffffffffffffffffffffffffffff\n      and\n      0xffffffffffffffffffffffffffffffffffffffff\n      and\n      dup2\n      mstore\n      0x20\n      add\n      swap1\n      dup2\n      mstore\n      0x20\n      add\n      0x00\n      keccak256\n      sload\n        /* \"contracts/WaxBridge.sol\":2852:2879  withdrawableBnb[_to[i]].add */\n      tag_129\n      swap1\n        /* \"contracts/WaxBridge.sol\":2852:2890  withdrawableBnb[_to[i]].add(_value[i]) */\n      swap2\n      swap1\n      0xffffffff\n      and\n      jump\t// in\n    tag_160:\n        /* \"contracts/WaxBridge.sol\":2826:2841  withdrawableBnb */\n      0x69\n        /* \"contracts/WaxBridge.sol\":2826:2849  withdrawableBnb[_to[i]] */\n      0x00\n        /* \"contracts/WaxBridge.sol\":2842:2845  _to */\n      dup9\n      dup9\n        /* \"contracts/WaxBridge.sol\":2846:2847  i */\n      dup6\n        /* \"contracts/WaxBridge.sol\":2842:2848  _to[i] */\n      dup2\n      dup2\n      lt\n      tag_163\n      jumpi\n      invalid\n    tag_163:\n      swap1\n      pop\n      0x20\n      mul\n      add\n      calldataload\n      0xffffffffffffffffffffffffffffffffffffffff\n      and\n        /* \"contracts/WaxBridge.sol\":2826:2849  withdrawableBnb[_to[i]] */\n      0xffffffffffffffffffffffffffffffffffffffff\n      and\n      0xffffffffffffffffffffffffffffffffffffffff\n      and\n      dup2\n      mstore\n      0x20\n      add\n      swap1\n      dup2\n      mstore\n      0x20\n      add\n      0x00\n      keccak256\n        /* \"contracts/WaxBridge.sol\":2826:2890  withdrawableBnb[_to[i]] = withdrawableBnb[_to[i]].add(_value[i]) */\n      dup2\n      swap1\n      sstore\n      pop\n        /* \"contracts/WaxBridge.sol\":2749:2752  i++ */\n      dup1\n      dup1\n      0x01\n      add\n      swap2\n      pop\n      pop\n        /* \"contracts/WaxBridge.sol\":2713:2901  for (uint256 i = 0; i < _to.length; i++) {... */\n      jump(tag_155)\n    tag_156:\n      pop\n        /* \"contracts/WaxBridge.sol\":2926:2957  totalOwedBnb.add(_totalOwedBnb) */\n      tag_164\n        /* \"contracts/WaxBridge.sol\":2943:2956  _totalOwedBnb */\n      dup2\n        /* \"contracts/WaxBridge.sol\":2926:2938  totalOwedBnb */\n      sload(0x66)\n        /* \"contracts/WaxBridge.sol\":2926:2942  totalOwedBnb.add */\n      tag_129\n      swap1\n        /* \"contracts/WaxBridge.sol\":2926:2957  totalOwedBnb.add(_totalOwedBnb) */\n      swap2\n      swap1\n      0xffffffff\n      and\n      jump\t// in\n    tag_164:\n        /* \"contracts/WaxBridge.sol\":2911:2923  totalOwedBnb */\n      0x66\n        /* \"contracts/WaxBridge.sol\":2911:2957  totalOwedBnb = totalOwedBnb.add(_totalOwedBnb) */\n      dup2\n      swap1\n      sstore\n      pop\n        /* \"contracts/WaxBridge.sol\":2019:2964  function processWaxConversions(uint256 _latestWaxChainBlockNumberProcessed, address[] calldata _to, uint256[] calldata _value) external payable {... */\n      pop\n      pop\n      pop\n      pop\n      pop\n      pop\n      jump\t// out\n        /* \"contracts/WaxBridge.sol\":1832:1962  function setDailyBnbWeiLimit(uint256 _dailyBnbWeiLimit) external restricted {... */\n    tag_68:\n        /* \"contracts/WaxBridge.sol\":4186:4225  hasRole(DEFAULT_ADMIN_ROLE, msg.sender) */\n      tag_166\n        /* \"@openzeppelin/contracts-upgradeable/access/AccessControlUpgradeable.sol\":2142:2146  0x00 */\n      0x00\n        /* \"contracts/WaxBridge.sol\":4194:4212  DEFAULT_ADMIN_ROLE */\n      dup1\n      shl\n        /* \"contracts/WaxBridge.sol\":4214:4224  msg.sender */\n      caller\n        /* \"contracts/WaxBridge.sol\":4186:4193  hasRole */\n      tag_31\n        /* \"contracts/WaxBridge.sol\":4186:4225  hasRole(DEFAULT_ADMIN_ROLE, msg.sender) */\n      jump\t// in\n    tag_166:\n        /* \"contracts/WaxBridge.sol\":4178:4261  require(hasRole(DEFAULT_ADMIN_ROLE, msg.sender), \"Missing DEFAULT_ADMIN_ROLE role\") */\n      tag_167\n      jumpi\n      mload(0x40)\n      0x08c379a000000000000000000000000000000000000000000000000000000000\n      dup2\n      mstore\n      0x04\n      add\n      dup1\n      dup1\n      0x20\n      add\n      dup3\n      dup2\n      sub\n      dup3\n      mstore\n      0x1f\n      dup2\n      mstore\n      0x20\n      add\n      dup1\n      0x4d697373696e672044454641554c545f41444d494e5f524f4c4520726f6c6500\n      dup2\n      mstore\n      pop\n      0x20\n      add\n      swap2\n      pop\n      pop\n      mload(0x40)\n      dup1\n      swap2\n      sub\n      swap1\n      revert\n    tag_167:\n        /* \"contracts/WaxBridge.sol\":1938:1955  _dailyBnbWeiLimit */\n      dup1\n        /* \"contracts/WaxBridge.sol\":1918:1935  bnbLimitPerPeriod */\n      0x67\n        /* \"contracts/WaxBridge.sol\":1918:1955  bnbLimitPerPeriod = _dailyBnbWeiLimit */\n      dup2\n      swap1\n      sstore\n      pop\n        /* \"contracts/WaxBridge.sol\":1832:1962  function setDailyBnbWeiLimit(uint256 _dailyBnbWeiLimit) external restricted {... */\n      pop\n      jump\t// out\n        /* \"contracts/WaxBridge.sol\":1039:1089  mapping(address => uint256) public withdrawableBnb */\n    tag_72:\n      mstore(0x20, 0x69)\n      dup1\n      0x00\n      mstore\n      keccak256(0x00, 0x40)\n      0x00\n      swap2\n      pop\n      swap1\n      pop\n      sload\n      dup2\n      jump\t// out\n        /* \"contracts/WaxBridge.sol\":519:564  uint256 public constant LIMIT_PERIOD = 1 days */\n    tag_75:\n        /* \"contracts/WaxBridge.sol\":558:564  1 days */\n      0x015180\n        /* \"contracts/WaxBridge.sol\":519:564  uint256 public constant LIMIT_PERIOD = 1 days */\n      dup2\n      jump\t// out\n        /* \"contracts/WaxBridge.sol\":452:512  bytes32 public constant WAX_BRIDGE = keccak256(\"WAX_BRIDGE\") */\n    tag_78:\n        /* \"contracts/WaxBridge.sol\":489:512  keccak256(\"WAX_BRIDGE\") */\n      0xfe72e65b38cd2c74f2a337c2f2d56874d5aa101f1d0af36b5452f862ce5a7969\n        /* \"contracts/WaxBridge.sol\":452:512  bytes32 public constant WAX_BRIDGE = keccak256(\"WAX_BRIDGE\") */\n      dup2\n      jump\t// out\n        /* \"contracts/WaxBridge.sol\":1571:1826  function getTimeUntilLimitExpires() external view returns(uint256) {... */\n    tag_81:\n        /* \"contracts/WaxBridge.sol\":1629:1636  uint256 */\n      0x00\n        /* \"contracts/WaxBridge.sol\":1648:1675  uint256 limitExpirationTime */\n      dup1\n        /* \"contracts/WaxBridge.sol\":558:564  1 days */\n      0x015180\n        /* \"contracts/WaxBridge.sol\":1678:1695  bnbLimitTimestamp */\n      0x68\n        /* \"contracts/WaxBridge.sol\":1678:1707  bnbLimitTimestamp[msg.sender] */\n      0x00\n        /* \"contracts/WaxBridge.sol\":1696:1706  msg.sender */\n      caller\n        /* \"contracts/WaxBridge.sol\":1678:1707  bnbLimitTimestamp[msg.sender] */\n      0xffffffffffffffffffffffffffffffffffffffff\n      and\n      0xffffffffffffffffffffffffffffffffffffffff\n      and\n      dup2\n      mstore\n      0x20\n      add\n      swap1\n      dup2\n      mstore\n      0x20\n      add\n      0x00\n      keccak256\n      sload\n        /* \"contracts/WaxBridge.sol\":1678:1722  bnbLimitTimestamp[msg.sender] + LIMIT_PERIOD */\n      add\n        /* \"contracts/WaxBridge.sol\":1648:1722  uint256 limitExpirationTime = bnbLimitTimestamp[msg.sender] + LIMIT_PERIOD */\n      swap1\n      pop\n        /* \"contracts/WaxBridge.sol\":1735:1749  uint256 result */\n      0x00\n        /* \"contracts/WaxBridge.sol\":1753:1796  limitExpirationTime.trySub(block.timestamp) */\n      tag_170\n        /* \"contracts/WaxBridge.sol\":1780:1795  block.timestamp */\n      timestamp\n        /* \"contracts/WaxBridge.sol\":1753:1772  limitExpirationTime */\n      dup4\n        /* \"contracts/WaxBridge.sol\":1753:1779  limitExpirationTime.trySub */\n      tag_171\n      swap1\n        /* \"contracts/WaxBridge.sol\":1753:1796  limitExpirationTime.trySub(block.timestamp) */\n      swap2\n      swap1\n      0xffffffff\n      and\n      jump\t// in\n    tag_170:\n        /* \"contracts/WaxBridge.sol\":1732:1796  (, uint256 result) = limitExpirationTime.trySub(block.timestamp) */\n      swap2\n      pop\n      pop\n        /* \"contracts/WaxBridge.sol\":1813:1819  result */\n      dup1\n        /* \"contracts/WaxBridge.sol\":1806:1819  return result */\n      swap3\n      pop\n      pop\n      pop\n        /* \"contracts/WaxBridge.sol\":1571:1826  function getTimeUntilLimitExpires() external view returns(uint256) {... */\n      swap1\n      jump\t// out\n        /* \"contracts/WaxBridge.sol\":571:849  function initialize() public initializer {... */\n    tag_84:\n        /* \"@openzeppelin/contracts-upgradeable/proxy/Initializable.sol\":1512:1525  _initializing */\n      0x00\n      0x01\n      swap1\n      sload\n      swap1\n      0x0100\n      exp\n      swap1\n      div\n      0xff\n      and\n        /* \"@openzeppelin/contracts-upgradeable/proxy/Initializable.sol\":1512:1545  _initializing || _isConstructor() */\n      dup1\n      tag_173\n      jumpi\n      pop\n        /* \"@openzeppelin/contracts-upgradeable/proxy/Initializable.sol\":1529:1545  _isConstructor() */\n      tag_174\n        /* \"@openzeppelin/contracts-upgradeable/proxy/Initializable.sol\":1529:1543  _isConstructor */\n      tag_175\n        /* \"@openzeppelin/contracts-upgradeable/proxy/Initializable.sol\":1529:1545  _isConstructor() */\n      jump\t// in\n    tag_174:\n        /* \"@openzeppelin/contracts-upgradeable/proxy/Initializable.sol\":1512:1545  _initializing || _isConstructor() */\n    tag_173:\n        /* \"@openzeppelin/contracts-upgradeable/proxy/Initializable.sol\":1512:1562  _initializing || _isConstructor() || !_initialized */\n      dup1\n      tag_176\n      jumpi\n      pop\n        /* \"@openzeppelin/contracts-upgradeable/proxy/Initializable.sol\":1550:1562  _initialized */\n      0x00\n      dup1\n      sload\n      swap1\n      0x0100\n      exp\n      swap1\n      div\n      0xff\n      and\n        /* \"@openzeppelin/contracts-upgradeable/proxy/Initializable.sol\":1549:1562  !_initialized */\n      iszero\n        /* \"@openzeppelin/contracts-upgradeable/proxy/Initializable.sol\":1512:1562  _initializing || _isConstructor() || !_initialized */\n    tag_176:\n        /* \"@openzeppelin/contracts-upgradeable/proxy/Initializable.sol\":1504:1613  require(_initializing || _isConstructor() || !_initialized, \"Initializable: contract is already initialized\") */\n      tag_177\n      jumpi\n      mload(0x40)\n      0x08c379a000000000000000000000000000000000000000000000000000000000\n      dup2\n      mstore\n      0x04\n      add\n      dup1\n      dup1\n      0x20\n      add\n      dup3\n      dup2\n      sub\n      dup3\n      mstore\n      0x2e\n      dup2\n      mstore\n      0x20\n      add\n      dup1\n      data_7a2a4e26842155ea933fe6eb6e3137eb5a296dcdf55721c552be7b4c3cc23759\n      0x2e\n      swap2\n      codecopy\n      0x40\n      add\n      swap2\n      pop\n      pop\n      mload(0x40)\n      dup1\n      swap2\n      sub\n      swap1\n      revert\n    tag_177:\n        /* \"@openzeppelin/contracts-upgradeable/proxy/Initializable.sol\":1624:1643  bool isTopLevelCall */\n      0x00\n        /* \"@openzeppelin/contracts-upgradeable/proxy/Initializable.sol\":1647:1660  _initializing */\n      dup1\n      0x01\n      swap1\n      sload\n      swap1\n      0x0100\n      exp\n      swap1\n      div\n      0xff\n      and\n        /* \"@openzeppelin/contracts-upgradeable/proxy/Initializable.sol\":1646:1660  !_initializing */\n      iszero\n        /* \"@openzeppelin/contracts-upgradeable/proxy/Initializable.sol\":1624:1660  bool isTopLevelCall = !_initializing */\n      swap1\n      pop\n        /* \"@openzeppelin/contracts-upgradeable/proxy/Initializable.sol\":1674:1688  isTopLevelCall */\n      dup1\n        /* \"@openzeppelin/contracts-upgradeable/proxy/Initializable.sol\":1670:1768  if (isTopLevelCall) {... */\n      iszero\n      tag_178\n      jumpi\n        /* \"@openzeppelin/contracts-upgradeable/proxy/Initializable.sol\":1720:1724  true */\n      0x01\n        /* \"@openzeppelin/contracts-upgradeable/proxy/Initializable.sol\":1704:1717  _initializing */\n      0x00\n      0x01\n        /* \"@openzeppelin/contracts-upgradeable/proxy/Initializable.sol\":1704:1724  _initializing = true */\n      0x0100\n      exp\n      dup2\n      sload\n      dup2\n      0xff\n      mul\n      not\n      and\n      swap1\n      dup4\n      iszero\n      iszero\n      mul\n      or\n      swap1\n      sstore\n      pop\n        /* \"@openzeppelin/contracts-upgradeable/proxy/Initializable.sol\":1753:1757  true */\n      0x01\n        /* \"@openzeppelin/contracts-upgradeable/proxy/Initializable.sol\":1738:1750  _initialized */\n      0x00\n      dup1\n        /* \"@openzeppelin/contracts-upgradeable/proxy/Initializable.sol\":1738:1757  _initialized = true */\n      0x0100\n      exp\n      dup2\n      sload\n      dup2\n      0xff\n      mul\n      not\n      and\n      swap1\n      dup4\n      iszero\n      iszero\n      mul\n      or\n      swap1\n      sstore\n      pop\n        /* \"@openzeppelin/contracts-upgradeable/proxy/Initializable.sol\":1670:1768  if (isTopLevelCall) {... */\n    tag_178:\n        /* \"contracts/WaxBridge.sol\":622:644  __AccessControl_init() */\n      tag_180\n        /* \"contracts/WaxBridge.sol\":622:642  __AccessControl_init */\n      tag_181\n        /* \"contracts/WaxBridge.sol\":622:644  __AccessControl_init() */\n      jump\t// in\n    tag_180:\n        /* \"contracts/WaxBridge.sol\":655:697  _setupRole(DEFAULT_ADMIN_ROLE, msg.sender) */\n      tag_182\n        /* \"@openzeppelin/contracts-upgradeable/access/AccessControlUpgradeable.sol\":2142:2146  0x00 */\n      0x00\n        /* \"contracts/WaxBridge.sol\":666:684  DEFAULT_ADMIN_ROLE */\n      dup1\n      shl\n        /* \"contracts/WaxBridge.sol\":686:696  msg.sender */\n      caller\n        /* \"contracts/WaxBridge.sol\":655:665  _setupRole */\n      tag_183\n        /* \"contracts/WaxBridge.sol\":655:697  _setupRole(DEFAULT_ADMIN_ROLE, msg.sender) */\n      jump\t// in\n    tag_182:\n        /* \"contracts/WaxBridge.sol\":745:746  0 */\n      0x00\n        /* \"contracts/WaxBridge.sol\":708:742  latestWaxChainBlockNumberProcessed */\n      0x65\n        /* \"contracts/WaxBridge.sol\":708:746  latestWaxChainBlockNumberProcessed = 0 */\n      dup2\n      swap1\n      sstore\n      pop\n        /* \"contracts/WaxBridge.sol\":771:772  0 */\n      0x00\n        /* \"contracts/WaxBridge.sol\":756:768  totalOwedBnb */\n      0x66\n        /* \"contracts/WaxBridge.sol\":756:772  totalOwedBnb = 0 */\n      dup2\n      swap1\n      sstore\n      pop\n        /* \"contracts/WaxBridge.sol\":802:819  35779455436688300 */\n      0x7f1d39a38f8bac\n        /* \"contracts/WaxBridge.sol\":782:799  bnbLimitPerPeriod */\n      0x67\n        /* \"contracts/WaxBridge.sol\":782:819  bnbLimitPerPeriod = 35779455436688300 */\n      dup2\n      swap1\n      sstore\n      pop\n        /* \"@openzeppelin/contracts-upgradeable/proxy/Initializable.sol\":1794:1808  isTopLevelCall */\n      dup1\n        /* \"@openzeppelin/contracts-upgradeable/proxy/Initializable.sol\":1790:1856  if (isTopLevelCall) {... */\n      iszero\n      tag_184\n      jumpi\n        /* \"@openzeppelin/contracts-upgradeable/proxy/Initializable.sol\":1840:1845  false */\n      0x00\n        /* \"@openzeppelin/contracts-upgradeable/proxy/Initializable.sol\":1824:1837  _initializing */\n      dup1\n      0x01\n        /* \"@openzeppelin/contracts-upgradeable/proxy/Initializable.sol\":1824:1845  _initializing = false */\n      0x0100\n      exp\n      dup2\n      sload\n      dup2\n      0xff\n      mul\n      not\n      and\n      swap1\n      dup4\n      iszero\n      iszero\n      mul\n      or\n      swap1\n      sstore\n      pop\n        /* \"@openzeppelin/contracts-upgradeable/proxy/Initializable.sol\":1790:1856  if (isTopLevelCall) {... */\n    tag_184:\n        /* \"contracts/WaxBridge.sol\":571:849  function initialize() public initializer {... */\n      pop\n      jump\t// out\n        /* \"@openzeppelin/contracts-upgradeable/access/AccessControlUpgradeable.sol\":4335:4471  function getRoleMember(bytes32 role, uint256 index) public view returns (address) {... */\n    tag_88:\n        /* \"@openzeppelin/contracts-upgradeable/access/AccessControlUpgradeable.sol\":4408:4415  address */\n      0x00\n        /* \"@openzeppelin/contracts-upgradeable/access/AccessControlUpgradeable.sol\":4434:4464  _roles[role].members.at(index) */\n      tag_186\n        /* \"@openzeppelin/contracts-upgradeable/access/AccessControlUpgradeable.sol\":4458:4463  index */\n      dup3\n        /* \"@openzeppelin/contracts-upgradeable/access/AccessControlUpgradeable.sol\":4434:4440  _roles */\n      0x33\n        /* \"@openzeppelin/contracts-upgradeable/access/AccessControlUpgradeable.sol\":4434:4446  _roles[role] */\n      0x00\n        /* \"@openzeppelin/contracts-upgradeable/access/AccessControlUpgradeable.sol\":4441:4445  role */\n      dup7\n        /* \"@openzeppelin/contracts-upgradeable/access/AccessControlUpgradeable.sol\":4434:4446  _roles[role] */\n      dup2\n      mstore\n      0x20\n      add\n      swap1\n      dup2\n      mstore\n      0x20\n      add\n      0x00\n      keccak256\n        /* \"@openzeppelin/contracts-upgradeable/access/AccessControlUpgradeable.sol\":4434:4454  _roles[role].members */\n      0x00\n      add\n        /* \"@openzeppelin/contracts-upgradeable/access/AccessControlUpgradeable.sol\":4434:4457  _roles[role].members.at */\n      tag_187\n      swap1\n        /* \"@openzeppelin/contracts-upgradeable/access/AccessControlUpgradeable.sol\":4434:4464  _roles[role].members.at(index) */\n      swap2\n      swap1\n      0xffffffff\n      and\n      jump\t// in\n    tag_186:\n        /* \"@openzeppelin/contracts-upgradeable/access/AccessControlUpgradeable.sol\":4427:4464  return _roles[role].members.at(index) */\n      swap1\n      pop\n        /* \"@openzeppelin/contracts-upgradeable/access/AccessControlUpgradeable.sol\":4335:4471  function getRoleMember(bytes32 role, uint256 index) public view returns (address) {... */\n      swap3\n      swap2\n      pop\n      pop\n      jump\t// out\n        /* \"contracts/WaxBridge.sol\":855:904  uint256 public latestWaxChainBlockNumberProcessed */\n    tag_94:\n      sload(0x65)\n      dup2\n      jump\t// out\n        /* \"contracts/WaxBridge.sol\":910:937  uint256 public totalOwedBnb */\n    tag_97:\n      sload(0x66)\n      dup2\n      jump\t// out\n        /* \"@openzeppelin/contracts-upgradeable/access/AccessControlUpgradeable.sol\":2097:2146  bytes32 public constant DEFAULT_ADMIN_ROLE = 0x00 */\n    tag_100:\n        /* \"@openzeppelin/contracts-upgradeable/access/AccessControlUpgradeable.sol\":2142:2146  0x00 */\n      0x00\n        /* \"@openzeppelin/contracts-upgradeable/access/AccessControlUpgradeable.sol\":2097:2146  bytes32 public constant DEFAULT_ADMIN_ROLE = 0x00 */\n      dup1\n      shl\n      dup2\n      jump\t// out\n        /* \"contracts/WaxBridge.sol\":981:1033  mapping(address => uint256) public bnbLimitTimestamp */\n    tag_104:\n      mstore(0x20, 0x68)\n      dup1\n      0x00\n      mstore\n      keccak256(0x00, 0x40)\n      0x00\n      swap2\n      pop\n      swap1\n      pop\n      sload\n      dup2\n      jump\t// out\n        /* \"@openzeppelin/contracts-upgradeable/access/AccessControlUpgradeable.sol\":3625:3750  function getRoleMemberCount(bytes32 role) public view returns (uint256) {... */\n    tag_108:\n        /* \"@openzeppelin/contracts-upgradeable/access/AccessControlUpgradeable.sol\":3688:3695  uint256 */\n      0x00\n        /* \"@openzeppelin/contracts-upgradeable/access/AccessControlUpgradeable.sol\":3714:3743  _roles[role].members.length() */\n      tag_189\n        /* \"@openzeppelin/contracts-upgradeable/access/AccessControlUpgradeable.sol\":3714:3720  _roles */\n      0x33\n        /* \"@openzeppelin/contracts-upgradeable/access/AccessControlUpgradeable.sol\":3714:3726  _roles[role] */\n      0x00\n        /* \"@openzeppelin/contracts-upgradeable/access/AccessControlUpgradeable.sol\":3721:3725  role */\n      dup5\n        /* \"@openzeppelin/contracts-upgradeable/access/AccessControlUpgradeable.sol\":3714:3726  _roles[role] */\n      dup2\n      mstore\n      0x20\n      add\n      swap1\n      dup2\n      mstore\n      0x20\n      add\n      0x00\n      keccak256\n        /* \"@openzeppelin/contracts-upgradeable/access/AccessControlUpgradeable.sol\":3714:3734  _roles[role].members */\n      0x00\n      add\n        /* \"@openzeppelin/contracts-upgradeable/access/AccessControlUpgradeable.sol\":3714:3741  _roles[role].members.length */\n      tag_190\n        /* \"@openzeppelin/contracts-upgradeable/access/AccessControlUpgradeable.sol\":3714:3743  _roles[role].members.length() */\n      jump\t// in\n    tag_189:\n        /* \"@openzeppelin/contracts-upgradeable/access/AccessControlUpgradeable.sol\":3707:3743  return _roles[role].members.length() */\n      swap1\n      pop\n        /* \"@openzeppelin/contracts-upgradeable/access/AccessControlUpgradeable.sol\":3625:3750  function getRoleMemberCount(bytes32 role) public view returns (uint256) {... */\n      swap2\n      swap1\n      pop\n      jump\t// out\n        /* \"@openzeppelin/contracts-upgradeable/access/AccessControlUpgradeable.sol\":5471:5697  function revokeRole(bytes32 role, address account) public virtual {... */\n    tag_112:\n        /* \"@openzeppelin/contracts-upgradeable/access/AccessControlUpgradeable.sol\":5555:5600  hasRole(_roles[role].adminRole, _msgSender()) */\n      tag_192\n        /* \"@openzeppelin/contracts-upgradeable/access/AccessControlUpgradeable.sol\":5563:5569  _roles */\n      0x33\n        /* \"@openzeppelin/contracts-upgradeable/access/AccessControlUpgradeable.sol\":5563:5575  _roles[role] */\n      0x00\n        /* \"@openzeppelin/contracts-upgradeable/access/AccessControlUpgradeable.sol\":5570:5574  role */\n      dup5\n        /* \"@openzeppelin/contracts-upgradeable/access/AccessControlUpgradeable.sol\":5563:5575  _roles[role] */\n      dup2\n      mstore\n      0x20\n      add\n      swap1\n      dup2\n      mstore\n      0x20\n      add\n      0x00\n      keccak256\n        /* \"@openzeppelin/contracts-upgradeable/access/AccessControlUpgradeable.sol\":5563:5585  _roles[role].adminRole */\n      0x02\n      add\n      sload\n        /* \"@openzeppelin/contracts-upgradeable/access/AccessControlUpgradeable.sol\":5587:5599  _msgSender() */\n      tag_193\n        /* \"@openzeppelin/contracts-upgradeable/access/AccessControlUpgradeable.sol\":5587:5597  _msgSender */\n      tag_137\n        /* \"@openzeppelin/contracts-upgradeable/access/AccessControlUpgradeable.sol\":5587:5599  _msgSender() */\n      jump\t// in\n    tag_193:\n        /* \"@openzeppelin/contracts-upgradeable/access/AccessControlUpgradeable.sol\":5555:5562  hasRole */\n      tag_31\n        /* \"@openzeppelin/contracts-upgradeable/access/AccessControlUpgradeable.sol\":5555:5600  hasRole(_roles[role].adminRole, _msgSender()) */\n      jump\t// in\n    tag_192:\n        /* \"@openzeppelin/contracts-upgradeable/access/AccessControlUpgradeable.sol\":5547:5653  require(hasRole(_roles[role].adminRole, _msgSender()), \"AccessControl: sender must be an admin to revoke\") */\n      tag_194\n      jumpi\n      mload(0x40)\n      0x08c379a000000000000000000000000000000000000000000000000000000000\n      dup2\n      mstore\n      0x04\n      add\n      dup1\n      dup1\n      0x20\n      add\n      dup3\n      dup2\n      sub\n      dup3\n      mstore\n      0x30\n      dup2\n      mstore\n      0x20\n      add\n      dup1\n      data_64344570eab7406ca49d34d38bf2b2496dfda914405390c5057c8b0aabf798a3\n      0x30\n      swap2\n      codecopy\n      0x40\n      add\n      swap2\n      pop\n      pop\n      mload(0x40)\n      dup1\n      swap2\n      sub\n      swap1\n      revert\n    tag_194:\n        /* \"@openzeppelin/contracts-upgradeable/access/AccessControlUpgradeable.sol\":5664:5690  _revokeRole(role, account) */\n      tag_195\n        /* \"@openzeppelin/contracts-upgradeable/access/AccessControlUpgradeable.sol\":5676:5680  role */\n      dup3\n        /* \"@openzeppelin/contracts-upgradeable/access/AccessControlUpgradeable.sol\":5682:5689  account */\n      dup3\n        /* \"@openzeppelin/contracts-upgradeable/access/AccessControlUpgradeable.sol\":5664:5675  _revokeRole */\n      tag_148\n        /* \"@openzeppelin/contracts-upgradeable/access/AccessControlUpgradeable.sol\":5664:5690  _revokeRole(role, account) */\n      jump\t// in\n    tag_195:\n        /* \"@openzeppelin/contracts-upgradeable/access/AccessControlUpgradeable.sol\":5471:5697  function revokeRole(bytes32 role, address account) public virtual {... */\n      pop\n      pop\n      jump\t// out\n        /* \"contracts/WaxBridge.sol\":943:975  uint256 public bnbLimitPerPeriod */\n    tag_115:\n      sload(0x67)\n      dup2\n      jump\t// out\n        /* \"@openzeppelin/contracts-upgradeable/utils/EnumerableSetUpgradeable.sol\":6995:7160  function contains(AddressSet storage set, address value) internal view returns (bool) {... */\n    tag_118:\n        /* \"@openzeppelin/contracts-upgradeable/utils/EnumerableSetUpgradeable.sol\":7075:7079  bool */\n      0x00\n        /* \"@openzeppelin/contracts-upgradeable/utils/EnumerableSetUpgradeable.sol\":7098:7153  _contains(set._inner, bytes32(uint256(uint160(value)))) */\n      tag_197\n        /* \"@openzeppelin/contracts-upgradeable/utils/EnumerableSetUpgradeable.sol\":7108:7111  set */\n      dup4\n        /* \"@openzeppelin/contracts-upgradeable/utils/EnumerableSetUpgradeable.sol\":7108:7118  set._inner */\n      0x00\n      add\n        /* \"@openzeppelin/contracts-upgradeable/utils/EnumerableSetUpgradeable.sol\":7144:7149  value */\n      dup4\n        /* \"@openzeppelin/contracts-upgradeable/utils/EnumerableSetUpgradeable.sol\":7128:7151  uint256(uint160(value)) */\n      0xffffffffffffffffffffffffffffffffffffffff\n      and\n        /* \"@openzeppelin/contracts-upgradeable/utils/EnumerableSetUpgradeable.sol\":7120:7152  bytes32(uint256(uint160(value))) */\n      0x00\n      shl\n        /* \"@openzeppelin/contracts-upgradeable/utils/EnumerableSetUpgradeable.sol\":7098:7107  _contains */\n      tag_198\n        /* \"@openzeppelin/contracts-upgradeable/utils/EnumerableSetUpgradeable.sol\":7098:7153  _contains(set._inner, bytes32(uint256(uint160(value)))) */\n      jump\t// in\n    tag_197:\n        /* \"@openzeppelin/contracts-upgradeable/utils/EnumerableSetUpgradeable.sol\":7091:7153  return _contains(set._inner, bytes32(uint256(uint160(value)))) */\n      swap1\n      pop\n        /* \"@openzeppelin/contracts-upgradeable/utils/EnumerableSetUpgradeable.sol\":6995:7160  function contains(AddressSet storage set, address value) internal view returns (bool) {... */\n      swap3\n      swap2\n      pop\n      pop\n      jump\t// out\n        /* \"node_modules/@openzeppelin/contracts/math/SafeMath.sol\":3136:3291  function sub(uint256 a, uint256 b) internal pure returns (uint256) {... */\n    tag_125:\n        /* \"node_modules/@openzeppelin/contracts/math/SafeMath.sol\":3194:3201  uint256 */\n      0x00\n        /* \"node_modules/@openzeppelin/contracts/math/SafeMath.sol\":3226:3227  a */\n      dup3\n        /* \"node_modules/@openzeppelin/contracts/math/SafeMath.sol\":3221:3222  b */\n      dup3\n        /* \"node_modules/@openzeppelin/contracts/math/SafeMath.sol\":3221:3227  b <= a */\n      gt\n      iszero\n        /* \"node_modules/@openzeppelin/contracts/math/SafeMath.sol\":3213:3262  require(b <= a, \"SafeMath: subtraction overflow\") */\n      tag_200\n      jumpi\n      mload(0x40)\n      0x08c379a000000000000000000000000000000000000000000000000000000000\n      dup2\n      mstore\n      0x04\n      add\n      dup1\n      dup1\n      0x20\n      add\n      dup3\n      dup2\n      sub\n      dup3\n      mstore\n      0x1e\n      dup2\n      mstore\n      0x20\n      add\n      dup1\n      0x536166654d6174683a207375627472616374696f6e206f766572666c6f770000\n      dup2\n      mstore\n      pop\n      0x20\n      add\n      swap2\n      pop\n      pop\n      mload(0x40)\n      dup1\n      swap2\n      sub\n      swap1\n      revert\n    tag_200:\n        /* \"node_modules/@openzeppelin/contracts/math/SafeMath.sol\":3283:3284  b */\n      dup2\n        /* \"node_modules/@openzeppelin/contracts/math/SafeMath.sol\":3279:3280  a */\n      dup4\n        /* \"node_modules/@openzeppelin/contracts/math/SafeMath.sol\":3279:3284  a - b */\n      sub\n        /* \"node_modules/@openzeppelin/contracts/math/SafeMath.sol\":3272:3284  return a - b */\n      swap1\n      pop\n        /* \"node_modules/@openzeppelin/contracts/math/SafeMath.sol\":3136:3291  function sub(uint256 a, uint256 b) internal pure returns (uint256) {... */\n      swap3\n      swap2\n      pop\n      pop\n      jump\t// out\n        /* \"node_modules/@openzeppelin/contracts/math/SafeMath.sol\":2690:2865  function add(uint256 a, uint256 b) internal pure returns (uint256) {... */\n    tag_129:\n        /* \"node_modules/@openzeppelin/contracts/math/SafeMath.sol\":2748:2755  uint256 */\n      0x00\n        /* \"node_modules/@openzeppelin/contracts/math/SafeMath.sol\":2767:2776  uint256 c */\n      dup1\n        /* \"node_modules/@openzeppelin/contracts/math/SafeMath.sol\":2783:2784  b */\n      dup3\n        /* \"node_modules/@openzeppelin/contracts/math/SafeMath.sol\":2779:2780  a */\n      dup5\n        /* \"node_modules/@openzeppelin/contracts/math/SafeMath.sol\":2779:2784  a + b */\n      add\n        /* \"node_modules/@openzeppelin/contracts/math/SafeMath.sol\":2767:2784  uint256 c = a + b */\n      swap1\n      pop\n        /* \"node_modules/@openzeppelin/contracts/math/SafeMath.sol\":2807:2808  a */\n      dup4\n        /* \"node_modules/@openzeppelin/contracts/math/SafeMath.sol\":2802:2803  c */\n      dup2\n        /* \"node_modules/@openzeppelin/contracts/math/SafeMath.sol\":2802:2808  c >= a */\n      lt\n      iszero\n        /* \"node_modules/@openzeppelin/contracts/math/SafeMath.sol\":2794:2840  require(c >= a, \"SafeMath: addition overflow\") */\n      tag_202\n      jumpi\n      mload(0x40)\n      0x08c379a000000000000000000000000000000000000000000000000000000000\n      dup2\n      mstore\n      0x04\n      add\n      dup1\n      dup1\n      0x20\n      add\n      dup3\n      dup2\n      sub\n      dup3\n      mstore\n      0x1b\n      dup2\n      mstore\n      0x20\n      add\n      dup1\n      0x536166654d6174683a206164646974696f6e206f766572666c6f770000000000\n      dup2\n      mstore\n      pop\n      0x20\n      add\n      swap2\n      pop\n      pop\n      mload(0x40)\n      dup1\n      swap2\n      sub\n      swap1\n      revert\n    tag_202:\n        /* \"node_modules/@openzeppelin/contracts/math/SafeMath.sol\":2857:2858  c */\n      dup1\n        /* \"node_modules/@openzeppelin/contracts/math/SafeMath.sol\":2850:2858  return c */\n      swap2\n      pop\n      pop\n        /* \"node_modules/@openzeppelin/contracts/math/SafeMath.sol\":2690:2865  function add(uint256 a, uint256 b) internal pure returns (uint256) {... */\n      swap3\n      swap2\n      pop\n      pop\n      jump\t// out\n        /* \"@openzeppelin/contracts-upgradeable/utils/ContextUpgradeable.sol\":828:932  function _msgSender() internal view virtual returns (address payable) {... */\n    tag_137:\n        /* \"@openzeppelin/contracts-upgradeable/utils/ContextUpgradeable.sol\":881:896  address payable */\n      0x00\n        /* \"@openzeppelin/contracts-upgradeable/utils/ContextUpgradeable.sol\":915:925  msg.sender */\n      caller\n        /* \"@openzeppelin/contracts-upgradeable/utils/ContextUpgradeable.sol\":908:925  return msg.sender */\n      swap1\n      pop\n        /* \"@openzeppelin/contracts-upgradeable/utils/ContextUpgradeable.sol\":828:932  function _msgSender() internal view virtual returns (address payable) {... */\n      swap1\n      jump\t// out\n        /* \"@openzeppelin/contracts-upgradeable/access/AccessControlUpgradeable.sol\":7395:7579  function _grantRole(bytes32 role, address account) private {... */\n    tag_140:\n        /* \"@openzeppelin/contracts-upgradeable/access/AccessControlUpgradeable.sol\":7468:7501  _roles[role].members.add(account) */\n      tag_205\n        /* \"@openzeppelin/contracts-upgradeable/access/AccessControlUpgradeable.sol\":7493:7500  account */\n      dup2\n        /* \"@openzeppelin/contracts-upgradeable/access/AccessControlUpgradeable.sol\":7468:7474  _roles */\n      0x33\n        /* \"@openzeppelin/contracts-upgradeable/access/AccessControlUpgradeable.sol\":7468:7480  _roles[role] */\n      0x00\n        /* \"@openzeppelin/contracts-upgradeable/access/AccessControlUpgradeable.sol\":7475:7479  role */\n      dup6\n        /* \"@openzeppelin/contracts-upgradeable/access/AccessControlUpgradeable.sol\":7468:7480  _roles[role] */\n      dup2\n      mstore\n      0x20\n      add\n      swap1\n      dup2\n      mstore\n      0x20\n      add\n      0x00\n      keccak256\n        /* \"@openzeppelin/contracts-upgradeable/access/AccessControlUpgradeable.sol\":7468:7488  _roles[role].members */\n      0x00\n      add\n        /* \"@openzeppelin/contracts-upgradeable/access/AccessControlUpgradeable.sol\":7468:7492  _roles[role].members.add */\n      tag_206\n      swap1\n        /* \"@openzeppelin/contracts-upgradeable/access/AccessControlUpgradeable.sol\":7468:7501  _roles[role].members.add(account) */\n      swap2\n      swap1\n      0xffffffff\n      and\n      jump\t// in\n    tag_205:\n        /* \"@openzeppelin/contracts-upgradeable/access/AccessControlUpgradeable.sol\":7464:7573  if (_roles[role].members.add(account)) {... */\n      iszero\n      tag_207\n      jumpi\n        /* \"@openzeppelin/contracts-upgradeable/access/AccessControlUpgradeable.sol\":7549:7561  _msgSender() */\n      tag_208\n        /* \"@openzeppelin/contracts-upgradeable/access/AccessControlUpgradeable.sol\":7549:7559  _msgSender */\n      tag_137\n        /* \"@openzeppelin/contracts-upgradeable/access/AccessControlUpgradeable.sol\":7549:7561  _msgSender() */\n      jump\t// in\n    tag_208:\n        /* \"@openzeppelin/contracts-upgradeable/access/AccessControlUpgradeable.sol\":7522:7562  RoleGranted(role, account, _msgSender()) */\n      0xffffffffffffffffffffffffffffffffffffffff\n      and\n        /* \"@openzeppelin/contracts-upgradeable/access/AccessControlUpgradeable.sol\":7540:7547  account */\n      dup2\n        /* \"@openzeppelin/contracts-upgradeable/access/AccessControlUpgradeable.sol\":7522:7562  RoleGranted(role, account, _msgSender()) */\n      0xffffffffffffffffffffffffffffffffffffffff\n      and\n        /* \"@openzeppelin/contracts-upgradeable/access/AccessControlUpgradeable.sol\":7534:7538  role */\n      dup4\n        /* \"@openzeppelin/contracts-upgradeable/access/AccessControlUpgradeable.sol\":7522:7562  RoleGranted(role, account, _msgSender()) */\n      0x2f8788117e7eff1d82e926ec794901d17c78024a50270940304540a733656f0d\n      mload(0x40)\n      mload(0x40)\n      dup1\n      swap2\n      sub\n      swap1\n      log4\n        /* \"@openzeppelin/contracts-upgradeable/access/AccessControlUpgradeable.sol\":7464:7573  if (_roles[role].members.add(account)) {... */\n    tag_207:\n        /* \"@openzeppelin/contracts-upgradeable/access/AccessControlUpgradeable.sol\":7395:7579  function _grantRole(bytes32 role, address account) private {... */\n      pop\n      pop\n      jump\t// out\n        /* \"@openzeppelin/contracts-upgradeable/access/AccessControlUpgradeable.sol\":7585:7773  function _revokeRole(bytes32 role, address account) private {... */\n    tag_148:\n        /* \"@openzeppelin/contracts-upgradeable/access/AccessControlUpgradeable.sol\":7659:7695  _roles[role].members.remove(account) */\n      tag_210\n        /* \"@openzeppelin/contracts-upgradeable/access/AccessControlUpgradeable.sol\":7687:7694  account */\n      dup2\n        /* \"@openzeppelin/contracts-upgradeable/access/AccessControlUpgradeable.sol\":7659:7665  _roles */\n      0x33\n        /* \"@openzeppelin/contracts-upgradeable/access/AccessControlUpgradeable.sol\":7659:7671  _roles[role] */\n      0x00\n        /* \"@openzeppelin/contracts-upgradeable/access/AccessControlUpgradeable.sol\":7666:7670  role */\n      dup6\n        /* \"@openzeppelin/contracts-upgradeable/access/AccessControlUpgradeable.sol\":7659:7671  _roles[role] */\n      dup2\n      mstore\n      0x20\n      add\n      swap1\n      dup2\n      mstore\n      0x20\n      add\n      0x00\n      keccak256\n        /* \"@openzeppelin/contracts-upgradeable/access/AccessControlUpgradeable.sol\":7659:7679  _roles[role].members */\n      0x00\n      add\n        /* \"@openzeppelin/contracts-upgradeable/access/AccessControlUpgradeable.sol\":7659:7686  _roles[role].members.remove */\n      tag_211\n      swap1\n        /* \"@openzeppelin/contracts-upgradeable/access/AccessControlUpgradeable.sol\":7659:7695  _roles[role].members.remove(account) */\n      swap2\n      swap1\n      0xffffffff\n      and\n      jump\t// in\n    tag_210:\n        /* \"@openzeppelin/contracts-upgradeable/access/AccessControlUpgradeable.sol\":7655:7767  if (_roles[role].members.remove(account)) {... */\n      iszero\n      tag_212\n      jumpi\n        /* \"@openzeppelin/contracts-upgradeable/access/AccessControlUpgradeable.sol\":7743:7755  _msgSender() */\n      tag_213\n        /* \"@openzeppelin/contracts-upgradeable/access/AccessControlUpgradeable.sol\":7743:7753  _msgSender */\n      tag_137\n        /* \"@openzeppelin/contracts-upgradeable/access/AccessControlUpgradeable.sol\":7743:7755  _msgSender() */\n      jump\t// in\n    tag_213:\n        /* \"@openzeppelin/contracts-upgradeable/access/AccessControlUpgradeable.sol\":7716:7756  RoleRevoked(role, account, _msgSender()) */\n      0xffffffffffffffffffffffffffffffffffffffff\n      and\n        /* \"@openzeppelin/contracts-upgradeable/access/AccessControlUpgradeable.sol\":7734:7741  account */\n      dup2\n        /* \"@openzeppelin/contracts-upgradeable/access/AccessControlUpgradeable.sol\":7716:7756  RoleRevoked(role, account, _msgSender()) */\n      0xffffffffffffffffffffffffffffffffffffffff\n      and\n        /* \"@openzeppelin/contracts-upgradeable/access/AccessControlUpgradeable.sol\":7728:7732  role */\n      dup4\n        /* \"@openzeppelin/contracts-upgradeable/access/AccessControlUpgradeable.sol\":7716:7756  RoleRevoked(role, account, _msgSender()) */\n      0xf6391f5c32d9c69d2a47ea670b442974b53935d1edc7fd64eb21e047a839171b\n      mload(0x40)\n      mload(0x40)\n      dup1\n      swap2\n      sub\n      swap1\n      log4\n        /* \"@openzeppelin/contracts-upgradeable/access/AccessControlUpgradeable.sol\":7655:7767  if (_roles[role].members.remove(account)) {... */\n    tag_212:\n        /* \"@openzeppelin/contracts-upgradeable/access/AccessControlUpgradeable.sol\":7585:7773  function _revokeRole(bytes32 role, address account) private {... */\n      pop\n      pop\n      jump\t// out\n        /* \"node_modules/@openzeppelin/contracts/math/SafeMath.sol\":1109:1260  function trySub(uint256 a, uint256 b) internal pure returns (bool, uint256) {... */\n    tag_171:\n        /* \"node_modules/@openzeppelin/contracts/math/SafeMath.sol\":1170:1174  bool */\n      0x00\n        /* \"node_modules/@openzeppelin/contracts/math/SafeMath.sol\":1176:1183  uint256 */\n      dup1\n        /* \"node_modules/@openzeppelin/contracts/math/SafeMath.sol\":1203:1204  a */\n      dup4\n        /* \"node_modules/@openzeppelin/contracts/math/SafeMath.sol\":1199:1200  b */\n      dup4\n        /* \"node_modules/@openzeppelin/contracts/math/SafeMath.sol\":1199:1204  b > a */\n      gt\n        /* \"node_modules/@openzeppelin/contracts/math/SafeMath.sol\":1195:1223  if (b > a) return (false, 0) */\n      iszero\n      tag_215\n      jumpi\n        /* \"node_modules/@openzeppelin/contracts/math/SafeMath.sol\":1214:1219  false */\n      0x00\n        /* \"node_modules/@openzeppelin/contracts/math/SafeMath.sol\":1221:1222  0 */\n      dup1\n        /* \"node_modules/@openzeppelin/contracts/math/SafeMath.sol\":1206:1223  return (false, 0) */\n      swap2\n      pop\n      swap2\n      pop\n      jump(tag_214)\n        /* \"node_modules/@openzeppelin/contracts/math/SafeMath.sol\":1195:1223  if (b > a) return (false, 0) */\n    tag_215:\n        /* \"node_modules/@openzeppelin/contracts/math/SafeMath.sol\":1241:1245  true */\n      0x01\n        /* \"node_modules/@openzeppelin/contracts/math/SafeMath.sol\":1251:1252  b */\n      dup4\n        /* \"node_modules/@openzeppelin/contracts/math/SafeMath.sol\":1247:1248  a */\n      dup6\n        /* \"node_modules/@openzeppelin/contracts/math/SafeMath.sol\":1247:1252  a - b */\n      sub\n        /* \"node_modules/@openzeppelin/contracts/math/SafeMath.sol\":1233:1253  return (true, a - b) */\n      swap2\n      pop\n      swap2\n      pop\n        /* \"node_modules/@openzeppelin/contracts/math/SafeMath.sol\":1109:1260  function trySub(uint256 a, uint256 b) internal pure returns (bool, uint256) {... */\n    tag_214:\n      swap3\n      pop\n      swap3\n      swap1\n      pop\n      jump\t// out\n        /* \"@openzeppelin/contracts-upgradeable/proxy/Initializable.sol\":1952:2075  function _isConstructor() private view returns (bool) {... */\n    tag_175:\n        /* \"@openzeppelin/contracts-upgradeable/proxy/Initializable.sol\":2000:2004  bool */\n      0x00\n        /* \"@openzeppelin/contracts-upgradeable/proxy/Initializable.sol\":2024:2068  AddressUpgradeable.isContract(address(this)) */\n      tag_217\n        /* \"@openzeppelin/contracts-upgradeable/proxy/Initializable.sol\":2062:2066  this */\n      address\n        /* \"@openzeppelin/contracts-upgradeable/proxy/Initializable.sol\":2024:2053  AddressUpgradeable.isContract */\n      tag_218\n        /* \"@openzeppelin/contracts-upgradeable/proxy/Initializable.sol\":2024:2068  AddressUpgradeable.isContract(address(this)) */\n      jump\t// in\n    tag_217:\n        /* \"@openzeppelin/contracts-upgradeable/proxy/Initializable.sol\":2023:2068  !AddressUpgradeable.isContract(address(this)) */\n      iszero\n        /* \"@openzeppelin/contracts-upgradeable/proxy/Initializable.sol\":2016:2068  return !AddressUpgradeable.isContract(address(this)) */\n      swap1\n      pop\n        /* \"@openzeppelin/contracts-upgradeable/proxy/Initializable.sol\":1952:2075  function _isConstructor() private view returns (bool) {... */\n      swap1\n      jump\t// out\n        /* \"@openzeppelin/contracts-upgradeable/access/AccessControlUpgradeable.sol\":1599:1737  function __AccessControl_init() internal initializer {... */\n    tag_181:\n        /* \"@openzeppelin/contracts-upgradeable/proxy/Initializable.sol\":1512:1525  _initializing */\n      0x00\n      0x01\n      swap1\n      sload\n      swap1\n      0x0100\n      exp\n      swap1\n      div\n      0xff\n      and\n        /* \"@openzeppelin/contracts-upgradeable/proxy/Initializable.sol\":1512:1545  _initializing || _isConstructor() */\n      dup1\n      tag_220\n      jumpi\n      pop\n        /* \"@openzeppelin/contracts-upgradeable/proxy/Initializable.sol\":1529:1545  _isConstructor() */\n      tag_221\n        /* \"@openzeppelin/contracts-upgradeable/proxy/Initializable.sol\":1529:1543  _isConstructor */\n      tag_175\n        /* \"@openzeppelin/contracts-upgradeable/proxy/Initializable.sol\":1529:1545  _isConstructor() */\n      jump\t// in\n    tag_221:\n        /* \"@openzeppelin/contracts-upgradeable/proxy/Initializable.sol\":1512:1545  _initializing || _isConstructor() */\n    tag_220:\n        /* \"@openzeppelin/contracts-upgradeable/proxy/Initializable.sol\":1512:1562  _initializing || _isConstructor() || !_initialized */\n      dup1\n      tag_222\n      jumpi\n      pop\n        /* \"@openzeppelin/contracts-upgradeable/proxy/Initializable.sol\":1550:1562  _initialized */\n      0x00\n      dup1\n      sload\n      swap1\n      0x0100\n      exp\n      swap1\n      div\n      0xff\n      and\n        /* \"@openzeppelin/contracts-upgradeable/proxy/Initializable.sol\":1549:1562  !_initialized */\n      iszero\n        /* \"@openzeppelin/contracts-upgradeable/proxy/Initializable.sol\":1512:1562  _initializing || _isConstructor() || !_initialized */\n    tag_222:\n        /* \"@openzeppelin/contracts-upgradeable/proxy/Initializable.sol\":1504:1613  require(_initializing || _isConstructor() || !_initialized, \"Initializable: contract is already initialized\") */\n      tag_223\n      jumpi\n      mload(0x40)\n      0x08c379a000000000000000000000000000000000000000000000000000000000\n      dup2\n      mstore\n      0x04\n      add\n      dup1\n      dup1\n      0x20\n      add\n      dup3\n      dup2\n      sub\n      dup3\n      mstore\n      0x2e\n      dup2\n      mstore\n      0x20\n      add\n      dup1\n      data_7a2a4e26842155ea933fe6eb6e3137eb5a296dcdf55721c552be7b4c3cc23759\n      0x2e\n      swap2\n      codecopy\n      0x40\n      add\n      swap2\n      pop\n      pop\n      mload(0x40)\n      dup1\n      swap2\n      sub\n      swap1\n      revert\n    tag_223:\n        /* \"@openzeppelin/contracts-upgradeable/proxy/Initializable.sol\":1624:1643  bool isTopLevelCall */\n      0x00\n        /* \"@openzeppelin/contracts-upgradeable/proxy/Initializable.sol\":1647:1660  _initializing */\n      dup1\n      0x01\n      swap1\n      sload\n      swap1\n      0x0100\n      exp\n      swap1\n      div\n      0xff\n      and\n        /* \"@openzeppelin/contracts-upgradeable/proxy/Initializable.sol\":1646:1660  !_initializing */\n      iszero\n        /* \"@openzeppelin/contracts-upgradeable/proxy/Initializable.sol\":1624:1660  bool isTopLevelCall = !_initializing */\n      swap1\n      pop\n        /* \"@openzeppelin/contracts-upgradeable/proxy/Initializable.sol\":1674:1688  isTopLevelCall */\n      dup1\n        /* \"@openzeppelin/contracts-upgradeable/proxy/Initializable.sol\":1670:1768  if (isTopLevelCall) {... */\n      iszero\n      tag_224\n      jumpi\n        /* \"@openzeppelin/contracts-upgradeable/proxy/Initializable.sol\":1720:1724  true */\n      0x01\n        /* \"@openzeppelin/contracts-upgradeable/proxy/Initializable.sol\":1704:1717  _initializing */\n      0x00\n      0x01\n        /* \"@openzeppelin/contracts-upgradeable/proxy/Initializable.sol\":1704:1724  _initializing = true */\n      0x0100\n      exp\n      dup2\n      sload\n      dup2\n      0xff\n      mul\n      not\n      and\n      swap1\n      dup4\n      iszero\n      iszero\n      mul\n      or\n      swap1\n      sstore\n      pop\n        /* \"@openzeppelin/contracts-upgradeable/proxy/Initializable.sol\":1753:1757  true */\n      0x01\n        /* \"@openzeppelin/contracts-upgradeable/proxy/Initializable.sol\":1738:1750  _initialized */\n      0x00\n      dup1\n        /* \"@openzeppelin/contracts-upgradeable/proxy/Initializable.sol\":1738:1757  _initialized = true */\n      0x0100\n      exp\n      dup2\n      sload\n      dup2\n      0xff\n      mul\n      not\n      and\n      swap1\n      dup4\n      iszero\n      iszero\n      mul\n      or\n      swap1\n      sstore\n      pop\n        /* \"@openzeppelin/contracts-upgradeable/proxy/Initializable.sol\":1670:1768  if (isTopLevelCall) {... */\n    tag_224:\n        /* \"@openzeppelin/contracts-upgradeable/access/AccessControlUpgradeable.sol\":1662:1688  __Context_init_unchained() */\n      tag_226\n        /* \"@openzeppelin/contracts-upgradeable/access/AccessControlUpgradeable.sol\":1662:1686  __Context_init_unchained */\n      tag_227\n        /* \"@openzeppelin/contracts-upgradeable/access/AccessControlUpgradeable.sol\":1662:1688  __Context_init_unchained() */\n      jump\t// in\n    tag_226:\n        /* \"@openzeppelin/contracts-upgradeable/access/AccessControlUpgradeable.sol\":1698:1730  __AccessControl_init_unchained() */\n      tag_228\n        /* \"@openzeppelin/contracts-upgradeable/access/AccessControlUpgradeable.sol\":1698:1728  __AccessControl_init_unchained */\n      tag_229\n        /* \"@openzeppelin/contracts-upgradeable/access/AccessControlUpgradeable.sol\":1698:1730  __AccessControl_init_unchained() */\n      jump\t// in\n    tag_228:\n        /* \"@openzeppelin/contracts-upgradeable/proxy/Initializable.sol\":1794:1808  isTopLevelCall */\n      dup1\n        /* \"@openzeppelin/contracts-upgradeable/proxy/Initializable.sol\":1790:1856  if (isTopLevelCall) {... */\n      iszero\n      tag_230\n      jumpi\n        /* \"@openzeppelin/contracts-upgradeable/proxy/Initializable.sol\":1840:1845  false */\n      0x00\n        /* \"@openzeppelin/contracts-upgradeable/proxy/Initializable.sol\":1824:1837  _initializing */\n      dup1\n      0x01\n        /* \"@openzeppelin/contracts-upgradeable/proxy/Initializable.sol\":1824:1845  _initializing = false */\n      0x0100\n      exp\n      dup2\n      sload\n      dup2\n      0xff\n      mul\n      not\n      and\n      swap1\n      dup4\n      iszero\n      iszero\n      mul\n      or\n      swap1\n      sstore\n      pop\n        /* \"@openzeppelin/contracts-upgradeable/proxy/Initializable.sol\":1790:1856  if (isTopLevelCall) {... */\n    tag_230:\n        /* \"@openzeppelin/contracts-upgradeable/access/AccessControlUpgradeable.sol\":1599:1737  function __AccessControl_init() internal initializer {... */\n      pop\n      jump\t// out\n        /* \"@openzeppelin/contracts-upgradeable/access/AccessControlUpgradeable.sol\":6958:7068  function _setupRole(bytes32 role, address account) internal virtual {... */\n    tag_183:\n        /* \"@openzeppelin/contracts-upgradeable/access/AccessControlUpgradeable.sol\":7036:7061  _grantRole(role, account) */\n      tag_232\n        /* \"@openzeppelin/contracts-upgradeable/access/AccessControlUpgradeable.sol\":7047:7051  role */\n      dup3\n        /* \"@openzeppelin/contracts-upgradeable/access/AccessControlUpgradeable.sol\":7053:7060  account */\n      dup3\n        /* \"@openzeppelin/contracts-upgradeable/access/AccessControlUpgradeable.sol\":7036:7046  _grantRole */\n      tag_140\n        /* \"@openzeppelin/contracts-upgradeable/access/AccessControlUpgradeable.sol\":7036:7061  _grantRole(role, account) */\n      jump\t// in\n    tag_232:\n        /* \"@openzeppelin/contracts-upgradeable/access/AccessControlUpgradeable.sol\":6958:7068  function _setupRole(bytes32 role, address account) internal virtual {... */\n      pop\n      pop\n      jump\t// out\n        /* \"@openzeppelin/contracts-upgradeable/utils/EnumerableSetUpgradeable.sol\":7688:7844  function at(AddressSet storage set, uint256 index) internal view returns (address) {... */\n    tag_187:\n        /* \"@openzeppelin/contracts-upgradeable/utils/EnumerableSetUpgradeable.sol\":7762:7769  address */\n      0x00\n        /* \"@openzeppelin/contracts-upgradeable/utils/EnumerableSetUpgradeable.sol\":7812:7834  _at(set._inner, index) */\n      tag_234\n        /* \"@openzeppelin/contracts-upgradeable/utils/EnumerableSetUpgradeable.sol\":7816:7819  set */\n      dup4\n        /* \"@openzeppelin/contracts-upgradeable/utils/EnumerableSetUpgradeable.sol\":7816:7826  set._inner */\n      0x00\n      add\n        /* \"@openzeppelin/contracts-upgradeable/utils/EnumerableSetUpgradeable.sol\":7828:7833  index */\n      dup4\n        /* \"@openzeppelin/contracts-upgradeable/utils/EnumerableSetUpgradeable.sol\":7812:7815  _at */\n      tag_235\n        /* \"@openzeppelin/contracts-upgradeable/utils/EnumerableSetUpgradeable.sol\":7812:7834  _at(set._inner, index) */\n      jump\t// in\n    tag_234:\n        /* \"@openzeppelin/contracts-upgradeable/utils/EnumerableSetUpgradeable.sol\":7804:7835  uint256(_at(set._inner, index)) */\n      0x00\n      shr\n        /* \"@openzeppelin/contracts-upgradeable/utils/EnumerableSetUpgradeable.sol\":7781:7837  return address(uint160(uint256(_at(set._inner, index)))) */\n      swap1\n      pop\n        /* \"@openzeppelin/contracts-upgradeable/utils/EnumerableSetUpgradeable.sol\":7688:7844  function at(AddressSet storage set, uint256 index) internal view returns (address) {... */\n      swap3\n      swap2\n      pop\n      pop\n      jump\t// out\n        /* \"@openzeppelin/contracts-upgradeable/utils/EnumerableSetUpgradeable.sol\":7241:7356  function length(AddressSet storage set) internal view returns (uint256) {... */\n    tag_190:\n        /* \"@openzeppelin/contracts-upgradeable/utils/EnumerableSetUpgradeable.sol\":7304:7311  uint256 */\n      0x00\n        /* \"@openzeppelin/contracts-upgradeable/utils/EnumerableSetUpgradeable.sol\":7330:7349  _length(set._inner) */\n      tag_237\n        /* \"@openzeppelin/contracts-upgradeable/utils/EnumerableSetUpgradeable.sol\":7338:7341  set */\n      dup3\n        /* \"@openzeppelin/contracts-upgradeable/utils/EnumerableSetUpgradeable.sol\":7338:7348  set._inner */\n      0x00\n      add\n        /* \"@openzeppelin/contracts-upgradeable/utils/EnumerableSetUpgradeable.sol\":7330:7337  _length */\n      tag_238\n        /* \"@openzeppelin/contracts-upgradeable/utils/EnumerableSetUpgradeable.sol\":7330:7349  _length(set._inner) */\n      jump\t// in\n    tag_237:\n        /* \"@openzeppelin/contracts-upgradeable/utils/EnumerableSetUpgradeable.sol\":7323:7349  return _length(set._inner) */\n      swap1\n      pop\n        /* \"@openzeppelin/contracts-upgradeable/utils/EnumerableSetUpgradeable.sol\":7241:7356  function length(AddressSet storage set) internal view returns (uint256) {... */\n      swap2\n      swap1\n      pop\n      jump\t// out\n        /* \"@openzeppelin/contracts-upgradeable/utils/EnumerableSetUpgradeable.sol\":3816:3943  function _contains(Set storage set, bytes32 value) private view returns (bool) {... */\n    tag_198:\n        /* \"@openzeppelin/contracts-upgradeable/utils/EnumerableSetUpgradeable.sol\":3889:3893  bool */\n      0x00\n        /* \"@openzeppelin/contracts-upgradeable/utils/EnumerableSetUpgradeable.sol\":3935:3936  0 */\n      dup1\n        /* \"@openzeppelin/contracts-upgradeable/utils/EnumerableSetUpgradeable.sol\":3912:3915  set */\n      dup4\n        /* \"@openzeppelin/contracts-upgradeable/utils/EnumerableSetUpgradeable.sol\":3912:3924  set._indexes */\n      0x01\n      add\n        /* \"@openzeppelin/contracts-upgradeable/utils/EnumerableSetUpgradeable.sol\":3912:3931  set._indexes[value] */\n      0x00\n        /* \"@openzeppelin/contracts-upgradeable/utils/EnumerableSetUpgradeable.sol\":3925:3930  value */\n      dup5\n        /* \"@openzeppelin/contracts-upgradeable/utils/EnumerableSetUpgradeable.sol\":3912:3931  set._indexes[value] */\n      dup2\n      mstore\n      0x20\n      add\n      swap1\n      dup2\n      mstore\n      0x20\n      add\n      0x00\n      keccak256\n      sload\n        /* \"@openzeppelin/contracts-upgradeable/utils/EnumerableSetUpgradeable.sol\":3912:3936  set._indexes[value] != 0 */\n      eq\n      iszero\n        /* \"@openzeppelin/contracts-upgradeable/utils/EnumerableSetUpgradeable.sol\":3905:3936  return set._indexes[value] != 0 */\n      swap1\n      pop\n        /* \"@openzeppelin/contracts-upgradeable/utils/EnumerableSetUpgradeable.sol\":3816:3943  function _contains(Set storage set, bytes32 value) private view returns (bool) {... */\n      swap3\n      swap2\n      pop\n      pop\n      jump\t// out\n        /* \"@openzeppelin/contracts-upgradeable/utils/EnumerableSetUpgradeable.sol\":6440:6590  function add(AddressSet storage set, address value) internal returns (bool) {... */\n    tag_206:\n        /* \"@openzeppelin/contracts-upgradeable/utils/EnumerableSetUpgradeable.sol\":6510:6514  bool */\n      0x00\n        /* \"@openzeppelin/contracts-upgradeable/utils/EnumerableSetUpgradeable.sol\":6533:6583  _add(set._inner, bytes32(uint256(uint160(value)))) */\n      tag_241\n        /* \"@openzeppelin/contracts-upgradeable/utils/EnumerableSetUpgradeable.sol\":6538:6541  set */\n      dup4\n        /* \"@openzeppelin/contracts-upgradeable/utils/EnumerableSetUpgradeable.sol\":6538:6548  set._inner */\n      0x00\n      add\n        /* \"@openzeppelin/contracts-upgradeable/utils/EnumerableSetUpgradeable.sol\":6574:6579  value */\n      dup4\n        /* \"@openzeppelin/contracts-upgradeable/utils/EnumerableSetUpgradeable.sol\":6558:6581  uint256(uint160(value)) */\n      0xffffffffffffffffffffffffffffffffffffffff\n      and\n        /* \"@openzeppelin/contracts-upgradeable/utils/EnumerableSetUpgradeable.sol\":6550:6582  bytes32(uint256(uint160(value))) */\n      0x00\n      shl\n        /* \"@openzeppelin/contracts-upgradeable/utils/EnumerableSetUpgradeable.sol\":6533:6537  _add */\n      tag_242\n        /* \"@openzeppelin/contracts-upgradeable/utils/EnumerableSetUpgradeable.sol\":6533:6583  _add(set._inner, bytes32(uint256(uint160(value)))) */\n      jump\t// in\n    tag_241:\n        /* \"@openzeppelin/contracts-upgradeable/utils/EnumerableSetUpgradeable.sol\":6526:6583  return _add(set._inner, bytes32(uint256(uint160(value)))) */\n      swap1\n      pop\n        /* \"@openzeppelin/contracts-upgradeable/utils/EnumerableSetUpgradeable.sol\":6440:6590  function add(AddressSet storage set, address value) internal returns (bool) {... */\n      swap3\n      swap2\n      pop\n      pop\n      jump\t// out\n        /* \"@openzeppelin/contracts-upgradeable/utils/EnumerableSetUpgradeable.sol\":6758:6914  function remove(AddressSet storage set, address value) internal returns (bool) {... */\n    tag_211:\n        /* \"@openzeppelin/contracts-upgradeable/utils/EnumerableSetUpgradeable.sol\":6831:6835  bool */\n      0x00\n        /* \"@openzeppelin/contracts-upgradeable/utils/EnumerableSetUpgradeable.sol\":6854:6907  _remove(set._inner, bytes32(uint256(uint160(value)))) */\n      tag_244\n        /* \"@openzeppelin/contracts-upgradeable/utils/EnumerableSetUpgradeable.sol\":6862:6865  set */\n      dup4\n        /* \"@openzeppelin/contracts-upgradeable/utils/EnumerableSetUpgradeable.sol\":6862:6872  set._inner */\n      0x00\n      add\n        /* \"@openzeppelin/contracts-upgradeable/utils/EnumerableSetUpgradeable.sol\":6898:6903  value */\n      dup4\n        /* \"@openzeppelin/contracts-upgradeable/utils/EnumerableSetUpgradeable.sol\":6882:6905  uint256(uint160(value)) */\n      0xffffffffffffffffffffffffffffffffffffffff\n      and\n        /* \"@openzeppelin/contracts-upgradeable/utils/EnumerableSetUpgradeable.sol\":6874:6906  bytes32(uint256(uint160(value))) */\n      0x00\n      shl\n        /* \"@openzeppelin/contracts-upgradeable/utils/EnumerableSetUpgradeable.sol\":6854:6861  _remove */\n      tag_245\n        /* \"@openzeppelin/contracts-upgradeable/utils/EnumerableSetUpgradeable.sol\":6854:6907  _remove(set._inner, bytes32(uint256(uint160(value)))) */\n      jump\t// in\n    tag_244:\n        /* \"@openzeppelin/contracts-upgradeable/utils/EnumerableSetUpgradeable.sol\":6847:6907  return _remove(set._inner, bytes32(uint256(uint160(value)))) */\n      swap1\n      pop\n        /* \"@openzeppelin/contracts-upgradeable/utils/EnumerableSetUpgradeable.sol\":6758:6914  function remove(AddressSet storage set, address value) internal returns (bool) {... */\n      swap3\n      swap2\n      pop\n      pop\n      jump\t// out\n        /* \"@openzeppelin/contracts-upgradeable/utils/AddressUpgradeable.sol\":737:1150  function isContract(address account) internal view returns (bool) {... */\n    tag_218:\n        /* \"@openzeppelin/contracts-upgradeable/utils/AddressUpgradeable.sol\":797:801  bool */\n      0x00\n        /* \"@openzeppelin/contracts-upgradeable/utils/AddressUpgradeable.sol\":1000:1012  uint256 size */\n      dup1\n        /* \"@openzeppelin/contracts-upgradeable/utils/AddressUpgradeable.sol\":1109:1116  account */\n      dup3\n        /* \"@openzeppelin/contracts-upgradeable/utils/AddressUpgradeable.sol\":1097:1117  extcodesize(account) */\n      extcodesize\n        /* \"@openzeppelin/contracts-upgradeable/utils/AddressUpgradeable.sol\":1089:1117  size := extcodesize(account) */\n      swap1\n      pop\n        /* \"@openzeppelin/contracts-upgradeable/utils/AddressUpgradeable.sol\":1142:1143  0 */\n      0x00\n        /* \"@openzeppelin/contracts-upgradeable/utils/AddressUpgradeable.sol\":1135:1139  size */\n      dup2\n        /* \"@openzeppelin/contracts-upgradeable/utils/AddressUpgradeable.sol\":1135:1143  size > 0 */\n      gt\n        /* \"@openzeppelin/contracts-upgradeable/utils/AddressUpgradeable.sol\":1128:1143  return size > 0 */\n      swap2\n      pop\n      pop\n        /* \"@openzeppelin/contracts-upgradeable/utils/AddressUpgradeable.sol\":737:1150  function isContract(address account) internal view returns (bool) {... */\n      swap2\n      swap1\n      pop\n      jump\t// out\n        /* \"@openzeppelin/contracts-upgradeable/utils/ContextUpgradeable.sol\":759:823  function __Context_init_unchained() internal initializer {... */\n    tag_227:\n        /* \"@openzeppelin/contracts-upgradeable/proxy/Initializable.sol\":1512:1525  _initializing */\n      0x00\n      0x01\n      swap1\n      sload\n      swap1\n      0x0100\n      exp\n      swap1\n      div\n      0xff\n      and\n        /* \"@openzeppelin/contracts-upgradeable/proxy/Initializable.sol\":1512:1545  _initializing || _isConstructor() */\n      dup1\n      tag_248\n      jumpi\n      pop\n        /* \"@openzeppelin/contracts-upgradeable/proxy/Initializable.sol\":1529:1545  _isConstructor() */\n      tag_249\n        /* \"@openzeppelin/contracts-upgradeable/proxy/Initializable.sol\":1529:1543  _isConstructor */\n      tag_175\n        /* \"@openzeppelin/contracts-upgradeable/proxy/Initializable.sol\":1529:1545  _isConstructor() */\n      jump\t// in\n    tag_249:\n        /* \"@openzeppelin/contracts-upgradeable/proxy/Initializable.sol\":1512:1545  _initializing || _isConstructor() */\n    tag_248:\n        /* \"@openzeppelin/contracts-upgradeable/proxy/Initializable.sol\":1512:1562  _initializing || _isConstructor() || !_initialized */\n      dup1\n      tag_250\n      jumpi\n      pop\n        /* \"@openzeppelin/contracts-upgradeable/proxy/Initializable.sol\":1550:1562  _initialized */\n      0x00\n      dup1\n      sload\n      swap1\n      0x0100\n      exp\n      swap1\n      div\n      0xff\n      and\n        /* \"@openzeppelin/contracts-upgradeable/proxy/Initializable.sol\":1549:1562  !_initialized */\n      iszero\n        /* \"@openzeppelin/contracts-upgradeable/proxy/Initializable.sol\":1512:1562  _initializing || _isConstructor() || !_initialized */\n    tag_250:\n        /* \"@openzeppelin/contracts-upgradeable/proxy/Initializable.sol\":1504:1613  require(_initializing || _isConstructor() || !_initialized, \"Initializable: contract is already initialized\") */\n      tag_251\n      jumpi\n      mload(0x40)\n      0x08c379a000000000000000000000000000000000000000000000000000000000\n      dup2\n      mstore\n      0x04\n      add\n      dup1\n      dup1\n      0x20\n      add\n      dup3\n      dup2\n      sub\n      dup3\n      mstore\n      0x2e\n      dup2\n      mstore\n      0x20\n      add\n      dup1\n      data_7a2a4e26842155ea933fe6eb6e3137eb5a296dcdf55721c552be7b4c3cc23759\n      0x2e\n      swap2\n      codecopy\n      0x40\n      add\n      swap2\n      pop\n      pop\n      mload(0x40)\n      dup1\n      swap2\n      sub\n      swap1\n      revert\n    tag_251:\n        /* \"@openzeppelin/contracts-upgradeable/proxy/Initializable.sol\":1624:1643  bool isTopLevelCall */\n      0x00\n        /* \"@openzeppelin/contracts-upgradeable/proxy/Initializable.sol\":1647:1660  _initializing */\n      dup1\n      0x01\n      swap1\n      sload\n      swap1\n      0x0100\n      exp\n      swap1\n      div\n      0xff\n      and\n        /* \"@openzeppelin/contracts-upgradeable/proxy/Initializable.sol\":1646:1660  !_initializing */\n      iszero\n        /* \"@openzeppelin/contracts-upgradeable/proxy/Initializable.sol\":1624:1660  bool isTopLevelCall = !_initializing */\n      swap1\n      pop\n        /* \"@openzeppelin/contracts-upgradeable/proxy/Initializable.sol\":1674:1688  isTopLevelCall */\n      dup1\n        /* \"@openzeppelin/contracts-upgradeable/proxy/Initializable.sol\":1670:1768  if (isTopLevelCall) {... */\n      iszero\n      tag_252\n      jumpi\n        /* \"@openzeppelin/contracts-upgradeable/proxy/Initializable.sol\":1720:1724  true */\n      0x01\n        /* \"@openzeppelin/contracts-upgradeable/proxy/Initializable.sol\":1704:1717  _initializing */\n      0x00\n      0x01\n        /* \"@openzeppelin/contracts-upgradeable/proxy/Initializable.sol\":1704:1724  _initializing = true */\n      0x0100\n      exp\n      dup2\n      sload\n      dup2\n      0xff\n      mul\n      not\n      and\n      swap1\n      dup4\n      iszero\n      iszero\n      mul\n      or\n      swap1\n      sstore\n      pop\n        /* \"@openzeppelin/contracts-upgradeable/proxy/Initializable.sol\":1753:1757  true */\n      0x01\n        /* \"@openzeppelin/contracts-upgradeable/proxy/Initializable.sol\":1738:1750  _initialized */\n      0x00\n      dup1\n        /* \"@openzeppelin/contracts-upgradeable/proxy/Initializable.sol\":1738:1757  _initialized = true */\n      0x0100\n      exp\n      dup2\n      sload\n      dup2\n      0xff\n      mul\n      not\n      and\n      swap1\n      dup4\n      iszero\n      iszero\n      mul\n      or\n      swap1\n      sstore\n      pop\n        /* \"@openzeppelin/contracts-upgradeable/proxy/Initializable.sol\":1670:1768  if (isTopLevelCall) {... */\n    tag_252:\n        /* \"@openzeppelin/contracts-upgradeable/proxy/Initializable.sol\":1794:1808  isTopLevelCall */\n      dup1\n        /* \"@openzeppelin/contracts-upgradeable/proxy/Initializable.sol\":1790:1856  if (isTopLevelCall) {... */\n      iszero\n      tag_254\n      jumpi\n        /* \"@openzeppelin/contracts-upgradeable/proxy/Initializable.sol\":1840:1845  false */\n      0x00\n        /* \"@openzeppelin/contracts-upgradeable/proxy/Initializable.sol\":1824:1837  _initializing */\n      dup1\n      0x01\n        /* \"@openzeppelin/contracts-upgradeable/proxy/Initializable.sol\":1824:1845  _initializing = false */\n      0x0100\n      exp\n      dup2\n      sload\n      dup2\n      0xff\n      mul\n      not\n      and\n      swap1\n      dup4\n      iszero\n      iszero\n      mul\n      or\n      swap1\n      sstore\n      pop\n        /* \"@openzeppelin/contracts-upgradeable/proxy/Initializable.sol\":1790:1856  if (isTopLevelCall) {... */\n    tag_254:\n        /* \"@openzeppelin/contracts-upgradeable/utils/ContextUpgradeable.sol\":759:823  function __Context_init_unchained() internal initializer {... */\n      pop\n      jump\t// out\n        /* \"@openzeppelin/contracts-upgradeable/access/AccessControlUpgradeable.sol\":1743:1813  function __AccessControl_init_unchained() internal initializer {... */\n    tag_229:\n        /* \"@openzeppelin/contracts-upgradeable/proxy/Initializable.sol\":1512:1525  _initializing */\n      0x00\n      0x01\n      swap1\n      sload\n      swap1\n      0x0100\n      exp\n      swap1\n      div\n      0xff\n      and\n        /* \"@openzeppelin/contracts-upgradeable/proxy/Initializable.sol\":1512:1545  _initializing || _isConstructor() */\n      dup1\n      tag_256\n      jumpi\n      pop\n        /* \"@openzeppelin/contracts-upgradeable/proxy/Initializable.sol\":1529:1545  _isConstructor() */\n      tag_257\n        /* \"@openzeppelin/contracts-upgradeable/proxy/Initializable.sol\":1529:1543  _isConstructor */\n      tag_175\n        /* \"@openzeppelin/contracts-upgradeable/proxy/Initializable.sol\":1529:1545  _isConstructor() */\n      jump\t// in\n    tag_257:\n        /* \"@openzeppelin/contracts-upgradeable/proxy/Initializable.sol\":1512:1545  _initializing || _isConstructor() */\n    tag_256:\n        /* \"@openzeppelin/contracts-upgradeable/proxy/Initializable.sol\":1512:1562  _initializing || _isConstructor() || !_initialized */\n      dup1\n      tag_258\n      jumpi\n      pop\n        /* \"@openzeppelin/contracts-upgradeable/proxy/Initializable.sol\":1550:1562  _initialized */\n      0x00\n      dup1\n      sload\n      swap1\n      0x0100\n      exp\n      swap1\n      div\n      0xff\n      and\n        /* \"@openzeppelin/contracts-upgradeable/proxy/Initializable.sol\":1549:1562  !_initialized */\n      iszero\n        /* \"@openzeppelin/contracts-upgradeable/proxy/Initializable.sol\":1512:1562  _initializing || _isConstructor() || !_initialized */\n    tag_258:\n        /* \"@openzeppelin/contracts-upgradeable/proxy/Initializable.sol\":1504:1613  require(_initializing || _isConstructor() || !_initialized, \"Initializable: contract is already initialized\") */\n      tag_259\n      jumpi\n      mload(0x40)\n      0x08c379a000000000000000000000000000000000000000000000000000000000\n      dup2\n      mstore\n      0x04\n      add\n      dup1\n      dup1\n      0x20\n      add\n      dup3\n      dup2\n      sub\n      dup3\n      mstore\n      0x2e\n      dup2\n      mstore\n      0x20\n      add\n      dup1\n      data_7a2a4e26842155ea933fe6eb6e3137eb5a296dcdf55721c552be7b4c3cc23759\n      0x2e\n      swap2\n      codecopy\n      0x40\n      add\n      swap2\n      pop\n      pop\n      mload(0x40)\n      dup1\n      swap2\n      sub\n      swap1\n      revert\n    tag_259:\n        /* \"@openzeppelin/contracts-upgradeable/proxy/Initializable.sol\":1624:1643  bool isTopLevelCall */\n      0x00\n        /* \"@openzeppelin/contracts-upgradeable/proxy/Initializable.sol\":1647:1660  _initializing */\n      dup1\n      0x01\n      swap1\n      sload\n      swap1\n      0x0100\n      exp\n      swap1\n      div\n      0xff\n      and\n        /* \"@openzeppelin/contracts-upgradeable/proxy/Initializable.sol\":1646:1660  !_initializing */\n      iszero\n        /* \"@openzeppelin/contracts-upgradeable/proxy/Initializable.sol\":1624:1660  bool isTopLevelCall = !_initializing */\n      swap1\n      pop\n        /* \"@openzeppelin/contracts-upgradeable/proxy/Initializable.sol\":1674:1688  isTopLevelCall */\n      dup1\n        /* \"@openzeppelin/contracts-upgradeable/proxy/Initializable.sol\":1670:1768  if (isTopLevelCall) {... */\n      iszero\n      tag_260\n      jumpi\n        /* \"@openzeppelin/contracts-upgradeable/proxy/Initializable.sol\":1720:1724  true */\n      0x01\n        /* \"@openzeppelin/contracts-upgradeable/proxy/Initializable.sol\":1704:1717  _initializing */\n      0x00\n      0x01\n        /* \"@openzeppelin/contracts-upgradeable/proxy/Initializable.sol\":1704:1724  _initializing = true */\n      0x0100\n      exp\n      dup2\n      sload\n      dup2\n      0xff\n      mul\n      not\n      and\n      swap1\n      dup4\n      iszero\n      iszero\n      mul\n      or\n      swap1\n      sstore\n      pop\n        /* \"@openzeppelin/contracts-upgradeable/proxy/Initializable.sol\":1753:1757  true */\n      0x01\n        /* \"@openzeppelin/contracts-upgradeable/proxy/Initializable.sol\":1738:1750  _initialized */\n      0x00\n      dup1\n        /* \"@openzeppelin/contracts-upgradeable/proxy/Initializable.sol\":1738:1757  _initialized = true */\n      0x0100\n      exp\n      dup2\n      sload\n      dup2\n      0xff\n      mul\n      not\n      and\n      swap1\n      dup4\n      iszero\n      iszero\n      mul\n      or\n      swap1\n      sstore\n      pop\n        /* \"@openzeppelin/contracts-upgradeable/proxy/Initializable.sol\":1670:1768  if (isTopLevelCall) {... */\n    tag_260:\n        /* \"@openzeppelin/contracts-upgradeable/proxy/Initializable.sol\":1794:1808  isTopLevelCall */\n      dup1\n        /* \"@openzeppelin/contracts-upgradeable/proxy/Initializable.sol\":1790:1856  if (isTopLevelCall) {... */\n      iszero\n      tag_262\n      jumpi\n        /* \"@openzeppelin/contracts-upgradeable/proxy/Initializable.sol\":1840:1845  false */\n      0x00\n        /* \"@openzeppelin/contracts-upgradeable/proxy/Initializable.sol\":1824:1837  _initializing */\n      dup1\n      0x01\n        /* \"@openzeppelin/contracts-upgradeable/proxy/Initializable.sol\":1824:1845  _initializing = false */\n      0x0100\n      exp\n      dup2\n      sload\n      dup2\n      0xff\n      mul\n      not\n      and\n      swap1\n      dup4\n      iszero\n      iszero\n      mul\n      or\n      swap1\n      sstore\n      pop\n        /* \"@openzeppelin/contracts-upgradeable/proxy/Initializable.sol\":1790:1856  if (isTopLevelCall) {... */\n    tag_262:\n        /* \"@openzeppelin/contracts-upgradeable/access/AccessControlUpgradeable.sol\":1743:1813  function __AccessControl_init_unchained() internal initializer {... */\n      pop\n      jump\t// out\n        /* \"@openzeppelin/contracts-upgradeable/utils/EnumerableSetUpgradeable.sol\":4463:4664  function _at(Set storage set, uint256 index) private view returns (bytes32) {... */\n    tag_235:\n        /* \"@openzeppelin/contracts-upgradeable/utils/EnumerableSetUpgradeable.sol\":4530:4537  bytes32 */\n      0x00\n        /* \"@openzeppelin/contracts-upgradeable/utils/EnumerableSetUpgradeable.sol\":4578:4583  index */\n      dup2\n        /* \"@openzeppelin/contracts-upgradeable/utils/EnumerableSetUpgradeable.sol\":4557:4560  set */\n      dup4\n        /* \"@openzeppelin/contracts-upgradeable/utils/EnumerableSetUpgradeable.sol\":4557:4568  set._values */\n      0x00\n      add\n        /* \"@openzeppelin/contracts-upgradeable/utils/EnumerableSetUpgradeable.sol\":4557:4575  set._values.length */\n      dup1\n      sload\n      swap1\n      pop\n        /* \"@openzeppelin/contracts-upgradeable/utils/EnumerableSetUpgradeable.sol\":4557:4583  set._values.length > index */\n      gt\n        /* \"@openzeppelin/contracts-upgradeable/utils/EnumerableSetUpgradeable.sol\":4549:4622  require(set._values.length > index, \"EnumerableSet: index out of bounds\") */\n      tag_264\n      jumpi\n      mload(0x40)\n      0x08c379a000000000000000000000000000000000000000000000000000000000\n      dup2\n      mstore\n      0x04\n      add\n      dup1\n      dup1\n      0x20\n      add\n      dup3\n      dup2\n      sub\n      dup3\n      mstore\n      0x22\n      dup2\n      mstore\n      0x20\n      add\n      dup1\n      data_045d6834e6193a687012a3ad777f612279e549b6945364d9d2324f48610d3cbb\n      0x22\n      swap2\n      codecopy\n      0x40\n      add\n      swap2\n      pop\n      pop\n      mload(0x40)\n      dup1\n      swap2\n      sub\n      swap1\n      revert\n    tag_264:\n        /* \"@openzeppelin/contracts-upgradeable/utils/EnumerableSetUpgradeable.sol\":4639:4642  set */\n      dup3\n        /* \"@openzeppelin/contracts-upgradeable/utils/EnumerableSetUpgradeable.sol\":4639:4650  set._values */\n      0x00\n      add\n        /* \"@openzeppelin/contracts-upgradeable/utils/EnumerableSetUpgradeable.sol\":4651:4656  index */\n      dup3\n        /* \"@openzeppelin/contracts-upgradeable/utils/EnumerableSetUpgradeable.sol\":4639:4657  set._values[index] */\n      dup2\n      sload\n      dup2\n      lt\n      tag_265\n      jumpi\n      invalid\n    tag_265:\n      swap1\n      0x00\n      mstore\n      keccak256(0x00, 0x20)\n      add\n      sload\n        /* \"@openzeppelin/contracts-upgradeable/utils/EnumerableSetUpgradeable.sol\":4632:4657  return set._values[index] */\n      swap1\n      pop\n        /* \"@openzeppelin/contracts-upgradeable/utils/EnumerableSetUpgradeable.sol\":4463:4664  function _at(Set storage set, uint256 index) private view returns (bytes32) {... */\n      swap3\n      swap2\n      pop\n      pop\n      jump\t// out\n        /* \"@openzeppelin/contracts-upgradeable/utils/EnumerableSetUpgradeable.sol\":4024:4131  function _length(Set storage set) private view returns (uint256) {... */\n    tag_238:\n        /* \"@openzeppelin/contracts-upgradeable/utils/EnumerableSetUpgradeable.sol\":4080:4087  uint256 */\n      0x00\n        /* \"@openzeppelin/contracts-upgradeable/utils/EnumerableSetUpgradeable.sol\":4106:4109  set */\n      dup2\n        /* \"@openzeppelin/contracts-upgradeable/utils/EnumerableSetUpgradeable.sol\":4106:4117  set._values */\n      0x00\n      add\n        /* \"@openzeppelin/contracts-upgradeable/utils/EnumerableSetUpgradeable.sol\":4106:4124  set._values.length */\n      dup1\n      sload\n      swap1\n      pop\n        /* \"@openzeppelin/contracts-upgradeable/utils/EnumerableSetUpgradeable.sol\":4099:4124  return set._values.length */\n      swap1\n      pop\n        /* \"@openzeppelin/contracts-upgradeable/utils/EnumerableSetUpgradeable.sol\":4024:4131  function _length(Set storage set) private view returns (uint256) {... */\n      swap2\n      swap1\n      pop\n      jump\t// out\n        /* \"@openzeppelin/contracts-upgradeable/utils/EnumerableSetUpgradeable.sol\":1651:2055  function _add(Set storage set, bytes32 value) private returns (bool) {... */\n    tag_242:\n        /* \"@openzeppelin/contracts-upgradeable/utils/EnumerableSetUpgradeable.sol\":1714:1718  bool */\n      0x00\n        /* \"@openzeppelin/contracts-upgradeable/utils/EnumerableSetUpgradeable.sol\":1735:1756  _contains(set, value) */\n      tag_269\n        /* \"@openzeppelin/contracts-upgradeable/utils/EnumerableSetUpgradeable.sol\":1745:1748  set */\n      dup4\n        /* \"@openzeppelin/contracts-upgradeable/utils/EnumerableSetUpgradeable.sol\":1750:1755  value */\n      dup4\n        /* \"@openzeppelin/contracts-upgradeable/utils/EnumerableSetUpgradeable.sol\":1735:1744  _contains */\n      tag_198\n        /* \"@openzeppelin/contracts-upgradeable/utils/EnumerableSetUpgradeable.sol\":1735:1756  _contains(set, value) */\n      jump\t// in\n    tag_269:\n        /* \"@openzeppelin/contracts-upgradeable/utils/EnumerableSetUpgradeable.sol\":1730:2049  if (!_contains(set, value)) {... */\n      tag_270\n      jumpi\n        /* \"@openzeppelin/contracts-upgradeable/utils/EnumerableSetUpgradeable.sol\":1772:1775  set */\n      dup3\n        /* \"@openzeppelin/contracts-upgradeable/utils/EnumerableSetUpgradeable.sol\":1772:1783  set._values */\n      0x00\n      add\n        /* \"@openzeppelin/contracts-upgradeable/utils/EnumerableSetUpgradeable.sol\":1789:1794  value */\n      dup3\n        /* \"@openzeppelin/contracts-upgradeable/utils/EnumerableSetUpgradeable.sol\":1772:1795  set._values.push(value) */\n      swap1\n      dup1\n      0x01\n      dup2\n      sload\n      add\n      dup1\n      dup3\n      sstore\n      dup1\n      swap2\n      pop\n      pop\n      0x01\n      swap1\n      sub\n      swap1\n      0x00\n      mstore\n      keccak256(0x00, 0x20)\n      add\n      0x00\n      swap1\n      swap2\n      swap1\n      swap2\n      swap1\n      swap2\n      pop\n      sstore\n        /* \"@openzeppelin/contracts-upgradeable/utils/EnumerableSetUpgradeable.sol\":1952:1955  set */\n      dup3\n        /* \"@openzeppelin/contracts-upgradeable/utils/EnumerableSetUpgradeable.sol\":1952:1963  set._values */\n      0x00\n      add\n        /* \"@openzeppelin/contracts-upgradeable/utils/EnumerableSetUpgradeable.sol\":1952:1970  set._values.length */\n      dup1\n      sload\n      swap1\n      pop\n        /* \"@openzeppelin/contracts-upgradeable/utils/EnumerableSetUpgradeable.sol\":1930:1933  set */\n      dup4\n        /* \"@openzeppelin/contracts-upgradeable/utils/EnumerableSetUpgradeable.sol\":1930:1942  set._indexes */\n      0x01\n      add\n        /* \"@openzeppelin/contracts-upgradeable/utils/EnumerableSetUpgradeable.sol\":1930:1949  set._indexes[value] */\n      0x00\n        /* \"@openzeppelin/contracts-upgradeable/utils/EnumerableSetUpgradeable.sol\":1943:1948  value */\n      dup5\n        /* \"@openzeppelin/contracts-upgradeable/utils/EnumerableSetUpgradeable.sol\":1930:1949  set._indexes[value] */\n      dup2\n      mstore\n      0x20\n      add\n      swap1\n      dup2\n      mstore\n      0x20\n      add\n      0x00\n      keccak256\n        /* \"@openzeppelin/contracts-upgradeable/utils/EnumerableSetUpgradeable.sol\":1930:1970  set._indexes[value] = set._values.length */\n      dup2\n      swap1\n      sstore\n      pop\n        /* \"@openzeppelin/contracts-upgradeable/utils/EnumerableSetUpgradeable.sol\":1991:1995  true */\n      0x01\n        /* \"@openzeppelin/contracts-upgradeable/utils/EnumerableSetUpgradeable.sol\":1984:1995  return true */\n      swap1\n      pop\n      jump(tag_268)\n        /* \"@openzeppelin/contracts-upgradeable/utils/EnumerableSetUpgradeable.sol\":1730:2049  if (!_contains(set, value)) {... */\n    tag_270:\n        /* \"@openzeppelin/contracts-upgradeable/utils/EnumerableSetUpgradeable.sol\":2033:2038  false */\n      0x00\n        /* \"@openzeppelin/contracts-upgradeable/utils/EnumerableSetUpgradeable.sol\":2026:2038  return false */\n      swap1\n      pop\n        /* \"@openzeppelin/contracts-upgradeable/utils/EnumerableSetUpgradeable.sol\":1651:2055  function _add(Set storage set, bytes32 value) private returns (bool) {... */\n    tag_268:\n      swap3\n      swap2\n      pop\n      pop\n      jump\t// out\n        /* \"@openzeppelin/contracts-upgradeable/utils/EnumerableSetUpgradeable.sol\":2223:3735  function _remove(Set storage set, bytes32 value) private returns (bool) {... */\n    tag_245:\n        /* \"@openzeppelin/contracts-upgradeable/utils/EnumerableSetUpgradeable.sol\":2289:2293  bool */\n      0x00\n        /* \"@openzeppelin/contracts-upgradeable/utils/EnumerableSetUpgradeable.sol\":2405:2423  uint256 valueIndex */\n      dup1\n        /* \"@openzeppelin/contracts-upgradeable/utils/EnumerableSetUpgradeable.sol\":2426:2429  set */\n      dup4\n        /* \"@openzeppelin/contracts-upgradeable/utils/EnumerableSetUpgradeable.sol\":2426:2438  set._indexes */\n      0x01\n      add\n        /* \"@openzeppelin/contracts-upgradeable/utils/EnumerableSetUpgradeable.sol\":2426:2445  set._indexes[value] */\n      0x00\n        /* \"@openzeppelin/contracts-upgradeable/utils/EnumerableSetUpgradeable.sol\":2439:2444  value */\n      dup5\n        /* \"@openzeppelin/contracts-upgradeable/utils/EnumerableSetUpgradeable.sol\":2426:2445  set._indexes[value] */\n      dup2\n      mstore\n      0x20\n      add\n      swap1\n      dup2\n      mstore\n      0x20\n      add\n      0x00\n      keccak256\n      sload\n        /* \"@openzeppelin/contracts-upgradeable/utils/EnumerableSetUpgradeable.sol\":2405:2445  uint256 valueIndex = set._indexes[value] */\n      swap1\n      pop\n        /* \"@openzeppelin/contracts-upgradeable/utils/EnumerableSetUpgradeable.sol\":2474:2475  0 */\n      0x00\n        /* \"@openzeppelin/contracts-upgradeable/utils/EnumerableSetUpgradeable.sol\":2460:2470  valueIndex */\n      dup2\n        /* \"@openzeppelin/contracts-upgradeable/utils/EnumerableSetUpgradeable.sol\":2460:2475  valueIndex != 0 */\n      eq\n        /* \"@openzeppelin/contracts-upgradeable/utils/EnumerableSetUpgradeable.sol\":2456:3729  if (valueIndex != 0) { // Equivalent to contains(set, value)... */\n      tag_274\n      jumpi\n        /* \"@openzeppelin/contracts-upgradeable/utils/EnumerableSetUpgradeable.sol\":2817:2838  uint256 toDeleteIndex */\n      0x00\n        /* \"@openzeppelin/contracts-upgradeable/utils/EnumerableSetUpgradeable.sol\":2854:2855  1 */\n      0x01\n        /* \"@openzeppelin/contracts-upgradeable/utils/EnumerableSetUpgradeable.sol\":2841:2851  valueIndex */\n      dup3\n        /* \"@openzeppelin/contracts-upgradeable/utils/EnumerableSetUpgradeable.sol\":2841:2855  valueIndex - 1 */\n      sub\n        /* \"@openzeppelin/contracts-upgradeable/utils/EnumerableSetUpgradeable.sol\":2817:2855  uint256 toDeleteIndex = valueIndex - 1 */\n      swap1\n      pop\n        /* \"@openzeppelin/contracts-upgradeable/utils/EnumerableSetUpgradeable.sol\":2869:2886  uint256 lastIndex */\n      0x00\n        /* \"@openzeppelin/contracts-upgradeable/utils/EnumerableSetUpgradeable.sol\":2910:2911  1 */\n      0x01\n        /* \"@openzeppelin/contracts-upgradeable/utils/EnumerableSetUpgradeable.sol\":2889:2892  set */\n      dup7\n        /* \"@openzeppelin/contracts-upgradeable/utils/EnumerableSetUpgradeable.sol\":2889:2900  set._values */\n      0x00\n      add\n        /* \"@openzeppelin/contracts-upgradeable/utils/EnumerableSetUpgradeable.sol\":2889:2907  set._values.length */\n      dup1\n      sload\n      swap1\n      pop\n        /* \"@openzeppelin/contracts-upgradeable/utils/EnumerableSetUpgradeable.sol\":2889:2911  set._values.length - 1 */\n      sub\n        /* \"@openzeppelin/contracts-upgradeable/utils/EnumerableSetUpgradeable.sol\":2869:2911  uint256 lastIndex = set._values.length - 1 */\n      swap1\n      pop\n        /* \"@openzeppelin/contracts-upgradeable/utils/EnumerableSetUpgradeable.sol\":3151:3168  bytes32 lastvalue */\n      0x00\n        /* \"@openzeppelin/contracts-upgradeable/utils/EnumerableSetUpgradeable.sol\":3171:3174  set */\n      dup7\n        /* \"@openzeppelin/contracts-upgradeable/utils/EnumerableSetUpgradeable.sol\":3171:3182  set._values */\n      0x00\n      add\n        /* \"@openzeppelin/contracts-upgradeable/utils/EnumerableSetUpgradeable.sol\":3183:3192  lastIndex */\n      dup3\n        /* \"@openzeppelin/contracts-upgradeable/utils/EnumerableSetUpgradeable.sol\":3171:3193  set._values[lastIndex] */\n      dup2\n      sload\n      dup2\n      lt\n      tag_275\n      jumpi\n      invalid\n    tag_275:\n      swap1\n      0x00\n      mstore\n      keccak256(0x00, 0x20)\n      add\n      sload\n        /* \"@openzeppelin/contracts-upgradeable/utils/EnumerableSetUpgradeable.sol\":3151:3193  bytes32 lastvalue = set._values[lastIndex] */\n      swap1\n      pop\n        /* \"@openzeppelin/contracts-upgradeable/utils/EnumerableSetUpgradeable.sol\":3314:3323  lastvalue */\n      dup1\n        /* \"@openzeppelin/contracts-upgradeable/utils/EnumerableSetUpgradeable.sol\":3285:3288  set */\n      dup8\n        /* \"@openzeppelin/contracts-upgradeable/utils/EnumerableSetUpgradeable.sol\":3285:3296  set._values */\n      0x00\n      add\n        /* \"@openzeppelin/contracts-upgradeable/utils/EnumerableSetUpgradeable.sol\":3297:3310  toDeleteIndex */\n      dup5\n        /* \"@openzeppelin/contracts-upgradeable/utils/EnumerableSetUpgradeable.sol\":3285:3311  set._values[toDeleteIndex] */\n      dup2\n      sload\n      dup2\n      lt\n      tag_277\n      jumpi\n      invalid\n    tag_277:\n      swap1\n      0x00\n      mstore\n      keccak256(0x00, 0x20)\n      add\n        /* \"@openzeppelin/contracts-upgradeable/utils/EnumerableSetUpgradeable.sol\":3285:3323  set._values[toDeleteIndex] = lastvalue */\n      dup2\n      swap1\n      sstore\n      pop\n        /* \"@openzeppelin/contracts-upgradeable/utils/EnumerableSetUpgradeable.sol\":3431:3432  1 */\n      0x01\n        /* \"@openzeppelin/contracts-upgradeable/utils/EnumerableSetUpgradeable.sol\":3415:3428  toDeleteIndex */\n      dup4\n        /* \"@openzeppelin/contracts-upgradeable/utils/EnumerableSetUpgradeable.sol\":3415:3432  toDeleteIndex + 1 */\n      add\n        /* \"@openzeppelin/contracts-upgradeable/utils/EnumerableSetUpgradeable.sol\":3389:3392  set */\n      dup8\n        /* \"@openzeppelin/contracts-upgradeable/utils/EnumerableSetUpgradeable.sol\":3389:3401  set._indexes */\n      0x01\n      add\n        /* \"@openzeppelin/contracts-upgradeable/utils/EnumerableSetUpgradeable.sol\":3389:3412  set._indexes[lastvalue] */\n      0x00\n        /* \"@openzeppelin/contracts-upgradeable/utils/EnumerableSetUpgradeable.sol\":3402:3411  lastvalue */\n      dup4\n        /* \"@openzeppelin/contracts-upgradeable/utils/EnumerableSetUpgradeable.sol\":3389:3412  set._indexes[lastvalue] */\n      dup2\n      mstore\n      0x20\n      add\n      swap1\n      dup2\n      mstore\n      0x20\n      add\n      0x00\n      keccak256\n        /* \"@openzeppelin/contracts-upgradeable/utils/EnumerableSetUpgradeable.sol\":3389:3432  set._indexes[lastvalue] = toDeleteIndex + 1 */\n      dup2\n      swap1\n      sstore\n      pop\n        /* \"@openzeppelin/contracts-upgradeable/utils/EnumerableSetUpgradeable.sol\":3538:3541  set */\n      dup7\n        /* \"@openzeppelin/contracts-upgradeable/utils/EnumerableSetUpgradeable.sol\":3538:3549  set._values */\n      0x00\n      add\n        /* \"@openzeppelin/contracts-upgradeable/utils/EnumerableSetUpgradeable.sol\":3538:3555  set._values.pop() */\n      dup1\n      sload\n      dup1\n      tag_279\n      jumpi\n      invalid\n    tag_279:\n      0x01\n      swap1\n      sub\n      dup2\n      dup2\n      swap1\n      0x00\n      mstore\n      keccak256(0x00, 0x20)\n      add\n      0x00\n      swap1\n      sstore\n      swap1\n      sstore\n        /* \"@openzeppelin/contracts-upgradeable/utils/EnumerableSetUpgradeable.sol\":3630:3633  set */\n      dup7\n        /* \"@openzeppelin/contracts-upgradeable/utils/EnumerableSetUpgradeable.sol\":3630:3642  set._indexes */\n      0x01\n      add\n        /* \"@openzeppelin/contracts-upgradeable/utils/EnumerableSetUpgradeable.sol\":3630:3649  set._indexes[value] */\n      0x00\n        /* \"@openzeppelin/contracts-upgradeable/utils/EnumerableSetUpgradeable.sol\":3643:3648  value */\n      dup8\n        /* \"@openzeppelin/contracts-upgradeable/utils/EnumerableSetUpgradeable.sol\":3630:3649  set._indexes[value] */\n      dup2\n      mstore\n      0x20\n      add\n      swap1\n      dup2\n      mstore\n      0x20\n      add\n      0x00\n      keccak256\n        /* \"@openzeppelin/contracts-upgradeable/utils/EnumerableSetUpgradeable.sol\":3623:3649  delete set._indexes[value] */\n      0x00\n      swap1\n      sstore\n        /* \"@openzeppelin/contracts-upgradeable/utils/EnumerableSetUpgradeable.sol\":3671:3675  true */\n      0x01\n        /* \"@openzeppelin/contracts-upgradeable/utils/EnumerableSetUpgradeable.sol\":3664:3675  return true */\n      swap5\n      pop\n      pop\n      pop\n      pop\n      pop\n      jump(tag_273)\n        /* \"@openzeppelin/contracts-upgradeable/utils/EnumerableSetUpgradeable.sol\":2456:3729  if (valueIndex != 0) { // Equivalent to contains(set, value)... */\n    tag_274:\n        /* \"@openzeppelin/contracts-upgradeable/utils/EnumerableSetUpgradeable.sol\":3713:3718  false */\n      0x00\n        /* \"@openzeppelin/contracts-upgradeable/utils/EnumerableSetUpgradeable.sol\":3706:3718  return false */\n      swap2\n      pop\n      pop\n        /* \"@openzeppelin/contracts-upgradeable/utils/EnumerableSetUpgradeable.sol\":2223:3735  function _remove(Set storage set, bytes32 value) private returns (bool) {... */\n    tag_273:\n      swap3\n      swap2\n      pop\n      pop\n      jump\t// out\n    stop\n    data_045d6834e6193a687012a3ad777f612279e549b6945364d9d2324f48610d3cbb 456e756d657261626c655365743a20696e646578206f7574206f6620626f756e6473\n    data_0ba7116025f1ef6b158a2bd2238e617f30e17c9e456917d901086ca4f8ad2811 416363657373436f6e74726f6c3a2073656e646572206d75737420626520616e2061646d696e20746f206772616e74\n    data_64344570eab7406ca49d34d38bf2b2496dfda914405390c5057c8b0aabf798a3 416363657373436f6e74726f6c3a2073656e646572206d75737420626520616e2061646d696e20746f207265766f6b65\n    data_7a2a4e26842155ea933fe6eb6e3137eb5a296dcdf55721c552be7b4c3cc23759 496e697469616c697a61626c653a20636f6e747261637420697320616c726561647920696e697469616c697a6564\n    data_fb06fa8ff2141e8ed74502f6792273793f25f0e9d3cf15344f3f5a0d4948fd4b 416363657373436f6e74726f6c3a2063616e206f6e6c792072656e6f756e636520726f6c657320666f722073656c66\n\n    auxdata: 0xa2646970667358221220b2854a0fc88c456a9aa5002b1e2eb543f614fba96ec709d456add35aeca58bf564736f6c634300060c0033\n}\n",
				"bytecode": {
					"linkReferences": {},
					"object": "608060405234801561001057600080fd5b50611e58806100206000396000f3fe6080604052600436106101395760003560e01c80636749cb14116100ab578063a20f35141161006f578063a20f351414610689578063a217fddf146106b4578063a3b34bed146106df578063ca15c87314610744578063d547741f14610793578063edd99131146107ee576101bf565b80636749cb141461053c5780638129fc1c146105675780639010d07c1461057e57806391d14854146105ed57806398f42a0b1461065e576101bf565b806336568abe116100fd57806336568abe1461031357806336ff0abc1461036e5780633b8706b71461044657806345bb31ea1461048157806350d895b5146104e657806355b2eb7c14610511576101bf565b806304d72af5146101c4578063248a9ca3146101ef5780632e1a7d4d1461023e5780632f2ff15d1461028d57806333289d10146102e8576101bf565b366101bf5761014b6000801b33610819565b6101bd576040517f08c379a000000000000000000000000000000000000000000000000000000000815260040180806020018281038252601f8152602001807f4d697373696e672044454641554c545f41444d494e5f524f4c4520726f6c650081525060200191505060405180910390fd5b005b600080fd5b3480156101d057600080fd5b506101d961084b565b6040518082815260200191505060405180910390f35b3480156101fb57600080fd5b506102286004803603602081101561021257600080fd5b81019080803590602001909291905050506108e8565b6040518082815260200191505060405180910390f35b34801561024a57600080fd5b506102776004803603602081101561026157600080fd5b8101908080359060200190929190505050610908565b6040518082815260200191505060405180910390f35b34801561029957600080fd5b506102e6600480360360408110156102b057600080fd5b8101908080359060200190929190803573ffffffffffffffffffffffffffffffffffffffff169060200190929190505050610ca9565b005b3480156102f457600080fd5b506102fd610d33565b6040518082815260200191505060405180910390f35b34801561031f57600080fd5b5061036c6004803603604081101561033657600080fd5b8101908080359060200190929190803573ffffffffffffffffffffffffffffffffffffffff169060200190929190505050610d56565b005b6104446004803603606081101561038457600080fd5b8101908080359060200190929190803590602001906401000000008111156103ab57600080fd5b8201836020820111156103bd57600080fd5b803590602001918460208302840111640100000000831117156103df57600080fd5b90919293919293908035906020019064010000000081111561040057600080fd5b82018360208201111561041257600080fd5b8035906020019184602083028401116401000000008311171561043457600080fd5b9091929391929390505050610def565b005b34801561045257600080fd5b5061047f6004803603602081101561046957600080fd5b810190808035906020019092919050505061115c565b005b34801561048d57600080fd5b506104d0600480360360208110156104a457600080fd5b81019080803573ffffffffffffffffffffffffffffffffffffffff1690602001909291905050506111e5565b6040518082815260200191505060405180910390f35b3480156104f257600080fd5b506104fb6111fd565b6040518082815260200191505060405180910390f35b34801561051d57600080fd5b50610526611204565b6040518082815260200191505060405180910390f35b34801561054857600080fd5b50610551611228565b6040518082815260200191505060405180910390f35b34801561057357600080fd5b5061057c611292565b005b34801561058a57600080fd5b506105c1600480360360408110156105a157600080fd5b8101908080359060200190929190803590602001909291905050506113c3565b604051808273ffffffffffffffffffffffffffffffffffffffff16815260200191505060405180910390f35b3480156105f957600080fd5b506106466004803603604081101561061057600080fd5b8101908080359060200190929190803573ffffffffffffffffffffffffffffffffffffffff169060200190929190505050610819565b60405180821515815260200191505060405180910390f35b34801561066a57600080fd5b506106736113f5565b6040518082815260200191505060405180910390f35b34801561069557600080fd5b5061069e6113fb565b6040518082815260200191505060405180910390f35b3480156106c057600080fd5b506106c9611401565b6040518082815260200191505060405180910390f35b3480156106eb57600080fd5b5061072e6004803603602081101561070257600080fd5b81019080803573ffffffffffffffffffffffffffffffffffffffff169060200190929190505050611408565b6040518082815260200191505060405180910390f35b34801561075057600080fd5b5061077d6004803603602081101561076757600080fd5b8101908080359060200190929190505050611420565b6040518082815260200191505060405180910390f35b34801561079f57600080fd5b506107ec600480360360408110156107b657600080fd5b8101908080359060200190929190803573ffffffffffffffffffffffffffffffffffffffff169060200190929190505050611447565b005b3480156107fa57600080fd5b506108036114d1565b6040518082815260200191505060405180910390f35b600061084382603360008681526020019081526020016000206000016114d790919063ffffffff16565b905092915050565b60004262015180606860003373ffffffffffffffffffffffffffffffffffffffff1673ffffffffffffffffffffffffffffffffffffffff168152602001908152602001600020540110156108a257600090506108e5565b606a60003373ffffffffffffffffffffffffffffffffffffffff1673ffffffffffffffffffffffffffffffffffffffff1681526020019081526020016000205490505b90565b600060336000838152602001908152602001600020600201549050919050565b60004262015180606860003373ffffffffffffffffffffffffffffffffffffffff1673ffffffffffffffffffffffffffffffffffffffff168152602001908152602001600020540110156109e05742606860003373ffffffffffffffffffffffffffffffffffffffff1673ffffffffffffffffffffffffffffffffffffffff168152602001908152602001600020819055506000606a60003373ffffffffffffffffffffffffffffffffffffffff1673ffffffffffffffffffffffffffffffffffffffff168152602001908152602001600020819055505b6000610a36606a60003373ffffffffffffffffffffffffffffffffffffffff1673ffffffffffffffffffffffffffffffffffffffff1681526020019081526020016000205460675461150790919063ffffffff16565b90506000839050606960003373ffffffffffffffffffffffffffffffffffffffff1673ffffffffffffffffffffffffffffffffffffffff16815260200190815260200160002054811115610ac757606960003373ffffffffffffffffffffffffffffffffffffffff1673ffffffffffffffffffffffffffffffffffffffff1681526020019081526020016000205490505b81811115610ad3578190505b80606960003373ffffffffffffffffffffffffffffffffffffffff1673ffffffffffffffffffffffffffffffffffffffff1681526020019081526020016000206000828254039250508190555080606660008282540392505081905550610b8281606a60003373ffffffffffffffffffffffffffffffffffffffff1673ffffffffffffffffffffffffffffffffffffffff1681526020019081526020016000205461158a90919063ffffffff16565b606a60003373ffffffffffffffffffffffffffffffffffffffff1673ffffffffffffffffffffffffffffffffffffffff1681526020019081526020016000208190555060003373ffffffffffffffffffffffffffffffffffffffff168260405180600001905060006040518083038185875af1925050503d8060008114610c25576040519150601f19603f3d011682016040523d82523d6000602084013e610c2a565b606091505b5050905080610ca1576040517f08c379a00000000000000000000000000000000000000000000000000000000081526004018080602001828103825260128152602001807f4661696c656420746f2073656e64204d5452000000000000000000000000000081525060200191505060405180910390fd5b505050919050565b610cd06033600084815260200190815260200160002060020154610ccb611612565b610819565b610d25576040517f08c379a000000000000000000000000000000000000000000000000000000000815260040180806020018281038252602f815260200180611d67602f913960400191505060405180910390fd5b610d2f828261161a565b5050565b6000610d51610d4061084b565b60675461150790919063ffffffff16565b905090565b610d5e611612565b73ffffffffffffffffffffffffffffffffffffffff168173ffffffffffffffffffffffffffffffffffffffff1614610de1576040517f08c379a000000000000000000000000000000000000000000000000000000000815260040180806020018281038252602f815260200180611df4602f913960400191505060405180910390fd5b610deb82826116ae565b5050565b610e197ffe72e65b38cd2c74f2a337c2f2d56874d5aa101f1d0af36b5452f862ce5a796933610819565b610e8b576040517f08c379a00000000000000000000000000000000000000000000000000000000081526004018080602001828103825260178152602001807f4d697373696e67205741585f42524944474520726f6c6500000000000000000081525060200191505060405180910390fd5b6065548511610f02576040517f08c379a000000000000000000000000000000000000000000000000000000000815260040180806020018281038252601e8152602001807f57415820636861696e20626c6f636b206e756d206d757374206265206774000081525060200191505060405180910390fd5b818190508484905014610f7d576040517f08c379a00000000000000000000000000000000000000000000000000000000081526004018080602001828103825260188152602001807f4d69736d617463686564206172726179206c656e67746873000000000000000081525060200191505060405180910390fd5b610bb88484905010610ff7576040517f08c379a00000000000000000000000000000000000000000000000000000000081526004018080602001828103825260138152602001807f546f6f206d616e7920726563697069656e74730000000000000000000000000081525060200191505060405180910390fd5b846065819055506000805b858590508110156111385761103284848381811061101c57fe5b905060200201358361158a90919063ffffffff16565b91506110c084848381811061104357fe5b905060200201356069600089898681811061105a57fe5b9050602002013573ffffffffffffffffffffffffffffffffffffffff1673ffffffffffffffffffffffffffffffffffffffff1673ffffffffffffffffffffffffffffffffffffffff1681526020019081526020016000205461158a90919063ffffffff16565b606960008888858181106110d057fe5b9050602002013573ffffffffffffffffffffffffffffffffffffffff1673ffffffffffffffffffffffffffffffffffffffff1673ffffffffffffffffffffffffffffffffffffffff168152602001908152602001600020819055508080600101915050611002565b5061114e8160665461158a90919063ffffffff16565b606681905550505050505050565b6111696000801b33610819565b6111db576040517f08c379a000000000000000000000000000000000000000000000000000000000815260040180806020018281038252601f8152602001807f4d697373696e672044454641554c545f41444d494e5f524f4c4520726f6c650081525060200191505060405180910390fd5b8060678190555050565b60696020528060005260406000206000915090505481565b6201518081565b7ffe72e65b38cd2c74f2a337c2f2d56874d5aa101f1d0af36b5452f862ce5a796981565b60008062015180606860003373ffffffffffffffffffffffffffffffffffffffff1673ffffffffffffffffffffffffffffffffffffffff168152602001908152602001600020540190506000611287428361174290919063ffffffff16565b915050809250505090565b600060019054906101000a900460ff16806112b157506112b061176a565b5b806112c7575060008054906101000a900460ff16155b61131c576040517f08c379a000000000000000000000000000000000000000000000000000000000815260040180806020018281038252602e815260200180611dc6602e913960400191505060405180910390fd5b60008060019054906101000a900460ff16159050801561136c576001600060016101000a81548160ff02191690831515021790555060016000806101000a81548160ff0219169083151502179055505b61137461177b565b6113816000801b33611889565b60006065819055506000606681905550667f1d39a38f8bac60678190555080156113c05760008060016101000a81548160ff0219169083151502179055505b50565b60006113ed826033600086815260200190815260200160002060000161189790919063ffffffff16565b905092915050565b60655481565b60665481565b6000801b81565b60686020528060005260406000206000915090505481565b6000611440603360008481526020019081526020016000206000016118b1565b9050919050565b61146e6033600084815260200190815260200160002060020154611469611612565b610819565b6114c3576040517f08c379a0000000000000000000000000000000000000000000000000000000008152600401808060200182810382526030815260200180611d966030913960400191505060405180910390fd5b6114cd82826116ae565b5050565b60675481565b60006114ff836000018373ffffffffffffffffffffffffffffffffffffffff1660001b6118c6565b905092915050565b60008282111561157f576040517f08c379a000000000000000000000000000000000000000000000000000000000815260040180806020018281038252601e8152602001807f536166654d6174683a207375627472616374696f6e206f766572666c6f77000081525060200191505060405180910390fd5b818303905092915050565b600080828401905083811015611608576040517f08c379a000000000000000000000000000000000000000000000000000000000815260040180806020018281038252601b8152602001807f536166654d6174683a206164646974696f6e206f766572666c6f77000000000081525060200191505060405180910390fd5b8091505092915050565b600033905090565b61164281603360008581526020019081526020016000206000016118e990919063ffffffff16565b156116aa5761164f611612565b73ffffffffffffffffffffffffffffffffffffffff168173ffffffffffffffffffffffffffffffffffffffff16837f2f8788117e7eff1d82e926ec794901d17c78024a50270940304540a733656f0d60405160405180910390a45b5050565b6116d6816033600085815260200190815260200160002060000161191990919063ffffffff16565b1561173e576116e3611612565b73ffffffffffffffffffffffffffffffffffffffff168173ffffffffffffffffffffffffffffffffffffffff16837ff6391f5c32d9c69d2a47ea670b442974b53935d1edc7fd64eb21e047a839171b60405160405180910390a45b5050565b600080838311156117595760008091509150611763565b6001838503915091505b9250929050565b600061177530611949565b15905090565b600060019054906101000a900460ff168061179a575061179961176a565b5b806117b0575060008054906101000a900460ff16155b611805576040517f08c379a000000000000000000000000000000000000000000000000000000000815260040180806020018281038252602e815260200180611dc6602e913960400191505060405180910390fd5b60008060019054906101000a900460ff161590508015611855576001600060016101000a81548160ff02191690831515021790555060016000806101000a81548160ff0219169083151502179055505b61185d61195c565b611865611a5a565b80156118865760008060016101000a81548160ff0219169083151502179055505b50565b611893828261161a565b5050565b60006118a68360000183611b58565b60001c905092915050565b60006118bf82600001611bdb565b9050919050565b600080836001016000848152602001908152602001600020541415905092915050565b6000611911836000018373ffffffffffffffffffffffffffffffffffffffff1660001b611bec565b905092915050565b6000611941836000018373ffffffffffffffffffffffffffffffffffffffff1660001b611c5c565b905092915050565b600080823b905060008111915050919050565b600060019054906101000a900460ff168061197b575061197a61176a565b5b80611991575060008054906101000a900460ff16155b6119e6576040517f08c379a000000000000000000000000000000000000000000000000000000000815260040180806020018281038252602e815260200180611dc6602e913960400191505060405180910390fd5b60008060019054906101000a900460ff161590508015611a36576001600060016101000a81548160ff02191690831515021790555060016000806101000a81548160ff0219169083151502179055505b8015611a575760008060016101000a81548160ff0219169083151502179055505b50565b600060019054906101000a900460ff1680611a795750611a7861176a565b5b80611a8f575060008054906101000a900460ff16155b611ae4576040517f08c379a000000000000000000000000000000000000000000000000000000000815260040180806020018281038252602e815260200180611dc6602e913960400191505060405180910390fd5b60008060019054906101000a900460ff161590508015611b34576001600060016101000a81548160ff02191690831515021790555060016000806101000a81548160ff0219169083151502179055505b8015611b555760008060016101000a81548160ff0219169083151502179055505b50565b600081836000018054905011611bb9576040517f08c379a0000000000000000000000000000000000000000000000000000000008152600401808060200182810382526022815260200180611d456022913960400191505060405180910390fd5b826000018281548110611bc857fe5b9060005260206000200154905092915050565b600081600001805490509050919050565b6000611bf883836118c6565b611c51578260000182908060018154018082558091505060019003906000526020600020016000909190919091505582600001805490508360010160008481526020019081526020016000208190555060019050611c56565b600090505b92915050565b60008083600101600084815260200190815260200160002054905060008114611d385760006001820390506000600186600001805490500390506000866000018281548110611ca757fe5b9060005260206000200154905080876000018481548110611cc457fe5b9060005260206000200181905550600183018760010160008381526020019081526020016000208190555086600001805480611cfc57fe5b60019003818190600052602060002001600090559055866001016000878152602001908152602001600020600090556001945050505050611d3e565b60009150505b9291505056fe456e756d657261626c655365743a20696e646578206f7574206f6620626f756e6473416363657373436f6e74726f6c3a2073656e646572206d75737420626520616e2061646d696e20746f206772616e74416363657373436f6e74726f6c3a2073656e646572206d75737420626520616e2061646d696e20746f207265766f6b65496e697469616c697a61626c653a20636f6e747261637420697320616c726561647920696e697469616c697a6564416363657373436f6e74726f6c3a2063616e206f6e6c792072656e6f756e636520726f6c657320666f722073656c66a2646970667358221220b2854a0fc88c456a9aa5002b1e2eb543f614fba96ec709d456add35aeca58bf564736f6c634300060c0033",
					"opcodes": "PUSH1 0x80 PUSH1 0x40 MSTORE CALLVALUE DUP1 ISZERO PUSH2 0x10 JUMPI PUSH1 0x0 DUP1 REVERT JUMPDEST POP PUSH2 0x1E58 DUP1 PUSH2 0x20 PUSH1 0x0 CODECOPY PUSH1 0x0 RETURN INVALID PUSH1 0x80 PUSH1 0x40 MSTORE PUSH1 0x4 CALLDATASIZE LT PUSH2 0x139 JUMPI PUSH1 0x0 CALLDATALOAD PUSH1 0xE0 SHR DUP1 PUSH4 0x6749CB14 GT PUSH2 0xAB JUMPI DUP1 PUSH4 0xA20F3514 GT PUSH2 0x6F JUMPI DUP1 PUSH4 0xA20F3514 EQ PUSH2 0x689 JUMPI DUP1 PUSH4 0xA217FDDF EQ PUSH2 0x6B4 JUMPI DUP1 PUSH4 0xA3B34BED EQ PUSH2 0x6DF JUMPI DUP1 PUSH4 0xCA15C873 EQ PUSH2 0x744 JUMPI DUP1 PUSH4 0xD547741F EQ PUSH2 0x793 JUMPI DUP1 PUSH4 0xEDD99131 EQ PUSH2 0x7EE JUMPI PUSH2 0x1BF JUMP JUMPDEST DUP1 PUSH4 0x6749CB14 EQ PUSH2 0x53C JUMPI DUP1 PUSH4 0x8129FC1C EQ PUSH2 0x567 JUMPI DUP1 PUSH4 0x9010D07C EQ PUSH2 0x57E JUMPI DUP1 PUSH4 0x91D14854 EQ PUSH2 0x5ED JUMPI DUP1 PUSH4 0x98F42A0B EQ PUSH2 0x65E JUMPI PUSH2 0x1BF JUMP JUMPDEST DUP1 PUSH4 0x36568ABE GT PUSH2 0xFD JUMPI DUP1 PUSH4 0x36568ABE EQ PUSH2 0x313 JUMPI DUP1 PUSH4 0x36FF0ABC EQ PUSH2 0x36E JUMPI DUP1 PUSH4 0x3B8706B7 EQ PUSH2 0x446 JUMPI DUP1 PUSH4 0x45BB31EA EQ PUSH2 0x481 JUMPI DUP1 PUSH4 0x50D895B5 EQ PUSH2 0x4E6 JUMPI DUP1 PUSH4 0x55B2EB7C EQ PUSH2 0x511 JUMPI PUSH2 0x1BF JUMP JUMPDEST DUP1 PUSH4 0x4D72AF5 EQ PUSH2 0x1C4 JUMPI DUP1 PUSH4 0x248A9CA3 EQ PUSH2 0x1EF JUMPI DUP1 PUSH4 0x2E1A7D4D EQ PUSH2 0x23E JUMPI DUP1 PUSH4 0x2F2FF15D EQ PUSH2 0x28D JUMPI DUP1 PUSH4 0x33289D10 EQ PUSH2 0x2E8 JUMPI PUSH2 0x1BF JUMP JUMPDEST CALLDATASIZE PUSH2 0x1BF JUMPI PUSH2 0x14B PUSH1 0x0 DUP1 SHL CALLER PUSH2 0x819 JUMP JUMPDEST PUSH2 0x1BD JUMPI PUSH1 0x40 MLOAD PUSH32 0x8C379A000000000000000000000000000000000000000000000000000000000 DUP2 MSTORE PUSH1 0x4 ADD DUP1 DUP1 PUSH1 0x20 ADD DUP3 DUP2 SUB DUP3 MSTORE PUSH1 0x1F DUP2 MSTORE PUSH1 0x20 ADD DUP1 PUSH32 0x4D697373696E672044454641554C545F41444D494E5F524F4C4520726F6C6500 DUP2 MSTORE POP PUSH1 0x20 ADD SWAP2 POP POP PUSH1 0x40 MLOAD DUP1 SWAP2 SUB SWAP1 REVERT JUMPDEST STOP JUMPDEST PUSH1 0x0 DUP1 REVERT JUMPDEST CALLVALUE DUP1 ISZERO PUSH2 0x1D0 JUMPI PUSH1 0x0 DUP1 REVERT JUMPDEST POP PUSH2 0x1D9 PUSH2 0x84B JUMP JUMPDEST PUSH1 0x40 MLOAD DUP1 DUP3 DUP2 MSTORE PUSH1 0x20 ADD SWAP2 POP POP PUSH1 0x40 MLOAD DUP1 SWAP2 SUB SWAP1 RETURN JUMPDEST CALLVALUE DUP1 ISZERO PUSH2 0x1FB JUMPI PUSH1 0x0 DUP1 REVERT JUMPDEST POP PUSH2 0x228 PUSH1 0x4 DUP1 CALLDATASIZE SUB PUSH1 0x20 DUP2 LT ISZERO PUSH2 0x212 JUMPI PUSH1 0x0 DUP1 REVERT JUMPDEST DUP2 ADD SWAP1 DUP1 DUP1 CALLDATALOAD SWAP1 PUSH1 0x20 ADD SWAP1 SWAP3 SWAP2 SWAP1 POP POP POP PUSH2 0x8E8 JUMP JUMPDEST PUSH1 0x40 MLOAD DUP1 DUP3 DUP2 MSTORE PUSH1 0x20 ADD SWAP2 POP POP PUSH1 0x40 MLOAD DUP1 SWAP2 SUB SWAP1 RETURN JUMPDEST CALLVALUE DUP1 ISZERO PUSH2 0x24A JUMPI PUSH1 0x0 DUP1 REVERT JUMPDEST POP PUSH2 0x277 PUSH1 0x4 DUP1 CALLDATASIZE SUB PUSH1 0x20 DUP2 LT ISZERO PUSH2 0x261 JUMPI PUSH1 0x0 DUP1 REVERT JUMPDEST DUP2 ADD SWAP1 DUP1 DUP1 CALLDATALOAD SWAP1 PUSH1 0x20 ADD SWAP1 SWAP3 SWAP2 SWAP1 POP POP POP PUSH2 0x908 JUMP JUMPDEST PUSH1 0x40 MLOAD DUP1 DUP3 DUP2 MSTORE PUSH1 0x20 ADD SWAP2 POP POP PUSH1 0x40 MLOAD DUP1 SWAP2 SUB SWAP1 RETURN JUMPDEST CALLVALUE DUP1 ISZERO PUSH2 0x299 JUMPI PUSH1 0x0 DUP1 REVERT JUMPDEST POP PUSH2 0x2E6 PUSH1 0x4 DUP1 CALLDATASIZE SUB PUSH1 0x40 DUP2 LT ISZERO PUSH2 0x2B0 JUMPI PUSH1 0x0 DUP1 REVERT JUMPDEST DUP2 ADD SWAP1 DUP1 DUP1 CALLDATALOAD SWAP1 PUSH1 0x20 ADD SWAP1 SWAP3 SWAP2 SWAP1 DUP1 CALLDATALOAD PUSH20 0xFFFFFFFFFFFFFFFFFFFFFFFFFFFFFFFFFFFFFFFF AND SWAP1 PUSH1 0x20 ADD SWAP1 SWAP3 SWAP2 SWAP1 POP POP POP PUSH2 0xCA9 JUMP JUMPDEST STOP JUMPDEST CALLVALUE DUP1 ISZERO PUSH2 0x2F4 JUMPI PUSH1 0x0 DUP1 REVERT JUMPDEST POP PUSH2 0x2FD PUSH2 0xD33 JUMP JUMPDEST PUSH1 0x40 MLOAD DUP1 DUP3 DUP2 MSTORE PUSH1 0x20 ADD SWAP2 POP POP PUSH1 0x40 MLOAD DUP1 SWAP2 SUB SWAP1 RETURN JUMPDEST CALLVALUE DUP1 ISZERO PUSH2 0x31F JUMPI PUSH1 0x0 DUP1 REVERT JUMPDEST POP PUSH2 0x36C PUSH1 0x4 DUP1 CALLDATASIZE SUB PUSH1 0x40 DUP2 LT ISZERO PUSH2 0x336 JUMPI PUSH1 0x0 DUP1 REVERT JUMPDEST DUP2 ADD SWAP1 DUP1 DUP1 CALLDATALOAD SWAP1 PUSH1 0x20 ADD SWAP1 SWAP3 SWAP2 SWAP1 DUP1 CALLDATALOAD PUSH20 0xFFFFFFFFFFFFFFFFFFFFFFFFFFFFFFFFFFFFFFFF AND SWAP1 PUSH1 0x20 ADD SWAP1 SWAP3 SWAP2 SWAP1 POP POP POP PUSH2 0xD56 JUMP JUMPDEST STOP JUMPDEST PUSH2 0x444 PUSH1 0x4 DUP1 CALLDATASIZE SUB PUSH1 0x60 DUP2 LT ISZERO PUSH2 0x384 JUMPI PUSH1 0x0 DUP1 REVERT JUMPDEST DUP2 ADD SWAP1 DUP1 DUP1 CALLDATALOAD SWAP1 PUSH1 0x20 ADD SWAP1 SWAP3 SWAP2 SWAP1 DUP1 CALLDATALOAD SWAP1 PUSH1 0x20 ADD SWAP1 PUSH5 0x100000000 DUP2 GT ISZERO PUSH2 0x3AB JUMPI PUSH1 0x0 DUP1 REVERT JUMPDEST DUP3 ADD DUP4 PUSH1 0x20 DUP3 ADD GT ISZERO PUSH2 0x3BD JUMPI PUSH1 0x0 DUP1 REVERT JUMPDEST DUP1 CALLDATALOAD SWAP1 PUSH1 0x20 ADD SWAP2 DUP5 PUSH1 0x20 DUP4 MUL DUP5 ADD GT PUSH5 0x100000000 DUP4 GT OR ISZERO PUSH2 0x3DF JUMPI PUSH1 0x0 DUP1 REVERT JUMPDEST SWAP1 SWAP2 SWAP3 SWAP4 SWAP2 SWAP3 SWAP4 SWAP1 DUP1 CALLDATALOAD SWAP1 PUSH1 0x20 ADD SWAP1 PUSH5 0x100000000 DUP2 GT ISZERO PUSH2 0x400 JUMPI PUSH1 0x0 DUP1 REVERT JUMPDEST DUP3 ADD DUP4 PUSH1 0x20 DUP3 ADD GT ISZERO PUSH2 0x412 JUMPI PUSH1 0x0 DUP1 REVERT JUMPDEST DUP1 CALLDATALOAD SWAP1 PUSH1 0x20 ADD SWAP2 DUP5 PUSH1 0x20 DUP4 MUL DUP5 ADD GT PUSH5 0x100000000 DUP4 GT OR ISZERO PUSH2 0x434 JUMPI PUSH1 0x0 DUP1 REVERT JUMPDEST SWAP1 SWAP2 SWAP3 SWAP4 SWAP2 SWAP3 SWAP4 SWAP1 POP POP POP PUSH2 0xDEF JUMP JUMPDEST STOP JUMPDEST CALLVALUE DUP1 ISZERO PUSH2 0x452 JUMPI PUSH1 0x0 DUP1 REVERT JUMPDEST POP PUSH2 0x47F PUSH1 0x4 DUP1 CALLDATASIZE SUB PUSH1 0x20 DUP2 LT ISZERO PUSH2 0x469 JUMPI PUSH1 0x0 DUP1 REVERT JUMPDEST DUP2 ADD SWAP1 DUP1 DUP1 CALLDATALOAD SWAP1 PUSH1 0x20 ADD SWAP1 SWAP3 SWAP2 SWAP1 POP POP POP PUSH2 0x115C JUMP JUMPDEST STOP JUMPDEST CALLVALUE DUP1 ISZERO PUSH2 0x48D JUMPI PUSH1 0x0 DUP1 REVERT JUMPDEST POP PUSH2 0x4D0 PUSH1 0x4 DUP1 CALLDATASIZE SUB PUSH1 0x20 DUP2 LT ISZERO PUSH2 0x4A4 JUMPI PUSH1 0x0 DUP1 REVERT JUMPDEST DUP2 ADD SWAP1 DUP1 DUP1 CALLDATALOAD PUSH20 0xFFFFFFFFFFFFFFFFFFFFFFFFFFFFFFFFFFFFFFFF AND SWAP1 PUSH1 0x20 ADD SWAP1 SWAP3 SWAP2 SWAP1 POP POP POP PUSH2 0x11E5 JUMP JUMPDEST PUSH1 0x40 MLOAD DUP1 DUP3 DUP2 MSTORE PUSH1 0x20 ADD SWAP2 POP POP PUSH1 0x40 MLOAD DUP1 SWAP2 SUB SWAP1 RETURN JUMPDEST CALLVALUE DUP1 ISZERO PUSH2 0x4F2 JUMPI PUSH1 0x0 DUP1 REVERT JUMPDEST POP PUSH2 0x4FB PUSH2 0x11FD JUMP JUMPDEST PUSH1 0x40 MLOAD DUP1 DUP3 DUP2 MSTORE PUSH1 0x20 ADD SWAP2 POP POP PUSH1 0x40 MLOAD DUP1 SWAP2 SUB SWAP1 RETURN JUMPDEST CALLVALUE DUP1 ISZERO PUSH2 0x51D JUMPI PUSH1 0x0 DUP1 REVERT JUMPDEST POP PUSH2 0x526 PUSH2 0x1204 JUMP JUMPDEST PUSH1 0x40 MLOAD DUP1 DUP3 DUP2 MSTORE PUSH1 0x20 ADD SWAP2 POP POP PUSH1 0x40 MLOAD DUP1 SWAP2 SUB SWAP1 RETURN JUMPDEST CALLVALUE DUP1 ISZERO PUSH2 0x548 JUMPI PUSH1 0x0 DUP1 REVERT JUMPDEST POP PUSH2 0x551 PUSH2 0x1228 JUMP JUMPDEST PUSH1 0x40 MLOAD DUP1 DUP3 DUP2 MSTORE PUSH1 0x20 ADD SWAP2 POP POP PUSH1 0x40 MLOAD DUP1 SWAP2 SUB SWAP1 RETURN JUMPDEST CALLVALUE DUP1 ISZERO PUSH2 0x573 JUMPI PUSH1 0x0 DUP1 REVERT JUMPDEST POP PUSH2 0x57C PUSH2 0x1292 JUMP JUMPDEST STOP JUMPDEST CALLVALUE DUP1 ISZERO PUSH2 0x58A JUMPI PUSH1 0x0 DUP1 REVERT JUMPDEST POP PUSH2 0x5C1 PUSH1 0x4 DUP1 CALLDATASIZE SUB PUSH1 0x40 DUP2 LT ISZERO PUSH2 0x5A1 JUMPI PUSH1 0x0 DUP1 REVERT JUMPDEST DUP2 ADD SWAP1 DUP1 DUP1 CALLDATALOAD SWAP1 PUSH1 0x20 ADD SWAP1 SWAP3 SWAP2 SWAP1 DUP1 CALLDATALOAD SWAP1 PUSH1 0x20 ADD SWAP1 SWAP3 SWAP2 SWAP1 POP POP POP PUSH2 0x13C3 JUMP JUMPDEST PUSH1 0x40 MLOAD DUP1 DUP3 PUSH20 0xFFFFFFFFFFFFFFFFFFFFFFFFFFFFFFFFFFFFFFFF AND DUP2 MSTORE PUSH1 0x20 ADD SWAP2 POP POP PUSH1 0x40 MLOAD DUP1 SWAP2 SUB SWAP1 RETURN JUMPDEST CALLVALUE DUP1 ISZERO PUSH2 0x5F9 JUMPI PUSH1 0x0 DUP1 REVERT JUMPDEST POP PUSH2 0x646 PUSH1 0x4 DUP1 CALLDATASIZE SUB PUSH1 0x40 DUP2 LT ISZERO PUSH2 0x610 JUMPI PUSH1 0x0 DUP1 REVERT JUMPDEST DUP2 ADD SWAP1 DUP1 DUP1 CALLDATALOAD SWAP1 PUSH1 0x20 ADD SWAP1 SWAP3 SWAP2 SWAP1 DUP1 CALLDATALOAD PUSH20 0xFFFFFFFFFFFFFFFFFFFFFFFFFFFFFFFFFFFFFFFF AND SWAP1 PUSH1 0x20 ADD SWAP1 SWAP3 SWAP2 SWAP1 POP POP POP PUSH2 0x819 JUMP JUMPDEST PUSH1 0x40 MLOAD DUP1 DUP3 ISZERO ISZERO DUP2 MSTORE PUSH1 0x20 ADD SWAP2 POP POP PUSH1 0x40 MLOAD DUP1 SWAP2 SUB SWAP1 RETURN JUMPDEST CALLVALUE DUP1 ISZERO PUSH2 0x66A JUMPI PUSH1 0x0 DUP1 REVERT JUMPDEST POP PUSH2 0x673 PUSH2 0x13F5 JUMP JUMPDEST PUSH1 0x40 MLOAD DUP1 DUP3 DUP2 MSTORE PUSH1 0x20 ADD SWAP2 POP POP PUSH1 0x40 MLOAD DUP1 SWAP2 SUB SWAP1 RETURN JUMPDEST CALLVALUE DUP1 ISZERO PUSH2 0x695 JUMPI PUSH1 0x0 DUP1 REVERT JUMPDEST POP PUSH2 0x69E PUSH2 0x13FB JUMP JUMPDEST PUSH1 0x40 MLOAD DUP1 DUP3 DUP2 MSTORE PUSH1 0x20 ADD SWAP2 POP POP PUSH1 0x40 MLOAD DUP1 SWAP2 SUB SWAP1 RETURN JUMPDEST CALLVALUE DUP1 ISZERO PUSH2 0x6C0 JUMPI PUSH1 0x0 DUP1 REVERT JUMPDEST POP PUSH2 0x6C9 PUSH2 0x1401 JUMP JUMPDEST PUSH1 0x40 MLOAD DUP1 DUP3 DUP2 MSTORE PUSH1 0x20 ADD SWAP2 POP POP PUSH1 0x40 MLOAD DUP1 SWAP2 SUB SWAP1 RETURN JUMPDEST CALLVALUE DUP1 ISZERO PUSH2 0x6EB JUMPI PUSH1 0x0 DUP1 REVERT JUMPDEST POP PUSH2 0x72E PUSH1 0x4 DUP1 CALLDATASIZE SUB PUSH1 0x20 DUP2 LT ISZERO PUSH2 0x702 JUMPI PUSH1 0x0 DUP1 REVERT JUMPDEST DUP2 ADD SWAP1 DUP1 DUP1 CALLDATALOAD PUSH20 0xFFFFFFFFFFFFFFFFFFFFFFFFFFFFFFFFFFFFFFFF AND SWAP1 PUSH1 0x20 ADD SWAP1 SWAP3 SWAP2 SWAP1 POP POP POP PUSH2 0x1408 JUMP JUMPDEST PUSH1 0x40 MLOAD DUP1 DUP3 DUP2 MSTORE PUSH1 0x20 ADD SWAP2 POP POP PUSH1 0x40 MLOAD DUP1 SWAP2 SUB SWAP1 RETURN JUMPDEST CALLVALUE DUP1 ISZERO PUSH2 0x750 JUMPI PUSH1 0x0 DUP1 REVERT JUMPDEST POP PUSH2 0x77D PUSH1 0x4 DUP1 CALLDATASIZE SUB PUSH1 0x20 DUP2 LT ISZERO PUSH2 0x767 JUMPI PUSH1 0x0 DUP1 REVERT JUMPDEST DUP2 ADD SWAP1 DUP1 DUP1 CALLDATALOAD SWAP1 PUSH1 0x20 ADD SWAP1 SWAP3 SWAP2 SWAP1 POP POP POP PUSH2 0x1420 JUMP JUMPDEST PUSH1 0x40 MLOAD DUP1 DUP3 DUP2 MSTORE PUSH1 0x20 ADD SWAP2 POP POP PUSH1 0x40 MLOAD DUP1 SWAP2 SUB SWAP1 RETURN JUMPDEST CALLVALUE DUP1 ISZERO PUSH2 0x79F JUMPI PUSH1 0x0 DUP1 REVERT JUMPDEST POP PUSH2 0x7EC PUSH1 0x4 DUP1 CALLDATASIZE SUB PUSH1 0x40 DUP2 LT ISZERO PUSH2 0x7B6 JUMPI PUSH1 0x0 DUP1 REVERT JUMPDEST DUP2 ADD SWAP1 DUP1 DUP1 CALLDATALOAD SWAP1 PUSH1 0x20 ADD SWAP1 SWAP3 SWAP2 SWAP1 DUP1 CALLDATALOAD PUSH20 0xFFFFFFFFFFFFFFFFFFFFFFFFFFFFFFFFFFFFFFFF AND SWAP1 PUSH1 0x20 ADD SWAP1 SWAP3 SWAP2 SWAP1 POP POP POP PUSH2 0x1447 JUMP JUMPDEST STOP JUMPDEST CALLVALUE DUP1 ISZERO PUSH2 0x7FA JUMPI PUSH1 0x0 DUP1 REVERT JUMPDEST POP PUSH2 0x803 PUSH2 0x14D1 JUMP JUMPDEST PUSH1 0x40 MLOAD DUP1 DUP3 DUP2 MSTORE PUSH1 0x20 ADD SWAP2 POP POP PUSH1 0x40 MLOAD DUP1 SWAP2 SUB SWAP1 RETURN JUMPDEST PUSH1 0x0 PUSH2 0x843 DUP3 PUSH1 0x33 PUSH1 0x0 DUP7 DUP2 MSTORE PUSH1 0x20 ADD SWAP1 DUP2 MSTORE PUSH1 0x20 ADD PUSH1 0x0 KECCAK256 PUSH1 0x0 ADD PUSH2 0x14D7 SWAP1 SWAP2 SWAP1 PUSH4 0xFFFFFFFF AND JUMP JUMPDEST SWAP1 POP SWAP3 SWAP2 POP POP JUMP JUMPDEST PUSH1 0x0 TIMESTAMP PUSH3 0x15180 PUSH1 0x68 PUSH1 0x0 CALLER PUSH20 0xFFFFFFFFFFFFFFFFFFFFFFFFFFFFFFFFFFFFFFFF AND PUSH20 0xFFFFFFFFFFFFFFFFFFFFFFFFFFFFFFFFFFFFFFFF AND DUP2 MSTORE PUSH1 0x20 ADD SWAP1 DUP2 MSTORE PUSH1 0x20 ADD PUSH1 0x0 KECCAK256 SLOAD ADD LT ISZERO PUSH2 0x8A2 JUMPI PUSH1 0x0 SWAP1 POP PUSH2 0x8E5 JUMP JUMPDEST PUSH1 0x6A PUSH1 0x0 CALLER PUSH20 0xFFFFFFFFFFFFFFFFFFFFFFFFFFFFFFFFFFFFFFFF AND PUSH20 0xFFFFFFFFFFFFFFFFFFFFFFFFFFFFFFFFFFFFFFFF AND DUP2 MSTORE PUSH1 0x20 ADD SWAP1 DUP2 MSTORE PUSH1 0x20 ADD PUSH1 0x0 KECCAK256 SLOAD SWAP1 POP JUMPDEST SWAP1 JUMP JUMPDEST PUSH1 0x0 PUSH1 0x33 PUSH1 0x0 DUP4 DUP2 MSTORE PUSH1 0x20 ADD SWAP1 DUP2 MSTORE PUSH1 0x20 ADD PUSH1 0x0 KECCAK256 PUSH1 0x2 ADD SLOAD SWAP1 POP SWAP2 SWAP1 POP JUMP JUMPDEST PUSH1 0x0 TIMESTAMP PUSH3 0x15180 PUSH1 0x68 PUSH1 0x0 CALLER PUSH20 0xFFFFFFFFFFFFFFFFFFFFFFFFFFFFFFFFFFFFFFFF AND PUSH20 0xFFFFFFFFFFFFFFFFFFFFFFFFFFFFFFFFFFFFFFFF AND DUP2 MSTORE PUSH1 0x20 ADD SWAP1 DUP2 MSTORE PUSH1 0x20 ADD PUSH1 0x0 KECCAK256 SLOAD ADD LT ISZERO PUSH2 0x9E0 JUMPI TIMESTAMP PUSH1 0x68 PUSH1 0x0 CALLER PUSH20 0xFFFFFFFFFFFFFFFFFFFFFFFFFFFFFFFFFFFFFFFF AND PUSH20 0xFFFFFFFFFFFFFFFFFFFFFFFFFFFFFFFFFFFFFFFF AND DUP2 MSTORE PUSH1 0x20 ADD SWAP1 DUP2 MSTORE PUSH1 0x20 ADD PUSH1 0x0 KECCAK256 DUP2 SWAP1 SSTORE POP PUSH1 0x0 PUSH1 0x6A PUSH1 0x0 CALLER PUSH20 0xFFFFFFFFFFFFFFFFFFFFFFFFFFFFFFFFFFFFFFFF AND PUSH20 0xFFFFFFFFFFFFFFFFFFFFFFFFFFFFFFFFFFFFFFFF AND DUP2 MSTORE PUSH1 0x20 ADD SWAP1 DUP2 MSTORE PUSH1 0x20 ADD PUSH1 0x0 KECCAK256 DUP2 SWAP1 SSTORE POP JUMPDEST PUSH1 0x0 PUSH2 0xA36 PUSH1 0x6A PUSH1 0x0 CALLER PUSH20 0xFFFFFFFFFFFFFFFFFFFFFFFFFFFFFFFFFFFFFFFF AND PUSH20 0xFFFFFFFFFFFFFFFFFFFFFFFFFFFFFFFFFFFFFFFF AND DUP2 MSTORE PUSH1 0x20 ADD SWAP1 DUP2 MSTORE PUSH1 0x20 ADD PUSH1 0x0 KECCAK256 SLOAD PUSH1 0x67 SLOAD PUSH2 0x1507 SWAP1 SWAP2 SWAP1 PUSH4 0xFFFFFFFF AND JUMP JUMPDEST SWAP1 POP PUSH1 0x0 DUP4 SWAP1 POP PUSH1 0x69 PUSH1 0x0 CALLER PUSH20 0xFFFFFFFFFFFFFFFFFFFFFFFFFFFFFFFFFFFFFFFF AND PUSH20 0xFFFFFFFFFFFFFFFFFFFFFFFFFFFFFFFFFFFFFFFF AND DUP2 MSTORE PUSH1 0x20 ADD SWAP1 DUP2 MSTORE PUSH1 0x20 ADD PUSH1 0x0 KECCAK256 SLOAD DUP2 GT ISZERO PUSH2 0xAC7 JUMPI PUSH1 0x69 PUSH1 0x0 CALLER PUSH20 0xFFFFFFFFFFFFFFFFFFFFFFFFFFFFFFFFFFFFFFFF AND PUSH20 0xFFFFFFFFFFFFFFFFFFFFFFFFFFFFFFFFFFFFFFFF AND DUP2 MSTORE PUSH1 0x20 ADD SWAP1 DUP2 MSTORE PUSH1 0x20 ADD PUSH1 0x0 KECCAK256 SLOAD SWAP1 POP JUMPDEST DUP2 DUP2 GT ISZERO PUSH2 0xAD3 JUMPI DUP2 SWAP1 POP JUMPDEST DUP1 PUSH1 0x69 PUSH1 0x0 CALLER PUSH20 0xFFFFFFFFFFFFFFFFFFFFFFFFFFFFFFFFFFFFFFFF AND PUSH20 0xFFFFFFFFFFFFFFFFFFFFFFFFFFFFFFFFFFFFFFFF AND DUP2 MSTORE PUSH1 0x20 ADD SWAP1 DUP2 MSTORE PUSH1 0x20 ADD PUSH1 0x0 KECCAK256 PUSH1 0x0 DUP3 DUP3 SLOAD SUB SWAP3 POP POP DUP2 SWAP1 SSTORE POP DUP1 PUSH1 0x66 PUSH1 0x0 DUP3 DUP3 SLOAD SUB SWAP3 POP POP DUP2 SWAP1 SSTORE POP PUSH2 0xB82 DUP2 PUSH1 0x6A PUSH1 0x0 CALLER PUSH20 0xFFFFFFFFFFFFFFFFFFFFFFFFFFFFFFFFFFFFFFFF AND PUSH20 0xFFFFFFFFFFFFFFFFFFFFFFFFFFFFFFFFFFFFFFFF AND DUP2 MSTORE PUSH1 0x20 ADD SWAP1 DUP2 MSTORE PUSH1 0x20 ADD PUSH1 0x0 KECCAK256 SLOAD PUSH2 0x158A SWAP1 SWAP2 SWAP1 PUSH4 0xFFFFFFFF AND JUMP JUMPDEST PUSH1 0x6A PUSH1 0x0 CALLER PUSH20 0xFFFFFFFFFFFFFFFFFFFFFFFFFFFFFFFFFFFFFFFF AND PUSH20 0xFFFFFFFFFFFFFFFFFFFFFFFFFFFFFFFFFFFFFFFF AND DUP2 MSTORE PUSH1 0x20 ADD SWAP1 DUP2 MSTORE PUSH1 0x20 ADD PUSH1 0x0 KECCAK256 DUP2 SWAP1 SSTORE POP PUSH1 0x0 CALLER PUSH20 0xFFFFFFFFFFFFFFFFFFFFFFFFFFFFFFFFFFFFFFFF AND DUP3 PUSH1 0x40 MLOAD DUP1 PUSH1 0x0 ADD SWAP1 POP PUSH1 0x0 PUSH1 0x40 MLOAD DUP1 DUP4 SUB DUP2 DUP6 DUP8 GAS CALL SWAP3 POP POP POP RETURNDATASIZE DUP1 PUSH1 0x0 DUP2 EQ PUSH2 0xC25 JUMPI PUSH1 0x40 MLOAD SWAP2 POP PUSH1 0x1F NOT PUSH1 0x3F RETURNDATASIZE ADD AND DUP3 ADD PUSH1 0x40 MSTORE RETURNDATASIZE DUP3 MSTORE RETURNDATASIZE PUSH1 0x0 PUSH1 0x20 DUP5 ADD RETURNDATACOPY PUSH2 0xC2A JUMP JUMPDEST PUSH1 0x60 SWAP2 POP JUMPDEST POP POP SWAP1 POP DUP1 PUSH2 0xCA1 JUMPI PUSH1 0x40 MLOAD PUSH32 0x8C379A000000000000000000000000000000000000000000000000000000000 DUP2 MSTORE PUSH1 0x4 ADD DUP1 DUP1 PUSH1 0x20 ADD DUP3 DUP2 SUB DUP3 MSTORE PUSH1 0x12 DUP2 MSTORE PUSH1 0x20 ADD DUP1 PUSH32 0x4661696C656420746F2073656E64204D54520000000000000000000000000000 DUP2 MSTORE POP PUSH1 0x20 ADD SWAP2 POP POP PUSH1 0x40 MLOAD DUP1 SWAP2 SUB SWAP1 REVERT JUMPDEST POP POP POP SWAP2 SWAP1 POP JUMP JUMPDEST PUSH2 0xCD0 PUSH1 0x33 PUSH1 0x0 DUP5 DUP2 MSTORE PUSH1 0x20 ADD SWAP1 DUP2 MSTORE PUSH1 0x20 ADD PUSH1 0x0 KECCAK256 PUSH1 0x2 ADD SLOAD PUSH2 0xCCB PUSH2 0x1612 JUMP JUMPDEST PUSH2 0x819 JUMP JUMPDEST PUSH2 0xD25 JUMPI PUSH1 0x40 MLOAD PUSH32 0x8C379A000000000000000000000000000000000000000000000000000000000 DUP2 MSTORE PUSH1 0x4 ADD DUP1 DUP1 PUSH1 0x20 ADD DUP3 DUP2 SUB DUP3 MSTORE PUSH1 0x2F DUP2 MSTORE PUSH1 0x20 ADD DUP1 PUSH2 0x1D67 PUSH1 0x2F SWAP2 CODECOPY PUSH1 0x40 ADD SWAP2 POP POP PUSH1 0x40 MLOAD DUP1 SWAP2 SUB SWAP1 REVERT JUMPDEST PUSH2 0xD2F DUP3 DUP3 PUSH2 0x161A JUMP JUMPDEST POP POP JUMP JUMPDEST PUSH1 0x0 PUSH2 0xD51 PUSH2 0xD40 PUSH2 0x84B JUMP JUMPDEST PUSH1 0x67 SLOAD PUSH2 0x1507 SWAP1 SWAP2 SWAP1 PUSH4 0xFFFFFFFF AND JUMP JUMPDEST SWAP1 POP SWAP1 JUMP JUMPDEST PUSH2 0xD5E PUSH2 0x1612 JUMP JUMPDEST PUSH20 0xFFFFFFFFFFFFFFFFFFFFFFFFFFFFFFFFFFFFFFFF AND DUP2 PUSH20 0xFFFFFFFFFFFFFFFFFFFFFFFFFFFFFFFFFFFFFFFF AND EQ PUSH2 0xDE1 JUMPI PUSH1 0x40 MLOAD PUSH32 0x8C379A000000000000000000000000000000000000000000000000000000000 DUP2 MSTORE PUSH1 0x4 ADD DUP1 DUP1 PUSH1 0x20 ADD DUP3 DUP2 SUB DUP3 MSTORE PUSH1 0x2F DUP2 MSTORE PUSH1 0x20 ADD DUP1 PUSH2 0x1DF4 PUSH1 0x2F SWAP2 CODECOPY PUSH1 0x40 ADD SWAP2 POP POP PUSH1 0x40 MLOAD DUP1 SWAP2 SUB SWAP1 REVERT JUMPDEST PUSH2 0xDEB DUP3 DUP3 PUSH2 0x16AE JUMP JUMPDEST POP POP JUMP JUMPDEST PUSH2 0xE19 PUSH32 0xFE72E65B38CD2C74F2A337C2F2D56874D5AA101F1D0AF36B5452F862CE5A7969 CALLER PUSH2 0x819 JUMP JUMPDEST PUSH2 0xE8B JUMPI PUSH1 0x40 MLOAD PUSH32 0x8C379A000000000000000000000000000000000000000000000000000000000 DUP2 MSTORE PUSH1 0x4 ADD DUP1 DUP1 PUSH1 0x20 ADD DUP3 DUP2 SUB DUP3 MSTORE PUSH1 0x17 DUP2 MSTORE PUSH1 0x20 ADD DUP1 PUSH32 0x4D697373696E67205741585F42524944474520726F6C65000000000000000000 DUP2 MSTORE POP PUSH1 0x20 ADD SWAP2 POP POP PUSH1 0x40 MLOAD DUP1 SWAP2 SUB SWAP1 REVERT JUMPDEST PUSH1 0x65 SLOAD DUP6 GT PUSH2 0xF02 JUMPI PUSH1 0x40 MLOAD PUSH32 0x8C379A000000000000000000000000000000000000000000000000000000000 DUP2 MSTORE PUSH1 0x4 ADD DUP1 DUP1 PUSH1 0x20 ADD DUP3 DUP2 SUB DUP3 MSTORE PUSH1 0x1E DUP2 MSTORE PUSH1 0x20 ADD DUP1 PUSH32 0x57415820636861696E20626C6F636B206E756D206D7573742062652067740000 DUP2 MSTORE POP PUSH1 0x20 ADD SWAP2 POP POP PUSH1 0x40 MLOAD DUP1 SWAP2 SUB SWAP1 REVERT JUMPDEST DUP2 DUP2 SWAP1 POP DUP5 DUP5 SWAP1 POP EQ PUSH2 0xF7D JUMPI PUSH1 0x40 MLOAD PUSH32 0x8C379A000000000000000000000000000000000000000000000000000000000 DUP2 MSTORE PUSH1 0x4 ADD DUP1 DUP1 PUSH1 0x20 ADD DUP3 DUP2 SUB DUP3 MSTORE PUSH1 0x18 DUP2 MSTORE PUSH1 0x20 ADD DUP1 PUSH32 0x4D69736D617463686564206172726179206C656E677468730000000000000000 DUP2 MSTORE POP PUSH1 0x20 ADD SWAP2 POP POP PUSH1 0x40 MLOAD DUP1 SWAP2 SUB SWAP1 REVERT JUMPDEST PUSH2 0xBB8 DUP5 DUP5 SWAP1 POP LT PUSH2 0xFF7 JUMPI PUSH1 0x40 MLOAD PUSH32 0x8C379A000000000000000000000000000000000000000000000000000000000 DUP2 MSTORE PUSH1 0x4 ADD DUP1 DUP1 PUSH1 0x20 ADD DUP3 DUP2 SUB DUP3 MSTORE PUSH1 0x13 DUP2 MSTORE PUSH1 0x20 ADD DUP1 PUSH32 0x546F6F206D616E7920726563697069656E747300000000000000000000000000 DUP2 MSTORE POP PUSH1 0x20 ADD SWAP2 POP POP PUSH1 0x40 MLOAD DUP1 SWAP2 SUB SWAP1 REVERT JUMPDEST DUP5 PUSH1 0x65 DUP2 SWAP1 SSTORE POP PUSH1 0x0 DUP1 JUMPDEST DUP6 DUP6 SWAP1 POP DUP2 LT ISZERO PUSH2 0x1138 JUMPI PUSH2 0x1032 DUP5 DUP5 DUP4 DUP2 DUP2 LT PUSH2 0x101C JUMPI INVALID JUMPDEST SWAP1 POP PUSH1 0x20 MUL ADD CALLDATALOAD DUP4 PUSH2 0x158A SWAP1 SWAP2 SWAP1 PUSH4 0xFFFFFFFF AND JUMP JUMPDEST SWAP2 POP PUSH2 0x10C0 DUP5 DUP5 DUP4 DUP2 DUP2 LT PUSH2 0x1043 JUMPI INVALID JUMPDEST SWAP1 POP PUSH1 0x20 MUL ADD CALLDATALOAD PUSH1 0x69 PUSH1 0x0 DUP10 DUP10 DUP7 DUP2 DUP2 LT PUSH2 0x105A JUMPI INVALID JUMPDEST SWAP1 POP PUSH1 0x20 MUL ADD CALLDATALOAD PUSH20 0xFFFFFFFFFFFFFFFFFFFFFFFFFFFFFFFFFFFFFFFF AND PUSH20 0xFFFFFFFFFFFFFFFFFFFFFFFFFFFFFFFFFFFFFFFF AND PUSH20 0xFFFFFFFFFFFFFFFFFFFFFFFFFFFFFFFFFFFFFFFF AND DUP2 MSTORE PUSH1 0x20 ADD SWAP1 DUP2 MSTORE PUSH1 0x20 ADD PUSH1 0x0 KECCAK256 SLOAD PUSH2 0x158A SWAP1 SWAP2 SWAP1 PUSH4 0xFFFFFFFF AND JUMP JUMPDEST PUSH1 0x69 PUSH1 0x0 DUP9 DUP9 DUP6 DUP2 DUP2 LT PUSH2 0x10D0 JUMPI INVALID JUMPDEST SWAP1 POP PUSH1 0x20 MUL ADD CALLDATALOAD PUSH20 0xFFFFFFFFFFFFFFFFFFFFFFFFFFFFFFFFFFFFFFFF AND PUSH20 0xFFFFFFFFFFFFFFFFFFFFFFFFFFFFFFFFFFFFFFFF AND PUSH20 0xFFFFFFFFFFFFFFFFFFFFFFFFFFFFFFFFFFFFFFFF AND DUP2 MSTORE PUSH1 0x20 ADD SWAP1 DUP2 MSTORE PUSH1 0x20 ADD PUSH1 0x0 KECCAK256 DUP2 SWAP1 SSTORE POP DUP1 DUP1 PUSH1 0x1 ADD SWAP2 POP POP PUSH2 0x1002 JUMP JUMPDEST POP PUSH2 0x114E DUP2 PUSH1 0x66 SLOAD PUSH2 0x158A SWAP1 SWAP2 SWAP1 PUSH4 0xFFFFFFFF AND JUMP JUMPDEST PUSH1 0x66 DUP2 SWAP1 SSTORE POP POP POP POP POP POP POP JUMP JUMPDEST PUSH2 0x1169 PUSH1 0x0 DUP1 SHL CALLER PUSH2 0x819 JUMP JUMPDEST PUSH2 0x11DB JUMPI PUSH1 0x40 MLOAD PUSH32 0x8C379A000000000000000000000000000000000000000000000000000000000 DUP2 MSTORE PUSH1 0x4 ADD DUP1 DUP1 PUSH1 0x20 ADD DUP3 DUP2 SUB DUP3 MSTORE PUSH1 0x1F DUP2 MSTORE PUSH1 0x20 ADD DUP1 PUSH32 0x4D697373696E672044454641554C545F41444D494E5F524F4C4520726F6C6500 DUP2 MSTORE POP PUSH1 0x20 ADD SWAP2 POP POP PUSH1 0x40 MLOAD DUP1 SWAP2 SUB SWAP1 REVERT JUMPDEST DUP1 PUSH1 0x67 DUP2 SWAP1 SSTORE POP POP JUMP JUMPDEST PUSH1 0x69 PUSH1 0x20 MSTORE DUP1 PUSH1 0x0 MSTORE PUSH1 0x40 PUSH1 0x0 KECCAK256 PUSH1 0x0 SWAP2 POP SWAP1 POP SLOAD DUP2 JUMP JUMPDEST PUSH3 0x15180 DUP2 JUMP JUMPDEST PUSH32 0xFE72E65B38CD2C74F2A337C2F2D56874D5AA101F1D0AF36B5452F862CE5A7969 DUP2 JUMP JUMPDEST PUSH1 0x0 DUP1 PUSH3 0x15180 PUSH1 0x68 PUSH1 0x0 CALLER PUSH20 0xFFFFFFFFFFFFFFFFFFFFFFFFFFFFFFFFFFFFFFFF AND PUSH20 0xFFFFFFFFFFFFFFFFFFFFFFFFFFFFFFFFFFFFFFFF AND DUP2 MSTORE PUSH1 0x20 ADD SWAP1 DUP2 MSTORE PUSH1 0x20 ADD PUSH1 0x0 KECCAK256 SLOAD ADD SWAP1 POP PUSH1 0x0 PUSH2 0x1287 TIMESTAMP DUP4 PUSH2 0x1742 SWAP1 SWAP2 SWAP1 PUSH4 0xFFFFFFFF AND JUMP JUMPDEST SWAP2 POP POP DUP1 SWAP3 POP POP POP SWAP1 JUMP JUMPDEST PUSH1 0x0 PUSH1 0x1 SWAP1 SLOAD SWAP1 PUSH2 0x100 EXP SWAP1 DIV PUSH1 0xFF AND DUP1 PUSH2 0x12B1 JUMPI POP PUSH2 0x12B0 PUSH2 0x176A JUMP JUMPDEST JUMPDEST DUP1 PUSH2 0x12C7 JUMPI POP PUSH1 0x0 DUP1 SLOAD SWAP1 PUSH2 0x100 EXP SWAP1 DIV PUSH1 0xFF AND ISZERO JUMPDEST PUSH2 0x131C JUMPI PUSH1 0x40 MLOAD PUSH32 0x8C379A000000000000000000000000000000000000000000000000000000000 DUP2 MSTORE PUSH1 0x4 ADD DUP1 DUP1 PUSH1 0x20 ADD DUP3 DUP2 SUB DUP3 MSTORE PUSH1 0x2E DUP2 MSTORE PUSH1 0x20 ADD DUP1 PUSH2 0x1DC6 PUSH1 0x2E SWAP2 CODECOPY PUSH1 0x40 ADD SWAP2 POP POP PUSH1 0x40 MLOAD DUP1 SWAP2 SUB SWAP1 REVERT JUMPDEST PUSH1 0x0 DUP1 PUSH1 0x1 SWAP1 SLOAD SWAP1 PUSH2 0x100 EXP SWAP1 DIV PUSH1 0xFF AND ISZERO SWAP1 POP DUP1 ISZERO PUSH2 0x136C JUMPI PUSH1 0x1 PUSH1 0x0 PUSH1 0x1 PUSH2 0x100 EXP DUP2 SLOAD DUP2 PUSH1 0xFF MUL NOT AND SWAP1 DUP4 ISZERO ISZERO MUL OR SWAP1 SSTORE POP PUSH1 0x1 PUSH1 0x0 DUP1 PUSH2 0x100 EXP DUP2 SLOAD DUP2 PUSH1 0xFF MUL NOT AND SWAP1 DUP4 ISZERO ISZERO MUL OR SWAP1 SSTORE POP JUMPDEST PUSH2 0x1374 PUSH2 0x177B JUMP JUMPDEST PUSH2 0x1381 PUSH1 0x0 DUP1 SHL CALLER PUSH2 0x1889 JUMP JUMPDEST PUSH1 0x0 PUSH1 0x65 DUP2 SWAP1 SSTORE POP PUSH1 0x0 PUSH1 0x66 DUP2 SWAP1 SSTORE POP PUSH7 0x7F1D39A38F8BAC PUSH1 0x67 DUP2 SWAP1 SSTORE POP DUP1 ISZERO PUSH2 0x13C0 JUMPI PUSH1 0x0 DUP1 PUSH1 0x1 PUSH2 0x100 EXP DUP2 SLOAD DUP2 PUSH1 0xFF MUL NOT AND SWAP1 DUP4 ISZERO ISZERO MUL OR SWAP1 SSTORE POP JUMPDEST POP JUMP JUMPDEST PUSH1 0x0 PUSH2 0x13ED DUP3 PUSH1 0x33 PUSH1 0x0 DUP7 DUP2 MSTORE PUSH1 0x20 ADD SWAP1 DUP2 MSTORE PUSH1 0x20 ADD PUSH1 0x0 KECCAK256 PUSH1 0x0 ADD PUSH2 0x1897 SWAP1 SWAP2 SWAP1 PUSH4 0xFFFFFFFF AND JUMP JUMPDEST SWAP1 POP SWAP3 SWAP2 POP POP JUMP JUMPDEST PUSH1 0x65 SLOAD DUP2 JUMP JUMPDEST PUSH1 0x66 SLOAD DUP2 JUMP JUMPDEST PUSH1 0x0 DUP1 SHL DUP2 JUMP JUMPDEST PUSH1 0x68 PUSH1 0x20 MSTORE DUP1 PUSH1 0x0 MSTORE PUSH1 0x40 PUSH1 0x0 KECCAK256 PUSH1 0x0 SWAP2 POP SWAP1 POP SLOAD DUP2 JUMP JUMPDEST PUSH1 0x0 PUSH2 0x1440 PUSH1 0x33 PUSH1 0x0 DUP5 DUP2 MSTORE PUSH1 0x20 ADD SWAP1 DUP2 MSTORE PUSH1 0x20 ADD PUSH1 0x0 KECCAK256 PUSH1 0x0 ADD PUSH2 0x18B1 JUMP JUMPDEST SWAP1 POP SWAP2 SWAP1 POP JUMP JUMPDEST PUSH2 0x146E PUSH1 0x33 PUSH1 0x0 DUP5 DUP2 MSTORE PUSH1 0x20 ADD SWAP1 DUP2 MSTORE PUSH1 0x20 ADD PUSH1 0x0 KECCAK256 PUSH1 0x2 ADD SLOAD PUSH2 0x1469 PUSH2 0x1612 JUMP JUMPDEST PUSH2 0x819 JUMP JUMPDEST PUSH2 0x14C3 JUMPI PUSH1 0x40 MLOAD PUSH32 0x8C379A000000000000000000000000000000000000000000000000000000000 DUP2 MSTORE PUSH1 0x4 ADD DUP1 DUP1 PUSH1 0x20 ADD DUP3 DUP2 SUB DUP3 MSTORE PUSH1 0x30 DUP2 MSTORE PUSH1 0x20 ADD DUP1 PUSH2 0x1D96 PUSH1 0x30 SWAP2 CODECOPY PUSH1 0x40 ADD SWAP2 POP POP PUSH1 0x40 MLOAD DUP1 SWAP2 SUB SWAP1 REVERT JUMPDEST PUSH2 0x14CD DUP3 DUP3 PUSH2 0x16AE JUMP JUMPDEST POP POP JUMP JUMPDEST PUSH1 0x67 SLOAD DUP2 JUMP JUMPDEST PUSH1 0x0 PUSH2 0x14FF DUP4 PUSH1 0x0 ADD DUP4 PUSH20 0xFFFFFFFFFFFFFFFFFFFFFFFFFFFFFFFFFFFFFFFF AND PUSH1 0x0 SHL PUSH2 0x18C6 JUMP JUMPDEST SWAP1 POP SWAP3 SWAP2 POP POP JUMP JUMPDEST PUSH1 0x0 DUP3 DUP3 GT ISZERO PUSH2 0x157F JUMPI PUSH1 0x40 MLOAD PUSH32 0x8C379A000000000000000000000000000000000000000000000000000000000 DUP2 MSTORE PUSH1 0x4 ADD DUP1 DUP1 PUSH1 0x20 ADD DUP3 DUP2 SUB DUP3 MSTORE PUSH1 0x1E DUP2 MSTORE PUSH1 0x20 ADD DUP1 PUSH32 0x536166654D6174683A207375627472616374696F6E206F766572666C6F770000 DUP2 MSTORE POP PUSH1 0x20 ADD SWAP2 POP POP PUSH1 0x40 MLOAD DUP1 SWAP2 SUB SWAP1 REVERT JUMPDEST DUP2 DUP4 SUB SWAP1 POP SWAP3 SWAP2 POP POP JUMP JUMPDEST PUSH1 0x0 DUP1 DUP3 DUP5 ADD SWAP1 POP DUP4 DUP2 LT ISZERO PUSH2 0x1608 JUMPI PUSH1 0x40 MLOAD PUSH32 0x8C379A000000000000000000000000000000000000000000000000000000000 DUP2 MSTORE PUSH1 0x4 ADD DUP1 DUP1 PUSH1 0x20 ADD DUP3 DUP2 SUB DUP3 MSTORE PUSH1 0x1B DUP2 MSTORE PUSH1 0x20 ADD DUP1 PUSH32 0x536166654D6174683A206164646974696F6E206F766572666C6F770000000000 DUP2 MSTORE POP PUSH1 0x20 ADD SWAP2 POP POP PUSH1 0x40 MLOAD DUP1 SWAP2 SUB SWAP1 REVERT JUMPDEST DUP1 SWAP2 POP POP SWAP3 SWAP2 POP POP JUMP JUMPDEST PUSH1 0x0 CALLER SWAP1 POP SWAP1 JUMP JUMPDEST PUSH2 0x1642 DUP2 PUSH1 0x33 PUSH1 0x0 DUP6 DUP2 MSTORE PUSH1 0x20 ADD SWAP1 DUP2 MSTORE PUSH1 0x20 ADD PUSH1 0x0 KECCAK256 PUSH1 0x0 ADD PUSH2 0x18E9 SWAP1 SWAP2 SWAP1 PUSH4 0xFFFFFFFF AND JUMP JUMPDEST ISZERO PUSH2 0x16AA JUMPI PUSH2 0x164F PUSH2 0x1612 JUMP JUMPDEST PUSH20 0xFFFFFFFFFFFFFFFFFFFFFFFFFFFFFFFFFFFFFFFF AND DUP2 PUSH20 0xFFFFFFFFFFFFFFFFFFFFFFFFFFFFFFFFFFFFFFFF AND DUP4 PUSH32 0x2F8788117E7EFF1D82E926EC794901D17C78024A50270940304540A733656F0D PUSH1 0x40 MLOAD PUSH1 0x40 MLOAD DUP1 SWAP2 SUB SWAP1 LOG4 JUMPDEST POP POP JUMP JUMPDEST PUSH2 0x16D6 DUP2 PUSH1 0x33 PUSH1 0x0 DUP6 DUP2 MSTORE PUSH1 0x20 ADD SWAP1 DUP2 MSTORE PUSH1 0x20 ADD PUSH1 0x0 KECCAK256 PUSH1 0x0 ADD PUSH2 0x1919 SWAP1 SWAP2 SWAP1 PUSH4 0xFFFFFFFF AND JUMP JUMPDEST ISZERO PUSH2 0x173E JUMPI PUSH2 0x16E3 PUSH2 0x1612 JUMP JUMPDEST PUSH20 0xFFFFFFFFFFFFFFFFFFFFFFFFFFFFFFFFFFFFFFFF AND DUP2 PUSH20 0xFFFFFFFFFFFFFFFFFFFFFFFFFFFFFFFFFFFFFFFF AND DUP4 PUSH32 0xF6391F5C32D9C69D2A47EA670B442974B53935D1EDC7FD64EB21E047A839171B PUSH1 0x40 MLOAD PUSH1 0x40 MLOAD DUP1 SWAP2 SUB SWAP1 LOG4 JUMPDEST POP POP JUMP JUMPDEST PUSH1 0x0 DUP1 DUP4 DUP4 GT ISZERO PUSH2 0x1759 JUMPI PUSH1 0x0 DUP1 SWAP2 POP SWAP2 POP PUSH2 0x1763 JUMP JUMPDEST PUSH1 0x1 DUP4 DUP6 SUB SWAP2 POP SWAP2 POP JUMPDEST SWAP3 POP SWAP3 SWAP1 POP JUMP JUMPDEST PUSH1 0x0 PUSH2 0x1775 ADDRESS PUSH2 0x1949 JUMP JUMPDEST ISZERO SWAP1 POP SWAP1 JUMP JUMPDEST PUSH1 0x0 PUSH1 0x1 SWAP1 SLOAD SWAP1 PUSH2 0x100 EXP SWAP1 DIV PUSH1 0xFF AND DUP1 PUSH2 0x179A JUMPI POP PUSH2 0x1799 PUSH2 0x176A JUMP JUMPDEST JUMPDEST DUP1 PUSH2 0x17B0 JUMPI POP PUSH1 0x0 DUP1 SLOAD SWAP1 PUSH2 0x100 EXP SWAP1 DIV PUSH1 0xFF AND ISZERO JUMPDEST PUSH2 0x1805 JUMPI PUSH1 0x40 MLOAD PUSH32 0x8C379A000000000000000000000000000000000000000000000000000000000 DUP2 MSTORE PUSH1 0x4 ADD DUP1 DUP1 PUSH1 0x20 ADD DUP3 DUP2 SUB DUP3 MSTORE PUSH1 0x2E DUP2 MSTORE PUSH1 0x20 ADD DUP1 PUSH2 0x1DC6 PUSH1 0x2E SWAP2 CODECOPY PUSH1 0x40 ADD SWAP2 POP POP PUSH1 0x40 MLOAD DUP1 SWAP2 SUB SWAP1 REVERT JUMPDEST PUSH1 0x0 DUP1 PUSH1 0x1 SWAP1 SLOAD SWAP1 PUSH2 0x100 EXP SWAP1 DIV PUSH1 0xFF AND ISZERO SWAP1 POP DUP1 ISZERO PUSH2 0x1855 JUMPI PUSH1 0x1 PUSH1 0x0 PUSH1 0x1 PUSH2 0x100 EXP DUP2 SLOAD DUP2 PUSH1 0xFF MUL NOT AND SWAP1 DUP4 ISZERO ISZERO MUL OR SWAP1 SSTORE POP PUSH1 0x1 PUSH1 0x0 DUP1 PUSH2 0x100 EXP DUP2 SLOAD DUP2 PUSH1 0xFF MUL NOT AND SWAP1 DUP4 ISZERO ISZERO MUL OR SWAP1 SSTORE POP JUMPDEST PUSH2 0x185D PUSH2 0x195C JUMP JUMPDEST PUSH2 0x1865 PUSH2 0x1A5A JUMP JUMPDEST DUP1 ISZERO PUSH2 0x1886 JUMPI PUSH1 0x0 DUP1 PUSH1 0x1 PUSH2 0x100 EXP DUP2 SLOAD DUP2 PUSH1 0xFF MUL NOT AND SWAP1 DUP4 ISZERO ISZERO MUL OR SWAP1 SSTORE POP JUMPDEST POP JUMP JUMPDEST PUSH2 0x1893 DUP3 DUP3 PUSH2 0x161A JUMP JUMPDEST POP POP JUMP JUMPDEST PUSH1 0x0 PUSH2 0x18A6 DUP4 PUSH1 0x0 ADD DUP4 PUSH2 0x1B58 JUMP JUMPDEST PUSH1 0x0 SHR SWAP1 POP SWAP3 SWAP2 POP POP JUMP JUMPDEST PUSH1 0x0 PUSH2 0x18BF DUP3 PUSH1 0x0 ADD PUSH2 0x1BDB JUMP JUMPDEST SWAP1 POP SWAP2 SWAP1 POP JUMP JUMPDEST PUSH1 0x0 DUP1 DUP4 PUSH1 0x1 ADD PUSH1 0x0 DUP5 DUP2 MSTORE PUSH1 0x20 ADD SWAP1 DUP2 MSTORE PUSH1 0x20 ADD PUSH1 0x0 KECCAK256 SLOAD EQ ISZERO SWAP1 POP SWAP3 SWAP2 POP POP JUMP JUMPDEST PUSH1 0x0 PUSH2 0x1911 DUP4 PUSH1 0x0 ADD DUP4 PUSH20 0xFFFFFFFFFFFFFFFFFFFFFFFFFFFFFFFFFFFFFFFF AND PUSH1 0x0 SHL PUSH2 0x1BEC JUMP JUMPDEST SWAP1 POP SWAP3 SWAP2 POP POP JUMP JUMPDEST PUSH1 0x0 PUSH2 0x1941 DUP4 PUSH1 0x0 ADD DUP4 PUSH20 0xFFFFFFFFFFFFFFFFFFFFFFFFFFFFFFFFFFFFFFFF AND PUSH1 0x0 SHL PUSH2 0x1C5C JUMP JUMPDEST SWAP1 POP SWAP3 SWAP2 POP POP JUMP JUMPDEST PUSH1 0x0 DUP1 DUP3 EXTCODESIZE SWAP1 POP PUSH1 0x0 DUP2 GT SWAP2 POP POP SWAP2 SWAP1 POP JUMP JUMPDEST PUSH1 0x0 PUSH1 0x1 SWAP1 SLOAD SWAP1 PUSH2 0x100 EXP SWAP1 DIV PUSH1 0xFF AND DUP1 PUSH2 0x197B JUMPI POP PUSH2 0x197A PUSH2 0x176A JUMP JUMPDEST JUMPDEST DUP1 PUSH2 0x1991 JUMPI POP PUSH1 0x0 DUP1 SLOAD SWAP1 PUSH2 0x100 EXP SWAP1 DIV PUSH1 0xFF AND ISZERO JUMPDEST PUSH2 0x19E6 JUMPI PUSH1 0x40 MLOAD PUSH32 0x8C379A000000000000000000000000000000000000000000000000000000000 DUP2 MSTORE PUSH1 0x4 ADD DUP1 DUP1 PUSH1 0x20 ADD DUP3 DUP2 SUB DUP3 MSTORE PUSH1 0x2E DUP2 MSTORE PUSH1 0x20 ADD DUP1 PUSH2 0x1DC6 PUSH1 0x2E SWAP2 CODECOPY PUSH1 0x40 ADD SWAP2 POP POP PUSH1 0x40 MLOAD DUP1 SWAP2 SUB SWAP1 REVERT JUMPDEST PUSH1 0x0 DUP1 PUSH1 0x1 SWAP1 SLOAD SWAP1 PUSH2 0x100 EXP SWAP1 DIV PUSH1 0xFF AND ISZERO SWAP1 POP DUP1 ISZERO PUSH2 0x1A36 JUMPI PUSH1 0x1 PUSH1 0x0 PUSH1 0x1 PUSH2 0x100 EXP DUP2 SLOAD DUP2 PUSH1 0xFF MUL NOT AND SWAP1 DUP4 ISZERO ISZERO MUL OR SWAP1 SSTORE POP PUSH1 0x1 PUSH1 0x0 DUP1 PUSH2 0x100 EXP DUP2 SLOAD DUP2 PUSH1 0xFF MUL NOT AND SWAP1 DUP4 ISZERO ISZERO MUL OR SWAP1 SSTORE POP JUMPDEST DUP1 ISZERO PUSH2 0x1A57 JUMPI PUSH1 0x0 DUP1 PUSH1 0x1 PUSH2 0x100 EXP DUP2 SLOAD DUP2 PUSH1 0xFF MUL NOT AND SWAP1 DUP4 ISZERO ISZERO MUL OR SWAP1 SSTORE POP JUMPDEST POP JUMP JUMPDEST PUSH1 0x0 PUSH1 0x1 SWAP1 SLOAD SWAP1 PUSH2 0x100 EXP SWAP1 DIV PUSH1 0xFF AND DUP1 PUSH2 0x1A79 JUMPI POP PUSH2 0x1A78 PUSH2 0x176A JUMP JUMPDEST JUMPDEST DUP1 PUSH2 0x1A8F JUMPI POP PUSH1 0x0 DUP1 SLOAD SWAP1 PUSH2 0x100 EXP SWAP1 DIV PUSH1 0xFF AND ISZERO JUMPDEST PUSH2 0x1AE4 JUMPI PUSH1 0x40 MLOAD PUSH32 0x8C379A000000000000000000000000000000000000000000000000000000000 DUP2 MSTORE PUSH1 0x4 ADD DUP1 DUP1 PUSH1 0x20 ADD DUP3 DUP2 SUB DUP3 MSTORE PUSH1 0x2E DUP2 MSTORE PUSH1 0x20 ADD DUP1 PUSH2 0x1DC6 PUSH1 0x2E SWAP2 CODECOPY PUSH1 0x40 ADD SWAP2 POP POP PUSH1 0x40 MLOAD DUP1 SWAP2 SUB SWAP1 REVERT JUMPDEST PUSH1 0x0 DUP1 PUSH1 0x1 SWAP1 SLOAD SWAP1 PUSH2 0x100 EXP SWAP1 DIV PUSH1 0xFF AND ISZERO SWAP1 POP DUP1 ISZERO PUSH2 0x1B34 JUMPI PUSH1 0x1 PUSH1 0x0 PUSH1 0x1 PUSH2 0x100 EXP DUP2 SLOAD DUP2 PUSH1 0xFF MUL NOT AND SWAP1 DUP4 ISZERO ISZERO MUL OR SWAP1 SSTORE POP PUSH1 0x1 PUSH1 0x0 DUP1 PUSH2 0x100 EXP DUP2 SLOAD DUP2 PUSH1 0xFF MUL NOT AND SWAP1 DUP4 ISZERO ISZERO MUL OR SWAP1 SSTORE POP JUMPDEST DUP1 ISZERO PUSH2 0x1B55 JUMPI PUSH1 0x0 DUP1 PUSH1 0x1 PUSH2 0x100 EXP DUP2 SLOAD DUP2 PUSH1 0xFF MUL NOT AND SWAP1 DUP4 ISZERO ISZERO MUL OR SWAP1 SSTORE POP JUMPDEST POP JUMP JUMPDEST PUSH1 0x0 DUP2 DUP4 PUSH1 0x0 ADD DUP1 SLOAD SWAP1 POP GT PUSH2 0x1BB9 JUMPI PUSH1 0x40 MLOAD PUSH32 0x8C379A000000000000000000000000000000000000000000000000000000000 DUP2 MSTORE PUSH1 0x4 ADD DUP1 DUP1 PUSH1 0x20 ADD DUP3 DUP2 SUB DUP3 MSTORE PUSH1 0x22 DUP2 MSTORE PUSH1 0x20 ADD DUP1 PUSH2 0x1D45 PUSH1 0x22 SWAP2 CODECOPY PUSH1 0x40 ADD SWAP2 POP POP PUSH1 0x40 MLOAD DUP1 SWAP2 SUB SWAP1 REVERT JUMPDEST DUP3 PUSH1 0x0 ADD DUP3 DUP2 SLOAD DUP2 LT PUSH2 0x1BC8 JUMPI INVALID JUMPDEST SWAP1 PUSH1 0x0 MSTORE PUSH1 0x20 PUSH1 0x0 KECCAK256 ADD SLOAD SWAP1 POP SWAP3 SWAP2 POP POP JUMP JUMPDEST PUSH1 0x0 DUP2 PUSH1 0x0 ADD DUP1 SLOAD SWAP1 POP SWAP1 POP SWAP2 SWAP1 POP JUMP JUMPDEST PUSH1 0x0 PUSH2 0x1BF8 DUP4 DUP4 PUSH2 0x18C6 JUMP JUMPDEST PUSH2 0x1C51 JUMPI DUP3 PUSH1 0x0 ADD DUP3 SWAP1 DUP1 PUSH1 0x1 DUP2 SLOAD ADD DUP1 DUP3 SSTORE DUP1 SWAP2 POP POP PUSH1 0x1 SWAP1 SUB SWAP1 PUSH1 0x0 MSTORE PUSH1 0x20 PUSH1 0x0 KECCAK256 ADD PUSH1 0x0 SWAP1 SWAP2 SWAP1 SWAP2 SWAP1 SWAP2 POP SSTORE DUP3 PUSH1 0x0 ADD DUP1 SLOAD SWAP1 POP DUP4 PUSH1 0x1 ADD PUSH1 0x0 DUP5 DUP2 MSTORE PUSH1 0x20 ADD SWAP1 DUP2 MSTORE PUSH1 0x20 ADD PUSH1 0x0 KECCAK256 DUP2 SWAP1 SSTORE POP PUSH1 0x1 SWAP1 POP PUSH2 0x1C56 JUMP JUMPDEST PUSH1 0x0 SWAP1 POP JUMPDEST SWAP3 SWAP2 POP POP JUMP JUMPDEST PUSH1 0x0 DUP1 DUP4 PUSH1 0x1 ADD PUSH1 0x0 DUP5 DUP2 MSTORE PUSH1 0x20 ADD SWAP1 DUP2 MSTORE PUSH1 0x20 ADD PUSH1 0x0 KECCAK256 SLOAD SWAP1 POP PUSH1 0x0 DUP2 EQ PUSH2 0x1D38 JUMPI PUSH1 0x0 PUSH1 0x1 DUP3 SUB SWAP1 POP PUSH1 0x0 PUSH1 0x1 DUP7 PUSH1 0x0 ADD DUP1 SLOAD SWAP1 POP SUB SWAP1 POP PUSH1 0x0 DUP7 PUSH1 0x0 ADD DUP3 DUP2 SLOAD DUP2 LT PUSH2 0x1CA7 JUMPI INVALID JUMPDEST SWAP1 PUSH1 0x0 MSTORE PUSH1 0x20 PUSH1 0x0 KECCAK256 ADD SLOAD SWAP1 POP DUP1 DUP8 PUSH1 0x0 ADD DUP5 DUP2 SLOAD DUP2 LT PUSH2 0x1CC4 JUMPI INVALID JUMPDEST SWAP1 PUSH1 0x0 MSTORE PUSH1 0x20 PUSH1 0x0 KECCAK256 ADD DUP2 SWAP1 SSTORE POP PUSH1 0x1 DUP4 ADD DUP8 PUSH1 0x1 ADD PUSH1 0x0 DUP4 DUP2 MSTORE PUSH1 0x20 ADD SWAP1 DUP2 MSTORE PUSH1 0x20 ADD PUSH1 0x0 KECCAK256 DUP2 SWAP1 SSTORE POP DUP7 PUSH1 0x0 ADD DUP1 SLOAD DUP1 PUSH2 0x1CFC JUMPI INVALID JUMPDEST PUSH1 0x1 SWAP1 SUB DUP2 DUP2 SWAP1 PUSH1 0x0 MSTORE PUSH1 0x20 PUSH1 0x0 KECCAK256 ADD PUSH1 0x0 SWAP1 SSTORE SWAP1 SSTORE DUP7 PUSH1 0x1 ADD PUSH1 0x0 DUP8 DUP2 MSTORE PUSH1 0x20 ADD SWAP1 DUP2 MSTORE PUSH1 0x20 ADD PUSH1 0x0 KECCAK256 PUSH1 0x0 SWAP1 SSTORE PUSH1 0x1 SWAP5 POP POP POP POP POP PUSH2 0x1D3E JUMP JUMPDEST PUSH1 0x0 SWAP2 POP POP JUMPDEST SWAP3 SWAP2 POP POP JUMP INVALID GASLIMIT PUSH15 0x756D657261626C655365743A20696E PUSH5 0x6578206F75 PUSH21 0x206F6620626F756E6473416363657373436F6E7472 PUSH16 0x6C3A2073656E646572206D7573742062 PUSH6 0x20616E206164 PUSH14 0x696E20746F206772616E74416363 PUSH6 0x7373436F6E74 PUSH19 0x6F6C3A2073656E646572206D75737420626520 PUSH2 0x6E20 PUSH2 0x646D PUSH10 0x6E20746F207265766F6B PUSH6 0x496E69746961 PUSH13 0x697A61626C653A20636F6E7472 PUSH2 0x6374 KECCAK256 PUSH10 0x7320616C726561647920 PUSH10 0x6E697469616C697A6564 COINBASE PUSH4 0x63657373 NUMBER PUSH16 0x6E74726F6C3A2063616E206F6E6C7920 PUSH19 0x656E6F756E636520726F6C657320666F722073 PUSH6 0x6C66A2646970 PUSH7 0x7358221220B285 0x4A 0xF 0xC8 DUP13 GASLIMIT PUSH11 0x9AA5002B1E2EB543F614FB 0xA9 PUSH15 0xC709D456ADD35AECA58BF564736F6C PUSH4 0x4300060C STOP CALLER "
				},
				"gasEstimates": {
					"creation": {
						"codeDepositCost": "1553600",
						"executionCost": "1624",
						"totalCost": "1555224"
					},
					"external": {
						"DEFAULT_ADMIN_ROLE()": "255",
						"LIMIT_PERIOD()": "316",
						"WAX_BRIDGE()": "338",
						"bnbLimitPerPeriod()": "1137",
						"bnbLimitTimestamp(address)": "1235",
						"getRemainingWithdrawableBnbDuringPeriod()": "infinite",
						"getRoleAdmin(bytes32)": "1230",
						"getRoleMember(bytes32,uint256)": "infinite",
						"getRoleMemberCount(bytes32)": "1378",
						"getTimeUntilLimitExpires()": "infinite",
						"getWithdrawnBnbDuringPeriod()": "2047",
						"grantRole(bytes32,address)": "infinite",
						"hasRole(bytes32,address)": "infinite",
						"initialize()": "infinite",
						"latestWaxChainBlockNumberProcessed()": "1116",
						"processWaxConversions(uint256,address[],uint256[])": "infinite",
						"renounceRole(bytes32,address)": "infinite",
						"revokeRole(bytes32,address)": "infinite",
						"setDailyBnbWeiLimit(uint256)": "infinite",
						"totalOwedBnb()": "1027",
						"withdraw(uint256)": "infinite",
						"withdrawableBnb(address)": "1258"
					}
				},
				"methodIdentifiers": {
					"DEFAULT_ADMIN_ROLE()": "a217fddf",
					"LIMIT_PERIOD()": "50d895b5",
					"WAX_BRIDGE()": "55b2eb7c",
					"bnbLimitPerPeriod()": "edd99131",
					"bnbLimitTimestamp(address)": "a3b34bed",
					"getRemainingWithdrawableBnbDuringPeriod()": "33289d10",
					"getRoleAdmin(bytes32)": "248a9ca3",
					"getRoleMember(bytes32,uint256)": "9010d07c",
					"getRoleMemberCount(bytes32)": "ca15c873",
					"getTimeUntilLimitExpires()": "6749cb14",
					"getWithdrawnBnbDuringPeriod()": "04d72af5",
					"grantRole(bytes32,address)": "2f2ff15d",
					"hasRole(bytes32,address)": "91d14854",
					"initialize()": "8129fc1c",
					"latestWaxChainBlockNumberProcessed()": "98f42a0b",
					"processWaxConversions(uint256,address[],uint256[])": "36ff0abc",
					"renounceRole(bytes32,address)": "36568abe",
					"revokeRole(bytes32,address)": "d547741f",
					"setDailyBnbWeiLimit(uint256)": "3b8706b7",
					"totalOwedBnb()": "a20f3514",
					"withdraw(uint256)": "2e1a7d4d",
					"withdrawableBnb(address)": "45bb31ea"
				}
			},
			"storageLayout": {
				"storage": [
					{
						"astId": 314,
						"contract": "contracts/WaxBridge.sol:WaxBridge",
						"label": "_initialized",
						"offset": 0,
						"slot": "0",
						"type": "t_bool"
					},
					{
						"astId": 317,
						"contract": "contracts/WaxBridge.sol:WaxBridge",
						"label": "_initializing",
						"offset": 1,
						"slot": "0",
						"type": "t_bool"
					},
					{
						"astId": 661,
						"contract": "contracts/WaxBridge.sol:WaxBridge",
						"label": "__gap",
						"offset": 0,
						"slot": "1",
						"type": "t_array(t_uint256)50_storage"
					},
					{
						"astId": 43,
						"contract": "contracts/WaxBridge.sol:WaxBridge",
						"label": "_roles",
						"offset": 0,
						"slot": "51",
						"type": "t_mapping(t_bytes32,t_struct(RoleData)39_storage)"
					},
					{
						"astId": 306,
						"contract": "contracts/WaxBridge.sol:WaxBridge",
						"label": "__gap",
						"offset": 0,
						"slot": "52",
						"type": "t_array(t_uint256)49_storage"
					},
					{
						"astId": 1207,
						"contract": "contracts/WaxBridge.sol:WaxBridge",
						"label": "latestWaxChainBlockNumberProcessed",
						"offset": 0,
						"slot": "101",
						"type": "t_uint256"
					},
					{
						"astId": 1209,
						"contract": "contracts/WaxBridge.sol:WaxBridge",
						"label": "totalOwedBnb",
						"offset": 0,
						"slot": "102",
						"type": "t_uint256"
					},
					{
						"astId": 1211,
						"contract": "contracts/WaxBridge.sol:WaxBridge",
						"label": "bnbLimitPerPeriod",
						"offset": 0,
						"slot": "103",
						"type": "t_uint256"
					},
					{
						"astId": 1215,
						"contract": "contracts/WaxBridge.sol:WaxBridge",
						"label": "bnbLimitTimestamp",
						"offset": 0,
						"slot": "104",
						"type": "t_mapping(t_address,t_uint256)"
					},
					{
						"astId": 1219,
						"contract": "contracts/WaxBridge.sol:WaxBridge",
						"label": "withdrawableBnb",
						"offset": 0,
						"slot": "105",
						"type": "t_mapping(t_address,t_uint256)"
					},
					{
						"astId": 1223,
						"contract": "contracts/WaxBridge.sol:WaxBridge",
						"label": "withdrawnBnbDuringPeriod",
						"offset": 0,
						"slot": "106",
						"type": "t_mapping(t_address,t_uint256)"
					}
				],
				"types": {
					"t_address": {
						"encoding": "inplace",
						"label": "address",
						"numberOfBytes": "20"
					},
					"t_array(t_bytes32)dyn_storage": {
						"base": "t_bytes32",
						"encoding": "dynamic_array",
						"label": "bytes32[]",
						"numberOfBytes": "32"
					},
					"t_array(t_uint256)49_storage": {
						"base": "t_uint256",
						"encoding": "inplace",
						"label": "uint256[49]",
						"numberOfBytes": "1568"
					},
					"t_array(t_uint256)50_storage": {
						"base": "t_uint256",
						"encoding": "inplace",
						"label": "uint256[50]",
						"numberOfBytes": "1600"
					},
					"t_bool": {
						"encoding": "inplace",
						"label": "bool",
						"numberOfBytes": "1"
					},
					"t_bytes32": {
						"encoding": "inplace",
						"label": "bytes32",
						"numberOfBytes": "32"
					},
					"t_mapping(t_address,t_uint256)": {
						"encoding": "mapping",
						"key": "t_address",
						"label": "mapping(address => uint256)",
						"numberOfBytes": "32",
						"value": "t_uint256"
					},
					"t_mapping(t_bytes32,t_struct(RoleData)39_storage)": {
						"encoding": "mapping",
						"key": "t_bytes32",
						"label": "mapping(bytes32 => struct AccessControlUpgradeable.RoleData)",
						"numberOfBytes": "32",
						"value": "t_struct(RoleData)39_storage"
					},
					"t_mapping(t_bytes32,t_uint256)": {
						"encoding": "mapping",
						"key": "t_bytes32",
						"label": "mapping(bytes32 => uint256)",
						"numberOfBytes": "32",
						"value": "t_uint256"
					},
					"t_struct(AddressSet)938_storage": {
						"encoding": "inplace",
						"label": "struct EnumerableSetUpgradeable.AddressSet",
						"members": [
							{
								"astId": 937,
								"contract": "contracts/WaxBridge.sol:WaxBridge",
								"label": "_inner",
								"offset": 0,
								"slot": "0",
								"type": "t_struct(Set)673_storage"
							}
						],
						"numberOfBytes": "64"
					},
					"t_struct(RoleData)39_storage": {
						"encoding": "inplace",
						"label": "struct AccessControlUpgradeable.RoleData",
						"members": [
							{
								"astId": 36,
								"contract": "contracts/WaxBridge.sol:WaxBridge",
								"label": "members",
								"offset": 0,
								"slot": "0",
								"type": "t_struct(AddressSet)938_storage"
							},
							{
								"astId": 38,
								"contract": "contracts/WaxBridge.sol:WaxBridge",
								"label": "adminRole",
								"offset": 0,
								"slot": "2",
								"type": "t_bytes32"
							}
						],
						"numberOfBytes": "96"
					},
					"t_struct(Set)673_storage": {
						"encoding": "inplace",
						"label": "struct EnumerableSetUpgradeable.Set",
						"members": [
							{
								"astId": 668,
								"contract": "contracts/WaxBridge.sol:WaxBridge",
								"label": "_values",
								"offset": 0,
								"slot": "0",
								"type": "t_array(t_bytes32)dyn_storage"
							},
							{
								"astId": 672,
								"contract": "contracts/WaxBridge.sol:WaxBridge",
								"label": "_indexes",
								"offset": 0,
								"slot": "1",
								"type": "t_mapping(t_bytes32,t_uint256)"
							}
						],
						"numberOfBytes": "64"
					},
					"t_uint256": {
						"encoding": "inplace",
						"label": "uint256",
						"numberOfBytes": "32"
					}
				}
			},
			"userdoc": {
				"kind": "user",
				"methods": {},
				"version": 1
			}
		}
	}
}