{
	"contracts/DummyRandoms.sol": {
		"DummyRandoms": {
			"abi": [
				{
					"anonymous": false,
					"inputs": [
						{
							"indexed": true,
							"internalType": "address",
							"name": "previousOwner",
							"type": "address"
						},
						{
							"indexed": true,
							"internalType": "address",
							"name": "newOwner",
							"type": "address"
						}
					],
					"name": "OwnershipTransferred",
					"type": "event"
				},
				{
					"inputs": [
						{
							"internalType": "address",
							"name": "user",
							"type": "address"
						}
					],
					"name": "getRandomSeed",
					"outputs": [
						{
							"internalType": "uint256",
							"name": "",
							"type": "uint256"
						}
					],
					"stateMutability": "view",
					"type": "function"
				},
				{
					"inputs": [],
					"name": "initialize",
					"outputs": [],
					"stateMutability": "nonpayable",
					"type": "function"
				},
				{
					"inputs": [],
					"name": "main",
					"outputs": [
						{
							"internalType": "address",
							"name": "",
							"type": "address"
						}
					],
					"stateMutability": "view",
					"type": "function"
				},
				{
					"inputs": [],
					"name": "owner",
					"outputs": [
						{
							"internalType": "address",
							"name": "",
							"type": "address"
						}
					],
					"stateMutability": "view",
					"type": "function"
				},
				{
					"inputs": [],
					"name": "renounceOwnership",
					"outputs": [],
					"stateMutability": "nonpayable",
					"type": "function"
				},
				{
					"inputs": [
						{
							"internalType": "address",
							"name": "newMain",
							"type": "address"
						}
					],
					"name": "setMain",
					"outputs": [],
					"stateMutability": "nonpayable",
					"type": "function"
				},
				{
					"inputs": [
						{
							"internalType": "uint256",
							"name": "randomValue",
							"type": "uint256"
						}
					],
					"name": "setRandomNumberForTestingPurposes",
					"outputs": [],
					"stateMutability": "nonpayable",
					"type": "function"
				},
				{
					"inputs": [
						{
							"internalType": "address",
							"name": "newOwner",
							"type": "address"
						}
					],
					"name": "transferOwnership",
					"outputs": [],
					"stateMutability": "nonpayable",
					"type": "function"
				}
			],
			"devdoc": {
				"kind": "dev",
				"methods": {
					"owner()": {
						"details": "Returns the address of the current owner."
					},
					"renounceOwnership()": {
						"details": "Leaves the contract without owner. It will not be possible to call `onlyOwner` functions anymore. Can only be called by the current owner. NOTE: Renouncing ownership will leave the contract without an owner, thereby removing any functionality that is only available to the owner."
					},
					"transferOwnership(address)": {
						"details": "Transfers ownership of the contract to a new account (`newOwner`). Can only be called by the current owner."
					}
				},
				"version": 1
			},
			"evm": {
				"assembly": "    /* \"contracts/DummyRandoms.sol\":86:897  contract DummyRandoms is IRandoms, HasMain {... */\n  mstore(0x40, 0x80)\n  callvalue\n  dup1\n  iszero\n  tag_1\n  jumpi\n  0x00\n  dup1\n  revert\ntag_1:\n  pop\n  dataSize(sub_0)\n  dup1\n  dataOffset(sub_0)\n  0x00\n  codecopy\n  0x00\n  return\nstop\n\nsub_0: assembly {\n        /* \"contracts/DummyRandoms.sol\":86:897  contract DummyRandoms is IRandoms, HasMain {... */\n      mstore(0x40, 0x80)\n      callvalue\n      dup1\n      iszero\n      tag_1\n      jumpi\n      0x00\n      dup1\n      revert\n    tag_1:\n      pop\n      jumpi(tag_2, lt(calldatasize, 0x04))\n      shr(0xe0, calldataload(0x00))\n      dup1\n      0x8129fc1c\n      gt\n      tag_11\n      jumpi\n      dup1\n      0x8129fc1c\n      eq\n      tag_7\n      jumpi\n      dup1\n      0x8da5cb5b\n      eq\n      tag_8\n      jumpi\n      dup1\n      0xdffeadd0\n      eq\n      tag_9\n      jumpi\n      dup1\n      0xf2fde38b\n      eq\n      tag_10\n      jumpi\n      jump(tag_2)\n    tag_11:\n      dup1\n      0x0d2a0b34\n      eq\n      tag_3\n      jumpi\n      dup1\n      0x3883d854\n      eq\n      tag_4\n      jumpi\n      dup1\n      0x715018a6\n      eq\n      tag_5\n      jumpi\n      dup1\n      0x801161b0\n      eq\n      tag_6\n      jumpi\n    tag_2:\n      0x00\n      dup1\n      revert\n        /* \"contracts/DummyRandoms.sol\":787:895  function setRandomNumberForTestingPurposes(uint256 randomValue) external {... */\n    tag_3:\n      tag_12\n      0x04\n      dup1\n      calldatasize\n      sub\n      0x20\n      dup2\n      lt\n      iszero\n      tag_13\n      jumpi\n      0x00\n      dup1\n      revert\n    tag_13:\n      dup2\n      add\n      swap1\n      dup1\n      dup1\n      calldataload\n      swap1\n      0x20\n      add\n      swap1\n      swap3\n      swap2\n      swap1\n      pop\n      pop\n      pop\n      tag_14\n      jump\t// in\n    tag_12:\n      stop\n        /* \"contracts/DummyRandoms.sol\":598:765  function getRandomSeed(address user) external view override returns (uint256) {... */\n    tag_4:\n      tag_15\n      0x04\n      dup1\n      calldatasize\n      sub\n      0x20\n      dup2\n      lt\n      iszero\n      tag_16\n      jumpi\n      0x00\n      dup1\n      revert\n    tag_16:\n      dup2\n      add\n      swap1\n      dup1\n      dup1\n      calldataload\n      0xffffffffffffffffffffffffffffffffffffffff\n      and\n      swap1\n      0x20\n      add\n      swap1\n      swap3\n      swap2\n      swap1\n      pop\n      pop\n      pop\n      tag_17\n      jump\t// in\n    tag_15:\n      mload(0x40)\n      dup1\n      dup3\n      dup2\n      mstore\n      0x20\n      add\n      swap2\n      pop\n      pop\n      mload(0x40)\n      dup1\n      swap2\n      sub\n      swap1\n      return\n        /* \"@openzeppelin/contracts-upgradeable/access/OwnableUpgradeable.sol\":1967:2112  function renounceOwnership() public virtual onlyOwner {... */\n    tag_5:\n      tag_18\n      tag_19\n      jump\t// in\n    tag_18:\n      stop\n        /* \"contracts/HasMain.sol\":477:561  function setMain(address newMain) external onlyOwner {... */\n    tag_6:\n      tag_20\n      0x04\n      dup1\n      calldatasize\n      sub\n      0x20\n      dup2\n      lt\n      iszero\n      tag_21\n      jumpi\n      0x00\n      dup1\n      revert\n    tag_21:\n      dup2\n      add\n      swap1\n      dup1\n      dup1\n      calldataload\n      0xffffffffffffffffffffffffffffffffffffffff\n      and\n      swap1\n      0x20\n      add\n      swap1\n      swap3\n      swap2\n      swap1\n      pop\n      pop\n      pop\n      tag_22\n      jump\t// in\n    tag_20:\n      stop\n        /* \"contracts/DummyRandoms.sol\":505:579  function initialize() public initializer {... */\n    tag_7:\n      tag_23\n      tag_24\n      jump\t// in\n    tag_23:\n      stop\n        /* \"@openzeppelin/contracts-upgradeable/access/OwnableUpgradeable.sol\":1335:1420  function owner() public view virtual returns (address) {... */\n    tag_8:\n      tag_25\n      tag_26\n      jump\t// in\n    tag_25:\n      mload(0x40)\n      dup1\n      dup3\n      0xffffffffffffffffffffffffffffffffffffffff\n      and\n      dup2\n      mstore\n      0x20\n      add\n      swap2\n      pop\n      pop\n      mload(0x40)\n      dup1\n      swap2\n      sub\n      swap1\n      return\n        /* \"contracts/HasMain.sol\":232:251  address public main */\n    tag_9:\n      tag_27\n      tag_28\n      jump\t// in\n    tag_27:\n      mload(0x40)\n      dup1\n      dup3\n      0xffffffffffffffffffffffffffffffffffffffff\n      and\n      dup2\n      mstore\n      0x20\n      add\n      swap2\n      pop\n      pop\n      mload(0x40)\n      dup1\n      swap2\n      sub\n      swap1\n      return\n        /* \"@openzeppelin/contracts-upgradeable/access/OwnableUpgradeable.sol\":2261:2501  function transferOwnership(address newOwner) public virtual onlyOwner {... */\n    tag_10:\n      tag_29\n      0x04\n      dup1\n      calldatasize\n      sub\n      0x20\n      dup2\n      lt\n      iszero\n      tag_30\n      jumpi\n      0x00\n      dup1\n      revert\n    tag_30:\n      dup2\n      add\n      swap1\n      dup1\n      dup1\n      calldataload\n      0xffffffffffffffffffffffffffffffffffffffff\n      and\n      swap1\n      0x20\n      add\n      swap1\n      swap3\n      swap2\n      swap1\n      pop\n      pop\n      pop\n      tag_31\n      jump\t// in\n    tag_29:\n      stop\n        /* \"contracts/DummyRandoms.sol\":787:895  function setRandomNumberForTestingPurposes(uint256 randomValue) external {... */\n    tag_14:\n        /* \"contracts/DummyRandoms.sol\":877:888  randomValue */\n      dup1\n        /* \"contracts/DummyRandoms.sol\":870:874  seed */\n      0x69\n        /* \"contracts/DummyRandoms.sol\":870:888  seed = randomValue */\n      dup2\n      swap1\n      sstore\n      pop\n        /* \"contracts/DummyRandoms.sol\":787:895  function setRandomNumberForTestingPurposes(uint256 randomValue) external {... */\n      pop\n      jump\t// out\n        /* \"contracts/DummyRandoms.sol\":598:765  function getRandomSeed(address user) external view override returns (uint256) {... */\n    tag_17:\n        /* \"contracts/DummyRandoms.sol\":667:674  uint256 */\n      0x00\n        /* \"contracts/DummyRandoms.sol\":728:732  user */\n      dup2\n        /* \"contracts/DummyRandoms.sol\":734:738  seed */\n      sload(0x69)\n        /* \"contracts/DummyRandoms.sol\":740:755  block.timestamp */\n      timestamp\n        /* \"contracts/DummyRandoms.sol\":711:756  abi.encodePacked(user, seed, block.timestamp) */\n      add(0x20, mload(0x40))\n      dup1\n      dup5\n      0xffffffffffffffffffffffffffffffffffffffff\n      and\n      0x60\n      shl\n      dup2\n      mstore\n      0x14\n      add\n      dup4\n      dup2\n      mstore\n      0x20\n      add\n      dup3\n      dup2\n      mstore\n      0x20\n      add\n      swap4\n      pop\n      pop\n      pop\n      pop\n      mload(0x40)\n      0x20\n      dup2\n      dup4\n      sub\n      sub\n      dup2\n      mstore\n      swap1\n      0x40\n      mstore\n        /* \"contracts/DummyRandoms.sol\":701:757  keccak256(abi.encodePacked(user, seed, block.timestamp)) */\n      dup1\n      mload\n      swap1\n      0x20\n      add\n      keccak256\n        /* \"contracts/DummyRandoms.sol\":693:758  uint256(keccak256(abi.encodePacked(user, seed, block.timestamp))) */\n      0x00\n      shr\n        /* \"contracts/DummyRandoms.sol\":686:758  return uint256(keccak256(abi.encodePacked(user, seed, block.timestamp))) */\n      swap1\n      pop\n        /* \"contracts/DummyRandoms.sol\":598:765  function getRandomSeed(address user) external view override returns (uint256) {... */\n      swap2\n      swap1\n      pop\n      jump\t// out\n        /* \"@openzeppelin/contracts-upgradeable/access/OwnableUpgradeable.sol\":1967:2112  function renounceOwnership() public virtual onlyOwner {... */\n    tag_19:\n        /* \"@openzeppelin/contracts-upgradeable/access/OwnableUpgradeable.sol\":1558:1570  _msgSender() */\n      tag_35\n        /* \"@openzeppelin/contracts-upgradeable/access/OwnableUpgradeable.sol\":1558:1568  _msgSender */\n      tag_36\n        /* \"@openzeppelin/contracts-upgradeable/access/OwnableUpgradeable.sol\":1558:1570  _msgSender() */\n      jump\t// in\n    tag_35:\n        /* \"@openzeppelin/contracts-upgradeable/access/OwnableUpgradeable.sol\":1547:1570  owner() == _msgSender() */\n      0xffffffffffffffffffffffffffffffffffffffff\n      and\n        /* \"@openzeppelin/contracts-upgradeable/access/OwnableUpgradeable.sol\":1547:1554  owner() */\n      tag_37\n        /* \"@openzeppelin/contracts-upgradeable/access/OwnableUpgradeable.sol\":1547:1552  owner */\n      tag_26\n        /* \"@openzeppelin/contracts-upgradeable/access/OwnableUpgradeable.sol\":1547:1554  owner() */\n      jump\t// in\n    tag_37:\n        /* \"@openzeppelin/contracts-upgradeable/access/OwnableUpgradeable.sol\":1547:1570  owner() == _msgSender() */\n      0xffffffffffffffffffffffffffffffffffffffff\n      and\n      eq\n        /* \"@openzeppelin/contracts-upgradeable/access/OwnableUpgradeable.sol\":1539:1607  require(owner() == _msgSender(), \"Ownable: caller is not the owner\") */\n      tag_38\n      jumpi\n      mload(0x40)\n      0x08c379a000000000000000000000000000000000000000000000000000000000\n      dup2\n      mstore\n      0x04\n      add\n      dup1\n      dup1\n      0x20\n      add\n      dup3\n      dup2\n      sub\n      dup3\n      mstore\n      0x20\n      dup2\n      mstore\n      0x20\n      add\n      dup1\n      0x4f776e61626c653a2063616c6c6572206973206e6f7420746865206f776e6572\n      dup2\n      mstore\n      pop\n      0x20\n      add\n      swap2\n      pop\n      pop\n      mload(0x40)\n      dup1\n      swap2\n      sub\n      swap1\n      revert\n    tag_38:\n        /* \"@openzeppelin/contracts-upgradeable/access/OwnableUpgradeable.sol\":2073:2074  0 */\n      0x00\n        /* \"@openzeppelin/contracts-upgradeable/access/OwnableUpgradeable.sol\":2036:2076  OwnershipTransferred(_owner, address(0)) */\n      0xffffffffffffffffffffffffffffffffffffffff\n      and\n        /* \"@openzeppelin/contracts-upgradeable/access/OwnableUpgradeable.sol\":2057:2063  _owner */\n      0x33\n      0x00\n      swap1\n      sload\n      swap1\n      0x0100\n      exp\n      swap1\n      div\n      0xffffffffffffffffffffffffffffffffffffffff\n      and\n        /* \"@openzeppelin/contracts-upgradeable/access/OwnableUpgradeable.sol\":2036:2076  OwnershipTransferred(_owner, address(0)) */\n      0xffffffffffffffffffffffffffffffffffffffff\n      and\n      0x8be0079c531659141344cd1fd0a4f28419497f9722a3daafe3b4186f6b6457e0\n      mload(0x40)\n      mload(0x40)\n      dup1\n      swap2\n      sub\n      swap1\n      log3\n        /* \"@openzeppelin/contracts-upgradeable/access/OwnableUpgradeable.sol\":2103:2104  0 */\n      0x00\n        /* \"@openzeppelin/contracts-upgradeable/access/OwnableUpgradeable.sol\":2086:2092  _owner */\n      0x33\n      0x00\n        /* \"@openzeppelin/contracts-upgradeable/access/OwnableUpgradeable.sol\":2086:2105  _owner = address(0) */\n      0x0100\n      exp\n      dup2\n      sload\n      dup2\n      0xffffffffffffffffffffffffffffffffffffffff\n      mul\n      not\n      and\n      swap1\n      dup4\n      0xffffffffffffffffffffffffffffffffffffffff\n      and\n      mul\n      or\n      swap1\n      sstore\n      pop\n        /* \"@openzeppelin/contracts-upgradeable/access/OwnableUpgradeable.sol\":1967:2112  function renounceOwnership() public virtual onlyOwner {... */\n      jump\t// out\n        /* \"contracts/HasMain.sol\":477:561  function setMain(address newMain) external onlyOwner {... */\n    tag_22:\n        /* \"@openzeppelin/contracts-upgradeable/access/OwnableUpgradeable.sol\":1558:1570  _msgSender() */\n      tag_41\n        /* \"@openzeppelin/contracts-upgradeable/access/OwnableUpgradeable.sol\":1558:1568  _msgSender */\n      tag_36\n        /* \"@openzeppelin/contracts-upgradeable/access/OwnableUpgradeable.sol\":1558:1570  _msgSender() */\n      jump\t// in\n    tag_41:\n        /* \"@openzeppelin/contracts-upgradeable/access/OwnableUpgradeable.sol\":1547:1570  owner() == _msgSender() */\n      0xffffffffffffffffffffffffffffffffffffffff\n      and\n        /* \"@openzeppelin/contracts-upgradeable/access/OwnableUpgradeable.sol\":1547:1554  owner() */\n      tag_42\n        /* \"@openzeppelin/contracts-upgradeable/access/OwnableUpgradeable.sol\":1547:1552  owner */\n      tag_26\n        /* \"@openzeppelin/contracts-upgradeable/access/OwnableUpgradeable.sol\":1547:1554  owner() */\n      jump\t// in\n    tag_42:\n        /* \"@openzeppelin/contracts-upgradeable/access/OwnableUpgradeable.sol\":1547:1570  owner() == _msgSender() */\n      0xffffffffffffffffffffffffffffffffffffffff\n      and\n      eq\n        /* \"@openzeppelin/contracts-upgradeable/access/OwnableUpgradeable.sol\":1539:1607  require(owner() == _msgSender(), \"Ownable: caller is not the owner\") */\n      tag_43\n      jumpi\n      mload(0x40)\n      0x08c379a000000000000000000000000000000000000000000000000000000000\n      dup2\n      mstore\n      0x04\n      add\n      dup1\n      dup1\n      0x20\n      add\n      dup3\n      dup2\n      sub\n      dup3\n      mstore\n      0x20\n      dup2\n      mstore\n      0x20\n      add\n      dup1\n      0x4f776e61626c653a2063616c6c6572206973206e6f7420746865206f776e6572\n      dup2\n      mstore\n      pop\n      0x20\n      add\n      swap2\n      pop\n      pop\n      mload(0x40)\n      dup1\n      swap2\n      sub\n      swap1\n      revert\n    tag_43:\n        /* \"contracts/HasMain.sol\":547:554  newMain */\n      dup1\n        /* \"contracts/HasMain.sol\":540:544  main */\n      0x65\n      0x00\n        /* \"contracts/HasMain.sol\":540:554  main = newMain */\n      0x0100\n      exp\n      dup2\n      sload\n      dup2\n      0xffffffffffffffffffffffffffffffffffffffff\n      mul\n      not\n      and\n      swap1\n      dup4\n      0xffffffffffffffffffffffffffffffffffffffff\n      and\n      mul\n      or\n      swap1\n      sstore\n      pop\n        /* \"contracts/HasMain.sol\":477:561  function setMain(address newMain) external onlyOwner {... */\n      pop\n      jump\t// out\n        /* \"contracts/DummyRandoms.sol\":505:579  function initialize() public initializer {... */\n    tag_24:\n        /* \"@openzeppelin/contracts-upgradeable/proxy/Initializable.sol\":1512:1525  _initializing */\n      0x00\n      0x01\n      swap1\n      sload\n      swap1\n      0x0100\n      exp\n      swap1\n      div\n      0xff\n      and\n        /* \"@openzeppelin/contracts-upgradeable/proxy/Initializable.sol\":1512:1545  _initializing || _isConstructor() */\n      dup1\n      tag_46\n      jumpi\n      pop\n        /* \"@openzeppelin/contracts-upgradeable/proxy/Initializable.sol\":1529:1545  _isConstructor() */\n      tag_47\n        /* \"@openzeppelin/contracts-upgradeable/proxy/Initializable.sol\":1529:1543  _isConstructor */\n      tag_48\n        /* \"@openzeppelin/contracts-upgradeable/proxy/Initializable.sol\":1529:1545  _isConstructor() */\n      jump\t// in\n    tag_47:\n        /* \"@openzeppelin/contracts-upgradeable/proxy/Initializable.sol\":1512:1545  _initializing || _isConstructor() */\n    tag_46:\n        /* \"@openzeppelin/contracts-upgradeable/proxy/Initializable.sol\":1512:1562  _initializing || _isConstructor() || !_initialized */\n      dup1\n      tag_49\n      jumpi\n      pop\n        /* \"@openzeppelin/contracts-upgradeable/proxy/Initializable.sol\":1550:1562  _initialized */\n      0x00\n      dup1\n      sload\n      swap1\n      0x0100\n      exp\n      swap1\n      div\n      0xff\n      and\n        /* \"@openzeppelin/contracts-upgradeable/proxy/Initializable.sol\":1549:1562  !_initialized */\n      iszero\n        /* \"@openzeppelin/contracts-upgradeable/proxy/Initializable.sol\":1512:1562  _initializing || _isConstructor() || !_initialized */\n    tag_49:\n        /* \"@openzeppelin/contracts-upgradeable/proxy/Initializable.sol\":1504:1613  require(_initializing || _isConstructor() || !_initialized, \"Initializable: contract is already initialized\") */\n      tag_50\n      jumpi\n      mload(0x40)\n      0x08c379a000000000000000000000000000000000000000000000000000000000\n      dup2\n      mstore\n      0x04\n      add\n      dup1\n      dup1\n      0x20\n      add\n      dup3\n      dup2\n      sub\n      dup3\n      mstore\n      0x2e\n      dup2\n      mstore\n      0x20\n      add\n      dup1\n      data_7a2a4e26842155ea933fe6eb6e3137eb5a296dcdf55721c552be7b4c3cc23759\n      0x2e\n      swap2\n      codecopy\n      0x40\n      add\n      swap2\n      pop\n      pop\n      mload(0x40)\n      dup1\n      swap2\n      sub\n      swap1\n      revert\n    tag_50:\n        /* \"@openzeppelin/contracts-upgradeable/proxy/Initializable.sol\":1624:1643  bool isTopLevelCall */\n      0x00\n        /* \"@openzeppelin/contracts-upgradeable/proxy/Initializable.sol\":1647:1660  _initializing */\n      dup1\n      0x01\n      swap1\n      sload\n      swap1\n      0x0100\n      exp\n      swap1\n      div\n      0xff\n      and\n        /* \"@openzeppelin/contracts-upgradeable/proxy/Initializable.sol\":1646:1660  !_initializing */\n      iszero\n        /* \"@openzeppelin/contracts-upgradeable/proxy/Initializable.sol\":1624:1660  bool isTopLevelCall = !_initializing */\n      swap1\n      pop\n        /* \"@openzeppelin/contracts-upgradeable/proxy/Initializable.sol\":1674:1688  isTopLevelCall */\n      dup1\n        /* \"@openzeppelin/contracts-upgradeable/proxy/Initializable.sol\":1670:1768  if (isTopLevelCall) {... */\n      iszero\n      tag_51\n      jumpi\n        /* \"@openzeppelin/contracts-upgradeable/proxy/Initializable.sol\":1720:1724  true */\n      0x01\n        /* \"@openzeppelin/contracts-upgradeable/proxy/Initializable.sol\":1704:1717  _initializing */\n      0x00\n      0x01\n        /* \"@openzeppelin/contracts-upgradeable/proxy/Initializable.sol\":1704:1724  _initializing = true */\n      0x0100\n      exp\n      dup2\n      sload\n      dup2\n      0xff\n      mul\n      not\n      and\n      swap1\n      dup4\n      iszero\n      iszero\n      mul\n      or\n      swap1\n      sstore\n      pop\n        /* \"@openzeppelin/contracts-upgradeable/proxy/Initializable.sol\":1753:1757  true */\n      0x01\n        /* \"@openzeppelin/contracts-upgradeable/proxy/Initializable.sol\":1738:1750  _initialized */\n      0x00\n      dup1\n        /* \"@openzeppelin/contracts-upgradeable/proxy/Initializable.sol\":1738:1757  _initialized = true */\n      0x0100\n      exp\n      dup2\n      sload\n      dup2\n      0xff\n      mul\n      not\n      and\n      swap1\n      dup4\n      iszero\n      iszero\n      mul\n      or\n      swap1\n      sstore\n      pop\n        /* \"@openzeppelin/contracts-upgradeable/proxy/Initializable.sol\":1670:1768  if (isTopLevelCall) {... */\n    tag_51:\n        /* \"contracts/DummyRandoms.sol\":556:572  __HasMain_init() */\n      tag_53\n        /* \"contracts/DummyRandoms.sol\":556:570  __HasMain_init */\n      tag_54\n        /* \"contracts/DummyRandoms.sol\":556:572  __HasMain_init() */\n      jump\t// in\n    tag_53:\n        /* \"@openzeppelin/contracts-upgradeable/proxy/Initializable.sol\":1794:1808  isTopLevelCall */\n      dup1\n        /* \"@openzeppelin/contracts-upgradeable/proxy/Initializable.sol\":1790:1856  if (isTopLevelCall) {... */\n      iszero\n      tag_55\n      jumpi\n        /* \"@openzeppelin/contracts-upgradeable/proxy/Initializable.sol\":1840:1845  false */\n      0x00\n        /* \"@openzeppelin/contracts-upgradeable/proxy/Initializable.sol\":1824:1837  _initializing */\n      dup1\n      0x01\n        /* \"@openzeppelin/contracts-upgradeable/proxy/Initializable.sol\":1824:1845  _initializing = false */\n      0x0100\n      exp\n      dup2\n      sload\n      dup2\n      0xff\n      mul\n      not\n      and\n      swap1\n      dup4\n      iszero\n      iszero\n      mul\n      or\n      swap1\n      sstore\n      pop\n        /* \"@openzeppelin/contracts-upgradeable/proxy/Initializable.sol\":1790:1856  if (isTopLevelCall) {... */\n    tag_55:\n        /* \"contracts/DummyRandoms.sol\":505:579  function initialize() public initializer {... */\n      pop\n      jump\t// out\n        /* \"@openzeppelin/contracts-upgradeable/access/OwnableUpgradeable.sol\":1335:1420  function owner() public view virtual returns (address) {... */\n    tag_26:\n        /* \"@openzeppelin/contracts-upgradeable/access/OwnableUpgradeable.sol\":1381:1388  address */\n      0x00\n        /* \"@openzeppelin/contracts-upgradeable/access/OwnableUpgradeable.sol\":1407:1413  _owner */\n      0x33\n      0x00\n      swap1\n      sload\n      swap1\n      0x0100\n      exp\n      swap1\n      div\n      0xffffffffffffffffffffffffffffffffffffffff\n      and\n        /* \"@openzeppelin/contracts-upgradeable/access/OwnableUpgradeable.sol\":1400:1413  return _owner */\n      swap1\n      pop\n        /* \"@openzeppelin/contracts-upgradeable/access/OwnableUpgradeable.sol\":1335:1420  function owner() public view virtual returns (address) {... */\n      swap1\n      jump\t// out\n        /* \"contracts/HasMain.sol\":232:251  address public main */\n    tag_28:\n      0x65\n      0x00\n      swap1\n      sload\n      swap1\n      0x0100\n      exp\n      swap1\n      div\n      0xffffffffffffffffffffffffffffffffffffffff\n      and\n      dup2\n      jump\t// out\n        /* \"@openzeppelin/contracts-upgradeable/access/OwnableUpgradeable.sol\":2261:2501  function transferOwnership(address newOwner) public virtual onlyOwner {... */\n    tag_31:\n        /* \"@openzeppelin/contracts-upgradeable/access/OwnableUpgradeable.sol\":1558:1570  _msgSender() */\n      tag_58\n        /* \"@openzeppelin/contracts-upgradeable/access/OwnableUpgradeable.sol\":1558:1568  _msgSender */\n      tag_36\n        /* \"@openzeppelin/contracts-upgradeable/access/OwnableUpgradeable.sol\":1558:1570  _msgSender() */\n      jump\t// in\n    tag_58:\n        /* \"@openzeppelin/contracts-upgradeable/access/OwnableUpgradeable.sol\":1547:1570  owner() == _msgSender() */\n      0xffffffffffffffffffffffffffffffffffffffff\n      and\n        /* \"@openzeppelin/contracts-upgradeable/access/OwnableUpgradeable.sol\":1547:1554  owner() */\n      tag_59\n        /* \"@openzeppelin/contracts-upgradeable/access/OwnableUpgradeable.sol\":1547:1552  owner */\n      tag_26\n        /* \"@openzeppelin/contracts-upgradeable/access/OwnableUpgradeable.sol\":1547:1554  owner() */\n      jump\t// in\n    tag_59:\n        /* \"@openzeppelin/contracts-upgradeable/access/OwnableUpgradeable.sol\":1547:1570  owner() == _msgSender() */\n      0xffffffffffffffffffffffffffffffffffffffff\n      and\n      eq\n        /* \"@openzeppelin/contracts-upgradeable/access/OwnableUpgradeable.sol\":1539:1607  require(owner() == _msgSender(), \"Ownable: caller is not the owner\") */\n      tag_60\n      jumpi\n      mload(0x40)\n      0x08c379a000000000000000000000000000000000000000000000000000000000\n      dup2\n      mstore\n      0x04\n      add\n      dup1\n      dup1\n      0x20\n      add\n      dup3\n      dup2\n      sub\n      dup3\n      mstore\n      0x20\n      dup2\n      mstore\n      0x20\n      add\n      dup1\n      0x4f776e61626c653a2063616c6c6572206973206e6f7420746865206f776e6572\n      dup2\n      mstore\n      pop\n      0x20\n      add\n      swap2\n      pop\n      pop\n      mload(0x40)\n      dup1\n      swap2\n      sub\n      swap1\n      revert\n    tag_60:\n        /* \"@openzeppelin/contracts-upgradeable/access/OwnableUpgradeable.sol\":2369:2370  0 */\n      0x00\n        /* \"@openzeppelin/contracts-upgradeable/access/OwnableUpgradeable.sol\":2349:2371  newOwner != address(0) */\n      0xffffffffffffffffffffffffffffffffffffffff\n      and\n        /* \"@openzeppelin/contracts-upgradeable/access/OwnableUpgradeable.sol\":2349:2357  newOwner */\n      dup2\n        /* \"@openzeppelin/contracts-upgradeable/access/OwnableUpgradeable.sol\":2349:2371  newOwner != address(0) */\n      0xffffffffffffffffffffffffffffffffffffffff\n      and\n      eq\n      iszero\n        /* \"@openzeppelin/contracts-upgradeable/access/OwnableUpgradeable.sol\":2341:2414  require(newOwner != address(0), \"Ownable: new owner is the zero address\") */\n      tag_62\n      jumpi\n      mload(0x40)\n      0x08c379a000000000000000000000000000000000000000000000000000000000\n      dup2\n      mstore\n      0x04\n      add\n      dup1\n      dup1\n      0x20\n      add\n      dup3\n      dup2\n      sub\n      dup3\n      mstore\n      0x26\n      dup2\n      mstore\n      0x20\n      add\n      dup1\n      data_245f15ff17f551913a7a18385165551503906a406f905ac1c2437281a7cd0cfe\n      0x26\n      swap2\n      codecopy\n      0x40\n      add\n      swap2\n      pop\n      pop\n      mload(0x40)\n      dup1\n      swap2\n      sub\n      swap1\n      revert\n    tag_62:\n        /* \"@openzeppelin/contracts-upgradeable/access/OwnableUpgradeable.sol\":2458:2466  newOwner */\n      dup1\n        /* \"@openzeppelin/contracts-upgradeable/access/OwnableUpgradeable.sol\":2429:2467  OwnershipTransferred(_owner, newOwner) */\n      0xffffffffffffffffffffffffffffffffffffffff\n      and\n        /* \"@openzeppelin/contracts-upgradeable/access/OwnableUpgradeable.sol\":2450:2456  _owner */\n      0x33\n      0x00\n      swap1\n      sload\n      swap1\n      0x0100\n      exp\n      swap1\n      div\n      0xffffffffffffffffffffffffffffffffffffffff\n      and\n        /* \"@openzeppelin/contracts-upgradeable/access/OwnableUpgradeable.sol\":2429:2467  OwnershipTransferred(_owner, newOwner) */\n      0xffffffffffffffffffffffffffffffffffffffff\n      and\n      0x8be0079c531659141344cd1fd0a4f28419497f9722a3daafe3b4186f6b6457e0\n      mload(0x40)\n      mload(0x40)\n      dup1\n      swap2\n      sub\n      swap1\n      log3\n        /* \"@openzeppelin/contracts-upgradeable/access/OwnableUpgradeable.sol\":2486:2494  newOwner */\n      dup1\n        /* \"@openzeppelin/contracts-upgradeable/access/OwnableUpgradeable.sol\":2477:2483  _owner */\n      0x33\n      0x00\n        /* \"@openzeppelin/contracts-upgradeable/access/OwnableUpgradeable.sol\":2477:2494  _owner = newOwner */\n      0x0100\n      exp\n      dup2\n      sload\n      dup2\n      0xffffffffffffffffffffffffffffffffffffffff\n      mul\n      not\n      and\n      swap1\n      dup4\n      0xffffffffffffffffffffffffffffffffffffffff\n      and\n      mul\n      or\n      swap1\n      sstore\n      pop\n        /* \"@openzeppelin/contracts-upgradeable/access/OwnableUpgradeable.sol\":2261:2501  function transferOwnership(address newOwner) public virtual onlyOwner {... */\n      pop\n      jump\t// out\n        /* \"@openzeppelin/contracts-upgradeable/utils/ContextUpgradeable.sol\":828:932  function _msgSender() internal view virtual returns (address payable) {... */\n    tag_36:\n        /* \"@openzeppelin/contracts-upgradeable/utils/ContextUpgradeable.sol\":881:896  address payable */\n      0x00\n        /* \"@openzeppelin/contracts-upgradeable/utils/ContextUpgradeable.sol\":915:925  msg.sender */\n      caller\n        /* \"@openzeppelin/contracts-upgradeable/utils/ContextUpgradeable.sol\":908:925  return msg.sender */\n      swap1\n      pop\n        /* \"@openzeppelin/contracts-upgradeable/utils/ContextUpgradeable.sol\":828:932  function _msgSender() internal view virtual returns (address payable) {... */\n      swap1\n      jump\t// out\n        /* \"@openzeppelin/contracts-upgradeable/proxy/Initializable.sol\":1952:2075  function _isConstructor() private view returns (bool) {... */\n    tag_48:\n        /* \"@openzeppelin/contracts-upgradeable/proxy/Initializable.sol\":2000:2004  bool */\n      0x00\n        /* \"@openzeppelin/contracts-upgradeable/proxy/Initializable.sol\":2024:2068  AddressUpgradeable.isContract(address(this)) */\n      tag_65\n        /* \"@openzeppelin/contracts-upgradeable/proxy/Initializable.sol\":2062:2066  this */\n      address\n        /* \"@openzeppelin/contracts-upgradeable/proxy/Initializable.sol\":2024:2053  AddressUpgradeable.isContract */\n      tag_66\n        /* \"@openzeppelin/contracts-upgradeable/proxy/Initializable.sol\":2024:2068  AddressUpgradeable.isContract(address(this)) */\n      jump\t// in\n    tag_65:\n        /* \"@openzeppelin/contracts-upgradeable/proxy/Initializable.sol\":2023:2068  !AddressUpgradeable.isContract(address(this)) */\n      iszero\n        /* \"@openzeppelin/contracts-upgradeable/proxy/Initializable.sol\":2016:2068  return !AddressUpgradeable.isContract(address(this)) */\n      swap1\n      pop\n        /* \"@openzeppelin/contracts-upgradeable/proxy/Initializable.sol\":1952:2075  function _isConstructor() private view returns (bool) {... */\n      swap1\n      jump\t// out\n        /* \"contracts/HasMain.sol\":258:374  function __HasMain_init() internal initializer {... */\n    tag_54:\n        /* \"@openzeppelin/contracts-upgradeable/proxy/Initializable.sol\":1512:1525  _initializing */\n      0x00\n      0x01\n      swap1\n      sload\n      swap1\n      0x0100\n      exp\n      swap1\n      div\n      0xff\n      and\n        /* \"@openzeppelin/contracts-upgradeable/proxy/Initializable.sol\":1512:1545  _initializing || _isConstructor() */\n      dup1\n      tag_68\n      jumpi\n      pop\n        /* \"@openzeppelin/contracts-upgradeable/proxy/Initializable.sol\":1529:1545  _isConstructor() */\n      tag_69\n        /* \"@openzeppelin/contracts-upgradeable/proxy/Initializable.sol\":1529:1543  _isConstructor */\n      tag_48\n        /* \"@openzeppelin/contracts-upgradeable/proxy/Initializable.sol\":1529:1545  _isConstructor() */\n      jump\t// in\n    tag_69:\n        /* \"@openzeppelin/contracts-upgradeable/proxy/Initializable.sol\":1512:1545  _initializing || _isConstructor() */\n    tag_68:\n        /* \"@openzeppelin/contracts-upgradeable/proxy/Initializable.sol\":1512:1562  _initializing || _isConstructor() || !_initialized */\n      dup1\n      tag_70\n      jumpi\n      pop\n        /* \"@openzeppelin/contracts-upgradeable/proxy/Initializable.sol\":1550:1562  _initialized */\n      0x00\n      dup1\n      sload\n      swap1\n      0x0100\n      exp\n      swap1\n      div\n      0xff\n      and\n        /* \"@openzeppelin/contracts-upgradeable/proxy/Initializable.sol\":1549:1562  !_initialized */\n      iszero\n        /* \"@openzeppelin/contracts-upgradeable/proxy/Initializable.sol\":1512:1562  _initializing || _isConstructor() || !_initialized */\n    tag_70:\n        /* \"@openzeppelin/contracts-upgradeable/proxy/Initializable.sol\":1504:1613  require(_initializing || _isConstructor() || !_initialized, \"Initializable: contract is already initialized\") */\n      tag_71\n      jumpi\n      mload(0x40)\n      0x08c379a000000000000000000000000000000000000000000000000000000000\n      dup2\n      mstore\n      0x04\n      add\n      dup1\n      dup1\n      0x20\n      add\n      dup3\n      dup2\n      sub\n      dup3\n      mstore\n      0x2e\n      dup2\n      mstore\n      0x20\n      add\n      dup1\n      data_7a2a4e26842155ea933fe6eb6e3137eb5a296dcdf55721c552be7b4c3cc23759\n      0x2e\n      swap2\n      codecopy\n      0x40\n      add\n      swap2\n      pop\n      pop\n      mload(0x40)\n      dup1\n      swap2\n      sub\n      swap1\n      revert\n    tag_71:\n        /* \"@openzeppelin/contracts-upgradeable/proxy/Initializable.sol\":1624:1643  bool isTopLevelCall */\n      0x00\n        /* \"@openzeppelin/contracts-upgradeable/proxy/Initializable.sol\":1647:1660  _initializing */\n      dup1\n      0x01\n      swap1\n      sload\n      swap1\n      0x0100\n      exp\n      swap1\n      div\n      0xff\n      and\n        /* \"@openzeppelin/contracts-upgradeable/proxy/Initializable.sol\":1646:1660  !_initializing */\n      iszero\n        /* \"@openzeppelin/contracts-upgradeable/proxy/Initializable.sol\":1624:1660  bool isTopLevelCall = !_initializing */\n      swap1\n      pop\n        /* \"@openzeppelin/contracts-upgradeable/proxy/Initializable.sol\":1674:1688  isTopLevelCall */\n      dup1\n        /* \"@openzeppelin/contracts-upgradeable/proxy/Initializable.sol\":1670:1768  if (isTopLevelCall) {... */\n      iszero\n      tag_72\n      jumpi\n        /* \"@openzeppelin/contracts-upgradeable/proxy/Initializable.sol\":1720:1724  true */\n      0x01\n        /* \"@openzeppelin/contracts-upgradeable/proxy/Initializable.sol\":1704:1717  _initializing */\n      0x00\n      0x01\n        /* \"@openzeppelin/contracts-upgradeable/proxy/Initializable.sol\":1704:1724  _initializing = true */\n      0x0100\n      exp\n      dup2\n      sload\n      dup2\n      0xff\n      mul\n      not\n      and\n      swap1\n      dup4\n      iszero\n      iszero\n      mul\n      or\n      swap1\n      sstore\n      pop\n        /* \"@openzeppelin/contracts-upgradeable/proxy/Initializable.sol\":1753:1757  true */\n      0x01\n        /* \"@openzeppelin/contracts-upgradeable/proxy/Initializable.sol\":1738:1750  _initialized */\n      0x00\n      dup1\n        /* \"@openzeppelin/contracts-upgradeable/proxy/Initializable.sol\":1738:1757  _initialized = true */\n      0x0100\n      exp\n      dup2\n      sload\n      dup2\n      0xff\n      mul\n      not\n      and\n      swap1\n      dup4\n      iszero\n      iszero\n      mul\n      or\n      swap1\n      sstore\n      pop\n        /* \"@openzeppelin/contracts-upgradeable/proxy/Initializable.sol\":1670:1768  if (isTopLevelCall) {... */\n    tag_72:\n        /* \"contracts/HasMain.sol\":315:331  __Ownable_init() */\n      tag_74\n        /* \"contracts/HasMain.sol\":315:329  __Ownable_init */\n      tag_75\n        /* \"contracts/HasMain.sol\":315:331  __Ownable_init() */\n      jump\t// in\n    tag_74:\n        /* \"contracts/HasMain.sol\":341:367  __HasMain_init_unchained() */\n      tag_76\n        /* \"contracts/HasMain.sol\":341:365  __HasMain_init_unchained */\n      tag_77\n        /* \"contracts/HasMain.sol\":341:367  __HasMain_init_unchained() */\n      jump\t// in\n    tag_76:\n        /* \"@openzeppelin/contracts-upgradeable/proxy/Initializable.sol\":1794:1808  isTopLevelCall */\n      dup1\n        /* \"@openzeppelin/contracts-upgradeable/proxy/Initializable.sol\":1790:1856  if (isTopLevelCall) {... */\n      iszero\n      tag_78\n      jumpi\n        /* \"@openzeppelin/contracts-upgradeable/proxy/Initializable.sol\":1840:1845  false */\n      0x00\n        /* \"@openzeppelin/contracts-upgradeable/proxy/Initializable.sol\":1824:1837  _initializing */\n      dup1\n      0x01\n        /* \"@openzeppelin/contracts-upgradeable/proxy/Initializable.sol\":1824:1845  _initializing = false */\n      0x0100\n      exp\n      dup2\n      sload\n      dup2\n      0xff\n      mul\n      not\n      and\n      swap1\n      dup4\n      iszero\n      iszero\n      mul\n      or\n      swap1\n      sstore\n      pop\n        /* \"@openzeppelin/contracts-upgradeable/proxy/Initializable.sol\":1790:1856  if (isTopLevelCall) {... */\n    tag_78:\n        /* \"contracts/HasMain.sol\":258:374  function __HasMain_init() internal initializer {... */\n      pop\n      jump\t// out\n        /* \"@openzeppelin/contracts-upgradeable/utils/AddressUpgradeable.sol\":737:1150  function isContract(address account) internal view returns (bool) {... */\n    tag_66:\n        /* \"@openzeppelin/contracts-upgradeable/utils/AddressUpgradeable.sol\":797:801  bool */\n      0x00\n        /* \"@openzeppelin/contracts-upgradeable/utils/AddressUpgradeable.sol\":1000:1012  uint256 size */\n      dup1\n        /* \"@openzeppelin/contracts-upgradeable/utils/AddressUpgradeable.sol\":1109:1116  account */\n      dup3\n        /* \"@openzeppelin/contracts-upgradeable/utils/AddressUpgradeable.sol\":1097:1117  extcodesize(account) */\n      extcodesize\n        /* \"@openzeppelin/contracts-upgradeable/utils/AddressUpgradeable.sol\":1089:1117  size := extcodesize(account) */\n      swap1\n      pop\n        /* \"@openzeppelin/contracts-upgradeable/utils/AddressUpgradeable.sol\":1142:1143  0 */\n      0x00\n        /* \"@openzeppelin/contracts-upgradeable/utils/AddressUpgradeable.sol\":1135:1139  size */\n      dup2\n        /* \"@openzeppelin/contracts-upgradeable/utils/AddressUpgradeable.sol\":1135:1143  size > 0 */\n      gt\n        /* \"@openzeppelin/contracts-upgradeable/utils/AddressUpgradeable.sol\":1128:1143  return size > 0 */\n      swap2\n      pop\n      pop\n        /* \"@openzeppelin/contracts-upgradeable/utils/AddressUpgradeable.sol\":737:1150  function isContract(address account) internal view returns (bool) {... */\n      swap2\n      swap1\n      pop\n      jump\t// out\n        /* \"@openzeppelin/contracts-upgradeable/access/OwnableUpgradeable.sol\":935:1061  function __Ownable_init() internal initializer {... */\n    tag_75:\n        /* \"@openzeppelin/contracts-upgradeable/proxy/Initializable.sol\":1512:1525  _initializing */\n      0x00\n      0x01\n      swap1\n      sload\n      swap1\n      0x0100\n      exp\n      swap1\n      div\n      0xff\n      and\n        /* \"@openzeppelin/contracts-upgradeable/proxy/Initializable.sol\":1512:1545  _initializing || _isConstructor() */\n      dup1\n      tag_81\n      jumpi\n      pop\n        /* \"@openzeppelin/contracts-upgradeable/proxy/Initializable.sol\":1529:1545  _isConstructor() */\n      tag_82\n        /* \"@openzeppelin/contracts-upgradeable/proxy/Initializable.sol\":1529:1543  _isConstructor */\n      tag_48\n        /* \"@openzeppelin/contracts-upgradeable/proxy/Initializable.sol\":1529:1545  _isConstructor() */\n      jump\t// in\n    tag_82:\n        /* \"@openzeppelin/contracts-upgradeable/proxy/Initializable.sol\":1512:1545  _initializing || _isConstructor() */\n    tag_81:\n        /* \"@openzeppelin/contracts-upgradeable/proxy/Initializable.sol\":1512:1562  _initializing || _isConstructor() || !_initialized */\n      dup1\n      tag_83\n      jumpi\n      pop\n        /* \"@openzeppelin/contracts-upgradeable/proxy/Initializable.sol\":1550:1562  _initialized */\n      0x00\n      dup1\n      sload\n      swap1\n      0x0100\n      exp\n      swap1\n      div\n      0xff\n      and\n        /* \"@openzeppelin/contracts-upgradeable/proxy/Initializable.sol\":1549:1562  !_initialized */\n      iszero\n        /* \"@openzeppelin/contracts-upgradeable/proxy/Initializable.sol\":1512:1562  _initializing || _isConstructor() || !_initialized */\n    tag_83:\n        /* \"@openzeppelin/contracts-upgradeable/proxy/Initializable.sol\":1504:1613  require(_initializing || _isConstructor() || !_initialized, \"Initializable: contract is already initialized\") */\n      tag_84\n      jumpi\n      mload(0x40)\n      0x08c379a000000000000000000000000000000000000000000000000000000000\n      dup2\n      mstore\n      0x04\n      add\n      dup1\n      dup1\n      0x20\n      add\n      dup3\n      dup2\n      sub\n      dup3\n      mstore\n      0x2e\n      dup2\n      mstore\n      0x20\n      add\n      dup1\n      data_7a2a4e26842155ea933fe6eb6e3137eb5a296dcdf55721c552be7b4c3cc23759\n      0x2e\n      swap2\n      codecopy\n      0x40\n      add\n      swap2\n      pop\n      pop\n      mload(0x40)\n      dup1\n      swap2\n      sub\n      swap1\n      revert\n    tag_84:\n        /* \"@openzeppelin/contracts-upgradeable/proxy/Initializable.sol\":1624:1643  bool isTopLevelCall */\n      0x00\n        /* \"@openzeppelin/contracts-upgradeable/proxy/Initializable.sol\":1647:1660  _initializing */\n      dup1\n      0x01\n      swap1\n      sload\n      swap1\n      0x0100\n      exp\n      swap1\n      div\n      0xff\n      and\n        /* \"@openzeppelin/contracts-upgradeable/proxy/Initializable.sol\":1646:1660  !_initializing */\n      iszero\n        /* \"@openzeppelin/contracts-upgradeable/proxy/Initializable.sol\":1624:1660  bool isTopLevelCall = !_initializing */\n      swap1\n      pop\n        /* \"@openzeppelin/contracts-upgradeable/proxy/Initializable.sol\":1674:1688  isTopLevelCall */\n      dup1\n        /* \"@openzeppelin/contracts-upgradeable/proxy/Initializable.sol\":1670:1768  if (isTopLevelCall) {... */\n      iszero\n      tag_85\n      jumpi\n        /* \"@openzeppelin/contracts-upgradeable/proxy/Initializable.sol\":1720:1724  true */\n      0x01\n        /* \"@openzeppelin/contracts-upgradeable/proxy/Initializable.sol\":1704:1717  _initializing */\n      0x00\n      0x01\n        /* \"@openzeppelin/contracts-upgradeable/proxy/Initializable.sol\":1704:1724  _initializing = true */\n      0x0100\n      exp\n      dup2\n      sload\n      dup2\n      0xff\n      mul\n      not\n      and\n      swap1\n      dup4\n      iszero\n      iszero\n      mul\n      or\n      swap1\n      sstore\n      pop\n        /* \"@openzeppelin/contracts-upgradeable/proxy/Initializable.sol\":1753:1757  true */\n      0x01\n        /* \"@openzeppelin/contracts-upgradeable/proxy/Initializable.sol\":1738:1750  _initialized */\n      0x00\n      dup1\n        /* \"@openzeppelin/contracts-upgradeable/proxy/Initializable.sol\":1738:1757  _initialized = true */\n      0x0100\n      exp\n      dup2\n      sload\n      dup2\n      0xff\n      mul\n      not\n      and\n      swap1\n      dup4\n      iszero\n      iszero\n      mul\n      or\n      swap1\n      sstore\n      pop\n        /* \"@openzeppelin/contracts-upgradeable/proxy/Initializable.sol\":1670:1768  if (isTopLevelCall) {... */\n    tag_85:\n        /* \"@openzeppelin/contracts-upgradeable/access/OwnableUpgradeable.sol\":992:1018  __Context_init_unchained() */\n      tag_87\n        /* \"@openzeppelin/contracts-upgradeable/access/OwnableUpgradeable.sol\":992:1016  __Context_init_unchained */\n      tag_88\n        /* \"@openzeppelin/contracts-upgradeable/access/OwnableUpgradeable.sol\":992:1018  __Context_init_unchained() */\n      jump\t// in\n    tag_87:\n        /* \"@openzeppelin/contracts-upgradeable/access/OwnableUpgradeable.sol\":1028:1054  __Ownable_init_unchained() */\n      tag_89\n        /* \"@openzeppelin/contracts-upgradeable/access/OwnableUpgradeable.sol\":1028:1052  __Ownable_init_unchained */\n      tag_90\n        /* \"@openzeppelin/contracts-upgradeable/access/OwnableUpgradeable.sol\":1028:1054  __Ownable_init_unchained() */\n      jump\t// in\n    tag_89:\n        /* \"@openzeppelin/contracts-upgradeable/proxy/Initializable.sol\":1794:1808  isTopLevelCall */\n      dup1\n        /* \"@openzeppelin/contracts-upgradeable/proxy/Initializable.sol\":1790:1856  if (isTopLevelCall) {... */\n      iszero\n      tag_91\n      jumpi\n        /* \"@openzeppelin/contracts-upgradeable/proxy/Initializable.sol\":1840:1845  false */\n      0x00\n        /* \"@openzeppelin/contracts-upgradeable/proxy/Initializable.sol\":1824:1837  _initializing */\n      dup1\n      0x01\n        /* \"@openzeppelin/contracts-upgradeable/proxy/Initializable.sol\":1824:1845  _initializing = false */\n      0x0100\n      exp\n      dup2\n      sload\n      dup2\n      0xff\n      mul\n      not\n      and\n      swap1\n      dup4\n      iszero\n      iszero\n      mul\n      or\n      swap1\n      sstore\n      pop\n        /* \"@openzeppelin/contracts-upgradeable/proxy/Initializable.sol\":1790:1856  if (isTopLevelCall) {... */\n    tag_91:\n        /* \"@openzeppelin/contracts-upgradeable/access/OwnableUpgradeable.sol\":935:1061  function __Ownable_init() internal initializer {... */\n      pop\n      jump\t// out\n        /* \"contracts/HasMain.sol\":380:471  function __HasMain_init_unchained() internal initializer {... */\n    tag_77:\n        /* \"@openzeppelin/contracts-upgradeable/proxy/Initializable.sol\":1512:1525  _initializing */\n      0x00\n      0x01\n      swap1\n      sload\n      swap1\n      0x0100\n      exp\n      swap1\n      div\n      0xff\n      and\n        /* \"@openzeppelin/contracts-upgradeable/proxy/Initializable.sol\":1512:1545  _initializing || _isConstructor() */\n      dup1\n      tag_93\n      jumpi\n      pop\n        /* \"@openzeppelin/contracts-upgradeable/proxy/Initializable.sol\":1529:1545  _isConstructor() */\n      tag_94\n        /* \"@openzeppelin/contracts-upgradeable/proxy/Initializable.sol\":1529:1543  _isConstructor */\n      tag_48\n        /* \"@openzeppelin/contracts-upgradeable/proxy/Initializable.sol\":1529:1545  _isConstructor() */\n      jump\t// in\n    tag_94:\n        /* \"@openzeppelin/contracts-upgradeable/proxy/Initializable.sol\":1512:1545  _initializing || _isConstructor() */\n    tag_93:\n        /* \"@openzeppelin/contracts-upgradeable/proxy/Initializable.sol\":1512:1562  _initializing || _isConstructor() || !_initialized */\n      dup1\n      tag_95\n      jumpi\n      pop\n        /* \"@openzeppelin/contracts-upgradeable/proxy/Initializable.sol\":1550:1562  _initialized */\n      0x00\n      dup1\n      sload\n      swap1\n      0x0100\n      exp\n      swap1\n      div\n      0xff\n      and\n        /* \"@openzeppelin/contracts-upgradeable/proxy/Initializable.sol\":1549:1562  !_initialized */\n      iszero\n        /* \"@openzeppelin/contracts-upgradeable/proxy/Initializable.sol\":1512:1562  _initializing || _isConstructor() || !_initialized */\n    tag_95:\n        /* \"@openzeppelin/contracts-upgradeable/proxy/Initializable.sol\":1504:1613  require(_initializing || _isConstructor() || !_initialized, \"Initializable: contract is already initialized\") */\n      tag_96\n      jumpi\n      mload(0x40)\n      0x08c379a000000000000000000000000000000000000000000000000000000000\n      dup2\n      mstore\n      0x04\n      add\n      dup1\n      dup1\n      0x20\n      add\n      dup3\n      dup2\n      sub\n      dup3\n      mstore\n      0x2e\n      dup2\n      mstore\n      0x20\n      add\n      dup1\n      data_7a2a4e26842155ea933fe6eb6e3137eb5a296dcdf55721c552be7b4c3cc23759\n      0x2e\n      swap2\n      codecopy\n      0x40\n      add\n      swap2\n      pop\n      pop\n      mload(0x40)\n      dup1\n      swap2\n      sub\n      swap1\n      revert\n    tag_96:\n        /* \"@openzeppelin/contracts-upgradeable/proxy/Initializable.sol\":1624:1643  bool isTopLevelCall */\n      0x00\n        /* \"@openzeppelin/contracts-upgradeable/proxy/Initializable.sol\":1647:1660  _initializing */\n      dup1\n      0x01\n      swap1\n      sload\n      swap1\n      0x0100\n      exp\n      swap1\n      div\n      0xff\n      and\n        /* \"@openzeppelin/contracts-upgradeable/proxy/Initializable.sol\":1646:1660  !_initializing */\n      iszero\n        /* \"@openzeppelin/contracts-upgradeable/proxy/Initializable.sol\":1624:1660  bool isTopLevelCall = !_initializing */\n      swap1\n      pop\n        /* \"@openzeppelin/contracts-upgradeable/proxy/Initializable.sol\":1674:1688  isTopLevelCall */\n      dup1\n        /* \"@openzeppelin/contracts-upgradeable/proxy/Initializable.sol\":1670:1768  if (isTopLevelCall) {... */\n      iszero\n      tag_97\n      jumpi\n        /* \"@openzeppelin/contracts-upgradeable/proxy/Initializable.sol\":1720:1724  true */\n      0x01\n        /* \"@openzeppelin/contracts-upgradeable/proxy/Initializable.sol\":1704:1717  _initializing */\n      0x00\n      0x01\n        /* \"@openzeppelin/contracts-upgradeable/proxy/Initializable.sol\":1704:1724  _initializing = true */\n      0x0100\n      exp\n      dup2\n      sload\n      dup2\n      0xff\n      mul\n      not\n      and\n      swap1\n      dup4\n      iszero\n      iszero\n      mul\n      or\n      swap1\n      sstore\n      pop\n        /* \"@openzeppelin/contracts-upgradeable/proxy/Initializable.sol\":1753:1757  true */\n      0x01\n        /* \"@openzeppelin/contracts-upgradeable/proxy/Initializable.sol\":1738:1750  _initialized */\n      0x00\n      dup1\n        /* \"@openzeppelin/contracts-upgradeable/proxy/Initializable.sol\":1738:1757  _initialized = true */\n      0x0100\n      exp\n      dup2\n      sload\n      dup2\n      0xff\n      mul\n      not\n      and\n      swap1\n      dup4\n      iszero\n      iszero\n      mul\n      or\n      swap1\n      sstore\n      pop\n        /* \"@openzeppelin/contracts-upgradeable/proxy/Initializable.sol\":1670:1768  if (isTopLevelCall) {... */\n    tag_97:\n        /* \"contracts/HasMain.sol\":462:463  0 */\n      0x00\n        /* \"contracts/HasMain.sol\":447:451  main */\n      0x65\n      0x00\n        /* \"contracts/HasMain.sol\":447:464  main = address(0) */\n      0x0100\n      exp\n      dup2\n      sload\n      dup2\n      0xffffffffffffffffffffffffffffffffffffffff\n      mul\n      not\n      and\n      swap1\n      dup4\n      0xffffffffffffffffffffffffffffffffffffffff\n      and\n      mul\n      or\n      swap1\n      sstore\n      pop\n        /* \"@openzeppelin/contracts-upgradeable/proxy/Initializable.sol\":1794:1808  isTopLevelCall */\n      dup1\n        /* \"@openzeppelin/contracts-upgradeable/proxy/Initializable.sol\":1790:1856  if (isTopLevelCall) {... */\n      iszero\n      tag_99\n      jumpi\n        /* \"@openzeppelin/contracts-upgradeable/proxy/Initializable.sol\":1840:1845  false */\n      0x00\n        /* \"@openzeppelin/contracts-upgradeable/proxy/Initializable.sol\":1824:1837  _initializing */\n      dup1\n      0x01\n        /* \"@openzeppelin/contracts-upgradeable/proxy/Initializable.sol\":1824:1845  _initializing = false */\n      0x0100\n      exp\n      dup2\n      sload\n      dup2\n      0xff\n      mul\n      not\n      and\n      swap1\n      dup4\n      iszero\n      iszero\n      mul\n      or\n      swap1\n      sstore\n      pop\n        /* \"@openzeppelin/contracts-upgradeable/proxy/Initializable.sol\":1790:1856  if (isTopLevelCall) {... */\n    tag_99:\n        /* \"contracts/HasMain.sol\":380:471  function __HasMain_init_unchained() internal initializer {... */\n      pop\n      jump\t// out\n        /* \"@openzeppelin/contracts-upgradeable/utils/ContextUpgradeable.sol\":759:823  function __Context_init_unchained() internal initializer {... */\n    tag_88:\n        /* \"@openzeppelin/contracts-upgradeable/proxy/Initializable.sol\":1512:1525  _initializing */\n      0x00\n      0x01\n      swap1\n      sload\n      swap1\n      0x0100\n      exp\n      swap1\n      div\n      0xff\n      and\n        /* \"@openzeppelin/contracts-upgradeable/proxy/Initializable.sol\":1512:1545  _initializing || _isConstructor() */\n      dup1\n      tag_101\n      jumpi\n      pop\n        /* \"@openzeppelin/contracts-upgradeable/proxy/Initializable.sol\":1529:1545  _isConstructor() */\n      tag_102\n        /* \"@openzeppelin/contracts-upgradeable/proxy/Initializable.sol\":1529:1543  _isConstructor */\n      tag_48\n        /* \"@openzeppelin/contracts-upgradeable/proxy/Initializable.sol\":1529:1545  _isConstructor() */\n      jump\t// in\n    tag_102:\n        /* \"@openzeppelin/contracts-upgradeable/proxy/Initializable.sol\":1512:1545  _initializing || _isConstructor() */\n    tag_101:\n        /* \"@openzeppelin/contracts-upgradeable/proxy/Initializable.sol\":1512:1562  _initializing || _isConstructor() || !_initialized */\n      dup1\n      tag_103\n      jumpi\n      pop\n        /* \"@openzeppelin/contracts-upgradeable/proxy/Initializable.sol\":1550:1562  _initialized */\n      0x00\n      dup1\n      sload\n      swap1\n      0x0100\n      exp\n      swap1\n      div\n      0xff\n      and\n        /* \"@openzeppelin/contracts-upgradeable/proxy/Initializable.sol\":1549:1562  !_initialized */\n      iszero\n        /* \"@openzeppelin/contracts-upgradeable/proxy/Initializable.sol\":1512:1562  _initializing || _isConstructor() || !_initialized */\n    tag_103:\n        /* \"@openzeppelin/contracts-upgradeable/proxy/Initializable.sol\":1504:1613  require(_initializing || _isConstructor() || !_initialized, \"Initializable: contract is already initialized\") */\n      tag_104\n      jumpi\n      mload(0x40)\n      0x08c379a000000000000000000000000000000000000000000000000000000000\n      dup2\n      mstore\n      0x04\n      add\n      dup1\n      dup1\n      0x20\n      add\n      dup3\n      dup2\n      sub\n      dup3\n      mstore\n      0x2e\n      dup2\n      mstore\n      0x20\n      add\n      dup1\n      data_7a2a4e26842155ea933fe6eb6e3137eb5a296dcdf55721c552be7b4c3cc23759\n      0x2e\n      swap2\n      codecopy\n      0x40\n      add\n      swap2\n      pop\n      pop\n      mload(0x40)\n      dup1\n      swap2\n      sub\n      swap1\n      revert\n    tag_104:\n        /* \"@openzeppelin/contracts-upgradeable/proxy/Initializable.sol\":1624:1643  bool isTopLevelCall */\n      0x00\n        /* \"@openzeppelin/contracts-upgradeable/proxy/Initializable.sol\":1647:1660  _initializing */\n      dup1\n      0x01\n      swap1\n      sload\n      swap1\n      0x0100\n      exp\n      swap1\n      div\n      0xff\n      and\n        /* \"@openzeppelin/contracts-upgradeable/proxy/Initializable.sol\":1646:1660  !_initializing */\n      iszero\n        /* \"@openzeppelin/contracts-upgradeable/proxy/Initializable.sol\":1624:1660  bool isTopLevelCall = !_initializing */\n      swap1\n      pop\n        /* \"@openzeppelin/contracts-upgradeable/proxy/Initializable.sol\":1674:1688  isTopLevelCall */\n      dup1\n        /* \"@openzeppelin/contracts-upgradeable/proxy/Initializable.sol\":1670:1768  if (isTopLevelCall) {... */\n      iszero\n      tag_105\n      jumpi\n        /* \"@openzeppelin/contracts-upgradeable/proxy/Initializable.sol\":1720:1724  true */\n      0x01\n        /* \"@openzeppelin/contracts-upgradeable/proxy/Initializable.sol\":1704:1717  _initializing */\n      0x00\n      0x01\n        /* \"@openzeppelin/contracts-upgradeable/proxy/Initializable.sol\":1704:1724  _initializing = true */\n      0x0100\n      exp\n      dup2\n      sload\n      dup2\n      0xff\n      mul\n      not\n      and\n      swap1\n      dup4\n      iszero\n      iszero\n      mul\n      or\n      swap1\n      sstore\n      pop\n        /* \"@openzeppelin/contracts-upgradeable/proxy/Initializable.sol\":1753:1757  true */\n      0x01\n        /* \"@openzeppelin/contracts-upgradeable/proxy/Initializable.sol\":1738:1750  _initialized */\n      0x00\n      dup1\n        /* \"@openzeppelin/contracts-upgradeable/proxy/Initializable.sol\":1738:1757  _initialized = true */\n      0x0100\n      exp\n      dup2\n      sload\n      dup2\n      0xff\n      mul\n      not\n      and\n      swap1\n      dup4\n      iszero\n      iszero\n      mul\n      or\n      swap1\n      sstore\n      pop\n        /* \"@openzeppelin/contracts-upgradeable/proxy/Initializable.sol\":1670:1768  if (isTopLevelCall) {... */\n    tag_105:\n        /* \"@openzeppelin/contracts-upgradeable/proxy/Initializable.sol\":1794:1808  isTopLevelCall */\n      dup1\n        /* \"@openzeppelin/contracts-upgradeable/proxy/Initializable.sol\":1790:1856  if (isTopLevelCall) {... */\n      iszero\n      tag_107\n      jumpi\n        /* \"@openzeppelin/contracts-upgradeable/proxy/Initializable.sol\":1840:1845  false */\n      0x00\n        /* \"@openzeppelin/contracts-upgradeable/proxy/Initializable.sol\":1824:1837  _initializing */\n      dup1\n      0x01\n        /* \"@openzeppelin/contracts-upgradeable/proxy/Initializable.sol\":1824:1845  _initializing = false */\n      0x0100\n      exp\n      dup2\n      sload\n      dup2\n      0xff\n      mul\n      not\n      and\n      swap1\n      dup4\n      iszero\n      iszero\n      mul\n      or\n      swap1\n      sstore\n      pop\n        /* \"@openzeppelin/contracts-upgradeable/proxy/Initializable.sol\":1790:1856  if (isTopLevelCall) {... */\n    tag_107:\n        /* \"@openzeppelin/contracts-upgradeable/utils/ContextUpgradeable.sol\":759:823  function __Context_init_unchained() internal initializer {... */\n      pop\n      jump\t// out\n        /* \"@openzeppelin/contracts-upgradeable/access/OwnableUpgradeable.sol\":1067:1259  function __Ownable_init_unchained() internal initializer {... */\n    tag_90:\n        /* \"@openzeppelin/contracts-upgradeable/proxy/Initializable.sol\":1512:1525  _initializing */\n      0x00\n      0x01\n      swap1\n      sload\n      swap1\n      0x0100\n      exp\n      swap1\n      div\n      0xff\n      and\n        /* \"@openzeppelin/contracts-upgradeable/proxy/Initializable.sol\":1512:1545  _initializing || _isConstructor() */\n      dup1\n      tag_109\n      jumpi\n      pop\n        /* \"@openzeppelin/contracts-upgradeable/proxy/Initializable.sol\":1529:1545  _isConstructor() */\n      tag_110\n        /* \"@openzeppelin/contracts-upgradeable/proxy/Initializable.sol\":1529:1543  _isConstructor */\n      tag_48\n        /* \"@openzeppelin/contracts-upgradeable/proxy/Initializable.sol\":1529:1545  _isConstructor() */\n      jump\t// in\n    tag_110:\n        /* \"@openzeppelin/contracts-upgradeable/proxy/Initializable.sol\":1512:1545  _initializing || _isConstructor() */\n    tag_109:\n        /* \"@openzeppelin/contracts-upgradeable/proxy/Initializable.sol\":1512:1562  _initializing || _isConstructor() || !_initialized */\n      dup1\n      tag_111\n      jumpi\n      pop\n        /* \"@openzeppelin/contracts-upgradeable/proxy/Initializable.sol\":1550:1562  _initialized */\n      0x00\n      dup1\n      sload\n      swap1\n      0x0100\n      exp\n      swap1\n      div\n      0xff\n      and\n        /* \"@openzeppelin/contracts-upgradeable/proxy/Initializable.sol\":1549:1562  !_initialized */\n      iszero\n        /* \"@openzeppelin/contracts-upgradeable/proxy/Initializable.sol\":1512:1562  _initializing || _isConstructor() || !_initialized */\n    tag_111:\n        /* \"@openzeppelin/contracts-upgradeable/proxy/Initializable.sol\":1504:1613  require(_initializing || _isConstructor() || !_initialized, \"Initializable: contract is already initialized\") */\n      tag_112\n      jumpi\n      mload(0x40)\n      0x08c379a000000000000000000000000000000000000000000000000000000000\n      dup2\n      mstore\n      0x04\n      add\n      dup1\n      dup1\n      0x20\n      add\n      dup3\n      dup2\n      sub\n      dup3\n      mstore\n      0x2e\n      dup2\n      mstore\n      0x20\n      add\n      dup1\n      data_7a2a4e26842155ea933fe6eb6e3137eb5a296dcdf55721c552be7b4c3cc23759\n      0x2e\n      swap2\n      codecopy\n      0x40\n      add\n      swap2\n      pop\n      pop\n      mload(0x40)\n      dup1\n      swap2\n      sub\n      swap1\n      revert\n    tag_112:\n        /* \"@openzeppelin/contracts-upgradeable/proxy/Initializable.sol\":1624:1643  bool isTopLevelCall */\n      0x00\n        /* \"@openzeppelin/contracts-upgradeable/proxy/Initializable.sol\":1647:1660  _initializing */\n      dup1\n      0x01\n      swap1\n      sload\n      swap1\n      0x0100\n      exp\n      swap1\n      div\n      0xff\n      and\n        /* \"@openzeppelin/contracts-upgradeable/proxy/Initializable.sol\":1646:1660  !_initializing */\n      iszero\n        /* \"@openzeppelin/contracts-upgradeable/proxy/Initializable.sol\":1624:1660  bool isTopLevelCall = !_initializing */\n      swap1\n      pop\n        /* \"@openzeppelin/contracts-upgradeable/proxy/Initializable.sol\":1674:1688  isTopLevelCall */\n      dup1\n        /* \"@openzeppelin/contracts-upgradeable/proxy/Initializable.sol\":1670:1768  if (isTopLevelCall) {... */\n      iszero\n      tag_113\n      jumpi\n        /* \"@openzeppelin/contracts-upgradeable/proxy/Initializable.sol\":1720:1724  true */\n      0x01\n        /* \"@openzeppelin/contracts-upgradeable/proxy/Initializable.sol\":1704:1717  _initializing */\n      0x00\n      0x01\n        /* \"@openzeppelin/contracts-upgradeable/proxy/Initializable.sol\":1704:1724  _initializing = true */\n      0x0100\n      exp\n      dup2\n      sload\n      dup2\n      0xff\n      mul\n      not\n      and\n      swap1\n      dup4\n      iszero\n      iszero\n      mul\n      or\n      swap1\n      sstore\n      pop\n        /* \"@openzeppelin/contracts-upgradeable/proxy/Initializable.sol\":1753:1757  true */\n      0x01\n        /* \"@openzeppelin/contracts-upgradeable/proxy/Initializable.sol\":1738:1750  _initialized */\n      0x00\n      dup1\n        /* \"@openzeppelin/contracts-upgradeable/proxy/Initializable.sol\":1738:1757  _initialized = true */\n      0x0100\n      exp\n      dup2\n      sload\n      dup2\n      0xff\n      mul\n      not\n      and\n      swap1\n      dup4\n      iszero\n      iszero\n      mul\n      or\n      swap1\n      sstore\n      pop\n        /* \"@openzeppelin/contracts-upgradeable/proxy/Initializable.sol\":1670:1768  if (isTopLevelCall) {... */\n    tag_113:\n        /* \"@openzeppelin/contracts-upgradeable/access/OwnableUpgradeable.sol\":1134:1151  address msgSender */\n      0x00\n        /* \"@openzeppelin/contracts-upgradeable/access/OwnableUpgradeable.sol\":1154:1166  _msgSender() */\n      tag_115\n        /* \"@openzeppelin/contracts-upgradeable/access/OwnableUpgradeable.sol\":1154:1164  _msgSender */\n      tag_36\n        /* \"@openzeppelin/contracts-upgradeable/access/OwnableUpgradeable.sol\":1154:1166  _msgSender() */\n      jump\t// in\n    tag_115:\n        /* \"@openzeppelin/contracts-upgradeable/access/OwnableUpgradeable.sol\":1134:1166  address msgSender = _msgSender() */\n      swap1\n      pop\n        /* \"@openzeppelin/contracts-upgradeable/access/OwnableUpgradeable.sol\":1185:1194  msgSender */\n      dup1\n        /* \"@openzeppelin/contracts-upgradeable/access/OwnableUpgradeable.sol\":1176:1182  _owner */\n      0x33\n      0x00\n        /* \"@openzeppelin/contracts-upgradeable/access/OwnableUpgradeable.sol\":1176:1194  _owner = msgSender */\n      0x0100\n      exp\n      dup2\n      sload\n      dup2\n      0xffffffffffffffffffffffffffffffffffffffff\n      mul\n      not\n      and\n      swap1\n      dup4\n      0xffffffffffffffffffffffffffffffffffffffff\n      and\n      mul\n      or\n      swap1\n      sstore\n      pop\n        /* \"@openzeppelin/contracts-upgradeable/access/OwnableUpgradeable.sol\":1242:1251  msgSender */\n      dup1\n        /* \"@openzeppelin/contracts-upgradeable/access/OwnableUpgradeable.sol\":1209:1252  OwnershipTransferred(address(0), msgSender) */\n      0xffffffffffffffffffffffffffffffffffffffff\n      and\n        /* \"@openzeppelin/contracts-upgradeable/access/OwnableUpgradeable.sol\":1238:1239  0 */\n      0x00\n        /* \"@openzeppelin/contracts-upgradeable/access/OwnableUpgradeable.sol\":1209:1252  OwnershipTransferred(address(0), msgSender) */\n      0xffffffffffffffffffffffffffffffffffffffff\n      and\n      0x8be0079c531659141344cd1fd0a4f28419497f9722a3daafe3b4186f6b6457e0\n      mload(0x40)\n      mload(0x40)\n      dup1\n      swap2\n      sub\n      swap1\n      log3\n        /* \"@openzeppelin/contracts-upgradeable/proxy/Initializable.sol\":1778:1779  _ */\n      pop\n        /* \"@openzeppelin/contracts-upgradeable/proxy/Initializable.sol\":1794:1808  isTopLevelCall */\n      dup1\n        /* \"@openzeppelin/contracts-upgradeable/proxy/Initializable.sol\":1790:1856  if (isTopLevelCall) {... */\n      iszero\n      tag_116\n      jumpi\n        /* \"@openzeppelin/contracts-upgradeable/proxy/Initializable.sol\":1840:1845  false */\n      0x00\n        /* \"@openzeppelin/contracts-upgradeable/proxy/Initializable.sol\":1824:1837  _initializing */\n      dup1\n      0x01\n        /* \"@openzeppelin/contracts-upgradeable/proxy/Initializable.sol\":1824:1845  _initializing = false */\n      0x0100\n      exp\n      dup2\n      sload\n      dup2\n      0xff\n      mul\n      not\n      and\n      swap1\n      dup4\n      iszero\n      iszero\n      mul\n      or\n      swap1\n      sstore\n      pop\n        /* \"@openzeppelin/contracts-upgradeable/proxy/Initializable.sol\":1790:1856  if (isTopLevelCall) {... */\n    tag_116:\n        /* \"@openzeppelin/contracts-upgradeable/access/OwnableUpgradeable.sol\":1067:1259  function __Ownable_init_unchained() internal initializer {... */\n      pop\n      jump\t// out\n    stop\n    data_245f15ff17f551913a7a18385165551503906a406f905ac1c2437281a7cd0cfe 4f776e61626c653a206e6577206f776e657220697320746865207a65726f2061646472657373\n    data_7a2a4e26842155ea933fe6eb6e3137eb5a296dcdf55721c552be7b4c3cc23759 496e697469616c697a61626c653a20636f6e747261637420697320616c726561647920696e697469616c697a6564\n\n    auxdata: 0xa26469706673582212205cb68db71269ef1c0da79936943c61778effeb89fabf9e50a9bdb9265ab8f1b064736f6c634300060c0033\n}\n",
				"bytecode": {
					"linkReferences": {},
					"object": "608060405234801561001057600080fd5b50610ee4806100206000396000f3fe608060405234801561001057600080fd5b50600436106100885760003560e01c80638129fc1c1161005b5780638129fc1c146101615780638da5cb5b1461016b578063dffeadd01461019f578063f2fde38b146101d357610088565b80630d2a0b341461008d5780633883d854146100bb578063715018a614610113578063801161b01461011d575b600080fd5b6100b9600480360360208110156100a357600080fd5b8101908080359060200190929190505050610217565b005b6100fd600480360360208110156100d157600080fd5b81019080803573ffffffffffffffffffffffffffffffffffffffff169060200190929190505050610221565b6040518082815260200191505060405180910390f35b61011b61027f565b005b61015f6004803603602081101561013357600080fd5b81019080803573ffffffffffffffffffffffffffffffffffffffff1690602001909291905050506103ef565b005b6101696104e2565b005b6101736105e8565b604051808273ffffffffffffffffffffffffffffffffffffffff16815260200191505060405180910390f35b6101a7610612565b604051808273ffffffffffffffffffffffffffffffffffffffff16815260200191505060405180910390f35b610215600480360360208110156101e957600080fd5b81019080803573ffffffffffffffffffffffffffffffffffffffff169060200190929190505050610638565b005b8060698190555050565b60008160695442604051602001808473ffffffffffffffffffffffffffffffffffffffff1660601b815260140183815260200182815260200193505050506040516020818303038152906040528051906020012060001c9050919050565b61028761082d565b73ffffffffffffffffffffffffffffffffffffffff166102a56105e8565b73ffffffffffffffffffffffffffffffffffffffff161461032e576040517f08c379a00000000000000000000000000000000000000000000000000000000081526004018080602001828103825260208152602001807f4f776e61626c653a2063616c6c6572206973206e6f7420746865206f776e657281525060200191505060405180910390fd5b600073ffffffffffffffffffffffffffffffffffffffff16603360009054906101000a900473ffffffffffffffffffffffffffffffffffffffff1673ffffffffffffffffffffffffffffffffffffffff167f8be0079c531659141344cd1fd0a4f28419497f9722a3daafe3b4186f6b6457e060405160405180910390a36000603360006101000a81548173ffffffffffffffffffffffffffffffffffffffff021916908373ffffffffffffffffffffffffffffffffffffffff160217905550565b6103f761082d565b73ffffffffffffffffffffffffffffffffffffffff166104156105e8565b73ffffffffffffffffffffffffffffffffffffffff161461049e576040517f08c379a00000000000000000000000000000000000000000000000000000000081526004018080602001828103825260208152602001807f4f776e61626c653a2063616c6c6572206973206e6f7420746865206f776e657281525060200191505060405180910390fd5b80606560006101000a81548173ffffffffffffffffffffffffffffffffffffffff021916908373ffffffffffffffffffffffffffffffffffffffff16021790555050565b600060019054906101000a900460ff16806105015750610500610835565b5b80610517575060008054906101000a900460ff16155b61056c576040517f08c379a000000000000000000000000000000000000000000000000000000000815260040180806020018281038252602e815260200180610e81602e913960400191505060405180910390fd5b60008060019054906101000a900460ff1615905080156105bc576001600060016101000a81548160ff02191690831515021790555060016000806101000a81548160ff0219169083151502179055505b6105c4610846565b80156105e55760008060016101000a81548160ff0219169083151502179055505b50565b6000603360009054906101000a900473ffffffffffffffffffffffffffffffffffffffff16905090565b606560009054906101000a900473ffffffffffffffffffffffffffffffffffffffff1681565b61064061082d565b73ffffffffffffffffffffffffffffffffffffffff1661065e6105e8565b73ffffffffffffffffffffffffffffffffffffffff16146106e7576040517f08c379a00000000000000000000000000000000000000000000000000000000081526004018080602001828103825260208152602001807f4f776e61626c653a2063616c6c6572206973206e6f7420746865206f776e657281525060200191505060405180910390fd5b600073ffffffffffffffffffffffffffffffffffffffff168173ffffffffffffffffffffffffffffffffffffffff16141561076d576040517f08c379a0000000000000000000000000000000000000000000000000000000008152600401808060200182810382526026815260200180610e5b6026913960400191505060405180910390fd5b8073ffffffffffffffffffffffffffffffffffffffff16603360009054906101000a900473ffffffffffffffffffffffffffffffffffffffff1673ffffffffffffffffffffffffffffffffffffffff167f8be0079c531659141344cd1fd0a4f28419497f9722a3daafe3b4186f6b6457e060405160405180910390a380603360006101000a81548173ffffffffffffffffffffffffffffffffffffffff021916908373ffffffffffffffffffffffffffffffffffffffff16021790555050565b600033905090565b600061084030610954565b15905090565b600060019054906101000a900460ff16806108655750610864610835565b5b8061087b575060008054906101000a900460ff16155b6108d0576040517f08c379a000000000000000000000000000000000000000000000000000000000815260040180806020018281038252602e815260200180610e81602e913960400191505060405180910390fd5b60008060019054906101000a900460ff161590508015610920576001600060016101000a81548160ff02191690831515021790555060016000806101000a81548160ff0219169083151502179055505b610928610967565b610930610a75565b80156109515760008060016101000a81548160ff0219169083151502179055505b50565b600080823b905060008111915050919050565b600060019054906101000a900460ff16806109865750610985610835565b5b8061099c575060008054906101000a900460ff16155b6109f1576040517f08c379a000000000000000000000000000000000000000000000000000000000815260040180806020018281038252602e815260200180610e81602e913960400191505060405180910390fd5b60008060019054906101000a900460ff161590508015610a41576001600060016101000a81548160ff02191690831515021790555060016000806101000a81548160ff0219169083151502179055505b610a49610bb5565b610a51610cb3565b8015610a725760008060016101000a81548160ff0219169083151502179055505b50565b600060019054906101000a900460ff1680610a945750610a93610835565b5b80610aaa575060008054906101000a900460ff16155b610aff576040517f08c379a000000000000000000000000000000000000000000000000000000000815260040180806020018281038252602e815260200180610e81602e913960400191505060405180910390fd5b60008060019054906101000a900460ff161590508015610b4f576001600060016101000a81548160ff02191690831515021790555060016000806101000a81548160ff0219169083151502179055505b6000606560006101000a81548173ffffffffffffffffffffffffffffffffffffffff021916908373ffffffffffffffffffffffffffffffffffffffff1602179055508015610bb25760008060016101000a81548160ff0219169083151502179055505b50565b600060019054906101000a900460ff1680610bd45750610bd3610835565b5b80610bea575060008054906101000a900460ff16155b610c3f576040517f08c379a000000000000000000000000000000000000000000000000000000000815260040180806020018281038252602e815260200180610e81602e913960400191505060405180910390fd5b60008060019054906101000a900460ff161590508015610c8f576001600060016101000a81548160ff02191690831515021790555060016000806101000a81548160ff0219169083151502179055505b8015610cb05760008060016101000a81548160ff0219169083151502179055505b50565b600060019054906101000a900460ff1680610cd25750610cd1610835565b5b80610ce8575060008054906101000a900460ff16155b610d3d576040517f08c379a000000000000000000000000000000000000000000000000000000000815260040180806020018281038252602e815260200180610e81602e913960400191505060405180910390fd5b60008060019054906101000a900460ff161590508015610d8d576001600060016101000a81548160ff02191690831515021790555060016000806101000a81548160ff0219169083151502179055505b6000610d9761082d565b905080603360006101000a81548173ffffffffffffffffffffffffffffffffffffffff021916908373ffffffffffffffffffffffffffffffffffffffff1602179055508073ffffffffffffffffffffffffffffffffffffffff16600073ffffffffffffffffffffffffffffffffffffffff167f8be0079c531659141344cd1fd0a4f28419497f9722a3daafe3b4186f6b6457e060405160405180910390a3508015610e575760008060016101000a81548160ff0219169083151502179055505b5056fe4f776e61626c653a206e6577206f776e657220697320746865207a65726f2061646472657373496e697469616c697a61626c653a20636f6e747261637420697320616c726561647920696e697469616c697a6564a26469706673582212205cb68db71269ef1c0da79936943c61778effeb89fabf9e50a9bdb9265ab8f1b064736f6c634300060c0033",
					"opcodes": "PUSH1 0x80 PUSH1 0x40 MSTORE CALLVALUE DUP1 ISZERO PUSH2 0x10 JUMPI PUSH1 0x0 DUP1 REVERT JUMPDEST POP PUSH2 0xEE4 DUP1 PUSH2 0x20 PUSH1 0x0 CODECOPY PUSH1 0x0 RETURN INVALID PUSH1 0x80 PUSH1 0x40 MSTORE CALLVALUE DUP1 ISZERO PUSH2 0x10 JUMPI PUSH1 0x0 DUP1 REVERT JUMPDEST POP PUSH1 0x4 CALLDATASIZE LT PUSH2 0x88 JUMPI PUSH1 0x0 CALLDATALOAD PUSH1 0xE0 SHR DUP1 PUSH4 0x8129FC1C GT PUSH2 0x5B JUMPI DUP1 PUSH4 0x8129FC1C EQ PUSH2 0x161 JUMPI DUP1 PUSH4 0x8DA5CB5B EQ PUSH2 0x16B JUMPI DUP1 PUSH4 0xDFFEADD0 EQ PUSH2 0x19F JUMPI DUP1 PUSH4 0xF2FDE38B EQ PUSH2 0x1D3 JUMPI PUSH2 0x88 JUMP JUMPDEST DUP1 PUSH4 0xD2A0B34 EQ PUSH2 0x8D JUMPI DUP1 PUSH4 0x3883D854 EQ PUSH2 0xBB JUMPI DUP1 PUSH4 0x715018A6 EQ PUSH2 0x113 JUMPI DUP1 PUSH4 0x801161B0 EQ PUSH2 0x11D JUMPI JUMPDEST PUSH1 0x0 DUP1 REVERT JUMPDEST PUSH2 0xB9 PUSH1 0x4 DUP1 CALLDATASIZE SUB PUSH1 0x20 DUP2 LT ISZERO PUSH2 0xA3 JUMPI PUSH1 0x0 DUP1 REVERT JUMPDEST DUP2 ADD SWAP1 DUP1 DUP1 CALLDATALOAD SWAP1 PUSH1 0x20 ADD SWAP1 SWAP3 SWAP2 SWAP1 POP POP POP PUSH2 0x217 JUMP JUMPDEST STOP JUMPDEST PUSH2 0xFD PUSH1 0x4 DUP1 CALLDATASIZE SUB PUSH1 0x20 DUP2 LT ISZERO PUSH2 0xD1 JUMPI PUSH1 0x0 DUP1 REVERT JUMPDEST DUP2 ADD SWAP1 DUP1 DUP1 CALLDATALOAD PUSH20 0xFFFFFFFFFFFFFFFFFFFFFFFFFFFFFFFFFFFFFFFF AND SWAP1 PUSH1 0x20 ADD SWAP1 SWAP3 SWAP2 SWAP1 POP POP POP PUSH2 0x221 JUMP JUMPDEST PUSH1 0x40 MLOAD DUP1 DUP3 DUP2 MSTORE PUSH1 0x20 ADD SWAP2 POP POP PUSH1 0x40 MLOAD DUP1 SWAP2 SUB SWAP1 RETURN JUMPDEST PUSH2 0x11B PUSH2 0x27F JUMP JUMPDEST STOP JUMPDEST PUSH2 0x15F PUSH1 0x4 DUP1 CALLDATASIZE SUB PUSH1 0x20 DUP2 LT ISZERO PUSH2 0x133 JUMPI PUSH1 0x0 DUP1 REVERT JUMPDEST DUP2 ADD SWAP1 DUP1 DUP1 CALLDATALOAD PUSH20 0xFFFFFFFFFFFFFFFFFFFFFFFFFFFFFFFFFFFFFFFF AND SWAP1 PUSH1 0x20 ADD SWAP1 SWAP3 SWAP2 SWAP1 POP POP POP PUSH2 0x3EF JUMP JUMPDEST STOP JUMPDEST PUSH2 0x169 PUSH2 0x4E2 JUMP JUMPDEST STOP JUMPDEST PUSH2 0x173 PUSH2 0x5E8 JUMP JUMPDEST PUSH1 0x40 MLOAD DUP1 DUP3 PUSH20 0xFFFFFFFFFFFFFFFFFFFFFFFFFFFFFFFFFFFFFFFF AND DUP2 MSTORE PUSH1 0x20 ADD SWAP2 POP POP PUSH1 0x40 MLOAD DUP1 SWAP2 SUB SWAP1 RETURN JUMPDEST PUSH2 0x1A7 PUSH2 0x612 JUMP JUMPDEST PUSH1 0x40 MLOAD DUP1 DUP3 PUSH20 0xFFFFFFFFFFFFFFFFFFFFFFFFFFFFFFFFFFFFFFFF AND DUP2 MSTORE PUSH1 0x20 ADD SWAP2 POP POP PUSH1 0x40 MLOAD DUP1 SWAP2 SUB SWAP1 RETURN JUMPDEST PUSH2 0x215 PUSH1 0x4 DUP1 CALLDATASIZE SUB PUSH1 0x20 DUP2 LT ISZERO PUSH2 0x1E9 JUMPI PUSH1 0x0 DUP1 REVERT JUMPDEST DUP2 ADD SWAP1 DUP1 DUP1 CALLDATALOAD PUSH20 0xFFFFFFFFFFFFFFFFFFFFFFFFFFFFFFFFFFFFFFFF AND SWAP1 PUSH1 0x20 ADD SWAP1 SWAP3 SWAP2 SWAP1 POP POP POP PUSH2 0x638 JUMP JUMPDEST STOP JUMPDEST DUP1 PUSH1 0x69 DUP2 SWAP1 SSTORE POP POP JUMP JUMPDEST PUSH1 0x0 DUP2 PUSH1 0x69 SLOAD TIMESTAMP PUSH1 0x40 MLOAD PUSH1 0x20 ADD DUP1 DUP5 PUSH20 0xFFFFFFFFFFFFFFFFFFFFFFFFFFFFFFFFFFFFFFFF AND PUSH1 0x60 SHL DUP2 MSTORE PUSH1 0x14 ADD DUP4 DUP2 MSTORE PUSH1 0x20 ADD DUP3 DUP2 MSTORE PUSH1 0x20 ADD SWAP4 POP POP POP POP PUSH1 0x40 MLOAD PUSH1 0x20 DUP2 DUP4 SUB SUB DUP2 MSTORE SWAP1 PUSH1 0x40 MSTORE DUP1 MLOAD SWAP1 PUSH1 0x20 ADD KECCAK256 PUSH1 0x0 SHR SWAP1 POP SWAP2 SWAP1 POP JUMP JUMPDEST PUSH2 0x287 PUSH2 0x82D JUMP JUMPDEST PUSH20 0xFFFFFFFFFFFFFFFFFFFFFFFFFFFFFFFFFFFFFFFF AND PUSH2 0x2A5 PUSH2 0x5E8 JUMP JUMPDEST PUSH20 0xFFFFFFFFFFFFFFFFFFFFFFFFFFFFFFFFFFFFFFFF AND EQ PUSH2 0x32E JUMPI PUSH1 0x40 MLOAD PUSH32 0x8C379A000000000000000000000000000000000000000000000000000000000 DUP2 MSTORE PUSH1 0x4 ADD DUP1 DUP1 PUSH1 0x20 ADD DUP3 DUP2 SUB DUP3 MSTORE PUSH1 0x20 DUP2 MSTORE PUSH1 0x20 ADD DUP1 PUSH32 0x4F776E61626C653A2063616C6C6572206973206E6F7420746865206F776E6572 DUP2 MSTORE POP PUSH1 0x20 ADD SWAP2 POP POP PUSH1 0x40 MLOAD DUP1 SWAP2 SUB SWAP1 REVERT JUMPDEST PUSH1 0x0 PUSH20 0xFFFFFFFFFFFFFFFFFFFFFFFFFFFFFFFFFFFFFFFF AND PUSH1 0x33 PUSH1 0x0 SWAP1 SLOAD SWAP1 PUSH2 0x100 EXP SWAP1 DIV PUSH20 0xFFFFFFFFFFFFFFFFFFFFFFFFFFFFFFFFFFFFFFFF AND PUSH20 0xFFFFFFFFFFFFFFFFFFFFFFFFFFFFFFFFFFFFFFFF AND PUSH32 0x8BE0079C531659141344CD1FD0A4F28419497F9722A3DAAFE3B4186F6B6457E0 PUSH1 0x40 MLOAD PUSH1 0x40 MLOAD DUP1 SWAP2 SUB SWAP1 LOG3 PUSH1 0x0 PUSH1 0x33 PUSH1 0x0 PUSH2 0x100 EXP DUP2 SLOAD DUP2 PUSH20 0xFFFFFFFFFFFFFFFFFFFFFFFFFFFFFFFFFFFFFFFF MUL NOT AND SWAP1 DUP4 PUSH20 0xFFFFFFFFFFFFFFFFFFFFFFFFFFFFFFFFFFFFFFFF AND MUL OR SWAP1 SSTORE POP JUMP JUMPDEST PUSH2 0x3F7 PUSH2 0x82D JUMP JUMPDEST PUSH20 0xFFFFFFFFFFFFFFFFFFFFFFFFFFFFFFFFFFFFFFFF AND PUSH2 0x415 PUSH2 0x5E8 JUMP JUMPDEST PUSH20 0xFFFFFFFFFFFFFFFFFFFFFFFFFFFFFFFFFFFFFFFF AND EQ PUSH2 0x49E JUMPI PUSH1 0x40 MLOAD PUSH32 0x8C379A000000000000000000000000000000000000000000000000000000000 DUP2 MSTORE PUSH1 0x4 ADD DUP1 DUP1 PUSH1 0x20 ADD DUP3 DUP2 SUB DUP3 MSTORE PUSH1 0x20 DUP2 MSTORE PUSH1 0x20 ADD DUP1 PUSH32 0x4F776E61626C653A2063616C6C6572206973206E6F7420746865206F776E6572 DUP2 MSTORE POP PUSH1 0x20 ADD SWAP2 POP POP PUSH1 0x40 MLOAD DUP1 SWAP2 SUB SWAP1 REVERT JUMPDEST DUP1 PUSH1 0x65 PUSH1 0x0 PUSH2 0x100 EXP DUP2 SLOAD DUP2 PUSH20 0xFFFFFFFFFFFFFFFFFFFFFFFFFFFFFFFFFFFFFFFF MUL NOT AND SWAP1 DUP4 PUSH20 0xFFFFFFFFFFFFFFFFFFFFFFFFFFFFFFFFFFFFFFFF AND MUL OR SWAP1 SSTORE POP POP JUMP JUMPDEST PUSH1 0x0 PUSH1 0x1 SWAP1 SLOAD SWAP1 PUSH2 0x100 EXP SWAP1 DIV PUSH1 0xFF AND DUP1 PUSH2 0x501 JUMPI POP PUSH2 0x500 PUSH2 0x835 JUMP JUMPDEST JUMPDEST DUP1 PUSH2 0x517 JUMPI POP PUSH1 0x0 DUP1 SLOAD SWAP1 PUSH2 0x100 EXP SWAP1 DIV PUSH1 0xFF AND ISZERO JUMPDEST PUSH2 0x56C JUMPI PUSH1 0x40 MLOAD PUSH32 0x8C379A000000000000000000000000000000000000000000000000000000000 DUP2 MSTORE PUSH1 0x4 ADD DUP1 DUP1 PUSH1 0x20 ADD DUP3 DUP2 SUB DUP3 MSTORE PUSH1 0x2E DUP2 MSTORE PUSH1 0x20 ADD DUP1 PUSH2 0xE81 PUSH1 0x2E SWAP2 CODECOPY PUSH1 0x40 ADD SWAP2 POP POP PUSH1 0x40 MLOAD DUP1 SWAP2 SUB SWAP1 REVERT JUMPDEST PUSH1 0x0 DUP1 PUSH1 0x1 SWAP1 SLOAD SWAP1 PUSH2 0x100 EXP SWAP1 DIV PUSH1 0xFF AND ISZERO SWAP1 POP DUP1 ISZERO PUSH2 0x5BC JUMPI PUSH1 0x1 PUSH1 0x0 PUSH1 0x1 PUSH2 0x100 EXP DUP2 SLOAD DUP2 PUSH1 0xFF MUL NOT AND SWAP1 DUP4 ISZERO ISZERO MUL OR SWAP1 SSTORE POP PUSH1 0x1 PUSH1 0x0 DUP1 PUSH2 0x100 EXP DUP2 SLOAD DUP2 PUSH1 0xFF MUL NOT AND SWAP1 DUP4 ISZERO ISZERO MUL OR SWAP1 SSTORE POP JUMPDEST PUSH2 0x5C4 PUSH2 0x846 JUMP JUMPDEST DUP1 ISZERO PUSH2 0x5E5 JUMPI PUSH1 0x0 DUP1 PUSH1 0x1 PUSH2 0x100 EXP DUP2 SLOAD DUP2 PUSH1 0xFF MUL NOT AND SWAP1 DUP4 ISZERO ISZERO MUL OR SWAP1 SSTORE POP JUMPDEST POP JUMP JUMPDEST PUSH1 0x0 PUSH1 0x33 PUSH1 0x0 SWAP1 SLOAD SWAP1 PUSH2 0x100 EXP SWAP1 DIV PUSH20 0xFFFFFFFFFFFFFFFFFFFFFFFFFFFFFFFFFFFFFFFF AND SWAP1 POP SWAP1 JUMP JUMPDEST PUSH1 0x65 PUSH1 0x0 SWAP1 SLOAD SWAP1 PUSH2 0x100 EXP SWAP1 DIV PUSH20 0xFFFFFFFFFFFFFFFFFFFFFFFFFFFFFFFFFFFFFFFF AND DUP2 JUMP JUMPDEST PUSH2 0x640 PUSH2 0x82D JUMP JUMPDEST PUSH20 0xFFFFFFFFFFFFFFFFFFFFFFFFFFFFFFFFFFFFFFFF AND PUSH2 0x65E PUSH2 0x5E8 JUMP JUMPDEST PUSH20 0xFFFFFFFFFFFFFFFFFFFFFFFFFFFFFFFFFFFFFFFF AND EQ PUSH2 0x6E7 JUMPI PUSH1 0x40 MLOAD PUSH32 0x8C379A000000000000000000000000000000000000000000000000000000000 DUP2 MSTORE PUSH1 0x4 ADD DUP1 DUP1 PUSH1 0x20 ADD DUP3 DUP2 SUB DUP3 MSTORE PUSH1 0x20 DUP2 MSTORE PUSH1 0x20 ADD DUP1 PUSH32 0x4F776E61626C653A2063616C6C6572206973206E6F7420746865206F776E6572 DUP2 MSTORE POP PUSH1 0x20 ADD SWAP2 POP POP PUSH1 0x40 MLOAD DUP1 SWAP2 SUB SWAP1 REVERT JUMPDEST PUSH1 0x0 PUSH20 0xFFFFFFFFFFFFFFFFFFFFFFFFFFFFFFFFFFFFFFFF AND DUP2 PUSH20 0xFFFFFFFFFFFFFFFFFFFFFFFFFFFFFFFFFFFFFFFF AND EQ ISZERO PUSH2 0x76D JUMPI PUSH1 0x40 MLOAD PUSH32 0x8C379A000000000000000000000000000000000000000000000000000000000 DUP2 MSTORE PUSH1 0x4 ADD DUP1 DUP1 PUSH1 0x20 ADD DUP3 DUP2 SUB DUP3 MSTORE PUSH1 0x26 DUP2 MSTORE PUSH1 0x20 ADD DUP1 PUSH2 0xE5B PUSH1 0x26 SWAP2 CODECOPY PUSH1 0x40 ADD SWAP2 POP POP PUSH1 0x40 MLOAD DUP1 SWAP2 SUB SWAP1 REVERT JUMPDEST DUP1 PUSH20 0xFFFFFFFFFFFFFFFFFFFFFFFFFFFFFFFFFFFFFFFF AND PUSH1 0x33 PUSH1 0x0 SWAP1 SLOAD SWAP1 PUSH2 0x100 EXP SWAP1 DIV PUSH20 0xFFFFFFFFFFFFFFFFFFFFFFFFFFFFFFFFFFFFFFFF AND PUSH20 0xFFFFFFFFFFFFFFFFFFFFFFFFFFFFFFFFFFFFFFFF AND PUSH32 0x8BE0079C531659141344CD1FD0A4F28419497F9722A3DAAFE3B4186F6B6457E0 PUSH1 0x40 MLOAD PUSH1 0x40 MLOAD DUP1 SWAP2 SUB SWAP1 LOG3 DUP1 PUSH1 0x33 PUSH1 0x0 PUSH2 0x100 EXP DUP2 SLOAD DUP2 PUSH20 0xFFFFFFFFFFFFFFFFFFFFFFFFFFFFFFFFFFFFFFFF MUL NOT AND SWAP1 DUP4 PUSH20 0xFFFFFFFFFFFFFFFFFFFFFFFFFFFFFFFFFFFFFFFF AND MUL OR SWAP1 SSTORE POP POP JUMP JUMPDEST PUSH1 0x0 CALLER SWAP1 POP SWAP1 JUMP JUMPDEST PUSH1 0x0 PUSH2 0x840 ADDRESS PUSH2 0x954 JUMP JUMPDEST ISZERO SWAP1 POP SWAP1 JUMP JUMPDEST PUSH1 0x0 PUSH1 0x1 SWAP1 SLOAD SWAP1 PUSH2 0x100 EXP SWAP1 DIV PUSH1 0xFF AND DUP1 PUSH2 0x865 JUMPI POP PUSH2 0x864 PUSH2 0x835 JUMP JUMPDEST JUMPDEST DUP1 PUSH2 0x87B JUMPI POP PUSH1 0x0 DUP1 SLOAD SWAP1 PUSH2 0x100 EXP SWAP1 DIV PUSH1 0xFF AND ISZERO JUMPDEST PUSH2 0x8D0 JUMPI PUSH1 0x40 MLOAD PUSH32 0x8C379A000000000000000000000000000000000000000000000000000000000 DUP2 MSTORE PUSH1 0x4 ADD DUP1 DUP1 PUSH1 0x20 ADD DUP3 DUP2 SUB DUP3 MSTORE PUSH1 0x2E DUP2 MSTORE PUSH1 0x20 ADD DUP1 PUSH2 0xE81 PUSH1 0x2E SWAP2 CODECOPY PUSH1 0x40 ADD SWAP2 POP POP PUSH1 0x40 MLOAD DUP1 SWAP2 SUB SWAP1 REVERT JUMPDEST PUSH1 0x0 DUP1 PUSH1 0x1 SWAP1 SLOAD SWAP1 PUSH2 0x100 EXP SWAP1 DIV PUSH1 0xFF AND ISZERO SWAP1 POP DUP1 ISZERO PUSH2 0x920 JUMPI PUSH1 0x1 PUSH1 0x0 PUSH1 0x1 PUSH2 0x100 EXP DUP2 SLOAD DUP2 PUSH1 0xFF MUL NOT AND SWAP1 DUP4 ISZERO ISZERO MUL OR SWAP1 SSTORE POP PUSH1 0x1 PUSH1 0x0 DUP1 PUSH2 0x100 EXP DUP2 SLOAD DUP2 PUSH1 0xFF MUL NOT AND SWAP1 DUP4 ISZERO ISZERO MUL OR SWAP1 SSTORE POP JUMPDEST PUSH2 0x928 PUSH2 0x967 JUMP JUMPDEST PUSH2 0x930 PUSH2 0xA75 JUMP JUMPDEST DUP1 ISZERO PUSH2 0x951 JUMPI PUSH1 0x0 DUP1 PUSH1 0x1 PUSH2 0x100 EXP DUP2 SLOAD DUP2 PUSH1 0xFF MUL NOT AND SWAP1 DUP4 ISZERO ISZERO MUL OR SWAP1 SSTORE POP JUMPDEST POP JUMP JUMPDEST PUSH1 0x0 DUP1 DUP3 EXTCODESIZE SWAP1 POP PUSH1 0x0 DUP2 GT SWAP2 POP POP SWAP2 SWAP1 POP JUMP JUMPDEST PUSH1 0x0 PUSH1 0x1 SWAP1 SLOAD SWAP1 PUSH2 0x100 EXP SWAP1 DIV PUSH1 0xFF AND DUP1 PUSH2 0x986 JUMPI POP PUSH2 0x985 PUSH2 0x835 JUMP JUMPDEST JUMPDEST DUP1 PUSH2 0x99C JUMPI POP PUSH1 0x0 DUP1 SLOAD SWAP1 PUSH2 0x100 EXP SWAP1 DIV PUSH1 0xFF AND ISZERO JUMPDEST PUSH2 0x9F1 JUMPI PUSH1 0x40 MLOAD PUSH32 0x8C379A000000000000000000000000000000000000000000000000000000000 DUP2 MSTORE PUSH1 0x4 ADD DUP1 DUP1 PUSH1 0x20 ADD DUP3 DUP2 SUB DUP3 MSTORE PUSH1 0x2E DUP2 MSTORE PUSH1 0x20 ADD DUP1 PUSH2 0xE81 PUSH1 0x2E SWAP2 CODECOPY PUSH1 0x40 ADD SWAP2 POP POP PUSH1 0x40 MLOAD DUP1 SWAP2 SUB SWAP1 REVERT JUMPDEST PUSH1 0x0 DUP1 PUSH1 0x1 SWAP1 SLOAD SWAP1 PUSH2 0x100 EXP SWAP1 DIV PUSH1 0xFF AND ISZERO SWAP1 POP DUP1 ISZERO PUSH2 0xA41 JUMPI PUSH1 0x1 PUSH1 0x0 PUSH1 0x1 PUSH2 0x100 EXP DUP2 SLOAD DUP2 PUSH1 0xFF MUL NOT AND SWAP1 DUP4 ISZERO ISZERO MUL OR SWAP1 SSTORE POP PUSH1 0x1 PUSH1 0x0 DUP1 PUSH2 0x100 EXP DUP2 SLOAD DUP2 PUSH1 0xFF MUL NOT AND SWAP1 DUP4 ISZERO ISZERO MUL OR SWAP1 SSTORE POP JUMPDEST PUSH2 0xA49 PUSH2 0xBB5 JUMP JUMPDEST PUSH2 0xA51 PUSH2 0xCB3 JUMP JUMPDEST DUP1 ISZERO PUSH2 0xA72 JUMPI PUSH1 0x0 DUP1 PUSH1 0x1 PUSH2 0x100 EXP DUP2 SLOAD DUP2 PUSH1 0xFF MUL NOT AND SWAP1 DUP4 ISZERO ISZERO MUL OR SWAP1 SSTORE POP JUMPDEST POP JUMP JUMPDEST PUSH1 0x0 PUSH1 0x1 SWAP1 SLOAD SWAP1 PUSH2 0x100 EXP SWAP1 DIV PUSH1 0xFF AND DUP1 PUSH2 0xA94 JUMPI POP PUSH2 0xA93 PUSH2 0x835 JUMP JUMPDEST JUMPDEST DUP1 PUSH2 0xAAA JUMPI POP PUSH1 0x0 DUP1 SLOAD SWAP1 PUSH2 0x100 EXP SWAP1 DIV PUSH1 0xFF AND ISZERO JUMPDEST PUSH2 0xAFF JUMPI PUSH1 0x40 MLOAD PUSH32 0x8C379A000000000000000000000000000000000000000000000000000000000 DUP2 MSTORE PUSH1 0x4 ADD DUP1 DUP1 PUSH1 0x20 ADD DUP3 DUP2 SUB DUP3 MSTORE PUSH1 0x2E DUP2 MSTORE PUSH1 0x20 ADD DUP1 PUSH2 0xE81 PUSH1 0x2E SWAP2 CODECOPY PUSH1 0x40 ADD SWAP2 POP POP PUSH1 0x40 MLOAD DUP1 SWAP2 SUB SWAP1 REVERT JUMPDEST PUSH1 0x0 DUP1 PUSH1 0x1 SWAP1 SLOAD SWAP1 PUSH2 0x100 EXP SWAP1 DIV PUSH1 0xFF AND ISZERO SWAP1 POP DUP1 ISZERO PUSH2 0xB4F JUMPI PUSH1 0x1 PUSH1 0x0 PUSH1 0x1 PUSH2 0x100 EXP DUP2 SLOAD DUP2 PUSH1 0xFF MUL NOT AND SWAP1 DUP4 ISZERO ISZERO MUL OR SWAP1 SSTORE POP PUSH1 0x1 PUSH1 0x0 DUP1 PUSH2 0x100 EXP DUP2 SLOAD DUP2 PUSH1 0xFF MUL NOT AND SWAP1 DUP4 ISZERO ISZERO MUL OR SWAP1 SSTORE POP JUMPDEST PUSH1 0x0 PUSH1 0x65 PUSH1 0x0 PUSH2 0x100 EXP DUP2 SLOAD DUP2 PUSH20 0xFFFFFFFFFFFFFFFFFFFFFFFFFFFFFFFFFFFFFFFF MUL NOT AND SWAP1 DUP4 PUSH20 0xFFFFFFFFFFFFFFFFFFFFFFFFFFFFFFFFFFFFFFFF AND MUL OR SWAP1 SSTORE POP DUP1 ISZERO PUSH2 0xBB2 JUMPI PUSH1 0x0 DUP1 PUSH1 0x1 PUSH2 0x100 EXP DUP2 SLOAD DUP2 PUSH1 0xFF MUL NOT AND SWAP1 DUP4 ISZERO ISZERO MUL OR SWAP1 SSTORE POP JUMPDEST POP JUMP JUMPDEST PUSH1 0x0 PUSH1 0x1 SWAP1 SLOAD SWAP1 PUSH2 0x100 EXP SWAP1 DIV PUSH1 0xFF AND DUP1 PUSH2 0xBD4 JUMPI POP PUSH2 0xBD3 PUSH2 0x835 JUMP JUMPDEST JUMPDEST DUP1 PUSH2 0xBEA JUMPI POP PUSH1 0x0 DUP1 SLOAD SWAP1 PUSH2 0x100 EXP SWAP1 DIV PUSH1 0xFF AND ISZERO JUMPDEST PUSH2 0xC3F JUMPI PUSH1 0x40 MLOAD PUSH32 0x8C379A000000000000000000000000000000000000000000000000000000000 DUP2 MSTORE PUSH1 0x4 ADD DUP1 DUP1 PUSH1 0x20 ADD DUP3 DUP2 SUB DUP3 MSTORE PUSH1 0x2E DUP2 MSTORE PUSH1 0x20 ADD DUP1 PUSH2 0xE81 PUSH1 0x2E SWAP2 CODECOPY PUSH1 0x40 ADD SWAP2 POP POP PUSH1 0x40 MLOAD DUP1 SWAP2 SUB SWAP1 REVERT JUMPDEST PUSH1 0x0 DUP1 PUSH1 0x1 SWAP1 SLOAD SWAP1 PUSH2 0x100 EXP SWAP1 DIV PUSH1 0xFF AND ISZERO SWAP1 POP DUP1 ISZERO PUSH2 0xC8F JUMPI PUSH1 0x1 PUSH1 0x0 PUSH1 0x1 PUSH2 0x100 EXP DUP2 SLOAD DUP2 PUSH1 0xFF MUL NOT AND SWAP1 DUP4 ISZERO ISZERO MUL OR SWAP1 SSTORE POP PUSH1 0x1 PUSH1 0x0 DUP1 PUSH2 0x100 EXP DUP2 SLOAD DUP2 PUSH1 0xFF MUL NOT AND SWAP1 DUP4 ISZERO ISZERO MUL OR SWAP1 SSTORE POP JUMPDEST DUP1 ISZERO PUSH2 0xCB0 JUMPI PUSH1 0x0 DUP1 PUSH1 0x1 PUSH2 0x100 EXP DUP2 SLOAD DUP2 PUSH1 0xFF MUL NOT AND SWAP1 DUP4 ISZERO ISZERO MUL OR SWAP1 SSTORE POP JUMPDEST POP JUMP JUMPDEST PUSH1 0x0 PUSH1 0x1 SWAP1 SLOAD SWAP1 PUSH2 0x100 EXP SWAP1 DIV PUSH1 0xFF AND DUP1 PUSH2 0xCD2 JUMPI POP PUSH2 0xCD1 PUSH2 0x835 JUMP JUMPDEST JUMPDEST DUP1 PUSH2 0xCE8 JUMPI POP PUSH1 0x0 DUP1 SLOAD SWAP1 PUSH2 0x100 EXP SWAP1 DIV PUSH1 0xFF AND ISZERO JUMPDEST PUSH2 0xD3D JUMPI PUSH1 0x40 MLOAD PUSH32 0x8C379A000000000000000000000000000000000000000000000000000000000 DUP2 MSTORE PUSH1 0x4 ADD DUP1 DUP1 PUSH1 0x20 ADD DUP3 DUP2 SUB DUP3 MSTORE PUSH1 0x2E DUP2 MSTORE PUSH1 0x20 ADD DUP1 PUSH2 0xE81 PUSH1 0x2E SWAP2 CODECOPY PUSH1 0x40 ADD SWAP2 POP POP PUSH1 0x40 MLOAD DUP1 SWAP2 SUB SWAP1 REVERT JUMPDEST PUSH1 0x0 DUP1 PUSH1 0x1 SWAP1 SLOAD SWAP1 PUSH2 0x100 EXP SWAP1 DIV PUSH1 0xFF AND ISZERO SWAP1 POP DUP1 ISZERO PUSH2 0xD8D JUMPI PUSH1 0x1 PUSH1 0x0 PUSH1 0x1 PUSH2 0x100 EXP DUP2 SLOAD DUP2 PUSH1 0xFF MUL NOT AND SWAP1 DUP4 ISZERO ISZERO MUL OR SWAP1 SSTORE POP PUSH1 0x1 PUSH1 0x0 DUP1 PUSH2 0x100 EXP DUP2 SLOAD DUP2 PUSH1 0xFF MUL NOT AND SWAP1 DUP4 ISZERO ISZERO MUL OR SWAP1 SSTORE POP JUMPDEST PUSH1 0x0 PUSH2 0xD97 PUSH2 0x82D JUMP JUMPDEST SWAP1 POP DUP1 PUSH1 0x33 PUSH1 0x0 PUSH2 0x100 EXP DUP2 SLOAD DUP2 PUSH20 0xFFFFFFFFFFFFFFFFFFFFFFFFFFFFFFFFFFFFFFFF MUL NOT AND SWAP1 DUP4 PUSH20 0xFFFFFFFFFFFFFFFFFFFFFFFFFFFFFFFFFFFFFFFF AND MUL OR SWAP1 SSTORE POP DUP1 PUSH20 0xFFFFFFFFFFFFFFFFFFFFFFFFFFFFFFFFFFFFFFFF AND PUSH1 0x0 PUSH20 0xFFFFFFFFFFFFFFFFFFFFFFFFFFFFFFFFFFFFFFFF AND PUSH32 0x8BE0079C531659141344CD1FD0A4F28419497F9722A3DAAFE3B4186F6B6457E0 PUSH1 0x40 MLOAD PUSH1 0x40 MLOAD DUP1 SWAP2 SUB SWAP1 LOG3 POP DUP1 ISZERO PUSH2 0xE57 JUMPI PUSH1 0x0 DUP1 PUSH1 0x1 PUSH2 0x100 EXP DUP2 SLOAD DUP2 PUSH1 0xFF MUL NOT AND SWAP1 DUP4 ISZERO ISZERO MUL OR SWAP1 SSTORE POP JUMPDEST POP JUMP INVALID 0x4F PUSH24 0x6E61626C653A206E6577206F776E65722069732074686520 PUSH27 0x65726F2061646472657373496E697469616C697A61626C653A2063 PUSH16 0x6E747261637420697320616C72656164 PUSH26 0x20696E697469616C697A6564A26469706673582212205CB68DB7 SLT PUSH10 0xEF1C0DA79936943C6177 DUP15 SELFDESTRUCT 0xEB DUP10 STATICCALL 0xBF SWAP15 POP 0xA9 0xBD 0xB9 0x26 GAS 0xB8 CALL 0xB0 PUSH5 0x736F6C6343 STOP MOD 0xC STOP CALLER "
				},
				"gasEstimates": {
					"creation": {
						"codeDepositCost": "762400",
						"executionCost": "799",
						"totalCost": "763199"
					},
					"external": {
						"getRandomSeed(address)": "1334",
						"initialize()": "infinite",
						"main()": "1091",
						"owner()": "1077",
						"renounceOwnership()": "24377",
						"setMain(address)": "22108",
						"setRandomNumberForTestingPurposes(uint256)": "20243",
						"transferOwnership(address)": "infinite"
					}
				},
				"methodIdentifiers": {
					"getRandomSeed(address)": "3883d854",
					"initialize()": "8129fc1c",
					"main()": "dffeadd0",
					"owner()": "8da5cb5b",
					"renounceOwnership()": "715018a6",
					"setMain(address)": "801161b0",
					"setRandomNumberForTestingPurposes(uint256)": "0d2a0b34",
					"transferOwnership(address)": "f2fde38b"
				}
			},
			"storageLayout": {
				"storage": [
					{
						"astId": 137,
						"contract": "contracts/DummyRandoms.sol:DummyRandoms",
						"label": "_initialized",
						"offset": 0,
						"slot": "0",
						"type": "t_bool"
					},
					{
						"astId": 140,
						"contract": "contracts/DummyRandoms.sol:DummyRandoms",
						"label": "_initializing",
						"offset": 1,
						"slot": "0",
						"type": "t_bool"
					},
					{
						"astId": 484,
						"contract": "contracts/DummyRandoms.sol:DummyRandoms",
						"label": "__gap",
						"offset": 0,
						"slot": "1",
						"type": "t_array(t_uint256)50_storage"
					},
					{
						"astId": 10,
						"contract": "contracts/DummyRandoms.sol:DummyRandoms",
						"label": "_owner",
						"offset": 0,
						"slot": "51",
						"type": "t_address"
					},
					{
						"astId": 129,
						"contract": "contracts/DummyRandoms.sol:DummyRandoms",
						"label": "__gap",
						"offset": 0,
						"slot": "52",
						"type": "t_array(t_uint256)49_storage"
					},
					{
						"astId": 559,
						"contract": "contracts/DummyRandoms.sol:DummyRandoms",
						"label": "main",
						"offset": 0,
						"slot": "101",
						"type": "t_address"
					},
					{
						"astId": 497,
						"contract": "contracts/DummyRandoms.sol:DummyRandoms",
						"label": "alreadyRequestedTestingFlag",
						"offset": 0,
						"slot": "102",
						"type": "t_mapping(t_address,t_bool)"
					},
					{
						"astId": 501,
						"contract": "contracts/DummyRandoms.sol:DummyRandoms",
						"label": "seedAvailable",
						"offset": 0,
						"slot": "103",
						"type": "t_mapping(t_address,t_bool)"
					},
					{
						"astId": 505,
						"contract": "contracts/DummyRandoms.sol:DummyRandoms",
						"label": "seeds",
						"offset": 0,
						"slot": "104",
						"type": "t_mapping(t_address,t_uint256)"
					},
					{
						"astId": 507,
						"contract": "contracts/DummyRandoms.sol:DummyRandoms",
						"label": "seed",
						"offset": 0,
						"slot": "105",
						"type": "t_uint256"
					}
				],
				"types": {
					"t_address": {
						"encoding": "inplace",
						"label": "address",
						"numberOfBytes": "20"
					},
					"t_array(t_uint256)49_storage": {
						"base": "t_uint256",
						"encoding": "inplace",
						"label": "uint256[49]",
						"numberOfBytes": "1568"
					},
					"t_array(t_uint256)50_storage": {
						"base": "t_uint256",
						"encoding": "inplace",
						"label": "uint256[50]",
						"numberOfBytes": "1600"
					},
					"t_bool": {
						"encoding": "inplace",
						"label": "bool",
						"numberOfBytes": "1"
					},
					"t_mapping(t_address,t_bool)": {
						"encoding": "mapping",
						"key": "t_address",
						"label": "mapping(address => bool)",
						"numberOfBytes": "32",
						"value": "t_bool"
					},
					"t_mapping(t_address,t_uint256)": {
						"encoding": "mapping",
						"key": "t_address",
						"label": "mapping(address => uint256)",
						"numberOfBytes": "32",
						"value": "t_uint256"
					},
					"t_uint256": {
						"encoding": "inplace",
						"label": "uint256",
						"numberOfBytes": "32"
					}
				}
			},
			"userdoc": {
				"kind": "user",
				"methods": {},
				"version": 1
			}
		}
	}
}