{
	"contracts/BytesChunker.sol": {
		"BytesChunker": {
			"abi": [
				{
					"inputs": [
						{
							"internalType": "bytes",
							"name": "data",
							"type": "bytes"
						}
					],
					"name": "toBytes32Array",
					"outputs": [
						{
							"internalType": "bytes32[]",
							"name": "",
							"type": "bytes32[]"
						}
					],
					"stateMutability": "pure",
					"type": "function"
				}
			],
			"devdoc": {
				"kind": "dev",
				"methods": {},
				"version": 1
			},
			"evm": {
				"assembly": "    /* \"contracts/BytesChunker.sol\":25:829  library BytesChunker {... */\n  dataSize(sub_0)\n  dataOffset(sub_0)\n  0x0b\n  dup3\n  dup3\n  dup3\n  codecopy\n  dup1\n  mload\n  0x00\n  byte\n  0x73\n  eq\n  tag_1\n  jumpi\n  invalid\ntag_1:\n  mstore(0x00, address)\n  0x73\n  dup2\n  mstore8\n  dup3\n  dup2\n  return\nstop\n\nsub_0: assembly {\n        /* \"contracts/BytesChunker.sol\":25:829  library BytesChunker {... */\n      eq(address, deployTimeAddress())\n      mstore(0x40, 0x80)\n      jumpi(tag_1, lt(calldatasize, 0x04))\n      shr(0xe0, calldataload(0x00))\n      dup1\n      0xa16ab39b\n      eq\n      tag_2\n      jumpi\n    tag_1:\n      0x00\n      dup1\n      revert\n        /* \"contracts/BytesChunker.sol\":52:827  function toBytes32Array(bytes memory data)... */\n    tag_2:\n      tag_3\n      0x04\n      dup1\n      calldatasize\n      sub\n      0x20\n      dup2\n      lt\n      iszero\n      tag_4\n      jumpi\n      0x00\n      dup1\n      revert\n    tag_4:\n      dup2\n      add\n      swap1\n      dup1\n      dup1\n      calldataload\n      swap1\n      0x20\n      add\n      swap1\n      0x0100000000\n      dup2\n      gt\n      iszero\n      tag_5\n      jumpi\n      0x00\n      dup1\n      revert\n    tag_5:\n      dup3\n      add\n      dup4\n      0x20\n      dup3\n      add\n      gt\n      iszero\n      tag_6\n      jumpi\n      0x00\n      dup1\n      revert\n    tag_6:\n      dup1\n      calldataload\n      swap1\n      0x20\n      add\n      swap2\n      dup5\n      0x01\n      dup4\n      mul\n      dup5\n      add\n      gt\n      0x0100000000\n      dup4\n      gt\n      or\n      iszero\n      tag_7\n      jumpi\n      0x00\n      dup1\n      revert\n    tag_7:\n      swap2\n      swap1\n      dup1\n      dup1\n      0x1f\n      add\n      0x20\n      dup1\n      swap2\n      div\n      mul\n      0x20\n      add\n      mload(0x40)\n      swap1\n      dup2\n      add\n      0x40\n      mstore\n      dup1\n      swap4\n      swap3\n      swap2\n      swap1\n      dup2\n      dup2\n      mstore\n      0x20\n      add\n      dup4\n      dup4\n      dup1\n      dup3\n      dup5\n      calldatacopy\n      0x00\n      dup2\n      dup5\n      add\n      mstore\n      not(0x1f)\n      0x1f\n      dup3\n      add\n      and\n      swap1\n      pop\n      dup1\n      dup4\n      add\n      swap3\n      pop\n      pop\n      pop\n      pop\n      pop\n      pop\n      pop\n      swap2\n      swap3\n      swap2\n      swap3\n      swap1\n      pop\n      pop\n      pop\n      tag_8\n      jump\t// in\n    tag_3:\n      mload(0x40)\n      dup1\n      dup1\n      0x20\n      add\n      dup3\n      dup2\n      sub\n      dup3\n      mstore\n      dup4\n      dup2\n      dup2\n      mload\n      dup2\n      mstore\n      0x20\n      add\n      swap2\n      pop\n      dup1\n      mload\n      swap1\n      0x20\n      add\n      swap1\n      0x20\n      mul\n      dup1\n      dup4\n      dup4\n      0x00\n    tag_9:\n      dup4\n      dup2\n      lt\n      iszero\n      tag_11\n      jumpi\n      dup1\n      dup3\n      add\n      mload\n      dup2\n      dup5\n      add\n      mstore\n      0x20\n      dup2\n      add\n      swap1\n      pop\n      jump(tag_9)\n    tag_11:\n      pop\n      pop\n      pop\n      pop\n      swap1\n      pop\n      add\n      swap3\n      pop\n      pop\n      pop\n      mload(0x40)\n      dup1\n      swap2\n      sub\n      swap1\n      return\n    tag_8:\n        /* \"contracts/BytesChunker.sol\":140:156  bytes32[] memory */\n      0x60\n        /* \"contracts/BytesChunker.sol\":209:223  uint256 dataNb */\n      0x00\n        /* \"contracts/BytesChunker.sol\":240:242  32 */\n      0x20\n        /* \"contracts/BytesChunker.sol\":226:230  data */\n      dup4\n        /* \"contracts/BytesChunker.sol\":226:237  data.length */\n      mload\n        /* \"contracts/BytesChunker.sol\":226:242  data.length / 32 */\n      dup2\n      tag_13\n      jumpi\n      invalid\n    tag_13:\n      div\n        /* \"contracts/BytesChunker.sol\":209:242  uint256 dataNb = data.length / 32 */\n      swap1\n      pop\n        /* \"contracts/BytesChunker.sol\":298:323  bytes32[] memory dataList */\n      0x60\n        /* \"contracts/BytesChunker.sol\":340:346  dataNb */\n      dup2\n        /* \"contracts/BytesChunker.sol\":326:347  new bytes32[](dataNb) */\n      0xffffffffffffffff\n      dup2\n      gt\n      dup1\n      iszero\n      tag_14\n      jumpi\n      0x00\n      dup1\n      revert\n    tag_14:\n      pop\n      mload(0x40)\n      swap1\n      dup1\n      dup3\n      mstore\n      dup1\n      0x20\n      mul\n      0x20\n      add\n      dup3\n      add\n      0x40\n      mstore\n      dup1\n      iszero\n      tag_15\n      jumpi\n      dup2\n      0x20\n      add\n      0x20\n      dup3\n      mul\n      dup1\n      calldatasize\n      dup4\n      calldatacopy\n      dup1\n      dup3\n      add\n      swap2\n      pop\n      pop\n      swap1\n      pop\n    tag_15:\n      pop\n        /* \"contracts/BytesChunker.sol\":298:347  bytes32[] memory dataList = new bytes32[](dataNb) */\n      swap1\n      pop\n        /* \"contracts/BytesChunker.sol\":391:404  uint256 index */\n      0x00\n        /* \"contracts/BytesChunker.sol\":461:470  uint256 i */\n      dup1\n        /* \"contracts/BytesChunker.sol\":473:475  32 */\n      0x20\n        /* \"contracts/BytesChunker.sol\":461:475  uint256 i = 32 */\n      swap1\n      pop\n        /* \"contracts/BytesChunker.sol\":456:766  for (uint256 i = 32; i <= data.length; i = i + 32) {... */\n    tag_16:\n        /* \"contracts/BytesChunker.sol\":482:486  data */\n      dup6\n        /* \"contracts/BytesChunker.sol\":482:493  data.length */\n      mload\n        /* \"contracts/BytesChunker.sol\":477:478  i */\n      dup2\n        /* \"contracts/BytesChunker.sol\":477:493  i <= data.length */\n      gt\n        /* \"contracts/BytesChunker.sol\":456:766  for (uint256 i = 32; i <= data.length; i = i + 32) {... */\n      tag_17\n      jumpi\n        /* \"contracts/BytesChunker.sol\":521:533  bytes32 temp */\n      0x00\n        /* \"contracts/BytesChunker.sol\":636:637  i */\n      dup2\n        /* \"contracts/BytesChunker.sol\":630:634  data */\n      dup8\n        /* \"contracts/BytesChunker.sol\":626:638  add(data, i) */\n      add\n        /* \"contracts/BytesChunker.sol\":620:639  mload(add(data, i)) */\n      mload\n        /* \"contracts/BytesChunker.sol\":612:639  temp := mload(add(data, i)) */\n      swap1\n      pop\n        /* \"contracts/BytesChunker.sol\":730:734  temp */\n      dup1\n        /* \"contracts/BytesChunker.sol\":712:720  dataList */\n      dup5\n        /* \"contracts/BytesChunker.sol\":721:726  index */\n      dup5\n        /* \"contracts/BytesChunker.sol\":712:727  dataList[index] */\n      dup2\n      mload\n      dup2\n      lt\n      tag_19\n      jumpi\n      invalid\n    tag_19:\n      0x20\n      mul\n      0x20\n      add\n      add\n        /* \"contracts/BytesChunker.sol\":712:734  dataList[index] = temp */\n      dup2\n      dup2\n      mstore\n      pop\n      pop\n        /* \"contracts/BytesChunker.sol\":748:755  index++ */\n      dup3\n      dup1\n      0x01\n      add\n      swap4\n      pop\n      pop\n        /* \"contracts/BytesChunker.sol\":456:766  for (uint256 i = 32; i <= data.length; i = i + 32) {... */\n      pop\n        /* \"contracts/BytesChunker.sol\":503:505  32 */\n      0x20\n        /* \"contracts/BytesChunker.sol\":499:500  i */\n      dup2\n        /* \"contracts/BytesChunker.sol\":499:505  i + 32 */\n      add\n        /* \"contracts/BytesChunker.sol\":495:505  i = i + 32 */\n      swap1\n      pop\n        /* \"contracts/BytesChunker.sol\":456:766  for (uint256 i = 32; i <= data.length; i = i + 32) {... */\n      jump(tag_16)\n    tag_17:\n      pop\n        /* \"contracts/BytesChunker.sol\":811:819  dataList */\n      dup2\n        /* \"contracts/BytesChunker.sol\":803:820  return (dataList) */\n      swap4\n      pop\n      pop\n      pop\n      pop\n        /* \"contracts/BytesChunker.sol\":52:827  function toBytes32Array(bytes memory data)... */\n      swap2\n      swap1\n      pop\n      jump\t// out\n\n    auxdata: 0xa2646970667358221220701e130e34b12796324b2f673b6ba9ef04da27ae9b1486da4dd6d9a0f10ad43964736f6c634300060c0033\n}\n",
				"bytecode": {
					"linkReferences": {},
					"object": "61022e610026600b82828239805160001a60731461001957fe5b30600052607381538281f3fe73000000000000000000000000000000000000000030146080604052600436106100355760003560e01c8063a16ab39b1461003a575b600080fd5b6100f36004803603602081101561005057600080fd5b810190808035906020019064010000000081111561006d57600080fd5b82018360208201111561007f57600080fd5b803590602001918460018302840111640100000000831117156100a157600080fd5b91908080601f016020809104026020016040519081016040528093929190818152602001838380828437600081840152601f19601f82011690508083019250505050505050919291929050505061014a565b6040518080602001828103825283818151815260200191508051906020019060200280838360005b8381101561013657808201518184015260208101905061011b565b505050509050019250505060405180910390f35b60606000602083518161015957fe5b04905060608167ffffffffffffffff8111801561017557600080fd5b506040519080825280602002602001820160405280156101a45781602001602082028036833780820191505090505b509050600080602090505b855181116101ec576000818701519050808484815181106101cc57fe5b6020026020010181815250508280600101935050506020810190506101af565b5081935050505091905056fea2646970667358221220701e130e34b12796324b2f673b6ba9ef04da27ae9b1486da4dd6d9a0f10ad43964736f6c634300060c0033",
					"opcodes": "PUSH2 0x22E PUSH2 0x26 PUSH1 0xB DUP3 DUP3 DUP3 CODECOPY DUP1 MLOAD PUSH1 0x0 BYTE PUSH1 0x73 EQ PUSH2 0x19 JUMPI INVALID JUMPDEST ADDRESS PUSH1 0x0 MSTORE PUSH1 0x73 DUP2 MSTORE8 DUP3 DUP2 RETURN INVALID PUSH20 0x0 ADDRESS EQ PUSH1 0x80 PUSH1 0x40 MSTORE PUSH1 0x4 CALLDATASIZE LT PUSH2 0x35 JUMPI PUSH1 0x0 CALLDATALOAD PUSH1 0xE0 SHR DUP1 PUSH4 0xA16AB39B EQ PUSH2 0x3A JUMPI JUMPDEST PUSH1 0x0 DUP1 REVERT JUMPDEST PUSH2 0xF3 PUSH1 0x4 DUP1 CALLDATASIZE SUB PUSH1 0x20 DUP2 LT ISZERO PUSH2 0x50 JUMPI PUSH1 0x0 DUP1 REVERT JUMPDEST DUP2 ADD SWAP1 DUP1 DUP1 CALLDATALOAD SWAP1 PUSH1 0x20 ADD SWAP1 PUSH5 0x100000000 DUP2 GT ISZERO PUSH2 0x6D JUMPI PUSH1 0x0 DUP1 REVERT JUMPDEST DUP3 ADD DUP4 PUSH1 0x20 DUP3 ADD GT ISZERO PUSH2 0x7F JUMPI PUSH1 0x0 DUP1 REVERT JUMPDEST DUP1 CALLDATALOAD SWAP1 PUSH1 0x20 ADD SWAP2 DUP5 PUSH1 0x1 DUP4 MUL DUP5 ADD GT PUSH5 0x100000000 DUP4 GT OR ISZERO PUSH2 0xA1 JUMPI PUSH1 0x0 DUP1 REVERT JUMPDEST SWAP2 SWAP1 DUP1 DUP1 PUSH1 0x1F ADD PUSH1 0x20 DUP1 SWAP2 DIV MUL PUSH1 0x20 ADD PUSH1 0x40 MLOAD SWAP1 DUP2 ADD PUSH1 0x40 MSTORE DUP1 SWAP4 SWAP3 SWAP2 SWAP1 DUP2 DUP2 MSTORE PUSH1 0x20 ADD DUP4 DUP4 DUP1 DUP3 DUP5 CALLDATACOPY PUSH1 0x0 DUP2 DUP5 ADD MSTORE PUSH1 0x1F NOT PUSH1 0x1F DUP3 ADD AND SWAP1 POP DUP1 DUP4 ADD SWAP3 POP POP POP POP POP POP POP SWAP2 SWAP3 SWAP2 SWAP3 SWAP1 POP POP POP PUSH2 0x14A JUMP JUMPDEST PUSH1 0x40 MLOAD DUP1 DUP1 PUSH1 0x20 ADD DUP3 DUP2 SUB DUP3 MSTORE DUP4 DUP2 DUP2 MLOAD DUP2 MSTORE PUSH1 0x20 ADD SWAP2 POP DUP1 MLOAD SWAP1 PUSH1 0x20 ADD SWAP1 PUSH1 0x20 MUL DUP1 DUP4 DUP4 PUSH1 0x0 JUMPDEST DUP4 DUP2 LT ISZERO PUSH2 0x136 JUMPI DUP1 DUP3 ADD MLOAD DUP2 DUP5 ADD MSTORE PUSH1 0x20 DUP2 ADD SWAP1 POP PUSH2 0x11B JUMP JUMPDEST POP POP POP POP SWAP1 POP ADD SWAP3 POP POP POP PUSH1 0x40 MLOAD DUP1 SWAP2 SUB SWAP1 RETURN JUMPDEST PUSH1 0x60 PUSH1 0x0 PUSH1 0x20 DUP4 MLOAD DUP2 PUSH2 0x159 JUMPI INVALID JUMPDEST DIV SWAP1 POP PUSH1 0x60 DUP2 PUSH8 0xFFFFFFFFFFFFFFFF DUP2 GT DUP1 ISZERO PUSH2 0x175 JUMPI PUSH1 0x0 DUP1 REVERT JUMPDEST POP PUSH1 0x40 MLOAD SWAP1 DUP1 DUP3 MSTORE DUP1 PUSH1 0x20 MUL PUSH1 0x20 ADD DUP3 ADD PUSH1 0x40 MSTORE DUP1 ISZERO PUSH2 0x1A4 JUMPI DUP2 PUSH1 0x20 ADD PUSH1 0x20 DUP3 MUL DUP1 CALLDATASIZE DUP4 CALLDATACOPY DUP1 DUP3 ADD SWAP2 POP POP SWAP1 POP JUMPDEST POP SWAP1 POP PUSH1 0x0 DUP1 PUSH1 0x20 SWAP1 POP JUMPDEST DUP6 MLOAD DUP2 GT PUSH2 0x1EC JUMPI PUSH1 0x0 DUP2 DUP8 ADD MLOAD SWAP1 POP DUP1 DUP5 DUP5 DUP2 MLOAD DUP2 LT PUSH2 0x1CC JUMPI INVALID JUMPDEST PUSH1 0x20 MUL PUSH1 0x20 ADD ADD DUP2 DUP2 MSTORE POP POP DUP3 DUP1 PUSH1 0x1 ADD SWAP4 POP POP POP PUSH1 0x20 DUP2 ADD SWAP1 POP PUSH2 0x1AF JUMP JUMPDEST POP DUP2 SWAP4 POP POP POP POP SWAP2 SWAP1 POP JUMP INVALID LOG2 PUSH5 0x6970667358 0x22 SLT KECCAK256 PUSH17 0x1E130E34B12796324B2F673B6BA9EF04DA 0x27 0xAE SWAP12 EQ DUP7 0xDA 0x4D 0xD6 0xD9 LOG0 CALL EXP 0xD4 CODECOPY PUSH5 0x736F6C6343 STOP MOD 0xC STOP CALLER "
				},
				"gasEstimates": {
					"creation": {
						"codeDepositCost": "111600",
						"executionCost": "184",
						"totalCost": "111784"
					},
					"external": {
						"toBytes32Array(bytes)": "infinite"
					}
				},
				"methodIdentifiers": {
					"toBytes32Array(bytes)": "a16ab39b"
				}
			},
			"storageLayout": {
				"storage": [],
				"types": null
			},
			"userdoc": {
				"kind": "user",
				"methods": {},
				"version": 1
			}
		}
	}
}