{
	"contracts/multiAccessUpgradeable.sol": {
		"MultiAccessUpgradeable": {
			"abi": [
				{
					"inputs": [
						{
							"internalType": "address",
							"name": "to",
							"type": "address"
						}
					],
					"name": "grantAccess",
					"outputs": [],
					"stateMutability": "nonpayable",
					"type": "function"
				},
				{
					"inputs": [],
					"name": "initialize",
					"outputs": [],
					"stateMutability": "nonpayable",
					"type": "function"
				},
				{
					"inputs": [
						{
							"internalType": "address",
							"name": "from",
							"type": "address"
						}
					],
					"name": "revokeAccess",
					"outputs": [],
					"stateMutability": "nonpayable",
					"type": "function"
				}
			],
			"devdoc": {
				"kind": "dev",
				"methods": {},
				"version": 1
			},
			"evm": {
				"assembly": "    /* \"contracts/multiAccessUpgradeable.sol\":96:637  contract MultiAccessUpgradeable is Initializable {... */\n  mstore(0x40, 0x80)\n  callvalue\n  dup1\n  iszero\n  tag_1\n  jumpi\n  0x00\n  dup1\n  revert\ntag_1:\n  pop\n  dataSize(sub_0)\n  dup1\n  dataOffset(sub_0)\n  0x00\n  codecopy\n  0x00\n  return\nstop\n\nsub_0: assembly {\n        /* \"contracts/multiAccessUpgradeable.sol\":96:637  contract MultiAccessUpgradeable is Initializable {... */\n      mstore(0x40, 0x80)\n      callvalue\n      dup1\n      iszero\n      tag_1\n      jumpi\n      0x00\n      dup1\n      revert\n    tag_1:\n      pop\n      jumpi(tag_2, lt(calldatasize, 0x04))\n      shr(0xe0, calldataload(0x00))\n      dup1\n      0x0ae5e739\n      eq\n      tag_3\n      jumpi\n      dup1\n      0x8129fc1c\n      eq\n      tag_4\n      jumpi\n      dup1\n      0x85e68531\n      eq\n      tag_5\n      jumpi\n    tag_2:\n      0x00\n      dup1\n      revert\n        /* \"contracts/multiAccessUpgradeable.sol\":345:430  function grantAccess(address to) public restricted {... */\n    tag_3:\n      tag_6\n      0x04\n      dup1\n      calldatasize\n      sub\n      0x20\n      dup2\n      lt\n      iszero\n      tag_7\n      jumpi\n      0x00\n      dup1\n      revert\n    tag_7:\n      dup2\n      add\n      swap1\n      dup1\n      dup1\n      calldataload\n      0xffffffffffffffffffffffffffffffffffffffff\n      and\n      swap1\n      0x20\n      add\n      swap1\n      swap3\n      swap2\n      swap1\n      pop\n      pop\n      pop\n      tag_8\n      jump\t// in\n    tag_6:\n      stop\n        /* \"contracts/multiAccessUpgradeable.sol\":256:339  function initialize() public initializer {... */\n    tag_4:\n      tag_9\n      tag_10\n      jump\t// in\n    tag_9:\n      stop\n        /* \"contracts/multiAccessUpgradeable.sol\":436:526  function revokeAccess(address from) public restricted {... */\n    tag_5:\n      tag_11\n      0x04\n      dup1\n      calldatasize\n      sub\n      0x20\n      dup2\n      lt\n      iszero\n      tag_12\n      jumpi\n      0x00\n      dup1\n      revert\n    tag_12:\n      dup2\n      add\n      swap1\n      dup1\n      dup1\n      calldataload\n      0xffffffffffffffffffffffffffffffffffffffff\n      and\n      swap1\n      0x20\n      add\n      swap1\n      swap3\n      swap2\n      swap1\n      pop\n      pop\n      pop\n      tag_13\n      jump\t// in\n    tag_11:\n      stop\n        /* \"contracts/multiAccessUpgradeable.sol\":345:430  function grantAccess(address to) public restricted {... */\n    tag_8:\n        /* \"contracts/multiAccessUpgradeable.sol\":594:598  true */\n      0x01\n        /* \"contracts/multiAccessUpgradeable.sol\":572:598  access[msg.sender] == true */\n      iszero\n      iszero\n        /* \"contracts/multiAccessUpgradeable.sol\":572:578  access */\n      0x01\n        /* \"contracts/multiAccessUpgradeable.sol\":572:590  access[msg.sender] */\n      0x00\n        /* \"contracts/multiAccessUpgradeable.sol\":579:589  msg.sender */\n      caller\n        /* \"contracts/multiAccessUpgradeable.sol\":572:590  access[msg.sender] */\n      0xffffffffffffffffffffffffffffffffffffffff\n      and\n      0xffffffffffffffffffffffffffffffffffffffff\n      and\n      dup2\n      mstore\n      0x20\n      add\n      swap1\n      dup2\n      mstore\n      0x20\n      add\n      0x00\n      keccak256\n      0x00\n      swap1\n      sload\n      swap1\n      0x0100\n      exp\n      swap1\n      div\n      0xff\n      and\n        /* \"contracts/multiAccessUpgradeable.sol\":572:598  access[msg.sender] == true */\n      iszero\n      iszero\n      eq\n        /* \"contracts/multiAccessUpgradeable.sol\":564:616  require(access[msg.sender] == true, \"Access denied\") */\n      tag_15\n      jumpi\n      mload(0x40)\n      0x08c379a000000000000000000000000000000000000000000000000000000000\n      dup2\n      mstore\n      0x04\n      add\n      dup1\n      dup1\n      0x20\n      add\n      dup3\n      dup2\n      sub\n      dup3\n      mstore\n      0x0d\n      dup2\n      mstore\n      0x20\n      add\n      dup1\n      0x4163636573732064656e69656400000000000000000000000000000000000000\n      dup2\n      mstore\n      pop\n      0x20\n      add\n      swap2\n      pop\n      pop\n      mload(0x40)\n      dup1\n      swap2\n      sub\n      swap1\n      revert\n    tag_15:\n        /* \"contracts/multiAccessUpgradeable.sol\":419:423  true */\n      0x01\n        /* \"contracts/multiAccessUpgradeable.sol\":406:412  access */\n      dup1\n        /* \"contracts/multiAccessUpgradeable.sol\":406:416  access[to] */\n      0x00\n        /* \"contracts/multiAccessUpgradeable.sol\":413:415  to */\n      dup4\n        /* \"contracts/multiAccessUpgradeable.sol\":406:416  access[to] */\n      0xffffffffffffffffffffffffffffffffffffffff\n      and\n      0xffffffffffffffffffffffffffffffffffffffff\n      and\n      dup2\n      mstore\n      0x20\n      add\n      swap1\n      dup2\n      mstore\n      0x20\n      add\n      0x00\n      keccak256\n      0x00\n        /* \"contracts/multiAccessUpgradeable.sol\":406:423  access[to] = true */\n      0x0100\n      exp\n      dup2\n      sload\n      dup2\n      0xff\n      mul\n      not\n      and\n      swap1\n      dup4\n      iszero\n      iszero\n      mul\n      or\n      swap1\n      sstore\n      pop\n        /* \"contracts/multiAccessUpgradeable.sol\":345:430  function grantAccess(address to) public restricted {... */\n      pop\n      jump\t// out\n        /* \"contracts/multiAccessUpgradeable.sol\":256:339  function initialize() public initializer {... */\n    tag_10:\n        /* \"@openzeppelin/contracts-upgradeable/proxy/Initializable.sol\":1512:1525  _initializing */\n      0x00\n      0x01\n      swap1\n      sload\n      swap1\n      0x0100\n      exp\n      swap1\n      div\n      0xff\n      and\n        /* \"@openzeppelin/contracts-upgradeable/proxy/Initializable.sol\":1512:1545  _initializing || _isConstructor() */\n      dup1\n      tag_18\n      jumpi\n      pop\n        /* \"@openzeppelin/contracts-upgradeable/proxy/Initializable.sol\":1529:1545  _isConstructor() */\n      tag_19\n        /* \"@openzeppelin/contracts-upgradeable/proxy/Initializable.sol\":1529:1543  _isConstructor */\n      tag_20\n        /* \"@openzeppelin/contracts-upgradeable/proxy/Initializable.sol\":1529:1545  _isConstructor() */\n      jump\t// in\n    tag_19:\n        /* \"@openzeppelin/contracts-upgradeable/proxy/Initializable.sol\":1512:1545  _initializing || _isConstructor() */\n    tag_18:\n        /* \"@openzeppelin/contracts-upgradeable/proxy/Initializable.sol\":1512:1562  _initializing || _isConstructor() || !_initialized */\n      dup1\n      tag_21\n      jumpi\n      pop\n        /* \"@openzeppelin/contracts-upgradeable/proxy/Initializable.sol\":1550:1562  _initialized */\n      0x00\n      dup1\n      sload\n      swap1\n      0x0100\n      exp\n      swap1\n      div\n      0xff\n      and\n        /* \"@openzeppelin/contracts-upgradeable/proxy/Initializable.sol\":1549:1562  !_initialized */\n      iszero\n        /* \"@openzeppelin/contracts-upgradeable/proxy/Initializable.sol\":1512:1562  _initializing || _isConstructor() || !_initialized */\n    tag_21:\n        /* \"@openzeppelin/contracts-upgradeable/proxy/Initializable.sol\":1504:1613  require(_initializing || _isConstructor() || !_initialized, \"Initializable: contract is already initialized\") */\n      tag_22\n      jumpi\n      mload(0x40)\n      0x08c379a000000000000000000000000000000000000000000000000000000000\n      dup2\n      mstore\n      0x04\n      add\n      dup1\n      dup1\n      0x20\n      add\n      dup3\n      dup2\n      sub\n      dup3\n      mstore\n      0x2e\n      dup2\n      mstore\n      0x20\n      add\n      dup1\n      data_7a2a4e26842155ea933fe6eb6e3137eb5a296dcdf55721c552be7b4c3cc23759\n      0x2e\n      swap2\n      codecopy\n      0x40\n      add\n      swap2\n      pop\n      pop\n      mload(0x40)\n      dup1\n      swap2\n      sub\n      swap1\n      revert\n    tag_22:\n        /* \"@openzeppelin/contracts-upgradeable/proxy/Initializable.sol\":1624:1643  bool isTopLevelCall */\n      0x00\n        /* \"@openzeppelin/contracts-upgradeable/proxy/Initializable.sol\":1647:1660  _initializing */\n      dup1\n      0x01\n      swap1\n      sload\n      swap1\n      0x0100\n      exp\n      swap1\n      div\n      0xff\n      and\n        /* \"@openzeppelin/contracts-upgradeable/proxy/Initializable.sol\":1646:1660  !_initializing */\n      iszero\n        /* \"@openzeppelin/contracts-upgradeable/proxy/Initializable.sol\":1624:1660  bool isTopLevelCall = !_initializing */\n      swap1\n      pop\n        /* \"@openzeppelin/contracts-upgradeable/proxy/Initializable.sol\":1674:1688  isTopLevelCall */\n      dup1\n        /* \"@openzeppelin/contracts-upgradeable/proxy/Initializable.sol\":1670:1768  if (isTopLevelCall) {... */\n      iszero\n      tag_23\n      jumpi\n        /* \"@openzeppelin/contracts-upgradeable/proxy/Initializable.sol\":1720:1724  true */\n      0x01\n        /* \"@openzeppelin/contracts-upgradeable/proxy/Initializable.sol\":1704:1717  _initializing */\n      0x00\n      0x01\n        /* \"@openzeppelin/contracts-upgradeable/proxy/Initializable.sol\":1704:1724  _initializing = true */\n      0x0100\n      exp\n      dup2\n      sload\n      dup2\n      0xff\n      mul\n      not\n      and\n      swap1\n      dup4\n      iszero\n      iszero\n      mul\n      or\n      swap1\n      sstore\n      pop\n        /* \"@openzeppelin/contracts-upgradeable/proxy/Initializable.sol\":1753:1757  true */\n      0x01\n        /* \"@openzeppelin/contracts-upgradeable/proxy/Initializable.sol\":1738:1750  _initialized */\n      0x00\n      dup1\n        /* \"@openzeppelin/contracts-upgradeable/proxy/Initializable.sol\":1738:1757  _initialized = true */\n      0x0100\n      exp\n      dup2\n      sload\n      dup2\n      0xff\n      mul\n      not\n      and\n      swap1\n      dup4\n      iszero\n      iszero\n      mul\n      or\n      swap1\n      sstore\n      pop\n        /* \"@openzeppelin/contracts-upgradeable/proxy/Initializable.sol\":1670:1768  if (isTopLevelCall) {... */\n    tag_23:\n        /* \"contracts/multiAccessUpgradeable.sol\":328:332  true */\n      0x01\n        /* \"contracts/multiAccessUpgradeable.sol\":307:313  access */\n      dup1\n        /* \"contracts/multiAccessUpgradeable.sol\":307:325  access[msg.sender] */\n      0x00\n        /* \"contracts/multiAccessUpgradeable.sol\":314:324  msg.sender */\n      caller\n        /* \"contracts/multiAccessUpgradeable.sol\":307:325  access[msg.sender] */\n      0xffffffffffffffffffffffffffffffffffffffff\n      and\n      0xffffffffffffffffffffffffffffffffffffffff\n      and\n      dup2\n      mstore\n      0x20\n      add\n      swap1\n      dup2\n      mstore\n      0x20\n      add\n      0x00\n      keccak256\n      0x00\n        /* \"contracts/multiAccessUpgradeable.sol\":307:332  access[msg.sender] = true */\n      0x0100\n      exp\n      dup2\n      sload\n      dup2\n      0xff\n      mul\n      not\n      and\n      swap1\n      dup4\n      iszero\n      iszero\n      mul\n      or\n      swap1\n      sstore\n      pop\n        /* \"@openzeppelin/contracts-upgradeable/proxy/Initializable.sol\":1794:1808  isTopLevelCall */\n      dup1\n        /* \"@openzeppelin/contracts-upgradeable/proxy/Initializable.sol\":1790:1856  if (isTopLevelCall) {... */\n      iszero\n      tag_25\n      jumpi\n        /* \"@openzeppelin/contracts-upgradeable/proxy/Initializable.sol\":1840:1845  false */\n      0x00\n        /* \"@openzeppelin/contracts-upgradeable/proxy/Initializable.sol\":1824:1837  _initializing */\n      dup1\n      0x01\n        /* \"@openzeppelin/contracts-upgradeable/proxy/Initializable.sol\":1824:1845  _initializing = false */\n      0x0100\n      exp\n      dup2\n      sload\n      dup2\n      0xff\n      mul\n      not\n      and\n      swap1\n      dup4\n      iszero\n      iszero\n      mul\n      or\n      swap1\n      sstore\n      pop\n        /* \"@openzeppelin/contracts-upgradeable/proxy/Initializable.sol\":1790:1856  if (isTopLevelCall) {... */\n    tag_25:\n        /* \"contracts/multiAccessUpgradeable.sol\":256:339  function initialize() public initializer {... */\n      pop\n      jump\t// out\n        /* \"contracts/multiAccessUpgradeable.sol\":436:526  function revokeAccess(address from) public restricted {... */\n    tag_13:\n        /* \"contracts/multiAccessUpgradeable.sol\":594:598  true */\n      0x01\n        /* \"contracts/multiAccessUpgradeable.sol\":572:598  access[msg.sender] == true */\n      iszero\n      iszero\n        /* \"contracts/multiAccessUpgradeable.sol\":572:578  access */\n      0x01\n        /* \"contracts/multiAccessUpgradeable.sol\":572:590  access[msg.sender] */\n      0x00\n        /* \"contracts/multiAccessUpgradeable.sol\":579:589  msg.sender */\n      caller\n        /* \"contracts/multiAccessUpgradeable.sol\":572:590  access[msg.sender] */\n      0xffffffffffffffffffffffffffffffffffffffff\n      and\n      0xffffffffffffffffffffffffffffffffffffffff\n      and\n      dup2\n      mstore\n      0x20\n      add\n      swap1\n      dup2\n      mstore\n      0x20\n      add\n      0x00\n      keccak256\n      0x00\n      swap1\n      sload\n      swap1\n      0x0100\n      exp\n      swap1\n      div\n      0xff\n      and\n        /* \"contracts/multiAccessUpgradeable.sol\":572:598  access[msg.sender] == true */\n      iszero\n      iszero\n      eq\n        /* \"contracts/multiAccessUpgradeable.sol\":564:616  require(access[msg.sender] == true, \"Access denied\") */\n      tag_27\n      jumpi\n      mload(0x40)\n      0x08c379a000000000000000000000000000000000000000000000000000000000\n      dup2\n      mstore\n      0x04\n      add\n      dup1\n      dup1\n      0x20\n      add\n      dup3\n      dup2\n      sub\n      dup3\n      mstore\n      0x0d\n      dup2\n      mstore\n      0x20\n      add\n      dup1\n      0x4163636573732064656e69656400000000000000000000000000000000000000\n      dup2\n      mstore\n      pop\n      0x20\n      add\n      swap2\n      pop\n      pop\n      mload(0x40)\n      dup1\n      swap2\n      sub\n      swap1\n      revert\n    tag_27:\n        /* \"contracts/multiAccessUpgradeable.sol\":507:513  access */\n      0x01\n        /* \"contracts/multiAccessUpgradeable.sol\":507:519  access[from] */\n      0x00\n        /* \"contracts/multiAccessUpgradeable.sol\":514:518  from */\n      dup3\n        /* \"contracts/multiAccessUpgradeable.sol\":507:519  access[from] */\n      0xffffffffffffffffffffffffffffffffffffffff\n      and\n      0xffffffffffffffffffffffffffffffffffffffff\n      and\n      dup2\n      mstore\n      0x20\n      add\n      swap1\n      dup2\n      mstore\n      0x20\n      add\n      0x00\n      keccak256\n      0x00\n        /* \"contracts/multiAccessUpgradeable.sol\":500:519  delete access[from] */\n      0x0100\n      exp\n      dup2\n      sload\n      swap1\n      0xff\n      mul\n      not\n      and\n      swap1\n      sstore\n        /* \"contracts/multiAccessUpgradeable.sol\":436:526  function revokeAccess(address from) public restricted {... */\n      pop\n      jump\t// out\n        /* \"@openzeppelin/contracts-upgradeable/proxy/Initializable.sol\":1952:2075  function _isConstructor() private view returns (bool) {... */\n    tag_20:\n        /* \"@openzeppelin/contracts-upgradeable/proxy/Initializable.sol\":2000:2004  bool */\n      0x00\n        /* \"@openzeppelin/contracts-upgradeable/proxy/Initializable.sol\":2024:2068  AddressUpgradeable.isContract(address(this)) */\n      tag_30\n        /* \"@openzeppelin/contracts-upgradeable/proxy/Initializable.sol\":2062:2066  this */\n      address\n        /* \"@openzeppelin/contracts-upgradeable/proxy/Initializable.sol\":2024:2053  AddressUpgradeable.isContract */\n      tag_31\n        /* \"@openzeppelin/contracts-upgradeable/proxy/Initializable.sol\":2024:2068  AddressUpgradeable.isContract(address(this)) */\n      jump\t// in\n    tag_30:\n        /* \"@openzeppelin/contracts-upgradeable/proxy/Initializable.sol\":2023:2068  !AddressUpgradeable.isContract(address(this)) */\n      iszero\n        /* \"@openzeppelin/contracts-upgradeable/proxy/Initializable.sol\":2016:2068  return !AddressUpgradeable.isContract(address(this)) */\n      swap1\n      pop\n        /* \"@openzeppelin/contracts-upgradeable/proxy/Initializable.sol\":1952:2075  function _isConstructor() private view returns (bool) {... */\n      swap1\n      jump\t// out\n        /* \"@openzeppelin/contracts-upgradeable/utils/AddressUpgradeable.sol\":737:1150  function isContract(address account) internal view returns (bool) {... */\n    tag_31:\n        /* \"@openzeppelin/contracts-upgradeable/utils/AddressUpgradeable.sol\":797:801  bool */\n      0x00\n        /* \"@openzeppelin/contracts-upgradeable/utils/AddressUpgradeable.sol\":1000:1012  uint256 size */\n      dup1\n        /* \"@openzeppelin/contracts-upgradeable/utils/AddressUpgradeable.sol\":1109:1116  account */\n      dup3\n        /* \"@openzeppelin/contracts-upgradeable/utils/AddressUpgradeable.sol\":1097:1117  extcodesize(account) */\n      extcodesize\n        /* \"@openzeppelin/contracts-upgradeable/utils/AddressUpgradeable.sol\":1089:1117  size := extcodesize(account) */\n      swap1\n      pop\n        /* \"@openzeppelin/contracts-upgradeable/utils/AddressUpgradeable.sol\":1142:1143  0 */\n      0x00\n        /* \"@openzeppelin/contracts-upgradeable/utils/AddressUpgradeable.sol\":1135:1139  size */\n      dup2\n        /* \"@openzeppelin/contracts-upgradeable/utils/AddressUpgradeable.sol\":1135:1143  size > 0 */\n      gt\n        /* \"@openzeppelin/contracts-upgradeable/utils/AddressUpgradeable.sol\":1128:1143  return size > 0 */\n      swap2\n      pop\n      pop\n        /* \"@openzeppelin/contracts-upgradeable/utils/AddressUpgradeable.sol\":737:1150  function isContract(address account) internal view returns (bool) {... */\n      swap2\n      swap1\n      pop\n      jump\t// out\n    stop\n    data_7a2a4e26842155ea933fe6eb6e3137eb5a296dcdf55721c552be7b4c3cc23759 496e697469616c697a61626c653a20636f6e747261637420697320616c726561647920696e697469616c697a6564\n\n    auxdata: 0xa264697066735822122088ffac42f30d9b5914afdf539bfdd36df579164be29546e5d595525b2ec96d4564736f6c634300060c0033\n}\n",
				"bytecode": {
					"linkReferences": {},
					"object": "608060405234801561001057600080fd5b506104ed806100206000396000f3fe608060405234801561001057600080fd5b50600436106100415760003560e01c80630ae5e739146100465780638129fc1c1461008a57806385e6853114610094575b600080fd5b6100886004803603602081101561005c57600080fd5b81019080803573ffffffffffffffffffffffffffffffffffffffff1690602001909291905050506100d8565b005b6100926101f8565b005b6100d6600480360360208110156100aa57600080fd5b81019080803573ffffffffffffffffffffffffffffffffffffffff16906020019092919050505061034d565b005b60011515600160003373ffffffffffffffffffffffffffffffffffffffff1673ffffffffffffffffffffffffffffffffffffffff16815260200190815260200160002060009054906101000a900460ff1615151461019e576040517f08c379a000000000000000000000000000000000000000000000000000000000815260040180806020018281038252600d8152602001807f4163636573732064656e6965640000000000000000000000000000000000000081525060200191505060405180910390fd5b60018060008373ffffffffffffffffffffffffffffffffffffffff1673ffffffffffffffffffffffffffffffffffffffff16815260200190815260200160002060006101000a81548160ff02191690831515021790555050565b600060019054906101000a900460ff16806102175750610216610465565b5b8061022d575060008054906101000a900460ff16155b610282576040517f08c379a000000000000000000000000000000000000000000000000000000000815260040180806020018281038252602e81526020018061048a602e913960400191505060405180910390fd5b60008060019054906101000a900460ff1615905080156102d2576001600060016101000a81548160ff02191690831515021790555060016000806101000a81548160ff0219169083151502179055505b60018060003373ffffffffffffffffffffffffffffffffffffffff1673ffffffffffffffffffffffffffffffffffffffff16815260200190815260200160002060006101000a81548160ff021916908315150217905550801561034a5760008060016101000a81548160ff0219169083151502179055505b50565b60011515600160003373ffffffffffffffffffffffffffffffffffffffff1673ffffffffffffffffffffffffffffffffffffffff16815260200190815260200160002060009054906101000a900460ff16151514610413576040517f08c379a000000000000000000000000000000000000000000000000000000000815260040180806020018281038252600d8152602001807f4163636573732064656e6965640000000000000000000000000000000000000081525060200191505060405180910390fd5b600160008273ffffffffffffffffffffffffffffffffffffffff1673ffffffffffffffffffffffffffffffffffffffff16815260200190815260200160002060006101000a81549060ff021916905550565b600061047030610476565b15905090565b600080823b90506000811191505091905056fe496e697469616c697a61626c653a20636f6e747261637420697320616c726561647920696e697469616c697a6564a264697066735822122088ffac42f30d9b5914afdf539bfdd36df579164be29546e5d595525b2ec96d4564736f6c634300060c0033",
					"opcodes": "PUSH1 0x80 PUSH1 0x40 MSTORE CALLVALUE DUP1 ISZERO PUSH2 0x10 JUMPI PUSH1 0x0 DUP1 REVERT JUMPDEST POP PUSH2 0x4ED DUP1 PUSH2 0x20 PUSH1 0x0 CODECOPY PUSH1 0x0 RETURN INVALID PUSH1 0x80 PUSH1 0x40 MSTORE CALLVALUE DUP1 ISZERO PUSH2 0x10 JUMPI PUSH1 0x0 DUP1 REVERT JUMPDEST POP PUSH1 0x4 CALLDATASIZE LT PUSH2 0x41 JUMPI PUSH1 0x0 CALLDATALOAD PUSH1 0xE0 SHR DUP1 PUSH4 0xAE5E739 EQ PUSH2 0x46 JUMPI DUP1 PUSH4 0x8129FC1C EQ PUSH2 0x8A JUMPI DUP1 PUSH4 0x85E68531 EQ PUSH2 0x94 JUMPI JUMPDEST PUSH1 0x0 DUP1 REVERT JUMPDEST PUSH2 0x88 PUSH1 0x4 DUP1 CALLDATASIZE SUB PUSH1 0x20 DUP2 LT ISZERO PUSH2 0x5C JUMPI PUSH1 0x0 DUP1 REVERT JUMPDEST DUP2 ADD SWAP1 DUP1 DUP1 CALLDATALOAD PUSH20 0xFFFFFFFFFFFFFFFFFFFFFFFFFFFFFFFFFFFFFFFF AND SWAP1 PUSH1 0x20 ADD SWAP1 SWAP3 SWAP2 SWAP1 POP POP POP PUSH2 0xD8 JUMP JUMPDEST STOP JUMPDEST PUSH2 0x92 PUSH2 0x1F8 JUMP JUMPDEST STOP JUMPDEST PUSH2 0xD6 PUSH1 0x4 DUP1 CALLDATASIZE SUB PUSH1 0x20 DUP2 LT ISZERO PUSH2 0xAA JUMPI PUSH1 0x0 DUP1 REVERT JUMPDEST DUP2 ADD SWAP1 DUP1 DUP1 CALLDATALOAD PUSH20 0xFFFFFFFFFFFFFFFFFFFFFFFFFFFFFFFFFFFFFFFF AND SWAP1 PUSH1 0x20 ADD SWAP1 SWAP3 SWAP2 SWAP1 POP POP POP PUSH2 0x34D JUMP JUMPDEST STOP JUMPDEST PUSH1 0x1 ISZERO ISZERO PUSH1 0x1 PUSH1 0x0 CALLER PUSH20 0xFFFFFFFFFFFFFFFFFFFFFFFFFFFFFFFFFFFFFFFF AND PUSH20 0xFFFFFFFFFFFFFFFFFFFFFFFFFFFFFFFFFFFFFFFF AND DUP2 MSTORE PUSH1 0x20 ADD SWAP1 DUP2 MSTORE PUSH1 0x20 ADD PUSH1 0x0 KECCAK256 PUSH1 0x0 SWAP1 SLOAD SWAP1 PUSH2 0x100 EXP SWAP1 DIV PUSH1 0xFF AND ISZERO ISZERO EQ PUSH2 0x19E JUMPI PUSH1 0x40 MLOAD PUSH32 0x8C379A000000000000000000000000000000000000000000000000000000000 DUP2 MSTORE PUSH1 0x4 ADD DUP1 DUP1 PUSH1 0x20 ADD DUP3 DUP2 SUB DUP3 MSTORE PUSH1 0xD DUP2 MSTORE PUSH1 0x20 ADD DUP1 PUSH32 0x4163636573732064656E69656400000000000000000000000000000000000000 DUP2 MSTORE POP PUSH1 0x20 ADD SWAP2 POP POP PUSH1 0x40 MLOAD DUP1 SWAP2 SUB SWAP1 REVERT JUMPDEST PUSH1 0x1 DUP1 PUSH1 0x0 DUP4 PUSH20 0xFFFFFFFFFFFFFFFFFFFFFFFFFFFFFFFFFFFFFFFF AND PUSH20 0xFFFFFFFFFFFFFFFFFFFFFFFFFFFFFFFFFFFFFFFF AND DUP2 MSTORE PUSH1 0x20 ADD SWAP1 DUP2 MSTORE PUSH1 0x20 ADD PUSH1 0x0 KECCAK256 PUSH1 0x0 PUSH2 0x100 EXP DUP2 SLOAD DUP2 PUSH1 0xFF MUL NOT AND SWAP1 DUP4 ISZERO ISZERO MUL OR SWAP1 SSTORE POP POP JUMP JUMPDEST PUSH1 0x0 PUSH1 0x1 SWAP1 SLOAD SWAP1 PUSH2 0x100 EXP SWAP1 DIV PUSH1 0xFF AND DUP1 PUSH2 0x217 JUMPI POP PUSH2 0x216 PUSH2 0x465 JUMP JUMPDEST JUMPDEST DUP1 PUSH2 0x22D JUMPI POP PUSH1 0x0 DUP1 SLOAD SWAP1 PUSH2 0x100 EXP SWAP1 DIV PUSH1 0xFF AND ISZERO JUMPDEST PUSH2 0x282 JUMPI PUSH1 0x40 MLOAD PUSH32 0x8C379A000000000000000000000000000000000000000000000000000000000 DUP2 MSTORE PUSH1 0x4 ADD DUP1 DUP1 PUSH1 0x20 ADD DUP3 DUP2 SUB DUP3 MSTORE PUSH1 0x2E DUP2 MSTORE PUSH1 0x20 ADD DUP1 PUSH2 0x48A PUSH1 0x2E SWAP2 CODECOPY PUSH1 0x40 ADD SWAP2 POP POP PUSH1 0x40 MLOAD DUP1 SWAP2 SUB SWAP1 REVERT JUMPDEST PUSH1 0x0 DUP1 PUSH1 0x1 SWAP1 SLOAD SWAP1 PUSH2 0x100 EXP SWAP1 DIV PUSH1 0xFF AND ISZERO SWAP1 POP DUP1 ISZERO PUSH2 0x2D2 JUMPI PUSH1 0x1 PUSH1 0x0 PUSH1 0x1 PUSH2 0x100 EXP DUP2 SLOAD DUP2 PUSH1 0xFF MUL NOT AND SWAP1 DUP4 ISZERO ISZERO MUL OR SWAP1 SSTORE POP PUSH1 0x1 PUSH1 0x0 DUP1 PUSH2 0x100 EXP DUP2 SLOAD DUP2 PUSH1 0xFF MUL NOT AND SWAP1 DUP4 ISZERO ISZERO MUL OR SWAP1 SSTORE POP JUMPDEST PUSH1 0x1 DUP1 PUSH1 0x0 CALLER PUSH20 0xFFFFFFFFFFFFFFFFFFFFFFFFFFFFFFFFFFFFFFFF AND PUSH20 0xFFFFFFFFFFFFFFFFFFFFFFFFFFFFFFFFFFFFFFFF AND DUP2 MSTORE PUSH1 0x20 ADD SWAP1 DUP2 MSTORE PUSH1 0x20 ADD PUSH1 0x0 KECCAK256 PUSH1 0x0 PUSH2 0x100 EXP DUP2 SLOAD DUP2 PUSH1 0xFF MUL NOT AND SWAP1 DUP4 ISZERO ISZERO MUL OR SWAP1 SSTORE POP DUP1 ISZERO PUSH2 0x34A JUMPI PUSH1 0x0 DUP1 PUSH1 0x1 PUSH2 0x100 EXP DUP2 SLOAD DUP2 PUSH1 0xFF MUL NOT AND SWAP1 DUP4 ISZERO ISZERO MUL OR SWAP1 SSTORE POP JUMPDEST POP JUMP JUMPDEST PUSH1 0x1 ISZERO ISZERO PUSH1 0x1 PUSH1 0x0 CALLER PUSH20 0xFFFFFFFFFFFFFFFFFFFFFFFFFFFFFFFFFFFFFFFF AND PUSH20 0xFFFFFFFFFFFFFFFFFFFFFFFFFFFFFFFFFFFFFFFF AND DUP2 MSTORE PUSH1 0x20 ADD SWAP1 DUP2 MSTORE PUSH1 0x20 ADD PUSH1 0x0 KECCAK256 PUSH1 0x0 SWAP1 SLOAD SWAP1 PUSH2 0x100 EXP SWAP1 DIV PUSH1 0xFF AND ISZERO ISZERO EQ PUSH2 0x413 JUMPI PUSH1 0x40 MLOAD PUSH32 0x8C379A000000000000000000000000000000000000000000000000000000000 DUP2 MSTORE PUSH1 0x4 ADD DUP1 DUP1 PUSH1 0x20 ADD DUP3 DUP2 SUB DUP3 MSTORE PUSH1 0xD DUP2 MSTORE PUSH1 0x20 ADD DUP1 PUSH32 0x4163636573732064656E69656400000000000000000000000000000000000000 DUP2 MSTORE POP PUSH1 0x20 ADD SWAP2 POP POP PUSH1 0x40 MLOAD DUP1 SWAP2 SUB SWAP1 REVERT JUMPDEST PUSH1 0x1 PUSH1 0x0 DUP3 PUSH20 0xFFFFFFFFFFFFFFFFFFFFFFFFFFFFFFFFFFFFFFFF AND PUSH20 0xFFFFFFFFFFFFFFFFFFFFFFFFFFFFFFFFFFFFFFFF AND DUP2 MSTORE PUSH1 0x20 ADD SWAP1 DUP2 MSTORE PUSH1 0x20 ADD PUSH1 0x0 KECCAK256 PUSH1 0x0 PUSH2 0x100 EXP DUP2 SLOAD SWAP1 PUSH1 0xFF MUL NOT AND SWAP1 SSTORE POP JUMP JUMPDEST PUSH1 0x0 PUSH2 0x470 ADDRESS PUSH2 0x476 JUMP JUMPDEST ISZERO SWAP1 POP SWAP1 JUMP JUMPDEST PUSH1 0x0 DUP1 DUP3 EXTCODESIZE SWAP1 POP PUSH1 0x0 DUP2 GT SWAP2 POP POP SWAP2 SWAP1 POP JUMP INVALID 0x49 PUSH15 0x697469616C697A61626C653A20636F PUSH15 0x747261637420697320616C72656164 PUSH26 0x20696E697469616C697A6564A264697066735822122088FFAC42 RETURN 0xD SWAP12 MSIZE EQ 0xAF 0xDF MSTORE8 SWAP12 REVERT 0xD3 PUSH14 0xF579164BE29546E5D595525B2EC9 PUSH14 0x4564736F6C634300060C00330000 "
				},
				"gasEstimates": {
					"creation": {
						"codeDepositCost": "252200",
						"executionCost": "294",
						"totalCost": "252494"
					},
					"external": {
						"grantAccess(address)": "22129",
						"initialize()": "infinite",
						"revokeAccess(address)": "22148"
					}
				},
				"methodIdentifiers": {
					"grantAccess(address)": "0ae5e739",
					"initialize()": "8129fc1c",
					"revokeAccess(address)": "85e68531"
				}
			},
			"storageLayout": {
				"storage": [
					{
						"astId": 6,
						"contract": "contracts/multiAccessUpgradeable.sol:MultiAccessUpgradeable",
						"label": "_initialized",
						"offset": 0,
						"slot": "0",
						"type": "t_bool"
					},
					{
						"astId": 9,
						"contract": "contracts/multiAccessUpgradeable.sol:MultiAccessUpgradeable",
						"label": "_initializing",
						"offset": 1,
						"slot": "0",
						"type": "t_bool"
					},
					{
						"astId": 318,
						"contract": "contracts/multiAccessUpgradeable.sol:MultiAccessUpgradeable",
						"label": "access",
						"offset": 0,
						"slot": "1",
						"type": "t_mapping(t_address,t_bool)"
					}
				],
				"types": {
					"t_address": {
						"encoding": "inplace",
						"label": "address",
						"numberOfBytes": "20"
					},
					"t_bool": {
						"encoding": "inplace",
						"label": "bool",
						"numberOfBytes": "1"
					},
					"t_mapping(t_address,t_bool)": {
						"encoding": "mapping",
						"key": "t_address",
						"label": "mapping(address => bool)",
						"numberOfBytes": "32",
						"value": "t_bool"
					}
				}
			},
			"userdoc": {
				"kind": "user",
				"methods": {},
				"version": 1
			}
		}
	}
}