{
	"contracts/Promos.sol": {
		"Promos": {
			"abi": [
				{
					"anonymous": false,
					"inputs": [
						{
							"indexed": true,
							"internalType": "bytes32",
							"name": "role",
							"type": "bytes32"
						},
						{
							"indexed": true,
							"internalType": "bytes32",
							"name": "previousAdminRole",
							"type": "bytes32"
						},
						{
							"indexed": true,
							"internalType": "bytes32",
							"name": "newAdminRole",
							"type": "bytes32"
						}
					],
					"name": "RoleAdminChanged",
					"type": "event"
				},
				{
					"anonymous": false,
					"inputs": [
						{
							"indexed": true,
							"internalType": "bytes32",
							"name": "role",
							"type": "bytes32"
						},
						{
							"indexed": true,
							"internalType": "address",
							"name": "account",
							"type": "address"
						},
						{
							"indexed": true,
							"internalType": "address",
							"name": "sender",
							"type": "address"
						}
					],
					"name": "RoleGranted",
					"type": "event"
				},
				{
					"anonymous": false,
					"inputs": [
						{
							"indexed": true,
							"internalType": "bytes32",
							"name": "role",
							"type": "bytes32"
						},
						{
							"indexed": true,
							"internalType": "address",
							"name": "account",
							"type": "address"
						},
						{
							"indexed": true,
							"internalType": "address",
							"name": "sender",
							"type": "address"
						}
					],
					"name": "RoleRevoked",
					"type": "event"
				},
				{
					"inputs": [],
					"name": "BIT_FIRST_CHARACTER",
					"outputs": [
						{
							"internalType": "uint256",
							"name": "",
							"type": "uint256"
						}
					],
					"stateMutability": "view",
					"type": "function"
				},
				{
					"inputs": [],
					"name": "DEFAULT_ADMIN_ROLE",
					"outputs": [
						{
							"internalType": "bytes32",
							"name": "",
							"type": "bytes32"
						}
					],
					"stateMutability": "view",
					"type": "function"
				},
				{
					"inputs": [],
					"name": "GAME_ADMIN",
					"outputs": [
						{
							"internalType": "bytes32",
							"name": "",
							"type": "bytes32"
						}
					],
					"stateMutability": "view",
					"type": "function"
				},
				{
					"inputs": [
						{
							"internalType": "address",
							"name": "",
							"type": "address"
						}
					],
					"name": "bits",
					"outputs": [
						{
							"internalType": "uint256",
							"name": "",
							"type": "uint256"
						}
					],
					"stateMutability": "view",
					"type": "function"
				},
				{
					"inputs": [],
					"name": "firstCharacterPromoInGameOnlyFundsGivenInUsd",
					"outputs": [
						{
							"internalType": "int128",
							"name": "",
							"type": "int128"
						}
					],
					"stateMutability": "view",
					"type": "function"
				},
				{
					"inputs": [],
					"name": "firstCharacterPromoInGameOnlyFundsGivenInUsdAsCents",
					"outputs": [
						{
							"internalType": "uint256",
							"name": "",
							"type": "uint256"
						}
					],
					"stateMutability": "view",
					"type": "function"
				},
				{
					"inputs": [
						{
							"internalType": "address",
							"name": "user",
							"type": "address"
						},
						{
							"internalType": "uint256",
							"name": "bit",
							"type": "uint256"
						}
					],
					"name": "getBit",
					"outputs": [
						{
							"internalType": "bool",
							"name": "",
							"type": "bool"
						}
					],
					"stateMutability": "view",
					"type": "function"
				},
				{
					"inputs": [
						{
							"internalType": "bytes32",
							"name": "role",
							"type": "bytes32"
						}
					],
					"name": "getRoleAdmin",
					"outputs": [
						{
							"internalType": "bytes32",
							"name": "",
							"type": "bytes32"
						}
					],
					"stateMutability": "view",
					"type": "function"
				},
				{
					"inputs": [
						{
							"internalType": "bytes32",
							"name": "role",
							"type": "bytes32"
						},
						{
							"internalType": "uint256",
							"name": "index",
							"type": "uint256"
						}
					],
					"name": "getRoleMember",
					"outputs": [
						{
							"internalType": "address",
							"name": "",
							"type": "address"
						}
					],
					"stateMutability": "view",
					"type": "function"
				},
				{
					"inputs": [
						{
							"internalType": "bytes32",
							"name": "role",
							"type": "bytes32"
						}
					],
					"name": "getRoleMemberCount",
					"outputs": [
						{
							"internalType": "uint256",
							"name": "",
							"type": "uint256"
						}
					],
					"stateMutability": "view",
					"type": "function"
				},
				{
					"inputs": [
						{
							"internalType": "bytes32",
							"name": "role",
							"type": "bytes32"
						},
						{
							"internalType": "address",
							"name": "account",
							"type": "address"
						}
					],
					"name": "grantRole",
					"outputs": [],
					"stateMutability": "nonpayable",
					"type": "function"
				},
				{
					"inputs": [
						{
							"internalType": "bytes32",
							"name": "role",
							"type": "bytes32"
						},
						{
							"internalType": "address",
							"name": "account",
							"type": "address"
						}
					],
					"name": "hasRole",
					"outputs": [
						{
							"internalType": "bool",
							"name": "",
							"type": "bool"
						}
					],
					"stateMutability": "view",
					"type": "function"
				},
				{
					"inputs": [],
					"name": "initialize",
					"outputs": [],
					"stateMutability": "nonpayable",
					"type": "function"
				},
				{
					"inputs": [],
					"name": "migrateTo_f73df27",
					"outputs": [],
					"stateMutability": "nonpayable",
					"type": "function"
				},
				{
					"inputs": [
						{
							"internalType": "bytes32",
							"name": "role",
							"type": "bytes32"
						},
						{
							"internalType": "address",
							"name": "account",
							"type": "address"
						}
					],
					"name": "renounceRole",
					"outputs": [],
					"stateMutability": "nonpayable",
					"type": "function"
				},
				{
					"inputs": [
						{
							"internalType": "bytes32",
							"name": "role",
							"type": "bytes32"
						},
						{
							"internalType": "address",
							"name": "account",
							"type": "address"
						}
					],
					"name": "revokeRole",
					"outputs": [],
					"stateMutability": "nonpayable",
					"type": "function"
				},
				{
					"inputs": [
						{
							"internalType": "address",
							"name": "user",
							"type": "address"
						},
						{
							"internalType": "uint256",
							"name": "bit",
							"type": "uint256"
						}
					],
					"name": "setBit",
					"outputs": [],
					"stateMutability": "nonpayable",
					"type": "function"
				},
				{
					"inputs": [
						{
							"internalType": "uint256",
							"name": "_usdCents",
							"type": "uint256"
						}
					],
					"name": "setFirstCharacterPromoInGameOnlyFundsGivenInUsdAsCents",
					"outputs": [],
					"stateMutability": "nonpayable",
					"type": "function"
				},
				{
					"inputs": [
						{
							"internalType": "uint256",
							"name": "_numerator",
							"type": "uint256"
						},
						{
							"internalType": "uint256",
							"name": "_denominator",
							"type": "uint256"
						}
					],
					"name": "setFirstCharacterPromoInGameOnlyFundsGivenInUsdAsRational",
					"outputs": [],
					"stateMutability": "nonpayable",
					"type": "function"
				},
				{
					"inputs": [
						{
							"internalType": "address",
							"name": "user",
							"type": "address"
						},
						{
							"internalType": "uint256",
							"name": "bit",
							"type": "uint256"
						}
					],
					"name": "unsetBit",
					"outputs": [],
					"stateMutability": "nonpayable",
					"type": "function"
				}
			],
			"devdoc": {
				"kind": "dev",
				"methods": {
					"getRoleAdmin(bytes32)": {
						"details": "Returns the admin role that controls `role`. See {grantRole} and {revokeRole}. To change a role's admin, use {_setRoleAdmin}."
					},
					"getRoleMember(bytes32,uint256)": {
						"details": "Returns one of the accounts that have `role`. `index` must be a value between 0 and {getRoleMemberCount}, non-inclusive. Role bearers are not sorted in any particular way, and their ordering may change at any point. WARNING: When using {getRoleMember} and {getRoleMemberCount}, make sure you perform all queries on the same block. See the following https://forum.openzeppelin.com/t/iterating-over-elements-on-enumerableset-in-openzeppelin-contracts/2296[forum post] for more information."
					},
					"getRoleMemberCount(bytes32)": {
						"details": "Returns the number of accounts that have `role`. Can be used together with {getRoleMember} to enumerate all bearers of a role."
					},
					"grantRole(bytes32,address)": {
						"details": "Grants `role` to `account`. If `account` had not been already granted `role`, emits a {RoleGranted} event. Requirements: - the caller must have ``role``'s admin role."
					},
					"hasRole(bytes32,address)": {
						"details": "Returns `true` if `account` has been granted `role`."
					},
					"renounceRole(bytes32,address)": {
						"details": "Revokes `role` from the calling account. Roles are often managed via {grantRole} and {revokeRole}: this function's purpose is to provide a mechanism for accounts to lose their privileges if they are compromised (such as when a trusted device is misplaced). If the calling account had been granted `role`, emits a {RoleRevoked} event. Requirements: - the caller must be `account`."
					},
					"revokeRole(bytes32,address)": {
						"details": "Revokes `role` from `account`. If `account` had been granted `role`, emits a {RoleRevoked} event. Requirements: - the caller must have ``role``'s admin role."
					}
				},
				"version": 1
			},
			"evm": {
				"assembly": "    /* \"contracts/Promos.sol\":246:2135  contract Promos is Initializable, AccessControlUpgradeable {... */\n  mstore(0x40, 0x80)\n  callvalue\n  dup1\n  iszero\n  tag_1\n  jumpi\n  0x00\n  dup1\n  revert\ntag_1:\n  pop\n  dataSize(sub_0)\n  dup1\n  dataOffset(sub_0)\n  0x00\n  codecopy\n  0x00\n  return\nstop\n\nsub_0: assembly {\n        /* \"contracts/Promos.sol\":246:2135  contract Promos is Initializable, AccessControlUpgradeable {... */\n      mstore(0x40, 0x80)\n      callvalue\n      dup1\n      iszero\n      tag_1\n      jumpi\n      0x00\n      dup1\n      revert\n    tag_1:\n      pop\n      jumpi(tag_2, lt(calldatasize, 0x04))\n      shr(0xe0, calldataload(0x00))\n      dup1\n      0x5504d3d2\n      gt\n      tag_23\n      jumpi\n      dup1\n      0xa217fddf\n      gt\n      tag_24\n      jumpi\n      dup1\n      0xa217fddf\n      eq\n      tag_18\n      jumpi\n      dup1\n      0xbf2a28cf\n      eq\n      tag_19\n      jumpi\n      dup1\n      0xca15c873\n      eq\n      tag_20\n      jumpi\n      dup1\n      0xd547741f\n      eq\n      tag_21\n      jumpi\n      dup1\n      0xd5db16f9\n      eq\n      tag_22\n      jumpi\n      jump(tag_2)\n    tag_24:\n      dup1\n      0x5504d3d2\n      eq\n      tag_13\n      jumpi\n      dup1\n      0x7dc18a3a\n      eq\n      tag_14\n      jumpi\n      dup1\n      0x8129fc1c\n      eq\n      tag_15\n      jumpi\n      dup1\n      0x9010d07c\n      eq\n      tag_16\n      jumpi\n      dup1\n      0x91d14854\n      eq\n      tag_17\n      jumpi\n      jump(tag_2)\n    tag_23:\n      dup1\n      0x260730e0\n      gt\n      tag_25\n      jumpi\n      dup1\n      0x260730e0\n      eq\n      tag_8\n      jumpi\n      dup1\n      0x2f2ff15d\n      eq\n      tag_9\n      jumpi\n      dup1\n      0x36568abe\n      eq\n      tag_10\n      jumpi\n      dup1\n      0x434d82a3\n      eq\n      tag_11\n      jumpi\n      dup1\n      0x5249fb6d\n      eq\n      tag_12\n      jumpi\n      jump(tag_2)\n    tag_25:\n      dup1\n      0x09cc8d46\n      eq\n      tag_3\n      jumpi\n      dup1\n      0x1976bd47\n      eq\n      tag_4\n      jumpi\n      dup1\n      0x1c4e328b\n      eq\n      tag_5\n      jumpi\n      dup1\n      0x248a9ca3\n      eq\n      tag_6\n      jumpi\n      dup1\n      0x24a9db2a\n      eq\n      tag_7\n      jumpi\n    tag_2:\n      0x00\n      dup1\n      revert\n        /* \"contracts/Promos.sol\":1585:1834  function setFirstCharacterPromoInGameOnlyFundsGivenInUsdAsCents(... */\n    tag_3:\n      tag_26\n      0x04\n      dup1\n      calldatasize\n      sub\n      0x20\n      dup2\n      lt\n      iszero\n      tag_27\n      jumpi\n      0x00\n      dup1\n      revert\n    tag_27:\n      dup2\n      add\n      swap1\n      dup1\n      dup1\n      calldataload\n      swap1\n      0x20\n      add\n      swap1\n      swap3\n      swap2\n      swap1\n      pop\n      pop\n      pop\n      tag_28\n      jump\t// in\n    tag_26:\n      stop\n        /* \"contracts/Promos.sol\":1840:2133  function setFirstCharacterPromoInGameOnlyFundsGivenInUsdAsRational(... */\n    tag_4:\n      tag_29\n      0x04\n      dup1\n      calldatasize\n      sub\n      0x40\n      dup2\n      lt\n      iszero\n      tag_30\n      jumpi\n      0x00\n      dup1\n      revert\n    tag_30:\n      dup2\n      add\n      swap1\n      dup1\n      dup1\n      calldataload\n      swap1\n      0x20\n      add\n      swap1\n      swap3\n      swap2\n      swap1\n      dup1\n      calldataload\n      swap1\n      0x20\n      add\n      swap1\n      swap3\n      swap2\n      swap1\n      pop\n      pop\n      pop\n      tag_31\n      jump\t// in\n    tag_29:\n      stop\n        /* \"contracts/Promos.sol\":554:792  function migrateTo_f73df27() external {... */\n    tag_5:\n      tag_32\n      tag_33\n      jump\t// in\n    tag_32:\n      stop\n        /* \"@openzeppelin/contracts-upgradeable/access/AccessControlUpgradeable.sol\":4652:4764  function getRoleAdmin(bytes32 role) public view returns (bytes32) {... */\n    tag_6:\n      tag_34\n      0x04\n      dup1\n      calldatasize\n      sub\n      0x20\n      dup2\n      lt\n      iszero\n      tag_35\n      jumpi\n      0x00\n      dup1\n      revert\n    tag_35:\n      dup2\n      add\n      swap1\n      dup1\n      dup1\n      calldataload\n      swap1\n      0x20\n      add\n      swap1\n      swap3\n      swap2\n      swap1\n      pop\n      pop\n      pop\n      tag_36\n      jump\t// in\n    tag_34:\n      mload(0x40)\n      dup1\n      dup3\n      dup2\n      mstore\n      0x20\n      add\n      swap2\n      pop\n      pop\n      mload(0x40)\n      dup1\n      swap2\n      sub\n      swap1\n      return\n        /* \"contracts/Promos.sol\":1406:1579  function firstCharacterPromoInGameOnlyFundsGivenInUsdAsCents() external view returns (uint256) {... */\n    tag_7:\n      tag_37\n      tag_38\n      jump\t// in\n    tag_37:\n      mload(0x40)\n      dup1\n      dup3\n      dup2\n      mstore\n      0x20\n      add\n      swap2\n      pop\n      pop\n      mload(0x40)\n      dup1\n      swap2\n      sub\n      swap1\n      return\n        /* \"contracts/Promos.sol\":1076:1171  function setBit(address user, uint256 bit) public restricted {... */\n    tag_8:\n      tag_39\n      0x04\n      dup1\n      calldatasize\n      sub\n      0x40\n      dup2\n      lt\n      iszero\n      tag_40\n      jumpi\n      0x00\n      dup1\n      revert\n    tag_40:\n      dup2\n      add\n      swap1\n      dup1\n      dup1\n      calldataload\n      0xffffffffffffffffffffffffffffffffffffffff\n      and\n      swap1\n      0x20\n      add\n      swap1\n      swap3\n      swap2\n      swap1\n      dup1\n      calldataload\n      swap1\n      0x20\n      add\n      swap1\n      swap3\n      swap2\n      swap1\n      pop\n      pop\n      pop\n      tag_41\n      jump\t// in\n    tag_39:\n      stop\n        /* \"@openzeppelin/contracts-upgradeable/access/AccessControlUpgradeable.sol\":5014:5237  function grantRole(bytes32 role, address account) public virtual {... */\n    tag_9:\n      tag_42\n      0x04\n      dup1\n      calldatasize\n      sub\n      0x40\n      dup2\n      lt\n      iszero\n      tag_43\n      jumpi\n      0x00\n      dup1\n      revert\n    tag_43:\n      dup2\n      add\n      swap1\n      dup1\n      dup1\n      calldataload\n      swap1\n      0x20\n      add\n      swap1\n      swap3\n      swap2\n      swap1\n      dup1\n      calldataload\n      0xffffffffffffffffffffffffffffffffffffffff\n      and\n      swap1\n      0x20\n      add\n      swap1\n      swap3\n      swap2\n      swap1\n      pop\n      pop\n      pop\n      tag_44\n      jump\t// in\n    tag_42:\n      stop\n        /* \"@openzeppelin/contracts-upgradeable/access/AccessControlUpgradeable.sol\":6188:6393  function renounceRole(bytes32 role, address account) public virtual {... */\n    tag_10:\n      tag_45\n      0x04\n      dup1\n      calldatasize\n      sub\n      0x40\n      dup2\n      lt\n      iszero\n      tag_46\n      jumpi\n      0x00\n      dup1\n      revert\n    tag_46:\n      dup2\n      add\n      swap1\n      dup1\n      dup1\n      calldataload\n      swap1\n      0x20\n      add\n      swap1\n      swap3\n      swap2\n      swap1\n      dup1\n      calldataload\n      0xffffffffffffffffffffffffffffffffffffffff\n      and\n      swap1\n      0x20\n      add\n      swap1\n      swap3\n      swap2\n      swap1\n      pop\n      pop\n      pop\n      tag_47\n      jump\t// in\n    tag_45:\n      stop\n        /* \"contracts/Promos.sol\":1281:1400  function getBit(address user, uint256 bit) public view returns (bool) {... */\n    tag_11:\n      tag_48\n      0x04\n      dup1\n      calldatasize\n      sub\n      0x40\n      dup2\n      lt\n      iszero\n      tag_49\n      jumpi\n      0x00\n      dup1\n      revert\n    tag_49:\n      dup2\n      add\n      swap1\n      dup1\n      dup1\n      calldataload\n      0xffffffffffffffffffffffffffffffffffffffff\n      and\n      swap1\n      0x20\n      add\n      swap1\n      swap3\n      swap2\n      swap1\n      dup1\n      calldataload\n      swap1\n      0x20\n      add\n      swap1\n      swap3\n      swap2\n      swap1\n      pop\n      pop\n      pop\n      tag_50\n      jump\t// in\n    tag_48:\n      mload(0x40)\n      dup1\n      dup3\n      iszero\n      iszero\n      dup2\n      mstore\n      0x20\n      add\n      swap2\n      pop\n      pop\n      mload(0x40)\n      dup1\n      swap2\n      sub\n      swap1\n      return\n        /* \"contracts/Promos.sol\":897:955  int128 public firstCharacterPromoInGameOnlyFundsGivenInUsd */\n    tag_12:\n      tag_51\n      tag_52\n      jump\t// in\n    tag_51:\n      mload(0x40)\n      dup1\n      dup3\n      0x0f\n      signextend\n      dup2\n      mstore\n      0x20\n      add\n      swap2\n      pop\n      pop\n      mload(0x40)\n      dup1\n      swap2\n      sub\n      swap1\n      return\n        /* \"contracts/Promos.sol\":348:408  bytes32 public constant GAME_ADMIN = keccak256(\"GAME_ADMIN\") */\n    tag_13:\n      tag_53\n      tag_54\n      jump\t// in\n    tag_53:\n      mload(0x40)\n      dup1\n      dup3\n      dup2\n      mstore\n      0x20\n      add\n      swap2\n      pop\n      pop\n      mload(0x40)\n      dup1\n      swap2\n      sub\n      swap1\n      return\n        /* \"contracts/Promos.sol\":1177:1275  function unsetBit(address user, uint256 bit) public restricted {... */\n    tag_14:\n      tag_55\n      0x04\n      dup1\n      calldatasize\n      sub\n      0x40\n      dup2\n      lt\n      iszero\n      tag_56\n      jumpi\n      0x00\n      dup1\n      revert\n    tag_56:\n      dup2\n      add\n      swap1\n      dup1\n      dup1\n      calldataload\n      0xffffffffffffffffffffffffffffffffffffffff\n      and\n      swap1\n      0x20\n      add\n      swap1\n      swap3\n      swap2\n      swap1\n      dup1\n      calldataload\n      swap1\n      0x20\n      add\n      swap1\n      swap3\n      swap2\n      swap1\n      pop\n      pop\n      pop\n      tag_57\n      jump\t// in\n    tag_55:\n      stop\n        /* \"contracts/Promos.sol\":415:548  function initialize() public initializer {... */\n    tag_15:\n      tag_58\n      tag_59\n      jump\t// in\n    tag_58:\n      stop\n        /* \"@openzeppelin/contracts-upgradeable/access/AccessControlUpgradeable.sol\":4335:4471  function getRoleMember(bytes32 role, uint256 index) public view returns (address) {... */\n    tag_16:\n      tag_60\n      0x04\n      dup1\n      calldatasize\n      sub\n      0x40\n      dup2\n      lt\n      iszero\n      tag_61\n      jumpi\n      0x00\n      dup1\n      revert\n    tag_61:\n      dup2\n      add\n      swap1\n      dup1\n      dup1\n      calldataload\n      swap1\n      0x20\n      add\n      swap1\n      swap3\n      swap2\n      swap1\n      dup1\n      calldataload\n      swap1\n      0x20\n      add\n      swap1\n      swap3\n      swap2\n      swap1\n      pop\n      pop\n      pop\n      tag_62\n      jump\t// in\n    tag_60:\n      mload(0x40)\n      dup1\n      dup3\n      0xffffffffffffffffffffffffffffffffffffffff\n      and\n      dup2\n      mstore\n      0x20\n      add\n      swap2\n      pop\n      pop\n      mload(0x40)\n      dup1\n      swap2\n      sub\n      swap1\n      return\n        /* \"@openzeppelin/contracts-upgradeable/access/AccessControlUpgradeable.sol\":3320:3457  function hasRole(bytes32 role, address account) public view returns (bool) {... */\n    tag_17:\n      tag_63\n      0x04\n      dup1\n      calldatasize\n      sub\n      0x40\n      dup2\n      lt\n      iszero\n      tag_64\n      jumpi\n      0x00\n      dup1\n      revert\n    tag_64:\n      dup2\n      add\n      swap1\n      dup1\n      dup1\n      calldataload\n      swap1\n      0x20\n      add\n      swap1\n      swap3\n      swap2\n      swap1\n      dup1\n      calldataload\n      0xffffffffffffffffffffffffffffffffffffffff\n      and\n      swap1\n      0x20\n      add\n      swap1\n      swap3\n      swap2\n      swap1\n      pop\n      pop\n      pop\n      tag_65\n      jump\t// in\n    tag_63:\n      mload(0x40)\n      dup1\n      dup3\n      iszero\n      iszero\n      dup2\n      mstore\n      0x20\n      add\n      swap2\n      pop\n      pop\n      mload(0x40)\n      dup1\n      swap2\n      sub\n      swap1\n      return\n        /* \"@openzeppelin/contracts-upgradeable/access/AccessControlUpgradeable.sol\":2097:2146  bytes32 public constant DEFAULT_ADMIN_ROLE = 0x00 */\n    tag_18:\n      tag_66\n      tag_67\n      jump\t// in\n    tag_66:\n      mload(0x40)\n      dup1\n      dup3\n      dup2\n      mstore\n      0x20\n      add\n      swap2\n      pop\n      pop\n      mload(0x40)\n      dup1\n      swap2\n      sub\n      swap1\n      return\n        /* \"contracts/Promos.sol\":843:890  uint256 public constant BIT_FIRST_CHARACTER = 1 */\n    tag_19:\n      tag_68\n      tag_69\n      jump\t// in\n    tag_68:\n      mload(0x40)\n      dup1\n      dup3\n      dup2\n      mstore\n      0x20\n      add\n      swap2\n      pop\n      pop\n      mload(0x40)\n      dup1\n      swap2\n      sub\n      swap1\n      return\n        /* \"@openzeppelin/contracts-upgradeable/access/AccessControlUpgradeable.sol\":3625:3750  function getRoleMemberCount(bytes32 role) public view returns (uint256) {... */\n    tag_20:\n      tag_70\n      0x04\n      dup1\n      calldatasize\n      sub\n      0x20\n      dup2\n      lt\n      iszero\n      tag_71\n      jumpi\n      0x00\n      dup1\n      revert\n    tag_71:\n      dup2\n      add\n      swap1\n      dup1\n      dup1\n      calldataload\n      swap1\n      0x20\n      add\n      swap1\n      swap3\n      swap2\n      swap1\n      pop\n      pop\n      pop\n      tag_72\n      jump\t// in\n    tag_70:\n      mload(0x40)\n      dup1\n      dup3\n      dup2\n      mstore\n      0x20\n      add\n      swap2\n      pop\n      pop\n      mload(0x40)\n      dup1\n      swap2\n      sub\n      swap1\n      return\n        /* \"@openzeppelin/contracts-upgradeable/access/AccessControlUpgradeable.sol\":5471:5697  function revokeRole(bytes32 role, address account) public virtual {... */\n    tag_21:\n      tag_73\n      0x04\n      dup1\n      calldatasize\n      sub\n      0x40\n      dup2\n      lt\n      iszero\n      tag_74\n      jumpi\n      0x00\n      dup1\n      revert\n    tag_74:\n      dup2\n      add\n      swap1\n      dup1\n      dup1\n      calldataload\n      swap1\n      0x20\n      add\n      swap1\n      swap3\n      swap2\n      swap1\n      dup1\n      calldataload\n      0xffffffffffffffffffffffffffffffffffffffff\n      and\n      swap1\n      0x20\n      add\n      swap1\n      swap3\n      swap2\n      swap1\n      pop\n      pop\n      pop\n      tag_75\n      jump\t// in\n    tag_73:\n      stop\n        /* \"contracts/Promos.sol\":798:837  mapping(address => uint256) public bits */\n    tag_22:\n      tag_76\n      0x04\n      dup1\n      calldatasize\n      sub\n      0x20\n      dup2\n      lt\n      iszero\n      tag_77\n      jumpi\n      0x00\n      dup1\n      revert\n    tag_77:\n      dup2\n      add\n      swap1\n      dup1\n      dup1\n      calldataload\n      0xffffffffffffffffffffffffffffffffffffffff\n      and\n      swap1\n      0x20\n      add\n      swap1\n      swap3\n      swap2\n      swap1\n      pop\n      pop\n      pop\n      tag_78\n      jump\t// in\n    tag_76:\n      mload(0x40)\n      dup1\n      dup3\n      dup2\n      mstore\n      0x20\n      add\n      swap2\n      pop\n      pop\n      mload(0x40)\n      dup1\n      swap2\n      sub\n      swap1\n      return\n        /* \"contracts/Promos.sol\":1585:1834  function setFirstCharacterPromoInGameOnlyFundsGivenInUsdAsCents(... */\n    tag_28:\n        /* \"contracts/Promos.sol\":1002:1033  hasRole(GAME_ADMIN, msg.sender) */\n      tag_80\n        /* \"contracts/Promos.sol\":385:408  keccak256(\"GAME_ADMIN\") */\n      0x745191d59a0c5ecaf2331ad3570e4033c5b04de0434263ec14a70fce5475ab7f\n        /* \"contracts/Promos.sol\":1022:1032  msg.sender */\n      caller\n        /* \"contracts/Promos.sol\":1002:1009  hasRole */\n      tag_65\n        /* \"contracts/Promos.sol\":1002:1033  hasRole(GAME_ADMIN, msg.sender) */\n      jump\t// in\n    tag_80:\n        /* \"contracts/Promos.sol\":994:1052  require(hasRole(GAME_ADMIN, msg.sender), \"Not game admin\") */\n      tag_81\n      jumpi\n      mload(0x40)\n      0x08c379a000000000000000000000000000000000000000000000000000000000\n      dup2\n      mstore\n      0x04\n      add\n      dup1\n      dup1\n      0x20\n      add\n      dup3\n      dup2\n      sub\n      dup3\n      mstore\n      0x0e\n      dup2\n      mstore\n      0x20\n      add\n      dup1\n      0x4e6f742067616d652061646d696e000000000000000000000000000000000000\n      dup2\n      mstore\n      pop\n      0x20\n      add\n      swap2\n      pop\n      pop\n      mload(0x40)\n      dup1\n      swap2\n      sub\n      swap1\n      revert\n    tag_81:\n        /* \"contracts/Promos.sol\":1759:1827  ABDKMath64x64.divu(... */\n      tag_83\n        /* \"contracts/Promos.sol\":1791:1800  _usdCents */\n      dup2\n        /* \"contracts/Promos.sol\":1814:1817  100 */\n      0x64\n        /* \"contracts/Promos.sol\":1759:1777  ABDKMath64x64.divu */\n      tag_84\n        /* \"contracts/Promos.sol\":1759:1827  ABDKMath64x64.divu(... */\n      jump\t// in\n    tag_83:\n        /* \"contracts/Promos.sol\":1712:1756  firstCharacterPromoInGameOnlyFundsGivenInUsd */\n      0x66\n      0x00\n        /* \"contracts/Promos.sol\":1712:1827  firstCharacterPromoInGameOnlyFundsGivenInUsd = ABDKMath64x64.divu(... */\n      0x0100\n      exp\n      dup2\n      sload\n      dup2\n      0xffffffffffffffffffffffffffffffff\n      mul\n      not\n      and\n      swap1\n      dup4\n      0x0f\n      signextend\n      0xffffffffffffffffffffffffffffffff\n      and\n      mul\n      or\n      swap1\n      sstore\n      pop\n        /* \"contracts/Promos.sol\":1585:1834  function setFirstCharacterPromoInGameOnlyFundsGivenInUsdAsCents(... */\n      pop\n      jump\t// out\n        /* \"contracts/Promos.sol\":1840:2133  function setFirstCharacterPromoInGameOnlyFundsGivenInUsdAsRational(... */\n    tag_31:\n        /* \"contracts/Promos.sol\":1002:1033  hasRole(GAME_ADMIN, msg.sender) */\n      tag_86\n        /* \"contracts/Promos.sol\":385:408  keccak256(\"GAME_ADMIN\") */\n      0x745191d59a0c5ecaf2331ad3570e4033c5b04de0434263ec14a70fce5475ab7f\n        /* \"contracts/Promos.sol\":1022:1032  msg.sender */\n      caller\n        /* \"contracts/Promos.sol\":1002:1009  hasRole */\n      tag_65\n        /* \"contracts/Promos.sol\":1002:1033  hasRole(GAME_ADMIN, msg.sender) */\n      jump\t// in\n    tag_86:\n        /* \"contracts/Promos.sol\":994:1052  require(hasRole(GAME_ADMIN, msg.sender), \"Not game admin\") */\n      tag_87\n      jumpi\n      mload(0x40)\n      0x08c379a000000000000000000000000000000000000000000000000000000000\n      dup2\n      mstore\n      0x04\n      add\n      dup1\n      dup1\n      0x20\n      add\n      dup3\n      dup2\n      sub\n      dup3\n      mstore\n      0x0e\n      dup2\n      mstore\n      0x20\n      add\n      dup1\n      0x4e6f742067616d652061646d696e000000000000000000000000000000000000\n      dup2\n      mstore\n      pop\n      0x20\n      add\n      swap2\n      pop\n      pop\n      mload(0x40)\n      dup1\n      swap2\n      sub\n      swap1\n      revert\n    tag_87:\n        /* \"contracts/Promos.sol\":2048:2126  ABDKMath64x64.divu(... */\n      tag_89\n        /* \"contracts/Promos.sol\":2080:2090  _numerator */\n      dup3\n        /* \"contracts/Promos.sol\":2104:2116  _denominator */\n      dup3\n        /* \"contracts/Promos.sol\":2048:2066  ABDKMath64x64.divu */\n      tag_84\n        /* \"contracts/Promos.sol\":2048:2126  ABDKMath64x64.divu(... */\n      jump\t// in\n    tag_89:\n        /* \"contracts/Promos.sol\":2001:2045  firstCharacterPromoInGameOnlyFundsGivenInUsd */\n      0x66\n      0x00\n        /* \"contracts/Promos.sol\":2001:2126  firstCharacterPromoInGameOnlyFundsGivenInUsd = ABDKMath64x64.divu(... */\n      0x0100\n      exp\n      dup2\n      sload\n      dup2\n      0xffffffffffffffffffffffffffffffff\n      mul\n      not\n      and\n      swap1\n      dup4\n      0x0f\n      signextend\n      0xffffffffffffffffffffffffffffffff\n      and\n      mul\n      or\n      swap1\n      sstore\n      pop\n        /* \"contracts/Promos.sol\":1840:2133  function setFirstCharacterPromoInGameOnlyFundsGivenInUsdAsRational(... */\n      pop\n      pop\n      jump\t// out\n        /* \"contracts/Promos.sol\":554:792  function migrateTo_f73df27() external {... */\n    tag_33:\n        /* \"contracts/Promos.sol\":610:649  hasRole(DEFAULT_ADMIN_ROLE, msg.sender) */\n      tag_91\n        /* \"@openzeppelin/contracts-upgradeable/access/AccessControlUpgradeable.sol\":2142:2146  0x00 */\n      0x00\n        /* \"contracts/Promos.sol\":618:636  DEFAULT_ADMIN_ROLE */\n      dup1\n      shl\n        /* \"contracts/Promos.sol\":638:648  msg.sender */\n      caller\n        /* \"contracts/Promos.sol\":610:617  hasRole */\n      tag_65\n        /* \"contracts/Promos.sol\":610:649  hasRole(DEFAULT_ADMIN_ROLE, msg.sender) */\n      jump\t// in\n    tag_91:\n        /* \"contracts/Promos.sol\":602:663  require(hasRole(DEFAULT_ADMIN_ROLE, msg.sender), \"Not admin\") */\n      tag_92\n      jumpi\n      mload(0x40)\n      0x08c379a000000000000000000000000000000000000000000000000000000000\n      dup2\n      mstore\n      0x04\n      add\n      dup1\n      dup1\n      0x20\n      add\n      dup3\n      dup2\n      sub\n      dup3\n      mstore\n      0x09\n      dup2\n      mstore\n      0x20\n      add\n      dup1\n      0x4e6f742061646d696e0000000000000000000000000000000000000000000000\n      dup2\n      mstore\n      pop\n      0x20\n      add\n      swap2\n      pop\n      pop\n      mload(0x40)\n      dup1\n      swap2\n      sub\n      swap1\n      revert\n    tag_92:\n        /* \"contracts/Promos.sol\":721:785  ABDKMath64x64.divu(... */\n      tag_93\n        /* \"contracts/Promos.sol\":753:758  17220 */\n      0x4344\n        /* \"contracts/Promos.sol\":772:775  100 */\n      0x64\n        /* \"contracts/Promos.sol\":721:739  ABDKMath64x64.divu */\n      tag_84\n        /* \"contracts/Promos.sol\":721:785  ABDKMath64x64.divu(... */\n      jump\t// in\n    tag_93:\n        /* \"contracts/Promos.sol\":674:718  firstCharacterPromoInGameOnlyFundsGivenInUsd */\n      0x66\n      0x00\n        /* \"contracts/Promos.sol\":674:785  firstCharacterPromoInGameOnlyFundsGivenInUsd = ABDKMath64x64.divu(... */\n      0x0100\n      exp\n      dup2\n      sload\n      dup2\n      0xffffffffffffffffffffffffffffffff\n      mul\n      not\n      and\n      swap1\n      dup4\n      0x0f\n      signextend\n      0xffffffffffffffffffffffffffffffff\n      and\n      mul\n      or\n      swap1\n      sstore\n      pop\n        /* \"contracts/Promos.sol\":554:792  function migrateTo_f73df27() external {... */\n      jump\t// out\n        /* \"@openzeppelin/contracts-upgradeable/access/AccessControlUpgradeable.sol\":4652:4764  function getRoleAdmin(bytes32 role) public view returns (bytes32) {... */\n    tag_36:\n        /* \"@openzeppelin/contracts-upgradeable/access/AccessControlUpgradeable.sol\":4709:4716  bytes32 */\n      0x00\n        /* \"@openzeppelin/contracts-upgradeable/access/AccessControlUpgradeable.sol\":4735:4741  _roles */\n      0x33\n        /* \"@openzeppelin/contracts-upgradeable/access/AccessControlUpgradeable.sol\":4735:4747  _roles[role] */\n      0x00\n        /* \"@openzeppelin/contracts-upgradeable/access/AccessControlUpgradeable.sol\":4742:4746  role */\n      dup4\n        /* \"@openzeppelin/contracts-upgradeable/access/AccessControlUpgradeable.sol\":4735:4747  _roles[role] */\n      dup2\n      mstore\n      0x20\n      add\n      swap1\n      dup2\n      mstore\n      0x20\n      add\n      0x00\n      keccak256\n        /* \"@openzeppelin/contracts-upgradeable/access/AccessControlUpgradeable.sol\":4735:4757  _roles[role].adminRole */\n      0x02\n      add\n      sload\n        /* \"@openzeppelin/contracts-upgradeable/access/AccessControlUpgradeable.sol\":4728:4757  return _roles[role].adminRole */\n      swap1\n      pop\n        /* \"@openzeppelin/contracts-upgradeable/access/AccessControlUpgradeable.sol\":4652:4764  function getRoleAdmin(bytes32 role) public view returns (bytes32) {... */\n      swap2\n      swap1\n      pop\n      jump\t// out\n        /* \"contracts/Promos.sol\":1406:1579  function firstCharacterPromoInGameOnlyFundsGivenInUsdAsCents() external view returns (uint256) {... */\n    tag_38:\n        /* \"contracts/Promos.sol\":1492:1499  uint256 */\n      0x00\n        /* \"contracts/Promos.sol\":1518:1572  firstCharacterPromoInGameOnlyFundsGivenInUsd.mulu(100) */\n      tag_96\n        /* \"contracts/Promos.sol\":1568:1571  100 */\n      0x64\n        /* \"contracts/Promos.sol\":1518:1562  firstCharacterPromoInGameOnlyFundsGivenInUsd */\n      0x66\n      0x00\n      swap1\n      sload\n      swap1\n      0x0100\n      exp\n      swap1\n      div\n      0x0f\n      signextend\n        /* \"contracts/Promos.sol\":1518:1567  firstCharacterPromoInGameOnlyFundsGivenInUsd.mulu */\n      0x0f\n      signextend\n      tag_97\n      swap1\n        /* \"contracts/Promos.sol\":1518:1572  firstCharacterPromoInGameOnlyFundsGivenInUsd.mulu(100) */\n      swap2\n      swap1\n      0xffffffff\n      and\n      jump\t// in\n    tag_96:\n        /* \"contracts/Promos.sol\":1511:1572  return firstCharacterPromoInGameOnlyFundsGivenInUsd.mulu(100) */\n      swap1\n      pop\n        /* \"contracts/Promos.sol\":1406:1579  function firstCharacterPromoInGameOnlyFundsGivenInUsdAsCents() external view returns (uint256) {... */\n      swap1\n      jump\t// out\n        /* \"contracts/Promos.sol\":1076:1171  function setBit(address user, uint256 bit) public restricted {... */\n    tag_41:\n        /* \"contracts/Promos.sol\":1002:1033  hasRole(GAME_ADMIN, msg.sender) */\n      tag_99\n        /* \"contracts/Promos.sol\":385:408  keccak256(\"GAME_ADMIN\") */\n      0x745191d59a0c5ecaf2331ad3570e4033c5b04de0434263ec14a70fce5475ab7f\n        /* \"contracts/Promos.sol\":1022:1032  msg.sender */\n      caller\n        /* \"contracts/Promos.sol\":1002:1009  hasRole */\n      tag_65\n        /* \"contracts/Promos.sol\":1002:1033  hasRole(GAME_ADMIN, msg.sender) */\n      jump\t// in\n    tag_99:\n        /* \"contracts/Promos.sol\":994:1052  require(hasRole(GAME_ADMIN, msg.sender), \"Not game admin\") */\n      tag_100\n      jumpi\n      mload(0x40)\n      0x08c379a000000000000000000000000000000000000000000000000000000000\n      dup2\n      mstore\n      0x04\n      add\n      dup1\n      dup1\n      0x20\n      add\n      dup3\n      dup2\n      sub\n      dup3\n      mstore\n      0x0e\n      dup2\n      mstore\n      0x20\n      add\n      dup1\n      0x4e6f742067616d652061646d696e000000000000000000000000000000000000\n      dup2\n      mstore\n      pop\n      0x20\n      add\n      swap2\n      pop\n      pop\n      mload(0x40)\n      dup1\n      swap2\n      sub\n      swap1\n      revert\n    tag_100:\n        /* \"contracts/Promos.sol\":1161:1164  bit */\n      dup1\n        /* \"contracts/Promos.sol\":1147:1151  bits */\n      0x65\n        /* \"contracts/Promos.sol\":1147:1157  bits[user] */\n      0x00\n        /* \"contracts/Promos.sol\":1152:1156  user */\n      dup5\n        /* \"contracts/Promos.sol\":1147:1157  bits[user] */\n      0xffffffffffffffffffffffffffffffffffffffff\n      and\n      0xffffffffffffffffffffffffffffffffffffffff\n      and\n      dup2\n      mstore\n      0x20\n      add\n      swap1\n      dup2\n      mstore\n      0x20\n      add\n      0x00\n      keccak256\n      0x00\n        /* \"contracts/Promos.sol\":1147:1164  bits[user] |= bit */\n      dup3\n      dup3\n      sload\n      or\n      swap3\n      pop\n      pop\n      dup2\n      swap1\n      sstore\n      pop\n        /* \"contracts/Promos.sol\":1076:1171  function setBit(address user, uint256 bit) public restricted {... */\n      pop\n      pop\n      jump\t// out\n        /* \"@openzeppelin/contracts-upgradeable/access/AccessControlUpgradeable.sol\":5014:5237  function grantRole(bytes32 role, address account) public virtual {... */\n    tag_44:\n        /* \"@openzeppelin/contracts-upgradeable/access/AccessControlUpgradeable.sol\":5097:5142  hasRole(_roles[role].adminRole, _msgSender()) */\n      tag_103\n        /* \"@openzeppelin/contracts-upgradeable/access/AccessControlUpgradeable.sol\":5105:5111  _roles */\n      0x33\n        /* \"@openzeppelin/contracts-upgradeable/access/AccessControlUpgradeable.sol\":5105:5117  _roles[role] */\n      0x00\n        /* \"@openzeppelin/contracts-upgradeable/access/AccessControlUpgradeable.sol\":5112:5116  role */\n      dup5\n        /* \"@openzeppelin/contracts-upgradeable/access/AccessControlUpgradeable.sol\":5105:5117  _roles[role] */\n      dup2\n      mstore\n      0x20\n      add\n      swap1\n      dup2\n      mstore\n      0x20\n      add\n      0x00\n      keccak256\n        /* \"@openzeppelin/contracts-upgradeable/access/AccessControlUpgradeable.sol\":5105:5127  _roles[role].adminRole */\n      0x02\n      add\n      sload\n        /* \"@openzeppelin/contracts-upgradeable/access/AccessControlUpgradeable.sol\":5129:5141  _msgSender() */\n      tag_104\n        /* \"@openzeppelin/contracts-upgradeable/access/AccessControlUpgradeable.sol\":5129:5139  _msgSender */\n      tag_105\n        /* \"@openzeppelin/contracts-upgradeable/access/AccessControlUpgradeable.sol\":5129:5141  _msgSender() */\n      jump\t// in\n    tag_104:\n        /* \"@openzeppelin/contracts-upgradeable/access/AccessControlUpgradeable.sol\":5097:5104  hasRole */\n      tag_65\n        /* \"@openzeppelin/contracts-upgradeable/access/AccessControlUpgradeable.sol\":5097:5142  hasRole(_roles[role].adminRole, _msgSender()) */\n      jump\t// in\n    tag_103:\n        /* \"@openzeppelin/contracts-upgradeable/access/AccessControlUpgradeable.sol\":5089:5194  require(hasRole(_roles[role].adminRole, _msgSender()), \"AccessControl: sender must be an admin to grant\") */\n      tag_106\n      jumpi\n      mload(0x40)\n      0x08c379a000000000000000000000000000000000000000000000000000000000\n      dup2\n      mstore\n      0x04\n      add\n      dup1\n      dup1\n      0x20\n      add\n      dup3\n      dup2\n      sub\n      dup3\n      mstore\n      0x2f\n      dup2\n      mstore\n      0x20\n      add\n      dup1\n      data_0ba7116025f1ef6b158a2bd2238e617f30e17c9e456917d901086ca4f8ad2811\n      0x2f\n      swap2\n      codecopy\n      0x40\n      add\n      swap2\n      pop\n      pop\n      mload(0x40)\n      dup1\n      swap2\n      sub\n      swap1\n      revert\n    tag_106:\n        /* \"@openzeppelin/contracts-upgradeable/access/AccessControlUpgradeable.sol\":5205:5230  _grantRole(role, account) */\n      tag_107\n        /* \"@openzeppelin/contracts-upgradeable/access/AccessControlUpgradeable.sol\":5216:5220  role */\n      dup3\n        /* \"@openzeppelin/contracts-upgradeable/access/AccessControlUpgradeable.sol\":5222:5229  account */\n      dup3\n        /* \"@openzeppelin/contracts-upgradeable/access/AccessControlUpgradeable.sol\":5205:5215  _grantRole */\n      tag_108\n        /* \"@openzeppelin/contracts-upgradeable/access/AccessControlUpgradeable.sol\":5205:5230  _grantRole(role, account) */\n      jump\t// in\n    tag_107:\n        /* \"@openzeppelin/contracts-upgradeable/access/AccessControlUpgradeable.sol\":5014:5237  function grantRole(bytes32 role, address account) public virtual {... */\n      pop\n      pop\n      jump\t// out\n        /* \"@openzeppelin/contracts-upgradeable/access/AccessControlUpgradeable.sol\":6188:6393  function renounceRole(bytes32 role, address account) public virtual {... */\n    tag_47:\n        /* \"@openzeppelin/contracts-upgradeable/access/AccessControlUpgradeable.sol\":6285:6297  _msgSender() */\n      tag_110\n        /* \"@openzeppelin/contracts-upgradeable/access/AccessControlUpgradeable.sol\":6285:6295  _msgSender */\n      tag_105\n        /* \"@openzeppelin/contracts-upgradeable/access/AccessControlUpgradeable.sol\":6285:6297  _msgSender() */\n      jump\t// in\n    tag_110:\n        /* \"@openzeppelin/contracts-upgradeable/access/AccessControlUpgradeable.sol\":6274:6297  account == _msgSender() */\n      0xffffffffffffffffffffffffffffffffffffffff\n      and\n        /* \"@openzeppelin/contracts-upgradeable/access/AccessControlUpgradeable.sol\":6274:6281  account */\n      dup2\n        /* \"@openzeppelin/contracts-upgradeable/access/AccessControlUpgradeable.sol\":6274:6297  account == _msgSender() */\n      0xffffffffffffffffffffffffffffffffffffffff\n      and\n      eq\n        /* \"@openzeppelin/contracts-upgradeable/access/AccessControlUpgradeable.sol\":6266:6349  require(account == _msgSender(), \"AccessControl: can only renounce roles for self\") */\n      tag_111\n      jumpi\n      mload(0x40)\n      0x08c379a000000000000000000000000000000000000000000000000000000000\n      dup2\n      mstore\n      0x04\n      add\n      dup1\n      dup1\n      0x20\n      add\n      dup3\n      dup2\n      sub\n      dup3\n      mstore\n      0x2f\n      dup2\n      mstore\n      0x20\n      add\n      dup1\n      data_fb06fa8ff2141e8ed74502f6792273793f25f0e9d3cf15344f3f5a0d4948fd4b\n      0x2f\n      swap2\n      codecopy\n      0x40\n      add\n      swap2\n      pop\n      pop\n      mload(0x40)\n      dup1\n      swap2\n      sub\n      swap1\n      revert\n    tag_111:\n        /* \"@openzeppelin/contracts-upgradeable/access/AccessControlUpgradeable.sol\":6360:6386  _revokeRole(role, account) */\n      tag_112\n        /* \"@openzeppelin/contracts-upgradeable/access/AccessControlUpgradeable.sol\":6372:6376  role */\n      dup3\n        /* \"@openzeppelin/contracts-upgradeable/access/AccessControlUpgradeable.sol\":6378:6385  account */\n      dup3\n        /* \"@openzeppelin/contracts-upgradeable/access/AccessControlUpgradeable.sol\":6360:6371  _revokeRole */\n      tag_113\n        /* \"@openzeppelin/contracts-upgradeable/access/AccessControlUpgradeable.sol\":6360:6386  _revokeRole(role, account) */\n      jump\t// in\n    tag_112:\n        /* \"@openzeppelin/contracts-upgradeable/access/AccessControlUpgradeable.sol\":6188:6393  function renounceRole(bytes32 role, address account) public virtual {... */\n      pop\n      pop\n      jump\t// out\n        /* \"contracts/Promos.sol\":1281:1400  function getBit(address user, uint256 bit) public view returns (bool) {... */\n    tag_50:\n        /* \"contracts/Promos.sol\":1345:1349  bool */\n      0x00\n        /* \"contracts/Promos.sol\":1390:1393  bit */\n      dup2\n        /* \"contracts/Promos.sol\":1382:1385  bit */\n      dup3\n        /* \"contracts/Promos.sol\":1369:1373  bits */\n      0x65\n        /* \"contracts/Promos.sol\":1369:1379  bits[user] */\n      0x00\n        /* \"contracts/Promos.sol\":1374:1378  user */\n      dup7\n        /* \"contracts/Promos.sol\":1369:1379  bits[user] */\n      0xffffffffffffffffffffffffffffffffffffffff\n      and\n      0xffffffffffffffffffffffffffffffffffffffff\n      and\n      dup2\n      mstore\n      0x20\n      add\n      swap1\n      dup2\n      mstore\n      0x20\n      add\n      0x00\n      keccak256\n      sload\n        /* \"contracts/Promos.sol\":1369:1385  bits[user] & bit */\n      and\n        /* \"contracts/Promos.sol\":1368:1393  (bits[user] & bit) == bit */\n      eq\n        /* \"contracts/Promos.sol\":1361:1393  return (bits[user] & bit) == bit */\n      swap1\n      pop\n        /* \"contracts/Promos.sol\":1281:1400  function getBit(address user, uint256 bit) public view returns (bool) {... */\n      swap3\n      swap2\n      pop\n      pop\n      jump\t// out\n        /* \"contracts/Promos.sol\":897:955  int128 public firstCharacterPromoInGameOnlyFundsGivenInUsd */\n    tag_52:\n      0x66\n      0x00\n      swap1\n      sload\n      swap1\n      0x0100\n      exp\n      swap1\n      div\n      0x0f\n      signextend\n      dup2\n      jump\t// out\n        /* \"contracts/Promos.sol\":348:408  bytes32 public constant GAME_ADMIN = keccak256(\"GAME_ADMIN\") */\n    tag_54:\n        /* \"contracts/Promos.sol\":385:408  keccak256(\"GAME_ADMIN\") */\n      0x745191d59a0c5ecaf2331ad3570e4033c5b04de0434263ec14a70fce5475ab7f\n        /* \"contracts/Promos.sol\":348:408  bytes32 public constant GAME_ADMIN = keccak256(\"GAME_ADMIN\") */\n      dup2\n      jump\t// out\n        /* \"contracts/Promos.sol\":1177:1275  function unsetBit(address user, uint256 bit) public restricted {... */\n    tag_57:\n        /* \"contracts/Promos.sol\":1002:1033  hasRole(GAME_ADMIN, msg.sender) */\n      tag_116\n        /* \"contracts/Promos.sol\":385:408  keccak256(\"GAME_ADMIN\") */\n      0x745191d59a0c5ecaf2331ad3570e4033c5b04de0434263ec14a70fce5475ab7f\n        /* \"contracts/Promos.sol\":1022:1032  msg.sender */\n      caller\n        /* \"contracts/Promos.sol\":1002:1009  hasRole */\n      tag_65\n        /* \"contracts/Promos.sol\":1002:1033  hasRole(GAME_ADMIN, msg.sender) */\n      jump\t// in\n    tag_116:\n        /* \"contracts/Promos.sol\":994:1052  require(hasRole(GAME_ADMIN, msg.sender), \"Not game admin\") */\n      tag_117\n      jumpi\n      mload(0x40)\n      0x08c379a000000000000000000000000000000000000000000000000000000000\n      dup2\n      mstore\n      0x04\n      add\n      dup1\n      dup1\n      0x20\n      add\n      dup3\n      dup2\n      sub\n      dup3\n      mstore\n      0x0e\n      dup2\n      mstore\n      0x20\n      add\n      dup1\n      0x4e6f742067616d652061646d696e000000000000000000000000000000000000\n      dup2\n      mstore\n      pop\n      0x20\n      add\n      swap2\n      pop\n      pop\n      mload(0x40)\n      dup1\n      swap2\n      sub\n      swap1\n      revert\n    tag_117:\n        /* \"contracts/Promos.sol\":1265:1268  bit */\n      dup1\n        /* \"contracts/Promos.sol\":1264:1268  ~bit */\n      not\n        /* \"contracts/Promos.sol\":1250:1254  bits */\n      0x65\n        /* \"contracts/Promos.sol\":1250:1260  bits[user] */\n      0x00\n        /* \"contracts/Promos.sol\":1255:1259  user */\n      dup5\n        /* \"contracts/Promos.sol\":1250:1260  bits[user] */\n      0xffffffffffffffffffffffffffffffffffffffff\n      and\n      0xffffffffffffffffffffffffffffffffffffffff\n      and\n      dup2\n      mstore\n      0x20\n      add\n      swap1\n      dup2\n      mstore\n      0x20\n      add\n      0x00\n      keccak256\n      0x00\n        /* \"contracts/Promos.sol\":1250:1268  bits[user] &= ~bit */\n      dup3\n      dup3\n      sload\n      and\n      swap3\n      pop\n      pop\n      dup2\n      swap1\n      sstore\n      pop\n        /* \"contracts/Promos.sol\":1177:1275  function unsetBit(address user, uint256 bit) public restricted {... */\n      pop\n      pop\n      jump\t// out\n        /* \"contracts/Promos.sol\":415:548  function initialize() public initializer {... */\n    tag_59:\n        /* \"@openzeppelin/contracts-upgradeable/proxy/Initializable.sol\":1512:1525  _initializing */\n      0x00\n      0x01\n      swap1\n      sload\n      swap1\n      0x0100\n      exp\n      swap1\n      div\n      0xff\n      and\n        /* \"@openzeppelin/contracts-upgradeable/proxy/Initializable.sol\":1512:1545  _initializing || _isConstructor() */\n      dup1\n      tag_120\n      jumpi\n      pop\n        /* \"@openzeppelin/contracts-upgradeable/proxy/Initializable.sol\":1529:1545  _isConstructor() */\n      tag_121\n        /* \"@openzeppelin/contracts-upgradeable/proxy/Initializable.sol\":1529:1543  _isConstructor */\n      tag_122\n        /* \"@openzeppelin/contracts-upgradeable/proxy/Initializable.sol\":1529:1545  _isConstructor() */\n      jump\t// in\n    tag_121:\n        /* \"@openzeppelin/contracts-upgradeable/proxy/Initializable.sol\":1512:1545  _initializing || _isConstructor() */\n    tag_120:\n        /* \"@openzeppelin/contracts-upgradeable/proxy/Initializable.sol\":1512:1562  _initializing || _isConstructor() || !_initialized */\n      dup1\n      tag_123\n      jumpi\n      pop\n        /* \"@openzeppelin/contracts-upgradeable/proxy/Initializable.sol\":1550:1562  _initialized */\n      0x00\n      dup1\n      sload\n      swap1\n      0x0100\n      exp\n      swap1\n      div\n      0xff\n      and\n        /* \"@openzeppelin/contracts-upgradeable/proxy/Initializable.sol\":1549:1562  !_initialized */\n      iszero\n        /* \"@openzeppelin/contracts-upgradeable/proxy/Initializable.sol\":1512:1562  _initializing || _isConstructor() || !_initialized */\n    tag_123:\n        /* \"@openzeppelin/contracts-upgradeable/proxy/Initializable.sol\":1504:1613  require(_initializing || _isConstructor() || !_initialized, \"Initializable: contract is already initialized\") */\n      tag_124\n      jumpi\n      mload(0x40)\n      0x08c379a000000000000000000000000000000000000000000000000000000000\n      dup2\n      mstore\n      0x04\n      add\n      dup1\n      dup1\n      0x20\n      add\n      dup3\n      dup2\n      sub\n      dup3\n      mstore\n      0x2e\n      dup2\n      mstore\n      0x20\n      add\n      dup1\n      data_7a2a4e26842155ea933fe6eb6e3137eb5a296dcdf55721c552be7b4c3cc23759\n      0x2e\n      swap2\n      codecopy\n      0x40\n      add\n      swap2\n      pop\n      pop\n      mload(0x40)\n      dup1\n      swap2\n      sub\n      swap1\n      revert\n    tag_124:\n        /* \"@openzeppelin/contracts-upgradeable/proxy/Initializable.sol\":1624:1643  bool isTopLevelCall */\n      0x00\n        /* \"@openzeppelin/contracts-upgradeable/proxy/Initializable.sol\":1647:1660  _initializing */\n      dup1\n      0x01\n      swap1\n      sload\n      swap1\n      0x0100\n      exp\n      swap1\n      div\n      0xff\n      and\n        /* \"@openzeppelin/contracts-upgradeable/proxy/Initializable.sol\":1646:1660  !_initializing */\n      iszero\n        /* \"@openzeppelin/contracts-upgradeable/proxy/Initializable.sol\":1624:1660  bool isTopLevelCall = !_initializing */\n      swap1\n      pop\n        /* \"@openzeppelin/contracts-upgradeable/proxy/Initializable.sol\":1674:1688  isTopLevelCall */\n      dup1\n        /* \"@openzeppelin/contracts-upgradeable/proxy/Initializable.sol\":1670:1768  if (isTopLevelCall) {... */\n      iszero\n      tag_125\n      jumpi\n        /* \"@openzeppelin/contracts-upgradeable/proxy/Initializable.sol\":1720:1724  true */\n      0x01\n        /* \"@openzeppelin/contracts-upgradeable/proxy/Initializable.sol\":1704:1717  _initializing */\n      0x00\n      0x01\n        /* \"@openzeppelin/contracts-upgradeable/proxy/Initializable.sol\":1704:1724  _initializing = true */\n      0x0100\n      exp\n      dup2\n      sload\n      dup2\n      0xff\n      mul\n      not\n      and\n      swap1\n      dup4\n      iszero\n      iszero\n      mul\n      or\n      swap1\n      sstore\n      pop\n        /* \"@openzeppelin/contracts-upgradeable/proxy/Initializable.sol\":1753:1757  true */\n      0x01\n        /* \"@openzeppelin/contracts-upgradeable/proxy/Initializable.sol\":1738:1750  _initialized */\n      0x00\n      dup1\n        /* \"@openzeppelin/contracts-upgradeable/proxy/Initializable.sol\":1738:1757  _initialized = true */\n      0x0100\n      exp\n      dup2\n      sload\n      dup2\n      0xff\n      mul\n      not\n      and\n      swap1\n      dup4\n      iszero\n      iszero\n      mul\n      or\n      swap1\n      sstore\n      pop\n        /* \"@openzeppelin/contracts-upgradeable/proxy/Initializable.sol\":1670:1768  if (isTopLevelCall) {... */\n    tag_125:\n        /* \"contracts/Promos.sol\":466:488  __AccessControl_init() */\n      tag_127\n        /* \"contracts/Promos.sol\":466:486  __AccessControl_init */\n      tag_128\n        /* \"contracts/Promos.sol\":466:488  __AccessControl_init() */\n      jump\t// in\n    tag_127:\n        /* \"contracts/Promos.sol\":499:541  _setupRole(DEFAULT_ADMIN_ROLE, msg.sender) */\n      tag_129\n        /* \"@openzeppelin/contracts-upgradeable/access/AccessControlUpgradeable.sol\":2142:2146  0x00 */\n      0x00\n        /* \"contracts/Promos.sol\":510:528  DEFAULT_ADMIN_ROLE */\n      dup1\n      shl\n        /* \"contracts/Promos.sol\":530:540  msg.sender */\n      caller\n        /* \"contracts/Promos.sol\":499:509  _setupRole */\n      tag_130\n        /* \"contracts/Promos.sol\":499:541  _setupRole(DEFAULT_ADMIN_ROLE, msg.sender) */\n      jump\t// in\n    tag_129:\n        /* \"@openzeppelin/contracts-upgradeable/proxy/Initializable.sol\":1794:1808  isTopLevelCall */\n      dup1\n        /* \"@openzeppelin/contracts-upgradeable/proxy/Initializable.sol\":1790:1856  if (isTopLevelCall) {... */\n      iszero\n      tag_131\n      jumpi\n        /* \"@openzeppelin/contracts-upgradeable/proxy/Initializable.sol\":1840:1845  false */\n      0x00\n        /* \"@openzeppelin/contracts-upgradeable/proxy/Initializable.sol\":1824:1837  _initializing */\n      dup1\n      0x01\n        /* \"@openzeppelin/contracts-upgradeable/proxy/Initializable.sol\":1824:1845  _initializing = false */\n      0x0100\n      exp\n      dup2\n      sload\n      dup2\n      0xff\n      mul\n      not\n      and\n      swap1\n      dup4\n      iszero\n      iszero\n      mul\n      or\n      swap1\n      sstore\n      pop\n        /* \"@openzeppelin/contracts-upgradeable/proxy/Initializable.sol\":1790:1856  if (isTopLevelCall) {... */\n    tag_131:\n        /* \"contracts/Promos.sol\":415:548  function initialize() public initializer {... */\n      pop\n      jump\t// out\n        /* \"@openzeppelin/contracts-upgradeable/access/AccessControlUpgradeable.sol\":4335:4471  function getRoleMember(bytes32 role, uint256 index) public view returns (address) {... */\n    tag_62:\n        /* \"@openzeppelin/contracts-upgradeable/access/AccessControlUpgradeable.sol\":4408:4415  address */\n      0x00\n        /* \"@openzeppelin/contracts-upgradeable/access/AccessControlUpgradeable.sol\":4434:4464  _roles[role].members.at(index) */\n      tag_133\n        /* \"@openzeppelin/contracts-upgradeable/access/AccessControlUpgradeable.sol\":4458:4463  index */\n      dup3\n        /* \"@openzeppelin/contracts-upgradeable/access/AccessControlUpgradeable.sol\":4434:4440  _roles */\n      0x33\n        /* \"@openzeppelin/contracts-upgradeable/access/AccessControlUpgradeable.sol\":4434:4446  _roles[role] */\n      0x00\n        /* \"@openzeppelin/contracts-upgradeable/access/AccessControlUpgradeable.sol\":4441:4445  role */\n      dup7\n        /* \"@openzeppelin/contracts-upgradeable/access/AccessControlUpgradeable.sol\":4434:4446  _roles[role] */\n      dup2\n      mstore\n      0x20\n      add\n      swap1\n      dup2\n      mstore\n      0x20\n      add\n      0x00\n      keccak256\n        /* \"@openzeppelin/contracts-upgradeable/access/AccessControlUpgradeable.sol\":4434:4454  _roles[role].members */\n      0x00\n      add\n        /* \"@openzeppelin/contracts-upgradeable/access/AccessControlUpgradeable.sol\":4434:4457  _roles[role].members.at */\n      tag_134\n      swap1\n        /* \"@openzeppelin/contracts-upgradeable/access/AccessControlUpgradeable.sol\":4434:4464  _roles[role].members.at(index) */\n      swap2\n      swap1\n      0xffffffff\n      and\n      jump\t// in\n    tag_133:\n        /* \"@openzeppelin/contracts-upgradeable/access/AccessControlUpgradeable.sol\":4427:4464  return _roles[role].members.at(index) */\n      swap1\n      pop\n        /* \"@openzeppelin/contracts-upgradeable/access/AccessControlUpgradeable.sol\":4335:4471  function getRoleMember(bytes32 role, uint256 index) public view returns (address) {... */\n      swap3\n      swap2\n      pop\n      pop\n      jump\t// out\n        /* \"@openzeppelin/contracts-upgradeable/access/AccessControlUpgradeable.sol\":3320:3457  function hasRole(bytes32 role, address account) public view returns (bool) {... */\n    tag_65:\n        /* \"@openzeppelin/contracts-upgradeable/access/AccessControlUpgradeable.sol\":3389:3393  bool */\n      0x00\n        /* \"@openzeppelin/contracts-upgradeable/access/AccessControlUpgradeable.sol\":3412:3450  _roles[role].members.contains(account) */\n      tag_136\n        /* \"@openzeppelin/contracts-upgradeable/access/AccessControlUpgradeable.sol\":3442:3449  account */\n      dup3\n        /* \"@openzeppelin/contracts-upgradeable/access/AccessControlUpgradeable.sol\":3412:3418  _roles */\n      0x33\n        /* \"@openzeppelin/contracts-upgradeable/access/AccessControlUpgradeable.sol\":3412:3424  _roles[role] */\n      0x00\n        /* \"@openzeppelin/contracts-upgradeable/access/AccessControlUpgradeable.sol\":3419:3423  role */\n      dup7\n        /* \"@openzeppelin/contracts-upgradeable/access/AccessControlUpgradeable.sol\":3412:3424  _roles[role] */\n      dup2\n      mstore\n      0x20\n      add\n      swap1\n      dup2\n      mstore\n      0x20\n      add\n      0x00\n      keccak256\n        /* \"@openzeppelin/contracts-upgradeable/access/AccessControlUpgradeable.sol\":3412:3432  _roles[role].members */\n      0x00\n      add\n        /* \"@openzeppelin/contracts-upgradeable/access/AccessControlUpgradeable.sol\":3412:3441  _roles[role].members.contains */\n      tag_137\n      swap1\n        /* \"@openzeppelin/contracts-upgradeable/access/AccessControlUpgradeable.sol\":3412:3450  _roles[role].members.contains(account) */\n      swap2\n      swap1\n      0xffffffff\n      and\n      jump\t// in\n    tag_136:\n        /* \"@openzeppelin/contracts-upgradeable/access/AccessControlUpgradeable.sol\":3405:3450  return _roles[role].members.contains(account) */\n      swap1\n      pop\n        /* \"@openzeppelin/contracts-upgradeable/access/AccessControlUpgradeable.sol\":3320:3457  function hasRole(bytes32 role, address account) public view returns (bool) {... */\n      swap3\n      swap2\n      pop\n      pop\n      jump\t// out\n        /* \"@openzeppelin/contracts-upgradeable/access/AccessControlUpgradeable.sol\":2097:2146  bytes32 public constant DEFAULT_ADMIN_ROLE = 0x00 */\n    tag_67:\n        /* \"@openzeppelin/contracts-upgradeable/access/AccessControlUpgradeable.sol\":2142:2146  0x00 */\n      0x00\n        /* \"@openzeppelin/contracts-upgradeable/access/AccessControlUpgradeable.sol\":2097:2146  bytes32 public constant DEFAULT_ADMIN_ROLE = 0x00 */\n      dup1\n      shl\n      dup2\n      jump\t// out\n        /* \"contracts/Promos.sol\":843:890  uint256 public constant BIT_FIRST_CHARACTER = 1 */\n    tag_69:\n        /* \"contracts/Promos.sol\":889:890  1 */\n      0x01\n        /* \"contracts/Promos.sol\":843:890  uint256 public constant BIT_FIRST_CHARACTER = 1 */\n      dup2\n      jump\t// out\n        /* \"@openzeppelin/contracts-upgradeable/access/AccessControlUpgradeable.sol\":3625:3750  function getRoleMemberCount(bytes32 role) public view returns (uint256) {... */\n    tag_72:\n        /* \"@openzeppelin/contracts-upgradeable/access/AccessControlUpgradeable.sol\":3688:3695  uint256 */\n      0x00\n        /* \"@openzeppelin/contracts-upgradeable/access/AccessControlUpgradeable.sol\":3714:3743  _roles[role].members.length() */\n      tag_139\n        /* \"@openzeppelin/contracts-upgradeable/access/AccessControlUpgradeable.sol\":3714:3720  _roles */\n      0x33\n        /* \"@openzeppelin/contracts-upgradeable/access/AccessControlUpgradeable.sol\":3714:3726  _roles[role] */\n      0x00\n        /* \"@openzeppelin/contracts-upgradeable/access/AccessControlUpgradeable.sol\":3721:3725  role */\n      dup5\n        /* \"@openzeppelin/contracts-upgradeable/access/AccessControlUpgradeable.sol\":3714:3726  _roles[role] */\n      dup2\n      mstore\n      0x20\n      add\n      swap1\n      dup2\n      mstore\n      0x20\n      add\n      0x00\n      keccak256\n        /* \"@openzeppelin/contracts-upgradeable/access/AccessControlUpgradeable.sol\":3714:3734  _roles[role].members */\n      0x00\n      add\n        /* \"@openzeppelin/contracts-upgradeable/access/AccessControlUpgradeable.sol\":3714:3741  _roles[role].members.length */\n      tag_140\n        /* \"@openzeppelin/contracts-upgradeable/access/AccessControlUpgradeable.sol\":3714:3743  _roles[role].members.length() */\n      jump\t// in\n    tag_139:\n        /* \"@openzeppelin/contracts-upgradeable/access/AccessControlUpgradeable.sol\":3707:3743  return _roles[role].members.length() */\n      swap1\n      pop\n        /* \"@openzeppelin/contracts-upgradeable/access/AccessControlUpgradeable.sol\":3625:3750  function getRoleMemberCount(bytes32 role) public view returns (uint256) {... */\n      swap2\n      swap1\n      pop\n      jump\t// out\n        /* \"@openzeppelin/contracts-upgradeable/access/AccessControlUpgradeable.sol\":5471:5697  function revokeRole(bytes32 role, address account) public virtual {... */\n    tag_75:\n        /* \"@openzeppelin/contracts-upgradeable/access/AccessControlUpgradeable.sol\":5555:5600  hasRole(_roles[role].adminRole, _msgSender()) */\n      tag_142\n        /* \"@openzeppelin/contracts-upgradeable/access/AccessControlUpgradeable.sol\":5563:5569  _roles */\n      0x33\n        /* \"@openzeppelin/contracts-upgradeable/access/AccessControlUpgradeable.sol\":5563:5575  _roles[role] */\n      0x00\n        /* \"@openzeppelin/contracts-upgradeable/access/AccessControlUpgradeable.sol\":5570:5574  role */\n      dup5\n        /* \"@openzeppelin/contracts-upgradeable/access/AccessControlUpgradeable.sol\":5563:5575  _roles[role] */\n      dup2\n      mstore\n      0x20\n      add\n      swap1\n      dup2\n      mstore\n      0x20\n      add\n      0x00\n      keccak256\n        /* \"@openzeppelin/contracts-upgradeable/access/AccessControlUpgradeable.sol\":5563:5585  _roles[role].adminRole */\n      0x02\n      add\n      sload\n        /* \"@openzeppelin/contracts-upgradeable/access/AccessControlUpgradeable.sol\":5587:5599  _msgSender() */\n      tag_143\n        /* \"@openzeppelin/contracts-upgradeable/access/AccessControlUpgradeable.sol\":5587:5597  _msgSender */\n      tag_105\n        /* \"@openzeppelin/contracts-upgradeable/access/AccessControlUpgradeable.sol\":5587:5599  _msgSender() */\n      jump\t// in\n    tag_143:\n        /* \"@openzeppelin/contracts-upgradeable/access/AccessControlUpgradeable.sol\":5555:5562  hasRole */\n      tag_65\n        /* \"@openzeppelin/contracts-upgradeable/access/AccessControlUpgradeable.sol\":5555:5600  hasRole(_roles[role].adminRole, _msgSender()) */\n      jump\t// in\n    tag_142:\n        /* \"@openzeppelin/contracts-upgradeable/access/AccessControlUpgradeable.sol\":5547:5653  require(hasRole(_roles[role].adminRole, _msgSender()), \"AccessControl: sender must be an admin to revoke\") */\n      tag_144\n      jumpi\n      mload(0x40)\n      0x08c379a000000000000000000000000000000000000000000000000000000000\n      dup2\n      mstore\n      0x04\n      add\n      dup1\n      dup1\n      0x20\n      add\n      dup3\n      dup2\n      sub\n      dup3\n      mstore\n      0x30\n      dup2\n      mstore\n      0x20\n      add\n      dup1\n      data_64344570eab7406ca49d34d38bf2b2496dfda914405390c5057c8b0aabf798a3\n      0x30\n      swap2\n      codecopy\n      0x40\n      add\n      swap2\n      pop\n      pop\n      mload(0x40)\n      dup1\n      swap2\n      sub\n      swap1\n      revert\n    tag_144:\n        /* \"@openzeppelin/contracts-upgradeable/access/AccessControlUpgradeable.sol\":5664:5690  _revokeRole(role, account) */\n      tag_145\n        /* \"@openzeppelin/contracts-upgradeable/access/AccessControlUpgradeable.sol\":5676:5680  role */\n      dup3\n        /* \"@openzeppelin/contracts-upgradeable/access/AccessControlUpgradeable.sol\":5682:5689  account */\n      dup3\n        /* \"@openzeppelin/contracts-upgradeable/access/AccessControlUpgradeable.sol\":5664:5675  _revokeRole */\n      tag_113\n        /* \"@openzeppelin/contracts-upgradeable/access/AccessControlUpgradeable.sol\":5664:5690  _revokeRole(role, account) */\n      jump\t// in\n    tag_145:\n        /* \"@openzeppelin/contracts-upgradeable/access/AccessControlUpgradeable.sol\":5471:5697  function revokeRole(bytes32 role, address account) public virtual {... */\n      pop\n      pop\n      jump\t// out\n        /* \"contracts/Promos.sol\":798:837  mapping(address => uint256) public bits */\n    tag_78:\n      mstore(0x20, 0x65)\n      dup1\n      0x00\n      mstore\n      keccak256(0x00, 0x40)\n      0x00\n      swap2\n      pop\n      swap1\n      pop\n      sload\n      dup2\n      jump\t// out\n        /* \"node_modules/abdk-libraries-solidity/ABDKMath64x64.sol\":8234:8437  function divu (uint256 x, uint256 y) internal pure returns (int128) {... */\n    tag_84:\n        /* \"node_modules/abdk-libraries-solidity/ABDKMath64x64.sol\":8294:8300  int128 */\n      0x00\n        /* \"node_modules/abdk-libraries-solidity/ABDKMath64x64.sol\":8322:8323  0 */\n      dup1\n        /* \"node_modules/abdk-libraries-solidity/ABDKMath64x64.sol\":8317:8318  y */\n      dup3\n        /* \"node_modules/abdk-libraries-solidity/ABDKMath64x64.sol\":8317:8323  y != 0 */\n      eq\n      iszero\n        /* \"node_modules/abdk-libraries-solidity/ABDKMath64x64.sol\":8308:8324  require (y != 0) */\n      tag_147\n      jumpi\n      0x00\n      dup1\n      revert\n    tag_147:\n        /* \"node_modules/abdk-libraries-solidity/ABDKMath64x64.sol\":8330:8344  uint128 result */\n      0x00\n        /* \"node_modules/abdk-libraries-solidity/ABDKMath64x64.sol\":8347:8359  divuu (x, y) */\n      tag_148\n        /* \"node_modules/abdk-libraries-solidity/ABDKMath64x64.sol\":8354:8355  x */\n      dup5\n        /* \"node_modules/abdk-libraries-solidity/ABDKMath64x64.sol\":8357:8358  y */\n      dup5\n        /* \"node_modules/abdk-libraries-solidity/ABDKMath64x64.sol\":8347:8352  divuu */\n      tag_149\n        /* \"node_modules/abdk-libraries-solidity/ABDKMath64x64.sol\":8347:8359  divuu (x, y) */\n      jump\t// in\n    tag_148:\n        /* \"node_modules/abdk-libraries-solidity/ABDKMath64x64.sol\":8330:8359  uint128 result = divuu (x, y) */\n      swap1\n      pop\n        /* \"node_modules/abdk-libraries-solidity/ABDKMath64x64.sol\":978:1012  0x7FFFFFFFFFFFFFFFFFFFFFFFFFFFFFFF */\n      0x7fffffffffffffffffffffffffffffff\n        /* \"node_modules/abdk-libraries-solidity/ABDKMath64x64.sol\":8374:8403  result <= uint128 (MAX_64x64) */\n      0xffffffffffffffffffffffffffffffff\n      and\n        /* \"node_modules/abdk-libraries-solidity/ABDKMath64x64.sol\":8374:8380  result */\n      dup2\n        /* \"node_modules/abdk-libraries-solidity/ABDKMath64x64.sol\":8374:8403  result <= uint128 (MAX_64x64) */\n      0xffffffffffffffffffffffffffffffff\n      and\n      gt\n      iszero\n        /* \"node_modules/abdk-libraries-solidity/ABDKMath64x64.sol\":8365:8404  require (result <= uint128 (MAX_64x64)) */\n      tag_150\n      jumpi\n      0x00\n      dup1\n      revert\n    tag_150:\n        /* \"node_modules/abdk-libraries-solidity/ABDKMath64x64.sol\":8425:8431  result */\n      dup1\n        /* \"node_modules/abdk-libraries-solidity/ABDKMath64x64.sol\":8410:8432  return int128 (result) */\n      swap2\n      pop\n      pop\n        /* \"node_modules/abdk-libraries-solidity/ABDKMath64x64.sol\":8234:8437  function divu (uint256 x, uint256 y) internal pure returns (int128) {... */\n      swap3\n      swap2\n      pop\n      pop\n      jump\t// out\n        /* \"node_modules/abdk-libraries-solidity/ABDKMath64x64.sol\":5958:6413  function mulu (int128 x, uint256 y) internal pure returns (uint256) {... */\n    tag_97:\n        /* \"node_modules/abdk-libraries-solidity/ABDKMath64x64.sol\":6017:6024  uint256 */\n      0x00\n        /* \"node_modules/abdk-libraries-solidity/ABDKMath64x64.sol\":6041:6042  0 */\n      dup1\n        /* \"node_modules/abdk-libraries-solidity/ABDKMath64x64.sol\":6036:6037  y */\n      dup3\n        /* \"node_modules/abdk-libraries-solidity/ABDKMath64x64.sol\":6036:6042  y == 0 */\n      eq\n        /* \"node_modules/abdk-libraries-solidity/ABDKMath64x64.sol\":6032:6052  if (y == 0) return 0 */\n      iszero\n      tag_152\n      jumpi\n        /* \"node_modules/abdk-libraries-solidity/ABDKMath64x64.sol\":6051:6052  0 */\n      0x00\n        /* \"node_modules/abdk-libraries-solidity/ABDKMath64x64.sol\":6044:6052  return 0 */\n      swap1\n      pop\n      jump(tag_151)\n        /* \"node_modules/abdk-libraries-solidity/ABDKMath64x64.sol\":6032:6052  if (y == 0) return 0 */\n    tag_152:\n        /* \"node_modules/abdk-libraries-solidity/ABDKMath64x64.sol\":6073:6074  0 */\n      0x00\n        /* \"node_modules/abdk-libraries-solidity/ABDKMath64x64.sol\":6068:6069  x */\n      dup4\n        /* \"node_modules/abdk-libraries-solidity/ABDKMath64x64.sol\":6068:6074  x >= 0 */\n      0x0f\n      signextend\n      slt\n      iszero\n        /* \"node_modules/abdk-libraries-solidity/ABDKMath64x64.sol\":6059:6075  require (x >= 0) */\n      tag_153\n      jumpi\n      0x00\n      dup1\n      revert\n    tag_153:\n        /* \"node_modules/abdk-libraries-solidity/ABDKMath64x64.sol\":6082:6092  uint256 lo */\n      0x00\n        /* \"node_modules/abdk-libraries-solidity/ABDKMath64x64.sol\":6155:6157  64 */\n      0x40\n        /* \"node_modules/abdk-libraries-solidity/ABDKMath64x64.sol\":6115:6149  0xFFFFFFFFFFFFFFFFFFFFFFFFFFFFFFFF */\n      0xffffffffffffffffffffffffffffffff\n        /* \"node_modules/abdk-libraries-solidity/ABDKMath64x64.sol\":6111:6112  y */\n      dup5\n        /* \"node_modules/abdk-libraries-solidity/ABDKMath64x64.sol\":6111:6149  y & 0xFFFFFFFFFFFFFFFFFFFFFFFFFFFFFFFF */\n      and\n        /* \"node_modules/abdk-libraries-solidity/ABDKMath64x64.sol\":6105:6106  x */\n      dup6\n        /* \"node_modules/abdk-libraries-solidity/ABDKMath64x64.sol\":6096:6107  uint256 (x) */\n      0x0f\n      signextend\n        /* \"node_modules/abdk-libraries-solidity/ABDKMath64x64.sol\":6096:6150  uint256 (x) * (y & 0xFFFFFFFFFFFFFFFFFFFFFFFFFFFFFFFF) */\n      mul\n        /* \"node_modules/abdk-libraries-solidity/ABDKMath64x64.sol\":6095:6157  (uint256 (x) * (y & 0xFFFFFFFFFFFFFFFFFFFFFFFFFFFFFFFF)) >> 64 */\n      swap1\n      shr\n        /* \"node_modules/abdk-libraries-solidity/ABDKMath64x64.sol\":6082:6157  uint256 lo = (uint256 (x) * (y & 0xFFFFFFFFFFFFFFFFFFFFFFFFFFFFFFFF)) >> 64 */\n      swap1\n      pop\n        /* \"node_modules/abdk-libraries-solidity/ABDKMath64x64.sol\":6163:6173  uint256 hi */\n      0x00\n        /* \"node_modules/abdk-libraries-solidity/ABDKMath64x64.sol\":6196:6199  128 */\n      0x80\n        /* \"node_modules/abdk-libraries-solidity/ABDKMath64x64.sol\":6191:6192  y */\n      dup5\n        /* \"node_modules/abdk-libraries-solidity/ABDKMath64x64.sol\":6191:6199  y >> 128 */\n      swap1\n      shr\n        /* \"node_modules/abdk-libraries-solidity/ABDKMath64x64.sol\":6185:6186  x */\n      dup6\n        /* \"node_modules/abdk-libraries-solidity/ABDKMath64x64.sol\":6176:6187  uint256 (x) */\n      0x0f\n      signextend\n        /* \"node_modules/abdk-libraries-solidity/ABDKMath64x64.sol\":6176:6200  uint256 (x) * (y >> 128) */\n      mul\n        /* \"node_modules/abdk-libraries-solidity/ABDKMath64x64.sol\":6163:6200  uint256 hi = uint256 (x) * (y >> 128) */\n      swap1\n      pop\n        /* \"node_modules/abdk-libraries-solidity/ABDKMath64x64.sol\":6222:6272  0xFFFFFFFFFFFFFFFFFFFFFFFFFFFFFFFFFFFFFFFFFFFFFFFF */\n      0xffffffffffffffffffffffffffffffffffffffffffffffff\n        /* \"node_modules/abdk-libraries-solidity/ABDKMath64x64.sol\":6216:6218  hi */\n      dup2\n        /* \"node_modules/abdk-libraries-solidity/ABDKMath64x64.sol\":6216:6272  hi <= 0xFFFFFFFFFFFFFFFFFFFFFFFFFFFFFFFFFFFFFFFFFFFFFFFF */\n      gt\n      iszero\n        /* \"node_modules/abdk-libraries-solidity/ABDKMath64x64.sol\":6207:6273  require (hi <= 0xFFFFFFFFFFFFFFFFFFFFFFFFFFFFFFFFFFFFFFFFFFFFFFFF) */\n      tag_154\n      jumpi\n      0x00\n      dup1\n      revert\n    tag_154:\n        /* \"node_modules/abdk-libraries-solidity/ABDKMath64x64.sol\":6286:6288  64 */\n      0x40\n        /* \"node_modules/abdk-libraries-solidity/ABDKMath64x64.sol\":6279:6288  hi <<= 64 */\n      dup2\n      swap1\n      shl\n      swap1\n      pop\n        /* \"node_modules/abdk-libraries-solidity/ABDKMath64x64.sol\":6385:6387  lo */\n      dup2\n        /* \"node_modules/abdk-libraries-solidity/ABDKMath64x64.sol\":6316:6382  0xFFFFFFFFFFFFFFFFFFFFFFFFFFFFFFFFFFFFFFFFFFFFFFFFFFFFFFFFFFFFFFFF */\n      0xffffffffffffffffffffffffffffffffffffffffffffffffffffffffffffffff\n        /* \"node_modules/abdk-libraries-solidity/ABDKMath64x64.sol\":6316:6387  0xFFFFFFFFFFFFFFFFFFFFFFFFFFFFFFFFFFFFFFFFFFFFFFFFFFFFFFFFFFFFFFFF - lo */\n      sub\n        /* \"node_modules/abdk-libraries-solidity/ABDKMath64x64.sol\":6304:6306  hi */\n      dup2\n        /* \"node_modules/abdk-libraries-solidity/ABDKMath64x64.sol\":6304:6387  hi <=... */\n      gt\n      iszero\n        /* \"node_modules/abdk-libraries-solidity/ABDKMath64x64.sol\":6295:6388  require (hi <=... */\n      tag_155\n      jumpi\n      0x00\n      dup1\n      revert\n    tag_155:\n        /* \"node_modules/abdk-libraries-solidity/ABDKMath64x64.sol\":6406:6408  lo */\n      dup2\n        /* \"node_modules/abdk-libraries-solidity/ABDKMath64x64.sol\":6401:6403  hi */\n      dup2\n        /* \"node_modules/abdk-libraries-solidity/ABDKMath64x64.sol\":6401:6408  hi + lo */\n      add\n        /* \"node_modules/abdk-libraries-solidity/ABDKMath64x64.sol\":6394:6408  return hi + lo */\n      swap3\n      pop\n      pop\n      pop\n        /* \"node_modules/abdk-libraries-solidity/ABDKMath64x64.sol\":5958:6413  function mulu (int128 x, uint256 y) internal pure returns (uint256) {... */\n    tag_151:\n      swap3\n      swap2\n      pop\n      pop\n      jump\t// out\n        /* \"@openzeppelin/contracts-upgradeable/utils/ContextUpgradeable.sol\":828:932  function _msgSender() internal view virtual returns (address payable) {... */\n    tag_105:\n        /* \"@openzeppelin/contracts-upgradeable/utils/ContextUpgradeable.sol\":881:896  address payable */\n      0x00\n        /* \"@openzeppelin/contracts-upgradeable/utils/ContextUpgradeable.sol\":915:925  msg.sender */\n      caller\n        /* \"@openzeppelin/contracts-upgradeable/utils/ContextUpgradeable.sol\":908:925  return msg.sender */\n      swap1\n      pop\n        /* \"@openzeppelin/contracts-upgradeable/utils/ContextUpgradeable.sol\":828:932  function _msgSender() internal view virtual returns (address payable) {... */\n      swap1\n      jump\t// out\n        /* \"@openzeppelin/contracts-upgradeable/access/AccessControlUpgradeable.sol\":7395:7579  function _grantRole(bytes32 role, address account) private {... */\n    tag_108:\n        /* \"@openzeppelin/contracts-upgradeable/access/AccessControlUpgradeable.sol\":7468:7501  _roles[role].members.add(account) */\n      tag_158\n        /* \"@openzeppelin/contracts-upgradeable/access/AccessControlUpgradeable.sol\":7493:7500  account */\n      dup2\n        /* \"@openzeppelin/contracts-upgradeable/access/AccessControlUpgradeable.sol\":7468:7474  _roles */\n      0x33\n        /* \"@openzeppelin/contracts-upgradeable/access/AccessControlUpgradeable.sol\":7468:7480  _roles[role] */\n      0x00\n        /* \"@openzeppelin/contracts-upgradeable/access/AccessControlUpgradeable.sol\":7475:7479  role */\n      dup6\n        /* \"@openzeppelin/contracts-upgradeable/access/AccessControlUpgradeable.sol\":7468:7480  _roles[role] */\n      dup2\n      mstore\n      0x20\n      add\n      swap1\n      dup2\n      mstore\n      0x20\n      add\n      0x00\n      keccak256\n        /* \"@openzeppelin/contracts-upgradeable/access/AccessControlUpgradeable.sol\":7468:7488  _roles[role].members */\n      0x00\n      add\n        /* \"@openzeppelin/contracts-upgradeable/access/AccessControlUpgradeable.sol\":7468:7492  _roles[role].members.add */\n      tag_159\n      swap1\n        /* \"@openzeppelin/contracts-upgradeable/access/AccessControlUpgradeable.sol\":7468:7501  _roles[role].members.add(account) */\n      swap2\n      swap1\n      0xffffffff\n      and\n      jump\t// in\n    tag_158:\n        /* \"@openzeppelin/contracts-upgradeable/access/AccessControlUpgradeable.sol\":7464:7573  if (_roles[role].members.add(account)) {... */\n      iszero\n      tag_160\n      jumpi\n        /* \"@openzeppelin/contracts-upgradeable/access/AccessControlUpgradeable.sol\":7549:7561  _msgSender() */\n      tag_161\n        /* \"@openzeppelin/contracts-upgradeable/access/AccessControlUpgradeable.sol\":7549:7559  _msgSender */\n      tag_105\n        /* \"@openzeppelin/contracts-upgradeable/access/AccessControlUpgradeable.sol\":7549:7561  _msgSender() */\n      jump\t// in\n    tag_161:\n        /* \"@openzeppelin/contracts-upgradeable/access/AccessControlUpgradeable.sol\":7522:7562  RoleGranted(role, account, _msgSender()) */\n      0xffffffffffffffffffffffffffffffffffffffff\n      and\n        /* \"@openzeppelin/contracts-upgradeable/access/AccessControlUpgradeable.sol\":7540:7547  account */\n      dup2\n        /* \"@openzeppelin/contracts-upgradeable/access/AccessControlUpgradeable.sol\":7522:7562  RoleGranted(role, account, _msgSender()) */\n      0xffffffffffffffffffffffffffffffffffffffff\n      and\n        /* \"@openzeppelin/contracts-upgradeable/access/AccessControlUpgradeable.sol\":7534:7538  role */\n      dup4\n        /* \"@openzeppelin/contracts-upgradeable/access/AccessControlUpgradeable.sol\":7522:7562  RoleGranted(role, account, _msgSender()) */\n      0x2f8788117e7eff1d82e926ec794901d17c78024a50270940304540a733656f0d\n      mload(0x40)\n      mload(0x40)\n      dup1\n      swap2\n      sub\n      swap1\n      log4\n        /* \"@openzeppelin/contracts-upgradeable/access/AccessControlUpgradeable.sol\":7464:7573  if (_roles[role].members.add(account)) {... */\n    tag_160:\n        /* \"@openzeppelin/contracts-upgradeable/access/AccessControlUpgradeable.sol\":7395:7579  function _grantRole(bytes32 role, address account) private {... */\n      pop\n      pop\n      jump\t// out\n        /* \"@openzeppelin/contracts-upgradeable/access/AccessControlUpgradeable.sol\":7585:7773  function _revokeRole(bytes32 role, address account) private {... */\n    tag_113:\n        /* \"@openzeppelin/contracts-upgradeable/access/AccessControlUpgradeable.sol\":7659:7695  _roles[role].members.remove(account) */\n      tag_163\n        /* \"@openzeppelin/contracts-upgradeable/access/AccessControlUpgradeable.sol\":7687:7694  account */\n      dup2\n        /* \"@openzeppelin/contracts-upgradeable/access/AccessControlUpgradeable.sol\":7659:7665  _roles */\n      0x33\n        /* \"@openzeppelin/contracts-upgradeable/access/AccessControlUpgradeable.sol\":7659:7671  _roles[role] */\n      0x00\n        /* \"@openzeppelin/contracts-upgradeable/access/AccessControlUpgradeable.sol\":7666:7670  role */\n      dup6\n        /* \"@openzeppelin/contracts-upgradeable/access/AccessControlUpgradeable.sol\":7659:7671  _roles[role] */\n      dup2\n      mstore\n      0x20\n      add\n      swap1\n      dup2\n      mstore\n      0x20\n      add\n      0x00\n      keccak256\n        /* \"@openzeppelin/contracts-upgradeable/access/AccessControlUpgradeable.sol\":7659:7679  _roles[role].members */\n      0x00\n      add\n        /* \"@openzeppelin/contracts-upgradeable/access/AccessControlUpgradeable.sol\":7659:7686  _roles[role].members.remove */\n      tag_164\n      swap1\n        /* \"@openzeppelin/contracts-upgradeable/access/AccessControlUpgradeable.sol\":7659:7695  _roles[role].members.remove(account) */\n      swap2\n      swap1\n      0xffffffff\n      and\n      jump\t// in\n    tag_163:\n        /* \"@openzeppelin/contracts-upgradeable/access/AccessControlUpgradeable.sol\":7655:7767  if (_roles[role].members.remove(account)) {... */\n      iszero\n      tag_165\n      jumpi\n        /* \"@openzeppelin/contracts-upgradeable/access/AccessControlUpgradeable.sol\":7743:7755  _msgSender() */\n      tag_166\n        /* \"@openzeppelin/contracts-upgradeable/access/AccessControlUpgradeable.sol\":7743:7753  _msgSender */\n      tag_105\n        /* \"@openzeppelin/contracts-upgradeable/access/AccessControlUpgradeable.sol\":7743:7755  _msgSender() */\n      jump\t// in\n    tag_166:\n        /* \"@openzeppelin/contracts-upgradeable/access/AccessControlUpgradeable.sol\":7716:7756  RoleRevoked(role, account, _msgSender()) */\n      0xffffffffffffffffffffffffffffffffffffffff\n      and\n        /* \"@openzeppelin/contracts-upgradeable/access/AccessControlUpgradeable.sol\":7734:7741  account */\n      dup2\n        /* \"@openzeppelin/contracts-upgradeable/access/AccessControlUpgradeable.sol\":7716:7756  RoleRevoked(role, account, _msgSender()) */\n      0xffffffffffffffffffffffffffffffffffffffff\n      and\n        /* \"@openzeppelin/contracts-upgradeable/access/AccessControlUpgradeable.sol\":7728:7732  role */\n      dup4\n        /* \"@openzeppelin/contracts-upgradeable/access/AccessControlUpgradeable.sol\":7716:7756  RoleRevoked(role, account, _msgSender()) */\n      0xf6391f5c32d9c69d2a47ea670b442974b53935d1edc7fd64eb21e047a839171b\n      mload(0x40)\n      mload(0x40)\n      dup1\n      swap2\n      sub\n      swap1\n      log4\n        /* \"@openzeppelin/contracts-upgradeable/access/AccessControlUpgradeable.sol\":7655:7767  if (_roles[role].members.remove(account)) {... */\n    tag_165:\n        /* \"@openzeppelin/contracts-upgradeable/access/AccessControlUpgradeable.sol\":7585:7773  function _revokeRole(bytes32 role, address account) private {... */\n      pop\n      pop\n      jump\t// out\n        /* \"@openzeppelin/contracts-upgradeable/proxy/Initializable.sol\":1952:2075  function _isConstructor() private view returns (bool) {... */\n    tag_122:\n        /* \"@openzeppelin/contracts-upgradeable/proxy/Initializable.sol\":2000:2004  bool */\n      0x00\n        /* \"@openzeppelin/contracts-upgradeable/proxy/Initializable.sol\":2024:2068  AddressUpgradeable.isContract(address(this)) */\n      tag_168\n        /* \"@openzeppelin/contracts-upgradeable/proxy/Initializable.sol\":2062:2066  this */\n      address\n        /* \"@openzeppelin/contracts-upgradeable/proxy/Initializable.sol\":2024:2053  AddressUpgradeable.isContract */\n      tag_169\n        /* \"@openzeppelin/contracts-upgradeable/proxy/Initializable.sol\":2024:2068  AddressUpgradeable.isContract(address(this)) */\n      jump\t// in\n    tag_168:\n        /* \"@openzeppelin/contracts-upgradeable/proxy/Initializable.sol\":2023:2068  !AddressUpgradeable.isContract(address(this)) */\n      iszero\n        /* \"@openzeppelin/contracts-upgradeable/proxy/Initializable.sol\":2016:2068  return !AddressUpgradeable.isContract(address(this)) */\n      swap1\n      pop\n        /* \"@openzeppelin/contracts-upgradeable/proxy/Initializable.sol\":1952:2075  function _isConstructor() private view returns (bool) {... */\n      swap1\n      jump\t// out\n        /* \"@openzeppelin/contracts-upgradeable/access/AccessControlUpgradeable.sol\":1599:1737  function __AccessControl_init() internal initializer {... */\n    tag_128:\n        /* \"@openzeppelin/contracts-upgradeable/proxy/Initializable.sol\":1512:1525  _initializing */\n      0x00\n      0x01\n      swap1\n      sload\n      swap1\n      0x0100\n      exp\n      swap1\n      div\n      0xff\n      and\n        /* \"@openzeppelin/contracts-upgradeable/proxy/Initializable.sol\":1512:1545  _initializing || _isConstructor() */\n      dup1\n      tag_171\n      jumpi\n      pop\n        /* \"@openzeppelin/contracts-upgradeable/proxy/Initializable.sol\":1529:1545  _isConstructor() */\n      tag_172\n        /* \"@openzeppelin/contracts-upgradeable/proxy/Initializable.sol\":1529:1543  _isConstructor */\n      tag_122\n        /* \"@openzeppelin/contracts-upgradeable/proxy/Initializable.sol\":1529:1545  _isConstructor() */\n      jump\t// in\n    tag_172:\n        /* \"@openzeppelin/contracts-upgradeable/proxy/Initializable.sol\":1512:1545  _initializing || _isConstructor() */\n    tag_171:\n        /* \"@openzeppelin/contracts-upgradeable/proxy/Initializable.sol\":1512:1562  _initializing || _isConstructor() || !_initialized */\n      dup1\n      tag_173\n      jumpi\n      pop\n        /* \"@openzeppelin/contracts-upgradeable/proxy/Initializable.sol\":1550:1562  _initialized */\n      0x00\n      dup1\n      sload\n      swap1\n      0x0100\n      exp\n      swap1\n      div\n      0xff\n      and\n        /* \"@openzeppelin/contracts-upgradeable/proxy/Initializable.sol\":1549:1562  !_initialized */\n      iszero\n        /* \"@openzeppelin/contracts-upgradeable/proxy/Initializable.sol\":1512:1562  _initializing || _isConstructor() || !_initialized */\n    tag_173:\n        /* \"@openzeppelin/contracts-upgradeable/proxy/Initializable.sol\":1504:1613  require(_initializing || _isConstructor() || !_initialized, \"Initializable: contract is already initialized\") */\n      tag_174\n      jumpi\n      mload(0x40)\n      0x08c379a000000000000000000000000000000000000000000000000000000000\n      dup2\n      mstore\n      0x04\n      add\n      dup1\n      dup1\n      0x20\n      add\n      dup3\n      dup2\n      sub\n      dup3\n      mstore\n      0x2e\n      dup2\n      mstore\n      0x20\n      add\n      dup1\n      data_7a2a4e26842155ea933fe6eb6e3137eb5a296dcdf55721c552be7b4c3cc23759\n      0x2e\n      swap2\n      codecopy\n      0x40\n      add\n      swap2\n      pop\n      pop\n      mload(0x40)\n      dup1\n      swap2\n      sub\n      swap1\n      revert\n    tag_174:\n        /* \"@openzeppelin/contracts-upgradeable/proxy/Initializable.sol\":1624:1643  bool isTopLevelCall */\n      0x00\n        /* \"@openzeppelin/contracts-upgradeable/proxy/Initializable.sol\":1647:1660  _initializing */\n      dup1\n      0x01\n      swap1\n      sload\n      swap1\n      0x0100\n      exp\n      swap1\n      div\n      0xff\n      and\n        /* \"@openzeppelin/contracts-upgradeable/proxy/Initializable.sol\":1646:1660  !_initializing */\n      iszero\n        /* \"@openzeppelin/contracts-upgradeable/proxy/Initializable.sol\":1624:1660  bool isTopLevelCall = !_initializing */\n      swap1\n      pop\n        /* \"@openzeppelin/contracts-upgradeable/proxy/Initializable.sol\":1674:1688  isTopLevelCall */\n      dup1\n        /* \"@openzeppelin/contracts-upgradeable/proxy/Initializable.sol\":1670:1768  if (isTopLevelCall) {... */\n      iszero\n      tag_175\n      jumpi\n        /* \"@openzeppelin/contracts-upgradeable/proxy/Initializable.sol\":1720:1724  true */\n      0x01\n        /* \"@openzeppelin/contracts-upgradeable/proxy/Initializable.sol\":1704:1717  _initializing */\n      0x00\n      0x01\n        /* \"@openzeppelin/contracts-upgradeable/proxy/Initializable.sol\":1704:1724  _initializing = true */\n      0x0100\n      exp\n      dup2\n      sload\n      dup2\n      0xff\n      mul\n      not\n      and\n      swap1\n      dup4\n      iszero\n      iszero\n      mul\n      or\n      swap1\n      sstore\n      pop\n        /* \"@openzeppelin/contracts-upgradeable/proxy/Initializable.sol\":1753:1757  true */\n      0x01\n        /* \"@openzeppelin/contracts-upgradeable/proxy/Initializable.sol\":1738:1750  _initialized */\n      0x00\n      dup1\n        /* \"@openzeppelin/contracts-upgradeable/proxy/Initializable.sol\":1738:1757  _initialized = true */\n      0x0100\n      exp\n      dup2\n      sload\n      dup2\n      0xff\n      mul\n      not\n      and\n      swap1\n      dup4\n      iszero\n      iszero\n      mul\n      or\n      swap1\n      sstore\n      pop\n        /* \"@openzeppelin/contracts-upgradeable/proxy/Initializable.sol\":1670:1768  if (isTopLevelCall) {... */\n    tag_175:\n        /* \"@openzeppelin/contracts-upgradeable/access/AccessControlUpgradeable.sol\":1662:1688  __Context_init_unchained() */\n      tag_177\n        /* \"@openzeppelin/contracts-upgradeable/access/AccessControlUpgradeable.sol\":1662:1686  __Context_init_unchained */\n      tag_178\n        /* \"@openzeppelin/contracts-upgradeable/access/AccessControlUpgradeable.sol\":1662:1688  __Context_init_unchained() */\n      jump\t// in\n    tag_177:\n        /* \"@openzeppelin/contracts-upgradeable/access/AccessControlUpgradeable.sol\":1698:1730  __AccessControl_init_unchained() */\n      tag_179\n        /* \"@openzeppelin/contracts-upgradeable/access/AccessControlUpgradeable.sol\":1698:1728  __AccessControl_init_unchained */\n      tag_180\n        /* \"@openzeppelin/contracts-upgradeable/access/AccessControlUpgradeable.sol\":1698:1730  __AccessControl_init_unchained() */\n      jump\t// in\n    tag_179:\n        /* \"@openzeppelin/contracts-upgradeable/proxy/Initializable.sol\":1794:1808  isTopLevelCall */\n      dup1\n        /* \"@openzeppelin/contracts-upgradeable/proxy/Initializable.sol\":1790:1856  if (isTopLevelCall) {... */\n      iszero\n      tag_181\n      jumpi\n        /* \"@openzeppelin/contracts-upgradeable/proxy/Initializable.sol\":1840:1845  false */\n      0x00\n        /* \"@openzeppelin/contracts-upgradeable/proxy/Initializable.sol\":1824:1837  _initializing */\n      dup1\n      0x01\n        /* \"@openzeppelin/contracts-upgradeable/proxy/Initializable.sol\":1824:1845  _initializing = false */\n      0x0100\n      exp\n      dup2\n      sload\n      dup2\n      0xff\n      mul\n      not\n      and\n      swap1\n      dup4\n      iszero\n      iszero\n      mul\n      or\n      swap1\n      sstore\n      pop\n        /* \"@openzeppelin/contracts-upgradeable/proxy/Initializable.sol\":1790:1856  if (isTopLevelCall) {... */\n    tag_181:\n        /* \"@openzeppelin/contracts-upgradeable/access/AccessControlUpgradeable.sol\":1599:1737  function __AccessControl_init() internal initializer {... */\n      pop\n      jump\t// out\n        /* \"@openzeppelin/contracts-upgradeable/access/AccessControlUpgradeable.sol\":6958:7068  function _setupRole(bytes32 role, address account) internal virtual {... */\n    tag_130:\n        /* \"@openzeppelin/contracts-upgradeable/access/AccessControlUpgradeable.sol\":7036:7061  _grantRole(role, account) */\n      tag_183\n        /* \"@openzeppelin/contracts-upgradeable/access/AccessControlUpgradeable.sol\":7047:7051  role */\n      dup3\n        /* \"@openzeppelin/contracts-upgradeable/access/AccessControlUpgradeable.sol\":7053:7060  account */\n      dup3\n        /* \"@openzeppelin/contracts-upgradeable/access/AccessControlUpgradeable.sol\":7036:7046  _grantRole */\n      tag_108\n        /* \"@openzeppelin/contracts-upgradeable/access/AccessControlUpgradeable.sol\":7036:7061  _grantRole(role, account) */\n      jump\t// in\n    tag_183:\n        /* \"@openzeppelin/contracts-upgradeable/access/AccessControlUpgradeable.sol\":6958:7068  function _setupRole(bytes32 role, address account) internal virtual {... */\n      pop\n      pop\n      jump\t// out\n        /* \"@openzeppelin/contracts-upgradeable/utils/EnumerableSetUpgradeable.sol\":7688:7844  function at(AddressSet storage set, uint256 index) internal view returns (address) {... */\n    tag_134:\n        /* \"@openzeppelin/contracts-upgradeable/utils/EnumerableSetUpgradeable.sol\":7762:7769  address */\n      0x00\n        /* \"@openzeppelin/contracts-upgradeable/utils/EnumerableSetUpgradeable.sol\":7812:7834  _at(set._inner, index) */\n      tag_185\n        /* \"@openzeppelin/contracts-upgradeable/utils/EnumerableSetUpgradeable.sol\":7816:7819  set */\n      dup4\n        /* \"@openzeppelin/contracts-upgradeable/utils/EnumerableSetUpgradeable.sol\":7816:7826  set._inner */\n      0x00\n      add\n        /* \"@openzeppelin/contracts-upgradeable/utils/EnumerableSetUpgradeable.sol\":7828:7833  index */\n      dup4\n        /* \"@openzeppelin/contracts-upgradeable/utils/EnumerableSetUpgradeable.sol\":7812:7815  _at */\n      tag_186\n        /* \"@openzeppelin/contracts-upgradeable/utils/EnumerableSetUpgradeable.sol\":7812:7834  _at(set._inner, index) */\n      jump\t// in\n    tag_185:\n        /* \"@openzeppelin/contracts-upgradeable/utils/EnumerableSetUpgradeable.sol\":7804:7835  uint256(_at(set._inner, index)) */\n      0x00\n      shr\n        /* \"@openzeppelin/contracts-upgradeable/utils/EnumerableSetUpgradeable.sol\":7781:7837  return address(uint160(uint256(_at(set._inner, index)))) */\n      swap1\n      pop\n        /* \"@openzeppelin/contracts-upgradeable/utils/EnumerableSetUpgradeable.sol\":7688:7844  function at(AddressSet storage set, uint256 index) internal view returns (address) {... */\n      swap3\n      swap2\n      pop\n      pop\n      jump\t// out\n        /* \"@openzeppelin/contracts-upgradeable/utils/EnumerableSetUpgradeable.sol\":6995:7160  function contains(AddressSet storage set, address value) internal view returns (bool) {... */\n    tag_137:\n        /* \"@openzeppelin/contracts-upgradeable/utils/EnumerableSetUpgradeable.sol\":7075:7079  bool */\n      0x00\n        /* \"@openzeppelin/contracts-upgradeable/utils/EnumerableSetUpgradeable.sol\":7098:7153  _contains(set._inner, bytes32(uint256(uint160(value)))) */\n      tag_188\n        /* \"@openzeppelin/contracts-upgradeable/utils/EnumerableSetUpgradeable.sol\":7108:7111  set */\n      dup4\n        /* \"@openzeppelin/contracts-upgradeable/utils/EnumerableSetUpgradeable.sol\":7108:7118  set._inner */\n      0x00\n      add\n        /* \"@openzeppelin/contracts-upgradeable/utils/EnumerableSetUpgradeable.sol\":7144:7149  value */\n      dup4\n        /* \"@openzeppelin/contracts-upgradeable/utils/EnumerableSetUpgradeable.sol\":7128:7151  uint256(uint160(value)) */\n      0xffffffffffffffffffffffffffffffffffffffff\n      and\n        /* \"@openzeppelin/contracts-upgradeable/utils/EnumerableSetUpgradeable.sol\":7120:7152  bytes32(uint256(uint160(value))) */\n      0x00\n      shl\n        /* \"@openzeppelin/contracts-upgradeable/utils/EnumerableSetUpgradeable.sol\":7098:7107  _contains */\n      tag_189\n        /* \"@openzeppelin/contracts-upgradeable/utils/EnumerableSetUpgradeable.sol\":7098:7153  _contains(set._inner, bytes32(uint256(uint160(value)))) */\n      jump\t// in\n    tag_188:\n        /* \"@openzeppelin/contracts-upgradeable/utils/EnumerableSetUpgradeable.sol\":7091:7153  return _contains(set._inner, bytes32(uint256(uint160(value)))) */\n      swap1\n      pop\n        /* \"@openzeppelin/contracts-upgradeable/utils/EnumerableSetUpgradeable.sol\":6995:7160  function contains(AddressSet storage set, address value) internal view returns (bool) {... */\n      swap3\n      swap2\n      pop\n      pop\n      jump\t// out\n        /* \"@openzeppelin/contracts-upgradeable/utils/EnumerableSetUpgradeable.sol\":7241:7356  function length(AddressSet storage set) internal view returns (uint256) {... */\n    tag_140:\n        /* \"@openzeppelin/contracts-upgradeable/utils/EnumerableSetUpgradeable.sol\":7304:7311  uint256 */\n      0x00\n        /* \"@openzeppelin/contracts-upgradeable/utils/EnumerableSetUpgradeable.sol\":7330:7349  _length(set._inner) */\n      tag_191\n        /* \"@openzeppelin/contracts-upgradeable/utils/EnumerableSetUpgradeable.sol\":7338:7341  set */\n      dup3\n        /* \"@openzeppelin/contracts-upgradeable/utils/EnumerableSetUpgradeable.sol\":7338:7348  set._inner */\n      0x00\n      add\n        /* \"@openzeppelin/contracts-upgradeable/utils/EnumerableSetUpgradeable.sol\":7330:7337  _length */\n      tag_192\n        /* \"@openzeppelin/contracts-upgradeable/utils/EnumerableSetUpgradeable.sol\":7330:7349  _length(set._inner) */\n      jump\t// in\n    tag_191:\n        /* \"@openzeppelin/contracts-upgradeable/utils/EnumerableSetUpgradeable.sol\":7323:7349  return _length(set._inner) */\n      swap1\n      pop\n        /* \"@openzeppelin/contracts-upgradeable/utils/EnumerableSetUpgradeable.sol\":7241:7356  function length(AddressSet storage set) internal view returns (uint256) {... */\n      swap2\n      swap1\n      pop\n      jump\t// out\n        /* \"node_modules/abdk-libraries-solidity/ABDKMath64x64.sol\":20447:21665  function divuu (uint256 x, uint256 y) private pure returns (uint128) {... */\n    tag_149:\n        /* \"node_modules/abdk-libraries-solidity/ABDKMath64x64.sol\":20507:20514  uint128 */\n      0x00\n        /* \"node_modules/abdk-libraries-solidity/ABDKMath64x64.sol\":20536:20537  0 */\n      dup1\n        /* \"node_modules/abdk-libraries-solidity/ABDKMath64x64.sol\":20531:20532  y */\n      dup3\n        /* \"node_modules/abdk-libraries-solidity/ABDKMath64x64.sol\":20531:20537  y != 0 */\n      eq\n      iszero\n        /* \"node_modules/abdk-libraries-solidity/ABDKMath64x64.sol\":20522:20538  require (y != 0) */\n      tag_194\n      jumpi\n      0x00\n      dup1\n      revert\n    tag_194:\n        /* \"node_modules/abdk-libraries-solidity/ABDKMath64x64.sol\":20545:20559  uint256 result */\n      0x00\n        /* \"node_modules/abdk-libraries-solidity/ABDKMath64x64.sol\":20575:20625  0xFFFFFFFFFFFFFFFFFFFFFFFFFFFFFFFFFFFFFFFFFFFFFFFF */\n      0xffffffffffffffffffffffffffffffffffffffffffffffff\n        /* \"node_modules/abdk-libraries-solidity/ABDKMath64x64.sol\":20570:20571  x */\n      dup5\n        /* \"node_modules/abdk-libraries-solidity/ABDKMath64x64.sol\":20570:20625  x <= 0xFFFFFFFFFFFFFFFFFFFFFFFFFFFFFFFFFFFFFFFFFFFFFFFF */\n      gt\n        /* \"node_modules/abdk-libraries-solidity/ABDKMath64x64.sol\":20566:21571  if (x <= 0xFFFFFFFFFFFFFFFFFFFFFFFFFFFFFFFFFFFFFFFFFFFFFFFF)... */\n      tag_195\n      jumpi\n        /* \"node_modules/abdk-libraries-solidity/ABDKMath64x64.sol\":20654:20655  y */\n      dup3\n        /* \"node_modules/abdk-libraries-solidity/ABDKMath64x64.sol\":20648:20650  64 */\n      0x40\n        /* \"node_modules/abdk-libraries-solidity/ABDKMath64x64.sol\":20643:20644  x */\n      dup6\n        /* \"node_modules/abdk-libraries-solidity/ABDKMath64x64.sol\":20643:20650  x << 64 */\n      swap1\n      shl\n        /* \"node_modules/abdk-libraries-solidity/ABDKMath64x64.sol\":20642:20655  (x << 64) / y */\n      dup2\n      tag_196\n      jumpi\n      invalid\n    tag_196:\n      div\n        /* \"node_modules/abdk-libraries-solidity/ABDKMath64x64.sol\":20633:20655  result = (x << 64) / y */\n      swap1\n      pop\n        /* \"node_modules/abdk-libraries-solidity/ABDKMath64x64.sol\":20566:21571  if (x <= 0xFFFFFFFFFFFFFFFFFFFFFFFFFFFFFFFFFFFFFFFFFFFFFFFF)... */\n      jump(tag_197)\n    tag_195:\n        /* \"node_modules/abdk-libraries-solidity/ABDKMath64x64.sol\":20674:20685  uint256 msb */\n      0x00\n        /* \"node_modules/abdk-libraries-solidity/ABDKMath64x64.sol\":20688:20691  192 */\n      0xc0\n        /* \"node_modules/abdk-libraries-solidity/ABDKMath64x64.sol\":20674:20691  uint256 msb = 192 */\n      swap1\n      pop\n        /* \"node_modules/abdk-libraries-solidity/ABDKMath64x64.sol\":20699:20709  uint256 xc */\n      0x00\n        /* \"node_modules/abdk-libraries-solidity/ABDKMath64x64.sol\":20717:20720  192 */\n      0xc0\n        /* \"node_modules/abdk-libraries-solidity/ABDKMath64x64.sol\":20712:20713  x */\n      dup7\n        /* \"node_modules/abdk-libraries-solidity/ABDKMath64x64.sol\":20712:20720  x >> 192 */\n      swap1\n      shr\n        /* \"node_modules/abdk-libraries-solidity/ABDKMath64x64.sol\":20699:20720  uint256 xc = x >> 192 */\n      swap1\n      pop\n        /* \"node_modules/abdk-libraries-solidity/ABDKMath64x64.sol\":20738:20749  0x100000000 */\n      0x0100000000\n        /* \"node_modules/abdk-libraries-solidity/ABDKMath64x64.sol\":20732:20734  xc */\n      dup2\n        /* \"node_modules/abdk-libraries-solidity/ABDKMath64x64.sol\":20732:20749  xc >= 0x100000000 */\n      lt\n        /* \"node_modules/abdk-libraries-solidity/ABDKMath64x64.sol\":20728:20776  if (xc >= 0x100000000) { xc >>= 32; msb += 32; } */\n      tag_198\n      jumpi\n        /* \"node_modules/abdk-libraries-solidity/ABDKMath64x64.sol\":20760:20762  32 */\n      0x20\n        /* \"node_modules/abdk-libraries-solidity/ABDKMath64x64.sol\":20753:20762  xc >>= 32 */\n      dup2\n      swap1\n      shr\n      swap1\n      pop\n        /* \"node_modules/abdk-libraries-solidity/ABDKMath64x64.sol\":20771:20773  32 */\n      0x20\n        /* \"node_modules/abdk-libraries-solidity/ABDKMath64x64.sol\":20764:20773  msb += 32 */\n      dup3\n      add\n      swap2\n      pop\n        /* \"node_modules/abdk-libraries-solidity/ABDKMath64x64.sol\":20728:20776  if (xc >= 0x100000000) { xc >>= 32; msb += 32; } */\n    tag_198:\n        /* \"node_modules/abdk-libraries-solidity/ABDKMath64x64.sol\":20793:20800  0x10000 */\n      0x010000\n        /* \"node_modules/abdk-libraries-solidity/ABDKMath64x64.sol\":20787:20789  xc */\n      dup2\n        /* \"node_modules/abdk-libraries-solidity/ABDKMath64x64.sol\":20787:20800  xc >= 0x10000 */\n      lt\n        /* \"node_modules/abdk-libraries-solidity/ABDKMath64x64.sol\":20783:20827  if (xc >= 0x10000) { xc >>= 16; msb += 16; } */\n      tag_199\n      jumpi\n        /* \"node_modules/abdk-libraries-solidity/ABDKMath64x64.sol\":20811:20813  16 */\n      0x10\n        /* \"node_modules/abdk-libraries-solidity/ABDKMath64x64.sol\":20804:20813  xc >>= 16 */\n      dup2\n      swap1\n      shr\n      swap1\n      pop\n        /* \"node_modules/abdk-libraries-solidity/ABDKMath64x64.sol\":20822:20824  16 */\n      0x10\n        /* \"node_modules/abdk-libraries-solidity/ABDKMath64x64.sol\":20815:20824  msb += 16 */\n      dup3\n      add\n      swap2\n      pop\n        /* \"node_modules/abdk-libraries-solidity/ABDKMath64x64.sol\":20783:20827  if (xc >= 0x10000) { xc >>= 16; msb += 16; } */\n    tag_199:\n        /* \"node_modules/abdk-libraries-solidity/ABDKMath64x64.sol\":20844:20849  0x100 */\n      0x0100\n        /* \"node_modules/abdk-libraries-solidity/ABDKMath64x64.sol\":20838:20840  xc */\n      dup2\n        /* \"node_modules/abdk-libraries-solidity/ABDKMath64x64.sol\":20838:20849  xc >= 0x100 */\n      lt\n        /* \"node_modules/abdk-libraries-solidity/ABDKMath64x64.sol\":20834:20874  if (xc >= 0x100) { xc >>= 8; msb += 8; } */\n      tag_200\n      jumpi\n        /* \"node_modules/abdk-libraries-solidity/ABDKMath64x64.sol\":20860:20861  8 */\n      0x08\n        /* \"node_modules/abdk-libraries-solidity/ABDKMath64x64.sol\":20853:20861  xc >>= 8 */\n      dup2\n      swap1\n      shr\n      swap1\n      pop\n        /* \"node_modules/abdk-libraries-solidity/ABDKMath64x64.sol\":20870:20871  8 */\n      0x08\n        /* \"node_modules/abdk-libraries-solidity/ABDKMath64x64.sol\":20863:20871  msb += 8 */\n      dup3\n      add\n      swap2\n      pop\n        /* \"node_modules/abdk-libraries-solidity/ABDKMath64x64.sol\":20834:20874  if (xc >= 0x100) { xc >>= 8; msb += 8; } */\n    tag_200:\n        /* \"node_modules/abdk-libraries-solidity/ABDKMath64x64.sol\":20891:20895  0x10 */\n      0x10\n        /* \"node_modules/abdk-libraries-solidity/ABDKMath64x64.sol\":20885:20887  xc */\n      dup2\n        /* \"node_modules/abdk-libraries-solidity/ABDKMath64x64.sol\":20885:20895  xc >= 0x10 */\n      lt\n        /* \"node_modules/abdk-libraries-solidity/ABDKMath64x64.sol\":20881:20920  if (xc >= 0x10) { xc >>= 4; msb += 4; } */\n      tag_201\n      jumpi\n        /* \"node_modules/abdk-libraries-solidity/ABDKMath64x64.sol\":20906:20907  4 */\n      0x04\n        /* \"node_modules/abdk-libraries-solidity/ABDKMath64x64.sol\":20899:20907  xc >>= 4 */\n      dup2\n      swap1\n      shr\n      swap1\n      pop\n        /* \"node_modules/abdk-libraries-solidity/ABDKMath64x64.sol\":20916:20917  4 */\n      0x04\n        /* \"node_modules/abdk-libraries-solidity/ABDKMath64x64.sol\":20909:20917  msb += 4 */\n      dup3\n      add\n      swap2\n      pop\n        /* \"node_modules/abdk-libraries-solidity/ABDKMath64x64.sol\":20881:20920  if (xc >= 0x10) { xc >>= 4; msb += 4; } */\n    tag_201:\n        /* \"node_modules/abdk-libraries-solidity/ABDKMath64x64.sol\":20937:20940  0x4 */\n      0x04\n        /* \"node_modules/abdk-libraries-solidity/ABDKMath64x64.sol\":20931:20933  xc */\n      dup2\n        /* \"node_modules/abdk-libraries-solidity/ABDKMath64x64.sol\":20931:20940  xc >= 0x4 */\n      lt\n        /* \"node_modules/abdk-libraries-solidity/ABDKMath64x64.sol\":20927:20965  if (xc >= 0x4) { xc >>= 2; msb += 2; } */\n      tag_202\n      jumpi\n        /* \"node_modules/abdk-libraries-solidity/ABDKMath64x64.sol\":20951:20952  2 */\n      0x02\n        /* \"node_modules/abdk-libraries-solidity/ABDKMath64x64.sol\":20944:20952  xc >>= 2 */\n      dup2\n      swap1\n      shr\n      swap1\n      pop\n        /* \"node_modules/abdk-libraries-solidity/ABDKMath64x64.sol\":20961:20962  2 */\n      0x02\n        /* \"node_modules/abdk-libraries-solidity/ABDKMath64x64.sol\":20954:20962  msb += 2 */\n      dup3\n      add\n      swap2\n      pop\n        /* \"node_modules/abdk-libraries-solidity/ABDKMath64x64.sol\":20927:20965  if (xc >= 0x4) { xc >>= 2; msb += 2; } */\n    tag_202:\n        /* \"node_modules/abdk-libraries-solidity/ABDKMath64x64.sol\":20982:20985  0x2 */\n      0x02\n        /* \"node_modules/abdk-libraries-solidity/ABDKMath64x64.sol\":20976:20978  xc */\n      dup2\n        /* \"node_modules/abdk-libraries-solidity/ABDKMath64x64.sol\":20976:20985  xc >= 0x2 */\n      lt\n        /* \"node_modules/abdk-libraries-solidity/ABDKMath64x64.sol\":20972:20995  if (xc >= 0x2) msb += 1 */\n      tag_203\n      jumpi\n        /* \"node_modules/abdk-libraries-solidity/ABDKMath64x64.sol\":20994:20995  1 */\n      0x01\n        /* \"node_modules/abdk-libraries-solidity/ABDKMath64x64.sol\":20987:20995  msb += 1 */\n      dup3\n      add\n      swap2\n      pop\n        /* \"node_modules/abdk-libraries-solidity/ABDKMath64x64.sol\":20972:20995  if (xc >= 0x2) msb += 1 */\n    tag_203:\n        /* \"node_modules/abdk-libraries-solidity/ABDKMath64x64.sol\":21088:21089  1 */\n      0x01\n        /* \"node_modules/abdk-libraries-solidity/ABDKMath64x64.sol\":21081:21084  191 */\n      0xbf\n        /* \"node_modules/abdk-libraries-solidity/ABDKMath64x64.sol\":21075:21078  msb */\n      dup4\n        /* \"node_modules/abdk-libraries-solidity/ABDKMath64x64.sol\":21075:21084  msb - 191 */\n      sub\n        /* \"node_modules/abdk-libraries-solidity/ABDKMath64x64.sol\":21070:21071  1 */\n      0x01\n        /* \"node_modules/abdk-libraries-solidity/ABDKMath64x64.sol\":21066:21067  y */\n      dup8\n        /* \"node_modules/abdk-libraries-solidity/ABDKMath64x64.sol\":21066:21071  y - 1 */\n      sub\n        /* \"node_modules/abdk-libraries-solidity/ABDKMath64x64.sol\":21066:21084  y - 1 >> msb - 191 */\n      swap1\n      shr\n        /* \"node_modules/abdk-libraries-solidity/ABDKMath64x64.sol\":21065:21089  (y - 1 >> msb - 191) + 1 */\n      add\n        /* \"node_modules/abdk-libraries-solidity/ABDKMath64x64.sol\":21057:21060  msb */\n      dup3\n        /* \"node_modules/abdk-libraries-solidity/ABDKMath64x64.sol\":21051:21054  255 */\n      0xff\n        /* \"node_modules/abdk-libraries-solidity/ABDKMath64x64.sol\":21051:21060  255 - msb */\n      sub\n        /* \"node_modules/abdk-libraries-solidity/ABDKMath64x64.sol\":21046:21047  x */\n      dup8\n        /* \"node_modules/abdk-libraries-solidity/ABDKMath64x64.sol\":21046:21060  x << 255 - msb */\n      swap1\n      shl\n        /* \"node_modules/abdk-libraries-solidity/ABDKMath64x64.sol\":21045:21090  (x << 255 - msb) / ((y - 1 >> msb - 191) + 1) */\n      dup2\n      tag_204\n      jumpi\n      invalid\n    tag_204:\n      div\n        /* \"node_modules/abdk-libraries-solidity/ABDKMath64x64.sol\":21036:21090  result = (x << 255 - msb) / ((y - 1 >> msb - 191) + 1) */\n      swap3\n      pop\n        /* \"node_modules/abdk-libraries-solidity/ABDKMath64x64.sol\":21117:21151  0xFFFFFFFFFFFFFFFFFFFFFFFFFFFFFFFF */\n      0xffffffffffffffffffffffffffffffff\n        /* \"node_modules/abdk-libraries-solidity/ABDKMath64x64.sol\":21107:21113  result */\n      dup4\n        /* \"node_modules/abdk-libraries-solidity/ABDKMath64x64.sol\":21107:21151  result <= 0xFFFFFFFFFFFFFFFFFFFFFFFFFFFFFFFF */\n      gt\n      iszero\n        /* \"node_modules/abdk-libraries-solidity/ABDKMath64x64.sol\":21098:21152  require (result <= 0xFFFFFFFFFFFFFFFFFFFFFFFFFFFFFFFF) */\n      tag_205\n      jumpi\n      0x00\n      dup1\n      revert\n    tag_205:\n        /* \"node_modules/abdk-libraries-solidity/ABDKMath64x64.sol\":21161:21171  uint256 hi */\n      0x00\n        /* \"node_modules/abdk-libraries-solidity/ABDKMath64x64.sol\":21189:21192  128 */\n      0x80\n        /* \"node_modules/abdk-libraries-solidity/ABDKMath64x64.sol\":21184:21185  y */\n      dup7\n        /* \"node_modules/abdk-libraries-solidity/ABDKMath64x64.sol\":21184:21192  y >> 128 */\n      swap1\n      shr\n        /* \"node_modules/abdk-libraries-solidity/ABDKMath64x64.sol\":21174:21180  result */\n      dup5\n        /* \"node_modules/abdk-libraries-solidity/ABDKMath64x64.sol\":21174:21193  result * (y >> 128) */\n      mul\n        /* \"node_modules/abdk-libraries-solidity/ABDKMath64x64.sol\":21161:21193  uint256 hi = result * (y >> 128) */\n      swap1\n      pop\n        /* \"node_modules/abdk-libraries-solidity/ABDKMath64x64.sol\":21201:21211  uint256 lo */\n      0x00\n        /* \"node_modules/abdk-libraries-solidity/ABDKMath64x64.sol\":21228:21262  0xFFFFFFFFFFFFFFFFFFFFFFFFFFFFFFFF */\n      0xffffffffffffffffffffffffffffffff\n        /* \"node_modules/abdk-libraries-solidity/ABDKMath64x64.sol\":21224:21225  y */\n      dup8\n        /* \"node_modules/abdk-libraries-solidity/ABDKMath64x64.sol\":21224:21262  y & 0xFFFFFFFFFFFFFFFFFFFFFFFFFFFFFFFF */\n      and\n        /* \"node_modules/abdk-libraries-solidity/ABDKMath64x64.sol\":21214:21220  result */\n      dup6\n        /* \"node_modules/abdk-libraries-solidity/ABDKMath64x64.sol\":21214:21263  result * (y & 0xFFFFFFFFFFFFFFFFFFFFFFFFFFFFFFFF) */\n      mul\n        /* \"node_modules/abdk-libraries-solidity/ABDKMath64x64.sol\":21201:21263  uint256 lo = result * (y & 0xFFFFFFFFFFFFFFFFFFFFFFFFFFFFFFFF) */\n      swap1\n      pop\n        /* \"node_modules/abdk-libraries-solidity/ABDKMath64x64.sol\":21272:21282  uint256 xh */\n      0x00\n        /* \"node_modules/abdk-libraries-solidity/ABDKMath64x64.sol\":21290:21293  192 */\n      0xc0\n        /* \"node_modules/abdk-libraries-solidity/ABDKMath64x64.sol\":21285:21286  x */\n      dup10\n        /* \"node_modules/abdk-libraries-solidity/ABDKMath64x64.sol\":21285:21293  x >> 192 */\n      swap1\n      shr\n        /* \"node_modules/abdk-libraries-solidity/ABDKMath64x64.sol\":21272:21293  uint256 xh = x >> 192 */\n      swap1\n      pop\n        /* \"node_modules/abdk-libraries-solidity/ABDKMath64x64.sol\":21301:21311  uint256 xl */\n      0x00\n        /* \"node_modules/abdk-libraries-solidity/ABDKMath64x64.sol\":21319:21321  64 */\n      0x40\n        /* \"node_modules/abdk-libraries-solidity/ABDKMath64x64.sol\":21314:21315  x */\n      dup11\n        /* \"node_modules/abdk-libraries-solidity/ABDKMath64x64.sol\":21314:21321  x << 64 */\n      swap1\n      shl\n        /* \"node_modules/abdk-libraries-solidity/ABDKMath64x64.sol\":21301:21321  uint256 xl = x << 64 */\n      swap1\n      pop\n        /* \"node_modules/abdk-libraries-solidity/ABDKMath64x64.sol\":21339:21341  lo */\n      dup3\n        /* \"node_modules/abdk-libraries-solidity/ABDKMath64x64.sol\":21334:21336  xl */\n      dup2\n        /* \"node_modules/abdk-libraries-solidity/ABDKMath64x64.sol\":21334:21341  xl < lo */\n      lt\n        /* \"node_modules/abdk-libraries-solidity/ABDKMath64x64.sol\":21330:21350  if (xl < lo) xh -= 1 */\n      iszero\n      tag_206\n      jumpi\n        /* \"node_modules/abdk-libraries-solidity/ABDKMath64x64.sol\":21349:21350  1 */\n      0x01\n        /* \"node_modules/abdk-libraries-solidity/ABDKMath64x64.sol\":21343:21350  xh -= 1 */\n      dup3\n      sub\n      swap2\n      pop\n        /* \"node_modules/abdk-libraries-solidity/ABDKMath64x64.sol\":21330:21350  if (xl < lo) xh -= 1 */\n    tag_206:\n        /* \"node_modules/abdk-libraries-solidity/ABDKMath64x64.sol\":21364:21366  lo */\n      dup3\n        /* \"node_modules/abdk-libraries-solidity/ABDKMath64x64.sol\":21358:21366  xl -= lo */\n      dup2\n      sub\n      swap1\n      pop\n        /* \"node_modules/abdk-libraries-solidity/ABDKMath64x64.sol\":21422:21425  128 */\n      0x80\n        /* \"node_modules/abdk-libraries-solidity/ABDKMath64x64.sol\":21416:21418  hi */\n      dup5\n        /* \"node_modules/abdk-libraries-solidity/ABDKMath64x64.sol\":21416:21425  hi << 128 */\n      swap1\n      shl\n        /* \"node_modules/abdk-libraries-solidity/ABDKMath64x64.sol\":21411:21425  lo = hi << 128 */\n      swap3\n      pop\n        /* \"node_modules/abdk-libraries-solidity/ABDKMath64x64.sol\":21442:21444  lo */\n      dup3\n        /* \"node_modules/abdk-libraries-solidity/ABDKMath64x64.sol\":21437:21439  xl */\n      dup2\n        /* \"node_modules/abdk-libraries-solidity/ABDKMath64x64.sol\":21437:21444  xl < lo */\n      lt\n        /* \"node_modules/abdk-libraries-solidity/ABDKMath64x64.sol\":21433:21453  if (xl < lo) xh -= 1 */\n      iszero\n      tag_207\n      jumpi\n        /* \"node_modules/abdk-libraries-solidity/ABDKMath64x64.sol\":21452:21453  1 */\n      0x01\n        /* \"node_modules/abdk-libraries-solidity/ABDKMath64x64.sol\":21446:21453  xh -= 1 */\n      dup3\n      sub\n      swap2\n      pop\n        /* \"node_modules/abdk-libraries-solidity/ABDKMath64x64.sol\":21433:21453  if (xl < lo) xh -= 1 */\n    tag_207:\n        /* \"node_modules/abdk-libraries-solidity/ABDKMath64x64.sol\":21467:21469  lo */\n      dup3\n        /* \"node_modules/abdk-libraries-solidity/ABDKMath64x64.sol\":21461:21469  xl -= lo */\n      dup2\n      sub\n      swap1\n      pop\n        /* \"node_modules/abdk-libraries-solidity/ABDKMath64x64.sol\":21535:21538  128 */\n      0x80\n        /* \"node_modules/abdk-libraries-solidity/ABDKMath64x64.sol\":21529:21531  hi */\n      dup5\n        /* \"node_modules/abdk-libraries-solidity/ABDKMath64x64.sol\":21529:21538  hi >> 128 */\n      swap1\n      shr\n        /* \"node_modules/abdk-libraries-solidity/ABDKMath64x64.sol\":21523:21525  xh */\n      dup3\n        /* \"node_modules/abdk-libraries-solidity/ABDKMath64x64.sol\":21523:21538  xh == hi >> 128 */\n      eq\n        /* \"node_modules/abdk-libraries-solidity/ABDKMath64x64.sol\":21515:21539  assert (xh == hi >> 128) */\n      tag_208\n      jumpi\n      invalid\n    tag_208:\n        /* \"node_modules/abdk-libraries-solidity/ABDKMath64x64.sol\":21563:21564  y */\n      dup9\n        /* \"node_modules/abdk-libraries-solidity/ABDKMath64x64.sol\":21558:21560  xl */\n      dup2\n        /* \"node_modules/abdk-libraries-solidity/ABDKMath64x64.sol\":21558:21564  xl / y */\n      dup2\n      tag_209\n      jumpi\n      invalid\n    tag_209:\n      div\n        /* \"node_modules/abdk-libraries-solidity/ABDKMath64x64.sol\":21548:21564  result += xl / y */\n      dup8\n      add\n      swap7\n      pop\n        /* \"node_modules/abdk-libraries-solidity/ABDKMath64x64.sol\":20566:21571  if (x <= 0xFFFFFFFFFFFFFFFFFFFFFFFFFFFFFFFFFFFFFFFFFFFFFFFF)... */\n      pop\n      pop\n      pop\n      pop\n      pop\n      pop\n    tag_197:\n        /* \"node_modules/abdk-libraries-solidity/ABDKMath64x64.sol\":21596:21630  0xFFFFFFFFFFFFFFFFFFFFFFFFFFFFFFFF */\n      0xffffffffffffffffffffffffffffffff\n        /* \"node_modules/abdk-libraries-solidity/ABDKMath64x64.sol\":21586:21592  result */\n      dup2\n        /* \"node_modules/abdk-libraries-solidity/ABDKMath64x64.sol\":21586:21630  result <= 0xFFFFFFFFFFFFFFFFFFFFFFFFFFFFFFFF */\n      gt\n      iszero\n        /* \"node_modules/abdk-libraries-solidity/ABDKMath64x64.sol\":21577:21631  require (result <= 0xFFFFFFFFFFFFFFFFFFFFFFFFFFFFFFFF) */\n      tag_210\n      jumpi\n      0x00\n      dup1\n      revert\n    tag_210:\n        /* \"node_modules/abdk-libraries-solidity/ABDKMath64x64.sol\":21653:21659  result */\n      dup1\n        /* \"node_modules/abdk-libraries-solidity/ABDKMath64x64.sol\":21637:21660  return uint128 (result) */\n      swap2\n      pop\n      pop\n        /* \"node_modules/abdk-libraries-solidity/ABDKMath64x64.sol\":20447:21665  function divuu (uint256 x, uint256 y) private pure returns (uint128) {... */\n      swap3\n      swap2\n      pop\n      pop\n      jump\t// out\n        /* \"@openzeppelin/contracts-upgradeable/utils/EnumerableSetUpgradeable.sol\":6440:6590  function add(AddressSet storage set, address value) internal returns (bool) {... */\n    tag_159:\n        /* \"@openzeppelin/contracts-upgradeable/utils/EnumerableSetUpgradeable.sol\":6510:6514  bool */\n      0x00\n        /* \"@openzeppelin/contracts-upgradeable/utils/EnumerableSetUpgradeable.sol\":6533:6583  _add(set._inner, bytes32(uint256(uint160(value)))) */\n      tag_212\n        /* \"@openzeppelin/contracts-upgradeable/utils/EnumerableSetUpgradeable.sol\":6538:6541  set */\n      dup4\n        /* \"@openzeppelin/contracts-upgradeable/utils/EnumerableSetUpgradeable.sol\":6538:6548  set._inner */\n      0x00\n      add\n        /* \"@openzeppelin/contracts-upgradeable/utils/EnumerableSetUpgradeable.sol\":6574:6579  value */\n      dup4\n        /* \"@openzeppelin/contracts-upgradeable/utils/EnumerableSetUpgradeable.sol\":6558:6581  uint256(uint160(value)) */\n      0xffffffffffffffffffffffffffffffffffffffff\n      and\n        /* \"@openzeppelin/contracts-upgradeable/utils/EnumerableSetUpgradeable.sol\":6550:6582  bytes32(uint256(uint160(value))) */\n      0x00\n      shl\n        /* \"@openzeppelin/contracts-upgradeable/utils/EnumerableSetUpgradeable.sol\":6533:6537  _add */\n      tag_213\n        /* \"@openzeppelin/contracts-upgradeable/utils/EnumerableSetUpgradeable.sol\":6533:6583  _add(set._inner, bytes32(uint256(uint160(value)))) */\n      jump\t// in\n    tag_212:\n        /* \"@openzeppelin/contracts-upgradeable/utils/EnumerableSetUpgradeable.sol\":6526:6583  return _add(set._inner, bytes32(uint256(uint160(value)))) */\n      swap1\n      pop\n        /* \"@openzeppelin/contracts-upgradeable/utils/EnumerableSetUpgradeable.sol\":6440:6590  function add(AddressSet storage set, address value) internal returns (bool) {... */\n      swap3\n      swap2\n      pop\n      pop\n      jump\t// out\n        /* \"@openzeppelin/contracts-upgradeable/utils/EnumerableSetUpgradeable.sol\":6758:6914  function remove(AddressSet storage set, address value) internal returns (bool) {... */\n    tag_164:\n        /* \"@openzeppelin/contracts-upgradeable/utils/EnumerableSetUpgradeable.sol\":6831:6835  bool */\n      0x00\n        /* \"@openzeppelin/contracts-upgradeable/utils/EnumerableSetUpgradeable.sol\":6854:6907  _remove(set._inner, bytes32(uint256(uint160(value)))) */\n      tag_215\n        /* \"@openzeppelin/contracts-upgradeable/utils/EnumerableSetUpgradeable.sol\":6862:6865  set */\n      dup4\n        /* \"@openzeppelin/contracts-upgradeable/utils/EnumerableSetUpgradeable.sol\":6862:6872  set._inner */\n      0x00\n      add\n        /* \"@openzeppelin/contracts-upgradeable/utils/EnumerableSetUpgradeable.sol\":6898:6903  value */\n      dup4\n        /* \"@openzeppelin/contracts-upgradeable/utils/EnumerableSetUpgradeable.sol\":6882:6905  uint256(uint160(value)) */\n      0xffffffffffffffffffffffffffffffffffffffff\n      and\n        /* \"@openzeppelin/contracts-upgradeable/utils/EnumerableSetUpgradeable.sol\":6874:6906  bytes32(uint256(uint160(value))) */\n      0x00\n      shl\n        /* \"@openzeppelin/contracts-upgradeable/utils/EnumerableSetUpgradeable.sol\":6854:6861  _remove */\n      tag_216\n        /* \"@openzeppelin/contracts-upgradeable/utils/EnumerableSetUpgradeable.sol\":6854:6907  _remove(set._inner, bytes32(uint256(uint160(value)))) */\n      jump\t// in\n    tag_215:\n        /* \"@openzeppelin/contracts-upgradeable/utils/EnumerableSetUpgradeable.sol\":6847:6907  return _remove(set._inner, bytes32(uint256(uint160(value)))) */\n      swap1\n      pop\n        /* \"@openzeppelin/contracts-upgradeable/utils/EnumerableSetUpgradeable.sol\":6758:6914  function remove(AddressSet storage set, address value) internal returns (bool) {... */\n      swap3\n      swap2\n      pop\n      pop\n      jump\t// out\n        /* \"@openzeppelin/contracts-upgradeable/utils/AddressUpgradeable.sol\":737:1150  function isContract(address account) internal view returns (bool) {... */\n    tag_169:\n        /* \"@openzeppelin/contracts-upgradeable/utils/AddressUpgradeable.sol\":797:801  bool */\n      0x00\n        /* \"@openzeppelin/contracts-upgradeable/utils/AddressUpgradeable.sol\":1000:1012  uint256 size */\n      dup1\n        /* \"@openzeppelin/contracts-upgradeable/utils/AddressUpgradeable.sol\":1109:1116  account */\n      dup3\n        /* \"@openzeppelin/contracts-upgradeable/utils/AddressUpgradeable.sol\":1097:1117  extcodesize(account) */\n      extcodesize\n        /* \"@openzeppelin/contracts-upgradeable/utils/AddressUpgradeable.sol\":1089:1117  size := extcodesize(account) */\n      swap1\n      pop\n        /* \"@openzeppelin/contracts-upgradeable/utils/AddressUpgradeable.sol\":1142:1143  0 */\n      0x00\n        /* \"@openzeppelin/contracts-upgradeable/utils/AddressUpgradeable.sol\":1135:1139  size */\n      dup2\n        /* \"@openzeppelin/contracts-upgradeable/utils/AddressUpgradeable.sol\":1135:1143  size > 0 */\n      gt\n        /* \"@openzeppelin/contracts-upgradeable/utils/AddressUpgradeable.sol\":1128:1143  return size > 0 */\n      swap2\n      pop\n      pop\n        /* \"@openzeppelin/contracts-upgradeable/utils/AddressUpgradeable.sol\":737:1150  function isContract(address account) internal view returns (bool) {... */\n      swap2\n      swap1\n      pop\n      jump\t// out\n        /* \"@openzeppelin/contracts-upgradeable/utils/ContextUpgradeable.sol\":759:823  function __Context_init_unchained() internal initializer {... */\n    tag_178:\n        /* \"@openzeppelin/contracts-upgradeable/proxy/Initializable.sol\":1512:1525  _initializing */\n      0x00\n      0x01\n      swap1\n      sload\n      swap1\n      0x0100\n      exp\n      swap1\n      div\n      0xff\n      and\n        /* \"@openzeppelin/contracts-upgradeable/proxy/Initializable.sol\":1512:1545  _initializing || _isConstructor() */\n      dup1\n      tag_219\n      jumpi\n      pop\n        /* \"@openzeppelin/contracts-upgradeable/proxy/Initializable.sol\":1529:1545  _isConstructor() */\n      tag_220\n        /* \"@openzeppelin/contracts-upgradeable/proxy/Initializable.sol\":1529:1543  _isConstructor */\n      tag_122\n        /* \"@openzeppelin/contracts-upgradeable/proxy/Initializable.sol\":1529:1545  _isConstructor() */\n      jump\t// in\n    tag_220:\n        /* \"@openzeppelin/contracts-upgradeable/proxy/Initializable.sol\":1512:1545  _initializing || _isConstructor() */\n    tag_219:\n        /* \"@openzeppelin/contracts-upgradeable/proxy/Initializable.sol\":1512:1562  _initializing || _isConstructor() || !_initialized */\n      dup1\n      tag_221\n      jumpi\n      pop\n        /* \"@openzeppelin/contracts-upgradeable/proxy/Initializable.sol\":1550:1562  _initialized */\n      0x00\n      dup1\n      sload\n      swap1\n      0x0100\n      exp\n      swap1\n      div\n      0xff\n      and\n        /* \"@openzeppelin/contracts-upgradeable/proxy/Initializable.sol\":1549:1562  !_initialized */\n      iszero\n        /* \"@openzeppelin/contracts-upgradeable/proxy/Initializable.sol\":1512:1562  _initializing || _isConstructor() || !_initialized */\n    tag_221:\n        /* \"@openzeppelin/contracts-upgradeable/proxy/Initializable.sol\":1504:1613  require(_initializing || _isConstructor() || !_initialized, \"Initializable: contract is already initialized\") */\n      tag_222\n      jumpi\n      mload(0x40)\n      0x08c379a000000000000000000000000000000000000000000000000000000000\n      dup2\n      mstore\n      0x04\n      add\n      dup1\n      dup1\n      0x20\n      add\n      dup3\n      dup2\n      sub\n      dup3\n      mstore\n      0x2e\n      dup2\n      mstore\n      0x20\n      add\n      dup1\n      data_7a2a4e26842155ea933fe6eb6e3137eb5a296dcdf55721c552be7b4c3cc23759\n      0x2e\n      swap2\n      codecopy\n      0x40\n      add\n      swap2\n      pop\n      pop\n      mload(0x40)\n      dup1\n      swap2\n      sub\n      swap1\n      revert\n    tag_222:\n        /* \"@openzeppelin/contracts-upgradeable/proxy/Initializable.sol\":1624:1643  bool isTopLevelCall */\n      0x00\n        /* \"@openzeppelin/contracts-upgradeable/proxy/Initializable.sol\":1647:1660  _initializing */\n      dup1\n      0x01\n      swap1\n      sload\n      swap1\n      0x0100\n      exp\n      swap1\n      div\n      0xff\n      and\n        /* \"@openzeppelin/contracts-upgradeable/proxy/Initializable.sol\":1646:1660  !_initializing */\n      iszero\n        /* \"@openzeppelin/contracts-upgradeable/proxy/Initializable.sol\":1624:1660  bool isTopLevelCall = !_initializing */\n      swap1\n      pop\n        /* \"@openzeppelin/contracts-upgradeable/proxy/Initializable.sol\":1674:1688  isTopLevelCall */\n      dup1\n        /* \"@openzeppelin/contracts-upgradeable/proxy/Initializable.sol\":1670:1768  if (isTopLevelCall) {... */\n      iszero\n      tag_223\n      jumpi\n        /* \"@openzeppelin/contracts-upgradeable/proxy/Initializable.sol\":1720:1724  true */\n      0x01\n        /* \"@openzeppelin/contracts-upgradeable/proxy/Initializable.sol\":1704:1717  _initializing */\n      0x00\n      0x01\n        /* \"@openzeppelin/contracts-upgradeable/proxy/Initializable.sol\":1704:1724  _initializing = true */\n      0x0100\n      exp\n      dup2\n      sload\n      dup2\n      0xff\n      mul\n      not\n      and\n      swap1\n      dup4\n      iszero\n      iszero\n      mul\n      or\n      swap1\n      sstore\n      pop\n        /* \"@openzeppelin/contracts-upgradeable/proxy/Initializable.sol\":1753:1757  true */\n      0x01\n        /* \"@openzeppelin/contracts-upgradeable/proxy/Initializable.sol\":1738:1750  _initialized */\n      0x00\n      dup1\n        /* \"@openzeppelin/contracts-upgradeable/proxy/Initializable.sol\":1738:1757  _initialized = true */\n      0x0100\n      exp\n      dup2\n      sload\n      dup2\n      0xff\n      mul\n      not\n      and\n      swap1\n      dup4\n      iszero\n      iszero\n      mul\n      or\n      swap1\n      sstore\n      pop\n        /* \"@openzeppelin/contracts-upgradeable/proxy/Initializable.sol\":1670:1768  if (isTopLevelCall) {... */\n    tag_223:\n        /* \"@openzeppelin/contracts-upgradeable/proxy/Initializable.sol\":1794:1808  isTopLevelCall */\n      dup1\n        /* \"@openzeppelin/contracts-upgradeable/proxy/Initializable.sol\":1790:1856  if (isTopLevelCall) {... */\n      iszero\n      tag_225\n      jumpi\n        /* \"@openzeppelin/contracts-upgradeable/proxy/Initializable.sol\":1840:1845  false */\n      0x00\n        /* \"@openzeppelin/contracts-upgradeable/proxy/Initializable.sol\":1824:1837  _initializing */\n      dup1\n      0x01\n        /* \"@openzeppelin/contracts-upgradeable/proxy/Initializable.sol\":1824:1845  _initializing = false */\n      0x0100\n      exp\n      dup2\n      sload\n      dup2\n      0xff\n      mul\n      not\n      and\n      swap1\n      dup4\n      iszero\n      iszero\n      mul\n      or\n      swap1\n      sstore\n      pop\n        /* \"@openzeppelin/contracts-upgradeable/proxy/Initializable.sol\":1790:1856  if (isTopLevelCall) {... */\n    tag_225:\n        /* \"@openzeppelin/contracts-upgradeable/utils/ContextUpgradeable.sol\":759:823  function __Context_init_unchained() internal initializer {... */\n      pop\n      jump\t// out\n        /* \"@openzeppelin/contracts-upgradeable/access/AccessControlUpgradeable.sol\":1743:1813  function __AccessControl_init_unchained() internal initializer {... */\n    tag_180:\n        /* \"@openzeppelin/contracts-upgradeable/proxy/Initializable.sol\":1512:1525  _initializing */\n      0x00\n      0x01\n      swap1\n      sload\n      swap1\n      0x0100\n      exp\n      swap1\n      div\n      0xff\n      and\n        /* \"@openzeppelin/contracts-upgradeable/proxy/Initializable.sol\":1512:1545  _initializing || _isConstructor() */\n      dup1\n      tag_227\n      jumpi\n      pop\n        /* \"@openzeppelin/contracts-upgradeable/proxy/Initializable.sol\":1529:1545  _isConstructor() */\n      tag_228\n        /* \"@openzeppelin/contracts-upgradeable/proxy/Initializable.sol\":1529:1543  _isConstructor */\n      tag_122\n        /* \"@openzeppelin/contracts-upgradeable/proxy/Initializable.sol\":1529:1545  _isConstructor() */\n      jump\t// in\n    tag_228:\n        /* \"@openzeppelin/contracts-upgradeable/proxy/Initializable.sol\":1512:1545  _initializing || _isConstructor() */\n    tag_227:\n        /* \"@openzeppelin/contracts-upgradeable/proxy/Initializable.sol\":1512:1562  _initializing || _isConstructor() || !_initialized */\n      dup1\n      tag_229\n      jumpi\n      pop\n        /* \"@openzeppelin/contracts-upgradeable/proxy/Initializable.sol\":1550:1562  _initialized */\n      0x00\n      dup1\n      sload\n      swap1\n      0x0100\n      exp\n      swap1\n      div\n      0xff\n      and\n        /* \"@openzeppelin/contracts-upgradeable/proxy/Initializable.sol\":1549:1562  !_initialized */\n      iszero\n        /* \"@openzeppelin/contracts-upgradeable/proxy/Initializable.sol\":1512:1562  _initializing || _isConstructor() || !_initialized */\n    tag_229:\n        /* \"@openzeppelin/contracts-upgradeable/proxy/Initializable.sol\":1504:1613  require(_initializing || _isConstructor() || !_initialized, \"Initializable: contract is already initialized\") */\n      tag_230\n      jumpi\n      mload(0x40)\n      0x08c379a000000000000000000000000000000000000000000000000000000000\n      dup2\n      mstore\n      0x04\n      add\n      dup1\n      dup1\n      0x20\n      add\n      dup3\n      dup2\n      sub\n      dup3\n      mstore\n      0x2e\n      dup2\n      mstore\n      0x20\n      add\n      dup1\n      data_7a2a4e26842155ea933fe6eb6e3137eb5a296dcdf55721c552be7b4c3cc23759\n      0x2e\n      swap2\n      codecopy\n      0x40\n      add\n      swap2\n      pop\n      pop\n      mload(0x40)\n      dup1\n      swap2\n      sub\n      swap1\n      revert\n    tag_230:\n        /* \"@openzeppelin/contracts-upgradeable/proxy/Initializable.sol\":1624:1643  bool isTopLevelCall */\n      0x00\n        /* \"@openzeppelin/contracts-upgradeable/proxy/Initializable.sol\":1647:1660  _initializing */\n      dup1\n      0x01\n      swap1\n      sload\n      swap1\n      0x0100\n      exp\n      swap1\n      div\n      0xff\n      and\n        /* \"@openzeppelin/contracts-upgradeable/proxy/Initializable.sol\":1646:1660  !_initializing */\n      iszero\n        /* \"@openzeppelin/contracts-upgradeable/proxy/Initializable.sol\":1624:1660  bool isTopLevelCall = !_initializing */\n      swap1\n      pop\n        /* \"@openzeppelin/contracts-upgradeable/proxy/Initializable.sol\":1674:1688  isTopLevelCall */\n      dup1\n        /* \"@openzeppelin/contracts-upgradeable/proxy/Initializable.sol\":1670:1768  if (isTopLevelCall) {... */\n      iszero\n      tag_231\n      jumpi\n        /* \"@openzeppelin/contracts-upgradeable/proxy/Initializable.sol\":1720:1724  true */\n      0x01\n        /* \"@openzeppelin/contracts-upgradeable/proxy/Initializable.sol\":1704:1717  _initializing */\n      0x00\n      0x01\n        /* \"@openzeppelin/contracts-upgradeable/proxy/Initializable.sol\":1704:1724  _initializing = true */\n      0x0100\n      exp\n      dup2\n      sload\n      dup2\n      0xff\n      mul\n      not\n      and\n      swap1\n      dup4\n      iszero\n      iszero\n      mul\n      or\n      swap1\n      sstore\n      pop\n        /* \"@openzeppelin/contracts-upgradeable/proxy/Initializable.sol\":1753:1757  true */\n      0x01\n        /* \"@openzeppelin/contracts-upgradeable/proxy/Initializable.sol\":1738:1750  _initialized */\n      0x00\n      dup1\n        /* \"@openzeppelin/contracts-upgradeable/proxy/Initializable.sol\":1738:1757  _initialized = true */\n      0x0100\n      exp\n      dup2\n      sload\n      dup2\n      0xff\n      mul\n      not\n      and\n      swap1\n      dup4\n      iszero\n      iszero\n      mul\n      or\n      swap1\n      sstore\n      pop\n        /* \"@openzeppelin/contracts-upgradeable/proxy/Initializable.sol\":1670:1768  if (isTopLevelCall) {... */\n    tag_231:\n        /* \"@openzeppelin/contracts-upgradeable/proxy/Initializable.sol\":1794:1808  isTopLevelCall */\n      dup1\n        /* \"@openzeppelin/contracts-upgradeable/proxy/Initializable.sol\":1790:1856  if (isTopLevelCall) {... */\n      iszero\n      tag_233\n      jumpi\n        /* \"@openzeppelin/contracts-upgradeable/proxy/Initializable.sol\":1840:1845  false */\n      0x00\n        /* \"@openzeppelin/contracts-upgradeable/proxy/Initializable.sol\":1824:1837  _initializing */\n      dup1\n      0x01\n        /* \"@openzeppelin/contracts-upgradeable/proxy/Initializable.sol\":1824:1845  _initializing = false */\n      0x0100\n      exp\n      dup2\n      sload\n      dup2\n      0xff\n      mul\n      not\n      and\n      swap1\n      dup4\n      iszero\n      iszero\n      mul\n      or\n      swap1\n      sstore\n      pop\n        /* \"@openzeppelin/contracts-upgradeable/proxy/Initializable.sol\":1790:1856  if (isTopLevelCall) {... */\n    tag_233:\n        /* \"@openzeppelin/contracts-upgradeable/access/AccessControlUpgradeable.sol\":1743:1813  function __AccessControl_init_unchained() internal initializer {... */\n      pop\n      jump\t// out\n        /* \"@openzeppelin/contracts-upgradeable/utils/EnumerableSetUpgradeable.sol\":4463:4664  function _at(Set storage set, uint256 index) private view returns (bytes32) {... */\n    tag_186:\n        /* \"@openzeppelin/contracts-upgradeable/utils/EnumerableSetUpgradeable.sol\":4530:4537  bytes32 */\n      0x00\n        /* \"@openzeppelin/contracts-upgradeable/utils/EnumerableSetUpgradeable.sol\":4578:4583  index */\n      dup2\n        /* \"@openzeppelin/contracts-upgradeable/utils/EnumerableSetUpgradeable.sol\":4557:4560  set */\n      dup4\n        /* \"@openzeppelin/contracts-upgradeable/utils/EnumerableSetUpgradeable.sol\":4557:4568  set._values */\n      0x00\n      add\n        /* \"@openzeppelin/contracts-upgradeable/utils/EnumerableSetUpgradeable.sol\":4557:4575  set._values.length */\n      dup1\n      sload\n      swap1\n      pop\n        /* \"@openzeppelin/contracts-upgradeable/utils/EnumerableSetUpgradeable.sol\":4557:4583  set._values.length > index */\n      gt\n        /* \"@openzeppelin/contracts-upgradeable/utils/EnumerableSetUpgradeable.sol\":4549:4622  require(set._values.length > index, \"EnumerableSet: index out of bounds\") */\n      tag_235\n      jumpi\n      mload(0x40)\n      0x08c379a000000000000000000000000000000000000000000000000000000000\n      dup2\n      mstore\n      0x04\n      add\n      dup1\n      dup1\n      0x20\n      add\n      dup3\n      dup2\n      sub\n      dup3\n      mstore\n      0x22\n      dup2\n      mstore\n      0x20\n      add\n      dup1\n      data_045d6834e6193a687012a3ad777f612279e549b6945364d9d2324f48610d3cbb\n      0x22\n      swap2\n      codecopy\n      0x40\n      add\n      swap2\n      pop\n      pop\n      mload(0x40)\n      dup1\n      swap2\n      sub\n      swap1\n      revert\n    tag_235:\n        /* \"@openzeppelin/contracts-upgradeable/utils/EnumerableSetUpgradeable.sol\":4639:4642  set */\n      dup3\n        /* \"@openzeppelin/contracts-upgradeable/utils/EnumerableSetUpgradeable.sol\":4639:4650  set._values */\n      0x00\n      add\n        /* \"@openzeppelin/contracts-upgradeable/utils/EnumerableSetUpgradeable.sol\":4651:4656  index */\n      dup3\n        /* \"@openzeppelin/contracts-upgradeable/utils/EnumerableSetUpgradeable.sol\":4639:4657  set._values[index] */\n      dup2\n      sload\n      dup2\n      lt\n      tag_236\n      jumpi\n      invalid\n    tag_236:\n      swap1\n      0x00\n      mstore\n      keccak256(0x00, 0x20)\n      add\n      sload\n        /* \"@openzeppelin/contracts-upgradeable/utils/EnumerableSetUpgradeable.sol\":4632:4657  return set._values[index] */\n      swap1\n      pop\n        /* \"@openzeppelin/contracts-upgradeable/utils/EnumerableSetUpgradeable.sol\":4463:4664  function _at(Set storage set, uint256 index) private view returns (bytes32) {... */\n      swap3\n      swap2\n      pop\n      pop\n      jump\t// out\n        /* \"@openzeppelin/contracts-upgradeable/utils/EnumerableSetUpgradeable.sol\":3816:3943  function _contains(Set storage set, bytes32 value) private view returns (bool) {... */\n    tag_189:\n        /* \"@openzeppelin/contracts-upgradeable/utils/EnumerableSetUpgradeable.sol\":3889:3893  bool */\n      0x00\n        /* \"@openzeppelin/contracts-upgradeable/utils/EnumerableSetUpgradeable.sol\":3935:3936  0 */\n      dup1\n        /* \"@openzeppelin/contracts-upgradeable/utils/EnumerableSetUpgradeable.sol\":3912:3915  set */\n      dup4\n        /* \"@openzeppelin/contracts-upgradeable/utils/EnumerableSetUpgradeable.sol\":3912:3924  set._indexes */\n      0x01\n      add\n        /* \"@openzeppelin/contracts-upgradeable/utils/EnumerableSetUpgradeable.sol\":3912:3931  set._indexes[value] */\n      0x00\n        /* \"@openzeppelin/contracts-upgradeable/utils/EnumerableSetUpgradeable.sol\":3925:3930  value */\n      dup5\n        /* \"@openzeppelin/contracts-upgradeable/utils/EnumerableSetUpgradeable.sol\":3912:3931  set._indexes[value] */\n      dup2\n      mstore\n      0x20\n      add\n      swap1\n      dup2\n      mstore\n      0x20\n      add\n      0x00\n      keccak256\n      sload\n        /* \"@openzeppelin/contracts-upgradeable/utils/EnumerableSetUpgradeable.sol\":3912:3936  set._indexes[value] != 0 */\n      eq\n      iszero\n        /* \"@openzeppelin/contracts-upgradeable/utils/EnumerableSetUpgradeable.sol\":3905:3936  return set._indexes[value] != 0 */\n      swap1\n      pop\n        /* \"@openzeppelin/contracts-upgradeable/utils/EnumerableSetUpgradeable.sol\":3816:3943  function _contains(Set storage set, bytes32 value) private view returns (bool) {... */\n      swap3\n      swap2\n      pop\n      pop\n      jump\t// out\n        /* \"@openzeppelin/contracts-upgradeable/utils/EnumerableSetUpgradeable.sol\":4024:4131  function _length(Set storage set) private view returns (uint256) {... */\n    tag_192:\n        /* \"@openzeppelin/contracts-upgradeable/utils/EnumerableSetUpgradeable.sol\":4080:4087  uint256 */\n      0x00\n        /* \"@openzeppelin/contracts-upgradeable/utils/EnumerableSetUpgradeable.sol\":4106:4109  set */\n      dup2\n        /* \"@openzeppelin/contracts-upgradeable/utils/EnumerableSetUpgradeable.sol\":4106:4117  set._values */\n      0x00\n      add\n        /* \"@openzeppelin/contracts-upgradeable/utils/EnumerableSetUpgradeable.sol\":4106:4124  set._values.length */\n      dup1\n      sload\n      swap1\n      pop\n        /* \"@openzeppelin/contracts-upgradeable/utils/EnumerableSetUpgradeable.sol\":4099:4124  return set._values.length */\n      swap1\n      pop\n        /* \"@openzeppelin/contracts-upgradeable/utils/EnumerableSetUpgradeable.sol\":4024:4131  function _length(Set storage set) private view returns (uint256) {... */\n      swap2\n      swap1\n      pop\n      jump\t// out\n        /* \"@openzeppelin/contracts-upgradeable/utils/EnumerableSetUpgradeable.sol\":1651:2055  function _add(Set storage set, bytes32 value) private returns (bool) {... */\n    tag_213:\n        /* \"@openzeppelin/contracts-upgradeable/utils/EnumerableSetUpgradeable.sol\":1714:1718  bool */\n      0x00\n        /* \"@openzeppelin/contracts-upgradeable/utils/EnumerableSetUpgradeable.sol\":1735:1756  _contains(set, value) */\n      tag_241\n        /* \"@openzeppelin/contracts-upgradeable/utils/EnumerableSetUpgradeable.sol\":1745:1748  set */\n      dup4\n        /* \"@openzeppelin/contracts-upgradeable/utils/EnumerableSetUpgradeable.sol\":1750:1755  value */\n      dup4\n        /* \"@openzeppelin/contracts-upgradeable/utils/EnumerableSetUpgradeable.sol\":1735:1744  _contains */\n      tag_189\n        /* \"@openzeppelin/contracts-upgradeable/utils/EnumerableSetUpgradeable.sol\":1735:1756  _contains(set, value) */\n      jump\t// in\n    tag_241:\n        /* \"@openzeppelin/contracts-upgradeable/utils/EnumerableSetUpgradeable.sol\":1730:2049  if (!_contains(set, value)) {... */\n      tag_242\n      jumpi\n        /* \"@openzeppelin/contracts-upgradeable/utils/EnumerableSetUpgradeable.sol\":1772:1775  set */\n      dup3\n        /* \"@openzeppelin/contracts-upgradeable/utils/EnumerableSetUpgradeable.sol\":1772:1783  set._values */\n      0x00\n      add\n        /* \"@openzeppelin/contracts-upgradeable/utils/EnumerableSetUpgradeable.sol\":1789:1794  value */\n      dup3\n        /* \"@openzeppelin/contracts-upgradeable/utils/EnumerableSetUpgradeable.sol\":1772:1795  set._values.push(value) */\n      swap1\n      dup1\n      0x01\n      dup2\n      sload\n      add\n      dup1\n      dup3\n      sstore\n      dup1\n      swap2\n      pop\n      pop\n      0x01\n      swap1\n      sub\n      swap1\n      0x00\n      mstore\n      keccak256(0x00, 0x20)\n      add\n      0x00\n      swap1\n      swap2\n      swap1\n      swap2\n      swap1\n      swap2\n      pop\n      sstore\n        /* \"@openzeppelin/contracts-upgradeable/utils/EnumerableSetUpgradeable.sol\":1952:1955  set */\n      dup3\n        /* \"@openzeppelin/contracts-upgradeable/utils/EnumerableSetUpgradeable.sol\":1952:1963  set._values */\n      0x00\n      add\n        /* \"@openzeppelin/contracts-upgradeable/utils/EnumerableSetUpgradeable.sol\":1952:1970  set._values.length */\n      dup1\n      sload\n      swap1\n      pop\n        /* \"@openzeppelin/contracts-upgradeable/utils/EnumerableSetUpgradeable.sol\":1930:1933  set */\n      dup4\n        /* \"@openzeppelin/contracts-upgradeable/utils/EnumerableSetUpgradeable.sol\":1930:1942  set._indexes */\n      0x01\n      add\n        /* \"@openzeppelin/contracts-upgradeable/utils/EnumerableSetUpgradeable.sol\":1930:1949  set._indexes[value] */\n      0x00\n        /* \"@openzeppelin/contracts-upgradeable/utils/EnumerableSetUpgradeable.sol\":1943:1948  value */\n      dup5\n        /* \"@openzeppelin/contracts-upgradeable/utils/EnumerableSetUpgradeable.sol\":1930:1949  set._indexes[value] */\n      dup2\n      mstore\n      0x20\n      add\n      swap1\n      dup2\n      mstore\n      0x20\n      add\n      0x00\n      keccak256\n        /* \"@openzeppelin/contracts-upgradeable/utils/EnumerableSetUpgradeable.sol\":1930:1970  set._indexes[value] = set._values.length */\n      dup2\n      swap1\n      sstore\n      pop\n        /* \"@openzeppelin/contracts-upgradeable/utils/EnumerableSetUpgradeable.sol\":1991:1995  true */\n      0x01\n        /* \"@openzeppelin/contracts-upgradeable/utils/EnumerableSetUpgradeable.sol\":1984:1995  return true */\n      swap1\n      pop\n      jump(tag_240)\n        /* \"@openzeppelin/contracts-upgradeable/utils/EnumerableSetUpgradeable.sol\":1730:2049  if (!_contains(set, value)) {... */\n    tag_242:\n        /* \"@openzeppelin/contracts-upgradeable/utils/EnumerableSetUpgradeable.sol\":2033:2038  false */\n      0x00\n        /* \"@openzeppelin/contracts-upgradeable/utils/EnumerableSetUpgradeable.sol\":2026:2038  return false */\n      swap1\n      pop\n        /* \"@openzeppelin/contracts-upgradeable/utils/EnumerableSetUpgradeable.sol\":1651:2055  function _add(Set storage set, bytes32 value) private returns (bool) {... */\n    tag_240:\n      swap3\n      swap2\n      pop\n      pop\n      jump\t// out\n        /* \"@openzeppelin/contracts-upgradeable/utils/EnumerableSetUpgradeable.sol\":2223:3735  function _remove(Set storage set, bytes32 value) private returns (bool) {... */\n    tag_216:\n        /* \"@openzeppelin/contracts-upgradeable/utils/EnumerableSetUpgradeable.sol\":2289:2293  bool */\n      0x00\n        /* \"@openzeppelin/contracts-upgradeable/utils/EnumerableSetUpgradeable.sol\":2405:2423  uint256 valueIndex */\n      dup1\n        /* \"@openzeppelin/contracts-upgradeable/utils/EnumerableSetUpgradeable.sol\":2426:2429  set */\n      dup4\n        /* \"@openzeppelin/contracts-upgradeable/utils/EnumerableSetUpgradeable.sol\":2426:2438  set._indexes */\n      0x01\n      add\n        /* \"@openzeppelin/contracts-upgradeable/utils/EnumerableSetUpgradeable.sol\":2426:2445  set._indexes[value] */\n      0x00\n        /* \"@openzeppelin/contracts-upgradeable/utils/EnumerableSetUpgradeable.sol\":2439:2444  value */\n      dup5\n        /* \"@openzeppelin/contracts-upgradeable/utils/EnumerableSetUpgradeable.sol\":2426:2445  set._indexes[value] */\n      dup2\n      mstore\n      0x20\n      add\n      swap1\n      dup2\n      mstore\n      0x20\n      add\n      0x00\n      keccak256\n      sload\n        /* \"@openzeppelin/contracts-upgradeable/utils/EnumerableSetUpgradeable.sol\":2405:2445  uint256 valueIndex = set._indexes[value] */\n      swap1\n      pop\n        /* \"@openzeppelin/contracts-upgradeable/utils/EnumerableSetUpgradeable.sol\":2474:2475  0 */\n      0x00\n        /* \"@openzeppelin/contracts-upgradeable/utils/EnumerableSetUpgradeable.sol\":2460:2470  valueIndex */\n      dup2\n        /* \"@openzeppelin/contracts-upgradeable/utils/EnumerableSetUpgradeable.sol\":2460:2475  valueIndex != 0 */\n      eq\n        /* \"@openzeppelin/contracts-upgradeable/utils/EnumerableSetUpgradeable.sol\":2456:3729  if (valueIndex != 0) { // Equivalent to contains(set, value)... */\n      tag_246\n      jumpi\n        /* \"@openzeppelin/contracts-upgradeable/utils/EnumerableSetUpgradeable.sol\":2817:2838  uint256 toDeleteIndex */\n      0x00\n        /* \"@openzeppelin/contracts-upgradeable/utils/EnumerableSetUpgradeable.sol\":2854:2855  1 */\n      0x01\n        /* \"@openzeppelin/contracts-upgradeable/utils/EnumerableSetUpgradeable.sol\":2841:2851  valueIndex */\n      dup3\n        /* \"@openzeppelin/contracts-upgradeable/utils/EnumerableSetUpgradeable.sol\":2841:2855  valueIndex - 1 */\n      sub\n        /* \"@openzeppelin/contracts-upgradeable/utils/EnumerableSetUpgradeable.sol\":2817:2855  uint256 toDeleteIndex = valueIndex - 1 */\n      swap1\n      pop\n        /* \"@openzeppelin/contracts-upgradeable/utils/EnumerableSetUpgradeable.sol\":2869:2886  uint256 lastIndex */\n      0x00\n        /* \"@openzeppelin/contracts-upgradeable/utils/EnumerableSetUpgradeable.sol\":2910:2911  1 */\n      0x01\n        /* \"@openzeppelin/contracts-upgradeable/utils/EnumerableSetUpgradeable.sol\":2889:2892  set */\n      dup7\n        /* \"@openzeppelin/contracts-upgradeable/utils/EnumerableSetUpgradeable.sol\":2889:2900  set._values */\n      0x00\n      add\n        /* \"@openzeppelin/contracts-upgradeable/utils/EnumerableSetUpgradeable.sol\":2889:2907  set._values.length */\n      dup1\n      sload\n      swap1\n      pop\n        /* \"@openzeppelin/contracts-upgradeable/utils/EnumerableSetUpgradeable.sol\":2889:2911  set._values.length - 1 */\n      sub\n        /* \"@openzeppelin/contracts-upgradeable/utils/EnumerableSetUpgradeable.sol\":2869:2911  uint256 lastIndex = set._values.length - 1 */\n      swap1\n      pop\n        /* \"@openzeppelin/contracts-upgradeable/utils/EnumerableSetUpgradeable.sol\":3151:3168  bytes32 lastvalue */\n      0x00\n        /* \"@openzeppelin/contracts-upgradeable/utils/EnumerableSetUpgradeable.sol\":3171:3174  set */\n      dup7\n        /* \"@openzeppelin/contracts-upgradeable/utils/EnumerableSetUpgradeable.sol\":3171:3182  set._values */\n      0x00\n      add\n        /* \"@openzeppelin/contracts-upgradeable/utils/EnumerableSetUpgradeable.sol\":3183:3192  lastIndex */\n      dup3\n        /* \"@openzeppelin/contracts-upgradeable/utils/EnumerableSetUpgradeable.sol\":3171:3193  set._values[lastIndex] */\n      dup2\n      sload\n      dup2\n      lt\n      tag_247\n      jumpi\n      invalid\n    tag_247:\n      swap1\n      0x00\n      mstore\n      keccak256(0x00, 0x20)\n      add\n      sload\n        /* \"@openzeppelin/contracts-upgradeable/utils/EnumerableSetUpgradeable.sol\":3151:3193  bytes32 lastvalue = set._values[lastIndex] */\n      swap1\n      pop\n        /* \"@openzeppelin/contracts-upgradeable/utils/EnumerableSetUpgradeable.sol\":3314:3323  lastvalue */\n      dup1\n        /* \"@openzeppelin/contracts-upgradeable/utils/EnumerableSetUpgradeable.sol\":3285:3288  set */\n      dup8\n        /* \"@openzeppelin/contracts-upgradeable/utils/EnumerableSetUpgradeable.sol\":3285:3296  set._values */\n      0x00\n      add\n        /* \"@openzeppelin/contracts-upgradeable/utils/EnumerableSetUpgradeable.sol\":3297:3310  toDeleteIndex */\n      dup5\n        /* \"@openzeppelin/contracts-upgradeable/utils/EnumerableSetUpgradeable.sol\":3285:3311  set._values[toDeleteIndex] */\n      dup2\n      sload\n      dup2\n      lt\n      tag_249\n      jumpi\n      invalid\n    tag_249:\n      swap1\n      0x00\n      mstore\n      keccak256(0x00, 0x20)\n      add\n        /* \"@openzeppelin/contracts-upgradeable/utils/EnumerableSetUpgradeable.sol\":3285:3323  set._values[toDeleteIndex] = lastvalue */\n      dup2\n      swap1\n      sstore\n      pop\n        /* \"@openzeppelin/contracts-upgradeable/utils/EnumerableSetUpgradeable.sol\":3431:3432  1 */\n      0x01\n        /* \"@openzeppelin/contracts-upgradeable/utils/EnumerableSetUpgradeable.sol\":3415:3428  toDeleteIndex */\n      dup4\n        /* \"@openzeppelin/contracts-upgradeable/utils/EnumerableSetUpgradeable.sol\":3415:3432  toDeleteIndex + 1 */\n      add\n        /* \"@openzeppelin/contracts-upgradeable/utils/EnumerableSetUpgradeable.sol\":3389:3392  set */\n      dup8\n        /* \"@openzeppelin/contracts-upgradeable/utils/EnumerableSetUpgradeable.sol\":3389:3401  set._indexes */\n      0x01\n      add\n        /* \"@openzeppelin/contracts-upgradeable/utils/EnumerableSetUpgradeable.sol\":3389:3412  set._indexes[lastvalue] */\n      0x00\n        /* \"@openzeppelin/contracts-upgradeable/utils/EnumerableSetUpgradeable.sol\":3402:3411  lastvalue */\n      dup4\n        /* \"@openzeppelin/contracts-upgradeable/utils/EnumerableSetUpgradeable.sol\":3389:3412  set._indexes[lastvalue] */\n      dup2\n      mstore\n      0x20\n      add\n      swap1\n      dup2\n      mstore\n      0x20\n      add\n      0x00\n      keccak256\n        /* \"@openzeppelin/contracts-upgradeable/utils/EnumerableSetUpgradeable.sol\":3389:3432  set._indexes[lastvalue] = toDeleteIndex + 1 */\n      dup2\n      swap1\n      sstore\n      pop\n        /* \"@openzeppelin/contracts-upgradeable/utils/EnumerableSetUpgradeable.sol\":3538:3541  set */\n      dup7\n        /* \"@openzeppelin/contracts-upgradeable/utils/EnumerableSetUpgradeable.sol\":3538:3549  set._values */\n      0x00\n      add\n        /* \"@openzeppelin/contracts-upgradeable/utils/EnumerableSetUpgradeable.sol\":3538:3555  set._values.pop() */\n      dup1\n      sload\n      dup1\n      tag_251\n      jumpi\n      invalid\n    tag_251:\n      0x01\n      swap1\n      sub\n      dup2\n      dup2\n      swap1\n      0x00\n      mstore\n      keccak256(0x00, 0x20)\n      add\n      0x00\n      swap1\n      sstore\n      swap1\n      sstore\n        /* \"@openzeppelin/contracts-upgradeable/utils/EnumerableSetUpgradeable.sol\":3630:3633  set */\n      dup7\n        /* \"@openzeppelin/contracts-upgradeable/utils/EnumerableSetUpgradeable.sol\":3630:3642  set._indexes */\n      0x01\n      add\n        /* \"@openzeppelin/contracts-upgradeable/utils/EnumerableSetUpgradeable.sol\":3630:3649  set._indexes[value] */\n      0x00\n        /* \"@openzeppelin/contracts-upgradeable/utils/EnumerableSetUpgradeable.sol\":3643:3648  value */\n      dup8\n        /* \"@openzeppelin/contracts-upgradeable/utils/EnumerableSetUpgradeable.sol\":3630:3649  set._indexes[value] */\n      dup2\n      mstore\n      0x20\n      add\n      swap1\n      dup2\n      mstore\n      0x20\n      add\n      0x00\n      keccak256\n        /* \"@openzeppelin/contracts-upgradeable/utils/EnumerableSetUpgradeable.sol\":3623:3649  delete set._indexes[value] */\n      0x00\n      swap1\n      sstore\n        /* \"@openzeppelin/contracts-upgradeable/utils/EnumerableSetUpgradeable.sol\":3671:3675  true */\n      0x01\n        /* \"@openzeppelin/contracts-upgradeable/utils/EnumerableSetUpgradeable.sol\":3664:3675  return true */\n      swap5\n      pop\n      pop\n      pop\n      pop\n      pop\n      jump(tag_245)\n        /* \"@openzeppelin/contracts-upgradeable/utils/EnumerableSetUpgradeable.sol\":2456:3729  if (valueIndex != 0) { // Equivalent to contains(set, value)... */\n    tag_246:\n        /* \"@openzeppelin/contracts-upgradeable/utils/EnumerableSetUpgradeable.sol\":3713:3718  false */\n      0x00\n        /* \"@openzeppelin/contracts-upgradeable/utils/EnumerableSetUpgradeable.sol\":3706:3718  return false */\n      swap2\n      pop\n      pop\n        /* \"@openzeppelin/contracts-upgradeable/utils/EnumerableSetUpgradeable.sol\":2223:3735  function _remove(Set storage set, bytes32 value) private returns (bool) {... */\n    tag_245:\n      swap3\n      swap2\n      pop\n      pop\n      jump\t// out\n    stop\n    data_045d6834e6193a687012a3ad777f612279e549b6945364d9d2324f48610d3cbb 456e756d657261626c655365743a20696e646578206f7574206f6620626f756e6473\n    data_0ba7116025f1ef6b158a2bd2238e617f30e17c9e456917d901086ca4f8ad2811 416363657373436f6e74726f6c3a2073656e646572206d75737420626520616e2061646d696e20746f206772616e74\n    data_64344570eab7406ca49d34d38bf2b2496dfda914405390c5057c8b0aabf798a3 416363657373436f6e74726f6c3a2073656e646572206d75737420626520616e2061646d696e20746f207265766f6b65\n    data_7a2a4e26842155ea933fe6eb6e3137eb5a296dcdf55721c552be7b4c3cc23759 496e697469616c697a61626c653a20636f6e747261637420697320616c726561647920696e697469616c697a6564\n    data_fb06fa8ff2141e8ed74502f6792273793f25f0e9d3cf15344f3f5a0d4948fd4b 416363657373436f6e74726f6c3a2063616e206f6e6c792072656e6f756e636520726f6c657320666f722073656c66\n\n    auxdata: 0xa264697066735822122044a6800ceac6cb969ed76ec122863a6d9a3340fca211d461a3f285e7fe89efc464736f6c634300060c0033\n}\n",
				"bytecode": {
					"linkReferences": {},
					"object": "608060405234801561001057600080fd5b506119b1806100206000396000f3fe608060405234801561001057600080fd5b506004361061012c5760003560e01c80635504d3d2116100ad578063a217fddf11610071578063a217fddf146104ac578063bf2a28cf146104ca578063ca15c873146104e8578063d547741f1461052a578063d5db16f9146105785761012c565b80635504d3d2146103705780637dc18a3a1461038e5780638129fc1c146103dc5780639010d07c146103e657806391d14854146104485761012c565b8063260730e0116100f4578063260730e0146102015780632f2ff15d1461024f57806336568abe1461029d578063434d82a3146102eb5780635249fb6d1461034f5761012c565b806309cc8d46146101315780631976bd471461015f5780631c4e328b14610197578063248a9ca3146101a157806324a9db2a146101e3575b600080fd5b61015d6004803603602081101561014757600080fd5b81019080803590602001909291905050506105d0565b005b6101956004803603604081101561017557600080fd5b8101908080359060200190929190803590602001909291905050506106b5565b005b61019f61079a565b005b6101cd600480360360208110156101b757600080fd5b8101908080359060200190929190505050610863565b6040518082815260200191505060405180910390f35b6101eb610883565b6040518082815260200191505060405180910390f35b61024d6004803603604081101561021757600080fd5b81019080803573ffffffffffffffffffffffffffffffffffffffff169060200190929190803590602001909291905050506108b0565b005b61029b6004803603604081101561026557600080fd5b8101908080359060200190929190803573ffffffffffffffffffffffffffffffffffffffff16906020019092919050505061099d565b005b6102e9600480360360408110156102b357600080fd5b8101908080359060200190929190803573ffffffffffffffffffffffffffffffffffffffff169060200190929190505050610a27565b005b6103376004803603604081101561030157600080fd5b81019080803573ffffffffffffffffffffffffffffffffffffffff16906020019092919080359060200190929190505050610ac0565b60405180821515815260200191505060405180910390f35b610357610b0e565b6040518082600f0b815260200191505060405180910390f35b610378610b21565b6040518082815260200191505060405180910390f35b6103da600480360360408110156103a457600080fd5b81019080803573ffffffffffffffffffffffffffffffffffffffff16906020019092919080359060200190929190505050610b45565b005b6103e4610c33565b005b61041c600480360360408110156103fc57600080fd5b810190808035906020019092919080359060200190929190505050610d46565b604051808273ffffffffffffffffffffffffffffffffffffffff16815260200191505060405180910390f35b6104946004803603604081101561045e57600080fd5b8101908080359060200190929190803573ffffffffffffffffffffffffffffffffffffffff169060200190929190505050610d78565b60405180821515815260200191505060405180910390f35b6104b4610daa565b6040518082815260200191505060405180910390f35b6104d2610db1565b6040518082815260200191505060405180910390f35b610514600480360360208110156104fe57600080fd5b8101908080359060200190929190505050610db6565b6040518082815260200191505060405180910390f35b6105766004803603604081101561054057600080fd5b8101908080359060200190929190803573ffffffffffffffffffffffffffffffffffffffff169060200190929190505050610ddd565b005b6105ba6004803603602081101561058e57600080fd5b81019080803573ffffffffffffffffffffffffffffffffffffffff169060200190929190505050610e67565b6040518082815260200191505060405180910390f35b6105fa7f745191d59a0c5ecaf2331ad3570e4033c5b04de0434263ec14a70fce5475ab7f33610d78565b61066c576040517f08c379a000000000000000000000000000000000000000000000000000000000815260040180806020018281038252600e8152602001807f4e6f742067616d652061646d696e00000000000000000000000000000000000081525060200191505060405180910390fd5b610677816064610e7f565b606660006101000a8154816fffffffffffffffffffffffffffffffff0219169083600f0b6fffffffffffffffffffffffffffffffff16021790555050565b6106df7f745191d59a0c5ecaf2331ad3570e4033c5b04de0434263ec14a70fce5475ab7f33610d78565b610751576040517f08c379a000000000000000000000000000000000000000000000000000000000815260040180806020018281038252600e8152602001807f4e6f742067616d652061646d696e00000000000000000000000000000000000081525060200191505060405180910390fd5b61075b8282610e7f565b606660006101000a8154816fffffffffffffffffffffffffffffffff0219169083600f0b6fffffffffffffffffffffffffffffffff1602179055505050565b6107a76000801b33610d78565b610819576040517f08c379a00000000000000000000000000000000000000000000000000000000081526004018080602001828103825260098152602001807f4e6f742061646d696e000000000000000000000000000000000000000000000081525060200191505060405180910390fd5b6108266143446064610e7f565b606660006101000a8154816fffffffffffffffffffffffffffffffff0219169083600f0b6fffffffffffffffffffffffffffffffff160217905550565b600060336000838152602001908152602001600020600201549050919050565b60006108ab6064606660009054906101000a9004600f0b600f0b610ee790919063ffffffff16565b905090565b6108da7f745191d59a0c5ecaf2331ad3570e4033c5b04de0434263ec14a70fce5475ab7f33610d78565b61094c576040517f08c379a000000000000000000000000000000000000000000000000000000000815260040180806020018281038252600e8152602001807f4e6f742067616d652061646d696e00000000000000000000000000000000000081525060200191505060405180910390fd5b80606560008473ffffffffffffffffffffffffffffffffffffffff1673ffffffffffffffffffffffffffffffffffffffff168152602001908152602001600020600082825417925050819055505050565b6109c460336000848152602001908152602001600020600201546109bf610fa2565b610d78565b610a19576040517f08c379a000000000000000000000000000000000000000000000000000000000815260040180806020018281038252602f8152602001806118c0602f913960400191505060405180910390fd5b610a238282610faa565b5050565b610a2f610fa2565b73ffffffffffffffffffffffffffffffffffffffff168173ffffffffffffffffffffffffffffffffffffffff1614610ab2576040517f08c379a000000000000000000000000000000000000000000000000000000000815260040180806020018281038252602f81526020018061194d602f913960400191505060405180910390fd5b610abc828261103e565b5050565b60008182606560008673ffffffffffffffffffffffffffffffffffffffff1673ffffffffffffffffffffffffffffffffffffffff168152602001908152602001600020541614905092915050565b606660009054906101000a9004600f0b81565b7f745191d59a0c5ecaf2331ad3570e4033c5b04de0434263ec14a70fce5475ab7f81565b610b6f7f745191d59a0c5ecaf2331ad3570e4033c5b04de0434263ec14a70fce5475ab7f33610d78565b610be1576040517f08c379a000000000000000000000000000000000000000000000000000000000815260040180806020018281038252600e8152602001807f4e6f742067616d652061646d696e00000000000000000000000000000000000081525060200191505060405180910390fd5b8019606560008473ffffffffffffffffffffffffffffffffffffffff1673ffffffffffffffffffffffffffffffffffffffff168152602001908152602001600020600082825416925050819055505050565b600060019054906101000a900460ff1680610c525750610c516110d2565b5b80610c68575060008054906101000a900460ff16155b610cbd576040517f08c379a000000000000000000000000000000000000000000000000000000000815260040180806020018281038252602e81526020018061191f602e913960400191505060405180910390fd5b60008060019054906101000a900460ff161590508015610d0d576001600060016101000a81548160ff02191690831515021790555060016000806101000a81548160ff0219169083151502179055505b610d156110e3565b610d226000801b336111f1565b8015610d435760008060016101000a81548160ff0219169083151502179055505b50565b6000610d7082603360008681526020019081526020016000206000016111ff90919063ffffffff16565b905092915050565b6000610da2826033600086815260200190815260200160002060000161121990919063ffffffff16565b905092915050565b6000801b81565b600181565b6000610dd660336000848152602001908152602001600020600001611249565b9050919050565b610e046033600084815260200190815260200160002060020154610dff610fa2565b610d78565b610e59576040517f08c379a00000000000000000000000000000000000000000000000000000000081526004018080602001828103825260308152602001806118ef6030913960400191505060405180910390fd5b610e63828261103e565b5050565b60656020528060005260406000206000915090505481565b600080821415610e8e57600080fd5b6000610e9a848461125e565b90506f7fffffffffffffffffffffffffffffff6fffffffffffffffffffffffffffffffff16816fffffffffffffffffffffffffffffffff161115610edd57600080fd5b8091505092915050565b600080821415610efa5760009050610f9c565b600083600f0b1215610f0b57600080fd5b600060406fffffffffffffffffffffffffffffffff841685600f0b02901c90506000608084901c85600f0b02905077ffffffffffffffffffffffffffffffffffffffffffffffff811115610f5e57600080fd5b604081901b9050817fffffffffffffffffffffffffffffffffffffffffffffffffffffffffffffffff03811115610f9457600080fd5b818101925050505b92915050565b600033905090565b610fd2816033600085815260200190815260200160002060000161141f90919063ffffffff16565b1561103a57610fdf610fa2565b73ffffffffffffffffffffffffffffffffffffffff168173ffffffffffffffffffffffffffffffffffffffff16837f2f8788117e7eff1d82e926ec794901d17c78024a50270940304540a733656f0d60405160405180910390a45b5050565b611066816033600085815260200190815260200160002060000161144f90919063ffffffff16565b156110ce57611073610fa2565b73ffffffffffffffffffffffffffffffffffffffff168173ffffffffffffffffffffffffffffffffffffffff16837ff6391f5c32d9c69d2a47ea670b442974b53935d1edc7fd64eb21e047a839171b60405160405180910390a45b5050565b60006110dd3061147f565b15905090565b600060019054906101000a900460ff168061110257506111016110d2565b5b80611118575060008054906101000a900460ff16155b61116d576040517f08c379a000000000000000000000000000000000000000000000000000000000815260040180806020018281038252602e81526020018061191f602e913960400191505060405180910390fd5b60008060019054906101000a900460ff1615905080156111bd576001600060016101000a81548160ff02191690831515021790555060016000806101000a81548160ff0219169083151502179055505b6111c5611492565b6111cd611590565b80156111ee5760008060016101000a81548160ff0219169083151502179055505b50565b6111fb8282610faa565b5050565b600061120e836000018361168e565b60001c905092915050565b6000611241836000018373ffffffffffffffffffffffffffffffffffffffff1660001b611711565b905092915050565b600061125782600001611734565b9050919050565b60008082141561126d57600080fd5b600077ffffffffffffffffffffffffffffffffffffffffffffffff84116112a35782604085901b8161129b57fe5b0490506113f8565b600060c09050600060c086901c905064010000000081106112cc57602081901c90506020820191505b6201000081106112e457601081901c90506010820191505b61010081106112fb57600881901c90506008820191505b6010811061131157600481901c90506004820191505b6004811061132757600281901c90506002820191505b60028110611336576001820191505b600160bf830360018703901c018260ff0387901b8161135157fe5b0492506fffffffffffffffffffffffffffffffff83111561137157600080fd5b6000608086901c8402905060006fffffffffffffffffffffffffffffffff871685029050600060c089901c9050600060408a901b9050828110156113b6576001820391505b8281039050608084901b9250828110156113d1576001820391505b8281039050608084901c82146113e357fe5b8881816113ec57fe5b04870196505050505050505b6fffffffffffffffffffffffffffffffff81111561141557600080fd5b8091505092915050565b6000611447836000018373ffffffffffffffffffffffffffffffffffffffff1660001b611745565b905092915050565b6000611477836000018373ffffffffffffffffffffffffffffffffffffffff1660001b6117b5565b905092915050565b600080823b905060008111915050919050565b600060019054906101000a900460ff16806114b157506114b06110d2565b5b806114c7575060008054906101000a900460ff16155b61151c576040517f08c379a000000000000000000000000000000000000000000000000000000000815260040180806020018281038252602e81526020018061191f602e913960400191505060405180910390fd5b60008060019054906101000a900460ff16159050801561156c576001600060016101000a81548160ff02191690831515021790555060016000806101000a81548160ff0219169083151502179055505b801561158d5760008060016101000a81548160ff0219169083151502179055505b50565b600060019054906101000a900460ff16806115af57506115ae6110d2565b5b806115c5575060008054906101000a900460ff16155b61161a576040517f08c379a000000000000000000000000000000000000000000000000000000000815260040180806020018281038252602e81526020018061191f602e913960400191505060405180910390fd5b60008060019054906101000a900460ff16159050801561166a576001600060016101000a81548160ff02191690831515021790555060016000806101000a81548160ff0219169083151502179055505b801561168b5760008060016101000a81548160ff0219169083151502179055505b50565b6000818360000180549050116116ef576040517f08c379a000000000000000000000000000000000000000000000000000000000815260040180806020018281038252602281526020018061189e6022913960400191505060405180910390fd5b8260000182815481106116fe57fe5b9060005260206000200154905092915050565b600080836001016000848152602001908152602001600020541415905092915050565b600081600001805490509050919050565b60006117518383611711565b6117aa5782600001829080600181540180825580915050600190039060005260206000200160009091909190915055826000018054905083600101600084815260200190815260200160002081905550600190506117af565b600090505b92915050565b60008083600101600084815260200190815260200160002054905060008114611891576000600182039050600060018660000180549050039050600086600001828154811061180057fe5b906000526020600020015490508087600001848154811061181d57fe5b906000526020600020018190555060018301876001016000838152602001908152602001600020819055508660000180548061185557fe5b60019003818190600052602060002001600090559055866001016000878152602001908152602001600020600090556001945050505050611897565b60009150505b9291505056fe456e756d657261626c655365743a20696e646578206f7574206f6620626f756e6473416363657373436f6e74726f6c3a2073656e646572206d75737420626520616e2061646d696e20746f206772616e74416363657373436f6e74726f6c3a2073656e646572206d75737420626520616e2061646d696e20746f207265766f6b65496e697469616c697a61626c653a20636f6e747261637420697320616c726561647920696e697469616c697a6564416363657373436f6e74726f6c3a2063616e206f6e6c792072656e6f756e636520726f6c657320666f722073656c66a264697066735822122044a6800ceac6cb969ed76ec122863a6d9a3340fca211d461a3f285e7fe89efc464736f6c634300060c0033",
					"opcodes": "PUSH1 0x80 PUSH1 0x40 MSTORE CALLVALUE DUP1 ISZERO PUSH2 0x10 JUMPI PUSH1 0x0 DUP1 REVERT JUMPDEST POP PUSH2 0x19B1 DUP1 PUSH2 0x20 PUSH1 0x0 CODECOPY PUSH1 0x0 RETURN INVALID PUSH1 0x80 PUSH1 0x40 MSTORE CALLVALUE DUP1 ISZERO PUSH2 0x10 JUMPI PUSH1 0x0 DUP1 REVERT JUMPDEST POP PUSH1 0x4 CALLDATASIZE LT PUSH2 0x12C JUMPI PUSH1 0x0 CALLDATALOAD PUSH1 0xE0 SHR DUP1 PUSH4 0x5504D3D2 GT PUSH2 0xAD JUMPI DUP1 PUSH4 0xA217FDDF GT PUSH2 0x71 JUMPI DUP1 PUSH4 0xA217FDDF EQ PUSH2 0x4AC JUMPI DUP1 PUSH4 0xBF2A28CF EQ PUSH2 0x4CA JUMPI DUP1 PUSH4 0xCA15C873 EQ PUSH2 0x4E8 JUMPI DUP1 PUSH4 0xD547741F EQ PUSH2 0x52A JUMPI DUP1 PUSH4 0xD5DB16F9 EQ PUSH2 0x578 JUMPI PUSH2 0x12C JUMP JUMPDEST DUP1 PUSH4 0x5504D3D2 EQ PUSH2 0x370 JUMPI DUP1 PUSH4 0x7DC18A3A EQ PUSH2 0x38E JUMPI DUP1 PUSH4 0x8129FC1C EQ PUSH2 0x3DC JUMPI DUP1 PUSH4 0x9010D07C EQ PUSH2 0x3E6 JUMPI DUP1 PUSH4 0x91D14854 EQ PUSH2 0x448 JUMPI PUSH2 0x12C JUMP JUMPDEST DUP1 PUSH4 0x260730E0 GT PUSH2 0xF4 JUMPI DUP1 PUSH4 0x260730E0 EQ PUSH2 0x201 JUMPI DUP1 PUSH4 0x2F2FF15D EQ PUSH2 0x24F JUMPI DUP1 PUSH4 0x36568ABE EQ PUSH2 0x29D JUMPI DUP1 PUSH4 0x434D82A3 EQ PUSH2 0x2EB JUMPI DUP1 PUSH4 0x5249FB6D EQ PUSH2 0x34F JUMPI PUSH2 0x12C JUMP JUMPDEST DUP1 PUSH4 0x9CC8D46 EQ PUSH2 0x131 JUMPI DUP1 PUSH4 0x1976BD47 EQ PUSH2 0x15F JUMPI DUP1 PUSH4 0x1C4E328B EQ PUSH2 0x197 JUMPI DUP1 PUSH4 0x248A9CA3 EQ PUSH2 0x1A1 JUMPI DUP1 PUSH4 0x24A9DB2A EQ PUSH2 0x1E3 JUMPI JUMPDEST PUSH1 0x0 DUP1 REVERT JUMPDEST PUSH2 0x15D PUSH1 0x4 DUP1 CALLDATASIZE SUB PUSH1 0x20 DUP2 LT ISZERO PUSH2 0x147 JUMPI PUSH1 0x0 DUP1 REVERT JUMPDEST DUP2 ADD SWAP1 DUP1 DUP1 CALLDATALOAD SWAP1 PUSH1 0x20 ADD SWAP1 SWAP3 SWAP2 SWAP1 POP POP POP PUSH2 0x5D0 JUMP JUMPDEST STOP JUMPDEST PUSH2 0x195 PUSH1 0x4 DUP1 CALLDATASIZE SUB PUSH1 0x40 DUP2 LT ISZERO PUSH2 0x175 JUMPI PUSH1 0x0 DUP1 REVERT JUMPDEST DUP2 ADD SWAP1 DUP1 DUP1 CALLDATALOAD SWAP1 PUSH1 0x20 ADD SWAP1 SWAP3 SWAP2 SWAP1 DUP1 CALLDATALOAD SWAP1 PUSH1 0x20 ADD SWAP1 SWAP3 SWAP2 SWAP1 POP POP POP PUSH2 0x6B5 JUMP JUMPDEST STOP JUMPDEST PUSH2 0x19F PUSH2 0x79A JUMP JUMPDEST STOP JUMPDEST PUSH2 0x1CD PUSH1 0x4 DUP1 CALLDATASIZE SUB PUSH1 0x20 DUP2 LT ISZERO PUSH2 0x1B7 JUMPI PUSH1 0x0 DUP1 REVERT JUMPDEST DUP2 ADD SWAP1 DUP1 DUP1 CALLDATALOAD SWAP1 PUSH1 0x20 ADD SWAP1 SWAP3 SWAP2 SWAP1 POP POP POP PUSH2 0x863 JUMP JUMPDEST PUSH1 0x40 MLOAD DUP1 DUP3 DUP2 MSTORE PUSH1 0x20 ADD SWAP2 POP POP PUSH1 0x40 MLOAD DUP1 SWAP2 SUB SWAP1 RETURN JUMPDEST PUSH2 0x1EB PUSH2 0x883 JUMP JUMPDEST PUSH1 0x40 MLOAD DUP1 DUP3 DUP2 MSTORE PUSH1 0x20 ADD SWAP2 POP POP PUSH1 0x40 MLOAD DUP1 SWAP2 SUB SWAP1 RETURN JUMPDEST PUSH2 0x24D PUSH1 0x4 DUP1 CALLDATASIZE SUB PUSH1 0x40 DUP2 LT ISZERO PUSH2 0x217 JUMPI PUSH1 0x0 DUP1 REVERT JUMPDEST DUP2 ADD SWAP1 DUP1 DUP1 CALLDATALOAD PUSH20 0xFFFFFFFFFFFFFFFFFFFFFFFFFFFFFFFFFFFFFFFF AND SWAP1 PUSH1 0x20 ADD SWAP1 SWAP3 SWAP2 SWAP1 DUP1 CALLDATALOAD SWAP1 PUSH1 0x20 ADD SWAP1 SWAP3 SWAP2 SWAP1 POP POP POP PUSH2 0x8B0 JUMP JUMPDEST STOP JUMPDEST PUSH2 0x29B PUSH1 0x4 DUP1 CALLDATASIZE SUB PUSH1 0x40 DUP2 LT ISZERO PUSH2 0x265 JUMPI PUSH1 0x0 DUP1 REVERT JUMPDEST DUP2 ADD SWAP1 DUP1 DUP1 CALLDATALOAD SWAP1 PUSH1 0x20 ADD SWAP1 SWAP3 SWAP2 SWAP1 DUP1 CALLDATALOAD PUSH20 0xFFFFFFFFFFFFFFFFFFFFFFFFFFFFFFFFFFFFFFFF AND SWAP1 PUSH1 0x20 ADD SWAP1 SWAP3 SWAP2 SWAP1 POP POP POP PUSH2 0x99D JUMP JUMPDEST STOP JUMPDEST PUSH2 0x2E9 PUSH1 0x4 DUP1 CALLDATASIZE SUB PUSH1 0x40 DUP2 LT ISZERO PUSH2 0x2B3 JUMPI PUSH1 0x0 DUP1 REVERT JUMPDEST DUP2 ADD SWAP1 DUP1 DUP1 CALLDATALOAD SWAP1 PUSH1 0x20 ADD SWAP1 SWAP3 SWAP2 SWAP1 DUP1 CALLDATALOAD PUSH20 0xFFFFFFFFFFFFFFFFFFFFFFFFFFFFFFFFFFFFFFFF AND SWAP1 PUSH1 0x20 ADD SWAP1 SWAP3 SWAP2 SWAP1 POP POP POP PUSH2 0xA27 JUMP JUMPDEST STOP JUMPDEST PUSH2 0x337 PUSH1 0x4 DUP1 CALLDATASIZE SUB PUSH1 0x40 DUP2 LT ISZERO PUSH2 0x301 JUMPI PUSH1 0x0 DUP1 REVERT JUMPDEST DUP2 ADD SWAP1 DUP1 DUP1 CALLDATALOAD PUSH20 0xFFFFFFFFFFFFFFFFFFFFFFFFFFFFFFFFFFFFFFFF AND SWAP1 PUSH1 0x20 ADD SWAP1 SWAP3 SWAP2 SWAP1 DUP1 CALLDATALOAD SWAP1 PUSH1 0x20 ADD SWAP1 SWAP3 SWAP2 SWAP1 POP POP POP PUSH2 0xAC0 JUMP JUMPDEST PUSH1 0x40 MLOAD DUP1 DUP3 ISZERO ISZERO DUP2 MSTORE PUSH1 0x20 ADD SWAP2 POP POP PUSH1 0x40 MLOAD DUP1 SWAP2 SUB SWAP1 RETURN JUMPDEST PUSH2 0x357 PUSH2 0xB0E JUMP JUMPDEST PUSH1 0x40 MLOAD DUP1 DUP3 PUSH1 0xF SIGNEXTEND DUP2 MSTORE PUSH1 0x20 ADD SWAP2 POP POP PUSH1 0x40 MLOAD DUP1 SWAP2 SUB SWAP1 RETURN JUMPDEST PUSH2 0x378 PUSH2 0xB21 JUMP JUMPDEST PUSH1 0x40 MLOAD DUP1 DUP3 DUP2 MSTORE PUSH1 0x20 ADD SWAP2 POP POP PUSH1 0x40 MLOAD DUP1 SWAP2 SUB SWAP1 RETURN JUMPDEST PUSH2 0x3DA PUSH1 0x4 DUP1 CALLDATASIZE SUB PUSH1 0x40 DUP2 LT ISZERO PUSH2 0x3A4 JUMPI PUSH1 0x0 DUP1 REVERT JUMPDEST DUP2 ADD SWAP1 DUP1 DUP1 CALLDATALOAD PUSH20 0xFFFFFFFFFFFFFFFFFFFFFFFFFFFFFFFFFFFFFFFF AND SWAP1 PUSH1 0x20 ADD SWAP1 SWAP3 SWAP2 SWAP1 DUP1 CALLDATALOAD SWAP1 PUSH1 0x20 ADD SWAP1 SWAP3 SWAP2 SWAP1 POP POP POP PUSH2 0xB45 JUMP JUMPDEST STOP JUMPDEST PUSH2 0x3E4 PUSH2 0xC33 JUMP JUMPDEST STOP JUMPDEST PUSH2 0x41C PUSH1 0x4 DUP1 CALLDATASIZE SUB PUSH1 0x40 DUP2 LT ISZERO PUSH2 0x3FC JUMPI PUSH1 0x0 DUP1 REVERT JUMPDEST DUP2 ADD SWAP1 DUP1 DUP1 CALLDATALOAD SWAP1 PUSH1 0x20 ADD SWAP1 SWAP3 SWAP2 SWAP1 DUP1 CALLDATALOAD SWAP1 PUSH1 0x20 ADD SWAP1 SWAP3 SWAP2 SWAP1 POP POP POP PUSH2 0xD46 JUMP JUMPDEST PUSH1 0x40 MLOAD DUP1 DUP3 PUSH20 0xFFFFFFFFFFFFFFFFFFFFFFFFFFFFFFFFFFFFFFFF AND DUP2 MSTORE PUSH1 0x20 ADD SWAP2 POP POP PUSH1 0x40 MLOAD DUP1 SWAP2 SUB SWAP1 RETURN JUMPDEST PUSH2 0x494 PUSH1 0x4 DUP1 CALLDATASIZE SUB PUSH1 0x40 DUP2 LT ISZERO PUSH2 0x45E JUMPI PUSH1 0x0 DUP1 REVERT JUMPDEST DUP2 ADD SWAP1 DUP1 DUP1 CALLDATALOAD SWAP1 PUSH1 0x20 ADD SWAP1 SWAP3 SWAP2 SWAP1 DUP1 CALLDATALOAD PUSH20 0xFFFFFFFFFFFFFFFFFFFFFFFFFFFFFFFFFFFFFFFF AND SWAP1 PUSH1 0x20 ADD SWAP1 SWAP3 SWAP2 SWAP1 POP POP POP PUSH2 0xD78 JUMP JUMPDEST PUSH1 0x40 MLOAD DUP1 DUP3 ISZERO ISZERO DUP2 MSTORE PUSH1 0x20 ADD SWAP2 POP POP PUSH1 0x40 MLOAD DUP1 SWAP2 SUB SWAP1 RETURN JUMPDEST PUSH2 0x4B4 PUSH2 0xDAA JUMP JUMPDEST PUSH1 0x40 MLOAD DUP1 DUP3 DUP2 MSTORE PUSH1 0x20 ADD SWAP2 POP POP PUSH1 0x40 MLOAD DUP1 SWAP2 SUB SWAP1 RETURN JUMPDEST PUSH2 0x4D2 PUSH2 0xDB1 JUMP JUMPDEST PUSH1 0x40 MLOAD DUP1 DUP3 DUP2 MSTORE PUSH1 0x20 ADD SWAP2 POP POP PUSH1 0x40 MLOAD DUP1 SWAP2 SUB SWAP1 RETURN JUMPDEST PUSH2 0x514 PUSH1 0x4 DUP1 CALLDATASIZE SUB PUSH1 0x20 DUP2 LT ISZERO PUSH2 0x4FE JUMPI PUSH1 0x0 DUP1 REVERT JUMPDEST DUP2 ADD SWAP1 DUP1 DUP1 CALLDATALOAD SWAP1 PUSH1 0x20 ADD SWAP1 SWAP3 SWAP2 SWAP1 POP POP POP PUSH2 0xDB6 JUMP JUMPDEST PUSH1 0x40 MLOAD DUP1 DUP3 DUP2 MSTORE PUSH1 0x20 ADD SWAP2 POP POP PUSH1 0x40 MLOAD DUP1 SWAP2 SUB SWAP1 RETURN JUMPDEST PUSH2 0x576 PUSH1 0x4 DUP1 CALLDATASIZE SUB PUSH1 0x40 DUP2 LT ISZERO PUSH2 0x540 JUMPI PUSH1 0x0 DUP1 REVERT JUMPDEST DUP2 ADD SWAP1 DUP1 DUP1 CALLDATALOAD SWAP1 PUSH1 0x20 ADD SWAP1 SWAP3 SWAP2 SWAP1 DUP1 CALLDATALOAD PUSH20 0xFFFFFFFFFFFFFFFFFFFFFFFFFFFFFFFFFFFFFFFF AND SWAP1 PUSH1 0x20 ADD SWAP1 SWAP3 SWAP2 SWAP1 POP POP POP PUSH2 0xDDD JUMP JUMPDEST STOP JUMPDEST PUSH2 0x5BA PUSH1 0x4 DUP1 CALLDATASIZE SUB PUSH1 0x20 DUP2 LT ISZERO PUSH2 0x58E JUMPI PUSH1 0x0 DUP1 REVERT JUMPDEST DUP2 ADD SWAP1 DUP1 DUP1 CALLDATALOAD PUSH20 0xFFFFFFFFFFFFFFFFFFFFFFFFFFFFFFFFFFFFFFFF AND SWAP1 PUSH1 0x20 ADD SWAP1 SWAP3 SWAP2 SWAP1 POP POP POP PUSH2 0xE67 JUMP JUMPDEST PUSH1 0x40 MLOAD DUP1 DUP3 DUP2 MSTORE PUSH1 0x20 ADD SWAP2 POP POP PUSH1 0x40 MLOAD DUP1 SWAP2 SUB SWAP1 RETURN JUMPDEST PUSH2 0x5FA PUSH32 0x745191D59A0C5ECAF2331AD3570E4033C5B04DE0434263EC14A70FCE5475AB7F CALLER PUSH2 0xD78 JUMP JUMPDEST PUSH2 0x66C JUMPI PUSH1 0x40 MLOAD PUSH32 0x8C379A000000000000000000000000000000000000000000000000000000000 DUP2 MSTORE PUSH1 0x4 ADD DUP1 DUP1 PUSH1 0x20 ADD DUP3 DUP2 SUB DUP3 MSTORE PUSH1 0xE DUP2 MSTORE PUSH1 0x20 ADD DUP1 PUSH32 0x4E6F742067616D652061646D696E000000000000000000000000000000000000 DUP2 MSTORE POP PUSH1 0x20 ADD SWAP2 POP POP PUSH1 0x40 MLOAD DUP1 SWAP2 SUB SWAP1 REVERT JUMPDEST PUSH2 0x677 DUP2 PUSH1 0x64 PUSH2 0xE7F JUMP JUMPDEST PUSH1 0x66 PUSH1 0x0 PUSH2 0x100 EXP DUP2 SLOAD DUP2 PUSH16 0xFFFFFFFFFFFFFFFFFFFFFFFFFFFFFFFF MUL NOT AND SWAP1 DUP4 PUSH1 0xF SIGNEXTEND PUSH16 0xFFFFFFFFFFFFFFFFFFFFFFFFFFFFFFFF AND MUL OR SWAP1 SSTORE POP POP JUMP JUMPDEST PUSH2 0x6DF PUSH32 0x745191D59A0C5ECAF2331AD3570E4033C5B04DE0434263EC14A70FCE5475AB7F CALLER PUSH2 0xD78 JUMP JUMPDEST PUSH2 0x751 JUMPI PUSH1 0x40 MLOAD PUSH32 0x8C379A000000000000000000000000000000000000000000000000000000000 DUP2 MSTORE PUSH1 0x4 ADD DUP1 DUP1 PUSH1 0x20 ADD DUP3 DUP2 SUB DUP3 MSTORE PUSH1 0xE DUP2 MSTORE PUSH1 0x20 ADD DUP1 PUSH32 0x4E6F742067616D652061646D696E000000000000000000000000000000000000 DUP2 MSTORE POP PUSH1 0x20 ADD SWAP2 POP POP PUSH1 0x40 MLOAD DUP1 SWAP2 SUB SWAP1 REVERT JUMPDEST PUSH2 0x75B DUP3 DUP3 PUSH2 0xE7F JUMP JUMPDEST PUSH1 0x66 PUSH1 0x0 PUSH2 0x100 EXP DUP2 SLOAD DUP2 PUSH16 0xFFFFFFFFFFFFFFFFFFFFFFFFFFFFFFFF MUL NOT AND SWAP1 DUP4 PUSH1 0xF SIGNEXTEND PUSH16 0xFFFFFFFFFFFFFFFFFFFFFFFFFFFFFFFF AND MUL OR SWAP1 SSTORE POP POP POP JUMP JUMPDEST PUSH2 0x7A7 PUSH1 0x0 DUP1 SHL CALLER PUSH2 0xD78 JUMP JUMPDEST PUSH2 0x819 JUMPI PUSH1 0x40 MLOAD PUSH32 0x8C379A000000000000000000000000000000000000000000000000000000000 DUP2 MSTORE PUSH1 0x4 ADD DUP1 DUP1 PUSH1 0x20 ADD DUP3 DUP2 SUB DUP3 MSTORE PUSH1 0x9 DUP2 MSTORE PUSH1 0x20 ADD DUP1 PUSH32 0x4E6F742061646D696E0000000000000000000000000000000000000000000000 DUP2 MSTORE POP PUSH1 0x20 ADD SWAP2 POP POP PUSH1 0x40 MLOAD DUP1 SWAP2 SUB SWAP1 REVERT JUMPDEST PUSH2 0x826 PUSH2 0x4344 PUSH1 0x64 PUSH2 0xE7F JUMP JUMPDEST PUSH1 0x66 PUSH1 0x0 PUSH2 0x100 EXP DUP2 SLOAD DUP2 PUSH16 0xFFFFFFFFFFFFFFFFFFFFFFFFFFFFFFFF MUL NOT AND SWAP1 DUP4 PUSH1 0xF SIGNEXTEND PUSH16 0xFFFFFFFFFFFFFFFFFFFFFFFFFFFFFFFF AND MUL OR SWAP1 SSTORE POP JUMP JUMPDEST PUSH1 0x0 PUSH1 0x33 PUSH1 0x0 DUP4 DUP2 MSTORE PUSH1 0x20 ADD SWAP1 DUP2 MSTORE PUSH1 0x20 ADD PUSH1 0x0 KECCAK256 PUSH1 0x2 ADD SLOAD SWAP1 POP SWAP2 SWAP1 POP JUMP JUMPDEST PUSH1 0x0 PUSH2 0x8AB PUSH1 0x64 PUSH1 0x66 PUSH1 0x0 SWAP1 SLOAD SWAP1 PUSH2 0x100 EXP SWAP1 DIV PUSH1 0xF SIGNEXTEND PUSH1 0xF SIGNEXTEND PUSH2 0xEE7 SWAP1 SWAP2 SWAP1 PUSH4 0xFFFFFFFF AND JUMP JUMPDEST SWAP1 POP SWAP1 JUMP JUMPDEST PUSH2 0x8DA PUSH32 0x745191D59A0C5ECAF2331AD3570E4033C5B04DE0434263EC14A70FCE5475AB7F CALLER PUSH2 0xD78 JUMP JUMPDEST PUSH2 0x94C JUMPI PUSH1 0x40 MLOAD PUSH32 0x8C379A000000000000000000000000000000000000000000000000000000000 DUP2 MSTORE PUSH1 0x4 ADD DUP1 DUP1 PUSH1 0x20 ADD DUP3 DUP2 SUB DUP3 MSTORE PUSH1 0xE DUP2 MSTORE PUSH1 0x20 ADD DUP1 PUSH32 0x4E6F742067616D652061646D696E000000000000000000000000000000000000 DUP2 MSTORE POP PUSH1 0x20 ADD SWAP2 POP POP PUSH1 0x40 MLOAD DUP1 SWAP2 SUB SWAP1 REVERT JUMPDEST DUP1 PUSH1 0x65 PUSH1 0x0 DUP5 PUSH20 0xFFFFFFFFFFFFFFFFFFFFFFFFFFFFFFFFFFFFFFFF AND PUSH20 0xFFFFFFFFFFFFFFFFFFFFFFFFFFFFFFFFFFFFFFFF AND DUP2 MSTORE PUSH1 0x20 ADD SWAP1 DUP2 MSTORE PUSH1 0x20 ADD PUSH1 0x0 KECCAK256 PUSH1 0x0 DUP3 DUP3 SLOAD OR SWAP3 POP POP DUP2 SWAP1 SSTORE POP POP POP JUMP JUMPDEST PUSH2 0x9C4 PUSH1 0x33 PUSH1 0x0 DUP5 DUP2 MSTORE PUSH1 0x20 ADD SWAP1 DUP2 MSTORE PUSH1 0x20 ADD PUSH1 0x0 KECCAK256 PUSH1 0x2 ADD SLOAD PUSH2 0x9BF PUSH2 0xFA2 JUMP JUMPDEST PUSH2 0xD78 JUMP JUMPDEST PUSH2 0xA19 JUMPI PUSH1 0x40 MLOAD PUSH32 0x8C379A000000000000000000000000000000000000000000000000000000000 DUP2 MSTORE PUSH1 0x4 ADD DUP1 DUP1 PUSH1 0x20 ADD DUP3 DUP2 SUB DUP3 MSTORE PUSH1 0x2F DUP2 MSTORE PUSH1 0x20 ADD DUP1 PUSH2 0x18C0 PUSH1 0x2F SWAP2 CODECOPY PUSH1 0x40 ADD SWAP2 POP POP PUSH1 0x40 MLOAD DUP1 SWAP2 SUB SWAP1 REVERT JUMPDEST PUSH2 0xA23 DUP3 DUP3 PUSH2 0xFAA JUMP JUMPDEST POP POP JUMP JUMPDEST PUSH2 0xA2F PUSH2 0xFA2 JUMP JUMPDEST PUSH20 0xFFFFFFFFFFFFFFFFFFFFFFFFFFFFFFFFFFFFFFFF AND DUP2 PUSH20 0xFFFFFFFFFFFFFFFFFFFFFFFFFFFFFFFFFFFFFFFF AND EQ PUSH2 0xAB2 JUMPI PUSH1 0x40 MLOAD PUSH32 0x8C379A000000000000000000000000000000000000000000000000000000000 DUP2 MSTORE PUSH1 0x4 ADD DUP1 DUP1 PUSH1 0x20 ADD DUP3 DUP2 SUB DUP3 MSTORE PUSH1 0x2F DUP2 MSTORE PUSH1 0x20 ADD DUP1 PUSH2 0x194D PUSH1 0x2F SWAP2 CODECOPY PUSH1 0x40 ADD SWAP2 POP POP PUSH1 0x40 MLOAD DUP1 SWAP2 SUB SWAP1 REVERT JUMPDEST PUSH2 0xABC DUP3 DUP3 PUSH2 0x103E JUMP JUMPDEST POP POP JUMP JUMPDEST PUSH1 0x0 DUP2 DUP3 PUSH1 0x65 PUSH1 0x0 DUP7 PUSH20 0xFFFFFFFFFFFFFFFFFFFFFFFFFFFFFFFFFFFFFFFF AND PUSH20 0xFFFFFFFFFFFFFFFFFFFFFFFFFFFFFFFFFFFFFFFF AND DUP2 MSTORE PUSH1 0x20 ADD SWAP1 DUP2 MSTORE PUSH1 0x20 ADD PUSH1 0x0 KECCAK256 SLOAD AND EQ SWAP1 POP SWAP3 SWAP2 POP POP JUMP JUMPDEST PUSH1 0x66 PUSH1 0x0 SWAP1 SLOAD SWAP1 PUSH2 0x100 EXP SWAP1 DIV PUSH1 0xF SIGNEXTEND DUP2 JUMP JUMPDEST PUSH32 0x745191D59A0C5ECAF2331AD3570E4033C5B04DE0434263EC14A70FCE5475AB7F DUP2 JUMP JUMPDEST PUSH2 0xB6F PUSH32 0x745191D59A0C5ECAF2331AD3570E4033C5B04DE0434263EC14A70FCE5475AB7F CALLER PUSH2 0xD78 JUMP JUMPDEST PUSH2 0xBE1 JUMPI PUSH1 0x40 MLOAD PUSH32 0x8C379A000000000000000000000000000000000000000000000000000000000 DUP2 MSTORE PUSH1 0x4 ADD DUP1 DUP1 PUSH1 0x20 ADD DUP3 DUP2 SUB DUP3 MSTORE PUSH1 0xE DUP2 MSTORE PUSH1 0x20 ADD DUP1 PUSH32 0x4E6F742067616D652061646D696E000000000000000000000000000000000000 DUP2 MSTORE POP PUSH1 0x20 ADD SWAP2 POP POP PUSH1 0x40 MLOAD DUP1 SWAP2 SUB SWAP1 REVERT JUMPDEST DUP1 NOT PUSH1 0x65 PUSH1 0x0 DUP5 PUSH20 0xFFFFFFFFFFFFFFFFFFFFFFFFFFFFFFFFFFFFFFFF AND PUSH20 0xFFFFFFFFFFFFFFFFFFFFFFFFFFFFFFFFFFFFFFFF AND DUP2 MSTORE PUSH1 0x20 ADD SWAP1 DUP2 MSTORE PUSH1 0x20 ADD PUSH1 0x0 KECCAK256 PUSH1 0x0 DUP3 DUP3 SLOAD AND SWAP3 POP POP DUP2 SWAP1 SSTORE POP POP POP JUMP JUMPDEST PUSH1 0x0 PUSH1 0x1 SWAP1 SLOAD SWAP1 PUSH2 0x100 EXP SWAP1 DIV PUSH1 0xFF AND DUP1 PUSH2 0xC52 JUMPI POP PUSH2 0xC51 PUSH2 0x10D2 JUMP JUMPDEST JUMPDEST DUP1 PUSH2 0xC68 JUMPI POP PUSH1 0x0 DUP1 SLOAD SWAP1 PUSH2 0x100 EXP SWAP1 DIV PUSH1 0xFF AND ISZERO JUMPDEST PUSH2 0xCBD JUMPI PUSH1 0x40 MLOAD PUSH32 0x8C379A000000000000000000000000000000000000000000000000000000000 DUP2 MSTORE PUSH1 0x4 ADD DUP1 DUP1 PUSH1 0x20 ADD DUP3 DUP2 SUB DUP3 MSTORE PUSH1 0x2E DUP2 MSTORE PUSH1 0x20 ADD DUP1 PUSH2 0x191F PUSH1 0x2E SWAP2 CODECOPY PUSH1 0x40 ADD SWAP2 POP POP PUSH1 0x40 MLOAD DUP1 SWAP2 SUB SWAP1 REVERT JUMPDEST PUSH1 0x0 DUP1 PUSH1 0x1 SWAP1 SLOAD SWAP1 PUSH2 0x100 EXP SWAP1 DIV PUSH1 0xFF AND ISZERO SWAP1 POP DUP1 ISZERO PUSH2 0xD0D JUMPI PUSH1 0x1 PUSH1 0x0 PUSH1 0x1 PUSH2 0x100 EXP DUP2 SLOAD DUP2 PUSH1 0xFF MUL NOT AND SWAP1 DUP4 ISZERO ISZERO MUL OR SWAP1 SSTORE POP PUSH1 0x1 PUSH1 0x0 DUP1 PUSH2 0x100 EXP DUP2 SLOAD DUP2 PUSH1 0xFF MUL NOT AND SWAP1 DUP4 ISZERO ISZERO MUL OR SWAP1 SSTORE POP JUMPDEST PUSH2 0xD15 PUSH2 0x10E3 JUMP JUMPDEST PUSH2 0xD22 PUSH1 0x0 DUP1 SHL CALLER PUSH2 0x11F1 JUMP JUMPDEST DUP1 ISZERO PUSH2 0xD43 JUMPI PUSH1 0x0 DUP1 PUSH1 0x1 PUSH2 0x100 EXP DUP2 SLOAD DUP2 PUSH1 0xFF MUL NOT AND SWAP1 DUP4 ISZERO ISZERO MUL OR SWAP1 SSTORE POP JUMPDEST POP JUMP JUMPDEST PUSH1 0x0 PUSH2 0xD70 DUP3 PUSH1 0x33 PUSH1 0x0 DUP7 DUP2 MSTORE PUSH1 0x20 ADD SWAP1 DUP2 MSTORE PUSH1 0x20 ADD PUSH1 0x0 KECCAK256 PUSH1 0x0 ADD PUSH2 0x11FF SWAP1 SWAP2 SWAP1 PUSH4 0xFFFFFFFF AND JUMP JUMPDEST SWAP1 POP SWAP3 SWAP2 POP POP JUMP JUMPDEST PUSH1 0x0 PUSH2 0xDA2 DUP3 PUSH1 0x33 PUSH1 0x0 DUP7 DUP2 MSTORE PUSH1 0x20 ADD SWAP1 DUP2 MSTORE PUSH1 0x20 ADD PUSH1 0x0 KECCAK256 PUSH1 0x0 ADD PUSH2 0x1219 SWAP1 SWAP2 SWAP1 PUSH4 0xFFFFFFFF AND JUMP JUMPDEST SWAP1 POP SWAP3 SWAP2 POP POP JUMP JUMPDEST PUSH1 0x0 DUP1 SHL DUP2 JUMP JUMPDEST PUSH1 0x1 DUP2 JUMP JUMPDEST PUSH1 0x0 PUSH2 0xDD6 PUSH1 0x33 PUSH1 0x0 DUP5 DUP2 MSTORE PUSH1 0x20 ADD SWAP1 DUP2 MSTORE PUSH1 0x20 ADD PUSH1 0x0 KECCAK256 PUSH1 0x0 ADD PUSH2 0x1249 JUMP JUMPDEST SWAP1 POP SWAP2 SWAP1 POP JUMP JUMPDEST PUSH2 0xE04 PUSH1 0x33 PUSH1 0x0 DUP5 DUP2 MSTORE PUSH1 0x20 ADD SWAP1 DUP2 MSTORE PUSH1 0x20 ADD PUSH1 0x0 KECCAK256 PUSH1 0x2 ADD SLOAD PUSH2 0xDFF PUSH2 0xFA2 JUMP JUMPDEST PUSH2 0xD78 JUMP JUMPDEST PUSH2 0xE59 JUMPI PUSH1 0x40 MLOAD PUSH32 0x8C379A000000000000000000000000000000000000000000000000000000000 DUP2 MSTORE PUSH1 0x4 ADD DUP1 DUP1 PUSH1 0x20 ADD DUP3 DUP2 SUB DUP3 MSTORE PUSH1 0x30 DUP2 MSTORE PUSH1 0x20 ADD DUP1 PUSH2 0x18EF PUSH1 0x30 SWAP2 CODECOPY PUSH1 0x40 ADD SWAP2 POP POP PUSH1 0x40 MLOAD DUP1 SWAP2 SUB SWAP1 REVERT JUMPDEST PUSH2 0xE63 DUP3 DUP3 PUSH2 0x103E JUMP JUMPDEST POP POP JUMP JUMPDEST PUSH1 0x65 PUSH1 0x20 MSTORE DUP1 PUSH1 0x0 MSTORE PUSH1 0x40 PUSH1 0x0 KECCAK256 PUSH1 0x0 SWAP2 POP SWAP1 POP SLOAD DUP2 JUMP JUMPDEST PUSH1 0x0 DUP1 DUP3 EQ ISZERO PUSH2 0xE8E JUMPI PUSH1 0x0 DUP1 REVERT JUMPDEST PUSH1 0x0 PUSH2 0xE9A DUP5 DUP5 PUSH2 0x125E JUMP JUMPDEST SWAP1 POP PUSH16 0x7FFFFFFFFFFFFFFFFFFFFFFFFFFFFFFF PUSH16 0xFFFFFFFFFFFFFFFFFFFFFFFFFFFFFFFF AND DUP2 PUSH16 0xFFFFFFFFFFFFFFFFFFFFFFFFFFFFFFFF AND GT ISZERO PUSH2 0xEDD JUMPI PUSH1 0x0 DUP1 REVERT JUMPDEST DUP1 SWAP2 POP POP SWAP3 SWAP2 POP POP JUMP JUMPDEST PUSH1 0x0 DUP1 DUP3 EQ ISZERO PUSH2 0xEFA JUMPI PUSH1 0x0 SWAP1 POP PUSH2 0xF9C JUMP JUMPDEST PUSH1 0x0 DUP4 PUSH1 0xF SIGNEXTEND SLT ISZERO PUSH2 0xF0B JUMPI PUSH1 0x0 DUP1 REVERT JUMPDEST PUSH1 0x0 PUSH1 0x40 PUSH16 0xFFFFFFFFFFFFFFFFFFFFFFFFFFFFFFFF DUP5 AND DUP6 PUSH1 0xF SIGNEXTEND MUL SWAP1 SHR SWAP1 POP PUSH1 0x0 PUSH1 0x80 DUP5 SWAP1 SHR DUP6 PUSH1 0xF SIGNEXTEND MUL SWAP1 POP PUSH24 0xFFFFFFFFFFFFFFFFFFFFFFFFFFFFFFFFFFFFFFFFFFFFFFFF DUP2 GT ISZERO PUSH2 0xF5E JUMPI PUSH1 0x0 DUP1 REVERT JUMPDEST PUSH1 0x40 DUP2 SWAP1 SHL SWAP1 POP DUP2 PUSH32 0xFFFFFFFFFFFFFFFFFFFFFFFFFFFFFFFFFFFFFFFFFFFFFFFFFFFFFFFFFFFFFFFF SUB DUP2 GT ISZERO PUSH2 0xF94 JUMPI PUSH1 0x0 DUP1 REVERT JUMPDEST DUP2 DUP2 ADD SWAP3 POP POP POP JUMPDEST SWAP3 SWAP2 POP POP JUMP JUMPDEST PUSH1 0x0 CALLER SWAP1 POP SWAP1 JUMP JUMPDEST PUSH2 0xFD2 DUP2 PUSH1 0x33 PUSH1 0x0 DUP6 DUP2 MSTORE PUSH1 0x20 ADD SWAP1 DUP2 MSTORE PUSH1 0x20 ADD PUSH1 0x0 KECCAK256 PUSH1 0x0 ADD PUSH2 0x141F SWAP1 SWAP2 SWAP1 PUSH4 0xFFFFFFFF AND JUMP JUMPDEST ISZERO PUSH2 0x103A JUMPI PUSH2 0xFDF PUSH2 0xFA2 JUMP JUMPDEST PUSH20 0xFFFFFFFFFFFFFFFFFFFFFFFFFFFFFFFFFFFFFFFF AND DUP2 PUSH20 0xFFFFFFFFFFFFFFFFFFFFFFFFFFFFFFFFFFFFFFFF AND DUP4 PUSH32 0x2F8788117E7EFF1D82E926EC794901D17C78024A50270940304540A733656F0D PUSH1 0x40 MLOAD PUSH1 0x40 MLOAD DUP1 SWAP2 SUB SWAP1 LOG4 JUMPDEST POP POP JUMP JUMPDEST PUSH2 0x1066 DUP2 PUSH1 0x33 PUSH1 0x0 DUP6 DUP2 MSTORE PUSH1 0x20 ADD SWAP1 DUP2 MSTORE PUSH1 0x20 ADD PUSH1 0x0 KECCAK256 PUSH1 0x0 ADD PUSH2 0x144F SWAP1 SWAP2 SWAP1 PUSH4 0xFFFFFFFF AND JUMP JUMPDEST ISZERO PUSH2 0x10CE JUMPI PUSH2 0x1073 PUSH2 0xFA2 JUMP JUMPDEST PUSH20 0xFFFFFFFFFFFFFFFFFFFFFFFFFFFFFFFFFFFFFFFF AND DUP2 PUSH20 0xFFFFFFFFFFFFFFFFFFFFFFFFFFFFFFFFFFFFFFFF AND DUP4 PUSH32 0xF6391F5C32D9C69D2A47EA670B442974B53935D1EDC7FD64EB21E047A839171B PUSH1 0x40 MLOAD PUSH1 0x40 MLOAD DUP1 SWAP2 SUB SWAP1 LOG4 JUMPDEST POP POP JUMP JUMPDEST PUSH1 0x0 PUSH2 0x10DD ADDRESS PUSH2 0x147F JUMP JUMPDEST ISZERO SWAP1 POP SWAP1 JUMP JUMPDEST PUSH1 0x0 PUSH1 0x1 SWAP1 SLOAD SWAP1 PUSH2 0x100 EXP SWAP1 DIV PUSH1 0xFF AND DUP1 PUSH2 0x1102 JUMPI POP PUSH2 0x1101 PUSH2 0x10D2 JUMP JUMPDEST JUMPDEST DUP1 PUSH2 0x1118 JUMPI POP PUSH1 0x0 DUP1 SLOAD SWAP1 PUSH2 0x100 EXP SWAP1 DIV PUSH1 0xFF AND ISZERO JUMPDEST PUSH2 0x116D JUMPI PUSH1 0x40 MLOAD PUSH32 0x8C379A000000000000000000000000000000000000000000000000000000000 DUP2 MSTORE PUSH1 0x4 ADD DUP1 DUP1 PUSH1 0x20 ADD DUP3 DUP2 SUB DUP3 MSTORE PUSH1 0x2E DUP2 MSTORE PUSH1 0x20 ADD DUP1 PUSH2 0x191F PUSH1 0x2E SWAP2 CODECOPY PUSH1 0x40 ADD SWAP2 POP POP PUSH1 0x40 MLOAD DUP1 SWAP2 SUB SWAP1 REVERT JUMPDEST PUSH1 0x0 DUP1 PUSH1 0x1 SWAP1 SLOAD SWAP1 PUSH2 0x100 EXP SWAP1 DIV PUSH1 0xFF AND ISZERO SWAP1 POP DUP1 ISZERO PUSH2 0x11BD JUMPI PUSH1 0x1 PUSH1 0x0 PUSH1 0x1 PUSH2 0x100 EXP DUP2 SLOAD DUP2 PUSH1 0xFF MUL NOT AND SWAP1 DUP4 ISZERO ISZERO MUL OR SWAP1 SSTORE POP PUSH1 0x1 PUSH1 0x0 DUP1 PUSH2 0x100 EXP DUP2 SLOAD DUP2 PUSH1 0xFF MUL NOT AND SWAP1 DUP4 ISZERO ISZERO MUL OR SWAP1 SSTORE POP JUMPDEST PUSH2 0x11C5 PUSH2 0x1492 JUMP JUMPDEST PUSH2 0x11CD PUSH2 0x1590 JUMP JUMPDEST DUP1 ISZERO PUSH2 0x11EE JUMPI PUSH1 0x0 DUP1 PUSH1 0x1 PUSH2 0x100 EXP DUP2 SLOAD DUP2 PUSH1 0xFF MUL NOT AND SWAP1 DUP4 ISZERO ISZERO MUL OR SWAP1 SSTORE POP JUMPDEST POP JUMP JUMPDEST PUSH2 0x11FB DUP3 DUP3 PUSH2 0xFAA JUMP JUMPDEST POP POP JUMP JUMPDEST PUSH1 0x0 PUSH2 0x120E DUP4 PUSH1 0x0 ADD DUP4 PUSH2 0x168E JUMP JUMPDEST PUSH1 0x0 SHR SWAP1 POP SWAP3 SWAP2 POP POP JUMP JUMPDEST PUSH1 0x0 PUSH2 0x1241 DUP4 PUSH1 0x0 ADD DUP4 PUSH20 0xFFFFFFFFFFFFFFFFFFFFFFFFFFFFFFFFFFFFFFFF AND PUSH1 0x0 SHL PUSH2 0x1711 JUMP JUMPDEST SWAP1 POP SWAP3 SWAP2 POP POP JUMP JUMPDEST PUSH1 0x0 PUSH2 0x1257 DUP3 PUSH1 0x0 ADD PUSH2 0x1734 JUMP JUMPDEST SWAP1 POP SWAP2 SWAP1 POP JUMP JUMPDEST PUSH1 0x0 DUP1 DUP3 EQ ISZERO PUSH2 0x126D JUMPI PUSH1 0x0 DUP1 REVERT JUMPDEST PUSH1 0x0 PUSH24 0xFFFFFFFFFFFFFFFFFFFFFFFFFFFFFFFFFFFFFFFFFFFFFFFF DUP5 GT PUSH2 0x12A3 JUMPI DUP3 PUSH1 0x40 DUP6 SWAP1 SHL DUP2 PUSH2 0x129B JUMPI INVALID JUMPDEST DIV SWAP1 POP PUSH2 0x13F8 JUMP JUMPDEST PUSH1 0x0 PUSH1 0xC0 SWAP1 POP PUSH1 0x0 PUSH1 0xC0 DUP7 SWAP1 SHR SWAP1 POP PUSH5 0x100000000 DUP2 LT PUSH2 0x12CC JUMPI PUSH1 0x20 DUP2 SWAP1 SHR SWAP1 POP PUSH1 0x20 DUP3 ADD SWAP2 POP JUMPDEST PUSH3 0x10000 DUP2 LT PUSH2 0x12E4 JUMPI PUSH1 0x10 DUP2 SWAP1 SHR SWAP1 POP PUSH1 0x10 DUP3 ADD SWAP2 POP JUMPDEST PUSH2 0x100 DUP2 LT PUSH2 0x12FB JUMPI PUSH1 0x8 DUP2 SWAP1 SHR SWAP1 POP PUSH1 0x8 DUP3 ADD SWAP2 POP JUMPDEST PUSH1 0x10 DUP2 LT PUSH2 0x1311 JUMPI PUSH1 0x4 DUP2 SWAP1 SHR SWAP1 POP PUSH1 0x4 DUP3 ADD SWAP2 POP JUMPDEST PUSH1 0x4 DUP2 LT PUSH2 0x1327 JUMPI PUSH1 0x2 DUP2 SWAP1 SHR SWAP1 POP PUSH1 0x2 DUP3 ADD SWAP2 POP JUMPDEST PUSH1 0x2 DUP2 LT PUSH2 0x1336 JUMPI PUSH1 0x1 DUP3 ADD SWAP2 POP JUMPDEST PUSH1 0x1 PUSH1 0xBF DUP4 SUB PUSH1 0x1 DUP8 SUB SWAP1 SHR ADD DUP3 PUSH1 0xFF SUB DUP8 SWAP1 SHL DUP2 PUSH2 0x1351 JUMPI INVALID JUMPDEST DIV SWAP3 POP PUSH16 0xFFFFFFFFFFFFFFFFFFFFFFFFFFFFFFFF DUP4 GT ISZERO PUSH2 0x1371 JUMPI PUSH1 0x0 DUP1 REVERT JUMPDEST PUSH1 0x0 PUSH1 0x80 DUP7 SWAP1 SHR DUP5 MUL SWAP1 POP PUSH1 0x0 PUSH16 0xFFFFFFFFFFFFFFFFFFFFFFFFFFFFFFFF DUP8 AND DUP6 MUL SWAP1 POP PUSH1 0x0 PUSH1 0xC0 DUP10 SWAP1 SHR SWAP1 POP PUSH1 0x0 PUSH1 0x40 DUP11 SWAP1 SHL SWAP1 POP DUP3 DUP2 LT ISZERO PUSH2 0x13B6 JUMPI PUSH1 0x1 DUP3 SUB SWAP2 POP JUMPDEST DUP3 DUP2 SUB SWAP1 POP PUSH1 0x80 DUP5 SWAP1 SHL SWAP3 POP DUP3 DUP2 LT ISZERO PUSH2 0x13D1 JUMPI PUSH1 0x1 DUP3 SUB SWAP2 POP JUMPDEST DUP3 DUP2 SUB SWAP1 POP PUSH1 0x80 DUP5 SWAP1 SHR DUP3 EQ PUSH2 0x13E3 JUMPI INVALID JUMPDEST DUP9 DUP2 DUP2 PUSH2 0x13EC JUMPI INVALID JUMPDEST DIV DUP8 ADD SWAP7 POP POP POP POP POP POP POP JUMPDEST PUSH16 0xFFFFFFFFFFFFFFFFFFFFFFFFFFFFFFFF DUP2 GT ISZERO PUSH2 0x1415 JUMPI PUSH1 0x0 DUP1 REVERT JUMPDEST DUP1 SWAP2 POP POP SWAP3 SWAP2 POP POP JUMP JUMPDEST PUSH1 0x0 PUSH2 0x1447 DUP4 PUSH1 0x0 ADD DUP4 PUSH20 0xFFFFFFFFFFFFFFFFFFFFFFFFFFFFFFFFFFFFFFFF AND PUSH1 0x0 SHL PUSH2 0x1745 JUMP JUMPDEST SWAP1 POP SWAP3 SWAP2 POP POP JUMP JUMPDEST PUSH1 0x0 PUSH2 0x1477 DUP4 PUSH1 0x0 ADD DUP4 PUSH20 0xFFFFFFFFFFFFFFFFFFFFFFFFFFFFFFFFFFFFFFFF AND PUSH1 0x0 SHL PUSH2 0x17B5 JUMP JUMPDEST SWAP1 POP SWAP3 SWAP2 POP POP JUMP JUMPDEST PUSH1 0x0 DUP1 DUP3 EXTCODESIZE SWAP1 POP PUSH1 0x0 DUP2 GT SWAP2 POP POP SWAP2 SWAP1 POP JUMP JUMPDEST PUSH1 0x0 PUSH1 0x1 SWAP1 SLOAD SWAP1 PUSH2 0x100 EXP SWAP1 DIV PUSH1 0xFF AND DUP1 PUSH2 0x14B1 JUMPI POP PUSH2 0x14B0 PUSH2 0x10D2 JUMP JUMPDEST JUMPDEST DUP1 PUSH2 0x14C7 JUMPI POP PUSH1 0x0 DUP1 SLOAD SWAP1 PUSH2 0x100 EXP SWAP1 DIV PUSH1 0xFF AND ISZERO JUMPDEST PUSH2 0x151C JUMPI PUSH1 0x40 MLOAD PUSH32 0x8C379A000000000000000000000000000000000000000000000000000000000 DUP2 MSTORE PUSH1 0x4 ADD DUP1 DUP1 PUSH1 0x20 ADD DUP3 DUP2 SUB DUP3 MSTORE PUSH1 0x2E DUP2 MSTORE PUSH1 0x20 ADD DUP1 PUSH2 0x191F PUSH1 0x2E SWAP2 CODECOPY PUSH1 0x40 ADD SWAP2 POP POP PUSH1 0x40 MLOAD DUP1 SWAP2 SUB SWAP1 REVERT JUMPDEST PUSH1 0x0 DUP1 PUSH1 0x1 SWAP1 SLOAD SWAP1 PUSH2 0x100 EXP SWAP1 DIV PUSH1 0xFF AND ISZERO SWAP1 POP DUP1 ISZERO PUSH2 0x156C JUMPI PUSH1 0x1 PUSH1 0x0 PUSH1 0x1 PUSH2 0x100 EXP DUP2 SLOAD DUP2 PUSH1 0xFF MUL NOT AND SWAP1 DUP4 ISZERO ISZERO MUL OR SWAP1 SSTORE POP PUSH1 0x1 PUSH1 0x0 DUP1 PUSH2 0x100 EXP DUP2 SLOAD DUP2 PUSH1 0xFF MUL NOT AND SWAP1 DUP4 ISZERO ISZERO MUL OR SWAP1 SSTORE POP JUMPDEST DUP1 ISZERO PUSH2 0x158D JUMPI PUSH1 0x0 DUP1 PUSH1 0x1 PUSH2 0x100 EXP DUP2 SLOAD DUP2 PUSH1 0xFF MUL NOT AND SWAP1 DUP4 ISZERO ISZERO MUL OR SWAP1 SSTORE POP JUMPDEST POP JUMP JUMPDEST PUSH1 0x0 PUSH1 0x1 SWAP1 SLOAD SWAP1 PUSH2 0x100 EXP SWAP1 DIV PUSH1 0xFF AND DUP1 PUSH2 0x15AF JUMPI POP PUSH2 0x15AE PUSH2 0x10D2 JUMP JUMPDEST JUMPDEST DUP1 PUSH2 0x15C5 JUMPI POP PUSH1 0x0 DUP1 SLOAD SWAP1 PUSH2 0x100 EXP SWAP1 DIV PUSH1 0xFF AND ISZERO JUMPDEST PUSH2 0x161A JUMPI PUSH1 0x40 MLOAD PUSH32 0x8C379A000000000000000000000000000000000000000000000000000000000 DUP2 MSTORE PUSH1 0x4 ADD DUP1 DUP1 PUSH1 0x20 ADD DUP3 DUP2 SUB DUP3 MSTORE PUSH1 0x2E DUP2 MSTORE PUSH1 0x20 ADD DUP1 PUSH2 0x191F PUSH1 0x2E SWAP2 CODECOPY PUSH1 0x40 ADD SWAP2 POP POP PUSH1 0x40 MLOAD DUP1 SWAP2 SUB SWAP1 REVERT JUMPDEST PUSH1 0x0 DUP1 PUSH1 0x1 SWAP1 SLOAD SWAP1 PUSH2 0x100 EXP SWAP1 DIV PUSH1 0xFF AND ISZERO SWAP1 POP DUP1 ISZERO PUSH2 0x166A JUMPI PUSH1 0x1 PUSH1 0x0 PUSH1 0x1 PUSH2 0x100 EXP DUP2 SLOAD DUP2 PUSH1 0xFF MUL NOT AND SWAP1 DUP4 ISZERO ISZERO MUL OR SWAP1 SSTORE POP PUSH1 0x1 PUSH1 0x0 DUP1 PUSH2 0x100 EXP DUP2 SLOAD DUP2 PUSH1 0xFF MUL NOT AND SWAP1 DUP4 ISZERO ISZERO MUL OR SWAP1 SSTORE POP JUMPDEST DUP1 ISZERO PUSH2 0x168B JUMPI PUSH1 0x0 DUP1 PUSH1 0x1 PUSH2 0x100 EXP DUP2 SLOAD DUP2 PUSH1 0xFF MUL NOT AND SWAP1 DUP4 ISZERO ISZERO MUL OR SWAP1 SSTORE POP JUMPDEST POP JUMP JUMPDEST PUSH1 0x0 DUP2 DUP4 PUSH1 0x0 ADD DUP1 SLOAD SWAP1 POP GT PUSH2 0x16EF JUMPI PUSH1 0x40 MLOAD PUSH32 0x8C379A000000000000000000000000000000000000000000000000000000000 DUP2 MSTORE PUSH1 0x4 ADD DUP1 DUP1 PUSH1 0x20 ADD DUP3 DUP2 SUB DUP3 MSTORE PUSH1 0x22 DUP2 MSTORE PUSH1 0x20 ADD DUP1 PUSH2 0x189E PUSH1 0x22 SWAP2 CODECOPY PUSH1 0x40 ADD SWAP2 POP POP PUSH1 0x40 MLOAD DUP1 SWAP2 SUB SWAP1 REVERT JUMPDEST DUP3 PUSH1 0x0 ADD DUP3 DUP2 SLOAD DUP2 LT PUSH2 0x16FE JUMPI INVALID JUMPDEST SWAP1 PUSH1 0x0 MSTORE PUSH1 0x20 PUSH1 0x0 KECCAK256 ADD SLOAD SWAP1 POP SWAP3 SWAP2 POP POP JUMP JUMPDEST PUSH1 0x0 DUP1 DUP4 PUSH1 0x1 ADD PUSH1 0x0 DUP5 DUP2 MSTORE PUSH1 0x20 ADD SWAP1 DUP2 MSTORE PUSH1 0x20 ADD PUSH1 0x0 KECCAK256 SLOAD EQ ISZERO SWAP1 POP SWAP3 SWAP2 POP POP JUMP JUMPDEST PUSH1 0x0 DUP2 PUSH1 0x0 ADD DUP1 SLOAD SWAP1 POP SWAP1 POP SWAP2 SWAP1 POP JUMP JUMPDEST PUSH1 0x0 PUSH2 0x1751 DUP4 DUP4 PUSH2 0x1711 JUMP JUMPDEST PUSH2 0x17AA JUMPI DUP3 PUSH1 0x0 ADD DUP3 SWAP1 DUP1 PUSH1 0x1 DUP2 SLOAD ADD DUP1 DUP3 SSTORE DUP1 SWAP2 POP POP PUSH1 0x1 SWAP1 SUB SWAP1 PUSH1 0x0 MSTORE PUSH1 0x20 PUSH1 0x0 KECCAK256 ADD PUSH1 0x0 SWAP1 SWAP2 SWAP1 SWAP2 SWAP1 SWAP2 POP SSTORE DUP3 PUSH1 0x0 ADD DUP1 SLOAD SWAP1 POP DUP4 PUSH1 0x1 ADD PUSH1 0x0 DUP5 DUP2 MSTORE PUSH1 0x20 ADD SWAP1 DUP2 MSTORE PUSH1 0x20 ADD PUSH1 0x0 KECCAK256 DUP2 SWAP1 SSTORE POP PUSH1 0x1 SWAP1 POP PUSH2 0x17AF JUMP JUMPDEST PUSH1 0x0 SWAP1 POP JUMPDEST SWAP3 SWAP2 POP POP JUMP JUMPDEST PUSH1 0x0 DUP1 DUP4 PUSH1 0x1 ADD PUSH1 0x0 DUP5 DUP2 MSTORE PUSH1 0x20 ADD SWAP1 DUP2 MSTORE PUSH1 0x20 ADD PUSH1 0x0 KECCAK256 SLOAD SWAP1 POP PUSH1 0x0 DUP2 EQ PUSH2 0x1891 JUMPI PUSH1 0x0 PUSH1 0x1 DUP3 SUB SWAP1 POP PUSH1 0x0 PUSH1 0x1 DUP7 PUSH1 0x0 ADD DUP1 SLOAD SWAP1 POP SUB SWAP1 POP PUSH1 0x0 DUP7 PUSH1 0x0 ADD DUP3 DUP2 SLOAD DUP2 LT PUSH2 0x1800 JUMPI INVALID JUMPDEST SWAP1 PUSH1 0x0 MSTORE PUSH1 0x20 PUSH1 0x0 KECCAK256 ADD SLOAD SWAP1 POP DUP1 DUP8 PUSH1 0x0 ADD DUP5 DUP2 SLOAD DUP2 LT PUSH2 0x181D JUMPI INVALID JUMPDEST SWAP1 PUSH1 0x0 MSTORE PUSH1 0x20 PUSH1 0x0 KECCAK256 ADD DUP2 SWAP1 SSTORE POP PUSH1 0x1 DUP4 ADD DUP8 PUSH1 0x1 ADD PUSH1 0x0 DUP4 DUP2 MSTORE PUSH1 0x20 ADD SWAP1 DUP2 MSTORE PUSH1 0x20 ADD PUSH1 0x0 KECCAK256 DUP2 SWAP1 SSTORE POP DUP7 PUSH1 0x0 ADD DUP1 SLOAD DUP1 PUSH2 0x1855 JUMPI INVALID JUMPDEST PUSH1 0x1 SWAP1 SUB DUP2 DUP2 SWAP1 PUSH1 0x0 MSTORE PUSH1 0x20 PUSH1 0x0 KECCAK256 ADD PUSH1 0x0 SWAP1 SSTORE SWAP1 SSTORE DUP7 PUSH1 0x1 ADD PUSH1 0x0 DUP8 DUP2 MSTORE PUSH1 0x20 ADD SWAP1 DUP2 MSTORE PUSH1 0x20 ADD PUSH1 0x0 KECCAK256 PUSH1 0x0 SWAP1 SSTORE PUSH1 0x1 SWAP5 POP POP POP POP POP PUSH2 0x1897 JUMP JUMPDEST PUSH1 0x0 SWAP2 POP POP JUMPDEST SWAP3 SWAP2 POP POP JUMP INVALID GASLIMIT PUSH15 0x756D657261626C655365743A20696E PUSH5 0x6578206F75 PUSH21 0x206F6620626F756E6473416363657373436F6E7472 PUSH16 0x6C3A2073656E646572206D7573742062 PUSH6 0x20616E206164 PUSH14 0x696E20746F206772616E74416363 PUSH6 0x7373436F6E74 PUSH19 0x6F6C3A2073656E646572206D75737420626520 PUSH2 0x6E20 PUSH2 0x646D PUSH10 0x6E20746F207265766F6B PUSH6 0x496E69746961 PUSH13 0x697A61626C653A20636F6E7472 PUSH2 0x6374 KECCAK256 PUSH10 0x7320616C726561647920 PUSH10 0x6E697469616C697A6564 COINBASE PUSH4 0x63657373 NUMBER PUSH16 0x6E74726F6C3A2063616E206F6E6C7920 PUSH19 0x656E6F756E636520726F6C657320666F722073 PUSH6 0x6C66A2646970 PUSH7 0x735822122044A6 DUP1 0xC 0xEA 0xC6 0xCB SWAP7 SWAP15 0xD7 PUSH15 0xC122863A6D9A3340FCA211D461A3F2 DUP6 0xE7 INVALID DUP10 0xEF 0xC4 PUSH5 0x736F6C6343 STOP MOD 0xC STOP CALLER "
				},
				"gasEstimates": {
					"creation": {
						"codeDepositCost": "1315400",
						"executionCost": "1369",
						"totalCost": "1316769"
					},
					"external": {
						"BIT_FIRST_CHARACTER()": "249",
						"DEFAULT_ADMIN_ROLE()": "233",
						"GAME_ADMIN()": "228",
						"bits(address)": "1279",
						"firstCharacterPromoInGameOnlyFundsGivenInUsd()": "1162",
						"firstCharacterPromoInGameOnlyFundsGivenInUsdAsCents()": "infinite",
						"getBit(address,uint256)": "1332",
						"getRoleAdmin(bytes32)": "1274",
						"getRoleMember(bytes32,uint256)": "infinite",
						"getRoleMemberCount(bytes32)": "1356",
						"grantRole(bytes32,address)": "infinite",
						"hasRole(bytes32,address)": "infinite",
						"initialize()": "infinite",
						"migrateTo_f73df27()": "infinite",
						"renounceRole(bytes32,address)": "infinite",
						"revokeRole(bytes32,address)": "infinite",
						"setBit(address,uint256)": "infinite",
						"setFirstCharacterPromoInGameOnlyFundsGivenInUsdAsCents(uint256)": "infinite",
						"setFirstCharacterPromoInGameOnlyFundsGivenInUsdAsRational(uint256,uint256)": "infinite",
						"unsetBit(address,uint256)": "infinite"
					}
				},
				"methodIdentifiers": {
					"BIT_FIRST_CHARACTER()": "bf2a28cf",
					"DEFAULT_ADMIN_ROLE()": "a217fddf",
					"GAME_ADMIN()": "5504d3d2",
					"bits(address)": "d5db16f9",
					"firstCharacterPromoInGameOnlyFundsGivenInUsd()": "5249fb6d",
					"firstCharacterPromoInGameOnlyFundsGivenInUsdAsCents()": "24a9db2a",
					"getBit(address,uint256)": "434d82a3",
					"getRoleAdmin(bytes32)": "248a9ca3",
					"getRoleMember(bytes32,uint256)": "9010d07c",
					"getRoleMemberCount(bytes32)": "ca15c873",
					"grantRole(bytes32,address)": "2f2ff15d",
					"hasRole(bytes32,address)": "91d14854",
					"initialize()": "8129fc1c",
					"migrateTo_f73df27()": "1c4e328b",
					"renounceRole(bytes32,address)": "36568abe",
					"revokeRole(bytes32,address)": "d547741f",
					"setBit(address,uint256)": "260730e0",
					"setFirstCharacterPromoInGameOnlyFundsGivenInUsdAsCents(uint256)": "09cc8d46",
					"setFirstCharacterPromoInGameOnlyFundsGivenInUsdAsRational(uint256,uint256)": "1976bd47",
					"unsetBit(address,uint256)": "7dc18a3a"
				}
			},
			"storageLayout": {
				"storage": [
					{
						"astId": 314,
						"contract": "contracts/Promos.sol:Promos",
						"label": "_initialized",
						"offset": 0,
						"slot": "0",
						"type": "t_bool"
					},
					{
						"astId": 317,
						"contract": "contracts/Promos.sol:Promos",
						"label": "_initializing",
						"offset": 1,
						"slot": "0",
						"type": "t_bool"
					},
					{
						"astId": 661,
						"contract": "contracts/Promos.sol:Promos",
						"label": "__gap",
						"offset": 0,
						"slot": "1",
						"type": "t_array(t_uint256)50_storage"
					},
					{
						"astId": 43,
						"contract": "contracts/Promos.sol:Promos",
						"label": "_roles",
						"offset": 0,
						"slot": "51",
						"type": "t_mapping(t_bytes32,t_struct(RoleData)39_storage)"
					},
					{
						"astId": 306,
						"contract": "contracts/Promos.sol:Promos",
						"label": "__gap",
						"offset": 0,
						"slot": "52",
						"type": "t_array(t_uint256)49_storage"
					},
					{
						"astId": 1211,
						"contract": "contracts/Promos.sol:Promos",
						"label": "bits",
						"offset": 0,
						"slot": "101",
						"type": "t_mapping(t_address,t_uint256)"
					},
					{
						"astId": 1216,
						"contract": "contracts/Promos.sol:Promos",
						"label": "firstCharacterPromoInGameOnlyFundsGivenInUsd",
						"offset": 0,
						"slot": "102",
						"type": "t_int128"
					}
				],
				"types": {
					"t_address": {
						"encoding": "inplace",
						"label": "address",
						"numberOfBytes": "20"
					},
					"t_array(t_bytes32)dyn_storage": {
						"base": "t_bytes32",
						"encoding": "dynamic_array",
						"label": "bytes32[]",
						"numberOfBytes": "32"
					},
					"t_array(t_uint256)49_storage": {
						"base": "t_uint256",
						"encoding": "inplace",
						"label": "uint256[49]",
						"numberOfBytes": "1568"
					},
					"t_array(t_uint256)50_storage": {
						"base": "t_uint256",
						"encoding": "inplace",
						"label": "uint256[50]",
						"numberOfBytes": "1600"
					},
					"t_bool": {
						"encoding": "inplace",
						"label": "bool",
						"numberOfBytes": "1"
					},
					"t_bytes32": {
						"encoding": "inplace",
						"label": "bytes32",
						"numberOfBytes": "32"
					},
					"t_int128": {
						"encoding": "inplace",
						"label": "int128",
						"numberOfBytes": "16"
					},
					"t_mapping(t_address,t_uint256)": {
						"encoding": "mapping",
						"key": "t_address",
						"label": "mapping(address => uint256)",
						"numberOfBytes": "32",
						"value": "t_uint256"
					},
					"t_mapping(t_bytes32,t_struct(RoleData)39_storage)": {
						"encoding": "mapping",
						"key": "t_bytes32",
						"label": "mapping(bytes32 => struct AccessControlUpgradeable.RoleData)",
						"numberOfBytes": "32",
						"value": "t_struct(RoleData)39_storage"
					},
					"t_mapping(t_bytes32,t_uint256)": {
						"encoding": "mapping",
						"key": "t_bytes32",
						"label": "mapping(bytes32 => uint256)",
						"numberOfBytes": "32",
						"value": "t_uint256"
					},
					"t_struct(AddressSet)938_storage": {
						"encoding": "inplace",
						"label": "struct EnumerableSetUpgradeable.AddressSet",
						"members": [
							{
								"astId": 937,
								"contract": "contracts/Promos.sol:Promos",
								"label": "_inner",
								"offset": 0,
								"slot": "0",
								"type": "t_struct(Set)673_storage"
							}
						],
						"numberOfBytes": "64"
					},
					"t_struct(RoleData)39_storage": {
						"encoding": "inplace",
						"label": "struct AccessControlUpgradeable.RoleData",
						"members": [
							{
								"astId": 36,
								"contract": "contracts/Promos.sol:Promos",
								"label": "members",
								"offset": 0,
								"slot": "0",
								"type": "t_struct(AddressSet)938_storage"
							},
							{
								"astId": 38,
								"contract": "contracts/Promos.sol:Promos",
								"label": "adminRole",
								"offset": 0,
								"slot": "2",
								"type": "t_bytes32"
							}
						],
						"numberOfBytes": "96"
					},
					"t_struct(Set)673_storage": {
						"encoding": "inplace",
						"label": "struct EnumerableSetUpgradeable.Set",
						"members": [
							{
								"astId": 668,
								"contract": "contracts/Promos.sol:Promos",
								"label": "_values",
								"offset": 0,
								"slot": "0",
								"type": "t_array(t_bytes32)dyn_storage"
							},
							{
								"astId": 672,
								"contract": "contracts/Promos.sol:Promos",
								"label": "_indexes",
								"offset": 0,
								"slot": "1",
								"type": "t_mapping(t_bytes32,t_uint256)"
							}
						],
						"numberOfBytes": "64"
					},
					"t_uint256": {
						"encoding": "inplace",
						"label": "uint256",
						"numberOfBytes": "32"
					}
				}
			},
			"userdoc": {
				"kind": "user",
				"methods": {},
				"version": 1
			}
		}
	}
}