{
	"contracts/BasicPriceOracle.sol": {
		"BasicPriceOracle": {
			"abi": [
				{
					"anonymous": false,
					"inputs": [
						{
							"indexed": false,
							"internalType": "uint256",
							"name": "currentPrice",
							"type": "uint256"
						}
					],
					"name": "CurrentPriceUpdated",
					"type": "event"
				},
				{
					"anonymous": false,
					"inputs": [
						{
							"indexed": true,
							"internalType": "bytes32",
							"name": "role",
							"type": "bytes32"
						},
						{
							"indexed": true,
							"internalType": "bytes32",
							"name": "previousAdminRole",
							"type": "bytes32"
						},
						{
							"indexed": true,
							"internalType": "bytes32",
							"name": "newAdminRole",
							"type": "bytes32"
						}
					],
					"name": "RoleAdminChanged",
					"type": "event"
				},
				{
					"anonymous": false,
					"inputs": [
						{
							"indexed": true,
							"internalType": "bytes32",
							"name": "role",
							"type": "bytes32"
						},
						{
							"indexed": true,
							"internalType": "address",
							"name": "account",
							"type": "address"
						},
						{
							"indexed": true,
							"internalType": "address",
							"name": "sender",
							"type": "address"
						}
					],
					"name": "RoleGranted",
					"type": "event"
				},
				{
					"anonymous": false,
					"inputs": [
						{
							"indexed": true,
							"internalType": "bytes32",
							"name": "role",
							"type": "bytes32"
						},
						{
							"indexed": true,
							"internalType": "address",
							"name": "account",
							"type": "address"
						},
						{
							"indexed": true,
							"internalType": "address",
							"name": "sender",
							"type": "address"
						}
					],
					"name": "RoleRevoked",
					"type": "event"
				},
				{
					"inputs": [],
					"name": "DEFAULT_ADMIN_ROLE",
					"outputs": [
						{
							"internalType": "bytes32",
							"name": "",
							"type": "bytes32"
						}
					],
					"stateMutability": "view",
					"type": "function"
				},
				{
					"inputs": [],
					"name": "PRICE_UPDATER",
					"outputs": [
						{
							"internalType": "bytes32",
							"name": "",
							"type": "bytes32"
						}
					],
					"stateMutability": "view",
					"type": "function"
				},
				{
					"inputs": [],
					"name": "currentPrice",
					"outputs": [
						{
							"internalType": "uint256",
							"name": "",
							"type": "uint256"
						}
					],
					"stateMutability": "view",
					"type": "function"
				},
				{
					"inputs": [
						{
							"internalType": "bytes32",
							"name": "role",
							"type": "bytes32"
						}
					],
					"name": "getRoleAdmin",
					"outputs": [
						{
							"internalType": "bytes32",
							"name": "",
							"type": "bytes32"
						}
					],
					"stateMutability": "view",
					"type": "function"
				},
				{
					"inputs": [
						{
							"internalType": "bytes32",
							"name": "role",
							"type": "bytes32"
						},
						{
							"internalType": "uint256",
							"name": "index",
							"type": "uint256"
						}
					],
					"name": "getRoleMember",
					"outputs": [
						{
							"internalType": "address",
							"name": "",
							"type": "address"
						}
					],
					"stateMutability": "view",
					"type": "function"
				},
				{
					"inputs": [
						{
							"internalType": "bytes32",
							"name": "role",
							"type": "bytes32"
						}
					],
					"name": "getRoleMemberCount",
					"outputs": [
						{
							"internalType": "uint256",
							"name": "",
							"type": "uint256"
						}
					],
					"stateMutability": "view",
					"type": "function"
				},
				{
					"inputs": [
						{
							"internalType": "bytes32",
							"name": "role",
							"type": "bytes32"
						},
						{
							"internalType": "address",
							"name": "account",
							"type": "address"
						}
					],
					"name": "grantRole",
					"outputs": [],
					"stateMutability": "nonpayable",
					"type": "function"
				},
				{
					"inputs": [
						{
							"internalType": "bytes32",
							"name": "role",
							"type": "bytes32"
						},
						{
							"internalType": "address",
							"name": "account",
							"type": "address"
						}
					],
					"name": "hasRole",
					"outputs": [
						{
							"internalType": "bool",
							"name": "",
							"type": "bool"
						}
					],
					"stateMutability": "view",
					"type": "function"
				},
				{
					"inputs": [],
					"name": "initialize",
					"outputs": [],
					"stateMutability": "nonpayable",
					"type": "function"
				},
				{
					"inputs": [
						{
							"internalType": "bytes32",
							"name": "role",
							"type": "bytes32"
						},
						{
							"internalType": "address",
							"name": "account",
							"type": "address"
						}
					],
					"name": "renounceRole",
					"outputs": [],
					"stateMutability": "nonpayable",
					"type": "function"
				},
				{
					"inputs": [
						{
							"internalType": "bytes32",
							"name": "role",
							"type": "bytes32"
						},
						{
							"internalType": "address",
							"name": "account",
							"type": "address"
						}
					],
					"name": "revokeRole",
					"outputs": [],
					"stateMutability": "nonpayable",
					"type": "function"
				},
				{
					"inputs": [
						{
							"internalType": "uint256",
							"name": "_currentPrice",
							"type": "uint256"
						}
					],
					"name": "setCurrentPrice",
					"outputs": [],
					"stateMutability": "nonpayable",
					"type": "function"
				}
			],
			"devdoc": {
				"kind": "dev",
				"methods": {
					"getRoleAdmin(bytes32)": {
						"details": "Returns the admin role that controls `role`. See {grantRole} and {revokeRole}. To change a role's admin, use {_setRoleAdmin}."
					},
					"getRoleMember(bytes32,uint256)": {
						"details": "Returns one of the accounts that have `role`. `index` must be a value between 0 and {getRoleMemberCount}, non-inclusive. Role bearers are not sorted in any particular way, and their ordering may change at any point. WARNING: When using {getRoleMember} and {getRoleMemberCount}, make sure you perform all queries on the same block. See the following https://forum.openzeppelin.com/t/iterating-over-elements-on-enumerableset-in-openzeppelin-contracts/2296[forum post] for more information."
					},
					"getRoleMemberCount(bytes32)": {
						"details": "Returns the number of accounts that have `role`. Can be used together with {getRoleMember} to enumerate all bearers of a role."
					},
					"grantRole(bytes32,address)": {
						"details": "Grants `role` to `account`. If `account` had not been already granted `role`, emits a {RoleGranted} event. Requirements: - the caller must have ``role``'s admin role."
					},
					"hasRole(bytes32,address)": {
						"details": "Returns `true` if `account` has been granted `role`."
					},
					"renounceRole(bytes32,address)": {
						"details": "Revokes `role` from the calling account. Roles are often managed via {grantRole} and {revokeRole}: this function's purpose is to provide a mechanism for accounts to lose their privileges if they are compromised (such as when a trusted device is misplaced). If the calling account had been granted `role`, emits a {RoleRevoked} event. Requirements: - the caller must be `account`."
					},
					"revokeRole(bytes32,address)": {
						"details": "Revokes `role` from `account`. If `account` had been granted `role`, emits a {RoleRevoked} event. Requirements: - the caller must have ``role``'s admin role."
					}
				},
				"version": 1
			},
			"evm": {
				"assembly": "    /* \"contracts/BasicPriceOracle.sol\":218:1288  contract BasicPriceOracle is IPriceOracle, Initializable, AccessControlUpgradeable {... */\n  mstore(0x40, 0x80)\n  callvalue\n  dup1\n  iszero\n  tag_1\n  jumpi\n  0x00\n  dup1\n  revert\ntag_1:\n  pop\n  dataSize(sub_0)\n  dup1\n  dataOffset(sub_0)\n  0x00\n  codecopy\n  0x00\n  return\nstop\n\nsub_0: assembly {\n        /* \"contracts/BasicPriceOracle.sol\":218:1288  contract BasicPriceOracle is IPriceOracle, Initializable, AccessControlUpgradeable {... */\n      mstore(0x40, 0x80)\n      callvalue\n      dup1\n      iszero\n      tag_1\n      jumpi\n      0x00\n      dup1\n      revert\n    tag_1:\n      pop\n      jumpi(tag_2, lt(calldatasize, 0x04))\n      shr(0xe0, calldataload(0x00))\n      dup1\n      0x91d14854\n      gt\n      tag_15\n      jumpi\n      dup1\n      0x91d14854\n      eq\n      tag_9\n      jumpi\n      dup1\n      0x9d1b464a\n      eq\n      tag_10\n      jumpi\n      dup1\n      0xa217fddf\n      eq\n      tag_11\n      jumpi\n      dup1\n      0xca15c873\n      eq\n      tag_12\n      jumpi\n      dup1\n      0xd547741f\n      eq\n      tag_13\n      jumpi\n      dup1\n      0xe1f84a36\n      eq\n      tag_14\n      jumpi\n      jump(tag_2)\n    tag_15:\n      dup1\n      0x18b20071\n      eq\n      tag_3\n      jumpi\n      dup1\n      0x248a9ca3\n      eq\n      tag_4\n      jumpi\n      dup1\n      0x2f2ff15d\n      eq\n      tag_5\n      jumpi\n      dup1\n      0x36568abe\n      eq\n      tag_6\n      jumpi\n      dup1\n      0x8129fc1c\n      eq\n      tag_7\n      jumpi\n      dup1\n      0x9010d07c\n      eq\n      tag_8\n      jumpi\n    tag_2:\n      0x00\n      dup1\n      revert\n        /* \"contracts/BasicPriceOracle.sol\":883:1218  function setCurrentPrice(uint256 _currentPrice) external override {... */\n    tag_3:\n      tag_16\n      0x04\n      dup1\n      calldatasize\n      sub\n      0x20\n      dup2\n      lt\n      iszero\n      tag_17\n      jumpi\n      0x00\n      dup1\n      revert\n    tag_17:\n      dup2\n      add\n      swap1\n      dup1\n      dup1\n      calldataload\n      swap1\n      0x20\n      add\n      swap1\n      swap3\n      swap2\n      swap1\n      pop\n      pop\n      pop\n      tag_18\n      jump\t// in\n    tag_16:\n      stop\n        /* \"@openzeppelin/contracts-upgradeable/access/AccessControlUpgradeable.sol\":4652:4764  function getRoleAdmin(bytes32 role) public view returns (bytes32) {... */\n    tag_4:\n      tag_19\n      0x04\n      dup1\n      calldatasize\n      sub\n      0x20\n      dup2\n      lt\n      iszero\n      tag_20\n      jumpi\n      0x00\n      dup1\n      revert\n    tag_20:\n      dup2\n      add\n      swap1\n      dup1\n      dup1\n      calldataload\n      swap1\n      0x20\n      add\n      swap1\n      swap3\n      swap2\n      swap1\n      pop\n      pop\n      pop\n      tag_21\n      jump\t// in\n    tag_19:\n      mload(0x40)\n      dup1\n      dup3\n      dup2\n      mstore\n      0x20\n      add\n      swap2\n      pop\n      pop\n      mload(0x40)\n      dup1\n      swap2\n      sub\n      swap1\n      return\n        /* \"@openzeppelin/contracts-upgradeable/access/AccessControlUpgradeable.sol\":5014:5237  function grantRole(bytes32 role, address account) public virtual {... */\n    tag_5:\n      tag_22\n      0x04\n      dup1\n      calldatasize\n      sub\n      0x40\n      dup2\n      lt\n      iszero\n      tag_23\n      jumpi\n      0x00\n      dup1\n      revert\n    tag_23:\n      dup2\n      add\n      swap1\n      dup1\n      dup1\n      calldataload\n      swap1\n      0x20\n      add\n      swap1\n      swap3\n      swap2\n      swap1\n      dup1\n      calldataload\n      0xffffffffffffffffffffffffffffffffffffffff\n      and\n      swap1\n      0x20\n      add\n      swap1\n      swap3\n      swap2\n      swap1\n      pop\n      pop\n      pop\n      tag_24\n      jump\t// in\n    tag_22:\n      stop\n        /* \"@openzeppelin/contracts-upgradeable/access/AccessControlUpgradeable.sol\":6188:6393  function renounceRole(bytes32 role, address account) public virtual {... */\n    tag_6:\n      tag_25\n      0x04\n      dup1\n      calldatasize\n      sub\n      0x40\n      dup2\n      lt\n      iszero\n      tag_26\n      jumpi\n      0x00\n      dup1\n      revert\n    tag_26:\n      dup2\n      add\n      swap1\n      dup1\n      dup1\n      calldataload\n      swap1\n      0x20\n      add\n      swap1\n      swap3\n      swap2\n      swap1\n      dup1\n      calldataload\n      0xffffffffffffffffffffffffffffffffffffffff\n      and\n      swap1\n      0x20\n      add\n      swap1\n      swap3\n      swap2\n      swap1\n      pop\n      pop\n      pop\n      tag_27\n      jump\t// in\n    tag_25:\n      stop\n        /* \"contracts/BasicPriceOracle.sol\":443:681  function initialize() public initializer {... */\n    tag_7:\n      tag_28\n      tag_29\n      jump\t// in\n    tag_28:\n      stop\n        /* \"@openzeppelin/contracts-upgradeable/access/AccessControlUpgradeable.sol\":4335:4471  function getRoleMember(bytes32 role, uint256 index) public view returns (address) {... */\n    tag_8:\n      tag_30\n      0x04\n      dup1\n      calldatasize\n      sub\n      0x40\n      dup2\n      lt\n      iszero\n      tag_31\n      jumpi\n      0x00\n      dup1\n      revert\n    tag_31:\n      dup2\n      add\n      swap1\n      dup1\n      dup1\n      calldataload\n      swap1\n      0x20\n      add\n      swap1\n      swap3\n      swap2\n      swap1\n      dup1\n      calldataload\n      swap1\n      0x20\n      add\n      swap1\n      swap3\n      swap2\n      swap1\n      pop\n      pop\n      pop\n      tag_32\n      jump\t// in\n    tag_30:\n      mload(0x40)\n      dup1\n      dup3\n      0xffffffffffffffffffffffffffffffffffffffff\n      and\n      dup2\n      mstore\n      0x20\n      add\n      swap2\n      pop\n      pop\n      mload(0x40)\n      dup1\n      swap2\n      sub\n      swap1\n      return\n        /* \"@openzeppelin/contracts-upgradeable/access/AccessControlUpgradeable.sol\":3320:3457  function hasRole(bytes32 role, address account) public view returns (bool) {... */\n    tag_9:\n      tag_33\n      0x04\n      dup1\n      calldatasize\n      sub\n      0x40\n      dup2\n      lt\n      iszero\n      tag_34\n      jumpi\n      0x00\n      dup1\n      revert\n    tag_34:\n      dup2\n      add\n      swap1\n      dup1\n      dup1\n      calldataload\n      swap1\n      0x20\n      add\n      swap1\n      swap3\n      swap2\n      swap1\n      dup1\n      calldataload\n      0xffffffffffffffffffffffffffffffffffffffff\n      and\n      swap1\n      0x20\n      add\n      swap1\n      swap3\n      swap2\n      swap1\n      pop\n      pop\n      pop\n      tag_35\n      jump\t// in\n    tag_33:\n      mload(0x40)\n      dup1\n      dup3\n      iszero\n      iszero\n      dup2\n      mstore\n      0x20\n      add\n      swap2\n      pop\n      pop\n      mload(0x40)\n      dup1\n      swap2\n      sub\n      swap1\n      return\n        /* \"contracts/BasicPriceOracle.sol\":700:861  function currentPrice() external override view returns (uint256) {... */\n    tag_10:\n      tag_36\n      tag_37\n      jump\t// in\n    tag_36:\n      mload(0x40)\n      dup1\n      dup3\n      dup2\n      mstore\n      0x20\n      add\n      swap2\n      pop\n      pop\n      mload(0x40)\n      dup1\n      swap2\n      sub\n      swap1\n      return\n        /* \"@openzeppelin/contracts-upgradeable/access/AccessControlUpgradeable.sol\":2097:2146  bytes32 public constant DEFAULT_ADMIN_ROLE = 0x00 */\n    tag_11:\n      tag_38\n      tag_39\n      jump\t// in\n    tag_38:\n      mload(0x40)\n      dup1\n      dup3\n      dup2\n      mstore\n      0x20\n      add\n      swap2\n      pop\n      pop\n      mload(0x40)\n      dup1\n      swap2\n      sub\n      swap1\n      return\n        /* \"@openzeppelin/contracts-upgradeable/access/AccessControlUpgradeable.sol\":3625:3750  function getRoleMemberCount(bytes32 role) public view returns (uint256) {... */\n    tag_12:\n      tag_40\n      0x04\n      dup1\n      calldatasize\n      sub\n      0x20\n      dup2\n      lt\n      iszero\n      tag_41\n      jumpi\n      0x00\n      dup1\n      revert\n    tag_41:\n      dup2\n      add\n      swap1\n      dup1\n      dup1\n      calldataload\n      swap1\n      0x20\n      add\n      swap1\n      swap3\n      swap2\n      swap1\n      pop\n      pop\n      pop\n      tag_42\n      jump\t// in\n    tag_40:\n      mload(0x40)\n      dup1\n      dup3\n      dup2\n      mstore\n      0x20\n      add\n      swap2\n      pop\n      pop\n      mload(0x40)\n      dup1\n      swap2\n      sub\n      swap1\n      return\n        /* \"@openzeppelin/contracts-upgradeable/access/AccessControlUpgradeable.sol\":5471:5697  function revokeRole(bytes32 role, address account) public virtual {... */\n    tag_13:\n      tag_43\n      0x04\n      dup1\n      calldatasize\n      sub\n      0x40\n      dup2\n      lt\n      iszero\n      tag_44\n      jumpi\n      0x00\n      dup1\n      revert\n    tag_44:\n      dup2\n      add\n      swap1\n      dup1\n      dup1\n      calldataload\n      swap1\n      0x20\n      add\n      swap1\n      swap3\n      swap2\n      swap1\n      dup1\n      calldataload\n      0xffffffffffffffffffffffffffffffffffffffff\n      and\n      swap1\n      0x20\n      add\n      swap1\n      swap3\n      swap2\n      swap1\n      pop\n      pop\n      pop\n      tag_45\n      jump\t// in\n    tag_43:\n      stop\n        /* \"contracts/BasicPriceOracle.sol\":307:373  bytes32 public constant PRICE_UPDATER = keccak256(\"PRICE_UPDATER\") */\n    tag_14:\n      tag_46\n      tag_47\n      jump\t// in\n    tag_46:\n      mload(0x40)\n      dup1\n      dup3\n      dup2\n      mstore\n      0x20\n      add\n      swap2\n      pop\n      pop\n      mload(0x40)\n      dup1\n      swap2\n      sub\n      swap1\n      return\n        /* \"contracts/BasicPriceOracle.sol\":883:1218  function setCurrentPrice(uint256 _currentPrice) external override {... */\n    tag_18:\n        /* \"contracts/BasicPriceOracle.sol\":967:1003  hasRole(PRICE_UPDATER, _msgSender()) */\n      tag_49\n        /* \"contracts/BasicPriceOracle.sol\":347:373  keccak256(\"PRICE_UPDATER\") */\n      0x74b366a297145849fa9687e16ecad1e3a60cf84f6c2256ae73e20a9f76669804\n        /* \"contracts/BasicPriceOracle.sol\":990:1002  _msgSender() */\n      tag_50\n        /* \"contracts/BasicPriceOracle.sol\":990:1000  _msgSender */\n      tag_51\n        /* \"contracts/BasicPriceOracle.sol\":990:1002  _msgSender() */\n      jump\t// in\n    tag_50:\n        /* \"contracts/BasicPriceOracle.sol\":967:974  hasRole */\n      tag_35\n        /* \"contracts/BasicPriceOracle.sol\":967:1003  hasRole(PRICE_UPDATER, _msgSender()) */\n      jump\t// in\n    tag_49:\n        /* \"contracts/BasicPriceOracle.sol\":959:1034  require(hasRole(PRICE_UPDATER, _msgSender()), \"Missing PRICE_UPDATER role\") */\n      tag_52\n      jumpi\n      mload(0x40)\n      0x08c379a000000000000000000000000000000000000000000000000000000000\n      dup2\n      mstore\n      0x04\n      add\n      dup1\n      dup1\n      0x20\n      add\n      dup3\n      dup2\n      sub\n      dup3\n      mstore\n      0x1a\n      dup2\n      mstore\n      0x20\n      add\n      dup1\n      0x4d697373696e672050524943455f5550444154455220726f6c65000000000000\n      dup2\n      mstore\n      pop\n      0x20\n      add\n      swap2\n      pop\n      pop\n      mload(0x40)\n      dup1\n      swap2\n      sub\n      swap1\n      revert\n    tag_52:\n        /* \"contracts/BasicPriceOracle.sol\":1068:1069  0 */\n      0x00\n        /* \"contracts/BasicPriceOracle.sol\":1052:1065  _currentPrice */\n      dup2\n        /* \"contracts/BasicPriceOracle.sol\":1052:1069  _currentPrice > 0 */\n      gt\n        /* \"contracts/BasicPriceOracle.sol\":1044:1096  require(_currentPrice > 0, \"Price must be non-zero\") */\n      tag_53\n      jumpi\n      mload(0x40)\n      0x08c379a000000000000000000000000000000000000000000000000000000000\n      dup2\n      mstore\n      0x04\n      add\n      dup1\n      dup1\n      0x20\n      add\n      dup3\n      dup2\n      sub\n      dup3\n      mstore\n      0x16\n      dup2\n      mstore\n      0x20\n      add\n      dup1\n      0x5072696365206d757374206265206e6f6e2d7a65726f00000000000000000000\n      dup2\n      mstore\n      pop\n      0x20\n      add\n      swap2\n      pop\n      pop\n      mload(0x40)\n      dup1\n      swap2\n      sub\n      swap1\n      revert\n    tag_53:\n        /* \"contracts/BasicPriceOracle.sol\":1118:1122  true */\n      0x01\n        /* \"contracts/BasicPriceOracle.sol\":1107:1115  priceSet */\n      0x65\n      0x00\n        /* \"contracts/BasicPriceOracle.sol\":1107:1122  priceSet = true */\n      0x0100\n      exp\n      dup2\n      sload\n      dup2\n      0xff\n      mul\n      not\n      and\n      swap1\n      dup4\n      iszero\n      iszero\n      mul\n      or\n      swap1\n      sstore\n      pop\n        /* \"contracts/BasicPriceOracle.sol\":1148:1161  _currentPrice */\n      dup1\n        /* \"contracts/BasicPriceOracle.sol\":1132:1145  currentPrice_ */\n      0x66\n        /* \"contracts/BasicPriceOracle.sol\":1132:1161  currentPrice_ = _currentPrice */\n      dup2\n      swap1\n      sstore\n      pop\n        /* \"contracts/BasicPriceOracle.sol\":1177:1211  CurrentPriceUpdated(_currentPrice) */\n      0xcfebfed7291191489847e6abdd482d8816f6f32efecf69fc66c91631a2f217f9\n        /* \"contracts/BasicPriceOracle.sol\":1197:1210  _currentPrice */\n      dup2\n        /* \"contracts/BasicPriceOracle.sol\":1177:1211  CurrentPriceUpdated(_currentPrice) */\n      mload(0x40)\n      dup1\n      dup3\n      dup2\n      mstore\n      0x20\n      add\n      swap2\n      pop\n      pop\n      mload(0x40)\n      dup1\n      swap2\n      sub\n      swap1\n      log1\n        /* \"contracts/BasicPriceOracle.sol\":883:1218  function setCurrentPrice(uint256 _currentPrice) external override {... */\n      pop\n      jump\t// out\n        /* \"@openzeppelin/contracts-upgradeable/access/AccessControlUpgradeable.sol\":4652:4764  function getRoleAdmin(bytes32 role) public view returns (bytes32) {... */\n    tag_21:\n        /* \"@openzeppelin/contracts-upgradeable/access/AccessControlUpgradeable.sol\":4709:4716  bytes32 */\n      0x00\n        /* \"@openzeppelin/contracts-upgradeable/access/AccessControlUpgradeable.sol\":4735:4741  _roles */\n      0x33\n        /* \"@openzeppelin/contracts-upgradeable/access/AccessControlUpgradeable.sol\":4735:4747  _roles[role] */\n      0x00\n        /* \"@openzeppelin/contracts-upgradeable/access/AccessControlUpgradeable.sol\":4742:4746  role */\n      dup4\n        /* \"@openzeppelin/contracts-upgradeable/access/AccessControlUpgradeable.sol\":4735:4747  _roles[role] */\n      dup2\n      mstore\n      0x20\n      add\n      swap1\n      dup2\n      mstore\n      0x20\n      add\n      0x00\n      keccak256\n        /* \"@openzeppelin/contracts-upgradeable/access/AccessControlUpgradeable.sol\":4735:4757  _roles[role].adminRole */\n      0x02\n      add\n      sload\n        /* \"@openzeppelin/contracts-upgradeable/access/AccessControlUpgradeable.sol\":4728:4757  return _roles[role].adminRole */\n      swap1\n      pop\n        /* \"@openzeppelin/contracts-upgradeable/access/AccessControlUpgradeable.sol\":4652:4764  function getRoleAdmin(bytes32 role) public view returns (bytes32) {... */\n      swap2\n      swap1\n      pop\n      jump\t// out\n        /* \"@openzeppelin/contracts-upgradeable/access/AccessControlUpgradeable.sol\":5014:5237  function grantRole(bytes32 role, address account) public virtual {... */\n    tag_24:\n        /* \"@openzeppelin/contracts-upgradeable/access/AccessControlUpgradeable.sol\":5097:5142  hasRole(_roles[role].adminRole, _msgSender()) */\n      tag_56\n        /* \"@openzeppelin/contracts-upgradeable/access/AccessControlUpgradeable.sol\":5105:5111  _roles */\n      0x33\n        /* \"@openzeppelin/contracts-upgradeable/access/AccessControlUpgradeable.sol\":5105:5117  _roles[role] */\n      0x00\n        /* \"@openzeppelin/contracts-upgradeable/access/AccessControlUpgradeable.sol\":5112:5116  role */\n      dup5\n        /* \"@openzeppelin/contracts-upgradeable/access/AccessControlUpgradeable.sol\":5105:5117  _roles[role] */\n      dup2\n      mstore\n      0x20\n      add\n      swap1\n      dup2\n      mstore\n      0x20\n      add\n      0x00\n      keccak256\n        /* \"@openzeppelin/contracts-upgradeable/access/AccessControlUpgradeable.sol\":5105:5127  _roles[role].adminRole */\n      0x02\n      add\n      sload\n        /* \"@openzeppelin/contracts-upgradeable/access/AccessControlUpgradeable.sol\":5129:5141  _msgSender() */\n      tag_57\n        /* \"@openzeppelin/contracts-upgradeable/access/AccessControlUpgradeable.sol\":5129:5139  _msgSender */\n      tag_51\n        /* \"@openzeppelin/contracts-upgradeable/access/AccessControlUpgradeable.sol\":5129:5141  _msgSender() */\n      jump\t// in\n    tag_57:\n        /* \"@openzeppelin/contracts-upgradeable/access/AccessControlUpgradeable.sol\":5097:5104  hasRole */\n      tag_35\n        /* \"@openzeppelin/contracts-upgradeable/access/AccessControlUpgradeable.sol\":5097:5142  hasRole(_roles[role].adminRole, _msgSender()) */\n      jump\t// in\n    tag_56:\n        /* \"@openzeppelin/contracts-upgradeable/access/AccessControlUpgradeable.sol\":5089:5194  require(hasRole(_roles[role].adminRole, _msgSender()), \"AccessControl: sender must be an admin to grant\") */\n      tag_58\n      jumpi\n      mload(0x40)\n      0x08c379a000000000000000000000000000000000000000000000000000000000\n      dup2\n      mstore\n      0x04\n      add\n      dup1\n      dup1\n      0x20\n      add\n      dup3\n      dup2\n      sub\n      dup3\n      mstore\n      0x2f\n      dup2\n      mstore\n      0x20\n      add\n      dup1\n      data_0ba7116025f1ef6b158a2bd2238e617f30e17c9e456917d901086ca4f8ad2811\n      0x2f\n      swap2\n      codecopy\n      0x40\n      add\n      swap2\n      pop\n      pop\n      mload(0x40)\n      dup1\n      swap2\n      sub\n      swap1\n      revert\n    tag_58:\n        /* \"@openzeppelin/contracts-upgradeable/access/AccessControlUpgradeable.sol\":5205:5230  _grantRole(role, account) */\n      tag_59\n        /* \"@openzeppelin/contracts-upgradeable/access/AccessControlUpgradeable.sol\":5216:5220  role */\n      dup3\n        /* \"@openzeppelin/contracts-upgradeable/access/AccessControlUpgradeable.sol\":5222:5229  account */\n      dup3\n        /* \"@openzeppelin/contracts-upgradeable/access/AccessControlUpgradeable.sol\":5205:5215  _grantRole */\n      tag_60\n        /* \"@openzeppelin/contracts-upgradeable/access/AccessControlUpgradeable.sol\":5205:5230  _grantRole(role, account) */\n      jump\t// in\n    tag_59:\n        /* \"@openzeppelin/contracts-upgradeable/access/AccessControlUpgradeable.sol\":5014:5237  function grantRole(bytes32 role, address account) public virtual {... */\n      pop\n      pop\n      jump\t// out\n        /* \"@openzeppelin/contracts-upgradeable/access/AccessControlUpgradeable.sol\":6188:6393  function renounceRole(bytes32 role, address account) public virtual {... */\n    tag_27:\n        /* \"@openzeppelin/contracts-upgradeable/access/AccessControlUpgradeable.sol\":6285:6297  _msgSender() */\n      tag_62\n        /* \"@openzeppelin/contracts-upgradeable/access/AccessControlUpgradeable.sol\":6285:6295  _msgSender */\n      tag_51\n        /* \"@openzeppelin/contracts-upgradeable/access/AccessControlUpgradeable.sol\":6285:6297  _msgSender() */\n      jump\t// in\n    tag_62:\n        /* \"@openzeppelin/contracts-upgradeable/access/AccessControlUpgradeable.sol\":6274:6297  account == _msgSender() */\n      0xffffffffffffffffffffffffffffffffffffffff\n      and\n        /* \"@openzeppelin/contracts-upgradeable/access/AccessControlUpgradeable.sol\":6274:6281  account */\n      dup2\n        /* \"@openzeppelin/contracts-upgradeable/access/AccessControlUpgradeable.sol\":6274:6297  account == _msgSender() */\n      0xffffffffffffffffffffffffffffffffffffffff\n      and\n      eq\n        /* \"@openzeppelin/contracts-upgradeable/access/AccessControlUpgradeable.sol\":6266:6349  require(account == _msgSender(), \"AccessControl: can only renounce roles for self\") */\n      tag_63\n      jumpi\n      mload(0x40)\n      0x08c379a000000000000000000000000000000000000000000000000000000000\n      dup2\n      mstore\n      0x04\n      add\n      dup1\n      dup1\n      0x20\n      add\n      dup3\n      dup2\n      sub\n      dup3\n      mstore\n      0x2f\n      dup2\n      mstore\n      0x20\n      add\n      dup1\n      data_fb06fa8ff2141e8ed74502f6792273793f25f0e9d3cf15344f3f5a0d4948fd4b\n      0x2f\n      swap2\n      codecopy\n      0x40\n      add\n      swap2\n      pop\n      pop\n      mload(0x40)\n      dup1\n      swap2\n      sub\n      swap1\n      revert\n    tag_63:\n        /* \"@openzeppelin/contracts-upgradeable/access/AccessControlUpgradeable.sol\":6360:6386  _revokeRole(role, account) */\n      tag_64\n        /* \"@openzeppelin/contracts-upgradeable/access/AccessControlUpgradeable.sol\":6372:6376  role */\n      dup3\n        /* \"@openzeppelin/contracts-upgradeable/access/AccessControlUpgradeable.sol\":6378:6385  account */\n      dup3\n        /* \"@openzeppelin/contracts-upgradeable/access/AccessControlUpgradeable.sol\":6360:6371  _revokeRole */\n      tag_65\n        /* \"@openzeppelin/contracts-upgradeable/access/AccessControlUpgradeable.sol\":6360:6386  _revokeRole(role, account) */\n      jump\t// in\n    tag_64:\n        /* \"@openzeppelin/contracts-upgradeable/access/AccessControlUpgradeable.sol\":6188:6393  function renounceRole(bytes32 role, address account) public virtual {... */\n      pop\n      pop\n      jump\t// out\n        /* \"contracts/BasicPriceOracle.sol\":443:681  function initialize() public initializer {... */\n    tag_29:\n        /* \"@openzeppelin/contracts-upgradeable/proxy/Initializable.sol\":1512:1525  _initializing */\n      0x00\n      0x01\n      swap1\n      sload\n      swap1\n      0x0100\n      exp\n      swap1\n      div\n      0xff\n      and\n        /* \"@openzeppelin/contracts-upgradeable/proxy/Initializable.sol\":1512:1545  _initializing || _isConstructor() */\n      dup1\n      tag_67\n      jumpi\n      pop\n        /* \"@openzeppelin/contracts-upgradeable/proxy/Initializable.sol\":1529:1545  _isConstructor() */\n      tag_68\n        /* \"@openzeppelin/contracts-upgradeable/proxy/Initializable.sol\":1529:1543  _isConstructor */\n      tag_69\n        /* \"@openzeppelin/contracts-upgradeable/proxy/Initializable.sol\":1529:1545  _isConstructor() */\n      jump\t// in\n    tag_68:\n        /* \"@openzeppelin/contracts-upgradeable/proxy/Initializable.sol\":1512:1545  _initializing || _isConstructor() */\n    tag_67:\n        /* \"@openzeppelin/contracts-upgradeable/proxy/Initializable.sol\":1512:1562  _initializing || _isConstructor() || !_initialized */\n      dup1\n      tag_70\n      jumpi\n      pop\n        /* \"@openzeppelin/contracts-upgradeable/proxy/Initializable.sol\":1550:1562  _initialized */\n      0x00\n      dup1\n      sload\n      swap1\n      0x0100\n      exp\n      swap1\n      div\n      0xff\n      and\n        /* \"@openzeppelin/contracts-upgradeable/proxy/Initializable.sol\":1549:1562  !_initialized */\n      iszero\n        /* \"@openzeppelin/contracts-upgradeable/proxy/Initializable.sol\":1512:1562  _initializing || _isConstructor() || !_initialized */\n    tag_70:\n        /* \"@openzeppelin/contracts-upgradeable/proxy/Initializable.sol\":1504:1613  require(_initializing || _isConstructor() || !_initialized, \"Initializable: contract is already initialized\") */\n      tag_71\n      jumpi\n      mload(0x40)\n      0x08c379a000000000000000000000000000000000000000000000000000000000\n      dup2\n      mstore\n      0x04\n      add\n      dup1\n      dup1\n      0x20\n      add\n      dup3\n      dup2\n      sub\n      dup3\n      mstore\n      0x2e\n      dup2\n      mstore\n      0x20\n      add\n      dup1\n      data_7a2a4e26842155ea933fe6eb6e3137eb5a296dcdf55721c552be7b4c3cc23759\n      0x2e\n      swap2\n      codecopy\n      0x40\n      add\n      swap2\n      pop\n      pop\n      mload(0x40)\n      dup1\n      swap2\n      sub\n      swap1\n      revert\n    tag_71:\n        /* \"@openzeppelin/contracts-upgradeable/proxy/Initializable.sol\":1624:1643  bool isTopLevelCall */\n      0x00\n        /* \"@openzeppelin/contracts-upgradeable/proxy/Initializable.sol\":1647:1660  _initializing */\n      dup1\n      0x01\n      swap1\n      sload\n      swap1\n      0x0100\n      exp\n      swap1\n      div\n      0xff\n      and\n        /* \"@openzeppelin/contracts-upgradeable/proxy/Initializable.sol\":1646:1660  !_initializing */\n      iszero\n        /* \"@openzeppelin/contracts-upgradeable/proxy/Initializable.sol\":1624:1660  bool isTopLevelCall = !_initializing */\n      swap1\n      pop\n        /* \"@openzeppelin/contracts-upgradeable/proxy/Initializable.sol\":1674:1688  isTopLevelCall */\n      dup1\n        /* \"@openzeppelin/contracts-upgradeable/proxy/Initializable.sol\":1670:1768  if (isTopLevelCall) {... */\n      iszero\n      tag_72\n      jumpi\n        /* \"@openzeppelin/contracts-upgradeable/proxy/Initializable.sol\":1720:1724  true */\n      0x01\n        /* \"@openzeppelin/contracts-upgradeable/proxy/Initializable.sol\":1704:1717  _initializing */\n      0x00\n      0x01\n        /* \"@openzeppelin/contracts-upgradeable/proxy/Initializable.sol\":1704:1724  _initializing = true */\n      0x0100\n      exp\n      dup2\n      sload\n      dup2\n      0xff\n      mul\n      not\n      and\n      swap1\n      dup4\n      iszero\n      iszero\n      mul\n      or\n      swap1\n      sstore\n      pop\n        /* \"@openzeppelin/contracts-upgradeable/proxy/Initializable.sol\":1753:1757  true */\n      0x01\n        /* \"@openzeppelin/contracts-upgradeable/proxy/Initializable.sol\":1738:1750  _initialized */\n      0x00\n      dup1\n        /* \"@openzeppelin/contracts-upgradeable/proxy/Initializable.sol\":1738:1757  _initialized = true */\n      0x0100\n      exp\n      dup2\n      sload\n      dup2\n      0xff\n      mul\n      not\n      and\n      swap1\n      dup4\n      iszero\n      iszero\n      mul\n      or\n      swap1\n      sstore\n      pop\n        /* \"@openzeppelin/contracts-upgradeable/proxy/Initializable.sol\":1670:1768  if (isTopLevelCall) {... */\n    tag_72:\n        /* \"contracts/BasicPriceOracle.sol\":494:516  __AccessControl_init() */\n      tag_74\n        /* \"contracts/BasicPriceOracle.sol\":494:514  __AccessControl_init */\n      tag_75\n        /* \"contracts/BasicPriceOracle.sol\":494:516  __AccessControl_init() */\n      jump\t// in\n    tag_74:\n        /* \"contracts/BasicPriceOracle.sol\":527:571  _setupRole(DEFAULT_ADMIN_ROLE, _msgSender()) */\n      tag_76\n        /* \"@openzeppelin/contracts-upgradeable/access/AccessControlUpgradeable.sol\":2142:2146  0x00 */\n      0x00\n        /* \"contracts/BasicPriceOracle.sol\":538:556  DEFAULT_ADMIN_ROLE */\n      dup1\n      shl\n        /* \"contracts/BasicPriceOracle.sol\":558:570  _msgSender() */\n      tag_77\n        /* \"contracts/BasicPriceOracle.sol\":558:568  _msgSender */\n      tag_51\n        /* \"contracts/BasicPriceOracle.sol\":558:570  _msgSender() */\n      jump\t// in\n    tag_77:\n        /* \"contracts/BasicPriceOracle.sol\":527:537  _setupRole */\n      tag_78\n        /* \"contracts/BasicPriceOracle.sol\":527:571  _setupRole(DEFAULT_ADMIN_ROLE, _msgSender()) */\n      jump\t// in\n    tag_76:\n        /* \"contracts/BasicPriceOracle.sol\":581:620  _setupRole(PRICE_UPDATER, _msgSender()) */\n      tag_79\n        /* \"contracts/BasicPriceOracle.sol\":347:373  keccak256(\"PRICE_UPDATER\") */\n      0x74b366a297145849fa9687e16ecad1e3a60cf84f6c2256ae73e20a9f76669804\n        /* \"contracts/BasicPriceOracle.sol\":607:619  _msgSender() */\n      tag_80\n        /* \"contracts/BasicPriceOracle.sol\":607:617  _msgSender */\n      tag_51\n        /* \"contracts/BasicPriceOracle.sol\":607:619  _msgSender() */\n      jump\t// in\n    tag_80:\n        /* \"contracts/BasicPriceOracle.sol\":581:591  _setupRole */\n      tag_78\n        /* \"contracts/BasicPriceOracle.sol\":581:620  _setupRole(PRICE_UPDATER, _msgSender()) */\n      jump\t// in\n    tag_79:\n        /* \"contracts/BasicPriceOracle.sol\":642:647  false */\n      0x00\n        /* \"contracts/BasicPriceOracle.sol\":631:639  priceSet */\n      0x65\n      0x00\n        /* \"contracts/BasicPriceOracle.sol\":631:647  priceSet = false */\n      0x0100\n      exp\n      dup2\n      sload\n      dup2\n      0xff\n      mul\n      not\n      and\n      swap1\n      dup4\n      iszero\n      iszero\n      mul\n      or\n      swap1\n      sstore\n      pop\n        /* \"contracts/BasicPriceOracle.sol\":673:674  0 */\n      0x00\n        /* \"contracts/BasicPriceOracle.sol\":657:670  currentPrice_ */\n      0x66\n        /* \"contracts/BasicPriceOracle.sol\":657:674  currentPrice_ = 0 */\n      dup2\n      swap1\n      sstore\n      pop\n        /* \"@openzeppelin/contracts-upgradeable/proxy/Initializable.sol\":1794:1808  isTopLevelCall */\n      dup1\n        /* \"@openzeppelin/contracts-upgradeable/proxy/Initializable.sol\":1790:1856  if (isTopLevelCall) {... */\n      iszero\n      tag_81\n      jumpi\n        /* \"@openzeppelin/contracts-upgradeable/proxy/Initializable.sol\":1840:1845  false */\n      0x00\n        /* \"@openzeppelin/contracts-upgradeable/proxy/Initializable.sol\":1824:1837  _initializing */\n      dup1\n      0x01\n        /* \"@openzeppelin/contracts-upgradeable/proxy/Initializable.sol\":1824:1845  _initializing = false */\n      0x0100\n      exp\n      dup2\n      sload\n      dup2\n      0xff\n      mul\n      not\n      and\n      swap1\n      dup4\n      iszero\n      iszero\n      mul\n      or\n      swap1\n      sstore\n      pop\n        /* \"@openzeppelin/contracts-upgradeable/proxy/Initializable.sol\":1790:1856  if (isTopLevelCall) {... */\n    tag_81:\n        /* \"contracts/BasicPriceOracle.sol\":443:681  function initialize() public initializer {... */\n      pop\n      jump\t// out\n        /* \"@openzeppelin/contracts-upgradeable/access/AccessControlUpgradeable.sol\":4335:4471  function getRoleMember(bytes32 role, uint256 index) public view returns (address) {... */\n    tag_32:\n        /* \"@openzeppelin/contracts-upgradeable/access/AccessControlUpgradeable.sol\":4408:4415  address */\n      0x00\n        /* \"@openzeppelin/contracts-upgradeable/access/AccessControlUpgradeable.sol\":4434:4464  _roles[role].members.at(index) */\n      tag_83\n        /* \"@openzeppelin/contracts-upgradeable/access/AccessControlUpgradeable.sol\":4458:4463  index */\n      dup3\n        /* \"@openzeppelin/contracts-upgradeable/access/AccessControlUpgradeable.sol\":4434:4440  _roles */\n      0x33\n        /* \"@openzeppelin/contracts-upgradeable/access/AccessControlUpgradeable.sol\":4434:4446  _roles[role] */\n      0x00\n        /* \"@openzeppelin/contracts-upgradeable/access/AccessControlUpgradeable.sol\":4441:4445  role */\n      dup7\n        /* \"@openzeppelin/contracts-upgradeable/access/AccessControlUpgradeable.sol\":4434:4446  _roles[role] */\n      dup2\n      mstore\n      0x20\n      add\n      swap1\n      dup2\n      mstore\n      0x20\n      add\n      0x00\n      keccak256\n        /* \"@openzeppelin/contracts-upgradeable/access/AccessControlUpgradeable.sol\":4434:4454  _roles[role].members */\n      0x00\n      add\n        /* \"@openzeppelin/contracts-upgradeable/access/AccessControlUpgradeable.sol\":4434:4457  _roles[role].members.at */\n      tag_84\n      swap1\n        /* \"@openzeppelin/contracts-upgradeable/access/AccessControlUpgradeable.sol\":4434:4464  _roles[role].members.at(index) */\n      swap2\n      swap1\n      0xffffffff\n      and\n      jump\t// in\n    tag_83:\n        /* \"@openzeppelin/contracts-upgradeable/access/AccessControlUpgradeable.sol\":4427:4464  return _roles[role].members.at(index) */\n      swap1\n      pop\n        /* \"@openzeppelin/contracts-upgradeable/access/AccessControlUpgradeable.sol\":4335:4471  function getRoleMember(bytes32 role, uint256 index) public view returns (address) {... */\n      swap3\n      swap2\n      pop\n      pop\n      jump\t// out\n        /* \"@openzeppelin/contracts-upgradeable/access/AccessControlUpgradeable.sol\":3320:3457  function hasRole(bytes32 role, address account) public view returns (bool) {... */\n    tag_35:\n        /* \"@openzeppelin/contracts-upgradeable/access/AccessControlUpgradeable.sol\":3389:3393  bool */\n      0x00\n        /* \"@openzeppelin/contracts-upgradeable/access/AccessControlUpgradeable.sol\":3412:3450  _roles[role].members.contains(account) */\n      tag_86\n        /* \"@openzeppelin/contracts-upgradeable/access/AccessControlUpgradeable.sol\":3442:3449  account */\n      dup3\n        /* \"@openzeppelin/contracts-upgradeable/access/AccessControlUpgradeable.sol\":3412:3418  _roles */\n      0x33\n        /* \"@openzeppelin/contracts-upgradeable/access/AccessControlUpgradeable.sol\":3412:3424  _roles[role] */\n      0x00\n        /* \"@openzeppelin/contracts-upgradeable/access/AccessControlUpgradeable.sol\":3419:3423  role */\n      dup7\n        /* \"@openzeppelin/contracts-upgradeable/access/AccessControlUpgradeable.sol\":3412:3424  _roles[role] */\n      dup2\n      mstore\n      0x20\n      add\n      swap1\n      dup2\n      mstore\n      0x20\n      add\n      0x00\n      keccak256\n        /* \"@openzeppelin/contracts-upgradeable/access/AccessControlUpgradeable.sol\":3412:3432  _roles[role].members */\n      0x00\n      add\n        /* \"@openzeppelin/contracts-upgradeable/access/AccessControlUpgradeable.sol\":3412:3441  _roles[role].members.contains */\n      tag_87\n      swap1\n        /* \"@openzeppelin/contracts-upgradeable/access/AccessControlUpgradeable.sol\":3412:3450  _roles[role].members.contains(account) */\n      swap2\n      swap1\n      0xffffffff\n      and\n      jump\t// in\n    tag_86:\n        /* \"@openzeppelin/contracts-upgradeable/access/AccessControlUpgradeable.sol\":3405:3450  return _roles[role].members.contains(account) */\n      swap1\n      pop\n        /* \"@openzeppelin/contracts-upgradeable/access/AccessControlUpgradeable.sol\":3320:3457  function hasRole(bytes32 role, address account) public view returns (bool) {... */\n      swap3\n      swap2\n      pop\n      pop\n      jump\t// out\n        /* \"contracts/BasicPriceOracle.sol\":700:861  function currentPrice() external override view returns (uint256) {... */\n    tag_37:\n        /* \"contracts/BasicPriceOracle.sol\":756:763  uint256 */\n      0x00\n        /* \"contracts/BasicPriceOracle.sol\":783:791  priceSet */\n      0x65\n      0x00\n      swap1\n      sload\n      swap1\n      0x0100\n      exp\n      swap1\n      div\n      0xff\n      and\n        /* \"contracts/BasicPriceOracle.sol\":775:824  require(priceSet, \"Price must be set beforehand\") */\n      tag_89\n      jumpi\n      mload(0x40)\n      0x08c379a000000000000000000000000000000000000000000000000000000000\n      dup2\n      mstore\n      0x04\n      add\n      dup1\n      dup1\n      0x20\n      add\n      dup3\n      dup2\n      sub\n      dup3\n      mstore\n      0x1c\n      dup2\n      mstore\n      0x20\n      add\n      dup1\n      0x5072696365206d75737420626520736574206265666f726568616e6400000000\n      dup2\n      mstore\n      pop\n      0x20\n      add\n      swap2\n      pop\n      pop\n      mload(0x40)\n      dup1\n      swap2\n      sub\n      swap1\n      revert\n    tag_89:\n        /* \"contracts/BasicPriceOracle.sol\":841:854  currentPrice_ */\n      sload(0x66)\n        /* \"contracts/BasicPriceOracle.sol\":834:854  return currentPrice_ */\n      swap1\n      pop\n        /* \"contracts/BasicPriceOracle.sol\":700:861  function currentPrice() external override view returns (uint256) {... */\n      swap1\n      jump\t// out\n        /* \"@openzeppelin/contracts-upgradeable/access/AccessControlUpgradeable.sol\":2097:2146  bytes32 public constant DEFAULT_ADMIN_ROLE = 0x00 */\n    tag_39:\n        /* \"@openzeppelin/contracts-upgradeable/access/AccessControlUpgradeable.sol\":2142:2146  0x00 */\n      0x00\n        /* \"@openzeppelin/contracts-upgradeable/access/AccessControlUpgradeable.sol\":2097:2146  bytes32 public constant DEFAULT_ADMIN_ROLE = 0x00 */\n      dup1\n      shl\n      dup2\n      jump\t// out\n        /* \"@openzeppelin/contracts-upgradeable/access/AccessControlUpgradeable.sol\":3625:3750  function getRoleMemberCount(bytes32 role) public view returns (uint256) {... */\n    tag_42:\n        /* \"@openzeppelin/contracts-upgradeable/access/AccessControlUpgradeable.sol\":3688:3695  uint256 */\n      0x00\n        /* \"@openzeppelin/contracts-upgradeable/access/AccessControlUpgradeable.sol\":3714:3743  _roles[role].members.length() */\n      tag_91\n        /* \"@openzeppelin/contracts-upgradeable/access/AccessControlUpgradeable.sol\":3714:3720  _roles */\n      0x33\n        /* \"@openzeppelin/contracts-upgradeable/access/AccessControlUpgradeable.sol\":3714:3726  _roles[role] */\n      0x00\n        /* \"@openzeppelin/contracts-upgradeable/access/AccessControlUpgradeable.sol\":3721:3725  role */\n      dup5\n        /* \"@openzeppelin/contracts-upgradeable/access/AccessControlUpgradeable.sol\":3714:3726  _roles[role] */\n      dup2\n      mstore\n      0x20\n      add\n      swap1\n      dup2\n      mstore\n      0x20\n      add\n      0x00\n      keccak256\n        /* \"@openzeppelin/contracts-upgradeable/access/AccessControlUpgradeable.sol\":3714:3734  _roles[role].members */\n      0x00\n      add\n        /* \"@openzeppelin/contracts-upgradeable/access/AccessControlUpgradeable.sol\":3714:3741  _roles[role].members.length */\n      tag_92\n        /* \"@openzeppelin/contracts-upgradeable/access/AccessControlUpgradeable.sol\":3714:3743  _roles[role].members.length() */\n      jump\t// in\n    tag_91:\n        /* \"@openzeppelin/contracts-upgradeable/access/AccessControlUpgradeable.sol\":3707:3743  return _roles[role].members.length() */\n      swap1\n      pop\n        /* \"@openzeppelin/contracts-upgradeable/access/AccessControlUpgradeable.sol\":3625:3750  function getRoleMemberCount(bytes32 role) public view returns (uint256) {... */\n      swap2\n      swap1\n      pop\n      jump\t// out\n        /* \"@openzeppelin/contracts-upgradeable/access/AccessControlUpgradeable.sol\":5471:5697  function revokeRole(bytes32 role, address account) public virtual {... */\n    tag_45:\n        /* \"@openzeppelin/contracts-upgradeable/access/AccessControlUpgradeable.sol\":5555:5600  hasRole(_roles[role].adminRole, _msgSender()) */\n      tag_94\n        /* \"@openzeppelin/contracts-upgradeable/access/AccessControlUpgradeable.sol\":5563:5569  _roles */\n      0x33\n        /* \"@openzeppelin/contracts-upgradeable/access/AccessControlUpgradeable.sol\":5563:5575  _roles[role] */\n      0x00\n        /* \"@openzeppelin/contracts-upgradeable/access/AccessControlUpgradeable.sol\":5570:5574  role */\n      dup5\n        /* \"@openzeppelin/contracts-upgradeable/access/AccessControlUpgradeable.sol\":5563:5575  _roles[role] */\n      dup2\n      mstore\n      0x20\n      add\n      swap1\n      dup2\n      mstore\n      0x20\n      add\n      0x00\n      keccak256\n        /* \"@openzeppelin/contracts-upgradeable/access/AccessControlUpgradeable.sol\":5563:5585  _roles[role].adminRole */\n      0x02\n      add\n      sload\n        /* \"@openzeppelin/contracts-upgradeable/access/AccessControlUpgradeable.sol\":5587:5599  _msgSender() */\n      tag_95\n        /* \"@openzeppelin/contracts-upgradeable/access/AccessControlUpgradeable.sol\":5587:5597  _msgSender */\n      tag_51\n        /* \"@openzeppelin/contracts-upgradeable/access/AccessControlUpgradeable.sol\":5587:5599  _msgSender() */\n      jump\t// in\n    tag_95:\n        /* \"@openzeppelin/contracts-upgradeable/access/AccessControlUpgradeable.sol\":5555:5562  hasRole */\n      tag_35\n        /* \"@openzeppelin/contracts-upgradeable/access/AccessControlUpgradeable.sol\":5555:5600  hasRole(_roles[role].adminRole, _msgSender()) */\n      jump\t// in\n    tag_94:\n        /* \"@openzeppelin/contracts-upgradeable/access/AccessControlUpgradeable.sol\":5547:5653  require(hasRole(_roles[role].adminRole, _msgSender()), \"AccessControl: sender must be an admin to revoke\") */\n      tag_96\n      jumpi\n      mload(0x40)\n      0x08c379a000000000000000000000000000000000000000000000000000000000\n      dup2\n      mstore\n      0x04\n      add\n      dup1\n      dup1\n      0x20\n      add\n      dup3\n      dup2\n      sub\n      dup3\n      mstore\n      0x30\n      dup2\n      mstore\n      0x20\n      add\n      dup1\n      data_64344570eab7406ca49d34d38bf2b2496dfda914405390c5057c8b0aabf798a3\n      0x30\n      swap2\n      codecopy\n      0x40\n      add\n      swap2\n      pop\n      pop\n      mload(0x40)\n      dup1\n      swap2\n      sub\n      swap1\n      revert\n    tag_96:\n        /* \"@openzeppelin/contracts-upgradeable/access/AccessControlUpgradeable.sol\":5664:5690  _revokeRole(role, account) */\n      tag_97\n        /* \"@openzeppelin/contracts-upgradeable/access/AccessControlUpgradeable.sol\":5676:5680  role */\n      dup3\n        /* \"@openzeppelin/contracts-upgradeable/access/AccessControlUpgradeable.sol\":5682:5689  account */\n      dup3\n        /* \"@openzeppelin/contracts-upgradeable/access/AccessControlUpgradeable.sol\":5664:5675  _revokeRole */\n      tag_65\n        /* \"@openzeppelin/contracts-upgradeable/access/AccessControlUpgradeable.sol\":5664:5690  _revokeRole(role, account) */\n      jump\t// in\n    tag_97:\n        /* \"@openzeppelin/contracts-upgradeable/access/AccessControlUpgradeable.sol\":5471:5697  function revokeRole(bytes32 role, address account) public virtual {... */\n      pop\n      pop\n      jump\t// out\n        /* \"contracts/BasicPriceOracle.sol\":307:373  bytes32 public constant PRICE_UPDATER = keccak256(\"PRICE_UPDATER\") */\n    tag_47:\n        /* \"contracts/BasicPriceOracle.sol\":347:373  keccak256(\"PRICE_UPDATER\") */\n      0x74b366a297145849fa9687e16ecad1e3a60cf84f6c2256ae73e20a9f76669804\n        /* \"contracts/BasicPriceOracle.sol\":307:373  bytes32 public constant PRICE_UPDATER = keccak256(\"PRICE_UPDATER\") */\n      dup2\n      jump\t// out\n        /* \"@openzeppelin/contracts-upgradeable/utils/ContextUpgradeable.sol\":828:932  function _msgSender() internal view virtual returns (address payable) {... */\n    tag_51:\n        /* \"@openzeppelin/contracts-upgradeable/utils/ContextUpgradeable.sol\":881:896  address payable */\n      0x00\n        /* \"@openzeppelin/contracts-upgradeable/utils/ContextUpgradeable.sol\":915:925  msg.sender */\n      caller\n        /* \"@openzeppelin/contracts-upgradeable/utils/ContextUpgradeable.sol\":908:925  return msg.sender */\n      swap1\n      pop\n        /* \"@openzeppelin/contracts-upgradeable/utils/ContextUpgradeable.sol\":828:932  function _msgSender() internal view virtual returns (address payable) {... */\n      swap1\n      jump\t// out\n        /* \"@openzeppelin/contracts-upgradeable/access/AccessControlUpgradeable.sol\":7395:7579  function _grantRole(bytes32 role, address account) private {... */\n    tag_60:\n        /* \"@openzeppelin/contracts-upgradeable/access/AccessControlUpgradeable.sol\":7468:7501  _roles[role].members.add(account) */\n      tag_100\n        /* \"@openzeppelin/contracts-upgradeable/access/AccessControlUpgradeable.sol\":7493:7500  account */\n      dup2\n        /* \"@openzeppelin/contracts-upgradeable/access/AccessControlUpgradeable.sol\":7468:7474  _roles */\n      0x33\n        /* \"@openzeppelin/contracts-upgradeable/access/AccessControlUpgradeable.sol\":7468:7480  _roles[role] */\n      0x00\n        /* \"@openzeppelin/contracts-upgradeable/access/AccessControlUpgradeable.sol\":7475:7479  role */\n      dup6\n        /* \"@openzeppelin/contracts-upgradeable/access/AccessControlUpgradeable.sol\":7468:7480  _roles[role] */\n      dup2\n      mstore\n      0x20\n      add\n      swap1\n      dup2\n      mstore\n      0x20\n      add\n      0x00\n      keccak256\n        /* \"@openzeppelin/contracts-upgradeable/access/AccessControlUpgradeable.sol\":7468:7488  _roles[role].members */\n      0x00\n      add\n        /* \"@openzeppelin/contracts-upgradeable/access/AccessControlUpgradeable.sol\":7468:7492  _roles[role].members.add */\n      tag_101\n      swap1\n        /* \"@openzeppelin/contracts-upgradeable/access/AccessControlUpgradeable.sol\":7468:7501  _roles[role].members.add(account) */\n      swap2\n      swap1\n      0xffffffff\n      and\n      jump\t// in\n    tag_100:\n        /* \"@openzeppelin/contracts-upgradeable/access/AccessControlUpgradeable.sol\":7464:7573  if (_roles[role].members.add(account)) {... */\n      iszero\n      tag_102\n      jumpi\n        /* \"@openzeppelin/contracts-upgradeable/access/AccessControlUpgradeable.sol\":7549:7561  _msgSender() */\n      tag_103\n        /* \"@openzeppelin/contracts-upgradeable/access/AccessControlUpgradeable.sol\":7549:7559  _msgSender */\n      tag_51\n        /* \"@openzeppelin/contracts-upgradeable/access/AccessControlUpgradeable.sol\":7549:7561  _msgSender() */\n      jump\t// in\n    tag_103:\n        /* \"@openzeppelin/contracts-upgradeable/access/AccessControlUpgradeable.sol\":7522:7562  RoleGranted(role, account, _msgSender()) */\n      0xffffffffffffffffffffffffffffffffffffffff\n      and\n        /* \"@openzeppelin/contracts-upgradeable/access/AccessControlUpgradeable.sol\":7540:7547  account */\n      dup2\n        /* \"@openzeppelin/contracts-upgradeable/access/AccessControlUpgradeable.sol\":7522:7562  RoleGranted(role, account, _msgSender()) */\n      0xffffffffffffffffffffffffffffffffffffffff\n      and\n        /* \"@openzeppelin/contracts-upgradeable/access/AccessControlUpgradeable.sol\":7534:7538  role */\n      dup4\n        /* \"@openzeppelin/contracts-upgradeable/access/AccessControlUpgradeable.sol\":7522:7562  RoleGranted(role, account, _msgSender()) */\n      0x2f8788117e7eff1d82e926ec794901d17c78024a50270940304540a733656f0d\n      mload(0x40)\n      mload(0x40)\n      dup1\n      swap2\n      sub\n      swap1\n      log4\n        /* \"@openzeppelin/contracts-upgradeable/access/AccessControlUpgradeable.sol\":7464:7573  if (_roles[role].members.add(account)) {... */\n    tag_102:\n        /* \"@openzeppelin/contracts-upgradeable/access/AccessControlUpgradeable.sol\":7395:7579  function _grantRole(bytes32 role, address account) private {... */\n      pop\n      pop\n      jump\t// out\n        /* \"@openzeppelin/contracts-upgradeable/access/AccessControlUpgradeable.sol\":7585:7773  function _revokeRole(bytes32 role, address account) private {... */\n    tag_65:\n        /* \"@openzeppelin/contracts-upgradeable/access/AccessControlUpgradeable.sol\":7659:7695  _roles[role].members.remove(account) */\n      tag_105\n        /* \"@openzeppelin/contracts-upgradeable/access/AccessControlUpgradeable.sol\":7687:7694  account */\n      dup2\n        /* \"@openzeppelin/contracts-upgradeable/access/AccessControlUpgradeable.sol\":7659:7665  _roles */\n      0x33\n        /* \"@openzeppelin/contracts-upgradeable/access/AccessControlUpgradeable.sol\":7659:7671  _roles[role] */\n      0x00\n        /* \"@openzeppelin/contracts-upgradeable/access/AccessControlUpgradeable.sol\":7666:7670  role */\n      dup6\n        /* \"@openzeppelin/contracts-upgradeable/access/AccessControlUpgradeable.sol\":7659:7671  _roles[role] */\n      dup2\n      mstore\n      0x20\n      add\n      swap1\n      dup2\n      mstore\n      0x20\n      add\n      0x00\n      keccak256\n        /* \"@openzeppelin/contracts-upgradeable/access/AccessControlUpgradeable.sol\":7659:7679  _roles[role].members */\n      0x00\n      add\n        /* \"@openzeppelin/contracts-upgradeable/access/AccessControlUpgradeable.sol\":7659:7686  _roles[role].members.remove */\n      tag_106\n      swap1\n        /* \"@openzeppelin/contracts-upgradeable/access/AccessControlUpgradeable.sol\":7659:7695  _roles[role].members.remove(account) */\n      swap2\n      swap1\n      0xffffffff\n      and\n      jump\t// in\n    tag_105:\n        /* \"@openzeppelin/contracts-upgradeable/access/AccessControlUpgradeable.sol\":7655:7767  if (_roles[role].members.remove(account)) {... */\n      iszero\n      tag_107\n      jumpi\n        /* \"@openzeppelin/contracts-upgradeable/access/AccessControlUpgradeable.sol\":7743:7755  _msgSender() */\n      tag_108\n        /* \"@openzeppelin/contracts-upgradeable/access/AccessControlUpgradeable.sol\":7743:7753  _msgSender */\n      tag_51\n        /* \"@openzeppelin/contracts-upgradeable/access/AccessControlUpgradeable.sol\":7743:7755  _msgSender() */\n      jump\t// in\n    tag_108:\n        /* \"@openzeppelin/contracts-upgradeable/access/AccessControlUpgradeable.sol\":7716:7756  RoleRevoked(role, account, _msgSender()) */\n      0xffffffffffffffffffffffffffffffffffffffff\n      and\n        /* \"@openzeppelin/contracts-upgradeable/access/AccessControlUpgradeable.sol\":7734:7741  account */\n      dup2\n        /* \"@openzeppelin/contracts-upgradeable/access/AccessControlUpgradeable.sol\":7716:7756  RoleRevoked(role, account, _msgSender()) */\n      0xffffffffffffffffffffffffffffffffffffffff\n      and\n        /* \"@openzeppelin/contracts-upgradeable/access/AccessControlUpgradeable.sol\":7728:7732  role */\n      dup4\n        /* \"@openzeppelin/contracts-upgradeable/access/AccessControlUpgradeable.sol\":7716:7756  RoleRevoked(role, account, _msgSender()) */\n      0xf6391f5c32d9c69d2a47ea670b442974b53935d1edc7fd64eb21e047a839171b\n      mload(0x40)\n      mload(0x40)\n      dup1\n      swap2\n      sub\n      swap1\n      log4\n        /* \"@openzeppelin/contracts-upgradeable/access/AccessControlUpgradeable.sol\":7655:7767  if (_roles[role].members.remove(account)) {... */\n    tag_107:\n        /* \"@openzeppelin/contracts-upgradeable/access/AccessControlUpgradeable.sol\":7585:7773  function _revokeRole(bytes32 role, address account) private {... */\n      pop\n      pop\n      jump\t// out\n        /* \"@openzeppelin/contracts-upgradeable/proxy/Initializable.sol\":1952:2075  function _isConstructor() private view returns (bool) {... */\n    tag_69:\n        /* \"@openzeppelin/contracts-upgradeable/proxy/Initializable.sol\":2000:2004  bool */\n      0x00\n        /* \"@openzeppelin/contracts-upgradeable/proxy/Initializable.sol\":2024:2068  AddressUpgradeable.isContract(address(this)) */\n      tag_110\n        /* \"@openzeppelin/contracts-upgradeable/proxy/Initializable.sol\":2062:2066  this */\n      address\n        /* \"@openzeppelin/contracts-upgradeable/proxy/Initializable.sol\":2024:2053  AddressUpgradeable.isContract */\n      tag_111\n        /* \"@openzeppelin/contracts-upgradeable/proxy/Initializable.sol\":2024:2068  AddressUpgradeable.isContract(address(this)) */\n      jump\t// in\n    tag_110:\n        /* \"@openzeppelin/contracts-upgradeable/proxy/Initializable.sol\":2023:2068  !AddressUpgradeable.isContract(address(this)) */\n      iszero\n        /* \"@openzeppelin/contracts-upgradeable/proxy/Initializable.sol\":2016:2068  return !AddressUpgradeable.isContract(address(this)) */\n      swap1\n      pop\n        /* \"@openzeppelin/contracts-upgradeable/proxy/Initializable.sol\":1952:2075  function _isConstructor() private view returns (bool) {... */\n      swap1\n      jump\t// out\n        /* \"@openzeppelin/contracts-upgradeable/access/AccessControlUpgradeable.sol\":1599:1737  function __AccessControl_init() internal initializer {... */\n    tag_75:\n        /* \"@openzeppelin/contracts-upgradeable/proxy/Initializable.sol\":1512:1525  _initializing */\n      0x00\n      0x01\n      swap1\n      sload\n      swap1\n      0x0100\n      exp\n      swap1\n      div\n      0xff\n      and\n        /* \"@openzeppelin/contracts-upgradeable/proxy/Initializable.sol\":1512:1545  _initializing || _isConstructor() */\n      dup1\n      tag_113\n      jumpi\n      pop\n        /* \"@openzeppelin/contracts-upgradeable/proxy/Initializable.sol\":1529:1545  _isConstructor() */\n      tag_114\n        /* \"@openzeppelin/contracts-upgradeable/proxy/Initializable.sol\":1529:1543  _isConstructor */\n      tag_69\n        /* \"@openzeppelin/contracts-upgradeable/proxy/Initializable.sol\":1529:1545  _isConstructor() */\n      jump\t// in\n    tag_114:\n        /* \"@openzeppelin/contracts-upgradeable/proxy/Initializable.sol\":1512:1545  _initializing || _isConstructor() */\n    tag_113:\n        /* \"@openzeppelin/contracts-upgradeable/proxy/Initializable.sol\":1512:1562  _initializing || _isConstructor() || !_initialized */\n      dup1\n      tag_115\n      jumpi\n      pop\n        /* \"@openzeppelin/contracts-upgradeable/proxy/Initializable.sol\":1550:1562  _initialized */\n      0x00\n      dup1\n      sload\n      swap1\n      0x0100\n      exp\n      swap1\n      div\n      0xff\n      and\n        /* \"@openzeppelin/contracts-upgradeable/proxy/Initializable.sol\":1549:1562  !_initialized */\n      iszero\n        /* \"@openzeppelin/contracts-upgradeable/proxy/Initializable.sol\":1512:1562  _initializing || _isConstructor() || !_initialized */\n    tag_115:\n        /* \"@openzeppelin/contracts-upgradeable/proxy/Initializable.sol\":1504:1613  require(_initializing || _isConstructor() || !_initialized, \"Initializable: contract is already initialized\") */\n      tag_116\n      jumpi\n      mload(0x40)\n      0x08c379a000000000000000000000000000000000000000000000000000000000\n      dup2\n      mstore\n      0x04\n      add\n      dup1\n      dup1\n      0x20\n      add\n      dup3\n      dup2\n      sub\n      dup3\n      mstore\n      0x2e\n      dup2\n      mstore\n      0x20\n      add\n      dup1\n      data_7a2a4e26842155ea933fe6eb6e3137eb5a296dcdf55721c552be7b4c3cc23759\n      0x2e\n      swap2\n      codecopy\n      0x40\n      add\n      swap2\n      pop\n      pop\n      mload(0x40)\n      dup1\n      swap2\n      sub\n      swap1\n      revert\n    tag_116:\n        /* \"@openzeppelin/contracts-upgradeable/proxy/Initializable.sol\":1624:1643  bool isTopLevelCall */\n      0x00\n        /* \"@openzeppelin/contracts-upgradeable/proxy/Initializable.sol\":1647:1660  _initializing */\n      dup1\n      0x01\n      swap1\n      sload\n      swap1\n      0x0100\n      exp\n      swap1\n      div\n      0xff\n      and\n        /* \"@openzeppelin/contracts-upgradeable/proxy/Initializable.sol\":1646:1660  !_initializing */\n      iszero\n        /* \"@openzeppelin/contracts-upgradeable/proxy/Initializable.sol\":1624:1660  bool isTopLevelCall = !_initializing */\n      swap1\n      pop\n        /* \"@openzeppelin/contracts-upgradeable/proxy/Initializable.sol\":1674:1688  isTopLevelCall */\n      dup1\n        /* \"@openzeppelin/contracts-upgradeable/proxy/Initializable.sol\":1670:1768  if (isTopLevelCall) {... */\n      iszero\n      tag_117\n      jumpi\n        /* \"@openzeppelin/contracts-upgradeable/proxy/Initializable.sol\":1720:1724  true */\n      0x01\n        /* \"@openzeppelin/contracts-upgradeable/proxy/Initializable.sol\":1704:1717  _initializing */\n      0x00\n      0x01\n        /* \"@openzeppelin/contracts-upgradeable/proxy/Initializable.sol\":1704:1724  _initializing = true */\n      0x0100\n      exp\n      dup2\n      sload\n      dup2\n      0xff\n      mul\n      not\n      and\n      swap1\n      dup4\n      iszero\n      iszero\n      mul\n      or\n      swap1\n      sstore\n      pop\n        /* \"@openzeppelin/contracts-upgradeable/proxy/Initializable.sol\":1753:1757  true */\n      0x01\n        /* \"@openzeppelin/contracts-upgradeable/proxy/Initializable.sol\":1738:1750  _initialized */\n      0x00\n      dup1\n        /* \"@openzeppelin/contracts-upgradeable/proxy/Initializable.sol\":1738:1757  _initialized = true */\n      0x0100\n      exp\n      dup2\n      sload\n      dup2\n      0xff\n      mul\n      not\n      and\n      swap1\n      dup4\n      iszero\n      iszero\n      mul\n      or\n      swap1\n      sstore\n      pop\n        /* \"@openzeppelin/contracts-upgradeable/proxy/Initializable.sol\":1670:1768  if (isTopLevelCall) {... */\n    tag_117:\n        /* \"@openzeppelin/contracts-upgradeable/access/AccessControlUpgradeable.sol\":1662:1688  __Context_init_unchained() */\n      tag_119\n        /* \"@openzeppelin/contracts-upgradeable/access/AccessControlUpgradeable.sol\":1662:1686  __Context_init_unchained */\n      tag_120\n        /* \"@openzeppelin/contracts-upgradeable/access/AccessControlUpgradeable.sol\":1662:1688  __Context_init_unchained() */\n      jump\t// in\n    tag_119:\n        /* \"@openzeppelin/contracts-upgradeable/access/AccessControlUpgradeable.sol\":1698:1730  __AccessControl_init_unchained() */\n      tag_121\n        /* \"@openzeppelin/contracts-upgradeable/access/AccessControlUpgradeable.sol\":1698:1728  __AccessControl_init_unchained */\n      tag_122\n        /* \"@openzeppelin/contracts-upgradeable/access/AccessControlUpgradeable.sol\":1698:1730  __AccessControl_init_unchained() */\n      jump\t// in\n    tag_121:\n        /* \"@openzeppelin/contracts-upgradeable/proxy/Initializable.sol\":1794:1808  isTopLevelCall */\n      dup1\n        /* \"@openzeppelin/contracts-upgradeable/proxy/Initializable.sol\":1790:1856  if (isTopLevelCall) {... */\n      iszero\n      tag_123\n      jumpi\n        /* \"@openzeppelin/contracts-upgradeable/proxy/Initializable.sol\":1840:1845  false */\n      0x00\n        /* \"@openzeppelin/contracts-upgradeable/proxy/Initializable.sol\":1824:1837  _initializing */\n      dup1\n      0x01\n        /* \"@openzeppelin/contracts-upgradeable/proxy/Initializable.sol\":1824:1845  _initializing = false */\n      0x0100\n      exp\n      dup2\n      sload\n      dup2\n      0xff\n      mul\n      not\n      and\n      swap1\n      dup4\n      iszero\n      iszero\n      mul\n      or\n      swap1\n      sstore\n      pop\n        /* \"@openzeppelin/contracts-upgradeable/proxy/Initializable.sol\":1790:1856  if (isTopLevelCall) {... */\n    tag_123:\n        /* \"@openzeppelin/contracts-upgradeable/access/AccessControlUpgradeable.sol\":1599:1737  function __AccessControl_init() internal initializer {... */\n      pop\n      jump\t// out\n        /* \"@openzeppelin/contracts-upgradeable/access/AccessControlUpgradeable.sol\":6958:7068  function _setupRole(bytes32 role, address account) internal virtual {... */\n    tag_78:\n        /* \"@openzeppelin/contracts-upgradeable/access/AccessControlUpgradeable.sol\":7036:7061  _grantRole(role, account) */\n      tag_125\n        /* \"@openzeppelin/contracts-upgradeable/access/AccessControlUpgradeable.sol\":7047:7051  role */\n      dup3\n        /* \"@openzeppelin/contracts-upgradeable/access/AccessControlUpgradeable.sol\":7053:7060  account */\n      dup3\n        /* \"@openzeppelin/contracts-upgradeable/access/AccessControlUpgradeable.sol\":7036:7046  _grantRole */\n      tag_60\n        /* \"@openzeppelin/contracts-upgradeable/access/AccessControlUpgradeable.sol\":7036:7061  _grantRole(role, account) */\n      jump\t// in\n    tag_125:\n        /* \"@openzeppelin/contracts-upgradeable/access/AccessControlUpgradeable.sol\":6958:7068  function _setupRole(bytes32 role, address account) internal virtual {... */\n      pop\n      pop\n      jump\t// out\n        /* \"@openzeppelin/contracts-upgradeable/utils/EnumerableSetUpgradeable.sol\":7688:7844  function at(AddressSet storage set, uint256 index) internal view returns (address) {... */\n    tag_84:\n        /* \"@openzeppelin/contracts-upgradeable/utils/EnumerableSetUpgradeable.sol\":7762:7769  address */\n      0x00\n        /* \"@openzeppelin/contracts-upgradeable/utils/EnumerableSetUpgradeable.sol\":7812:7834  _at(set._inner, index) */\n      tag_127\n        /* \"@openzeppelin/contracts-upgradeable/utils/EnumerableSetUpgradeable.sol\":7816:7819  set */\n      dup4\n        /* \"@openzeppelin/contracts-upgradeable/utils/EnumerableSetUpgradeable.sol\":7816:7826  set._inner */\n      0x00\n      add\n        /* \"@openzeppelin/contracts-upgradeable/utils/EnumerableSetUpgradeable.sol\":7828:7833  index */\n      dup4\n        /* \"@openzeppelin/contracts-upgradeable/utils/EnumerableSetUpgradeable.sol\":7812:7815  _at */\n      tag_128\n        /* \"@openzeppelin/contracts-upgradeable/utils/EnumerableSetUpgradeable.sol\":7812:7834  _at(set._inner, index) */\n      jump\t// in\n    tag_127:\n        /* \"@openzeppelin/contracts-upgradeable/utils/EnumerableSetUpgradeable.sol\":7804:7835  uint256(_at(set._inner, index)) */\n      0x00\n      shr\n        /* \"@openzeppelin/contracts-upgradeable/utils/EnumerableSetUpgradeable.sol\":7781:7837  return address(uint160(uint256(_at(set._inner, index)))) */\n      swap1\n      pop\n        /* \"@openzeppelin/contracts-upgradeable/utils/EnumerableSetUpgradeable.sol\":7688:7844  function at(AddressSet storage set, uint256 index) internal view returns (address) {... */\n      swap3\n      swap2\n      pop\n      pop\n      jump\t// out\n        /* \"@openzeppelin/contracts-upgradeable/utils/EnumerableSetUpgradeable.sol\":6995:7160  function contains(AddressSet storage set, address value) internal view returns (bool) {... */\n    tag_87:\n        /* \"@openzeppelin/contracts-upgradeable/utils/EnumerableSetUpgradeable.sol\":7075:7079  bool */\n      0x00\n        /* \"@openzeppelin/contracts-upgradeable/utils/EnumerableSetUpgradeable.sol\":7098:7153  _contains(set._inner, bytes32(uint256(uint160(value)))) */\n      tag_130\n        /* \"@openzeppelin/contracts-upgradeable/utils/EnumerableSetUpgradeable.sol\":7108:7111  set */\n      dup4\n        /* \"@openzeppelin/contracts-upgradeable/utils/EnumerableSetUpgradeable.sol\":7108:7118  set._inner */\n      0x00\n      add\n        /* \"@openzeppelin/contracts-upgradeable/utils/EnumerableSetUpgradeable.sol\":7144:7149  value */\n      dup4\n        /* \"@openzeppelin/contracts-upgradeable/utils/EnumerableSetUpgradeable.sol\":7128:7151  uint256(uint160(value)) */\n      0xffffffffffffffffffffffffffffffffffffffff\n      and\n        /* \"@openzeppelin/contracts-upgradeable/utils/EnumerableSetUpgradeable.sol\":7120:7152  bytes32(uint256(uint160(value))) */\n      0x00\n      shl\n        /* \"@openzeppelin/contracts-upgradeable/utils/EnumerableSetUpgradeable.sol\":7098:7107  _contains */\n      tag_131\n        /* \"@openzeppelin/contracts-upgradeable/utils/EnumerableSetUpgradeable.sol\":7098:7153  _contains(set._inner, bytes32(uint256(uint160(value)))) */\n      jump\t// in\n    tag_130:\n        /* \"@openzeppelin/contracts-upgradeable/utils/EnumerableSetUpgradeable.sol\":7091:7153  return _contains(set._inner, bytes32(uint256(uint160(value)))) */\n      swap1\n      pop\n        /* \"@openzeppelin/contracts-upgradeable/utils/EnumerableSetUpgradeable.sol\":6995:7160  function contains(AddressSet storage set, address value) internal view returns (bool) {... */\n      swap3\n      swap2\n      pop\n      pop\n      jump\t// out\n        /* \"@openzeppelin/contracts-upgradeable/utils/EnumerableSetUpgradeable.sol\":7241:7356  function length(AddressSet storage set) internal view returns (uint256) {... */\n    tag_92:\n        /* \"@openzeppelin/contracts-upgradeable/utils/EnumerableSetUpgradeable.sol\":7304:7311  uint256 */\n      0x00\n        /* \"@openzeppelin/contracts-upgradeable/utils/EnumerableSetUpgradeable.sol\":7330:7349  _length(set._inner) */\n      tag_133\n        /* \"@openzeppelin/contracts-upgradeable/utils/EnumerableSetUpgradeable.sol\":7338:7341  set */\n      dup3\n        /* \"@openzeppelin/contracts-upgradeable/utils/EnumerableSetUpgradeable.sol\":7338:7348  set._inner */\n      0x00\n      add\n        /* \"@openzeppelin/contracts-upgradeable/utils/EnumerableSetUpgradeable.sol\":7330:7337  _length */\n      tag_134\n        /* \"@openzeppelin/contracts-upgradeable/utils/EnumerableSetUpgradeable.sol\":7330:7349  _length(set._inner) */\n      jump\t// in\n    tag_133:\n        /* \"@openzeppelin/contracts-upgradeable/utils/EnumerableSetUpgradeable.sol\":7323:7349  return _length(set._inner) */\n      swap1\n      pop\n        /* \"@openzeppelin/contracts-upgradeable/utils/EnumerableSetUpgradeable.sol\":7241:7356  function length(AddressSet storage set) internal view returns (uint256) {... */\n      swap2\n      swap1\n      pop\n      jump\t// out\n        /* \"@openzeppelin/contracts-upgradeable/utils/EnumerableSetUpgradeable.sol\":6440:6590  function add(AddressSet storage set, address value) internal returns (bool) {... */\n    tag_101:\n        /* \"@openzeppelin/contracts-upgradeable/utils/EnumerableSetUpgradeable.sol\":6510:6514  bool */\n      0x00\n        /* \"@openzeppelin/contracts-upgradeable/utils/EnumerableSetUpgradeable.sol\":6533:6583  _add(set._inner, bytes32(uint256(uint160(value)))) */\n      tag_136\n        /* \"@openzeppelin/contracts-upgradeable/utils/EnumerableSetUpgradeable.sol\":6538:6541  set */\n      dup4\n        /* \"@openzeppelin/contracts-upgradeable/utils/EnumerableSetUpgradeable.sol\":6538:6548  set._inner */\n      0x00\n      add\n        /* \"@openzeppelin/contracts-upgradeable/utils/EnumerableSetUpgradeable.sol\":6574:6579  value */\n      dup4\n        /* \"@openzeppelin/contracts-upgradeable/utils/EnumerableSetUpgradeable.sol\":6558:6581  uint256(uint160(value)) */\n      0xffffffffffffffffffffffffffffffffffffffff\n      and\n        /* \"@openzeppelin/contracts-upgradeable/utils/EnumerableSetUpgradeable.sol\":6550:6582  bytes32(uint256(uint160(value))) */\n      0x00\n      shl\n        /* \"@openzeppelin/contracts-upgradeable/utils/EnumerableSetUpgradeable.sol\":6533:6537  _add */\n      tag_137\n        /* \"@openzeppelin/contracts-upgradeable/utils/EnumerableSetUpgradeable.sol\":6533:6583  _add(set._inner, bytes32(uint256(uint160(value)))) */\n      jump\t// in\n    tag_136:\n        /* \"@openzeppelin/contracts-upgradeable/utils/EnumerableSetUpgradeable.sol\":6526:6583  return _add(set._inner, bytes32(uint256(uint160(value)))) */\n      swap1\n      pop\n        /* \"@openzeppelin/contracts-upgradeable/utils/EnumerableSetUpgradeable.sol\":6440:6590  function add(AddressSet storage set, address value) internal returns (bool) {... */\n      swap3\n      swap2\n      pop\n      pop\n      jump\t// out\n        /* \"@openzeppelin/contracts-upgradeable/utils/EnumerableSetUpgradeable.sol\":6758:6914  function remove(AddressSet storage set, address value) internal returns (bool) {... */\n    tag_106:\n        /* \"@openzeppelin/contracts-upgradeable/utils/EnumerableSetUpgradeable.sol\":6831:6835  bool */\n      0x00\n        /* \"@openzeppelin/contracts-upgradeable/utils/EnumerableSetUpgradeable.sol\":6854:6907  _remove(set._inner, bytes32(uint256(uint160(value)))) */\n      tag_139\n        /* \"@openzeppelin/contracts-upgradeable/utils/EnumerableSetUpgradeable.sol\":6862:6865  set */\n      dup4\n        /* \"@openzeppelin/contracts-upgradeable/utils/EnumerableSetUpgradeable.sol\":6862:6872  set._inner */\n      0x00\n      add\n        /* \"@openzeppelin/contracts-upgradeable/utils/EnumerableSetUpgradeable.sol\":6898:6903  value */\n      dup4\n        /* \"@openzeppelin/contracts-upgradeable/utils/EnumerableSetUpgradeable.sol\":6882:6905  uint256(uint160(value)) */\n      0xffffffffffffffffffffffffffffffffffffffff\n      and\n        /* \"@openzeppelin/contracts-upgradeable/utils/EnumerableSetUpgradeable.sol\":6874:6906  bytes32(uint256(uint160(value))) */\n      0x00\n      shl\n        /* \"@openzeppelin/contracts-upgradeable/utils/EnumerableSetUpgradeable.sol\":6854:6861  _remove */\n      tag_140\n        /* \"@openzeppelin/contracts-upgradeable/utils/EnumerableSetUpgradeable.sol\":6854:6907  _remove(set._inner, bytes32(uint256(uint160(value)))) */\n      jump\t// in\n    tag_139:\n        /* \"@openzeppelin/contracts-upgradeable/utils/EnumerableSetUpgradeable.sol\":6847:6907  return _remove(set._inner, bytes32(uint256(uint160(value)))) */\n      swap1\n      pop\n        /* \"@openzeppelin/contracts-upgradeable/utils/EnumerableSetUpgradeable.sol\":6758:6914  function remove(AddressSet storage set, address value) internal returns (bool) {... */\n      swap3\n      swap2\n      pop\n      pop\n      jump\t// out\n        /* \"@openzeppelin/contracts-upgradeable/utils/AddressUpgradeable.sol\":737:1150  function isContract(address account) internal view returns (bool) {... */\n    tag_111:\n        /* \"@openzeppelin/contracts-upgradeable/utils/AddressUpgradeable.sol\":797:801  bool */\n      0x00\n        /* \"@openzeppelin/contracts-upgradeable/utils/AddressUpgradeable.sol\":1000:1012  uint256 size */\n      dup1\n        /* \"@openzeppelin/contracts-upgradeable/utils/AddressUpgradeable.sol\":1109:1116  account */\n      dup3\n        /* \"@openzeppelin/contracts-upgradeable/utils/AddressUpgradeable.sol\":1097:1117  extcodesize(account) */\n      extcodesize\n        /* \"@openzeppelin/contracts-upgradeable/utils/AddressUpgradeable.sol\":1089:1117  size := extcodesize(account) */\n      swap1\n      pop\n        /* \"@openzeppelin/contracts-upgradeable/utils/AddressUpgradeable.sol\":1142:1143  0 */\n      0x00\n        /* \"@openzeppelin/contracts-upgradeable/utils/AddressUpgradeable.sol\":1135:1139  size */\n      dup2\n        /* \"@openzeppelin/contracts-upgradeable/utils/AddressUpgradeable.sol\":1135:1143  size > 0 */\n      gt\n        /* \"@openzeppelin/contracts-upgradeable/utils/AddressUpgradeable.sol\":1128:1143  return size > 0 */\n      swap2\n      pop\n      pop\n        /* \"@openzeppelin/contracts-upgradeable/utils/AddressUpgradeable.sol\":737:1150  function isContract(address account) internal view returns (bool) {... */\n      swap2\n      swap1\n      pop\n      jump\t// out\n        /* \"@openzeppelin/contracts-upgradeable/utils/ContextUpgradeable.sol\":759:823  function __Context_init_unchained() internal initializer {... */\n    tag_120:\n        /* \"@openzeppelin/contracts-upgradeable/proxy/Initializable.sol\":1512:1525  _initializing */\n      0x00\n      0x01\n      swap1\n      sload\n      swap1\n      0x0100\n      exp\n      swap1\n      div\n      0xff\n      and\n        /* \"@openzeppelin/contracts-upgradeable/proxy/Initializable.sol\":1512:1545  _initializing || _isConstructor() */\n      dup1\n      tag_143\n      jumpi\n      pop\n        /* \"@openzeppelin/contracts-upgradeable/proxy/Initializable.sol\":1529:1545  _isConstructor() */\n      tag_144\n        /* \"@openzeppelin/contracts-upgradeable/proxy/Initializable.sol\":1529:1543  _isConstructor */\n      tag_69\n        /* \"@openzeppelin/contracts-upgradeable/proxy/Initializable.sol\":1529:1545  _isConstructor() */\n      jump\t// in\n    tag_144:\n        /* \"@openzeppelin/contracts-upgradeable/proxy/Initializable.sol\":1512:1545  _initializing || _isConstructor() */\n    tag_143:\n        /* \"@openzeppelin/contracts-upgradeable/proxy/Initializable.sol\":1512:1562  _initializing || _isConstructor() || !_initialized */\n      dup1\n      tag_145\n      jumpi\n      pop\n        /* \"@openzeppelin/contracts-upgradeable/proxy/Initializable.sol\":1550:1562  _initialized */\n      0x00\n      dup1\n      sload\n      swap1\n      0x0100\n      exp\n      swap1\n      div\n      0xff\n      and\n        /* \"@openzeppelin/contracts-upgradeable/proxy/Initializable.sol\":1549:1562  !_initialized */\n      iszero\n        /* \"@openzeppelin/contracts-upgradeable/proxy/Initializable.sol\":1512:1562  _initializing || _isConstructor() || !_initialized */\n    tag_145:\n        /* \"@openzeppelin/contracts-upgradeable/proxy/Initializable.sol\":1504:1613  require(_initializing || _isConstructor() || !_initialized, \"Initializable: contract is already initialized\") */\n      tag_146\n      jumpi\n      mload(0x40)\n      0x08c379a000000000000000000000000000000000000000000000000000000000\n      dup2\n      mstore\n      0x04\n      add\n      dup1\n      dup1\n      0x20\n      add\n      dup3\n      dup2\n      sub\n      dup3\n      mstore\n      0x2e\n      dup2\n      mstore\n      0x20\n      add\n      dup1\n      data_7a2a4e26842155ea933fe6eb6e3137eb5a296dcdf55721c552be7b4c3cc23759\n      0x2e\n      swap2\n      codecopy\n      0x40\n      add\n      swap2\n      pop\n      pop\n      mload(0x40)\n      dup1\n      swap2\n      sub\n      swap1\n      revert\n    tag_146:\n        /* \"@openzeppelin/contracts-upgradeable/proxy/Initializable.sol\":1624:1643  bool isTopLevelCall */\n      0x00\n        /* \"@openzeppelin/contracts-upgradeable/proxy/Initializable.sol\":1647:1660  _initializing */\n      dup1\n      0x01\n      swap1\n      sload\n      swap1\n      0x0100\n      exp\n      swap1\n      div\n      0xff\n      and\n        /* \"@openzeppelin/contracts-upgradeable/proxy/Initializable.sol\":1646:1660  !_initializing */\n      iszero\n        /* \"@openzeppelin/contracts-upgradeable/proxy/Initializable.sol\":1624:1660  bool isTopLevelCall = !_initializing */\n      swap1\n      pop\n        /* \"@openzeppelin/contracts-upgradeable/proxy/Initializable.sol\":1674:1688  isTopLevelCall */\n      dup1\n        /* \"@openzeppelin/contracts-upgradeable/proxy/Initializable.sol\":1670:1768  if (isTopLevelCall) {... */\n      iszero\n      tag_147\n      jumpi\n        /* \"@openzeppelin/contracts-upgradeable/proxy/Initializable.sol\":1720:1724  true */\n      0x01\n        /* \"@openzeppelin/contracts-upgradeable/proxy/Initializable.sol\":1704:1717  _initializing */\n      0x00\n      0x01\n        /* \"@openzeppelin/contracts-upgradeable/proxy/Initializable.sol\":1704:1724  _initializing = true */\n      0x0100\n      exp\n      dup2\n      sload\n      dup2\n      0xff\n      mul\n      not\n      and\n      swap1\n      dup4\n      iszero\n      iszero\n      mul\n      or\n      swap1\n      sstore\n      pop\n        /* \"@openzeppelin/contracts-upgradeable/proxy/Initializable.sol\":1753:1757  true */\n      0x01\n        /* \"@openzeppelin/contracts-upgradeable/proxy/Initializable.sol\":1738:1750  _initialized */\n      0x00\n      dup1\n        /* \"@openzeppelin/contracts-upgradeable/proxy/Initializable.sol\":1738:1757  _initialized = true */\n      0x0100\n      exp\n      dup2\n      sload\n      dup2\n      0xff\n      mul\n      not\n      and\n      swap1\n      dup4\n      iszero\n      iszero\n      mul\n      or\n      swap1\n      sstore\n      pop\n        /* \"@openzeppelin/contracts-upgradeable/proxy/Initializable.sol\":1670:1768  if (isTopLevelCall) {... */\n    tag_147:\n        /* \"@openzeppelin/contracts-upgradeable/proxy/Initializable.sol\":1794:1808  isTopLevelCall */\n      dup1\n        /* \"@openzeppelin/contracts-upgradeable/proxy/Initializable.sol\":1790:1856  if (isTopLevelCall) {... */\n      iszero\n      tag_149\n      jumpi\n        /* \"@openzeppelin/contracts-upgradeable/proxy/Initializable.sol\":1840:1845  false */\n      0x00\n        /* \"@openzeppelin/contracts-upgradeable/proxy/Initializable.sol\":1824:1837  _initializing */\n      dup1\n      0x01\n        /* \"@openzeppelin/contracts-upgradeable/proxy/Initializable.sol\":1824:1845  _initializing = false */\n      0x0100\n      exp\n      dup2\n      sload\n      dup2\n      0xff\n      mul\n      not\n      and\n      swap1\n      dup4\n      iszero\n      iszero\n      mul\n      or\n      swap1\n      sstore\n      pop\n        /* \"@openzeppelin/contracts-upgradeable/proxy/Initializable.sol\":1790:1856  if (isTopLevelCall) {... */\n    tag_149:\n        /* \"@openzeppelin/contracts-upgradeable/utils/ContextUpgradeable.sol\":759:823  function __Context_init_unchained() internal initializer {... */\n      pop\n      jump\t// out\n        /* \"@openzeppelin/contracts-upgradeable/access/AccessControlUpgradeable.sol\":1743:1813  function __AccessControl_init_unchained() internal initializer {... */\n    tag_122:\n        /* \"@openzeppelin/contracts-upgradeable/proxy/Initializable.sol\":1512:1525  _initializing */\n      0x00\n      0x01\n      swap1\n      sload\n      swap1\n      0x0100\n      exp\n      swap1\n      div\n      0xff\n      and\n        /* \"@openzeppelin/contracts-upgradeable/proxy/Initializable.sol\":1512:1545  _initializing || _isConstructor() */\n      dup1\n      tag_151\n      jumpi\n      pop\n        /* \"@openzeppelin/contracts-upgradeable/proxy/Initializable.sol\":1529:1545  _isConstructor() */\n      tag_152\n        /* \"@openzeppelin/contracts-upgradeable/proxy/Initializable.sol\":1529:1543  _isConstructor */\n      tag_69\n        /* \"@openzeppelin/contracts-upgradeable/proxy/Initializable.sol\":1529:1545  _isConstructor() */\n      jump\t// in\n    tag_152:\n        /* \"@openzeppelin/contracts-upgradeable/proxy/Initializable.sol\":1512:1545  _initializing || _isConstructor() */\n    tag_151:\n        /* \"@openzeppelin/contracts-upgradeable/proxy/Initializable.sol\":1512:1562  _initializing || _isConstructor() || !_initialized */\n      dup1\n      tag_153\n      jumpi\n      pop\n        /* \"@openzeppelin/contracts-upgradeable/proxy/Initializable.sol\":1550:1562  _initialized */\n      0x00\n      dup1\n      sload\n      swap1\n      0x0100\n      exp\n      swap1\n      div\n      0xff\n      and\n        /* \"@openzeppelin/contracts-upgradeable/proxy/Initializable.sol\":1549:1562  !_initialized */\n      iszero\n        /* \"@openzeppelin/contracts-upgradeable/proxy/Initializable.sol\":1512:1562  _initializing || _isConstructor() || !_initialized */\n    tag_153:\n        /* \"@openzeppelin/contracts-upgradeable/proxy/Initializable.sol\":1504:1613  require(_initializing || _isConstructor() || !_initialized, \"Initializable: contract is already initialized\") */\n      tag_154\n      jumpi\n      mload(0x40)\n      0x08c379a000000000000000000000000000000000000000000000000000000000\n      dup2\n      mstore\n      0x04\n      add\n      dup1\n      dup1\n      0x20\n      add\n      dup3\n      dup2\n      sub\n      dup3\n      mstore\n      0x2e\n      dup2\n      mstore\n      0x20\n      add\n      dup1\n      data_7a2a4e26842155ea933fe6eb6e3137eb5a296dcdf55721c552be7b4c3cc23759\n      0x2e\n      swap2\n      codecopy\n      0x40\n      add\n      swap2\n      pop\n      pop\n      mload(0x40)\n      dup1\n      swap2\n      sub\n      swap1\n      revert\n    tag_154:\n        /* \"@openzeppelin/contracts-upgradeable/proxy/Initializable.sol\":1624:1643  bool isTopLevelCall */\n      0x00\n        /* \"@openzeppelin/contracts-upgradeable/proxy/Initializable.sol\":1647:1660  _initializing */\n      dup1\n      0x01\n      swap1\n      sload\n      swap1\n      0x0100\n      exp\n      swap1\n      div\n      0xff\n      and\n        /* \"@openzeppelin/contracts-upgradeable/proxy/Initializable.sol\":1646:1660  !_initializing */\n      iszero\n        /* \"@openzeppelin/contracts-upgradeable/proxy/Initializable.sol\":1624:1660  bool isTopLevelCall = !_initializing */\n      swap1\n      pop\n        /* \"@openzeppelin/contracts-upgradeable/proxy/Initializable.sol\":1674:1688  isTopLevelCall */\n      dup1\n        /* \"@openzeppelin/contracts-upgradeable/proxy/Initializable.sol\":1670:1768  if (isTopLevelCall) {... */\n      iszero\n      tag_155\n      jumpi\n        /* \"@openzeppelin/contracts-upgradeable/proxy/Initializable.sol\":1720:1724  true */\n      0x01\n        /* \"@openzeppelin/contracts-upgradeable/proxy/Initializable.sol\":1704:1717  _initializing */\n      0x00\n      0x01\n        /* \"@openzeppelin/contracts-upgradeable/proxy/Initializable.sol\":1704:1724  _initializing = true */\n      0x0100\n      exp\n      dup2\n      sload\n      dup2\n      0xff\n      mul\n      not\n      and\n      swap1\n      dup4\n      iszero\n      iszero\n      mul\n      or\n      swap1\n      sstore\n      pop\n        /* \"@openzeppelin/contracts-upgradeable/proxy/Initializable.sol\":1753:1757  true */\n      0x01\n        /* \"@openzeppelin/contracts-upgradeable/proxy/Initializable.sol\":1738:1750  _initialized */\n      0x00\n      dup1\n        /* \"@openzeppelin/contracts-upgradeable/proxy/Initializable.sol\":1738:1757  _initialized = true */\n      0x0100\n      exp\n      dup2\n      sload\n      dup2\n      0xff\n      mul\n      not\n      and\n      swap1\n      dup4\n      iszero\n      iszero\n      mul\n      or\n      swap1\n      sstore\n      pop\n        /* \"@openzeppelin/contracts-upgradeable/proxy/Initializable.sol\":1670:1768  if (isTopLevelCall) {... */\n    tag_155:\n        /* \"@openzeppelin/contracts-upgradeable/proxy/Initializable.sol\":1794:1808  isTopLevelCall */\n      dup1\n        /* \"@openzeppelin/contracts-upgradeable/proxy/Initializable.sol\":1790:1856  if (isTopLevelCall) {... */\n      iszero\n      tag_157\n      jumpi\n        /* \"@openzeppelin/contracts-upgradeable/proxy/Initializable.sol\":1840:1845  false */\n      0x00\n        /* \"@openzeppelin/contracts-upgradeable/proxy/Initializable.sol\":1824:1837  _initializing */\n      dup1\n      0x01\n        /* \"@openzeppelin/contracts-upgradeable/proxy/Initializable.sol\":1824:1845  _initializing = false */\n      0x0100\n      exp\n      dup2\n      sload\n      dup2\n      0xff\n      mul\n      not\n      and\n      swap1\n      dup4\n      iszero\n      iszero\n      mul\n      or\n      swap1\n      sstore\n      pop\n        /* \"@openzeppelin/contracts-upgradeable/proxy/Initializable.sol\":1790:1856  if (isTopLevelCall) {... */\n    tag_157:\n        /* \"@openzeppelin/contracts-upgradeable/access/AccessControlUpgradeable.sol\":1743:1813  function __AccessControl_init_unchained() internal initializer {... */\n      pop\n      jump\t// out\n        /* \"@openzeppelin/contracts-upgradeable/utils/EnumerableSetUpgradeable.sol\":4463:4664  function _at(Set storage set, uint256 index) private view returns (bytes32) {... */\n    tag_128:\n        /* \"@openzeppelin/contracts-upgradeable/utils/EnumerableSetUpgradeable.sol\":4530:4537  bytes32 */\n      0x00\n        /* \"@openzeppelin/contracts-upgradeable/utils/EnumerableSetUpgradeable.sol\":4578:4583  index */\n      dup2\n        /* \"@openzeppelin/contracts-upgradeable/utils/EnumerableSetUpgradeable.sol\":4557:4560  set */\n      dup4\n        /* \"@openzeppelin/contracts-upgradeable/utils/EnumerableSetUpgradeable.sol\":4557:4568  set._values */\n      0x00\n      add\n        /* \"@openzeppelin/contracts-upgradeable/utils/EnumerableSetUpgradeable.sol\":4557:4575  set._values.length */\n      dup1\n      sload\n      swap1\n      pop\n        /* \"@openzeppelin/contracts-upgradeable/utils/EnumerableSetUpgradeable.sol\":4557:4583  set._values.length > index */\n      gt\n        /* \"@openzeppelin/contracts-upgradeable/utils/EnumerableSetUpgradeable.sol\":4549:4622  require(set._values.length > index, \"EnumerableSet: index out of bounds\") */\n      tag_159\n      jumpi\n      mload(0x40)\n      0x08c379a000000000000000000000000000000000000000000000000000000000\n      dup2\n      mstore\n      0x04\n      add\n      dup1\n      dup1\n      0x20\n      add\n      dup3\n      dup2\n      sub\n      dup3\n      mstore\n      0x22\n      dup2\n      mstore\n      0x20\n      add\n      dup1\n      data_045d6834e6193a687012a3ad777f612279e549b6945364d9d2324f48610d3cbb\n      0x22\n      swap2\n      codecopy\n      0x40\n      add\n      swap2\n      pop\n      pop\n      mload(0x40)\n      dup1\n      swap2\n      sub\n      swap1\n      revert\n    tag_159:\n        /* \"@openzeppelin/contracts-upgradeable/utils/EnumerableSetUpgradeable.sol\":4639:4642  set */\n      dup3\n        /* \"@openzeppelin/contracts-upgradeable/utils/EnumerableSetUpgradeable.sol\":4639:4650  set._values */\n      0x00\n      add\n        /* \"@openzeppelin/contracts-upgradeable/utils/EnumerableSetUpgradeable.sol\":4651:4656  index */\n      dup3\n        /* \"@openzeppelin/contracts-upgradeable/utils/EnumerableSetUpgradeable.sol\":4639:4657  set._values[index] */\n      dup2\n      sload\n      dup2\n      lt\n      tag_160\n      jumpi\n      invalid\n    tag_160:\n      swap1\n      0x00\n      mstore\n      keccak256(0x00, 0x20)\n      add\n      sload\n        /* \"@openzeppelin/contracts-upgradeable/utils/EnumerableSetUpgradeable.sol\":4632:4657  return set._values[index] */\n      swap1\n      pop\n        /* \"@openzeppelin/contracts-upgradeable/utils/EnumerableSetUpgradeable.sol\":4463:4664  function _at(Set storage set, uint256 index) private view returns (bytes32) {... */\n      swap3\n      swap2\n      pop\n      pop\n      jump\t// out\n        /* \"@openzeppelin/contracts-upgradeable/utils/EnumerableSetUpgradeable.sol\":3816:3943  function _contains(Set storage set, bytes32 value) private view returns (bool) {... */\n    tag_131:\n        /* \"@openzeppelin/contracts-upgradeable/utils/EnumerableSetUpgradeable.sol\":3889:3893  bool */\n      0x00\n        /* \"@openzeppelin/contracts-upgradeable/utils/EnumerableSetUpgradeable.sol\":3935:3936  0 */\n      dup1\n        /* \"@openzeppelin/contracts-upgradeable/utils/EnumerableSetUpgradeable.sol\":3912:3915  set */\n      dup4\n        /* \"@openzeppelin/contracts-upgradeable/utils/EnumerableSetUpgradeable.sol\":3912:3924  set._indexes */\n      0x01\n      add\n        /* \"@openzeppelin/contracts-upgradeable/utils/EnumerableSetUpgradeable.sol\":3912:3931  set._indexes[value] */\n      0x00\n        /* \"@openzeppelin/contracts-upgradeable/utils/EnumerableSetUpgradeable.sol\":3925:3930  value */\n      dup5\n        /* \"@openzeppelin/contracts-upgradeable/utils/EnumerableSetUpgradeable.sol\":3912:3931  set._indexes[value] */\n      dup2\n      mstore\n      0x20\n      add\n      swap1\n      dup2\n      mstore\n      0x20\n      add\n      0x00\n      keccak256\n      sload\n        /* \"@openzeppelin/contracts-upgradeable/utils/EnumerableSetUpgradeable.sol\":3912:3936  set._indexes[value] != 0 */\n      eq\n      iszero\n        /* \"@openzeppelin/contracts-upgradeable/utils/EnumerableSetUpgradeable.sol\":3905:3936  return set._indexes[value] != 0 */\n      swap1\n      pop\n        /* \"@openzeppelin/contracts-upgradeable/utils/EnumerableSetUpgradeable.sol\":3816:3943  function _contains(Set storage set, bytes32 value) private view returns (bool) {... */\n      swap3\n      swap2\n      pop\n      pop\n      jump\t// out\n        /* \"@openzeppelin/contracts-upgradeable/utils/EnumerableSetUpgradeable.sol\":4024:4131  function _length(Set storage set) private view returns (uint256) {... */\n    tag_134:\n        /* \"@openzeppelin/contracts-upgradeable/utils/EnumerableSetUpgradeable.sol\":4080:4087  uint256 */\n      0x00\n        /* \"@openzeppelin/contracts-upgradeable/utils/EnumerableSetUpgradeable.sol\":4106:4109  set */\n      dup2\n        /* \"@openzeppelin/contracts-upgradeable/utils/EnumerableSetUpgradeable.sol\":4106:4117  set._values */\n      0x00\n      add\n        /* \"@openzeppelin/contracts-upgradeable/utils/EnumerableSetUpgradeable.sol\":4106:4124  set._values.length */\n      dup1\n      sload\n      swap1\n      pop\n        /* \"@openzeppelin/contracts-upgradeable/utils/EnumerableSetUpgradeable.sol\":4099:4124  return set._values.length */\n      swap1\n      pop\n        /* \"@openzeppelin/contracts-upgradeable/utils/EnumerableSetUpgradeable.sol\":4024:4131  function _length(Set storage set) private view returns (uint256) {... */\n      swap2\n      swap1\n      pop\n      jump\t// out\n        /* \"@openzeppelin/contracts-upgradeable/utils/EnumerableSetUpgradeable.sol\":1651:2055  function _add(Set storage set, bytes32 value) private returns (bool) {... */\n    tag_137:\n        /* \"@openzeppelin/contracts-upgradeable/utils/EnumerableSetUpgradeable.sol\":1714:1718  bool */\n      0x00\n        /* \"@openzeppelin/contracts-upgradeable/utils/EnumerableSetUpgradeable.sol\":1735:1756  _contains(set, value) */\n      tag_165\n        /* \"@openzeppelin/contracts-upgradeable/utils/EnumerableSetUpgradeable.sol\":1745:1748  set */\n      dup4\n        /* \"@openzeppelin/contracts-upgradeable/utils/EnumerableSetUpgradeable.sol\":1750:1755  value */\n      dup4\n        /* \"@openzeppelin/contracts-upgradeable/utils/EnumerableSetUpgradeable.sol\":1735:1744  _contains */\n      tag_131\n        /* \"@openzeppelin/contracts-upgradeable/utils/EnumerableSetUpgradeable.sol\":1735:1756  _contains(set, value) */\n      jump\t// in\n    tag_165:\n        /* \"@openzeppelin/contracts-upgradeable/utils/EnumerableSetUpgradeable.sol\":1730:2049  if (!_contains(set, value)) {... */\n      tag_166\n      jumpi\n        /* \"@openzeppelin/contracts-upgradeable/utils/EnumerableSetUpgradeable.sol\":1772:1775  set */\n      dup3\n        /* \"@openzeppelin/contracts-upgradeable/utils/EnumerableSetUpgradeable.sol\":1772:1783  set._values */\n      0x00\n      add\n        /* \"@openzeppelin/contracts-upgradeable/utils/EnumerableSetUpgradeable.sol\":1789:1794  value */\n      dup3\n        /* \"@openzeppelin/contracts-upgradeable/utils/EnumerableSetUpgradeable.sol\":1772:1795  set._values.push(value) */\n      swap1\n      dup1\n      0x01\n      dup2\n      sload\n      add\n      dup1\n      dup3\n      sstore\n      dup1\n      swap2\n      pop\n      pop\n      0x01\n      swap1\n      sub\n      swap1\n      0x00\n      mstore\n      keccak256(0x00, 0x20)\n      add\n      0x00\n      swap1\n      swap2\n      swap1\n      swap2\n      swap1\n      swap2\n      pop\n      sstore\n        /* \"@openzeppelin/contracts-upgradeable/utils/EnumerableSetUpgradeable.sol\":1952:1955  set */\n      dup3\n        /* \"@openzeppelin/contracts-upgradeable/utils/EnumerableSetUpgradeable.sol\":1952:1963  set._values */\n      0x00\n      add\n        /* \"@openzeppelin/contracts-upgradeable/utils/EnumerableSetUpgradeable.sol\":1952:1970  set._values.length */\n      dup1\n      sload\n      swap1\n      pop\n        /* \"@openzeppelin/contracts-upgradeable/utils/EnumerableSetUpgradeable.sol\":1930:1933  set */\n      dup4\n        /* \"@openzeppelin/contracts-upgradeable/utils/EnumerableSetUpgradeable.sol\":1930:1942  set._indexes */\n      0x01\n      add\n        /* \"@openzeppelin/contracts-upgradeable/utils/EnumerableSetUpgradeable.sol\":1930:1949  set._indexes[value] */\n      0x00\n        /* \"@openzeppelin/contracts-upgradeable/utils/EnumerableSetUpgradeable.sol\":1943:1948  value */\n      dup5\n        /* \"@openzeppelin/contracts-upgradeable/utils/EnumerableSetUpgradeable.sol\":1930:1949  set._indexes[value] */\n      dup2\n      mstore\n      0x20\n      add\n      swap1\n      dup2\n      mstore\n      0x20\n      add\n      0x00\n      keccak256\n        /* \"@openzeppelin/contracts-upgradeable/utils/EnumerableSetUpgradeable.sol\":1930:1970  set._indexes[value] = set._values.length */\n      dup2\n      swap1\n      sstore\n      pop\n        /* \"@openzeppelin/contracts-upgradeable/utils/EnumerableSetUpgradeable.sol\":1991:1995  true */\n      0x01\n        /* \"@openzeppelin/contracts-upgradeable/utils/EnumerableSetUpgradeable.sol\":1984:1995  return true */\n      swap1\n      pop\n      jump(tag_164)\n        /* \"@openzeppelin/contracts-upgradeable/utils/EnumerableSetUpgradeable.sol\":1730:2049  if (!_contains(set, value)) {... */\n    tag_166:\n        /* \"@openzeppelin/contracts-upgradeable/utils/EnumerableSetUpgradeable.sol\":2033:2038  false */\n      0x00\n        /* \"@openzeppelin/contracts-upgradeable/utils/EnumerableSetUpgradeable.sol\":2026:2038  return false */\n      swap1\n      pop\n        /* \"@openzeppelin/contracts-upgradeable/utils/EnumerableSetUpgradeable.sol\":1651:2055  function _add(Set storage set, bytes32 value) private returns (bool) {... */\n    tag_164:\n      swap3\n      swap2\n      pop\n      pop\n      jump\t// out\n        /* \"@openzeppelin/contracts-upgradeable/utils/EnumerableSetUpgradeable.sol\":2223:3735  function _remove(Set storage set, bytes32 value) private returns (bool) {... */\n    tag_140:\n        /* \"@openzeppelin/contracts-upgradeable/utils/EnumerableSetUpgradeable.sol\":2289:2293  bool */\n      0x00\n        /* \"@openzeppelin/contracts-upgradeable/utils/EnumerableSetUpgradeable.sol\":2405:2423  uint256 valueIndex */\n      dup1\n        /* \"@openzeppelin/contracts-upgradeable/utils/EnumerableSetUpgradeable.sol\":2426:2429  set */\n      dup4\n        /* \"@openzeppelin/contracts-upgradeable/utils/EnumerableSetUpgradeable.sol\":2426:2438  set._indexes */\n      0x01\n      add\n        /* \"@openzeppelin/contracts-upgradeable/utils/EnumerableSetUpgradeable.sol\":2426:2445  set._indexes[value] */\n      0x00\n        /* \"@openzeppelin/contracts-upgradeable/utils/EnumerableSetUpgradeable.sol\":2439:2444  value */\n      dup5\n        /* \"@openzeppelin/contracts-upgradeable/utils/EnumerableSetUpgradeable.sol\":2426:2445  set._indexes[value] */\n      dup2\n      mstore\n      0x20\n      add\n      swap1\n      dup2\n      mstore\n      0x20\n      add\n      0x00\n      keccak256\n      sload\n        /* \"@openzeppelin/contracts-upgradeable/utils/EnumerableSetUpgradeable.sol\":2405:2445  uint256 valueIndex = set._indexes[value] */\n      swap1\n      pop\n        /* \"@openzeppelin/contracts-upgradeable/utils/EnumerableSetUpgradeable.sol\":2474:2475  0 */\n      0x00\n        /* \"@openzeppelin/contracts-upgradeable/utils/EnumerableSetUpgradeable.sol\":2460:2470  valueIndex */\n      dup2\n        /* \"@openzeppelin/contracts-upgradeable/utils/EnumerableSetUpgradeable.sol\":2460:2475  valueIndex != 0 */\n      eq\n        /* \"@openzeppelin/contracts-upgradeable/utils/EnumerableSetUpgradeable.sol\":2456:3729  if (valueIndex != 0) { // Equivalent to contains(set, value)... */\n      tag_170\n      jumpi\n        /* \"@openzeppelin/contracts-upgradeable/utils/EnumerableSetUpgradeable.sol\":2817:2838  uint256 toDeleteIndex */\n      0x00\n        /* \"@openzeppelin/contracts-upgradeable/utils/EnumerableSetUpgradeable.sol\":2854:2855  1 */\n      0x01\n        /* \"@openzeppelin/contracts-upgradeable/utils/EnumerableSetUpgradeable.sol\":2841:2851  valueIndex */\n      dup3\n        /* \"@openzeppelin/contracts-upgradeable/utils/EnumerableSetUpgradeable.sol\":2841:2855  valueIndex - 1 */\n      sub\n        /* \"@openzeppelin/contracts-upgradeable/utils/EnumerableSetUpgradeable.sol\":2817:2855  uint256 toDeleteIndex = valueIndex - 1 */\n      swap1\n      pop\n        /* \"@openzeppelin/contracts-upgradeable/utils/EnumerableSetUpgradeable.sol\":2869:2886  uint256 lastIndex */\n      0x00\n        /* \"@openzeppelin/contracts-upgradeable/utils/EnumerableSetUpgradeable.sol\":2910:2911  1 */\n      0x01\n        /* \"@openzeppelin/contracts-upgradeable/utils/EnumerableSetUpgradeable.sol\":2889:2892  set */\n      dup7\n        /* \"@openzeppelin/contracts-upgradeable/utils/EnumerableSetUpgradeable.sol\":2889:2900  set._values */\n      0x00\n      add\n        /* \"@openzeppelin/contracts-upgradeable/utils/EnumerableSetUpgradeable.sol\":2889:2907  set._values.length */\n      dup1\n      sload\n      swap1\n      pop\n        /* \"@openzeppelin/contracts-upgradeable/utils/EnumerableSetUpgradeable.sol\":2889:2911  set._values.length - 1 */\n      sub\n        /* \"@openzeppelin/contracts-upgradeable/utils/EnumerableSetUpgradeable.sol\":2869:2911  uint256 lastIndex = set._values.length - 1 */\n      swap1\n      pop\n        /* \"@openzeppelin/contracts-upgradeable/utils/EnumerableSetUpgradeable.sol\":3151:3168  bytes32 lastvalue */\n      0x00\n        /* \"@openzeppelin/contracts-upgradeable/utils/EnumerableSetUpgradeable.sol\":3171:3174  set */\n      dup7\n        /* \"@openzeppelin/contracts-upgradeable/utils/EnumerableSetUpgradeable.sol\":3171:3182  set._values */\n      0x00\n      add\n        /* \"@openzeppelin/contracts-upgradeable/utils/EnumerableSetUpgradeable.sol\":3183:3192  lastIndex */\n      dup3\n        /* \"@openzeppelin/contracts-upgradeable/utils/EnumerableSetUpgradeable.sol\":3171:3193  set._values[lastIndex] */\n      dup2\n      sload\n      dup2\n      lt\n      tag_171\n      jumpi\n      invalid\n    tag_171:\n      swap1\n      0x00\n      mstore\n      keccak256(0x00, 0x20)\n      add\n      sload\n        /* \"@openzeppelin/contracts-upgradeable/utils/EnumerableSetUpgradeable.sol\":3151:3193  bytes32 lastvalue = set._values[lastIndex] */\n      swap1\n      pop\n        /* \"@openzeppelin/contracts-upgradeable/utils/EnumerableSetUpgradeable.sol\":3314:3323  lastvalue */\n      dup1\n        /* \"@openzeppelin/contracts-upgradeable/utils/EnumerableSetUpgradeable.sol\":3285:3288  set */\n      dup8\n        /* \"@openzeppelin/contracts-upgradeable/utils/EnumerableSetUpgradeable.sol\":3285:3296  set._values */\n      0x00\n      add\n        /* \"@openzeppelin/contracts-upgradeable/utils/EnumerableSetUpgradeable.sol\":3297:3310  toDeleteIndex */\n      dup5\n        /* \"@openzeppelin/contracts-upgradeable/utils/EnumerableSetUpgradeable.sol\":3285:3311  set._values[toDeleteIndex] */\n      dup2\n      sload\n      dup2\n      lt\n      tag_173\n      jumpi\n      invalid\n    tag_173:\n      swap1\n      0x00\n      mstore\n      keccak256(0x00, 0x20)\n      add\n        /* \"@openzeppelin/contracts-upgradeable/utils/EnumerableSetUpgradeable.sol\":3285:3323  set._values[toDeleteIndex] = lastvalue */\n      dup2\n      swap1\n      sstore\n      pop\n        /* \"@openzeppelin/contracts-upgradeable/utils/EnumerableSetUpgradeable.sol\":3431:3432  1 */\n      0x01\n        /* \"@openzeppelin/contracts-upgradeable/utils/EnumerableSetUpgradeable.sol\":3415:3428  toDeleteIndex */\n      dup4\n        /* \"@openzeppelin/contracts-upgradeable/utils/EnumerableSetUpgradeable.sol\":3415:3432  toDeleteIndex + 1 */\n      add\n        /* \"@openzeppelin/contracts-upgradeable/utils/EnumerableSetUpgradeable.sol\":3389:3392  set */\n      dup8\n        /* \"@openzeppelin/contracts-upgradeable/utils/EnumerableSetUpgradeable.sol\":3389:3401  set._indexes */\n      0x01\n      add\n        /* \"@openzeppelin/contracts-upgradeable/utils/EnumerableSetUpgradeable.sol\":3389:3412  set._indexes[lastvalue] */\n      0x00\n        /* \"@openzeppelin/contracts-upgradeable/utils/EnumerableSetUpgradeable.sol\":3402:3411  lastvalue */\n      dup4\n        /* \"@openzeppelin/contracts-upgradeable/utils/EnumerableSetUpgradeable.sol\":3389:3412  set._indexes[lastvalue] */\n      dup2\n      mstore\n      0x20\n      add\n      swap1\n      dup2\n      mstore\n      0x20\n      add\n      0x00\n      keccak256\n        /* \"@openzeppelin/contracts-upgradeable/utils/EnumerableSetUpgradeable.sol\":3389:3432  set._indexes[lastvalue] = toDeleteIndex + 1 */\n      dup2\n      swap1\n      sstore\n      pop\n        /* \"@openzeppelin/contracts-upgradeable/utils/EnumerableSetUpgradeable.sol\":3538:3541  set */\n      dup7\n        /* \"@openzeppelin/contracts-upgradeable/utils/EnumerableSetUpgradeable.sol\":3538:3549  set._values */\n      0x00\n      add\n        /* \"@openzeppelin/contracts-upgradeable/utils/EnumerableSetUpgradeable.sol\":3538:3555  set._values.pop() */\n      dup1\n      sload\n      dup1\n      tag_175\n      jumpi\n      invalid\n    tag_175:\n      0x01\n      swap1\n      sub\n      dup2\n      dup2\n      swap1\n      0x00\n      mstore\n      keccak256(0x00, 0x20)\n      add\n      0x00\n      swap1\n      sstore\n      swap1\n      sstore\n        /* \"@openzeppelin/contracts-upgradeable/utils/EnumerableSetUpgradeable.sol\":3630:3633  set */\n      dup7\n        /* \"@openzeppelin/contracts-upgradeable/utils/EnumerableSetUpgradeable.sol\":3630:3642  set._indexes */\n      0x01\n      add\n        /* \"@openzeppelin/contracts-upgradeable/utils/EnumerableSetUpgradeable.sol\":3630:3649  set._indexes[value] */\n      0x00\n        /* \"@openzeppelin/contracts-upgradeable/utils/EnumerableSetUpgradeable.sol\":3643:3648  value */\n      dup8\n        /* \"@openzeppelin/contracts-upgradeable/utils/EnumerableSetUpgradeable.sol\":3630:3649  set._indexes[value] */\n      dup2\n      mstore\n      0x20\n      add\n      swap1\n      dup2\n      mstore\n      0x20\n      add\n      0x00\n      keccak256\n        /* \"@openzeppelin/contracts-upgradeable/utils/EnumerableSetUpgradeable.sol\":3623:3649  delete set._indexes[value] */\n      0x00\n      swap1\n      sstore\n        /* \"@openzeppelin/contracts-upgradeable/utils/EnumerableSetUpgradeable.sol\":3671:3675  true */\n      0x01\n        /* \"@openzeppelin/contracts-upgradeable/utils/EnumerableSetUpgradeable.sol\":3664:3675  return true */\n      swap5\n      pop\n      pop\n      pop\n      pop\n      pop\n      jump(tag_169)\n        /* \"@openzeppelin/contracts-upgradeable/utils/EnumerableSetUpgradeable.sol\":2456:3729  if (valueIndex != 0) { // Equivalent to contains(set, value)... */\n    tag_170:\n        /* \"@openzeppelin/contracts-upgradeable/utils/EnumerableSetUpgradeable.sol\":3713:3718  false */\n      0x00\n        /* \"@openzeppelin/contracts-upgradeable/utils/EnumerableSetUpgradeable.sol\":3706:3718  return false */\n      swap2\n      pop\n      pop\n        /* \"@openzeppelin/contracts-upgradeable/utils/EnumerableSetUpgradeable.sol\":2223:3735  function _remove(Set storage set, bytes32 value) private returns (bool) {... */\n    tag_169:\n      swap3\n      swap2\n      pop\n      pop\n      jump\t// out\n    stop\n    data_045d6834e6193a687012a3ad777f612279e549b6945364d9d2324f48610d3cbb 456e756d657261626c655365743a20696e646578206f7574206f6620626f756e6473\n    data_0ba7116025f1ef6b158a2bd2238e617f30e17c9e456917d901086ca4f8ad2811 416363657373436f6e74726f6c3a2073656e646572206d75737420626520616e2061646d696e20746f206772616e74\n    data_64344570eab7406ca49d34d38bf2b2496dfda914405390c5057c8b0aabf798a3 416363657373436f6e74726f6c3a2073656e646572206d75737420626520616e2061646d696e20746f207265766f6b65\n    data_7a2a4e26842155ea933fe6eb6e3137eb5a296dcdf55721c552be7b4c3cc23759 496e697469616c697a61626c653a20636f6e747261637420697320616c726561647920696e697469616c697a6564\n    data_fb06fa8ff2141e8ed74502f6792273793f25f0e9d3cf15344f3f5a0d4948fd4b 416363657373436f6e74726f6c3a2063616e206f6e6c792072656e6f756e636520726f6c657320666f722073656c66\n\n    auxdata: 0xa26469706673582212207889e6af4a2ab85283f58fadc5fdf8afdec5f6026301ef186408debcdc9d5b9b64736f6c634300060c0033\n}\n",
				"bytecode": {
					"linkReferences": {},
					"object": "608060405234801561001057600080fd5b506111bf806100206000396000f3fe608060405234801561001057600080fd5b50600436106100b45760003560e01c806391d148541161007157806391d14854146102315780639d1b464a14610295578063a217fddf146102b3578063ca15c873146102d1578063d547741f14610313578063e1f84a3614610361576100b4565b806318b20071146100b9578063248a9ca3146100e75780632f2ff15d1461012957806336568abe146101775780638129fc1c146101c55780639010d07c146101cf575b600080fd5b6100e5600480360360208110156100cf57600080fd5b810190808035906020019092919050505061037f565b005b610113600480360360208110156100fd57600080fd5b81019080803590602001909291905050506104f4565b6040518082815260200191505060405180910390f35b6101756004803603604081101561013f57600080fd5b8101908080359060200190929190803573ffffffffffffffffffffffffffffffffffffffff169060200190929190505050610514565b005b6101c36004803603604081101561018d57600080fd5b8101908080359060200190929190803573ffffffffffffffffffffffffffffffffffffffff16906020019092919050505061059e565b005b6101cd610637565b005b610205600480360360408110156101e557600080fd5b8101908080359060200190929190803590602001909291905050506107a5565b604051808273ffffffffffffffffffffffffffffffffffffffff16815260200191505060405180910390f35b61027d6004803603604081101561024757600080fd5b8101908080359060200190929190803573ffffffffffffffffffffffffffffffffffffffff1690602001909291905050506107d7565b60405180821515815260200191505060405180910390f35b61029d610809565b6040518082815260200191505060405180910390f35b6102bb610895565b6040518082815260200191505060405180910390f35b6102fd600480360360208110156102e757600080fd5b810190808035906020019092919050505061089c565b6040518082815260200191505060405180910390f35b61035f6004803603604081101561032957600080fd5b8101908080359060200190929190803573ffffffffffffffffffffffffffffffffffffffff1690602001909291905050506108c3565b005b61036961094d565b6040518082815260200191505060405180910390f35b6103b07f74b366a297145849fa9687e16ecad1e3a60cf84f6c2256ae73e20a9f766698046103ab610971565b6107d7565b610422576040517f08c379a000000000000000000000000000000000000000000000000000000000815260040180806020018281038252601a8152602001807f4d697373696e672050524943455f5550444154455220726f6c6500000000000081525060200191505060405180910390fd5b60008111610498576040517f08c379a00000000000000000000000000000000000000000000000000000000081526004018080602001828103825260168152602001807f5072696365206d757374206265206e6f6e2d7a65726f0000000000000000000081525060200191505060405180910390fd5b6001606560006101000a81548160ff021916908315150217905550806066819055507fcfebfed7291191489847e6abdd482d8816f6f32efecf69fc66c91631a2f217f9816040518082815260200191505060405180910390a150565b600060336000838152602001908152602001600020600201549050919050565b61053b6033600084815260200190815260200160002060020154610536610971565b6107d7565b610590576040517f08c379a000000000000000000000000000000000000000000000000000000000815260040180806020018281038252602f8152602001806110ce602f913960400191505060405180910390fd5b61059a8282610979565b5050565b6105a6610971565b73ffffffffffffffffffffffffffffffffffffffff168173ffffffffffffffffffffffffffffffffffffffff1614610629576040517f08c379a000000000000000000000000000000000000000000000000000000000815260040180806020018281038252602f81526020018061115b602f913960400191505060405180910390fd5b6106338282610a0d565b5050565b600060019054906101000a900460ff16806106565750610655610aa1565b5b8061066c575060008054906101000a900460ff16155b6106c1576040517f08c379a000000000000000000000000000000000000000000000000000000000815260040180806020018281038252602e81526020018061112d602e913960400191505060405180910390fd5b60008060019054906101000a900460ff161590508015610711576001600060016101000a81548160ff02191690831515021790555060016000806101000a81548160ff0219169083151502179055505b610719610ab2565b61072d6000801b610728610971565b610bc0565b61075e7f74b366a297145849fa9687e16ecad1e3a60cf84f6c2256ae73e20a9f76669804610759610971565b610bc0565b6000606560006101000a81548160ff021916908315150217905550600060668190555080156107a25760008060016101000a81548160ff0219169083151502179055505b50565b60006107cf8260336000868152602001908152602001600020600001610bce90919063ffffffff16565b905092915050565b60006108018260336000868152602001908152602001600020600001610be890919063ffffffff16565b905092915050565b6000606560009054906101000a900460ff1661088d576040517f08c379a000000000000000000000000000000000000000000000000000000000815260040180806020018281038252601c8152602001807f5072696365206d75737420626520736574206265666f726568616e640000000081525060200191505060405180910390fd5b606654905090565b6000801b81565b60006108bc60336000848152602001908152602001600020600001610c18565b9050919050565b6108ea60336000848152602001908152602001600020600201546108e5610971565b6107d7565b61093f576040517f08c379a00000000000000000000000000000000000000000000000000000000081526004018080602001828103825260308152602001806110fd6030913960400191505060405180910390fd5b6109498282610a0d565b5050565b7f74b366a297145849fa9687e16ecad1e3a60cf84f6c2256ae73e20a9f7666980481565b600033905090565b6109a18160336000858152602001908152602001600020600001610c2d90919063ffffffff16565b15610a09576109ae610971565b73ffffffffffffffffffffffffffffffffffffffff168173ffffffffffffffffffffffffffffffffffffffff16837f2f8788117e7eff1d82e926ec794901d17c78024a50270940304540a733656f0d60405160405180910390a45b5050565b610a358160336000858152602001908152602001600020600001610c5d90919063ffffffff16565b15610a9d57610a42610971565b73ffffffffffffffffffffffffffffffffffffffff168173ffffffffffffffffffffffffffffffffffffffff16837ff6391f5c32d9c69d2a47ea670b442974b53935d1edc7fd64eb21e047a839171b60405160405180910390a45b5050565b6000610aac30610c8d565b15905090565b600060019054906101000a900460ff1680610ad15750610ad0610aa1565b5b80610ae7575060008054906101000a900460ff16155b610b3c576040517f08c379a000000000000000000000000000000000000000000000000000000000815260040180806020018281038252602e81526020018061112d602e913960400191505060405180910390fd5b60008060019054906101000a900460ff161590508015610b8c576001600060016101000a81548160ff02191690831515021790555060016000806101000a81548160ff0219169083151502179055505b610b94610ca0565b610b9c610d9e565b8015610bbd5760008060016101000a81548160ff0219169083151502179055505b50565b610bca8282610979565b5050565b6000610bdd8360000183610e9c565b60001c905092915050565b6000610c10836000018373ffffffffffffffffffffffffffffffffffffffff1660001b610f1f565b905092915050565b6000610c2682600001610f42565b9050919050565b6000610c55836000018373ffffffffffffffffffffffffffffffffffffffff1660001b610f53565b905092915050565b6000610c85836000018373ffffffffffffffffffffffffffffffffffffffff1660001b610fc3565b905092915050565b600080823b905060008111915050919050565b600060019054906101000a900460ff1680610cbf5750610cbe610aa1565b5b80610cd5575060008054906101000a900460ff16155b610d2a576040517f08c379a000000000000000000000000000000000000000000000000000000000815260040180806020018281038252602e81526020018061112d602e913960400191505060405180910390fd5b60008060019054906101000a900460ff161590508015610d7a576001600060016101000a81548160ff02191690831515021790555060016000806101000a81548160ff0219169083151502179055505b8015610d9b5760008060016101000a81548160ff0219169083151502179055505b50565b600060019054906101000a900460ff1680610dbd5750610dbc610aa1565b5b80610dd3575060008054906101000a900460ff16155b610e28576040517f08c379a000000000000000000000000000000000000000000000000000000000815260040180806020018281038252602e81526020018061112d602e913960400191505060405180910390fd5b60008060019054906101000a900460ff161590508015610e78576001600060016101000a81548160ff02191690831515021790555060016000806101000a81548160ff0219169083151502179055505b8015610e995760008060016101000a81548160ff0219169083151502179055505b50565b600081836000018054905011610efd576040517f08c379a00000000000000000000000000000000000000000000000000000000081526004018080602001828103825260228152602001806110ac6022913960400191505060405180910390fd5b826000018281548110610f0c57fe5b9060005260206000200154905092915050565b600080836001016000848152602001908152602001600020541415905092915050565b600081600001805490509050919050565b6000610f5f8383610f1f565b610fb8578260000182908060018154018082558091505060019003906000526020600020016000909190919091505582600001805490508360010160008481526020019081526020016000208190555060019050610fbd565b600090505b92915050565b6000808360010160008481526020019081526020016000205490506000811461109f576000600182039050600060018660000180549050039050600086600001828154811061100e57fe5b906000526020600020015490508087600001848154811061102b57fe5b906000526020600020018190555060018301876001016000838152602001908152602001600020819055508660000180548061106357fe5b600190038181906000526020600020016000905590558660010160008781526020019081526020016000206000905560019450505050506110a5565b60009150505b9291505056fe456e756d657261626c655365743a20696e646578206f7574206f6620626f756e6473416363657373436f6e74726f6c3a2073656e646572206d75737420626520616e2061646d696e20746f206772616e74416363657373436f6e74726f6c3a2073656e646572206d75737420626520616e2061646d696e20746f207265766f6b65496e697469616c697a61626c653a20636f6e747261637420697320616c726561647920696e697469616c697a6564416363657373436f6e74726f6c3a2063616e206f6e6c792072656e6f756e636520726f6c657320666f722073656c66a26469706673582212207889e6af4a2ab85283f58fadc5fdf8afdec5f6026301ef186408debcdc9d5b9b64736f6c634300060c0033",
					"opcodes": "PUSH1 0x80 PUSH1 0x40 MSTORE CALLVALUE DUP1 ISZERO PUSH2 0x10 JUMPI PUSH1 0x0 DUP1 REVERT JUMPDEST POP PUSH2 0x11BF DUP1 PUSH2 0x20 PUSH1 0x0 CODECOPY PUSH1 0x0 RETURN INVALID PUSH1 0x80 PUSH1 0x40 MSTORE CALLVALUE DUP1 ISZERO PUSH2 0x10 JUMPI PUSH1 0x0 DUP1 REVERT JUMPDEST POP PUSH1 0x4 CALLDATASIZE LT PUSH2 0xB4 JUMPI PUSH1 0x0 CALLDATALOAD PUSH1 0xE0 SHR DUP1 PUSH4 0x91D14854 GT PUSH2 0x71 JUMPI DUP1 PUSH4 0x91D14854 EQ PUSH2 0x231 JUMPI DUP1 PUSH4 0x9D1B464A EQ PUSH2 0x295 JUMPI DUP1 PUSH4 0xA217FDDF EQ PUSH2 0x2B3 JUMPI DUP1 PUSH4 0xCA15C873 EQ PUSH2 0x2D1 JUMPI DUP1 PUSH4 0xD547741F EQ PUSH2 0x313 JUMPI DUP1 PUSH4 0xE1F84A36 EQ PUSH2 0x361 JUMPI PUSH2 0xB4 JUMP JUMPDEST DUP1 PUSH4 0x18B20071 EQ PUSH2 0xB9 JUMPI DUP1 PUSH4 0x248A9CA3 EQ PUSH2 0xE7 JUMPI DUP1 PUSH4 0x2F2FF15D EQ PUSH2 0x129 JUMPI DUP1 PUSH4 0x36568ABE EQ PUSH2 0x177 JUMPI DUP1 PUSH4 0x8129FC1C EQ PUSH2 0x1C5 JUMPI DUP1 PUSH4 0x9010D07C EQ PUSH2 0x1CF JUMPI JUMPDEST PUSH1 0x0 DUP1 REVERT JUMPDEST PUSH2 0xE5 PUSH1 0x4 DUP1 CALLDATASIZE SUB PUSH1 0x20 DUP2 LT ISZERO PUSH2 0xCF JUMPI PUSH1 0x0 DUP1 REVERT JUMPDEST DUP2 ADD SWAP1 DUP1 DUP1 CALLDATALOAD SWAP1 PUSH1 0x20 ADD SWAP1 SWAP3 SWAP2 SWAP1 POP POP POP PUSH2 0x37F JUMP JUMPDEST STOP JUMPDEST PUSH2 0x113 PUSH1 0x4 DUP1 CALLDATASIZE SUB PUSH1 0x20 DUP2 LT ISZERO PUSH2 0xFD JUMPI PUSH1 0x0 DUP1 REVERT JUMPDEST DUP2 ADD SWAP1 DUP1 DUP1 CALLDATALOAD SWAP1 PUSH1 0x20 ADD SWAP1 SWAP3 SWAP2 SWAP1 POP POP POP PUSH2 0x4F4 JUMP JUMPDEST PUSH1 0x40 MLOAD DUP1 DUP3 DUP2 MSTORE PUSH1 0x20 ADD SWAP2 POP POP PUSH1 0x40 MLOAD DUP1 SWAP2 SUB SWAP1 RETURN JUMPDEST PUSH2 0x175 PUSH1 0x4 DUP1 CALLDATASIZE SUB PUSH1 0x40 DUP2 LT ISZERO PUSH2 0x13F JUMPI PUSH1 0x0 DUP1 REVERT JUMPDEST DUP2 ADD SWAP1 DUP1 DUP1 CALLDATALOAD SWAP1 PUSH1 0x20 ADD SWAP1 SWAP3 SWAP2 SWAP1 DUP1 CALLDATALOAD PUSH20 0xFFFFFFFFFFFFFFFFFFFFFFFFFFFFFFFFFFFFFFFF AND SWAP1 PUSH1 0x20 ADD SWAP1 SWAP3 SWAP2 SWAP1 POP POP POP PUSH2 0x514 JUMP JUMPDEST STOP JUMPDEST PUSH2 0x1C3 PUSH1 0x4 DUP1 CALLDATASIZE SUB PUSH1 0x40 DUP2 LT ISZERO PUSH2 0x18D JUMPI PUSH1 0x0 DUP1 REVERT JUMPDEST DUP2 ADD SWAP1 DUP1 DUP1 CALLDATALOAD SWAP1 PUSH1 0x20 ADD SWAP1 SWAP3 SWAP2 SWAP1 DUP1 CALLDATALOAD PUSH20 0xFFFFFFFFFFFFFFFFFFFFFFFFFFFFFFFFFFFFFFFF AND SWAP1 PUSH1 0x20 ADD SWAP1 SWAP3 SWAP2 SWAP1 POP POP POP PUSH2 0x59E JUMP JUMPDEST STOP JUMPDEST PUSH2 0x1CD PUSH2 0x637 JUMP JUMPDEST STOP JUMPDEST PUSH2 0x205 PUSH1 0x4 DUP1 CALLDATASIZE SUB PUSH1 0x40 DUP2 LT ISZERO PUSH2 0x1E5 JUMPI PUSH1 0x0 DUP1 REVERT JUMPDEST DUP2 ADD SWAP1 DUP1 DUP1 CALLDATALOAD SWAP1 PUSH1 0x20 ADD SWAP1 SWAP3 SWAP2 SWAP1 DUP1 CALLDATALOAD SWAP1 PUSH1 0x20 ADD SWAP1 SWAP3 SWAP2 SWAP1 POP POP POP PUSH2 0x7A5 JUMP JUMPDEST PUSH1 0x40 MLOAD DUP1 DUP3 PUSH20 0xFFFFFFFFFFFFFFFFFFFFFFFFFFFFFFFFFFFFFFFF AND DUP2 MSTORE PUSH1 0x20 ADD SWAP2 POP POP PUSH1 0x40 MLOAD DUP1 SWAP2 SUB SWAP1 RETURN JUMPDEST PUSH2 0x27D PUSH1 0x4 DUP1 CALLDATASIZE SUB PUSH1 0x40 DUP2 LT ISZERO PUSH2 0x247 JUMPI PUSH1 0x0 DUP1 REVERT JUMPDEST DUP2 ADD SWAP1 DUP1 DUP1 CALLDATALOAD SWAP1 PUSH1 0x20 ADD SWAP1 SWAP3 SWAP2 SWAP1 DUP1 CALLDATALOAD PUSH20 0xFFFFFFFFFFFFFFFFFFFFFFFFFFFFFFFFFFFFFFFF AND SWAP1 PUSH1 0x20 ADD SWAP1 SWAP3 SWAP2 SWAP1 POP POP POP PUSH2 0x7D7 JUMP JUMPDEST PUSH1 0x40 MLOAD DUP1 DUP3 ISZERO ISZERO DUP2 MSTORE PUSH1 0x20 ADD SWAP2 POP POP PUSH1 0x40 MLOAD DUP1 SWAP2 SUB SWAP1 RETURN JUMPDEST PUSH2 0x29D PUSH2 0x809 JUMP JUMPDEST PUSH1 0x40 MLOAD DUP1 DUP3 DUP2 MSTORE PUSH1 0x20 ADD SWAP2 POP POP PUSH1 0x40 MLOAD DUP1 SWAP2 SUB SWAP1 RETURN JUMPDEST PUSH2 0x2BB PUSH2 0x895 JUMP JUMPDEST PUSH1 0x40 MLOAD DUP1 DUP3 DUP2 MSTORE PUSH1 0x20 ADD SWAP2 POP POP PUSH1 0x40 MLOAD DUP1 SWAP2 SUB SWAP1 RETURN JUMPDEST PUSH2 0x2FD PUSH1 0x4 DUP1 CALLDATASIZE SUB PUSH1 0x20 DUP2 LT ISZERO PUSH2 0x2E7 JUMPI PUSH1 0x0 DUP1 REVERT JUMPDEST DUP2 ADD SWAP1 DUP1 DUP1 CALLDATALOAD SWAP1 PUSH1 0x20 ADD SWAP1 SWAP3 SWAP2 SWAP1 POP POP POP PUSH2 0x89C JUMP JUMPDEST PUSH1 0x40 MLOAD DUP1 DUP3 DUP2 MSTORE PUSH1 0x20 ADD SWAP2 POP POP PUSH1 0x40 MLOAD DUP1 SWAP2 SUB SWAP1 RETURN JUMPDEST PUSH2 0x35F PUSH1 0x4 DUP1 CALLDATASIZE SUB PUSH1 0x40 DUP2 LT ISZERO PUSH2 0x329 JUMPI PUSH1 0x0 DUP1 REVERT JUMPDEST DUP2 ADD SWAP1 DUP1 DUP1 CALLDATALOAD SWAP1 PUSH1 0x20 ADD SWAP1 SWAP3 SWAP2 SWAP1 DUP1 CALLDATALOAD PUSH20 0xFFFFFFFFFFFFFFFFFFFFFFFFFFFFFFFFFFFFFFFF AND SWAP1 PUSH1 0x20 ADD SWAP1 SWAP3 SWAP2 SWAP1 POP POP POP PUSH2 0x8C3 JUMP JUMPDEST STOP JUMPDEST PUSH2 0x369 PUSH2 0x94D JUMP JUMPDEST PUSH1 0x40 MLOAD DUP1 DUP3 DUP2 MSTORE PUSH1 0x20 ADD SWAP2 POP POP PUSH1 0x40 MLOAD DUP1 SWAP2 SUB SWAP1 RETURN JUMPDEST PUSH2 0x3B0 PUSH32 0x74B366A297145849FA9687E16ECAD1E3A60CF84F6C2256AE73E20A9F76669804 PUSH2 0x3AB PUSH2 0x971 JUMP JUMPDEST PUSH2 0x7D7 JUMP JUMPDEST PUSH2 0x422 JUMPI PUSH1 0x40 MLOAD PUSH32 0x8C379A000000000000000000000000000000000000000000000000000000000 DUP2 MSTORE PUSH1 0x4 ADD DUP1 DUP1 PUSH1 0x20 ADD DUP3 DUP2 SUB DUP3 MSTORE PUSH1 0x1A DUP2 MSTORE PUSH1 0x20 ADD DUP1 PUSH32 0x4D697373696E672050524943455F5550444154455220726F6C65000000000000 DUP2 MSTORE POP PUSH1 0x20 ADD SWAP2 POP POP PUSH1 0x40 MLOAD DUP1 SWAP2 SUB SWAP1 REVERT JUMPDEST PUSH1 0x0 DUP2 GT PUSH2 0x498 JUMPI PUSH1 0x40 MLOAD PUSH32 0x8C379A000000000000000000000000000000000000000000000000000000000 DUP2 MSTORE PUSH1 0x4 ADD DUP1 DUP1 PUSH1 0x20 ADD DUP3 DUP2 SUB DUP3 MSTORE PUSH1 0x16 DUP2 MSTORE PUSH1 0x20 ADD DUP1 PUSH32 0x5072696365206D757374206265206E6F6E2D7A65726F00000000000000000000 DUP2 MSTORE POP PUSH1 0x20 ADD SWAP2 POP POP PUSH1 0x40 MLOAD DUP1 SWAP2 SUB SWAP1 REVERT JUMPDEST PUSH1 0x1 PUSH1 0x65 PUSH1 0x0 PUSH2 0x100 EXP DUP2 SLOAD DUP2 PUSH1 0xFF MUL NOT AND SWAP1 DUP4 ISZERO ISZERO MUL OR SWAP1 SSTORE POP DUP1 PUSH1 0x66 DUP2 SWAP1 SSTORE POP PUSH32 0xCFEBFED7291191489847E6ABDD482D8816F6F32EFECF69FC66C91631A2F217F9 DUP2 PUSH1 0x40 MLOAD DUP1 DUP3 DUP2 MSTORE PUSH1 0x20 ADD SWAP2 POP POP PUSH1 0x40 MLOAD DUP1 SWAP2 SUB SWAP1 LOG1 POP JUMP JUMPDEST PUSH1 0x0 PUSH1 0x33 PUSH1 0x0 DUP4 DUP2 MSTORE PUSH1 0x20 ADD SWAP1 DUP2 MSTORE PUSH1 0x20 ADD PUSH1 0x0 KECCAK256 PUSH1 0x2 ADD SLOAD SWAP1 POP SWAP2 SWAP1 POP JUMP JUMPDEST PUSH2 0x53B PUSH1 0x33 PUSH1 0x0 DUP5 DUP2 MSTORE PUSH1 0x20 ADD SWAP1 DUP2 MSTORE PUSH1 0x20 ADD PUSH1 0x0 KECCAK256 PUSH1 0x2 ADD SLOAD PUSH2 0x536 PUSH2 0x971 JUMP JUMPDEST PUSH2 0x7D7 JUMP JUMPDEST PUSH2 0x590 JUMPI PUSH1 0x40 MLOAD PUSH32 0x8C379A000000000000000000000000000000000000000000000000000000000 DUP2 MSTORE PUSH1 0x4 ADD DUP1 DUP1 PUSH1 0x20 ADD DUP3 DUP2 SUB DUP3 MSTORE PUSH1 0x2F DUP2 MSTORE PUSH1 0x20 ADD DUP1 PUSH2 0x10CE PUSH1 0x2F SWAP2 CODECOPY PUSH1 0x40 ADD SWAP2 POP POP PUSH1 0x40 MLOAD DUP1 SWAP2 SUB SWAP1 REVERT JUMPDEST PUSH2 0x59A DUP3 DUP3 PUSH2 0x979 JUMP JUMPDEST POP POP JUMP JUMPDEST PUSH2 0x5A6 PUSH2 0x971 JUMP JUMPDEST PUSH20 0xFFFFFFFFFFFFFFFFFFFFFFFFFFFFFFFFFFFFFFFF AND DUP2 PUSH20 0xFFFFFFFFFFFFFFFFFFFFFFFFFFFFFFFFFFFFFFFF AND EQ PUSH2 0x629 JUMPI PUSH1 0x40 MLOAD PUSH32 0x8C379A000000000000000000000000000000000000000000000000000000000 DUP2 MSTORE PUSH1 0x4 ADD DUP1 DUP1 PUSH1 0x20 ADD DUP3 DUP2 SUB DUP3 MSTORE PUSH1 0x2F DUP2 MSTORE PUSH1 0x20 ADD DUP1 PUSH2 0x115B PUSH1 0x2F SWAP2 CODECOPY PUSH1 0x40 ADD SWAP2 POP POP PUSH1 0x40 MLOAD DUP1 SWAP2 SUB SWAP1 REVERT JUMPDEST PUSH2 0x633 DUP3 DUP3 PUSH2 0xA0D JUMP JUMPDEST POP POP JUMP JUMPDEST PUSH1 0x0 PUSH1 0x1 SWAP1 SLOAD SWAP1 PUSH2 0x100 EXP SWAP1 DIV PUSH1 0xFF AND DUP1 PUSH2 0x656 JUMPI POP PUSH2 0x655 PUSH2 0xAA1 JUMP JUMPDEST JUMPDEST DUP1 PUSH2 0x66C JUMPI POP PUSH1 0x0 DUP1 SLOAD SWAP1 PUSH2 0x100 EXP SWAP1 DIV PUSH1 0xFF AND ISZERO JUMPDEST PUSH2 0x6C1 JUMPI PUSH1 0x40 MLOAD PUSH32 0x8C379A000000000000000000000000000000000000000000000000000000000 DUP2 MSTORE PUSH1 0x4 ADD DUP1 DUP1 PUSH1 0x20 ADD DUP3 DUP2 SUB DUP3 MSTORE PUSH1 0x2E DUP2 MSTORE PUSH1 0x20 ADD DUP1 PUSH2 0x112D PUSH1 0x2E SWAP2 CODECOPY PUSH1 0x40 ADD SWAP2 POP POP PUSH1 0x40 MLOAD DUP1 SWAP2 SUB SWAP1 REVERT JUMPDEST PUSH1 0x0 DUP1 PUSH1 0x1 SWAP1 SLOAD SWAP1 PUSH2 0x100 EXP SWAP1 DIV PUSH1 0xFF AND ISZERO SWAP1 POP DUP1 ISZERO PUSH2 0x711 JUMPI PUSH1 0x1 PUSH1 0x0 PUSH1 0x1 PUSH2 0x100 EXP DUP2 SLOAD DUP2 PUSH1 0xFF MUL NOT AND SWAP1 DUP4 ISZERO ISZERO MUL OR SWAP1 SSTORE POP PUSH1 0x1 PUSH1 0x0 DUP1 PUSH2 0x100 EXP DUP2 SLOAD DUP2 PUSH1 0xFF MUL NOT AND SWAP1 DUP4 ISZERO ISZERO MUL OR SWAP1 SSTORE POP JUMPDEST PUSH2 0x719 PUSH2 0xAB2 JUMP JUMPDEST PUSH2 0x72D PUSH1 0x0 DUP1 SHL PUSH2 0x728 PUSH2 0x971 JUMP JUMPDEST PUSH2 0xBC0 JUMP JUMPDEST PUSH2 0x75E PUSH32 0x74B366A297145849FA9687E16ECAD1E3A60CF84F6C2256AE73E20A9F76669804 PUSH2 0x759 PUSH2 0x971 JUMP JUMPDEST PUSH2 0xBC0 JUMP JUMPDEST PUSH1 0x0 PUSH1 0x65 PUSH1 0x0 PUSH2 0x100 EXP DUP2 SLOAD DUP2 PUSH1 0xFF MUL NOT AND SWAP1 DUP4 ISZERO ISZERO MUL OR SWAP1 SSTORE POP PUSH1 0x0 PUSH1 0x66 DUP2 SWAP1 SSTORE POP DUP1 ISZERO PUSH2 0x7A2 JUMPI PUSH1 0x0 DUP1 PUSH1 0x1 PUSH2 0x100 EXP DUP2 SLOAD DUP2 PUSH1 0xFF MUL NOT AND SWAP1 DUP4 ISZERO ISZERO MUL OR SWAP1 SSTORE POP JUMPDEST POP JUMP JUMPDEST PUSH1 0x0 PUSH2 0x7CF DUP3 PUSH1 0x33 PUSH1 0x0 DUP7 DUP2 MSTORE PUSH1 0x20 ADD SWAP1 DUP2 MSTORE PUSH1 0x20 ADD PUSH1 0x0 KECCAK256 PUSH1 0x0 ADD PUSH2 0xBCE SWAP1 SWAP2 SWAP1 PUSH4 0xFFFFFFFF AND JUMP JUMPDEST SWAP1 POP SWAP3 SWAP2 POP POP JUMP JUMPDEST PUSH1 0x0 PUSH2 0x801 DUP3 PUSH1 0x33 PUSH1 0x0 DUP7 DUP2 MSTORE PUSH1 0x20 ADD SWAP1 DUP2 MSTORE PUSH1 0x20 ADD PUSH1 0x0 KECCAK256 PUSH1 0x0 ADD PUSH2 0xBE8 SWAP1 SWAP2 SWAP1 PUSH4 0xFFFFFFFF AND JUMP JUMPDEST SWAP1 POP SWAP3 SWAP2 POP POP JUMP JUMPDEST PUSH1 0x0 PUSH1 0x65 PUSH1 0x0 SWAP1 SLOAD SWAP1 PUSH2 0x100 EXP SWAP1 DIV PUSH1 0xFF AND PUSH2 0x88D JUMPI PUSH1 0x40 MLOAD PUSH32 0x8C379A000000000000000000000000000000000000000000000000000000000 DUP2 MSTORE PUSH1 0x4 ADD DUP1 DUP1 PUSH1 0x20 ADD DUP3 DUP2 SUB DUP3 MSTORE PUSH1 0x1C DUP2 MSTORE PUSH1 0x20 ADD DUP1 PUSH32 0x5072696365206D75737420626520736574206265666F726568616E6400000000 DUP2 MSTORE POP PUSH1 0x20 ADD SWAP2 POP POP PUSH1 0x40 MLOAD DUP1 SWAP2 SUB SWAP1 REVERT JUMPDEST PUSH1 0x66 SLOAD SWAP1 POP SWAP1 JUMP JUMPDEST PUSH1 0x0 DUP1 SHL DUP2 JUMP JUMPDEST PUSH1 0x0 PUSH2 0x8BC PUSH1 0x33 PUSH1 0x0 DUP5 DUP2 MSTORE PUSH1 0x20 ADD SWAP1 DUP2 MSTORE PUSH1 0x20 ADD PUSH1 0x0 KECCAK256 PUSH1 0x0 ADD PUSH2 0xC18 JUMP JUMPDEST SWAP1 POP SWAP2 SWAP1 POP JUMP JUMPDEST PUSH2 0x8EA PUSH1 0x33 PUSH1 0x0 DUP5 DUP2 MSTORE PUSH1 0x20 ADD SWAP1 DUP2 MSTORE PUSH1 0x20 ADD PUSH1 0x0 KECCAK256 PUSH1 0x2 ADD SLOAD PUSH2 0x8E5 PUSH2 0x971 JUMP JUMPDEST PUSH2 0x7D7 JUMP JUMPDEST PUSH2 0x93F JUMPI PUSH1 0x40 MLOAD PUSH32 0x8C379A000000000000000000000000000000000000000000000000000000000 DUP2 MSTORE PUSH1 0x4 ADD DUP1 DUP1 PUSH1 0x20 ADD DUP3 DUP2 SUB DUP3 MSTORE PUSH1 0x30 DUP2 MSTORE PUSH1 0x20 ADD DUP1 PUSH2 0x10FD PUSH1 0x30 SWAP2 CODECOPY PUSH1 0x40 ADD SWAP2 POP POP PUSH1 0x40 MLOAD DUP1 SWAP2 SUB SWAP1 REVERT JUMPDEST PUSH2 0x949 DUP3 DUP3 PUSH2 0xA0D JUMP JUMPDEST POP POP JUMP JUMPDEST PUSH32 0x74B366A297145849FA9687E16ECAD1E3A60CF84F6C2256AE73E20A9F76669804 DUP2 JUMP JUMPDEST PUSH1 0x0 CALLER SWAP1 POP SWAP1 JUMP JUMPDEST PUSH2 0x9A1 DUP2 PUSH1 0x33 PUSH1 0x0 DUP6 DUP2 MSTORE PUSH1 0x20 ADD SWAP1 DUP2 MSTORE PUSH1 0x20 ADD PUSH1 0x0 KECCAK256 PUSH1 0x0 ADD PUSH2 0xC2D SWAP1 SWAP2 SWAP1 PUSH4 0xFFFFFFFF AND JUMP JUMPDEST ISZERO PUSH2 0xA09 JUMPI PUSH2 0x9AE PUSH2 0x971 JUMP JUMPDEST PUSH20 0xFFFFFFFFFFFFFFFFFFFFFFFFFFFFFFFFFFFFFFFF AND DUP2 PUSH20 0xFFFFFFFFFFFFFFFFFFFFFFFFFFFFFFFFFFFFFFFF AND DUP4 PUSH32 0x2F8788117E7EFF1D82E926EC794901D17C78024A50270940304540A733656F0D PUSH1 0x40 MLOAD PUSH1 0x40 MLOAD DUP1 SWAP2 SUB SWAP1 LOG4 JUMPDEST POP POP JUMP JUMPDEST PUSH2 0xA35 DUP2 PUSH1 0x33 PUSH1 0x0 DUP6 DUP2 MSTORE PUSH1 0x20 ADD SWAP1 DUP2 MSTORE PUSH1 0x20 ADD PUSH1 0x0 KECCAK256 PUSH1 0x0 ADD PUSH2 0xC5D SWAP1 SWAP2 SWAP1 PUSH4 0xFFFFFFFF AND JUMP JUMPDEST ISZERO PUSH2 0xA9D JUMPI PUSH2 0xA42 PUSH2 0x971 JUMP JUMPDEST PUSH20 0xFFFFFFFFFFFFFFFFFFFFFFFFFFFFFFFFFFFFFFFF AND DUP2 PUSH20 0xFFFFFFFFFFFFFFFFFFFFFFFFFFFFFFFFFFFFFFFF AND DUP4 PUSH32 0xF6391F5C32D9C69D2A47EA670B442974B53935D1EDC7FD64EB21E047A839171B PUSH1 0x40 MLOAD PUSH1 0x40 MLOAD DUP1 SWAP2 SUB SWAP1 LOG4 JUMPDEST POP POP JUMP JUMPDEST PUSH1 0x0 PUSH2 0xAAC ADDRESS PUSH2 0xC8D JUMP JUMPDEST ISZERO SWAP1 POP SWAP1 JUMP JUMPDEST PUSH1 0x0 PUSH1 0x1 SWAP1 SLOAD SWAP1 PUSH2 0x100 EXP SWAP1 DIV PUSH1 0xFF AND DUP1 PUSH2 0xAD1 JUMPI POP PUSH2 0xAD0 PUSH2 0xAA1 JUMP JUMPDEST JUMPDEST DUP1 PUSH2 0xAE7 JUMPI POP PUSH1 0x0 DUP1 SLOAD SWAP1 PUSH2 0x100 EXP SWAP1 DIV PUSH1 0xFF AND ISZERO JUMPDEST PUSH2 0xB3C JUMPI PUSH1 0x40 MLOAD PUSH32 0x8C379A000000000000000000000000000000000000000000000000000000000 DUP2 MSTORE PUSH1 0x4 ADD DUP1 DUP1 PUSH1 0x20 ADD DUP3 DUP2 SUB DUP3 MSTORE PUSH1 0x2E DUP2 MSTORE PUSH1 0x20 ADD DUP1 PUSH2 0x112D PUSH1 0x2E SWAP2 CODECOPY PUSH1 0x40 ADD SWAP2 POP POP PUSH1 0x40 MLOAD DUP1 SWAP2 SUB SWAP1 REVERT JUMPDEST PUSH1 0x0 DUP1 PUSH1 0x1 SWAP1 SLOAD SWAP1 PUSH2 0x100 EXP SWAP1 DIV PUSH1 0xFF AND ISZERO SWAP1 POP DUP1 ISZERO PUSH2 0xB8C JUMPI PUSH1 0x1 PUSH1 0x0 PUSH1 0x1 PUSH2 0x100 EXP DUP2 SLOAD DUP2 PUSH1 0xFF MUL NOT AND SWAP1 DUP4 ISZERO ISZERO MUL OR SWAP1 SSTORE POP PUSH1 0x1 PUSH1 0x0 DUP1 PUSH2 0x100 EXP DUP2 SLOAD DUP2 PUSH1 0xFF MUL NOT AND SWAP1 DUP4 ISZERO ISZERO MUL OR SWAP1 SSTORE POP JUMPDEST PUSH2 0xB94 PUSH2 0xCA0 JUMP JUMPDEST PUSH2 0xB9C PUSH2 0xD9E JUMP JUMPDEST DUP1 ISZERO PUSH2 0xBBD JUMPI PUSH1 0x0 DUP1 PUSH1 0x1 PUSH2 0x100 EXP DUP2 SLOAD DUP2 PUSH1 0xFF MUL NOT AND SWAP1 DUP4 ISZERO ISZERO MUL OR SWAP1 SSTORE POP JUMPDEST POP JUMP JUMPDEST PUSH2 0xBCA DUP3 DUP3 PUSH2 0x979 JUMP JUMPDEST POP POP JUMP JUMPDEST PUSH1 0x0 PUSH2 0xBDD DUP4 PUSH1 0x0 ADD DUP4 PUSH2 0xE9C JUMP JUMPDEST PUSH1 0x0 SHR SWAP1 POP SWAP3 SWAP2 POP POP JUMP JUMPDEST PUSH1 0x0 PUSH2 0xC10 DUP4 PUSH1 0x0 ADD DUP4 PUSH20 0xFFFFFFFFFFFFFFFFFFFFFFFFFFFFFFFFFFFFFFFF AND PUSH1 0x0 SHL PUSH2 0xF1F JUMP JUMPDEST SWAP1 POP SWAP3 SWAP2 POP POP JUMP JUMPDEST PUSH1 0x0 PUSH2 0xC26 DUP3 PUSH1 0x0 ADD PUSH2 0xF42 JUMP JUMPDEST SWAP1 POP SWAP2 SWAP1 POP JUMP JUMPDEST PUSH1 0x0 PUSH2 0xC55 DUP4 PUSH1 0x0 ADD DUP4 PUSH20 0xFFFFFFFFFFFFFFFFFFFFFFFFFFFFFFFFFFFFFFFF AND PUSH1 0x0 SHL PUSH2 0xF53 JUMP JUMPDEST SWAP1 POP SWAP3 SWAP2 POP POP JUMP JUMPDEST PUSH1 0x0 PUSH2 0xC85 DUP4 PUSH1 0x0 ADD DUP4 PUSH20 0xFFFFFFFFFFFFFFFFFFFFFFFFFFFFFFFFFFFFFFFF AND PUSH1 0x0 SHL PUSH2 0xFC3 JUMP JUMPDEST SWAP1 POP SWAP3 SWAP2 POP POP JUMP JUMPDEST PUSH1 0x0 DUP1 DUP3 EXTCODESIZE SWAP1 POP PUSH1 0x0 DUP2 GT SWAP2 POP POP SWAP2 SWAP1 POP JUMP JUMPDEST PUSH1 0x0 PUSH1 0x1 SWAP1 SLOAD SWAP1 PUSH2 0x100 EXP SWAP1 DIV PUSH1 0xFF AND DUP1 PUSH2 0xCBF JUMPI POP PUSH2 0xCBE PUSH2 0xAA1 JUMP JUMPDEST JUMPDEST DUP1 PUSH2 0xCD5 JUMPI POP PUSH1 0x0 DUP1 SLOAD SWAP1 PUSH2 0x100 EXP SWAP1 DIV PUSH1 0xFF AND ISZERO JUMPDEST PUSH2 0xD2A JUMPI PUSH1 0x40 MLOAD PUSH32 0x8C379A000000000000000000000000000000000000000000000000000000000 DUP2 MSTORE PUSH1 0x4 ADD DUP1 DUP1 PUSH1 0x20 ADD DUP3 DUP2 SUB DUP3 MSTORE PUSH1 0x2E DUP2 MSTORE PUSH1 0x20 ADD DUP1 PUSH2 0x112D PUSH1 0x2E SWAP2 CODECOPY PUSH1 0x40 ADD SWAP2 POP POP PUSH1 0x40 MLOAD DUP1 SWAP2 SUB SWAP1 REVERT JUMPDEST PUSH1 0x0 DUP1 PUSH1 0x1 SWAP1 SLOAD SWAP1 PUSH2 0x100 EXP SWAP1 DIV PUSH1 0xFF AND ISZERO SWAP1 POP DUP1 ISZERO PUSH2 0xD7A JUMPI PUSH1 0x1 PUSH1 0x0 PUSH1 0x1 PUSH2 0x100 EXP DUP2 SLOAD DUP2 PUSH1 0xFF MUL NOT AND SWAP1 DUP4 ISZERO ISZERO MUL OR SWAP1 SSTORE POP PUSH1 0x1 PUSH1 0x0 DUP1 PUSH2 0x100 EXP DUP2 SLOAD DUP2 PUSH1 0xFF MUL NOT AND SWAP1 DUP4 ISZERO ISZERO MUL OR SWAP1 SSTORE POP JUMPDEST DUP1 ISZERO PUSH2 0xD9B JUMPI PUSH1 0x0 DUP1 PUSH1 0x1 PUSH2 0x100 EXP DUP2 SLOAD DUP2 PUSH1 0xFF MUL NOT AND SWAP1 DUP4 ISZERO ISZERO MUL OR SWAP1 SSTORE POP JUMPDEST POP JUMP JUMPDEST PUSH1 0x0 PUSH1 0x1 SWAP1 SLOAD SWAP1 PUSH2 0x100 EXP SWAP1 DIV PUSH1 0xFF AND DUP1 PUSH2 0xDBD JUMPI POP PUSH2 0xDBC PUSH2 0xAA1 JUMP JUMPDEST JUMPDEST DUP1 PUSH2 0xDD3 JUMPI POP PUSH1 0x0 DUP1 SLOAD SWAP1 PUSH2 0x100 EXP SWAP1 DIV PUSH1 0xFF AND ISZERO JUMPDEST PUSH2 0xE28 JUMPI PUSH1 0x40 MLOAD PUSH32 0x8C379A000000000000000000000000000000000000000000000000000000000 DUP2 MSTORE PUSH1 0x4 ADD DUP1 DUP1 PUSH1 0x20 ADD DUP3 DUP2 SUB DUP3 MSTORE PUSH1 0x2E DUP2 MSTORE PUSH1 0x20 ADD DUP1 PUSH2 0x112D PUSH1 0x2E SWAP2 CODECOPY PUSH1 0x40 ADD SWAP2 POP POP PUSH1 0x40 MLOAD DUP1 SWAP2 SUB SWAP1 REVERT JUMPDEST PUSH1 0x0 DUP1 PUSH1 0x1 SWAP1 SLOAD SWAP1 PUSH2 0x100 EXP SWAP1 DIV PUSH1 0xFF AND ISZERO SWAP1 POP DUP1 ISZERO PUSH2 0xE78 JUMPI PUSH1 0x1 PUSH1 0x0 PUSH1 0x1 PUSH2 0x100 EXP DUP2 SLOAD DUP2 PUSH1 0xFF MUL NOT AND SWAP1 DUP4 ISZERO ISZERO MUL OR SWAP1 SSTORE POP PUSH1 0x1 PUSH1 0x0 DUP1 PUSH2 0x100 EXP DUP2 SLOAD DUP2 PUSH1 0xFF MUL NOT AND SWAP1 DUP4 ISZERO ISZERO MUL OR SWAP1 SSTORE POP JUMPDEST DUP1 ISZERO PUSH2 0xE99 JUMPI PUSH1 0x0 DUP1 PUSH1 0x1 PUSH2 0x100 EXP DUP2 SLOAD DUP2 PUSH1 0xFF MUL NOT AND SWAP1 DUP4 ISZERO ISZERO MUL OR SWAP1 SSTORE POP JUMPDEST POP JUMP JUMPDEST PUSH1 0x0 DUP2 DUP4 PUSH1 0x0 ADD DUP1 SLOAD SWAP1 POP GT PUSH2 0xEFD JUMPI PUSH1 0x40 MLOAD PUSH32 0x8C379A000000000000000000000000000000000000000000000000000000000 DUP2 MSTORE PUSH1 0x4 ADD DUP1 DUP1 PUSH1 0x20 ADD DUP3 DUP2 SUB DUP3 MSTORE PUSH1 0x22 DUP2 MSTORE PUSH1 0x20 ADD DUP1 PUSH2 0x10AC PUSH1 0x22 SWAP2 CODECOPY PUSH1 0x40 ADD SWAP2 POP POP PUSH1 0x40 MLOAD DUP1 SWAP2 SUB SWAP1 REVERT JUMPDEST DUP3 PUSH1 0x0 ADD DUP3 DUP2 SLOAD DUP2 LT PUSH2 0xF0C JUMPI INVALID JUMPDEST SWAP1 PUSH1 0x0 MSTORE PUSH1 0x20 PUSH1 0x0 KECCAK256 ADD SLOAD SWAP1 POP SWAP3 SWAP2 POP POP JUMP JUMPDEST PUSH1 0x0 DUP1 DUP4 PUSH1 0x1 ADD PUSH1 0x0 DUP5 DUP2 MSTORE PUSH1 0x20 ADD SWAP1 DUP2 MSTORE PUSH1 0x20 ADD PUSH1 0x0 KECCAK256 SLOAD EQ ISZERO SWAP1 POP SWAP3 SWAP2 POP POP JUMP JUMPDEST PUSH1 0x0 DUP2 PUSH1 0x0 ADD DUP1 SLOAD SWAP1 POP SWAP1 POP SWAP2 SWAP1 POP JUMP JUMPDEST PUSH1 0x0 PUSH2 0xF5F DUP4 DUP4 PUSH2 0xF1F JUMP JUMPDEST PUSH2 0xFB8 JUMPI DUP3 PUSH1 0x0 ADD DUP3 SWAP1 DUP1 PUSH1 0x1 DUP2 SLOAD ADD DUP1 DUP3 SSTORE DUP1 SWAP2 POP POP PUSH1 0x1 SWAP1 SUB SWAP1 PUSH1 0x0 MSTORE PUSH1 0x20 PUSH1 0x0 KECCAK256 ADD PUSH1 0x0 SWAP1 SWAP2 SWAP1 SWAP2 SWAP1 SWAP2 POP SSTORE DUP3 PUSH1 0x0 ADD DUP1 SLOAD SWAP1 POP DUP4 PUSH1 0x1 ADD PUSH1 0x0 DUP5 DUP2 MSTORE PUSH1 0x20 ADD SWAP1 DUP2 MSTORE PUSH1 0x20 ADD PUSH1 0x0 KECCAK256 DUP2 SWAP1 SSTORE POP PUSH1 0x1 SWAP1 POP PUSH2 0xFBD JUMP JUMPDEST PUSH1 0x0 SWAP1 POP JUMPDEST SWAP3 SWAP2 POP POP JUMP JUMPDEST PUSH1 0x0 DUP1 DUP4 PUSH1 0x1 ADD PUSH1 0x0 DUP5 DUP2 MSTORE PUSH1 0x20 ADD SWAP1 DUP2 MSTORE PUSH1 0x20 ADD PUSH1 0x0 KECCAK256 SLOAD SWAP1 POP PUSH1 0x0 DUP2 EQ PUSH2 0x109F JUMPI PUSH1 0x0 PUSH1 0x1 DUP3 SUB SWAP1 POP PUSH1 0x0 PUSH1 0x1 DUP7 PUSH1 0x0 ADD DUP1 SLOAD SWAP1 POP SUB SWAP1 POP PUSH1 0x0 DUP7 PUSH1 0x0 ADD DUP3 DUP2 SLOAD DUP2 LT PUSH2 0x100E JUMPI INVALID JUMPDEST SWAP1 PUSH1 0x0 MSTORE PUSH1 0x20 PUSH1 0x0 KECCAK256 ADD SLOAD SWAP1 POP DUP1 DUP8 PUSH1 0x0 ADD DUP5 DUP2 SLOAD DUP2 LT PUSH2 0x102B JUMPI INVALID JUMPDEST SWAP1 PUSH1 0x0 MSTORE PUSH1 0x20 PUSH1 0x0 KECCAK256 ADD DUP2 SWAP1 SSTORE POP PUSH1 0x1 DUP4 ADD DUP8 PUSH1 0x1 ADD PUSH1 0x0 DUP4 DUP2 MSTORE PUSH1 0x20 ADD SWAP1 DUP2 MSTORE PUSH1 0x20 ADD PUSH1 0x0 KECCAK256 DUP2 SWAP1 SSTORE POP DUP7 PUSH1 0x0 ADD DUP1 SLOAD DUP1 PUSH2 0x1063 JUMPI INVALID JUMPDEST PUSH1 0x1 SWAP1 SUB DUP2 DUP2 SWAP1 PUSH1 0x0 MSTORE PUSH1 0x20 PUSH1 0x0 KECCAK256 ADD PUSH1 0x0 SWAP1 SSTORE SWAP1 SSTORE DUP7 PUSH1 0x1 ADD PUSH1 0x0 DUP8 DUP2 MSTORE PUSH1 0x20 ADD SWAP1 DUP2 MSTORE PUSH1 0x20 ADD PUSH1 0x0 KECCAK256 PUSH1 0x0 SWAP1 SSTORE PUSH1 0x1 SWAP5 POP POP POP POP POP PUSH2 0x10A5 JUMP JUMPDEST PUSH1 0x0 SWAP2 POP POP JUMPDEST SWAP3 SWAP2 POP POP JUMP INVALID GASLIMIT PUSH15 0x756D657261626C655365743A20696E PUSH5 0x6578206F75 PUSH21 0x206F6620626F756E6473416363657373436F6E7472 PUSH16 0x6C3A2073656E646572206D7573742062 PUSH6 0x20616E206164 PUSH14 0x696E20746F206772616E74416363 PUSH6 0x7373436F6E74 PUSH19 0x6F6C3A2073656E646572206D75737420626520 PUSH2 0x6E20 PUSH2 0x646D PUSH10 0x6E20746F207265766F6B PUSH6 0x496E69746961 PUSH13 0x697A61626C653A20636F6E7472 PUSH2 0x6374 KECCAK256 PUSH10 0x7320616C726561647920 PUSH10 0x6E697469616C697A6564 COINBASE PUSH4 0x63657373 NUMBER PUSH16 0x6E74726F6C3A2063616E206F6E6C7920 PUSH19 0x656E6F756E636520726F6C657320666F722073 PUSH6 0x6C66A2646970 PUSH7 0x73582212207889 0xE6 0xAF 0x4A 0x2A 0xB8 MSTORE DUP4 CREATE2 DUP16 0xAD 0xC5 REVERT 0xF8 0xAF 0xDE 0xC5 0xF6 MUL PUSH4 0x1EF1864 ADDMOD 0xDE 0xBC 0xDC SWAP14 JUMPDEST SWAP12 PUSH5 0x736F6C6343 STOP MOD 0xC STOP CALLER "
				},
				"gasEstimates": {
					"creation": {
						"codeDepositCost": "908600",
						"executionCost": "942",
						"totalCost": "909542"
					},
					"external": {
						"DEFAULT_ADMIN_ROLE()": "255",
						"PRICE_UPDATER()": "315",
						"currentPrice()": "1888",
						"getRoleAdmin(bytes32)": "1207",
						"getRoleMember(bytes32,uint256)": "infinite",
						"getRoleMemberCount(bytes32)": "1356",
						"grantRole(bytes32,address)": "infinite",
						"hasRole(bytes32,address)": "infinite",
						"initialize()": "infinite",
						"renounceRole(bytes32,address)": "infinite",
						"revokeRole(bytes32,address)": "infinite",
						"setCurrentPrice(uint256)": "infinite"
					}
				},
				"methodIdentifiers": {
					"DEFAULT_ADMIN_ROLE()": "a217fddf",
					"PRICE_UPDATER()": "e1f84a36",
					"currentPrice()": "9d1b464a",
					"getRoleAdmin(bytes32)": "248a9ca3",
					"getRoleMember(bytes32,uint256)": "9010d07c",
					"getRoleMemberCount(bytes32)": "ca15c873",
					"grantRole(bytes32,address)": "2f2ff15d",
					"hasRole(bytes32,address)": "91d14854",
					"initialize()": "8129fc1c",
					"renounceRole(bytes32,address)": "36568abe",
					"revokeRole(bytes32,address)": "d547741f",
					"setCurrentPrice(uint256)": "18b20071"
				}
			},
			"storageLayout": {
				"storage": [
					{
						"astId": 314,
						"contract": "contracts/BasicPriceOracle.sol:BasicPriceOracle",
						"label": "_initialized",
						"offset": 0,
						"slot": "0",
						"type": "t_bool"
					},
					{
						"astId": 317,
						"contract": "contracts/BasicPriceOracle.sol:BasicPriceOracle",
						"label": "_initializing",
						"offset": 1,
						"slot": "0",
						"type": "t_bool"
					},
					{
						"astId": 661,
						"contract": "contracts/BasicPriceOracle.sol:BasicPriceOracle",
						"label": "__gap",
						"offset": 0,
						"slot": "1",
						"type": "t_array(t_uint256)50_storage"
					},
					{
						"astId": 43,
						"contract": "contracts/BasicPriceOracle.sol:BasicPriceOracle",
						"label": "_roles",
						"offset": 0,
						"slot": "51",
						"type": "t_mapping(t_bytes32,t_struct(RoleData)39_storage)"
					},
					{
						"astId": 306,
						"contract": "contracts/BasicPriceOracle.sol:BasicPriceOracle",
						"label": "__gap",
						"offset": 0,
						"slot": "52",
						"type": "t_array(t_uint256)49_storage"
					},
					{
						"astId": 1172,
						"contract": "contracts/BasicPriceOracle.sol:BasicPriceOracle",
						"label": "priceSet",
						"offset": 0,
						"slot": "101",
						"type": "t_bool"
					},
					{
						"astId": 1174,
						"contract": "contracts/BasicPriceOracle.sol:BasicPriceOracle",
						"label": "currentPrice_",
						"offset": 0,
						"slot": "102",
						"type": "t_uint256"
					}
				],
				"types": {
					"t_array(t_bytes32)dyn_storage": {
						"base": "t_bytes32",
						"encoding": "dynamic_array",
						"label": "bytes32[]",
						"numberOfBytes": "32"
					},
					"t_array(t_uint256)49_storage": {
						"base": "t_uint256",
						"encoding": "inplace",
						"label": "uint256[49]",
						"numberOfBytes": "1568"
					},
					"t_array(t_uint256)50_storage": {
						"base": "t_uint256",
						"encoding": "inplace",
						"label": "uint256[50]",
						"numberOfBytes": "1600"
					},
					"t_bool": {
						"encoding": "inplace",
						"label": "bool",
						"numberOfBytes": "1"
					},
					"t_bytes32": {
						"encoding": "inplace",
						"label": "bytes32",
						"numberOfBytes": "32"
					},
					"t_mapping(t_bytes32,t_struct(RoleData)39_storage)": {
						"encoding": "mapping",
						"key": "t_bytes32",
						"label": "mapping(bytes32 => struct AccessControlUpgradeable.RoleData)",
						"numberOfBytes": "32",
						"value": "t_struct(RoleData)39_storage"
					},
					"t_mapping(t_bytes32,t_uint256)": {
						"encoding": "mapping",
						"key": "t_bytes32",
						"label": "mapping(bytes32 => uint256)",
						"numberOfBytes": "32",
						"value": "t_uint256"
					},
					"t_struct(AddressSet)938_storage": {
						"encoding": "inplace",
						"label": "struct EnumerableSetUpgradeable.AddressSet",
						"members": [
							{
								"astId": 937,
								"contract": "contracts/BasicPriceOracle.sol:BasicPriceOracle",
								"label": "_inner",
								"offset": 0,
								"slot": "0",
								"type": "t_struct(Set)673_storage"
							}
						],
						"numberOfBytes": "64"
					},
					"t_struct(RoleData)39_storage": {
						"encoding": "inplace",
						"label": "struct AccessControlUpgradeable.RoleData",
						"members": [
							{
								"astId": 36,
								"contract": "contracts/BasicPriceOracle.sol:BasicPriceOracle",
								"label": "members",
								"offset": 0,
								"slot": "0",
								"type": "t_struct(AddressSet)938_storage"
							},
							{
								"astId": 38,
								"contract": "contracts/BasicPriceOracle.sol:BasicPriceOracle",
								"label": "adminRole",
								"offset": 0,
								"slot": "2",
								"type": "t_bytes32"
							}
						],
						"numberOfBytes": "96"
					},
					"t_struct(Set)673_storage": {
						"encoding": "inplace",
						"label": "struct EnumerableSetUpgradeable.Set",
						"members": [
							{
								"astId": 668,
								"contract": "contracts/BasicPriceOracle.sol:BasicPriceOracle",
								"label": "_values",
								"offset": 0,
								"slot": "0",
								"type": "t_array(t_bytes32)dyn_storage"
							},
							{
								"astId": 672,
								"contract": "contracts/BasicPriceOracle.sol:BasicPriceOracle",
								"label": "_indexes",
								"offset": 0,
								"slot": "1",
								"type": "t_mapping(t_bytes32,t_uint256)"
							}
						],
						"numberOfBytes": "64"
					},
					"t_uint256": {
						"encoding": "inplace",
						"label": "uint256",
						"numberOfBytes": "32"
					}
				}
			},
			"userdoc": {
				"kind": "user",
				"methods": {},
				"version": 1
			}
		}
	}
}