{
	"data": {
		"bytecode": {
			"linkReferences": {},
			"object": "608060405234801561001057600080fd5b506159e580620000216000396000f3fe608060405234801561001057600080fd5b50600436106105655760003560e01c806391d14854116102d7578063c6e195ed11610186578063e4a0f566116100e3578063f359832811610097578063fb198c4a1161007c578063fb198c4a14610e36578063fd20747e14610e91578063ff8956f714610eae57610565565b8063f359832814610e02578063faf039f414610e2e57610565565b8063e6c6b7f0116100c8578063e6c6b7f014610db1578063ebca521f14610db9578063eea74ec714610de557610565565b8063e4a0f56614610d6e578063e6a9076a14610d9457610565565b8063d547741f1161013a578063dc88432b1161011f578063dc88432b14610d23578063e36ed97114610d49578063e3a6615a14610d6657610565565b8063d547741f14610cef578063dbf802d914610d1b57610565565b8063d070bb541161016b578063d070bb5414610c9c578063d0eac9c114610ca4578063d2c76c0514610cc757610565565b8063c6e195ed14610c77578063ca15c87314610c7f57610565565b8063aa66377711610234578063bb3ccd70116101e8578063bcc0957d116101cd578063bcc0957d14610c5f578063be2cf13814610c67578063bee666d814610c6f57610565565b8063bb3ccd7014610c4f578063bc67e88714610c5757610565565b8063b179edf411610219578063b179edf414610c10578063b63589a114610c3f578063b7e1cd8614610c4757610565565b8063aa66377714610c00578063ab37e93414610c0857610565565b80639b9720921161028b5780639f8c964c116102705780639f8c964c14610bca578063a217fddf14610bd2578063a93bde2f14610bda57610565565b80639b97209214610b405780639f6b232e14610b6f57610565565b8063988b2935116102bc578063988b293514610af057806398c81edc14610b165780639b91748114610b1e57610565565b806391d1485414610a93578063945dbfcf14610ad357610565565b806336568abe116104335780635752ff51116103905780637998b3fd116103445780637d3eb7d3116103295780637d3eb7d314610a4b5780638c30db7914610a535780639010d07c14610a7057610565565b80637998b3fd14610a0557806379bd826d14610a2b57610565565b8063613f135211610375578063613f1352146109b15780636c6302b3146109b95780636f907206146109d957610565565b80635752ff5114610965578063599389b51461099157610565565b80634bfe0fa7116103e7578063534f6600116103cc578063534f6600146108ba5780635504d3d214610910578063563002aa1461091857610565565b80634bfe0fa71461088f57806351e717ac146108b257610565565b80633f18cd5b116104185780633f18cd5b1461086257806344678be11461086a578063499eeeeb1461088757610565565b806336568abe1461082e5780633c4739d31461085a57610565565b80631426cead116104e1578063248a9ca311610495578063328da3511161047a578063328da351146107a8578063336dfb46146107b057806335c31aa11461080857610565565b8063248a9ca31461074d5780632f2ff15d1461077c57610565565b80631a70fe02116104c65780631a70fe02146106f65780631d765c88146106fe5780631d7d76471461070657610565565b80631426cead146106825780631459457a146106ae57610565565b80630e032061116105385780630f92e39e1161051d5780630f92e39e146106035780631208fa551461062f57806313d721ef1461065357610565565b80630e032061146105de5780630ec32977146105fb57610565565b806301c5f7ed1461056a578063064187781461059857806306deb3e1146105a05780630dff3a10146105bd575b600080fd5b6105966004803603604081101561058057600080fd5b506001600160a01b038135169060200135610eb6565b005b610596610f2c565b610596600480360360208110156105b657600080fd5b5035610fe4565b6105c5611084565b60408051600f92830b90920b8252519081900360200190f35b610596600480360360208110156105f457600080fd5b5035611092565b610596611136565b6105966004803603604081101561061957600080fd5b50803590602001356001600160a01b0316611187565b6106376111f9565b604080516001600160a01b039092168252519081900360200190f35b6105966004803603604081101561066957600080fd5b506001600160a01b038135169060200135600f0b61120d565b6105966004803603604081101561069857600080fd5b50803590602001356001600160a01b031661127f565b610596600480360360a08110156106c457600080fd5b506001600160a01b038135811691602081013582169160408201358116916060810135821691608090910135166112f1565b61059661156e565b61059661162c565b61072f6004803603606081101561071c57600080fd5b5080359060208101359060400135611763565b60408051938452602084019290925282820152519081900360600190f35b61076a6004803603602081101561076357600080fd5b50356117aa565b60408051918252519081900360200190f35b6105966004803603604081101561079257600080fd5b50803590602001356001600160a01b03166117c2565b61076a61182a565b6107b861183d565b60408051602080825283518183015283519192839290830191858101910280838360005b838110156107f45781810151838201526020016107dc565b505050509050019250505060405180910390f35b61076a6004803603602081101561081e57600080fd5b50356001600160a01b03166119ad565b6105966004803603604081101561084457600080fd5b50803590602001356001600160a01b0316611a55565b6107b8611ab6565b61076a611c20565b6105966004803603602081101561088057600080fd5b5035611c27565b6105c5611c94565b610596600480360360408110156108a557600080fd5b5080359060200135611ca4565b61063761219a565b610596600480360360c08110156108d057600080fd5b50803562ffffff908116916020810135600f0b9160408201351690606081013567ffffffffffffffff169060808101359060a0013563ffffffff166121a9565b61076a612266565b61094d6004803603606081101561092e57600080fd5b5062ffffff81358116916020810135600f0b9160409091013516612288565b6040805162ffffff9092168252519081900360200190f35b61076a6004803603604081101561097b57600080fd5b506001600160a01b0381351690602001356122c2565b610596600480360360208110156109a757600080fd5b503560ff166122fa565b61076a612378565b610596600480360360208110156109cf57600080fd5b503560ff1661237e565b610596600480360360408110156109ef57600080fd5b506001600160a01b0381351690602001356123fc565b61076a60048036036020811015610a1b57600080fd5b50356001600160a01b031661257d565b61076a60048036036020811015610a4157600080fd5b5035600f0b612598565b6105c561262e565b61059660048036036020811015610a6957600080fd5b503561263e565b61063760048036036040811015610a8657600080fd5b50803590602001356126dd565b610abf60048036036040811015610aa957600080fd5b50803590602001356001600160a01b0316612702565b604080519115158252519081900360200190f35b61076a60048036036020811015610ae957600080fd5b5035612720565b61076a60048036036020811015610b0657600080fd5b50356001600160a01b0316612732565b610637612744565b6105c560048036036020811015610b3457600080fd5b503562ffffff16612753565b61059660048036036060811015610b5657600080fd5b508035906020810135906040013563ffffffff16612816565b610b9a60048036036020811015610b8557600080fd5b50356bffffffffffffffffffffffff16612e6f565b6040805160ff909416845262ffffff909216602084015267ffffffffffffffff1682820152519081900360600190f35b6105c5612e8f565b61076a612e98565b61059660048036036020811015610bf057600080fd5b50356001600160a01b0316612e9d565b6105c5612f14565b61076a612f1d565b61059660048036036040811015610c2657600080fd5b506001600160a01b038135169060200135600f0b612f23565b61076a612f95565b610637612fa9565b610596612fb8565b610596613007565b6105c56131c4565b6105c56131cd565b6106376131d6565b6105c56131e5565b61076a60048036036020811015610c9557600080fd5b50356131f5565b61063761320c565b61094d60048036036020811015610cba57600080fd5b503563ffffffff1661321b565b610abf60048036036040811015610cdd57600080fd5b5060ff81358116916020013516613223565b61059660048036036040811015610d0557600080fd5b50803590602001356001600160a01b0316613246565b6105c561329f565b61059660048036036020811015610d3957600080fd5b50356001600160a01b03166132ab565b61059660048036036020811015610d5f57600080fd5b5035613332565b6105c561339f565b61059660048036036020811015610d8457600080fd5b50356001600160a01b03166133af565b61059660048036036020811015610daa57600080fd5b5035613426565b6105966134ca565b61059660048036036040811015610dcf57600080fd5b506001600160a01b0381351690602001356138d3565b61059660048036036020811015610dfb57600080fd5b5035613945565b61059660048036036040811015610e1857600080fd5b506001600160a01b038135169060200135613a10565b610596613a82565b610e5960048036036040811015610e4c57600080fd5b50803590602001356141e3565b6040518082608080838360005b83811015610e7e578181015183820152602001610e66565b5050505090500191505060405180910390f35b61059660048036036020811015610ea757600080fd5b5035614464565b610637614503565b604080516923a0a6a2afa0a226a4a760b11b8152905190819003600a019020610edf9033612702565b610f1e576040805162461bcd60e51b81526020600482015260176024820152600080516020615891833981519152604482015290519081900360640190fd5b610f288282614512565b5050565b610f37600033612702565b610f74576040805162461bcd60e51b81526020600482015260096024820152682737ba1030b236b4b760b91b604482015290519081900360640190fd5b610f7e6001614631565b60748054600f9290920b6001600160801b03166fffffffffffffffffffffffffffffffff19909216919091179055610fb9604b6103e861464f565b607460106101000a8154816001600160801b030219169083600f0b6001600160801b03160217905550565b604080516923a0a6a2afa0a226a4a760b11b8152905190819003600a01902061100d9033612702565b61104c576040805162461bcd60e51b81526020600482015260176024820152600080516020615891833981519152604482015290519081900360640190fd5b611058816103e861464f565b606c60106101000a8154816001600160801b030219169083600f0b6001600160801b0316021790555050565b606b546101009004600f0b81565b604080516923a0a6a2afa0a226a4a760b11b8152905190819003600a0190206110bb9033612702565b6110fa576040805162461bcd60e51b81526020600482015260176024820152600080516020615891833981519152604482015290519081900360640190fd5b61110581606461464f565b606d8054600f9290920b6001600160801b03166fffffffffffffffffffffffffffffffff1990921691909117905550565b3360008181526072602052604081208054908290559161117b9061116e90849061115f9061468f565b600f0b9063ffffffff61472a16565b839063ffffffff6147a316565b9050610f283382614800565b604080516923a0a6a2afa0a226a4a760b11b8152905190819003600a0190206111b09033612702565b6111ef576040805162461bcd60e51b81526020600482015260176024820152600080516020615891833981519152604482015290519081900360640190fd5b610f288282614886565b60795461010090046001600160a01b031681565b604080516923a0a6a2afa0a226a4a760b11b8152905190819003600a0190206112369033612702565b611275576040805162461bcd60e51b81526020600482015260176024820152600080516020615891833981519152604482015290519081900360640190fd5b610f2882826148ef565b604080516923a0a6a2afa0a226a4a760b11b8152905190819003600a0190206112a89033612702565b6112e7576040805162461bcd60e51b81526020600482015260176024820152600080516020615891833981519152604482015290519081900360640190fd5b610f288282614901565b600054610100900460ff168061130a575061130a614956565b80611318575060005460ff16155b6113535760405162461bcd60e51b815260040180806020018281038252602e815260200180615932602e913960400191505060405180910390fd5b600054610100900460ff1615801561137e576000805460ff1961ff0019909116610100171660011790555b611386614967565b611391600033611820565b604080516923a0a6a2afa0a226a4a760b11b8152905190819003600a0190206113ba9033611820565b6067805473ffffffffffffffffffffffffffffffffffffffff199081166001600160a01b0389811691909117909255606580548216888416179055606680548216878416179055606880548216868416179055606980549091169184169190911790556004606a55606b8054602860ff199182161790915560798054909116600190811790915561144d90600a9061464f565b606b60016101000a8154816001600160801b030219169083600f0b6001600160801b031602179055506114826001606461464f565b606c60106101000a8154816001600160801b030219169083600f0b6001600160801b031602179055506114b76008600a61464f565b606d8054600f9290920b6001600160801b03166fffffffffffffffffffffffffffffffff199092169190911790556114f16003600161464f565b606d60106101000a8154816001600160801b030219169083600f0b6001600160801b031602179055506115266005600a61464f565b606e8054600f9290920b6001600160801b03166fffffffffffffffffffffffffffffffff199092169190911790558015611566576000805461ff00191690555b505050505050565b611579600033612702565b6115b6576040805162461bcd60e51b81526020600482015260096024820152682737ba1030b236b4b760b91b604482015290519081900360640190fd5b6115c5615a89620186a061464f565b606d8054600f9290920b6001600160801b03166fffffffffffffffffffffffffffffffff199092169190911790556116016101586103e861464f565b606c60106101000a8154816001600160801b030219169083600f0b6001600160801b03160217905550565b33600081815260726020526040812080549190559061164e90600a8304614a18565b6067546079546040805163095ea7b360e01b81526101009092046001600160a01b03908116600484015260248301859052905192169163095ea7b3916044808201926020929091908290030181600087803b1580156116ac57600080fd5b505af11580156116c0573d6000803e3d6000fd5b505050506040513d60208110156116d657600080fd5b5050607954604080517f668e01220000000000000000000000000000000000000000000000000000000081523360048201526024810184905290516101009092046001600160a01b03169163668e01229160448082019260009290919082900301818387803b15801561174857600080fd5b505af115801561175c573d6000803e3d6000fd5b5050505050565b600080600085841161177d575082915060009050806117a1565b8584039350848411611797575084915082905060006117a1565b5050508190038282825b93509350939050565b6000818152603360205260409020600201545b919050565b6000828152603360205260409020600201546117e5906117e0614aad565b612702565b6118205760405162461bcd60e51b815260040180806020018281038252602f8152602001806158d3602f913960400191505060405180910390fd5b610f288282614ab1565b3360009081526072602052604090205490565b606654604080516370a0823160e01b8152336004820152905160609283926001600160a01b03909116916370a0823191602480820192602092909190829003018186803b15801561188d57600080fd5b505afa1580156118a1573d6000803e3d6000fd5b505050506040513d60208110156118b757600080fd5b505167ffffffffffffffff811180156118cf57600080fd5b506040519080825280602002602001820160405280156118f9578160200160208202803683370190505b50905060005b81518110156119a75760665460408051632f745c5960e01b81523360048201526024810184905290516001600160a01b0390921691632f745c5991604480820192602092909190829003018186803b15801561195a57600080fd5b505afa15801561196e573d6000803e3d6000fd5b505050506040513d602081101561198457600080fd5b5051825183908390811061199457fe5b60209081029190910101526001016118ff565b50905090565b606754604080516370a0823160e01b81526001600160a01b038481166004830152915160009392909216916370a0823191602480820192602092909190829003018186803b1580156119fe57600080fd5b505afa158015611a12573d6000803e3d6000fd5b505050506040513d6020811015611a2857600080fd5b5051611a338361257d565b6001600160a01b03841660009081526075602052604090205401019050919050565b611a5d614aad565b6001600160a01b0316816001600160a01b031614611aac5760405162461bcd60e51b815260040180806020018281038252602f815260200180615981602f913960400191505060405180910390fd5b610f288282614b20565b606554604080516370a0823160e01b8152336004820152905160609283926001600160a01b03909116916370a0823191602480820192602092909190829003018186803b158015611b0657600080fd5b505afa158015611b1a573d6000803e3d6000fd5b505050506040513d6020811015611b3057600080fd5b505167ffffffffffffffff81118015611b4857600080fd5b50604051908082528060200260200182016040528015611b72578160200160208202803683370190505b50905060005b81518110156119a75760655460408051632f745c5960e01b81523360048201526024810184905290516001600160a01b0390921691632f745c5991604480820192602092909190829003018186803b158015611bd357600080fd5b505afa158015611be7573d6000803e3d6000fd5b505050506040513d6020811015611bfd57600080fd5b50518251839083908110611c0d57fe5b6020908102919091010152600101611b78565b6213c68081565b604080516923a0a6a2afa0a226a4a760b11b8152905190819003600a019020611c509033612702565b611c8f576040805162461bcd60e51b81526020600482015260176024820152600080516020615891833981519152604482015290519081900360640190fd5b606a55565b6000611c9f3361468f565b905090565b606a54606554604080516370a0823160e01b815233600482015290516001600160a01b03909216916370a0823191602480820192602092909190829003018186803b158015611cf257600080fd5b505afa158015611d06573d6000803e3d6000fd5b505050506040513d6020811015611d1c57600080fd5b50511115611d71576040805162461bcd60e51b815260206004820152601960248201527f546f6f206d616e792063686172616374657273206f776e656400000000000000604482015290519081900360640190fd5b606654604080516331a9108f60e11b8152600481018590529051849233926001600160a01b0390911691636352211e91602480820192602092909190829003018186803b158015611dc157600080fd5b505afa158015611dd5573d6000803e3d6000fd5b505050506040513d6020811015611deb57600080fd5b50516001600160a01b031614611e48576040805162461bcd60e51b815260206004820152601460248201527f4e6f742074686520776561706f6e206f776e6572000000000000000000000000604482015290519081900360640190fd5b606654604080516331a9108f60e11b8152600481018590529051849233926001600160a01b0390911691636352211e91602480820192602092909190829003018186803b158015611e9857600080fd5b505afa158015611eac573d6000803e3d6000fd5b505050506040513d6020811015611ec257600080fd5b50516001600160a01b031614611f1f576040805162461bcd60e51b815260206004820152601460248201527f4e6f742074686520776561706f6e206f776e6572000000000000000000000000604482015290519081900360640190fd5b606e54600f0b6000611f3082612598565b3360009081526075602090815260408083205460729092528220549293509091611f5b919084611763565b606754604080516370a0823160e01b815233600482015290519295508594506001600160a01b0390911692506370a08231916024808301926020929190829003018186803b158015611fac57600080fd5b505afa158015611fc0573d6000803e3d6000fd5b505050506040513d6020811015611fd657600080fd5b50511015611fe383614b8f565b60405160200180807f4e6f7420656e6f7567682048454c4c21204e656564200000000000000000000081525060160182805190602001908083835b6020831061203d5780518252601f19909201916020918201910161201e565b6001836020036101000a038019825116818451168082178552505050505050905001915050604051602081830303815290604052906120fa5760405162461bcd60e51b81526004018080602001828103825283818151815260200191508051906020019080838360005b838110156120bf5781810151838201526020016120a7565b50505050905090810190601f1680156120ec5780820380516001836020036101000a031916815260200191505b509250505060405180910390fd5b50606e5461210c903390600f0b6148ef565b606654604080517f9abcafef000000000000000000000000000000000000000000000000000000008152600481018a90526024810189905290516001600160a01b0390921691639abcafef9160448082019260009290919082900301818387803b15801561217957600080fd5b505af115801561218d573d6000803e3d6000fd5b5050505050505050505050565b6077546001600160a01b031681565b6121b1615872565b6121c66121bf888888612288565b8585614c9b565b90506000805b6004811015612209578363ffffffff168382600481106121e857fe5b602002015163ffffffff16141561220157506001905060045b6001016121cc565b508061225c576040805162461bcd60e51b815260206004820152600e60248201527f54617267657420696e76616c6964000000000000000000000000000000000000604482015290519081900360640190fd5b5050505050505050565b604080516923a0a6a2afa0a226a4a760b11b8152905190819003600a01902081565b60006122ba8262ffffff166122ae8662ffffff1686600f0b61472a90919063ffffffff16565b9063ffffffff614d3516565b949350505050565b6001600160a01b03821660009081526075602090815260408083205460729092528220546122f1919084611763565b95945050505050565b604080516923a0a6a2afa0a226a4a760b11b8152905190819003600a0190206123239033612702565b612362576040805162461bcd60e51b81526020600482015260176024820152600080516020615891833981519152604482015290519081900360640190fd5b6079805460ff191660ff92909216919091179055565b60715481565b604080516923a0a6a2afa0a226a4a760b11b8152905190819003600a0190206123a79033612702565b6123e6576040805162461bcd60e51b81526020600482015260176024820152600080516020615891833981519152604482015290519081900360640190fd5b606b805460ff191660ff92909216919091179055565b604080516923a0a6a2afa0a226a4a760b11b8152905190819003600a0190206124259033612702565b612464576040805162461bcd60e51b81526020600482015260176024820152600080516020615891833981519152604482015290519081900360640190fd5b607654612477908263ffffffff614d3516565b6076556001600160a01b0382166000908152607560205260409020546124a3908263ffffffff614d3516565b6001600160a01b0380841660009081526075602090815260408083209490945560675484516323b872dd60e01b81523360048201523060248201526044810187905294519316936323b872dd9360648083019491928390030190829087803b15801561250e57600080fd5b505af1158015612522573d6000803e3d6000fd5b505050506040513d602081101561253857600080fd5b50506040805182815290516001600160a01b038416917f3443ca0a6a2d7fbb0e0c0612adb07cdcbde092e281a3dddc6ed66c14c00429cd919081900360200190a25050565b6001600160a01b031660009081526072602052604090205490565b6000612628606860009054906101000a90046001600160a01b03166001600160a01b0316639d1b464a6040518163ffffffff1660e01b815260040160206040518083038186803b1580156125eb57600080fd5b505afa1580156125ff573d6000803e3d6000fd5b505050506040513d602081101561261557600080fd5b5051600f84900b9063ffffffff61472a16565b92915050565b607454600160801b9004600f0b81565b604080516923a0a6a2afa0a226a4a760b11b8152905190819003600a0190206126679033612702565b6126a6576040805162461bcd60e51b81526020600482015260176024820152600080516020615891833981519152604482015290519081900360640190fd5b6126b181606461464f565b606b60016101000a8154816001600160801b030219169083600f0b6001600160801b0316021790555050565b60008281526033602052604081206126fb908363ffffffff614d8f16565b9392505050565b60008281526033602052604081206126fb908363ffffffff614d9b16565b60009081526073602052604090205490565b60756020526000908152604090205481565b6067546001600160a01b031681565b607454600090600f0b60ff80841690600885901c168114156127935760745461279090600f84810b91600160801b9004900b63ffffffff614db016565b91505b6127a68160108662ffffff16901c613223565b156127d3576074546127cc90600f84810b91600160801b9004900b63ffffffff614db016565b915061280f565b6127e660108562ffffff16901c82613223565b1561280f5760745461280c90600f84810b91600160801b9004900b63ffffffff614df616565b91505b5092915050565b606a54606554604080516370a0823160e01b815233600482015290516001600160a01b03909216916370a0823191602480820192602092909190829003018186803b15801561286457600080fd5b505afa158015612878573d6000803e3d6000fd5b505050506040513d602081101561288e57600080fd5b505111156128e3576040805162461bcd60e51b815260206004820152601960248201527f546f6f206d616e792063686172616374657273206f776e656400000000000000604482015290519081900360640190fd5b336000818152607060205260409020544311612946576040805162461bcd60e51b815260206004820152601c60248201527f4f6e6c792063616c6c61626c65206f6e63652070657220626c6f636b00000000604482015290519081900360640190fd5b6001600160a01b0380821660009081526070602090815260409182902043905560655482516331a9108f60e11b815260048101899052925188943394921692636352211e9260248082019391829003018186803b1580156129a657600080fd5b505afa1580156129ba573d6000803e3d6000fd5b505050506040513d60208110156129d057600080fd5b50516001600160a01b031614612a2d576040805162461bcd60e51b815260206004820152601760248201527f4e6f742074686520636861726163746572206f776e6572000000000000000000604482015290519081900360640190fd5b606654604080516331a9108f60e11b8152600481018790529051869233926001600160a01b0390911691636352211e91602480820192602092909190829003018186803b158015612a7d57600080fd5b505afa158015612a91573d6000803e3d6000fd5b505050506040513d6020811015612aa757600080fd5b50516001600160a01b031614612b04576040805162461bcd60e51b815260206004820152601460248201527f4e6f742074686520776561706f6e206f776e6572000000000000000000000000604482015290519081900360640190fd5b607954606654604080517f52bc59ea00000000000000000000000000000000000000000000000000000000815260048101899052905160ff909316926001600160a01b03909216916352bc59ea91602480820192602092909190829003018186803b158015612b7257600080fd5b505afa158015612b86573d6000803e3d6000fd5b505050506040513d6020811015612b9c57600080fd5b505160ff161015612bf4576040805162461bcd60e51b815260206004820152601660248201527f4e6f7420656e6f756768206475726162696c6974792100000000000000000000604482015290519081900360640190fd5b606554606b54604080517f2ee6accf000000000000000000000000000000000000000000000000000000008152600481018a905260ff90921660248301525160009283928392612c9f926001600160a01b031691632ee6accf91604480830192602092919082900301818887803b158015612c6e57600080fd5b505af1158015612c82573d6000803e3d6000fd5b505050506040513d6020811015612c9857600080fd5b5051612e6f565b606654604080517fd58227c8000000000000000000000000000000000000000000000000000000008152600481018e905260ff8616602482015290519497509295509093506000928392839283926001600160a01b039091169163d58227c8916044808301926080929190829003018186803b158015612d1e57600080fd5b505afa158015612d32573d6000803e3d6000fd5b505050506040513d6080811015612d4857600080fd5b81019080805190602001909291908051906020019092919080519060200190929190805190602001909291905050509350935093509350606660009054906101000a90046001600160a01b03166001600160a01b031663e07608868d607960009054906101000a900460ff166040518363ffffffff1660e01b8152600401808381526020018260ff1660ff16815260200192505050600060405180830381600087803b158015612df757600080fd5b505af1158015612e0b573d6000803e3d6000fd5b50505050612e1c868584888f614e3b565b612e608d8d612e2c898787612288565b60088f63ff0000001663ffffffff16901c60088660ff1662ffffff16901b8c60ff161762ffffff16178f62ffffff16614e50565b50505050505050505050505050565b60ff811691600882901c62ffffff169160201c67ffffffffffffffff1690565b606e54600f0b81565b600081565b612ea8600033612702565b612ee5576040805162461bcd60e51b81526020600482015260096024820152682737ba1030b236b4b760b91b604482015290519081900360640190fd5b6077805473ffffffffffffffffffffffffffffffffffffffff19166001600160a01b0392909216919091179055565b607454600f0b81565b60765481565b604080516923a0a6a2afa0a226a4a760b11b8152905190819003600a019020612f4c9033612702565b612f8b576040805162461bcd60e51b81526020600482015260176024820152600080516020615891833981519152604482015290519081900360640190fd5b610f288282615003565b6000611c9f42610e1063ffffffff61501516565b6066546001600160a01b031681565b612fc3600033612702565b613000576040805162461bcd60e51b81526020600482015260096024820152682737ba1030b236b4b760b91b604482015290519081900360640190fd5b6020607155565b60005b606554604080516370a0823160e01b815233600482015290516001600160a01b03909216916370a0823191602480820192602092909190829003018186803b15801561305557600080fd5b505afa158015613069573d6000803e3d6000fd5b505050506040513d602081101561307f57600080fd5b50518110156131c15760655460408051632f745c5960e01b81523360048201526024810184905290516000926001600160a01b031691632f745c59916044808301926020929190829003018186803b1580156130da57600080fd5b505afa1580156130ee573d6000803e3d6000fd5b505050506040513d602081101561310457600080fd5b50516000818152607360205260408120805491905590915061ffff81111561312b575061ffff5b606554604080517f0fc005750000000000000000000000000000000000000000000000000000000081526004810185905261ffff8416602482015290516001600160a01b0390921691630fc005759160448082019260009290919082900301818387803b15801561319b57600080fd5b505af11580156131af573d6000803e3d6000fd5b50506001909401935061300a92505050565b50565b606c54600f0b81565b606d54600f0b81565b6069546001600160a01b031681565b606c54600160801b9004600f0b81565b60008181526033602052604081206126289061507c565b6065546001600160a01b031681565b62ffffff1690565b60008160ff1660048460010160ff168161323957fe5b0660ff1614905092915050565b600082815260336020526040902060020154613264906117e0614aad565b611aac5760405162461bcd60e51b81526004018080602001828103825260308152602001806159026030913960400191505060405180910390fd5b67266666666666666681565b6132b6600033612702565b6132f3576040805162461bcd60e51b81526020600482015260096024820152682737ba1030b236b4b760b91b604482015290519081900360640190fd5b607980546001600160a01b03909216610100027fffffffffffffffffffffff0000000000000000000000000000000000000000ff909216919091179055565b604080516923a0a6a2afa0a226a4a760b11b8152905190819003600a01902061335b9033612702565b61339a576040805162461bcd60e51b81526020600482015260176024820152600080516020615891833981519152604482015290519081900360640190fd5b607155565b606d54600160801b9004600f0b81565b6133ba600033612702565b6133f7576040805162461bcd60e51b81526020600482015260096024820152682737ba1030b236b4b760b91b604482015290519081900360640190fd5b6069805473ffffffffffffffffffffffffffffffffffffffff19166001600160a01b0392909216919091179055565b604080516923a0a6a2afa0a226a4a760b11b8152905190819003600a01902061344f9033612702565b61348e576040805162461bcd60e51b81526020600482015260176024820152600080516020615891833981519152604482015290519081900360640190fd5b61349981606461464f565b606e8054600f9290920b6001600160801b03166fffffffffffffffffffffffffffffffff1990921691909117905550565b606a54606554604080516370a0823160e01b815233600482015290516001600160a01b03909216916370a0823191602480820192602092909190829003018186803b15801561351857600080fd5b505afa15801561352c573d6000803e3d6000fd5b505050506040513d602081101561354257600080fd5b50511115613597576040805162461bcd60e51b815260206004820152601960248201527f546f6f206d616e792063686172616374657273206f776e656400000000000000604482015290519081900360640190fd5b3360008181526070602052604090205443116135fa576040805162461bcd60e51b815260206004820152601c60248201527f4f6e6c792063616c6c61626c65206f6e63652070657220626c6f636b00000000604482015290519081900360640190fd5b6001600160a01b0381166000908152607060205260408120439055606d54600160801b9004600f0b9061362c82612598565b3360009081526075602090815260408083205460729092528220549293509091613657919084611763565b606754604080516370a0823160e01b815233600482015290519295508594506001600160a01b0390911692506370a08231916024808301926020929190829003018186803b1580156136a857600080fd5b505afa1580156136bc573d6000803e3d6000fd5b505050506040513d60208110156136d257600080fd5b505110156136df83614b8f565b60405160200180807f4e6f7420656e6f7567682048454c4c21204e656564200000000000000000000081525060160182805190602001908083835b602083106137395780518252601f19909201916020918201910161371a565b6001836020036101000a038019825116818451168082178552505050505050905001915050604051602081830303815290604052906137b95760405162461bcd60e51b81526020600482018181528351602484015283519092839260449091019190850190808383600083156120bf5781810151838201526020016120a7565b50606d546137d2903390600160801b9004600f0b6148ef565b60695460408051630e20f61560e21b815233600482015290516000926001600160a01b031691633883d854916024808301926020929190829003018186803b15801561381d57600080fd5b505afa158015613831573d6000803e3d6000fd5b505050506040513d602081101561384757600080fd5b5051606654604080516340c10f1960e01b81523360048201526024810184905290519293506001600160a01b03909116916340c10f19916044808201926020929091908290030181600087803b1580156138a057600080fd5b505af11580156138b4573d6000803e3d6000fd5b505050506040513d60208110156138ca57600080fd5b50505050505050565b604080516923a0a6a2afa0a226a4a760b11b8152905190819003600a0190206138fc9033612702565b61393b576040805162461bcd60e51b81526020600482015260176024820152600080516020615891833981519152604482015290519081900360640190fd5b610f288282614800565b613950600033612702565b61398d576040805162461bcd60e51b81526020600482015260096024820152682737ba1030b236b4b760b91b604482015290519081900360640190fd5b6067546040805163a9059cbb60e01b81523360048201526024810184905290516001600160a01b039092169163a9059cbb916044808201926020929091908290030181600087803b1580156139e157600080fd5b505af11580156139f5573d6000803e3d6000fd5b505050506040513d6020811015613a0b57600080fd5b505050565b604080516923a0a6a2afa0a226a4a760b11b8152905190819003600a019020613a399033612702565b613a78576040805162461bcd60e51b81526020600482015260176024820152600080516020615891833981519152604482015290519081900360640190fd5b610f288282614a18565b606a54606554604080516370a0823160e01b815233600482015290516001600160a01b03909216916370a0823191602480820192602092909190829003018186803b158015613ad057600080fd5b505afa158015613ae4573d6000803e3d6000fd5b505050506040513d6020811015613afa57600080fd5b50511115613b4f576040805162461bcd60e51b815260206004820152601960248201527f546f6f206d616e792063686172616374657273206f776e656400000000000000604482015290519081900360640190fd5b336000818152607060205260409020544311613bb2576040805162461bcd60e51b815260206004820152601c60248201527f4f6e6c792063616c6c61626c65206f6e63652070657220626c6f636b00000000604482015290519081900360640190fd5b6001600160a01b0381166000908152607060205260408120439055606b546101009004600f0b90613be282612598565b3360009081526075602090815260408083205460729092528220549293509091613c0d919084611763565b606754604080516370a0823160e01b815233600482015290519295508594506001600160a01b0390911692506370a08231916024808301926020929190829003018186803b158015613c5e57600080fd5b505afa158015613c72573d6000803e3d6000fd5b505050506040513d6020811015613c8857600080fd5b50511015613c9583614b8f565b60405160200180807f4e6f7420656e6f7567682048454c4c21204e656564200000000000000000000081525060160182805190602001908083835b60208310613cef5780518252601f199092019160209182019101613cd0565b6001836020036101000a03801982511681845116808217855250505050505090500191505060405160208183030381529060405290613d6f5760405162461bcd60e51b81526020600482018181528351602484015283519092839260449091019190850190808383600083156120bf5781810151838201526020016120a7565b50606a54606554604080516370a0823160e01b815233600482015290516001600160a01b03909216916370a0823191602480820192602092909190829003018186803b158015613dbe57600080fd5b505afa158015613dd2573d6000803e3d6000fd5b505050506040513d6020811015613de857600080fd5b5051606a54604080517f596f752063616e206f6e6c792068617665200000000000000000000000000000602082015260328101929092527f206368617261637465727321000000000000000000000000000000000000000060528301528051603e818403018152605e90920190529111613ea35760405162461bcd60e51b81526020600482018181528351602484015283519092839260449091019190850190808383600083156120bf5781810151838201526020016120a7565b50606b54613eba9033906101009004600f0b6148ef565b60695460408051630e20f61560e21b815233600482015290516000926001600160a01b031691633883d854916024808301926020929190829003018186803b158015613f0557600080fd5b505afa158015613f19573d6000803e3d6000fd5b505050506040513d6020811015613f2f57600080fd5b5051606554604080516340c10f1960e01b81523360048201526024810184905290519293506001600160a01b03909116916340c10f199160448082019260009290919082900301818387803b158015613f8757600080fd5b505af1158015613f9b573d6000803e3d6000fd5b5050606654604080516370a0823160e01b815233600482015290516001600160a01b0390921693506370a082319250602480820192602092909190829003018186803b158015613fea57600080fd5b505afa158015613ffe573d6000803e3d6000fd5b505050506040513d602081101561401457600080fd5b505161175c576066546001600160a01b031663e8d5fe4433826380aa68cd600061403f876064615087565b6040518363ffffffff1660e01b8152600401808381526020018281526020019250505060206040518083038186803b15801561407a57600080fd5b505afa15801561408e573d6000803e3d6000fd5b505050506040513d60208110156140a457600080fd5b5051606654604080517f3e68b60400000000000000000000000000000000000000000000000000000000815260048181015260c86024820152604481018890526065606482015290516001600160a01b0390921691633e68b60491608480820192602092909190829003018186803b15801561411f57600080fd5b505afa158015614133573d6000803e3d6000fd5b505050506040513d602081101561414957600080fd5b5051600080614159886066615087565b604080517fffffffff0000000000000000000000000000000000000000000000000000000060e08a901b1681526001600160a01b03909716600488015261ffff958616602488015293851660448701529184166064860152909216608484015260a48301919091525160c48083019260209291908290030181600087803b1580156138a057600080fd5b6141eb615872565b606654606554604080517facb586df00000000000000000000000000000000000000000000000000000000815260048101879052905160009384936001600160a01b039182169363d58227c89389939092169163acb586df91602480820192602092909190829003018186803b15801561426457600080fd5b505afa158015614278573d6000803e3d6000fd5b505050506040513d602081101561428e57600080fd5b5051604080517fffffffff0000000000000000000000000000000000000000000000000000000060e086901b168152600481019390935260ff9091166024830152516044808301926080929190829003018186803b1580156142ef57600080fd5b505afa158015614303573d6000803e3d6000fd5b505050506040513d608081101561431957600080fd5b50805160409182015160655483517f017fe809000000000000000000000000000000000000000000000000000000008152600481018a905293519295509093506122f1926143c6926001600160a01b039092169163017fe80991602480820192602092909190829003018186803b15801561439357600080fd5b505afa1580156143a7573d6000803e3d6000fd5b505050506040513d60208110156143bd57600080fd5b50518484612288565b606554604080517f54ec7fc0000000000000000000000000000000000000000000000000000000008152600481018a905290516001600160a01b03909216916354ec7fc091602480820192602092909190829003018186803b15801561442b57600080fd5b505afa15801561443f573d6000803e3d6000fd5b505050506040513d602081101561445557600080fd5b505161445f612f95565b614c9b565b604080516923a0a6a2afa0a226a4a760b11b8152905190819003600a01902061448d9033612702565b6144cc576040805162461bcd60e51b81526020600482015260176024820152600080516020615891833981519152604482015290519081900360640190fd5b6144d781606461464f565b606d60106101000a8154816001600160801b030219169083600f0b6001600160801b0316021790555050565b6068546001600160a01b031681565b6001600160a01b038216600090815260756020908152604080832054607290925282205482918291614545919086611763565b925092509250614560836076546147a390919063ffffffff16565b6076556001600160a01b03851660009081526075602052604090205461458c908463ffffffff6147a316565b6001600160a01b0386166000908152607560209081526040808320939093556072905220546145c1908363ffffffff6147a316565b6001600160a01b0380871660008181526072602090815260408083209590955560675485516323b872dd60e01b8152600481019490945230602485015260448401879052945194909316936323b872dd936064808501949193918390030190829087803b1580156138a057600080fd5b6000677fffffffffffffff82111561464857600080fd5b5060401b90565b60008161465b57600080fd5b600061466784846150b3565b90506f7fffffffffffffffffffffffffffffff6001600160801b03821611156126fb57600080fd5b6001600160a01b0381166000908152607860205260408120544210156146b157fe5b6001600160a01b0382166000908152607860205260408120546146dd906213c68063ffffffff614d3516565b905060006146f1824263ffffffff61520e16565b9150506213c68081111561470157fe5b6000614710826213c68061464f565b90506122f16726666666666666668263ffffffff61523416565b60008161473957506000612628565b600083600f0b121561474a57600080fd5b600f83900b6001600160801b038316810260401c90608084901c0277ffffffffffffffffffffffffffffffffffffffffffffffff81111561478a57600080fd5b60401b811981111561479b57600080fd5b019392505050565b6000828211156147fa576040805162461bcd60e51b815260206004820152601e60248201527f536166654d6174683a207375627472616374696f6e206f766572666c6f770000604482015290519081900360640190fd5b50900390565b6067546040805163a9059cbb60e01b81526001600160a01b038581166004830152602482018590529151919092169163a9059cbb9160448083019260209291908290030181600087803b15801561485657600080fd5b505af115801561486a573d6000803e3d6000fd5b505050506040513d602081101561488057600080fd5b50505050565b6065546040805163095ea7b360e01b81526001600160a01b038481166004830152602482018690529151919092169163095ea7b391604480830192600092919082900301818387803b1580156148db57600080fd5b505af1158015611566573d6000803e3d6000fd5b610f28826148fc83612598565b614512565b6066546040805163095ea7b360e01b81526001600160a01b038481166004830152602482018690529151919092169163095ea7b391604480830192600092919082900301818387803b1580156148db57600080fd5b60006149613061527c565b15905090565b600054610100900460ff16806149805750614980614956565b8061498e575060005460ff16155b6149c95760405162461bcd60e51b815260040180806020018281038252602e815260200180615932602e913960400191505060405180910390fd5b600054610100900460ff161580156149f4576000805460ff1961ff0019909116610100171660011790555b6149fc615282565b614a04615282565b80156131c1576000805461ff001916905550565b607654614a2b908263ffffffff614d3516565b6076556001600160a01b038216600090815260756020526040902054614a57908263ffffffff614d3516565b6001600160a01b038316600081815260756020908152604091829020939093558051848152905191927f3443ca0a6a2d7fbb0e0c0612adb07cdcbde092e281a3dddc6ed66c14c00429cd92918290030190a25050565b3390565b6000828152603360205260409020614acf908263ffffffff61532216565b15610f2857614adc614aad565b6001600160a01b0316816001600160a01b0316837f2f8788117e7eff1d82e926ec794901d17c78024a50270940304540a733656f0d60405160405180910390a45050565b6000828152603360205260409020614b3e908263ffffffff61533716565b15610f2857614b4b614aad565b6001600160a01b0316816001600160a01b0316837ff6391f5c32d9c69d2a47ea670b442974b53935d1edc7fd64eb21e047a839171b60405160405180910390a45050565b606081614bd0575060408051808201909152600181527f300000000000000000000000000000000000000000000000000000000000000060208201526117bd565b8160005b8115614be857600101600a82049150614bd4565b60608167ffffffffffffffff81118015614c0157600080fd5b506040519080825280601f01601f191660200182016040528015614c2c576020820181803683370190505b50905060001982015b8515614c9257600a860660300160f81b82828060019003935081518110614c5857fe5b60200101907effffffffffffffffffffffffffffffffffffffffffffffffffffffffffffff1916908160001a905350600a86049550614c35565b50949350505050565b614ca3615872565b6000614cc7614cbc8567ffffffffffffffff1685615087565b8662ffffff16615087565b9050614cd1615872565b60005b6004811015614d2b576000614ce98483615087565b90506303000000601882901b16614d0562ffffff8a168361534c565b17838360048110614d1257fe5b63ffffffff909216602092909202015250600101614cd4565b5095945050505050565b6000828201838110156126fb576040805162461bcd60e51b815260206004820152601b60248201527f536166654d6174683a206164646974696f6e206f766572666c6f770000000000604482015290519081900360640190fd5b60006126fb8383615391565b60006126fb836001600160a01b0384166153f5565b6000600f83810b9083900b016f7fffffffffffffffffffffffffffffff198112801590614ded57506f7fffffffffffffffffffffffffffffff8113155b6126fb57600080fd5b6000600f82810b9084900b036f7fffffffffffffffffffffffffffffff198112801590614ded57506f7fffffffffffffffffffffffffffffff8113156126fb57600080fd5b61175c85858585614e4a612f95565b866121a9565b60695460408051630e20f61560e21b815233600482015290516000926001600160a01b031691633883d854916024808301926020929190829003018186803b158015614e9b57600080fd5b505afa158015614eaf573d6000803e3d6000fd5b505050506040513d6020811015614ec557600080fd5b505190506000614ed685858461540d565b90506000614eee84614ee9856001615087565b61542e565b90506000614efc878661543f565b90506000614f11614f0c8761545b565b612598565b90508262ffffff168462ffffff161015614f2c575060009050805b33600090815260726020526040902054158015614f495750600081115b15614f5757614f57336154af565b3360008181526072602090815260408083208054860190558d83526073825291829020805461ffff871690810190915582518d815262ffffff8b811663ff00000060088f901b161763ffffffff1693820193909352888316818501529187166060830152608082015260a0810184905290518c92917f7a58aac6530017822bf3210fccef7efa31f56277f19966bc887bfb11f40ca96d919081900360c00190a350505050505050505050565b610f288261501083612598565b614800565b600080821161506b576040805162461bcd60e51b815260206004820152601a60248201527f536166654d6174683a206469766973696f6e206279207a65726f000000000000604482015290519081900360640190fd5b81838161507457fe5b049392505050565b6000612628826154cb565b604080516020808201949094528082019290925280518083038201815260609092019052805191012090565b6000816150bf57600080fd5b600077ffffffffffffffffffffffffffffffffffffffffffffffff84116150f55782604085901b816150ed57fe5b0490506151fa565b60c084811c640100000000811061510e576020918201911c5b620100008110615120576010918201911c5b6101008110615131576008918201911c5b60108110615141576004918201911c5b60048110615151576002918201911c5b60028110615160576001820191505b60bf820360018603901c6001018260ff0387901b8161517b57fe5b0492506001600160801b0383111561519257600080fd5b608085901c83026001600160801b038616840260c088901c604089901b828110156151be576001820391505b608084901b929003828110156151d5576001820391505b829003608084901c82146151e557fe5b8881816151ee57fe5b04870196505050505050505b6001600160801b038111156126fb57600080fd5b600080838311156152245750600090508061522d565b50600190508183035b9250929050565b6000600f83810b9083900b0260401d6f7fffffffffffffffffffffffffffffff198112801590614ded57506f7fffffffffffffffffffffffffffffff8113156126fb57600080fd5b3b151590565b600054610100900460ff168061529b575061529b614956565b806152a9575060005460ff16155b6152e45760405162461bcd60e51b815260040180806020018281038252602e815260200180615932602e913960400191505060405180910390fd5b600054610100900460ff16158015614a04576000805460ff1961ff00199091166101001716600117905580156131c1576000805461ff001916905550565b60006126fb836001600160a01b0384166154cf565b60006126fb836001600160a01b038416615519565b60008061536084600a63ffffffff61501516565b90506122ba615381600061537b84600263ffffffff6155df16565b86615638565b6122ae868463ffffffff6147a316565b815460009082106153d35760405162461bcd60e51b81526004018080602001828103825260228152602001806158b16022913960400191505060405180910390fd5b8260000182815481106153e257fe5b9060005260206000200154905092915050565b60009081526001919091016020526040902054151590565b60008061541f8562ffffff168461534c565b90506122f18161115f86612753565b60006126fb8362ffffff168361534c565b60006126fb60715461115f8462ffffff168662ffffff1661464f565b600061262861549961547c6154778562ffffff166103e861464f565b6156a2565b606c54600160801b9004600f90810b900b9063ffffffff61523416565b606d54600f90810b900b9063ffffffff614db016565b6001600160a01b03166000908152607860205260409020429055565b5490565b60006154db83836153f5565b61551157508154600181810184556000848152602080822090930184905584548482528286019093526040902091909155612628565b506000612628565b600081815260018301602052604081205480156155d5578354600019808301919081019060009087908390811061554c57fe5b906000526020600020015490508087600001848154811061556957fe5b60009182526020808320909101929092558281526001898101909252604090209084019055865487908061559957fe5b60019003818190600052602060002001600090559055866001016000878152602001908152602001600020600090556001945050505050612628565b6000915050612628565b6000826155ee57506000612628565b828202828482816155fb57fe5b04146126fb5760405162461bcd60e51b81526004018080602001828103825260218152602001806159606021913960400191505060405180910390fd5b60008061565060016122ae868863ffffffff6147a316565b6040805160208082018790528251808303820181529183019092528051910120909150600090615686908363ffffffff6156c416565b9050615698818763ffffffff614d3516565b9695505050505050565b60008082600f0b12156156b457600080fd5b612628604083600f0b901b61572b565b600080821161571a576040805162461bcd60e51b815260206004820152601860248201527f536166654d6174683a206d6f64756c6f206279207a65726f0000000000000000604482015290519081900360640190fd5b81838161572357fe5b069392505050565b60008161573a575060006117bd565b816001600160801b82106157535760809190911c9060401b5b68010000000000000000821061576e5760409190911c9060201b5b64010000000082106157855760209190911c9060101b5b62010000821061579a5760109190911c9060081b5b61010082106157ae5760089190911c9060041b5b601082106157c15760049190911c9060021b5b600882106157cd5760011b5b60018185816157d857fe5b048201901c905060018185816157ea57fe5b048201901c905060018185816157fc57fe5b048201901c9050600181858161580e57fe5b048201901c9050600181858161582057fe5b048201901c9050600181858161583257fe5b048201901c9050600181858161584457fe5b048201901c9050600081858161585657fe5b0490508082106158665780615868565b815b93505050506117bd565b6040518060800160405280600490602082028036833750919291505056fe4d697373696e672047414d455f41444d494e20726f6c65000000000000000000456e756d657261626c655365743a20696e646578206f7574206f6620626f756e6473416363657373436f6e74726f6c3a2073656e646572206d75737420626520616e2061646d696e20746f206772616e74416363657373436f6e74726f6c3a2073656e646572206d75737420626520616e2061646d696e20746f207265766f6b65496e697469616c697a61626c653a20636f6e747261637420697320616c726561647920696e697469616c697a6564536166654d6174683a206d756c7469706c69636174696f6e206f766572666c6f77416363657373436f6e74726f6c3a2063616e206f6e6c792072656e6f756e636520726f6c657320666f722073656c66a26469706673582212209f3eb037175337db0c74186b166268be324ab504338b65c219cd1f2e8554a36664736f6c63430006050033",
			"opcodes": "PUSH1 0x80 PUSH1 0x40 MSTORE CALLVALUE DUP1 ISZERO PUSH2 0x10 JUMPI PUSH1 0x0 DUP1 REVERT JUMPDEST POP PUSH2 0x59E5 DUP1 PUSH3 0x21 PUSH1 0x0 CODECOPY PUSH1 0x0 RETURN INVALID PUSH1 0x80 PUSH1 0x40 MSTORE CALLVALUE DUP1 ISZERO PUSH2 0x10 JUMPI PUSH1 0x0 DUP1 REVERT JUMPDEST POP PUSH1 0x4 CALLDATASIZE LT PUSH2 0x565 JUMPI PUSH1 0x0 CALLDATALOAD PUSH1 0xE0 SHR DUP1 PUSH4 0x91D14854 GT PUSH2 0x2D7 JUMPI DUP1 PUSH4 0xC6E195ED GT PUSH2 0x186 JUMPI DUP1 PUSH4 0xE4A0F566 GT PUSH2 0xE3 JUMPI DUP1 PUSH4 0xF3598328 GT PUSH2 0x97 JUMPI DUP1 PUSH4 0xFB198C4A GT PUSH2 0x7C JUMPI DUP1 PUSH4 0xFB198C4A EQ PUSH2 0xE36 JUMPI DUP1 PUSH4 0xFD20747E EQ PUSH2 0xE91 JUMPI DUP1 PUSH4 0xFF8956F7 EQ PUSH2 0xEAE JUMPI PUSH2 0x565 JUMP JUMPDEST DUP1 PUSH4 0xF3598328 EQ PUSH2 0xE02 JUMPI DUP1 PUSH4 0xFAF039F4 EQ PUSH2 0xE2E JUMPI PUSH2 0x565 JUMP JUMPDEST DUP1 PUSH4 0xE6C6B7F0 GT PUSH2 0xC8 JUMPI DUP1 PUSH4 0xE6C6B7F0 EQ PUSH2 0xDB1 JUMPI DUP1 PUSH4 0xEBCA521F EQ PUSH2 0xDB9 JUMPI DUP1 PUSH4 0xEEA74EC7 EQ PUSH2 0xDE5 JUMPI PUSH2 0x565 JUMP JUMPDEST DUP1 PUSH4 0xE4A0F566 EQ PUSH2 0xD6E JUMPI DUP1 PUSH4 0xE6A9076A EQ PUSH2 0xD94 JUMPI PUSH2 0x565 JUMP JUMPDEST DUP1 PUSH4 0xD547741F GT PUSH2 0x13A JUMPI DUP1 PUSH4 0xDC88432B GT PUSH2 0x11F JUMPI DUP1 PUSH4 0xDC88432B EQ PUSH2 0xD23 JUMPI DUP1 PUSH4 0xE36ED971 EQ PUSH2 0xD49 JUMPI DUP1 PUSH4 0xE3A6615A EQ PUSH2 0xD66 JUMPI PUSH2 0x565 JUMP JUMPDEST DUP1 PUSH4 0xD547741F EQ PUSH2 0xCEF JUMPI DUP1 PUSH4 0xDBF802D9 EQ PUSH2 0xD1B JUMPI PUSH2 0x565 JUMP JUMPDEST DUP1 PUSH4 0xD070BB54 GT PUSH2 0x16B JUMPI DUP1 PUSH4 0xD070BB54 EQ PUSH2 0xC9C JUMPI DUP1 PUSH4 0xD0EAC9C1 EQ PUSH2 0xCA4 JUMPI DUP1 PUSH4 0xD2C76C05 EQ PUSH2 0xCC7 JUMPI PUSH2 0x565 JUMP JUMPDEST DUP1 PUSH4 0xC6E195ED EQ PUSH2 0xC77 JUMPI DUP1 PUSH4 0xCA15C873 EQ PUSH2 0xC7F JUMPI PUSH2 0x565 JUMP JUMPDEST DUP1 PUSH4 0xAA663777 GT PUSH2 0x234 JUMPI DUP1 PUSH4 0xBB3CCD70 GT PUSH2 0x1E8 JUMPI DUP1 PUSH4 0xBCC0957D GT PUSH2 0x1CD JUMPI DUP1 PUSH4 0xBCC0957D EQ PUSH2 0xC5F JUMPI DUP1 PUSH4 0xBE2CF138 EQ PUSH2 0xC67 JUMPI DUP1 PUSH4 0xBEE666D8 EQ PUSH2 0xC6F JUMPI PUSH2 0x565 JUMP JUMPDEST DUP1 PUSH4 0xBB3CCD70 EQ PUSH2 0xC4F JUMPI DUP1 PUSH4 0xBC67E887 EQ PUSH2 0xC57 JUMPI PUSH2 0x565 JUMP JUMPDEST DUP1 PUSH4 0xB179EDF4 GT PUSH2 0x219 JUMPI DUP1 PUSH4 0xB179EDF4 EQ PUSH2 0xC10 JUMPI DUP1 PUSH4 0xB63589A1 EQ PUSH2 0xC3F JUMPI DUP1 PUSH4 0xB7E1CD86 EQ PUSH2 0xC47 JUMPI PUSH2 0x565 JUMP JUMPDEST DUP1 PUSH4 0xAA663777 EQ PUSH2 0xC00 JUMPI DUP1 PUSH4 0xAB37E934 EQ PUSH2 0xC08 JUMPI PUSH2 0x565 JUMP JUMPDEST DUP1 PUSH4 0x9B972092 GT PUSH2 0x28B JUMPI DUP1 PUSH4 0x9F8C964C GT PUSH2 0x270 JUMPI DUP1 PUSH4 0x9F8C964C EQ PUSH2 0xBCA JUMPI DUP1 PUSH4 0xA217FDDF EQ PUSH2 0xBD2 JUMPI DUP1 PUSH4 0xA93BDE2F EQ PUSH2 0xBDA JUMPI PUSH2 0x565 JUMP JUMPDEST DUP1 PUSH4 0x9B972092 EQ PUSH2 0xB40 JUMPI DUP1 PUSH4 0x9F6B232E EQ PUSH2 0xB6F JUMPI PUSH2 0x565 JUMP JUMPDEST DUP1 PUSH4 0x988B2935 GT PUSH2 0x2BC JUMPI DUP1 PUSH4 0x988B2935 EQ PUSH2 0xAF0 JUMPI DUP1 PUSH4 0x98C81EDC EQ PUSH2 0xB16 JUMPI DUP1 PUSH4 0x9B917481 EQ PUSH2 0xB1E JUMPI PUSH2 0x565 JUMP JUMPDEST DUP1 PUSH4 0x91D14854 EQ PUSH2 0xA93 JUMPI DUP1 PUSH4 0x945DBFCF EQ PUSH2 0xAD3 JUMPI PUSH2 0x565 JUMP JUMPDEST DUP1 PUSH4 0x36568ABE GT PUSH2 0x433 JUMPI DUP1 PUSH4 0x5752FF51 GT PUSH2 0x390 JUMPI DUP1 PUSH4 0x7998B3FD GT PUSH2 0x344 JUMPI DUP1 PUSH4 0x7D3EB7D3 GT PUSH2 0x329 JUMPI DUP1 PUSH4 0x7D3EB7D3 EQ PUSH2 0xA4B JUMPI DUP1 PUSH4 0x8C30DB79 EQ PUSH2 0xA53 JUMPI DUP1 PUSH4 0x9010D07C EQ PUSH2 0xA70 JUMPI PUSH2 0x565 JUMP JUMPDEST DUP1 PUSH4 0x7998B3FD EQ PUSH2 0xA05 JUMPI DUP1 PUSH4 0x79BD826D EQ PUSH2 0xA2B JUMPI PUSH2 0x565 JUMP JUMPDEST DUP1 PUSH4 0x613F1352 GT PUSH2 0x375 JUMPI DUP1 PUSH4 0x613F1352 EQ PUSH2 0x9B1 JUMPI DUP1 PUSH4 0x6C6302B3 EQ PUSH2 0x9B9 JUMPI DUP1 PUSH4 0x6F907206 EQ PUSH2 0x9D9 JUMPI PUSH2 0x565 JUMP JUMPDEST DUP1 PUSH4 0x5752FF51 EQ PUSH2 0x965 JUMPI DUP1 PUSH4 0x599389B5 EQ PUSH2 0x991 JUMPI PUSH2 0x565 JUMP JUMPDEST DUP1 PUSH4 0x4BFE0FA7 GT PUSH2 0x3E7 JUMPI DUP1 PUSH4 0x534F6600 GT PUSH2 0x3CC JUMPI DUP1 PUSH4 0x534F6600 EQ PUSH2 0x8BA JUMPI DUP1 PUSH4 0x5504D3D2 EQ PUSH2 0x910 JUMPI DUP1 PUSH4 0x563002AA EQ PUSH2 0x918 JUMPI PUSH2 0x565 JUMP JUMPDEST DUP1 PUSH4 0x4BFE0FA7 EQ PUSH2 0x88F JUMPI DUP1 PUSH4 0x51E717AC EQ PUSH2 0x8B2 JUMPI PUSH2 0x565 JUMP JUMPDEST DUP1 PUSH4 0x3F18CD5B GT PUSH2 0x418 JUMPI DUP1 PUSH4 0x3F18CD5B EQ PUSH2 0x862 JUMPI DUP1 PUSH4 0x44678BE1 EQ PUSH2 0x86A JUMPI DUP1 PUSH4 0x499EEEEB EQ PUSH2 0x887 JUMPI PUSH2 0x565 JUMP JUMPDEST DUP1 PUSH4 0x36568ABE EQ PUSH2 0x82E JUMPI DUP1 PUSH4 0x3C4739D3 EQ PUSH2 0x85A JUMPI PUSH2 0x565 JUMP JUMPDEST DUP1 PUSH4 0x1426CEAD GT PUSH2 0x4E1 JUMPI DUP1 PUSH4 0x248A9CA3 GT PUSH2 0x495 JUMPI DUP1 PUSH4 0x328DA351 GT PUSH2 0x47A JUMPI DUP1 PUSH4 0x328DA351 EQ PUSH2 0x7A8 JUMPI DUP1 PUSH4 0x336DFB46 EQ PUSH2 0x7B0 JUMPI DUP1 PUSH4 0x35C31AA1 EQ PUSH2 0x808 JUMPI PUSH2 0x565 JUMP JUMPDEST DUP1 PUSH4 0x248A9CA3 EQ PUSH2 0x74D JUMPI DUP1 PUSH4 0x2F2FF15D EQ PUSH2 0x77C JUMPI PUSH2 0x565 JUMP JUMPDEST DUP1 PUSH4 0x1A70FE02 GT PUSH2 0x4C6 JUMPI DUP1 PUSH4 0x1A70FE02 EQ PUSH2 0x6F6 JUMPI DUP1 PUSH4 0x1D765C88 EQ PUSH2 0x6FE JUMPI DUP1 PUSH4 0x1D7D7647 EQ PUSH2 0x706 JUMPI PUSH2 0x565 JUMP JUMPDEST DUP1 PUSH4 0x1426CEAD EQ PUSH2 0x682 JUMPI DUP1 PUSH4 0x1459457A EQ PUSH2 0x6AE JUMPI PUSH2 0x565 JUMP JUMPDEST DUP1 PUSH4 0xE032061 GT PUSH2 0x538 JUMPI DUP1 PUSH4 0xF92E39E GT PUSH2 0x51D JUMPI DUP1 PUSH4 0xF92E39E EQ PUSH2 0x603 JUMPI DUP1 PUSH4 0x1208FA55 EQ PUSH2 0x62F JUMPI DUP1 PUSH4 0x13D721EF EQ PUSH2 0x653 JUMPI PUSH2 0x565 JUMP JUMPDEST DUP1 PUSH4 0xE032061 EQ PUSH2 0x5DE JUMPI DUP1 PUSH4 0xEC32977 EQ PUSH2 0x5FB JUMPI PUSH2 0x565 JUMP JUMPDEST DUP1 PUSH4 0x1C5F7ED EQ PUSH2 0x56A JUMPI DUP1 PUSH4 0x6418778 EQ PUSH2 0x598 JUMPI DUP1 PUSH4 0x6DEB3E1 EQ PUSH2 0x5A0 JUMPI DUP1 PUSH4 0xDFF3A10 EQ PUSH2 0x5BD JUMPI JUMPDEST PUSH1 0x0 DUP1 REVERT JUMPDEST PUSH2 0x596 PUSH1 0x4 DUP1 CALLDATASIZE SUB PUSH1 0x40 DUP2 LT ISZERO PUSH2 0x580 JUMPI PUSH1 0x0 DUP1 REVERT JUMPDEST POP PUSH1 0x1 PUSH1 0x1 PUSH1 0xA0 SHL SUB DUP2 CALLDATALOAD AND SWAP1 PUSH1 0x20 ADD CALLDATALOAD PUSH2 0xEB6 JUMP JUMPDEST STOP JUMPDEST PUSH2 0x596 PUSH2 0xF2C JUMP JUMPDEST PUSH2 0x596 PUSH1 0x4 DUP1 CALLDATASIZE SUB PUSH1 0x20 DUP2 LT ISZERO PUSH2 0x5B6 JUMPI PUSH1 0x0 DUP1 REVERT JUMPDEST POP CALLDATALOAD PUSH2 0xFE4 JUMP JUMPDEST PUSH2 0x5C5 PUSH2 0x1084 JUMP JUMPDEST PUSH1 0x40 DUP1 MLOAD PUSH1 0xF SWAP3 DUP4 SIGNEXTEND SWAP1 SWAP3 SIGNEXTEND DUP3 MSTORE MLOAD SWAP1 DUP2 SWAP1 SUB PUSH1 0x20 ADD SWAP1 RETURN JUMPDEST PUSH2 0x596 PUSH1 0x4 DUP1 CALLDATASIZE SUB PUSH1 0x20 DUP2 LT ISZERO PUSH2 0x5F4 JUMPI PUSH1 0x0 DUP1 REVERT JUMPDEST POP CALLDATALOAD PUSH2 0x1092 JUMP JUMPDEST PUSH2 0x596 PUSH2 0x1136 JUMP JUMPDEST PUSH2 0x596 PUSH1 0x4 DUP1 CALLDATASIZE SUB PUSH1 0x40 DUP2 LT ISZERO PUSH2 0x619 JUMPI PUSH1 0x0 DUP1 REVERT JUMPDEST POP DUP1 CALLDATALOAD SWAP1 PUSH1 0x20 ADD CALLDATALOAD PUSH1 0x1 PUSH1 0x1 PUSH1 0xA0 SHL SUB AND PUSH2 0x1187 JUMP JUMPDEST PUSH2 0x637 PUSH2 0x11F9 JUMP JUMPDEST PUSH1 0x40 DUP1 MLOAD PUSH1 0x1 PUSH1 0x1 PUSH1 0xA0 SHL SUB SWAP1 SWAP3 AND DUP3 MSTORE MLOAD SWAP1 DUP2 SWAP1 SUB PUSH1 0x20 ADD SWAP1 RETURN JUMPDEST PUSH2 0x596 PUSH1 0x4 DUP1 CALLDATASIZE SUB PUSH1 0x40 DUP2 LT ISZERO PUSH2 0x669 JUMPI PUSH1 0x0 DUP1 REVERT JUMPDEST POP PUSH1 0x1 PUSH1 0x1 PUSH1 0xA0 SHL SUB DUP2 CALLDATALOAD AND SWAP1 PUSH1 0x20 ADD CALLDATALOAD PUSH1 0xF SIGNEXTEND PUSH2 0x120D JUMP JUMPDEST PUSH2 0x596 PUSH1 0x4 DUP1 CALLDATASIZE SUB PUSH1 0x40 DUP2 LT ISZERO PUSH2 0x698 JUMPI PUSH1 0x0 DUP1 REVERT JUMPDEST POP DUP1 CALLDATALOAD SWAP1 PUSH1 0x20 ADD CALLDATALOAD PUSH1 0x1 PUSH1 0x1 PUSH1 0xA0 SHL SUB AND PUSH2 0x127F JUMP JUMPDEST PUSH2 0x596 PUSH1 0x4 DUP1 CALLDATASIZE SUB PUSH1 0xA0 DUP2 LT ISZERO PUSH2 0x6C4 JUMPI PUSH1 0x0 DUP1 REVERT JUMPDEST POP PUSH1 0x1 PUSH1 0x1 PUSH1 0xA0 SHL SUB DUP2 CALLDATALOAD DUP2 AND SWAP2 PUSH1 0x20 DUP2 ADD CALLDATALOAD DUP3 AND SWAP2 PUSH1 0x40 DUP3 ADD CALLDATALOAD DUP2 AND SWAP2 PUSH1 0x60 DUP2 ADD CALLDATALOAD DUP3 AND SWAP2 PUSH1 0x80 SWAP1 SWAP2 ADD CALLDATALOAD AND PUSH2 0x12F1 JUMP JUMPDEST PUSH2 0x596 PUSH2 0x156E JUMP JUMPDEST PUSH2 0x596 PUSH2 0x162C JUMP JUMPDEST PUSH2 0x72F PUSH1 0x4 DUP1 CALLDATASIZE SUB PUSH1 0x60 DUP2 LT ISZERO PUSH2 0x71C JUMPI PUSH1 0x0 DUP1 REVERT JUMPDEST POP DUP1 CALLDATALOAD SWAP1 PUSH1 0x20 DUP2 ADD CALLDATALOAD SWAP1 PUSH1 0x40 ADD CALLDATALOAD PUSH2 0x1763 JUMP JUMPDEST PUSH1 0x40 DUP1 MLOAD SWAP4 DUP5 MSTORE PUSH1 0x20 DUP5 ADD SWAP3 SWAP1 SWAP3 MSTORE DUP3 DUP3 ADD MSTORE MLOAD SWAP1 DUP2 SWAP1 SUB PUSH1 0x60 ADD SWAP1 RETURN JUMPDEST PUSH2 0x76A PUSH1 0x4 DUP1 CALLDATASIZE SUB PUSH1 0x20 DUP2 LT ISZERO PUSH2 0x763 JUMPI PUSH1 0x0 DUP1 REVERT JUMPDEST POP CALLDATALOAD PUSH2 0x17AA JUMP JUMPDEST PUSH1 0x40 DUP1 MLOAD SWAP2 DUP3 MSTORE MLOAD SWAP1 DUP2 SWAP1 SUB PUSH1 0x20 ADD SWAP1 RETURN JUMPDEST PUSH2 0x596 PUSH1 0x4 DUP1 CALLDATASIZE SUB PUSH1 0x40 DUP2 LT ISZERO PUSH2 0x792 JUMPI PUSH1 0x0 DUP1 REVERT JUMPDEST POP DUP1 CALLDATALOAD SWAP1 PUSH1 0x20 ADD CALLDATALOAD PUSH1 0x1 PUSH1 0x1 PUSH1 0xA0 SHL SUB AND PUSH2 0x17C2 JUMP JUMPDEST PUSH2 0x76A PUSH2 0x182A JUMP JUMPDEST PUSH2 0x7B8 PUSH2 0x183D JUMP JUMPDEST PUSH1 0x40 DUP1 MLOAD PUSH1 0x20 DUP1 DUP3 MSTORE DUP4 MLOAD DUP2 DUP4 ADD MSTORE DUP4 MLOAD SWAP2 SWAP3 DUP4 SWAP3 SWAP1 DUP4 ADD SWAP2 DUP6 DUP2 ADD SWAP2 MUL DUP1 DUP4 DUP4 PUSH1 0x0 JUMPDEST DUP4 DUP2 LT ISZERO PUSH2 0x7F4 JUMPI DUP2 DUP2 ADD MLOAD DUP4 DUP3 ADD MSTORE PUSH1 0x20 ADD PUSH2 0x7DC JUMP JUMPDEST POP POP POP POP SWAP1 POP ADD SWAP3 POP POP POP PUSH1 0x40 MLOAD DUP1 SWAP2 SUB SWAP1 RETURN JUMPDEST PUSH2 0x76A PUSH1 0x4 DUP1 CALLDATASIZE SUB PUSH1 0x20 DUP2 LT ISZERO PUSH2 0x81E JUMPI PUSH1 0x0 DUP1 REVERT JUMPDEST POP CALLDATALOAD PUSH1 0x1 PUSH1 0x1 PUSH1 0xA0 SHL SUB AND PUSH2 0x19AD JUMP JUMPDEST PUSH2 0x596 PUSH1 0x4 DUP1 CALLDATASIZE SUB PUSH1 0x40 DUP2 LT ISZERO PUSH2 0x844 JUMPI PUSH1 0x0 DUP1 REVERT JUMPDEST POP DUP1 CALLDATALOAD SWAP1 PUSH1 0x20 ADD CALLDATALOAD PUSH1 0x1 PUSH1 0x1 PUSH1 0xA0 SHL SUB AND PUSH2 0x1A55 JUMP JUMPDEST PUSH2 0x7B8 PUSH2 0x1AB6 JUMP JUMPDEST PUSH2 0x76A PUSH2 0x1C20 JUMP JUMPDEST PUSH2 0x596 PUSH1 0x4 DUP1 CALLDATASIZE SUB PUSH1 0x20 DUP2 LT ISZERO PUSH2 0x880 JUMPI PUSH1 0x0 DUP1 REVERT JUMPDEST POP CALLDATALOAD PUSH2 0x1C27 JUMP JUMPDEST PUSH2 0x5C5 PUSH2 0x1C94 JUMP JUMPDEST PUSH2 0x596 PUSH1 0x4 DUP1 CALLDATASIZE SUB PUSH1 0x40 DUP2 LT ISZERO PUSH2 0x8A5 JUMPI PUSH1 0x0 DUP1 REVERT JUMPDEST POP DUP1 CALLDATALOAD SWAP1 PUSH1 0x20 ADD CALLDATALOAD PUSH2 0x1CA4 JUMP JUMPDEST PUSH2 0x637 PUSH2 0x219A JUMP JUMPDEST PUSH2 0x596 PUSH1 0x4 DUP1 CALLDATASIZE SUB PUSH1 0xC0 DUP2 LT ISZERO PUSH2 0x8D0 JUMPI PUSH1 0x0 DUP1 REVERT JUMPDEST POP DUP1 CALLDATALOAD PUSH3 0xFFFFFF SWAP1 DUP2 AND SWAP2 PUSH1 0x20 DUP2 ADD CALLDATALOAD PUSH1 0xF SIGNEXTEND SWAP2 PUSH1 0x40 DUP3 ADD CALLDATALOAD AND SWAP1 PUSH1 0x60 DUP2 ADD CALLDATALOAD PUSH8 0xFFFFFFFFFFFFFFFF AND SWAP1 PUSH1 0x80 DUP2 ADD CALLDATALOAD SWAP1 PUSH1 0xA0 ADD CALLDATALOAD PUSH4 0xFFFFFFFF AND PUSH2 0x21A9 JUMP JUMPDEST PUSH2 0x76A PUSH2 0x2266 JUMP JUMPDEST PUSH2 0x94D PUSH1 0x4 DUP1 CALLDATASIZE SUB PUSH1 0x60 DUP2 LT ISZERO PUSH2 0x92E JUMPI PUSH1 0x0 DUP1 REVERT JUMPDEST POP PUSH3 0xFFFFFF DUP2 CALLDATALOAD DUP2 AND SWAP2 PUSH1 0x20 DUP2 ADD CALLDATALOAD PUSH1 0xF SIGNEXTEND SWAP2 PUSH1 0x40 SWAP1 SWAP2 ADD CALLDATALOAD AND PUSH2 0x2288 JUMP JUMPDEST PUSH1 0x40 DUP1 MLOAD PUSH3 0xFFFFFF SWAP1 SWAP3 AND DUP3 MSTORE MLOAD SWAP1 DUP2 SWAP1 SUB PUSH1 0x20 ADD SWAP1 RETURN JUMPDEST PUSH2 0x76A PUSH1 0x4 DUP1 CALLDATASIZE SUB PUSH1 0x40 DUP2 LT ISZERO PUSH2 0x97B JUMPI PUSH1 0x0 DUP1 REVERT JUMPDEST POP PUSH1 0x1 PUSH1 0x1 PUSH1 0xA0 SHL SUB DUP2 CALLDATALOAD AND SWAP1 PUSH1 0x20 ADD CALLDATALOAD PUSH2 0x22C2 JUMP JUMPDEST PUSH2 0x596 PUSH1 0x4 DUP1 CALLDATASIZE SUB PUSH1 0x20 DUP2 LT ISZERO PUSH2 0x9A7 JUMPI PUSH1 0x0 DUP1 REVERT JUMPDEST POP CALLDATALOAD PUSH1 0xFF AND PUSH2 0x22FA JUMP JUMPDEST PUSH2 0x76A PUSH2 0x2378 JUMP JUMPDEST PUSH2 0x596 PUSH1 0x4 DUP1 CALLDATASIZE SUB PUSH1 0x20 DUP2 LT ISZERO PUSH2 0x9CF JUMPI PUSH1 0x0 DUP1 REVERT JUMPDEST POP CALLDATALOAD PUSH1 0xFF AND PUSH2 0x237E JUMP JUMPDEST PUSH2 0x596 PUSH1 0x4 DUP1 CALLDATASIZE SUB PUSH1 0x40 DUP2 LT ISZERO PUSH2 0x9EF JUMPI PUSH1 0x0 DUP1 REVERT JUMPDEST POP PUSH1 0x1 PUSH1 0x1 PUSH1 0xA0 SHL SUB DUP2 CALLDATALOAD AND SWAP1 PUSH1 0x20 ADD CALLDATALOAD PUSH2 0x23FC JUMP JUMPDEST PUSH2 0x76A PUSH1 0x4 DUP1 CALLDATASIZE SUB PUSH1 0x20 DUP2 LT ISZERO PUSH2 0xA1B JUMPI PUSH1 0x0 DUP1 REVERT JUMPDEST POP CALLDATALOAD PUSH1 0x1 PUSH1 0x1 PUSH1 0xA0 SHL SUB AND PUSH2 0x257D JUMP JUMPDEST PUSH2 0x76A PUSH1 0x4 DUP1 CALLDATASIZE SUB PUSH1 0x20 DUP2 LT ISZERO PUSH2 0xA41 JUMPI PUSH1 0x0 DUP1 REVERT JUMPDEST POP CALLDATALOAD PUSH1 0xF SIGNEXTEND PUSH2 0x2598 JUMP JUMPDEST PUSH2 0x5C5 PUSH2 0x262E JUMP JUMPDEST PUSH2 0x596 PUSH1 0x4 DUP1 CALLDATASIZE SUB PUSH1 0x20 DUP2 LT ISZERO PUSH2 0xA69 JUMPI PUSH1 0x0 DUP1 REVERT JUMPDEST POP CALLDATALOAD PUSH2 0x263E JUMP JUMPDEST PUSH2 0x637 PUSH1 0x4 DUP1 CALLDATASIZE SUB PUSH1 0x40 DUP2 LT ISZERO PUSH2 0xA86 JUMPI PUSH1 0x0 DUP1 REVERT JUMPDEST POP DUP1 CALLDATALOAD SWAP1 PUSH1 0x20 ADD CALLDATALOAD PUSH2 0x26DD JUMP JUMPDEST PUSH2 0xABF PUSH1 0x4 DUP1 CALLDATASIZE SUB PUSH1 0x40 DUP2 LT ISZERO PUSH2 0xAA9 JUMPI PUSH1 0x0 DUP1 REVERT JUMPDEST POP DUP1 CALLDATALOAD SWAP1 PUSH1 0x20 ADD CALLDATALOAD PUSH1 0x1 PUSH1 0x1 PUSH1 0xA0 SHL SUB AND PUSH2 0x2702 JUMP JUMPDEST PUSH1 0x40 DUP1 MLOAD SWAP2 ISZERO ISZERO DUP3 MSTORE MLOAD SWAP1 DUP2 SWAP1 SUB PUSH1 0x20 ADD SWAP1 RETURN JUMPDEST PUSH2 0x76A PUSH1 0x4 DUP1 CALLDATASIZE SUB PUSH1 0x20 DUP2 LT ISZERO PUSH2 0xAE9 JUMPI PUSH1 0x0 DUP1 REVERT JUMPDEST POP CALLDATALOAD PUSH2 0x2720 JUMP JUMPDEST PUSH2 0x76A PUSH1 0x4 DUP1 CALLDATASIZE SUB PUSH1 0x20 DUP2 LT ISZERO PUSH2 0xB06 JUMPI PUSH1 0x0 DUP1 REVERT JUMPDEST POP CALLDATALOAD PUSH1 0x1 PUSH1 0x1 PUSH1 0xA0 SHL SUB AND PUSH2 0x2732 JUMP JUMPDEST PUSH2 0x637 PUSH2 0x2744 JUMP JUMPDEST PUSH2 0x5C5 PUSH1 0x4 DUP1 CALLDATASIZE SUB PUSH1 0x20 DUP2 LT ISZERO PUSH2 0xB34 JUMPI PUSH1 0x0 DUP1 REVERT JUMPDEST POP CALLDATALOAD PUSH3 0xFFFFFF AND PUSH2 0x2753 JUMP JUMPDEST PUSH2 0x596 PUSH1 0x4 DUP1 CALLDATASIZE SUB PUSH1 0x60 DUP2 LT ISZERO PUSH2 0xB56 JUMPI PUSH1 0x0 DUP1 REVERT JUMPDEST POP DUP1 CALLDATALOAD SWAP1 PUSH1 0x20 DUP2 ADD CALLDATALOAD SWAP1 PUSH1 0x40 ADD CALLDATALOAD PUSH4 0xFFFFFFFF AND PUSH2 0x2816 JUMP JUMPDEST PUSH2 0xB9A PUSH1 0x4 DUP1 CALLDATASIZE SUB PUSH1 0x20 DUP2 LT ISZERO PUSH2 0xB85 JUMPI PUSH1 0x0 DUP1 REVERT JUMPDEST POP CALLDATALOAD PUSH12 0xFFFFFFFFFFFFFFFFFFFFFFFF AND PUSH2 0x2E6F JUMP JUMPDEST PUSH1 0x40 DUP1 MLOAD PUSH1 0xFF SWAP1 SWAP5 AND DUP5 MSTORE PUSH3 0xFFFFFF SWAP1 SWAP3 AND PUSH1 0x20 DUP5 ADD MSTORE PUSH8 0xFFFFFFFFFFFFFFFF AND DUP3 DUP3 ADD MSTORE MLOAD SWAP1 DUP2 SWAP1 SUB PUSH1 0x60 ADD SWAP1 RETURN JUMPDEST PUSH2 0x5C5 PUSH2 0x2E8F JUMP JUMPDEST PUSH2 0x76A PUSH2 0x2E98 JUMP JUMPDEST PUSH2 0x596 PUSH1 0x4 DUP1 CALLDATASIZE SUB PUSH1 0x20 DUP2 LT ISZERO PUSH2 0xBF0 JUMPI PUSH1 0x0 DUP1 REVERT JUMPDEST POP CALLDATALOAD PUSH1 0x1 PUSH1 0x1 PUSH1 0xA0 SHL SUB AND PUSH2 0x2E9D JUMP JUMPDEST PUSH2 0x5C5 PUSH2 0x2F14 JUMP JUMPDEST PUSH2 0x76A PUSH2 0x2F1D JUMP JUMPDEST PUSH2 0x596 PUSH1 0x4 DUP1 CALLDATASIZE SUB PUSH1 0x40 DUP2 LT ISZERO PUSH2 0xC26 JUMPI PUSH1 0x0 DUP1 REVERT JUMPDEST POP PUSH1 0x1 PUSH1 0x1 PUSH1 0xA0 SHL SUB DUP2 CALLDATALOAD AND SWAP1 PUSH1 0x20 ADD CALLDATALOAD PUSH1 0xF SIGNEXTEND PUSH2 0x2F23 JUMP JUMPDEST PUSH2 0x76A PUSH2 0x2F95 JUMP JUMPDEST PUSH2 0x637 PUSH2 0x2FA9 JUMP JUMPDEST PUSH2 0x596 PUSH2 0x2FB8 JUMP JUMPDEST PUSH2 0x596 PUSH2 0x3007 JUMP JUMPDEST PUSH2 0x5C5 PUSH2 0x31C4 JUMP JUMPDEST PUSH2 0x5C5 PUSH2 0x31CD JUMP JUMPDEST PUSH2 0x637 PUSH2 0x31D6 JUMP JUMPDEST PUSH2 0x5C5 PUSH2 0x31E5 JUMP JUMPDEST PUSH2 0x76A PUSH1 0x4 DUP1 CALLDATASIZE SUB PUSH1 0x20 DUP2 LT ISZERO PUSH2 0xC95 JUMPI PUSH1 0x0 DUP1 REVERT JUMPDEST POP CALLDATALOAD PUSH2 0x31F5 JUMP JUMPDEST PUSH2 0x637 PUSH2 0x320C JUMP JUMPDEST PUSH2 0x94D PUSH1 0x4 DUP1 CALLDATASIZE SUB PUSH1 0x20 DUP2 LT ISZERO PUSH2 0xCBA JUMPI PUSH1 0x0 DUP1 REVERT JUMPDEST POP CALLDATALOAD PUSH4 0xFFFFFFFF AND PUSH2 0x321B JUMP JUMPDEST PUSH2 0xABF PUSH1 0x4 DUP1 CALLDATASIZE SUB PUSH1 0x40 DUP2 LT ISZERO PUSH2 0xCDD JUMPI PUSH1 0x0 DUP1 REVERT JUMPDEST POP PUSH1 0xFF DUP2 CALLDATALOAD DUP2 AND SWAP2 PUSH1 0x20 ADD CALLDATALOAD AND PUSH2 0x3223 JUMP JUMPDEST PUSH2 0x596 PUSH1 0x4 DUP1 CALLDATASIZE SUB PUSH1 0x40 DUP2 LT ISZERO PUSH2 0xD05 JUMPI PUSH1 0x0 DUP1 REVERT JUMPDEST POP DUP1 CALLDATALOAD SWAP1 PUSH1 0x20 ADD CALLDATALOAD PUSH1 0x1 PUSH1 0x1 PUSH1 0xA0 SHL SUB AND PUSH2 0x3246 JUMP JUMPDEST PUSH2 0x5C5 PUSH2 0x329F JUMP JUMPDEST PUSH2 0x596 PUSH1 0x4 DUP1 CALLDATASIZE SUB PUSH1 0x20 DUP2 LT ISZERO PUSH2 0xD39 JUMPI PUSH1 0x0 DUP1 REVERT JUMPDEST POP CALLDATALOAD PUSH1 0x1 PUSH1 0x1 PUSH1 0xA0 SHL SUB AND PUSH2 0x32AB JUMP JUMPDEST PUSH2 0x596 PUSH1 0x4 DUP1 CALLDATASIZE SUB PUSH1 0x20 DUP2 LT ISZERO PUSH2 0xD5F JUMPI PUSH1 0x0 DUP1 REVERT JUMPDEST POP CALLDATALOAD PUSH2 0x3332 JUMP JUMPDEST PUSH2 0x5C5 PUSH2 0x339F JUMP JUMPDEST PUSH2 0x596 PUSH1 0x4 DUP1 CALLDATASIZE SUB PUSH1 0x20 DUP2 LT ISZERO PUSH2 0xD84 JUMPI PUSH1 0x0 DUP1 REVERT JUMPDEST POP CALLDATALOAD PUSH1 0x1 PUSH1 0x1 PUSH1 0xA0 SHL SUB AND PUSH2 0x33AF JUMP JUMPDEST PUSH2 0x596 PUSH1 0x4 DUP1 CALLDATASIZE SUB PUSH1 0x20 DUP2 LT ISZERO PUSH2 0xDAA JUMPI PUSH1 0x0 DUP1 REVERT JUMPDEST POP CALLDATALOAD PUSH2 0x3426 JUMP JUMPDEST PUSH2 0x596 PUSH2 0x34CA JUMP JUMPDEST PUSH2 0x596 PUSH1 0x4 DUP1 CALLDATASIZE SUB PUSH1 0x40 DUP2 LT ISZERO PUSH2 0xDCF JUMPI PUSH1 0x0 DUP1 REVERT JUMPDEST POP PUSH1 0x1 PUSH1 0x1 PUSH1 0xA0 SHL SUB DUP2 CALLDATALOAD AND SWAP1 PUSH1 0x20 ADD CALLDATALOAD PUSH2 0x38D3 JUMP JUMPDEST PUSH2 0x596 PUSH1 0x4 DUP1 CALLDATASIZE SUB PUSH1 0x20 DUP2 LT ISZERO PUSH2 0xDFB JUMPI PUSH1 0x0 DUP1 REVERT JUMPDEST POP CALLDATALOAD PUSH2 0x3945 JUMP JUMPDEST PUSH2 0x596 PUSH1 0x4 DUP1 CALLDATASIZE SUB PUSH1 0x40 DUP2 LT ISZERO PUSH2 0xE18 JUMPI PUSH1 0x0 DUP1 REVERT JUMPDEST POP PUSH1 0x1 PUSH1 0x1 PUSH1 0xA0 SHL SUB DUP2 CALLDATALOAD AND SWAP1 PUSH1 0x20 ADD CALLDATALOAD PUSH2 0x3A10 JUMP JUMPDEST PUSH2 0x596 PUSH2 0x3A82 JUMP JUMPDEST PUSH2 0xE59 PUSH1 0x4 DUP1 CALLDATASIZE SUB PUSH1 0x40 DUP2 LT ISZERO PUSH2 0xE4C JUMPI PUSH1 0x0 DUP1 REVERT JUMPDEST POP DUP1 CALLDATALOAD SWAP1 PUSH1 0x20 ADD CALLDATALOAD PUSH2 0x41E3 JUMP JUMPDEST PUSH1 0x40 MLOAD DUP1 DUP3 PUSH1 0x80 DUP1 DUP4 DUP4 PUSH1 0x0 JUMPDEST DUP4 DUP2 LT ISZERO PUSH2 0xE7E JUMPI DUP2 DUP2 ADD MLOAD DUP4 DUP3 ADD MSTORE PUSH1 0x20 ADD PUSH2 0xE66 JUMP JUMPDEST POP POP POP POP SWAP1 POP ADD SWAP2 POP POP PUSH1 0x40 MLOAD DUP1 SWAP2 SUB SWAP1 RETURN JUMPDEST PUSH2 0x596 PUSH1 0x4 DUP1 CALLDATASIZE SUB PUSH1 0x20 DUP2 LT ISZERO PUSH2 0xEA7 JUMPI PUSH1 0x0 DUP1 REVERT JUMPDEST POP CALLDATALOAD PUSH2 0x4464 JUMP JUMPDEST PUSH2 0x637 PUSH2 0x4503 JUMP JUMPDEST PUSH1 0x40 DUP1 MLOAD PUSH10 0x23A0A6A2AFA0A226A4A7 PUSH1 0xB1 SHL DUP2 MSTORE SWAP1 MLOAD SWAP1 DUP2 SWAP1 SUB PUSH1 0xA ADD SWAP1 KECCAK256 PUSH2 0xEDF SWAP1 CALLER PUSH2 0x2702 JUMP JUMPDEST PUSH2 0xF1E JUMPI PUSH1 0x40 DUP1 MLOAD PUSH3 0x461BCD PUSH1 0xE5 SHL DUP2 MSTORE PUSH1 0x20 PUSH1 0x4 DUP3 ADD MSTORE PUSH1 0x17 PUSH1 0x24 DUP3 ADD MSTORE PUSH1 0x0 DUP1 MLOAD PUSH1 0x20 PUSH2 0x5891 DUP4 CODECOPY DUP2 MLOAD SWAP2 MSTORE PUSH1 0x44 DUP3 ADD MSTORE SWAP1 MLOAD SWAP1 DUP2 SWAP1 SUB PUSH1 0x64 ADD SWAP1 REVERT JUMPDEST PUSH2 0xF28 DUP3 DUP3 PUSH2 0x4512 JUMP JUMPDEST POP POP JUMP JUMPDEST PUSH2 0xF37 PUSH1 0x0 CALLER PUSH2 0x2702 JUMP JUMPDEST PUSH2 0xF74 JUMPI PUSH1 0x40 DUP1 MLOAD PUSH3 0x461BCD PUSH1 0xE5 SHL DUP2 MSTORE PUSH1 0x20 PUSH1 0x4 DUP3 ADD MSTORE PUSH1 0x9 PUSH1 0x24 DUP3 ADD MSTORE PUSH9 0x2737BA1030B236B4B7 PUSH1 0xB9 SHL PUSH1 0x44 DUP3 ADD MSTORE SWAP1 MLOAD SWAP1 DUP2 SWAP1 SUB PUSH1 0x64 ADD SWAP1 REVERT JUMPDEST PUSH2 0xF7E PUSH1 0x1 PUSH2 0x4631 JUMP JUMPDEST PUSH1 0x74 DUP1 SLOAD PUSH1 0xF SWAP3 SWAP1 SWAP3 SIGNEXTEND PUSH1 0x1 PUSH1 0x1 PUSH1 0x80 SHL SUB AND PUSH16 0xFFFFFFFFFFFFFFFFFFFFFFFFFFFFFFFF NOT SWAP1 SWAP3 AND SWAP2 SWAP1 SWAP2 OR SWAP1 SSTORE PUSH2 0xFB9 PUSH1 0x4B PUSH2 0x3E8 PUSH2 0x464F JUMP JUMPDEST PUSH1 0x74 PUSH1 0x10 PUSH2 0x100 EXP DUP2 SLOAD DUP2 PUSH1 0x1 PUSH1 0x1 PUSH1 0x80 SHL SUB MUL NOT AND SWAP1 DUP4 PUSH1 0xF SIGNEXTEND PUSH1 0x1 PUSH1 0x1 PUSH1 0x80 SHL SUB AND MUL OR SWAP1 SSTORE POP JUMP JUMPDEST PUSH1 0x40 DUP1 MLOAD PUSH10 0x23A0A6A2AFA0A226A4A7 PUSH1 0xB1 SHL DUP2 MSTORE SWAP1 MLOAD SWAP1 DUP2 SWAP1 SUB PUSH1 0xA ADD SWAP1 KECCAK256 PUSH2 0x100D SWAP1 CALLER PUSH2 0x2702 JUMP JUMPDEST PUSH2 0x104C JUMPI PUSH1 0x40 DUP1 MLOAD PUSH3 0x461BCD PUSH1 0xE5 SHL DUP2 MSTORE PUSH1 0x20 PUSH1 0x4 DUP3 ADD MSTORE PUSH1 0x17 PUSH1 0x24 DUP3 ADD MSTORE PUSH1 0x0 DUP1 MLOAD PUSH1 0x20 PUSH2 0x5891 DUP4 CODECOPY DUP2 MLOAD SWAP2 MSTORE PUSH1 0x44 DUP3 ADD MSTORE SWAP1 MLOAD SWAP1 DUP2 SWAP1 SUB PUSH1 0x64 ADD SWAP1 REVERT JUMPDEST PUSH2 0x1058 DUP2 PUSH2 0x3E8 PUSH2 0x464F JUMP JUMPDEST PUSH1 0x6C PUSH1 0x10 PUSH2 0x100 EXP DUP2 SLOAD DUP2 PUSH1 0x1 PUSH1 0x1 PUSH1 0x80 SHL SUB MUL NOT AND SWAP1 DUP4 PUSH1 0xF SIGNEXTEND PUSH1 0x1 PUSH1 0x1 PUSH1 0x80 SHL SUB AND MUL OR SWAP1 SSTORE POP POP JUMP JUMPDEST PUSH1 0x6B SLOAD PUSH2 0x100 SWAP1 DIV PUSH1 0xF SIGNEXTEND DUP2 JUMP JUMPDEST PUSH1 0x40 DUP1 MLOAD PUSH10 0x23A0A6A2AFA0A226A4A7 PUSH1 0xB1 SHL DUP2 MSTORE SWAP1 MLOAD SWAP1 DUP2 SWAP1 SUB PUSH1 0xA ADD SWAP1 KECCAK256 PUSH2 0x10BB SWAP1 CALLER PUSH2 0x2702 JUMP JUMPDEST PUSH2 0x10FA JUMPI PUSH1 0x40 DUP1 MLOAD PUSH3 0x461BCD PUSH1 0xE5 SHL DUP2 MSTORE PUSH1 0x20 PUSH1 0x4 DUP3 ADD MSTORE PUSH1 0x17 PUSH1 0x24 DUP3 ADD MSTORE PUSH1 0x0 DUP1 MLOAD PUSH1 0x20 PUSH2 0x5891 DUP4 CODECOPY DUP2 MLOAD SWAP2 MSTORE PUSH1 0x44 DUP3 ADD MSTORE SWAP1 MLOAD SWAP1 DUP2 SWAP1 SUB PUSH1 0x64 ADD SWAP1 REVERT JUMPDEST PUSH2 0x1105 DUP2 PUSH1 0x64 PUSH2 0x464F JUMP JUMPDEST PUSH1 0x6D DUP1 SLOAD PUSH1 0xF SWAP3 SWAP1 SWAP3 SIGNEXTEND PUSH1 0x1 PUSH1 0x1 PUSH1 0x80 SHL SUB AND PUSH16 0xFFFFFFFFFFFFFFFFFFFFFFFFFFFFFFFF NOT SWAP1 SWAP3 AND SWAP2 SWAP1 SWAP2 OR SWAP1 SSTORE POP JUMP JUMPDEST CALLER PUSH1 0x0 DUP2 DUP2 MSTORE PUSH1 0x72 PUSH1 0x20 MSTORE PUSH1 0x40 DUP2 KECCAK256 DUP1 SLOAD SWAP1 DUP3 SWAP1 SSTORE SWAP2 PUSH2 0x117B SWAP1 PUSH2 0x116E SWAP1 DUP5 SWAP1 PUSH2 0x115F SWAP1 PUSH2 0x468F JUMP JUMPDEST PUSH1 0xF SIGNEXTEND SWAP1 PUSH4 0xFFFFFFFF PUSH2 0x472A AND JUMP JUMPDEST DUP4 SWAP1 PUSH4 0xFFFFFFFF PUSH2 0x47A3 AND JUMP JUMPDEST SWAP1 POP PUSH2 0xF28 CALLER DUP3 PUSH2 0x4800 JUMP JUMPDEST PUSH1 0x40 DUP1 MLOAD PUSH10 0x23A0A6A2AFA0A226A4A7 PUSH1 0xB1 SHL DUP2 MSTORE SWAP1 MLOAD SWAP1 DUP2 SWAP1 SUB PUSH1 0xA ADD SWAP1 KECCAK256 PUSH2 0x11B0 SWAP1 CALLER PUSH2 0x2702 JUMP JUMPDEST PUSH2 0x11EF JUMPI PUSH1 0x40 DUP1 MLOAD PUSH3 0x461BCD PUSH1 0xE5 SHL DUP2 MSTORE PUSH1 0x20 PUSH1 0x4 DUP3 ADD MSTORE PUSH1 0x17 PUSH1 0x24 DUP3 ADD MSTORE PUSH1 0x0 DUP1 MLOAD PUSH1 0x20 PUSH2 0x5891 DUP4 CODECOPY DUP2 MLOAD SWAP2 MSTORE PUSH1 0x44 DUP3 ADD MSTORE SWAP1 MLOAD SWAP1 DUP2 SWAP1 SUB PUSH1 0x64 ADD SWAP1 REVERT JUMPDEST PUSH2 0xF28 DUP3 DUP3 PUSH2 0x4886 JUMP JUMPDEST PUSH1 0x79 SLOAD PUSH2 0x100 SWAP1 DIV PUSH1 0x1 PUSH1 0x1 PUSH1 0xA0 SHL SUB AND DUP2 JUMP JUMPDEST PUSH1 0x40 DUP1 MLOAD PUSH10 0x23A0A6A2AFA0A226A4A7 PUSH1 0xB1 SHL DUP2 MSTORE SWAP1 MLOAD SWAP1 DUP2 SWAP1 SUB PUSH1 0xA ADD SWAP1 KECCAK256 PUSH2 0x1236 SWAP1 CALLER PUSH2 0x2702 JUMP JUMPDEST PUSH2 0x1275 JUMPI PUSH1 0x40 DUP1 MLOAD PUSH3 0x461BCD PUSH1 0xE5 SHL DUP2 MSTORE PUSH1 0x20 PUSH1 0x4 DUP3 ADD MSTORE PUSH1 0x17 PUSH1 0x24 DUP3 ADD MSTORE PUSH1 0x0 DUP1 MLOAD PUSH1 0x20 PUSH2 0x5891 DUP4 CODECOPY DUP2 MLOAD SWAP2 MSTORE PUSH1 0x44 DUP3 ADD MSTORE SWAP1 MLOAD SWAP1 DUP2 SWAP1 SUB PUSH1 0x64 ADD SWAP1 REVERT JUMPDEST PUSH2 0xF28 DUP3 DUP3 PUSH2 0x48EF JUMP JUMPDEST PUSH1 0x40 DUP1 MLOAD PUSH10 0x23A0A6A2AFA0A226A4A7 PUSH1 0xB1 SHL DUP2 MSTORE SWAP1 MLOAD SWAP1 DUP2 SWAP1 SUB PUSH1 0xA ADD SWAP1 KECCAK256 PUSH2 0x12A8 SWAP1 CALLER PUSH2 0x2702 JUMP JUMPDEST PUSH2 0x12E7 JUMPI PUSH1 0x40 DUP1 MLOAD PUSH3 0x461BCD PUSH1 0xE5 SHL DUP2 MSTORE PUSH1 0x20 PUSH1 0x4 DUP3 ADD MSTORE PUSH1 0x17 PUSH1 0x24 DUP3 ADD MSTORE PUSH1 0x0 DUP1 MLOAD PUSH1 0x20 PUSH2 0x5891 DUP4 CODECOPY DUP2 MLOAD SWAP2 MSTORE PUSH1 0x44 DUP3 ADD MSTORE SWAP1 MLOAD SWAP1 DUP2 SWAP1 SUB PUSH1 0x64 ADD SWAP1 REVERT JUMPDEST PUSH2 0xF28 DUP3 DUP3 PUSH2 0x4901 JUMP JUMPDEST PUSH1 0x0 SLOAD PUSH2 0x100 SWAP1 DIV PUSH1 0xFF AND DUP1 PUSH2 0x130A JUMPI POP PUSH2 0x130A PUSH2 0x4956 JUMP JUMPDEST DUP1 PUSH2 0x1318 JUMPI POP PUSH1 0x0 SLOAD PUSH1 0xFF AND ISZERO JUMPDEST PUSH2 0x1353 JUMPI PUSH1 0x40 MLOAD PUSH3 0x461BCD PUSH1 0xE5 SHL DUP2 MSTORE PUSH1 0x4 ADD DUP1 DUP1 PUSH1 0x20 ADD DUP3 DUP2 SUB DUP3 MSTORE PUSH1 0x2E DUP2 MSTORE PUSH1 0x20 ADD DUP1 PUSH2 0x5932 PUSH1 0x2E SWAP2 CODECOPY PUSH1 0x40 ADD SWAP2 POP POP PUSH1 0x40 MLOAD DUP1 SWAP2 SUB SWAP1 REVERT JUMPDEST PUSH1 0x0 SLOAD PUSH2 0x100 SWAP1 DIV PUSH1 0xFF AND ISZERO DUP1 ISZERO PUSH2 0x137E JUMPI PUSH1 0x0 DUP1 SLOAD PUSH1 0xFF NOT PUSH2 0xFF00 NOT SWAP1 SWAP2 AND PUSH2 0x100 OR AND PUSH1 0x1 OR SWAP1 SSTORE JUMPDEST PUSH2 0x1386 PUSH2 0x4967 JUMP JUMPDEST PUSH2 0x1391 PUSH1 0x0 CALLER PUSH2 0x1820 JUMP JUMPDEST PUSH1 0x40 DUP1 MLOAD PUSH10 0x23A0A6A2AFA0A226A4A7 PUSH1 0xB1 SHL DUP2 MSTORE SWAP1 MLOAD SWAP1 DUP2 SWAP1 SUB PUSH1 0xA ADD SWAP1 KECCAK256 PUSH2 0x13BA SWAP1 CALLER PUSH2 0x1820 JUMP JUMPDEST PUSH1 0x67 DUP1 SLOAD PUSH20 0xFFFFFFFFFFFFFFFFFFFFFFFFFFFFFFFFFFFFFFFF NOT SWAP1 DUP2 AND PUSH1 0x1 PUSH1 0x1 PUSH1 0xA0 SHL SUB DUP10 DUP2 AND SWAP2 SWAP1 SWAP2 OR SWAP1 SWAP3 SSTORE PUSH1 0x65 DUP1 SLOAD DUP3 AND DUP9 DUP5 AND OR SWAP1 SSTORE PUSH1 0x66 DUP1 SLOAD DUP3 AND DUP8 DUP5 AND OR SWAP1 SSTORE PUSH1 0x68 DUP1 SLOAD DUP3 AND DUP7 DUP5 AND OR SWAP1 SSTORE PUSH1 0x69 DUP1 SLOAD SWAP1 SWAP2 AND SWAP2 DUP5 AND SWAP2 SWAP1 SWAP2 OR SWAP1 SSTORE PUSH1 0x4 PUSH1 0x6A SSTORE PUSH1 0x6B DUP1 SLOAD PUSH1 0x28 PUSH1 0xFF NOT SWAP2 DUP3 AND OR SWAP1 SWAP2 SSTORE PUSH1 0x79 DUP1 SLOAD SWAP1 SWAP2 AND PUSH1 0x1 SWAP1 DUP2 OR SWAP1 SWAP2 SSTORE PUSH2 0x144D SWAP1 PUSH1 0xA SWAP1 PUSH2 0x464F JUMP JUMPDEST PUSH1 0x6B PUSH1 0x1 PUSH2 0x100 EXP DUP2 SLOAD DUP2 PUSH1 0x1 PUSH1 0x1 PUSH1 0x80 SHL SUB MUL NOT AND SWAP1 DUP4 PUSH1 0xF SIGNEXTEND PUSH1 0x1 PUSH1 0x1 PUSH1 0x80 SHL SUB AND MUL OR SWAP1 SSTORE POP PUSH2 0x1482 PUSH1 0x1 PUSH1 0x64 PUSH2 0x464F JUMP JUMPDEST PUSH1 0x6C PUSH1 0x10 PUSH2 0x100 EXP DUP2 SLOAD DUP2 PUSH1 0x1 PUSH1 0x1 PUSH1 0x80 SHL SUB MUL NOT AND SWAP1 DUP4 PUSH1 0xF SIGNEXTEND PUSH1 0x1 PUSH1 0x1 PUSH1 0x80 SHL SUB AND MUL OR SWAP1 SSTORE POP PUSH2 0x14B7 PUSH1 0x8 PUSH1 0xA PUSH2 0x464F JUMP JUMPDEST PUSH1 0x6D DUP1 SLOAD PUSH1 0xF SWAP3 SWAP1 SWAP3 SIGNEXTEND PUSH1 0x1 PUSH1 0x1 PUSH1 0x80 SHL SUB AND PUSH16 0xFFFFFFFFFFFFFFFFFFFFFFFFFFFFFFFF NOT SWAP1 SWAP3 AND SWAP2 SWAP1 SWAP2 OR SWAP1 SSTORE PUSH2 0x14F1 PUSH1 0x3 PUSH1 0x1 PUSH2 0x464F JUMP JUMPDEST PUSH1 0x6D PUSH1 0x10 PUSH2 0x100 EXP DUP2 SLOAD DUP2 PUSH1 0x1 PUSH1 0x1 PUSH1 0x80 SHL SUB MUL NOT AND SWAP1 DUP4 PUSH1 0xF SIGNEXTEND PUSH1 0x1 PUSH1 0x1 PUSH1 0x80 SHL SUB AND MUL OR SWAP1 SSTORE POP PUSH2 0x1526 PUSH1 0x5 PUSH1 0xA PUSH2 0x464F JUMP JUMPDEST PUSH1 0x6E DUP1 SLOAD PUSH1 0xF SWAP3 SWAP1 SWAP3 SIGNEXTEND PUSH1 0x1 PUSH1 0x1 PUSH1 0x80 SHL SUB AND PUSH16 0xFFFFFFFFFFFFFFFFFFFFFFFFFFFFFFFF NOT SWAP1 SWAP3 AND SWAP2 SWAP1 SWAP2 OR SWAP1 SSTORE DUP1 ISZERO PUSH2 0x1566 JUMPI PUSH1 0x0 DUP1 SLOAD PUSH2 0xFF00 NOT AND SWAP1 SSTORE JUMPDEST POP POP POP POP POP POP JUMP JUMPDEST PUSH2 0x1579 PUSH1 0x0 CALLER PUSH2 0x2702 JUMP JUMPDEST PUSH2 0x15B6 JUMPI PUSH1 0x40 DUP1 MLOAD PUSH3 0x461BCD PUSH1 0xE5 SHL DUP2 MSTORE PUSH1 0x20 PUSH1 0x4 DUP3 ADD MSTORE PUSH1 0x9 PUSH1 0x24 DUP3 ADD MSTORE PUSH9 0x2737BA1030B236B4B7 PUSH1 0xB9 SHL PUSH1 0x44 DUP3 ADD MSTORE SWAP1 MLOAD SWAP1 DUP2 SWAP1 SUB PUSH1 0x64 ADD SWAP1 REVERT JUMPDEST PUSH2 0x15C5 PUSH2 0x5A89 PUSH3 0x186A0 PUSH2 0x464F JUMP JUMPDEST PUSH1 0x6D DUP1 SLOAD PUSH1 0xF SWAP3 SWAP1 SWAP3 SIGNEXTEND PUSH1 0x1 PUSH1 0x1 PUSH1 0x80 SHL SUB AND PUSH16 0xFFFFFFFFFFFFFFFFFFFFFFFFFFFFFFFF NOT SWAP1 SWAP3 AND SWAP2 SWAP1 SWAP2 OR SWAP1 SSTORE PUSH2 0x1601 PUSH2 0x158 PUSH2 0x3E8 PUSH2 0x464F JUMP JUMPDEST PUSH1 0x6C PUSH1 0x10 PUSH2 0x100 EXP DUP2 SLOAD DUP2 PUSH1 0x1 PUSH1 0x1 PUSH1 0x80 SHL SUB MUL NOT AND SWAP1 DUP4 PUSH1 0xF SIGNEXTEND PUSH1 0x1 PUSH1 0x1 PUSH1 0x80 SHL SUB AND MUL OR SWAP1 SSTORE POP JUMP JUMPDEST CALLER PUSH1 0x0 DUP2 DUP2 MSTORE PUSH1 0x72 PUSH1 0x20 MSTORE PUSH1 0x40 DUP2 KECCAK256 DUP1 SLOAD SWAP2 SWAP1 SSTORE SWAP1 PUSH2 0x164E SWAP1 PUSH1 0xA DUP4 DIV PUSH2 0x4A18 JUMP JUMPDEST PUSH1 0x67 SLOAD PUSH1 0x79 SLOAD PUSH1 0x40 DUP1 MLOAD PUSH4 0x95EA7B3 PUSH1 0xE0 SHL DUP2 MSTORE PUSH2 0x100 SWAP1 SWAP3 DIV PUSH1 0x1 PUSH1 0x1 PUSH1 0xA0 SHL SUB SWAP1 DUP2 AND PUSH1 0x4 DUP5 ADD MSTORE PUSH1 0x24 DUP4 ADD DUP6 SWAP1 MSTORE SWAP1 MLOAD SWAP3 AND SWAP2 PUSH4 0x95EA7B3 SWAP2 PUSH1 0x44 DUP1 DUP3 ADD SWAP3 PUSH1 0x20 SWAP3 SWAP1 SWAP2 SWAP1 DUP3 SWAP1 SUB ADD DUP2 PUSH1 0x0 DUP8 DUP1 EXTCODESIZE ISZERO DUP1 ISZERO PUSH2 0x16AC JUMPI PUSH1 0x0 DUP1 REVERT JUMPDEST POP GAS CALL ISZERO DUP1 ISZERO PUSH2 0x16C0 JUMPI RETURNDATASIZE PUSH1 0x0 DUP1 RETURNDATACOPY RETURNDATASIZE PUSH1 0x0 REVERT JUMPDEST POP POP POP POP PUSH1 0x40 MLOAD RETURNDATASIZE PUSH1 0x20 DUP2 LT ISZERO PUSH2 0x16D6 JUMPI PUSH1 0x0 DUP1 REVERT JUMPDEST POP POP PUSH1 0x79 SLOAD PUSH1 0x40 DUP1 MLOAD PUSH32 0x668E012200000000000000000000000000000000000000000000000000000000 DUP2 MSTORE CALLER PUSH1 0x4 DUP3 ADD MSTORE PUSH1 0x24 DUP2 ADD DUP5 SWAP1 MSTORE SWAP1 MLOAD PUSH2 0x100 SWAP1 SWAP3 DIV PUSH1 0x1 PUSH1 0x1 PUSH1 0xA0 SHL SUB AND SWAP2 PUSH4 0x668E0122 SWAP2 PUSH1 0x44 DUP1 DUP3 ADD SWAP3 PUSH1 0x0 SWAP3 SWAP1 SWAP2 SWAP1 DUP3 SWAP1 SUB ADD DUP2 DUP4 DUP8 DUP1 EXTCODESIZE ISZERO DUP1 ISZERO PUSH2 0x1748 JUMPI PUSH1 0x0 DUP1 REVERT JUMPDEST POP GAS CALL ISZERO DUP1 ISZERO PUSH2 0x175C JUMPI RETURNDATASIZE PUSH1 0x0 DUP1 RETURNDATACOPY RETURNDATASIZE PUSH1 0x0 REVERT JUMPDEST POP POP POP POP POP JUMP JUMPDEST PUSH1 0x0 DUP1 PUSH1 0x0 DUP6 DUP5 GT PUSH2 0x177D JUMPI POP DUP3 SWAP2 POP PUSH1 0x0 SWAP1 POP DUP1 PUSH2 0x17A1 JUMP JUMPDEST DUP6 DUP5 SUB SWAP4 POP DUP5 DUP5 GT PUSH2 0x1797 JUMPI POP DUP5 SWAP2 POP DUP3 SWAP1 POP PUSH1 0x0 PUSH2 0x17A1 JUMP JUMPDEST POP POP POP DUP2 SWAP1 SUB DUP3 DUP3 DUP3 JUMPDEST SWAP4 POP SWAP4 POP SWAP4 SWAP1 POP JUMP JUMPDEST PUSH1 0x0 DUP2 DUP2 MSTORE PUSH1 0x33 PUSH1 0x20 MSTORE PUSH1 0x40 SWAP1 KECCAK256 PUSH1 0x2 ADD SLOAD JUMPDEST SWAP2 SWAP1 POP JUMP JUMPDEST PUSH1 0x0 DUP3 DUP2 MSTORE PUSH1 0x33 PUSH1 0x20 MSTORE PUSH1 0x40 SWAP1 KECCAK256 PUSH1 0x2 ADD SLOAD PUSH2 0x17E5 SWAP1 PUSH2 0x17E0 PUSH2 0x4AAD JUMP JUMPDEST PUSH2 0x2702 JUMP JUMPDEST PUSH2 0x1820 JUMPI PUSH1 0x40 MLOAD PUSH3 0x461BCD PUSH1 0xE5 SHL DUP2 MSTORE PUSH1 0x4 ADD DUP1 DUP1 PUSH1 0x20 ADD DUP3 DUP2 SUB DUP3 MSTORE PUSH1 0x2F DUP2 MSTORE PUSH1 0x20 ADD DUP1 PUSH2 0x58D3 PUSH1 0x2F SWAP2 CODECOPY PUSH1 0x40 ADD SWAP2 POP POP PUSH1 0x40 MLOAD DUP1 SWAP2 SUB SWAP1 REVERT JUMPDEST PUSH2 0xF28 DUP3 DUP3 PUSH2 0x4AB1 JUMP JUMPDEST CALLER PUSH1 0x0 SWAP1 DUP2 MSTORE PUSH1 0x72 PUSH1 0x20 MSTORE PUSH1 0x40 SWAP1 KECCAK256 SLOAD SWAP1 JUMP JUMPDEST PUSH1 0x66 SLOAD PUSH1 0x40 DUP1 MLOAD PUSH4 0x70A08231 PUSH1 0xE0 SHL DUP2 MSTORE CALLER PUSH1 0x4 DUP3 ADD MSTORE SWAP1 MLOAD PUSH1 0x60 SWAP3 DUP4 SWAP3 PUSH1 0x1 PUSH1 0x1 PUSH1 0xA0 SHL SUB SWAP1 SWAP2 AND SWAP2 PUSH4 0x70A08231 SWAP2 PUSH1 0x24 DUP1 DUP3 ADD SWAP3 PUSH1 0x20 SWAP3 SWAP1 SWAP2 SWAP1 DUP3 SWAP1 SUB ADD DUP2 DUP7 DUP1 EXTCODESIZE ISZERO DUP1 ISZERO PUSH2 0x188D JUMPI PUSH1 0x0 DUP1 REVERT JUMPDEST POP GAS STATICCALL ISZERO DUP1 ISZERO PUSH2 0x18A1 JUMPI RETURNDATASIZE PUSH1 0x0 DUP1 RETURNDATACOPY RETURNDATASIZE PUSH1 0x0 REVERT JUMPDEST POP POP POP POP PUSH1 0x40 MLOAD RETURNDATASIZE PUSH1 0x20 DUP2 LT ISZERO PUSH2 0x18B7 JUMPI PUSH1 0x0 DUP1 REVERT JUMPDEST POP MLOAD PUSH8 0xFFFFFFFFFFFFFFFF DUP2 GT DUP1 ISZERO PUSH2 0x18CF JUMPI PUSH1 0x0 DUP1 REVERT JUMPDEST POP PUSH1 0x40 MLOAD SWAP1 DUP1 DUP3 MSTORE DUP1 PUSH1 0x20 MUL PUSH1 0x20 ADD DUP3 ADD PUSH1 0x40 MSTORE DUP1 ISZERO PUSH2 0x18F9 JUMPI DUP2 PUSH1 0x20 ADD PUSH1 0x20 DUP3 MUL DUP1 CALLDATASIZE DUP4 CALLDATACOPY ADD SWAP1 POP JUMPDEST POP SWAP1 POP PUSH1 0x0 JUMPDEST DUP2 MLOAD DUP2 LT ISZERO PUSH2 0x19A7 JUMPI PUSH1 0x66 SLOAD PUSH1 0x40 DUP1 MLOAD PUSH4 0x2F745C59 PUSH1 0xE0 SHL DUP2 MSTORE CALLER PUSH1 0x4 DUP3 ADD MSTORE PUSH1 0x24 DUP2 ADD DUP5 SWAP1 MSTORE SWAP1 MLOAD PUSH1 0x1 PUSH1 0x1 PUSH1 0xA0 SHL SUB SWAP1 SWAP3 AND SWAP2 PUSH4 0x2F745C59 SWAP2 PUSH1 0x44 DUP1 DUP3 ADD SWAP3 PUSH1 0x20 SWAP3 SWAP1 SWAP2 SWAP1 DUP3 SWAP1 SUB ADD DUP2 DUP7 DUP1 EXTCODESIZE ISZERO DUP1 ISZERO PUSH2 0x195A JUMPI PUSH1 0x0 DUP1 REVERT JUMPDEST POP GAS STATICCALL ISZERO DUP1 ISZERO PUSH2 0x196E JUMPI RETURNDATASIZE PUSH1 0x0 DUP1 RETURNDATACOPY RETURNDATASIZE PUSH1 0x0 REVERT JUMPDEST POP POP POP POP PUSH1 0x40 MLOAD RETURNDATASIZE PUSH1 0x20 DUP2 LT ISZERO PUSH2 0x1984 JUMPI PUSH1 0x0 DUP1 REVERT JUMPDEST POP MLOAD DUP3 MLOAD DUP4 SWAP1 DUP4 SWAP1 DUP2 LT PUSH2 0x1994 JUMPI INVALID JUMPDEST PUSH1 0x20 SWAP1 DUP2 MUL SWAP2 SWAP1 SWAP2 ADD ADD MSTORE PUSH1 0x1 ADD PUSH2 0x18FF JUMP JUMPDEST POP SWAP1 POP SWAP1 JUMP JUMPDEST PUSH1 0x67 SLOAD PUSH1 0x40 DUP1 MLOAD PUSH4 0x70A08231 PUSH1 0xE0 SHL DUP2 MSTORE PUSH1 0x1 PUSH1 0x1 PUSH1 0xA0 SHL SUB DUP5 DUP2 AND PUSH1 0x4 DUP4 ADD MSTORE SWAP2 MLOAD PUSH1 0x0 SWAP4 SWAP3 SWAP1 SWAP3 AND SWAP2 PUSH4 0x70A08231 SWAP2 PUSH1 0x24 DUP1 DUP3 ADD SWAP3 PUSH1 0x20 SWAP3 SWAP1 SWAP2 SWAP1 DUP3 SWAP1 SUB ADD DUP2 DUP7 DUP1 EXTCODESIZE ISZERO DUP1 ISZERO PUSH2 0x19FE JUMPI PUSH1 0x0 DUP1 REVERT JUMPDEST POP GAS STATICCALL ISZERO DUP1 ISZERO PUSH2 0x1A12 JUMPI RETURNDATASIZE PUSH1 0x0 DUP1 RETURNDATACOPY RETURNDATASIZE PUSH1 0x0 REVERT JUMPDEST POP POP POP POP PUSH1 0x40 MLOAD RETURNDATASIZE PUSH1 0x20 DUP2 LT ISZERO PUSH2 0x1A28 JUMPI PUSH1 0x0 DUP1 REVERT JUMPDEST POP MLOAD PUSH2 0x1A33 DUP4 PUSH2 0x257D JUMP JUMPDEST PUSH1 0x1 PUSH1 0x1 PUSH1 0xA0 SHL SUB DUP5 AND PUSH1 0x0 SWAP1 DUP2 MSTORE PUSH1 0x75 PUSH1 0x20 MSTORE PUSH1 0x40 SWAP1 KECCAK256 SLOAD ADD ADD SWAP1 POP SWAP2 SWAP1 POP JUMP JUMPDEST PUSH2 0x1A5D PUSH2 0x4AAD JUMP JUMPDEST PUSH1 0x1 PUSH1 0x1 PUSH1 0xA0 SHL SUB AND DUP2 PUSH1 0x1 PUSH1 0x1 PUSH1 0xA0 SHL SUB AND EQ PUSH2 0x1AAC JUMPI PUSH1 0x40 MLOAD PUSH3 0x461BCD PUSH1 0xE5 SHL DUP2 MSTORE PUSH1 0x4 ADD DUP1 DUP1 PUSH1 0x20 ADD DUP3 DUP2 SUB DUP3 MSTORE PUSH1 0x2F DUP2 MSTORE PUSH1 0x20 ADD DUP1 PUSH2 0x5981 PUSH1 0x2F SWAP2 CODECOPY PUSH1 0x40 ADD SWAP2 POP POP PUSH1 0x40 MLOAD DUP1 SWAP2 SUB SWAP1 REVERT JUMPDEST PUSH2 0xF28 DUP3 DUP3 PUSH2 0x4B20 JUMP JUMPDEST PUSH1 0x65 SLOAD PUSH1 0x40 DUP1 MLOAD PUSH4 0x70A08231 PUSH1 0xE0 SHL DUP2 MSTORE CALLER PUSH1 0x4 DUP3 ADD MSTORE SWAP1 MLOAD PUSH1 0x60 SWAP3 DUP4 SWAP3 PUSH1 0x1 PUSH1 0x1 PUSH1 0xA0 SHL SUB SWAP1 SWAP2 AND SWAP2 PUSH4 0x70A08231 SWAP2 PUSH1 0x24 DUP1 DUP3 ADD SWAP3 PUSH1 0x20 SWAP3 SWAP1 SWAP2 SWAP1 DUP3 SWAP1 SUB ADD DUP2 DUP7 DUP1 EXTCODESIZE ISZERO DUP1 ISZERO PUSH2 0x1B06 JUMPI PUSH1 0x0 DUP1 REVERT JUMPDEST POP GAS STATICCALL ISZERO DUP1 ISZERO PUSH2 0x1B1A JUMPI RETURNDATASIZE PUSH1 0x0 DUP1 RETURNDATACOPY RETURNDATASIZE PUSH1 0x0 REVERT JUMPDEST POP POP POP POP PUSH1 0x40 MLOAD RETURNDATASIZE PUSH1 0x20 DUP2 LT ISZERO PUSH2 0x1B30 JUMPI PUSH1 0x0 DUP1 REVERT JUMPDEST POP MLOAD PUSH8 0xFFFFFFFFFFFFFFFF DUP2 GT DUP1 ISZERO PUSH2 0x1B48 JUMPI PUSH1 0x0 DUP1 REVERT JUMPDEST POP PUSH1 0x40 MLOAD SWAP1 DUP1 DUP3 MSTORE DUP1 PUSH1 0x20 MUL PUSH1 0x20 ADD DUP3 ADD PUSH1 0x40 MSTORE DUP1 ISZERO PUSH2 0x1B72 JUMPI DUP2 PUSH1 0x20 ADD PUSH1 0x20 DUP3 MUL DUP1 CALLDATASIZE DUP4 CALLDATACOPY ADD SWAP1 POP JUMPDEST POP SWAP1 POP PUSH1 0x0 JUMPDEST DUP2 MLOAD DUP2 LT ISZERO PUSH2 0x19A7 JUMPI PUSH1 0x65 SLOAD PUSH1 0x40 DUP1 MLOAD PUSH4 0x2F745C59 PUSH1 0xE0 SHL DUP2 MSTORE CALLER PUSH1 0x4 DUP3 ADD MSTORE PUSH1 0x24 DUP2 ADD DUP5 SWAP1 MSTORE SWAP1 MLOAD PUSH1 0x1 PUSH1 0x1 PUSH1 0xA0 SHL SUB SWAP1 SWAP3 AND SWAP2 PUSH4 0x2F745C59 SWAP2 PUSH1 0x44 DUP1 DUP3 ADD SWAP3 PUSH1 0x20 SWAP3 SWAP1 SWAP2 SWAP1 DUP3 SWAP1 SUB ADD DUP2 DUP7 DUP1 EXTCODESIZE ISZERO DUP1 ISZERO PUSH2 0x1BD3 JUMPI PUSH1 0x0 DUP1 REVERT JUMPDEST POP GAS STATICCALL ISZERO DUP1 ISZERO PUSH2 0x1BE7 JUMPI RETURNDATASIZE PUSH1 0x0 DUP1 RETURNDATACOPY RETURNDATASIZE PUSH1 0x0 REVERT JUMPDEST POP POP POP POP PUSH1 0x40 MLOAD RETURNDATASIZE PUSH1 0x20 DUP2 LT ISZERO PUSH2 0x1BFD JUMPI PUSH1 0x0 DUP1 REVERT JUMPDEST POP MLOAD DUP3 MLOAD DUP4 SWAP1 DUP4 SWAP1 DUP2 LT PUSH2 0x1C0D JUMPI INVALID JUMPDEST PUSH1 0x20 SWAP1 DUP2 MUL SWAP2 SWAP1 SWAP2 ADD ADD MSTORE PUSH1 0x1 ADD PUSH2 0x1B78 JUMP JUMPDEST PUSH3 0x13C680 DUP2 JUMP JUMPDEST PUSH1 0x40 DUP1 MLOAD PUSH10 0x23A0A6A2AFA0A226A4A7 PUSH1 0xB1 SHL DUP2 MSTORE SWAP1 MLOAD SWAP1 DUP2 SWAP1 SUB PUSH1 0xA ADD SWAP1 KECCAK256 PUSH2 0x1C50 SWAP1 CALLER PUSH2 0x2702 JUMP JUMPDEST PUSH2 0x1C8F JUMPI PUSH1 0x40 DUP1 MLOAD PUSH3 0x461BCD PUSH1 0xE5 SHL DUP2 MSTORE PUSH1 0x20 PUSH1 0x4 DUP3 ADD MSTORE PUSH1 0x17 PUSH1 0x24 DUP3 ADD MSTORE PUSH1 0x0 DUP1 MLOAD PUSH1 0x20 PUSH2 0x5891 DUP4 CODECOPY DUP2 MLOAD SWAP2 MSTORE PUSH1 0x44 DUP3 ADD MSTORE SWAP1 MLOAD SWAP1 DUP2 SWAP1 SUB PUSH1 0x64 ADD SWAP1 REVERT JUMPDEST PUSH1 0x6A SSTORE JUMP JUMPDEST PUSH1 0x0 PUSH2 0x1C9F CALLER PUSH2 0x468F JUMP JUMPDEST SWAP1 POP SWAP1 JUMP JUMPDEST PUSH1 0x6A SLOAD PUSH1 0x65 SLOAD PUSH1 0x40 DUP1 MLOAD PUSH4 0x70A08231 PUSH1 0xE0 SHL DUP2 MSTORE CALLER PUSH1 0x4 DUP3 ADD MSTORE SWAP1 MLOAD PUSH1 0x1 PUSH1 0x1 PUSH1 0xA0 SHL SUB SWAP1 SWAP3 AND SWAP2 PUSH4 0x70A08231 SWAP2 PUSH1 0x24 DUP1 DUP3 ADD SWAP3 PUSH1 0x20 SWAP3 SWAP1 SWAP2 SWAP1 DUP3 SWAP1 SUB ADD DUP2 DUP7 DUP1 EXTCODESIZE ISZERO DUP1 ISZERO PUSH2 0x1CF2 JUMPI PUSH1 0x0 DUP1 REVERT JUMPDEST POP GAS STATICCALL ISZERO DUP1 ISZERO PUSH2 0x1D06 JUMPI RETURNDATASIZE PUSH1 0x0 DUP1 RETURNDATACOPY RETURNDATASIZE PUSH1 0x0 REVERT JUMPDEST POP POP POP POP PUSH1 0x40 MLOAD RETURNDATASIZE PUSH1 0x20 DUP2 LT ISZERO PUSH2 0x1D1C JUMPI PUSH1 0x0 DUP1 REVERT JUMPDEST POP MLOAD GT ISZERO PUSH2 0x1D71 JUMPI PUSH1 0x40 DUP1 MLOAD PUSH3 0x461BCD PUSH1 0xE5 SHL DUP2 MSTORE PUSH1 0x20 PUSH1 0x4 DUP3 ADD MSTORE PUSH1 0x19 PUSH1 0x24 DUP3 ADD MSTORE PUSH32 0x546F6F206D616E792063686172616374657273206F776E656400000000000000 PUSH1 0x44 DUP3 ADD MSTORE SWAP1 MLOAD SWAP1 DUP2 SWAP1 SUB PUSH1 0x64 ADD SWAP1 REVERT JUMPDEST PUSH1 0x66 SLOAD PUSH1 0x40 DUP1 MLOAD PUSH4 0x31A9108F PUSH1 0xE1 SHL DUP2 MSTORE PUSH1 0x4 DUP2 ADD DUP6 SWAP1 MSTORE SWAP1 MLOAD DUP5 SWAP3 CALLER SWAP3 PUSH1 0x1 PUSH1 0x1 PUSH1 0xA0 SHL SUB SWAP1 SWAP2 AND SWAP2 PUSH4 0x6352211E SWAP2 PUSH1 0x24 DUP1 DUP3 ADD SWAP3 PUSH1 0x20 SWAP3 SWAP1 SWAP2 SWAP1 DUP3 SWAP1 SUB ADD DUP2 DUP7 DUP1 EXTCODESIZE ISZERO DUP1 ISZERO PUSH2 0x1DC1 JUMPI PUSH1 0x0 DUP1 REVERT JUMPDEST POP GAS STATICCALL ISZERO DUP1 ISZERO PUSH2 0x1DD5 JUMPI RETURNDATASIZE PUSH1 0x0 DUP1 RETURNDATACOPY RETURNDATASIZE PUSH1 0x0 REVERT JUMPDEST POP POP POP POP PUSH1 0x40 MLOAD RETURNDATASIZE PUSH1 0x20 DUP2 LT ISZERO PUSH2 0x1DEB JUMPI PUSH1 0x0 DUP1 REVERT JUMPDEST POP MLOAD PUSH1 0x1 PUSH1 0x1 PUSH1 0xA0 SHL SUB AND EQ PUSH2 0x1E48 JUMPI PUSH1 0x40 DUP1 MLOAD PUSH3 0x461BCD PUSH1 0xE5 SHL DUP2 MSTORE PUSH1 0x20 PUSH1 0x4 DUP3 ADD MSTORE PUSH1 0x14 PUSH1 0x24 DUP3 ADD MSTORE PUSH32 0x4E6F742074686520776561706F6E206F776E6572000000000000000000000000 PUSH1 0x44 DUP3 ADD MSTORE SWAP1 MLOAD SWAP1 DUP2 SWAP1 SUB PUSH1 0x64 ADD SWAP1 REVERT JUMPDEST PUSH1 0x66 SLOAD PUSH1 0x40 DUP1 MLOAD PUSH4 0x31A9108F PUSH1 0xE1 SHL DUP2 MSTORE PUSH1 0x4 DUP2 ADD DUP6 SWAP1 MSTORE SWAP1 MLOAD DUP5 SWAP3 CALLER SWAP3 PUSH1 0x1 PUSH1 0x1 PUSH1 0xA0 SHL SUB SWAP1 SWAP2 AND SWAP2 PUSH4 0x6352211E SWAP2 PUSH1 0x24 DUP1 DUP3 ADD SWAP3 PUSH1 0x20 SWAP3 SWAP1 SWAP2 SWAP1 DUP3 SWAP1 SUB ADD DUP2 DUP7 DUP1 EXTCODESIZE ISZERO DUP1 ISZERO PUSH2 0x1E98 JUMPI PUSH1 0x0 DUP1 REVERT JUMPDEST POP GAS STATICCALL ISZERO DUP1 ISZERO PUSH2 0x1EAC JUMPI RETURNDATASIZE PUSH1 0x0 DUP1 RETURNDATACOPY RETURNDATASIZE PUSH1 0x0 REVERT JUMPDEST POP POP POP POP PUSH1 0x40 MLOAD RETURNDATASIZE PUSH1 0x20 DUP2 LT ISZERO PUSH2 0x1EC2 JUMPI PUSH1 0x0 DUP1 REVERT JUMPDEST POP MLOAD PUSH1 0x1 PUSH1 0x1 PUSH1 0xA0 SHL SUB AND EQ PUSH2 0x1F1F JUMPI PUSH1 0x40 DUP1 MLOAD PUSH3 0x461BCD PUSH1 0xE5 SHL DUP2 MSTORE PUSH1 0x20 PUSH1 0x4 DUP3 ADD MSTORE PUSH1 0x14 PUSH1 0x24 DUP3 ADD MSTORE PUSH32 0x4E6F742074686520776561706F6E206F776E6572000000000000000000000000 PUSH1 0x44 DUP3 ADD MSTORE SWAP1 MLOAD SWAP1 DUP2 SWAP1 SUB PUSH1 0x64 ADD SWAP1 REVERT JUMPDEST PUSH1 0x6E SLOAD PUSH1 0xF SIGNEXTEND PUSH1 0x0 PUSH2 0x1F30 DUP3 PUSH2 0x2598 JUMP JUMPDEST CALLER PUSH1 0x0 SWAP1 DUP2 MSTORE PUSH1 0x75 PUSH1 0x20 SWAP1 DUP2 MSTORE PUSH1 0x40 DUP1 DUP4 KECCAK256 SLOAD PUSH1 0x72 SWAP1 SWAP3 MSTORE DUP3 KECCAK256 SLOAD SWAP3 SWAP4 POP SWAP1 SWAP2 PUSH2 0x1F5B SWAP2 SWAP1 DUP5 PUSH2 0x1763 JUMP JUMPDEST PUSH1 0x67 SLOAD PUSH1 0x40 DUP1 MLOAD PUSH4 0x70A08231 PUSH1 0xE0 SHL DUP2 MSTORE CALLER PUSH1 0x4 DUP3 ADD MSTORE SWAP1 MLOAD SWAP3 SWAP6 POP DUP6 SWAP5 POP PUSH1 0x1 PUSH1 0x1 PUSH1 0xA0 SHL SUB SWAP1 SWAP2 AND SWAP3 POP PUSH4 0x70A08231 SWAP2 PUSH1 0x24 DUP1 DUP4 ADD SWAP3 PUSH1 0x20 SWAP3 SWAP2 SWAP1 DUP3 SWAP1 SUB ADD DUP2 DUP7 DUP1 EXTCODESIZE ISZERO DUP1 ISZERO PUSH2 0x1FAC JUMPI PUSH1 0x0 DUP1 REVERT JUMPDEST POP GAS STATICCALL ISZERO DUP1 ISZERO PUSH2 0x1FC0 JUMPI RETURNDATASIZE PUSH1 0x0 DUP1 RETURNDATACOPY RETURNDATASIZE PUSH1 0x0 REVERT JUMPDEST POP POP POP POP PUSH1 0x40 MLOAD RETURNDATASIZE PUSH1 0x20 DUP2 LT ISZERO PUSH2 0x1FD6 JUMPI PUSH1 0x0 DUP1 REVERT JUMPDEST POP MLOAD LT ISZERO PUSH2 0x1FE3 DUP4 PUSH2 0x4B8F JUMP JUMPDEST PUSH1 0x40 MLOAD PUSH1 0x20 ADD DUP1 DUP1 PUSH32 0x4E6F7420656E6F7567682048454C4C21204E6565642000000000000000000000 DUP2 MSTORE POP PUSH1 0x16 ADD DUP3 DUP1 MLOAD SWAP1 PUSH1 0x20 ADD SWAP1 DUP1 DUP4 DUP4 JUMPDEST PUSH1 0x20 DUP4 LT PUSH2 0x203D JUMPI DUP1 MLOAD DUP3 MSTORE PUSH1 0x1F NOT SWAP1 SWAP3 ADD SWAP2 PUSH1 0x20 SWAP2 DUP3 ADD SWAP2 ADD PUSH2 0x201E JUMP JUMPDEST PUSH1 0x1 DUP4 PUSH1 0x20 SUB PUSH2 0x100 EXP SUB DUP1 NOT DUP3 MLOAD AND DUP2 DUP5 MLOAD AND DUP1 DUP3 OR DUP6 MSTORE POP POP POP POP POP POP SWAP1 POP ADD SWAP2 POP POP PUSH1 0x40 MLOAD PUSH1 0x20 DUP2 DUP4 SUB SUB DUP2 MSTORE SWAP1 PUSH1 0x40 MSTORE SWAP1 PUSH2 0x20FA JUMPI PUSH1 0x40 MLOAD PUSH3 0x461BCD PUSH1 0xE5 SHL DUP2 MSTORE PUSH1 0x4 ADD DUP1 DUP1 PUSH1 0x20 ADD DUP3 DUP2 SUB DUP3 MSTORE DUP4 DUP2 DUP2 MLOAD DUP2 MSTORE PUSH1 0x20 ADD SWAP2 POP DUP1 MLOAD SWAP1 PUSH1 0x20 ADD SWAP1 DUP1 DUP4 DUP4 PUSH1 0x0 JUMPDEST DUP4 DUP2 LT ISZERO PUSH2 0x20BF JUMPI DUP2 DUP2 ADD MLOAD DUP4 DUP3 ADD MSTORE PUSH1 0x20 ADD PUSH2 0x20A7 JUMP JUMPDEST POP POP POP POP SWAP1 POP SWAP1 DUP2 ADD SWAP1 PUSH1 0x1F AND DUP1 ISZERO PUSH2 0x20EC JUMPI DUP1 DUP3 SUB DUP1 MLOAD PUSH1 0x1 DUP4 PUSH1 0x20 SUB PUSH2 0x100 EXP SUB NOT AND DUP2 MSTORE PUSH1 0x20 ADD SWAP2 POP JUMPDEST POP SWAP3 POP POP POP PUSH1 0x40 MLOAD DUP1 SWAP2 SUB SWAP1 REVERT JUMPDEST POP PUSH1 0x6E SLOAD PUSH2 0x210C SWAP1 CALLER SWAP1 PUSH1 0xF SIGNEXTEND PUSH2 0x48EF JUMP JUMPDEST PUSH1 0x66 SLOAD PUSH1 0x40 DUP1 MLOAD PUSH32 0x9ABCAFEF00000000000000000000000000000000000000000000000000000000 DUP2 MSTORE PUSH1 0x4 DUP2 ADD DUP11 SWAP1 MSTORE PUSH1 0x24 DUP2 ADD DUP10 SWAP1 MSTORE SWAP1 MLOAD PUSH1 0x1 PUSH1 0x1 PUSH1 0xA0 SHL SUB SWAP1 SWAP3 AND SWAP2 PUSH4 0x9ABCAFEF SWAP2 PUSH1 0x44 DUP1 DUP3 ADD SWAP3 PUSH1 0x0 SWAP3 SWAP1 SWAP2 SWAP1 DUP3 SWAP1 SUB ADD DUP2 DUP4 DUP8 DUP1 EXTCODESIZE ISZERO DUP1 ISZERO PUSH2 0x2179 JUMPI PUSH1 0x0 DUP1 REVERT JUMPDEST POP GAS CALL ISZERO DUP1 ISZERO PUSH2 0x218D JUMPI RETURNDATASIZE PUSH1 0x0 DUP1 RETURNDATACOPY RETURNDATASIZE PUSH1 0x0 REVERT JUMPDEST POP POP POP POP POP POP POP POP POP POP POP JUMP JUMPDEST PUSH1 0x77 SLOAD PUSH1 0x1 PUSH1 0x1 PUSH1 0xA0 SHL SUB AND DUP2 JUMP JUMPDEST PUSH2 0x21B1 PUSH2 0x5872 JUMP JUMPDEST PUSH2 0x21C6 PUSH2 0x21BF DUP9 DUP9 DUP9 PUSH2 0x2288 JUMP JUMPDEST DUP6 DUP6 PUSH2 0x4C9B JUMP JUMPDEST SWAP1 POP PUSH1 0x0 DUP1 JUMPDEST PUSH1 0x4 DUP2 LT ISZERO PUSH2 0x2209 JUMPI DUP4 PUSH4 0xFFFFFFFF AND DUP4 DUP3 PUSH1 0x4 DUP2 LT PUSH2 0x21E8 JUMPI INVALID JUMPDEST PUSH1 0x20 MUL ADD MLOAD PUSH4 0xFFFFFFFF AND EQ ISZERO PUSH2 0x2201 JUMPI POP PUSH1 0x1 SWAP1 POP PUSH1 0x4 JUMPDEST PUSH1 0x1 ADD PUSH2 0x21CC JUMP JUMPDEST POP DUP1 PUSH2 0x225C JUMPI PUSH1 0x40 DUP1 MLOAD PUSH3 0x461BCD PUSH1 0xE5 SHL DUP2 MSTORE PUSH1 0x20 PUSH1 0x4 DUP3 ADD MSTORE PUSH1 0xE PUSH1 0x24 DUP3 ADD MSTORE PUSH32 0x54617267657420696E76616C6964000000000000000000000000000000000000 PUSH1 0x44 DUP3 ADD MSTORE SWAP1 MLOAD SWAP1 DUP2 SWAP1 SUB PUSH1 0x64 ADD SWAP1 REVERT JUMPDEST POP POP POP POP POP POP POP POP JUMP JUMPDEST PUSH1 0x40 DUP1 MLOAD PUSH10 0x23A0A6A2AFA0A226A4A7 PUSH1 0xB1 SHL DUP2 MSTORE SWAP1 MLOAD SWAP1 DUP2 SWAP1 SUB PUSH1 0xA ADD SWAP1 KECCAK256 DUP2 JUMP JUMPDEST PUSH1 0x0 PUSH2 0x22BA DUP3 PUSH3 0xFFFFFF AND PUSH2 0x22AE DUP7 PUSH3 0xFFFFFF AND DUP7 PUSH1 0xF SIGNEXTEND PUSH2 0x472A SWAP1 SWAP2 SWAP1 PUSH4 0xFFFFFFFF AND JUMP JUMPDEST SWAP1 PUSH4 0xFFFFFFFF PUSH2 0x4D35 AND JUMP JUMPDEST SWAP5 SWAP4 POP POP POP POP JUMP JUMPDEST PUSH1 0x1 PUSH1 0x1 PUSH1 0xA0 SHL SUB DUP3 AND PUSH1 0x0 SWAP1 DUP2 MSTORE PUSH1 0x75 PUSH1 0x20 SWAP1 DUP2 MSTORE PUSH1 0x40 DUP1 DUP4 KECCAK256 SLOAD PUSH1 0x72 SWAP1 SWAP3 MSTORE DUP3 KECCAK256 SLOAD PUSH2 0x22F1 SWAP2 SWAP1 DUP5 PUSH2 0x1763 JUMP JUMPDEST SWAP6 SWAP5 POP POP POP POP POP JUMP JUMPDEST PUSH1 0x40 DUP1 MLOAD PUSH10 0x23A0A6A2AFA0A226A4A7 PUSH1 0xB1 SHL DUP2 MSTORE SWAP1 MLOAD SWAP1 DUP2 SWAP1 SUB PUSH1 0xA ADD SWAP1 KECCAK256 PUSH2 0x2323 SWAP1 CALLER PUSH2 0x2702 JUMP JUMPDEST PUSH2 0x2362 JUMPI PUSH1 0x40 DUP1 MLOAD PUSH3 0x461BCD PUSH1 0xE5 SHL DUP2 MSTORE PUSH1 0x20 PUSH1 0x4 DUP3 ADD MSTORE PUSH1 0x17 PUSH1 0x24 DUP3 ADD MSTORE PUSH1 0x0 DUP1 MLOAD PUSH1 0x20 PUSH2 0x5891 DUP4 CODECOPY DUP2 MLOAD SWAP2 MSTORE PUSH1 0x44 DUP3 ADD MSTORE SWAP1 MLOAD SWAP1 DUP2 SWAP1 SUB PUSH1 0x64 ADD SWAP1 REVERT JUMPDEST PUSH1 0x79 DUP1 SLOAD PUSH1 0xFF NOT AND PUSH1 0xFF SWAP3 SWAP1 SWAP3 AND SWAP2 SWAP1 SWAP2 OR SWAP1 SSTORE JUMP JUMPDEST PUSH1 0x71 SLOAD DUP2 JUMP JUMPDEST PUSH1 0x40 DUP1 MLOAD PUSH10 0x23A0A6A2AFA0A226A4A7 PUSH1 0xB1 SHL DUP2 MSTORE SWAP1 MLOAD SWAP1 DUP2 SWAP1 SUB PUSH1 0xA ADD SWAP1 KECCAK256 PUSH2 0x23A7 SWAP1 CALLER PUSH2 0x2702 JUMP JUMPDEST PUSH2 0x23E6 JUMPI PUSH1 0x40 DUP1 MLOAD PUSH3 0x461BCD PUSH1 0xE5 SHL DUP2 MSTORE PUSH1 0x20 PUSH1 0x4 DUP3 ADD MSTORE PUSH1 0x17 PUSH1 0x24 DUP3 ADD MSTORE PUSH1 0x0 DUP1 MLOAD PUSH1 0x20 PUSH2 0x5891 DUP4 CODECOPY DUP2 MLOAD SWAP2 MSTORE PUSH1 0x44 DUP3 ADD MSTORE SWAP1 MLOAD SWAP1 DUP2 SWAP1 SUB PUSH1 0x64 ADD SWAP1 REVERT JUMPDEST PUSH1 0x6B DUP1 SLOAD PUSH1 0xFF NOT AND PUSH1 0xFF SWAP3 SWAP1 SWAP3 AND SWAP2 SWAP1 SWAP2 OR SWAP1 SSTORE JUMP JUMPDEST PUSH1 0x40 DUP1 MLOAD PUSH10 0x23A0A6A2AFA0A226A4A7 PUSH1 0xB1 SHL DUP2 MSTORE SWAP1 MLOAD SWAP1 DUP2 SWAP1 SUB PUSH1 0xA ADD SWAP1 KECCAK256 PUSH2 0x2425 SWAP1 CALLER PUSH2 0x2702 JUMP JUMPDEST PUSH2 0x2464 JUMPI PUSH1 0x40 DUP1 MLOAD PUSH3 0x461BCD PUSH1 0xE5 SHL DUP2 MSTORE PUSH1 0x20 PUSH1 0x4 DUP3 ADD MSTORE PUSH1 0x17 PUSH1 0x24 DUP3 ADD MSTORE PUSH1 0x0 DUP1 MLOAD PUSH1 0x20 PUSH2 0x5891 DUP4 CODECOPY DUP2 MLOAD SWAP2 MSTORE PUSH1 0x44 DUP3 ADD MSTORE SWAP1 MLOAD SWAP1 DUP2 SWAP1 SUB PUSH1 0x64 ADD SWAP1 REVERT JUMPDEST PUSH1 0x76 SLOAD PUSH2 0x2477 SWAP1 DUP3 PUSH4 0xFFFFFFFF PUSH2 0x4D35 AND JUMP JUMPDEST PUSH1 0x76 SSTORE PUSH1 0x1 PUSH1 0x1 PUSH1 0xA0 SHL SUB DUP3 AND PUSH1 0x0 SWAP1 DUP2 MSTORE PUSH1 0x75 PUSH1 0x20 MSTORE PUSH1 0x40 SWAP1 KECCAK256 SLOAD PUSH2 0x24A3 SWAP1 DUP3 PUSH4 0xFFFFFFFF PUSH2 0x4D35 AND JUMP JUMPDEST PUSH1 0x1 PUSH1 0x1 PUSH1 0xA0 SHL SUB DUP1 DUP5 AND PUSH1 0x0 SWAP1 DUP2 MSTORE PUSH1 0x75 PUSH1 0x20 SWAP1 DUP2 MSTORE PUSH1 0x40 DUP1 DUP4 KECCAK256 SWAP5 SWAP1 SWAP5 SSTORE PUSH1 0x67 SLOAD DUP5 MLOAD PUSH4 0x23B872DD PUSH1 0xE0 SHL DUP2 MSTORE CALLER PUSH1 0x4 DUP3 ADD MSTORE ADDRESS PUSH1 0x24 DUP3 ADD MSTORE PUSH1 0x44 DUP2 ADD DUP8 SWAP1 MSTORE SWAP5 MLOAD SWAP4 AND SWAP4 PUSH4 0x23B872DD SWAP4 PUSH1 0x64 DUP1 DUP4 ADD SWAP5 SWAP2 SWAP3 DUP4 SWAP1 SUB ADD SWAP1 DUP3 SWAP1 DUP8 DUP1 EXTCODESIZE ISZERO DUP1 ISZERO PUSH2 0x250E JUMPI PUSH1 0x0 DUP1 REVERT JUMPDEST POP GAS CALL ISZERO DUP1 ISZERO PUSH2 0x2522 JUMPI RETURNDATASIZE PUSH1 0x0 DUP1 RETURNDATACOPY RETURNDATASIZE PUSH1 0x0 REVERT JUMPDEST POP POP POP POP PUSH1 0x40 MLOAD RETURNDATASIZE PUSH1 0x20 DUP2 LT ISZERO PUSH2 0x2538 JUMPI PUSH1 0x0 DUP1 REVERT JUMPDEST POP POP PUSH1 0x40 DUP1 MLOAD DUP3 DUP2 MSTORE SWAP1 MLOAD PUSH1 0x1 PUSH1 0x1 PUSH1 0xA0 SHL SUB DUP5 AND SWAP2 PUSH32 0x3443CA0A6A2D7FBB0E0C0612ADB07CDCBDE092E281A3DDDC6ED66C14C00429CD SWAP2 SWAP1 DUP2 SWAP1 SUB PUSH1 0x20 ADD SWAP1 LOG2 POP POP JUMP JUMPDEST PUSH1 0x1 PUSH1 0x1 PUSH1 0xA0 SHL SUB AND PUSH1 0x0 SWAP1 DUP2 MSTORE PUSH1 0x72 PUSH1 0x20 MSTORE PUSH1 0x40 SWAP1 KECCAK256 SLOAD SWAP1 JUMP JUMPDEST PUSH1 0x0 PUSH2 0x2628 PUSH1 0x68 PUSH1 0x0 SWAP1 SLOAD SWAP1 PUSH2 0x100 EXP SWAP1 DIV PUSH1 0x1 PUSH1 0x1 PUSH1 0xA0 SHL SUB AND PUSH1 0x1 PUSH1 0x1 PUSH1 0xA0 SHL SUB AND PUSH4 0x9D1B464A PUSH1 0x40 MLOAD DUP2 PUSH4 0xFFFFFFFF AND PUSH1 0xE0 SHL DUP2 MSTORE PUSH1 0x4 ADD PUSH1 0x20 PUSH1 0x40 MLOAD DUP1 DUP4 SUB DUP2 DUP7 DUP1 EXTCODESIZE ISZERO DUP1 ISZERO PUSH2 0x25EB JUMPI PUSH1 0x0 DUP1 REVERT JUMPDEST POP GAS STATICCALL ISZERO DUP1 ISZERO PUSH2 0x25FF JUMPI RETURNDATASIZE PUSH1 0x0 DUP1 RETURNDATACOPY RETURNDATASIZE PUSH1 0x0 REVERT JUMPDEST POP POP POP POP PUSH1 0x40 MLOAD RETURNDATASIZE PUSH1 0x20 DUP2 LT ISZERO PUSH2 0x2615 JUMPI PUSH1 0x0 DUP1 REVERT JUMPDEST POP MLOAD PUSH1 0xF DUP5 SWAP1 SIGNEXTEND SWAP1 PUSH4 0xFFFFFFFF PUSH2 0x472A AND JUMP JUMPDEST SWAP3 SWAP2 POP POP JUMP JUMPDEST PUSH1 0x74 SLOAD PUSH1 0x1 PUSH1 0x80 SHL SWAP1 DIV PUSH1 0xF SIGNEXTEND DUP2 JUMP JUMPDEST PUSH1 0x40 DUP1 MLOAD PUSH10 0x23A0A6A2AFA0A226A4A7 PUSH1 0xB1 SHL DUP2 MSTORE SWAP1 MLOAD SWAP1 DUP2 SWAP1 SUB PUSH1 0xA ADD SWAP1 KECCAK256 PUSH2 0x2667 SWAP1 CALLER PUSH2 0x2702 JUMP JUMPDEST PUSH2 0x26A6 JUMPI PUSH1 0x40 DUP1 MLOAD PUSH3 0x461BCD PUSH1 0xE5 SHL DUP2 MSTORE PUSH1 0x20 PUSH1 0x4 DUP3 ADD MSTORE PUSH1 0x17 PUSH1 0x24 DUP3 ADD MSTORE PUSH1 0x0 DUP1 MLOAD PUSH1 0x20 PUSH2 0x5891 DUP4 CODECOPY DUP2 MLOAD SWAP2 MSTORE PUSH1 0x44 DUP3 ADD MSTORE SWAP1 MLOAD SWAP1 DUP2 SWAP1 SUB PUSH1 0x64 ADD SWAP1 REVERT JUMPDEST PUSH2 0x26B1 DUP2 PUSH1 0x64 PUSH2 0x464F JUMP JUMPDEST PUSH1 0x6B PUSH1 0x1 PUSH2 0x100 EXP DUP2 SLOAD DUP2 PUSH1 0x1 PUSH1 0x1 PUSH1 0x80 SHL SUB MUL NOT AND SWAP1 DUP4 PUSH1 0xF SIGNEXTEND PUSH1 0x1 PUSH1 0x1 PUSH1 0x80 SHL SUB AND MUL OR SWAP1 SSTORE POP POP JUMP JUMPDEST PUSH1 0x0 DUP3 DUP2 MSTORE PUSH1 0x33 PUSH1 0x20 MSTORE PUSH1 0x40 DUP2 KECCAK256 PUSH2 0x26FB SWAP1 DUP4 PUSH4 0xFFFFFFFF PUSH2 0x4D8F AND JUMP JUMPDEST SWAP4 SWAP3 POP POP POP JUMP JUMPDEST PUSH1 0x0 DUP3 DUP2 MSTORE PUSH1 0x33 PUSH1 0x20 MSTORE PUSH1 0x40 DUP2 KECCAK256 PUSH2 0x26FB SWAP1 DUP4 PUSH4 0xFFFFFFFF PUSH2 0x4D9B AND JUMP JUMPDEST PUSH1 0x0 SWAP1 DUP2 MSTORE PUSH1 0x73 PUSH1 0x20 MSTORE PUSH1 0x40 SWAP1 KECCAK256 SLOAD SWAP1 JUMP JUMPDEST PUSH1 0x75 PUSH1 0x20 MSTORE PUSH1 0x0 SWAP1 DUP2 MSTORE PUSH1 0x40 SWAP1 KECCAK256 SLOAD DUP2 JUMP JUMPDEST PUSH1 0x67 SLOAD PUSH1 0x1 PUSH1 0x1 PUSH1 0xA0 SHL SUB AND DUP2 JUMP JUMPDEST PUSH1 0x74 SLOAD PUSH1 0x0 SWAP1 PUSH1 0xF SIGNEXTEND PUSH1 0xFF DUP1 DUP5 AND SWAP1 PUSH1 0x8 DUP6 SWAP1 SHR AND DUP2 EQ ISZERO PUSH2 0x2793 JUMPI PUSH1 0x74 SLOAD PUSH2 0x2790 SWAP1 PUSH1 0xF DUP5 DUP2 SIGNEXTEND SWAP2 PUSH1 0x1 PUSH1 0x80 SHL SWAP1 DIV SWAP1 SIGNEXTEND PUSH4 0xFFFFFFFF PUSH2 0x4DB0 AND JUMP JUMPDEST SWAP2 POP JUMPDEST PUSH2 0x27A6 DUP2 PUSH1 0x10 DUP7 PUSH3 0xFFFFFF AND SWAP1 SHR PUSH2 0x3223 JUMP JUMPDEST ISZERO PUSH2 0x27D3 JUMPI PUSH1 0x74 SLOAD PUSH2 0x27CC SWAP1 PUSH1 0xF DUP5 DUP2 SIGNEXTEND SWAP2 PUSH1 0x1 PUSH1 0x80 SHL SWAP1 DIV SWAP1 SIGNEXTEND PUSH4 0xFFFFFFFF PUSH2 0x4DB0 AND JUMP JUMPDEST SWAP2 POP PUSH2 0x280F JUMP JUMPDEST PUSH2 0x27E6 PUSH1 0x10 DUP6 PUSH3 0xFFFFFF AND SWAP1 SHR DUP3 PUSH2 0x3223 JUMP JUMPDEST ISZERO PUSH2 0x280F JUMPI PUSH1 0x74 SLOAD PUSH2 0x280C SWAP1 PUSH1 0xF DUP5 DUP2 SIGNEXTEND SWAP2 PUSH1 0x1 PUSH1 0x80 SHL SWAP1 DIV SWAP1 SIGNEXTEND PUSH4 0xFFFFFFFF PUSH2 0x4DF6 AND JUMP JUMPDEST SWAP2 POP JUMPDEST POP SWAP3 SWAP2 POP POP JUMP JUMPDEST PUSH1 0x6A SLOAD PUSH1 0x65 SLOAD PUSH1 0x40 DUP1 MLOAD PUSH4 0x70A08231 PUSH1 0xE0 SHL DUP2 MSTORE CALLER PUSH1 0x4 DUP3 ADD MSTORE SWAP1 MLOAD PUSH1 0x1 PUSH1 0x1 PUSH1 0xA0 SHL SUB SWAP1 SWAP3 AND SWAP2 PUSH4 0x70A08231 SWAP2 PUSH1 0x24 DUP1 DUP3 ADD SWAP3 PUSH1 0x20 SWAP3 SWAP1 SWAP2 SWAP1 DUP3 SWAP1 SUB ADD DUP2 DUP7 DUP1 EXTCODESIZE ISZERO DUP1 ISZERO PUSH2 0x2864 JUMPI PUSH1 0x0 DUP1 REVERT JUMPDEST POP GAS STATICCALL ISZERO DUP1 ISZERO PUSH2 0x2878 JUMPI RETURNDATASIZE PUSH1 0x0 DUP1 RETURNDATACOPY RETURNDATASIZE PUSH1 0x0 REVERT JUMPDEST POP POP POP POP PUSH1 0x40 MLOAD RETURNDATASIZE PUSH1 0x20 DUP2 LT ISZERO PUSH2 0x288E JUMPI PUSH1 0x0 DUP1 REVERT JUMPDEST POP MLOAD GT ISZERO PUSH2 0x28E3 JUMPI PUSH1 0x40 DUP1 MLOAD PUSH3 0x461BCD PUSH1 0xE5 SHL DUP2 MSTORE PUSH1 0x20 PUSH1 0x4 DUP3 ADD MSTORE PUSH1 0x19 PUSH1 0x24 DUP3 ADD MSTORE PUSH32 0x546F6F206D616E792063686172616374657273206F776E656400000000000000 PUSH1 0x44 DUP3 ADD MSTORE SWAP1 MLOAD SWAP1 DUP2 SWAP1 SUB PUSH1 0x64 ADD SWAP1 REVERT JUMPDEST CALLER PUSH1 0x0 DUP2 DUP2 MSTORE PUSH1 0x70 PUSH1 0x20 MSTORE PUSH1 0x40 SWAP1 KECCAK256 SLOAD NUMBER GT PUSH2 0x2946 JUMPI PUSH1 0x40 DUP1 MLOAD PUSH3 0x461BCD PUSH1 0xE5 SHL DUP2 MSTORE PUSH1 0x20 PUSH1 0x4 DUP3 ADD MSTORE PUSH1 0x1C PUSH1 0x24 DUP3 ADD MSTORE PUSH32 0x4F6E6C792063616C6C61626C65206F6E63652070657220626C6F636B00000000 PUSH1 0x44 DUP3 ADD MSTORE SWAP1 MLOAD SWAP1 DUP2 SWAP1 SUB PUSH1 0x64 ADD SWAP1 REVERT JUMPDEST PUSH1 0x1 PUSH1 0x1 PUSH1 0xA0 SHL SUB DUP1 DUP3 AND PUSH1 0x0 SWAP1 DUP2 MSTORE PUSH1 0x70 PUSH1 0x20 SWAP1 DUP2 MSTORE PUSH1 0x40 SWAP2 DUP3 SWAP1 KECCAK256 NUMBER SWAP1 SSTORE PUSH1 0x65 SLOAD DUP3 MLOAD PUSH4 0x31A9108F PUSH1 0xE1 SHL DUP2 MSTORE PUSH1 0x4 DUP2 ADD DUP10 SWAP1 MSTORE SWAP3 MLOAD DUP9 SWAP5 CALLER SWAP5 SWAP3 AND SWAP3 PUSH4 0x6352211E SWAP3 PUSH1 0x24 DUP1 DUP3 ADD SWAP4 SWAP2 DUP3 SWAP1 SUB ADD DUP2 DUP7 DUP1 EXTCODESIZE ISZERO DUP1 ISZERO PUSH2 0x29A6 JUMPI PUSH1 0x0 DUP1 REVERT JUMPDEST POP GAS STATICCALL ISZERO DUP1 ISZERO PUSH2 0x29BA JUMPI RETURNDATASIZE PUSH1 0x0 DUP1 RETURNDATACOPY RETURNDATASIZE PUSH1 0x0 REVERT JUMPDEST POP POP POP POP PUSH1 0x40 MLOAD RETURNDATASIZE PUSH1 0x20 DUP2 LT ISZERO PUSH2 0x29D0 JUMPI PUSH1 0x0 DUP1 REVERT JUMPDEST POP MLOAD PUSH1 0x1 PUSH1 0x1 PUSH1 0xA0 SHL SUB AND EQ PUSH2 0x2A2D JUMPI PUSH1 0x40 DUP1 MLOAD PUSH3 0x461BCD PUSH1 0xE5 SHL DUP2 MSTORE PUSH1 0x20 PUSH1 0x4 DUP3 ADD MSTORE PUSH1 0x17 PUSH1 0x24 DUP3 ADD MSTORE PUSH32 0x4E6F742074686520636861726163746572206F776E6572000000000000000000 PUSH1 0x44 DUP3 ADD MSTORE SWAP1 MLOAD SWAP1 DUP2 SWAP1 SUB PUSH1 0x64 ADD SWAP1 REVERT JUMPDEST PUSH1 0x66 SLOAD PUSH1 0x40 DUP1 MLOAD PUSH4 0x31A9108F PUSH1 0xE1 SHL DUP2 MSTORE PUSH1 0x4 DUP2 ADD DUP8 SWAP1 MSTORE SWAP1 MLOAD DUP7 SWAP3 CALLER SWAP3 PUSH1 0x1 PUSH1 0x1 PUSH1 0xA0 SHL SUB SWAP1 SWAP2 AND SWAP2 PUSH4 0x6352211E SWAP2 PUSH1 0x24 DUP1 DUP3 ADD SWAP3 PUSH1 0x20 SWAP3 SWAP1 SWAP2 SWAP1 DUP3 SWAP1 SUB ADD DUP2 DUP7 DUP1 EXTCODESIZE ISZERO DUP1 ISZERO PUSH2 0x2A7D JUMPI PUSH1 0x0 DUP1 REVERT JUMPDEST POP GAS STATICCALL ISZERO DUP1 ISZERO PUSH2 0x2A91 JUMPI RETURNDATASIZE PUSH1 0x0 DUP1 RETURNDATACOPY RETURNDATASIZE PUSH1 0x0 REVERT JUMPDEST POP POP POP POP PUSH1 0x40 MLOAD RETURNDATASIZE PUSH1 0x20 DUP2 LT ISZERO PUSH2 0x2AA7 JUMPI PUSH1 0x0 DUP1 REVERT JUMPDEST POP MLOAD PUSH1 0x1 PUSH1 0x1 PUSH1 0xA0 SHL SUB AND EQ PUSH2 0x2B04 JUMPI PUSH1 0x40 DUP1 MLOAD PUSH3 0x461BCD PUSH1 0xE5 SHL DUP2 MSTORE PUSH1 0x20 PUSH1 0x4 DUP3 ADD MSTORE PUSH1 0x14 PUSH1 0x24 DUP3 ADD MSTORE PUSH32 0x4E6F742074686520776561706F6E206F776E6572000000000000000000000000 PUSH1 0x44 DUP3 ADD MSTORE SWAP1 MLOAD SWAP1 DUP2 SWAP1 SUB PUSH1 0x64 ADD SWAP1 REVERT JUMPDEST PUSH1 0x79 SLOAD PUSH1 0x66 SLOAD PUSH1 0x40 DUP1 MLOAD PUSH32 0x52BC59EA00000000000000000000000000000000000000000000000000000000 DUP2 MSTORE PUSH1 0x4 DUP2 ADD DUP10 SWAP1 MSTORE SWAP1 MLOAD PUSH1 0xFF SWAP1 SWAP4 AND SWAP3 PUSH1 0x1 PUSH1 0x1 PUSH1 0xA0 SHL SUB SWAP1 SWAP3 AND SWAP2 PUSH4 0x52BC59EA SWAP2 PUSH1 0x24 DUP1 DUP3 ADD SWAP3 PUSH1 0x20 SWAP3 SWAP1 SWAP2 SWAP1 DUP3 SWAP1 SUB ADD DUP2 DUP7 DUP1 EXTCODESIZE ISZERO DUP1 ISZERO PUSH2 0x2B72 JUMPI PUSH1 0x0 DUP1 REVERT JUMPDEST POP GAS STATICCALL ISZERO DUP1 ISZERO PUSH2 0x2B86 JUMPI RETURNDATASIZE PUSH1 0x0 DUP1 RETURNDATACOPY RETURNDATASIZE PUSH1 0x0 REVERT JUMPDEST POP POP POP POP PUSH1 0x40 MLOAD RETURNDATASIZE PUSH1 0x20 DUP2 LT ISZERO PUSH2 0x2B9C JUMPI PUSH1 0x0 DUP1 REVERT JUMPDEST POP MLOAD PUSH1 0xFF AND LT ISZERO PUSH2 0x2BF4 JUMPI PUSH1 0x40 DUP1 MLOAD PUSH3 0x461BCD PUSH1 0xE5 SHL DUP2 MSTORE PUSH1 0x20 PUSH1 0x4 DUP3 ADD MSTORE PUSH1 0x16 PUSH1 0x24 DUP3 ADD MSTORE PUSH32 0x4E6F7420656E6F756768206475726162696C6974792100000000000000000000 PUSH1 0x44 DUP3 ADD MSTORE SWAP1 MLOAD SWAP1 DUP2 SWAP1 SUB PUSH1 0x64 ADD SWAP1 REVERT JUMPDEST PUSH1 0x65 SLOAD PUSH1 0x6B SLOAD PUSH1 0x40 DUP1 MLOAD PUSH32 0x2EE6ACCF00000000000000000000000000000000000000000000000000000000 DUP2 MSTORE PUSH1 0x4 DUP2 ADD DUP11 SWAP1 MSTORE PUSH1 0xFF SWAP1 SWAP3 AND PUSH1 0x24 DUP4 ADD MSTORE MLOAD PUSH1 0x0 SWAP3 DUP4 SWAP3 DUP4 SWAP3 PUSH2 0x2C9F SWAP3 PUSH1 0x1 PUSH1 0x1 PUSH1 0xA0 SHL SUB AND SWAP2 PUSH4 0x2EE6ACCF SWAP2 PUSH1 0x44 DUP1 DUP4 ADD SWAP3 PUSH1 0x20 SWAP3 SWAP2 SWAP1 DUP3 SWAP1 SUB ADD DUP2 DUP9 DUP8 DUP1 EXTCODESIZE ISZERO DUP1 ISZERO PUSH2 0x2C6E JUMPI PUSH1 0x0 DUP1 REVERT JUMPDEST POP GAS CALL ISZERO DUP1 ISZERO PUSH2 0x2C82 JUMPI RETURNDATASIZE PUSH1 0x0 DUP1 RETURNDATACOPY RETURNDATASIZE PUSH1 0x0 REVERT JUMPDEST POP POP POP POP PUSH1 0x40 MLOAD RETURNDATASIZE PUSH1 0x20 DUP2 LT ISZERO PUSH2 0x2C98 JUMPI PUSH1 0x0 DUP1 REVERT JUMPDEST POP MLOAD PUSH2 0x2E6F JUMP JUMPDEST PUSH1 0x66 SLOAD PUSH1 0x40 DUP1 MLOAD PUSH32 0xD58227C800000000000000000000000000000000000000000000000000000000 DUP2 MSTORE PUSH1 0x4 DUP2 ADD DUP15 SWAP1 MSTORE PUSH1 0xFF DUP7 AND PUSH1 0x24 DUP3 ADD MSTORE SWAP1 MLOAD SWAP5 SWAP8 POP SWAP3 SWAP6 POP SWAP1 SWAP4 POP PUSH1 0x0 SWAP3 DUP4 SWAP3 DUP4 SWAP3 DUP4 SWAP3 PUSH1 0x1 PUSH1 0x1 PUSH1 0xA0 SHL SUB SWAP1 SWAP2 AND SWAP2 PUSH4 0xD58227C8 SWAP2 PUSH1 0x44 DUP1 DUP4 ADD SWAP3 PUSH1 0x80 SWAP3 SWAP2 SWAP1 DUP3 SWAP1 SUB ADD DUP2 DUP7 DUP1 EXTCODESIZE ISZERO DUP1 ISZERO PUSH2 0x2D1E JUMPI PUSH1 0x0 DUP1 REVERT JUMPDEST POP GAS STATICCALL ISZERO DUP1 ISZERO PUSH2 0x2D32 JUMPI RETURNDATASIZE PUSH1 0x0 DUP1 RETURNDATACOPY RETURNDATASIZE PUSH1 0x0 REVERT JUMPDEST POP POP POP POP PUSH1 0x40 MLOAD RETURNDATASIZE PUSH1 0x80 DUP2 LT ISZERO PUSH2 0x2D48 JUMPI PUSH1 0x0 DUP1 REVERT JUMPDEST DUP2 ADD SWAP1 DUP1 DUP1 MLOAD SWAP1 PUSH1 0x20 ADD SWAP1 SWAP3 SWAP2 SWAP1 DUP1 MLOAD SWAP1 PUSH1 0x20 ADD SWAP1 SWAP3 SWAP2 SWAP1 DUP1 MLOAD SWAP1 PUSH1 0x20 ADD SWAP1 SWAP3 SWAP2 SWAP1 DUP1 MLOAD SWAP1 PUSH1 0x20 ADD SWAP1 SWAP3 SWAP2 SWAP1 POP POP POP SWAP4 POP SWAP4 POP SWAP4 POP SWAP4 POP PUSH1 0x66 PUSH1 0x0 SWAP1 SLOAD SWAP1 PUSH2 0x100 EXP SWAP1 DIV PUSH1 0x1 PUSH1 0x1 PUSH1 0xA0 SHL SUB AND PUSH1 0x1 PUSH1 0x1 PUSH1 0xA0 SHL SUB AND PUSH4 0xE0760886 DUP14 PUSH1 0x79 PUSH1 0x0 SWAP1 SLOAD SWAP1 PUSH2 0x100 EXP SWAP1 DIV PUSH1 0xFF AND PUSH1 0x40 MLOAD DUP4 PUSH4 0xFFFFFFFF AND PUSH1 0xE0 SHL DUP2 MSTORE PUSH1 0x4 ADD DUP1 DUP4 DUP2 MSTORE PUSH1 0x20 ADD DUP3 PUSH1 0xFF AND PUSH1 0xFF AND DUP2 MSTORE PUSH1 0x20 ADD SWAP3 POP POP POP PUSH1 0x0 PUSH1 0x40 MLOAD DUP1 DUP4 SUB DUP2 PUSH1 0x0 DUP8 DUP1 EXTCODESIZE ISZERO DUP1 ISZERO PUSH2 0x2DF7 JUMPI PUSH1 0x0 DUP1 REVERT JUMPDEST POP GAS CALL ISZERO DUP1 ISZERO PUSH2 0x2E0B JUMPI RETURNDATASIZE PUSH1 0x0 DUP1 RETURNDATACOPY RETURNDATASIZE PUSH1 0x0 REVERT JUMPDEST POP POP POP POP PUSH2 0x2E1C DUP7 DUP6 DUP5 DUP9 DUP16 PUSH2 0x4E3B JUMP JUMPDEST PUSH2 0x2E60 DUP14 DUP14 PUSH2 0x2E2C DUP10 DUP8 DUP8 PUSH2 0x2288 JUMP JUMPDEST PUSH1 0x8 DUP16 PUSH4 0xFF000000 AND PUSH4 0xFFFFFFFF AND SWAP1 SHR PUSH1 0x8 DUP7 PUSH1 0xFF AND PUSH3 0xFFFFFF AND SWAP1 SHL DUP13 PUSH1 0xFF AND OR PUSH3 0xFFFFFF AND OR DUP16 PUSH3 0xFFFFFF AND PUSH2 0x4E50 JUMP JUMPDEST POP POP POP POP POP POP POP POP POP POP POP POP POP JUMP JUMPDEST PUSH1 0xFF DUP2 AND SWAP2 PUSH1 0x8 DUP3 SWAP1 SHR PUSH3 0xFFFFFF AND SWAP2 PUSH1 0x20 SHR PUSH8 0xFFFFFFFFFFFFFFFF AND SWAP1 JUMP JUMPDEST PUSH1 0x6E SLOAD PUSH1 0xF SIGNEXTEND DUP2 JUMP JUMPDEST PUSH1 0x0 DUP2 JUMP JUMPDEST PUSH2 0x2EA8 PUSH1 0x0 CALLER PUSH2 0x2702 JUMP JUMPDEST PUSH2 0x2EE5 JUMPI PUSH1 0x40 DUP1 MLOAD PUSH3 0x461BCD PUSH1 0xE5 SHL DUP2 MSTORE PUSH1 0x20 PUSH1 0x4 DUP3 ADD MSTORE PUSH1 0x9 PUSH1 0x24 DUP3 ADD MSTORE PUSH9 0x2737BA1030B236B4B7 PUSH1 0xB9 SHL PUSH1 0x44 DUP3 ADD MSTORE SWAP1 MLOAD SWAP1 DUP2 SWAP1 SUB PUSH1 0x64 ADD SWAP1 REVERT JUMPDEST PUSH1 0x77 DUP1 SLOAD PUSH20 0xFFFFFFFFFFFFFFFFFFFFFFFFFFFFFFFFFFFFFFFF NOT AND PUSH1 0x1 PUSH1 0x1 PUSH1 0xA0 SHL SUB SWAP3 SWAP1 SWAP3 AND SWAP2 SWAP1 SWAP2 OR SWAP1 SSTORE JUMP JUMPDEST PUSH1 0x74 SLOAD PUSH1 0xF SIGNEXTEND DUP2 JUMP JUMPDEST PUSH1 0x76 SLOAD DUP2 JUMP JUMPDEST PUSH1 0x40 DUP1 MLOAD PUSH10 0x23A0A6A2AFA0A226A4A7 PUSH1 0xB1 SHL DUP2 MSTORE SWAP1 MLOAD SWAP1 DUP2 SWAP1 SUB PUSH1 0xA ADD SWAP1 KECCAK256 PUSH2 0x2F4C SWAP1 CALLER PUSH2 0x2702 JUMP JUMPDEST PUSH2 0x2F8B JUMPI PUSH1 0x40 DUP1 MLOAD PUSH3 0x461BCD PUSH1 0xE5 SHL DUP2 MSTORE PUSH1 0x20 PUSH1 0x4 DUP3 ADD MSTORE PUSH1 0x17 PUSH1 0x24 DUP3 ADD MSTORE PUSH1 0x0 DUP1 MLOAD PUSH1 0x20 PUSH2 0x5891 DUP4 CODECOPY DUP2 MLOAD SWAP2 MSTORE PUSH1 0x44 DUP3 ADD MSTORE SWAP1 MLOAD SWAP1 DUP2 SWAP1 SUB PUSH1 0x64 ADD SWAP1 REVERT JUMPDEST PUSH2 0xF28 DUP3 DUP3 PUSH2 0x5003 JUMP JUMPDEST PUSH1 0x0 PUSH2 0x1C9F TIMESTAMP PUSH2 0xE10 PUSH4 0xFFFFFFFF PUSH2 0x5015 AND JUMP JUMPDEST PUSH1 0x66 SLOAD PUSH1 0x1 PUSH1 0x1 PUSH1 0xA0 SHL SUB AND DUP2 JUMP JUMPDEST PUSH2 0x2FC3 PUSH1 0x0 CALLER PUSH2 0x2702 JUMP JUMPDEST PUSH2 0x3000 JUMPI PUSH1 0x40 DUP1 MLOAD PUSH3 0x461BCD PUSH1 0xE5 SHL DUP2 MSTORE PUSH1 0x20 PUSH1 0x4 DUP3 ADD MSTORE PUSH1 0x9 PUSH1 0x24 DUP3 ADD MSTORE PUSH9 0x2737BA1030B236B4B7 PUSH1 0xB9 SHL PUSH1 0x44 DUP3 ADD MSTORE SWAP1 MLOAD SWAP1 DUP2 SWAP1 SUB PUSH1 0x64 ADD SWAP1 REVERT JUMPDEST PUSH1 0x20 PUSH1 0x71 SSTORE JUMP JUMPDEST PUSH1 0x0 JUMPDEST PUSH1 0x65 SLOAD PUSH1 0x40 DUP1 MLOAD PUSH4 0x70A08231 PUSH1 0xE0 SHL DUP2 MSTORE CALLER PUSH1 0x4 DUP3 ADD MSTORE SWAP1 MLOAD PUSH1 0x1 PUSH1 0x1 PUSH1 0xA0 SHL SUB SWAP1 SWAP3 AND SWAP2 PUSH4 0x70A08231 SWAP2 PUSH1 0x24 DUP1 DUP3 ADD SWAP3 PUSH1 0x20 SWAP3 SWAP1 SWAP2 SWAP1 DUP3 SWAP1 SUB ADD DUP2 DUP7 DUP1 EXTCODESIZE ISZERO DUP1 ISZERO PUSH2 0x3055 JUMPI PUSH1 0x0 DUP1 REVERT JUMPDEST POP GAS STATICCALL ISZERO DUP1 ISZERO PUSH2 0x3069 JUMPI RETURNDATASIZE PUSH1 0x0 DUP1 RETURNDATACOPY RETURNDATASIZE PUSH1 0x0 REVERT JUMPDEST POP POP POP POP PUSH1 0x40 MLOAD RETURNDATASIZE PUSH1 0x20 DUP2 LT ISZERO PUSH2 0x307F JUMPI PUSH1 0x0 DUP1 REVERT JUMPDEST POP MLOAD DUP2 LT ISZERO PUSH2 0x31C1 JUMPI PUSH1 0x65 SLOAD PUSH1 0x40 DUP1 MLOAD PUSH4 0x2F745C59 PUSH1 0xE0 SHL DUP2 MSTORE CALLER PUSH1 0x4 DUP3 ADD MSTORE PUSH1 0x24 DUP2 ADD DUP5 SWAP1 MSTORE SWAP1 MLOAD PUSH1 0x0 SWAP3 PUSH1 0x1 PUSH1 0x1 PUSH1 0xA0 SHL SUB AND SWAP2 PUSH4 0x2F745C59 SWAP2 PUSH1 0x44 DUP1 DUP4 ADD SWAP3 PUSH1 0x20 SWAP3 SWAP2 SWAP1 DUP3 SWAP1 SUB ADD DUP2 DUP7 DUP1 EXTCODESIZE ISZERO DUP1 ISZERO PUSH2 0x30DA JUMPI PUSH1 0x0 DUP1 REVERT JUMPDEST POP GAS STATICCALL ISZERO DUP1 ISZERO PUSH2 0x30EE JUMPI RETURNDATASIZE PUSH1 0x0 DUP1 RETURNDATACOPY RETURNDATASIZE PUSH1 0x0 REVERT JUMPDEST POP POP POP POP PUSH1 0x40 MLOAD RETURNDATASIZE PUSH1 0x20 DUP2 LT ISZERO PUSH2 0x3104 JUMPI PUSH1 0x0 DUP1 REVERT JUMPDEST POP MLOAD PUSH1 0x0 DUP2 DUP2 MSTORE PUSH1 0x73 PUSH1 0x20 MSTORE PUSH1 0x40 DUP2 KECCAK256 DUP1 SLOAD SWAP2 SWAP1 SSTORE SWAP1 SWAP2 POP PUSH2 0xFFFF DUP2 GT ISZERO PUSH2 0x312B JUMPI POP PUSH2 0xFFFF JUMPDEST PUSH1 0x65 SLOAD PUSH1 0x40 DUP1 MLOAD PUSH32 0xFC0057500000000000000000000000000000000000000000000000000000000 DUP2 MSTORE PUSH1 0x4 DUP2 ADD DUP6 SWAP1 MSTORE PUSH2 0xFFFF DUP5 AND PUSH1 0x24 DUP3 ADD MSTORE SWAP1 MLOAD PUSH1 0x1 PUSH1 0x1 PUSH1 0xA0 SHL SUB SWAP1 SWAP3 AND SWAP2 PUSH4 0xFC00575 SWAP2 PUSH1 0x44 DUP1 DUP3 ADD SWAP3 PUSH1 0x0 SWAP3 SWAP1 SWAP2 SWAP1 DUP3 SWAP1 SUB ADD DUP2 DUP4 DUP8 DUP1 EXTCODESIZE ISZERO DUP1 ISZERO PUSH2 0x319B JUMPI PUSH1 0x0 DUP1 REVERT JUMPDEST POP GAS CALL ISZERO DUP1 ISZERO PUSH2 0x31AF JUMPI RETURNDATASIZE PUSH1 0x0 DUP1 RETURNDATACOPY RETURNDATASIZE PUSH1 0x0 REVERT JUMPDEST POP POP PUSH1 0x1 SWAP1 SWAP5 ADD SWAP4 POP PUSH2 0x300A SWAP3 POP POP POP JUMP JUMPDEST POP JUMP JUMPDEST PUSH1 0x6C SLOAD PUSH1 0xF SIGNEXTEND DUP2 JUMP JUMPDEST PUSH1 0x6D SLOAD PUSH1 0xF SIGNEXTEND DUP2 JUMP JUMPDEST PUSH1 0x69 SLOAD PUSH1 0x1 PUSH1 0x1 PUSH1 0xA0 SHL SUB AND DUP2 JUMP JUMPDEST PUSH1 0x6C SLOAD PUSH1 0x1 PUSH1 0x80 SHL SWAP1 DIV PUSH1 0xF SIGNEXTEND DUP2 JUMP JUMPDEST PUSH1 0x0 DUP2 DUP2 MSTORE PUSH1 0x33 PUSH1 0x20 MSTORE PUSH1 0x40 DUP2 KECCAK256 PUSH2 0x2628 SWAP1 PUSH2 0x507C JUMP JUMPDEST PUSH1 0x65 SLOAD PUSH1 0x1 PUSH1 0x1 PUSH1 0xA0 SHL SUB AND DUP2 JUMP JUMPDEST PUSH3 0xFFFFFF AND SWAP1 JUMP JUMPDEST PUSH1 0x0 DUP2 PUSH1 0xFF AND PUSH1 0x4 DUP5 PUSH1 0x1 ADD PUSH1 0xFF AND DUP2 PUSH2 0x3239 JUMPI INVALID JUMPDEST MOD PUSH1 0xFF AND EQ SWAP1 POP SWAP3 SWAP2 POP POP JUMP JUMPDEST PUSH1 0x0 DUP3 DUP2 MSTORE PUSH1 0x33 PUSH1 0x20 MSTORE PUSH1 0x40 SWAP1 KECCAK256 PUSH1 0x2 ADD SLOAD PUSH2 0x3264 SWAP1 PUSH2 0x17E0 PUSH2 0x4AAD JUMP JUMPDEST PUSH2 0x1AAC JUMPI PUSH1 0x40 MLOAD PUSH3 0x461BCD PUSH1 0xE5 SHL DUP2 MSTORE PUSH1 0x4 ADD DUP1 DUP1 PUSH1 0x20 ADD DUP3 DUP2 SUB DUP3 MSTORE PUSH1 0x30 DUP2 MSTORE PUSH1 0x20 ADD DUP1 PUSH2 0x5902 PUSH1 0x30 SWAP2 CODECOPY PUSH1 0x40 ADD SWAP2 POP POP PUSH1 0x40 MLOAD DUP1 SWAP2 SUB SWAP1 REVERT JUMPDEST PUSH8 0x2666666666666666 DUP2 JUMP JUMPDEST PUSH2 0x32B6 PUSH1 0x0 CALLER PUSH2 0x2702 JUMP JUMPDEST PUSH2 0x32F3 JUMPI PUSH1 0x40 DUP1 MLOAD PUSH3 0x461BCD PUSH1 0xE5 SHL DUP2 MSTORE PUSH1 0x20 PUSH1 0x4 DUP3 ADD MSTORE PUSH1 0x9 PUSH1 0x24 DUP3 ADD MSTORE PUSH9 0x2737BA1030B236B4B7 PUSH1 0xB9 SHL PUSH1 0x44 DUP3 ADD MSTORE SWAP1 MLOAD SWAP1 DUP2 SWAP1 SUB PUSH1 0x64 ADD SWAP1 REVERT JUMPDEST PUSH1 0x79 DUP1 SLOAD PUSH1 0x1 PUSH1 0x1 PUSH1 0xA0 SHL SUB SWAP1 SWAP3 AND PUSH2 0x100 MUL PUSH32 0xFFFFFFFFFFFFFFFFFFFFFF0000000000000000000000000000000000000000FF SWAP1 SWAP3 AND SWAP2 SWAP1 SWAP2 OR SWAP1 SSTORE JUMP JUMPDEST PUSH1 0x40 DUP1 MLOAD PUSH10 0x23A0A6A2AFA0A226A4A7 PUSH1 0xB1 SHL DUP2 MSTORE SWAP1 MLOAD SWAP1 DUP2 SWAP1 SUB PUSH1 0xA ADD SWAP1 KECCAK256 PUSH2 0x335B SWAP1 CALLER PUSH2 0x2702 JUMP JUMPDEST PUSH2 0x339A JUMPI PUSH1 0x40 DUP1 MLOAD PUSH3 0x461BCD PUSH1 0xE5 SHL DUP2 MSTORE PUSH1 0x20 PUSH1 0x4 DUP3 ADD MSTORE PUSH1 0x17 PUSH1 0x24 DUP3 ADD MSTORE PUSH1 0x0 DUP1 MLOAD PUSH1 0x20 PUSH2 0x5891 DUP4 CODECOPY DUP2 MLOAD SWAP2 MSTORE PUSH1 0x44 DUP3 ADD MSTORE SWAP1 MLOAD SWAP1 DUP2 SWAP1 SUB PUSH1 0x64 ADD SWAP1 REVERT JUMPDEST PUSH1 0x71 SSTORE JUMP JUMPDEST PUSH1 0x6D SLOAD PUSH1 0x1 PUSH1 0x80 SHL SWAP1 DIV PUSH1 0xF SIGNEXTEND DUP2 JUMP JUMPDEST PUSH2 0x33BA PUSH1 0x0 CALLER PUSH2 0x2702 JUMP JUMPDEST PUSH2 0x33F7 JUMPI PUSH1 0x40 DUP1 MLOAD PUSH3 0x461BCD PUSH1 0xE5 SHL DUP2 MSTORE PUSH1 0x20 PUSH1 0x4 DUP3 ADD MSTORE PUSH1 0x9 PUSH1 0x24 DUP3 ADD MSTORE PUSH9 0x2737BA1030B236B4B7 PUSH1 0xB9 SHL PUSH1 0x44 DUP3 ADD MSTORE SWAP1 MLOAD SWAP1 DUP2 SWAP1 SUB PUSH1 0x64 ADD SWAP1 REVERT JUMPDEST PUSH1 0x69 DUP1 SLOAD PUSH20 0xFFFFFFFFFFFFFFFFFFFFFFFFFFFFFFFFFFFFFFFF NOT AND PUSH1 0x1 PUSH1 0x1 PUSH1 0xA0 SHL SUB SWAP3 SWAP1 SWAP3 AND SWAP2 SWAP1 SWAP2 OR SWAP1 SSTORE JUMP JUMPDEST PUSH1 0x40 DUP1 MLOAD PUSH10 0x23A0A6A2AFA0A226A4A7 PUSH1 0xB1 SHL DUP2 MSTORE SWAP1 MLOAD SWAP1 DUP2 SWAP1 SUB PUSH1 0xA ADD SWAP1 KECCAK256 PUSH2 0x344F SWAP1 CALLER PUSH2 0x2702 JUMP JUMPDEST PUSH2 0x348E JUMPI PUSH1 0x40 DUP1 MLOAD PUSH3 0x461BCD PUSH1 0xE5 SHL DUP2 MSTORE PUSH1 0x20 PUSH1 0x4 DUP3 ADD MSTORE PUSH1 0x17 PUSH1 0x24 DUP3 ADD MSTORE PUSH1 0x0 DUP1 MLOAD PUSH1 0x20 PUSH2 0x5891 DUP4 CODECOPY DUP2 MLOAD SWAP2 MSTORE PUSH1 0x44 DUP3 ADD MSTORE SWAP1 MLOAD SWAP1 DUP2 SWAP1 SUB PUSH1 0x64 ADD SWAP1 REVERT JUMPDEST PUSH2 0x3499 DUP2 PUSH1 0x64 PUSH2 0x464F JUMP JUMPDEST PUSH1 0x6E DUP1 SLOAD PUSH1 0xF SWAP3 SWAP1 SWAP3 SIGNEXTEND PUSH1 0x1 PUSH1 0x1 PUSH1 0x80 SHL SUB AND PUSH16 0xFFFFFFFFFFFFFFFFFFFFFFFFFFFFFFFF NOT SWAP1 SWAP3 AND SWAP2 SWAP1 SWAP2 OR SWAP1 SSTORE POP JUMP JUMPDEST PUSH1 0x6A SLOAD PUSH1 0x65 SLOAD PUSH1 0x40 DUP1 MLOAD PUSH4 0x70A08231 PUSH1 0xE0 SHL DUP2 MSTORE CALLER PUSH1 0x4 DUP3 ADD MSTORE SWAP1 MLOAD PUSH1 0x1 PUSH1 0x1 PUSH1 0xA0 SHL SUB SWAP1 SWAP3 AND SWAP2 PUSH4 0x70A08231 SWAP2 PUSH1 0x24 DUP1 DUP3 ADD SWAP3 PUSH1 0x20 SWAP3 SWAP1 SWAP2 SWAP1 DUP3 SWAP1 SUB ADD DUP2 DUP7 DUP1 EXTCODESIZE ISZERO DUP1 ISZERO PUSH2 0x3518 JUMPI PUSH1 0x0 DUP1 REVERT JUMPDEST POP GAS STATICCALL ISZERO DUP1 ISZERO PUSH2 0x352C JUMPI RETURNDATASIZE PUSH1 0x0 DUP1 RETURNDATACOPY RETURNDATASIZE PUSH1 0x0 REVERT JUMPDEST POP POP POP POP PUSH1 0x40 MLOAD RETURNDATASIZE PUSH1 0x20 DUP2 LT ISZERO PUSH2 0x3542 JUMPI PUSH1 0x0 DUP1 REVERT JUMPDEST POP MLOAD GT ISZERO PUSH2 0x3597 JUMPI PUSH1 0x40 DUP1 MLOAD PUSH3 0x461BCD PUSH1 0xE5 SHL DUP2 MSTORE PUSH1 0x20 PUSH1 0x4 DUP3 ADD MSTORE PUSH1 0x19 PUSH1 0x24 DUP3 ADD MSTORE PUSH32 0x546F6F206D616E792063686172616374657273206F776E656400000000000000 PUSH1 0x44 DUP3 ADD MSTORE SWAP1 MLOAD SWAP1 DUP2 SWAP1 SUB PUSH1 0x64 ADD SWAP1 REVERT JUMPDEST CALLER PUSH1 0x0 DUP2 DUP2 MSTORE PUSH1 0x70 PUSH1 0x20 MSTORE PUSH1 0x40 SWAP1 KECCAK256 SLOAD NUMBER GT PUSH2 0x35FA JUMPI PUSH1 0x40 DUP1 MLOAD PUSH3 0x461BCD PUSH1 0xE5 SHL DUP2 MSTORE PUSH1 0x20 PUSH1 0x4 DUP3 ADD MSTORE PUSH1 0x1C PUSH1 0x24 DUP3 ADD MSTORE PUSH32 0x4F6E6C792063616C6C61626C65206F6E63652070657220626C6F636B00000000 PUSH1 0x44 DUP3 ADD MSTORE SWAP1 MLOAD SWAP1 DUP2 SWAP1 SUB PUSH1 0x64 ADD SWAP1 REVERT JUMPDEST PUSH1 0x1 PUSH1 0x1 PUSH1 0xA0 SHL SUB DUP2 AND PUSH1 0x0 SWAP1 DUP2 MSTORE PUSH1 0x70 PUSH1 0x20 MSTORE PUSH1 0x40 DUP2 KECCAK256 NUMBER SWAP1 SSTORE PUSH1 0x6D SLOAD PUSH1 0x1 PUSH1 0x80 SHL SWAP1 DIV PUSH1 0xF SIGNEXTEND SWAP1 PUSH2 0x362C DUP3 PUSH2 0x2598 JUMP JUMPDEST CALLER PUSH1 0x0 SWAP1 DUP2 MSTORE PUSH1 0x75 PUSH1 0x20 SWAP1 DUP2 MSTORE PUSH1 0x40 DUP1 DUP4 KECCAK256 SLOAD PUSH1 0x72 SWAP1 SWAP3 MSTORE DUP3 KECCAK256 SLOAD SWAP3 SWAP4 POP SWAP1 SWAP2 PUSH2 0x3657 SWAP2 SWAP1 DUP5 PUSH2 0x1763 JUMP JUMPDEST PUSH1 0x67 SLOAD PUSH1 0x40 DUP1 MLOAD PUSH4 0x70A08231 PUSH1 0xE0 SHL DUP2 MSTORE CALLER PUSH1 0x4 DUP3 ADD MSTORE SWAP1 MLOAD SWAP3 SWAP6 POP DUP6 SWAP5 POP PUSH1 0x1 PUSH1 0x1 PUSH1 0xA0 SHL SUB SWAP1 SWAP2 AND SWAP3 POP PUSH4 0x70A08231 SWAP2 PUSH1 0x24 DUP1 DUP4 ADD SWAP3 PUSH1 0x20 SWAP3 SWAP2 SWAP1 DUP3 SWAP1 SUB ADD DUP2 DUP7 DUP1 EXTCODESIZE ISZERO DUP1 ISZERO PUSH2 0x36A8 JUMPI PUSH1 0x0 DUP1 REVERT JUMPDEST POP GAS STATICCALL ISZERO DUP1 ISZERO PUSH2 0x36BC JUMPI RETURNDATASIZE PUSH1 0x0 DUP1 RETURNDATACOPY RETURNDATASIZE PUSH1 0x0 REVERT JUMPDEST POP POP POP POP PUSH1 0x40 MLOAD RETURNDATASIZE PUSH1 0x20 DUP2 LT ISZERO PUSH2 0x36D2 JUMPI PUSH1 0x0 DUP1 REVERT JUMPDEST POP MLOAD LT ISZERO PUSH2 0x36DF DUP4 PUSH2 0x4B8F JUMP JUMPDEST PUSH1 0x40 MLOAD PUSH1 0x20 ADD DUP1 DUP1 PUSH32 0x4E6F7420656E6F7567682048454C4C21204E6565642000000000000000000000 DUP2 MSTORE POP PUSH1 0x16 ADD DUP3 DUP1 MLOAD SWAP1 PUSH1 0x20 ADD SWAP1 DUP1 DUP4 DUP4 JUMPDEST PUSH1 0x20 DUP4 LT PUSH2 0x3739 JUMPI DUP1 MLOAD DUP3 MSTORE PUSH1 0x1F NOT SWAP1 SWAP3 ADD SWAP2 PUSH1 0x20 SWAP2 DUP3 ADD SWAP2 ADD PUSH2 0x371A JUMP JUMPDEST PUSH1 0x1 DUP4 PUSH1 0x20 SUB PUSH2 0x100 EXP SUB DUP1 NOT DUP3 MLOAD AND DUP2 DUP5 MLOAD AND DUP1 DUP3 OR DUP6 MSTORE POP POP POP POP POP POP SWAP1 POP ADD SWAP2 POP POP PUSH1 0x40 MLOAD PUSH1 0x20 DUP2 DUP4 SUB SUB DUP2 MSTORE SWAP1 PUSH1 0x40 MSTORE SWAP1 PUSH2 0x37B9 JUMPI PUSH1 0x40 MLOAD PUSH3 0x461BCD PUSH1 0xE5 SHL DUP2 MSTORE PUSH1 0x20 PUSH1 0x4 DUP3 ADD DUP2 DUP2 MSTORE DUP4 MLOAD PUSH1 0x24 DUP5 ADD MSTORE DUP4 MLOAD SWAP1 SWAP3 DUP4 SWAP3 PUSH1 0x44 SWAP1 SWAP2 ADD SWAP2 SWAP1 DUP6 ADD SWAP1 DUP1 DUP4 DUP4 PUSH1 0x0 DUP4 ISZERO PUSH2 0x20BF JUMPI DUP2 DUP2 ADD MLOAD DUP4 DUP3 ADD MSTORE PUSH1 0x20 ADD PUSH2 0x20A7 JUMP JUMPDEST POP PUSH1 0x6D SLOAD PUSH2 0x37D2 SWAP1 CALLER SWAP1 PUSH1 0x1 PUSH1 0x80 SHL SWAP1 DIV PUSH1 0xF SIGNEXTEND PUSH2 0x48EF JUMP JUMPDEST PUSH1 0x69 SLOAD PUSH1 0x40 DUP1 MLOAD PUSH4 0xE20F615 PUSH1 0xE2 SHL DUP2 MSTORE CALLER PUSH1 0x4 DUP3 ADD MSTORE SWAP1 MLOAD PUSH1 0x0 SWAP3 PUSH1 0x1 PUSH1 0x1 PUSH1 0xA0 SHL SUB AND SWAP2 PUSH4 0x3883D854 SWAP2 PUSH1 0x24 DUP1 DUP4 ADD SWAP3 PUSH1 0x20 SWAP3 SWAP2 SWAP1 DUP3 SWAP1 SUB ADD DUP2 DUP7 DUP1 EXTCODESIZE ISZERO DUP1 ISZERO PUSH2 0x381D JUMPI PUSH1 0x0 DUP1 REVERT JUMPDEST POP GAS STATICCALL ISZERO DUP1 ISZERO PUSH2 0x3831 JUMPI RETURNDATASIZE PUSH1 0x0 DUP1 RETURNDATACOPY RETURNDATASIZE PUSH1 0x0 REVERT JUMPDEST POP POP POP POP PUSH1 0x40 MLOAD RETURNDATASIZE PUSH1 0x20 DUP2 LT ISZERO PUSH2 0x3847 JUMPI PUSH1 0x0 DUP1 REVERT JUMPDEST POP MLOAD PUSH1 0x66 SLOAD PUSH1 0x40 DUP1 MLOAD PUSH4 0x40C10F19 PUSH1 0xE0 SHL DUP2 MSTORE CALLER PUSH1 0x4 DUP3 ADD MSTORE PUSH1 0x24 DUP2 ADD DUP5 SWAP1 MSTORE SWAP1 MLOAD SWAP3 SWAP4 POP PUSH1 0x1 PUSH1 0x1 PUSH1 0xA0 SHL SUB SWAP1 SWAP2 AND SWAP2 PUSH4 0x40C10F19 SWAP2 PUSH1 0x44 DUP1 DUP3 ADD SWAP3 PUSH1 0x20 SWAP3 SWAP1 SWAP2 SWAP1 DUP3 SWAP1 SUB ADD DUP2 PUSH1 0x0 DUP8 DUP1 EXTCODESIZE ISZERO DUP1 ISZERO PUSH2 0x38A0 JUMPI PUSH1 0x0 DUP1 REVERT JUMPDEST POP GAS CALL ISZERO DUP1 ISZERO PUSH2 0x38B4 JUMPI RETURNDATASIZE PUSH1 0x0 DUP1 RETURNDATACOPY RETURNDATASIZE PUSH1 0x0 REVERT JUMPDEST POP POP POP POP PUSH1 0x40 MLOAD RETURNDATASIZE PUSH1 0x20 DUP2 LT ISZERO PUSH2 0x38CA JUMPI PUSH1 0x0 DUP1 REVERT JUMPDEST POP POP POP POP POP POP POP JUMP JUMPDEST PUSH1 0x40 DUP1 MLOAD PUSH10 0x23A0A6A2AFA0A226A4A7 PUSH1 0xB1 SHL DUP2 MSTORE SWAP1 MLOAD SWAP1 DUP2 SWAP1 SUB PUSH1 0xA ADD SWAP1 KECCAK256 PUSH2 0x38FC SWAP1 CALLER PUSH2 0x2702 JUMP JUMPDEST PUSH2 0x393B JUMPI PUSH1 0x40 DUP1 MLOAD PUSH3 0x461BCD PUSH1 0xE5 SHL DUP2 MSTORE PUSH1 0x20 PUSH1 0x4 DUP3 ADD MSTORE PUSH1 0x17 PUSH1 0x24 DUP3 ADD MSTORE PUSH1 0x0 DUP1 MLOAD PUSH1 0x20 PUSH2 0x5891 DUP4 CODECOPY DUP2 MLOAD SWAP2 MSTORE PUSH1 0x44 DUP3 ADD MSTORE SWAP1 MLOAD SWAP1 DUP2 SWAP1 SUB PUSH1 0x64 ADD SWAP1 REVERT JUMPDEST PUSH2 0xF28 DUP3 DUP3 PUSH2 0x4800 JUMP JUMPDEST PUSH2 0x3950 PUSH1 0x0 CALLER PUSH2 0x2702 JUMP JUMPDEST PUSH2 0x398D JUMPI PUSH1 0x40 DUP1 MLOAD PUSH3 0x461BCD PUSH1 0xE5 SHL DUP2 MSTORE PUSH1 0x20 PUSH1 0x4 DUP3 ADD MSTORE PUSH1 0x9 PUSH1 0x24 DUP3 ADD MSTORE PUSH9 0x2737BA1030B236B4B7 PUSH1 0xB9 SHL PUSH1 0x44 DUP3 ADD MSTORE SWAP1 MLOAD SWAP1 DUP2 SWAP1 SUB PUSH1 0x64 ADD SWAP1 REVERT JUMPDEST PUSH1 0x67 SLOAD PUSH1 0x40 DUP1 MLOAD PUSH4 0xA9059CBB PUSH1 0xE0 SHL DUP2 MSTORE CALLER PUSH1 0x4 DUP3 ADD MSTORE PUSH1 0x24 DUP2 ADD DUP5 SWAP1 MSTORE SWAP1 MLOAD PUSH1 0x1 PUSH1 0x1 PUSH1 0xA0 SHL SUB SWAP1 SWAP3 AND SWAP2 PUSH4 0xA9059CBB SWAP2 PUSH1 0x44 DUP1 DUP3 ADD SWAP3 PUSH1 0x20 SWAP3 SWAP1 SWAP2 SWAP1 DUP3 SWAP1 SUB ADD DUP2 PUSH1 0x0 DUP8 DUP1 EXTCODESIZE ISZERO DUP1 ISZERO PUSH2 0x39E1 JUMPI PUSH1 0x0 DUP1 REVERT JUMPDEST POP GAS CALL ISZERO DUP1 ISZERO PUSH2 0x39F5 JUMPI RETURNDATASIZE PUSH1 0x0 DUP1 RETURNDATACOPY RETURNDATASIZE PUSH1 0x0 REVERT JUMPDEST POP POP POP POP PUSH1 0x40 MLOAD RETURNDATASIZE PUSH1 0x20 DUP2 LT ISZERO PUSH2 0x3A0B JUMPI PUSH1 0x0 DUP1 REVERT JUMPDEST POP POP POP JUMP JUMPDEST PUSH1 0x40 DUP1 MLOAD PUSH10 0x23A0A6A2AFA0A226A4A7 PUSH1 0xB1 SHL DUP2 MSTORE SWAP1 MLOAD SWAP1 DUP2 SWAP1 SUB PUSH1 0xA ADD SWAP1 KECCAK256 PUSH2 0x3A39 SWAP1 CALLER PUSH2 0x2702 JUMP JUMPDEST PUSH2 0x3A78 JUMPI PUSH1 0x40 DUP1 MLOAD PUSH3 0x461BCD PUSH1 0xE5 SHL DUP2 MSTORE PUSH1 0x20 PUSH1 0x4 DUP3 ADD MSTORE PUSH1 0x17 PUSH1 0x24 DUP3 ADD MSTORE PUSH1 0x0 DUP1 MLOAD PUSH1 0x20 PUSH2 0x5891 DUP4 CODECOPY DUP2 MLOAD SWAP2 MSTORE PUSH1 0x44 DUP3 ADD MSTORE SWAP1 MLOAD SWAP1 DUP2 SWAP1 SUB PUSH1 0x64 ADD SWAP1 REVERT JUMPDEST PUSH2 0xF28 DUP3 DUP3 PUSH2 0x4A18 JUMP JUMPDEST PUSH1 0x6A SLOAD PUSH1 0x65 SLOAD PUSH1 0x40 DUP1 MLOAD PUSH4 0x70A08231 PUSH1 0xE0 SHL DUP2 MSTORE CALLER PUSH1 0x4 DUP3 ADD MSTORE SWAP1 MLOAD PUSH1 0x1 PUSH1 0x1 PUSH1 0xA0 SHL SUB SWAP1 SWAP3 AND SWAP2 PUSH4 0x70A08231 SWAP2 PUSH1 0x24 DUP1 DUP3 ADD SWAP3 PUSH1 0x20 SWAP3 SWAP1 SWAP2 SWAP1 DUP3 SWAP1 SUB ADD DUP2 DUP7 DUP1 EXTCODESIZE ISZERO DUP1 ISZERO PUSH2 0x3AD0 JUMPI PUSH1 0x0 DUP1 REVERT JUMPDEST POP GAS STATICCALL ISZERO DUP1 ISZERO PUSH2 0x3AE4 JUMPI RETURNDATASIZE PUSH1 0x0 DUP1 RETURNDATACOPY RETURNDATASIZE PUSH1 0x0 REVERT JUMPDEST POP POP POP POP PUSH1 0x40 MLOAD RETURNDATASIZE PUSH1 0x20 DUP2 LT ISZERO PUSH2 0x3AFA JUMPI PUSH1 0x0 DUP1 REVERT JUMPDEST POP MLOAD GT ISZERO PUSH2 0x3B4F JUMPI PUSH1 0x40 DUP1 MLOAD PUSH3 0x461BCD PUSH1 0xE5 SHL DUP2 MSTORE PUSH1 0x20 PUSH1 0x4 DUP3 ADD MSTORE PUSH1 0x19 PUSH1 0x24 DUP3 ADD MSTORE PUSH32 0x546F6F206D616E792063686172616374657273206F776E656400000000000000 PUSH1 0x44 DUP3 ADD MSTORE SWAP1 MLOAD SWAP1 DUP2 SWAP1 SUB PUSH1 0x64 ADD SWAP1 REVERT JUMPDEST CALLER PUSH1 0x0 DUP2 DUP2 MSTORE PUSH1 0x70 PUSH1 0x20 MSTORE PUSH1 0x40 SWAP1 KECCAK256 SLOAD NUMBER GT PUSH2 0x3BB2 JUMPI PUSH1 0x40 DUP1 MLOAD PUSH3 0x461BCD PUSH1 0xE5 SHL DUP2 MSTORE PUSH1 0x20 PUSH1 0x4 DUP3 ADD MSTORE PUSH1 0x1C PUSH1 0x24 DUP3 ADD MSTORE PUSH32 0x4F6E6C792063616C6C61626C65206F6E63652070657220626C6F636B00000000 PUSH1 0x44 DUP3 ADD MSTORE SWAP1 MLOAD SWAP1 DUP2 SWAP1 SUB PUSH1 0x64 ADD SWAP1 REVERT JUMPDEST PUSH1 0x1 PUSH1 0x1 PUSH1 0xA0 SHL SUB DUP2 AND PUSH1 0x0 SWAP1 DUP2 MSTORE PUSH1 0x70 PUSH1 0x20 MSTORE PUSH1 0x40 DUP2 KECCAK256 NUMBER SWAP1 SSTORE PUSH1 0x6B SLOAD PUSH2 0x100 SWAP1 DIV PUSH1 0xF SIGNEXTEND SWAP1 PUSH2 0x3BE2 DUP3 PUSH2 0x2598 JUMP JUMPDEST CALLER PUSH1 0x0 SWAP1 DUP2 MSTORE PUSH1 0x75 PUSH1 0x20 SWAP1 DUP2 MSTORE PUSH1 0x40 DUP1 DUP4 KECCAK256 SLOAD PUSH1 0x72 SWAP1 SWAP3 MSTORE DUP3 KECCAK256 SLOAD SWAP3 SWAP4 POP SWAP1 SWAP2 PUSH2 0x3C0D SWAP2 SWAP1 DUP5 PUSH2 0x1763 JUMP JUMPDEST PUSH1 0x67 SLOAD PUSH1 0x40 DUP1 MLOAD PUSH4 0x70A08231 PUSH1 0xE0 SHL DUP2 MSTORE CALLER PUSH1 0x4 DUP3 ADD MSTORE SWAP1 MLOAD SWAP3 SWAP6 POP DUP6 SWAP5 POP PUSH1 0x1 PUSH1 0x1 PUSH1 0xA0 SHL SUB SWAP1 SWAP2 AND SWAP3 POP PUSH4 0x70A08231 SWAP2 PUSH1 0x24 DUP1 DUP4 ADD SWAP3 PUSH1 0x20 SWAP3 SWAP2 SWAP1 DUP3 SWAP1 SUB ADD DUP2 DUP7 DUP1 EXTCODESIZE ISZERO DUP1 ISZERO PUSH2 0x3C5E JUMPI PUSH1 0x0 DUP1 REVERT JUMPDEST POP GAS STATICCALL ISZERO DUP1 ISZERO PUSH2 0x3C72 JUMPI RETURNDATASIZE PUSH1 0x0 DUP1 RETURNDATACOPY RETURNDATASIZE PUSH1 0x0 REVERT JUMPDEST POP POP POP POP PUSH1 0x40 MLOAD RETURNDATASIZE PUSH1 0x20 DUP2 LT ISZERO PUSH2 0x3C88 JUMPI PUSH1 0x0 DUP1 REVERT JUMPDEST POP MLOAD LT ISZERO PUSH2 0x3C95 DUP4 PUSH2 0x4B8F JUMP JUMPDEST PUSH1 0x40 MLOAD PUSH1 0x20 ADD DUP1 DUP1 PUSH32 0x4E6F7420656E6F7567682048454C4C21204E6565642000000000000000000000 DUP2 MSTORE POP PUSH1 0x16 ADD DUP3 DUP1 MLOAD SWAP1 PUSH1 0x20 ADD SWAP1 DUP1 DUP4 DUP4 JUMPDEST PUSH1 0x20 DUP4 LT PUSH2 0x3CEF JUMPI DUP1 MLOAD DUP3 MSTORE PUSH1 0x1F NOT SWAP1 SWAP3 ADD SWAP2 PUSH1 0x20 SWAP2 DUP3 ADD SWAP2 ADD PUSH2 0x3CD0 JUMP JUMPDEST PUSH1 0x1 DUP4 PUSH1 0x20 SUB PUSH2 0x100 EXP SUB DUP1 NOT DUP3 MLOAD AND DUP2 DUP5 MLOAD AND DUP1 DUP3 OR DUP6 MSTORE POP POP POP POP POP POP SWAP1 POP ADD SWAP2 POP POP PUSH1 0x40 MLOAD PUSH1 0x20 DUP2 DUP4 SUB SUB DUP2 MSTORE SWAP1 PUSH1 0x40 MSTORE SWAP1 PUSH2 0x3D6F JUMPI PUSH1 0x40 MLOAD PUSH3 0x461BCD PUSH1 0xE5 SHL DUP2 MSTORE PUSH1 0x20 PUSH1 0x4 DUP3 ADD DUP2 DUP2 MSTORE DUP4 MLOAD PUSH1 0x24 DUP5 ADD MSTORE DUP4 MLOAD SWAP1 SWAP3 DUP4 SWAP3 PUSH1 0x44 SWAP1 SWAP2 ADD SWAP2 SWAP1 DUP6 ADD SWAP1 DUP1 DUP4 DUP4 PUSH1 0x0 DUP4 ISZERO PUSH2 0x20BF JUMPI DUP2 DUP2 ADD MLOAD DUP4 DUP3 ADD MSTORE PUSH1 0x20 ADD PUSH2 0x20A7 JUMP JUMPDEST POP PUSH1 0x6A SLOAD PUSH1 0x65 SLOAD PUSH1 0x40 DUP1 MLOAD PUSH4 0x70A08231 PUSH1 0xE0 SHL DUP2 MSTORE CALLER PUSH1 0x4 DUP3 ADD MSTORE SWAP1 MLOAD PUSH1 0x1 PUSH1 0x1 PUSH1 0xA0 SHL SUB SWAP1 SWAP3 AND SWAP2 PUSH4 0x70A08231 SWAP2 PUSH1 0x24 DUP1 DUP3 ADD SWAP3 PUSH1 0x20 SWAP3 SWAP1 SWAP2 SWAP1 DUP3 SWAP1 SUB ADD DUP2 DUP7 DUP1 EXTCODESIZE ISZERO DUP1 ISZERO PUSH2 0x3DBE JUMPI PUSH1 0x0 DUP1 REVERT JUMPDEST POP GAS STATICCALL ISZERO DUP1 ISZERO PUSH2 0x3DD2 JUMPI RETURNDATASIZE PUSH1 0x0 DUP1 RETURNDATACOPY RETURNDATASIZE PUSH1 0x0 REVERT JUMPDEST POP POP POP POP PUSH1 0x40 MLOAD RETURNDATASIZE PUSH1 0x20 DUP2 LT ISZERO PUSH2 0x3DE8 JUMPI PUSH1 0x0 DUP1 REVERT JUMPDEST POP MLOAD PUSH1 0x6A SLOAD PUSH1 0x40 DUP1 MLOAD PUSH32 0x596F752063616E206F6E6C792068617665200000000000000000000000000000 PUSH1 0x20 DUP3 ADD MSTORE PUSH1 0x32 DUP2 ADD SWAP3 SWAP1 SWAP3 MSTORE PUSH32 0x2063686172616374657273210000000000000000000000000000000000000000 PUSH1 0x52 DUP4 ADD MSTORE DUP1 MLOAD PUSH1 0x3E DUP2 DUP5 SUB ADD DUP2 MSTORE PUSH1 0x5E SWAP1 SWAP3 ADD SWAP1 MSTORE SWAP2 GT PUSH2 0x3EA3 JUMPI PUSH1 0x40 MLOAD PUSH3 0x461BCD PUSH1 0xE5 SHL DUP2 MSTORE PUSH1 0x20 PUSH1 0x4 DUP3 ADD DUP2 DUP2 MSTORE DUP4 MLOAD PUSH1 0x24 DUP5 ADD MSTORE DUP4 MLOAD SWAP1 SWAP3 DUP4 SWAP3 PUSH1 0x44 SWAP1 SWAP2 ADD SWAP2 SWAP1 DUP6 ADD SWAP1 DUP1 DUP4 DUP4 PUSH1 0x0 DUP4 ISZERO PUSH2 0x20BF JUMPI DUP2 DUP2 ADD MLOAD DUP4 DUP3 ADD MSTORE PUSH1 0x20 ADD PUSH2 0x20A7 JUMP JUMPDEST POP PUSH1 0x6B SLOAD PUSH2 0x3EBA SWAP1 CALLER SWAP1 PUSH2 0x100 SWAP1 DIV PUSH1 0xF SIGNEXTEND PUSH2 0x48EF JUMP JUMPDEST PUSH1 0x69 SLOAD PUSH1 0x40 DUP1 MLOAD PUSH4 0xE20F615 PUSH1 0xE2 SHL DUP2 MSTORE CALLER PUSH1 0x4 DUP3 ADD MSTORE SWAP1 MLOAD PUSH1 0x0 SWAP3 PUSH1 0x1 PUSH1 0x1 PUSH1 0xA0 SHL SUB AND SWAP2 PUSH4 0x3883D854 SWAP2 PUSH1 0x24 DUP1 DUP4 ADD SWAP3 PUSH1 0x20 SWAP3 SWAP2 SWAP1 DUP3 SWAP1 SUB ADD DUP2 DUP7 DUP1 EXTCODESIZE ISZERO DUP1 ISZERO PUSH2 0x3F05 JUMPI PUSH1 0x0 DUP1 REVERT JUMPDEST POP GAS STATICCALL ISZERO DUP1 ISZERO PUSH2 0x3F19 JUMPI RETURNDATASIZE PUSH1 0x0 DUP1 RETURNDATACOPY RETURNDATASIZE PUSH1 0x0 REVERT JUMPDEST POP POP POP POP PUSH1 0x40 MLOAD RETURNDATASIZE PUSH1 0x20 DUP2 LT ISZERO PUSH2 0x3F2F JUMPI PUSH1 0x0 DUP1 REVERT JUMPDEST POP MLOAD PUSH1 0x65 SLOAD PUSH1 0x40 DUP1 MLOAD PUSH4 0x40C10F19 PUSH1 0xE0 SHL DUP2 MSTORE CALLER PUSH1 0x4 DUP3 ADD MSTORE PUSH1 0x24 DUP2 ADD DUP5 SWAP1 MSTORE SWAP1 MLOAD SWAP3 SWAP4 POP PUSH1 0x1 PUSH1 0x1 PUSH1 0xA0 SHL SUB SWAP1 SWAP2 AND SWAP2 PUSH4 0x40C10F19 SWAP2 PUSH1 0x44 DUP1 DUP3 ADD SWAP3 PUSH1 0x0 SWAP3 SWAP1 SWAP2 SWAP1 DUP3 SWAP1 SUB ADD DUP2 DUP4 DUP8 DUP1 EXTCODESIZE ISZERO DUP1 ISZERO PUSH2 0x3F87 JUMPI PUSH1 0x0 DUP1 REVERT JUMPDEST POP GAS CALL ISZERO DUP1 ISZERO PUSH2 0x3F9B JUMPI RETURNDATASIZE PUSH1 0x0 DUP1 RETURNDATACOPY RETURNDATASIZE PUSH1 0x0 REVERT JUMPDEST POP POP PUSH1 0x66 SLOAD PUSH1 0x40 DUP1 MLOAD PUSH4 0x70A08231 PUSH1 0xE0 SHL DUP2 MSTORE CALLER PUSH1 0x4 DUP3 ADD MSTORE SWAP1 MLOAD PUSH1 0x1 PUSH1 0x1 PUSH1 0xA0 SHL SUB SWAP1 SWAP3 AND SWAP4 POP PUSH4 0x70A08231 SWAP3 POP PUSH1 0x24 DUP1 DUP3 ADD SWAP3 PUSH1 0x20 SWAP3 SWAP1 SWAP2 SWAP1 DUP3 SWAP1 SUB ADD DUP2 DUP7 DUP1 EXTCODESIZE ISZERO DUP1 ISZERO PUSH2 0x3FEA JUMPI PUSH1 0x0 DUP1 REVERT JUMPDEST POP GAS STATICCALL ISZERO DUP1 ISZERO PUSH2 0x3FFE JUMPI RETURNDATASIZE PUSH1 0x0 DUP1 RETURNDATACOPY RETURNDATASIZE PUSH1 0x0 REVERT JUMPDEST POP POP POP POP PUSH1 0x40 MLOAD RETURNDATASIZE PUSH1 0x20 DUP2 LT ISZERO PUSH2 0x4014 JUMPI PUSH1 0x0 DUP1 REVERT JUMPDEST POP MLOAD PUSH2 0x175C JUMPI PUSH1 0x66 SLOAD PUSH1 0x1 PUSH1 0x1 PUSH1 0xA0 SHL SUB AND PUSH4 0xE8D5FE44 CALLER DUP3 PUSH4 0x80AA68CD PUSH1 0x0 PUSH2 0x403F DUP8 PUSH1 0x64 PUSH2 0x5087 JUMP JUMPDEST PUSH1 0x40 MLOAD DUP4 PUSH4 0xFFFFFFFF AND PUSH1 0xE0 SHL DUP2 MSTORE PUSH1 0x4 ADD DUP1 DUP4 DUP2 MSTORE PUSH1 0x20 ADD DUP3 DUP2 MSTORE PUSH1 0x20 ADD SWAP3 POP POP POP PUSH1 0x20 PUSH1 0x40 MLOAD DUP1 DUP4 SUB DUP2 DUP7 DUP1 EXTCODESIZE ISZERO DUP1 ISZERO PUSH2 0x407A JUMPI PUSH1 0x0 DUP1 REVERT JUMPDEST POP GAS STATICCALL ISZERO DUP1 ISZERO PUSH2 0x408E JUMPI RETURNDATASIZE PUSH1 0x0 DUP1 RETURNDATACOPY RETURNDATASIZE PUSH1 0x0 REVERT JUMPDEST POP POP POP POP PUSH1 0x40 MLOAD RETURNDATASIZE PUSH1 0x20 DUP2 LT ISZERO PUSH2 0x40A4 JUMPI PUSH1 0x0 DUP1 REVERT JUMPDEST POP MLOAD PUSH1 0x66 SLOAD PUSH1 0x40 DUP1 MLOAD PUSH32 0x3E68B60400000000000000000000000000000000000000000000000000000000 DUP2 MSTORE PUSH1 0x4 DUP2 DUP2 ADD MSTORE PUSH1 0xC8 PUSH1 0x24 DUP3 ADD MSTORE PUSH1 0x44 DUP2 ADD DUP9 SWAP1 MSTORE PUSH1 0x65 PUSH1 0x64 DUP3 ADD MSTORE SWAP1 MLOAD PUSH1 0x1 PUSH1 0x1 PUSH1 0xA0 SHL SUB SWAP1 SWAP3 AND SWAP2 PUSH4 0x3E68B604 SWAP2 PUSH1 0x84 DUP1 DUP3 ADD SWAP3 PUSH1 0x20 SWAP3 SWAP1 SWAP2 SWAP1 DUP3 SWAP1 SUB ADD DUP2 DUP7 DUP1 EXTCODESIZE ISZERO DUP1 ISZERO PUSH2 0x411F JUMPI PUSH1 0x0 DUP1 REVERT JUMPDEST POP GAS STATICCALL ISZERO DUP1 ISZERO PUSH2 0x4133 JUMPI RETURNDATASIZE PUSH1 0x0 DUP1 RETURNDATACOPY RETURNDATASIZE PUSH1 0x0 REVERT JUMPDEST POP POP POP POP PUSH1 0x40 MLOAD RETURNDATASIZE PUSH1 0x20 DUP2 LT ISZERO PUSH2 0x4149 JUMPI PUSH1 0x0 DUP1 REVERT JUMPDEST POP MLOAD PUSH1 0x0 DUP1 PUSH2 0x4159 DUP9 PUSH1 0x66 PUSH2 0x5087 JUMP JUMPDEST PUSH1 0x40 DUP1 MLOAD PUSH32 0xFFFFFFFF00000000000000000000000000000000000000000000000000000000 PUSH1 0xE0 DUP11 SWAP1 SHL AND DUP2 MSTORE PUSH1 0x1 PUSH1 0x1 PUSH1 0xA0 SHL SUB SWAP1 SWAP8 AND PUSH1 0x4 DUP9 ADD MSTORE PUSH2 0xFFFF SWAP6 DUP7 AND PUSH1 0x24 DUP9 ADD MSTORE SWAP4 DUP6 AND PUSH1 0x44 DUP8 ADD MSTORE SWAP2 DUP5 AND PUSH1 0x64 DUP7 ADD MSTORE SWAP1 SWAP3 AND PUSH1 0x84 DUP5 ADD MSTORE PUSH1 0xA4 DUP4 ADD SWAP2 SWAP1 SWAP2 MSTORE MLOAD PUSH1 0xC4 DUP1 DUP4 ADD SWAP3 PUSH1 0x20 SWAP3 SWAP2 SWAP1 DUP3 SWAP1 SUB ADD DUP2 PUSH1 0x0 DUP8 DUP1 EXTCODESIZE ISZERO DUP1 ISZERO PUSH2 0x38A0 JUMPI PUSH1 0x0 DUP1 REVERT JUMPDEST PUSH2 0x41EB PUSH2 0x5872 JUMP JUMPDEST PUSH1 0x66 SLOAD PUSH1 0x65 SLOAD PUSH1 0x40 DUP1 MLOAD PUSH32 0xACB586DF00000000000000000000000000000000000000000000000000000000 DUP2 MSTORE PUSH1 0x4 DUP2 ADD DUP8 SWAP1 MSTORE SWAP1 MLOAD PUSH1 0x0 SWAP4 DUP5 SWAP4 PUSH1 0x1 PUSH1 0x1 PUSH1 0xA0 SHL SUB SWAP2 DUP3 AND SWAP4 PUSH4 0xD58227C8 SWAP4 DUP10 SWAP4 SWAP1 SWAP3 AND SWAP2 PUSH4 0xACB586DF SWAP2 PUSH1 0x24 DUP1 DUP3 ADD SWAP3 PUSH1 0x20 SWAP3 SWAP1 SWAP2 SWAP1 DUP3 SWAP1 SUB ADD DUP2 DUP7 DUP1 EXTCODESIZE ISZERO DUP1 ISZERO PUSH2 0x4264 JUMPI PUSH1 0x0 DUP1 REVERT JUMPDEST POP GAS STATICCALL ISZERO DUP1 ISZERO PUSH2 0x4278 JUMPI RETURNDATASIZE PUSH1 0x0 DUP1 RETURNDATACOPY RETURNDATASIZE PUSH1 0x0 REVERT JUMPDEST POP POP POP POP PUSH1 0x40 MLOAD RETURNDATASIZE PUSH1 0x20 DUP2 LT ISZERO PUSH2 0x428E JUMPI PUSH1 0x0 DUP1 REVERT JUMPDEST POP MLOAD PUSH1 0x40 DUP1 MLOAD PUSH32 0xFFFFFFFF00000000000000000000000000000000000000000000000000000000 PUSH1 0xE0 DUP7 SWAP1 SHL AND DUP2 MSTORE PUSH1 0x4 DUP2 ADD SWAP4 SWAP1 SWAP4 MSTORE PUSH1 0xFF SWAP1 SWAP2 AND PUSH1 0x24 DUP4 ADD MSTORE MLOAD PUSH1 0x44 DUP1 DUP4 ADD SWAP3 PUSH1 0x80 SWAP3 SWAP2 SWAP1 DUP3 SWAP1 SUB ADD DUP2 DUP7 DUP1 EXTCODESIZE ISZERO DUP1 ISZERO PUSH2 0x42EF JUMPI PUSH1 0x0 DUP1 REVERT JUMPDEST POP GAS STATICCALL ISZERO DUP1 ISZERO PUSH2 0x4303 JUMPI RETURNDATASIZE PUSH1 0x0 DUP1 RETURNDATACOPY RETURNDATASIZE PUSH1 0x0 REVERT JUMPDEST POP POP POP POP PUSH1 0x40 MLOAD RETURNDATASIZE PUSH1 0x80 DUP2 LT ISZERO PUSH2 0x4319 JUMPI PUSH1 0x0 DUP1 REVERT JUMPDEST POP DUP1 MLOAD PUSH1 0x40 SWAP2 DUP3 ADD MLOAD PUSH1 0x65 SLOAD DUP4 MLOAD PUSH32 0x17FE80900000000000000000000000000000000000000000000000000000000 DUP2 MSTORE PUSH1 0x4 DUP2 ADD DUP11 SWAP1 MSTORE SWAP4 MLOAD SWAP3 SWAP6 POP SWAP1 SWAP4 POP PUSH2 0x22F1 SWAP3 PUSH2 0x43C6 SWAP3 PUSH1 0x1 PUSH1 0x1 PUSH1 0xA0 SHL SUB SWAP1 SWAP3 AND SWAP2 PUSH4 0x17FE809 SWAP2 PUSH1 0x24 DUP1 DUP3 ADD SWAP3 PUSH1 0x20 SWAP3 SWAP1 SWAP2 SWAP1 DUP3 SWAP1 SUB ADD DUP2 DUP7 DUP1 EXTCODESIZE ISZERO DUP1 ISZERO PUSH2 0x4393 JUMPI PUSH1 0x0 DUP1 REVERT JUMPDEST POP GAS STATICCALL ISZERO DUP1 ISZERO PUSH2 0x43A7 JUMPI RETURNDATASIZE PUSH1 0x0 DUP1 RETURNDATACOPY RETURNDATASIZE PUSH1 0x0 REVERT JUMPDEST POP POP POP POP PUSH1 0x40 MLOAD RETURNDATASIZE PUSH1 0x20 DUP2 LT ISZERO PUSH2 0x43BD JUMPI PUSH1 0x0 DUP1 REVERT JUMPDEST POP MLOAD DUP5 DUP5 PUSH2 0x2288 JUMP JUMPDEST PUSH1 0x65 SLOAD PUSH1 0x40 DUP1 MLOAD PUSH32 0x54EC7FC000000000000000000000000000000000000000000000000000000000 DUP2 MSTORE PUSH1 0x4 DUP2 ADD DUP11 SWAP1 MSTORE SWAP1 MLOAD PUSH1 0x1 PUSH1 0x1 PUSH1 0xA0 SHL SUB SWAP1 SWAP3 AND SWAP2 PUSH4 0x54EC7FC0 SWAP2 PUSH1 0x24 DUP1 DUP3 ADD SWAP3 PUSH1 0x20 SWAP3 SWAP1 SWAP2 SWAP1 DUP3 SWAP1 SUB ADD DUP2 DUP7 DUP1 EXTCODESIZE ISZERO DUP1 ISZERO PUSH2 0x442B JUMPI PUSH1 0x0 DUP1 REVERT JUMPDEST POP GAS STATICCALL ISZERO DUP1 ISZERO PUSH2 0x443F JUMPI RETURNDATASIZE PUSH1 0x0 DUP1 RETURNDATACOPY RETURNDATASIZE PUSH1 0x0 REVERT JUMPDEST POP POP POP POP PUSH1 0x40 MLOAD RETURNDATASIZE PUSH1 0x20 DUP2 LT ISZERO PUSH2 0x4455 JUMPI PUSH1 0x0 DUP1 REVERT JUMPDEST POP MLOAD PUSH2 0x445F PUSH2 0x2F95 JUMP JUMPDEST PUSH2 0x4C9B JUMP JUMPDEST PUSH1 0x40 DUP1 MLOAD PUSH10 0x23A0A6A2AFA0A226A4A7 PUSH1 0xB1 SHL DUP2 MSTORE SWAP1 MLOAD SWAP1 DUP2 SWAP1 SUB PUSH1 0xA ADD SWAP1 KECCAK256 PUSH2 0x448D SWAP1 CALLER PUSH2 0x2702 JUMP JUMPDEST PUSH2 0x44CC JUMPI PUSH1 0x40 DUP1 MLOAD PUSH3 0x461BCD PUSH1 0xE5 SHL DUP2 MSTORE PUSH1 0x20 PUSH1 0x4 DUP3 ADD MSTORE PUSH1 0x17 PUSH1 0x24 DUP3 ADD MSTORE PUSH1 0x0 DUP1 MLOAD PUSH1 0x20 PUSH2 0x5891 DUP4 CODECOPY DUP2 MLOAD SWAP2 MSTORE PUSH1 0x44 DUP3 ADD MSTORE SWAP1 MLOAD SWAP1 DUP2 SWAP1 SUB PUSH1 0x64 ADD SWAP1 REVERT JUMPDEST PUSH2 0x44D7 DUP2 PUSH1 0x64 PUSH2 0x464F JUMP JUMPDEST PUSH1 0x6D PUSH1 0x10 PUSH2 0x100 EXP DUP2 SLOAD DUP2 PUSH1 0x1 PUSH1 0x1 PUSH1 0x80 SHL SUB MUL NOT AND SWAP1 DUP4 PUSH1 0xF SIGNEXTEND PUSH1 0x1 PUSH1 0x1 PUSH1 0x80 SHL SUB AND MUL OR SWAP1 SSTORE POP POP JUMP JUMPDEST PUSH1 0x68 SLOAD PUSH1 0x1 PUSH1 0x1 PUSH1 0xA0 SHL SUB AND DUP2 JUMP JUMPDEST PUSH1 0x1 PUSH1 0x1 PUSH1 0xA0 SHL SUB DUP3 AND PUSH1 0x0 SWAP1 DUP2 MSTORE PUSH1 0x75 PUSH1 0x20 SWAP1 DUP2 MSTORE PUSH1 0x40 DUP1 DUP4 KECCAK256 SLOAD PUSH1 0x72 SWAP1 SWAP3 MSTORE DUP3 KECCAK256 SLOAD DUP3 SWAP2 DUP3 SWAP2 PUSH2 0x4545 SWAP2 SWAP1 DUP7 PUSH2 0x1763 JUMP JUMPDEST SWAP3 POP SWAP3 POP SWAP3 POP PUSH2 0x4560 DUP4 PUSH1 0x76 SLOAD PUSH2 0x47A3 SWAP1 SWAP2 SWAP1 PUSH4 0xFFFFFFFF AND JUMP JUMPDEST PUSH1 0x76 SSTORE PUSH1 0x1 PUSH1 0x1 PUSH1 0xA0 SHL SUB DUP6 AND PUSH1 0x0 SWAP1 DUP2 MSTORE PUSH1 0x75 PUSH1 0x20 MSTORE PUSH1 0x40 SWAP1 KECCAK256 SLOAD PUSH2 0x458C SWAP1 DUP5 PUSH4 0xFFFFFFFF PUSH2 0x47A3 AND JUMP JUMPDEST PUSH1 0x1 PUSH1 0x1 PUSH1 0xA0 SHL SUB DUP7 AND PUSH1 0x0 SWAP1 DUP2 MSTORE PUSH1 0x75 PUSH1 0x20 SWAP1 DUP2 MSTORE PUSH1 0x40 DUP1 DUP4 KECCAK256 SWAP4 SWAP1 SWAP4 SSTORE PUSH1 0x72 SWAP1 MSTORE KECCAK256 SLOAD PUSH2 0x45C1 SWAP1 DUP4 PUSH4 0xFFFFFFFF PUSH2 0x47A3 AND JUMP JUMPDEST PUSH1 0x1 PUSH1 0x1 PUSH1 0xA0 SHL SUB DUP1 DUP8 AND PUSH1 0x0 DUP2 DUP2 MSTORE PUSH1 0x72 PUSH1 0x20 SWAP1 DUP2 MSTORE PUSH1 0x40 DUP1 DUP4 KECCAK256 SWAP6 SWAP1 SWAP6 SSTORE PUSH1 0x67 SLOAD DUP6 MLOAD PUSH4 0x23B872DD PUSH1 0xE0 SHL DUP2 MSTORE PUSH1 0x4 DUP2 ADD SWAP5 SWAP1 SWAP5 MSTORE ADDRESS PUSH1 0x24 DUP6 ADD MSTORE PUSH1 0x44 DUP5 ADD DUP8 SWAP1 MSTORE SWAP5 MLOAD SWAP5 SWAP1 SWAP4 AND SWAP4 PUSH4 0x23B872DD SWAP4 PUSH1 0x64 DUP1 DUP6 ADD SWAP5 SWAP2 SWAP4 SWAP2 DUP4 SWAP1 SUB ADD SWAP1 DUP3 SWAP1 DUP8 DUP1 EXTCODESIZE ISZERO DUP1 ISZERO PUSH2 0x38A0 JUMPI PUSH1 0x0 DUP1 REVERT JUMPDEST PUSH1 0x0 PUSH8 0x7FFFFFFFFFFFFFFF DUP3 GT ISZERO PUSH2 0x4648 JUMPI PUSH1 0x0 DUP1 REVERT JUMPDEST POP PUSH1 0x40 SHL SWAP1 JUMP JUMPDEST PUSH1 0x0 DUP2 PUSH2 0x465B JUMPI PUSH1 0x0 DUP1 REVERT JUMPDEST PUSH1 0x0 PUSH2 0x4667 DUP5 DUP5 PUSH2 0x50B3 JUMP JUMPDEST SWAP1 POP PUSH16 0x7FFFFFFFFFFFFFFFFFFFFFFFFFFFFFFF PUSH1 0x1 PUSH1 0x1 PUSH1 0x80 SHL SUB DUP3 AND GT ISZERO PUSH2 0x26FB JUMPI PUSH1 0x0 DUP1 REVERT JUMPDEST PUSH1 0x1 PUSH1 0x1 PUSH1 0xA0 SHL SUB DUP2 AND PUSH1 0x0 SWAP1 DUP2 MSTORE PUSH1 0x78 PUSH1 0x20 MSTORE PUSH1 0x40 DUP2 KECCAK256 SLOAD TIMESTAMP LT ISZERO PUSH2 0x46B1 JUMPI INVALID JUMPDEST PUSH1 0x1 PUSH1 0x1 PUSH1 0xA0 SHL SUB DUP3 AND PUSH1 0x0 SWAP1 DUP2 MSTORE PUSH1 0x78 PUSH1 0x20 MSTORE PUSH1 0x40 DUP2 KECCAK256 SLOAD PUSH2 0x46DD SWAP1 PUSH3 0x13C680 PUSH4 0xFFFFFFFF PUSH2 0x4D35 AND JUMP JUMPDEST SWAP1 POP PUSH1 0x0 PUSH2 0x46F1 DUP3 TIMESTAMP PUSH4 0xFFFFFFFF PUSH2 0x520E AND JUMP JUMPDEST SWAP2 POP POP PUSH3 0x13C680 DUP2 GT ISZERO PUSH2 0x4701 JUMPI INVALID JUMPDEST PUSH1 0x0 PUSH2 0x4710 DUP3 PUSH3 0x13C680 PUSH2 0x464F JUMP JUMPDEST SWAP1 POP PUSH2 0x22F1 PUSH8 0x2666666666666666 DUP3 PUSH4 0xFFFFFFFF PUSH2 0x5234 AND JUMP JUMPDEST PUSH1 0x0 DUP2 PUSH2 0x4739 JUMPI POP PUSH1 0x0 PUSH2 0x2628 JUMP JUMPDEST PUSH1 0x0 DUP4 PUSH1 0xF SIGNEXTEND SLT ISZERO PUSH2 0x474A JUMPI PUSH1 0x0 DUP1 REVERT JUMPDEST PUSH1 0xF DUP4 SWAP1 SIGNEXTEND PUSH1 0x1 PUSH1 0x1 PUSH1 0x80 SHL SUB DUP4 AND DUP2 MUL PUSH1 0x40 SHR SWAP1 PUSH1 0x80 DUP5 SWAP1 SHR MUL PUSH24 0xFFFFFFFFFFFFFFFFFFFFFFFFFFFFFFFFFFFFFFFFFFFFFFFF DUP2 GT ISZERO PUSH2 0x478A JUMPI PUSH1 0x0 DUP1 REVERT JUMPDEST PUSH1 0x40 SHL DUP2 NOT DUP2 GT ISZERO PUSH2 0x479B JUMPI PUSH1 0x0 DUP1 REVERT JUMPDEST ADD SWAP4 SWAP3 POP POP POP JUMP JUMPDEST PUSH1 0x0 DUP3 DUP3 GT ISZERO PUSH2 0x47FA JUMPI PUSH1 0x40 DUP1 MLOAD PUSH3 0x461BCD PUSH1 0xE5 SHL DUP2 MSTORE PUSH1 0x20 PUSH1 0x4 DUP3 ADD MSTORE PUSH1 0x1E PUSH1 0x24 DUP3 ADD MSTORE PUSH32 0x536166654D6174683A207375627472616374696F6E206F766572666C6F770000 PUSH1 0x44 DUP3 ADD MSTORE SWAP1 MLOAD SWAP1 DUP2 SWAP1 SUB PUSH1 0x64 ADD SWAP1 REVERT JUMPDEST POP SWAP1 SUB SWAP1 JUMP JUMPDEST PUSH1 0x67 SLOAD PUSH1 0x40 DUP1 MLOAD PUSH4 0xA9059CBB PUSH1 0xE0 SHL DUP2 MSTORE PUSH1 0x1 PUSH1 0x1 PUSH1 0xA0 SHL SUB DUP6 DUP2 AND PUSH1 0x4 DUP4 ADD MSTORE PUSH1 0x24 DUP3 ADD DUP6 SWAP1 MSTORE SWAP2 MLOAD SWAP2 SWAP1 SWAP3 AND SWAP2 PUSH4 0xA9059CBB SWAP2 PUSH1 0x44 DUP1 DUP4 ADD SWAP3 PUSH1 0x20 SWAP3 SWAP2 SWAP1 DUP3 SWAP1 SUB ADD DUP2 PUSH1 0x0 DUP8 DUP1 EXTCODESIZE ISZERO DUP1 ISZERO PUSH2 0x4856 JUMPI PUSH1 0x0 DUP1 REVERT JUMPDEST POP GAS CALL ISZERO DUP1 ISZERO PUSH2 0x486A JUMPI RETURNDATASIZE PUSH1 0x0 DUP1 RETURNDATACOPY RETURNDATASIZE PUSH1 0x0 REVERT JUMPDEST POP POP POP POP PUSH1 0x40 MLOAD RETURNDATASIZE PUSH1 0x20 DUP2 LT ISZERO PUSH2 0x4880 JUMPI PUSH1 0x0 DUP1 REVERT JUMPDEST POP POP POP POP JUMP JUMPDEST PUSH1 0x65 SLOAD PUSH1 0x40 DUP1 MLOAD PUSH4 0x95EA7B3 PUSH1 0xE0 SHL DUP2 MSTORE PUSH1 0x1 PUSH1 0x1 PUSH1 0xA0 SHL SUB DUP5 DUP2 AND PUSH1 0x4 DUP4 ADD MSTORE PUSH1 0x24 DUP3 ADD DUP7 SWAP1 MSTORE SWAP2 MLOAD SWAP2 SWAP1 SWAP3 AND SWAP2 PUSH4 0x95EA7B3 SWAP2 PUSH1 0x44 DUP1 DUP4 ADD SWAP3 PUSH1 0x0 SWAP3 SWAP2 SWAP1 DUP3 SWAP1 SUB ADD DUP2 DUP4 DUP8 DUP1 EXTCODESIZE ISZERO DUP1 ISZERO PUSH2 0x48DB JUMPI PUSH1 0x0 DUP1 REVERT JUMPDEST POP GAS CALL ISZERO DUP1 ISZERO PUSH2 0x1566 JUMPI RETURNDATASIZE PUSH1 0x0 DUP1 RETURNDATACOPY RETURNDATASIZE PUSH1 0x0 REVERT JUMPDEST PUSH2 0xF28 DUP3 PUSH2 0x48FC DUP4 PUSH2 0x2598 JUMP JUMPDEST PUSH2 0x4512 JUMP JUMPDEST PUSH1 0x66 SLOAD PUSH1 0x40 DUP1 MLOAD PUSH4 0x95EA7B3 PUSH1 0xE0 SHL DUP2 MSTORE PUSH1 0x1 PUSH1 0x1 PUSH1 0xA0 SHL SUB DUP5 DUP2 AND PUSH1 0x4 DUP4 ADD MSTORE PUSH1 0x24 DUP3 ADD DUP7 SWAP1 MSTORE SWAP2 MLOAD SWAP2 SWAP1 SWAP3 AND SWAP2 PUSH4 0x95EA7B3 SWAP2 PUSH1 0x44 DUP1 DUP4 ADD SWAP3 PUSH1 0x0 SWAP3 SWAP2 SWAP1 DUP3 SWAP1 SUB ADD DUP2 DUP4 DUP8 DUP1 EXTCODESIZE ISZERO DUP1 ISZERO PUSH2 0x48DB JUMPI PUSH1 0x0 DUP1 REVERT JUMPDEST PUSH1 0x0 PUSH2 0x4961 ADDRESS PUSH2 0x527C JUMP JUMPDEST ISZERO SWAP1 POP SWAP1 JUMP JUMPDEST PUSH1 0x0 SLOAD PUSH2 0x100 SWAP1 DIV PUSH1 0xFF AND DUP1 PUSH2 0x4980 JUMPI POP PUSH2 0x4980 PUSH2 0x4956 JUMP JUMPDEST DUP1 PUSH2 0x498E JUMPI POP PUSH1 0x0 SLOAD PUSH1 0xFF AND ISZERO JUMPDEST PUSH2 0x49C9 JUMPI PUSH1 0x40 MLOAD PUSH3 0x461BCD PUSH1 0xE5 SHL DUP2 MSTORE PUSH1 0x4 ADD DUP1 DUP1 PUSH1 0x20 ADD DUP3 DUP2 SUB DUP3 MSTORE PUSH1 0x2E DUP2 MSTORE PUSH1 0x20 ADD DUP1 PUSH2 0x5932 PUSH1 0x2E SWAP2 CODECOPY PUSH1 0x40 ADD SWAP2 POP POP PUSH1 0x40 MLOAD DUP1 SWAP2 SUB SWAP1 REVERT JUMPDEST PUSH1 0x0 SLOAD PUSH2 0x100 SWAP1 DIV PUSH1 0xFF AND ISZERO DUP1 ISZERO PUSH2 0x49F4 JUMPI PUSH1 0x0 DUP1 SLOAD PUSH1 0xFF NOT PUSH2 0xFF00 NOT SWAP1 SWAP2 AND PUSH2 0x100 OR AND PUSH1 0x1 OR SWAP1 SSTORE JUMPDEST PUSH2 0x49FC PUSH2 0x5282 JUMP JUMPDEST PUSH2 0x4A04 PUSH2 0x5282 JUMP JUMPDEST DUP1 ISZERO PUSH2 0x31C1 JUMPI PUSH1 0x0 DUP1 SLOAD PUSH2 0xFF00 NOT AND SWAP1 SSTORE POP JUMP JUMPDEST PUSH1 0x76 SLOAD PUSH2 0x4A2B SWAP1 DUP3 PUSH4 0xFFFFFFFF PUSH2 0x4D35 AND JUMP JUMPDEST PUSH1 0x76 SSTORE PUSH1 0x1 PUSH1 0x1 PUSH1 0xA0 SHL SUB DUP3 AND PUSH1 0x0 SWAP1 DUP2 MSTORE PUSH1 0x75 PUSH1 0x20 MSTORE PUSH1 0x40 SWAP1 KECCAK256 SLOAD PUSH2 0x4A57 SWAP1 DUP3 PUSH4 0xFFFFFFFF PUSH2 0x4D35 AND JUMP JUMPDEST PUSH1 0x1 PUSH1 0x1 PUSH1 0xA0 SHL SUB DUP4 AND PUSH1 0x0 DUP2 DUP2 MSTORE PUSH1 0x75 PUSH1 0x20 SWAP1 DUP2 MSTORE PUSH1 0x40 SWAP2 DUP3 SWAP1 KECCAK256 SWAP4 SWAP1 SWAP4 SSTORE DUP1 MLOAD DUP5 DUP2 MSTORE SWAP1 MLOAD SWAP2 SWAP3 PUSH32 0x3443CA0A6A2D7FBB0E0C0612ADB07CDCBDE092E281A3DDDC6ED66C14C00429CD SWAP3 SWAP2 DUP3 SWAP1 SUB ADD SWAP1 LOG2 POP POP JUMP JUMPDEST CALLER SWAP1 JUMP JUMPDEST PUSH1 0x0 DUP3 DUP2 MSTORE PUSH1 0x33 PUSH1 0x20 MSTORE PUSH1 0x40 SWAP1 KECCAK256 PUSH2 0x4ACF SWAP1 DUP3 PUSH4 0xFFFFFFFF PUSH2 0x5322 AND JUMP JUMPDEST ISZERO PUSH2 0xF28 JUMPI PUSH2 0x4ADC PUSH2 0x4AAD JUMP JUMPDEST PUSH1 0x1 PUSH1 0x1 PUSH1 0xA0 SHL SUB AND DUP2 PUSH1 0x1 PUSH1 0x1 PUSH1 0xA0 SHL SUB AND DUP4 PUSH32 0x2F8788117E7EFF1D82E926EC794901D17C78024A50270940304540A733656F0D PUSH1 0x40 MLOAD PUSH1 0x40 MLOAD DUP1 SWAP2 SUB SWAP1 LOG4 POP POP JUMP JUMPDEST PUSH1 0x0 DUP3 DUP2 MSTORE PUSH1 0x33 PUSH1 0x20 MSTORE PUSH1 0x40 SWAP1 KECCAK256 PUSH2 0x4B3E SWAP1 DUP3 PUSH4 0xFFFFFFFF PUSH2 0x5337 AND JUMP JUMPDEST ISZERO PUSH2 0xF28 JUMPI PUSH2 0x4B4B PUSH2 0x4AAD JUMP JUMPDEST PUSH1 0x1 PUSH1 0x1 PUSH1 0xA0 SHL SUB AND DUP2 PUSH1 0x1 PUSH1 0x1 PUSH1 0xA0 SHL SUB AND DUP4 PUSH32 0xF6391F5C32D9C69D2A47EA670B442974B53935D1EDC7FD64EB21E047A839171B PUSH1 0x40 MLOAD PUSH1 0x40 MLOAD DUP1 SWAP2 SUB SWAP1 LOG4 POP POP JUMP JUMPDEST PUSH1 0x60 DUP2 PUSH2 0x4BD0 JUMPI POP PUSH1 0x40 DUP1 MLOAD DUP1 DUP3 ADD SWAP1 SWAP2 MSTORE PUSH1 0x1 DUP2 MSTORE PUSH32 0x3000000000000000000000000000000000000000000000000000000000000000 PUSH1 0x20 DUP3 ADD MSTORE PUSH2 0x17BD JUMP JUMPDEST DUP2 PUSH1 0x0 JUMPDEST DUP2 ISZERO PUSH2 0x4BE8 JUMPI PUSH1 0x1 ADD PUSH1 0xA DUP3 DIV SWAP2 POP PUSH2 0x4BD4 JUMP JUMPDEST PUSH1 0x60 DUP2 PUSH8 0xFFFFFFFFFFFFFFFF DUP2 GT DUP1 ISZERO PUSH2 0x4C01 JUMPI PUSH1 0x0 DUP1 REVERT JUMPDEST POP PUSH1 0x40 MLOAD SWAP1 DUP1 DUP3 MSTORE DUP1 PUSH1 0x1F ADD PUSH1 0x1F NOT AND PUSH1 0x20 ADD DUP3 ADD PUSH1 0x40 MSTORE DUP1 ISZERO PUSH2 0x4C2C JUMPI PUSH1 0x20 DUP3 ADD DUP2 DUP1 CALLDATASIZE DUP4 CALLDATACOPY ADD SWAP1 POP JUMPDEST POP SWAP1 POP PUSH1 0x0 NOT DUP3 ADD JUMPDEST DUP6 ISZERO PUSH2 0x4C92 JUMPI PUSH1 0xA DUP7 MOD PUSH1 0x30 ADD PUSH1 0xF8 SHL DUP3 DUP3 DUP1 PUSH1 0x1 SWAP1 SUB SWAP4 POP DUP2 MLOAD DUP2 LT PUSH2 0x4C58 JUMPI INVALID JUMPDEST PUSH1 0x20 ADD ADD SWAP1 PUSH31 0xFFFFFFFFFFFFFFFFFFFFFFFFFFFFFFFFFFFFFFFFFFFFFFFFFFFFFFFFFFFFFF NOT AND SWAP1 DUP2 PUSH1 0x0 BYTE SWAP1 MSTORE8 POP PUSH1 0xA DUP7 DIV SWAP6 POP PUSH2 0x4C35 JUMP JUMPDEST POP SWAP5 SWAP4 POP POP POP POP JUMP JUMPDEST PUSH2 0x4CA3 PUSH2 0x5872 JUMP JUMPDEST PUSH1 0x0 PUSH2 0x4CC7 PUSH2 0x4CBC DUP6 PUSH8 0xFFFFFFFFFFFFFFFF AND DUP6 PUSH2 0x5087 JUMP JUMPDEST DUP7 PUSH3 0xFFFFFF AND PUSH2 0x5087 JUMP JUMPDEST SWAP1 POP PUSH2 0x4CD1 PUSH2 0x5872 JUMP JUMPDEST PUSH1 0x0 JUMPDEST PUSH1 0x4 DUP2 LT ISZERO PUSH2 0x4D2B JUMPI PUSH1 0x0 PUSH2 0x4CE9 DUP5 DUP4 PUSH2 0x5087 JUMP JUMPDEST SWAP1 POP PUSH4 0x3000000 PUSH1 0x18 DUP3 SWAP1 SHL AND PUSH2 0x4D05 PUSH3 0xFFFFFF DUP11 AND DUP4 PUSH2 0x534C JUMP JUMPDEST OR DUP4 DUP4 PUSH1 0x4 DUP2 LT PUSH2 0x4D12 JUMPI INVALID JUMPDEST PUSH4 0xFFFFFFFF SWAP1 SWAP3 AND PUSH1 0x20 SWAP3 SWAP1 SWAP3 MUL ADD MSTORE POP PUSH1 0x1 ADD PUSH2 0x4CD4 JUMP JUMPDEST POP SWAP6 SWAP5 POP POP POP POP POP JUMP JUMPDEST PUSH1 0x0 DUP3 DUP3 ADD DUP4 DUP2 LT ISZERO PUSH2 0x26FB JUMPI PUSH1 0x40 DUP1 MLOAD PUSH3 0x461BCD PUSH1 0xE5 SHL DUP2 MSTORE PUSH1 0x20 PUSH1 0x4 DUP3 ADD MSTORE PUSH1 0x1B PUSH1 0x24 DUP3 ADD MSTORE PUSH32 0x536166654D6174683A206164646974696F6E206F766572666C6F770000000000 PUSH1 0x44 DUP3 ADD MSTORE SWAP1 MLOAD SWAP1 DUP2 SWAP1 SUB PUSH1 0x64 ADD SWAP1 REVERT JUMPDEST PUSH1 0x0 PUSH2 0x26FB DUP4 DUP4 PUSH2 0x5391 JUMP JUMPDEST PUSH1 0x0 PUSH2 0x26FB DUP4 PUSH1 0x1 PUSH1 0x1 PUSH1 0xA0 SHL SUB DUP5 AND PUSH2 0x53F5 JUMP JUMPDEST PUSH1 0x0 PUSH1 0xF DUP4 DUP2 SIGNEXTEND SWAP1 DUP4 SWAP1 SIGNEXTEND ADD PUSH16 0x7FFFFFFFFFFFFFFFFFFFFFFFFFFFFFFF NOT DUP2 SLT DUP1 ISZERO SWAP1 PUSH2 0x4DED JUMPI POP PUSH16 0x7FFFFFFFFFFFFFFFFFFFFFFFFFFFFFFF DUP2 SGT ISZERO JUMPDEST PUSH2 0x26FB JUMPI PUSH1 0x0 DUP1 REVERT JUMPDEST PUSH1 0x0 PUSH1 0xF DUP3 DUP2 SIGNEXTEND SWAP1 DUP5 SWAP1 SIGNEXTEND SUB PUSH16 0x7FFFFFFFFFFFFFFFFFFFFFFFFFFFFFFF NOT DUP2 SLT DUP1 ISZERO SWAP1 PUSH2 0x4DED JUMPI POP PUSH16 0x7FFFFFFFFFFFFFFFFFFFFFFFFFFFFFFF DUP2 SGT ISZERO PUSH2 0x26FB JUMPI PUSH1 0x0 DUP1 REVERT JUMPDEST PUSH2 0x175C DUP6 DUP6 DUP6 DUP6 PUSH2 0x4E4A PUSH2 0x2F95 JUMP JUMPDEST DUP7 PUSH2 0x21A9 JUMP JUMPDEST PUSH1 0x69 SLOAD PUSH1 0x40 DUP1 MLOAD PUSH4 0xE20F615 PUSH1 0xE2 SHL DUP2 MSTORE CALLER PUSH1 0x4 DUP3 ADD MSTORE SWAP1 MLOAD PUSH1 0x0 SWAP3 PUSH1 0x1 PUSH1 0x1 PUSH1 0xA0 SHL SUB AND SWAP2 PUSH4 0x3883D854 SWAP2 PUSH1 0x24 DUP1 DUP4 ADD SWAP3 PUSH1 0x20 SWAP3 SWAP2 SWAP1 DUP3 SWAP1 SUB ADD DUP2 DUP7 DUP1 EXTCODESIZE ISZERO DUP1 ISZERO PUSH2 0x4E9B JUMPI PUSH1 0x0 DUP1 REVERT JUMPDEST POP GAS STATICCALL ISZERO DUP1 ISZERO PUSH2 0x4EAF JUMPI RETURNDATASIZE PUSH1 0x0 DUP1 RETURNDATACOPY RETURNDATASIZE PUSH1 0x0 REVERT JUMPDEST POP POP POP POP PUSH1 0x40 MLOAD RETURNDATASIZE PUSH1 0x20 DUP2 LT ISZERO PUSH2 0x4EC5 JUMPI PUSH1 0x0 DUP1 REVERT JUMPDEST POP MLOAD SWAP1 POP PUSH1 0x0 PUSH2 0x4ED6 DUP6 DUP6 DUP5 PUSH2 0x540D JUMP JUMPDEST SWAP1 POP PUSH1 0x0 PUSH2 0x4EEE DUP5 PUSH2 0x4EE9 DUP6 PUSH1 0x1 PUSH2 0x5087 JUMP JUMPDEST PUSH2 0x542E JUMP JUMPDEST SWAP1 POP PUSH1 0x0 PUSH2 0x4EFC DUP8 DUP7 PUSH2 0x543F JUMP JUMPDEST SWAP1 POP PUSH1 0x0 PUSH2 0x4F11 PUSH2 0x4F0C DUP8 PUSH2 0x545B JUMP JUMPDEST PUSH2 0x2598 JUMP JUMPDEST SWAP1 POP DUP3 PUSH3 0xFFFFFF AND DUP5 PUSH3 0xFFFFFF AND LT ISZERO PUSH2 0x4F2C JUMPI POP PUSH1 0x0 SWAP1 POP DUP1 JUMPDEST CALLER PUSH1 0x0 SWAP1 DUP2 MSTORE PUSH1 0x72 PUSH1 0x20 MSTORE PUSH1 0x40 SWAP1 KECCAK256 SLOAD ISZERO DUP1 ISZERO PUSH2 0x4F49 JUMPI POP PUSH1 0x0 DUP2 GT JUMPDEST ISZERO PUSH2 0x4F57 JUMPI PUSH2 0x4F57 CALLER PUSH2 0x54AF JUMP JUMPDEST CALLER PUSH1 0x0 DUP2 DUP2 MSTORE PUSH1 0x72 PUSH1 0x20 SWAP1 DUP2 MSTORE PUSH1 0x40 DUP1 DUP4 KECCAK256 DUP1 SLOAD DUP7 ADD SWAP1 SSTORE DUP14 DUP4 MSTORE PUSH1 0x73 DUP3 MSTORE SWAP2 DUP3 SWAP1 KECCAK256 DUP1 SLOAD PUSH2 0xFFFF DUP8 AND SWAP1 DUP2 ADD SWAP1 SWAP2 SSTORE DUP3 MLOAD DUP14 DUP2 MSTORE PUSH3 0xFFFFFF DUP12 DUP2 AND PUSH4 0xFF000000 PUSH1 0x8 DUP16 SWAP1 SHL AND OR PUSH4 0xFFFFFFFF AND SWAP4 DUP3 ADD SWAP4 SWAP1 SWAP4 MSTORE DUP9 DUP4 AND DUP2 DUP6 ADD MSTORE SWAP2 DUP8 AND PUSH1 0x60 DUP4 ADD MSTORE PUSH1 0x80 DUP3 ADD MSTORE PUSH1 0xA0 DUP2 ADD DUP5 SWAP1 MSTORE SWAP1 MLOAD DUP13 SWAP3 SWAP2 PUSH32 0x7A58AAC6530017822BF3210FCCEF7EFA31F56277F19966BC887BFB11F40CA96D SWAP2 SWAP1 DUP2 SWAP1 SUB PUSH1 0xC0 ADD SWAP1 LOG3 POP POP POP POP POP POP POP POP POP POP JUMP JUMPDEST PUSH2 0xF28 DUP3 PUSH2 0x5010 DUP4 PUSH2 0x2598 JUMP JUMPDEST PUSH2 0x4800 JUMP JUMPDEST PUSH1 0x0 DUP1 DUP3 GT PUSH2 0x506B JUMPI PUSH1 0x40 DUP1 MLOAD PUSH3 0x461BCD PUSH1 0xE5 SHL DUP2 MSTORE PUSH1 0x20 PUSH1 0x4 DUP3 ADD MSTORE PUSH1 0x1A PUSH1 0x24 DUP3 ADD MSTORE PUSH32 0x536166654D6174683A206469766973696F6E206279207A65726F000000000000 PUSH1 0x44 DUP3 ADD MSTORE SWAP1 MLOAD SWAP1 DUP2 SWAP1 SUB PUSH1 0x64 ADD SWAP1 REVERT JUMPDEST DUP2 DUP4 DUP2 PUSH2 0x5074 JUMPI INVALID JUMPDEST DIV SWAP4 SWAP3 POP POP POP JUMP JUMPDEST PUSH1 0x0 PUSH2 0x2628 DUP3 PUSH2 0x54CB JUMP JUMPDEST PUSH1 0x40 DUP1 MLOAD PUSH1 0x20 DUP1 DUP3 ADD SWAP5 SWAP1 SWAP5 MSTORE DUP1 DUP3 ADD SWAP3 SWAP1 SWAP3 MSTORE DUP1 MLOAD DUP1 DUP4 SUB DUP3 ADD DUP2 MSTORE PUSH1 0x60 SWAP1 SWAP3 ADD SWAP1 MSTORE DUP1 MLOAD SWAP2 ADD KECCAK256 SWAP1 JUMP JUMPDEST PUSH1 0x0 DUP2 PUSH2 0x50BF JUMPI PUSH1 0x0 DUP1 REVERT JUMPDEST PUSH1 0x0 PUSH24 0xFFFFFFFFFFFFFFFFFFFFFFFFFFFFFFFFFFFFFFFFFFFFFFFF DUP5 GT PUSH2 0x50F5 JUMPI DUP3 PUSH1 0x40 DUP6 SWAP1 SHL DUP2 PUSH2 0x50ED JUMPI INVALID JUMPDEST DIV SWAP1 POP PUSH2 0x51FA JUMP JUMPDEST PUSH1 0xC0 DUP5 DUP2 SHR PUSH5 0x100000000 DUP2 LT PUSH2 0x510E JUMPI PUSH1 0x20 SWAP2 DUP3 ADD SWAP2 SHR JUMPDEST PUSH3 0x10000 DUP2 LT PUSH2 0x5120 JUMPI PUSH1 0x10 SWAP2 DUP3 ADD SWAP2 SHR JUMPDEST PUSH2 0x100 DUP2 LT PUSH2 0x5131 JUMPI PUSH1 0x8 SWAP2 DUP3 ADD SWAP2 SHR JUMPDEST PUSH1 0x10 DUP2 LT PUSH2 0x5141 JUMPI PUSH1 0x4 SWAP2 DUP3 ADD SWAP2 SHR JUMPDEST PUSH1 0x4 DUP2 LT PUSH2 0x5151 JUMPI PUSH1 0x2 SWAP2 DUP3 ADD SWAP2 SHR JUMPDEST PUSH1 0x2 DUP2 LT PUSH2 0x5160 JUMPI PUSH1 0x1 DUP3 ADD SWAP2 POP JUMPDEST PUSH1 0xBF DUP3 SUB PUSH1 0x1 DUP7 SUB SWAP1 SHR PUSH1 0x1 ADD DUP3 PUSH1 0xFF SUB DUP8 SWAP1 SHL DUP2 PUSH2 0x517B JUMPI INVALID JUMPDEST DIV SWAP3 POP PUSH1 0x1 PUSH1 0x1 PUSH1 0x80 SHL SUB DUP4 GT ISZERO PUSH2 0x5192 JUMPI PUSH1 0x0 DUP1 REVERT JUMPDEST PUSH1 0x80 DUP6 SWAP1 SHR DUP4 MUL PUSH1 0x1 PUSH1 0x1 PUSH1 0x80 SHL SUB DUP7 AND DUP5 MUL PUSH1 0xC0 DUP9 SWAP1 SHR PUSH1 0x40 DUP10 SWAP1 SHL DUP3 DUP2 LT ISZERO PUSH2 0x51BE JUMPI PUSH1 0x1 DUP3 SUB SWAP2 POP JUMPDEST PUSH1 0x80 DUP5 SWAP1 SHL SWAP3 SWAP1 SUB DUP3 DUP2 LT ISZERO PUSH2 0x51D5 JUMPI PUSH1 0x1 DUP3 SUB SWAP2 POP JUMPDEST DUP3 SWAP1 SUB PUSH1 0x80 DUP5 SWAP1 SHR DUP3 EQ PUSH2 0x51E5 JUMPI INVALID JUMPDEST DUP9 DUP2 DUP2 PUSH2 0x51EE JUMPI INVALID JUMPDEST DIV DUP8 ADD SWAP7 POP POP POP POP POP POP POP JUMPDEST PUSH1 0x1 PUSH1 0x1 PUSH1 0x80 SHL SUB DUP2 GT ISZERO PUSH2 0x26FB JUMPI PUSH1 0x0 DUP1 REVERT JUMPDEST PUSH1 0x0 DUP1 DUP4 DUP4 GT ISZERO PUSH2 0x5224 JUMPI POP PUSH1 0x0 SWAP1 POP DUP1 PUSH2 0x522D JUMP JUMPDEST POP PUSH1 0x1 SWAP1 POP DUP2 DUP4 SUB JUMPDEST SWAP3 POP SWAP3 SWAP1 POP JUMP JUMPDEST PUSH1 0x0 PUSH1 0xF DUP4 DUP2 SIGNEXTEND SWAP1 DUP4 SWAP1 SIGNEXTEND MUL PUSH1 0x40 SAR PUSH16 0x7FFFFFFFFFFFFFFFFFFFFFFFFFFFFFFF NOT DUP2 SLT DUP1 ISZERO SWAP1 PUSH2 0x4DED JUMPI POP PUSH16 0x7FFFFFFFFFFFFFFFFFFFFFFFFFFFFFFF DUP2 SGT ISZERO PUSH2 0x26FB JUMPI PUSH1 0x0 DUP1 REVERT JUMPDEST EXTCODESIZE ISZERO ISZERO SWAP1 JUMP JUMPDEST PUSH1 0x0 SLOAD PUSH2 0x100 SWAP1 DIV PUSH1 0xFF AND DUP1 PUSH2 0x529B JUMPI POP PUSH2 0x529B PUSH2 0x4956 JUMP JUMPDEST DUP1 PUSH2 0x52A9 JUMPI POP PUSH1 0x0 SLOAD PUSH1 0xFF AND ISZERO JUMPDEST PUSH2 0x52E4 JUMPI PUSH1 0x40 MLOAD PUSH3 0x461BCD PUSH1 0xE5 SHL DUP2 MSTORE PUSH1 0x4 ADD DUP1 DUP1 PUSH1 0x20 ADD DUP3 DUP2 SUB DUP3 MSTORE PUSH1 0x2E DUP2 MSTORE PUSH1 0x20 ADD DUP1 PUSH2 0x5932 PUSH1 0x2E SWAP2 CODECOPY PUSH1 0x40 ADD SWAP2 POP POP PUSH1 0x40 MLOAD DUP1 SWAP2 SUB SWAP1 REVERT JUMPDEST PUSH1 0x0 SLOAD PUSH2 0x100 SWAP1 DIV PUSH1 0xFF AND ISZERO DUP1 ISZERO PUSH2 0x4A04 JUMPI PUSH1 0x0 DUP1 SLOAD PUSH1 0xFF NOT PUSH2 0xFF00 NOT SWAP1 SWAP2 AND PUSH2 0x100 OR AND PUSH1 0x1 OR SWAP1 SSTORE DUP1 ISZERO PUSH2 0x31C1 JUMPI PUSH1 0x0 DUP1 SLOAD PUSH2 0xFF00 NOT AND SWAP1 SSTORE POP JUMP JUMPDEST PUSH1 0x0 PUSH2 0x26FB DUP4 PUSH1 0x1 PUSH1 0x1 PUSH1 0xA0 SHL SUB DUP5 AND PUSH2 0x54CF JUMP JUMPDEST PUSH1 0x0 PUSH2 0x26FB DUP4 PUSH1 0x1 PUSH1 0x1 PUSH1 0xA0 SHL SUB DUP5 AND PUSH2 0x5519 JUMP JUMPDEST PUSH1 0x0 DUP1 PUSH2 0x5360 DUP5 PUSH1 0xA PUSH4 0xFFFFFFFF PUSH2 0x5015 AND JUMP JUMPDEST SWAP1 POP PUSH2 0x22BA PUSH2 0x5381 PUSH1 0x0 PUSH2 0x537B DUP5 PUSH1 0x2 PUSH4 0xFFFFFFFF PUSH2 0x55DF AND JUMP JUMPDEST DUP7 PUSH2 0x5638 JUMP JUMPDEST PUSH2 0x22AE DUP7 DUP5 PUSH4 0xFFFFFFFF PUSH2 0x47A3 AND JUMP JUMPDEST DUP2 SLOAD PUSH1 0x0 SWAP1 DUP3 LT PUSH2 0x53D3 JUMPI PUSH1 0x40 MLOAD PUSH3 0x461BCD PUSH1 0xE5 SHL DUP2 MSTORE PUSH1 0x4 ADD DUP1 DUP1 PUSH1 0x20 ADD DUP3 DUP2 SUB DUP3 MSTORE PUSH1 0x22 DUP2 MSTORE PUSH1 0x20 ADD DUP1 PUSH2 0x58B1 PUSH1 0x22 SWAP2 CODECOPY PUSH1 0x40 ADD SWAP2 POP POP PUSH1 0x40 MLOAD DUP1 SWAP2 SUB SWAP1 REVERT JUMPDEST DUP3 PUSH1 0x0 ADD DUP3 DUP2 SLOAD DUP2 LT PUSH2 0x53E2 JUMPI INVALID JUMPDEST SWAP1 PUSH1 0x0 MSTORE PUSH1 0x20 PUSH1 0x0 KECCAK256 ADD SLOAD SWAP1 POP SWAP3 SWAP2 POP POP JUMP JUMPDEST PUSH1 0x0 SWAP1 DUP2 MSTORE PUSH1 0x1 SWAP2 SWAP1 SWAP2 ADD PUSH1 0x20 MSTORE PUSH1 0x40 SWAP1 KECCAK256 SLOAD ISZERO ISZERO SWAP1 JUMP JUMPDEST PUSH1 0x0 DUP1 PUSH2 0x541F DUP6 PUSH3 0xFFFFFF AND DUP5 PUSH2 0x534C JUMP JUMPDEST SWAP1 POP PUSH2 0x22F1 DUP2 PUSH2 0x115F DUP7 PUSH2 0x2753 JUMP JUMPDEST PUSH1 0x0 PUSH2 0x26FB DUP4 PUSH3 0xFFFFFF AND DUP4 PUSH2 0x534C JUMP JUMPDEST PUSH1 0x0 PUSH2 0x26FB PUSH1 0x71 SLOAD PUSH2 0x115F DUP5 PUSH3 0xFFFFFF AND DUP7 PUSH3 0xFFFFFF AND PUSH2 0x464F JUMP JUMPDEST PUSH1 0x0 PUSH2 0x2628 PUSH2 0x5499 PUSH2 0x547C PUSH2 0x5477 DUP6 PUSH3 0xFFFFFF AND PUSH2 0x3E8 PUSH2 0x464F JUMP JUMPDEST PUSH2 0x56A2 JUMP JUMPDEST PUSH1 0x6C SLOAD PUSH1 0x1 PUSH1 0x80 SHL SWAP1 DIV PUSH1 0xF SWAP1 DUP2 SIGNEXTEND SWAP1 SIGNEXTEND SWAP1 PUSH4 0xFFFFFFFF PUSH2 0x5234 AND JUMP JUMPDEST PUSH1 0x6D SLOAD PUSH1 0xF SWAP1 DUP2 SIGNEXTEND SWAP1 SIGNEXTEND SWAP1 PUSH4 0xFFFFFFFF PUSH2 0x4DB0 AND JUMP JUMPDEST PUSH1 0x1 PUSH1 0x1 PUSH1 0xA0 SHL SUB AND PUSH1 0x0 SWAP1 DUP2 MSTORE PUSH1 0x78 PUSH1 0x20 MSTORE PUSH1 0x40 SWAP1 KECCAK256 TIMESTAMP SWAP1 SSTORE JUMP JUMPDEST SLOAD SWAP1 JUMP JUMPDEST PUSH1 0x0 PUSH2 0x54DB DUP4 DUP4 PUSH2 0x53F5 JUMP JUMPDEST PUSH2 0x5511 JUMPI POP DUP2 SLOAD PUSH1 0x1 DUP2 DUP2 ADD DUP5 SSTORE PUSH1 0x0 DUP5 DUP2 MSTORE PUSH1 0x20 DUP1 DUP3 KECCAK256 SWAP1 SWAP4 ADD DUP5 SWAP1 SSTORE DUP5 SLOAD DUP5 DUP3 MSTORE DUP3 DUP7 ADD SWAP1 SWAP4 MSTORE PUSH1 0x40 SWAP1 KECCAK256 SWAP2 SWAP1 SWAP2 SSTORE PUSH2 0x2628 JUMP JUMPDEST POP PUSH1 0x0 PUSH2 0x2628 JUMP JUMPDEST PUSH1 0x0 DUP2 DUP2 MSTORE PUSH1 0x1 DUP4 ADD PUSH1 0x20 MSTORE PUSH1 0x40 DUP2 KECCAK256 SLOAD DUP1 ISZERO PUSH2 0x55D5 JUMPI DUP4 SLOAD PUSH1 0x0 NOT DUP1 DUP4 ADD SWAP2 SWAP1 DUP2 ADD SWAP1 PUSH1 0x0 SWAP1 DUP8 SWAP1 DUP4 SWAP1 DUP2 LT PUSH2 0x554C JUMPI INVALID JUMPDEST SWAP1 PUSH1 0x0 MSTORE PUSH1 0x20 PUSH1 0x0 KECCAK256 ADD SLOAD SWAP1 POP DUP1 DUP8 PUSH1 0x0 ADD DUP5 DUP2 SLOAD DUP2 LT PUSH2 0x5569 JUMPI INVALID JUMPDEST PUSH1 0x0 SWAP2 DUP3 MSTORE PUSH1 0x20 DUP1 DUP4 KECCAK256 SWAP1 SWAP2 ADD SWAP3 SWAP1 SWAP3 SSTORE DUP3 DUP2 MSTORE PUSH1 0x1 DUP10 DUP2 ADD SWAP1 SWAP3 MSTORE PUSH1 0x40 SWAP1 KECCAK256 SWAP1 DUP5 ADD SWAP1 SSTORE DUP7 SLOAD DUP8 SWAP1 DUP1 PUSH2 0x5599 JUMPI INVALID JUMPDEST PUSH1 0x1 SWAP1 SUB DUP2 DUP2 SWAP1 PUSH1 0x0 MSTORE PUSH1 0x20 PUSH1 0x0 KECCAK256 ADD PUSH1 0x0 SWAP1 SSTORE SWAP1 SSTORE DUP7 PUSH1 0x1 ADD PUSH1 0x0 DUP8 DUP2 MSTORE PUSH1 0x20 ADD SWAP1 DUP2 MSTORE PUSH1 0x20 ADD PUSH1 0x0 KECCAK256 PUSH1 0x0 SWAP1 SSTORE PUSH1 0x1 SWAP5 POP POP POP POP POP PUSH2 0x2628 JUMP JUMPDEST PUSH1 0x0 SWAP2 POP POP PUSH2 0x2628 JUMP JUMPDEST PUSH1 0x0 DUP3 PUSH2 0x55EE JUMPI POP PUSH1 0x0 PUSH2 0x2628 JUMP JUMPDEST DUP3 DUP3 MUL DUP3 DUP5 DUP3 DUP2 PUSH2 0x55FB JUMPI INVALID JUMPDEST DIV EQ PUSH2 0x26FB JUMPI PUSH1 0x40 MLOAD PUSH3 0x461BCD PUSH1 0xE5 SHL DUP2 MSTORE PUSH1 0x4 ADD DUP1 DUP1 PUSH1 0x20 ADD DUP3 DUP2 SUB DUP3 MSTORE PUSH1 0x21 DUP2 MSTORE PUSH1 0x20 ADD DUP1 PUSH2 0x5960 PUSH1 0x21 SWAP2 CODECOPY PUSH1 0x40 ADD SWAP2 POP POP PUSH1 0x40 MLOAD DUP1 SWAP2 SUB SWAP1 REVERT JUMPDEST PUSH1 0x0 DUP1 PUSH2 0x5650 PUSH1 0x1 PUSH2 0x22AE DUP7 DUP9 PUSH4 0xFFFFFFFF PUSH2 0x47A3 AND JUMP JUMPDEST PUSH1 0x40 DUP1 MLOAD PUSH1 0x20 DUP1 DUP3 ADD DUP8 SWAP1 MSTORE DUP3 MLOAD DUP1 DUP4 SUB DUP3 ADD DUP2 MSTORE SWAP2 DUP4 ADD SWAP1 SWAP3 MSTORE DUP1 MLOAD SWAP2 ADD KECCAK256 SWAP1 SWAP2 POP PUSH1 0x0 SWAP1 PUSH2 0x5686 SWAP1 DUP4 PUSH4 0xFFFFFFFF PUSH2 0x56C4 AND JUMP JUMPDEST SWAP1 POP PUSH2 0x5698 DUP2 DUP8 PUSH4 0xFFFFFFFF PUSH2 0x4D35 AND JUMP JUMPDEST SWAP7 SWAP6 POP POP POP POP POP POP JUMP JUMPDEST PUSH1 0x0 DUP1 DUP3 PUSH1 0xF SIGNEXTEND SLT ISZERO PUSH2 0x56B4 JUMPI PUSH1 0x0 DUP1 REVERT JUMPDEST PUSH2 0x2628 PUSH1 0x40 DUP4 PUSH1 0xF SIGNEXTEND SWAP1 SHL PUSH2 0x572B JUMP JUMPDEST PUSH1 0x0 DUP1 DUP3 GT PUSH2 0x571A JUMPI PUSH1 0x40 DUP1 MLOAD PUSH3 0x461BCD PUSH1 0xE5 SHL DUP2 MSTORE PUSH1 0x20 PUSH1 0x4 DUP3 ADD MSTORE PUSH1 0x18 PUSH1 0x24 DUP3 ADD MSTORE PUSH32 0x536166654D6174683A206D6F64756C6F206279207A65726F0000000000000000 PUSH1 0x44 DUP3 ADD MSTORE SWAP1 MLOAD SWAP1 DUP2 SWAP1 SUB PUSH1 0x64 ADD SWAP1 REVERT JUMPDEST DUP2 DUP4 DUP2 PUSH2 0x5723 JUMPI INVALID JUMPDEST MOD SWAP4 SWAP3 POP POP POP JUMP JUMPDEST PUSH1 0x0 DUP2 PUSH2 0x573A JUMPI POP PUSH1 0x0 PUSH2 0x17BD JUMP JUMPDEST DUP2 PUSH1 0x1 PUSH1 0x1 PUSH1 0x80 SHL DUP3 LT PUSH2 0x5753 JUMPI PUSH1 0x80 SWAP2 SWAP1 SWAP2 SHR SWAP1 PUSH1 0x40 SHL JUMPDEST PUSH9 0x10000000000000000 DUP3 LT PUSH2 0x576E JUMPI PUSH1 0x40 SWAP2 SWAP1 SWAP2 SHR SWAP1 PUSH1 0x20 SHL JUMPDEST PUSH5 0x100000000 DUP3 LT PUSH2 0x5785 JUMPI PUSH1 0x20 SWAP2 SWAP1 SWAP2 SHR SWAP1 PUSH1 0x10 SHL JUMPDEST PUSH3 0x10000 DUP3 LT PUSH2 0x579A JUMPI PUSH1 0x10 SWAP2 SWAP1 SWAP2 SHR SWAP1 PUSH1 0x8 SHL JUMPDEST PUSH2 0x100 DUP3 LT PUSH2 0x57AE JUMPI PUSH1 0x8 SWAP2 SWAP1 SWAP2 SHR SWAP1 PUSH1 0x4 SHL JUMPDEST PUSH1 0x10 DUP3 LT PUSH2 0x57C1 JUMPI PUSH1 0x4 SWAP2 SWAP1 SWAP2 SHR SWAP1 PUSH1 0x2 SHL JUMPDEST PUSH1 0x8 DUP3 LT PUSH2 0x57CD JUMPI PUSH1 0x1 SHL JUMPDEST PUSH1 0x1 DUP2 DUP6 DUP2 PUSH2 0x57D8 JUMPI INVALID JUMPDEST DIV DUP3 ADD SWAP1 SHR SWAP1 POP PUSH1 0x1 DUP2 DUP6 DUP2 PUSH2 0x57EA JUMPI INVALID JUMPDEST DIV DUP3 ADD SWAP1 SHR SWAP1 POP PUSH1 0x1 DUP2 DUP6 DUP2 PUSH2 0x57FC JUMPI INVALID JUMPDEST DIV DUP3 ADD SWAP1 SHR SWAP1 POP PUSH1 0x1 DUP2 DUP6 DUP2 PUSH2 0x580E JUMPI INVALID JUMPDEST DIV DUP3 ADD SWAP1 SHR SWAP1 POP PUSH1 0x1 DUP2 DUP6 DUP2 PUSH2 0x5820 JUMPI INVALID JUMPDEST DIV DUP3 ADD SWAP1 SHR SWAP1 POP PUSH1 0x1 DUP2 DUP6 DUP2 PUSH2 0x5832 JUMPI INVALID JUMPDEST DIV DUP3 ADD SWAP1 SHR SWAP1 POP PUSH1 0x1 DUP2 DUP6 DUP2 PUSH2 0x5844 JUMPI INVALID JUMPDEST DIV DUP3 ADD SWAP1 SHR SWAP1 POP PUSH1 0x0 DUP2 DUP6 DUP2 PUSH2 0x5856 JUMPI INVALID JUMPDEST DIV SWAP1 POP DUP1 DUP3 LT PUSH2 0x5866 JUMPI DUP1 PUSH2 0x5868 JUMP JUMPDEST DUP2 JUMPDEST SWAP4 POP POP POP POP PUSH2 0x17BD JUMP JUMPDEST PUSH1 0x40 MLOAD DUP1 PUSH1 0x80 ADD PUSH1 0x40 MSTORE DUP1 PUSH1 0x4 SWAP1 PUSH1 0x20 DUP3 MUL DUP1 CALLDATASIZE DUP4 CALLDATACOPY POP SWAP2 SWAP3 SWAP2 POP POP JUMP INVALID 0x4D PUSH10 0x7373696E672047414D45 0x5F COINBASE DIFFICULTY 0x4D 0x49 0x4E KECCAK256 PUSH19 0x6F6C65000000000000000000456E756D657261 PUSH3 0x6C6553 PUSH6 0x743A20696E64 PUSH6 0x78206F757420 PUSH16 0x6620626F756E6473416363657373436F PUSH15 0x74726F6C3A2073656E646572206D75 PUSH20 0x7420626520616E2061646D696E20746F20677261 PUSH15 0x74416363657373436F6E74726F6C3A KECCAK256 PUSH20 0x656E646572206D75737420626520616E2061646D PUSH10 0x6E20746F207265766F6B PUSH6 0x496E69746961 PUSH13 0x697A61626C653A20636F6E7472 PUSH2 0x6374 KECCAK256 PUSH10 0x7320616C726561647920 PUSH10 0x6E697469616C697A6564 MSTORE8 PUSH2 0x6665 0x4D PUSH2 0x7468 GASPRICE KECCAK256 PUSH14 0x756C7469706C69636174696F6E20 PUSH16 0x766572666C6F77416363657373436F6E PUSH21 0x726F6C3A2063616E206F6E6C792072656E6F756E63 PUSH6 0x20726F6C6573 KECCAK256 PUSH7 0x6F722073656C66 LOG2 PUSH5 0x6970667358 0x22 SLT KECCAK256 SWAP16 RETURNDATACOPY 0xB0 CALLDATACOPY OR MSTORE8 CALLDATACOPY 0xDB 0xC PUSH21 0x186B166268BE324AB504338B65C219CD1F2E8554A3 PUSH7 0x64736F6C634300 MOD SDIV STOP CALLER "
		},
		"gasEstimates": {
			"creation": {
				"codeDepositCost": "4602600",
				"executionCost": "5383",
				"totalCost": "4607983"
			},
			"external": {
				"DEFAULT_ADMIN_ROLE()": "310",
				"GAME_ADMIN()": "394",
				"REWARDS_CLAIM_TAX_DURATION()": "289",
				"REWARDS_CLAIM_TAX_MAX()": "332",
				"approveContractCharacterFor(uint256,address)": "infinite",
				"approveContractWeaponFor(uint256,address)": "infinite",
				"characters()": "1127",
				"claimTokenRewards()": "infinite",
				"claimXpRewards()": "infinite",
				"fight(uint256,uint256,uint32)": "infinite",
				"fightRewardBaseline()": "1136",
				"fightRewardGasOffset()": "1139",
				"fightTraitBonus()": "1134",
				"fightXpGain()": "1088",
				"getCurrentHour()": "infinite",
				"getHellNeededFromUserWallet(address,uint256)": "2282",
				"getHellToSubtract(uint256,uint256,uint256)": "557",
				"getMonsterPower(uint32)": "370",
				"getMyCharacters()": "infinite",
				"getMyWeapons()": "infinite",
				"getOwnRewardsClaimTax()": "infinite",
				"getPlayerPower(uint24,int128,uint24)": "infinite",
				"getPlayerTraitBonusAgainst(uint24)": "infinite",
				"getRoleAdmin(bytes32)": "1209",
				"getRoleMember(bytes32,uint256)": "infinite",
				"getRoleMemberCount(bytes32)": "infinite",
				"getTargets(uint256,uint256)": "infinite",
				"getTokenRewards()": "1156",
				"getTokenRewardsFor(address)": "1232",
				"getTotalHellOwnedBy(address)": "infinite",
				"getXpRewards(uint256)": "1220",
				"giveInGameOnlyFunds(address,uint256)": "infinite",
				"giveInGameOnlyFundsFromContractBalance(address,uint256)": "infinite",
				"grantRole(bytes32,address)": "infinite",
				"hasRole(bytes32,address)": "infinite",
				"hellToken()": "1150",
				"inGameOnlyFunds(address)": "1215",
				"initialize(address,address,address,address,address)": "infinite",
				"isTraitEffectiveAgainst(uint8,uint8)": "477",
				"migrateRandoms(address)": "infinite",
				"migrateTo_1ee400a()": "infinite",
				"migrateTo_23b3a8b(address)": "infinite",
				"migrateTo_7dd2a56()": "infinite",
				"migrateTo_aa9da90()": "infinite",
				"migrateTo_ef994e2(address)": "infinite",
				"mintCharacter()": "infinite",
				"mintCharacterFee()": "1175",
				"mintWeapon()": "infinite",
				"mintWeaponFee()": "1178",
				"oneFrac()": "1119",
				"payContract(address,int128)": "infinite",
				"payContractConverted(address,uint256)": "infinite",
				"payPlayer(address,int128)": "infinite",
				"payPlayerConverted(address,uint256)": "infinite",
				"priceOracleHellPerUsd()": "1169",
				"promos()": "1150",
				"randoms()": "1170",
				"recoverHell(uint256)": "infinite",
				"refillStaminaFee()": "1117",
				"reforgeWeapon(uint256,uint256)": "infinite",
				"reforgeWeaponFee()": "1118",
				"renounceRole(bytes32,address)": "infinite",
				"revokeRole(bytes32,address)": "infinite",
				"setCharacterLimit(uint256)": "infinite",
				"setCharacterMintValue(uint256)": "infinite",
				"setDurabilityCostFight(uint8)": "infinite",
				"setFightRewardBaselineValue(uint256)": "infinite",
				"setFightRewardGasOffsetValue(uint256)": "infinite",
				"setFightXpGain(uint256)": "infinite",
				"setReforgeWeaponValue(uint256)": "infinite",
				"setStaminaCostFight(uint8)": "infinite",
				"setWeaponMintValue(uint256)": "infinite",
				"stakeFromGameImpl()": "1161",
				"stakeUnclaimedRewards()": "infinite",
				"totalInGameOnlyFunds()": "1111",
				"unpackFightData(uint96)": "458",
				"usdToHell(int128)": "infinite",
				"verifyFight(uint24,int128,uint24,uint64,uint256,uint32)": "infinite",
				"weapons()": "1171"
			},
			"internal": {
				"_approveContractCharacterFor(uint256,address)": "infinite",
				"_approveContractWeaponFor(uint256,address)": "infinite",
				"_getRewardsClaimTax(address)": "infinite",
				"_giveInGameOnlyFundsFromContractBalance(address,uint256)": "infinite",
				"_payContract(address,int128)": "infinite",
				"_payContractConverted(address,uint256)": "infinite",
				"_payPlayer(address,int128)": "infinite",
				"_payPlayerConverted(address,uint256)": "infinite",
				"_startRewardsClaimTaxTimer(address)": "20107",
				"_verifyFight(uint24,int128,uint24,uint64,uint32)": "infinite",
				"getMonsterPowerRoll(uint24,uint256)": "infinite",
				"getPlayerPowerRoll(uint24,uint24,uint256)": "infinite",
				"getTargetsInternal(uint24,uint64,uint256)": "infinite",
				"getTokenGainForFight(uint24)": "infinite",
				"getXpGainForFight(uint24,uint24)": "infinite",
				"performFight(uint256,uint256,uint24,uint24,uint24)": "infinite"
			}
		},
		"methodIdentifiers": {
			"DEFAULT_ADMIN_ROLE()": "a217fddf",
			"GAME_ADMIN()": "5504d3d2",
			"REWARDS_CLAIM_TAX_DURATION()": "3f18cd5b",
			"REWARDS_CLAIM_TAX_MAX()": "dbf802d9",
			"approveContractCharacterFor(uint256,address)": "0f92e39e",
			"approveContractWeaponFor(uint256,address)": "1426cead",
			"characters()": "d070bb54",
			"claimTokenRewards()": "0ec32977",
			"claimXpRewards()": "bc67e887",
			"fight(uint256,uint256,uint32)": "9b972092",
			"fightRewardBaseline()": "c6e195ed",
			"fightRewardGasOffset()": "be2cf138",
			"fightTraitBonus()": "7d3eb7d3",
			"fightXpGain()": "613f1352",
			"getCurrentHour()": "b63589a1",
			"getHellNeededFromUserWallet(address,uint256)": "5752ff51",
			"getHellToSubtract(uint256,uint256,uint256)": "1d7d7647",
			"getMonsterPower(uint32)": "d0eac9c1",
			"getMyCharacters()": "3c4739d3",
			"getMyWeapons()": "336dfb46",
			"getOwnRewardsClaimTax()": "499eeeeb",
			"getPlayerPower(uint24,int128,uint24)": "563002aa",
			"getPlayerTraitBonusAgainst(uint24)": "9b917481",
			"getRoleAdmin(bytes32)": "248a9ca3",
			"getRoleMember(bytes32,uint256)": "9010d07c",
			"getRoleMemberCount(bytes32)": "ca15c873",
			"getTargets(uint256,uint256)": "fb198c4a",
			"getTokenRewards()": "328da351",
			"getTokenRewardsFor(address)": "7998b3fd",
			"getTotalHellOwnedBy(address)": "35c31aa1",
			"getXpRewards(uint256)": "945dbfcf",
			"giveInGameOnlyFunds(address,uint256)": "6f907206",
			"giveInGameOnlyFundsFromContractBalance(address,uint256)": "f3598328",
			"grantRole(bytes32,address)": "2f2ff15d",
			"hasRole(bytes32,address)": "91d14854",
			"hellToken()": "98c81edc",
			"inGameOnlyFunds(address)": "988b2935",
			"initialize(address,address,address,address,address)": "1459457a",
			"isTraitEffectiveAgainst(uint8,uint8)": "d2c76c05",
			"migrateRandoms(address)": "e4a0f566",
			"migrateTo_1ee400a()": "bb3ccd70",
			"migrateTo_23b3a8b(address)": "dc88432b",
			"migrateTo_7dd2a56()": "1a70fe02",
			"migrateTo_aa9da90()": "06418778",
			"migrateTo_ef994e2(address)": "a93bde2f",
			"mintCharacter()": "faf039f4",
			"mintCharacterFee()": "0dff3a10",
			"mintWeapon()": "e6c6b7f0",
			"mintWeaponFee()": "e3a6615a",
			"oneFrac()": "aa663777",
			"payContract(address,int128)": "13d721ef",
			"payContractConverted(address,uint256)": "01c5f7ed",
			"payPlayer(address,int128)": "b179edf4",
			"payPlayerConverted(address,uint256)": "ebca521f",
			"priceOracleHellPerUsd()": "ff8956f7",
			"promos()": "51e717ac",
			"randoms()": "bee666d8",
			"recoverHell(uint256)": "eea74ec7",
			"refillStaminaFee()": "bcc0957d",
			"reforgeWeapon(uint256,uint256)": "4bfe0fa7",
			"reforgeWeaponFee()": "9f8c964c",
			"renounceRole(bytes32,address)": "36568abe",
			"revokeRole(bytes32,address)": "d547741f",
			"setCharacterLimit(uint256)": "44678be1",
			"setCharacterMintValue(uint256)": "8c30db79",
			"setDurabilityCostFight(uint8)": "599389b5",
			"setFightRewardBaselineValue(uint256)": "06deb3e1",
			"setFightRewardGasOffsetValue(uint256)": "0e032061",
			"setFightXpGain(uint256)": "e36ed971",
			"setReforgeWeaponValue(uint256)": "e6a9076a",
			"setStaminaCostFight(uint8)": "6c6302b3",
			"setWeaponMintValue(uint256)": "fd20747e",
			"stakeFromGameImpl()": "1208fa55",
			"stakeUnclaimedRewards()": "1d765c88",
			"totalInGameOnlyFunds()": "ab37e934",
			"unpackFightData(uint96)": "9f6b232e",
			"usdToHell(int128)": "79bd826d",
			"verifyFight(uint24,int128,uint24,uint64,uint256,uint32)": "534f6600",
			"weapons()": "b7e1cd86"
		}
	},
	"abi": [
		{
			"anonymous": false,
			"inputs": [
				{
					"indexed": true,
					"internalType": "address",
					"name": "owner",
					"type": "address"
				},
				{
					"indexed": true,
					"internalType": "uint256",
					"name": "character",
					"type": "uint256"
				},
				{
					"indexed": false,
					"internalType": "uint256",
					"name": "weapon",
					"type": "uint256"
				},
				{
					"indexed": false,
					"internalType": "uint32",
					"name": "target",
					"type": "uint32"
				},
				{
					"indexed": false,
					"internalType": "uint24",
					"name": "playerRoll",
					"type": "uint24"
				},
				{
					"indexed": false,
					"internalType": "uint24",
					"name": "enemyRoll",
					"type": "uint24"
				},
				{
					"indexed": false,
					"internalType": "uint16",
					"name": "xpGain",
					"type": "uint16"
				},
				{
					"indexed": false,
					"internalType": "uint256",
					"name": "hellGain",
					"type": "uint256"
				}
			],
			"name": "FightOutcome",
			"type": "event"
		},
		{
			"anonymous": false,
			"inputs": [
				{
					"indexed": true,
					"internalType": "address",
					"name": "to",
					"type": "address"
				},
				{
					"indexed": false,
					"internalType": "uint256",
					"name": "hellAmount",
					"type": "uint256"
				}
			],
			"name": "InGameOnlyFundsGiven",
			"type": "event"
		},
		{
			"anonymous": false,
			"inputs": [
				{
					"indexed": true,
					"internalType": "bytes32",
					"name": "role",
					"type": "bytes32"
				},
				{
					"indexed": true,
					"internalType": "bytes32",
					"name": "previousAdminRole",
					"type": "bytes32"
				},
				{
					"indexed": true,
					"internalType": "bytes32",
					"name": "newAdminRole",
					"type": "bytes32"
				}
			],
			"name": "RoleAdminChanged",
			"type": "event"
		},
		{
			"anonymous": false,
			"inputs": [
				{
					"indexed": true,
					"internalType": "bytes32",
					"name": "role",
					"type": "bytes32"
				},
				{
					"indexed": true,
					"internalType": "address",
					"name": "account",
					"type": "address"
				},
				{
					"indexed": true,
					"internalType": "address",
					"name": "sender",
					"type": "address"
				}
			],
			"name": "RoleGranted",
			"type": "event"
		},
		{
			"anonymous": false,
			"inputs": [
				{
					"indexed": true,
					"internalType": "bytes32",
					"name": "role",
					"type": "bytes32"
				},
				{
					"indexed": true,
					"internalType": "address",
					"name": "account",
					"type": "address"
				},
				{
					"indexed": true,
					"internalType": "address",
					"name": "sender",
					"type": "address"
				}
			],
			"name": "RoleRevoked",
			"type": "event"
		},
		{
			"inputs": [],
			"name": "DEFAULT_ADMIN_ROLE",
			"outputs": [
				{
					"internalType": "bytes32",
					"name": "",
					"type": "bytes32"
				}
			],
			"stateMutability": "view",
			"type": "function"
		},
		{
			"inputs": [],
			"name": "GAME_ADMIN",
			"outputs": [
				{
					"internalType": "bytes32",
					"name": "",
					"type": "bytes32"
				}
			],
			"stateMutability": "view",
			"type": "function"
		},
		{
			"inputs": [],
			"name": "REWARDS_CLAIM_TAX_DURATION",
			"outputs": [
				{
					"internalType": "uint256",
					"name": "",
					"type": "uint256"
				}
			],
			"stateMutability": "view",
			"type": "function"
		},
		{
			"inputs": [],
			"name": "REWARDS_CLAIM_TAX_MAX",
			"outputs": [
				{
					"internalType": "int128",
					"name": "",
					"type": "int128"
				}
			],
			"stateMutability": "view",
			"type": "function"
		},
		{
			"inputs": [
				{
					"internalType": "uint256",
					"name": "characterID",
					"type": "uint256"
				},
				{
					"internalType": "address",
					"name": "playerAddress",
					"type": "address"
				}
			],
			"name": "approveContractCharacterFor",
			"outputs": [],
			"stateMutability": "nonpayable",
			"type": "function"
		},
		{
			"inputs": [
				{
					"internalType": "uint256",
					"name": "weaponID",
					"type": "uint256"
				},
				{
					"internalType": "address",
					"name": "playerAddress",
					"type": "address"
				}
			],
			"name": "approveContractWeaponFor",
			"outputs": [],
			"stateMutability": "nonpayable",
			"type": "function"
		},
		{
			"inputs": [],
			"name": "characters",
			"outputs": [
				{
					"internalType": "contract Characters",
					"name": "",
					"type": "address"
				}
			],
			"stateMutability": "view",
			"type": "function"
		},
		{
			"inputs": [],
			"name": "claimTokenRewards",
			"outputs": [],
			"stateMutability": "nonpayable",
			"type": "function"
		},
		{
			"inputs": [],
			"name": "claimXpRewards",
			"outputs": [],
			"stateMutability": "nonpayable",
			"type": "function"
		},
		{
			"inputs": [
				{
					"internalType": "uint256",
					"name": "char",
					"type": "uint256"
				},
				{
					"internalType": "uint256",
					"name": "wep",
					"type": "uint256"
				},
				{
					"internalType": "uint32",
					"name": "target",
					"type": "uint32"
				}
			],
			"name": "fight",
			"outputs": [],
			"stateMutability": "nonpayable",
			"type": "function"
		},
		{
			"inputs": [],
			"name": "fightRewardBaseline",
			"outputs": [
				{
					"internalType": "int128",
					"name": "",
					"type": "int128"
				}
			],
			"stateMutability": "view",
			"type": "function"
		},
		{
			"inputs": [],
			"name": "fightRewardGasOffset",
			"outputs": [
				{
					"internalType": "int128",
					"name": "",
					"type": "int128"
				}
			],
			"stateMutability": "view",
			"type": "function"
		},
		{
			"inputs": [],
			"name": "fightTraitBonus",
			"outputs": [
				{
					"internalType": "int128",
					"name": "",
					"type": "int128"
				}
			],
			"stateMutability": "view",
			"type": "function"
		},
		{
			"inputs": [],
			"name": "fightXpGain",
			"outputs": [
				{
					"internalType": "uint256",
					"name": "",
					"type": "uint256"
				}
			],
			"stateMutability": "view",
			"type": "function"
		},
		{
			"inputs": [],
			"name": "getCurrentHour",
			"outputs": [
				{
					"internalType": "uint256",
					"name": "",
					"type": "uint256"
				}
			],
			"stateMutability": "view",
			"type": "function"
		},
		{
			"inputs": [
				{
					"internalType": "address",
					"name": "playerAddress",
					"type": "address"
				},
				{
					"internalType": "uint256",
					"name": "hellNeeded",
					"type": "uint256"
				}
			],
			"name": "getHellNeededFromUserWallet",
			"outputs": [
				{
					"internalType": "uint256",
					"name": "hellNeededFromUserWallet",
					"type": "uint256"
				}
			],
			"stateMutability": "view",
			"type": "function"
		},
		{
			"inputs": [
				{
					"internalType": "uint256",
					"name": "_inGameOnlyFunds",
					"type": "uint256"
				},
				{
					"internalType": "uint256",
					"name": "_tokenRewards",
					"type": "uint256"
				},
				{
					"internalType": "uint256",
					"name": "_hellNeeded",
					"type": "uint256"
				}
			],
			"name": "getHellToSubtract",
			"outputs": [
				{
					"internalType": "uint256",
					"name": "fromInGameOnlyFunds",
					"type": "uint256"
				},
				{
					"internalType": "uint256",
					"name": "fromTokenRewards",
					"type": "uint256"
				},
				{
					"internalType": "uint256",
					"name": "fromUserWallet",
					"type": "uint256"
				}
			],
			"stateMutability": "pure",
			"type": "function"
		},
		{
			"inputs": [
				{
					"internalType": "uint32",
					"name": "target",
					"type": "uint32"
				}
			],
			"name": "getMonsterPower",
			"outputs": [
				{
					"internalType": "uint24",
					"name": "",
					"type": "uint24"
				}
			],
			"stateMutability": "pure",
			"type": "function"
		},
		{
			"inputs": [],
			"name": "getMyCharacters",
			"outputs": [
				{
					"internalType": "uint256[]",
					"name": "",
					"type": "uint256[]"
				}
			],
			"stateMutability": "view",
			"type": "function"
		},
		{
			"inputs": [],
			"name": "getMyWeapons",
			"outputs": [
				{
					"internalType": "uint256[]",
					"name": "",
					"type": "uint256[]"
				}
			],
			"stateMutability": "view",
			"type": "function"
		},
		{
			"inputs": [],
			"name": "getOwnRewardsClaimTax",
			"outputs": [
				{
					"internalType": "int128",
					"name": "",
					"type": "int128"
				}
			],
			"stateMutability": "view",
			"type": "function"
		},
		{
			"inputs": [
				{
					"internalType": "uint24",
					"name": "basePower",
					"type": "uint24"
				},
				{
					"internalType": "int128",
					"name": "weaponMultiplier",
					"type": "int128"
				},
				{
					"internalType": "uint24",
					"name": "bonusPower",
					"type": "uint24"
				}
			],
			"name": "getPlayerPower",
			"outputs": [
				{
					"internalType": "uint24",
					"name": "",
					"type": "uint24"
				}
			],
			"stateMutability": "pure",
			"type": "function"
		},
		{
			"inputs": [
				{
					"internalType": "uint24",
					"name": "traitsCWE",
					"type": "uint24"
				}
			],
			"name": "getPlayerTraitBonusAgainst",
			"outputs": [
				{
					"internalType": "int128",
					"name": "",
					"type": "int128"
				}
			],
			"stateMutability": "view",
			"type": "function"
		},
		{
			"inputs": [
				{
					"internalType": "bytes32",
					"name": "role",
					"type": "bytes32"
				}
			],
			"name": "getRoleAdmin",
			"outputs": [
				{
					"internalType": "bytes32",
					"name": "",
					"type": "bytes32"
				}
			],
			"stateMutability": "view",
			"type": "function"
		},
		{
			"inputs": [
				{
					"internalType": "bytes32",
					"name": "role",
					"type": "bytes32"
				},
				{
					"internalType": "uint256",
					"name": "index",
					"type": "uint256"
				}
			],
			"name": "getRoleMember",
			"outputs": [
				{
					"internalType": "address",
					"name": "",
					"type": "address"
				}
			],
			"stateMutability": "view",
			"type": "function"
		},
		{
			"inputs": [
				{
					"internalType": "bytes32",
					"name": "role",
					"type": "bytes32"
				}
			],
			"name": "getRoleMemberCount",
			"outputs": [
				{
					"internalType": "uint256",
					"name": "",
					"type": "uint256"
				}
			],
			"stateMutability": "view",
			"type": "function"
		},
		{
			"inputs": [
				{
					"internalType": "uint256",
					"name": "char",
					"type": "uint256"
				},
				{
					"internalType": "uint256",
					"name": "wep",
					"type": "uint256"
				}
			],
			"name": "getTargets",
			"outputs": [
				{
					"internalType": "uint32[4]",
					"name": "",
					"type": "uint32[4]"
				}
			],
			"stateMutability": "view",
			"type": "function"
		},
		{
			"inputs": [],
			"name": "getTokenRewards",
			"outputs": [
				{
					"internalType": "uint256",
					"name": "",
					"type": "uint256"
				}
			],
			"stateMutability": "view",
			"type": "function"
		},
		{
			"inputs": [
				{
					"internalType": "address",
					"name": "wallet",
					"type": "address"
				}
			],
			"name": "getTokenRewardsFor",
			"outputs": [
				{
					"internalType": "uint256",
					"name": "",
					"type": "uint256"
				}
			],
			"stateMutability": "view",
			"type": "function"
		},
		{
			"inputs": [
				{
					"internalType": "address",
					"name": "wallet",
					"type": "address"
				}
			],
			"name": "getTotalHellOwnedBy",
			"outputs": [
				{
					"internalType": "uint256",
					"name": "",
					"type": "uint256"
				}
			],
			"stateMutability": "view",
			"type": "function"
		},
		{
			"inputs": [
				{
					"internalType": "uint256",
					"name": "char",
					"type": "uint256"
				}
			],
			"name": "getXpRewards",
			"outputs": [
				{
					"internalType": "uint256",
					"name": "",
					"type": "uint256"
				}
			],
			"stateMutability": "view",
			"type": "function"
		},
		{
			"inputs": [
				{
					"internalType": "address",
					"name": "to",
					"type": "address"
				},
				{
					"internalType": "uint256",
					"name": "hellAmount",
					"type": "uint256"
				}
			],
			"name": "giveInGameOnlyFunds",
			"outputs": [],
			"stateMutability": "nonpayable",
			"type": "function"
		},
		{
			"inputs": [
				{
					"internalType": "address",
					"name": "to",
					"type": "address"
				},
				{
					"internalType": "uint256",
					"name": "hellAmount",
					"type": "uint256"
				}
			],
			"name": "giveInGameOnlyFundsFromContractBalance",
			"outputs": [],
			"stateMutability": "nonpayable",
			"type": "function"
		},
		{
			"inputs": [
				{
					"internalType": "bytes32",
					"name": "role",
					"type": "bytes32"
				},
				{
					"internalType": "address",
					"name": "account",
					"type": "address"
				}
			],
			"name": "grantRole",
			"outputs": [],
			"stateMutability": "nonpayable",
			"type": "function"
		},
		{
			"inputs": [
				{
					"internalType": "bytes32",
					"name": "role",
					"type": "bytes32"
				},
				{
					"internalType": "address",
					"name": "account",
					"type": "address"
				}
			],
			"name": "hasRole",
			"outputs": [
				{
					"internalType": "bool",
					"name": "",
					"type": "bool"
				}
			],
			"stateMutability": "view",
			"type": "function"
		},
		{
			"inputs": [],
			"name": "hellToken",
			"outputs": [
				{
					"internalType": "contract IERC20",
					"name": "",
					"type": "address"
				}
			],
			"stateMutability": "view",
			"type": "function"
		},
		{
			"inputs": [
				{
					"internalType": "address",
					"name": "",
					"type": "address"
				}
			],
			"name": "inGameOnlyFunds",
			"outputs": [
				{
					"internalType": "uint256",
					"name": "",
					"type": "uint256"
				}
			],
			"stateMutability": "view",
			"type": "function"
		},
		{
			"inputs": [
				{
					"internalType": "contract IERC20",
					"name": "_hellToken",
					"type": "address"
				},
				{
					"internalType": "contract Characters",
					"name": "_characters",
					"type": "address"
				},
				{
					"internalType": "contract Weapons",
					"name": "_weapons",
					"type": "address"
				},
				{
					"internalType": "contract IPriceOracle",
					"name": "_priceOracleHellPerUsd",
					"type": "address"
				},
				{
					"internalType": "contract IRandoms",
					"name": "_randoms",
					"type": "address"
				}
			],
			"name": "initialize",
			"outputs": [],
			"stateMutability": "nonpayable",
			"type": "function"
		},
		{
			"inputs": [
				{
					"internalType": "uint8",
					"name": "attacker",
					"type": "uint8"
				},
				{
					"internalType": "uint8",
					"name": "defender",
					"type": "uint8"
				}
			],
			"name": "isTraitEffectiveAgainst",
			"outputs": [
				{
					"internalType": "bool",
					"name": "",
					"type": "bool"
				}
			],
			"stateMutability": "pure",
			"type": "function"
		},
		{
			"inputs": [
				{
					"internalType": "contract IRandoms",
					"name": "_newRandoms",
					"type": "address"
				}
			],
			"name": "migrateRandoms",
			"outputs": [],
			"stateMutability": "nonpayable",
			"type": "function"
		},
		{
			"inputs": [],
			"name": "migrateTo_1ee400a",
			"outputs": [],
			"stateMutability": "nonpayable",
			"type": "function"
		},
		{
			"inputs": [
				{
					"internalType": "contract IStakeFromGame",
					"name": "_stakeFromGame",
					"type": "address"
				}
			],
			"name": "migrateTo_23b3a8b",
			"outputs": [],
			"stateMutability": "nonpayable",
			"type": "function"
		},
		{
			"inputs": [],
			"name": "migrateTo_7dd2a56",
			"outputs": [],
			"stateMutability": "nonpayable",
			"type": "function"
		},
		{
			"inputs": [],
			"name": "migrateTo_aa9da90",
			"outputs": [],
			"stateMutability": "nonpayable",
			"type": "function"
		},
		{
			"inputs": [
				{
					"internalType": "contract Promos",
					"name": "_promos",
					"type": "address"
				}
			],
			"name": "migrateTo_ef994e2",
			"outputs": [],
			"stateMutability": "nonpayable",
			"type": "function"
		},
		{
			"inputs": [],
			"name": "mintCharacter",
			"outputs": [],
			"stateMutability": "nonpayable",
			"type": "function"
		},
		{
			"inputs": [],
			"name": "mintCharacterFee",
			"outputs": [
				{
					"internalType": "int128",
					"name": "",
					"type": "int128"
				}
			],
			"stateMutability": "view",
			"type": "function"
		},
		{
			"inputs": [],
			"name": "mintWeapon",
			"outputs": [],
			"stateMutability": "nonpayable",
			"type": "function"
		},
		{
			"inputs": [],
			"name": "mintWeaponFee",
			"outputs": [
				{
					"internalType": "int128",
					"name": "",
					"type": "int128"
				}
			],
			"stateMutability": "view",
			"type": "function"
		},
		{
			"inputs": [],
			"name": "oneFrac",
			"outputs": [
				{
					"internalType": "int128",
					"name": "",
					"type": "int128"
				}
			],
			"stateMutability": "view",
			"type": "function"
		},
		{
			"inputs": [
				{
					"internalType": "address",
					"name": "playerAddress",
					"type": "address"
				},
				{
					"internalType": "int128",
					"name": "usdAmount",
					"type": "int128"
				}
			],
			"name": "payContract",
			"outputs": [],
			"stateMutability": "nonpayable",
			"type": "function"
		},
		{
			"inputs": [
				{
					"internalType": "address",
					"name": "playerAddress",
					"type": "address"
				},
				{
					"internalType": "uint256",
					"name": "convertedAmount",
					"type": "uint256"
				}
			],
			"name": "payContractConverted",
			"outputs": [],
			"stateMutability": "nonpayable",
			"type": "function"
		},
		{
			"inputs": [
				{
					"internalType": "address",
					"name": "playerAddress",
					"type": "address"
				},
				{
					"internalType": "int128",
					"name": "baseAmount",
					"type": "int128"
				}
			],
			"name": "payPlayer",
			"outputs": [],
			"stateMutability": "nonpayable",
			"type": "function"
		},
		{
			"inputs": [
				{
					"internalType": "address",
					"name": "playerAddress",
					"type": "address"
				},
				{
					"internalType": "uint256",
					"name": "convertedAmount",
					"type": "uint256"
				}
			],
			"name": "payPlayerConverted",
			"outputs": [],
			"stateMutability": "nonpayable",
			"type": "function"
		},
		{
			"inputs": [],
			"name": "priceOracleHellPerUsd",
			"outputs": [
				{
					"internalType": "contract IPriceOracle",
					"name": "",
					"type": "address"
				}
			],
			"stateMutability": "view",
			"type": "function"
		},
		{
			"inputs": [],
			"name": "promos",
			"outputs": [
				{
					"internalType": "contract Promos",
					"name": "",
					"type": "address"
				}
			],
			"stateMutability": "view",
			"type": "function"
		},
		{
			"inputs": [],
			"name": "randoms",
			"outputs": [
				{
					"internalType": "contract IRandoms",
					"name": "",
					"type": "address"
				}
			],
			"stateMutability": "view",
			"type": "function"
		},
		{
			"inputs": [
				{
					"internalType": "uint256",
					"name": "amount",
					"type": "uint256"
				}
			],
			"name": "recoverHell",
			"outputs": [],
			"stateMutability": "nonpayable",
			"type": "function"
		},
		{
			"inputs": [],
			"name": "refillStaminaFee",
			"outputs": [
				{
					"internalType": "int128",
					"name": "",
					"type": "int128"
				}
			],
			"stateMutability": "view",
			"type": "function"
		},
		{
			"inputs": [
				{
					"internalType": "uint256",
					"name": "reforgeID",
					"type": "uint256"
				},
				{
					"internalType": "uint256",
					"name": "burnID",
					"type": "uint256"
				}
			],
			"name": "reforgeWeapon",
			"outputs": [],
			"stateMutability": "nonpayable",
			"type": "function"
		},
		{
			"inputs": [],
			"name": "reforgeWeaponFee",
			"outputs": [
				{
					"internalType": "int128",
					"name": "",
					"type": "int128"
				}
			],
			"stateMutability": "view",
			"type": "function"
		},
		{
			"inputs": [
				{
					"internalType": "bytes32",
					"name": "role",
					"type": "bytes32"
				},
				{
					"internalType": "address",
					"name": "account",
					"type": "address"
				}
			],
			"name": "renounceRole",
			"outputs": [],
			"stateMutability": "nonpayable",
			"type": "function"
		},
		{
			"inputs": [
				{
					"internalType": "bytes32",
					"name": "role",
					"type": "bytes32"
				},
				{
					"internalType": "address",
					"name": "account",
					"type": "address"
				}
			],
			"name": "revokeRole",
			"outputs": [],
			"stateMutability": "nonpayable",
			"type": "function"
		},
		{
			"inputs": [
				{
					"internalType": "uint256",
					"name": "max",
					"type": "uint256"
				}
			],
			"name": "setCharacterLimit",
			"outputs": [],
			"stateMutability": "nonpayable",
			"type": "function"
		},
		{
			"inputs": [
				{
					"internalType": "uint256",
					"name": "cents",
					"type": "uint256"
				}
			],
			"name": "setCharacterMintValue",
			"outputs": [],
			"stateMutability": "nonpayable",
			"type": "function"
		},
		{
			"inputs": [
				{
					"internalType": "uint8",
					"name": "points",
					"type": "uint8"
				}
			],
			"name": "setDurabilityCostFight",
			"outputs": [],
			"stateMutability": "nonpayable",
			"type": "function"
		},
		{
			"inputs": [
				{
					"internalType": "uint256",
					"name": "tenthcents",
					"type": "uint256"
				}
			],
			"name": "setFightRewardBaselineValue",
			"outputs": [],
			"stateMutability": "nonpayable",
			"type": "function"
		},
		{
			"inputs": [
				{
					"internalType": "uint256",
					"name": "cents",
					"type": "uint256"
				}
			],
			"name": "setFightRewardGasOffsetValue",
			"outputs": [],
			"stateMutability": "nonpayable",
			"type": "function"
		},
		{
			"inputs": [
				{
					"internalType": "uint256",
					"name": "average",
					"type": "uint256"
				}
			],
			"name": "setFightXpGain",
			"outputs": [],
			"stateMutability": "nonpayable",
			"type": "function"
		},
		{
			"inputs": [
				{
					"internalType": "uint256",
					"name": "cents",
					"type": "uint256"
				}
			],
			"name": "setReforgeWeaponValue",
			"outputs": [],
			"stateMutability": "nonpayable",
			"type": "function"
		},
		{
			"inputs": [
				{
					"internalType": "uint8",
					"name": "points",
					"type": "uint8"
				}
			],
			"name": "setStaminaCostFight",
			"outputs": [],
			"stateMutability": "nonpayable",
			"type": "function"
		},
		{
			"inputs": [
				{
					"internalType": "uint256",
					"name": "cents",
					"type": "uint256"
				}
			],
			"name": "setWeaponMintValue",
			"outputs": [],
			"stateMutability": "nonpayable",
			"type": "function"
		},
		{
			"inputs": [],
			"name": "stakeFromGameImpl",
			"outputs": [
				{
					"internalType": "contract IStakeFromGame",
					"name": "",
					"type": "address"
				}
			],
			"stateMutability": "view",
			"type": "function"
		},
		{
			"inputs": [],
			"name": "stakeUnclaimedRewards",
			"outputs": [],
			"stateMutability": "nonpayable",
			"type": "function"
		},
		{
			"inputs": [],
			"name": "totalInGameOnlyFunds",
			"outputs": [
				{
					"internalType": "uint256",
					"name": "",
					"type": "uint256"
				}
			],
			"stateMutability": "view",
			"type": "function"
		},
		{
			"inputs": [
				{
					"internalType": "uint96",
					"name": "playerData",
					"type": "uint96"
				}
			],
			"name": "unpackFightData",
			"outputs": [
				{
					"internalType": "uint8",
					"name": "charTrait",
					"type": "uint8"
				},
				{
					"internalType": "uint24",
					"name": "basePowerLevel",
					"type": "uint24"
				},
				{
					"internalType": "uint64",
					"name": "timestamp",
					"type": "uint64"
				}
			],
			"stateMutability": "pure",
			"type": "function"
		},
		{
			"inputs": [
				{
					"internalType": "int128",
					"name": "usdAmount",
					"type": "int128"
				}
			],
			"name": "usdToHell",
			"outputs": [
				{
					"internalType": "uint256",
					"name": "",
					"type": "uint256"
				}
			],
			"stateMutability": "view",
			"type": "function"
		},
		{
			"inputs": [
				{
					"internalType": "uint24",
					"name": "playerBasePower",
					"type": "uint24"
				},
				{
					"internalType": "int128",
					"name": "wepMultiplier",
					"type": "int128"
				},
				{
					"internalType": "uint24",
					"name": "wepBonusPower",
					"type": "uint24"
				},
				{
					"internalType": "uint64",
					"name": "staminaTimestamp",
					"type": "uint64"
				},
				{
					"internalType": "uint256",
					"name": "hour",
					"type": "uint256"
				},
				{
					"internalType": "uint32",
					"name": "target",
					"type": "uint32"
				}
			],
			"name": "verifyFight",
			"outputs": [],
			"stateMutability": "pure",
			"type": "function"
		},
		{
			"inputs": [],
			"name": "weapons",
			"outputs": [
				{
					"internalType": "contract Weapons",
					"name": "",
					"type": "address"
				}
			],
			"stateMutability": "view",
			"type": "function"
		}
	]
}