{
  "contractName": "Characters",
  "abi": [
    {
      "anonymous": false,
      "inputs": [
        {
          "indexed": true,
          "internalType": "address",
          "name": "owner",
          "type": "address"
        },
        {
          "indexed": true,
          "internalType": "address",
          "name": "approved",
          "type": "address"
        },
        {
          "indexed": true,
          "internalType": "uint256",
          "name": "tokenId",
          "type": "uint256"
        }
      ],
      "name": "Approval",
      "type": "event"
    },
    {
      "anonymous": false,
      "inputs": [
        {
          "indexed": true,
          "internalType": "address",
          "name": "owner",
          "type": "address"
        },
        {
          "indexed": true,
          "internalType": "address",
          "name": "operator",
          "type": "address"
        },
        {
          "indexed": false,
          "internalType": "bool",
          "name": "approved",
          "type": "bool"
        }
      ],
      "name": "ApprovalForAll",
      "type": "event"
    },
    {
      "anonymous": false,
      "inputs": [
        {
          "indexed": true,
          "internalType": "address",
          "name": "owner",
          "type": "address"
        },
        {
          "indexed": true,
          "internalType": "uint256",
          "name": "character",
          "type": "uint256"
        },
        {
          "indexed": false,
          "internalType": "uint16",
          "name": "level",
          "type": "uint16"
        }
      ],
      "name": "LevelUp",
      "type": "event"
    },
    {
      "anonymous": false,
      "inputs": [
        {
          "indexed": true,
          "internalType": "uint256",
          "name": "character",
          "type": "uint256"
        },
        {
          "indexed": true,
          "internalType": "address",
          "name": "minter",
          "type": "address"
        }
      ],
      "name": "NewCharacter",
      "type": "event"
    },
    {
      "anonymous": false,
      "inputs": [
        {
          "indexed": true,
          "internalType": "bytes32",
          "name": "role",
          "type": "bytes32"
        },
        {
          "indexed": true,
          "internalType": "bytes32",
          "name": "previousAdminRole",
          "type": "bytes32"
        },
        {
          "indexed": true,
          "internalType": "bytes32",
          "name": "newAdminRole",
          "type": "bytes32"
        }
      ],
      "name": "RoleAdminChanged",
      "type": "event"
    },
    {
      "anonymous": false,
      "inputs": [
        {
          "indexed": true,
          "internalType": "bytes32",
          "name": "role",
          "type": "bytes32"
        },
        {
          "indexed": true,
          "internalType": "address",
          "name": "account",
          "type": "address"
        },
        {
          "indexed": true,
          "internalType": "address",
          "name": "sender",
          "type": "address"
        }
      ],
      "name": "RoleGranted",
      "type": "event"
    },
    {
      "anonymous": false,
      "inputs": [
        {
          "indexed": true,
          "internalType": "bytes32",
          "name": "role",
          "type": "bytes32"
        },
        {
          "indexed": true,
          "internalType": "address",
          "name": "account",
          "type": "address"
        },
        {
          "indexed": true,
          "internalType": "address",
          "name": "sender",
          "type": "address"
        }
      ],
      "name": "RoleRevoked",
      "type": "event"
    },
    {
      "anonymous": false,
      "inputs": [
        {
          "indexed": true,
          "internalType": "address",
          "name": "from",
          "type": "address"
        },
        {
          "indexed": true,
          "internalType": "address",
          "name": "to",
          "type": "address"
        },
        {
          "indexed": true,
          "internalType": "uint256",
          "name": "tokenId",
          "type": "uint256"
        }
      ],
      "name": "Transfer",
      "type": "event"
    },
    {
      "inputs": [],
      "name": "DEFAULT_ADMIN_ROLE",
      "outputs": [
        {
          "internalType": "bytes32",
          "name": "",
          "type": "bytes32"
        }
      ],
      "stateMutability": "view",
      "type": "function",
      "constant": true
    },
    {
      "inputs": [],
      "name": "GAME_ADMIN",
      "outputs": [
        {
          "internalType": "bytes32",
          "name": "",
          "type": "bytes32"
        }
      ],
      "stateMutability": "view",
      "type": "function",
      "constant": true
    },
    {
      "inputs": [],
      "name": "NO_OWNED_LIMIT",
      "outputs": [
        {
          "internalType": "bytes32",
          "name": "",
          "type": "bytes32"
        }
      ],
      "stateMutability": "view",
      "type": "function",
      "constant": true
    },
    {
      "inputs": [],
      "name": "RECEIVE_DOES_NOT_SET_TRANSFER_TIMESTAMP",
      "outputs": [
        {
          "internalType": "bytes32",
          "name": "",
          "type": "bytes32"
        }
      ],
      "stateMutability": "view",
      "type": "function",
      "constant": true
    },
    {
      "inputs": [],
      "name": "TRANSFER_COOLDOWN",
      "outputs": [
        {
          "internalType": "uint256",
          "name": "",
          "type": "uint256"
        }
      ],
      "stateMutability": "view",
      "type": "function",
      "constant": true
    },
    {
      "inputs": [
        {
          "internalType": "address",
          "name": "to",
          "type": "address"
        },
        {
          "internalType": "uint256",
          "name": "tokenId",
          "type": "uint256"
        }
      ],
      "name": "approve",
      "outputs": [],
      "stateMutability": "nonpayable",
      "type": "function"
    },
    {
      "inputs": [
        {
          "internalType": "address",
          "name": "owner",
          "type": "address"
        }
      ],
      "name": "balanceOf",
      "outputs": [
        {
          "internalType": "uint256",
          "name": "",
          "type": "uint256"
        }
      ],
      "stateMutability": "view",
      "type": "function",
      "constant": true
    },
    {
      "inputs": [],
      "name": "baseURI",
      "outputs": [
        {
          "internalType": "string",
          "name": "",
          "type": "string"
        }
      ],
      "stateMutability": "view",
      "type": "function",
      "constant": true
    },
    {
      "inputs": [
        {
          "internalType": "uint256",
          "name": "tokenId",
          "type": "uint256"
        }
      ],
      "name": "getApproved",
      "outputs": [
        {
          "internalType": "address",
          "name": "",
          "type": "address"
        }
      ],
      "stateMutability": "view",
      "type": "function",
      "constant": true
    },
    {
      "inputs": [
        {
          "internalType": "bytes32",
          "name": "role",
          "type": "bytes32"
        }
      ],
      "name": "getRoleAdmin",
      "outputs": [
        {
          "internalType": "bytes32",
          "name": "",
          "type": "bytes32"
        }
      ],
      "stateMutability": "view",
      "type": "function",
      "constant": true
    },
    {
      "inputs": [
        {
          "internalType": "bytes32",
          "name": "role",
          "type": "bytes32"
        },
        {
          "internalType": "uint256",
          "name": "index",
          "type": "uint256"
        }
      ],
      "name": "getRoleMember",
      "outputs": [
        {
          "internalType": "address",
          "name": "",
          "type": "address"
        }
      ],
      "stateMutability": "view",
      "type": "function",
      "constant": true
    },
    {
      "inputs": [
        {
          "internalType": "bytes32",
          "name": "role",
          "type": "bytes32"
        }
      ],
      "name": "getRoleMemberCount",
      "outputs": [
        {
          "internalType": "uint256",
          "name": "",
          "type": "uint256"
        }
      ],
      "stateMutability": "view",
      "type": "function",
      "constant": true
    },
    {
      "inputs": [
        {
          "internalType": "bytes32",
          "name": "role",
          "type": "bytes32"
        },
        {
          "internalType": "address",
          "name": "account",
          "type": "address"
        }
      ],
      "name": "grantRole",
      "outputs": [],
      "stateMutability": "nonpayable",
      "type": "function"
    },
    {
      "inputs": [
        {
          "internalType": "bytes32",
          "name": "role",
          "type": "bytes32"
        },
        {
          "internalType": "address",
          "name": "account",
          "type": "address"
        }
      ],
      "name": "hasRole",
      "outputs": [
        {
          "internalType": "bool",
          "name": "",
          "type": "bool"
        }
      ],
      "stateMutability": "view",
      "type": "function",
      "constant": true
    },
    {
      "inputs": [
        {
          "internalType": "address",
          "name": "owner",
          "type": "address"
        },
        {
          "internalType": "address",
          "name": "operator",
          "type": "address"
        }
      ],
      "name": "isApprovedForAll",
      "outputs": [
        {
          "internalType": "bool",
          "name": "",
          "type": "bool"
        }
      ],
      "stateMutability": "view",
      "type": "function",
      "constant": true
    },
    {
      "inputs": [
        {
          "internalType": "uint256",
          "name": "",
          "type": "uint256"
        }
      ],
      "name": "lastTransferTimestamp",
      "outputs": [
        {
          "internalType": "uint256",
          "name": "",
          "type": "uint256"
        }
      ],
      "stateMutability": "view",
      "type": "function",
      "constant": true
    },
    {
      "inputs": [],
      "name": "maxStamina",
      "outputs": [
        {
          "internalType": "uint256",
          "name": "",
          "type": "uint256"
        }
      ],
      "stateMutability": "view",
      "type": "function",
      "constant": true
    },
    {
      "inputs": [],
      "name": "name",
      "outputs": [
        {
          "internalType": "string",
          "name": "",
          "type": "string"
        }
      ],
      "stateMutability": "view",
      "type": "function",
      "constant": true
    },
    {
      "inputs": [
        {
          "internalType": "uint256",
          "name": "tokenId",
          "type": "uint256"
        }
      ],
      "name": "ownerOf",
      "outputs": [
        {
          "internalType": "address",
          "name": "",
          "type": "address"
        }
      ],
      "stateMutability": "view",
      "type": "function",
      "constant": true
    },
    {
      "inputs": [],
      "name": "promos",
      "outputs": [
        {
          "internalType": "contract Promos",
          "name": "",
          "type": "address"
        }
      ],
      "stateMutability": "view",
      "type": "function",
      "constant": true
    },
    {
      "inputs": [
        {
          "internalType": "bytes32",
          "name": "role",
          "type": "bytes32"
        },
        {
          "internalType": "address",
          "name": "account",
          "type": "address"
        }
      ],
      "name": "renounceRole",
      "outputs": [],
      "stateMutability": "nonpayable",
      "type": "function"
    },
    {
      "inputs": [
        {
          "internalType": "bytes32",
          "name": "role",
          "type": "bytes32"
        },
        {
          "internalType": "address",
          "name": "account",
          "type": "address"
        }
      ],
      "name": "revokeRole",
      "outputs": [],
      "stateMutability": "nonpayable",
      "type": "function"
    },
    {
      "inputs": [
        {
          "internalType": "address",
          "name": "from",
          "type": "address"
        },
        {
          "internalType": "address",
          "name": "to",
          "type": "address"
        },
        {
          "internalType": "uint256",
          "name": "tokenId",
          "type": "uint256"
        }
      ],
      "name": "safeTransferFrom",
      "outputs": [],
      "stateMutability": "nonpayable",
      "type": "function"
    },
    {
      "inputs": [
        {
          "internalType": "address",
          "name": "from",
          "type": "address"
        },
        {
          "internalType": "address",
          "name": "to",
          "type": "address"
        },
        {
          "internalType": "uint256",
          "name": "tokenId",
          "type": "uint256"
        },
        {
          "internalType": "bytes",
          "name": "_data",
          "type": "bytes"
        }
      ],
      "name": "safeTransferFrom",
      "outputs": [],
      "stateMutability": "nonpayable",
      "type": "function"
    },
    {
      "inputs": [],
      "name": "secondsPerStamina",
      "outputs": [
        {
          "internalType": "uint256",
          "name": "",
          "type": "uint256"
        }
      ],
      "stateMutability": "view",
      "type": "function",
      "constant": true
    },
    {
      "inputs": [
        {
          "internalType": "address",
          "name": "operator",
          "type": "address"
        },
        {
          "internalType": "bool",
          "name": "approved",
          "type": "bool"
        }
      ],
      "name": "setApprovalForAll",
      "outputs": [],
      "stateMutability": "nonpayable",
      "type": "function"
    },
    {
      "inputs": [
        {
          "internalType": "bytes4",
          "name": "interfaceId",
          "type": "bytes4"
        }
      ],
      "name": "supportsInterface",
      "outputs": [
        {
          "internalType": "bool",
          "name": "",
          "type": "bool"
        }
      ],
      "stateMutability": "view",
      "type": "function",
      "constant": true
    },
    {
      "inputs": [],
      "name": "symbol",
      "outputs": [
        {
          "internalType": "string",
          "name": "",
          "type": "string"
        }
      ],
      "stateMutability": "view",
      "type": "function",
      "constant": true
    },
    {
      "inputs": [
        {
          "internalType": "uint256",
          "name": "index",
          "type": "uint256"
        }
      ],
      "name": "tokenByIndex",
      "outputs": [
        {
          "internalType": "uint256",
          "name": "",
          "type": "uint256"
        }
      ],
      "stateMutability": "view",
      "type": "function",
      "constant": true
    },
    {
      "inputs": [
        {
          "internalType": "address",
          "name": "owner",
          "type": "address"
        },
        {
          "internalType": "uint256",
          "name": "index",
          "type": "uint256"
        }
      ],
      "name": "tokenOfOwnerByIndex",
      "outputs": [
        {
          "internalType": "uint256",
          "name": "",
          "type": "uint256"
        }
      ],
      "stateMutability": "view",
      "type": "function",
      "constant": true
    },
    {
      "inputs": [
        {
          "internalType": "uint256",
          "name": "tokenId",
          "type": "uint256"
        }
      ],
      "name": "tokenURI",
      "outputs": [
        {
          "internalType": "string",
          "name": "",
          "type": "string"
        }
      ],
      "stateMutability": "view",
      "type": "function",
      "constant": true
    },
    {
      "inputs": [],
      "name": "totalSupply",
      "outputs": [
        {
          "internalType": "uint256",
          "name": "",
          "type": "uint256"
        }
      ],
      "stateMutability": "view",
      "type": "function",
      "constant": true
    },
    {
      "inputs": [
        {
          "internalType": "address",
          "name": "from",
          "type": "address"
        },
        {
          "internalType": "address",
          "name": "to",
          "type": "address"
        },
        {
          "internalType": "uint256",
          "name": "tokenId",
          "type": "uint256"
        }
      ],
      "name": "transferFrom",
      "outputs": [],
      "stateMutability": "nonpayable",
      "type": "function"
    },
    {
      "inputs": [],
      "name": "initialize",
      "outputs": [],
      "stateMutability": "nonpayable",
      "type": "function"
    },
    {
      "inputs": [],
      "name": "migrateTo_1ee400a",
      "outputs": [],
      "stateMutability": "nonpayable",
      "type": "function"
    },
    {
      "inputs": [],
      "name": "migrateTo_951a020",
      "outputs": [],
      "stateMutability": "nonpayable",
      "type": "function"
    },
    {
      "inputs": [
        {
          "internalType": "contract Promos",
          "name": "_promos",
          "type": "address"
        }
      ],
      "name": "migrateTo_ef994e2",
      "outputs": [],
      "stateMutability": "nonpayable",
      "type": "function"
    },
    {
      "inputs": [
        {
          "internalType": "uint256",
          "name": "tokenId",
          "type": "uint256"
        }
      ],
      "name": "transferCooldownEnd",
      "outputs": [
        {
          "internalType": "uint256",
          "name": "",
          "type": "uint256"
        }
      ],
      "stateMutability": "view",
      "type": "function",
      "constant": true
    },
    {
      "inputs": [
        {
          "internalType": "uint256",
          "name": "tokenId",
          "type": "uint256"
        }
      ],
      "name": "transferCooldownLeft",
      "outputs": [
        {
          "internalType": "uint256",
          "name": "",
          "type": "uint256"
        }
      ],
      "stateMutability": "view",
      "type": "function",
      "constant": true
    },
    {
      "inputs": [
        {
          "internalType": "uint256",
          "name": "id",
          "type": "uint256"
        }
      ],
      "name": "get",
      "outputs": [
        {
          "internalType": "uint16",
          "name": "",
          "type": "uint16"
        },
        {
          "internalType": "uint8",
          "name": "",
          "type": "uint8"
        },
        {
          "internalType": "uint8",
          "name": "",
          "type": "uint8"
        },
        {
          "internalType": "uint64",
          "name": "",
          "type": "uint64"
        },
        {
          "internalType": "uint16",
          "name": "",
          "type": "uint16"
        },
        {
          "internalType": "uint16",
          "name": "",
          "type": "uint16"
        },
        {
          "internalType": "uint16",
          "name": "",
          "type": "uint16"
        },
        {
          "internalType": "uint16",
          "name": "",
          "type": "uint16"
        },
        {
          "internalType": "uint16",
          "name": "",
          "type": "uint16"
        },
        {
          "internalType": "uint16",
          "name": "",
          "type": "uint16"
        }
      ],
      "stateMutability": "view",
      "type": "function",
      "constant": true
    },
    {
      "inputs": [
        {
          "internalType": "address",
          "name": "minter",
          "type": "address"
        },
        {
          "internalType": "uint256",
          "name": "seed",
          "type": "uint256"
        }
      ],
      "name": "mint",
      "outputs": [],
      "stateMutability": "nonpayable",
      "type": "function"
    },
    {
      "inputs": [
        {
          "internalType": "uint256",
          "name": "id",
          "type": "uint256"
        }
      ],
      "name": "getLevel",
      "outputs": [
        {
          "internalType": "uint8",
          "name": "",
          "type": "uint8"
        }
      ],
      "stateMutability": "view",
      "type": "function",
      "constant": true
    },
    {
      "inputs": [
        {
          "internalType": "uint8",
          "name": "currentLevel",
          "type": "uint8"
        }
      ],
      "name": "getRequiredXpForNextLevel",
      "outputs": [
        {
          "internalType": "uint16",
          "name": "",
          "type": "uint16"
        }
      ],
      "stateMutability": "view",
      "type": "function",
      "constant": true
    },
    {
      "inputs": [
        {
          "internalType": "uint256",
          "name": "id",
          "type": "uint256"
        }
      ],
      "name": "getPower",
      "outputs": [
        {
          "internalType": "uint24",
          "name": "",
          "type": "uint24"
        }
      ],
      "stateMutability": "view",
      "type": "function",
      "constant": true
    },
    {
      "inputs": [
        {
          "internalType": "uint8",
          "name": "level",
          "type": "uint8"
        }
      ],
      "name": "getPowerAtLevel",
      "outputs": [
        {
          "internalType": "uint24",
          "name": "",
          "type": "uint24"
        }
      ],
      "stateMutability": "pure",
      "type": "function",
      "constant": true
    },
    {
      "inputs": [
        {
          "internalType": "uint256",
          "name": "id",
          "type": "uint256"
        }
      ],
      "name": "getTrait",
      "outputs": [
        {
          "internalType": "uint8",
          "name": "",
          "type": "uint8"
        }
      ],
      "stateMutability": "view",
      "type": "function",
      "constant": true
    },
    {
      "inputs": [
        {
          "internalType": "uint256",
          "name": "id",
          "type": "uint256"
        }
      ],
      "name": "getXp",
      "outputs": [
        {
          "internalType": "uint32",
          "name": "",
          "type": "uint32"
        }
      ],
      "stateMutability": "view",
      "type": "function",
      "constant": true
    },
    {
      "inputs": [
        {
          "internalType": "uint256",
          "name": "id",
          "type": "uint256"
        },
        {
          "internalType": "uint16",
          "name": "xp",
          "type": "uint16"
        }
      ],
      "name": "gainXp",
      "outputs": [],
      "stateMutability": "nonpayable",
      "type": "function"
    },
    {
      "inputs": [
        {
          "internalType": "uint256",
          "name": "id",
          "type": "uint256"
        }
      ],
      "name": "getStaminaTimestamp",
      "outputs": [
        {
          "internalType": "uint64",
          "name": "",
          "type": "uint64"
        }
      ],
      "stateMutability": "view",
      "type": "function",
      "constant": true
    },
    {
      "inputs": [
        {
          "internalType": "uint256",
          "name": "id",
          "type": "uint256"
        },
        {
          "internalType": "uint64",
          "name": "timestamp",
          "type": "uint64"
        }
      ],
      "name": "setStaminaTimestamp",
      "outputs": [],
      "stateMutability": "nonpayable",
      "type": "function"
    },
    {
      "inputs": [
        {
          "internalType": "uint256",
          "name": "id",
          "type": "uint256"
        }
      ],
      "name": "getStaminaPoints",
      "outputs": [
        {
          "internalType": "uint8",
          "name": "",
          "type": "uint8"
        }
      ],
      "stateMutability": "view",
      "type": "function",
      "constant": true
    },
    {
      "inputs": [
        {
          "internalType": "uint64",
          "name": "timestamp",
          "type": "uint64"
        }
      ],
      "name": "getStaminaPointsFromTimestamp",
      "outputs": [
        {
          "internalType": "uint8",
          "name": "",
          "type": "uint8"
        }
      ],
      "stateMutability": "view",
      "type": "function",
      "constant": true
    },
    {
      "inputs": [
        {
          "internalType": "uint256",
          "name": "id",
          "type": "uint256"
        }
      ],
      "name": "isStaminaFull",
      "outputs": [
        {
          "internalType": "bool",
          "name": "",
          "type": "bool"
        }
      ],
      "stateMutability": "view",
      "type": "function",
      "constant": true
    },
    {
      "inputs": [],
      "name": "getStaminaMaxWait",
      "outputs": [
        {
          "internalType": "uint64",
          "name": "",
          "type": "uint64"
        }
      ],
      "stateMutability": "pure",
      "type": "function",
      "constant": true
    },
    {
      "inputs": [
        {
          "internalType": "uint256",
          "name": "id",
          "type": "uint256"
        },
        {
          "internalType": "uint8",
          "name": "amount",
          "type": "uint8"
        }
      ],
      "name": "getFightDataAndDrainStamina",
      "outputs": [
        {
          "internalType": "uint96",
          "name": "",
          "type": "uint96"
        }
      ],
      "stateMutability": "nonpayable",
      "type": "function"
    }
  ],
  "bytecode": "0x608060405234801561001057600080fd5b5061460d806100206000396000f3fe608060405234801561001057600080fd5b506004361061035d5760003560e01c80636c0360eb116101d35780639d7c828b11610104578063befd20c6116100a2578063d547741f1161007c578063d547741f14610b1e578063e985e9c514610b4a578063f2a7417a14610b78578063ff2e65ab14610ba45761035d565b8063befd20c614610abe578063c87b56dd14610ae4578063ca15c87314610b015761035d565b8063a93bde2f116100de578063a93bde2f146109af578063acb586df146109d5578063b88d4fde146109f2578063bb3ccd7014610ab65761035d565b80639d7c828b1461095c578063a217fddf14610979578063a22cb465146109815761035d565b8063847c8e54116101715780639010d07c1161014b5780639010d07c1461087f57806391d14854146108a25780639507d39a146108ce57806395d89b41146109545761035d565b8063847c8e541461083d57806386481d401461085a5780638f08d9e2146108775761035d565b80637a4a3412116101ad5780637a4a3412146107ee5780637d5f8e1e146107f65780637d66a9991461082d5780638129fc1c146108355761035d565b80636c0360eb146107b857806370a08231146107c0578063752fde9e146107e65761035d565b80632f745c59116102ad57806354ec7fc01161024b57806360df35d31161022557806360df35d31461075557806360eb73e71461075d5780636352211e146107935780636a4d521d146107b05761035d565b806354ec7fc01461070c5780635504d3d2146107455780635dba06e41461074d5761035d565b806340c10f191161028757806340c10f191461068557806342842e0e146106b15780634f6ccce7146106e757806351e717ac146107045761035d565b80632f745c591461061057806330947d2a1461063c57806336568abe146106595761035d565b80630bb185461161031a57806323b872dd116102f457806323b872dd1461054a578063248a9ca3146105805780632ee6accf1461059d5780632f2ff15d146105e45761035d565b80630bb18546146104e95780630fc005751461050957806318160ddd146105305761035d565b8063017fe8091461036257806301ffc9a71461039757806305d3d93a146103d257806306fdde0314610405578063081812fc14610482578063095ea7b3146104bb575b600080fd5b61037f6004803603602081101561037857600080fd5b5035610bc1565b6040805162ffffff9092168252519081900360200190f35b6103be600480360360208110156103ad57600080fd5b50356001600160e01b031916610bf5565b604080519115158252519081900360200190f35b6103ef600480360360208110156103e857600080fd5b5035610c14565b6040805160ff9092168252519081900360200190f35b61040d610c47565b6040805160208082528351818301528351919283929083019185019080838360005b8381101561044757818101518382015260200161042f565b50505050905090810190601f1680156104745780820380516001836020036101000a031916815260200191505b509250505060405180910390f35b61049f6004803603602081101561049857600080fd5b5035610cde565b604080516001600160a01b039092168252519081900360200190f35b6104e7600480360360408110156104d157600080fd5b506001600160a01b038135169060200135610d40565b005b61037f600480360360208110156104ff57600080fd5b503560ff16610e1b565b6104e76004803603604081101561051f57600080fd5b508035906020013561ffff16610e77565b610538611028565b60408051918252519081900360200190f35b6104e76004803603606081101561056057600080fd5b506001600160a01b03813581169160208101359091169060400135611039565b6105386004803603602081101561059657600080fd5b5035611090565b6105c3600480360360408110156105b357600080fd5b508035906020013560ff166110a5565b604080516bffffffffffffffffffffffff9092168252519081900360200190f35b6104e7600480360360408110156105fa57600080fd5b50803590602001356001600160a01b031661129d565b6105386004803603604081101561062657600080fd5b506001600160a01b038135169060200135611309565b6103be6004803603602081101561065257600080fd5b5035611338565b6104e76004803603604081101561066f57600080fd5b50803590602001356001600160a01b0316611350565b6104e76004803603604081101561069b57600080fd5b506001600160a01b0381351690602001356113b1565b6104e7600480360360608110156106c757600080fd5b506001600160a01b038135811691602081013590911690604001356115c3565b610538600480360360208110156106fd57600080fd5b50356115de565b61049f6115fa565b6107296004803603602081101561072257600080fd5b503561160a565b604080516001600160401b039092168252519081900360200190f35b61053861163b565b61053861165d565b610729611683565b61077a6004803603602081101561077357600080fd5b5035611689565b6040805163ffffffff9092168252519081900360200190f35b61049f600480360360208110156107a957600080fd5b50356116ae565b6105386116dc565b61040d6116f7565b610538600480360360208110156107d657600080fd5b50356001600160a01b0316611758565b6104e76117c0565b61053861181a565b6108166004803603602081101561080c57600080fd5b503560ff16611821565b6040805161ffff9092168252519081900360200190f35b61053861183c565b6104e7611842565b6105386004803603602081101561085357600080fd5b5035611944565b6103ef6004803603602081101561087057600080fd5b5035611994565b6105386119be565b61049f6004803603604081101561089557600080fd5b50803590602001356119c3565b6103be600480360360408110156108b857600080fd5b50803590602001356001600160a01b03166119e1565b6108eb600480360360208110156108e457600080fd5b50356119ff565b6040805161ffff9b8c16815260ff9a8b16602082015298909916888a01526001600160401b039096166060880152938816608087015291871660a0860152861660c0850152851660e0840152841661010083015290921661012083015251908190036101400190f35b61040d611b59565b6105386004803603602081101561097257600080fd5b5035611bba565b610538611bcd565b6104e76004803603604081101561099757600080fd5b506001600160a01b0381351690602001351515611bd2565b6104e7600480360360208110156109c557600080fd5b50356001600160a01b0316611cd7565b6103ef600480360360208110156109eb57600080fd5b5035611d42565b6104e760048036036080811015610a0857600080fd5b6001600160a01b03823581169260208101359091169160408201359190810190608081016060820135600160201b811115610a4257600080fd5b820183602082011115610a5457600080fd5b803590602001918460018302840111600160201b83111715610a7557600080fd5b91908080601f016020809104026020016040519081016040528093929190818152602001838380828437600092019190915250929550611d6d945050505050565b6104e7611dcb565b6103ef60048036036020811015610ad457600080fd5b50356001600160401b03166126fd565b61040d60048036036020811015610afa57600080fd5b503561273a565b61053860048036036020811015610b1757600080fd5b50356129bd565b6104e760048036036040811015610b3457600080fd5b50803590602001356001600160a01b03166129d4565b6103be60048036036040811015610b6057600080fd5b506001600160a01b0381358116916020013516612a2d565b6104e760048036036040811015610b8e57600080fd5b50803590602001356001600160401b0316612a5b565b61053860048036036020811015610bba57600080fd5b5035612b09565b6000610bed60c98381548110610bd357fe5b60009182526020909120015462010000900460ff16610e1b565b90505b919050565b6001600160e01b03191660009081526033602052604090205460ff1690565b6000610bed60c98381548110610c2657fe5b600091825260209091200154600160201b90046001600160401b03166126fd565b606a8054604080516020601f6002600019610100600188161502019095169490940493840181900481028201810190925282815260609390929091830182828015610cd35780601f10610ca857610100808354040283529160200191610cd3565b820191906000526020600020905b815481529060010190602001808311610cb657829003601f168201915b505050505090505b90565b6000610ce982612b2c565b610d245760405162461bcd60e51b815260040180806020018281038252602c8152602001806144ac602c913960400191505060405180910390fd5b506000908152606860205260409020546001600160a01b031690565b6000610d4b826116ae565b9050806001600160a01b0316836001600160a01b03161415610d9e5760405162461bcd60e51b81526004018080602001828103825260218152602001806145306021913960400191505060405180910390fd5b806001600160a01b0316610db0612b3f565b6001600160a01b03161480610dd15750610dd181610dcc612b3f565b612a2d565b610e0c5760405162461bcd60e51b81526004018080602001828103825260388152602001806143b06038913960400191505060405180910390fd5b610e168383612b43565b505050565b6000610bed610e456001610e3960ff8616600a63ffffffff612bb116565b9063ffffffff612c1816565b610e6b610e5c60ff8616600a63ffffffff612c7216565b6103e89063ffffffff612c1816565b9063ffffffff612c7216565b604080516923a0a6a2afa0a226a4a760b11b8152905190819003600a019020610ea090336119e1565b610ee2576040805162461bcd60e51b815260206004820152600e60248201526d2737ba1033b0b6b29030b236b4b760911b604482015290519081900360640190fd5b600060c98381548110610ef157fe5b6000918252602090912001805490915060ff6201000090910481161015610e16578054600090610f2f9061ffff90811690851663ffffffff612c1816565b825490915060009060cb9062010000900460ff166101008110610f4e57fe5b015490505b80821061101257825460ff6201000080830482166001019091160262ff000019909116178355908190039084610f88816116ae565b8454604080516201000090920460ff168252516001600160a01b0392909216917f1e8ccc52fc2f78485fd47b1731bb16a4286756d20e27ba77463ba36806772372916020908290030190a3825460ff620100009091048116101561100857825460cb9062010000900460ff166101008110610fff57fe5b0154905061100d565b600091505b610f53565b50815461ffff191661ffff919091161790555050565b60006110346066612ccb565b905090565b61104a611044612b3f565b82612cd6565b6110855760405162461bcd60e51b81526004018080602001828103825260318152602001806145516031913960400191505060405180910390fd5b610e16838383612d72565b60009081526097602052604090206002015490565b604080516923a0a6a2afa0a226a4a760b11b8152905190819003600a0190206000906110d190336119e1565b611113576040805162461bcd60e51b815260206004820152600e60248201526d2737ba1033b0b6b29030b236b4b760911b604482015290519081900360640190fd5b600060c9848154811061112257fe5b60009182526020822001805490925061114a90600160201b90046001600160401b03166126fd565b90508360ff168160ff16101561119d576040805162461bcd60e51b81526020600482015260136024820152724e6f7420656e6f756768207374616d696e612160681b604482015290519081900360640190fd5b815460ff80861661012c02916001600160401b03600160201b909104169060c89084161061120a57816001600160401b03166111d7611683565b85546001600160401b0391821642039290920116600160201b026bffffffffffffffff0000000019909116178455611239565b83546001600160401b03600160201b80830482168501909116026bffffffffffffffff00000000199091161784555b8354602082901b6bffffffffffffffff0000000016906008906112649062010000900460ff16610e1b565b62ffffff16901b8560000160039054906101000a900460ff1660ff161762ffffff16176001600160401b03169450505050505b92915050565b6000828152609760205260409020600201546112c0906112bb612b3f565b6119e1565b6112fb5760405162461bcd60e51b815260040180806020018281038252602f8152602001806142cf602f913960400191505060405180910390fd5b6113058282612ed0565b5050565b6001600160a01b0382166000908152606560205260408120611331908363ffffffff612f3f16565b9392505050565b600060c861134583610c14565b60ff16101592915050565b611358612b3f565b6001600160a01b0316816001600160a01b0316146113a75760405162461bcd60e51b815260040180806020018281038252602f8152602001806145a9602f913960400191505060405180910390fd5b6113058282612f4b565b604080516923a0a6a2afa0a226a4a760b11b8152905190819003600a0190206113da90336119e1565b61141c576040805162461bcd60e51b815260206004820152600e60248201526d2737ba1033b0b6b29030b236b4b760911b604482015290519081900360640190fd5b60c9546000808061142f81600387612fba565b9050600061145461143e611683565b42906001600160401b031663ffffffff61302416565b6040805160808101825261ffff808816825260ff80881660208085019182528883168587019081526001600160401b038089166060880190815260c9805460018181018355600092835299517f66be4f155c5ef2ebd3772b228f2f00681e4ed5826cdb3b1943cc11ad15ad1d289091018054975195519351909416600160201b026bffffffffffffffff000000001993891663010000000263ff0000001996909916620100000262ff00001992909a1661ffff1990981697909717169790971792909216949094171691909117909155835180850190945290835292935060ca92820190611543908a90613081565b905281546001808201845560009384526020938490208351600290930201805460ff191660ff909316929092178255919092015191015561158487866130ad565b6040516001600160a01b0388169086907f4589a3573ad46836d8192432d52ee2523357610d87f3cc4cc61da7ea362989f790600090a350505050505050565b610e1683838360405180602001604052806000815250611d6d565b6000806115f260668463ffffffff6131e716565b509392505050565b6101cc546001600160a01b031681565b600060c9828154811061161957fe5b600091825260209091200154600160201b90046001600160401b031692915050565b604080516923a0a6a2afa0a226a4a760b11b8152905190819003600a01902081565b604080516d1393d7d3d5d3915117d31253525560921b8152905190819003600e01902081565b61ea6090565b600060c9828154811061169857fe5b60009182526020909120015461ffff1692915050565b6000610bed82604051806060016040528060298152602001614412602991396066919063ffffffff61320516565b60405180602761458282396027019050604051809103902081565b606d8054604080516020601f6002600019610100600188161502019095169490940493840181900481028201810190925282815260609390929091830182828015610cd35780601f10610ca857610100808354040283529160200191610cd3565b60006001600160a01b03821661179f5760405162461bcd60e51b815260040180806020018281038252602a8152602001806143e8602a913960400191505060405180910390fd5b6001600160a01b0382166000908152606560205260409020610bed90612ccb565b6117cb6000336119e1565b611808576040805162461bcd60e51b81526020600482015260096024820152682737ba1030b236b4b760b91b604482015290519081900360640190fd5b611818611813613212565b61321d565b565b6201518081565b600060cb8260ff16610100811061183457fe5b015492915050565b61012c81565b600054610100900460ff168061185b575061185b6132a1565b80611869575060005460ff16155b6118a45760405162461bcd60e51b815260040180806020018281038252602e81526020018061443b602e913960400191505060405180910390fd5b600054610100900460ff161580156118cf576000805460ff1961ff0019909116610100171660011790555b61191c6040518060400160405280601081526020016f2baa2432b6361031b430b930b1ba32b960811b8152506040518060400160405280600381526020016243424360e81b8152506132b2565b61192461336f565b61192f6000336112fb565b8015611941576000805461ff00191690555b50565b6000808061197a61195e426201518063ffffffff61302416565b60008681526101cb60205260409020549063ffffffff61340f16565b915091508161198a57600061198c565b805b949350505050565b600060c982815481106119a357fe5b60009182526020909120015462010000900460ff1692915050565b60c881565b6000828152609760205260408120611331908363ffffffff612f3f16565b6000828152609760205260408120611331908363ffffffff61343116565b600080600080600080600080600080611a166141a1565b60c98c81548110611a2357fe5b600091825260209182902060408051608081018252929091015461ffff8116835262010000810460ff908116948401949094526301000000810490931690820152600160201b9091046001600160401b031660608201529050611a846141c8565b60ca8d81548110611a9157fe5b60009182526020918290206040805180820182526002909302909101805460ff168352600190810154838501819052865194870151928701516060880151949650929391611ae19190600d613446565b611af286602001516002602d613446565b611b0387602001516003603d613446565b611b14886020015160046029613446565b611b25896020015160056016613446565b611b368a6020015160066002613446565b9b509b509b509b509b509b509b509b509b509b5050509193959799509193959799565b606b8054604080516020601f6002600019610100600188161502019095169490940493840181900481028201810190925282815260609390929091830182828015610cd35780601f10610ca857610100808354040283529160200191610cd3565b6101cb6020526000908152604090205481565b600081565b611bda612b3f565b6001600160a01b0316826001600160a01b03161415611c40576040805162461bcd60e51b815260206004820152601960248201527f4552433732313a20617070726f766520746f2063616c6c657200000000000000604482015290519081900360640190fd5b8060696000611c4d612b3f565b6001600160a01b03908116825260208083019390935260409182016000908120918716808252919093529120805460ff191692151592909217909155611c91612b3f565b60408051841515815290516001600160a01b0392909216917f17307eab39ab6107e8899845ad3d59bd9653f200f220920489ca2b5937696c319181900360200190a35050565b611ce26000336119e1565b611d1f576040805162461bcd60e51b81526020600482015260096024820152682737ba1030b236b4b760b91b604482015290519081900360640190fd5b6101cc80546001600160a01b0319166001600160a01b0392909216919091179055565b600060c98281548110611d5157fe5b6000918252602090912001546301000000900460ff1692915050565b611d7e611d78612b3f565b83612cd6565b611db95760405162461bcd60e51b81526004018080602001828103825260318152602001806145516031913960400191505060405180910390fd5b611dc584848484613461565b50505050565b611dd66000336119e1565b611e13576040805162461bcd60e51b81526020600482015260096024820152682737ba1030b236b4b760b91b604482015290519081900360640190fd5b60408051611fe08101825260108152601160208201526012918101919091526013606082015260146080820152601660a0820152601860c0820152601a60e0820152601c610100820152601e610120820152602161014082015260246101608201526027610180820152602a6101a0820152602e6101c082015260326101e08201526037610200820152603c61022082015260426102408201526048610260820152604f61028082015260566102a0820152605e6102c082015260676102e08201526071610300820152607c6103208201526088610340820152609561036082015260a361038082015260b26103a082015260c26103c082015260d36103e082015260e561040082015260f861042082015261010c61044082015261012161046082015261013761048082015261014e6104a08201526101666104c082015261017f6104e08201526101996105008201526101b46105208201526101d06105408201526101ed61056082015261020b61058082015261022a6105a082015261024a6105c082015261026b6105e082015261028d6106008201526102b06106208201526102d46106408201526102f961066082015261031f6106808201526103466106a082015261036e6106c08201526103976106e08201526103c16107008201526103ec610720820152610418610740820152610445610760808301919091526104736107808301526104a26107a08301526104d26107c08301526105036107e083015261053561080083015261056861082083015261059c6108408301526105d161086083015261060761088083015261063e6108a08301526106766108c08301526106af6108e08301526106e96109008301526107246109208084019190915261094083019190915261079d6109608301526107db61098083015261081a6109a083015261085a6109c083015261089b6109e08301526108dd610a00830152610a20820152610964610a408201526109a9610a608201526109ef610a80820152610a36610aa0820152610a7e610ac0820152610ac7610ae0820152610b11610b00820152610b5c610b20820152610ba8610b40820152610bf5610b60820152610c43610b80820152610c92610ba0820152610ce2610bc0820152610d33610be0820152610d85610c00820152610dd8610c20820152610e2c610c40820152610e81610c60820152610ed7610c80820152610f2e610ca0820152610f86610cc0820152610fdf610ce0820152611039610d00820152611094610d208201526110f0610d4082015261114d610d608201526111ab610d8082015261120a610da082015261126a610dc08201526112cb610de082015261132d610e00820152611390610e208201526113f4610e40820152611459610e608201526114bf610e80820152611526610ea082015261158e610ec08201526115f7610ee0820152611661610f008201526116cc610f20820152611738610f408201526117a5610f60820152611813610f80820152611882610fa08201526118f2610fc0820152611963610fe08201526119d5611000820152611a48611020820152611abc611040820152611b31611060820152611ba7611080820152611c1e6110a0820152611c966110c0820152611d0f6110e0820152611d89611100820152611e04611120820152611e806111408201819052611efd611160830152611f7b611180830152611ffa6111a083015261207a6111c08301526120fb6111e083015261217d61120083015261220061122083015261228461124083015261230961126083015261238f6112808301526124166112a083015261249e6112c08301526125276112e08301526125b161130083015261263c6113208301526126c86113408301526127556113608301526127e36113808301526128726113a08301526129026113c08301526129936113e0830152612a25611400830152612ab8611420830152612b4c611440830152612be1611460830152612c77611480830152612d0e6114a0830152612da66114c0830152612e3f6114e0830152612ed9611500830152612f746115208301526130106115408301526130ad61156083015261314b6115808301526131ea6115a083015261328a6115c083015261332b6115e08301526133cd6116008301526134706116208301526135146116408301526135b961166083015261365f6116808301526137066116a08301526137ae6116c08301526138576116e08301526139016117008301526139ac611720830152613a58611740830152613b05611760830152613bb3611780830152613c626117a0830152613d126117c0830152613dc36117e0830152613e75611800830152613f28611820830152613fdc6118408301526140916118608301526141476118808301526141fe6118a08301526142b66118c083015261436f6118e08301526144296119008301526144e46119208301526145a061194083015261465d61196083015261471b6119808301526147da6119a083015261489a6119c083015261495b6119e0830152614a1d611a00830152614ae0611a20830152614ba4611a40830152614c69611a60830152614d2f611a80830152614df6611aa0830152614ebe611ac0830152614f87611ae0830152615051611b0083015261511c611b208301526151e8611b408301526152b5611b60830152615383611b80830152615452611ba0830152615522611bc08301526155f3611be08301526156c5611c00830152615798611c2083015261586c611c40830152615941611c60830152615a17611c80830152615aee611ca0830152615bc6611cc0830152615c9f611ce0830152615d79611d00830152615e54611d20830152615f30611d4083015261600d611d608301526160eb611d808301526161ca611da08301526162aa611dc083015261638b611de083015261646d611e00830152616550611e20830152616634611e40830152616719611e608301526167ff908201526168e6611ea08201526169ce611ec0820152616ab7611ee0820152616ba1611f00820152616c8c611f20820152616d78611f40820152616e65611f60820152616f53611f80820152617042611fa0820152617132611fc08201526119419060cb9060ff6141df565b600042826001600160401b0316111561271857506000610bf0565b61012c6001600160401b03831642030460c8811115610bed575060c892915050565b606061274582612b2c565b6127805760405162461bcd60e51b815260040180806020018281038252602f815260200180614501602f913960400191505060405180910390fd5b6000828152606c602090815260409182902080548351601f60026000196101006001861615020190931692909204918201849004840281018401909452808452606093928301828280156128155780601f106127ea57610100808354040283529160200191612815565b820191906000526020600020905b8154815290600101906020018083116127f857829003601f168201915b5050505050905060606128266116f7565b905080516000141561283a57509050610bf0565b8151156128fb5780826040516020018083805190602001908083835b602083106128755780518252601f199092019160209182019101612856565b51815160209384036101000a600019018019909216911617905285519190930192850191508083835b602083106128bd5780518252601f19909201916020918201910161289e565b6001836020036101000a0380198251168184511680821785525050505050509050019250505060405160208183030381529060405292505050610bf0565b80612905856134b3565b6040516020018083805190602001908083835b602083106129375780518252601f199092019160209182019101612918565b51815160209384036101000a600019018019909216911617905285519190930192850191508083835b6020831061297f5780518252601f199092019160209182019101612960565b6001836020036101000a0380198251168184511680821785525050505050509050019250505060405160208183030381529060405292505050919050565b6000818152609760205260408120610bed90612ccb565b6000828152609760205260409020600201546129f2906112bb612b3f565b6113a75760405162461bcd60e51b81526004018080602001828103825260308152602001806143806030913960400191505060405180910390fd5b6001600160a01b03918216600090815260696020908152604080832093909416825291909152205460ff1690565b604080516923a0a6a2afa0a226a4a760b11b8152905190819003600a019020612a8490336119e1565b612ac6576040805162461bcd60e51b815260206004820152600e60248201526d2737ba1033b0b6b29030b236b4b760911b604482015290519081900360640190fd5b8060c98381548110612ad457fe5b9060005260206000200160000160046101000a8154816001600160401b0302191690836001600160401b031602179055505050565b60008181526101cb6020526040812054610bed906201518063ffffffff612c1816565b6000610bed60668363ffffffff61358d16565b3390565b600081815260686020526040902080546001600160a01b0319166001600160a01b0384169081179091558190612b78826116ae565b6001600160a01b03167f8c5be1e5ebec7d5bd14f71427d1e84f3dd0314c0f7b2291e5b200ac8c7c3b92560405160405180910390a45050565b6000808211612c07576040805162461bcd60e51b815260206004820152601a60248201527f536166654d6174683a206469766973696f6e206279207a65726f000000000000604482015290519081900360640190fd5b818381612c1057fe5b049392505050565b600082820183811015611331576040805162461bcd60e51b815260206004820152601b60248201527f536166654d6174683a206164646974696f6e206f766572666c6f770000000000604482015290519081900360640190fd5b600082612c8157506000611297565b82820282848281612c8e57fe5b04146113315760405162461bcd60e51b815260040180806020018281038252602181526020018061448b6021913960400191505060405180910390fd5b6000610bed82613599565b6000612ce182612b2c565b612d1c5760405162461bcd60e51b815260040180806020018281038252602c815260200180614354602c913960400191505060405180910390fd5b6000612d27836116ae565b9050806001600160a01b0316846001600160a01b03161480612d625750836001600160a01b0316612d5784610cde565b6001600160a01b0316145b8061198c575061198c8185612a2d565b826001600160a01b0316612d85826116ae565b6001600160a01b031614612dca5760405162461bcd60e51b81526004018080602001828103825260298152602001806144d86029913960400191505060405180910390fd5b6001600160a01b038216612e0f5760405162461bcd60e51b81526004018080602001828103825260248152602001806143306024913960400191505060405180910390fd5b612e1a83838361359d565b612e25600082612b43565b6001600160a01b0383166000908152606560205260409020612e4d908263ffffffff6138e616565b506001600160a01b0382166000908152606560205260409020612e76908263ffffffff6138f216565b50612e896066828463ffffffff6138fe16565b5080826001600160a01b0316846001600160a01b03167fddf252ad1be2c89b69c2b068fc378daa952ba7f163c4a11628f55a4df523b3ef60405160405180910390a4505050565b6000828152609760205260409020612eee908263ffffffff61391416565b1561130557612efb612b3f565b6001600160a01b0316816001600160a01b0316837f2f8788117e7eff1d82e926ec794901d17c78024a50270940304540a733656f0d60405160405180910390a45050565b60006113318383613929565b6000828152609760205260409020612f69908263ffffffff61398d16565b1561130557612f76612b3f565b6001600160a01b0316816001600160a01b0316837ff6391f5c32d9c69d2a47ea670b442974b53935d1edc7fd64eb21e047a839171b60405160405180910390a45050565b600080612fd26001610e39868863ffffffff61302416565b6040805160208082018790528251808303820181529183019092528051910120909150600090613008908363ffffffff6139a216565b905061301a818763ffffffff612c1816565b9695505050505050565b60008282111561307b576040805162461bcd60e51b815260206004820152601e60248201527f536166654d6174683a207375627472616374696f6e206f766572666c6f770000604482015290519081900360640190fd5b50900390565b604080516020808201949094528082019290925280518083038201815260609092019052805191012090565b6001600160a01b038216613108576040805162461bcd60e51b815260206004820181905260248201527f4552433732313a206d696e7420746f20746865207a65726f2061646472657373604482015290519081900360640190fd5b61311181612b2c565b15613163576040805162461bcd60e51b815260206004820152601c60248201527f4552433732313a20746f6b656e20616c7265616479206d696e74656400000000604482015290519081900360640190fd5b61316f6000838361359d565b6001600160a01b0382166000908152606560205260409020613197908263ffffffff6138f216565b506131aa6066828463ffffffff6138fe16565b5060405181906001600160a01b038416906000907fddf252ad1be2c89b69c2b068fc378daa952ba7f163c4a11628f55a4df523b3ef908290a45050565b60008080806131f68686613a09565b909450925050505b9250929050565b600061198c848484613a84565b63398b9a5d60e21b90565b6001600160e01b0319808216141561327c576040805162461bcd60e51b815260206004820152601c60248201527f4552433136353a20696e76616c696420696e7465726661636520696400000000604482015290519081900360640190fd5b6001600160e01b0319166000908152603360205260409020805460ff19166001179055565b60006132ac30613b4e565b15905090565b600054610100900460ff16806132cb57506132cb6132a1565b806132d9575060005460ff16155b6133145760405162461bcd60e51b815260040180806020018281038252602e81526020018061443b602e913960400191505060405180910390fd5b600054610100900460ff1615801561333f576000805460ff1961ff0019909116610100171660011790555b61334761336f565b61334f613b54565b6133598383613bf1565b8015610e16576000805461ff0019169055505050565b600054610100900460ff168061338857506133886132a1565b80613396575060005460ff16155b6133d15760405162461bcd60e51b815260040180806020018281038252602e81526020018061443b602e913960400191505060405180910390fd5b600054610100900460ff1615801561192f576000805460ff1961ff0019909116610100171660011790558015611941576000805461ff001916905550565b60008083831115613425575060009050806131fe565b50600193919092039150565b6000611331836001600160a01b038416613cd6565b600061198c60008361ffff1661345c8787613081565b612fba565b61346c848484612d72565b61347884848484613cee565b611dc55760405162461bcd60e51b81526004018080602001828103825260328152602001806142fe6032913960400191505060405180910390fd5b6060816134d857506040805180820190915260018152600360fc1b6020820152610bf0565b8160005b81156134f057600101600a820491506134dc565b6060816001600160401b038111801561350857600080fd5b506040519080825280601f01601f191660200182016040528015613533576020820181803683370190505b50859350905060001982015b831561358457600a840660300160f81b8282806001900393508151811061356257fe5b60200101906001600160f81b031916908160001a905350600a8404935061353f565b50949350505050565b60006113318383613cd6565b5490565b6001600160a01b038216158015906135c057506001600160a01b03821661dead14155b80156135f65750604080516d1393d7d3d5d3915117d31253525560921b8152905190819003600e0190206135f490836119e1565b155b1561365857600461360683611758565b10613658576040805162461bcd60e51b815260206004820152601c60248201527f526563762068617320746f6f206d616e79206368617261637465727300000000604482015290519081900360640190fd5b6001600160a01b0383161580159061367857506001600160a01b03821615155b1561371f57613690426201518063ffffffff61302416565b60008281526101cb6020526040902054106136e6576040805162461bcd60e51b81526020600482015260116024820152702a3930b739b332b91031b7b7b63237bbb760791b604482015290519081900360640190fd5b61370860405180806145826027913960270190506040518091039020836119e1565b61371f5760008181526101cb602052604090204290555b6101cc546040805163bf2a28cf60e01b815290516001600160a01b039092169163260730e0918691849163bf2a28cf916004808301926020929190829003018186803b15801561376e57600080fd5b505afa158015613782573d6000803e3d6000fd5b505050506040513d602081101561379857600080fd5b5051604080516001600160e01b031960e086901b1681526001600160a01b039093166004840152602483019190915251604480830192600092919082900301818387803b1580156137e857600080fd5b505af11580156137fc573d6000803e3d6000fd5b50506101cc546040805163bf2a28cf60e01b815290516001600160a01b03909216935063260730e092508591849163bf2a28cf916004808301926020929190829003018186803b15801561384f57600080fd5b505afa158015613863573d6000803e3d6000fd5b505050506040513d602081101561387957600080fd5b5051604080516001600160e01b031960e086901b1681526001600160a01b039093166004840152602483019190915251604480830192600092919082900301818387803b1580156138c957600080fd5b505af11580156138dd573d6000803e3d6000fd5b50505050505050565b60006113318383613e6e565b60006113318383613f34565b600061198c84846001600160a01b038516613f7e565b6000611331836001600160a01b038416613f34565b8154600090821061396b5760405162461bcd60e51b81526004018080602001828103825260228152602001806142ad6022913960400191505060405180910390fd5b82600001828154811061397a57fe5b9060005260206000200154905092915050565b6000611331836001600160a01b038416613e6e565b60008082116139f8576040805162461bcd60e51b815260206004820152601860248201527f536166654d6174683a206d6f64756c6f206279207a65726f0000000000000000604482015290519081900360640190fd5b818381613a0157fe5b069392505050565b815460009081908310613a4d5760405162461bcd60e51b81526004018080602001828103825260228152602001806144696022913960400191505060405180910390fd5b6000846000018481548110613a5e57fe5b906000526020600020906002020190508060000154816001015492509250509250929050565b60008281526001840160205260408120548281613b1f5760405162461bcd60e51b81526004018080602001828103825283818151815260200191508051906020019080838360005b83811015613ae4578181015183820152602001613acc565b50505050905090810190601f168015613b115780820380516001836020036101000a031916815260200191505b509250505060405180910390fd5b50846000016001820381548110613b3257fe5b9060005260206000209060020201600101549150509392505050565b3b151590565b600054610100900460ff1680613b6d5750613b6d6132a1565b80613b7b575060005460ff16155b613bb65760405162461bcd60e51b815260040180806020018281038252602e81526020018061443b602e913960400191505060405180910390fd5b600054610100900460ff16158015613be1576000805460ff1961ff0019909116610100171660011790555b61192f6301ffc9a760e01b61321d565b600054610100900460ff1680613c0a5750613c0a6132a1565b80613c18575060005460ff16155b613c535760405162461bcd60e51b815260040180806020018281038252602e81526020018061443b602e913960400191505060405180910390fd5b600054610100900460ff16158015613c7e576000805460ff1961ff0019909116610100171660011790555b8251613c9190606a906020860190614224565b508151613ca590606b906020850190614224565b50613cb66380ac58cd60e01b61321d565b613cc6635b5e139f60e01b61321d565b61335963780e9d6360e01b61321d565b60009081526001919091016020526040902054151590565b6000613d02846001600160a01b0316613b4e565b613d0e5750600161198c565b6060613e34630a85bd0160e11b613d23612b3f565b88878760405160240180856001600160a01b03166001600160a01b03168152602001846001600160a01b03166001600160a01b0316815260200183815260200180602001828103825283818151815260200191508051906020019080838360005b83811015613d9c578181015183820152602001613d84565b50505050905090810190601f168015613dc95780820380516001836020036101000a031916815260200191505b5095505050505050604051602081830303815290604052906001600160e01b0319166020820180516001600160e01b0383818316178352505050506040518060600160405280603281526020016142fe603291396001600160a01b038816919063ffffffff61401516565b90506000818060200190516020811015613e4d57600080fd5b50516001600160e01b031916630a85bd0160e11b1492505050949350505050565b60008181526001830160205260408120548015613f2a5783546000198083019190810190600090879083908110613ea157fe5b9060005260206000200154905080876000018481548110613ebe57fe5b600091825260208083209091019290925582815260018981019092526040902090840190558654879080613eee57fe5b60019003818190600052602060002001600090559055866001016000878152602001908152602001600020600090556001945050505050611297565b6000915050611297565b6000613f408383613cd6565b613f7657508154600181810184556000848152602080822090930184905584548482528286019093526040902091909155611297565b506000611297565b600082815260018401602052604081205480613fe3575050604080518082018252838152602080820184815286546001818101895560008981528481209551600290930290950191825591519082015586548684528188019092529290912055611331565b82856000016001830381548110613ff657fe5b9060005260206000209060020201600101819055506000915050611331565b606061198c84846000858561402985613b4e565b61407a576040805162461bcd60e51b815260206004820152601d60248201527f416464726573733a2063616c6c20746f206e6f6e2d636f6e7472616374000000604482015290519081900360640190fd5b60006060866001600160a01b031685876040518082805190602001908083835b602083106140b95780518252601f19909201916020918201910161409a565b6001836020036101000a03801982511681845116808217855250505050505090500191505060006040518083038185875af1925050503d806000811461411b576040519150601f19603f3d011682016040523d82523d6000602084013e614120565b606091505b509150915061413082828661413b565b979650505050505050565b6060831561414a575081611331565b82511561415a5782518084602001fd5b60405162461bcd60e51b8152602060048201818152845160248401528451859391928392604401919085019080838360008315613ae4578181015183820152602001613acc565b60408051608081018252600080825260208201819052918101829052606081019190915290565b604080518082019091526000808252602082015290565b826101008101928215614214579160200282015b82811115614214578251829061ffff169055916020019190600101906141f3565b50614220929150614292565b5090565b828054600181600116156101000203166002900490600052602060002090601f016020900481019282601f1061426557805160ff1916838001178555614214565b82800160010185558215614214579182015b82811115614214578251825591602001919060010190614277565b610cdb91905b80821115614220576000815560010161429856fe456e756d657261626c655365743a20696e646578206f7574206f6620626f756e6473416363657373436f6e74726f6c3a2073656e646572206d75737420626520616e2061646d696e20746f206772616e744552433732313a207472616e7366657220746f206e6f6e20455243373231526563656976657220696d706c656d656e7465724552433732313a207472616e7366657220746f20746865207a65726f20616464726573734552433732313a206f70657261746f7220717565727920666f72206e6f6e6578697374656e7420746f6b656e416363657373436f6e74726f6c3a2073656e646572206d75737420626520616e2061646d696e20746f207265766f6b654552433732313a20617070726f76652063616c6c6572206973206e6f74206f776e6572206e6f7220617070726f76656420666f7220616c6c4552433732313a2062616c616e636520717565727920666f7220746865207a65726f20616464726573734552433732313a206f776e657220717565727920666f72206e6f6e6578697374656e7420746f6b656e496e697469616c697a61626c653a20636f6e747261637420697320616c726561647920696e697469616c697a6564456e756d657261626c654d61703a20696e646578206f7574206f6620626f756e6473536166654d6174683a206d756c7469706c69636174696f6e206f766572666c6f774552433732313a20617070726f76656420717565727920666f72206e6f6e6578697374656e7420746f6b656e4552433732313a207472616e73666572206f6620746f6b656e2074686174206973206e6f74206f776e4552433732314d657461646174613a2055524920717565727920666f72206e6f6e6578697374656e7420746f6b656e4552433732313a20617070726f76616c20746f2063757272656e74206f776e65724552433732313a207472616e736665722063616c6c6572206973206e6f74206f776e6572206e6f7220617070726f766564524543454956455f444f45535f4e4f545f5345545f5452414e534645525f54494d455354414d50416363657373436f6e74726f6c3a2063616e206f6e6c792072656e6f756e636520726f6c657320666f722073656c66a26469706673582212207051635095ccbe6dc9c4c145aeb90ab38edf39714b15dd6b1ebbdf504a777faa64736f6c63430006050033",
  "immutableReferences": {},
  "source": "pragma solidity ^0.6.0;\n\nimport \"@openzeppelin/contracts-upgradeable/proxy/Initializable.sol\";\nimport \"@openzeppelin/contracts-upgradeable/token/ERC721/ERC721Upgradeable.sol\";\nimport \"@openzeppelin/contracts-upgradeable/access/AccessControlUpgradeable.sol\";\nimport \"../node_modules/@openzeppelin/contracts/math/SafeMath.sol\";\nimport \"./Promos.sol\";\nimport \"./util.sol\";\nimport \"./interfaces/ITransferCooldownable.sol\";\n\ncontract Characters is Initializable, ERC721Upgradeable, AccessControlUpgradeable, ITransferCooldownable {\n\n    using SafeMath for uint16;\n    using SafeMath for uint8;\n\n    bytes32 public constant GAME_ADMIN = keccak256(\"GAME_ADMIN\");\n    bytes32 public constant NO_OWNED_LIMIT = keccak256(\"NO_OWNED_LIMIT\");\n    bytes32 public constant RECEIVE_DOES_NOT_SET_TRANSFER_TIMESTAMP = keccak256(\"RECEIVE_DOES_NOT_SET_TRANSFER_TIMESTAMP\");\n\n    uint256 public constant TRANSFER_COOLDOWN = 1 days;\n\n    function initialize () public initializer {\n        __ERC721_init(\"WTHell character\", \"CBC\");\n        __AccessControl_init_unchained();\n\n        _setupRole(DEFAULT_ADMIN_ROLE, msg.sender);\n    }\n\n    function migrateTo_1ee400a() public {\n        require(hasRole(DEFAULT_ADMIN_ROLE, msg.sender), \"Not admin\");\n\n        experienceTable = [\n            16, 17, 18, 19, 20, 22, 24, 26, 28, 30, 33, 36, 39, 42, 46, 50, 55, 60, 66\n            , 72, 79, 86, 94, 103, 113, 124, 136, 149, 163, 178, 194, 211, 229, 248, 268\n            , 289, 311, 334, 358, 383, 409, 436, 464, 493, 523, 554, 586, 619, 653, 688\n            , 724, 761, 799, 838, 878, 919, 961, 1004, 1048, 1093, 1139, 1186, 1234, 1283\n            , 1333, 1384, 1436, 1489, 1543, 1598, 1654, 1711, 1769, 1828, 1888, 1949, 2011\n            , 2074, 2138, 2203, 2269, 2336, 2404, 2473, 2543, 2614, 2686, 2759, 2833, 2908\n            , 2984, 3061, 3139, 3218, 3298, 3379, 3461, 3544, 3628, 3713, 3799, 3886, 3974\n            , 4063, 4153, 4244, 4336, 4429, 4523, 4618, 4714, 4811, 4909, 5008, 5108, 5209\n            , 5311, 5414, 5518, 5623, 5729, 5836, 5944, 6053, 6163, 6274, 6386, 6499, 6613\n            , 6728, 6844, 6961, 7079, 7198, 7318, 7439, 7561, 7684, 7808, 7933, 8059, 8186\n            , 8314, 8443, 8573, 8704, 8836, 8969, 9103, 9238, 9374, 9511, 9649, 9788, 9928\n            , 10069, 10211, 10354, 10498, 10643, 10789, 10936, 11084, 11233, 11383, 11534\n            , 11686, 11839, 11993, 12148, 12304, 12461, 12619, 12778, 12938, 13099, 13261\n            , 13424, 13588, 13753, 13919, 14086, 14254, 14423, 14593, 14764, 14936, 15109\n            , 15283, 15458, 15634, 15811, 15989, 16168, 16348, 16529, 16711, 16894, 17078\n            , 17263, 17449, 17636, 17824, 18013, 18203, 18394, 18586, 18779, 18973, 19168\n            , 19364, 19561, 19759, 19958, 20158, 20359, 20561, 20764, 20968, 21173, 21379\n            , 21586, 21794, 22003, 22213, 22424, 22636, 22849, 23063, 23278, 23494, 23711\n            , 23929, 24148, 24368, 24589, 24811, 25034, 25258, 25483, 25709, 25936, 26164\n            , 26393, 26623, 26854, 27086, 27319, 27553, 27788, 28024, 28261, 28499, 28738\n            , 28978\n        ];\n    }\n\n    function migrateTo_951a020() public {\n        require(hasRole(DEFAULT_ADMIN_ROLE, msg.sender), \"Not admin\");\n\n        _registerInterface(TransferCooldownableInterfaceId.interfaceId());\n    }\n\n    function migrateTo_ef994e2(Promos _promos) public {\n        require(hasRole(DEFAULT_ADMIN_ROLE, msg.sender), \"Not admin\");\n\n        promos = _promos;\n    }\n\n    /*\n        visual numbers start at 0, increment values by 1\n        levels: 1-256\n        traits: 0-3 [0(fire) > 1(earth) > 2(lightning) > 3(water) > repeat]\n    */\n\n    struct Character {\n        uint16 xp; // xp to next level\n        uint8 level; // up to 256 cap\n        uint8 trait; // 2b trait, TBD\n        uint64 staminaTimestamp; // standard timestamp in seconds-resolution marking regen start from 0\n    }\n    struct CharacterCosmetics {\n        uint8 version;\n        uint256 seed;\n    }\n\n    Character[] private tokens;\n    CharacterCosmetics[] private cosmetics;\n\n    uint256 public constant maxStamina = 200;\n    uint256 public constant secondsPerStamina = 300; //5 * 60\n\n    uint256[256] private experienceTable; // fastest lookup in the west\n\n    mapping(uint256 => uint256) public override lastTransferTimestamp;\n\n    Promos public promos;\n\n    event NewCharacter(uint256 indexed character, address indexed minter);\n    event LevelUp(address indexed owner, uint256 indexed character, uint16 level);\n\n    modifier restricted() {\n        require(hasRole(GAME_ADMIN, msg.sender), \"Not game admin\");\n        _;\n    }\n\n    function transferCooldownEnd(uint256 tokenId) public override view returns (uint256) {\n        return lastTransferTimestamp[tokenId].add(TRANSFER_COOLDOWN);\n    }\n\n    function transferCooldownLeft(uint256 tokenId) public override view returns (uint256) {\n        (bool success, uint256 secondsLeft) =\n            lastTransferTimestamp[tokenId].trySub(\n                block.timestamp.sub(TRANSFER_COOLDOWN)\n            );\n\n        return success ? secondsLeft : 0;\n    }\n\n    function get(uint256 id) public view returns (uint16, uint8, uint8, uint64, uint16, uint16, uint16, uint16, uint16, uint16) {\n        Character memory c = tokens[id];\n        CharacterCosmetics memory cc = cosmetics[id];\n        return (c.xp, c.level, c.trait, c.staminaTimestamp,\n            getRandomCosmetic(cc.seed, 1, 13), // head\n            getRandomCosmetic(cc.seed, 2, 45), // arms\n            getRandomCosmetic(cc.seed, 3, 61), // torso\n            getRandomCosmetic(cc.seed, 4, 41), // legs\n            getRandomCosmetic(cc.seed, 5, 22), // boots\n            getRandomCosmetic(cc.seed, 6, 2) // race\n        );\n    }\n\n    function getRandomCosmetic(uint256 seed, uint256 seed2, uint16 limit) private pure returns (uint16) {\n        return uint16(RandomUtil.randomSeededMinMax(0, limit, RandomUtil.combineSeeds(seed, seed2)));\n    }\n\n    function mint(address minter, uint256 seed) public restricted {\n        uint256 tokenID = tokens.length;\n\n        uint16 xp = 0;\n        uint8 level = 0; // 1\n        uint8 trait = uint8(RandomUtil.randomSeededMinMax(0,3,seed));\n        uint64 staminaTimestamp = uint64(now.sub(getStaminaMaxWait()));\n\n        tokens.push(Character(xp, level, trait, staminaTimestamp));\n        cosmetics.push(CharacterCosmetics(0, RandomUtil.combineSeeds(seed, 1)));\n        _mint(minter, tokenID);\n        emit NewCharacter(tokenID, minter);\n    }\n\n    function getLevel(uint256 id) public view returns (uint8) {\n        return tokens[id].level; // this is used by dataminers and it benefits us\n    }\n\n    function getRequiredXpForNextLevel(uint8 currentLevel) public view returns (uint16) {\n        return uint16(experienceTable[currentLevel]); // this is helpful to users as the array is private\n    }\n\n    function getPower(uint256 id) public view returns (uint24) {\n        return getPowerAtLevel(tokens[id].level);\n    }\n\n    function getPowerAtLevel(uint8 level) public pure returns (uint24) {\n        // does not use fixed points since the numbers are simple\n        // the breakpoints every 10 levels are floored as expected\n        // level starts at 0 (visually 1)\n        // 1000 at lvl 1\n        // 9000 at lvl 51 (~3months)\n        // 22440 at lvl 105 (~3 years)\n        // 92300 at lvl 255 (heat death of the universe)\n        return uint24(\n            uint256(1000)\n                .add(level.mul(10))\n                .mul(level.div(10).add(1))\n        );\n    }\n\n    function getTrait(uint256 id) public view returns (uint8) {\n        return tokens[id].trait;\n    }\n\n    function getXp(uint256 id) public view returns (uint32) {\n        return tokens[id].xp;\n    }\n\n    function gainXp(uint256 id, uint16 xp) public restricted {\n        Character storage char = tokens[id];\n        if(char.level < 255) {\n            uint newXp = char.xp.add(xp);\n            uint requiredToLevel = experienceTable[char.level]; // technically next level\n            while(newXp >= requiredToLevel) {\n                newXp = newXp - requiredToLevel;\n                char.level += 1;\n                emit LevelUp(ownerOf(id), id, char.level);\n                if(char.level < 255)\n                    requiredToLevel = experienceTable[char.level];\n                else\n                    newXp = 0;\n            }\n            char.xp = uint16(newXp);\n        }\n    }\n\n    function getStaminaTimestamp(uint256 id) public view returns (uint64) {\n        return tokens[id].staminaTimestamp;\n    }\n\n    function setStaminaTimestamp(uint256 id, uint64 timestamp) public restricted {\n        tokens[id].staminaTimestamp = timestamp;\n    }\n\n    function getStaminaPoints(uint256 id) public view returns (uint8) {\n        return getStaminaPointsFromTimestamp(tokens[id].staminaTimestamp);\n    }\n\n    function getStaminaPointsFromTimestamp(uint64 timestamp) public view returns (uint8) {\n        if(timestamp  > now)\n            return 0;\n\n        uint256 points = (now - timestamp) / secondsPerStamina;\n        if(points > maxStamina) {\n            points = maxStamina;\n        }\n        return uint8(points);\n    }\n\n    function isStaminaFull(uint256 id) public view returns (bool) {\n        return getStaminaPoints(id) >= maxStamina;\n    }\n\n    function getStaminaMaxWait() public pure returns (uint64) {\n        return uint64(maxStamina * secondsPerStamina);\n    }\n\n    function getFightDataAndDrainStamina(uint256 id, uint8 amount) public restricted returns(uint96) {\n        Character storage char = tokens[id];\n        uint8 staminaPoints = getStaminaPointsFromTimestamp(char.staminaTimestamp);\n        require(staminaPoints >= amount, \"Not enough stamina!\");\n\n        uint64 drainTime = uint64(amount * secondsPerStamina);\n        uint64 preTimestamp = char.staminaTimestamp;\n        if(staminaPoints >= maxStamina) { // if stamina full, we reset timestamp and drain from that\n            char.staminaTimestamp = uint64(now - getStaminaMaxWait() + drainTime);\n        }\n        else {\n            char.staminaTimestamp = uint64(char.staminaTimestamp + drainTime);\n        }\n        // bitwise magic to avoid stacking limitations later on\n        return uint96(char.trait | (getPowerAtLevel(char.level) << 8) | (preTimestamp << 32));\n    }\n\n    function _beforeTokenTransfer(address from, address to, uint256 tokenId) internal override {\n        if(to != address(0) && to != address(0x000000000000000000000000000000000000dEaD) && !hasRole(NO_OWNED_LIMIT, to)) {\n            require(balanceOf(to) < 4, \"Recv has too many characters\");\n        }\n\n        // when not minting or burning...\n        if(from != address(0) && to != address(0)) {\n            // only allow transferring a particular token every TRANSFER_COOLDOWN seconds\n            require(lastTransferTimestamp[tokenId] < block.timestamp.sub(TRANSFER_COOLDOWN), \"Transfer cooldown\");\n\n            if(!hasRole(RECEIVE_DOES_NOT_SET_TRANSFER_TIMESTAMP, to)) {\n                lastTransferTimestamp[tokenId] = block.timestamp;\n            }\n        }\n\n        promos.setBit(from, promos.BIT_FIRST_CHARACTER());\n        promos.setBit(to, promos.BIT_FIRST_CHARACTER());\n    }\n}\n",
  "sourcePath": "C:\\Users\\Asus\\Desktop\\PROJECT\\hell_meter\\contracts\\characters.sol",
  "compiler": {
    "name": "solc",
    "version": "0.6.5+commit.f956cc89.Emscripten.clang"
  },
  "schemaVersion": "3.3.4",
  "updatedAt": "2022-08-10T23:31:35.342Z",
  "networkType": "ethereum",
  "devdoc": {
    "methods": {
      "approve(address,uint256)": {
        "details": "See {IERC721-approve}."
      },
      "balanceOf(address)": {
        "details": "See {IERC721-balanceOf}."
      },
      "baseURI()": {
        "details": "Returns the base URI set via {_setBaseURI}. This will be automatically added as a prefix in {tokenURI} to each token's URI, or to the token ID if no specific URI is set for that token ID."
      },
      "getApproved(uint256)": {
        "details": "See {IERC721-getApproved}."
      },
      "getRoleAdmin(bytes32)": {
        "details": "Returns the admin role that controls `role`. See {grantRole} and {revokeRole}.     * To change a role's admin, use {_setRoleAdmin}."
      },
      "getRoleMember(bytes32,uint256)": {
        "details": "Returns one of the accounts that have `role`. `index` must be a value between 0 and {getRoleMemberCount}, non-inclusive.     * Role bearers are not sorted in any particular way, and their ordering may change at any point.     * WARNING: When using {getRoleMember} and {getRoleMemberCount}, make sure you perform all queries on the same block. See the following https://forum.openzeppelin.com/t/iterating-over-elements-on-enumerableset-in-openzeppelin-contracts/2296[forum post] for more information."
      },
      "getRoleMemberCount(bytes32)": {
        "details": "Returns the number of accounts that have `role`. Can be used together with {getRoleMember} to enumerate all bearers of a role."
      },
      "grantRole(bytes32,address)": {
        "details": "Grants `role` to `account`.     * If `account` had not been already granted `role`, emits a {RoleGranted} event.     * Requirements:     * - the caller must have ``role``'s admin role."
      },
      "hasRole(bytes32,address)": {
        "details": "Returns `true` if `account` has been granted `role`."
      },
      "isApprovedForAll(address,address)": {
        "details": "See {IERC721-isApprovedForAll}."
      },
      "name()": {
        "details": "See {IERC721Metadata-name}."
      },
      "ownerOf(uint256)": {
        "details": "See {IERC721-ownerOf}."
      },
      "renounceRole(bytes32,address)": {
        "details": "Revokes `role` from the calling account.     * Roles are often managed via {grantRole} and {revokeRole}: this function's purpose is to provide a mechanism for accounts to lose their privileges if they are compromised (such as when a trusted device is misplaced).     * If the calling account had been granted `role`, emits a {RoleRevoked} event.     * Requirements:     * - the caller must be `account`."
      },
      "revokeRole(bytes32,address)": {
        "details": "Revokes `role` from `account`.     * If `account` had been granted `role`, emits a {RoleRevoked} event.     * Requirements:     * - the caller must have ``role``'s admin role."
      },
      "safeTransferFrom(address,address,uint256)": {
        "details": "See {IERC721-safeTransferFrom}."
      },
      "safeTransferFrom(address,address,uint256,bytes)": {
        "details": "See {IERC721-safeTransferFrom}."
      },
      "setApprovalForAll(address,bool)": {
        "details": "See {IERC721-setApprovalForAll}."
      },
      "supportsInterface(bytes4)": {
        "details": "See {IERC165-supportsInterface}.     * Time complexity O(1), guaranteed to always use less than 30 000 gas."
      },
      "symbol()": {
        "details": "See {IERC721Metadata-symbol}."
      },
      "tokenByIndex(uint256)": {
        "details": "See {IERC721Enumerable-tokenByIndex}."
      },
      "tokenOfOwnerByIndex(address,uint256)": {
        "details": "See {IERC721Enumerable-tokenOfOwnerByIndex}."
      },
      "tokenURI(uint256)": {
        "details": "See {IERC721Metadata-tokenURI}."
      },
      "totalSupply()": {
        "details": "See {IERC721Enumerable-totalSupply}."
      },
      "transferFrom(address,address,uint256)": {
        "details": "See {IERC721-transferFrom}."
      }
    }
  },
  "userdoc": {
    "methods": {}
  }
}