{
  "contractName": "ERC721Upgradeable",
  "abi": [
    {
      "anonymous": false,
      "inputs": [
        {
          "indexed": true,
          "internalType": "address",
          "name": "owner",
          "type": "address"
        },
        {
          "indexed": true,
          "internalType": "address",
          "name": "approved",
          "type": "address"
        },
        {
          "indexed": true,
          "internalType": "uint256",
          "name": "tokenId",
          "type": "uint256"
        }
      ],
      "name": "Approval",
      "type": "event"
    },
    {
      "anonymous": false,
      "inputs": [
        {
          "indexed": true,
          "internalType": "address",
          "name": "owner",
          "type": "address"
        },
        {
          "indexed": true,
          "internalType": "address",
          "name": "operator",
          "type": "address"
        },
        {
          "indexed": false,
          "internalType": "bool",
          "name": "approved",
          "type": "bool"
        }
      ],
      "name": "ApprovalForAll",
      "type": "event"
    },
    {
      "anonymous": false,
      "inputs": [
        {
          "indexed": true,
          "internalType": "address",
          "name": "from",
          "type": "address"
        },
        {
          "indexed": true,
          "internalType": "address",
          "name": "to",
          "type": "address"
        },
        {
          "indexed": true,
          "internalType": "uint256",
          "name": "tokenId",
          "type": "uint256"
        }
      ],
      "name": "Transfer",
      "type": "event"
    },
    {
      "inputs": [
        {
          "internalType": "bytes4",
          "name": "interfaceId",
          "type": "bytes4"
        }
      ],
      "name": "supportsInterface",
      "outputs": [
        {
          "internalType": "bool",
          "name": "",
          "type": "bool"
        }
      ],
      "stateMutability": "view",
      "type": "function"
    },
    {
      "inputs": [
        {
          "internalType": "address",
          "name": "owner",
          "type": "address"
        }
      ],
      "name": "balanceOf",
      "outputs": [
        {
          "internalType": "uint256",
          "name": "",
          "type": "uint256"
        }
      ],
      "stateMutability": "view",
      "type": "function"
    },
    {
      "inputs": [
        {
          "internalType": "uint256",
          "name": "tokenId",
          "type": "uint256"
        }
      ],
      "name": "ownerOf",
      "outputs": [
        {
          "internalType": "address",
          "name": "",
          "type": "address"
        }
      ],
      "stateMutability": "view",
      "type": "function"
    },
    {
      "inputs": [],
      "name": "name",
      "outputs": [
        {
          "internalType": "string",
          "name": "",
          "type": "string"
        }
      ],
      "stateMutability": "view",
      "type": "function"
    },
    {
      "inputs": [],
      "name": "symbol",
      "outputs": [
        {
          "internalType": "string",
          "name": "",
          "type": "string"
        }
      ],
      "stateMutability": "view",
      "type": "function"
    },
    {
      "inputs": [
        {
          "internalType": "uint256",
          "name": "tokenId",
          "type": "uint256"
        }
      ],
      "name": "tokenURI",
      "outputs": [
        {
          "internalType": "string",
          "name": "",
          "type": "string"
        }
      ],
      "stateMutability": "view",
      "type": "function"
    },
    {
      "inputs": [],
      "name": "baseURI",
      "outputs": [
        {
          "internalType": "string",
          "name": "",
          "type": "string"
        }
      ],
      "stateMutability": "view",
      "type": "function"
    },
    {
      "inputs": [
        {
          "internalType": "address",
          "name": "owner",
          "type": "address"
        },
        {
          "internalType": "uint256",
          "name": "index",
          "type": "uint256"
        }
      ],
      "name": "tokenOfOwnerByIndex",
      "outputs": [
        {
          "internalType": "uint256",
          "name": "",
          "type": "uint256"
        }
      ],
      "stateMutability": "view",
      "type": "function"
    },
    {
      "inputs": [],
      "name": "totalSupply",
      "outputs": [
        {
          "internalType": "uint256",
          "name": "",
          "type": "uint256"
        }
      ],
      "stateMutability": "view",
      "type": "function"
    },
    {
      "inputs": [
        {
          "internalType": "uint256",
          "name": "index",
          "type": "uint256"
        }
      ],
      "name": "tokenByIndex",
      "outputs": [
        {
          "internalType": "uint256",
          "name": "",
          "type": "uint256"
        }
      ],
      "stateMutability": "view",
      "type": "function"
    },
    {
      "inputs": [
        {
          "internalType": "address",
          "name": "to",
          "type": "address"
        },
        {
          "internalType": "uint256",
          "name": "tokenId",
          "type": "uint256"
        }
      ],
      "name": "approve",
      "outputs": [],
      "stateMutability": "nonpayable",
      "type": "function"
    },
    {
      "inputs": [
        {
          "internalType": "uint256",
          "name": "tokenId",
          "type": "uint256"
        }
      ],
      "name": "getApproved",
      "outputs": [
        {
          "internalType": "address",
          "name": "",
          "type": "address"
        }
      ],
      "stateMutability": "view",
      "type": "function"
    },
    {
      "inputs": [
        {
          "internalType": "address",
          "name": "operator",
          "type": "address"
        },
        {
          "internalType": "bool",
          "name": "approved",
          "type": "bool"
        }
      ],
      "name": "setApprovalForAll",
      "outputs": [],
      "stateMutability": "nonpayable",
      "type": "function"
    },
    {
      "inputs": [
        {
          "internalType": "address",
          "name": "owner",
          "type": "address"
        },
        {
          "internalType": "address",
          "name": "operator",
          "type": "address"
        }
      ],
      "name": "isApprovedForAll",
      "outputs": [
        {
          "internalType": "bool",
          "name": "",
          "type": "bool"
        }
      ],
      "stateMutability": "view",
      "type": "function"
    },
    {
      "inputs": [
        {
          "internalType": "address",
          "name": "from",
          "type": "address"
        },
        {
          "internalType": "address",
          "name": "to",
          "type": "address"
        },
        {
          "internalType": "uint256",
          "name": "tokenId",
          "type": "uint256"
        }
      ],
      "name": "transferFrom",
      "outputs": [],
      "stateMutability": "nonpayable",
      "type": "function"
    },
    {
      "inputs": [
        {
          "internalType": "address",
          "name": "from",
          "type": "address"
        },
        {
          "internalType": "address",
          "name": "to",
          "type": "address"
        },
        {
          "internalType": "uint256",
          "name": "tokenId",
          "type": "uint256"
        }
      ],
      "name": "safeTransferFrom",
      "outputs": [],
      "stateMutability": "nonpayable",
      "type": "function"
    },
    {
      "inputs": [
        {
          "internalType": "address",
          "name": "from",
          "type": "address"
        },
        {
          "internalType": "address",
          "name": "to",
          "type": "address"
        },
        {
          "internalType": "uint256",
          "name": "tokenId",
          "type": "uint256"
        },
        {
          "internalType": "bytes",
          "name": "_data",
          "type": "bytes"
        }
      ],
      "name": "safeTransferFrom",
      "outputs": [],
      "stateMutability": "nonpayable",
      "type": "function"
    }
  ],
  "bytecode": "0x608060405234801561001057600080fd5b506119d5806100206000396000f3fe608060405234801561001057600080fd5b506004361061010b5760003560e01c80634f6ccce7116100a257806395d89b411161007157806395d89b4114610349578063a22cb46514610351578063b88d4fde1461037f578063c87b56dd14610445578063e985e9c5146104625761010b565b80634f6ccce7146102e15780636352211e146102fe5780636c0360eb1461031b57806370a08231146103235761010b565b806318160ddd116100de57806318160ddd1461022f57806323b872dd146102495780632f745c591461027f57806342842e0e146102ab5761010b565b806301ffc9a71461011057806306fdde031461014b578063081812fc146101c8578063095ea7b314610201575b600080fd5b6101376004803603602081101561012657600080fd5b50356001600160e01b031916610490565b604080519115158252519081900360200190f35b6101536104b3565b6040805160208082528351818301528351919283929083019185019080838360005b8381101561018d578181015183820152602001610175565b50505050905090810190601f1680156101ba5780820380516001836020036101000a031916815260200191505b509250505060405180910390f35b6101e5600480360360208110156101de57600080fd5b5035610549565b604080516001600160a01b039092168252519081900360200190f35b61022d6004803603604081101561021757600080fd5b506001600160a01b0381351690602001356105ab565b005b610237610686565b60408051918252519081900360200190f35b61022d6004803603606081101561025f57600080fd5b506001600160a01b03813581169160208101359091169060400135610697565b6102376004803603604081101561029557600080fd5b506001600160a01b0381351690602001356106ee565b61022d600480360360608110156102c157600080fd5b506001600160a01b0381358116916020810135909116906040013561071f565b610237600480360360208110156102f757600080fd5b503561073a565b6101e56004803603602081101561031457600080fd5b5035610756565b610153610784565b6102376004803603602081101561033957600080fd5b50356001600160a01b03166107e5565b61015361084d565b61022d6004803603604081101561036757600080fd5b506001600160a01b03813516906020013515156108ae565b61022d6004803603608081101561039557600080fd5b6001600160a01b038235811692602081013590911691604082013591908101906080810160608201356401000000008111156103d057600080fd5b8201836020820111156103e257600080fd5b8035906020019184600183028401116401000000008311171561040457600080fd5b91908080601f0160208091040260200160405190810160405280939291908181526020018383808284376000920191909152509295506109b3945050505050565b6101536004803603602081101561045b57600080fd5b5035610a11565b6101376004803603604081101561047857600080fd5b506001600160a01b0381358116916020013516610c94565b6001600160e01b0319811660009081526033602052604090205460ff165b919050565b606a8054604080516020601f600260001961010060018816150201909516949094049384018190048102820181019092528281526060939092909183018282801561053f5780601f106105145761010080835404028352916020019161053f565b820191906000526020600020905b81548152906001019060200180831161052257829003601f168201915b5050505050905090565b600061055482610cc2565b61058f5760405162461bcd60e51b815260040180806020018281038252602c8152602001806118ca602c913960400191505060405180910390fd5b506000908152606860205260409020546001600160a01b031690565b60006105b682610756565b9050806001600160a01b0316836001600160a01b031614156106095760405162461bcd60e51b815260040180806020018281038252602181526020018061194e6021913960400191505060405180910390fd5b806001600160a01b031661061b610cd5565b6001600160a01b0316148061063c575061063c81610637610cd5565b610c94565b6106775760405162461bcd60e51b815260040180806020018281038252603881526020018061181d6038913960400191505060405180910390fd5b6106818383610cd9565b505050565b60006106926066610d47565b905090565b6106a86106a2610cd5565b82610d52565b6106e35760405162461bcd60e51b815260040180806020018281038252603181526020018061196f6031913960400191505060405180910390fd5b610681838383610df6565b6001600160a01b0382166000908152606560205260408120610716908363ffffffff610f5416565b90505b92915050565b610681838383604051806020016040528060008152506109b3565b60008061074e60668463ffffffff610f6016565b509392505050565b60006107198260405180606001604052806029815260200161187f602991396066919063ffffffff610f7c16565b606d8054604080516020601f600260001961010060018816150201909516949094049384018190048102820181019092528281526060939092909183018282801561053f5780601f106105145761010080835404028352916020019161053f565b60006001600160a01b03821661082c5760405162461bcd60e51b815260040180806020018281038252602a815260200180611855602a913960400191505060405180910390fd5b6001600160a01b038216600090815260656020526040902061071990610d47565b606b8054604080516020601f600260001961010060018816150201909516949094049384018190048102820181019092528281526060939092909183018282801561053f5780601f106105145761010080835404028352916020019161053f565b6108b6610cd5565b6001600160a01b0316826001600160a01b0316141561091c576040805162461bcd60e51b815260206004820152601960248201527f4552433732313a20617070726f766520746f2063616c6c657200000000000000604482015290519081900360640190fd5b8060696000610929610cd5565b6001600160a01b03908116825260208083019390935260409182016000908120918716808252919093529120805460ff19169215159290921790915561096d610cd5565b60408051841515815290516001600160a01b0392909216917f17307eab39ab6107e8899845ad3d59bd9653f200f220920489ca2b5937696c319181900360200190a35050565b6109c46109be610cd5565b83610d52565b6109ff5760405162461bcd60e51b815260040180806020018281038252603181526020018061196f6031913960400191505060405180910390fd5b610a0b84848484610f93565b50505050565b6060610a1c82610cc2565b610a575760405162461bcd60e51b815260040180806020018281038252602f81526020018061191f602f913960400191505060405180910390fd5b6000828152606c602090815260409182902080548351601f6002600019610100600186161502019093169290920491820184900484028101840190945280845260609392830182828015610aec5780601f10610ac157610100808354040283529160200191610aec565b820191906000526020600020905b815481529060010190602001808311610acf57829003601f168201915b505050505090506060610afd610784565b9050805160001415610b11575090506104ae565b815115610bd25780826040516020018083805190602001908083835b60208310610b4c5780518252601f199092019160209182019101610b2d565b51815160209384036101000a600019018019909216911617905285519190930192850191508083835b60208310610b945780518252601f199092019160209182019101610b75565b6001836020036101000a03801982511681845116808217855250505050505090500192505050604051602081830303815290604052925050506104ae565b80610bdc85610fe5565b6040516020018083805190602001908083835b60208310610c0e5780518252601f199092019160209182019101610bef565b51815160209384036101000a600019018019909216911617905285519190930192850191508083835b60208310610c565780518252601f199092019160209182019101610c37565b6001836020036101000a0380198251168184511680821785525050505050509050019250505060405160208183030381529060405292505050919050565b6001600160a01b03918216600090815260696020908152604080832093909416825291909152205460ff1690565b600061071960668363ffffffff6110c016565b3390565b600081815260686020526040902080546001600160a01b0319166001600160a01b0384169081179091558190610d0e82610756565b6001600160a01b03167f8c5be1e5ebec7d5bd14f71427d1e84f3dd0314c0f7b2291e5b200ac8c7c3b92560405160405180910390a45050565b6000610719826110cc565b6000610d5d82610cc2565b610d985760405162461bcd60e51b815260040180806020018281038252602c8152602001806117f1602c913960400191505060405180910390fd5b6000610da383610756565b9050806001600160a01b0316846001600160a01b03161480610dde5750836001600160a01b0316610dd384610549565b6001600160a01b0316145b80610dee5750610dee8185610c94565b949350505050565b826001600160a01b0316610e0982610756565b6001600160a01b031614610e4e5760405162461bcd60e51b81526004018080602001828103825260298152602001806118f66029913960400191505060405180910390fd5b6001600160a01b038216610e935760405162461bcd60e51b81526004018080602001828103825260248152602001806117cd6024913960400191505060405180910390fd5b610e9e838383610681565b610ea9600082610cd9565b6001600160a01b0383166000908152606560205260409020610ed1908263ffffffff6110d016565b506001600160a01b0382166000908152606560205260409020610efa908263ffffffff6110dc16565b50610f0d6066828463ffffffff6110e816565b5080826001600160a01b0316846001600160a01b03167fddf252ad1be2c89b69c2b068fc378daa952ba7f163c4a11628f55a4df523b3ef60405160405180910390a4505050565b600061071683836110fe565b6000808080610f6f8686611162565b9097909650945050505050565b6000610f898484846111dd565b90505b9392505050565b610f9e848484610df6565b610faa848484846112a7565b610a0b5760405162461bcd60e51b815260040180806020018281038252603281526020018061179b6032913960400191505060405180910390fd5b60608161100a57506040805180820190915260018152600360fc1b60208201526104ae565b8160005b811561102257600101600a8204915061100e565b60608167ffffffffffffffff8111801561103b57600080fd5b506040519080825280601f01601f191660200182016040528015611066576020820181803683370190505b50859350905060001982015b83156110b757600a840660300160f81b8282806001900393508151811061109557fe5b60200101906001600160f81b031916908160001a905350600a84049350611072565b50949350505050565b60006107168383611427565b5490565b6000610716838361143f565b60006107168383611505565b6000610f8984846001600160a01b03851661154f565b815460009082106111405760405162461bcd60e51b81526004018080602001828103825260228152602001806117796022913960400191505060405180910390fd5b82600001828154811061114f57fe5b9060005260206000200154905092915050565b8154600090819083106111a65760405162461bcd60e51b81526004018080602001828103825260228152602001806118a86022913960400191505060405180910390fd5b60008460000184815481106111b757fe5b906000526020600020906002020190508060000154816001015492509250509250929050565b600082815260018401602052604081205482816112785760405162461bcd60e51b81526004018080602001828103825283818151815260200191508051906020019080838360005b8381101561123d578181015183820152602001611225565b50505050905090810190601f16801561126a5780820380516001836020036101000a031916815260200191505b509250505060405180910390fd5b5084600001600182038154811061128b57fe5b9060005260206000209060020201600101549150509392505050565b60006112bb846001600160a01b03166115e6565b6112c757506001610dee565b60606113ed630a85bd0160e11b6112dc610cd5565b88878760405160240180856001600160a01b03166001600160a01b03168152602001846001600160a01b03166001600160a01b0316815260200183815260200180602001828103825283818151815260200191508051906020019080838360005b8381101561135557818101518382015260200161133d565b50505050905090810190601f1680156113825780820380516001836020036101000a031916815260200191505b5095505050505050604051602081830303815290604052906001600160e01b0319166020820180516001600160e01b03838183161783525050505060405180606001604052806032815260200161179b603291396001600160a01b038816919063ffffffff6115ec16565b9050600081806020019051602081101561140657600080fd5b50516001600160e01b031916630a85bd0160e11b1492505050949350505050565b60009081526001919091016020526040902054151590565b600081815260018301602052604081205480156114fb578354600019808301919081019060009087908390811061147257fe5b906000526020600020015490508087600001848154811061148f57fe5b6000918252602080832090910192909255828152600189810190925260409020908401905586548790806114bf57fe5b60019003818190600052602060002001600090559055866001016000878152602001908152602001600020600090556001945050505050610719565b6000915050610719565b60006115118383611427565b61154757508154600181810184556000848152602080822090930184905584548482528286019093526040902091909155610719565b506000610719565b6000828152600184016020526040812054806115b4575050604080518082018252838152602080820184815286546001818101895560008981528481209551600290930290950191825591519082015586548684528188019092529290912055610f8c565b828560000160018303815481106115c757fe5b9060005260206000209060020201600101819055506000915050610f8c565b3b151590565b6060610f89848460008585611600856115e6565b611651576040805162461bcd60e51b815260206004820152601d60248201527f416464726573733a2063616c6c20746f206e6f6e2d636f6e7472616374000000604482015290519081900360640190fd5b60006060866001600160a01b031685876040518082805190602001908083835b602083106116905780518252601f199092019160209182019101611671565b6001836020036101000a03801982511681845116808217855250505050505090500191505060006040518083038185875af1925050503d80600081146116f2576040519150601f19603f3d011682016040523d82523d6000602084013e6116f7565b606091505b5091509150611707828286611712565b979650505050505050565b60608315611721575081610f8c565b8251156117315782518084602001fd5b60405162461bcd60e51b815260206004820181815284516024840152845185939192839260440191908501908083836000831561123d57818101518382015260200161122556fe456e756d657261626c655365743a20696e646578206f7574206f6620626f756e64734552433732313a207472616e7366657220746f206e6f6e20455243373231526563656976657220696d706c656d656e7465724552433732313a207472616e7366657220746f20746865207a65726f20616464726573734552433732313a206f70657261746f7220717565727920666f72206e6f6e6578697374656e7420746f6b656e4552433732313a20617070726f76652063616c6c6572206973206e6f74206f776e6572206e6f7220617070726f76656420666f7220616c6c4552433732313a2062616c616e636520717565727920666f7220746865207a65726f20616464726573734552433732313a206f776e657220717565727920666f72206e6f6e6578697374656e7420746f6b656e456e756d657261626c654d61703a20696e646578206f7574206f6620626f756e64734552433732313a20617070726f76656420717565727920666f72206e6f6e6578697374656e7420746f6b656e4552433732313a207472616e73666572206f6620746f6b656e2074686174206973206e6f74206f776e4552433732314d657461646174613a2055524920717565727920666f72206e6f6e6578697374656e7420746f6b656e4552433732313a20617070726f76616c20746f2063757272656e74206f776e65724552433732313a207472616e736665722063616c6c6572206973206e6f74206f776e6572206e6f7220617070726f766564a264697066735822122000922988efb6e14b276bb596ac5f1497a90085da419beff054852a15538aa95064736f6c63430006050033",
  "immutableReferences": {},
  "source": "// SPDX-License-Identifier: MIT\n\npragma solidity >=0.6.0 <0.8.0;\n\nimport \"../../utils/ContextUpgradeable.sol\";\nimport \"./IERC721Upgradeable.sol\";\nimport \"./IERC721MetadataUpgradeable.sol\";\nimport \"./IERC721EnumerableUpgradeable.sol\";\nimport \"./IERC721ReceiverUpgradeable.sol\";\nimport \"../../introspection/ERC165Upgradeable.sol\";\nimport \"../../math/SafeMathUpgradeable.sol\";\nimport \"../../utils/AddressUpgradeable.sol\";\nimport \"../../utils/EnumerableSetUpgradeable.sol\";\nimport \"../../utils/EnumerableMapUpgradeable.sol\";\nimport \"../../utils/StringsUpgradeable.sol\";\nimport \"../../proxy/Initializable.sol\";\n\n/**\n * @title ERC721 Non-Fungible Token Standard basic implementation\n * @dev see https://eips.ethereum.org/EIPS/eip-721\n */\ncontract ERC721Upgradeable is Initializable, ContextUpgradeable, ERC165Upgradeable, IERC721Upgradeable, IERC721MetadataUpgradeable, IERC721EnumerableUpgradeable {\n    using SafeMathUpgradeable for uint256;\n    using AddressUpgradeable for address;\n    using EnumerableSetUpgradeable for EnumerableSetUpgradeable.UintSet;\n    using EnumerableMapUpgradeable for EnumerableMapUpgradeable.UintToAddressMap;\n    using StringsUpgradeable for uint256;\n\n    // Equals to `bytes4(keccak256(\"onERC721Received(address,address,uint256,bytes)\"))`\n    // which can be also obtained as `IERC721Receiver(0).onERC721Received.selector`\n    bytes4 private constant _ERC721_RECEIVED = 0x150b7a02;\n\n    // Mapping from holder address to their (enumerable) set of owned tokens\n    mapping (address => EnumerableSetUpgradeable.UintSet) private _holderTokens;\n\n    // Enumerable mapping from token ids to their owners\n    EnumerableMapUpgradeable.UintToAddressMap private _tokenOwners;\n\n    // Mapping from token ID to approved address\n    mapping (uint256 => address) private _tokenApprovals;\n\n    // Mapping from owner to operator approvals\n    mapping (address => mapping (address => bool)) private _operatorApprovals;\n\n    // Token name\n    string private _name;\n\n    // Token symbol\n    string private _symbol;\n\n    // Optional mapping for token URIs\n    mapping (uint256 => string) private _tokenURIs;\n\n    // Base URI\n    string private _baseURI;\n\n    /*\n     *     bytes4(keccak256('balanceOf(address)')) == 0x70a08231\n     *     bytes4(keccak256('ownerOf(uint256)')) == 0x6352211e\n     *     bytes4(keccak256('approve(address,uint256)')) == 0x095ea7b3\n     *     bytes4(keccak256('getApproved(uint256)')) == 0x081812fc\n     *     bytes4(keccak256('setApprovalForAll(address,bool)')) == 0xa22cb465\n     *     bytes4(keccak256('isApprovedForAll(address,address)')) == 0xe985e9c5\n     *     bytes4(keccak256('transferFrom(address,address,uint256)')) == 0x23b872dd\n     *     bytes4(keccak256('safeTransferFrom(address,address,uint256)')) == 0x42842e0e\n     *     bytes4(keccak256('safeTransferFrom(address,address,uint256,bytes)')) == 0xb88d4fde\n     *\n     *     => 0x70a08231 ^ 0x6352211e ^ 0x095ea7b3 ^ 0x081812fc ^\n     *        0xa22cb465 ^ 0xe985e9c5 ^ 0x23b872dd ^ 0x42842e0e ^ 0xb88d4fde == 0x80ac58cd\n     */\n    bytes4 private constant _INTERFACE_ID_ERC721 = 0x80ac58cd;\n\n    /*\n     *     bytes4(keccak256('name()')) == 0x06fdde03\n     *     bytes4(keccak256('symbol()')) == 0x95d89b41\n     *     bytes4(keccak256('tokenURI(uint256)')) == 0xc87b56dd\n     *\n     *     => 0x06fdde03 ^ 0x95d89b41 ^ 0xc87b56dd == 0x5b5e139f\n     */\n    bytes4 private constant _INTERFACE_ID_ERC721_METADATA = 0x5b5e139f;\n\n    /*\n     *     bytes4(keccak256('totalSupply()')) == 0x18160ddd\n     *     bytes4(keccak256('tokenOfOwnerByIndex(address,uint256)')) == 0x2f745c59\n     *     bytes4(keccak256('tokenByIndex(uint256)')) == 0x4f6ccce7\n     *\n     *     => 0x18160ddd ^ 0x2f745c59 ^ 0x4f6ccce7 == 0x780e9d63\n     */\n    bytes4 private constant _INTERFACE_ID_ERC721_ENUMERABLE = 0x780e9d63;\n\n    /**\n     * @dev Initializes the contract by setting a `name` and a `symbol` to the token collection.\n     */\n    function __ERC721_init(string memory name_, string memory symbol_) internal initializer {\n        __Context_init_unchained();\n        __ERC165_init_unchained();\n        __ERC721_init_unchained(name_, symbol_);\n    }\n\n    function __ERC721_init_unchained(string memory name_, string memory symbol_) internal initializer {\n        _name = name_;\n        _symbol = symbol_;\n\n        // register the supported interfaces to conform to ERC721 via ERC165\n        _registerInterface(_INTERFACE_ID_ERC721);\n        _registerInterface(_INTERFACE_ID_ERC721_METADATA);\n        _registerInterface(_INTERFACE_ID_ERC721_ENUMERABLE);\n    }\n\n    /**\n     * @dev See {IERC721-balanceOf}.\n     */\n    function balanceOf(address owner) public view virtual override returns (uint256) {\n        require(owner != address(0), \"ERC721: balance query for the zero address\");\n        return _holderTokens[owner].length();\n    }\n\n    /**\n     * @dev See {IERC721-ownerOf}.\n     */\n    function ownerOf(uint256 tokenId) public view virtual override returns (address) {\n        return _tokenOwners.get(tokenId, \"ERC721: owner query for nonexistent token\");\n    }\n\n    /**\n     * @dev See {IERC721Metadata-name}.\n     */\n    function name() public view virtual override returns (string memory) {\n        return _name;\n    }\n\n    /**\n     * @dev See {IERC721Metadata-symbol}.\n     */\n    function symbol() public view virtual override returns (string memory) {\n        return _symbol;\n    }\n\n    /**\n     * @dev See {IERC721Metadata-tokenURI}.\n     */\n    function tokenURI(uint256 tokenId) public view virtual override returns (string memory) {\n        require(_exists(tokenId), \"ERC721Metadata: URI query for nonexistent token\");\n\n        string memory _tokenURI = _tokenURIs[tokenId];\n        string memory base = baseURI();\n\n        // If there is no base URI, return the token URI.\n        if (bytes(base).length == 0) {\n            return _tokenURI;\n        }\n        // If both are set, concatenate the baseURI and tokenURI (via abi.encodePacked).\n        if (bytes(_tokenURI).length > 0) {\n            return string(abi.encodePacked(base, _tokenURI));\n        }\n        // If there is a baseURI but no tokenURI, concatenate the tokenID to the baseURI.\n        return string(abi.encodePacked(base, tokenId.toString()));\n    }\n\n    /**\n    * @dev Returns the base URI set via {_setBaseURI}. This will be\n    * automatically added as a prefix in {tokenURI} to each token's URI, or\n    * to the token ID if no specific URI is set for that token ID.\n    */\n    function baseURI() public view virtual returns (string memory) {\n        return _baseURI;\n    }\n\n    /**\n     * @dev See {IERC721Enumerable-tokenOfOwnerByIndex}.\n     */\n    function tokenOfOwnerByIndex(address owner, uint256 index) public view virtual override returns (uint256) {\n        return _holderTokens[owner].at(index);\n    }\n\n    /**\n     * @dev See {IERC721Enumerable-totalSupply}.\n     */\n    function totalSupply() public view virtual override returns (uint256) {\n        // _tokenOwners are indexed by tokenIds, so .length() returns the number of tokenIds\n        return _tokenOwners.length();\n    }\n\n    /**\n     * @dev See {IERC721Enumerable-tokenByIndex}.\n     */\n    function tokenByIndex(uint256 index) public view virtual override returns (uint256) {\n        (uint256 tokenId, ) = _tokenOwners.at(index);\n        return tokenId;\n    }\n\n    /**\n     * @dev See {IERC721-approve}.\n     */\n    function approve(address to, uint256 tokenId) public virtual override {\n        address owner = ERC721Upgradeable.ownerOf(tokenId);\n        require(to != owner, \"ERC721: approval to current owner\");\n\n        require(_msgSender() == owner || ERC721Upgradeable.isApprovedForAll(owner, _msgSender()),\n            \"ERC721: approve caller is not owner nor approved for all\"\n        );\n\n        _approve(to, tokenId);\n    }\n\n    /**\n     * @dev See {IERC721-getApproved}.\n     */\n    function getApproved(uint256 tokenId) public view virtual override returns (address) {\n        require(_exists(tokenId), \"ERC721: approved query for nonexistent token\");\n\n        return _tokenApprovals[tokenId];\n    }\n\n    /**\n     * @dev See {IERC721-setApprovalForAll}.\n     */\n    function setApprovalForAll(address operator, bool approved) public virtual override {\n        require(operator != _msgSender(), \"ERC721: approve to caller\");\n\n        _operatorApprovals[_msgSender()][operator] = approved;\n        emit ApprovalForAll(_msgSender(), operator, approved);\n    }\n\n    /**\n     * @dev See {IERC721-isApprovedForAll}.\n     */\n    function isApprovedForAll(address owner, address operator) public view virtual override returns (bool) {\n        return _operatorApprovals[owner][operator];\n    }\n\n    /**\n     * @dev See {IERC721-transferFrom}.\n     */\n    function transferFrom(address from, address to, uint256 tokenId) public virtual override {\n        //solhint-disable-next-line max-line-length\n        require(_isApprovedOrOwner(_msgSender(), tokenId), \"ERC721: transfer caller is not owner nor approved\");\n\n        _transfer(from, to, tokenId);\n    }\n\n    /**\n     * @dev See {IERC721-safeTransferFrom}.\n     */\n    function safeTransferFrom(address from, address to, uint256 tokenId) public virtual override {\n        safeTransferFrom(from, to, tokenId, \"\");\n    }\n\n    /**\n     * @dev See {IERC721-safeTransferFrom}.\n     */\n    function safeTransferFrom(address from, address to, uint256 tokenId, bytes memory _data) public virtual override {\n        require(_isApprovedOrOwner(_msgSender(), tokenId), \"ERC721: transfer caller is not owner nor approved\");\n        _safeTransfer(from, to, tokenId, _data);\n    }\n\n    /**\n     * @dev Safely transfers `tokenId` token from `from` to `to`, checking first that contract recipients\n     * are aware of the ERC721 protocol to prevent tokens from being forever locked.\n     *\n     * `_data` is additional data, it has no specified format and it is sent in call to `to`.\n     *\n     * This internal function is equivalent to {safeTransferFrom}, and can be used to e.g.\n     * implement alternative mechanisms to perform token transfer, such as signature-based.\n     *\n     * Requirements:\n     *\n     * - `from` cannot be the zero address.\n     * - `to` cannot be the zero address.\n     * - `tokenId` token must exist and be owned by `from`.\n     * - If `to` refers to a smart contract, it must implement {IERC721Receiver-onERC721Received}, which is called upon a safe transfer.\n     *\n     * Emits a {Transfer} event.\n     */\n    function _safeTransfer(address from, address to, uint256 tokenId, bytes memory _data) internal virtual {\n        _transfer(from, to, tokenId);\n        require(_checkOnERC721Received(from, to, tokenId, _data), \"ERC721: transfer to non ERC721Receiver implementer\");\n    }\n\n    /**\n     * @dev Returns whether `tokenId` exists.\n     *\n     * Tokens can be managed by their owner or approved accounts via {approve} or {setApprovalForAll}.\n     *\n     * Tokens start existing when they are minted (`_mint`),\n     * and stop existing when they are burned (`_burn`).\n     */\n    function _exists(uint256 tokenId) internal view virtual returns (bool) {\n        return _tokenOwners.contains(tokenId);\n    }\n\n    /**\n     * @dev Returns whether `spender` is allowed to manage `tokenId`.\n     *\n     * Requirements:\n     *\n     * - `tokenId` must exist.\n     */\n    function _isApprovedOrOwner(address spender, uint256 tokenId) internal view virtual returns (bool) {\n        require(_exists(tokenId), \"ERC721: operator query for nonexistent token\");\n        address owner = ERC721Upgradeable.ownerOf(tokenId);\n        return (spender == owner || getApproved(tokenId) == spender || ERC721Upgradeable.isApprovedForAll(owner, spender));\n    }\n\n    /**\n     * @dev Safely mints `tokenId` and transfers it to `to`.\n     *\n     * Requirements:\n     d*\n     * - `tokenId` must not exist.\n     * - If `to` refers to a smart contract, it must implement {IERC721Receiver-onERC721Received}, which is called upon a safe transfer.\n     *\n     * Emits a {Transfer} event.\n     */\n    function _safeMint(address to, uint256 tokenId) internal virtual {\n        _safeMint(to, tokenId, \"\");\n    }\n\n    /**\n     * @dev Same as {xref-ERC721-_safeMint-address-uint256-}[`_safeMint`], with an additional `data` parameter which is\n     * forwarded in {IERC721Receiver-onERC721Received} to contract recipients.\n     */\n    function _safeMint(address to, uint256 tokenId, bytes memory _data) internal virtual {\n        _mint(to, tokenId);\n        require(_checkOnERC721Received(address(0), to, tokenId, _data), \"ERC721: transfer to non ERC721Receiver implementer\");\n    }\n\n    /**\n     * @dev Mints `tokenId` and transfers it to `to`.\n     *\n     * WARNING: Usage of this method is discouraged, use {_safeMint} whenever possible\n     *\n     * Requirements:\n     *\n     * - `tokenId` must not exist.\n     * - `to` cannot be the zero address.\n     *\n     * Emits a {Transfer} event.\n     */\n    function _mint(address to, uint256 tokenId) internal virtual {\n        require(to != address(0), \"ERC721: mint to the zero address\");\n        require(!_exists(tokenId), \"ERC721: token already minted\");\n\n        _beforeTokenTransfer(address(0), to, tokenId);\n\n        _holderTokens[to].add(tokenId);\n\n        _tokenOwners.set(tokenId, to);\n\n        emit Transfer(address(0), to, tokenId);\n    }\n\n    /**\n     * @dev Destroys `tokenId`.\n     * The approval is cleared when the token is burned.\n     *\n     * Requirements:\n     *\n     * - `tokenId` must exist.\n     *\n     * Emits a {Transfer} event.\n     */\n    function _burn(uint256 tokenId) internal virtual {\n        address owner = ERC721Upgradeable.ownerOf(tokenId); // internal owner\n\n        _beforeTokenTransfer(owner, address(0), tokenId);\n\n        // Clear approvals\n        _approve(address(0), tokenId);\n\n        // Clear metadata (if any)\n        if (bytes(_tokenURIs[tokenId]).length != 0) {\n            delete _tokenURIs[tokenId];\n        }\n\n        _holderTokens[owner].remove(tokenId);\n\n        _tokenOwners.remove(tokenId);\n\n        emit Transfer(owner, address(0), tokenId);\n    }\n\n    /**\n     * @dev Transfers `tokenId` from `from` to `to`.\n     *  As opposed to {transferFrom}, this imposes no restrictions on msg.sender.\n     *\n     * Requirements:\n     *\n     * - `to` cannot be the zero address.\n     * - `tokenId` token must be owned by `from`.\n     *\n     * Emits a {Transfer} event.\n     */\n    function _transfer(address from, address to, uint256 tokenId) internal virtual {\n        require(ERC721Upgradeable.ownerOf(tokenId) == from, \"ERC721: transfer of token that is not own\"); // internal owner\n        require(to != address(0), \"ERC721: transfer to the zero address\");\n\n        _beforeTokenTransfer(from, to, tokenId);\n\n        // Clear approvals from the previous owner\n        _approve(address(0), tokenId);\n\n        _holderTokens[from].remove(tokenId);\n        _holderTokens[to].add(tokenId);\n\n        _tokenOwners.set(tokenId, to);\n\n        emit Transfer(from, to, tokenId);\n    }\n\n    /**\n     * @dev Sets `_tokenURI` as the tokenURI of `tokenId`.\n     *\n     * Requirements:\n     *\n     * - `tokenId` must exist.\n     */\n    function _setTokenURI(uint256 tokenId, string memory _tokenURI) internal virtual {\n        require(_exists(tokenId), \"ERC721Metadata: URI set of nonexistent token\");\n        _tokenURIs[tokenId] = _tokenURI;\n    }\n\n    /**\n     * @dev Internal function to set the base URI for all token IDs. It is\n     * automatically added as a prefix to the value returned in {tokenURI},\n     * or to the token ID if {tokenURI} is empty.\n     */\n    function _setBaseURI(string memory baseURI_) internal virtual {\n        _baseURI = baseURI_;\n    }\n\n    /**\n     * @dev Internal function to invoke {IERC721Receiver-onERC721Received} on a target address.\n     * The call is not executed if the target address is not a contract.\n     *\n     * @param from address representing the previous owner of the given token ID\n     * @param to target address that will receive the tokens\n     * @param tokenId uint256 ID of the token to be transferred\n     * @param _data bytes optional data to send along with the call\n     * @return bool whether the call correctly returned the expected magic value\n     */\n    function _checkOnERC721Received(address from, address to, uint256 tokenId, bytes memory _data)\n        private returns (bool)\n    {\n        if (!to.isContract()) {\n            return true;\n        }\n        bytes memory returndata = to.functionCall(abi.encodeWithSelector(\n            IERC721ReceiverUpgradeable(to).onERC721Received.selector,\n            _msgSender(),\n            from,\n            tokenId,\n            _data\n        ), \"ERC721: transfer to non ERC721Receiver implementer\");\n        bytes4 retval = abi.decode(returndata, (bytes4));\n        return (retval == _ERC721_RECEIVED);\n    }\n\n    /**\n     * @dev Approve `to` to operate on `tokenId`\n     *\n     * Emits an {Approval} event.\n     */\n    function _approve(address to, uint256 tokenId) internal virtual {\n        _tokenApprovals[tokenId] = to;\n        emit Approval(ERC721Upgradeable.ownerOf(tokenId), to, tokenId); // internal owner\n    }\n\n    /**\n     * @dev Hook that is called before any token transfer. This includes minting\n     * and burning.\n     *\n     * Calling conditions:\n     *\n     * - When `from` and `to` are both non-zero, ``from``'s `tokenId` will be\n     * transferred to `to`.\n     * - When `from` is zero, `tokenId` will be minted for `to`.\n     * - When `to` is zero, ``from``'s `tokenId` will be burned.\n     * - `from` cannot be the zero address.\n     * - `to` cannot be the zero address.\n     *\n     * To learn more about hooks, head to xref:ROOT:extending-contracts.adoc#using-hooks[Using Hooks].\n     */\n    function _beforeTokenTransfer(address from, address to, uint256 tokenId) internal virtual { }\n    uint256[41] private __gap;\n}\n",
  "sourcePath": "@openzeppelin/contracts-upgradeable/token/ERC721/ERC721Upgradeable.sol",
  "compiler": {
    "name": "solc",
    "version": "0.6.5+commit.f956cc89.Emscripten.clang"
  },
  "schemaVersion": "3.3.4",
  "updatedAt": "2022-08-10T23:11:07.994Z",
  "devdoc": {
    "details": "see https://eips.ethereum.org/EIPS/eip-721",
    "methods": {
      "approve(address,uint256)": {
        "details": "See {IERC721-approve}."
      },
      "balanceOf(address)": {
        "details": "See {IERC721-balanceOf}."
      },
      "baseURI()": {
        "details": "Returns the base URI set via {_setBaseURI}. This will be automatically added as a prefix in {tokenURI} to each token's URI, or to the token ID if no specific URI is set for that token ID."
      },
      "getApproved(uint256)": {
        "details": "See {IERC721-getApproved}."
      },
      "isApprovedForAll(address,address)": {
        "details": "See {IERC721-isApprovedForAll}."
      },
      "name()": {
        "details": "See {IERC721Metadata-name}."
      },
      "ownerOf(uint256)": {
        "details": "See {IERC721-ownerOf}."
      },
      "safeTransferFrom(address,address,uint256)": {
        "details": "See {IERC721-safeTransferFrom}."
      },
      "safeTransferFrom(address,address,uint256,bytes)": {
        "details": "See {IERC721-safeTransferFrom}."
      },
      "setApprovalForAll(address,bool)": {
        "details": "See {IERC721-setApprovalForAll}."
      },
      "supportsInterface(bytes4)": {
        "details": "See {IERC165-supportsInterface}.     * Time complexity O(1), guaranteed to always use less than 30 000 gas."
      },
      "symbol()": {
        "details": "See {IERC721Metadata-symbol}."
      },
      "tokenByIndex(uint256)": {
        "details": "See {IERC721Enumerable-tokenByIndex}."
      },
      "tokenOfOwnerByIndex(address,uint256)": {
        "details": "See {IERC721Enumerable-tokenOfOwnerByIndex}."
      },
      "tokenURI(uint256)": {
        "details": "See {IERC721Metadata-tokenURI}."
      },
      "totalSupply()": {
        "details": "See {IERC721Enumerable-totalSupply}."
      },
      "transferFrom(address,address,uint256)": {
        "details": "See {IERC721-transferFrom}."
      }
    },
    "title": "ERC721 Non-Fungible Token Standard basic implementation"
  },
  "userdoc": {
    "methods": {}
  }
}