{
  "contractName": "Weapons",
  "abi": [
    {
      "anonymous": false,
      "inputs": [
        {
          "indexed": true,
          "internalType": "address",
          "name": "owner",
          "type": "address"
        },
        {
          "indexed": true,
          "internalType": "address",
          "name": "approved",
          "type": "address"
        },
        {
          "indexed": true,
          "internalType": "uint256",
          "name": "tokenId",
          "type": "uint256"
        }
      ],
      "name": "Approval",
      "type": "event"
    },
    {
      "anonymous": false,
      "inputs": [
        {
          "indexed": true,
          "internalType": "address",
          "name": "owner",
          "type": "address"
        },
        {
          "indexed": true,
          "internalType": "address",
          "name": "operator",
          "type": "address"
        },
        {
          "indexed": false,
          "internalType": "bool",
          "name": "approved",
          "type": "bool"
        }
      ],
      "name": "ApprovalForAll",
      "type": "event"
    },
    {
      "anonymous": false,
      "inputs": [
        {
          "indexed": true,
          "internalType": "uint256",
          "name": "weapon",
          "type": "uint256"
        },
        {
          "indexed": true,
          "internalType": "address",
          "name": "minter",
          "type": "address"
        }
      ],
      "name": "NewWeapon",
      "type": "event"
    },
    {
      "anonymous": false,
      "inputs": [
        {
          "indexed": true,
          "internalType": "address",
          "name": "owner",
          "type": "address"
        },
        {
          "indexed": true,
          "internalType": "uint256",
          "name": "reforged",
          "type": "uint256"
        },
        {
          "indexed": true,
          "internalType": "uint256",
          "name": "burned",
          "type": "uint256"
        },
        {
          "indexed": false,
          "internalType": "uint8",
          "name": "lowPoints",
          "type": "uint8"
        },
        {
          "indexed": false,
          "internalType": "uint8",
          "name": "fourPoints",
          "type": "uint8"
        },
        {
          "indexed": false,
          "internalType": "uint8",
          "name": "fivePoints",
          "type": "uint8"
        }
      ],
      "name": "Reforged",
      "type": "event"
    },
    {
      "anonymous": false,
      "inputs": [
        {
          "indexed": true,
          "internalType": "bytes32",
          "name": "role",
          "type": "bytes32"
        },
        {
          "indexed": true,
          "internalType": "bytes32",
          "name": "previousAdminRole",
          "type": "bytes32"
        },
        {
          "indexed": true,
          "internalType": "bytes32",
          "name": "newAdminRole",
          "type": "bytes32"
        }
      ],
      "name": "RoleAdminChanged",
      "type": "event"
    },
    {
      "anonymous": false,
      "inputs": [
        {
          "indexed": true,
          "internalType": "bytes32",
          "name": "role",
          "type": "bytes32"
        },
        {
          "indexed": true,
          "internalType": "address",
          "name": "account",
          "type": "address"
        },
        {
          "indexed": true,
          "internalType": "address",
          "name": "sender",
          "type": "address"
        }
      ],
      "name": "RoleGranted",
      "type": "event"
    },
    {
      "anonymous": false,
      "inputs": [
        {
          "indexed": true,
          "internalType": "bytes32",
          "name": "role",
          "type": "bytes32"
        },
        {
          "indexed": true,
          "internalType": "address",
          "name": "account",
          "type": "address"
        },
        {
          "indexed": true,
          "internalType": "address",
          "name": "sender",
          "type": "address"
        }
      ],
      "name": "RoleRevoked",
      "type": "event"
    },
    {
      "anonymous": false,
      "inputs": [
        {
          "indexed": true,
          "internalType": "address",
          "name": "from",
          "type": "address"
        },
        {
          "indexed": true,
          "internalType": "address",
          "name": "to",
          "type": "address"
        },
        {
          "indexed": true,
          "internalType": "uint256",
          "name": "tokenId",
          "type": "uint256"
        }
      ],
      "name": "Transfer",
      "type": "event"
    },
    {
      "inputs": [],
      "name": "DEFAULT_ADMIN_ROLE",
      "outputs": [
        {
          "internalType": "bytes32",
          "name": "",
          "type": "bytes32"
        }
      ],
      "stateMutability": "view",
      "type": "function",
      "constant": true
    },
    {
      "inputs": [],
      "name": "GAME_ADMIN",
      "outputs": [
        {
          "internalType": "bytes32",
          "name": "",
          "type": "bytes32"
        }
      ],
      "stateMutability": "view",
      "type": "function",
      "constant": true
    },
    {
      "inputs": [],
      "name": "RECEIVE_DOES_NOT_SET_TRANSFER_TIMESTAMP",
      "outputs": [
        {
          "internalType": "bytes32",
          "name": "",
          "type": "bytes32"
        }
      ],
      "stateMutability": "view",
      "type": "function",
      "constant": true
    },
    {
      "inputs": [],
      "name": "TRANSFER_COOLDOWN",
      "outputs": [
        {
          "internalType": "uint256",
          "name": "",
          "type": "uint256"
        }
      ],
      "stateMutability": "view",
      "type": "function",
      "constant": true
    },
    {
      "inputs": [
        {
          "internalType": "address",
          "name": "to",
          "type": "address"
        },
        {
          "internalType": "uint256",
          "name": "tokenId",
          "type": "uint256"
        }
      ],
      "name": "approve",
      "outputs": [],
      "stateMutability": "nonpayable",
      "type": "function"
    },
    {
      "inputs": [
        {
          "internalType": "address",
          "name": "owner",
          "type": "address"
        }
      ],
      "name": "balanceOf",
      "outputs": [
        {
          "internalType": "uint256",
          "name": "",
          "type": "uint256"
        }
      ],
      "stateMutability": "view",
      "type": "function",
      "constant": true
    },
    {
      "inputs": [],
      "name": "baseURI",
      "outputs": [
        {
          "internalType": "string",
          "name": "",
          "type": "string"
        }
      ],
      "stateMutability": "view",
      "type": "function",
      "constant": true
    },
    {
      "inputs": [],
      "name": "burnPointMultiplier",
      "outputs": [
        {
          "internalType": "uint256",
          "name": "",
          "type": "uint256"
        }
      ],
      "stateMutability": "view",
      "type": "function",
      "constant": true
    },
    {
      "inputs": [],
      "name": "fiveStarBurnPowerPerPoint",
      "outputs": [
        {
          "internalType": "uint256",
          "name": "",
          "type": "uint256"
        }
      ],
      "stateMutability": "view",
      "type": "function",
      "constant": true
    },
    {
      "inputs": [],
      "name": "fourStarBurnPowerPerPoint",
      "outputs": [
        {
          "internalType": "uint256",
          "name": "",
          "type": "uint256"
        }
      ],
      "stateMutability": "view",
      "type": "function",
      "constant": true
    },
    {
      "inputs": [
        {
          "internalType": "uint256",
          "name": "tokenId",
          "type": "uint256"
        }
      ],
      "name": "getApproved",
      "outputs": [
        {
          "internalType": "address",
          "name": "",
          "type": "address"
        }
      ],
      "stateMutability": "view",
      "type": "function",
      "constant": true
    },
    {
      "inputs": [
        {
          "internalType": "bytes32",
          "name": "role",
          "type": "bytes32"
        }
      ],
      "name": "getRoleAdmin",
      "outputs": [
        {
          "internalType": "bytes32",
          "name": "",
          "type": "bytes32"
        }
      ],
      "stateMutability": "view",
      "type": "function",
      "constant": true
    },
    {
      "inputs": [
        {
          "internalType": "bytes32",
          "name": "role",
          "type": "bytes32"
        },
        {
          "internalType": "uint256",
          "name": "index",
          "type": "uint256"
        }
      ],
      "name": "getRoleMember",
      "outputs": [
        {
          "internalType": "address",
          "name": "",
          "type": "address"
        }
      ],
      "stateMutability": "view",
      "type": "function",
      "constant": true
    },
    {
      "inputs": [
        {
          "internalType": "bytes32",
          "name": "role",
          "type": "bytes32"
        }
      ],
      "name": "getRoleMemberCount",
      "outputs": [
        {
          "internalType": "uint256",
          "name": "",
          "type": "uint256"
        }
      ],
      "stateMutability": "view",
      "type": "function",
      "constant": true
    },
    {
      "inputs": [
        {
          "internalType": "bytes32",
          "name": "role",
          "type": "bytes32"
        },
        {
          "internalType": "address",
          "name": "account",
          "type": "address"
        }
      ],
      "name": "grantRole",
      "outputs": [],
      "stateMutability": "nonpayable",
      "type": "function"
    },
    {
      "inputs": [
        {
          "internalType": "bytes32",
          "name": "role",
          "type": "bytes32"
        },
        {
          "internalType": "address",
          "name": "account",
          "type": "address"
        }
      ],
      "name": "hasRole",
      "outputs": [
        {
          "internalType": "bool",
          "name": "",
          "type": "bool"
        }
      ],
      "stateMutability": "view",
      "type": "function",
      "constant": true
    },
    {
      "inputs": [
        {
          "internalType": "address",
          "name": "owner",
          "type": "address"
        },
        {
          "internalType": "address",
          "name": "operator",
          "type": "address"
        }
      ],
      "name": "isApprovedForAll",
      "outputs": [
        {
          "internalType": "bool",
          "name": "",
          "type": "bool"
        }
      ],
      "stateMutability": "view",
      "type": "function",
      "constant": true
    },
    {
      "inputs": [
        {
          "internalType": "uint256",
          "name": "",
          "type": "uint256"
        }
      ],
      "name": "lastTransferTimestamp",
      "outputs": [
        {
          "internalType": "uint256",
          "name": "",
          "type": "uint256"
        }
      ],
      "stateMutability": "view",
      "type": "function",
      "constant": true
    },
    {
      "inputs": [],
      "name": "lowStarBurnPowerPerPoint",
      "outputs": [
        {
          "internalType": "uint256",
          "name": "",
          "type": "uint256"
        }
      ],
      "stateMutability": "view",
      "type": "function",
      "constant": true
    },
    {
      "inputs": [],
      "name": "maxDurability",
      "outputs": [
        {
          "internalType": "uint256",
          "name": "",
          "type": "uint256"
        }
      ],
      "stateMutability": "view",
      "type": "function",
      "constant": true
    },
    {
      "inputs": [],
      "name": "name",
      "outputs": [
        {
          "internalType": "string",
          "name": "",
          "type": "string"
        }
      ],
      "stateMutability": "view",
      "type": "function",
      "constant": true
    },
    {
      "inputs": [],
      "name": "oneFrac",
      "outputs": [
        {
          "internalType": "int128",
          "name": "",
          "type": "int128"
        }
      ],
      "stateMutability": "view",
      "type": "function",
      "constant": true
    },
    {
      "inputs": [
        {
          "internalType": "uint256",
          "name": "tokenId",
          "type": "uint256"
        }
      ],
      "name": "ownerOf",
      "outputs": [
        {
          "internalType": "address",
          "name": "",
          "type": "address"
        }
      ],
      "stateMutability": "view",
      "type": "function",
      "constant": true
    },
    {
      "inputs": [],
      "name": "powerMultPerPointBasic",
      "outputs": [
        {
          "internalType": "int128",
          "name": "",
          "type": "int128"
        }
      ],
      "stateMutability": "view",
      "type": "function",
      "constant": true
    },
    {
      "inputs": [],
      "name": "powerMultPerPointMatching",
      "outputs": [
        {
          "internalType": "int128",
          "name": "",
          "type": "int128"
        }
      ],
      "stateMutability": "view",
      "type": "function",
      "constant": true
    },
    {
      "inputs": [],
      "name": "powerMultPerPointPWR",
      "outputs": [
        {
          "internalType": "int128",
          "name": "",
          "type": "int128"
        }
      ],
      "stateMutability": "view",
      "type": "function",
      "constant": true
    },
    {
      "inputs": [
        {
          "internalType": "bytes32",
          "name": "role",
          "type": "bytes32"
        },
        {
          "internalType": "address",
          "name": "account",
          "type": "address"
        }
      ],
      "name": "renounceRole",
      "outputs": [],
      "stateMutability": "nonpayable",
      "type": "function"
    },
    {
      "inputs": [
        {
          "internalType": "bytes32",
          "name": "role",
          "type": "bytes32"
        },
        {
          "internalType": "address",
          "name": "account",
          "type": "address"
        }
      ],
      "name": "revokeRole",
      "outputs": [],
      "stateMutability": "nonpayable",
      "type": "function"
    },
    {
      "inputs": [
        {
          "internalType": "address",
          "name": "from",
          "type": "address"
        },
        {
          "internalType": "address",
          "name": "to",
          "type": "address"
        },
        {
          "internalType": "uint256",
          "name": "tokenId",
          "type": "uint256"
        }
      ],
      "name": "safeTransferFrom",
      "outputs": [],
      "stateMutability": "nonpayable",
      "type": "function"
    },
    {
      "inputs": [
        {
          "internalType": "address",
          "name": "from",
          "type": "address"
        },
        {
          "internalType": "address",
          "name": "to",
          "type": "address"
        },
        {
          "internalType": "uint256",
          "name": "tokenId",
          "type": "uint256"
        },
        {
          "internalType": "bytes",
          "name": "_data",
          "type": "bytes"
        }
      ],
      "name": "safeTransferFrom",
      "outputs": [],
      "stateMutability": "nonpayable",
      "type": "function"
    },
    {
      "inputs": [],
      "name": "secondsPerDurability",
      "outputs": [
        {
          "internalType": "uint256",
          "name": "",
          "type": "uint256"
        }
      ],
      "stateMutability": "view",
      "type": "function",
      "constant": true
    },
    {
      "inputs": [
        {
          "internalType": "address",
          "name": "operator",
          "type": "address"
        },
        {
          "internalType": "bool",
          "name": "approved",
          "type": "bool"
        }
      ],
      "name": "setApprovalForAll",
      "outputs": [],
      "stateMutability": "nonpayable",
      "type": "function"
    },
    {
      "inputs": [
        {
          "internalType": "bytes4",
          "name": "interfaceId",
          "type": "bytes4"
        }
      ],
      "name": "supportsInterface",
      "outputs": [
        {
          "internalType": "bool",
          "name": "",
          "type": "bool"
        }
      ],
      "stateMutability": "view",
      "type": "function",
      "constant": true
    },
    {
      "inputs": [],
      "name": "symbol",
      "outputs": [
        {
          "internalType": "string",
          "name": "",
          "type": "string"
        }
      ],
      "stateMutability": "view",
      "type": "function",
      "constant": true
    },
    {
      "inputs": [
        {
          "internalType": "uint256",
          "name": "index",
          "type": "uint256"
        }
      ],
      "name": "tokenByIndex",
      "outputs": [
        {
          "internalType": "uint256",
          "name": "",
          "type": "uint256"
        }
      ],
      "stateMutability": "view",
      "type": "function",
      "constant": true
    },
    {
      "inputs": [
        {
          "internalType": "address",
          "name": "owner",
          "type": "address"
        },
        {
          "internalType": "uint256",
          "name": "index",
          "type": "uint256"
        }
      ],
      "name": "tokenOfOwnerByIndex",
      "outputs": [
        {
          "internalType": "uint256",
          "name": "",
          "type": "uint256"
        }
      ],
      "stateMutability": "view",
      "type": "function",
      "constant": true
    },
    {
      "inputs": [
        {
          "internalType": "uint256",
          "name": "tokenId",
          "type": "uint256"
        }
      ],
      "name": "tokenURI",
      "outputs": [
        {
          "internalType": "string",
          "name": "",
          "type": "string"
        }
      ],
      "stateMutability": "view",
      "type": "function",
      "constant": true
    },
    {
      "inputs": [],
      "name": "totalSupply",
      "outputs": [
        {
          "internalType": "uint256",
          "name": "",
          "type": "uint256"
        }
      ],
      "stateMutability": "view",
      "type": "function",
      "constant": true
    },
    {
      "inputs": [
        {
          "internalType": "address",
          "name": "from",
          "type": "address"
        },
        {
          "internalType": "address",
          "name": "to",
          "type": "address"
        },
        {
          "internalType": "uint256",
          "name": "tokenId",
          "type": "uint256"
        }
      ],
      "name": "transferFrom",
      "outputs": [],
      "stateMutability": "nonpayable",
      "type": "function"
    },
    {
      "inputs": [],
      "name": "initialize",
      "outputs": [],
      "stateMutability": "nonpayable",
      "type": "function"
    },
    {
      "inputs": [],
      "name": "migrateTo_e55d8c5",
      "outputs": [],
      "stateMutability": "nonpayable",
      "type": "function"
    },
    {
      "inputs": [],
      "name": "migrateTo_aa9da90",
      "outputs": [],
      "stateMutability": "nonpayable",
      "type": "function"
    },
    {
      "inputs": [],
      "name": "migrateTo_951a020",
      "outputs": [],
      "stateMutability": "nonpayable",
      "type": "function"
    },
    {
      "inputs": [],
      "name": "__ITransferCooldownable_interfaceId",
      "outputs": [
        {
          "internalType": "bytes4",
          "name": "",
          "type": "bytes4"
        }
      ],
      "stateMutability": "pure",
      "type": "function",
      "constant": true
    },
    {
      "inputs": [
        {
          "internalType": "uint256",
          "name": "tokenId",
          "type": "uint256"
        }
      ],
      "name": "transferCooldownEnd",
      "outputs": [
        {
          "internalType": "uint256",
          "name": "",
          "type": "uint256"
        }
      ],
      "stateMutability": "view",
      "type": "function",
      "constant": true
    },
    {
      "inputs": [
        {
          "internalType": "uint256",
          "name": "tokenId",
          "type": "uint256"
        }
      ],
      "name": "transferCooldownLeft",
      "outputs": [
        {
          "internalType": "uint256",
          "name": "",
          "type": "uint256"
        }
      ],
      "stateMutability": "view",
      "type": "function",
      "constant": true
    },
    {
      "inputs": [
        {
          "internalType": "uint256",
          "name": "id",
          "type": "uint256"
        }
      ],
      "name": "get",
      "outputs": [
        {
          "internalType": "uint16",
          "name": "_properties",
          "type": "uint16"
        },
        {
          "internalType": "uint16",
          "name": "_stat1",
          "type": "uint16"
        },
        {
          "internalType": "uint16",
          "name": "_stat2",
          "type": "uint16"
        },
        {
          "internalType": "uint16",
          "name": "_stat3",
          "type": "uint16"
        },
        {
          "internalType": "uint8",
          "name": "_level",
          "type": "uint8"
        },
        {
          "internalType": "uint8",
          "name": "_blade",
          "type": "uint8"
        },
        {
          "internalType": "uint8",
          "name": "_crossguard",
          "type": "uint8"
        },
        {
          "internalType": "uint8",
          "name": "_grip",
          "type": "uint8"
        },
        {
          "internalType": "uint8",
          "name": "_pommel",
          "type": "uint8"
        },
        {
          "internalType": "uint24",
          "name": "_burnPoints",
          "type": "uint24"
        },
        {
          "internalType": "uint24",
          "name": "_bonusPower",
          "type": "uint24"
        }
      ],
      "stateMutability": "view",
      "type": "function",
      "constant": true
    },
    {
      "inputs": [
        {
          "internalType": "address",
          "name": "minter",
          "type": "address"
        },
        {
          "internalType": "uint256",
          "name": "seed",
          "type": "uint256"
        }
      ],
      "name": "mint",
      "outputs": [
        {
          "internalType": "uint256",
          "name": "",
          "type": "uint256"
        }
      ],
      "stateMutability": "nonpayable",
      "type": "function"
    },
    {
      "inputs": [
        {
          "internalType": "address",
          "name": "minter",
          "type": "address"
        },
        {
          "internalType": "uint256",
          "name": "stars",
          "type": "uint256"
        },
        {
          "internalType": "uint256",
          "name": "seed",
          "type": "uint256"
        }
      ],
      "name": "mintWeaponWithStars",
      "outputs": [
        {
          "internalType": "uint256",
          "name": "",
          "type": "uint256"
        }
      ],
      "stateMutability": "nonpayable",
      "type": "function"
    },
    {
      "inputs": [
        {
          "internalType": "address",
          "name": "minter",
          "type": "address"
        },
        {
          "internalType": "uint16",
          "name": "properties",
          "type": "uint16"
        },
        {
          "internalType": "uint16",
          "name": "stat1",
          "type": "uint16"
        },
        {
          "internalType": "uint16",
          "name": "stat2",
          "type": "uint16"
        },
        {
          "internalType": "uint16",
          "name": "stat3",
          "type": "uint16"
        },
        {
          "internalType": "uint256",
          "name": "cosmeticSeed",
          "type": "uint256"
        }
      ],
      "name": "performMintWeapon",
      "outputs": [
        {
          "internalType": "uint256",
          "name": "",
          "type": "uint256"
        }
      ],
      "stateMutability": "nonpayable",
      "type": "function"
    },
    {
      "inputs": [
        {
          "internalType": "uint256",
          "name": "stars",
          "type": "uint256"
        },
        {
          "internalType": "uint256",
          "name": "seed",
          "type": "uint256"
        }
      ],
      "name": "getRandomProperties",
      "outputs": [
        {
          "internalType": "uint16",
          "name": "",
          "type": "uint16"
        }
      ],
      "stateMutability": "pure",
      "type": "function",
      "constant": true
    },
    {
      "inputs": [
        {
          "internalType": "uint16",
          "name": "minRoll",
          "type": "uint16"
        },
        {
          "internalType": "uint16",
          "name": "maxRoll",
          "type": "uint16"
        },
        {
          "internalType": "uint256",
          "name": "seed",
          "type": "uint256"
        },
        {
          "internalType": "uint256",
          "name": "seed2",
          "type": "uint256"
        }
      ],
      "name": "getRandomStat",
      "outputs": [
        {
          "internalType": "uint16",
          "name": "",
          "type": "uint16"
        }
      ],
      "stateMutability": "pure",
      "type": "function",
      "constant": true
    },
    {
      "inputs": [
        {
          "internalType": "uint256",
          "name": "seed",
          "type": "uint256"
        },
        {
          "internalType": "uint256",
          "name": "seed2",
          "type": "uint256"
        },
        {
          "internalType": "uint8",
          "name": "limit",
          "type": "uint8"
        }
      ],
      "name": "getRandomCosmetic",
      "outputs": [
        {
          "internalType": "uint8",
          "name": "",
          "type": "uint8"
        }
      ],
      "stateMutability": "pure",
      "type": "function",
      "constant": true
    },
    {
      "inputs": [
        {
          "internalType": "uint256",
          "name": "stars",
          "type": "uint256"
        }
      ],
      "name": "getStatMinRoll",
      "outputs": [
        {
          "internalType": "uint16",
          "name": "",
          "type": "uint16"
        }
      ],
      "stateMutability": "pure",
      "type": "function",
      "constant": true
    },
    {
      "inputs": [
        {
          "internalType": "uint256",
          "name": "stars",
          "type": "uint256"
        }
      ],
      "name": "getStatMaxRoll",
      "outputs": [
        {
          "internalType": "uint16",
          "name": "",
          "type": "uint16"
        }
      ],
      "stateMutability": "pure",
      "type": "function",
      "constant": true
    },
    {
      "inputs": [
        {
          "internalType": "uint256",
          "name": "stars",
          "type": "uint256"
        }
      ],
      "name": "getStatCount",
      "outputs": [
        {
          "internalType": "uint8",
          "name": "",
          "type": "uint8"
        }
      ],
      "stateMutability": "pure",
      "type": "function",
      "constant": true
    },
    {
      "inputs": [
        {
          "internalType": "uint256",
          "name": "id",
          "type": "uint256"
        }
      ],
      "name": "getProperties",
      "outputs": [
        {
          "internalType": "uint16",
          "name": "",
          "type": "uint16"
        }
      ],
      "stateMutability": "view",
      "type": "function",
      "constant": true
    },
    {
      "inputs": [
        {
          "internalType": "uint256",
          "name": "id",
          "type": "uint256"
        }
      ],
      "name": "getStars",
      "outputs": [
        {
          "internalType": "uint8",
          "name": "",
          "type": "uint8"
        }
      ],
      "stateMutability": "view",
      "type": "function",
      "constant": true
    },
    {
      "inputs": [
        {
          "internalType": "uint16",
          "name": "properties",
          "type": "uint16"
        }
      ],
      "name": "getStarsFromProperties",
      "outputs": [
        {
          "internalType": "uint8",
          "name": "",
          "type": "uint8"
        }
      ],
      "stateMutability": "pure",
      "type": "function",
      "constant": true
    },
    {
      "inputs": [
        {
          "internalType": "uint256",
          "name": "id",
          "type": "uint256"
        }
      ],
      "name": "getTrait",
      "outputs": [
        {
          "internalType": "uint8",
          "name": "",
          "type": "uint8"
        }
      ],
      "stateMutability": "view",
      "type": "function",
      "constant": true
    },
    {
      "inputs": [
        {
          "internalType": "uint16",
          "name": "properties",
          "type": "uint16"
        }
      ],
      "name": "getTraitFromProperties",
      "outputs": [
        {
          "internalType": "uint8",
          "name": "",
          "type": "uint8"
        }
      ],
      "stateMutability": "pure",
      "type": "function",
      "constant": true
    },
    {
      "inputs": [
        {
          "internalType": "uint256",
          "name": "id",
          "type": "uint256"
        }
      ],
      "name": "getStatPattern",
      "outputs": [
        {
          "internalType": "uint8",
          "name": "",
          "type": "uint8"
        }
      ],
      "stateMutability": "view",
      "type": "function",
      "constant": true
    },
    {
      "inputs": [
        {
          "internalType": "uint16",
          "name": "properties",
          "type": "uint16"
        }
      ],
      "name": "getStatPatternFromProperties",
      "outputs": [
        {
          "internalType": "uint8",
          "name": "",
          "type": "uint8"
        }
      ],
      "stateMutability": "pure",
      "type": "function",
      "constant": true
    },
    {
      "inputs": [
        {
          "internalType": "uint8",
          "name": "statPattern",
          "type": "uint8"
        }
      ],
      "name": "getStat1Trait",
      "outputs": [
        {
          "internalType": "uint8",
          "name": "",
          "type": "uint8"
        }
      ],
      "stateMutability": "pure",
      "type": "function",
      "constant": true
    },
    {
      "inputs": [
        {
          "internalType": "uint8",
          "name": "statPattern",
          "type": "uint8"
        }
      ],
      "name": "getStat2Trait",
      "outputs": [
        {
          "internalType": "uint8",
          "name": "",
          "type": "uint8"
        }
      ],
      "stateMutability": "pure",
      "type": "function",
      "constant": true
    },
    {
      "inputs": [
        {
          "internalType": "uint8",
          "name": "statPattern",
          "type": "uint8"
        }
      ],
      "name": "getStat3Trait",
      "outputs": [
        {
          "internalType": "uint8",
          "name": "",
          "type": "uint8"
        }
      ],
      "stateMutability": "pure",
      "type": "function",
      "constant": true
    },
    {
      "inputs": [
        {
          "internalType": "uint256",
          "name": "id",
          "type": "uint256"
        }
      ],
      "name": "getLevel",
      "outputs": [
        {
          "internalType": "uint8",
          "name": "",
          "type": "uint8"
        }
      ],
      "stateMutability": "view",
      "type": "function",
      "constant": true
    },
    {
      "inputs": [
        {
          "internalType": "uint256",
          "name": "id",
          "type": "uint256"
        }
      ],
      "name": "getStat1",
      "outputs": [
        {
          "internalType": "uint16",
          "name": "",
          "type": "uint16"
        }
      ],
      "stateMutability": "view",
      "type": "function",
      "constant": true
    },
    {
      "inputs": [
        {
          "internalType": "uint256",
          "name": "id",
          "type": "uint256"
        }
      ],
      "name": "getStat2",
      "outputs": [
        {
          "internalType": "uint16",
          "name": "",
          "type": "uint16"
        }
      ],
      "stateMutability": "view",
      "type": "function",
      "constant": true
    },
    {
      "inputs": [
        {
          "internalType": "uint256",
          "name": "id",
          "type": "uint256"
        }
      ],
      "name": "getStat3",
      "outputs": [
        {
          "internalType": "uint16",
          "name": "",
          "type": "uint16"
        }
      ],
      "stateMutability": "view",
      "type": "function",
      "constant": true
    },
    {
      "inputs": [
        {
          "internalType": "uint256",
          "name": "id",
          "type": "uint256"
        }
      ],
      "name": "getPowerMultiplier",
      "outputs": [
        {
          "internalType": "int128",
          "name": "",
          "type": "int128"
        }
      ],
      "stateMutability": "view",
      "type": "function",
      "constant": true
    },
    {
      "inputs": [
        {
          "internalType": "uint16",
          "name": "properties",
          "type": "uint16"
        },
        {
          "internalType": "uint16",
          "name": "stat1",
          "type": "uint16"
        },
        {
          "internalType": "uint16",
          "name": "stat2",
          "type": "uint16"
        },
        {
          "internalType": "uint16",
          "name": "stat3",
          "type": "uint16"
        },
        {
          "internalType": "uint8",
          "name": "trait",
          "type": "uint8"
        }
      ],
      "name": "getPowerMultiplierForTrait",
      "outputs": [
        {
          "internalType": "int128",
          "name": "",
          "type": "int128"
        }
      ],
      "stateMutability": "view",
      "type": "function",
      "constant": true
    },
    {
      "inputs": [
        {
          "internalType": "uint256",
          "name": "reforgeID",
          "type": "uint256"
        },
        {
          "internalType": "uint256",
          "name": "burnID",
          "type": "uint256"
        }
      ],
      "name": "reforge",
      "outputs": [],
      "stateMutability": "nonpayable",
      "type": "function"
    },
    {
      "inputs": [
        {
          "internalType": "uint256",
          "name": "id",
          "type": "uint256"
        }
      ],
      "name": "getBonusPower",
      "outputs": [
        {
          "internalType": "uint24",
          "name": "",
          "type": "uint24"
        }
      ],
      "stateMutability": "view",
      "type": "function",
      "constant": true
    },
    {
      "inputs": [
        {
          "internalType": "uint256",
          "name": "id",
          "type": "uint256"
        },
        {
          "internalType": "uint8",
          "name": "level",
          "type": "uint8"
        }
      ],
      "name": "getBonusPowerForFight",
      "outputs": [
        {
          "internalType": "uint24",
          "name": "",
          "type": "uint24"
        }
      ],
      "stateMutability": "view",
      "type": "function",
      "constant": true
    },
    {
      "inputs": [
        {
          "internalType": "uint256",
          "name": "id",
          "type": "uint256"
        },
        {
          "internalType": "uint8",
          "name": "charTrait",
          "type": "uint8"
        }
      ],
      "name": "getFightData",
      "outputs": [
        {
          "internalType": "int128",
          "name": "",
          "type": "int128"
        },
        {
          "internalType": "int128",
          "name": "",
          "type": "int128"
        },
        {
          "internalType": "uint24",
          "name": "",
          "type": "uint24"
        },
        {
          "internalType": "uint8",
          "name": "",
          "type": "uint8"
        }
      ],
      "stateMutability": "view",
      "type": "function",
      "constant": true
    },
    {
      "inputs": [
        {
          "internalType": "uint256",
          "name": "id",
          "type": "uint256"
        },
        {
          "internalType": "uint8",
          "name": "amount",
          "type": "uint8"
        }
      ],
      "name": "drainDurability",
      "outputs": [],
      "stateMutability": "nonpayable",
      "type": "function"
    },
    {
      "inputs": [
        {
          "internalType": "uint256",
          "name": "multiplier",
          "type": "uint256"
        }
      ],
      "name": "setBurnPointMultiplier",
      "outputs": [],
      "stateMutability": "nonpayable",
      "type": "function"
    },
    {
      "inputs": [
        {
          "internalType": "uint256",
          "name": "powerPerBurnPoint",
          "type": "uint256"
        }
      ],
      "name": "setLowStarBurnPowerPerPoint",
      "outputs": [],
      "stateMutability": "nonpayable",
      "type": "function"
    },
    {
      "inputs": [
        {
          "internalType": "uint256",
          "name": "powerPerBurnPoint",
          "type": "uint256"
        }
      ],
      "name": "setFourStarBurnPowerPerPoint",
      "outputs": [],
      "stateMutability": "nonpayable",
      "type": "function"
    },
    {
      "inputs": [
        {
          "internalType": "uint256",
          "name": "powerPerBurnPoint",
          "type": "uint256"
        }
      ],
      "name": "setFiveStarBurnPowerPerPoint",
      "outputs": [],
      "stateMutability": "nonpayable",
      "type": "function"
    },
    {
      "inputs": [
        {
          "internalType": "uint256",
          "name": "id",
          "type": "uint256"
        }
      ],
      "name": "getDurabilityTimestamp",
      "outputs": [
        {
          "internalType": "uint64",
          "name": "",
          "type": "uint64"
        }
      ],
      "stateMutability": "view",
      "type": "function",
      "constant": true
    },
    {
      "inputs": [
        {
          "internalType": "uint256",
          "name": "id",
          "type": "uint256"
        },
        {
          "internalType": "uint64",
          "name": "timestamp",
          "type": "uint64"
        }
      ],
      "name": "setDurabilityTimestamp",
      "outputs": [],
      "stateMutability": "nonpayable",
      "type": "function"
    },
    {
      "inputs": [
        {
          "internalType": "uint256",
          "name": "id",
          "type": "uint256"
        }
      ],
      "name": "getDurabilityPoints",
      "outputs": [
        {
          "internalType": "uint8",
          "name": "",
          "type": "uint8"
        }
      ],
      "stateMutability": "view",
      "type": "function",
      "constant": true
    },
    {
      "inputs": [
        {
          "internalType": "uint64",
          "name": "timestamp",
          "type": "uint64"
        }
      ],
      "name": "getDurabilityPointsFromTimestamp",
      "outputs": [
        {
          "internalType": "uint8",
          "name": "",
          "type": "uint8"
        }
      ],
      "stateMutability": "view",
      "type": "function",
      "constant": true
    },
    {
      "inputs": [
        {
          "internalType": "uint256",
          "name": "id",
          "type": "uint256"
        }
      ],
      "name": "isDurabilityFull",
      "outputs": [
        {
          "internalType": "bool",
          "name": "",
          "type": "bool"
        }
      ],
      "stateMutability": "view",
      "type": "function",
      "constant": true
    },
    {
      "inputs": [],
      "name": "getDurabilityMaxWait",
      "outputs": [
        {
          "internalType": "uint64",
          "name": "",
          "type": "uint64"
        }
      ],
      "stateMutability": "pure",
      "type": "function",
      "constant": true
    }
  ],
  "bytecode": "0x608060405234801561001057600080fd5b5061513a806100206000396000f3fe608060405234801561001057600080fd5b50600436106104cd5760003560e01c80637a4a341211610283578063ae5d498e1161015c578063d9514cb3116100ce578063e985e9c511610092578063e985e9c51461105c578063ecd4738b1461108a578063f8e678a7146110b6578063fa9b6e87146110be578063fa9e8398146110db578063ff2e65ab146110f8576104cd565b8063d9514cb314610f8b578063dfd3712914610fa8578063e06efad814610fc9578063e076088614610fe6578063e8d5fe441461100c576104cd565b8063c87b56dd11610120578063c87b56dd14610e5d578063ca15c87314610e7a578063cd69289614610e97578063ce20b64214610ebd578063d547741f14610f02578063d58227c814610f2e576104cd565b8063ae5d498e14610d18578063b88d4fde14610d4d578063c366620b14610e11578063c47efcf614610e35578063c6a5108814610e3d576104cd565b80639507d39a116101f5578063a1570c8e116101b9578063a1570c8e14610c98578063a217fddf14610ca0578063a22cb46514610ca8578063aa66377714610cd6578063acb586df14610cde578063adf04f2014610cfb576104cd565b80639507d39a14610ba357806395d06a0f14610c2f57806395d89b4114610c505780639abcafef14610c585780639d7c828b14610c7b576104cd565b806386481d401161024757806386481d4014610ae05780638c7f724214610afd5780638d1d1de414610b055780639010d07c14610b2257806390e4e06c14610b4557806391d1485414610b77576104cd565b80637a4a341214610a6b57806380aa68cd14610a735780638129fc1c14610a96578063847c8e5414610a9e5780638574d0c514610abb576104cd565b8063308bdc6f116103b55780634f6ccce7116103275780636352211e116102eb5780636352211e14610a085780636a4d521d14610a255780636c0360eb14610a2d57806370a0823114610a355780637294510014610a5b578063752fde9e14610a63576104cd565b80634f6ccce71461099e5780634fbff6a2146109bb57806352bc59ea146109db5780635504d3d2146109f8578063586064f314610a00576104cd565b80633e68b604116103795780633e68b604146108d85780633f5e61801461090f57806340c10f191461091757806342842e0e146109435780634b140277146109795780634c0647f614610996576104cd565b8063308bdc6f14610862578063316a7ba51461087f57806333ee5a531461089c578063350b7995146108a457806336568abe146108ac576104cd565b80631b8ca2171161044e5780632a716b3c116104125780632a716b3c146107875780632a9f22f2146107a45780632c3048a2146107c15780632c3fc619146107de5780632f2ff15d1461080a5780632f745c5914610836576104cd565b80631b8ca217146106c657806323b872dd146106fa578063248a9ca31461073057806324f7bb1b1461074d57806327cd91de1461076a576104cd565b8063095ea7b311610495578063095ea7b3146106035780630a583a931461062f5780630a724cff1461066657806316f1daf61461068657806318160ddd146106ac576104cd565b806301ffc9a7146104d2578063064187781461050d57806306fdde0314610517578063081812fc14610594578063083659eb146105cd575b600080fd5b6104f9600480360360208110156104e857600080fd5b50356001600160e01b031916611115565b604080519115158252519081900360200190f35b610515611138565b005b61051f611270565b6040805160208082528351818301528351919283929083019185019080838360005b83811015610559578181015183820152602001610541565b50505050905090810190601f1680156105865780820380516001836020036101000a031916815260200191505b509250505060405180910390f35b6105b1600480360360208110156105aa57600080fd5b5035611307565b604080516001600160a01b039092168252519081900360200190f35b6105ea600480360360208110156105e357600080fd5b5035611369565b60408051600f92830b90920b8252519081900360200190f35b6105156004803603604081101561061957600080fd5b506001600160a01b038135169060200135611479565b6106506004803603602081101561064557600080fd5b503561ffff16611554565b6040805160ff9092168252519081900360200190f35b6106506004803603602081101561067c57600080fd5b503560ff1661155a565b6106506004803603602081101561069c57600080fd5b50356001600160401b031661157a565b6106b46115b8565b60408051918252519081900360200190f35b6106e3600480360360208110156106dc57600080fd5b50356115c9565b6040805161ffff9092168252519081900360200190f35b6105156004803603606081101561071057600080fd5b506001600160a01b038135811691602081013590911690604001356115ee565b6106b46004803603602081101561074657600080fd5b5035611645565b6106506004803603602081101561076357600080fd5b503561165a565b6106e36004803603602081101561078057600080fd5b503561166d565b6105156004803603602081101561079d57600080fd5b5035611699565b610650600480360360208110156107ba57600080fd5b5035611709565b6106e3600480360360208110156107d757600080fd5b5035611724565b610515600480360360408110156107f457600080fd5b50803590602001356001600160401b031661174f565b6105156004803603604081101561082057600080fd5b50803590602001356001600160a01b03166117e9565b6106b46004803603604081101561084c57600080fd5b506001600160a01b038135169060200135611855565b6105156004803603602081101561087857600080fd5b5035611884565b6106e36004803603602081101561089557600080fd5b50356118f4565b6105ea611940565b6106b4611950565b610515600480360360408110156108c257600080fd5b50803590602001356001600160a01b0316611956565b6106e3600480360360808110156108ee57600080fd5b5061ffff8135811691602081013590911690604081013590606001356119b7565b6105156119e0565b6106b46004803603604081101561092d57600080fd5b506001600160a01b038135169060200135611a3e565b6105156004803603606081101561095957600080fd5b506001600160a01b03813581169160208101359091169060400135611b13565b6105156004803603602081101561098f57600080fd5b5035611b2e565b6106b4611b9e565b6106b4600480360360208110156109b457600080fd5b5035611ba4565b610650600480360360208110156109d157600080fd5b503560ff16611bc0565b610650600480360360208110156109f157600080fd5b5035611bd2565b6106b4611bf3565b6105ea611c15565b6105b160048036036020811015610a1e57600080fd5b5035611c1e565b6106b4611c4c565b61051f611c67565b6106b460048036036020811015610a4b57600080fd5b50356001600160a01b0316611cc8565b6106b4611d30565b610515611d36565b6106b4611d90565b6106e360048036036040811015610a8957600080fd5b5080359060200135611d97565b610515611dd9565b6106b460048036036020811015610ab457600080fd5b5035611ed8565b610ac3611f1d565b604080516001600160e01b03199092168252519081900360200190f35b61065060048036036020811015610af657600080fd5b5035611f27565b6106b4611f52565b61051560048036036020811015610b1b57600080fd5b5035611f58565b6105b160048036036040811015610b3857600080fd5b5080359060200135611fc8565b6106b460048036036060811015610b5b57600080fd5b506001600160a01b038135169060208101359060400135611fe6565b6104f960048036036040811015610b8d57600080fd5b50803590602001356001600160a01b03166120c9565b610bc060048036036020811015610bb957600080fd5b50356120e7565b6040805161ffff9c8d1681529a8c1660208c0152988b168a8a015296909916606089015260ff948516608089015292841660a088015290831660c0870152821660e08601521661010084015262ffffff9384166101208401529092166101408201529051908190036101600190f35b61065060048036036020811015610c4557600080fd5b503561ffff166121a3565b61051f6121ac565b61051560048036036040811015610c6e57600080fd5b508035906020013561220d565b6106b460048036036020811015610c9157600080fd5b5035612629565b6106b461263b565b6106b4612641565b61051560048036036040811015610cbe57600080fd5b506001600160a01b0381351690602001351515612646565b6105ea61274b565b61065060048036036020811015610cf457600080fd5b5035612754565b61065060048036036020811015610d1157600080fd5b5035612767565b610d3560048036036020811015610d2e57600080fd5b503561277a565b6040805162ffffff9092168252519081900360200190f35b61051560048036036080811015610d6357600080fd5b6001600160a01b03823581169260208101359091169160408201359190810190608081016060820135600160201b811115610d9d57600080fd5b820183602082011115610daf57600080fd5b803590602001918460018302840111600160201b83111715610dd057600080fd5b91908080601f0160208091040260200160405190810160405280939291908181526020018383808284376000920191909152509295506127b1945050505050565b610e1961280f565b604080516001600160401b039092168252519081900360200190f35b6105ea612815565b61065060048036036020811015610e5357600080fd5b503560ff16612825565b61051f60048036036020811015610e7357600080fd5b5035612832565b6106b460048036036020811015610e9057600080fd5b5035612ab5565b610d3560048036036040811015610ead57600080fd5b508035906020013560ff16612acc565b6105ea600480360360a0811015610ed357600080fd5b50803561ffff90811691602081013582169160408201358116916060810135909116906080013560ff16612b3f565b61051560048036036040811015610f1857600080fd5b50803590602001356001600160a01b0316612d27565b610f5460048036036040811015610f4457600080fd5b508035906020013560ff16612d80565b60408051600f95860b860b815293850b90940b602084015262ffffff9091168284015260ff16606082015290519081900360800190f35b610e1960048036036020811015610fa157600080fd5b5035612e56565b61065060048036036020811015610fbe57600080fd5b503561ffff16612e71565b6106e360048036036020811015610fdf57600080fd5b5035612e7a565b61051560048036036040811015610ffc57600080fd5b508035906020013560ff16612ea6565b6106b4600480360360c081101561102257600080fd5b506001600160a01b038135169061ffff60208201358116916040810135821691606082013581169160808101359091169060a0013561301c565b6104f96004803603604081101561107257600080fd5b506001600160a01b038135811691602001351661328b565b610650600480360360608110156110a057600080fd5b508035906020810135906040013560ff166132b9565b6106b46132ce565b6104f9600480360360208110156110d457600080fd5b50356132d3565b6106e3600480360360208110156110f157600080fd5b50356132eb565b6106b46004803603602081101561110e57600080fd5b5035613316565b6001600160e01b0319811660009081526033602052604090205460ff165b919050565b6111436000336120c9565b611180576040805162461bcd60e51b81526020600482015260096024820152682737ba1030b236b4b760b91b604482015290519081900360640190fd5b61118a6001613338565b60d08054600f9290920b6001600160801b03166001600160801b03199092169190911790556111bc6001610190613356565b60d060106101000a8154816001600160801b030219169083600f0b6001600160801b031602179055506112116111f460676064613356565b60d054600160801b9004600f90810b900b9063ffffffff61338d16565b60d18054600f9290920b6001600160801b03166001600160801b03199092169190911790556112456111f4606b6064613356565b60d160106101000a8154816001600160801b030219169083600f0b6001600160801b03160217905550565b606a8054604080516020601f60026000196101006001881615020190951694909404938401819004810282018101909252828152606093909290918301828280156112fc5780601f106112d1576101008083540402835291602001916112fc565b820191906000526020600020905b8154815290600101906020018083116112df57829003601f168201915b505050505090505b90565b6000611312826133c4565b61134d5760405162461bcd60e51b815260040180806020018281038252602c815260200180614fd9602c913960400191505060405180910390fd5b506000908152606860205260409020546001600160a01b031690565b6000611373614c77565b60c9838154811061138057fe5b600091825260208083206040805160a081018252939091015461ffff8082168552620100008204811693850193909352600160201b8104831691840191909152600160301b81049091166060830152600160401b900460ff16608082015291506113ed6001610190613356565b9050600061141582611406856020015161ffff16613338565b600f0b9063ffffffff61338d16565b9050600061142e83611406866040015161ffff16613338565b9050600061144784611406876060015161ffff16613338565b905061146e8161145f8461145f8761145f6001613338565b600f0b9063ffffffff6133d716565b979650505050505050565b600061148482611c1e565b9050806001600160a01b0316836001600160a01b031614156114d75760405162461bcd60e51b815260040180806020018281038252602181526020018061505d6021913960400191505060405180910390fd5b806001600160a01b03166114e961340a565b6001600160a01b0316148061150a575061150a8161150561340a565b61328b565b6115455760405162461bcd60e51b8152600401808060200182810382526038815260200180614edd6038913960400191505060405180910390fd5b61154f838361340e565b505050565b60071690565b6000600561156c8360ff16601961347c565b8161157357fe5b0692915050565b600042826001600160401b0316111561159557506000611133565b610b406001600160401b03831642030460148111156115b2575060145b92915050565b60006115c460666134e3565b905090565b600060c982815481106115d857fe5b60009182526020909120015461ffff1692915050565b6115ff6115f961340a565b826134ee565b61163a5760405162461bcd60e51b815260040180806020018281038252603181526020018061507e6031913960400191505060405180910390fd5b61154f83838361358a565b60009081526097602052604090206002015490565b60006115b2611668836115c9565b612e71565b600060c9828154811061167c57fe5b600091825260209091200154600160301b900461ffff1692915050565b604080516923a0a6a2afa0a226a4a760b11b8152905190819003600a0190206116c290336120c9565b611704576040805162461bcd60e51b815260206004820152600e60248201526d2737ba1033b0b6b29030b236b4b760911b604482015290519081900360640190fd5b60cc55565b6000600382101561171c57506001611133565b506000190190565b600060c9828154811061173357fe5b60009182526020909120015462010000900461ffff1692915050565b604080516923a0a6a2afa0a226a4a760b11b8152905190819003600a01902061177890336120c9565b6117ba576040805162461bcd60e51b815260206004820152600e60248201526d2737ba1033b0b6b29030b236b4b760911b604482015290519081900360640190fd5b600091825260d36020526040909120805467ffffffffffffffff19166001600160401b03909216919091179055565b60008281526097602052604090206002015461180c9061180761340a565b6120c9565b6118475760405162461bcd60e51b815260040180806020018281038252602f815260200180614dfc602f913960400191505060405180910390fd5b61185182826136e8565b5050565b6001600160a01b038216600090815260656020526040812061187d908363ffffffff61375716565b9392505050565b604080516923a0a6a2afa0a226a4a760b11b8152905190819003600a0190206118ad90336120c9565b6118ef576040805162461bcd60e51b815260206004820152600e60248201526d2737ba1033b0b6b29030b236b4b760911b604482015290519081900360640190fd5b60ce55565b60008161190357506004611133565b8160011415611914575060b4611133565b81600214156119265750610118611133565b8160031415611937575060c8611133565b5061010c919050565b60d054600160801b9004600f0b81565b60ce5481565b61195e61340a565b6001600160a01b0316816001600160a01b0316146119ad5760405162461bcd60e51b815260040180806020018281038252602f8152602001806150d6602f913960400191505060405180910390fd5b6118518282613763565b60006119d58561ffff168561ffff166119d086866137d2565b6137fe565b90505b949350505050565b6119eb6000336120c9565b611a28576040805162461bcd60e51b81526020600482015260096024820152682737ba1030b236b4b760b91b604482015290519081900360640190fd5b600260cc55600f60cd55601e60ce55603c60cf55565b604080516923a0a6a2afa0a226a4a760b11b8152905190819003600a019020600090611a6a90336120c9565b611aac576040805162461bcd60e51b815260206004820152600e60248201526d2737ba1033b0b6b29030b236b4b760911b604482015290519081900360640190fd5b6000606483066001811015611ac45760049150611aff565b6006811015611ad65760039150611aff565b6015811015611ae85760029150611aff565b6038811015611afa5760019150611aff565b600091505b611b0a858386611fe6565b95945050505050565b61154f838383604051806020016040528060008152506127b1565b604080516923a0a6a2afa0a226a4a760b11b8152905190819003600a019020611b5790336120c9565b611b99576040805162461bcd60e51b815260206004820152600e60248201526d2737ba1033b0b6b29030b236b4b760911b604482015290519081900360640190fd5b60cd55565b60cf5481565b600080611bb860668463ffffffff61386816565b509392505050565b6000600561156c8360ff16600561347c565b600081815260d360205260408120546115b2906001600160401b031661157a565b604080516923a0a6a2afa0a226a4a760b11b8152905190819003600a01902081565b60d154600f0b81565b60006115b282604051806060016040528060298152602001614f3f602991396066919063ffffffff61388616565b6040518060276150af82396027019050604051809103902081565b606d8054604080516020601f60026000196101006001881615020190951694909404938401819004810282018101909252828152606093909290918301828280156112fc5780601f106112d1576101008083540402835291602001916112fc565b60006001600160a01b038216611d0f5760405162461bcd60e51b815260040180806020018281038252602a815260200180614f15602a913960400191505060405180910390fd5b6001600160a01b03821660009081526065602052604090206115b2906134e3565b60cc5481565b611d416000336120c9565b611d7e576040805162461bcd60e51b81526020600482015260096024820152682737ba1030b236b4b760b91b604482015290519081900360640190fd5b611d8e611d89613893565b61389e565b565b6201518081565b60006005611dad6000607c6119d08660026137d2565b607f16901b6003611dc6600060036119d08760016137d2565b600316901b846007161717905092915050565b600054610100900460ff1680611df25750611df2613922565b80611e00575060005460ff16155b611e3b5760405162461bcd60e51b815260040180806020018281038252602e815260200180614f68602e913960400191505060405180910390fd5b600054610100900460ff16158015611e66576000805460ff1961ff0019909116610100171660011790555b611eb06040518060400160405280600d81526020016c2baa2432b636103bb2b0b837b760991b8152506040518060400160405280600381526020016243425760e81b815250613933565b611eb86139f0565b611ec3600033611847565b8015611ed5576000805461ff00191690555b50565b60008080611f0d611ef2426201518063ffffffff613a9016565b600086815260d260205260409020549063ffffffff613aed16565b915091508161187d5760006119d8565b60006115c4613893565b600060c98281548110611f3657fe5b600091825260209091200154600160401b900460ff1692915050565b610b4081565b604080516923a0a6a2afa0a226a4a760b11b8152905190819003600a019020611f8190336120c9565b611fc3576040805162461bcd60e51b815260206004820152600e60248201526d2737ba1033b0b6b29030b236b4b760911b604482015290519081900360640190fd5b60cf55565b600082815260976020526040812061187d908363ffffffff61375716565b604080516923a0a6a2afa0a226a4a760b11b8152905190819003600a01902060009061201290336120c9565b612054576040805162461bcd60e51b815260206004820152600e60248201526d2737ba1033b0b6b29030b236b4b760911b604482015290519081900360640190fd5b600883106120935760405162461bcd60e51b8152600401808060200182810382526021815260200180614db96021913960400191505060405180910390fd5b60008060006120a28686613b0f565b92509250925061146e876120b68888611d97565b8585856120c48b60036137d2565b61301c565b600082815260976020526040812061187d908363ffffffff613b9716565b60008060008060008060008060008060006121018c613bac565b939e50919c509a50985096506121168c613c3e565b92985090965094509250612128614ca5565b5060008c815260cb60209081526040918290208251606081018452905460ff808216808452610100830480831695850195909552620100009092049081169483019490945260109390931b62ff00001660089290921b61ff00169092171792506121918d61277a565b91505091939597999b90929496989a50565b600390811c1690565b606b8054604080516020601f60026000196101006001881615020190951694909404938401819004810282018101909252828152606093909290918301828280156112fc5780601f106112d1576101008083540402835291602001916112fc565b604080516923a0a6a2afa0a226a4a760b11b8152905190819003600a01902061223690336120c9565b612278576040805162461bcd60e51b815260206004820152600e60248201526d2737ba1033b0b6b29030b236b4b760911b604482015290519081900360640190fd5b600082815260cb602052604080822083835290822060c98054929391928590811061229f57fe5b600091825260208220845491018054909350600260ff808416600190810182168390048216956101008604831682018316849004831695620100009004831690910182169290920416916122f69061ffff16611554565b905060038160ff1610156123a6578654606460ff9091161061235f576040805162461bcd60e51b815260206004820152601f60248201527f4c6f772073746172206275726e20706f696e7473206172652063617070656400604482015290519081900360640190fd5b865460cc5460018301916123919160ff918216916123859190851663ffffffff613cd916565b9063ffffffff613d3216565b885460ff191660ff91909116178855506124de565b8060ff1660031415612442578654601961010090910460ff1610612411576040805162461bcd60e51b815260206004820181905260248201527f466f75722073746172206275726e20706f696e74732061726520636170706564604482015290519081900360640190fd5b865460cc5461242791610100900460ff16613d32565b875460ff919091166101000261ff00199091161787556124de565b8060ff16600414156124de578654600a6201000090910460ff16106124ae576040805162461bcd60e51b815260206004820181905260248201527f466976652073746172206275726e20706f696e74732061726520636170706564604482015290519081900360640190fd5b865460cc546124c59162010000900460ff16613d32565b875460ff91909116620100000262ff0000199091161787555b86546124f490859060ff1663ffffffff613d3216565b875460ff191660ff91821617808955612514918591610100900416613d32565b875461ff00191661010060ff928316021780895561253a91849162010000900416613d32565b875462ff000019166201000060ff928316021780895560649116111561256657865460ff191660641787555b8654601961010090910460ff16111561258757865461ff0019166119001787555b8654600a6201000090910460ff1611156125ab57865462ff00001916620a00001787555b6125b488613d8c565b87896125bf8b611c1e565b89546040805160ff80841682526101008404811660208301526201000090930490921682820152516001600160a01b0392909216917fd1b1d9a936fc3409b20503a5fd66b94b1c2a8b4986d01def5b9ef60272896e3c9181900360600190a4505050505050505050565b60d26020526000908152604090205481565b60cd5481565b600081565b61264e61340a565b6001600160a01b0316826001600160a01b031614156126b4576040805162461bcd60e51b815260206004820152601960248201527f4552433732313a20617070726f766520746f2063616c6c657200000000000000604482015290519081900360640190fd5b80606960006126c161340a565b6001600160a01b03908116825260208083019390935260409182016000908120918716808252919093529120805460ff19169215159290921790915561270561340a565b60408051841515815290516001600160a01b0392909216917f17307eab39ab6107e8899845ad3d59bd9653f200f220920489ca2b5937696c319181900360200190a35050565b60d054600f0b81565b60006115b2612762836115c9565b6121a3565b60006115b2612775836115c9565b611554565b60008060c9838154811061278a57fe5b90600052602060002001905061187d838260000160089054906101000a900460ff16612acc565b6127c26127bc61340a565b836134ee565b6127fd5760405162461bcd60e51b815260040180806020018281038252603181526020018061507e6031913960400191505060405180910390fd5b61280984848484613e65565b50505050565b61e10090565b60d154600160801b9004600f0b81565b6000600560ff8316611573565b606061283d826133c4565b6128785760405162461bcd60e51b815260040180806020018281038252602f81526020018061502e602f913960400191505060405180910390fd5b6000828152606c602090815260409182902080548351601f600260001961010060018616150201909316929092049182018490048402810184019094528084526060939283018282801561290d5780601f106128e25761010080835404028352916020019161290d565b820191906000526020600020905b8154815290600101906020018083116128f057829003601f168201915b50505050509050606061291e611c67565b905080516000141561293257509050611133565b8151156129f35780826040516020018083805190602001908083835b6020831061296d5780518252601f19909201916020918201910161294e565b51815160209384036101000a600019018019909216911617905285519190930192850191508083835b602083106129b55780518252601f199092019160209182019101612996565b6001836020036101000a0380198251168184511680821785525050505050509050019250505060405160208183030381529060405292505050611133565b806129fd85613eb7565b6040516020018083805190602001908083835b60208310612a2f5780518252601f199092019160209182019101612a10565b51815160209384036101000a600019018019909216911617905285519190930192850191508083835b60208310612a775780518252601f199092019160209182019101612a58565b6001836020036101000a0380198251168184511680821785525050505050509050019250505060405160208183030381529060405292505050919050565b60008181526097602052604081206115b2906134e3565b600082815260cb602052604081206119d8612af1600f60ff861663ffffffff613cd916565b825460cf5461238591612b0d919062010000900460ff16613cd9565b845460ce5461238591612b289190610100900460ff16613cd9565b865460cd546123859160ff1663ffffffff613cd916565b600080612b4b87612e71565b60d054909150600f0b60ff8416612b6183612825565b60ff161415612ba45760d154612b9d90612b8c90600160801b9004600f0b61140661ffff8b16613338565b600f83900b9063ffffffff6133d716565b9050612bf8565b612bad82612825565b60ff1660041415612bd35760d154612b9d90612b8c90600f0b61140661ffff8b16613338565b60d054612bf590612b8c90600160801b9004600f0b61140661ffff8b16613338565b90505b8360ff16612c0583611bc0565b60ff161415612c375760d154612c3090612b8c90600160801b9004600f0b61140661ffff8a16613338565b9050612c8b565b612c4082611bc0565b60ff1660041415612c665760d154612c3090612b8c90600f0b61140661ffff8a16613338565b60d054612c8890612b8c90600160801b9004600f0b61140661ffff8a16613338565b90505b8360ff16612c988361155a565b60ff161415612cca5760d154612cc390612b8c90600160801b9004600f0b61140661ffff8916613338565b905061146e565b612cd38261155a565b60ff1660041415612cf95760d154612cc390612b8c90600f0b61140661ffff8916613338565b60d054612d1b90612b8c90600160801b9004600f0b61140661ffff8916613338565b98975050505050505050565b600082815260976020526040902060020154612d459061180761340a565b6119ad5760405162461bcd60e51b8152600401808060200182810382526030815260200180614ead6030913960400191505060405180910390fd5b600080600080600060c98781548110612d9557fe5b60009182526020909120018054909150612df190612ddb906111f49062010000810461ffff908116600160201b8304821601600160301b90920481169190910116613338565b60d054600f90810b900b9063ffffffff6133d716565b8154612e1f9061ffff80821691620100008104821691600160201b8204811691600160301b9004168b612b3f565b8254612e36908a90600160401b900460ff16612acc565b8354612e459061ffff166121a3565b929a91995097509095509350505050565b600090815260d360205260409020546001600160401b031690565b60051c607f1690565b600060c98281548110612e8957fe5b600091825260209091200154600160201b900461ffff1692915050565b604080516923a0a6a2afa0a226a4a760b11b8152905190819003600a019020612ecf90336120c9565b612f11576040805162461bcd60e51b815260206004820152600e60248201526d2737ba1033b0b6b29030b236b4b760911b604482015290519081900360640190fd5b600082815260d36020526040812054612f32906001600160401b031661157a565b90508160ff168160ff161015612f88576040805162461bcd60e51b81526020600482015260166024820152754e6f7420656e6f756768206475726162696c6974792160501b604482015290519081900360640190fd5b60ff808316610b400290601490831610612fe857806001600160401b0316612fae61280f565b600086815260d360205260409020805467ffffffffffffffff19166001600160401b03928316420393909301909116919091179055612809565b600084815260d36020526040902080546001600160401b0380821684011667ffffffffffffffff1990911617905550505050565b604080516923a0a6a2afa0a226a4a760b11b8152905190819003600a01902060009061304890336120c9565b61308a576040805162461bcd60e51b815260206004820152600e60248201526d2737ba1033b0b6b29030b236b4b760911b604482015290519081900360640190fd5b60c980546040805160a08101825261ffff8a8116825289811660208084019182528a83168486019081528a8416606086019081526000608087018181526001808b018c559a825296517f66be4f155c5ef2ebd3772b228f2f00681e4ed5826cdb3b1943cc11ad15ad1d288a018054965194519351985161ffff199097169188169190911763ffff0000191662010000948816949094029390931765ffff000000001916600160201b928716929092029190911767ffff0000000000001916600160301b96909516959095029390931768ff00000000000000001916600160401b60ff9384160217909255835180850190945282845290830187815260ca8054968701815590925291517f42d72674974f694b5f5159593243114d38a5c39c89d6b62fee061ff523240ee16002909502948501805460ff19169190931617909155517f42d72674974f694b5f5159593243114d38a5c39c89d6b62fee061ff523240ee2909201919091556131fd8882613f91565b61321e61320861280f565b42906001600160401b031663ffffffff613a9016565b600082815260d36020526040808220805467ffffffffffffffff19166001600160401b03949094169390931790925590516001600160a01b038a169183917fa90298fff9b7c2ea259d17bcbd0821ef6fe7d48b4f8fd9380d54ae299ee730449190a3979650505050505050565b6001600160a01b03918216600090815260696020908152604080832093909416825291909152205460ff1690565b60006119d860008360ff166119d087876137d2565b601481565b600060146132e083611bd2565b60ff16101592915050565b600060018211156132ff5750610190611133565b811561330e575061012c611133565b5060c8919050565b600081815260d260205260408120546115b2906201518063ffffffff613d3216565b6000677fffffffffffffff82111561334f57600080fd5b5060401b90565b60008161336257600080fd5b600061336e84846140cb565b905060016001607f1b036001600160801b038216111561187d57600080fd5b6000600f83810b9083900b0260401d60016001607f1b031981128015906133bb575060016001607f1b038113155b61187d57600080fd5b60006115b260668363ffffffff61421416565b6000600f83810b9083900b0160016001607f1b031981128015906133bb575060016001607f1b0381131561187d57600080fd5b3390565b600081815260686020526040902080546001600160a01b0319166001600160a01b038416908117909155819061344382611c1e565b6001600160a01b03167f8c5be1e5ebec7d5bd14f71427d1e84f3dd0314c0f7b2291e5b200ac8c7c3b92560405160405180910390a45050565b60008082116134d2576040805162461bcd60e51b815260206004820152601a60248201527f536166654d6174683a206469766973696f6e206279207a65726f000000000000604482015290519081900360640190fd5b8183816134db57fe5b049392505050565b60006115b282614220565b60006134f9826133c4565b6135345760405162461bcd60e51b815260040180806020018281038252602c815260200180614e81602c913960400191505060405180910390fd5b600061353f83611c1e565b9050806001600160a01b0316846001600160a01b0316148061357a5750836001600160a01b031661356f84611307565b6001600160a01b0316145b806119d857506119d8818561328b565b826001600160a01b031661359d82611c1e565b6001600160a01b0316146135e25760405162461bcd60e51b81526004018080602001828103825260298152602001806150056029913960400191505060405180910390fd5b6001600160a01b0382166136275760405162461bcd60e51b8152600401808060200182810382526024815260200180614e5d6024913960400191505060405180910390fd5b613632838383614224565b61363d60008261340e565b6001600160a01b0383166000908152606560205260409020613665908263ffffffff6142ec16565b506001600160a01b038216600090815260656020526040902061368e908263ffffffff6142f816565b506136a16066828463ffffffff61430416565b5080826001600160a01b0316846001600160a01b03167fddf252ad1be2c89b69c2b068fc378daa952ba7f163c4a11628f55a4df523b3ef60405160405180910390a4505050565b6000828152609760205260409020613706908263ffffffff61431a16565b156118515761371361340a565b6001600160a01b0316816001600160a01b0316837f2f8788117e7eff1d82e926ec794901d17c78024a50270940304540a733656f0d60405160405180910390a45050565b600061187d838361432f565b6000828152609760205260409020613781908263ffffffff61439316565b156118515761378e61340a565b6001600160a01b0316816001600160a01b0316837ff6391f5c32d9c69d2a47ea670b442974b53935d1edc7fd64eb21e047a839171b60405160405180910390a45050565b604080516020808201949094528082019290925280518083038201815260609092019052805191012090565b6000806138166001612385868863ffffffff613a9016565b604080516020808201879052825180830382018152918301909252805191012090915060009061384c908363ffffffff6143a816565b905061385e818763ffffffff613d3216565b9695505050505050565b6000808080613877868661440f565b909450925050505b9250929050565b60006119d884848461448a565b63398b9a5d60e21b90565b6001600160e01b031980821614156138fd576040805162461bcd60e51b815260206004820152601c60248201527f4552433136353a20696e76616c696420696e7465726661636520696400000000604482015290519081900360640190fd5b6001600160e01b0319166000908152603360205260409020805460ff19166001179055565b600061392d30614554565b15905090565b600054610100900460ff168061394c575061394c613922565b8061395a575060005460ff16155b6139955760405162461bcd60e51b815260040180806020018281038252602e815260200180614f68602e913960400191505060405180910390fd5b600054610100900460ff161580156139c0576000805460ff1961ff0019909116610100171660011790555b6139c86139f0565b6139d061455a565b6139da83836145f7565b801561154f576000805461ff0019169055505050565b600054610100900460ff1680613a095750613a09613922565b80613a17575060005460ff16155b613a525760405162461bcd60e51b815260040180806020018281038252602e815260200180614f68602e913960400191505060405180910390fd5b600054610100900460ff16158015611ec3576000805460ff1961ff0019909116610100171660011790558015611ed5576000805461ff001916905550565b600082821115613ae7576040805162461bcd60e51b815260206004820152601e60248201527f536166654d6174683a207375627472616374696f6e206f766572666c6f770000604482015290519081900360640190fd5b50900390565b60008083831115613b035750600090508061387f565b50600193919092039150565b600080600080613b1e866118f4565b90506000613b2b876132eb565b90506000613b3888611709565b90506000613b4984848a60056119b7565b9050600080600160ff85161115613b6a57613b6786868c60036119b7565b91505b60028460ff161115613b8657613b8386868c60046119b7565b90505b919750955093505050509250925092565b600061187d836001600160a01b0384166146dc565b6000806000806000613bbc614c77565b60c98781548110613bc957fe5b60009182526020918290206040805160a081018252929091015461ffff8082168085526201000083048216958501869052600160201b83048216938501849052600160301b830490911660608501819052600160401b90920460ff1660809094018490529b939a509098509650945092505050565b600080600080613c4c614cc5565b60ca8681548110613c5957fe5b600091825260209182902060408051808201909152600290920201805460ff168252600190810154928201839052909250613c96919060186132b9565b9450613ca98160200151600260186132b9565b9350613cbc8160200151600360186132b9565b9250613ccf8160200151600460186132b9565b9150509193509193565b600082613ce8575060006115b2565b82820282848281613cf557fe5b041461187d5760405162461bcd60e51b8152600401808060200182810382526021815260200180614fb86021913960400191505060405180910390fd5b60008282018381101561187d576040805162461bcd60e51b815260206004820152601b60248201527f536166654d6174683a206164646974696f6e206f766572666c6f770000000000604482015290519081900360640190fd5b6000613d9782611c1e565b9050613da581600084614224565b613db060008361340e565b6000828152606c60205260409020546002600019610100600184161502019091160415613dee576000828152606c60205260408120613dee91614cdc565b6001600160a01b0381166000908152606560205260409020613e16908363ffffffff6142ec16565b50613e2860668363ffffffff6146f416565b5060405182906000906001600160a01b038416907fddf252ad1be2c89b69c2b068fc378daa952ba7f163c4a11628f55a4df523b3ef908390a45050565b613e7084848461358a565b613e7c84848484614700565b6128095760405162461bcd60e51b8152600401808060200182810382526032815260200180614e2b6032913960400191505060405180910390fd5b606081613edc57506040805180820190915260018152600360fc1b6020820152611133565b8160005b8115613ef457600101600a82049150613ee0565b6060816001600160401b0381118015613f0c57600080fd5b506040519080825280601f01601f191660200182016040528015613f37576020820181803683370190505b50859350905060001982015b8315613f8857600a840660300160f81b82828060019003935081518110613f6657fe5b60200101906001600160f81b031916908160001a905350600a84049350613f43565b50949350505050565b6001600160a01b038216613fec576040805162461bcd60e51b815260206004820181905260248201527f4552433732313a206d696e7420746f20746865207a65726f2061646472657373604482015290519081900360640190fd5b613ff5816133c4565b15614047576040805162461bcd60e51b815260206004820152601c60248201527f4552433732313a20746f6b656e20616c7265616479206d696e74656400000000604482015290519081900360640190fd5b61405360008383614224565b6001600160a01b038216600090815260656020526040902061407b908263ffffffff6142f816565b5061408e6066828463ffffffff61430416565b5060405181906001600160a01b038416906000907fddf252ad1be2c89b69c2b068fc378daa952ba7f163c4a11628f55a4df523b3ef908290a45050565b6000816140d757600080fd5b60006001600160c01b0384116140fc5782604085901b816140f457fe5b049050614200565b60c084811c600160201b8110614114576020918201911c5b620100008110614126576010918201911c5b6101008110614137576008918201911c5b60108110614147576004918201911c5b60048110614157576002918201911c5b60028110614166576001820191505b60bf820360018603901c6001018260ff0387901b8161418157fe5b0492506001600160801b0383111561419857600080fd5b608085901c83026001600160801b038616840260c088901c604089901b828110156141c4576001820391505b608084901b929003828110156141db576001820391505b829003608084901c82146141eb57fe5b8881816141f457fe5b04870196505050505050505b6001600160801b0381111561187d57600080fd5b600061187d83836146dc565b5490565b6001600160a01b0383161580159061424457506001600160a01b03821615155b1561154f5761425c426201518063ffffffff613a9016565b600082815260d26020526040902054106142b1576040805162461bcd60e51b81526020600482015260116024820152702a3930b739b332b91031b7b7b63237bbb760791b604482015290519081900360640190fd5b6142d360405180806150af6027913960270190506040518091039020836120c9565b61154f57600090815260d2602052604090204290555050565b600061187d8383614880565b600061187d8383614946565b60006119d884846001600160a01b038516614990565b600061187d836001600160a01b038416614946565b815460009082106143715760405162461bcd60e51b8152600401808060200182810382526022815260200180614dda6022913960400191505060405180910390fd5b82600001828154811061438057fe5b9060005260206000200154905092915050565b600061187d836001600160a01b038416614880565b60008082116143fe576040805162461bcd60e51b815260206004820152601860248201527f536166654d6174683a206d6f64756c6f206279207a65726f0000000000000000604482015290519081900360640190fd5b81838161440757fe5b069392505050565b8154600090819083106144535760405162461bcd60e51b8152600401808060200182810382526022815260200180614f966022913960400191505060405180910390fd5b600084600001848154811061446457fe5b906000526020600020906002020190508060000154816001015492509250509250929050565b600082815260018401602052604081205482816145255760405162461bcd60e51b81526004018080602001828103825283818151815260200191508051906020019080838360005b838110156144ea5781810151838201526020016144d2565b50505050905090810190601f1680156145175780820380516001836020036101000a031916815260200191505b509250505060405180910390fd5b5084600001600182038154811061453857fe5b9060005260206000209060020201600101549150509392505050565b3b151590565b600054610100900460ff16806145735750614573613922565b80614581575060005460ff16155b6145bc5760405162461bcd60e51b815260040180806020018281038252602e815260200180614f68602e913960400191505060405180910390fd5b600054610100900460ff161580156145e7576000805460ff1961ff0019909116610100171660011790555b611ec36301ffc9a760e01b61389e565b600054610100900460ff16806146105750614610613922565b8061461e575060005460ff16155b6146595760405162461bcd60e51b815260040180806020018281038252602e815260200180614f68602e913960400191505060405180910390fd5b600054610100900460ff16158015614684576000805460ff1961ff0019909116610100171660011790555b825161469790606a906020860190614d20565b5081516146ab90606b906020850190614d20565b506146bc6380ac58cd60e01b61389e565b6146cc635b5e139f60e01b61389e565b6139da63780e9d6360e01b61389e565b60009081526001919091016020526040902054151590565b600061187d8383614a27565b6000614714846001600160a01b0316614554565b614720575060016119d8565b6060614846630a85bd0160e11b61473561340a565b88878760405160240180856001600160a01b03166001600160a01b03168152602001846001600160a01b03166001600160a01b0316815260200183815260200180602001828103825283818151815260200191508051906020019080838360005b838110156147ae578181015183820152602001614796565b50505050905090810190601f1680156147db5780820380516001836020036101000a031916815260200191505b5095505050505050604051602081830303815290604052906001600160e01b0319166020820180516001600160e01b038381831617835250505050604051806060016040528060328152602001614e2b603291396001600160a01b038816919063ffffffff614afb16565b9050600081806020019051602081101561485f57600080fd5b50516001600160e01b031916630a85bd0160e11b1492505050949350505050565b6000818152600183016020526040812054801561493c57835460001980830191908101906000908790839081106148b357fe5b90600052602060002001549050808760000184815481106148d057fe5b60009182526020808320909101929092558281526001898101909252604090209084019055865487908061490057fe5b600190038181906000526020600020016000905590558660010160008781526020019081526020016000206000905560019450505050506115b2565b60009150506115b2565b600061495283836146dc565b614988575081546001818101845560008481526020808220909301849055845484825282860190935260409020919091556115b2565b5060006115b2565b6000828152600184016020526040812054806149f557505060408051808201825283815260208082018481528654600181810189556000898152848120955160029093029095019182559151908201558654868452818801909252929091205561187d565b82856000016001830381548110614a0857fe5b906000526020600020906002020160010181905550600091505061187d565b6000818152600183016020526040812054801561493c5783546000198083019190810190600090879083908110614a5a57fe5b9060005260206000209060020201905080876000018481548110614a7a57fe5b600091825260208083208454600290930201918255600193840154918401919091558354825289830190526040902090840190558654879080614ab957fe5b60008281526020808220600260001990940193840201828155600190810183905592909355888152898201909252604082209190915594506115b29350505050565b60606119d8848460008585614b0f85614554565b614b60576040805162461bcd60e51b815260206004820152601d60248201527f416464726573733a2063616c6c20746f206e6f6e2d636f6e7472616374000000604482015290519081900360640190fd5b60006060866001600160a01b031685876040518082805190602001908083835b60208310614b9f5780518252601f199092019160209182019101614b80565b6001836020036101000a03801982511681845116808217855250505050505090500191505060006040518083038185875af1925050503d8060008114614c01576040519150601f19603f3d011682016040523d82523d6000602084013e614c06565b606091505b509150915061146e82828660608315614c2057508161187d565b825115614c305782518084602001fd5b60405162461bcd60e51b81526020600482018181528451602484015284518593919283926044019190850190808383600083156144ea5781810151838201526020016144d2565b6040805160a08101825260008082526020820181905291810182905260608101829052608081019190915290565b604080516060810182526000808252602082018190529181019190915290565b604080518082019091526000808252602082015290565b50805460018160011615610100020316600290046000825580601f10614d025750611ed5565b601f016020900490600052602060002090810190611ed59190614d9e565b828054600181600116156101000203166002900490600052602060002090601f016020900481019282601f10614d6157805160ff1916838001178555614d8e565b82800160010185558215614d8e579182015b82811115614d8e578251825591602001919060010190614d73565b50614d9a929150614d9e565b5090565b61130491905b80821115614d9a5760008155600101614da456fe537461727320706172616d6574657220746f6f20686967682120286d6178203729456e756d657261626c655365743a20696e646578206f7574206f6620626f756e6473416363657373436f6e74726f6c3a2073656e646572206d75737420626520616e2061646d696e20746f206772616e744552433732313a207472616e7366657220746f206e6f6e20455243373231526563656976657220696d706c656d656e7465724552433732313a207472616e7366657220746f20746865207a65726f20616464726573734552433732313a206f70657261746f7220717565727920666f72206e6f6e6578697374656e7420746f6b656e416363657373436f6e74726f6c3a2073656e646572206d75737420626520616e2061646d696e20746f207265766f6b654552433732313a20617070726f76652063616c6c6572206973206e6f74206f776e6572206e6f7220617070726f76656420666f7220616c6c4552433732313a2062616c616e636520717565727920666f7220746865207a65726f20616464726573734552433732313a206f776e657220717565727920666f72206e6f6e6578697374656e7420746f6b656e496e697469616c697a61626c653a20636f6e747261637420697320616c726561647920696e697469616c697a6564456e756d657261626c654d61703a20696e646578206f7574206f6620626f756e6473536166654d6174683a206d756c7469706c69636174696f6e206f766572666c6f774552433732313a20617070726f76656420717565727920666f72206e6f6e6578697374656e7420746f6b656e4552433732313a207472616e73666572206f6620746f6b656e2074686174206973206e6f74206f776e4552433732314d657461646174613a2055524920717565727920666f72206e6f6e6578697374656e7420746f6b656e4552433732313a20617070726f76616c20746f2063757272656e74206f776e65724552433732313a207472616e736665722063616c6c6572206973206e6f74206f776e6572206e6f7220617070726f766564524543454956455f444f45535f4e4f545f5345545f5452414e534645525f54494d455354414d50416363657373436f6e74726f6c3a2063616e206f6e6c792072656e6f756e636520726f6c657320666f722073656c66a264697066735822122036da9b8894ea2f6b64d7f28701a7516c78d9f0eb8e9fc5491fa8f339fbad688864736f6c63430006050033",
  "immutableReferences": {},
  "source": "pragma solidity ^0.6.0;\n\nimport \"@openzeppelin/contracts-upgradeable/proxy/Initializable.sol\";\nimport \"@openzeppelin/contracts-upgradeable/token/ERC721/ERC721Upgradeable.sol\";\nimport \"@openzeppelin/contracts-upgradeable/access/AccessControlUpgradeable.sol\";\nimport \"../node_modules/@openzeppelin/contracts/math/SafeMath.sol\";\nimport \"../node_modules/abdk-libraries-solidity/ABDKMath64x64.sol\";\nimport \"./util.sol\";\nimport \"./interfaces/ITransferCooldownable.sol\";\n\ncontract Weapons is Initializable, ERC721Upgradeable, AccessControlUpgradeable, ITransferCooldownable {\n\n    using ABDKMath64x64 for int128;\n    using ABDKMath64x64 for uint16;\n\n    bytes32 public constant GAME_ADMIN = keccak256(\"GAME_ADMIN\");\n    bytes32 public constant RECEIVE_DOES_NOT_SET_TRANSFER_TIMESTAMP = keccak256(\"RECEIVE_DOES_NOT_SET_TRANSFER_TIMESTAMP\");\n\n    uint256 public constant TRANSFER_COOLDOWN = 1 days;\n\n    function initialize () public initializer {\n        __ERC721_init(\"WTHell weapon\", \"CBW\");\n        __AccessControl_init_unchained();\n\n        _setupRole(DEFAULT_ADMIN_ROLE, msg.sender);\n    }\n\n    function migrateTo_e55d8c5() public {\n        require(hasRole(DEFAULT_ADMIN_ROLE, msg.sender), \"Not admin\");\n\n        burnPointMultiplier = 2;\n        lowStarBurnPowerPerPoint = 15;\n        fourStarBurnPowerPerPoint = 30;\n        fiveStarBurnPowerPerPoint = 60;\n    }\n\n    function migrateTo_aa9da90() public {\n        require(hasRole(DEFAULT_ADMIN_ROLE, msg.sender), \"Not admin\");\n\n        oneFrac = ABDKMath64x64.fromUInt(1);\n        powerMultPerPointBasic =  ABDKMath64x64.divu(1, 400);// 0.25%\n        powerMultPerPointPWR = powerMultPerPointBasic.mul(ABDKMath64x64.divu(103, 100)); // 0.2575% (+3%)\n        powerMultPerPointMatching = powerMultPerPointBasic.mul(ABDKMath64x64.divu(107, 100)); // 0.2675% (+7%)\n    }\n\n    function migrateTo_951a020() public {\n        require(hasRole(DEFAULT_ADMIN_ROLE, msg.sender), \"Not admin\");\n\n        _registerInterface(TransferCooldownableInterfaceId.interfaceId());\n    }\n\n    /*\n        visual numbers start at 0, increment values by 1\n        levels: 1-128\n        stars: 1-5 (1,2,3: primary only, 4: one secondary, 5: two secondaries)\n        traits: 0-3 [0(fire) > 1(earth) > 2(lightning) > 3(water) > repeat]\n        stats: STR(fire), DEX(earth), CHA(lightning), INT(water), PWR(traitless)\n        base stat rolls: 1*(1-50), 2*(45-75), 3*(70-100), 4*(50-100), 5*(66-100, main is 68-100)\n        burns: add level & main stat, and 50% chance to increase secondaries\n        power: each point contributes .25% to fight power\n        cosmetics: 0-255 but only 24 is used, may want to cap so future expansions dont change existing weps\n    */\n\n    struct Weapon {\n        uint16 properties; // right to left: 3b stars, 2b trait, 7b stat pattern, 4b EMPTY\n        // stats (each point refers to .25% improvement)\n        uint16 stat1;\n        uint16 stat2;\n        uint16 stat3;\n        uint8 level; // separate from stat1 because stat1 will have a pre-roll\n    }\n\n    struct WeaponBurnPoints {\n        uint8 lowStarBurnPoints;\n        uint8 fourStarBurnPoints;\n        uint8 fiveStarBurnPoints;\n    }\n\n    struct WeaponCosmetics {\n        uint8 version;\n        uint256 seed;\n    }\n\n    Weapon[] private tokens;\n    WeaponCosmetics[] private cosmetics;\n    mapping(uint256 => WeaponBurnPoints) burnPoints;\n\n    uint public burnPointMultiplier; // 2\n    uint public lowStarBurnPowerPerPoint; // 15\n    uint public fourStarBurnPowerPerPoint; // 30\n    uint public fiveStarBurnPowerPerPoint; // 60\n\n    int128 public oneFrac; // 1.0\n    int128 public powerMultPerPointBasic; // 0.25%\n    int128 public powerMultPerPointPWR; // 0.2575% (+3%)\n    int128 public powerMultPerPointMatching; // 0.2675% (+7%)\n\n    mapping(uint256 => uint256) public override lastTransferTimestamp;\n\n    mapping(uint256 => uint64) durabilityTimestamp;\n\n    uint256 public constant maxDurability = 20;\n    uint256 public constant secondsPerDurability = 2880; //48 * 60\n\n    event NewWeapon(uint256 indexed weapon, address indexed minter);\n    event Reforged(address indexed owner, uint256 indexed reforged, uint256 indexed burned, uint8 lowPoints, uint8 fourPoints, uint8 fivePoints);\n\n    modifier restricted() {\n        require(hasRole(GAME_ADMIN, msg.sender), \"Not game admin\");\n        _;\n    }\n\n    function __ITransferCooldownable_interfaceId() external pure returns (bytes4) {\n        return TransferCooldownableInterfaceId.interfaceId();\n    }\n\n    function transferCooldownEnd(uint256 tokenId) public override view returns (uint256) {\n        return lastTransferTimestamp[tokenId].add(TRANSFER_COOLDOWN);\n    }\n\n    function transferCooldownLeft(uint256 tokenId) public override view returns (uint256) {\n        (bool success, uint256 secondsLeft) =\n            lastTransferTimestamp[tokenId].trySub(\n                block.timestamp.sub(TRANSFER_COOLDOWN)\n            );\n\n        return success ? secondsLeft : 0;\n    }\n\n    function getStats(uint256 id) internal view\n        returns (uint16 _properties, uint16 _stat1, uint16 _stat2, uint16 _stat3, uint8 _level) {\n\n        Weapon memory w = tokens[id];\n        return (w.properties, w.stat1, w.stat2, w.stat3, w.level);\n    }\n\n    function getCosmetics(uint256 id) internal view\n        returns (uint8 _blade, uint8 _crossguard, uint8 _grip, uint8 _pommel) {\n\n        WeaponCosmetics memory wc = cosmetics[id];\n        _blade = getRandomCosmetic(wc.seed, 1, 24);\n        _crossguard = getRandomCosmetic(wc.seed, 2, 24);\n        _grip = getRandomCosmetic(wc.seed, 3, 24);\n        _pommel = getRandomCosmetic(wc.seed, 4, 24);\n    }\n\n    function get(uint256 id) public view\n        returns (\n            uint16 _properties, uint16 _stat1, uint16 _stat2, uint16 _stat3, uint8 _level,\n            uint8 _blade, uint8 _crossguard, uint8 _grip, uint8 _pommel,\n            uint24 _burnPoints, // burn points.. got stack limits so i put them together\n            uint24 _bonusPower // bonus power\n    ) {\n        (_properties, _stat1, _stat2, _stat3, _level) = getStats(id);\n        (_blade, _crossguard, _grip, _pommel) = getCosmetics(id);\n\n        WeaponBurnPoints memory wbp = burnPoints[id];\n        _burnPoints =\n            uint24(wbp.lowStarBurnPoints) |\n            (uint24(wbp.fourStarBurnPoints) << 8) |\n            (uint24(wbp.fiveStarBurnPoints) << 16);\n\n        _bonusPower = getBonusPower(id);\n    }\n\n    function mint(address minter, uint256 seed) public restricted returns(uint256) {\n        uint256 stars;\n        uint256 roll = seed % 100;\n        // will need revision, possibly manual configuration if we support more than 5 stars\n        if(roll < 1) {\n            stars = 4; // 5* at 1%\n        }\n        else if(roll < 6) { // 4* at 5%\n            stars = 3;\n        }\n        else if(roll < 21) { // 3* at 15%\n            stars = 2;\n        }\n        else if(roll < 56) { // 2* at 35%\n            stars = 1;\n        }\n        else {\n            stars = 0; // 1* at 44%\n        }\n\n        return mintWeaponWithStars(minter, stars, seed);\n    }\n\n    function mintWeaponWithStars(address minter, uint256 stars, uint256 seed) public restricted returns(uint256) {\n        require(stars < 8, \"Stars parameter too high! (max 7)\");\n        (uint16 stat1, uint16 stat2, uint16 stat3) = getStatRolls(stars, seed);\n\n        return performMintWeapon(minter,\n            getRandomProperties(stars, seed),\n            stat1,\n            stat2,\n            stat3,\n            RandomUtil.combineSeeds(seed,3)\n        );\n    }\n\n    function performMintWeapon(address minter,\n        uint16 properties,\n        uint16 stat1, uint16 stat2, uint16 stat3,\n        uint256 cosmeticSeed\n    ) public restricted returns(uint256) {\n\n        uint256 tokenID = tokens.length;\n        tokens.push(Weapon(properties, stat1, stat2, stat3, 0));\n        cosmetics.push(WeaponCosmetics(0, cosmeticSeed));\n        _mint(minter, tokenID);\n        durabilityTimestamp[tokenID] = uint64(now.sub(getDurabilityMaxWait()));\n\n        emit NewWeapon(tokenID, minter);\n        return tokenID;\n    }\n\n    function getRandomProperties(uint256 stars, uint256 seed) public pure returns (uint16) {\n        return uint16((stars & 0x7) // stars aren't randomized here!\n            | ((RandomUtil.randomSeededMinMax(0,3,RandomUtil.combineSeeds(seed,1)) & 0x3) << 3) // trait\n            | ((RandomUtil.randomSeededMinMax(0,124,RandomUtil.combineSeeds(seed,2)) & 0x7F) << 5)); // statPattern\n    }\n\n    function getStatRolls(uint256 stars, uint256 seed) private pure returns (uint16, uint16, uint16) {\n        // each point refers to .25%\n        // so 1 * 4 is 1%\n        uint16 minRoll = getStatMinRoll(stars);\n        uint16 maxRoll = getStatMaxRoll(stars);\n        uint8 statCount = getStatCount(stars);\n\n        uint16 stat1 = getRandomStat(minRoll, maxRoll, seed, 5);\n        uint16 stat2 = 0;\n        uint16 stat3 = 0;\n        if(statCount > 1) {\n            stat2 = getRandomStat(minRoll, maxRoll, seed, 3);\n        }\n        if(statCount > 2) {\n            stat3 = getRandomStat(minRoll, maxRoll, seed, 4);\n        }\n        return (stat1, stat2, stat3);\n    }\n\n    function getRandomStat(uint16 minRoll, uint16 maxRoll, uint256 seed, uint256 seed2) public pure returns (uint16) {\n        return uint16(RandomUtil.randomSeededMinMax(minRoll, maxRoll,RandomUtil.combineSeeds(seed, seed2)));\n    }\n\n    function getRandomCosmetic(uint256 seed, uint256 seed2, uint8 limit) public pure returns (uint8) {\n        return uint8(RandomUtil.randomSeededMinMax(0, limit, RandomUtil.combineSeeds(seed, seed2)));\n    }\n\n    function getStatMinRoll(uint256 stars) public pure returns (uint16) {\n        // 1 star\n        if (stars == 0) return 4;\n        // 2 star\n        if (stars == 1) return 180;\n        // 3 star\n        if (stars == 2) return 280;\n        // 4 star\n        if (stars == 3) return 200;\n        // 5+ star\n        return 268;\n    }\n\n    function getStatMaxRoll(uint256 stars) public pure returns (uint16) {\n        // 3+ star\n        if (stars > 1) return 400;\n        // 2 star\n        if (stars > 0) return 300;\n        // 1 star\n        return 200;\n    }\n\n    function getStatCount(uint256 stars) public pure returns (uint8) {\n        // 1-2 star\n        if (stars < 3) return 1;\n        // 3+ star\n        return uint8(stars)-1;\n    }\n\n    function getProperties(uint256 id) public view returns (uint16) {\n        return tokens[id].properties;\n    }\n\n    function getStars(uint256 id) public view returns (uint8) {\n        return getStarsFromProperties(getProperties(id));\n    }\n\n    function getStarsFromProperties(uint16 properties) public pure returns (uint8) {\n        return uint8(properties & 0x7); // first two bits for stars\n    }\n\n    function getTrait(uint256 id) public view returns (uint8) {\n        return getTraitFromProperties(getProperties(id));\n    }\n\n    function getTraitFromProperties(uint16 properties) public pure returns (uint8) {\n        return uint8((properties >> 3) & 0x3); // two bits after star bits (3)\n    }\n\n    function getStatPattern(uint256 id) public view returns (uint8) {\n        return getStatPatternFromProperties(getProperties(id));\n    }\n\n    function getStatPatternFromProperties(uint16 properties) public pure returns (uint8) {\n        return uint8((properties >> 5) & 0x7F); // 7 bits after star(3) and trait(2) bits\n    }\n\n    function getStat1Trait(uint8 statPattern) public pure returns (uint8) {\n        return uint8(uint256(statPattern) % 5); // 0-3 regular traits, 4 = traitless (PWR)\n    }\n\n    function getStat2Trait(uint8 statPattern) public pure returns (uint8) {\n        return uint8(SafeMath.div(statPattern, 5) % 5); // 0-3 regular traits, 4 = traitless (PWR)\n    }\n\n    function getStat3Trait(uint8 statPattern) public pure returns (uint8) {\n        return uint8(SafeMath.div(statPattern, 25) % 5); // 0-3 regular traits, 4 = traitless (PWR)\n    }\n\n    function getLevel(uint256 id) public view returns (uint8) {\n        return tokens[id].level;\n    }\n\n    function getStat1(uint256 id) public view returns (uint16) {\n        return tokens[id].stat1;\n    }\n\n    function getStat2(uint256 id) public view returns (uint16) {\n        return tokens[id].stat2;\n    }\n\n    function getStat3(uint256 id) public view returns (uint16) {\n        return tokens[id].stat3;\n    }\n\n    function getPowerMultiplier(uint256 id) public view returns (int128) {\n        // returns a 64.64 fixed point number for power multiplier\n        // this function does not account for traits\n        // it is used to calculate base enemy powers for targeting\n        Weapon memory wep = tokens[id];\n        int128 powerPerPoint = ABDKMath64x64.divu(1, 400); // 0.25% or x0.0025\n        int128 stat1 = wep.stat1.fromUInt().mul(powerPerPoint);\n        int128 stat2 = wep.stat2.fromUInt().mul(powerPerPoint);\n        int128 stat3 = wep.stat3.fromUInt().mul(powerPerPoint);\n        return ABDKMath64x64.fromUInt(1).add(stat1).add(stat2).add(stat3);\n    }\n\n    function getPowerMultiplierForTrait(\n        uint16 properties,\n        uint16 stat1,\n        uint16 stat2,\n        uint16 stat3,\n        uint8 trait\n    ) public view returns(int128) {\n        // Does not include character trait to weapon trait match\n        // Only counts arbitrary trait to weapon stat trait\n        // This function can be used by frontend to get expected % bonus for each type\n        // Making it easy to see on the market how useful it will be to you\n        uint8 statPattern = getStatPatternFromProperties(properties);\n        int128 result = oneFrac;\n\n        if(getStat1Trait(statPattern) == trait)\n            result = result.add(stat1.fromUInt().mul(powerMultPerPointMatching));\n        else if(getStat1Trait(statPattern) == 4) // PWR, traitless\n            result = result.add(stat1.fromUInt().mul(powerMultPerPointPWR));\n        else\n            result = result.add(stat1.fromUInt().mul(powerMultPerPointBasic));\n\n        if(getStat2Trait(statPattern) == trait)\n            result = result.add(stat2.fromUInt().mul(powerMultPerPointMatching));\n        else if(getStat2Trait(statPattern) == 4) // PWR, traitless\n            result = result.add(stat2.fromUInt().mul(powerMultPerPointPWR));\n        else\n            result = result.add(stat2.fromUInt().mul(powerMultPerPointBasic));\n\n        if(getStat3Trait(statPattern) == trait)\n            result = result.add(stat3.fromUInt().mul(powerMultPerPointMatching));\n        else if(getStat3Trait(statPattern) == 4) // PWR, traitless\n            result = result.add(stat3.fromUInt().mul(powerMultPerPointPWR));\n        else\n            result = result.add(stat3.fromUInt().mul(powerMultPerPointBasic));\n\n        return result;\n    }\n\n    function reforge(uint256 reforgeID, uint256 burnID) public restricted {\n        WeaponBurnPoints storage wbp = burnPoints[reforgeID];\n        WeaponBurnPoints storage burningbp = burnPoints[burnID];\n        Weapon storage burning = tokens[burnID];\n\n        uint carriedLowStarBurnPoints = (burningbp.lowStarBurnPoints + 1) / 2;\n        uint carriedFourStarBurnPoints = (burningbp.fourStarBurnPoints + 1) / 2;\n        uint carriedFiveStarBurnPoints = (burningbp.fiveStarBurnPoints + 1) / 2;\n\n        uint8 stars = getStarsFromProperties(burning.properties);\n        if(stars < 3) { // 1-3 star\n            require(wbp.lowStarBurnPoints < 100, \"Low star burn points are capped\");\n            uint8 burnValue = stars + 1;\n            wbp.lowStarBurnPoints = uint8(burnPointMultiplier.mul(burnValue)\n                .add(wbp.lowStarBurnPoints));\n        }\n        else if(stars == 3) { // 4 star\n            require(wbp.fourStarBurnPoints < 25, \"Four star burn points are capped\");\n            wbp.fourStarBurnPoints = uint8(burnPointMultiplier.add(wbp.fourStarBurnPoints));\n        }\n        else if(stars == 4) { // 5 star\n            require(wbp.fiveStarBurnPoints < 10, \"Five star burn points are capped\");\n            wbp.fiveStarBurnPoints = uint8(burnPointMultiplier.add(wbp.fiveStarBurnPoints));\n        }\n\n        wbp.lowStarBurnPoints = uint8(carriedLowStarBurnPoints.add(wbp.lowStarBurnPoints));\n        wbp.fourStarBurnPoints = uint8(carriedFourStarBurnPoints.add(wbp.fourStarBurnPoints));\n        wbp.fiveStarBurnPoints = uint8(carriedFiveStarBurnPoints.add(wbp.fiveStarBurnPoints));\n\n        if(wbp.lowStarBurnPoints > 100)\n            wbp.lowStarBurnPoints = 100;\n        if(wbp.fourStarBurnPoints > 25)\n            wbp.fourStarBurnPoints = 25;\n        if(wbp.fiveStarBurnPoints > 10)\n            wbp.fiveStarBurnPoints = 10;\n\n        _burn(burnID);\n        emit Reforged(\n            ownerOf(reforgeID),\n            reforgeID,\n            burnID,\n            wbp.lowStarBurnPoints,\n            wbp.fourStarBurnPoints,\n            wbp.fiveStarBurnPoints\n        );\n    }\n\n    // UNUSED FOR NOW!\n    function levelUp(uint256 id, uint256 seed) private {\n        Weapon storage wep = tokens[id];\n\n        wep.level = uint8(SafeMath.add(wep.level, 1));\n        wep.stat1 = uint16(SafeMath.add(wep.stat1, 1));\n\n        uint8 stars = getStarsFromProperties(wep.properties);\n\n        if(stars >= 4 && RandomUtil.randomSeededMinMax(0,1, seed) == 0) {\n            wep.stat2 = uint16(SafeMath.add(wep.stat2, 1));\n        }\n        if(stars >= 5 && RandomUtil.randomSeededMinMax(0,1, RandomUtil.combineSeeds(seed,1)) == 0) {\n            wep.stat3 = uint16(SafeMath.add(wep.stat3, 1));\n        }\n    }\n\n    function getBonusPower(uint256 id) public view returns (uint24) {\n        Weapon storage wep = tokens[id];\n        return getBonusPowerForFight(id, wep.level);\n    }\n\n    function getBonusPowerForFight(uint256 id, uint8 level) public view returns (uint24) {\n        WeaponBurnPoints storage wbp = burnPoints[id];\n        return uint24(lowStarBurnPowerPerPoint.mul(wbp.lowStarBurnPoints)\n            .add(fourStarBurnPowerPerPoint.mul(wbp.fourStarBurnPoints))\n            .add(fiveStarBurnPowerPerPoint.mul(wbp.fiveStarBurnPoints))\n            .add(uint256(15).mul(level))\n        );\n    }\n\n    function getFightData(uint256 id, uint8 charTrait) public view returns (int128, int128, uint24, uint8) {\n        Weapon storage wep = tokens[id];\n        return (\n            oneFrac.add(powerMultPerPointBasic.mul(\n                    ABDKMath64x64.fromUInt(\n                        wep.stat1 + wep.stat2 + wep.stat3\n                    )\n            )),//targetMult\n            getPowerMultiplierForTrait(wep.properties, wep.stat1, wep.stat2, wep.stat3, charTrait),\n            getBonusPowerForFight(id, wep.level),\n            getTraitFromProperties(wep.properties)\n        );\n    }\n\n    function drainDurability(uint256 id, uint8 amount) public restricted {\n        uint8 durabilityPoints = getDurabilityPointsFromTimestamp(durabilityTimestamp[id]);\n        require(durabilityPoints >= amount, \"Not enough durability!\");\n\n        uint64 drainTime = uint64(amount * secondsPerDurability);\n        if(durabilityPoints >= maxDurability) { // if durability full, we reset timestamp and drain from that\n            durabilityTimestamp[id] = uint64(now - getDurabilityMaxWait() + drainTime);\n        }\n        else {\n            durabilityTimestamp[id] = uint64(durabilityTimestamp[id] + drainTime);\n        }\n    }\n\n    function setBurnPointMultiplier(uint256 multiplier) public restricted {\n        burnPointMultiplier = multiplier;\n    }\n    function setLowStarBurnPowerPerPoint(uint256 powerPerBurnPoint) public restricted {\n        lowStarBurnPowerPerPoint = powerPerBurnPoint;\n    }\n    function setFourStarBurnPowerPerPoint(uint256 powerPerBurnPoint) public restricted {\n        fourStarBurnPowerPerPoint = powerPerBurnPoint;\n    }\n    function setFiveStarBurnPowerPerPoint(uint256 powerPerBurnPoint) public restricted {\n        fiveStarBurnPowerPerPoint = powerPerBurnPoint;\n    }\n\n    function _beforeTokenTransfer(address from, address to, uint256 tokenId) internal override {\n        // when not minting or burning...\n        if(from != address(0) && to != address(0)) {\n            // only allow transferring a particular token every TRANSFER_COOLDOWN seconds\n            require(lastTransferTimestamp[tokenId] < block.timestamp.sub(TRANSFER_COOLDOWN), \"Transfer cooldown\");\n\n            if(!hasRole(RECEIVE_DOES_NOT_SET_TRANSFER_TIMESTAMP, to)) {\n                lastTransferTimestamp[tokenId] = block.timestamp;\n            }\n        }\n    }\n    \n    function getDurabilityTimestamp(uint256 id) public view returns (uint64) {\n        return durabilityTimestamp[id];\n    }\n\n    function setDurabilityTimestamp(uint256 id, uint64 timestamp) public restricted {\n        durabilityTimestamp[id] = timestamp;\n    }\n\n    function getDurabilityPoints(uint256 id) public view returns (uint8) {\n        return getDurabilityPointsFromTimestamp(durabilityTimestamp[id]);\n    }\n\n    function getDurabilityPointsFromTimestamp(uint64 timestamp) public view returns (uint8) {\n        if(timestamp  > now)\n            return 0;\n\n        uint256 points = (now - timestamp) / secondsPerDurability;\n        if(points > maxDurability) {\n            points = maxDurability;\n        }\n        return uint8(points);\n    }\n\n    function isDurabilityFull(uint256 id) public view returns (bool) {\n        return getDurabilityPoints(id) >= maxDurability;\n    }\n\n    function getDurabilityMaxWait() public pure returns (uint64) {\n        return uint64(maxDurability * secondsPerDurability);\n    }\n\n}\n\n",
  "sourcePath": "C:\\Users\\Asus\\Desktop\\PROJECT\\hell_meter\\contracts\\weapons.sol",
  "compiler": {
    "name": "solc",
    "version": "0.6.5+commit.f956cc89.Emscripten.clang"
  },
  "schemaVersion": "3.3.4",
  "updatedAt": "2022-08-10T23:33:13.497Z",
  "networkType": "ethereum",
  "devdoc": {
    "methods": {
      "approve(address,uint256)": {
        "details": "See {IERC721-approve}."
      },
      "balanceOf(address)": {
        "details": "See {IERC721-balanceOf}."
      },
      "baseURI()": {
        "details": "Returns the base URI set via {_setBaseURI}. This will be automatically added as a prefix in {tokenURI} to each token's URI, or to the token ID if no specific URI is set for that token ID."
      },
      "getApproved(uint256)": {
        "details": "See {IERC721-getApproved}."
      },
      "getRoleAdmin(bytes32)": {
        "details": "Returns the admin role that controls `role`. See {grantRole} and {revokeRole}.     * To change a role's admin, use {_setRoleAdmin}."
      },
      "getRoleMember(bytes32,uint256)": {
        "details": "Returns one of the accounts that have `role`. `index` must be a value between 0 and {getRoleMemberCount}, non-inclusive.     * Role bearers are not sorted in any particular way, and their ordering may change at any point.     * WARNING: When using {getRoleMember} and {getRoleMemberCount}, make sure you perform all queries on the same block. See the following https://forum.openzeppelin.com/t/iterating-over-elements-on-enumerableset-in-openzeppelin-contracts/2296[forum post] for more information."
      },
      "getRoleMemberCount(bytes32)": {
        "details": "Returns the number of accounts that have `role`. Can be used together with {getRoleMember} to enumerate all bearers of a role."
      },
      "grantRole(bytes32,address)": {
        "details": "Grants `role` to `account`.     * If `account` had not been already granted `role`, emits a {RoleGranted} event.     * Requirements:     * - the caller must have ``role``'s admin role."
      },
      "hasRole(bytes32,address)": {
        "details": "Returns `true` if `account` has been granted `role`."
      },
      "isApprovedForAll(address,address)": {
        "details": "See {IERC721-isApprovedForAll}."
      },
      "name()": {
        "details": "See {IERC721Metadata-name}."
      },
      "ownerOf(uint256)": {
        "details": "See {IERC721-ownerOf}."
      },
      "renounceRole(bytes32,address)": {
        "details": "Revokes `role` from the calling account.     * Roles are often managed via {grantRole} and {revokeRole}: this function's purpose is to provide a mechanism for accounts to lose their privileges if they are compromised (such as when a trusted device is misplaced).     * If the calling account had been granted `role`, emits a {RoleRevoked} event.     * Requirements:     * - the caller must be `account`."
      },
      "revokeRole(bytes32,address)": {
        "details": "Revokes `role` from `account`.     * If `account` had been granted `role`, emits a {RoleRevoked} event.     * Requirements:     * - the caller must have ``role``'s admin role."
      },
      "safeTransferFrom(address,address,uint256)": {
        "details": "See {IERC721-safeTransferFrom}."
      },
      "safeTransferFrom(address,address,uint256,bytes)": {
        "details": "See {IERC721-safeTransferFrom}."
      },
      "setApprovalForAll(address,bool)": {
        "details": "See {IERC721-setApprovalForAll}."
      },
      "supportsInterface(bytes4)": {
        "details": "See {IERC165-supportsInterface}.     * Time complexity O(1), guaranteed to always use less than 30 000 gas."
      },
      "symbol()": {
        "details": "See {IERC721Metadata-symbol}."
      },
      "tokenByIndex(uint256)": {
        "details": "See {IERC721Enumerable-tokenByIndex}."
      },
      "tokenOfOwnerByIndex(address,uint256)": {
        "details": "See {IERC721Enumerable-tokenOfOwnerByIndex}."
      },
      "tokenURI(uint256)": {
        "details": "See {IERC721Metadata-tokenURI}."
      },
      "totalSupply()": {
        "details": "See {IERC721Enumerable-totalSupply}."
      },
      "transferFrom(address,address,uint256)": {
        "details": "See {IERC721-transferFrom}."
      }
    }
  },
  "userdoc": {
    "methods": {}
  }
}