{
  "contractName": "WTHell",
  "abi": [
    {
      "anonymous": false,
      "inputs": [
        {
          "indexed": true,
          "internalType": "address",
          "name": "owner",
          "type": "address"
        },
        {
          "indexed": true,
          "internalType": "uint256",
          "name": "character",
          "type": "uint256"
        },
        {
          "indexed": false,
          "internalType": "uint256",
          "name": "weapon",
          "type": "uint256"
        },
        {
          "indexed": false,
          "internalType": "uint32",
          "name": "target",
          "type": "uint32"
        },
        {
          "indexed": false,
          "internalType": "uint24",
          "name": "playerRoll",
          "type": "uint24"
        },
        {
          "indexed": false,
          "internalType": "uint24",
          "name": "enemyRoll",
          "type": "uint24"
        },
        {
          "indexed": false,
          "internalType": "uint16",
          "name": "xpGain",
          "type": "uint16"
        },
        {
          "indexed": false,
          "internalType": "uint256",
          "name": "hellGain",
          "type": "uint256"
        }
      ],
      "name": "FightOutcome",
      "type": "event"
    },
    {
      "anonymous": false,
      "inputs": [
        {
          "indexed": true,
          "internalType": "address",
          "name": "to",
          "type": "address"
        },
        {
          "indexed": false,
          "internalType": "uint256",
          "name": "hellAmount",
          "type": "uint256"
        }
      ],
      "name": "InGameOnlyFundsGiven",
      "type": "event"
    },
    {
      "anonymous": false,
      "inputs": [
        {
          "indexed": true,
          "internalType": "bytes32",
          "name": "role",
          "type": "bytes32"
        },
        {
          "indexed": true,
          "internalType": "bytes32",
          "name": "previousAdminRole",
          "type": "bytes32"
        },
        {
          "indexed": true,
          "internalType": "bytes32",
          "name": "newAdminRole",
          "type": "bytes32"
        }
      ],
      "name": "RoleAdminChanged",
      "type": "event"
    },
    {
      "anonymous": false,
      "inputs": [
        {
          "indexed": true,
          "internalType": "bytes32",
          "name": "role",
          "type": "bytes32"
        },
        {
          "indexed": true,
          "internalType": "address",
          "name": "account",
          "type": "address"
        },
        {
          "indexed": true,
          "internalType": "address",
          "name": "sender",
          "type": "address"
        }
      ],
      "name": "RoleGranted",
      "type": "event"
    },
    {
      "anonymous": false,
      "inputs": [
        {
          "indexed": true,
          "internalType": "bytes32",
          "name": "role",
          "type": "bytes32"
        },
        {
          "indexed": true,
          "internalType": "address",
          "name": "account",
          "type": "address"
        },
        {
          "indexed": true,
          "internalType": "address",
          "name": "sender",
          "type": "address"
        }
      ],
      "name": "RoleRevoked",
      "type": "event"
    },
    {
      "inputs": [],
      "name": "DEFAULT_ADMIN_ROLE",
      "outputs": [
        {
          "internalType": "bytes32",
          "name": "",
          "type": "bytes32"
        }
      ],
      "stateMutability": "view",
      "type": "function",
      "constant": true
    },
    {
      "inputs": [],
      "name": "GAME_ADMIN",
      "outputs": [
        {
          "internalType": "bytes32",
          "name": "",
          "type": "bytes32"
        }
      ],
      "stateMutability": "view",
      "type": "function",
      "constant": true
    },
    {
      "inputs": [],
      "name": "REWARDS_CLAIM_TAX_DURATION",
      "outputs": [
        {
          "internalType": "uint256",
          "name": "",
          "type": "uint256"
        }
      ],
      "stateMutability": "view",
      "type": "function",
      "constant": true
    },
    {
      "inputs": [],
      "name": "REWARDS_CLAIM_TAX_MAX",
      "outputs": [
        {
          "internalType": "int128",
          "name": "",
          "type": "int128"
        }
      ],
      "stateMutability": "view",
      "type": "function",
      "constant": true
    },
    {
      "inputs": [],
      "name": "characters",
      "outputs": [
        {
          "internalType": "contract Characters",
          "name": "",
          "type": "address"
        }
      ],
      "stateMutability": "view",
      "type": "function",
      "constant": true
    },
    {
      "inputs": [],
      "name": "fightRewardBaseline",
      "outputs": [
        {
          "internalType": "int128",
          "name": "",
          "type": "int128"
        }
      ],
      "stateMutability": "view",
      "type": "function",
      "constant": true
    },
    {
      "inputs": [],
      "name": "fightRewardGasOffset",
      "outputs": [
        {
          "internalType": "int128",
          "name": "",
          "type": "int128"
        }
      ],
      "stateMutability": "view",
      "type": "function",
      "constant": true
    },
    {
      "inputs": [],
      "name": "fightTraitBonus",
      "outputs": [
        {
          "internalType": "int128",
          "name": "",
          "type": "int128"
        }
      ],
      "stateMutability": "view",
      "type": "function",
      "constant": true
    },
    {
      "inputs": [],
      "name": "fightXpGain",
      "outputs": [
        {
          "internalType": "uint256",
          "name": "",
          "type": "uint256"
        }
      ],
      "stateMutability": "view",
      "type": "function",
      "constant": true
    },
    {
      "inputs": [
        {
          "internalType": "bytes32",
          "name": "role",
          "type": "bytes32"
        }
      ],
      "name": "getRoleAdmin",
      "outputs": [
        {
          "internalType": "bytes32",
          "name": "",
          "type": "bytes32"
        }
      ],
      "stateMutability": "view",
      "type": "function",
      "constant": true
    },
    {
      "inputs": [
        {
          "internalType": "bytes32",
          "name": "role",
          "type": "bytes32"
        },
        {
          "internalType": "uint256",
          "name": "index",
          "type": "uint256"
        }
      ],
      "name": "getRoleMember",
      "outputs": [
        {
          "internalType": "address",
          "name": "",
          "type": "address"
        }
      ],
      "stateMutability": "view",
      "type": "function",
      "constant": true
    },
    {
      "inputs": [
        {
          "internalType": "bytes32",
          "name": "role",
          "type": "bytes32"
        }
      ],
      "name": "getRoleMemberCount",
      "outputs": [
        {
          "internalType": "uint256",
          "name": "",
          "type": "uint256"
        }
      ],
      "stateMutability": "view",
      "type": "function",
      "constant": true
    },
    {
      "inputs": [
        {
          "internalType": "bytes32",
          "name": "role",
          "type": "bytes32"
        },
        {
          "internalType": "address",
          "name": "account",
          "type": "address"
        }
      ],
      "name": "grantRole",
      "outputs": [],
      "stateMutability": "nonpayable",
      "type": "function"
    },
    {
      "inputs": [
        {
          "internalType": "bytes32",
          "name": "role",
          "type": "bytes32"
        },
        {
          "internalType": "address",
          "name": "account",
          "type": "address"
        }
      ],
      "name": "hasRole",
      "outputs": [
        {
          "internalType": "bool",
          "name": "",
          "type": "bool"
        }
      ],
      "stateMutability": "view",
      "type": "function",
      "constant": true
    },
    {
      "inputs": [],
      "name": "hellToken",
      "outputs": [
        {
          "internalType": "contract IERC20",
          "name": "",
          "type": "address"
        }
      ],
      "stateMutability": "view",
      "type": "function",
      "constant": true
    },
    {
      "inputs": [
        {
          "internalType": "address",
          "name": "",
          "type": "address"
        }
      ],
      "name": "inGameOnlyFunds",
      "outputs": [
        {
          "internalType": "uint256",
          "name": "",
          "type": "uint256"
        }
      ],
      "stateMutability": "view",
      "type": "function",
      "constant": true
    },
    {
      "inputs": [],
      "name": "mintCharacterFee",
      "outputs": [
        {
          "internalType": "int128",
          "name": "",
          "type": "int128"
        }
      ],
      "stateMutability": "view",
      "type": "function",
      "constant": true
    },
    {
      "inputs": [],
      "name": "mintWeaponFee",
      "outputs": [
        {
          "internalType": "int128",
          "name": "",
          "type": "int128"
        }
      ],
      "stateMutability": "view",
      "type": "function",
      "constant": true
    },
    {
      "inputs": [],
      "name": "oneFrac",
      "outputs": [
        {
          "internalType": "int128",
          "name": "",
          "type": "int128"
        }
      ],
      "stateMutability": "view",
      "type": "function",
      "constant": true
    },
    {
      "inputs": [],
      "name": "priceOracleHellPerUsd",
      "outputs": [
        {
          "internalType": "contract IPriceOracle",
          "name": "",
          "type": "address"
        }
      ],
      "stateMutability": "view",
      "type": "function",
      "constant": true
    },
    {
      "inputs": [],
      "name": "promos",
      "outputs": [
        {
          "internalType": "contract Promos",
          "name": "",
          "type": "address"
        }
      ],
      "stateMutability": "view",
      "type": "function",
      "constant": true
    },
    {
      "inputs": [],
      "name": "randoms",
      "outputs": [
        {
          "internalType": "contract IRandoms",
          "name": "",
          "type": "address"
        }
      ],
      "stateMutability": "view",
      "type": "function",
      "constant": true
    },
    {
      "inputs": [],
      "name": "refillStaminaFee",
      "outputs": [
        {
          "internalType": "int128",
          "name": "",
          "type": "int128"
        }
      ],
      "stateMutability": "view",
      "type": "function",
      "constant": true
    },
    {
      "inputs": [],
      "name": "reforgeWeaponFee",
      "outputs": [
        {
          "internalType": "int128",
          "name": "",
          "type": "int128"
        }
      ],
      "stateMutability": "view",
      "type": "function",
      "constant": true
    },
    {
      "inputs": [
        {
          "internalType": "bytes32",
          "name": "role",
          "type": "bytes32"
        },
        {
          "internalType": "address",
          "name": "account",
          "type": "address"
        }
      ],
      "name": "renounceRole",
      "outputs": [],
      "stateMutability": "nonpayable",
      "type": "function"
    },
    {
      "inputs": [
        {
          "internalType": "bytes32",
          "name": "role",
          "type": "bytes32"
        },
        {
          "internalType": "address",
          "name": "account",
          "type": "address"
        }
      ],
      "name": "revokeRole",
      "outputs": [],
      "stateMutability": "nonpayable",
      "type": "function"
    },
    {
      "inputs": [],
      "name": "stakeFromGameImpl",
      "outputs": [
        {
          "internalType": "contract IStakeFromGame",
          "name": "",
          "type": "address"
        }
      ],
      "stateMutability": "view",
      "type": "function",
      "constant": true
    },
    {
      "inputs": [],
      "name": "totalInGameOnlyFunds",
      "outputs": [
        {
          "internalType": "uint256",
          "name": "",
          "type": "uint256"
        }
      ],
      "stateMutability": "view",
      "type": "function",
      "constant": true
    },
    {
      "inputs": [],
      "name": "weapons",
      "outputs": [
        {
          "internalType": "contract Weapons",
          "name": "",
          "type": "address"
        }
      ],
      "stateMutability": "view",
      "type": "function",
      "constant": true
    },
    {
      "inputs": [
        {
          "internalType": "contract IERC20",
          "name": "_hellToken",
          "type": "address"
        },
        {
          "internalType": "contract Characters",
          "name": "_characters",
          "type": "address"
        },
        {
          "internalType": "contract Weapons",
          "name": "_weapons",
          "type": "address"
        },
        {
          "internalType": "contract IPriceOracle",
          "name": "_priceOracleHellPerUsd",
          "type": "address"
        },
        {
          "internalType": "contract IRandoms",
          "name": "_randoms",
          "type": "address"
        }
      ],
      "name": "initialize",
      "outputs": [],
      "stateMutability": "nonpayable",
      "type": "function"
    },
    {
      "inputs": [],
      "name": "migrateTo_1ee400a",
      "outputs": [],
      "stateMutability": "nonpayable",
      "type": "function"
    },
    {
      "inputs": [],
      "name": "migrateTo_aa9da90",
      "outputs": [],
      "stateMutability": "nonpayable",
      "type": "function"
    },
    {
      "inputs": [
        {
          "internalType": "contract Promos",
          "name": "_promos",
          "type": "address"
        }
      ],
      "name": "migrateTo_ef994e2",
      "outputs": [],
      "stateMutability": "nonpayable",
      "type": "function"
    },
    {
      "inputs": [
        {
          "internalType": "contract IStakeFromGame",
          "name": "_stakeFromGame",
          "type": "address"
        }
      ],
      "name": "migrateTo_23b3a8b",
      "outputs": [],
      "stateMutability": "nonpayable",
      "type": "function"
    },
    {
      "inputs": [],
      "name": "migrateTo_7dd2a56",
      "outputs": [],
      "stateMutability": "nonpayable",
      "type": "function"
    },
    {
      "inputs": [
        {
          "internalType": "uint256",
          "name": "amount",
          "type": "uint256"
        }
      ],
      "name": "recoverHell",
      "outputs": [],
      "stateMutability": "nonpayable",
      "type": "function"
    },
    {
      "inputs": [
        {
          "internalType": "uint256",
          "name": "_inGameOnlyFunds",
          "type": "uint256"
        },
        {
          "internalType": "uint256",
          "name": "_tokenRewards",
          "type": "uint256"
        },
        {
          "internalType": "uint256",
          "name": "_hellNeeded",
          "type": "uint256"
        }
      ],
      "name": "getHellToSubtract",
      "outputs": [
        {
          "internalType": "uint256",
          "name": "fromInGameOnlyFunds",
          "type": "uint256"
        },
        {
          "internalType": "uint256",
          "name": "fromTokenRewards",
          "type": "uint256"
        },
        {
          "internalType": "uint256",
          "name": "fromUserWallet",
          "type": "uint256"
        }
      ],
      "stateMutability": "pure",
      "type": "function",
      "constant": true
    },
    {
      "inputs": [
        {
          "internalType": "address",
          "name": "playerAddress",
          "type": "address"
        },
        {
          "internalType": "uint256",
          "name": "hellNeeded",
          "type": "uint256"
        }
      ],
      "name": "getHellNeededFromUserWallet",
      "outputs": [
        {
          "internalType": "uint256",
          "name": "hellNeededFromUserWallet",
          "type": "uint256"
        }
      ],
      "stateMutability": "view",
      "type": "function",
      "constant": true
    },
    {
      "inputs": [],
      "name": "getMyCharacters",
      "outputs": [
        {
          "internalType": "uint256[]",
          "name": "",
          "type": "uint256[]"
        }
      ],
      "stateMutability": "view",
      "type": "function",
      "constant": true
    },
    {
      "inputs": [],
      "name": "getMyWeapons",
      "outputs": [
        {
          "internalType": "uint256[]",
          "name": "",
          "type": "uint256[]"
        }
      ],
      "stateMutability": "view",
      "type": "function",
      "constant": true
    },
    {
      "inputs": [
        {
          "internalType": "uint96",
          "name": "playerData",
          "type": "uint96"
        }
      ],
      "name": "unpackFightData",
      "outputs": [
        {
          "internalType": "uint8",
          "name": "charTrait",
          "type": "uint8"
        },
        {
          "internalType": "uint24",
          "name": "basePowerLevel",
          "type": "uint24"
        },
        {
          "internalType": "uint64",
          "name": "timestamp",
          "type": "uint64"
        }
      ],
      "stateMutability": "pure",
      "type": "function",
      "constant": true
    },
    {
      "inputs": [
        {
          "internalType": "uint256",
          "name": "char",
          "type": "uint256"
        },
        {
          "internalType": "uint256",
          "name": "wep",
          "type": "uint256"
        },
        {
          "internalType": "uint32",
          "name": "target",
          "type": "uint32"
        }
      ],
      "name": "fight",
      "outputs": [],
      "stateMutability": "nonpayable",
      "type": "function"
    },
    {
      "inputs": [
        {
          "internalType": "uint24",
          "name": "playerBasePower",
          "type": "uint24"
        },
        {
          "internalType": "int128",
          "name": "wepMultiplier",
          "type": "int128"
        },
        {
          "internalType": "uint24",
          "name": "wepBonusPower",
          "type": "uint24"
        },
        {
          "internalType": "uint64",
          "name": "staminaTimestamp",
          "type": "uint64"
        },
        {
          "internalType": "uint256",
          "name": "hour",
          "type": "uint256"
        },
        {
          "internalType": "uint32",
          "name": "target",
          "type": "uint32"
        }
      ],
      "name": "verifyFight",
      "outputs": [],
      "stateMutability": "pure",
      "type": "function",
      "constant": true
    },
    {
      "inputs": [
        {
          "internalType": "uint32",
          "name": "target",
          "type": "uint32"
        }
      ],
      "name": "getMonsterPower",
      "outputs": [
        {
          "internalType": "uint24",
          "name": "",
          "type": "uint24"
        }
      ],
      "stateMutability": "pure",
      "type": "function",
      "constant": true
    },
    {
      "inputs": [
        {
          "internalType": "uint24",
          "name": "basePower",
          "type": "uint24"
        },
        {
          "internalType": "int128",
          "name": "weaponMultiplier",
          "type": "int128"
        },
        {
          "internalType": "uint24",
          "name": "bonusPower",
          "type": "uint24"
        }
      ],
      "name": "getPlayerPower",
      "outputs": [
        {
          "internalType": "uint24",
          "name": "",
          "type": "uint24"
        }
      ],
      "stateMutability": "pure",
      "type": "function",
      "constant": true
    },
    {
      "inputs": [
        {
          "internalType": "uint24",
          "name": "traitsCWE",
          "type": "uint24"
        }
      ],
      "name": "getPlayerTraitBonusAgainst",
      "outputs": [
        {
          "internalType": "int128",
          "name": "",
          "type": "int128"
        }
      ],
      "stateMutability": "view",
      "type": "function",
      "constant": true
    },
    {
      "inputs": [
        {
          "internalType": "uint256",
          "name": "char",
          "type": "uint256"
        },
        {
          "internalType": "uint256",
          "name": "wep",
          "type": "uint256"
        }
      ],
      "name": "getTargets",
      "outputs": [
        {
          "internalType": "uint32[4]",
          "name": "",
          "type": "uint32[4]"
        }
      ],
      "stateMutability": "view",
      "type": "function",
      "constant": true
    },
    {
      "inputs": [
        {
          "internalType": "uint8",
          "name": "attacker",
          "type": "uint8"
        },
        {
          "internalType": "uint8",
          "name": "defender",
          "type": "uint8"
        }
      ],
      "name": "isTraitEffectiveAgainst",
      "outputs": [
        {
          "internalType": "bool",
          "name": "",
          "type": "bool"
        }
      ],
      "stateMutability": "pure",
      "type": "function",
      "constant": true
    },
    {
      "inputs": [],
      "name": "mintCharacter",
      "outputs": [],
      "stateMutability": "nonpayable",
      "type": "function"
    },
    {
      "inputs": [],
      "name": "mintWeapon",
      "outputs": [],
      "stateMutability": "nonpayable",
      "type": "function"
    },
    {
      "inputs": [
        {
          "internalType": "uint256",
          "name": "reforgeID",
          "type": "uint256"
        },
        {
          "internalType": "uint256",
          "name": "burnID",
          "type": "uint256"
        }
      ],
      "name": "reforgeWeapon",
      "outputs": [],
      "stateMutability": "nonpayable",
      "type": "function"
    },
    {
      "inputs": [
        {
          "internalType": "contract IRandoms",
          "name": "_newRandoms",
          "type": "address"
        }
      ],
      "name": "migrateRandoms",
      "outputs": [],
      "stateMutability": "nonpayable",
      "type": "function"
    },
    {
      "inputs": [
        {
          "internalType": "address",
          "name": "playerAddress",
          "type": "address"
        },
        {
          "internalType": "int128",
          "name": "usdAmount",
          "type": "int128"
        }
      ],
      "name": "payContract",
      "outputs": [],
      "stateMutability": "nonpayable",
      "type": "function"
    },
    {
      "inputs": [
        {
          "internalType": "address",
          "name": "playerAddress",
          "type": "address"
        },
        {
          "internalType": "uint256",
          "name": "convertedAmount",
          "type": "uint256"
        }
      ],
      "name": "payContractConverted",
      "outputs": [],
      "stateMutability": "nonpayable",
      "type": "function"
    },
    {
      "inputs": [
        {
          "internalType": "address",
          "name": "playerAddress",
          "type": "address"
        },
        {
          "internalType": "int128",
          "name": "baseAmount",
          "type": "int128"
        }
      ],
      "name": "payPlayer",
      "outputs": [],
      "stateMutability": "nonpayable",
      "type": "function"
    },
    {
      "inputs": [
        {
          "internalType": "address",
          "name": "playerAddress",
          "type": "address"
        },
        {
          "internalType": "uint256",
          "name": "convertedAmount",
          "type": "uint256"
        }
      ],
      "name": "payPlayerConverted",
      "outputs": [],
      "stateMutability": "nonpayable",
      "type": "function"
    },
    {
      "inputs": [
        {
          "internalType": "uint256",
          "name": "characterID",
          "type": "uint256"
        },
        {
          "internalType": "address",
          "name": "playerAddress",
          "type": "address"
        }
      ],
      "name": "approveContractCharacterFor",
      "outputs": [],
      "stateMutability": "nonpayable",
      "type": "function"
    },
    {
      "inputs": [
        {
          "internalType": "uint256",
          "name": "weaponID",
          "type": "uint256"
        },
        {
          "internalType": "address",
          "name": "playerAddress",
          "type": "address"
        }
      ],
      "name": "approveContractWeaponFor",
      "outputs": [],
      "stateMutability": "nonpayable",
      "type": "function"
    },
    {
      "inputs": [
        {
          "internalType": "uint256",
          "name": "cents",
          "type": "uint256"
        }
      ],
      "name": "setCharacterMintValue",
      "outputs": [],
      "stateMutability": "nonpayable",
      "type": "function"
    },
    {
      "inputs": [
        {
          "internalType": "uint256",
          "name": "tenthcents",
          "type": "uint256"
        }
      ],
      "name": "setFightRewardBaselineValue",
      "outputs": [],
      "stateMutability": "nonpayable",
      "type": "function"
    },
    {
      "inputs": [
        {
          "internalType": "uint256",
          "name": "cents",
          "type": "uint256"
        }
      ],
      "name": "setFightRewardGasOffsetValue",
      "outputs": [],
      "stateMutability": "nonpayable",
      "type": "function"
    },
    {
      "inputs": [
        {
          "internalType": "uint256",
          "name": "cents",
          "type": "uint256"
        }
      ],
      "name": "setWeaponMintValue",
      "outputs": [],
      "stateMutability": "nonpayable",
      "type": "function"
    },
    {
      "inputs": [
        {
          "internalType": "uint256",
          "name": "cents",
          "type": "uint256"
        }
      ],
      "name": "setReforgeWeaponValue",
      "outputs": [],
      "stateMutability": "nonpayable",
      "type": "function"
    },
    {
      "inputs": [
        {
          "internalType": "uint8",
          "name": "points",
          "type": "uint8"
        }
      ],
      "name": "setStaminaCostFight",
      "outputs": [],
      "stateMutability": "nonpayable",
      "type": "function"
    },
    {
      "inputs": [
        {
          "internalType": "uint8",
          "name": "points",
          "type": "uint8"
        }
      ],
      "name": "setDurabilityCostFight",
      "outputs": [],
      "stateMutability": "nonpayable",
      "type": "function"
    },
    {
      "inputs": [
        {
          "internalType": "uint256",
          "name": "average",
          "type": "uint256"
        }
      ],
      "name": "setFightXpGain",
      "outputs": [],
      "stateMutability": "nonpayable",
      "type": "function"
    },
    {
      "inputs": [
        {
          "internalType": "uint256",
          "name": "max",
          "type": "uint256"
        }
      ],
      "name": "setCharacterLimit",
      "outputs": [],
      "stateMutability": "nonpayable",
      "type": "function"
    },
    {
      "inputs": [
        {
          "internalType": "address",
          "name": "to",
          "type": "address"
        },
        {
          "internalType": "uint256",
          "name": "hellAmount",
          "type": "uint256"
        }
      ],
      "name": "giveInGameOnlyFunds",
      "outputs": [],
      "stateMutability": "nonpayable",
      "type": "function"
    },
    {
      "inputs": [
        {
          "internalType": "address",
          "name": "to",
          "type": "address"
        },
        {
          "internalType": "uint256",
          "name": "hellAmount",
          "type": "uint256"
        }
      ],
      "name": "giveInGameOnlyFundsFromContractBalance",
      "outputs": [],
      "stateMutability": "nonpayable",
      "type": "function"
    },
    {
      "inputs": [
        {
          "internalType": "int128",
          "name": "usdAmount",
          "type": "int128"
        }
      ],
      "name": "usdToHell",
      "outputs": [
        {
          "internalType": "uint256",
          "name": "",
          "type": "uint256"
        }
      ],
      "stateMutability": "view",
      "type": "function",
      "constant": true
    },
    {
      "inputs": [],
      "name": "getCurrentHour",
      "outputs": [
        {
          "internalType": "uint256",
          "name": "",
          "type": "uint256"
        }
      ],
      "stateMutability": "view",
      "type": "function",
      "constant": true
    },
    {
      "inputs": [],
      "name": "claimTokenRewards",
      "outputs": [],
      "stateMutability": "nonpayable",
      "type": "function"
    },
    {
      "inputs": [],
      "name": "stakeUnclaimedRewards",
      "outputs": [],
      "stateMutability": "nonpayable",
      "type": "function"
    },
    {
      "inputs": [],
      "name": "claimXpRewards",
      "outputs": [],
      "stateMutability": "nonpayable",
      "type": "function"
    },
    {
      "inputs": [],
      "name": "getTokenRewards",
      "outputs": [
        {
          "internalType": "uint256",
          "name": "",
          "type": "uint256"
        }
      ],
      "stateMutability": "view",
      "type": "function",
      "constant": true
    },
    {
      "inputs": [
        {
          "internalType": "uint256",
          "name": "char",
          "type": "uint256"
        }
      ],
      "name": "getXpRewards",
      "outputs": [
        {
          "internalType": "uint256",
          "name": "",
          "type": "uint256"
        }
      ],
      "stateMutability": "view",
      "type": "function",
      "constant": true
    },
    {
      "inputs": [
        {
          "internalType": "address",
          "name": "wallet",
          "type": "address"
        }
      ],
      "name": "getTokenRewardsFor",
      "outputs": [
        {
          "internalType": "uint256",
          "name": "",
          "type": "uint256"
        }
      ],
      "stateMutability": "view",
      "type": "function",
      "constant": true
    },
    {
      "inputs": [
        {
          "internalType": "address",
          "name": "wallet",
          "type": "address"
        }
      ],
      "name": "getTotalHellOwnedBy",
      "outputs": [
        {
          "internalType": "uint256",
          "name": "",
          "type": "uint256"
        }
      ],
      "stateMutability": "view",
      "type": "function",
      "constant": true
    },
    {
      "inputs": [],
      "name": "getOwnRewardsClaimTax",
      "outputs": [
        {
          "internalType": "int128",
          "name": "",
          "type": "int128"
        }
      ],
      "stateMutability": "view",
      "type": "function",
      "constant": true
    }
  ],
  "bytecode": "0x608060405234801561001057600080fd5b5061565080620000216000396000f3fe608060405234801561001057600080fd5b50600436106104755760003560e01c806391d1485411610257578063c6e195ed11610146578063e4a0f566116100c3578063f359832811610087578063f359832814610d12578063faf039f414610d3e578063fb198c4a14610d46578063fd20747e14610da1578063ff8956f714610dbe57610475565b8063e4a0f56614610c7e578063e6a9076a14610ca4578063e6c6b7f014610cc1578063ebca521f14610cc9578063eea74ec714610cf557610475565b8063d547741f1161010a578063d547741f14610bff578063dbf802d914610c2b578063dc88432b14610c33578063e36ed97114610c59578063e3a6615a14610c7657610475565b8063c6e195ed14610b87578063ca15c87314610b8f578063d070bb5414610bac578063d0eac9c114610bb4578063d2c76c0514610bd757610475565b8063aa663777116101d4578063bb3ccd7011610198578063bb3ccd7014610b5f578063bc67e88714610b67578063bcc0957d14610b6f578063be2cf13814610b77578063bee666d814610b7f57610475565b8063aa66377714610b10578063ab37e93414610b18578063b179edf414610b20578063b63589a114610b4f578063b7e1cd8614610b5757610475565b80639b9720921161021b5780639b97209214610a505780639f6b232e14610a7f5780639f8c964c14610ada578063a217fddf14610ae2578063a93bde2f14610aea57610475565b806391d14854146109a3578063945dbfcf146109e3578063988b293514610a0057806398c81edc14610a265780639b91748114610a2e57610475565b806336568abe116103735780635752ff51116102f05780637998b3fd116102b45780637998b3fd1461091557806379bd826d1461093b5780637d3eb7d31461095b5780638c30db79146109635780639010d07c1461098057610475565b80635752ff5114610875578063599389b5146108a1578063613f1352146108c15780636c6302b3146108c95780636f907206146108e957610475565b80634bfe0fa7116103375780634bfe0fa71461079f57806351e717ac146107c2578063534f6600146107ca5780635504d3d214610820578063563002aa1461082857610475565b806336568abe1461073e5780633c4739d31461076a5780633f18cd5b1461077257806344678be11461077a578063499eeeeb1461079757610475565b80631426cead11610401578063248a9ca3116103c5578063248a9ca31461065d5780632f2ff15d1461068c578063328da351146106b8578063336dfb46146106c057806335c31aa11461071857610475565b80631426cead146105925780631459457a146105be5780631a70fe02146106065780631d765c881461060e5780631d7d76471461061657610475565b80630e032061116104485780630e032061146104ee5780630ec329771461050b5780630f92e39e146105135780631208fa551461053f57806313d721ef1461056357610475565b806301c5f7ed1461047a57806306418778146104a857806306deb3e1146104b05780630dff3a10146104cd575b600080fd5b6104a66004803603604081101561049057600080fd5b506001600160a01b038135169060200135610dc6565b005b6104a6610e3c565b6104a6600480360360208110156104c657600080fd5b5035610eeb565b6104d5610f8b565b60408051600f92830b90920b8252519081900360200190f35b6104a66004803603602081101561050457600080fd5b5035610f99565b6104a6611034565b6104a66004803603604081101561052957600080fd5b50803590602001356001600160a01b0316611085565b6105476110f7565b604080516001600160a01b039092168252519081900360200190f35b6104a66004803603604081101561057957600080fd5b506001600160a01b038135169060200135600f0b61110b565b6104a6600480360360408110156105a857600080fd5b50803590602001356001600160a01b031661117d565b6104a6600480360360a08110156105d457600080fd5b506001600160a01b038135811691602081013582169160408201358116916060810135821691608090910135166111ef565b6104a661144d565b6104a6611502565b61063f6004803603606081101561062c57600080fd5b5080359060208101359060400135611620565b60408051938452602084019290925282820152519081900360600190f35b61067a6004803603602081101561067357600080fd5b5035611667565b60408051918252519081900360200190f35b6104a6600480360360408110156106a257600080fd5b50803590602001356001600160a01b031661167f565b61067a6116e7565b6106c86116fa565b60408051602080825283518183015283519192839290830191858101910280838360005b838110156107045781810151838201526020016106ec565b505050509050019250505060405180910390f35b61067a6004803603602081101561072e57600080fd5b50356001600160a01b031661186a565b6104a66004803603604081101561075457600080fd5b50803590602001356001600160a01b0316611912565b6106c8611973565b61067a611add565b6104a66004803603602081101561079057600080fd5b5035611ae4565b6104d5611b51565b6104a6600480360360408110156107b557600080fd5b5080359060200135611b61565b610547612021565b6104a6600480360360c08110156107e057600080fd5b50803562ffffff908116916020810135600f0b9160408201351690606081013567ffffffffffffffff169060808101359060a0013563ffffffff16612030565b61067a6120de565b61085d6004803603606081101561083e57600080fd5b5062ffffff81358116916020810135600f0b9160409091013516612100565b6040805162ffffff9092168252519081900360200190f35b61067a6004803603604081101561088b57600080fd5b506001600160a01b03813516906020013561213a565b6104a6600480360360208110156108b757600080fd5b503560ff16612172565b61067a6121f0565b6104a6600480360360208110156108df57600080fd5b503560ff166121f6565b6104a6600480360360408110156108ff57600080fd5b506001600160a01b038135169060200135612274565b61067a6004803603602081101561092b57600080fd5b50356001600160a01b03166123f5565b61067a6004803603602081101561095157600080fd5b5035600f0b612410565b6104d56124a6565b6104a66004803603602081101561097957600080fd5b50356124b6565b6105476004803603604081101561099657600080fd5b5080359060200135612555565b6109cf600480360360408110156109b957600080fd5b50803590602001356001600160a01b031661257a565b604080519115158252519081900360200190f35b61067a600480360360208110156109f957600080fd5b5035612598565b61067a60048036036020811015610a1657600080fd5b50356001600160a01b03166125aa565b6105476125bc565b6104d560048036036020811015610a4457600080fd5b503562ffffff166125cb565b6104a660048036036060811015610a6657600080fd5b508035906020810135906040013563ffffffff1661268e565b610aaa60048036036020811015610a9557600080fd5b50356bffffffffffffffffffffffff16612c88565b6040805160ff909416845262ffffff909216602084015267ffffffffffffffff1682820152519081900360600190f35b6104d5612ca8565b61067a612cb1565b6104a660048036036020811015610b0057600080fd5b50356001600160a01b0316612cb6565b6104d5612d20565b61067a612d29565b6104a660048036036040811015610b3657600080fd5b506001600160a01b038135169060200135600f0b612d2f565b61067a612da1565b610547612db5565b6104a6612dc4565b6104a6612e13565b6104d5612fb7565b6104d5612fc0565b610547612fc9565b6104d5612fd8565b61067a60048036036020811015610ba557600080fd5b5035612fe8565b610547612fff565b61085d60048036036020811015610bca57600080fd5b503563ffffffff1661300e565b6109cf60048036036040811015610bed57600080fd5b5060ff81358116916020013516613016565b6104a660048036036040811015610c1557600080fd5b50803590602001356001600160a01b0316613039565b6104d5613092565b6104a660048036036020811015610c4957600080fd5b50356001600160a01b031661309e565b6104a660048036036020811015610c6f57600080fd5b503561310e565b6104d561317b565b6104a660048036036020811015610c9457600080fd5b50356001600160a01b031661318b565b6104a660048036036020811015610cba57600080fd5b50356131f5565b6104a6613290565b6104a660048036036040811015610cdf57600080fd5b506001600160a01b03813516906020013561368e565b6104a660048036036020811015610d0b57600080fd5b5035613700565b6104a660048036036040811015610d2857600080fd5b506001600160a01b0381351690602001356137cb565b6104a661383d565b610d6960048036036040811015610d5c57600080fd5b5080359060200135613f46565b6040518082608080838360005b83811015610d8e578181015183820152602001610d76565b5050505090500191505060405180910390f35b6104a660048036036020811015610db757600080fd5b5035614164565b610547614203565b604080516923a0a6a2afa0a226a4a760b11b8152905190819003600a019020610def903361257a565b610e2e576040805162461bcd60e51b815260206004820152601760248201526000805160206154fc833981519152604482015290519081900360640190fd5b610e388282614212565b5050565b610e4760003361257a565b610e84576040805162461bcd60e51b81526020600482015260096024820152682737ba1030b236b4b760b91b604482015290519081900360640190fd5b610e8e6001614331565b60748054600f9290920b6001600160801b03166001600160801b0319909216919091179055610ec0604b6103e861434f565b607460106101000a8154816001600160801b030219169083600f0b6001600160801b03160217905550565b604080516923a0a6a2afa0a226a4a760b11b8152905190819003600a019020610f14903361257a565b610f53576040805162461bcd60e51b815260206004820152601760248201526000805160206154fc833981519152604482015290519081900360640190fd5b610f5f816103e861434f565b606c60106101000a8154816001600160801b030219169083600f0b6001600160801b0316021790555050565b606b546101009004600f0b81565b604080516923a0a6a2afa0a226a4a760b11b8152905190819003600a019020610fc2903361257a565b611001576040805162461bcd60e51b815260206004820152601760248201526000805160206154fc833981519152604482015290519081900360640190fd5b61100c81606461434f565b606d8054600f9290920b6001600160801b03166001600160801b031990921691909117905550565b336000818152607260205260408120805490829055916110799061106c90849061105d90614386565b600f0b9063ffffffff61442116565b839063ffffffff61448916565b9050610e3833826144e6565b604080516923a0a6a2afa0a226a4a760b11b8152905190819003600a0190206110ae903361257a565b6110ed576040805162461bcd60e51b815260206004820152601760248201526000805160206154fc833981519152604482015290519081900360640190fd5b610e38828261456c565b60795461010090046001600160a01b031681565b604080516923a0a6a2afa0a226a4a760b11b8152905190819003600a019020611134903361257a565b611173576040805162461bcd60e51b815260206004820152601760248201526000805160206154fc833981519152604482015290519081900360640190fd5b610e3882826145d5565b604080516923a0a6a2afa0a226a4a760b11b8152905190819003600a0190206111a6903361257a565b6111e5576040805162461bcd60e51b815260206004820152601760248201526000805160206154fc833981519152604482015290519081900360640190fd5b610e3882826145e7565b600054610100900460ff1680611208575061120861463c565b80611216575060005460ff16155b6112515760405162461bcd60e51b815260040180806020018281038252602e81526020018061559d602e913960400191505060405180910390fd5b600054610100900460ff1615801561127c576000805460ff1961ff0019909116610100171660011790555b61128461464d565b61128f6000336116dd565b604080516923a0a6a2afa0a226a4a760b11b8152905190819003600a0190206112b890336116dd565b606780546001600160a01b03199081166001600160a01b0389811691909117909255606580548216888416179055606680548216878416179055606880548216868416179055606980549091169184169190911790556004606a55606b8054602860ff199182161790915560798054909116600190811790915561133e90600a9061434f565b606b60016101000a8154816001600160801b030219169083600f0b6001600160801b031602179055506113736001606461434f565b606c60106101000a8154816001600160801b030219169083600f0b6001600160801b031602179055506113a86008600a61434f565b606d8054600f9290920b6001600160801b03166001600160801b03199092169190911790556113d96003600161434f565b606d60106101000a8154816001600160801b030219169083600f0b6001600160801b0316021790555061140e6005600a61434f565b606e8054600f9290920b6001600160801b03166001600160801b03199092169190911790558015611445576000805461ff00191690555b505050505050565b61145860003361257a565b611495576040805162461bcd60e51b81526020600482015260096024820152682737ba1030b236b4b760b91b604482015290519081900360640190fd5b6114a4615a89620186a061434f565b606d8054600f9290920b6001600160801b03166001600160801b03199092169190911790556114d76101586103e861434f565b606c60106101000a8154816001600160801b030219169083600f0b6001600160801b03160217905550565b33600081815260726020526040812080549190559061152490600a83046146fe565b6067546079546040805163095ea7b360e01b81526101009092046001600160a01b03908116600484015260248301859052905192169163095ea7b3916044808201926020929091908290030181600087803b15801561158257600080fd5b505af1158015611596573d6000803e3d6000fd5b505050506040513d60208110156115ac57600080fd5b505060795460408051633347009160e11b81523360048201526024810184905290516101009092046001600160a01b03169163668e01229160448082019260009290919082900301818387803b15801561160557600080fd5b505af1158015611619573d6000803e3d6000fd5b5050505050565b600080600085841161163a5750829150600090508061165e565b85840393508484116116545750849150829050600061165e565b5050508190038282825b93509350939050565b6000818152603360205260409020600201545b919050565b6000828152603360205260409020600201546116a29061169d614793565b61257a565b6116dd5760405162461bcd60e51b815260040180806020018281038252602f81526020018061553e602f913960400191505060405180910390fd5b610e388282614797565b3360009081526072602052604090205490565b606654604080516370a0823160e01b8152336004820152905160609283926001600160a01b03909116916370a0823191602480820192602092909190829003018186803b15801561174a57600080fd5b505afa15801561175e573d6000803e3d6000fd5b505050506040513d602081101561177457600080fd5b505167ffffffffffffffff8111801561178c57600080fd5b506040519080825280602002602001820160405280156117b6578160200160208202803683370190505b50905060005b81518110156118645760665460408051632f745c5960e01b81523360048201526024810184905290516001600160a01b0390921691632f745c5991604480820192602092909190829003018186803b15801561181757600080fd5b505afa15801561182b573d6000803e3d6000fd5b505050506040513d602081101561184157600080fd5b5051825183908390811061185157fe5b60209081029190910101526001016117bc565b50905090565b606754604080516370a0823160e01b81526001600160a01b038481166004830152915160009392909216916370a0823191602480820192602092909190829003018186803b1580156118bb57600080fd5b505afa1580156118cf573d6000803e3d6000fd5b505050506040513d60208110156118e557600080fd5b50516118f0836123f5565b6001600160a01b03841660009081526075602052604090205401019050919050565b61191a614793565b6001600160a01b0316816001600160a01b0316146119695760405162461bcd60e51b815260040180806020018281038252602f8152602001806155ec602f913960400191505060405180910390fd5b610e388282614806565b606554604080516370a0823160e01b8152336004820152905160609283926001600160a01b03909116916370a0823191602480820192602092909190829003018186803b1580156119c357600080fd5b505afa1580156119d7573d6000803e3d6000fd5b505050506040513d60208110156119ed57600080fd5b505167ffffffffffffffff81118015611a0557600080fd5b50604051908082528060200260200182016040528015611a2f578160200160208202803683370190505b50905060005b81518110156118645760655460408051632f745c5960e01b81523360048201526024810184905290516001600160a01b0390921691632f745c5991604480820192602092909190829003018186803b158015611a9057600080fd5b505afa158015611aa4573d6000803e3d6000fd5b505050506040513d6020811015611aba57600080fd5b50518251839083908110611aca57fe5b6020908102919091010152600101611a35565b6213c68081565b604080516923a0a6a2afa0a226a4a760b11b8152905190819003600a019020611b0d903361257a565b611b4c576040805162461bcd60e51b815260206004820152601760248201526000805160206154fc833981519152604482015290519081900360640190fd5b606a55565b6000611b5c33614386565b905090565b606a54606554604080516370a0823160e01b815233600482015290516001600160a01b03909216916370a0823191602480820192602092909190829003018186803b158015611baf57600080fd5b505afa158015611bc3573d6000803e3d6000fd5b505050506040513d6020811015611bd957600080fd5b50511115611c2a576040805162461bcd60e51b8152602060048201526019602482015278151bdbc81b585b9e4818da185c9858dd195c9cc81bdddb9959603a1b604482015290519081900360640190fd5b606654604080516331a9108f60e11b8152600481018590529051849233926001600160a01b0390911691636352211e91602480820192602092909190829003018186803b158015611c7a57600080fd5b505afa158015611c8e573d6000803e3d6000fd5b505050506040513d6020811015611ca457600080fd5b50516001600160a01b031614611cf8576040805162461bcd60e51b81526020600482015260146024820152732737ba103a3432903bb2b0b837b71037bbb732b960611b604482015290519081900360640190fd5b606654604080516331a9108f60e11b8152600481018590529051849233926001600160a01b0390911691636352211e91602480820192602092909190829003018186803b158015611d4857600080fd5b505afa158015611d5c573d6000803e3d6000fd5b505050506040513d6020811015611d7257600080fd5b50516001600160a01b031614611dc6576040805162461bcd60e51b81526020600482015260146024820152732737ba103a3432903bb2b0b837b71037bbb732b960611b604482015290519081900360640190fd5b606e54600f0b6000611dd782612410565b3360009081526075602090815260408083205460729092528220549293509091611e02919084611620565b606754604080516370a0823160e01b815233600482015290519295508594506001600160a01b0390911692506370a08231916024808301926020929190829003018186803b158015611e5357600080fd5b505afa158015611e67573d6000803e3d6000fd5b505050506040513d6020811015611e7d57600080fd5b50511015611e8a83614875565b60405160200180807502737ba1032b737bab3b4102422a62610902732b2b2160551b81525060160182805190602001908083835b60208310611edd5780518252601f199092019160209182019101611ebe565b6001836020036101000a03801982511681845116808217855250505050505090500191505060405160208183030381529060405290611f9a5760405162461bcd60e51b81526004018080602001828103825283818151815260200191508051906020019080838360005b83811015611f5f578181015183820152602001611f47565b50505050905090810190601f168015611f8c5780820380516001836020036101000a031916815260200191505b509250505060405180910390fd5b50606e54611fac903390600f0b6145d5565b60665460408051639abcafef60e01b8152600481018a90526024810189905290516001600160a01b0390921691639abcafef9160448082019260009290919082900301818387803b15801561200057600080fd5b505af1158015612014573d6000803e3d6000fd5b5050505050505050505050565b6077546001600160a01b031681565b6120386154dd565b61204d612046888888612100565b858561494d565b90506000805b6004811015612090578363ffffffff1683826004811061206f57fe5b602002015163ffffffff16141561208857506001905060045b600101612053565b50806120d4576040805162461bcd60e51b815260206004820152600e60248201526d15185c99d95d081a5b9d985b1a5960921b604482015290519081900360640190fd5b5050505050505050565b604080516923a0a6a2afa0a226a4a760b11b8152905190819003600a01902081565b60006121328262ffffff166121268662ffffff1686600f0b61442190919063ffffffff16565b9063ffffffff6149e716565b949350505050565b6001600160a01b0382166000908152607560209081526040808320546072909252822054612169919084611620565b95945050505050565b604080516923a0a6a2afa0a226a4a760b11b8152905190819003600a01902061219b903361257a565b6121da576040805162461bcd60e51b815260206004820152601760248201526000805160206154fc833981519152604482015290519081900360640190fd5b6079805460ff191660ff92909216919091179055565b60715481565b604080516923a0a6a2afa0a226a4a760b11b8152905190819003600a01902061221f903361257a565b61225e576040805162461bcd60e51b815260206004820152601760248201526000805160206154fc833981519152604482015290519081900360640190fd5b606b805460ff191660ff92909216919091179055565b604080516923a0a6a2afa0a226a4a760b11b8152905190819003600a01902061229d903361257a565b6122dc576040805162461bcd60e51b815260206004820152601760248201526000805160206154fc833981519152604482015290519081900360640190fd5b6076546122ef908263ffffffff6149e716565b6076556001600160a01b03821660009081526075602052604090205461231b908263ffffffff6149e716565b6001600160a01b0380841660009081526075602090815260408083209490945560675484516323b872dd60e01b81523360048201523060248201526044810187905294519316936323b872dd9360648083019491928390030190829087803b15801561238657600080fd5b505af115801561239a573d6000803e3d6000fd5b505050506040513d60208110156123b057600080fd5b50506040805182815290516001600160a01b038416917f3443ca0a6a2d7fbb0e0c0612adb07cdcbde092e281a3dddc6ed66c14c00429cd919081900360200190a25050565b6001600160a01b031660009081526072602052604090205490565b60006124a0606860009054906101000a90046001600160a01b03166001600160a01b0316639d1b464a6040518163ffffffff1660e01b815260040160206040518083038186803b15801561246357600080fd5b505afa158015612477573d6000803e3d6000fd5b505050506040513d602081101561248d57600080fd5b5051600f84900b9063ffffffff61442116565b92915050565b607454600160801b9004600f0b81565b604080516923a0a6a2afa0a226a4a760b11b8152905190819003600a0190206124df903361257a565b61251e576040805162461bcd60e51b815260206004820152601760248201526000805160206154fc833981519152604482015290519081900360640190fd5b61252981606461434f565b606b60016101000a8154816001600160801b030219169083600f0b6001600160801b0316021790555050565b6000828152603360205260408120612573908363ffffffff614a4116565b9392505050565b6000828152603360205260408120612573908363ffffffff614a4d16565b60009081526073602052604090205490565b60756020526000908152604090205481565b6067546001600160a01b031681565b607454600090600f0b60ff80841690600885901c1681141561260b5760745461260890600f84810b91600160801b9004900b63ffffffff614a6216565b91505b61261e8160108662ffffff16901c613016565b1561264b5760745461264490600f84810b91600160801b9004900b63ffffffff614a6216565b9150612687565b61265e60108562ffffff16901c82613016565b156126875760745461268490600f84810b91600160801b9004900b63ffffffff614a9616565b91505b5092915050565b606a54606554604080516370a0823160e01b815233600482015290516001600160a01b03909216916370a0823191602480820192602092909190829003018186803b1580156126dc57600080fd5b505afa1580156126f0573d6000803e3d6000fd5b505050506040513d602081101561270657600080fd5b50511115612757576040805162461bcd60e51b8152602060048201526019602482015278151bdbc81b585b9e4818da185c9858dd195c9cc81bdddb9959603a1b604482015290519081900360640190fd5b3360008181526070602052604090205443116127ba576040805162461bcd60e51b815260206004820152601c60248201527f4f6e6c792063616c6c61626c65206f6e63652070657220626c6f636b00000000604482015290519081900360640190fd5b6001600160a01b0380821660009081526070602090815260409182902043905560655482516331a9108f60e11b815260048101899052925188943394921692636352211e9260248082019391829003018186803b15801561281a57600080fd5b505afa15801561282e573d6000803e3d6000fd5b505050506040513d602081101561284457600080fd5b50516001600160a01b0316146128a1576040805162461bcd60e51b815260206004820152601760248201527f4e6f742074686520636861726163746572206f776e6572000000000000000000604482015290519081900360640190fd5b606654604080516331a9108f60e11b8152600481018790529051869233926001600160a01b0390911691636352211e91602480820192602092909190829003018186803b1580156128f157600080fd5b505afa158015612905573d6000803e3d6000fd5b505050506040513d602081101561291b57600080fd5b50516001600160a01b03161461296f576040805162461bcd60e51b81526020600482015260146024820152732737ba103a3432903bb2b0b837b71037bbb732b960611b604482015290519081900360640190fd5b6079546066546040805163295e2cf560e11b815260048101899052905160ff909316926001600160a01b03909216916352bc59ea91602480820192602092909190829003018186803b1580156129c457600080fd5b505afa1580156129d8573d6000803e3d6000fd5b505050506040513d60208110156129ee57600080fd5b505160ff161015612a3f576040805162461bcd60e51b81526020600482015260166024820152754e6f7420656e6f756768206475726162696c6974792160501b604482015290519081900360640190fd5b606554606b5460408051632ee6accf60e01b8152600481018a905260ff90921660248301525160009283928392612ad1926001600160a01b031691632ee6accf91604480830192602092919082900301818887803b158015612aa057600080fd5b505af1158015612ab4573d6000803e3d6000fd5b505050506040513d6020811015612aca57600080fd5b5051612c88565b60665460408051631ab044f960e31b8152600481018e905260ff8616602482015290519497509295509093506000928392839283926001600160a01b039091169163d58227c8916044808301926080929190829003018186803b158015612b3757600080fd5b505afa158015612b4b573d6000803e3d6000fd5b505050506040513d6080811015612b6157600080fd5b81019080805190602001909291908051906020019092919080519060200190929190805190602001909291905050509350935093509350606660009054906101000a90046001600160a01b03166001600160a01b031663e07608868d607960009054906101000a900460ff166040518363ffffffff1660e01b8152600401808381526020018260ff1660ff16815260200192505050600060405180830381600087803b158015612c1057600080fd5b505af1158015612c24573d6000803e3d6000fd5b50505050612c35868584888f614ac9565b612c798d8d612c45898787612100565b60088f63ff0000001663ffffffff16901c60088660ff1662ffffff16901b8c60ff161762ffffff16178f62ffffff16614ade565b50505050505050505050505050565b60ff811691600882901c62ffffff169160201c67ffffffffffffffff1690565b606e54600f0b81565b600081565b612cc160003361257a565b612cfe576040805162461bcd60e51b81526020600482015260096024820152682737ba1030b236b4b760b91b604482015290519081900360640190fd5b607780546001600160a01b0319166001600160a01b0392909216919091179055565b607454600f0b81565b60765481565b604080516923a0a6a2afa0a226a4a760b11b8152905190819003600a019020612d58903361257a565b612d97576040805162461bcd60e51b815260206004820152601760248201526000805160206154fc833981519152604482015290519081900360640190fd5b610e388282614c91565b6000611b5c42610e1063ffffffff614ca316565b6066546001600160a01b031681565b612dcf60003361257a565b612e0c576040805162461bcd60e51b81526020600482015260096024820152682737ba1030b236b4b760b91b604482015290519081900360640190fd5b6020607155565b60005b606554604080516370a0823160e01b815233600482015290516001600160a01b03909216916370a0823191602480820192602092909190829003018186803b158015612e6157600080fd5b505afa158015612e75573d6000803e3d6000fd5b505050506040513d6020811015612e8b57600080fd5b5051811015612fb45760655460408051632f745c5960e01b81523360048201526024810184905290516000926001600160a01b031691632f745c59916044808301926020929190829003018186803b158015612ee657600080fd5b505afa158015612efa573d6000803e3d6000fd5b505050506040513d6020811015612f1057600080fd5b50516000818152607360205260408120805491905590915061ffff811115612f37575061ffff5b60655460408051630fc0057560e01b81526004810185905261ffff8416602482015290516001600160a01b0390921691630fc005759160448082019260009290919082900301818387803b158015612f8e57600080fd5b505af1158015612fa2573d6000803e3d6000fd5b505060019094019350612e1692505050565b50565b606c54600f0b81565b606d54600f0b81565b6069546001600160a01b031681565b606c54600160801b9004600f0b81565b60008181526033602052604081206124a090614d0a565b6065546001600160a01b031681565b62ffffff1690565b60008160ff1660048460010160ff168161302c57fe5b0660ff1614905092915050565b6000828152603360205260409020600201546130579061169d614793565b6119695760405162461bcd60e51b815260040180806020018281038252603081526020018061556d6030913960400191505060405180910390fd5b67266666666666666681565b6130a960003361257a565b6130e6576040805162461bcd60e51b81526020600482015260096024820152682737ba1030b236b4b760b91b604482015290519081900360640190fd5b607980546001600160a01b0390921661010002610100600160a81b0319909216919091179055565b604080516923a0a6a2afa0a226a4a760b11b8152905190819003600a019020613137903361257a565b613176576040805162461bcd60e51b815260206004820152601760248201526000805160206154fc833981519152604482015290519081900360640190fd5b607155565b606d54600160801b9004600f0b81565b61319660003361257a565b6131d3576040805162461bcd60e51b81526020600482015260096024820152682737ba1030b236b4b760b91b604482015290519081900360640190fd5b606980546001600160a01b0319166001600160a01b0392909216919091179055565b604080516923a0a6a2afa0a226a4a760b11b8152905190819003600a01902061321e903361257a565b61325d576040805162461bcd60e51b815260206004820152601760248201526000805160206154fc833981519152604482015290519081900360640190fd5b61326881606461434f565b606e8054600f9290920b6001600160801b03166001600160801b031990921691909117905550565b606a54606554604080516370a0823160e01b815233600482015290516001600160a01b03909216916370a0823191602480820192602092909190829003018186803b1580156132de57600080fd5b505afa1580156132f2573d6000803e3d6000fd5b505050506040513d602081101561330857600080fd5b50511115613359576040805162461bcd60e51b8152602060048201526019602482015278151bdbc81b585b9e4818da185c9858dd195c9cc81bdddb9959603a1b604482015290519081900360640190fd5b3360008181526070602052604090205443116133bc576040805162461bcd60e51b815260206004820152601c60248201527f4f6e6c792063616c6c61626c65206f6e63652070657220626c6f636b00000000604482015290519081900360640190fd5b6001600160a01b0381166000908152607060205260408120439055606d54600160801b9004600f0b906133ee82612410565b3360009081526075602090815260408083205460729092528220549293509091613419919084611620565b606754604080516370a0823160e01b815233600482015290519295508594506001600160a01b0390911692506370a08231916024808301926020929190829003018186803b15801561346a57600080fd5b505afa15801561347e573d6000803e3d6000fd5b505050506040513d602081101561349457600080fd5b505110156134a183614875565b60405160200180807502737ba1032b737bab3b4102422a62610902732b2b2160551b81525060160182805190602001908083835b602083106134f45780518252601f1990920191602091820191016134d5565b6001836020036101000a038019825116818451168082178552505050505050905001915050604051602081830303815290604052906135745760405162461bcd60e51b8152602060048201818152835160248401528351909283926044909101919085019080838360008315611f5f578181015183820152602001611f47565b50606d5461358d903390600160801b9004600f0b6145d5565b60695460408051630e20f61560e21b815233600482015290516000926001600160a01b031691633883d854916024808301926020929190829003018186803b1580156135d857600080fd5b505afa1580156135ec573d6000803e3d6000fd5b505050506040513d602081101561360257600080fd5b5051606654604080516340c10f1960e01b81523360048201526024810184905290519293506001600160a01b03909116916340c10f19916044808201926020929091908290030181600087803b15801561365b57600080fd5b505af115801561366f573d6000803e3d6000fd5b505050506040513d602081101561368557600080fd5b50505050505050565b604080516923a0a6a2afa0a226a4a760b11b8152905190819003600a0190206136b7903361257a565b6136f6576040805162461bcd60e51b815260206004820152601760248201526000805160206154fc833981519152604482015290519081900360640190fd5b610e3882826144e6565b61370b60003361257a565b613748576040805162461bcd60e51b81526020600482015260096024820152682737ba1030b236b4b760b91b604482015290519081900360640190fd5b6067546040805163a9059cbb60e01b81523360048201526024810184905290516001600160a01b039092169163a9059cbb916044808201926020929091908290030181600087803b15801561379c57600080fd5b505af11580156137b0573d6000803e3d6000fd5b505050506040513d60208110156137c657600080fd5b505050565b604080516923a0a6a2afa0a226a4a760b11b8152905190819003600a0190206137f4903361257a565b613833576040805162461bcd60e51b815260206004820152601760248201526000805160206154fc833981519152604482015290519081900360640190fd5b610e3882826146fe565b606a54606554604080516370a0823160e01b815233600482015290516001600160a01b03909216916370a0823191602480820192602092909190829003018186803b15801561388b57600080fd5b505afa15801561389f573d6000803e3d6000fd5b505050506040513d60208110156138b557600080fd5b50511115613906576040805162461bcd60e51b8152602060048201526019602482015278151bdbc81b585b9e4818da185c9858dd195c9cc81bdddb9959603a1b604482015290519081900360640190fd5b336000818152607060205260409020544311613969576040805162461bcd60e51b815260206004820152601c60248201527f4f6e6c792063616c6c61626c65206f6e63652070657220626c6f636b00000000604482015290519081900360640190fd5b6001600160a01b0381166000908152607060205260408120439055606b546101009004600f0b9061399982612410565b33600090815260756020908152604080832054607290925282205492935090916139c4919084611620565b606754604080516370a0823160e01b815233600482015290519295508594506001600160a01b0390911692506370a08231916024808301926020929190829003018186803b158015613a1557600080fd5b505afa158015613a29573d6000803e3d6000fd5b505050506040513d6020811015613a3f57600080fd5b50511015613a4c83614875565b60405160200180807502737ba1032b737bab3b4102422a62610902732b2b2160551b81525060160182805190602001908083835b60208310613a9f5780518252601f199092019160209182019101613a80565b6001836020036101000a03801982511681845116808217855250505050505090500191505060405160208183030381529060405290613b1f5760405162461bcd60e51b8152602060048201818152835160248401528351909283926044909101919085019080838360008315611f5f578181015183820152602001611f47565b50606a54606554604080516370a0823160e01b815233600482015290516001600160a01b03909216916370a0823191602480820192602092909190829003018186803b158015613b6e57600080fd5b505afa158015613b82573d6000803e3d6000fd5b505050506040513d6020811015613b9857600080fd5b5051606a54604080517102cb7ba9031b0b71037b7363c903430bb32960751b602082015260328101929092526b20636861726163746572732160a01b60528301528051603e818403018152605e90920190529111613c375760405162461bcd60e51b8152602060048201818152835160248401528351909283926044909101919085019080838360008315611f5f578181015183820152602001611f47565b50606b54613c4e9033906101009004600f0b6145d5565b60695460408051630e20f61560e21b815233600482015290516000926001600160a01b031691633883d854916024808301926020929190829003018186803b158015613c9957600080fd5b505afa158015613cad573d6000803e3d6000fd5b505050506040513d6020811015613cc357600080fd5b5051606554604080516340c10f1960e01b81523360048201526024810184905290519293506001600160a01b03909116916340c10f199160448082019260009290919082900301818387803b158015613d1b57600080fd5b505af1158015613d2f573d6000803e3d6000fd5b5050606654604080516370a0823160e01b815233600482015290516001600160a01b0390921693506370a082319250602480820192602092909190829003018186803b158015613d7e57600080fd5b505afa158015613d92573d6000803e3d6000fd5b505050506040513d6020811015613da857600080fd5b5051611619576066546001600160a01b031663e8d5fe4433826380aa68cd6000613dd3876064614d15565b6040518363ffffffff1660e01b8152600401808381526020018281526020019250505060206040518083038186803b158015613e0e57600080fd5b505afa158015613e22573d6000803e3d6000fd5b505050506040513d6020811015613e3857600080fd5b505160665460408051630f9a2d8160e21b815260048181015260c86024820152604481018890526065606482015290516001600160a01b0390921691633e68b60491608480820192602092909190829003018186803b158015613e9a57600080fd5b505afa158015613eae573d6000803e3d6000fd5b505050506040513d6020811015613ec457600080fd5b5051600080613ed4886066614d15565b604080516001600160e01b031960e08a901b1681526001600160a01b03909716600488015261ffff958616602488015293851660448701529184166064860152909216608484015260a48301919091525160c48083019260209291908290030181600087803b15801561365b57600080fd5b613f4e6154dd565b6066546065546040805163acb586df60e01b815260048101879052905160009384936001600160a01b039182169363d58227c89389939092169163acb586df91602480820192602092909190829003018186803b158015613fae57600080fd5b505afa158015613fc2573d6000803e3d6000fd5b505050506040513d6020811015613fd857600080fd5b5051604080516001600160e01b031960e086901b168152600481019390935260ff9091166024830152516044808301926080929190829003018186803b15801561402157600080fd5b505afa158015614035573d6000803e3d6000fd5b505050506040513d608081101561404b57600080fd5b508051604091820151606554835163017fe80960e01b8152600481018a90529351929550909350612169926140df926001600160a01b039092169163017fe80991602480820192602092909190829003018186803b1580156140ac57600080fd5b505afa1580156140c0573d6000803e3d6000fd5b505050506040513d60208110156140d657600080fd5b50518484612100565b60655460408051630153b1ff60e61b8152600481018a905290516001600160a01b03909216916354ec7fc091602480820192602092909190829003018186803b15801561412b57600080fd5b505afa15801561413f573d6000803e3d6000fd5b505050506040513d602081101561415557600080fd5b505161415f612da1565b61494d565b604080516923a0a6a2afa0a226a4a760b11b8152905190819003600a01902061418d903361257a565b6141cc576040805162461bcd60e51b815260206004820152601760248201526000805160206154fc833981519152604482015290519081900360640190fd5b6141d781606461434f565b606d60106101000a8154816001600160801b030219169083600f0b6001600160801b0316021790555050565b6068546001600160a01b031681565b6001600160a01b038216600090815260756020908152604080832054607290925282205482918291614245919086611620565b9250925092506142608360765461448990919063ffffffff16565b6076556001600160a01b03851660009081526075602052604090205461428c908463ffffffff61448916565b6001600160a01b0386166000908152607560209081526040808320939093556072905220546142c1908363ffffffff61448916565b6001600160a01b0380871660008181526072602090815260408083209590955560675485516323b872dd60e01b8152600481019490945230602485015260448401879052945194909316936323b872dd936064808501949193918390030190829087803b15801561365b57600080fd5b6000677fffffffffffffff82111561434857600080fd5b5060401b90565b60008161435b57600080fd5b60006143678484614d41565b905060016001607f1b036001600160801b038216111561257357600080fd5b6001600160a01b0381166000908152607860205260408120544210156143a857fe5b6001600160a01b0382166000908152607860205260408120546143d4906213c68063ffffffff6149e716565b905060006143e8824263ffffffff614e8b16565b9150506213c6808111156143f857fe5b6000614407826213c68061434f565b90506121696726666666666666668263ffffffff614eb116565b600081614430575060006124a0565b600083600f0b121561444157600080fd5b600f83900b6001600160801b038316810260401c90608084901c026001600160c01b0381111561447057600080fd5b60401b811981111561448157600080fd5b019392505050565b6000828211156144e0576040805162461bcd60e51b815260206004820152601e60248201527f536166654d6174683a207375627472616374696f6e206f766572666c6f770000604482015290519081900360640190fd5b50900390565b6067546040805163a9059cbb60e01b81526001600160a01b038581166004830152602482018590529151919092169163a9059cbb9160448083019260209291908290030181600087803b15801561453c57600080fd5b505af1158015614550573d6000803e3d6000fd5b505050506040513d602081101561456657600080fd5b50505050565b6065546040805163095ea7b360e01b81526001600160a01b038481166004830152602482018690529151919092169163095ea7b391604480830192600092919082900301818387803b1580156145c157600080fd5b505af1158015611445573d6000803e3d6000fd5b610e38826145e283612410565b614212565b6066546040805163095ea7b360e01b81526001600160a01b038481166004830152602482018690529151919092169163095ea7b391604480830192600092919082900301818387803b1580156145c157600080fd5b600061464730614ee7565b15905090565b600054610100900460ff1680614666575061466661463c565b80614674575060005460ff16155b6146af5760405162461bcd60e51b815260040180806020018281038252602e81526020018061559d602e913960400191505060405180910390fd5b600054610100900460ff161580156146da576000805460ff1961ff0019909116610100171660011790555b6146e2614eed565b6146ea614eed565b8015612fb4576000805461ff001916905550565b607654614711908263ffffffff6149e716565b6076556001600160a01b03821660009081526075602052604090205461473d908263ffffffff6149e716565b6001600160a01b038316600081815260756020908152604091829020939093558051848152905191927f3443ca0a6a2d7fbb0e0c0612adb07cdcbde092e281a3dddc6ed66c14c00429cd92918290030190a25050565b3390565b60008281526033602052604090206147b5908263ffffffff614f8d16565b15610e38576147c2614793565b6001600160a01b0316816001600160a01b0316837f2f8788117e7eff1d82e926ec794901d17c78024a50270940304540a733656f0d60405160405180910390a45050565b6000828152603360205260409020614824908263ffffffff614fa216565b15610e3857614831614793565b6001600160a01b0316816001600160a01b0316837ff6391f5c32d9c69d2a47ea670b442974b53935d1edc7fd64eb21e047a839171b60405160405180910390a45050565b60608161489a57506040805180820190915260018152600360fc1b602082015261167a565b8160005b81156148b257600101600a8204915061489e565b60608167ffffffffffffffff811180156148cb57600080fd5b506040519080825280601f01601f1916602001820160405280156148f6576020820181803683370190505b50905060001982015b851561494457600a860660300160f81b8282806001900393508151811061492257fe5b60200101906001600160f81b031916908160001a905350600a860495506148ff565b50949350505050565b6149556154dd565b600061497961496e8567ffffffffffffffff1685614d15565b8662ffffff16614d15565b90506149836154dd565b60005b60048110156149dd57600061499b8483614d15565b90506303000000601882901b166149b762ffffff8a1683614fb7565b178383600481106149c457fe5b63ffffffff909216602092909202015250600101614986565b5095945050505050565b600082820183811015612573576040805162461bcd60e51b815260206004820152601b60248201527f536166654d6174683a206164646974696f6e206f766572666c6f770000000000604482015290519081900360640190fd5b60006125738383614ffc565b6000612573836001600160a01b038416615060565b6000600f83810b9083900b0160016001607f1b03198112801590614a8d575060016001607f1b038113155b61257357600080fd5b6000600f82810b9084900b0360016001607f1b03198112801590614a8d575060016001607f1b0381131561257357600080fd5b61161985858585614ad8612da1565b86612030565b60695460408051630e20f61560e21b815233600482015290516000926001600160a01b031691633883d854916024808301926020929190829003018186803b158015614b2957600080fd5b505afa158015614b3d573d6000803e3d6000fd5b505050506040513d6020811015614b5357600080fd5b505190506000614b64858584615078565b90506000614b7c84614b77856001614d15565b615099565b90506000614b8a87866150aa565b90506000614b9f614b9a876150c6565b612410565b90508262ffffff168462ffffff161015614bba575060009050805b33600090815260726020526040902054158015614bd75750600081115b15614be557614be53361511a565b3360008181526072602090815260408083208054860190558d83526073825291829020805461ffff871690810190915582518d815262ffffff8b811663ff00000060088f901b161763ffffffff1693820193909352888316818501529187166060830152608082015260a0810184905290518c92917f7a58aac6530017822bf3210fccef7efa31f56277f19966bc887bfb11f40ca96d919081900360c00190a350505050505050505050565b610e3882614c9e83612410565b6144e6565b6000808211614cf9576040805162461bcd60e51b815260206004820152601a60248201527f536166654d6174683a206469766973696f6e206279207a65726f000000000000604482015290519081900360640190fd5b818381614d0257fe5b049392505050565b60006124a082615136565b604080516020808201949094528082019290925280518083038201815260609092019052805191012090565b600081614d4d57600080fd5b60006001600160c01b038411614d725782604085901b81614d6a57fe5b049050614e77565b60c084811c6401000000008110614d8b576020918201911c5b620100008110614d9d576010918201911c5b6101008110614dae576008918201911c5b60108110614dbe576004918201911c5b60048110614dce576002918201911c5b60028110614ddd576001820191505b60bf820360018603901c6001018260ff0387901b81614df857fe5b0492506001600160801b03831115614e0f57600080fd5b608085901c83026001600160801b038616840260c088901c604089901b82811015614e3b576001820391505b608084901b92900382811015614e52576001820391505b829003608084901c8214614e6257fe5b888181614e6b57fe5b04870196505050505050505b6001600160801b0381111561257357600080fd5b60008083831115614ea157506000905080614eaa565b50600190508183035b9250929050565b6000600f83810b9083900b0260401d60016001607f1b03198112801590614a8d575060016001607f1b0381131561257357600080fd5b3b151590565b600054610100900460ff1680614f065750614f0661463c565b80614f14575060005460ff16155b614f4f5760405162461bcd60e51b815260040180806020018281038252602e81526020018061559d602e913960400191505060405180910390fd5b600054610100900460ff161580156146ea576000805460ff1961ff0019909116610100171660011790558015612fb4576000805461ff001916905550565b6000612573836001600160a01b03841661513a565b6000612573836001600160a01b038416615184565b600080614fcb84600a63ffffffff614ca316565b9050612132614fec6000614fe684600263ffffffff61524a16565b866152a3565b612126868463ffffffff61448916565b8154600090821061503e5760405162461bcd60e51b815260040180806020018281038252602281526020018061551c6022913960400191505060405180910390fd5b82600001828154811061504d57fe5b9060005260206000200154905092915050565b60009081526001919091016020526040902054151590565b60008061508a8562ffffff1684614fb7565b90506121698161105d866125cb565b60006125738362ffffff1683614fb7565b600061257360715461105d8462ffffff168662ffffff1661434f565b60006124a06151046150e76150e28562ffffff166103e861434f565b61530d565b606c54600160801b9004600f90810b900b9063ffffffff614eb116565b606d54600f90810b900b9063ffffffff614a6216565b6001600160a01b03166000908152607860205260409020429055565b5490565b60006151468383615060565b61517c575081546001818101845560008481526020808220909301849055845484825282860190935260409020919091556124a0565b5060006124a0565b6000818152600183016020526040812054801561524057835460001980830191908101906000908790839081106151b757fe5b90600052602060002001549050808760000184815481106151d457fe5b60009182526020808320909101929092558281526001898101909252604090209084019055865487908061520457fe5b600190038181906000526020600020016000905590558660010160008781526020019081526020016000206000905560019450505050506124a0565b60009150506124a0565b600082615259575060006124a0565b8282028284828161526657fe5b04146125735760405162461bcd60e51b81526004018080602001828103825260218152602001806155cb6021913960400191505060405180910390fd5b6000806152bb6001612126868863ffffffff61448916565b60408051602080820187905282518083038201815291830190925280519101209091506000906152f1908363ffffffff61532f16565b9050615303818763ffffffff6149e716565b9695505050505050565b60008082600f0b121561531f57600080fd5b6124a0604083600f0b901b615396565b6000808211615385576040805162461bcd60e51b815260206004820152601860248201527f536166654d6174683a206d6f64756c6f206279207a65726f0000000000000000604482015290519081900360640190fd5b81838161538e57fe5b069392505050565b6000816153a55750600061167a565b816001600160801b82106153be5760809190911c9060401b5b6801000000000000000082106153d95760409190911c9060201b5b64010000000082106153f05760209190911c9060101b5b6201000082106154055760109190911c9060081b5b61010082106154195760089190911c9060041b5b6010821061542c5760049190911c9060021b5b600882106154385760011b5b600181858161544357fe5b048201901c9050600181858161545557fe5b048201901c9050600181858161546757fe5b048201901c9050600181858161547957fe5b048201901c9050600181858161548b57fe5b048201901c9050600181858161549d57fe5b048201901c905060018185816154af57fe5b048201901c905060008185816154c157fe5b0490508082106154d157806154d3565b815b935050505061167a565b6040518060800160405280600490602082028036833750919291505056fe4d697373696e672047414d455f41444d494e20726f6c65000000000000000000456e756d657261626c655365743a20696e646578206f7574206f6620626f756e6473416363657373436f6e74726f6c3a2073656e646572206d75737420626520616e2061646d696e20746f206772616e74416363657373436f6e74726f6c3a2073656e646572206d75737420626520616e2061646d696e20746f207265766f6b65496e697469616c697a61626c653a20636f6e747261637420697320616c726561647920696e697469616c697a6564536166654d6174683a206d756c7469706c69636174696f6e206f766572666c6f77416363657373436f6e74726f6c3a2063616e206f6e6c792072656e6f756e636520726f6c657320666f722073656c66a2646970667358221220d1353ee2710bea8480ffe9d617a31875d28ab1aace960d01432aba4fb417382664736f6c63430006050033",
  "immutableReferences": {},
  "source": "pragma solidity ^0.6.0;\n\nimport \"@openzeppelin/contracts-upgradeable/proxy/Initializable.sol\";\nimport \"@openzeppelin/contracts-upgradeable/access/AccessControlUpgradeable.sol\";\nimport \"../node_modules/@openzeppelin/contracts/math/SafeMath.sol\";\nimport \"../node_modules/abdk-libraries-solidity/ABDKMath64x64.sol\";\nimport \"../node_modules/@openzeppelin/contracts/token/ERC20/IERC20.sol\";\nimport \"./interfaces/IStakeFromGame.sol\";\nimport \"./interfaces/IRandoms.sol\";\nimport \"./interfaces/IPriceOracle.sol\";\nimport \"./characters.sol\";\nimport \"./Promos.sol\";\nimport \"./weapons.sol\";\nimport \"./util.sol\";\n\ncontract WTHell is Initializable, AccessControlUpgradeable {\n    using ABDKMath64x64 for int128;\n    using SafeMath for uint256;\n    using SafeMath for uint64;\n\n    bytes32 public constant GAME_ADMIN = keccak256(\"GAME_ADMIN\");\n\n    int128 public constant REWARDS_CLAIM_TAX_MAX = 2767011611056432742; // = ~0.15 = ~15%\n    uint256 public constant REWARDS_CLAIM_TAX_DURATION = 15 days;\n\n    Characters public characters;\n    Weapons public weapons;\n    IERC20 public hellToken;//0x154A9F9cbd3449AD22FDaE23044319D6eF2a1Fab;\n    IPriceOracle public priceOracleHellPerUsd;\n    IRandoms public randoms;\n\n    function initialize(IERC20 _hellToken, Characters _characters, Weapons _weapons, IPriceOracle _priceOracleHellPerUsd, IRandoms _randoms) public initializer {\n        __AccessControl_init();\n\n        _setupRole(DEFAULT_ADMIN_ROLE, msg.sender);\n        _setupRole(GAME_ADMIN, msg.sender);\n\n        hellToken = _hellToken;\n        characters = _characters;\n        weapons = _weapons;\n        priceOracleHellPerUsd = _priceOracleHellPerUsd;\n        randoms = _randoms;\n\n        characterLimit = 4;\n        staminaCostFight = 40;\n        durabilityCostFight = 1;\n        mintCharacterFee = ABDKMath64x64.divu(10, 1);//10 usd;\n        fightRewardBaseline = ABDKMath64x64.divu(1, 100);//0.01 usd;\n        fightRewardGasOffset = ABDKMath64x64.divu(8, 10);//0.8 usd;\n        mintWeaponFee = ABDKMath64x64.divu(3, 1);//3 usd;\n        reforgeWeaponFee = ABDKMath64x64.divu(5, 10);//0.5 usd;\n    }\n\n    function migrateTo_1ee400a() public {\n        require(hasRole(DEFAULT_ADMIN_ROLE, msg.sender), \"Not admin\");\n\n        fightXpGain = 32;\n    }\n\n    function migrateTo_aa9da90() public {\n        require(hasRole(DEFAULT_ADMIN_ROLE, msg.sender), \"Not admin\");\n\n        oneFrac = ABDKMath64x64.fromUInt(1);\n        fightTraitBonus = ABDKMath64x64.divu(75, 1000);\n    }\n\n    function migrateTo_ef994e2(Promos _promos) public {\n        require(hasRole(DEFAULT_ADMIN_ROLE, msg.sender), \"Not admin\");\n\n        promos = _promos;\n    }\n\n    function migrateTo_23b3a8b(IStakeFromGame _stakeFromGame) external {\n        require(hasRole(DEFAULT_ADMIN_ROLE, msg.sender), \"Not admin\");\n\n        stakeFromGameImpl = _stakeFromGame;\n    }\n\n    function migrateTo_7dd2a56() external {\n        require(hasRole(DEFAULT_ADMIN_ROLE, msg.sender), \"Not admin\");\n\n        // numbers given for the curves were $4.3-aligned so they need to be multiplied\n        // additional accuracy may be in order for the setter functions for these\n        fightRewardGasOffset = ABDKMath64x64.divu(23177, 100000); // 0.0539 x 4.3\n        fightRewardBaseline = ABDKMath64x64.divu(344, 1000); // 0.08 x 4.3\n    }\n\n    // config vars\n    uint characterLimit;\n    uint8 staminaCostFight;\n\n    // prices & payouts are in USD, with 4 decimals of accuracy in 64.64 fixed point format\n    int128 public mintCharacterFee;\n    //int128 public rerollTraitFee;\n    //int128 public rerollCosmeticsFee;\n    int128 public refillStaminaFee;\n    // lvl 1 player power could be anywhere between ~909 to 1666\n    // cents per fight multiplied by monster power divided by 1000 (lv1 power)\n    int128 public fightRewardBaseline;\n    int128 public fightRewardGasOffset;\n\n    int128 public mintWeaponFee;\n    int128 public reforgeWeaponFee;\n\n    uint256 nonce;\n\n    mapping(address => uint256) lastBlockNumberCalled;\n\n    uint256 public fightXpGain; // multiplied based on power differences\n\n    mapping(address => uint256) tokenRewards; // user adress : hell wei\n    mapping(uint256 => uint256) xpRewards; // character id : xp\n\n    int128 public oneFrac; // 1.0\n    int128 public fightTraitBonus; // 7.5%\n\n    mapping(address => uint256) public inGameOnlyFunds;\n    uint256 public totalInGameOnlyFunds;\n\n    Promos public promos;\n\n    mapping(address => uint256) private _rewardsClaimTaxTimerStart;\n\n    uint8 durabilityCostFight;\n\n    IStakeFromGame public stakeFromGameImpl;\n\n    event FightOutcome(address indexed owner, uint256 indexed character, uint256 weapon, uint32 target, uint24 playerRoll, uint24 enemyRoll, uint16 xpGain, uint256 hellGain);\n    event InGameOnlyFundsGiven(address indexed to, uint256 hellAmount);\n\n    function recoverHell(uint256 amount) public {\n        require(hasRole(DEFAULT_ADMIN_ROLE, msg.sender), \"Not admin\");\n\n        hellToken.transfer(msg.sender, amount);\n    }\n\n    function getHellToSubtract(uint256 _inGameOnlyFunds, uint256 _tokenRewards, uint256 _hellNeeded)\n        public\n        pure\n        returns (uint256 fromInGameOnlyFunds, uint256 fromTokenRewards, uint256 fromUserWallet) {\n\n        if(_hellNeeded <= _inGameOnlyFunds) {\n            return (_hellNeeded, 0, 0);\n        }\n\n        _hellNeeded -= _inGameOnlyFunds;\n\n        if(_hellNeeded <= _tokenRewards) {\n            return (_inGameOnlyFunds, _hellNeeded, 0);\n        }\n\n        _hellNeeded -= _tokenRewards;\n\n        return (_inGameOnlyFunds, _tokenRewards, _hellNeeded);\n    }\n\n    function getHellNeededFromUserWallet(address playerAddress, uint256 hellNeeded)\n        public\n        view\n        returns (uint256 hellNeededFromUserWallet) {\n\n        (,, hellNeededFromUserWallet) = getHellToSubtract(\n            inGameOnlyFunds[playerAddress],\n            tokenRewards[playerAddress],\n            hellNeeded\n        );\n    }\n\n    function getMyCharacters() public view returns(uint256[] memory) {\n        uint256[] memory tokens = new uint256[](characters.balanceOf(msg.sender));\n        for(uint256 i = 0; i < tokens.length; i++) {\n            tokens[i] = characters.tokenOfOwnerByIndex(msg.sender, i);\n        }\n        return tokens;\n    }\n\n    function getMyWeapons() public view returns(uint256[] memory) {\n        uint256[] memory tokens = new uint256[](weapons.balanceOf(msg.sender));\n        for(uint256 i = 0; i < tokens.length; i++) {\n            tokens[i] = weapons.tokenOfOwnerByIndex(msg.sender, i);\n        }\n        return tokens;\n    }\n\n    function unpackFightData(uint96 playerData)\n        public pure returns (uint8 charTrait, uint24 basePowerLevel, uint64 timestamp) {\n\n        charTrait = uint8(playerData & 0xFF);\n        basePowerLevel = uint24((playerData >> 8) & 0xFFFFFF);\n        timestamp = uint64((playerData >> 32) & 0xFFFFFFFFFFFFFFFF);\n    }\n\n    function fight(uint256 char, uint256 wep, uint32 target) external\n            doesNotHaveMoreThanMaxCharacters\n            oncePerBlock(msg.sender)\n            isCharacterOwner(char)\n            isWeaponOwner(wep) {\n        require(weapons.getDurabilityPoints(wep) >= durabilityCostFight, \"Not enough durability!\");\n\n        (uint8 charTrait, uint24 basePowerLevel, uint64 timestamp) =\n            unpackFightData(characters.getFightDataAndDrainStamina(char, staminaCostFight));\n\n        (int128 weaponMultTarget,\n            int128 weaponMultFight,\n            uint24 weaponBonusPower,\n            uint8 weaponTrait) = weapons.getFightData(wep, charTrait);\n\n        weapons.drainDurability(wep, durabilityCostFight);\n\n        _verifyFight(\n            basePowerLevel,\n            weaponMultTarget,\n            weaponBonusPower,\n            timestamp,\n            target\n        );\n        performFight(\n            char,\n            wep,\n            getPlayerPower(basePowerLevel, weaponMultFight, weaponBonusPower),\n            uint24(charTrait | (uint24(weaponTrait) << 8) | (target & 0xFF000000) >> 8),\n            uint24(target & 0xFFFFFF)\n        );\n    }\n\n    function _verifyFight(\n        uint24 basePowerLevel,\n        int128 weaponMultTarget,\n        uint24 weaponBonusPower,\n        uint64 timestamp,\n        uint32 target\n    ) internal view {\n        verifyFight(\n            basePowerLevel,\n            weaponMultTarget,\n            weaponBonusPower,\n            timestamp,\n            getCurrentHour(),\n            target\n        );\n    }\n\n    function verifyFight(\n        uint24 playerBasePower,\n        int128 wepMultiplier,\n        uint24 wepBonusPower,\n        uint64 staminaTimestamp,\n        uint256 hour,\n        uint32 target\n    ) public pure {\n\n        uint32[4] memory targets = getTargetsInternal(\n            getPlayerPower(playerBasePower, wepMultiplier, wepBonusPower),\n            staminaTimestamp,\n            hour\n        );\n        bool foundMatch = false;\n        for(uint i = 0; i < targets.length; i++) {\n            if(targets[i] == target) {\n                foundMatch = true;\n                i = targets.length;\n            }\n        }\n        require(foundMatch, \"Target invalid\");\n    }\n\n    function performFight(\n        uint256 char,\n        uint256 wep,\n        uint24 playerFightPower,\n        uint24 traitsCWE, // could fit into uint8 since each trait is only stored on 2 bits (TODO)\n        uint24 targetPower\n    ) private {\n        uint256 seed = randoms.getRandomSeed(msg.sender);\n        uint24 playerRoll = getPlayerPowerRoll(playerFightPower,traitsCWE,seed);\n        uint24 monsterRoll = getMonsterPowerRoll(targetPower, RandomUtil.combineSeeds(seed,1));\n\n        uint16 xp = getXpGainForFight(playerFightPower, targetPower);\n        uint256 tokens = usdToHell(getTokenGainForFight(targetPower));\n\n        if(playerRoll < monsterRoll) {\n            tokens = 0;\n            xp = 0;\n        }\n\n        if(tokenRewards[msg.sender] == 0 && tokens > 0) {\n            _startRewardsClaimTaxTimer(msg.sender);\n        }\n\n        // this may seem dumb but we want to avoid guessing the outcome based on gas estimates!\n        tokenRewards[msg.sender] += tokens;\n        xpRewards[char] += xp;\n\n        emit FightOutcome(msg.sender, char, wep, (targetPower | ((uint32(traitsCWE) << 8) & 0xFF000000)), playerRoll, monsterRoll, xp, tokens);\n    }\n\n    function getMonsterPower(uint32 target) public pure returns (uint24) {\n        return uint24(target & 0xFFFFFF);\n    }\n\n    function getTokenGainForFight(uint24 monsterPower) internal view returns (int128) {\n        return fightRewardGasOffset.add(\n            fightRewardBaseline.mul(\n                ABDKMath64x64.sqrt(\n                    // Performance optimization: 1000 = getPowerAtLevel(0)\n                    ABDKMath64x64.divu(monsterPower, 1000)\n                )\n            )\n        );\n    }\n\n    function getXpGainForFight(uint24 playerPower, uint24 monsterPower) internal view returns (uint16) {\n        return uint16(ABDKMath64x64.divu(monsterPower, playerPower).mulu(fightXpGain));\n    }\n\n    function getPlayerPowerRoll(\n        uint24 playerFightPower,\n        uint24 traitsCWE,\n        uint256 seed\n    ) internal view returns(uint24) {\n\n        uint256 playerPower = RandomUtil.plusMinus10PercentSeeded(playerFightPower,seed);\n        return uint24(getPlayerTraitBonusAgainst(traitsCWE).mulu(playerPower));\n    }\n\n    function getMonsterPowerRoll(uint24 monsterPower, uint256 seed) internal pure returns(uint24) {\n        // roll for fights\n        return uint24(RandomUtil.plusMinus10PercentSeeded(monsterPower, seed));\n    }\n\n    function getPlayerPower(\n        uint24 basePower,\n        int128 weaponMultiplier,\n        uint24 bonusPower\n    ) public pure returns(uint24) {\n        return uint24(weaponMultiplier.mulu(basePower).add(bonusPower));\n    }\n\n    function getPlayerTraitBonusAgainst(uint24 traitsCWE) public view returns (int128) {\n        int128 traitBonus = oneFrac;\n        uint8 characterTrait = uint8(traitsCWE & 0xFF);\n        if(characterTrait == (traitsCWE >> 8) & 0xFF/*wepTrait*/) {\n            traitBonus = traitBonus.add(fightTraitBonus);\n        }\n        if(isTraitEffectiveAgainst(characterTrait, uint8(traitsCWE >> 16)/*enemy*/)) {\n            traitBonus = traitBonus.add(fightTraitBonus);\n        }\n        else if(isTraitEffectiveAgainst(uint8(traitsCWE >> 16)/*enemy*/, characterTrait)) {\n            traitBonus = traitBonus.sub(fightTraitBonus);\n        }\n        return traitBonus;\n    }\n\n    function getTargets(uint256 char, uint256 wep) public view returns (uint32[4] memory) {\n        (int128 weaponMultTarget,,\n            uint24 weaponBonusPower,\n            ) = weapons.getFightData(wep, characters.getTrait(char));\n\n        return getTargetsInternal(\n            getPlayerPower(characters.getPower(char), weaponMultTarget, weaponBonusPower),\n            characters.getStaminaTimestamp(char),\n            getCurrentHour()\n        );\n    }\n\n    function getTargetsInternal(uint24 playerPower,\n        uint64 staminaTimestamp,\n        uint256 currentHour\n    ) private pure returns (uint32[4] memory) {\n        // 4 targets, roll powers based on character + weapon power\n        // trait bonuses not accounted for\n        // targets expire on the hour\n\n        uint256 baseSeed = RandomUtil.combineSeeds(\n            RandomUtil.combineSeeds(staminaTimestamp,\n            currentHour),\n            playerPower\n        );\n\n        uint32[4] memory targets;\n        for(uint i = 0; i < targets.length; i++) {\n            // we alter seed per-index or they would be all the same\n            uint256 indexSeed = RandomUtil.combineSeeds(baseSeed, i);\n            targets[i] = uint32(\n                RandomUtil.plusMinus10PercentSeeded(playerPower, indexSeed) // power\n                | (uint32(indexSeed % 4) << 24) // trait\n            );\n        }\n\n        return targets;\n    }\n\n    function isTraitEffectiveAgainst(uint8 attacker, uint8 defender) public pure returns (bool) {\n        return (((attacker + 1) % 4) == defender); // Thanks to Tourist\n    }\n\n    function mintCharacter() public doesNotHaveMoreThanMaxCharacters oncePerBlock(msg.sender) requestPayFromPlayer(mintCharacterFee) {\n        require(characters.balanceOf(msg.sender) < characterLimit,\n            string(abi.encodePacked(\"You can only have \",characterLimit,\" characters!\")));\n        _payContract(msg.sender, mintCharacterFee);\n\n        uint256 seed = randoms.getRandomSeed(msg.sender);\n        characters.mint(msg.sender, seed);\n\n        // first weapon free with a character mint, max 1 star\n        if(weapons.balanceOf(msg.sender) == 0) {\n            weapons.performMintWeapon(msg.sender,\n                weapons.getRandomProperties(0, RandomUtil.combineSeeds(seed,100)),\n                weapons.getRandomStat(4, 200, seed, 101),\n                0, // stat2\n                0, // stat3\n                RandomUtil.combineSeeds(seed,102)\n            );\n        }\n    }\n\n    function mintWeapon() public doesNotHaveMoreThanMaxCharacters oncePerBlock(msg.sender) requestPayFromPlayer(mintWeaponFee) {\n        _payContract(msg.sender, mintWeaponFee);\n\n        uint256 seed = randoms.getRandomSeed(msg.sender);\n        weapons.mint(msg.sender, seed);\n    }\n\n    function reforgeWeapon(uint256 reforgeID, uint256 burnID) public\n            doesNotHaveMoreThanMaxCharacters\n            isWeaponOwner(reforgeID) isWeaponOwner(burnID) requestPayFromPlayer(reforgeWeaponFee) {\n        _payContract(msg.sender, reforgeWeaponFee);\n        weapons.reforge(reforgeID, burnID);\n    }\n\n    function migrateRandoms(IRandoms _newRandoms) external {\n        require(hasRole(DEFAULT_ADMIN_ROLE, msg.sender), \"Not admin\");\n        randoms = _newRandoms;\n    }\n\n    modifier restricted() {\n        require(hasRole(GAME_ADMIN, msg.sender), \"Missing GAME_ADMIN role\");\n        _;\n    }\n\n    modifier oncePerBlock(address user) {\n        require(lastBlockNumberCalled[user] < block.number, \"Only callable once per block\");\n        lastBlockNumberCalled[user] = block.number;\n        _;\n    }\n\n    modifier isWeaponOwner(uint256 weapon) {\n        require(weapons.ownerOf(weapon) == msg.sender, \"Not the weapon owner\");\n        _;\n    }\n\n    modifier isCharacterOwner(uint256 character) {\n        require(characters.ownerOf(character) == msg.sender, \"Not the character owner\");\n        _;\n    }\n\n    modifier doesNotHaveMoreThanMaxCharacters() {\n        require(characters.balanceOf(msg.sender) <= characterLimit, \"Too many characters owned\");\n        _;\n    }\n\n    modifier isTargetValid(uint256 character, uint256 weapon, uint32 target) {\n        bool foundMatch = false;\n        uint32[4] memory targets = getTargets(character, weapon);\n        for(uint i = 0; i < targets.length; i++) {\n            if(targets[i] == target) {\n                foundMatch = true;\n            }\n        }\n        require(foundMatch, \"Target invalid\");\n        _;\n    }\n\n    modifier requestPayFromPlayer(int128 usdAmount) {\n        uint256 hellAmount = usdToHell(usdAmount);\n\n        (,, uint256 fromUserWallet) =\n            getHellToSubtract(\n                inGameOnlyFunds[msg.sender],\n                tokenRewards[msg.sender],\n                hellAmount\n            );\n\n        require(hellToken.balanceOf(msg.sender) >= fromUserWallet,\n            string(abi.encodePacked(\"Not enough HELL! Need \",RandomUtil.uint2str(hellAmount))));\n        _;\n    }\n\n    function payContract(address playerAddress, int128 usdAmount) public restricted {\n        _payContract(playerAddress, usdAmount);\n    }\n\n    function payContractConverted(address playerAddress, uint256 convertedAmount) public restricted {\n        _payContractConverted(playerAddress, convertedAmount);\n    }\n\n    function payPlayer(address playerAddress, int128 baseAmount) public restricted {\n        _payPlayer(playerAddress, baseAmount);\n    }\n\n    function payPlayerConverted(address playerAddress, uint256 convertedAmount) public restricted {\n        _payPlayerConverted(playerAddress, convertedAmount);\n    }\n\n    function approveContractCharacterFor(uint256 characterID, address playerAddress) public restricted {\n        _approveContractCharacterFor(characterID, playerAddress);\n    }\n\n    function approveContractWeaponFor(uint256 weaponID, address playerAddress) public restricted {\n        _approveContractWeaponFor(weaponID, playerAddress);\n    }\n\n    function _payContract(address playerAddress, int128 usdAmount) internal {\n        _payContractConverted(playerAddress, usdToHell(usdAmount));\n    }\n\n    function _payContractConverted(address playerAddress, uint256 convertedAmount) internal {\n\n        (uint256 fromInGameOnlyFunds, uint256 fromTokenRewards, uint256 fromUserWallet) =\n            getHellToSubtract(\n                inGameOnlyFunds[playerAddress],\n                tokenRewards[playerAddress],\n                convertedAmount\n            );\n\n        // must use requestPayFromPlayer modifier to approve on the initial function!\n        totalInGameOnlyFunds = totalInGameOnlyFunds.sub(fromInGameOnlyFunds);\n        inGameOnlyFunds[playerAddress] = inGameOnlyFunds[playerAddress].sub(fromInGameOnlyFunds);\n\n        tokenRewards[playerAddress] = tokenRewards[playerAddress].sub(fromTokenRewards);\n        hellToken.transferFrom(playerAddress, address(this), fromUserWallet);\n    }\n\n    function _payPlayer(address playerAddress, int128 baseAmount) internal {\n        _payPlayerConverted(playerAddress, usdToHell(baseAmount));\n    }\n\n    function _payPlayerConverted(address playerAddress, uint256 convertedAmount) internal {\n        hellToken.transfer(playerAddress, convertedAmount);\n    }\n\n    function _approveContractCharacterFor(uint256 characterID, address playerAddress) internal {\n        characters.approve(playerAddress, characterID);\n    }\n\n    function _approveContractWeaponFor(uint256 weaponID, address playerAddress) internal {\n        weapons.approve(playerAddress, weaponID);\n    }\n\n    function setCharacterMintValue(uint256 cents) public restricted {\n        mintCharacterFee = ABDKMath64x64.divu(cents, 100);\n    }\n\n    function setFightRewardBaselineValue(uint256 tenthcents) public restricted {\n        fightRewardBaseline = ABDKMath64x64.divu(tenthcents, 1000); // !!! THIS TAKES TENTH OF CENTS !!!\n    }\n\n    function setFightRewardGasOffsetValue(uint256 cents) public restricted {\n        fightRewardGasOffset = ABDKMath64x64.divu(cents, 100);\n    }\n\n    function setWeaponMintValue(uint256 cents) public restricted {\n        mintWeaponFee = ABDKMath64x64.divu(cents, 100);\n    }\n\n    function setReforgeWeaponValue(uint256 cents) public restricted {\n        reforgeWeaponFee = ABDKMath64x64.divu(cents, 100);\n    }\n\n    function setStaminaCostFight(uint8 points) public restricted {\n        staminaCostFight = points;\n    }\n\n    function setDurabilityCostFight(uint8 points) public restricted {\n        durabilityCostFight = points;\n    }\n\n    function setFightXpGain(uint256 average) public restricted {\n        fightXpGain = average;\n    }\n\n    function setCharacterLimit(uint256 max) public restricted {\n        characterLimit = max;\n    }\n\n    function giveInGameOnlyFunds(address to, uint256 hellAmount) external restricted {\n        totalInGameOnlyFunds = totalInGameOnlyFunds.add(hellAmount);\n        inGameOnlyFunds[to] = inGameOnlyFunds[to].add(hellAmount);\n\n        hellToken.transferFrom(msg.sender, address(this), hellAmount);\n\n        emit InGameOnlyFundsGiven(to, hellAmount);\n    }\n\n    function _giveInGameOnlyFundsFromContractBalance(address to, uint256 hellAmount) internal {\n        totalInGameOnlyFunds = totalInGameOnlyFunds.add(hellAmount);\n        inGameOnlyFunds[to] = inGameOnlyFunds[to].add(hellAmount);\n\n        emit InGameOnlyFundsGiven(to, hellAmount);\n    }\n\n    function giveInGameOnlyFundsFromContractBalance(address to, uint256 hellAmount) external restricted {\n        _giveInGameOnlyFundsFromContractBalance(to, hellAmount);\n    }\n\n    function usdToHell(int128 usdAmount) public view returns (uint256) {\n        return usdAmount.mulu(priceOracleHellPerUsd.currentPrice());\n    }\n\n    function getCurrentHour() public view returns (uint256) {\n        // \"now\" returns unix time since 1970 Jan 1, in seconds\n        return now.div(1 hours);\n    }\n\n    function claimTokenRewards() public {\n        // our characters go to the tavern\n        // and the barkeep pays them for the bounties\n        uint256 _tokenRewards = tokenRewards[msg.sender];\n        tokenRewards[msg.sender] = 0;\n\n        uint256 _tokenRewardsToPayOut = _tokenRewards.sub(\n            _getRewardsClaimTax(msg.sender).mulu(_tokenRewards)\n        );\n\n        // Tax goes to game contract itself, which would mean\n        // transferring from the game contract to ...itself.\n        // So we don't need to do anything with the tax part of the rewards.\n\n        _payPlayerConverted(msg.sender, _tokenRewardsToPayOut);\n    }\n\n    function stakeUnclaimedRewards() external {\n        uint256 _tokenRewards = tokenRewards[msg.sender];\n        tokenRewards[msg.sender] = 0;\n\n        _giveInGameOnlyFundsFromContractBalance(msg.sender, _tokenRewards / 10);\n\n        hellToken.approve(address(stakeFromGameImpl), _tokenRewards);\n        stakeFromGameImpl.stakeFromGame(msg.sender, _tokenRewards);\n    }\n\n    function claimXpRewards() public {\n        // our characters go to the tavern to rest\n        // they meditate on what they've learned\n        for(uint256 i = 0; i < characters.balanceOf(msg.sender); i++) {\n            uint256 char = characters.tokenOfOwnerByIndex(msg.sender, i);\n            uint256 xpRewardsToClaim = xpRewards[char];\n            xpRewards[char] = 0;\n            if (xpRewardsToClaim > 65535) {\n                xpRewardsToClaim = 65535;\n            }\n            characters.gainXp(char, uint16(xpRewardsToClaim));\n        }\n    }\n\n    function getTokenRewards() public view returns (uint256) {\n        return tokenRewards[msg.sender];\n    }\n\n    function getXpRewards(uint256 char) public view returns (uint256) {\n        return xpRewards[char];\n    }\n\n    function getTokenRewardsFor(address wallet) public view returns (uint256) {\n        return tokenRewards[wallet];\n    }\n\n    function getTotalHellOwnedBy(address wallet) public view returns (uint256) {\n        return inGameOnlyFunds[wallet] + getTokenRewardsFor(wallet) + hellToken.balanceOf(wallet);\n    }\n\n    function _getRewardsClaimTax(address playerAddress) internal view returns (int128) {\n        assert(_rewardsClaimTaxTimerStart[playerAddress] <= block.timestamp);\n\n        uint256 rewardsClaimTaxTimerEnd = _rewardsClaimTaxTimerStart[playerAddress].add(REWARDS_CLAIM_TAX_DURATION);\n\n        (, uint256 durationUntilNoTax) = rewardsClaimTaxTimerEnd.trySub(block.timestamp);\n\n        assert(0 <= durationUntilNoTax && durationUntilNoTax <= REWARDS_CLAIM_TAX_DURATION);\n\n        int128 frac = ABDKMath64x64.divu(durationUntilNoTax, REWARDS_CLAIM_TAX_DURATION);\n\n        return REWARDS_CLAIM_TAX_MAX.mul(frac);\n    }\n\n    function getOwnRewardsClaimTax() public view returns (int128) {\n        return _getRewardsClaimTax(msg.sender);\n    }\n\n    function _startRewardsClaimTaxTimer(address playerAddress) internal {\n        _rewardsClaimTaxTimerStart[playerAddress] = block.timestamp;\n    }\n\n}",
  "sourcePath": "C:\\Users\\Asus\\Desktop\\PROJECT\\hell_meter\\contracts\\wthell.sol",
  "compiler": {
    "name": "solc",
    "version": "0.6.5+commit.f956cc89.Emscripten.clang"
  },
  "schemaVersion": "3.3.4",
  "updatedAt": "2022-08-10T23:32:52.823Z",
  "networkType": "ethereum",
  "devdoc": {
    "methods": {
      "getRoleAdmin(bytes32)": {
        "details": "Returns the admin role that controls `role`. See {grantRole} and {revokeRole}.     * To change a role's admin, use {_setRoleAdmin}."
      },
      "getRoleMember(bytes32,uint256)": {
        "details": "Returns one of the accounts that have `role`. `index` must be a value between 0 and {getRoleMemberCount}, non-inclusive.     * Role bearers are not sorted in any particular way, and their ordering may change at any point.     * WARNING: When using {getRoleMember} and {getRoleMemberCount}, make sure you perform all queries on the same block. See the following https://forum.openzeppelin.com/t/iterating-over-elements-on-enumerableset-in-openzeppelin-contracts/2296[forum post] for more information."
      },
      "getRoleMemberCount(bytes32)": {
        "details": "Returns the number of accounts that have `role`. Can be used together with {getRoleMember} to enumerate all bearers of a role."
      },
      "grantRole(bytes32,address)": {
        "details": "Grants `role` to `account`.     * If `account` had not been already granted `role`, emits a {RoleGranted} event.     * Requirements:     * - the caller must have ``role``'s admin role."
      },
      "hasRole(bytes32,address)": {
        "details": "Returns `true` if `account` has been granted `role`."
      },
      "renounceRole(bytes32,address)": {
        "details": "Revokes `role` from the calling account.     * Roles are often managed via {grantRole} and {revokeRole}: this function's purpose is to provide a mechanism for accounts to lose their privileges if they are compromised (such as when a trusted device is misplaced).     * If the calling account had been granted `role`, emits a {RoleRevoked} event.     * Requirements:     * - the caller must be `account`."
      },
      "revokeRole(bytes32,address)": {
        "details": "Revokes `role` from `account`.     * If `account` had been granted `role`, emits a {RoleRevoked} event.     * Requirements:     * - the caller must have ``role``'s admin role."
      }
    }
  },
  "userdoc": {
    "methods": {}
  }
}