{
  "contractName": "StakingRewards",
  "abi": [
    {
      "inputs": [
        {
          "internalType": "address",
          "name": "_owner",
          "type": "address"
        },
        {
          "internalType": "address",
          "name": "_rewardsDistribution",
          "type": "address"
        },
        {
          "internalType": "address",
          "name": "_rewardsToken",
          "type": "address"
        },
        {
          "internalType": "address",
          "name": "_stakingToken",
          "type": "address"
        },
        {
          "internalType": "uint256",
          "name": "_minimumStakeTime",
          "type": "uint256"
        }
      ],
      "stateMutability": "nonpayable",
      "type": "constructor"
    },
    {
      "anonymous": false,
      "inputs": [],
      "name": "FailsafeModeEnabled",
      "type": "event"
    },
    {
      "anonymous": false,
      "inputs": [
        {
          "indexed": false,
          "internalType": "uint256",
          "name": "newMinimumStakeTime",
          "type": "uint256"
        }
      ],
      "name": "MinimumStakeTimeUpdated",
      "type": "event"
    },
    {
      "anonymous": false,
      "inputs": [
        {
          "indexed": false,
          "internalType": "address",
          "name": "oldOwner",
          "type": "address"
        },
        {
          "indexed": false,
          "internalType": "address",
          "name": "newOwner",
          "type": "address"
        }
      ],
      "name": "OwnerChanged",
      "type": "event"
    },
    {
      "anonymous": false,
      "inputs": [
        {
          "indexed": false,
          "internalType": "address",
          "name": "newOwner",
          "type": "address"
        }
      ],
      "name": "OwnerNominated",
      "type": "event"
    },
    {
      "anonymous": false,
      "inputs": [
        {
          "indexed": false,
          "internalType": "bool",
          "name": "isPaused",
          "type": "bool"
        }
      ],
      "name": "PauseChanged",
      "type": "event"
    },
    {
      "anonymous": false,
      "inputs": [
        {
          "indexed": false,
          "internalType": "address",
          "name": "token",
          "type": "address"
        },
        {
          "indexed": false,
          "internalType": "uint256",
          "name": "amount",
          "type": "uint256"
        }
      ],
      "name": "Recovered",
      "type": "event"
    },
    {
      "anonymous": false,
      "inputs": [
        {
          "indexed": false,
          "internalType": "uint256",
          "name": "reward",
          "type": "uint256"
        }
      ],
      "name": "RewardAdded",
      "type": "event"
    },
    {
      "anonymous": false,
      "inputs": [
        {
          "indexed": true,
          "internalType": "address",
          "name": "user",
          "type": "address"
        },
        {
          "indexed": false,
          "internalType": "uint256",
          "name": "reward",
          "type": "uint256"
        }
      ],
      "name": "RewardPaid",
      "type": "event"
    },
    {
      "anonymous": false,
      "inputs": [
        {
          "indexed": false,
          "internalType": "uint256",
          "name": "newDuration",
          "type": "uint256"
        }
      ],
      "name": "RewardsDurationUpdated",
      "type": "event"
    },
    {
      "anonymous": false,
      "inputs": [
        {
          "indexed": true,
          "internalType": "address",
          "name": "user",
          "type": "address"
        },
        {
          "indexed": false,
          "internalType": "uint256",
          "name": "amount",
          "type": "uint256"
        }
      ],
      "name": "Staked",
      "type": "event"
    },
    {
      "anonymous": false,
      "inputs": [
        {
          "indexed": true,
          "internalType": "address",
          "name": "user",
          "type": "address"
        },
        {
          "indexed": false,
          "internalType": "uint256",
          "name": "amount",
          "type": "uint256"
        }
      ],
      "name": "Withdrawn",
      "type": "event"
    },
    {
      "inputs": [],
      "name": "acceptOwnership",
      "outputs": [],
      "stateMutability": "nonpayable",
      "type": "function"
    },
    {
      "inputs": [],
      "name": "failsafeModeActive",
      "outputs": [
        {
          "internalType": "bool",
          "name": "",
          "type": "bool"
        }
      ],
      "stateMutability": "view",
      "type": "function"
    },
    {
      "inputs": [],
      "name": "lastPauseTime",
      "outputs": [
        {
          "internalType": "uint256",
          "name": "",
          "type": "uint256"
        }
      ],
      "stateMutability": "view",
      "type": "function"
    },
    {
      "inputs": [],
      "name": "lastUpdateTime",
      "outputs": [
        {
          "internalType": "uint256",
          "name": "",
          "type": "uint256"
        }
      ],
      "stateMutability": "view",
      "type": "function"
    },
    {
      "inputs": [],
      "name": "minimumStakeTime",
      "outputs": [
        {
          "internalType": "uint256",
          "name": "",
          "type": "uint256"
        }
      ],
      "stateMutability": "view",
      "type": "function"
    },
    {
      "inputs": [
        {
          "internalType": "address",
          "name": "_owner",
          "type": "address"
        }
      ],
      "name": "nominateNewOwner",
      "outputs": [],
      "stateMutability": "nonpayable",
      "type": "function"
    },
    {
      "inputs": [],
      "name": "nominatedOwner",
      "outputs": [
        {
          "internalType": "address",
          "name": "",
          "type": "address"
        }
      ],
      "stateMutability": "view",
      "type": "function"
    },
    {
      "inputs": [],
      "name": "owner",
      "outputs": [
        {
          "internalType": "address",
          "name": "",
          "type": "address"
        }
      ],
      "stateMutability": "view",
      "type": "function"
    },
    {
      "inputs": [],
      "name": "paused",
      "outputs": [
        {
          "internalType": "bool",
          "name": "",
          "type": "bool"
        }
      ],
      "stateMutability": "view",
      "type": "function"
    },
    {
      "inputs": [],
      "name": "periodFinish",
      "outputs": [
        {
          "internalType": "uint256",
          "name": "",
          "type": "uint256"
        }
      ],
      "stateMutability": "view",
      "type": "function"
    },
    {
      "inputs": [],
      "name": "rewardPerTokenStored",
      "outputs": [
        {
          "internalType": "uint256",
          "name": "",
          "type": "uint256"
        }
      ],
      "stateMutability": "view",
      "type": "function"
    },
    {
      "inputs": [],
      "name": "rewardRate",
      "outputs": [
        {
          "internalType": "uint256",
          "name": "",
          "type": "uint256"
        }
      ],
      "stateMutability": "view",
      "type": "function"
    },
    {
      "inputs": [
        {
          "internalType": "address",
          "name": "",
          "type": "address"
        }
      ],
      "name": "rewards",
      "outputs": [
        {
          "internalType": "uint256",
          "name": "",
          "type": "uint256"
        }
      ],
      "stateMutability": "view",
      "type": "function"
    },
    {
      "inputs": [],
      "name": "rewardsDistribution",
      "outputs": [
        {
          "internalType": "address",
          "name": "",
          "type": "address"
        }
      ],
      "stateMutability": "view",
      "type": "function"
    },
    {
      "inputs": [],
      "name": "rewardsDuration",
      "outputs": [
        {
          "internalType": "uint256",
          "name": "",
          "type": "uint256"
        }
      ],
      "stateMutability": "view",
      "type": "function"
    },
    {
      "inputs": [],
      "name": "rewardsToken",
      "outputs": [
        {
          "internalType": "contract IERC20",
          "name": "",
          "type": "address"
        }
      ],
      "stateMutability": "view",
      "type": "function"
    },
    {
      "inputs": [
        {
          "internalType": "bool",
          "name": "_paused",
          "type": "bool"
        }
      ],
      "name": "setPaused",
      "outputs": [],
      "stateMutability": "nonpayable",
      "type": "function"
    },
    {
      "inputs": [
        {
          "internalType": "address",
          "name": "_rewardsDistribution",
          "type": "address"
        }
      ],
      "name": "setRewardsDistribution",
      "outputs": [],
      "stateMutability": "nonpayable",
      "type": "function"
    },
    {
      "inputs": [],
      "name": "stakingToken",
      "outputs": [
        {
          "internalType": "contract IERC20",
          "name": "",
          "type": "address"
        }
      ],
      "stateMutability": "view",
      "type": "function"
    },
    {
      "inputs": [
        {
          "internalType": "address",
          "name": "",
          "type": "address"
        }
      ],
      "name": "userRewardPerTokenPaid",
      "outputs": [
        {
          "internalType": "uint256",
          "name": "",
          "type": "uint256"
        }
      ],
      "stateMutability": "view",
      "type": "function"
    },
    {
      "inputs": [],
      "name": "totalSupply",
      "outputs": [
        {
          "internalType": "uint256",
          "name": "",
          "type": "uint256"
        }
      ],
      "stateMutability": "view",
      "type": "function"
    },
    {
      "inputs": [
        {
          "internalType": "address",
          "name": "account",
          "type": "address"
        }
      ],
      "name": "balanceOf",
      "outputs": [
        {
          "internalType": "uint256",
          "name": "",
          "type": "uint256"
        }
      ],
      "stateMutability": "view",
      "type": "function"
    },
    {
      "inputs": [],
      "name": "lastTimeRewardApplicable",
      "outputs": [
        {
          "internalType": "uint256",
          "name": "",
          "type": "uint256"
        }
      ],
      "stateMutability": "view",
      "type": "function"
    },
    {
      "inputs": [],
      "name": "rewardPerToken",
      "outputs": [
        {
          "internalType": "uint256",
          "name": "",
          "type": "uint256"
        }
      ],
      "stateMutability": "view",
      "type": "function"
    },
    {
      "inputs": [
        {
          "internalType": "address",
          "name": "account",
          "type": "address"
        }
      ],
      "name": "earned",
      "outputs": [
        {
          "internalType": "uint256",
          "name": "",
          "type": "uint256"
        }
      ],
      "stateMutability": "view",
      "type": "function"
    },
    {
      "inputs": [],
      "name": "getRewardForDuration",
      "outputs": [
        {
          "internalType": "uint256",
          "name": "",
          "type": "uint256"
        }
      ],
      "stateMutability": "view",
      "type": "function"
    },
    {
      "inputs": [],
      "name": "getStakeRewardDistributionTimeLeft",
      "outputs": [
        {
          "internalType": "uint256",
          "name": "",
          "type": "uint256"
        }
      ],
      "stateMutability": "view",
      "type": "function"
    },
    {
      "inputs": [],
      "name": "getStakeUnlockTimeLeft",
      "outputs": [
        {
          "internalType": "uint256",
          "name": "",
          "type": "uint256"
        }
      ],
      "stateMutability": "view",
      "type": "function"
    },
    {
      "inputs": [
        {
          "internalType": "uint256",
          "name": "amount",
          "type": "uint256"
        }
      ],
      "name": "stake",
      "outputs": [],
      "stateMutability": "nonpayable",
      "type": "function"
    },
    {
      "inputs": [
        {
          "internalType": "uint256",
          "name": "amount",
          "type": "uint256"
        }
      ],
      "name": "withdraw",
      "outputs": [],
      "stateMutability": "nonpayable",
      "type": "function"
    },
    {
      "inputs": [],
      "name": "getReward",
      "outputs": [],
      "stateMutability": "nonpayable",
      "type": "function"
    },
    {
      "inputs": [],
      "name": "exit",
      "outputs": [],
      "stateMutability": "nonpayable",
      "type": "function"
    },
    {
      "inputs": [],
      "name": "recoverOwnStake",
      "outputs": [],
      "stateMutability": "nonpayable",
      "type": "function"
    },
    {
      "inputs": [
        {
          "internalType": "uint256",
          "name": "reward",
          "type": "uint256"
        }
      ],
      "name": "notifyRewardAmount",
      "outputs": [],
      "stateMutability": "nonpayable",
      "type": "function"
    },
    {
      "inputs": [
        {
          "internalType": "uint256",
          "name": "timestamp",
          "type": "uint256"
        }
      ],
      "name": "updatePeriodFinish",
      "outputs": [],
      "stateMutability": "nonpayable",
      "type": "function"
    },
    {
      "inputs": [
        {
          "internalType": "address",
          "name": "tokenAddress",
          "type": "address"
        },
        {
          "internalType": "uint256",
          "name": "tokenAmount",
          "type": "uint256"
        }
      ],
      "name": "recoverERC20",
      "outputs": [],
      "stateMutability": "nonpayable",
      "type": "function"
    },
    {
      "inputs": [
        {
          "internalType": "uint256",
          "name": "_rewardsDuration",
          "type": "uint256"
        }
      ],
      "name": "setRewardsDuration",
      "outputs": [],
      "stateMutability": "nonpayable",
      "type": "function"
    },
    {
      "inputs": [
        {
          "internalType": "uint256",
          "name": "_minimumStakeTime",
          "type": "uint256"
        }
      ],
      "name": "setMinimumStakeTime",
      "outputs": [],
      "stateMutability": "nonpayable",
      "type": "function"
    },
    {
      "inputs": [],
      "name": "enableFailsafeMode",
      "outputs": [],
      "stateMutability": "nonpayable",
      "type": "function"
    },
    {
      "inputs": [],
      "name": "recoverExtraStakingTokensToOwner",
      "outputs": [],
      "stateMutability": "nonpayable",
      "type": "function"
    }
  ],
  "bytecode": "0x60806040526004805460ff191690556000600881905560095562ed4e00600a5534801561002b57600080fd5b506040516122f53803806122f5833981810160405260a081101561004e57600080fd5b50805160208201516040830151606084015160809094015192939192909190846001600160a01b0381166100c9576040805162461bcd60e51b815260206004820152601960248201527f4f776e657220616464726573732063616e6e6f74206265203000000000000000604482015290519081900360640190fd5b600080546001600160a01b0319166001600160a01b038316908117825560408051928352602083019190915280517fb532073b38c83145e3e5135377a08bf9aab55bc0fd7c1179cd4fb995d2a5159c9281900390910190a15060016003556000546001600160a01b0316610178576040805162461bcd60e51b815260206004820152601160248201527013dddb995c881b5d5cdd081899481cd95d607a1b604482015290519081900360640190fd5b6000546001600160a01b03166101c9576040805162461bcd60e51b815260206004820152601160248201527013dddb995c881b5d5cdd081899481cd95d607a1b604482015290519081900360640190fd5b600680546001600160a01b0394851661010002610100600160a81b0319909116179055600780549284166001600160a01b0319938416179055600280549490931693909116929092179055600b55506120ce806102276000396000f3fe608060405234801561001057600080fd5b50600436106102475760003560e01c806370a082311161013b578063c8f33c91116100b8578063e2adc2371161007c578063e2adc23714610500578063e942204614610508578063e9fad8ee14610525578063ebe2b12b1461052d578063f603944c1461053557610247565b8063c8f33c91146104c3578063cc1a378f146104cb578063cd3daf9d146104e8578063d1af0c7d146104f0578063df136d65146104f857610247565b80638980f11f116100ff5780638980f11f146104445780638b876347146104705780638da5cb5b1461049657806391b4ded91461049e578063a694fc3a146104a657610247565b806370a08231146103fe57806372f702f31461042457806379ba50971461042c5780637b0a47ee1461043457806380faa57d1461043c57610247565b80632e1a7d4d116101c95780633fc6df6e1161018d5780633fc6df6e146103a557806344142db5146103c957806353a47bb7146103d1578063556f6e6b146103d95780635c975abb146103f657610247565b80632e1a7d4d146103535780632f3d3b1414610370578063386a9525146103785780633c6b16ab146103805780633d18b9121461039d57610247565b806318160ddd1161021057806318160ddd1461030d57806319762143146103155780631c1f78eb1461033b578063242df9e11461034357806327ab19691461034b57610247565b80628cc2621461024c5780630700037d146102845780631265cc97146102aa5780631627540c146102c657806316c38b3c146102ee575b600080fd5b6102726004803603602081101561026257600080fd5b50356001600160a01b031661053d565b60408051918252519081900360200190f35b6102726004803603602081101561029a57600080fd5b50356001600160a01b03166105d3565b6102b26105e5565b604080519115158252519081900360200190f35b6102ec600480360360208110156102dc57600080fd5b50356001600160a01b03166105ee565b005b6102ec6004803603602081101561030457600080fd5b5035151561064a565b6102726106c4565b6102ec6004803603602081101561032b57600080fd5b50356001600160a01b03166106cb565b6102726106f5565b610272610713565b610272610719565b6102ec6004803603602081101561036957600080fd5b503561074c565b6102ec6109bf565b610272610a78565b6102ec6004803603602081101561039657600080fd5b5035610a7e565b6102ec610d21565b6103ad610f1b565b604080516001600160a01b039092168252519081900360200190f35b6102ec610f2a565b6103ad610fec565b6102ec600480360360208110156103ef57600080fd5b5035610ffb565b6102b26110f2565b6102726004803603602081101561041457600080fd5b50356001600160a01b03166110fb565b6103ad611116565b6102ec611125565b6102726111e1565b6102726111e7565b6102ec6004803603604081101561045a57600080fd5b506001600160a01b0381351690602001356111f5565b6102726004803603602081101561048657600080fd5b50356001600160a01b03166112b2565b6103ad6112c4565b6102726112d3565b6102ec600480360360208110156104bc57600080fd5b50356112d9565b61027261152c565b6102ec600480360360208110156104e157600080fd5b5035611532565b6102726115f7565b6103ad611651565b610272611665565b6102ec61166b565b6102ec6004803603602081101561051e57600080fd5b50356116d3565b6102ec611758565b6102726117bb565b6102726117c1565b6001600160a01b0381166000908152600f6020908152604080832054600e9092528220546105cd91906105c190670de0b6b3a7640000906105b590610590906105846115f7565b9063ffffffff6117fc16565b6001600160a01b0388166000908152601160205260409020549063ffffffff61185916565b9063ffffffff6118b916565b9063ffffffff61192016565b92915050565b600f6020526000908152604090205481565b60045460ff1681565b6105f661197a565b600180546001600160a01b0383166001600160a01b0319909116811790915560408051918252517f906a1c6bd7e3091ea86693dd029a831c19049ce77f1dce2ce0bab1cacbabce229181900360200190a150565b61065261197a565b60065460ff1615158115151415610668576106c1565b6006805460ff1916821515179081905560ff161561068557426005555b6006546040805160ff90921615158252517f8fb6c181ee25a520cf3dd6565006ef91229fcfe5a989566c2a3b8c115570cec59181900360200190a15b50565b6010545b90565b6106d361197a565b600280546001600160a01b0319166001600160a01b0392909216919091179055565b600061070e600a5460095461185990919063ffffffff16565b905090565b600b5481565b6000806000610733426008546119c390919063ffffffff16565b9150915081610743576000610745565b805b9250505090565b60045460ff161561078e5760405162461bcd60e51b8152600401808060200182810382526046815260200180611e526046913960600191505060405180910390fd5b600260035414156107e6576040805162461bcd60e51b815260206004820152601f60248201527f5265656e7472616e637947756172643a207265656e7472616e742063616c6c00604482015290519081900360640190fd5b6002600355600454339060ff16610851576107ff6115f7565b600d5561080a6111e7565b600c556001600160a01b03811615610851576108258161053d565b6001600160a01b0382166000908152600f6020908152604080832093909355600d54600e909152919020555b6000821161089a576040805162461bcd60e51b8152602060048201526011602482015270043616e6e6f74207769746864726177203607c1b604482015290519081900360640190fd5b600b5415806108cb5750600b54336000908152601260205260409020546108c890429063ffffffff6117fc16565b10155b6109065760405162461bcd60e51b8152600401808060200182810382526035815260200180611f566035913960400191505060405180910390fd5b601054610919908363ffffffff6117fc16565b6010553360009081526011602052604090205461093c908363ffffffff6117fc16565b33600090815260116020526040902081905561096357336000908152601260205260408120555b600754610980906001600160a01b0316338463ffffffff6119e916565b60408051838152905133917f7084f5476618d8e60b11ef0d7d3f06914655adb8793e28ff7f018d4c76d505d5919081900360200190a250506001600355565b60045460ff16610a005760405162461bcd60e51b8152600401808060200182810382526048815260200180611e986048913960600191505060405180910390fd5b3360009081526011602052604090205480156106c157601054610a29908263ffffffff6117fc16565b60105533600090815260116020526040902054610a4c908263ffffffff6117fc16565b336000818152601160205260409020919091556007546106c1916001600160a01b0390911690836119e9565b600a5481565b60045460ff1615610ac05760405162461bcd60e51b8152600401808060200182810382526046815260200180611e526046913960600191505060405180910390fd5b6002546001600160a01b03163314610b095760405162461bcd60e51b815260040180806020018281038252602a815260200180611fed602a913960400191505060405180910390fd5b60045460009060ff16610b7057610b1e6115f7565b600d55610b296111e7565b600c556001600160a01b03811615610b7057610b448161053d565b6001600160a01b0382166000908152600f6020908152604080832093909355600d54600e909152919020555b6008544210610b9557600a54610b8d90839063ffffffff6118b916565b600955610be4565b600854600090610bab904263ffffffff6117fc16565b90506000610bc46009548361185990919063ffffffff16565b600a54909150610bde906105b5868463ffffffff61192016565b60095550505b600654604080516370a0823160e01b8152306004820152905160009261010090046001600160a01b0316916370a08231916024808301926020929190829003018186803b158015610c3457600080fd5b505afa158015610c48573d6000803e3d6000fd5b505050506040513d6020811015610c5e57600080fd5b5051600a54909150610c7790829063ffffffff6118b916565b6009541115610ccd576040805162461bcd60e51b815260206004820152601860248201527f50726f76696465642072657761726420746f6f20686967680000000000000000604482015290519081900360640190fd5b42600c819055600a54610ce6919063ffffffff61192016565b6008556040805184815290517fde88a922e0d3b88b24e9623efeb464919c6bf9f66857a65e2bfcf2ce87a9433d9181900360200190a1505050565b60045460ff1615610d635760405162461bcd60e51b8152600401808060200182810382526046815260200180611e526046913960600191505060405180910390fd5b60026003541415610dbb576040805162461bcd60e51b815260206004820152601f60248201527f5265656e7472616e637947756172643a207265656e7472616e742063616c6c00604482015290519081900360640190fd5b6002600355600454339060ff16610e2657610dd46115f7565b600d55610ddf6111e7565b600c556001600160a01b03811615610e2657610dfa8161053d565b6001600160a01b0382166000908152600f6020908152604080832093909355600d54600e909152919020555b600b541580610e575750600b5433600090815260126020526040902054610e5490429063ffffffff6117fc16565b10155b610e925760405162461bcd60e51b81526004018080602001828103825260378152602001806120416037913960400191505060405180910390fd5b336000908152600f60205260409020548015610f1257336000818152600f6020526040812055600654610edb916101009091046001600160a01b0316908363ffffffff6119e916565b60408051828152905133917fe2403640ba68fed3a2f88b7557551d1993f84b99bb10ff833f0cf8db0c5e0486919081900360200190a25b50506001600355565b6002546001600160a01b031681565b610f3261197a565b601054600754604080516370a0823160e01b81523060048201529051600093610fc19390926001600160a01b03909116916370a0823191602480820192602092909190829003018186803b158015610f8957600080fd5b505afa158015610f9d573d6000803e3d6000fd5b505050506040513d6020811015610fb357600080fd5b50519063ffffffff6117fc16565b905080156106c1576000546007546106c1916001600160a01b0391821691168363ffffffff6119e916565b6001546001600160a01b031681565b60045460ff161561103d5760405162461bcd60e51b8152600401808060200182810382526046815260200180611e526046913960600191505060405180910390fd5b61104561197a565b60045460009060ff166110ac5761105a6115f7565b600d556110656111e7565b600c556001600160a01b038116156110ac576110808161053d565b6001600160a01b0382166000908152600f6020908152604080832093909355600d54600e909152919020555b600c5482116110ec5760405162461bcd60e51b8152600401808060200182810382526026815260200180611f8b6026913960400191505060405180910390fd5b50600855565b60065460ff1681565b6001600160a01b031660009081526011602052604090205490565b6007546001600160a01b031681565b6001546001600160a01b0316331461116e5760405162461bcd60e51b8152600401808060200182810382526035815260200180611e1d6035913960400191505060405180910390fd5b600054600154604080516001600160a01b03938416815292909116602083015280517fb532073b38c83145e3e5135377a08bf9aab55bc0fd7c1179cd4fb995d2a5159c9281900390910190a160018054600080546001600160a01b03199081166001600160a01b03841617909155169055565b60095481565b600061070e42600854611a40565b6111fd61197a565b6007546001600160a01b038381169116141561124a5760405162461bcd60e51b81526004018080602001828103825260218152602001806120786021913960400191505060405180910390fd5b60005461126a906001600160a01b0384811691168363ffffffff6119e916565b604080516001600160a01b03841681526020810183905281517f8c1256b8896378cd5044f80c202f9772b9d77dc85c8a6eb51967210b09bfaa28929181900390910190a15050565b600e6020526000908152604090205481565b6000546001600160a01b031681565b60055481565b60045460ff161561131b5760405162461bcd60e51b8152600401808060200182810382526046815260200180611e526046913960600191505060405180910390fd5b60026003541415611373576040805162461bcd60e51b815260206004820152601f60248201527f5265656e7472616e637947756172643a207265656e7472616e742063616c6c00604482015290519081900360640190fd5b600260035560065460ff16156113ba5760405162461bcd60e51b815260040180806020018281038252603c815260200180611fb1603c913960400191505060405180910390fd5b600454339060ff16611420576113ce6115f7565b600d556113d96111e7565b600c556001600160a01b03811615611420576113f48161053d565b6001600160a01b0382166000908152600f6020908152604080832093909355600d54600e909152919020555b60008211611466576040805162461bcd60e51b815260206004820152600e60248201526d043616e6e6f74207374616b6520360941b604482015290519081900360640190fd5b601054611479908363ffffffff61192016565b6010553360009081526011602052604090205461149c908363ffffffff61192016565b336000908152601160209081526040808320939093556012905220546114cf573360009081526012602052604090204290555b6007546114ed906001600160a01b031633308563ffffffff611a5616565b60408051838152905133917f9e71bc8eea02a63969f509818f2dafb9254532904319f9dbda79b67bd34a5f3d919081900360200190a250506001600355565b600c5481565b60045460ff16156115745760405162461bcd60e51b8152600401808060200182810382526046815260200180611e526046913960600191505060405180910390fd5b61157c61197a565b60085442116115bc5760405162461bcd60e51b8152600401808060200182810382526058815260200180611dc56058913960600191505060405180910390fd5b600a8190556040805182815290517ffb46ca5a5e06d4540d6387b930a7c978bce0db5f449ec6b3f5d07c6e1d44f2d39181900360200190a150565b60006010546000141561160d5750600d546106c8565b61070e6116426010546105b5670de0b6b3a7640000611636600954611636600c546105846111e7565b9063ffffffff61185916565b600d549063ffffffff61192016565b60065461010090046001600160a01b031681565b600d5481565b60045460ff16156116ad5760405162461bcd60e51b8152600401808060200182810382526046815260200180611e526046913960600191505060405180910390fd5b6116b561197a565b6000600b81905560088190556009819055600d556116d1611ab6565b565b60045460ff16156117155760405162461bcd60e51b8152600401808060200182810382526046815260200180611e526046913960600191505060405180910390fd5b61171d61197a565b600b8190556040805182815290517f2b0fa66d155c9598699cb6569577f27b95729bbf580268eed39db6bc4e8144779181900360200190a150565b60045460ff161561179a5760405162461bcd60e51b8152600401808060200182810382526046815260200180611e526046913960600191505060405180910390fd5b336000908152601160205260409020546117b39061074c565b6116d1610d21565b60085481565b600b54336000908152601260205260408120549091829182916107339142916117f0919063ffffffff61192016565b9063ffffffff6119c316565b600082821115611853576040805162461bcd60e51b815260206004820152601e60248201527f536166654d6174683a207375627472616374696f6e206f766572666c6f770000604482015290519081900360640190fd5b50900390565b600082611868575060006105cd565b8282028284828161187557fe5b04146118b25760405162461bcd60e51b8152600401808060200182810382526021815260200180611f356021913960400191505060405180910390fd5b9392505050565b600080821161190f576040805162461bcd60e51b815260206004820152601a60248201527f536166654d6174683a206469766973696f6e206279207a65726f000000000000604482015290519081900360640190fd5b81838161191857fe5b049392505050565b6000828201838110156118b2576040805162461bcd60e51b815260206004820152601b60248201527f536166654d6174683a206164646974696f6e206f766572666c6f770000000000604482015290519081900360640190fd5b6000546001600160a01b031633146116d15760405162461bcd60e51b815260040180806020018281038252602f815260200180611f06602f913960400191505060405180910390fd5b600080838311156119d9575060009050806119e2565b50600190508183035b9250929050565b604080516001600160a01b038416602482015260448082018490528251808303909101815260649091019091526020810180516001600160e01b031663a9059cbb60e01b179052611a3b908490611af6565b505050565b6000818310611a4f57816118b2565b5090919050565b604080516001600160a01b0380861660248301528416604482015260648082018490528251808303909101815260849091019091526020810180516001600160e01b03166323b872dd60e01b179052611ab0908590611af6565b50505050565b611abe61197a565b6004805460ff191660011790556040517fe68101b30364d616deefc8cd307b7e27ccbd9c73f138bd478179497563d97a1190600090a1565b6060611b4b826040518060400160405280602081526020017f5361666545524332303a206c6f772d6c6576656c2063616c6c206661696c6564815250856001600160a01b0316611ba79092919063ffffffff16565b805190915015611a3b57808060200190516020811015611b6a57600080fd5b5051611a3b5760405162461bcd60e51b815260040180806020018281038252602a815260200180612017602a913960400191505060405180910390fd5b6060611bb68484600085611bbe565b949350505050565b606082471015611bff5760405162461bcd60e51b8152600401808060200182810382526026815260200180611ee06026913960400191505060405180910390fd5b611c0885611d1a565b611c59576040805162461bcd60e51b815260206004820152601d60248201527f416464726573733a2063616c6c20746f206e6f6e2d636f6e7472616374000000604482015290519081900360640190fd5b60006060866001600160a01b031685876040518082805190602001908083835b60208310611c985780518252601f199092019160209182019101611c79565b6001836020036101000a03801982511681845116808217855250505050505090500191505060006040518083038185875af1925050503d8060008114611cfa576040519150601f19603f3d011682016040523d82523d6000602084013e611cff565b606091505b5091509150611d0f828286611d20565b979650505050505050565b3b151590565b60608315611d2f5750816118b2565b825115611d3f5782518084602001fd5b8160405162461bcd60e51b81526004018080602001828103825283818151815260200191508051906020019080838360005b83811015611d89578181015183820152602001611d71565b50505050905090810190601f168015611db65780820380516001836020036101000a031916815260200191505b509250505060405180910390fdfe50726576696f7573207265776172647320706572696f64206d75737420626520636f6d706c657465206265666f7265206368616e67696e6720746865206475726174696f6e20666f7220746865206e657720706572696f64596f75206d757374206265206e6f6d696e61746564206265666f726520796f752063616e20616363657074206f776e6572736869705468697320616374696f6e2063616e6e6f7420626520706572666f726d6564207768696c652074686520636f6e747261637420697320696e204661696c73616665204d6f64655468697320616374696f6e2063616e206f6e6c7920626520706572666f726d6564207768696c652074686520636f6e747261637420697320696e204661696c73616665204d6f6465416464726573733a20696e73756666696369656e742062616c616e636520666f722063616c6c4f6e6c792074686520636f6e7472616374206f776e6572206d617920706572666f726d207468697320616374696f6e536166654d6174683a206d756c7469706c69636174696f6e206f766572666c6f7743616e6e6f7420776974686472617720756e74696c206d696e696d756d207374616b696e672074696d65206861732070617373656454696d657374616d70206d757374206265206166746572206c61737455706461746554696d655468697320616374696f6e2063616e6e6f7420626520706572666f726d6564207768696c652074686520636f6e74726163742069732070617573656443616c6c6572206973206e6f742052657761726473446973747269627574696f6e20636f6e74726163745361666545524332303a204552433230206f7065726174696f6e20646964206e6f74207375636365656443616e6e6f74206765742072657761726420756e74696c206d696e696d756d207374616b696e672074696d65206861732070617373656443616e6e6f7420776974686472617720746865207374616b696e6720746f6b656ea26469706673582212201cb688502101a79aec443dd2826233da36afd80794007ab08c25cf0e607a69b464736f6c63430006050033",
  "immutableReferences": {},
  "source": "pragma solidity ^0.6.2;\n\nimport \"../../node_modules/@openzeppelin/contracts/math/Math.sol\";\nimport \"../../node_modules/@openzeppelin/contracts/math/SafeMath.sol\";\nimport \"../../node_modules/@openzeppelin/contracts/token/ERC20/SafeERC20.sol\";\nimport \"../../node_modules/@openzeppelin/contracts/utils/ReentrancyGuard.sol\";\n\n// Inheritance\nimport \"./interfaces/IStakingRewards.sol\";\nimport \"./RewardsDistributionRecipient.sol\";\nimport \"./SynthetixPausable.sol\";\nimport \"./Failsafe.sol\";\n\n// https://docs.synthetix.io/contracts/source/contracts/stakingrewards\ncontract StakingRewards is\n    IStakingRewards,\n    RewardsDistributionRecipient,\n    ReentrancyGuard,\n    Failsafe,\n    SynthetixPausable\n{\n    using SafeMath for uint256;\n    using SafeERC20 for IERC20;\n\n    /* ========== STATE VARIABLES ========== */\n\n    IERC20 public rewardsToken;\n    IERC20 public stakingToken;\n    uint256 public periodFinish = 0;\n    uint256 public override rewardRate = 0;\n    uint256 public override rewardsDuration = 180 days;\n    uint256 public override minimumStakeTime;\n    uint256 public lastUpdateTime;\n    uint256 public rewardPerTokenStored;\n\n    mapping(address => uint256) public userRewardPerTokenPaid;\n    mapping(address => uint256) public rewards;\n\n    uint256 private _totalSupply;\n    mapping(address => uint256) private _balances;\n    mapping(address => uint256) private _stakeTimestamp;\n\n    /* ========== CONSTRUCTOR ========== */\n\n    constructor(\n        address _owner,\n        address _rewardsDistribution,\n        address _rewardsToken,\n        address _stakingToken,\n        uint256 _minimumStakeTime\n    ) public Owned(_owner) {\n        rewardsToken = IERC20(_rewardsToken);\n        stakingToken = IERC20(_stakingToken);\n        rewardsDistribution = _rewardsDistribution;\n        minimumStakeTime = _minimumStakeTime;\n    }\n\n    /* ========== VIEWS ========== */\n\n    function totalSupply() external view override returns (uint256) {\n        return _totalSupply;\n    }\n\n    function balanceOf(address account)\n        external\n        view\n        override\n        returns (uint256)\n    {\n        return _balances[account];\n    }\n\n    function lastTimeRewardApplicable() public view override returns (uint256) {\n        return Math.min(block.timestamp, periodFinish);\n    }\n\n    function rewardPerToken() public view override returns (uint256) {\n        if (_totalSupply == 0) {\n            return rewardPerTokenStored;\n        }\n        return\n            rewardPerTokenStored.add(\n                lastTimeRewardApplicable()\n                    .sub(lastUpdateTime)\n                    .mul(rewardRate)\n                    .mul(1e18)\n                    .div(_totalSupply)\n            );\n    }\n\n    function earned(address account) public view override returns (uint256) {\n        return\n            _balances[account]\n                .mul(rewardPerToken().sub(userRewardPerTokenPaid[account]))\n                .div(1e18)\n                .add(rewards[account]);\n    }\n\n    function getRewardForDuration() external view override returns (uint256) {\n        return rewardRate.mul(rewardsDuration);\n    }\n\n    function getStakeRewardDistributionTimeLeft()\n        external\n        override\n        view\n        returns (uint256)\n    {\n        (bool success, uint256 diff) = periodFinish.trySub(block.timestamp);\n        return success ? diff : 0;\n    }\n\n    function getStakeUnlockTimeLeft() external override view returns (uint256) {\n        (bool success, uint256 diff) =\n            _stakeTimestamp[msg.sender].add(minimumStakeTime).trySub(\n                block.timestamp\n            );\n        return success ? diff : 0;\n    }\n\n    /* ========== MUTATIVE FUNCTIONS ========== */\n\n    function stake(uint256 amount)\n        external\n        override\n        normalMode\n        nonReentrant\n        notPaused\n        updateReward(msg.sender)\n    {\n        require(amount > 0, \"Cannot stake 0\");\n        _totalSupply = _totalSupply.add(amount);\n        _balances[msg.sender] = _balances[msg.sender].add(amount);\n        if (_stakeTimestamp[msg.sender] == 0) {\n            _stakeTimestamp[msg.sender] = block.timestamp;\n        }\n        stakingToken.safeTransferFrom(msg.sender, address(this), amount);\n        emit Staked(msg.sender, amount);\n    }\n\n    function withdraw(uint256 amount)\n        public\n        override\n        normalMode\n        nonReentrant\n        updateReward(msg.sender)\n    {\n        require(amount > 0, \"Cannot withdraw 0\");\n        require(\n            minimumStakeTime == 0 ||\n                block.timestamp.sub(_stakeTimestamp[msg.sender]) >=\n                minimumStakeTime,\n            \"Cannot withdraw until minimum staking time has passed\"\n        );\n        _totalSupply = _totalSupply.sub(amount);\n        _balances[msg.sender] = _balances[msg.sender].sub(amount);\n        if (_balances[msg.sender] == 0) {\n            _stakeTimestamp[msg.sender] = 0;\n        }\n        stakingToken.safeTransfer(msg.sender, amount);\n        emit Withdrawn(msg.sender, amount);\n    }\n\n    function getReward()\n        public\n        override\n        normalMode\n        nonReentrant\n        updateReward(msg.sender)\n    {\n        require(\n            minimumStakeTime == 0 ||\n                block.timestamp.sub(_stakeTimestamp[msg.sender]) >=\n                minimumStakeTime,\n            \"Cannot get reward until minimum staking time has passed\"\n        );\n        uint256 reward = rewards[msg.sender];\n        if (reward > 0) {\n            rewards[msg.sender] = 0;\n            rewardsToken.safeTransfer(msg.sender, reward);\n            emit RewardPaid(msg.sender, reward);\n        }\n    }\n\n    function exit() external override normalMode {\n        withdraw(_balances[msg.sender]);\n        getReward();\n    }\n\n    function recoverOwnStake() external failsafeMode {\n        uint256 amount = _balances[msg.sender];\n        if (amount > 0) {\n            _totalSupply = _totalSupply.sub(amount);\n            _balances[msg.sender] = _balances[msg.sender].sub(amount);\n            stakingToken.safeTransfer(msg.sender, amount);\n        }\n    }\n\n    /* ========== RESTRICTED FUNCTIONS ========== */\n\n    function notifyRewardAmount(uint256 reward)\n        external\n        override\n        normalMode\n        onlyRewardsDistribution\n        updateReward(address(0))\n    {\n        if (block.timestamp >= periodFinish) {\n            rewardRate = reward.div(rewardsDuration);\n        } else {\n            uint256 remaining = periodFinish.sub(block.timestamp);\n            uint256 leftover = remaining.mul(rewardRate);\n            rewardRate = reward.add(leftover).div(rewardsDuration);\n        }\n\n        // Ensure the provided reward amount is not more than the balance in the contract.\n        // This keeps the reward rate in the right range, preventing overflows due to\n        // very high values of rewardRate in the earned and rewardsPerToken functions;\n        // Reward + leftover must be less than 2^256 / 10^18 to avoid overflow.\n        uint256 balance = rewardsToken.balanceOf(address(this));\n        require(\n            rewardRate <= balance.div(rewardsDuration),\n            \"Provided reward too high\"\n        );\n\n        lastUpdateTime = block.timestamp;\n        periodFinish = block.timestamp.add(rewardsDuration);\n        emit RewardAdded(reward);\n    }\n\n    // End rewards emission earlier\n    function updatePeriodFinish(uint256 timestamp)\n        external\n        normalMode\n        onlyOwner\n        updateReward(address(0))\n    {\n        require(\n            timestamp > lastUpdateTime,\n            \"Timestamp must be after lastUpdateTime\"\n        );\n        periodFinish = timestamp;\n    }\n\n    // Added to support recovering LP Rewards from other systems such as BAL to be distributed to holders\n    function recoverERC20(address tokenAddress, uint256 tokenAmount)\n        external\n        onlyOwner\n    {\n        require(\n            tokenAddress != address(stakingToken),\n            \"Cannot withdraw the staking token\"\n        );\n        IERC20(tokenAddress).safeTransfer(owner, tokenAmount);\n        emit Recovered(tokenAddress, tokenAmount);\n    }\n\n    function setRewardsDuration(uint256 _rewardsDuration)\n        external\n        normalMode\n        onlyOwner\n    {\n        require(\n            block.timestamp > periodFinish,\n            \"Previous rewards period must be complete before changing the duration for the new period\"\n        );\n        rewardsDuration = _rewardsDuration;\n        emit RewardsDurationUpdated(rewardsDuration);\n    }\n\n    function setMinimumStakeTime(uint256 _minimumStakeTime)\n        external\n        normalMode\n        onlyOwner\n    {\n        minimumStakeTime = _minimumStakeTime;\n        emit MinimumStakeTimeUpdated(_minimumStakeTime);\n    }\n\n    function enableFailsafeMode() public override normalMode onlyOwner {\n        minimumStakeTime = 0;\n        periodFinish = 0;\n        rewardRate = 0;\n        rewardPerTokenStored = 0;\n\n        super.enableFailsafeMode();\n    }\n\n    function recoverExtraStakingTokensToOwner() external onlyOwner {\n        // stake() and withdraw() should guarantee that\n        // _totalSupply <= stakingToken.balanceOf(this)\n        uint256 stakingTokenAmountBelongingToOwner =\n            stakingToken.balanceOf(address(this)).sub(_totalSupply);\n\n        if (stakingTokenAmountBelongingToOwner > 0) {\n            stakingToken.safeTransfer(\n                owner,\n                stakingTokenAmountBelongingToOwner\n            );\n        }\n    }\n\n    /* ========== MODIFIERS ========== */\n\n    modifier updateReward(address account) {\n        if (!failsafeModeActive) {\n            rewardPerTokenStored = rewardPerToken();\n            lastUpdateTime = lastTimeRewardApplicable();\n            if (account != address(0)) {\n                rewards[account] = earned(account);\n                userRewardPerTokenPaid[account] = rewardPerTokenStored;\n            }\n        }\n        _;\n    }\n\n    /* ========== EVENTS ========== */\n\n    event RewardAdded(uint256 reward);\n    event Staked(address indexed user, uint256 amount);\n    event Withdrawn(address indexed user, uint256 amount);\n    event RewardPaid(address indexed user, uint256 reward);\n    event RewardsDurationUpdated(uint256 newDuration);\n    event MinimumStakeTimeUpdated(uint256 newMinimumStakeTime);\n    event Recovered(address token, uint256 amount);\n}\n",
  "sourcePath": "C:\\Users\\Asus\\Desktop\\PROJECT\\hell_meter\\contracts\\staking\\StakingRewards.sol",
  "compiler": {
    "name": "solc",
    "version": "0.6.5+commit.f956cc89.Emscripten.clang"
  },
  "schemaVersion": "3.3.4",
  "updatedAt": "2022-08-10T23:11:07.841Z",
  "devdoc": {
    "methods": {
      "setPaused(bool)": {
        "details": "Only the contract owner may call this."
      }
    }
  },
  "userdoc": {
    "methods": {
      "setPaused(bool)": {
        "notice": "Change the paused state of the contract"
      }
    }
  }
}